{"abi":[{"type":"constructor","inputs":[{"name":"_paymentToken","type":"address","internalType":"address"},{"name":"_oracle","type":"address","internalType":"address"},{"name":"_contestantDepositAmount","type":"uint256","internalType":"uint256"},{"name":"_oracleFeeBps","type":"uint256","internalType":"uint256"},{"name":"_expiryTimestamp","type":"uint256","internalType":"uint256"},{"name":"_liquidityParameter","type":"uint256","internalType":"uint256"},{"name":"_demandSensitivityBps","type":"uint256","internalType":"uint256"}],"stateMutability":"nonpayable"},{"type":"function","name":"BPS_DENOMINATOR","inputs":[],"outputs":[{"name":"","type":"uint256","internalType":"uint256"}],"stateMutability":"view"},{"type":"function","name":"PRICE_PRECISION","inputs":[],"outputs":[{"name":"","type":"uint256","internalType":"uint256"}],"stateMutability":"view"},{"type":"function","name":"SPECTATOR_ENTRY_FEE_BPS","inputs":[],"outputs":[{"name":"","type":"uint256","internalType":"uint256"}],"stateMutability":"view"},{"type":"function","name":"accumulatedPrizeBonus","inputs":[],"outputs":[{"name":"","type":"uint256","internalType":"uint256"}],"stateMutability":"view"},{"type":"function","name":"activateContest","inputs":[],"outputs":[],"stateMutability":"nonpayable"},{"type":"function","name":"addPrediction","inputs":[{"name":"entryId","type":"uint256","internalType":"uint256"},{"name":"amount","type":"uint256","internalType":"uint256"}],"outputs":[],"stateMutability":"nonpayable"},{"type":"function","name":"balanceOf","inputs":[{"name":"account","type":"address","internalType":"address"},{"name":"id","type":"uint256","internalType":"uint256"}],"outputs":[{"name":"","type":"uint256","internalType":"uint256"}],"stateMutability":"view"},{"type":"function","name":"balanceOfBatch","inputs":[{"name":"accounts","type":"address[]","internalType":"address[]"},{"name":"ids","type":"uint256[]","internalType":"uint256[]"}],"outputs":[{"name":"","type":"uint256[]","internalType":"uint256[]"}],"stateMutability":"view"},{"type":"function","name":"calculateEntryPrice","inputs":[{"name":"entryId","type":"uint256","internalType":"uint256"}],"outputs":[{"name":"","type":"uint256","internalType":"uint256"}],"stateMutability":"view"},{"type":"function","name":"cancelContest","inputs":[],"outputs":[],"stateMutability":"nonpayable"},{"type":"function","name":"cancelExpired","inputs":[],"outputs":[],"stateMutability":"nonpayable"},{"type":"function","name":"claimAllEntryPayouts","inputs":[],"outputs":[],"stateMutability":"nonpayable"},{"type":"function","name":"claimEntryPayout","inputs":[{"name":"entryId","type":"uint256","internalType":"uint256"}],"outputs":[],"stateMutability":"nonpayable"},{"type":"function","name":"claimPredictionPayout","inputs":[{"name":"entryId","type":"uint256","internalType":"uint256"}],"outputs":[],"stateMutability":"nonpayable"},{"type":"function","name":"closePredictions","inputs":[],"outputs":[],"stateMutability":"nonpayable"},{"type":"function","name":"contestantDepositAmount","inputs":[],"outputs":[{"name":"","type":"uint256","internalType":"uint256"}],"stateMutability":"view"},{"type":"function","name":"demandSensitivityBps","inputs":[],"outputs":[{"name":"","type":"uint256","internalType":"uint256"}],"stateMutability":"view"},{"type":"function","name":"distributeExpiredContest","inputs":[],"outputs":[],"stateMutability":"nonpayable"},{"type":"function","name":"entries","inputs":[{"name":"","type":"uint256","internalType":"uint256"}],"outputs":[{"name":"","type":"uint256","internalType":"uint256"}],"stateMutability":"view"},{"type":"function","name":"entryBonuses","inputs":[{"name":"","type":"uint256","internalType":"uint256"}],"outputs":[{"name":"","type":"uint256","internalType":"uint256"}],"stateMutability":"view"},{"type":"function","name":"entryOwner","inputs":[{"name":"","type":"uint256","internalType":"uint256"}],"outputs":[{"name":"","type":"address","internalType":"address"}],"stateMutability":"view"},{"type":"function","name":"entryWithdrawn","inputs":[{"name":"","type":"uint256","internalType":"uint256"}],"outputs":[{"name":"","type":"bool","internalType":"bool"}],"stateMutability":"view"},{"type":"function","name":"expiryTimestamp","inputs":[],"outputs":[{"name":"","type":"uint256","internalType":"uint256"}],"stateMutability":"view"},{"type":"function","name":"finalEntryPayouts","inputs":[{"name":"","type":"uint256","internalType":"uint256"}],"outputs":[{"name":"","type":"uint256","internalType":"uint256"}],"stateMutability":"view"},{"type":"function","name":"getEntriesCount","inputs":[],"outputs":[{"name":"","type":"uint256","internalType":"uint256"}],"stateMutability":"view"},{"type":"function","name":"getEntryAtIndex","inputs":[{"name":"index","type":"uint256","internalType":"uint256"}],"outputs":[{"name":"","type":"uint256","internalType":"uint256"}],"stateMutability":"view"},{"type":"function","name":"getSpectatorAtIndex","inputs":[{"name":"index","type":"uint256","internalType":"uint256"}],"outputs":[{"name":"","type":"address","internalType":"address"}],"stateMutability":"view"},{"type":"function","name":"getSpectatorsCount","inputs":[],"outputs":[{"name":"","type":"uint256","internalType":"uint256"}],"stateMutability":"view"},{"type":"function","name":"getUserEntriesCount","inputs":[{"name":"user","type":"address","internalType":"address"}],"outputs":[{"name":"","type":"uint256","internalType":"uint256"}],"stateMutability":"view"},{"type":"function","name":"getUserEntryAtIndex","inputs":[{"name":"user","type":"address","internalType":"address"},{"name":"index","type":"uint256","internalType":"uint256"}],"outputs":[{"name":"","type":"uint256","internalType":"uint256"}],"stateMutability":"view"},{"type":"function","name":"isApprovedForAll","inputs":[{"name":"account","type":"address","internalType":"address"},{"name":"operator","type":"address","internalType":"address"}],"outputs":[{"name":"","type":"bool","internalType":"bool"}],"stateMutability":"view"},{"type":"function","name":"isSpectator","inputs":[{"name":"","type":"address","internalType":"address"}],"outputs":[{"name":"","type":"bool","internalType":"bool"}],"stateMutability":"view"},{"type":"function","name":"joinContest","inputs":[{"name":"entryId","type":"uint256","internalType":"uint256"}],"outputs":[],"stateMutability":"nonpayable"},{"type":"function","name":"leaveContest","inputs":[{"name":"entryId","type":"uint256","internalType":"uint256"}],"outputs":[],"stateMutability":"nonpayable"},{"type":"function","name":"liquidityParameter","inputs":[],"outputs":[{"name":"","type":"uint256","internalType":"uint256"}],"stateMutability":"view"},{"type":"function","name":"netPosition","inputs":[{"name":"","type":"uint256","internalType":"uint256"}],"outputs":[{"name":"","type":"int256","internalType":"int256"}],"stateMutability":"view"},{"type":"function","name":"oracle","inputs":[],"outputs":[{"name":"","type":"address","internalType":"address"}],"stateMutability":"view"},{"type":"function","name":"oracleFeeBps","inputs":[],"outputs":[{"name":"","type":"uint256","internalType":"uint256"}],"stateMutability":"view"},{"type":"function","name":"paymentToken","inputs":[],"outputs":[{"name":"","type":"address","internalType":"contract IERC20"}],"stateMutability":"view"},{"type":"function","name":"safeBatchTransferFrom","inputs":[{"name":"from","type":"address","internalType":"address"},{"name":"to","type":"address","internalType":"address"},{"name":"ids","type":"uint256[]","internalType":"uint256[]"},{"name":"values","type":"uint256[]","internalType":"uint256[]"},{"name":"data","type":"bytes","internalType":"bytes"}],"outputs":[],"stateMutability":"nonpayable"},{"type":"function","name":"safeTransferFrom","inputs":[{"name":"from","type":"address","internalType":"address"},{"name":"to","type":"address","internalType":"address"},{"name":"id","type":"uint256","internalType":"uint256"},{"name":"value","type":"uint256","internalType":"uint256"},{"name":"data","type":"bytes","internalType":"bytes"}],"outputs":[],"stateMutability":"nonpayable"},{"type":"function","name":"setApprovalForAll","inputs":[{"name":"operator","type":"address","internalType":"address"},{"name":"approved","type":"bool","internalType":"bool"}],"outputs":[],"stateMutability":"nonpayable"},{"type":"function","name":"settleContest","inputs":[{"name":"winningEntries","type":"uint256[]","internalType":"uint256[]"},{"name":"payoutBps","type":"uint256[]","internalType":"uint256[]"}],"outputs":[],"stateMutability":"nonpayable"},{"type":"function","name":"spectatorDepositedPerEntry","inputs":[{"name":"","type":"address","internalType":"address"},{"name":"","type":"uint256","internalType":"uint256"}],"outputs":[{"name":"","type":"uint256","internalType":"uint256"}],"stateMutability":"view"},{"type":"function","name":"spectatorMarketResolved","inputs":[],"outputs":[{"name":"","type":"bool","internalType":"bool"}],"stateMutability":"view"},{"type":"function","name":"spectatorTotalDeposited","inputs":[{"name":"","type":"address","internalType":"address"}],"outputs":[{"name":"","type":"uint256","internalType":"uint256"}],"stateMutability":"view"},{"type":"function","name":"spectatorWinningEntry","inputs":[],"outputs":[{"name":"","type":"uint256","internalType":"uint256"}],"stateMutability":"view"},{"type":"function","name":"spectators","inputs":[{"name":"","type":"uint256","internalType":"uint256"}],"outputs":[{"name":"","type":"address","internalType":"address"}],"stateMutability":"view"},{"type":"function","name":"state","inputs":[],"outputs":[{"name":"","type":"uint8","internalType":"enum Contest.ContestState"}],"stateMutability":"view"},{"type":"function","name":"supportsInterface","inputs":[{"name":"interfaceId","type":"bytes4","internalType":"bytes4"}],"outputs":[{"name":"","type":"bool","internalType":"bool"}],"stateMutability":"view"},{"type":"function","name":"totalContestantDeposits","inputs":[],"outputs":[{"name":"","type":"uint256","internalType":"uint256"}],"stateMutability":"view"},{"type":"function","name":"totalSpectatorCollateral","inputs":[],"outputs":[{"name":"","type":"uint256","internalType":"uint256"}],"stateMutability":"view"},{"type":"function","name":"totalVolumeOnEntry","inputs":[{"name":"","type":"uint256","internalType":"uint256"}],"outputs":[{"name":"","type":"uint256","internalType":"uint256"}],"stateMutability":"view"},{"type":"function","name":"uri","inputs":[{"name":"","type":"uint256","internalType":"uint256"}],"outputs":[{"name":"","type":"string","internalType":"string"}],"stateMutability":"view"},{"type":"function","name":"userEntries","inputs":[{"name":"","type":"address","internalType":"address"},{"name":"","type":"uint256","internalType":"uint256"}],"outputs":[{"name":"","type":"uint256","internalType":"uint256"}],"stateMutability":"view"},{"type":"function","name":"withdrawPrediction","inputs":[{"name":"entryId","type":"uint256","internalType":"uint256"},{"name":"tokenAmount","type":"uint256","internalType":"uint256"}],"outputs":[],"stateMutability":"nonpayable"},{"type":"event","name":"ApprovalForAll","inputs":[{"name":"account","type":"address","indexed":true,"internalType":"address"},{"name":"operator","type":"address","indexed":true,"internalType":"address"},{"name":"approved","type":"bool","indexed":false,"internalType":"bool"}],"anonymous":false},{"type":"event","name":"ContestActivated","inputs":[],"anonymous":false},{"type":"event","name":"ContestCancelled","inputs":[],"anonymous":false},{"type":"event","name":"ContestForceDistributed","inputs":[{"name":"entriesPaid","type":"uint256","indexed":false,"internalType":"uint256"},{"name":"spectatorsPaid","type":"uint256","indexed":false,"internalType":"uint256"},{"name":"timestamp","type":"uint256","indexed":false,"internalType":"uint256"}],"anonymous":false},{"type":"event","name":"ContestSettled","inputs":[{"name":"winningEntries","type":"uint256[]","indexed":false,"internalType":"uint256[]"},{"name":"payouts","type":"uint256[]","indexed":false,"internalType":"uint256[]"}],"anonymous":false},{"type":"event","name":"EntryDeposited","inputs":[{"name":"owner","type":"address","indexed":true,"internalType":"address"},{"name":"entryId","type":"uint256","indexed":true,"internalType":"uint256"}],"anonymous":false},{"type":"event","name":"EntryPayoutClaimed","inputs":[{"name":"owner","type":"address","indexed":true,"internalType":"address"},{"name":"entryId","type":"uint256","indexed":true,"internalType":"uint256"},{"name":"amount","type":"uint256","indexed":false,"internalType":"uint256"}],"anonymous":false},{"type":"event","name":"EntryWithdrawn","inputs":[{"name":"entryId","type":"uint256","indexed":true,"internalType":"uint256"},{"name":"owner","type":"address","indexed":true,"internalType":"address"},{"name":"spectatorsRefunded","type":"uint256","indexed":false,"internalType":"uint256"}],"anonymous":false},{"type":"event","name":"PredictionsClosed","inputs":[],"anonymous":false},{"type":"event","name":"SpectatorAutoRefunded","inputs":[{"name":"spectator","type":"address","indexed":true,"internalType":"address"},{"name":"entryId","type":"uint256","indexed":true,"internalType":"uint256"},{"name":"amount","type":"uint256","indexed":false,"internalType":"uint256"}],"anonymous":false},{"type":"event","name":"SpectatorDeposited","inputs":[{"name":"spectator","type":"address","indexed":true,"internalType":"address"},{"name":"entryId","type":"uint256","indexed":true,"internalType":"uint256"},{"name":"amount","type":"uint256","indexed":false,"internalType":"uint256"},{"name":"tokensReceived","type":"uint256","indexed":false,"internalType":"uint256"}],"anonymous":false},{"type":"event","name":"SpectatorPayoutRedeemed","inputs":[{"name":"spectator","type":"address","indexed":true,"internalType":"address"},{"name":"entryId","type":"uint256","indexed":true,"internalType":"uint256"},{"name":"payout","type":"uint256","indexed":false,"internalType":"uint256"}],"anonymous":false},{"type":"event","name":"SpectatorWithdrew","inputs":[{"name":"spectator","type":"address","indexed":true,"internalType":"address"},{"name":"amount","type":"uint256","indexed":false,"internalType":"uint256"}],"anonymous":false},{"type":"event","name":"TransferBatch","inputs":[{"name":"operator","type":"address","indexed":true,"internalType":"address"},{"name":"from","type":"address","indexed":true,"internalType":"address"},{"name":"to","type":"address","indexed":true,"internalType":"address"},{"name":"ids","type":"uint256[]","indexed":false,"internalType":"uint256[]"},{"name":"values","type":"uint256[]","indexed":false,"internalType":"uint256[]"}],"anonymous":false},{"type":"event","name":"TransferSingle","inputs":[{"name":"operator","type":"address","indexed":true,"internalType":"address"},{"name":"from","type":"address","indexed":true,"internalType":"address"},{"name":"to","type":"address","indexed":true,"internalType":"address"},{"name":"id","type":"uint256","indexed":false,"internalType":"uint256"},{"name":"value","type":"uint256","indexed":false,"internalType":"uint256"}],"anonymous":false},{"type":"event","name":"URI","inputs":[{"name":"value","type":"string","indexed":false,"internalType":"string"},{"name":"id","type":"uint256","indexed":true,"internalType":"uint256"}],"anonymous":false},{"type":"error","name":"ERC1155InsufficientBalance","inputs":[{"name":"sender","type":"address","internalType":"address"},{"name":"balance","type":"uint256","internalType":"uint256"},{"name":"needed","type":"uint256","internalType":"uint256"},{"name":"tokenId","type":"uint256","internalType":"uint256"}]},{"type":"error","name":"ERC1155InvalidApprover","inputs":[{"name":"approver","type":"address","internalType":"address"}]},{"type":"error","name":"ERC1155InvalidArrayLength","inputs":[{"name":"idsLength","type":"uint256","internalType":"uint256"},{"name":"valuesLength","type":"uint256","internalType":"uint256"}]},{"type":"error","name":"ERC1155InvalidOperator","inputs":[{"name":"operator","type":"address","internalType":"address"}]},{"type":"error","name":"ERC1155InvalidReceiver","inputs":[{"name":"receiver","type":"address","internalType":"address"}]},{"type":"error","name":"ERC1155InvalidSender","inputs":[{"name":"sender","type":"address","internalType":"address"}]},{"type":"error","name":"ERC1155MissingApprovalForAll","inputs":[{"name":"operator","type":"address","internalType":"address"},{"name":"owner","type":"address","internalType":"address"}]},{"type":"error","name":"ReentrancyGuardReentrantCall","inputs":[]},{"type":"error","name":"SafeERC20FailedOperation","inputs":[{"name":"token","type":"address","internalType":"address"}]}],"bytecode":{"object":"0x6101606040523480156200001257600080fd5b5060405162004652380380620046528339810160408190526200003591620002f4565b6040805160208101909152600081526200004f81620002c5565b5060016003556001600160a01b038716620000b15760405162461bcd60e51b815260206004820152601560248201527f496e76616c6964207061796d656e7420746f6b656e000000000000000000000060448201526064015b60405180910390fd5b6001600160a01b038616620000fa5760405162461bcd60e51b815260206004820152600e60248201526d496e76616c6964206f7261636c6560901b6044820152606401620000a8565b600085116200014c5760405162461bcd60e51b815260206004820152601660248201527f496e76616c6964206465706f73697420616d6f756e74000000000000000000006044820152606401620000a8565b6103e8841115620001a05760405162461bcd60e51b815260206004820152601360248201527f4f7261636c652066656520746f6f2068696768000000000000000000000000006044820152606401620000a8565b428311620001e25760405162461bcd60e51b815260206004820152600e60248201526d115e1c1a5c9e481a5b881c185cdd60921b6044820152606401620000a8565b60008211620002345760405162461bcd60e51b815260206004820152601b60248201527f496e76616c6964206c697175696469747920706172616d6574657200000000006044820152606401620000a8565b612710811115620002885760405162461bcd60e51b815260206004820152601a60248201527f496e76616c69642064656d616e642073656e73697469766974790000000000006044820152606401620000a8565b6001600160a01b039687166080529490951660a05260c09290925260e0526101005261012091909152610140526004805460ff19169055620004cc565b6002620002d3828262000400565b5050565b80516001600160a01b0381168114620002ef57600080fd5b919050565b600080600080600080600060e0888a0312156200031057600080fd5b6200031b88620002d7565b96506200032b60208901620002d7565b604089015160608a015160808b015160a08c015160c0909c01519a9d939c50919a90999198509650945092505050565b634e487b7160e01b600052604160045260246000fd5b600181811c908216806200038657607f821691505b602082108103620003a757634e487b7160e01b600052602260045260246000fd5b50919050565b601f821115620003fb57600081815260208120601f850160051c81016020861015620003d65750805b601f850160051c820191505b81811015620003f757828155600101620003e2565b5050505b505050565b81516001600160401b038111156200041c576200041c6200035b565b62000434816200042d845462000371565b84620003ad565b602080601f8311600181146200046c5760008415620004535750858301515b600019600386901b1c1916600185901b178555620003f7565b600085815260208120601f198616915b828110156200049d578886015182559484019460019091019084016200047c565b5085821015620004bc5787850151600019600388901b60f8161c191681555b5050505050600190811b01905550565b60805160a05160c05160e05161010051610120516101405161405262000600600039600081816106250152612c8c0152600081816104ea0152612c6801526000818161074b015281816120ef015281816124db01526127510152600081816105ab01528181611c7c01528181611cb70152611e2f01526000818161043a01528181610a8a01528181610d14015281816121c2015261222501526000818161067301528181610e4e015281816112b20152818161194301528181611db901528181611f60015261245e0152600081816104a201528181610c5101528181610cf1015281816112390152818161164601528181611d9701528181611e95015281816122010152818161241e015281816125b6015281816126a701528181612a2401528181612ab00152612e7601526140526000f3fe608060405234801561001057600080fd5b50600436106103775760003560e01c80637b8488ea116101d3578063b30906d411610104578063e70baa89116100a2578063f1d570671161007c578063f1d5706714610858578063f242432a14610861578063f8c5992b14610874578063fc810d7d1461088757600080fd5b8063e70baa89146107fa578063e8f45ab214610825578063e985e9c51461084557600080fd5b8063d09685b0116100de578063d09685b0146107ad578063df1ef4c6146107b5578063e1a45218146107de578063e1f370dd146107e757600080fd5b8063b30906d41461076d578063c19d93fb14610780578063c9a496aa1461079a57600080fd5b806398e1eac311610171578063a450fe441161014b578063a450fe441461070d578063a56964ab14610720578063a5877e1914610733578063ade6e2aa1461074657600080fd5b806398e1eac3146106ea578063a01e4a1f146106f2578063a22cb465146106fa57600080fd5b806381288ae7116101ad57806381288ae7146106955780638c13d546146106b557806395082d25146106d8578063964766a5146106e257600080fd5b80637b8488ea146106585780637bc09bad146106615780637dc0d1d01461066e57600080fd5b80633a69a1be116102ad5780635c76fda71161024b5780636932b382116102255780636932b38214610600578063693b46601461062057806378449d57146106475780637964b54a1461065057600080fd5b80635c76fda7146105a65780635d6e6c7c146105cd57806367a89a3b146105e057600080fd5b80634e1273f4116102875780634e1273f414610542578063563930e71461056257806359fe5d68146105755780635a9855c31461059e57600080fd5b80633a69a1be146104e55780633c9c73ed1461050c5780634c60b1f11461052f57600080fd5b80631f85354a1161031a5780632e0ec188116102f45780632e0ec188146104775780632eb2c2d61461048a5780633013ce291461049d57806332e6190b146104dc57600080fd5b80631f85354a1461043557806322fc1d0a1461045c57806324f9cc4c1461046f57600080fd5b806307b19bfb1161035657806307b19bfb146103e55780630b913af0146103fa5780630e89341c1461040d5780631db0e6671461042d57600080fd5b8062fdd58e1461037c57806301ffc9a7146103a25780630769ede3146103c5575b600080fd5b61038f61038a3660046136f2565b610890565b6040519081526020015b60405180910390f35b6103b56103b0366004613732565b6108b8565b6040519015158152602001610399565b61038f6103d3366004613756565b60106020526000908152604090205481565b6103f86103f3366004613756565b610908565b005b61038f6104083660046136f2565b610d7e565b61042061041b366004613756565b610daf565b60405161039991906137b5565b6103f8610e43565b61038f7f000000000000000000000000000000000000000000000000000000000000000081565b6103f861046a3660046137c8565b610f4c565b6103f86112a7565b6103f86104853660046137c8565b6113c9565b6103f8610498366004613930565b611788565b6104c47f000000000000000000000000000000000000000000000000000000000000000081565b6040516001600160a01b039091168152602001610399565b61038f600f5481565b61038f7f000000000000000000000000000000000000000000000000000000000000000081565b6103b561051a3660046139da565b600c6020526000908152604090205460ff1681565b61038f61053d3660046136f2565b6117ef565b6105556105503660046139f5565b611863565b6040516103999190613af0565b6103f8610570366004613b4f565b611938565b61038f6105833660046139da565b6001600160a01b03166000908152600a602052604090205490565b6103f8611f55565b61038f7f000000000000000000000000000000000000000000000000000000000000000081565b6103f86105db366004613756565b612030565b61038f6105ee366004613756565b60096020526000908152604090205481565b61038f61060e366004613756565b600d6020526000908152604090205481565b61038f7f000000000000000000000000000000000000000000000000000000000000000081565b61038f60145481565b6103f8612280565b61038f60085481565b6015546103b59060ff1681565b6104c47f000000000000000000000000000000000000000000000000000000000000000081565b61038f6106a3366004613756565b60116020526000908152604090205481565b6103b56106c3366004613756565b60076020526000908152604090205460ff1681565b61038f620f424081565b600b5461038f565b6103f8612453565b6103f861274f565b6103f8610708366004613bbb565b612829565b6104c461071b366004613756565b612834565b6103f861072e366004613756565b612886565b6104c4610741366004613756565b612b1d565b61038f7f000000000000000000000000000000000000000000000000000000000000000081565b61038f61077b366004613756565b612b47565b60045461078d9060ff1681565b6040516103999190613c0d565b61038f6107a8366004613756565b612b68565b60055461038f565b6104c46107c3366004613756565b6006602052600090815260409020546001600160a01b031681565b61038f61271081565b61038f6107f5366004613756565b612bb1565b61038f6108083660046136f2565b601360209081526000928352604080842090915290825290205481565b61038f6108333660046139da565b60126020526000908152604090205481565b6103b5610853366004613c35565b612cef565b61038f600e5481565b6103f861086f366004613c68565b612d1d565b6103f8610882366004613756565b612d7c565b61038f6105dc81565b6000818152602081815260408083206001600160a01b03861684529091529020545b92915050565b60006001600160e01b03198216636cdb3d1360e11b14806108e957506001600160e01b031982166303a24d0760e21b145b806108b257506301ffc9a760e01b6001600160e01b03198316146108b2565b610910612ed1565b600060045460ff16600581111561092957610929613bf7565b148061094a57506004805460ff16600581111561094857610948613bf7565b145b6109b45760405162461bcd60e51b815260206004820152603060248201527f43616e6e6f74207769746864726177202d20636f6e7465737420696e2070726f60448201526f19dc995cdcc81bdc881cd95d1d1b195960821b60648201526084015b60405180910390fd5b6000818152600660205260409020546001600160a01b03163314610a0c5760405162461bcd60e51b815260206004820152600f60248201526e2737ba1032b73a393c9037bbb732b960891b60448201526064016109ab565b60008181526007602052604090205460ff1615610a6b5760405162461bcd60e51b815260206004820152601760248201527f456e74727920616c72656164792077697468647261776e00000000000000000060448201526064016109ab565b6000818152600760205260408120805460ff19166001179055600880547f00000000000000000000000000000000000000000000000000000000000000009290610ab6908490613ce3565b9091555060009050805b600b54811015610ce3576000600b8281548110610adf57610adf613cf6565b60009182526020822001546001600160a01b03169150610aff8286610890565b90508015610cce576001600160a01b03821660009081526013602090815260408083208884529091529020548015610ccc57610b3c838784612efb565b6000612710610b4d6105dc84613d0c565b610b579190613d23565b90506000610b658284613ce3565b905083600d60008a81526020019081526020016000206000828254610b8a9190613d45565b90915550610b9b9050600283613d23565b600f6000828254610bac9190613ce3565b90915550610bbd9050600283613d23565b60008981526010602052604081208054909190610bdb908490613ce3565b9250508190555080600e6000828254610bf49190613ce3565b90915550506001600160a01b03851660009081526012602052604081208054859290610c21908490613ce3565b90915550506001600160a01b0380861660009081526013602090815260408083208c8452909152812055610c78907f0000000000000000000000000000000000000000000000000000000000000000168685612f6a565b87856001600160a01b03167f2306399dedc3481dae378e3b9952209dede2c0482a19e690b0231390d086061d85604051610cb491815260200190565b60405180910390a386610cc681613d6c565b97505050505b505b50508080610cdb90613d6c565b915050610ac0565b50610d386001600160a01b037f000000000000000000000000000000000000000000000000000000000000000016337f0000000000000000000000000000000000000000000000000000000000000000612f6a565b604051818152339083907fa0eeb808a10f56b15221fb8aeefb2b8cf677a82e4924d099bd08659179f2ead0906020015b60405180910390a350610d7b6001600355565b50565b600a6020528160005260406000208181548110610d9a57600080fd5b90600052602060002001600091509150505481565b606060028054610dbe90613d85565b80601f0160208091040260200160405190810160405280929190818152602001828054610dea90613d85565b8015610e375780601f10610e0c57610100808354040283529160200191610e37565b820191906000526020600020905b815481529060010190602001808311610e1a57829003601f168201915b50505050509050919050565b336001600160a01b037f00000000000000000000000000000000000000000000000000000000000000001614610e8b5760405162461bcd60e51b81526004016109ab90613dbf565b600360045460ff166005811115610ea457610ea4613bf7565b14158015610ec95750600560045460ff166005811115610ec657610ec6613bf7565b14155b610f155760405162461bcd60e51b815260206004820152601f60248201527f436f6e7465737420736574746c6564202d2063616e6e6f742063616e63656c0060448201526064016109ab565b6004805460ff1916811790556040517f9237e8f0d5063a695b8695e82c82bc24d15591de9d04449771a6ea4b1283173790600090a1565b610f54612ed1565b600060045460ff166005811115610f6d57610f6d613bf7565b1480610f8f5750600160045460ff166005811115610f8d57610f8d613bf7565b145b80610faf57506004805460ff166005811115610fad57610fad613bf7565b145b6110135760405162461bcd60e51b815260206004820152602f60248201527f43616e6e6f74207769746864726177202d2070726564696374696f6e73206c6f60448201526e18dad959081bdc881cd95d1d1b1959608a1b60648201526084016109ab565b6000828152600660205260409020546001600160a01b03166110475760405162461bcd60e51b81526004016109ab90613de3565b6000811161108c5760405162461bcd60e51b81526020600482015260126024820152710416d6f756e74206d757374206265203e20360741b60448201526064016109ab565b806110973384610890565b10156110dc5760405162461bcd60e51b8152602060048201526014602482015273496e73756666696369656e742062616c616e636560601b60448201526064016109ab565b60006110e83384610890565b33600090815260126020526040812054919250908290611109908590613d0c565b6111139190613d23565b905060006127106111266105dc84613d0c565b6111309190613d23565b9050600061113e8284613ce3565b905061114b338787612efb565b6000868152600d602052604081208054879290611169908490613d45565b9091555061117a9050600283613d23565b600f600082825461118b9190613ce3565b9091555061119c9050600283613d23565b600087815260106020526040812080549091906111ba908490613ce3565b9250508190555080600e60008282546111d39190613ce3565b909155505033600090815260126020526040812080548592906111f7908490613ce3565b909155505033600090815260136020908152604080832089845290915281208054859290611226908490613ce3565b9091555061126090506001600160a01b037f0000000000000000000000000000000000000000000000000000000000000000163385612f6a565b60405183815233907f1afd07c523e365fe5caad76bb954272a33ed72374f832943fe8bb4d8484683409060200160405180910390a2505050506112a36001600355565b5050565b336001600160a01b037f000000000000000000000000000000000000000000000000000000000000000016146112ef5760405162461bcd60e51b81526004016109ab90613dbf565b600060045460ff16600581111561130857611308613bf7565b146113555760405162461bcd60e51b815260206004820152601760248201527f436f6e7465737420616c7265616479207374617274656400000000000000000060448201526064016109ab565b6005546113915760405162461bcd60e51b815260206004820152600a6024820152694e6f20656e747269657360b01b60448201526064016109ab565b6004805460ff191660011790556040517f3927b788a62eb53f7192cd9286f49295f01b938b6afc23aef0af5d035cd8531690600090a1565b6113d1612ed1565b600060045460ff1660058111156113ea576113ea613bf7565b148061140c5750600160045460ff16600581111561140a5761140a613bf7565b145b6114585760405162461bcd60e51b815260206004820152601960248201527f50726564696374696f6e73206e6f7420617661696c61626c650000000000000060448201526064016109ab565b6000828152600660205260409020546001600160a01b031661148c5760405162461bcd60e51b81526004016109ab90613de3565b60008281526007602052604090205460ff16156114dd5760405162461bcd60e51b815260206004820152600f60248201526e22b73a393c903bb4ba34323930bbb760891b60448201526064016109ab565b600081116115225760405162461bcd60e51b81526020600482015260126024820152710416d6f756e74206d757374206265203e20360741b60448201526064016109ab565b336000908152600c602052604090205460ff1661159457600b805460018181019092557f0175b7a638427703f0dbe7bb9bbf987a2551717b34e79f33b5b1008d1fa01db90180546001600160a01b031916339081179091556000908152600c60205260409020805460ff191690911790555b60006127106115a56105dc84613d0c565b6115af9190613d23565b905060006115bd8284613ce3565b905060006115ca85612bb1565b90506000816115dc620f424085613d0c565b6115e69190613d23565b90506115f3600285613d23565b600f60008282546116049190613e11565b909155506116159050600285613d23565b60008781526010602052604081208054909190611633908490613e11565b9091555061166e90506001600160a01b037f000000000000000000000000000000000000000000000000000000000000000016333088612fce565b336000908152601260205260408120805487929061168d908490613e11565b9091555050336000908152601360209081526040808320898452909152812080548792906116bc908490613e11565b925050819055506116de33878360405180602001604052806000815250613007565b6000868152600d6020526040812080548392906116fc908490613e24565b90915550506000868152601160205260408120805483929061171f908490613e11565b9250508190555082600e60008282546117389190613e11565b90915550506040805186815260208101839052879133917f3d516f677e4f650c5678a09cdf06e998bf8e05cbe8d92906362e8589a8f064a5910160405180910390a3505050506112a36001600355565b336001600160a01b03861681148015906117a957506117a78682612cef565b155b156117da5760405163711bec9160e11b81526001600160a01b038083166004830152871660248201526044016109ab565b6117e78686868686613064565b505050505050565b6001600160a01b0382166000908152600a602052604081205482106118265760405162461bcd60e51b81526004016109ab90613e4c565b6001600160a01b0383166000908152600a6020526040902080548390811061185057611850613cf6565b9060005260206000200154905092915050565b606081518351146118945781518351604051635b05999160e01b8152600481019290925260248201526044016109ab565b6000835167ffffffffffffffff8111156118b0576118b06137ea565b6040519080825280602002602001820160405280156118d9578160200160208202803683370190505b50905060005b84518110156119305760208082028601015161190390602080840287010151610890565b82828151811061191557611915613cf6565b602090810291909101015261192981613d6c565b90506118df565b509392505050565b336001600160a01b037f000000000000000000000000000000000000000000000000000000000000000016146119805760405162461bcd60e51b81526004016109ab90613dbf565b611988612ed1565b600160045460ff1660058111156119a1576119a1613bf7565b14806119c35750600260045460ff1660058111156119c1576119c1613bf7565b145b611a0f5760405162461bcd60e51b815260206004820152601c60248201527f436f6e74657374206e6f7420616374697665206f72206c6f636b65640000000060448201526064016109ab565b82611a5c5760405162461bcd60e51b815260206004820152601d60248201527f4d7573742068617665206174206c65617374206f6e652077696e6e657200000060448201526064016109ab565b828114611aa35760405162461bcd60e51b8152602060048201526015602482015274082e4e4c2f240d8cadccee8d040dad2e6dac2e8c6d605b1b60448201526064016109ab565b600554831115611ae85760405162461bcd60e51b815260206004820152601060248201526f546f6f206d616e792077696e6e65727360801b60448201526064016109ab565b6000805b82811015611b94576000848483818110611b0857611b08613cf6565b9050602002013511611b5c5760405162461bcd60e51b815260206004820152601960248201527f557365206e6f6e2d7a65726f207061796f757473206f6e6c790000000000000060448201526064016109ab565b838382818110611b6e57611b6e613cf6565b9050602002013582611b809190613e11565b915080611b8c81613d6c565b915050611aec565b506127108114611be65760405162461bcd60e51b815260206004820152601860248201527f5061796f757473206d7573742073756d20746f2031303025000000000000000060448201526064016109ab565b6004805460ff19166003179055600f54600854600091611c0591613e11565b90506000805b600554811015611c65576010600060058381548110611c2c57611c2c613cf6565b906000526020600020015481526020019081526020016000205482611c519190613e11565b915080611c5d81613d6c565b915050611c0b565b50611c708183613e11565b91506000612710611ca17f000000000000000000000000000000000000000000000000000000000000000085613d0c565b611cab9190613d23565b90506000612710611cdc7f000000000000000000000000000000000000000000000000000000000000000082613ce3565b600f54600854611cec9190613e11565b611cf69190613d0c565b611d009190613d23565b905060005b88811015611d835760008a8a83818110611d2157611d21613cf6565b90506020020135905060006127108a8a85818110611d4157611d41613cf6565b9050602002013585611d539190613d0c565b611d5d9190613d23565b600092835260096020526040909220919091555080611d7b81613d6c565b915050611d05565b508115611dde57611dde6001600160a01b037f0000000000000000000000000000000000000000000000000000000000000000167f000000000000000000000000000000000000000000000000000000000000000084612f6a565b60005b600554811015611ed557600060058281548110611e0057611e00613cf6565b600091825260208083209091015480835260109091526040909120549091508015611ec0576000612710611e547f000000000000000000000000000000000000000000000000000000000000000082613ce3565b611e5e9084613d0c565b611e689190613d23565b60008481526010602090815260408083208390556006909152902054909150611ebe906001600160a01b037f00000000000000000000000000000000000000000000000000000000000000008116911683612f6a565b505b50508080611ecd90613d6c565b915050611de1565b5088886000818110611ee957611ee9613cf6565b6020029190910135601455506015805460ff191660011790556040517f0fed27f5e3cd741c181cc0d3b0c47df2013638faa8b7aa7084de3946098eb78e90611f38908b908b908b908b90613ea5565b60405180910390a15050505050611f4f6001600355565b50505050565b336001600160a01b037f00000000000000000000000000000000000000000000000000000000000000001614611f9d5760405162461bcd60e51b81526004016109ab90613dbf565b600160045460ff166005811115611fb657611fb6613bf7565b14611ff85760405162461bcd60e51b8152602060048201526012602482015271436f6e74657374206e6f742061637469766560701b60448201526064016109ab565b6004805460ff191660021790556040517f91b4dd20084a71e964f322b0044cfe5523abf93f4d02b7e3ed621e1500fd162290600090a1565b612038612ed1565b600060045460ff16600581111561205157612051613bf7565b146120915760405162461bcd60e51b815260206004820152601060248201526f21b7b73a32b9ba103737ba1037b832b760811b60448201526064016109ab565b6000818152600660205260409020546001600160a01b0316156120ed5760405162461bcd60e51b8152602060048201526014602482015273456e74727920616c72656164792065786973747360601b60448201526064016109ab565b7f0000000000000000000000000000000000000000000000000000000000000000421061214e5760405162461bcd60e51b815260206004820152600f60248201526e10dbdb9d195cdd08195e1c1a5c9959608a1b60448201526064016109ab565b6005805460018181019092557f036b6384b5eca791c62761152d0c79bb0604c104a5fb6f4eb0703f3154bb3db001829055600082815260066020908152604080832080546001600160a01b031916339081179091558352600a825282208054938401815582528120909101829055600880547f000000000000000000000000000000000000000000000000000000000000000092906121ee908490613e11565b9091555061224990506001600160a01b037f00000000000000000000000000000000000000000000000000000000000000001633307f0000000000000000000000000000000000000000000000000000000000000000612fce565b604051819033907f4d503c0f892472082177d76a3e17f685ac26922907be7d7d9a76d287c75b011a90600090a3610d7b6001600355565b612288612ed1565b600360045460ff1660058111156122a1576122a1613bf7565b146122be5760405162461bcd60e51b81526004016109ab90613ed7565b336000908152600a602090815260408083208054825181850281018501909352808352849383018282801561231257602002820191906000526020600020905b8154815260200190600101908083116122fe575b5050505050905060005b81518110156123d357600082828151811061233957612339613cf6565b6020908102919091018101516000818152600990925260409091205490915080156123be576000828152600960205260408120556123778186613e11565b945081336001600160a01b03167f701dad1e38516ac5470bc60eb299368a20c7f2b50f2a5b4bcbd0e5a3a74c186e836040516123b591815260200190565b60405180910390a35b505080806123cb90613d6c565b91505061231c565b50600082116124115760405162461bcd60e51b815260206004820152600a6024820152694e6f207061796f75747360b01b60448201526064016109ab565b6124456001600160a01b037f0000000000000000000000000000000000000000000000000000000000000000163384612f6a565b50506124516001600355565b565b336001600160a01b037f0000000000000000000000000000000000000000000000000000000000000000161461249b5760405162461bcd60e51b81526004016109ab90613dbf565b6124a3612ed1565b600360045460ff1660058111156124bc576124bc613bf7565b146124d95760405162461bcd60e51b81526004016109ab90613ed7565b7f000000000000000000000000000000000000000000000000000000000000000042101561253e5760405162461bcd60e51b8152602060048201526012602482015271115e1c1a5c9e481b9bdd081c995858da195960721b60448201526064016109ab565b60008060005b6005548110156126015760006005828154811061256357612563613cf6565b6000918252602080832090910154808352600990915260409091205490915080156125ec57600082815260096020908152604080832083905560069091529020546001600160a01b03908116906125dd907f0000000000000000000000000000000000000000000000000000000000000000168284612f6a565b856125e781613d6c565b965050505b505080806125f990613d6c565b915050612544565b506014546000908152600d602052604090205480156126f55760005b600b548110156126f3576000600b828154811061263c5761263c613cf6565b60009182526020822001546014546001600160a01b039091169250612662908390610890565b905080156126de576126778260145483612efb565b600084600e54836126889190613d0c565b6126929190613d23565b905080156126dc576126ce6001600160a01b037f0000000000000000000000000000000000000000000000000000000000000000168483612f6a565b856126d881613d6c565b9650505b505b505080806126eb90613d6c565b91505061261d565b505b6004805460ff191660051790556040805184815260208101849052428183015290517f81af9be4712c68e4890ef828e7ecb62e37897b50b7c0edab83fd545bd6d060b2916060908290030190a15050506124516001600355565b7f00000000000000000000000000000000000000000000000000000000000000004210156127ad5760405162461bcd60e51b815260206004820152600b60248201526a139bdd08195e1c1a5c995960aa1b60448201526064016109ab565b600360045460ff1660058111156127c6576127c6613bf7565b141580156127eb5750600560045460ff1660058111156127e8576127e8613bf7565b14155b610f155760405162461bcd60e51b815260206004820152600f60248201526e105b1c9958591e481cd95d1d1b1959608a1b60448201526064016109ab565b6112a33383836130c4565b600b5460009082106128585760405162461bcd60e51b81526004016109ab90613e4c565b600b828154811061286b5761286b613cf6565b6000918252602090912001546001600160a01b031692915050565b61288e612ed1565b600360045460ff1660058111156128a7576128a7613bf7565b146128c45760405162461bcd60e51b81526004016109ab90613ed7565b60155460ff1661290c5760405162461bcd60e51b815260206004820152601360248201527213585c9ad95d081b9bdd081c995cdbdb1d9959606a1b60448201526064016109ab565b6000818152600660205260409020546001600160a01b03166129405760405162461bcd60e51b81526004016109ab90613de3565b600061294c3383610890565b90506000811161298a5760405162461bcd60e51b81526020600482015260096024820152684e6f20746f6b656e7360b81b60448201526064016109ab565b612995338383612efb565b60006014548303612ada576000838152600d6020526040902054806129e85760405162461bcd60e51b81526020600482015260096024820152684e6f20737570706c7960b81b60448201526064016109ab565b80600e54846129f79190613d0c565b612a019190613d23565b6040516370a0823160e01b81523060048201529092506000906001600160a01b037f000000000000000000000000000000000000000000000000000000000000000016906370a0823190602401602060405180830381865afa158015612a6b573d6000803e3d6000fd5b505050506040513d601f19601f82011682018060405250810190612a8f9190613f04565b905080831115612a9d578092505b8215612ad757612ad76001600160a01b037f0000000000000000000000000000000000000000000000000000000000000000163385612f6a565b50505b604051818152839033907fd661a3227475e550e8171253b7c0e37ede0ff071f017a4c55b647d5a04b5e4359060200160405180910390a35050610d7b6001600355565b600b8181548110612b2d57600080fd5b6000918252602090912001546001600160a01b0316905081565b60058181548110612b5757600080fd5b600091825260209091200154905081565b6005546000908210612b8c5760405162461bcd60e51b81526004016109ab90613e4c565b60058281548110612b9f57612b9f613cf6565b90600052602060002001549050919050565b6000818152600660205260408120546001600160a01b0316612be55760405162461bcd60e51b81526004016109ab90613de3565b60008281526007602052604090205460ff1615612c365760405162461bcd60e51b815260206004820152600f60248201526e22b73a393c903bb4ba34323930bbb760891b60448201526064016109ab565b6000828152600d60205260408120549080821215612c5c57612c5782613f1d565b612c5e565b815b9050620f424060007f0000000000000000000000000000000000000000000000000000000000000000612cb17f000000000000000000000000000000000000000000000000000000000000000085613d0c565b612cbb9190613d23565b9050600084128015612ccc57508181105b15612ce557612cdb8183613ce3565b9695505050505050565b612cdb8183613e11565b6001600160a01b03918216600090815260016020908152604080832093909416825291909152205460ff1690565b336001600160a01b0386168114801590612d3e5750612d3c8682612cef565b155b15612d6f5760405163711bec9160e11b81526001600160a01b038083166004830152871660248201526044016109ab565b6117e7868686868661315a565b612d84612ed1565b600360045460ff166005811115612d9d57612d9d613bf7565b14612dba5760405162461bcd60e51b81526004016109ab90613ed7565b6000818152600660205260409020546001600160a01b03163314612e125760405162461bcd60e51b815260206004820152600f60248201526e2737ba1032b73a393c9037bbb732b960891b60448201526064016109ab565b60008181526009602052604090205480612e5a5760405162461bcd60e51b8152602060048201526009602482015268139bc81c185e5bdd5d60ba1b60448201526064016109ab565b600082815260096020526040812055612e9d6001600160a01b037f0000000000000000000000000000000000000000000000000000000000000000163383612f6a565b604051818152829033907f701dad1e38516ac5470bc60eb299368a20c7f2b50f2a5b4bcbd0e5a3a74c186e90602001610d68565b600260035403612ef457604051633ee5aeb560e01b815260040160405180910390fd5b6002600355565b6001600160a01b038316612f2457604051626a0d4560e21b8152600060048201526024016109ab565b604080516001808252602082018590528183019081526060820184905260a08201909252600060808201818152919291612f63918791859085906131e8565b5050505050565b6040516001600160a01b03838116602483015260448201839052612fc991859182169063a9059cbb906064015b604051602081830303815290604052915060e01b6020820180516001600160e01b03838183161783525050505061323b565b505050565b6040516001600160a01b038481166024830152838116604483015260648201839052611f4f9186918216906323b872dd90608401612f97565b6001600160a01b03841661303157604051632bfa23e760e11b8152600060048201526024016109ab565b604080516001808252602082018690528183019081526060820185905260808201909252906117e76000878484876131e8565b6001600160a01b03841661308e57604051632bfa23e760e11b8152600060048201526024016109ab565b6001600160a01b0385166130b757604051626a0d4560e21b8152600060048201526024016109ab565b612f6385858585856131e8565b6001600160a01b0382166130ed5760405162ced3e160e81b8152600060048201526024016109ab565b6001600160a01b03838116600081815260016020908152604080832094871680845294825291829020805460ff191686151590811790915591519182527f17307eab39ab6107e8899845ad3d59bd9653f200f220920489ca2b5937696c31910160405180910390a3505050565b6001600160a01b03841661318457604051632bfa23e760e11b8152600060048201526024016109ab565b6001600160a01b0385166131ad57604051626a0d4560e21b8152600060048201526024016109ab565b604080516001808252602082018690528183019081526060820185905260808201909252906131df87878484876131e8565b50505050505050565b6131f4858585856132ac565b6001600160a01b03841615612f63578251339060010361322d57602084810151908401516132268389898585896134c9565b50506117e7565b6117e78187878787876135ed565b600080602060008451602086016000885af18061325e576040513d6000823e3d81fd5b50506000513d91508115613276578060011415613283565b6001600160a01b0384163b155b15611f4f57604051635274afe760e01b81526001600160a01b03851660048201526024016109ab565b80518251146132db5781518151604051635b05999160e01b8152600481019290925260248201526044016109ab565b3360005b83518110156133ea576020818102858101820151908501909101516001600160a01b03881615613392576000828152602081815260408083206001600160a01b038c1684529091529020548181101561336b576040516303dee4c560e01b81526001600160a01b038a1660048201526024810182905260448101839052606481018490526084016109ab565b6000838152602081815260408083206001600160a01b038d16845290915290209082900390555b6001600160a01b038716156133d7576000828152602081815260408083206001600160a01b038b168452909152812080548392906133d1908490613e11565b90915550505b5050806133e390613d6c565b90506132df565b50825160010361346b5760208301516000906020840151909150856001600160a01b0316876001600160a01b0316846001600160a01b03167fc3d58168c5ae7397731d063d5bbf3d657854427343f4c083240f7aacaa2d0f62858560405161345c929190918252602082015260400190565b60405180910390a45050612f63565b836001600160a01b0316856001600160a01b0316826001600160a01b03167f4a39dc06d4c0dbc64b70af90fd698a233a518aa5d07e595d983b8c0526c8f7fb86866040516134ba929190613f39565b60405180910390a45050505050565b6001600160a01b0384163b156117e75760405163f23a6e6160e01b81526001600160a01b0385169063f23a6e619061350d9089908990889088908890600401613f67565b6020604051808303816000875af1925050508015613548575060408051601f3d908101601f1916820190925261354591810190613fa1565b60015b6135b1573d808015613576576040519150601f19603f3d011682016040523d82523d6000602084013e61357b565b606091505b5080516000036135a957604051632bfa23e760e11b81526001600160a01b03861660048201526024016109ab565b805181602001fd5b6001600160e01b0319811663f23a6e6160e01b146131df57604051632bfa23e760e11b81526001600160a01b03861660048201526024016109ab565b6001600160a01b0384163b156117e75760405163bc197c8160e01b81526001600160a01b0385169063bc197c81906136319089908990889088908890600401613fbe565b6020604051808303816000875af192505050801561366c575060408051601f3d908101601f1916820190925261366991810190613fa1565b60015b61369a573d808015613576576040519150601f19603f3d011682016040523d82523d6000602084013e61357b565b6001600160e01b0319811663bc197c8160e01b146131df57604051632bfa23e760e11b81526001600160a01b03861660048201526024016109ab565b80356001600160a01b03811681146136ed57600080fd5b919050565b6000806040838503121561370557600080fd5b61370e836136d6565b946020939093013593505050565b6001600160e01b031981168114610d7b57600080fd5b60006020828403121561374457600080fd5b813561374f8161371c565b9392505050565b60006020828403121561376857600080fd5b5035919050565b6000815180845260005b8181101561379557602081850181015186830182015201613779565b506000602082860101526020601f19601f83011685010191505092915050565b60208152600061374f602083018461376f565b600080604083850312156137db57600080fd5b50508035926020909101359150565b634e487b7160e01b600052604160045260246000fd5b604051601f8201601f1916810167ffffffffffffffff81118282101715613829576138296137ea565b604052919050565b600067ffffffffffffffff82111561384b5761384b6137ea565b5060051b60200190565b600082601f83011261386657600080fd5b8135602061387b61387683613831565b613800565b82815260059290921b8401810191818101908684111561389a57600080fd5b8286015b848110156138b5578035835291830191830161389e565b509695505050505050565b600082601f8301126138d157600080fd5b813567ffffffffffffffff8111156138eb576138eb6137ea565b6138fe601f8201601f1916602001613800565b81815284602083860101111561391357600080fd5b816020850160208301376000918101602001919091529392505050565b600080600080600060a0868803121561394857600080fd5b613951866136d6565b945061395f602087016136d6565b9350604086013567ffffffffffffffff8082111561397c57600080fd5b61398889838a01613855565b9450606088013591508082111561399e57600080fd5b6139aa89838a01613855565b935060808801359150808211156139c057600080fd5b506139cd888289016138c0565b9150509295509295909350565b6000602082840312156139ec57600080fd5b61374f826136d6565b60008060408385031215613a0857600080fd5b823567ffffffffffffffff80821115613a2057600080fd5b818501915085601f830112613a3457600080fd5b81356020613a4461387683613831565b82815260059290921b84018101918181019089841115613a6357600080fd5b948201945b83861015613a8857613a79866136d6565b82529482019490820190613a68565b96505086013592505080821115613a9e57600080fd5b50613aab85828601613855565b9150509250929050565b600081518084526020808501945080840160005b83811015613ae557815187529582019590820190600101613ac9565b509495945050505050565b60208152600061374f6020830184613ab5565b60008083601f840112613b1557600080fd5b50813567ffffffffffffffff811115613b2d57600080fd5b6020830191508360208260051b8501011115613b4857600080fd5b9250929050565b60008060008060408587031215613b6557600080fd5b843567ffffffffffffffff80821115613b7d57600080fd5b613b8988838901613b03565b90965094506020870135915080821115613ba257600080fd5b50613baf87828801613b03565b95989497509550505050565b60008060408385031215613bce57600080fd5b613bd7836136d6565b915060208301358015158114613bec57600080fd5b809150509250929050565b634e487b7160e01b600052602160045260246000fd5b6020810160068310613c2f57634e487b7160e01b600052602160045260246000fd5b91905290565b60008060408385031215613c4857600080fd5b613c51836136d6565b9150613c5f602084016136d6565b90509250929050565b600080600080600060a08688031215613c8057600080fd5b613c89866136d6565b9450613c97602087016136d6565b93506040860135925060608601359150608086013567ffffffffffffffff811115613cc157600080fd5b6139cd888289016138c0565b634e487b7160e01b600052601160045260246000fd5b818103818111156108b2576108b2613ccd565b634e487b7160e01b600052603260045260246000fd5b80820281158282048414176108b2576108b2613ccd565b600082613d4057634e487b7160e01b600052601260045260246000fd5b500490565b8181036000831280158383131683831282161715613d6557613d65613ccd565b5092915050565b600060018201613d7e57613d7e613ccd565b5060010190565b600181811c90821680613d9957607f821691505b602082108103613db957634e487b7160e01b600052602260045260246000fd5b50919050565b6020808252600a90820152694e6f74206f7261636c6560b01b604082015260600190565b602080825260149082015273115b9d1c9e48191bd95cc81b9bdd08195e1a5cdd60621b604082015260600190565b808201808211156108b2576108b2613ccd565b8082018281126000831280158216821582161715613e4457613e44613ccd565b505092915050565b6020808252600d908201526c092dcecc2d8d2c840d2dcc8caf609b1b604082015260600190565b81835260006001600160fb1b03831115613e8c57600080fd5b8260051b80836020870137939093016020019392505050565b604081526000613eb9604083018688613e73565b8281036020840152613ecc818587613e73565b979650505050505050565b60208082526013908201527210dbdb9d195cdd081b9bdd081cd95d1d1b1959606a1b604082015260600190565b600060208284031215613f1657600080fd5b5051919050565b6000600160ff1b8201613f3257613f32613ccd565b5060000390565b604081526000613f4c6040830185613ab5565b8281036020840152613f5e8185613ab5565b95945050505050565b6001600160a01b03868116825285166020820152604081018490526060810183905260a060808201819052600090613ecc9083018461376f565b600060208284031215613fb357600080fd5b815161374f8161371c565b6001600160a01b0386811682528516602082015260a060408201819052600090613fea90830186613ab5565b8281036060840152613ffc8186613ab5565b90508281036080840152614010818561376f565b9897505050505050505056fea2646970667358221220acc54c93ddc29cf6eac7559a0dc6b7426563a80fad8bea49703f69ffa99eb80164736f6c63430008140033","linkReferences":{}},"methodIdentifiers":{"BPS_DENOMINATOR()":"e1a45218","PRICE_PRECISION()":"95082d25","SPECTATOR_ENTRY_FEE_BPS()":"fc810d7d","accumulatedPrizeBonus()":"32e6190b","activateContest()":"24f9cc4c","addPrediction(uint256,uint256)":"2e0ec188","balanceOf(address,uint256)":"00fdd58e","balanceOfBatch(address[],uint256[])":"4e1273f4","calculateEntryPrice(uint256)":"e1f370dd","cancelContest()":"1db0e667","cancelExpired()":"a01e4a1f","claimAllEntryPayouts()":"7964b54a","claimEntryPayout(uint256)":"f8c5992b","claimPredictionPayout(uint256)":"a56964ab","closePredictions()":"5a9855c3","contestantDepositAmount()":"1f85354a","demandSensitivityBps()":"693b4660","distributeExpiredContest()":"98e1eac3","entries(uint256)":"b30906d4","entryBonuses(uint256)":"0769ede3","entryOwner(uint256)":"df1ef4c6","entryWithdrawn(uint256)":"8c13d546","expiryTimestamp()":"ade6e2aa","finalEntryPayouts(uint256)":"67a89a3b","getEntriesCount()":"d09685b0","getEntryAtIndex(uint256)":"c9a496aa","getSpectatorAtIndex(uint256)":"a450fe44","getSpectatorsCount()":"964766a5","getUserEntriesCount(address)":"59fe5d68","getUserEntryAtIndex(address,uint256)":"4c60b1f1","isApprovedForAll(address,address)":"e985e9c5","isSpectator(address)":"3c9c73ed","joinContest(uint256)":"5d6e6c7c","leaveContest(uint256)":"07b19bfb","liquidityParameter()":"3a69a1be","netPosition(uint256)":"6932b382","oracle()":"7dc0d1d0","oracleFeeBps()":"5c76fda7","paymentToken()":"3013ce29","safeBatchTransferFrom(address,address,uint256[],uint256[],bytes)":"2eb2c2d6","safeTransferFrom(address,address,uint256,uint256,bytes)":"f242432a","setApprovalForAll(address,bool)":"a22cb465","settleContest(uint256[],uint256[])":"563930e7","spectatorDepositedPerEntry(address,uint256)":"e70baa89","spectatorMarketResolved()":"7bc09bad","spectatorTotalDeposited(address)":"e8f45ab2","spectatorWinningEntry()":"78449d57","spectators(uint256)":"a5877e19","state()":"c19d93fb","supportsInterface(bytes4)":"01ffc9a7","totalContestantDeposits()":"7b8488ea","totalSpectatorCollateral()":"f1d57067","totalVolumeOnEntry(uint256)":"81288ae7","uri(uint256)":"0e89341c","userEntries(address,uint256)":"0b913af0","withdrawPrediction(uint256,uint256)":"22fc1d0a"},"id":48}