{"abi":[{"type":"constructor","inputs":[{"name":"_paymentToken","type":"address","internalType":"address"},{"name":"_oracle","type":"address","internalType":"address"},{"name":"_primaryDepositAmount","type":"uint256","internalType":"uint256"},{"name":"_referralNetworkBps","type":"uint256","internalType":"uint256"},{"name":"_expiryTimestamp","type":"uint256","internalType":"uint256"},{"name":"_primaryDepositSecondarySubsidyBps","type":"uint256","internalType":"uint256"},{"name":"_rewardDistributor","type":"address","internalType":"address"},{"name":"_referralGroupId","type":"bytes32","internalType":"bytes32"}],"stateMutability":"nonpayable"},{"type":"function","name":"BPS_DENOMINATOR","inputs":[],"outputs":[{"name":"","type":"uint256","internalType":"uint256"}],"stateMutability":"view"},{"type":"function","name":"PRICE_PRECISION","inputs":[],"outputs":[{"name":"","type":"uint256","internalType":"uint256"}],"stateMutability":"view"},{"type":"function","name":"REFERRAL_ROOT","inputs":[],"outputs":[{"name":"","type":"address","internalType":"address"}],"stateMutability":"view"},{"type":"function","name":"activateContest","inputs":[],"outputs":[],"stateMutability":"nonpayable"},{"type":"function","name":"addPrimaryPosition","inputs":[{"name":"entryId","type":"uint256","internalType":"uint256"},{"name":"merkleProof","type":"bytes32[]","internalType":"bytes32[]"}],"outputs":[],"stateMutability":"nonpayable"},{"type":"function","name":"addSecondaryPosition","inputs":[{"name":"entryId","type":"uint256","internalType":"uint256"},{"name":"amount","type":"uint256","internalType":"uint256"},{"name":"merkleProof","type":"bytes32[]","internalType":"bytes32[]"}],"outputs":[],"stateMutability":"nonpayable"},{"type":"function","name":"balanceOf","inputs":[{"name":"","type":"address","internalType":"address"},{"name":"","type":"uint256","internalType":"uint256"}],"outputs":[{"name":"","type":"uint256","internalType":"uint256"}],"stateMutability":"view"},{"type":"function","name":"balanceOfBatch","inputs":[{"name":"owners","type":"address[]","internalType":"address[]"},{"name":"ids","type":"uint256[]","internalType":"uint256[]"}],"outputs":[{"name":"balances","type":"uint256[]","internalType":"uint256[]"}],"stateMutability":"view"},{"type":"function","name":"calculateSecondaryPrice","inputs":[{"name":"entryId","type":"uint256","internalType":"uint256"}],"outputs":[{"name":"","type":"uint256","internalType":"uint256"}],"stateMutability":"view"},{"type":"function","name":"cancelContest","inputs":[],"outputs":[],"stateMutability":"nonpayable"},{"type":"function","name":"cancelExpired","inputs":[],"outputs":[],"stateMutability":"nonpayable"},{"type":"function","name":"claimPrimaryPayout","inputs":[{"name":"entryId","type":"uint256","internalType":"uint256"}],"outputs":[],"stateMutability":"nonpayable"},{"type":"function","name":"claimSecondaryPayout","inputs":[{"name":"entryId","type":"uint256","internalType":"uint256"}],"outputs":[],"stateMutability":"nonpayable"},{"type":"function","name":"closeContest","inputs":[],"outputs":[],"stateMutability":"nonpayable"},{"type":"function","name":"entries","inputs":[{"name":"","type":"uint256","internalType":"uint256"}],"outputs":[{"name":"","type":"uint256","internalType":"uint256"}],"stateMutability":"view"},{"type":"function","name":"entryOwner","inputs":[{"name":"","type":"uint256","internalType":"uint256"}],"outputs":[{"name":"","type":"address","internalType":"address"}],"stateMutability":"view"},{"type":"function","name":"expiryTimestamp","inputs":[],"outputs":[{"name":"","type":"uint256","internalType":"uint256"}],"stateMutability":"view"},{"type":"function","name":"getEntriesCount","inputs":[],"outputs":[{"name":"","type":"uint256","internalType":"uint256"}],"stateMutability":"view"},{"type":"function","name":"getEntryAtIndex","inputs":[{"name":"index","type":"uint256","internalType":"uint256"}],"outputs":[{"name":"","type":"uint256","internalType":"uint256"}],"stateMutability":"view"},{"type":"function","name":"getPrimarySideBalance","inputs":[],"outputs":[{"name":"","type":"uint256","internalType":"uint256"}],"stateMutability":"view"},{"type":"function","name":"getSecondarySideBalance","inputs":[],"outputs":[{"name":"","type":"uint256","internalType":"uint256"}],"stateMutability":"view"},{"type":"function","name":"isApprovedForAll","inputs":[{"name":"","type":"address","internalType":"address"},{"name":"","type":"address","internalType":"address"}],"outputs":[{"name":"","type":"bool","internalType":"bool"}],"stateMutability":"view"},{"type":"function","name":"lockContest","inputs":[],"outputs":[],"stateMutability":"nonpayable"},{"type":"function","name":"netPosition","inputs":[{"name":"","type":"uint256","internalType":"uint256"}],"outputs":[{"name":"","type":"int256","internalType":"int256"}],"stateMutability":"view"},{"type":"function","name":"oracle","inputs":[],"outputs":[{"name":"","type":"address","internalType":"address"}],"stateMutability":"view"},{"type":"function","name":"paymentToken","inputs":[],"outputs":[{"name":"","type":"address","internalType":"address"}],"stateMutability":"view"},{"type":"function","name":"primaryDepositAmount","inputs":[],"outputs":[{"name":"","type":"uint256","internalType":"uint256"}],"stateMutability":"view"},{"type":"function","name":"primaryDepositSecondarySubsidyBps","inputs":[],"outputs":[{"name":"","type":"uint256","internalType":"uint256"}],"stateMutability":"view"},{"type":"function","name":"primaryMerkleRoot","inputs":[],"outputs":[{"name":"","type":"bytes32","internalType":"bytes32"}],"stateMutability":"view"},{"type":"function","name":"primaryPrizePool","inputs":[],"outputs":[{"name":"","type":"uint256","internalType":"uint256"}],"stateMutability":"view"},{"type":"function","name":"primaryPrizePoolPayouts","inputs":[{"name":"","type":"uint256","internalType":"uint256"}],"outputs":[{"name":"","type":"uint256","internalType":"uint256"}],"stateMutability":"view"},{"type":"function","name":"pushPrimaryPayouts","inputs":[{"name":"entryIds","type":"uint256[]","internalType":"uint256[]"}],"outputs":[],"stateMutability":"nonpayable"},{"type":"function","name":"pushSecondaryPayouts","inputs":[{"name":"participantAddresses","type":"address[]","internalType":"address[]"},{"name":"entryId","type":"uint256","internalType":"uint256"}],"outputs":[],"stateMutability":"nonpayable"},{"type":"function","name":"referralGroupId","inputs":[],"outputs":[{"name":"","type":"bytes32","internalType":"bytes32"}],"stateMutability":"view"},{"type":"function","name":"referralNetworkBps","inputs":[],"outputs":[{"name":"","type":"uint256","internalType":"uint256"}],"stateMutability":"view"},{"type":"function","name":"removePrimaryPosition","inputs":[{"name":"entryId","type":"uint256","internalType":"uint256"}],"outputs":[],"stateMutability":"nonpayable"},{"type":"function","name":"removeSecondaryPosition","inputs":[{"name":"entryId","type":"uint256","internalType":"uint256"},{"name":"tokenAmount","type":"uint256","internalType":"uint256"}],"outputs":[],"stateMutability":"nonpayable"},{"type":"function","name":"rewardDistributor","inputs":[],"outputs":[{"name":"","type":"address","internalType":"address"}],"stateMutability":"view"},{"type":"function","name":"safeBatchTransferFrom","inputs":[{"name":"from","type":"address","internalType":"address"},{"name":"to","type":"address","internalType":"address"},{"name":"ids","type":"uint256[]","internalType":"uint256[]"},{"name":"amounts","type":"uint256[]","internalType":"uint256[]"},{"name":"data","type":"bytes","internalType":"bytes"}],"outputs":[],"stateMutability":"nonpayable"},{"type":"function","name":"safeTransferFrom","inputs":[{"name":"from","type":"address","internalType":"address"},{"name":"to","type":"address","internalType":"address"},{"name":"id","type":"uint256","internalType":"uint256"},{"name":"amount","type":"uint256","internalType":"uint256"},{"name":"data","type":"bytes","internalType":"bytes"}],"outputs":[],"stateMutability":"nonpayable"},{"type":"function","name":"secondaryDepositedPerEntry","inputs":[{"name":"","type":"address","internalType":"address"},{"name":"","type":"uint256","internalType":"uint256"}],"outputs":[{"name":"","type":"uint256","internalType":"uint256"}],"stateMutability":"view"},{"type":"function","name":"secondaryLiquidityPerEntry","inputs":[{"name":"","type":"uint256","internalType":"uint256"}],"outputs":[{"name":"","type":"uint256","internalType":"uint256"}],"stateMutability":"view"},{"type":"function","name":"secondaryMarketResolved","inputs":[],"outputs":[{"name":"","type":"bool","internalType":"bool"}],"stateMutability":"view"},{"type":"function","name":"secondaryMerkleRoot","inputs":[],"outputs":[{"name":"","type":"bytes32","internalType":"bytes32"}],"stateMutability":"view"},{"type":"function","name":"secondaryPrimarySubsidyPerEntry","inputs":[{"name":"","type":"uint256","internalType":"uint256"}],"outputs":[{"name":"","type":"uint256","internalType":"uint256"}],"stateMutability":"view"},{"type":"function","name":"secondaryWinningEntry","inputs":[],"outputs":[{"name":"","type":"uint256","internalType":"uint256"}],"stateMutability":"view"},{"type":"function","name":"setApprovalForAll","inputs":[{"name":"operator","type":"address","internalType":"address"},{"name":"approved","type":"bool","internalType":"bool"}],"outputs":[],"stateMutability":"nonpayable"},{"type":"function","name":"setPrimaryMerkleRoot","inputs":[{"name":"_root","type":"bytes32","internalType":"bytes32"}],"outputs":[],"stateMutability":"nonpayable"},{"type":"function","name":"setSecondaryMerkleRoot","inputs":[{"name":"_root","type":"bytes32","internalType":"bytes32"}],"outputs":[],"stateMutability":"nonpayable"},{"type":"function","name":"settleContest","inputs":[{"name":"winningEntries","type":"uint256[]","internalType":"uint256[]"},{"name":"payoutBps","type":"uint256[]","internalType":"uint256[]"},{"name":"referralReward","type":"tuple","internalType":"struct IRewardDistributor.ChainRewardData","components":[{"name":"user","type":"address","internalType":"address"},{"name":"totalAmount","type":"uint256","internalType":"uint256"},{"name":"rewardToken","type":"address","internalType":"address"},{"name":"groupId","type":"bytes32","internalType":"bytes32"},{"name":"eventId","type":"bytes32","internalType":"bytes32"}]},{"name":"referralSignature","type":"bytes","internalType":"bytes"}],"outputs":[],"stateMutability":"nonpayable"},{"type":"function","name":"state","inputs":[],"outputs":[{"name":"","type":"uint8","internalType":"enum ContestController.ContestState"}],"stateMutability":"view"},{"type":"function","name":"supportsInterface","inputs":[{"name":"interfaceId","type":"bytes4","internalType":"bytes4"}],"outputs":[{"name":"","type":"bool","internalType":"bool"}],"stateMutability":"view"},{"type":"function","name":"totalSecondaryLiquidity","inputs":[],"outputs":[{"name":"sum","type":"uint256","internalType":"uint256"}],"stateMutability":"view"},{"type":"function","name":"uri","inputs":[{"name":"","type":"uint256","internalType":"uint256"}],"outputs":[{"name":"","type":"string","internalType":"string"}],"stateMutability":"pure"},{"type":"event","name":"ApprovalForAll","inputs":[{"name":"owner","type":"address","indexed":true,"internalType":"address"},{"name":"operator","type":"address","indexed":true,"internalType":"address"},{"name":"approved","type":"bool","indexed":false,"internalType":"bool"}],"anonymous":false},{"type":"event","name":"ContestActivated","inputs":[],"anonymous":false},{"type":"event","name":"ContestCancelled","inputs":[],"anonymous":false},{"type":"event","name":"ContestClosed","inputs":[],"anonymous":false},{"type":"event","name":"ContestLocked","inputs":[],"anonymous":false},{"type":"event","name":"ContestSettled","inputs":[{"name":"winningEntries","type":"uint256[]","indexed":false,"internalType":"uint256[]"},{"name":"payouts","type":"uint256[]","indexed":false,"internalType":"uint256[]"}],"anonymous":false},{"type":"event","name":"PrimaryMerkleRootUpdated","inputs":[{"name":"newRoot","type":"bytes32","indexed":false,"internalType":"bytes32"}],"anonymous":false},{"type":"event","name":"PrimaryPayoutClaimed","inputs":[{"name":"owner","type":"address","indexed":true,"internalType":"address"},{"name":"entryId","type":"uint256","indexed":true,"internalType":"uint256"},{"name":"amount","type":"uint256","indexed":false,"internalType":"uint256"}],"anonymous":false},{"type":"event","name":"PrimaryPositionAdded","inputs":[{"name":"owner","type":"address","indexed":true,"internalType":"address"},{"name":"entryId","type":"uint256","indexed":true,"internalType":"uint256"}],"anonymous":false},{"type":"event","name":"PrimaryPositionAdded","inputs":[{"name":"owner","type":"address","indexed":true,"internalType":"address"},{"name":"entryId","type":"uint256","indexed":true,"internalType":"uint256"}],"anonymous":false},{"type":"event","name":"PrimaryPositionRemoved","inputs":[{"name":"entryId","type":"uint256","indexed":true,"internalType":"uint256"},{"name":"owner","type":"address","indexed":true,"internalType":"address"}],"anonymous":false},{"type":"event","name":"PrimaryPositionRemoved","inputs":[{"name":"entryId","type":"uint256","indexed":true,"internalType":"uint256"},{"name":"owner","type":"address","indexed":true,"internalType":"address"}],"anonymous":false},{"type":"event","name":"ReferralNetworkFeeDistributed","inputs":[{"name":"winner","type":"address","indexed":true,"internalType":"address"},{"name":"payoutAnchor","type":"address","indexed":true,"internalType":"address"},{"name":"amount","type":"uint256","indexed":false,"internalType":"uint256"},{"name":"eventId","type":"bytes32","indexed":false,"internalType":"bytes32"}],"anonymous":false},{"type":"event","name":"ReferralNetworkFeeToOracle","inputs":[{"name":"winner","type":"address","indexed":true,"internalType":"address"},{"name":"amount","type":"uint256","indexed":false,"internalType":"uint256"}],"anonymous":false},{"type":"event","name":"SecondaryMerkleRootUpdated","inputs":[{"name":"newRoot","type":"bytes32","indexed":false,"internalType":"bytes32"}],"anonymous":false},{"type":"event","name":"SecondaryPayoutClaimed","inputs":[{"name":"participant","type":"address","indexed":true,"internalType":"address"},{"name":"entryId","type":"uint256","indexed":true,"internalType":"uint256"},{"name":"payout","type":"uint256","indexed":false,"internalType":"uint256"}],"anonymous":false},{"type":"event","name":"SecondaryPositionAdded","inputs":[{"name":"participant","type":"address","indexed":true,"internalType":"address"},{"name":"entryId","type":"uint256","indexed":true,"internalType":"uint256"},{"name":"amount","type":"uint256","indexed":false,"internalType":"uint256"},{"name":"participantTokensReceived","type":"uint256","indexed":false,"internalType":"uint256"}],"anonymous":false},{"type":"event","name":"SecondaryPositionAdded","inputs":[{"name":"participant","type":"address","indexed":true,"internalType":"address"},{"name":"entryId","type":"uint256","indexed":true,"internalType":"uint256"},{"name":"amount","type":"uint256","indexed":false,"internalType":"uint256"},{"name":"participantTokensReceived","type":"uint256","indexed":false,"internalType":"uint256"}],"anonymous":false},{"type":"event","name":"SecondaryPositionSold","inputs":[{"name":"participant","type":"address","indexed":true,"internalType":"address"},{"name":"entryId","type":"uint256","indexed":true,"internalType":"uint256"},{"name":"tokenAmount","type":"uint256","indexed":false,"internalType":"uint256"},{"name":"proceeds","type":"uint256","indexed":false,"internalType":"uint256"}],"anonymous":false},{"type":"event","name":"SecondaryPositionSold","inputs":[{"name":"participant","type":"address","indexed":true,"internalType":"address"},{"name":"entryId","type":"uint256","indexed":true,"internalType":"uint256"},{"name":"tokenAmount","type":"uint256","indexed":false,"internalType":"uint256"},{"name":"proceeds","type":"uint256","indexed":false,"internalType":"uint256"}],"anonymous":false},{"type":"event","name":"TransferBatch","inputs":[{"name":"operator","type":"address","indexed":true,"internalType":"address"},{"name":"from","type":"address","indexed":true,"internalType":"address"},{"name":"to","type":"address","indexed":true,"internalType":"address"},{"name":"ids","type":"uint256[]","indexed":false,"internalType":"uint256[]"},{"name":"amounts","type":"uint256[]","indexed":false,"internalType":"uint256[]"}],"anonymous":false},{"type":"event","name":"TransferSingle","inputs":[{"name":"operator","type":"address","indexed":true,"internalType":"address"},{"name":"from","type":"address","indexed":true,"internalType":"address"},{"name":"to","type":"address","indexed":true,"internalType":"address"},{"name":"id","type":"uint256","indexed":false,"internalType":"uint256"},{"name":"amount","type":"uint256","indexed":false,"internalType":"uint256"}],"anonymous":false},{"type":"event","name":"URI","inputs":[{"name":"value","type":"string","indexed":false,"internalType":"string"},{"name":"id","type":"uint256","indexed":true,"internalType":"uint256"}],"anonymous":false}],"bytecode":{"object":"0x6101803461039d57601f61441238819003918201601f19168301916001600160401b038311848410176103a1578084926101009460405283398101031261039d57610049816103b5565b90610056602082016103b5565b6040820151606083015160808401519160a08501519360e061007a60c088016103b5565b9601516001600255966001600160a01b03811615610358576001600160a01b03821615610322576103e884116102dd57428511156102a7576127108611610262576001600160a01b0387161561021d5760805260a05260c05260e0526101005261012052610140526101605260ff196003541660035560405161404890816103ca823960805181818161044a01528181610ad001528181610e840152818161103c01528181611355015281816115b501528181611a8801528181611dca0152818161254c015281816127b801528181612d970152613156015260a0518181816106af01528181610cbf01528181610fdd0152818161153401528181611bfd01528181611c43015281816120cf015281816130cc01528181613426015261352f015260c0518181816109bf015281816118650152611955015260e05181818161218b015261311e0152610100518181816109860152818161142a0152818161157b015261171c015261012051818181610a8401528181611a1801526133ed015261014051818181611463015261244f0152610160518181816118a001526124a80152f35b60405162461bcd60e51b815260206004820152601a60248201527f496e76616c696420726577617264206469737472696275746f720000000000006044820152606490fd5b60405162461bcd60e51b815260206004820152601460248201527f537562736964792062707320746f6f20686967680000000000000000000000006044820152606490fd5b60405162461bcd60e51b815260206004820152600e60248201526d115e1c1a5c9e481a5b881c185cdd60921b6044820152606490fd5b60405162461bcd60e51b815260206004820152601d60248201527f526566657272616c206e6574776f726b2066656520746f6f20686967680000006044820152606490fd5b60405162461bcd60e51b815260206004820152600e60248201526d496e76616c6964206f7261636c6560901b6044820152606490fd5b60405162461bcd60e51b815260206004820152601560248201527f496e76616c6964207061796d656e7420746f6b656e00000000000000000000006044820152606490fd5b5f80fd5b634e487b7160e01b5f52604160045260245ffd5b51906001600160a01b038216820361039d5756fe6080806040526004361015610012575f80fd5b5f905f3560e01c908162fdd58e146136b25750806301ffc9a7146136445780630e89341c146136075780631db0e6671461351957806324f9cc4c146134105780632da6a967146133d65780632eb2c2d6146131855780633013ce2914613141578063309d79c5146131075780633789a2fb1461308f5780633a2babc2146130475780634034b06014612cb35780634e1273f414612b715780636932b38214612b475780636c54776714612b1d5780636fd969031461204957806374d3421414611cf557806375f2500614611c2c5780637680a51e146112115780637dc0d1d014611be75780637e8f1234146118c3578063853999cf14611888578063933b12821461184d5780639455937a14610c4c57806395082d251461182f5780639a9a5d9d14611811578063a01e4a1f14611709578063a094c63214611521578063a22cb46514611492578063acc2166a1461144d578063ade6e2aa14611412578063ae4c8ba9146113ef578063af19e0d5146112a2578063af1d919714611284578063b30906d414611259578063b48e94ce1461122f578063b9937e3014611211578063ba594751146111f5578063bf6bbf09146111b2578063c19d93fb14611172578063c8d2270014610fa6578063c8d5c1b114610f7c578063c9a496aa14610f0e578063d09685b014610ef0578063d6a74ce014610c84578063df1ef4c614610c51578063e08a1a4214610c4c578063e1a4521814610c2f578063e1db226a14610902578063e985e9c5146108aa578063ed4af81f1461088c578063f242432a146106eb578063fc8c28e1146106715763fed763251461026f575f80fd5b3461066e57606036600319011261066e576004356024356044356001600160401b03811161066a576102a86102c5913690600401613740565b906102b76001600254146139d9565b600280556010543390613d2e565b60ff60035416600681101561065657801590811561064b575b50156105fc57818352600660205260408320546001600160a01b0316156105ad5761030a811515613caf565b818352600a602052604083205481848213156105a25761032991613ee1565b801561054257828452600b602052604084206103468382546138ff565b9055828452600a602052604084208054908282019186848412911290801582169115161761052e5755826040518381528260208201527fa00dafed0dbb4c386c4a62b78c2bcbf149dcebfed234ad200c7e6631854d48b060403392a3338452600d60205260408420838552602052604084206103c38382546138ff565b9055604051926103d46020856137f9565b5f84523385528460205260408520818652602052604085206103f78382546138ff565b90556040518181528260208201528533917fc3d58168c5ae7397731d063d5bbf3d657854427343f4c083240f7aacaa2d0f6260403392a4333b61047f575050610477915061044633151561399a565b30337f00000000000000000000000000000000000000000000000000000000000000006001600160a01b0316613e43565b600160025580f35b906020916104bf604051958693849363f23a6e6160e01b85523360048601528960248601526044850152606484015260a0608484015260a483019061371c565b038186335af191821561052357610477926104469185916104f4575b506001600160e01b03191663f23a6e6160e01b1461399a565b610516915060203d60201161051c575b61050e81836137f9565b81019061395a565b5f6104db565b503d610504565b6040513d85823e3d90fd5b634e487b7160e01b86526011600452602486fd5b60405162461bcd60e51b815260206004820152603260248201527f5061796d656e7420746f6f20736d616c6c3a20696e73756666696369656e7420604482015271746f20707572636861736520746f6b656e7360701b6064820152608490fd5b610329915084613ee1565b60405162461bcd60e51b815260206004820152602160248201527f456e74727920646f6573206e6f74206578697374206f722077697468647261776044820152603760f91b6064820152608490fd5b60405162461bcd60e51b815260206004820152602160248201527f5365636f6e6461727920706f736974696f6e73206e6f7420617661696c61626c6044820152606560f81b6064820152608490fd5b60019150145f6102de565b634e487b7160e01b84526021600452602484fd5b8380fd5b80fd5b503461066e57602036600319011261066e577f1f3ffb5a38f057a21fbb6b9c891954827a2657844fbc0ae99188cce46f059e2b60206004356106dd337f00000000000000000000000000000000000000000000000000000000000000006001600160a01b03161461382e565b80600955604051908152a180f35b503461066e5760a036600319011261066e576107056136f0565b61070d613706565b826064356044356084356001600160401b03811161066a57610733903690600401613770565b90959093906001600160a01b0316338114801561086a575b610754906138a5565b8082528160205260408220838352602052604082206107748582546138f2565b905560018060a01b038616958683528260205260408320848452602052604083206107a08682546138ff565b905586826040518681528760208201527fc3d58168c5ae7397731d063d5bbf3d657854427343f4c083240f7aacaa2d0f6260403392a43b6107ef5750505050506107ec9150151561399a565b80f35b6108326020969495976040519889978896879563f23a6e6160e01b875233600488015260248701526044860152606485015260a0608485015260a484019161397a565b03925af1801561085f576107ec9183916104f457506001600160e01b03191663f23a6e6160e01b1461399a565b6040513d84823e3d90fd5b50808252600160209081526040808420335f908152925290205460ff1661074b565b503461066e578060031936011261066e576020600954604051908152f35b503461066e57604036600319011261066e5760406108c66136f0565b916108cf613706565b9260018060a01b031681526001602052209060018060a01b03165f52602052602060ff60405f2054166040519015158152f35b503461066e57604036600319011261066e57600435906024356001600160401b038111610c2b5761093a610957913690600401613740565b906109496001600254146139d9565b600280556009543390613d2e565b60ff600354166006811015610c1757610bdf57818152600660205260408120546001600160a01b0316610ba3577f0000000000000000000000000000000000000000000000000000000000000000421015610b6c5781815260056020526040812054610b30577f00000000000000000000000000000000000000000000000000000000000000006004549268010000000000000000841015610b1c57610a2381610a0b8660016104779798016004556137e1565b90919082549060031b91821b915f19901b1916179055565b808452600660205260408420336bffffffffffffffffffffffff60a01b82541617905580337f4a3a30e0139991c1b1492b4364701af9484bb9032a696c2b8c748a1e51f2fd178680a360045481855260056020526040852055612710610aa97f000000000000000000000000000000000000000000000000000000000000000084613a4a565b0490610ac0610ab883856138f2565b6007546138ff565b60075581610afd575b50309050337f00000000000000000000000000000000000000000000000000000000000000006001600160a01b0316613e43565b8452600c602052610b13604085209182546138ff565b90555f80610ac9565b634e487b7160e01b83526041600452602483fd5b60405162461bcd60e51b8152602060048201526014602482015273456e74727920616c72656164792061637469766560601b6044820152606490fd5b60405162461bcd60e51b815260206004820152600f60248201526e10dbdb9d195cdd08195e1c1a5c9959608a1b6044820152606490fd5b60405162461bcd60e51b8152602060048201526014602482015273456e74727920616c72656164792065786973747360601b6044820152606490fd5b60405162461bcd60e51b815260206004820152601060248201526f21b7b73a32b9ba103737ba1037b832b760811b6044820152606490fd5b634e487b7160e01b82526021600452602482fd5b5080fd5b503461066e578060031936011261066e5760206040516127108152f35b61379d565b503461066e57602036600319011261066e57602090600435815260068252604060018060a01b0391205416604051908152f35b503461066e57604036600319011261066e576004356001600160401b038111610c2b57610cb5903690600401613740565b60243590610ced337f00000000000000000000000000000000000000000000000000000000000000006001600160a01b03161461382e565b610cfb6001600254146139d9565b6002805560ff600354166006811015610edc576003610d1a9114613abe565b610d2860ff600f5416613b00565b610d35600e548314613b42565b818452600a602052610d4c60408520541515613a12565b835b818110610d5e5784600160025580f35b8083610d75610d7060019486896138e2565b613aaa565b838060a01b038116908189528860205260408920838a5260205288604081205480610da6575b505050505001610d4e565b848252600a6020526040822054858352600b60205260408320549080151580610ed3575b15610eca57610ddc610de19284613a4a565b613a5d565b905b610dee818786613bbd565b858352600a602052610e0560408420918254613a7b565b9055838252600d602052604082208583526020528160408120558015610d9b57610ea9817fe256ef8b7b6eaeb621f7e7ca3b683f124df401cb260bbaccf0540299944b858a9487858160209752600b875283604082205410155f14610eba576040918152600b875220610e798382546138f2565b90555b898060a01b037f000000000000000000000000000000000000000000000000000000000000000016613c1f565b604051908152a3835f808881610d9b565b52600b85528d6040812055610e7c565b50508190610de3565b50811515610dca565b634e487b7160e01b85526021600452602485fd5b503461066e578060031936011261066e576020600454604051908152f35b503461066e57602036600319011261066e57600435600454811015610f4757610f386020916137e1565b90549060031b1c604051908152f35b60405162461bcd60e51b815260206004820152600d60248201526c092dcecc2d8d2c840d2dcc8caf609b1b6044820152606490fd5b503461066e57602036600319011261066e5760406020916004358152600883522054604051908152f35b503461066e57602036600319011261066e576004356001600160401b038111610c2b57610fd7903690600401613740565b61100b337f00000000000000000000000000000000000000000000000000000000000000006001600160a01b03161461382e565b6110196001600254146139d9565b6002805560ff600354166006811015610656579161103a6003859414613abe565b7f00000000000000000000000000000000000000000000000000000000000000006001600160a01b031691835b8181106110775784600160025580f35b6110828183856138e2565b35808652600660205260408620546001600160a01b03169190821561112d576001928188526008602052604088205480156111255760207e89742e8fcde5f6c48a17ec50347f2b2d98d85a17abe162b4cd552516f752dd91848b52600882528a60408120558060075410155f1461111c576110ff816007546138f2565b6007555b61110e81858c613c1f565b604051908152a35b01611067565b8a600755611103565b505050611116565b60405162461bcd60e51b815260206004820152601a60248201527f456e7472792077697468647261776e206f7220696e76616c69640000000000006044820152606490fd5b503461066e578060031936011261066e5760ff6003541660405190600681101561119e57602092508152f35b634e487b7160e01b83526021600452602483fd5b503461066e57604036600319011261066e576020906040906001600160a01b036111da6136f0565b168152600d8352818120602435825283522054604051908152f35b503461066e578060031936011261066e57602060405160018152f35b503461066e578060031936011261066e576020600754604051908152f35b503461066e57602036600319011261066e5760406020916004358152600b83522054604051908152f35b503461066e57602036600319011261066e576004359060045482101561066e576020610f38836137e1565b503461066e578060031936011261066e576020600e54604051908152f35b503461066e57602036600319011261066e576004356112c56001600254146139d9565b6002805560ff60035416600681101561119e5781835260086020526112f1600360408520549214613abe565b81835260066020526040832054611312906001600160a01b03163314613cf0565b156113be578082526008602052604082205481835260086020528260408120558060075410155f146113b55761134a816007546138f2565b6007555b61138281337f00000000000000000000000000000000000000000000000000000000000000006001600160a01b0316613c1f565b6040519081527e89742e8fcde5f6c48a17ec50347f2b2d98d85a17abe162b4cd552516f752dd60203392a3600160025580f35b8260075561134e565b60405162461bcd60e51b8152602060048201526009602482015268139bc81c185e5bdd5d60ba1b6044820152606490fd5b503461066e578060031936011261066e57602060ff600f54166040519015158152f35b503461066e578060031936011261066e5760206040517f00000000000000000000000000000000000000000000000000000000000000008152f35b503461066e578060031936011261066e576040517f00000000000000000000000000000000000000000000000000000000000000006001600160a01b03168152602090f35b503461066e57604036600319011261066e576114ac6136f0565b6024359081151580920361151d5733835260016020526040832060018060a01b0382165f5260205260405f2060ff1981541660ff841617905560405191825260018060a01b0316907f17307eab39ab6107e8899845ad3d59bd9653f200f220920489ca2b5937696c3160203392a380f35b8280fd5b503461066e578060031936011261066e577f0000000000000000000000000000000000000000000000000000000000000000611567336001600160a01b0383161461382e565b6115756001600254146139d9565b600280557f000000000000000000000000000000000000000000000000000000000000000042106116cf576040516370a0823160e01b81523060048201527f00000000000000000000000000000000000000000000000000000000000000006001600160a01b031691602082602481865afa9182156116c457849261168c575b5081611605575b83600160025580f35b83600755835b60045481101561164957806116216001926137e1565b90549060031b1c808752600b6020528660408120558652600c6020528560408120550161160b565b5061166092600560ff196003541617600355613c1f565b7fef19c40e684c836035e6598f5d86819dfec89371571efdeed7947339739711438180a15f80806115fc565b9091506020813d6020116116bc575b816116a8602093836137f9565b810103126116b85751905f6115f5565b5f80fd5b3d915061169b565b6040513d86823e3d90fd5b60405162461bcd60e51b8152602060048201526012602482015271115e1c1a5c9e481b9bdd081c995858da195960721b6044820152606490fd5b503461066e578060031936011261066e577f000000000000000000000000000000000000000000000000000000000000000042106117de5760ff600354166006811015610c1757600381141590816117d2575b501561179b57611774600460ff196003541617600355565b7f9237e8f0d5063a695b8695e82c82bc24d15591de9d04449771a6ea4b128317378180a180f35b60405162461bcd60e51b815260206004820152600f60248201526e105b1c9958591e481cd95d1d1b1959608a1b6044820152606490fd5b6005915014155f61175c565b60405162461bcd60e51b815260206004820152600b60248201526a139bdd08195e1c1a5c995960aa1b6044820152606490fd5b503461066e578060031936011261066e576020601054604051908152f35b503461066e578060031936011261066e576020604051620f42408152f35b503461066e578060031936011261066e5760206040517f00000000000000000000000000000000000000000000000000000000000000008152f35b503461066e578060031936011261066e5760206040517f00000000000000000000000000000000000000000000000000000000000000008152f35b503461066e57602036600319011261066e576004356118e66001600254146139d9565b6002805560ff60035416600681101561119e578015908115611bdc575b5015611b7e578082526006602052604082205461192a906001600160a01b03163314613cf0565b808252600660208181526040808520548486529290915280842080546001600160a01b0319169055517f0000000000000000000000000000000000000000000000000000000000000000916001600160a01b0316837fa11660be5ca5ef93a56a1f22e4de3d92bcb1727897a5e70a7262c26e256f3a408680a382845260056020526040842054908115611b4957505f198101818111611b35576004545f19810190811161052e57808203611b02575b5050506004548015611aee575f19016119f1816137e1565b8154905f199060031b1b191690556004558183526005602052826040812055612710611a3d7f000000000000000000000000000000000000000000000000000000000000000083613a4a565b04611a53611a4b82846138f2565b6007546138f2565b600755828452600c60205280604085205410611ab557610477928452600c602052611a83604085209182546138f2565b9055337f00000000000000000000000000000000000000000000000000000000000000006001600160a01b0316613c1f565b60405162461bcd60e51b81526020600482015260116024820152705375627369647920756e646572666c6f7760781b6044820152606490fd5b634e487b7160e01b84526031600452602484fd5b610a0b91611b12611b21926137e1565b90549060031b1c9283916137e1565b8452600560205260408420555f80806119d9565b634e487b7160e01b85526011600452602485fd5b62461bcd60e51b815260206004820152601060248201526f456e747279206e6f742061637469766560801b6044820152606490fd5b60405162461bcd60e51b815260206004820152603060248201527f43616e6e6f74207769746864726177202d20636f6e7465737420696e2070726f60448201526f19dc995cdcc81bdc881cd95d1d1b195960821b6064820152608490fd5b60049150145f611903565b503461066e578060031936011261066e576040517f00000000000000000000000000000000000000000000000000000000000000006001600160a01b03168152602090f35b503461066e578060031936011261066e57611c71337f00000000000000000000000000000000000000000000000000000000000000006001600160a01b03161461382e565b60ff600354166006811015610c1757600103611cbb57600260ff1960035416176003557fca4f15905dfed40aa7885e1be889ff7da045bd49fc916c3a40cf8b0a3db7636a8180a180f35b60405162461bcd60e51b8152602060048201526012602482015271436f6e74657374206e6f742061637469766560701b6044820152606490fd5b503461066e57604036600319011261066e57600435602435611d1b6001600254146139d9565b60028055338352826020526040832082845260205260408320549060ff600354166006811015610edc57801590811561203e575b5015611fe057828452600660205260408420546001600160a01b031615611fa457611d7b811515613caf565b808210611f6857828452600a602052611db36040852054611d9d811515613a12565b848652600b602052610ddc604087205484613a4a565b6040516370a0823160e01b815230600482015290927f00000000000000000000000000000000000000000000000000000000000000006001600160a01b03169290602083602481875afa8015611f5d5786938891611f28575b50808611611f20575b50338752600d60205260408720838852602052604087205480611eeb575b5050611e40818333613bbd565b818652600a60205260408620611e57828254613a7b565b90556040519081528360208201527fa2b936e19d2f391e984b3c8722e0e0a30ef1b73581371ed847624152e65d16f560403392a381611e995783600160025580f35b828452600b6020526040842054611ed193908311611ed9578452600b60205260408420611ec78382546138f2565b90555b3390613c1f565b5f80806115fc565b8452600b602052836040812055611eca565b611efc611f0292610ddc8584613a4a565b906138f2565b338752600d6020526040872083885260205260408720555f80611e33565b94505f611e15565b9350506020833d602011611f55575b81611f44602093836137f9565b810103126116b8578592515f611e0c565b3d9150611f37565b6040513d89823e3d90fd5b60405162461bcd60e51b8152602060048201526014602482015273496e73756666696369656e742062616c616e636560601b6044820152606490fd5b60405162461bcd60e51b8152602060048201526014602482015273115b9d1c9e48191bd95cc81b9bdd08195e1a5cdd60621b6044820152606490fd5b60405162461bcd60e51b815260206004820152603060248201527f43616e6e6f74207769746864726177202d20636f6d7065746974696f6e20737460448201526f185c9d1959081bdc881cd95d1d1b195960821b6064820152608490fd5b60049150145f611d4f565b50346116b8576101003660031901126116b8576004356001600160401b0381116116b85761207b903690600401613740565b90916024356001600160401b0381116116b85761209c903690600401613740565b92909360a06043193601126116b85760e4356001600160401b0381116116b8576120ca903690600401613770565b9094907f0000000000000000000000000000000000000000000000000000000000000000612102336001600160a01b0383161461382e565b6121106001600254146139d9565b6002805560ff600354166006811015612b095760018114908115612afe575b5015612ab95784159182612a7457838603612a3757600454918287116129ff575f805b868c81841061298857505061271091500361294357600754985f935f905b8082106128fa575050612183848b6138ff565b5f9a612710917f000000000000000000000000000000000000000000000000000000000000000090811515806128f1575b6128b8575b5050816127106121cd81946121d494613a4a565b0496613a4a565b04998061241c575b50505050600360ff19815416176003558060075584865b8986868484106123e0575050505050506123cc5781359586600e55600160ff19600f541617600f55845b60045481101561225b57806122336001926137e1565b90549060031b1c808852600b6020528760408120558752600c6020528660408120550161221d565b508695600e548652600b6020526040862055600e5495868652600a602052604086205496808752600b60205260408720549788151590816123c3575b506122dd575b867f0fed27f5e3cd741c181cc0d3b0c47df2013638faa8b7aa7084de3946098eb78e87876122d2888860405194859485613930565b0390a1600160025580f35b8652600b6020528560408120558596865b86811061236057509081886122d29594937f0fed27f5e3cd741c181cc0d3b0c47df2013638faa8b7aa7084de3946098eb78e999a10612336575b50508796508192935061229d565b61233f916138f2565b9088526008602052612356604089209182546138ff565b9055878080612328565b61236b8188886138e2565b3561271061238461237d8489896138e2565b3585613a4a565b0480612395575b50506001016122ee565b6123a381600194939c6138ff565b9a8a5260086020526123ba60408b209182546138ff565b9055908a61238b565b90501589612297565b634e487b7160e01b84526032600452602484fd5b6123ff84612406926123f882600199612710976138e2565b35956138e2565b3586613a4a565b04908952600860205260408920550185906121f3565b90919294505f9487355f52600660205260018060a01b0360405f20541692831561288257604051631b8dda1960e01b81527f000000000000000000000000000000000000000000000000000000000000000091906001600160a01b038316602082600481845afa918215612669575f9261283e575b506040516377ccfd4b60e01b8152600481018890527f00000000000000000000000000000000000000000000000000000000000000006024820181905292602090829060449082906001600160a01b03165afa908115612669575f916127fc575b506001600160a01b031697881515806127f1575b1561278157506064359186830361273c576044356001600160a01b03811691908281036116b8578a83036126fe57608435966001600160a01b038816908189036116b8577f00000000000000000000000000000000000000000000000000000000000000006001600160a01b03168083036126b95760a43594850361267457612590918c91613c1f565b843b156116b8575f9687936125e4926040519a8b998a988997630a25170f60e01b89525060048801526024870152506044850152606484015260c435998a608485015260c060a485015260c484019161397a565b03925af180156126695761262e575b507f3fcc8d771fa3184f3e1d36fc708fc9e3a881e989b1e83f525460ba1184d9cb199160409182519182526020820152a35b5f8080806121dc565b6040919a509161265f5f7f3fcc8d771fa3184f3e1d36fc708fc9e3a881e989b1e83f525460ba1184d9cb19946137f9565b5f9a9150916125f3565b6040513d5f823e3d90fd5b60405162461bcd60e51b815260206004820152601760248201527f526566657272616c2067726f7570206d69736d617463680000000000000000006044820152606490fd5b60405162461bcd60e51b815260206004820152601760248201527f526566657272616c20746f6b656e206d69736d617463680000000000000000006044820152606490fd5b60405162461bcd60e51b81526020600482015260166024820152750a4cacccae4e4c2d840eae6cae440dad2e6dac2e8c6d60531b6044820152606490fd5b60405162461bcd60e51b815260206004820152601860248201527f526566657272616c20616d6f756e74206d69736d6174636800000000000000006044820152606490fd5b9697507f29f8dbc55e5e4360f3c59ce726d91cdc67db886965c1b3c00cabed616cb3aa119660209695506127e594508593509150507f00000000000000000000000000000000000000000000000000000000000000006001600160a01b0316613c1f565b604051908152a2612625565b506001891415612506565b90506020813d602011612836575b81612817602093836137f9565b810103126116b857516001600160a01b03811681036116b8575f6124f2565b3d915061280a565b9091506020813d60201161287a575b8161285a602093836137f9565b810103126116b857516001600160a01b03811681036116b857905f612491565b3d915061284d565b60405162461bcd60e51b815260206004820152600e60248201526d24b73b30b634b2103bb4b73732b960911b6044820152606490fd5b81849394929e506128c891613a4a565b049b81039081116128dd5790806127106121b9565b634e487b7160e01b5f52601160045260245ffd5b508015156121b4565b909461293b60019161293561290e896137e1565b90549060031b1c805f52600b60205260405f2054905f52600c60205260405f2054906138ff565b906138ff565b950190612170565b60405162461bcd60e51b815260206004820152601860248201527f5061796f757473206d7573742073756d20746f203130302500000000000000006044820152606490fd5b6129939184916138e2565b35156129ba576129b26001916129ab848f8b906138e2565b35906138ff565b910190612152565b60405162461bcd60e51b815260206004820152601960248201527f557365206e6f6e2d7a65726f207061796f757473206f6e6c79000000000000006044820152606490fd5b60405162461bcd60e51b815260206004820152601060248201526f546f6f206d616e792077696e6e65727360801b6044820152606490fd5b60405162461bcd60e51b8152602060048201526015602482015274082e4e4c2f240d8cadccee8d040dad2e6dac2e8c6d605b1b6044820152606490fd5b60405162461bcd60e51b815260206004820152601d60248201527f4d7573742068617665206174206c65617374206f6e652077696e6e65720000006044820152606490fd5b60405162461bcd60e51b815260206004820152601c60248201527f436f6e74657374206e6f7420616374697665206f72206c6f636b6564000000006044820152606490fd5b60029150145f61212f565b634e487b7160e01b5f52602160045260245ffd5b346116b85760203660031901126116b8576004355f52600c602052602060405f2054604051908152f35b346116b85760203660031901126116b8576004355f52600a602052602060405f2054604051908152f35b346116b85760403660031901126116b8576004356001600160401b0381116116b857612ba1903690600401613740565b906024356001600160401b0381116116b857612bc1903690600401613740565b9290612bce848314613867565b612bd782613a93565b93612be560405195866137f9565b828552612bf183613a93565b602086019490601f19013686375f5b848110612c4b578587604051918291602083019060208452518091526040830191905f5b818110612c32575050500390f35b8251845285945060209384019390920191600101612c24565b6001600160a01b03612c61610d708388866138e2565b165f525f60205260405f20612c778285876138e2565b355f5260205260405f2054908751811015612c9f5760019160208260051b8a01015201612c00565b634e487b7160e01b5f52603260045260245ffd5b346116b85760203660031901126116b857600435612cd56001600254146139d9565b60028055335f525f60205260405f20815f5260205260405f205460ff600354166006811015612b0957612d2690612d1f60ff600f5416612d1a6003600e549414613abe565b613b00565b8314613b42565b5f828152600660205260409020546001600160a01b031615612ff4578015612fc357815f52600a60205260405f2054612d60811515613a12565b5f838152600b6020526040902054908115612fbb57610ddc612d829284613a4a565b6040516370a0823160e01b81523060048201527f00000000000000000000000000000000000000000000000000000000000000006001600160a01b03169290919081602084602481885afa9081156126695786945f92612f84575b508110612f7c575b50612df1818433613bbd565b825f52600a602052612e0860405f20918254613a7b565b9055335f52600d60205260405f20825f526020525f60408120558015155f14612f4a575f828152600b60205260409020548111612f3757815f52600b60205260405f20612e568282546138f2565b90555b612e64813385613c1f565b6040519081527fe256ef8b7b6eaeb621f7e7ca3b683f124df401cb260bbaccf0540299944b858a60203392a35b815f52600a60205260405f205415612eab575b6001600255005b6040516370a0823160e01b815230600482015290602082602481845afa918215612669575f92612f03575b5081612ee3575b50612ea4565b612efb925f52600b6020525f60408120553390613c1f565b808080612edd565b9091506020813d602011612f2f575b81612f1f602093836137f9565b810103126116b857519083612ed6565b3d9150612f12565b815f52600b6020525f6040812055612e59565b506040515f81527fe256ef8b7b6eaeb621f7e7ca3b683f124df401cb260bbaccf0540299944b858a60203392a3612e91565b915085612de5565b945090506020843d602011612fb3575b81612fa1602093836137f9565b810103126116b8578593519087612ddd565b3d9150612f94565b50505f612d82565b60405162461bcd60e51b81526020600482015260096024820152684e6f20746f6b656e7360b81b6044820152606490fd5b60405162461bcd60e51b815260206004820152602560248201527f456e74727920646f6573206e6f74206578697374206f72207761732077697468604482015264323930bbb760d91b6064820152608490fd5b346116b85760203660031901126116b8576004355f52600a60205260405f20545f81135f146130835761307b602091613b82565b604051908152f35b50602061307b5f613b82565b346116b85760203660031901126116b8577fa2877b861a6a177d8c1a4430a6f8716104652f70e5c8fbd58aa775ef96da4a5260206004356130fa337f00000000000000000000000000000000000000000000000000000000000000006001600160a01b03161461382e565b80601055604051908152a1005b346116b8575f3660031901126116b85760206040517f00000000000000000000000000000000000000000000000000000000000000008152f35b346116b8575f3660031901126116b8576040517f00000000000000000000000000000000000000000000000000000000000000006001600160a01b03168152602090f35b346116b85760a03660031901126116b85761319e6136f0565b6131a6613706565b6044356001600160401b0381116116b8576131c5903690600401613740565b926064356001600160401b0381116116b8576131e5903690600401613740565b91906084356001600160401b0381116116b857613206903690600401613770565b919092613214858914613867565b6001600160a01b03169333851480156133b4575b613231906138a5565b6001600160a01b038716965f5b89811061334e57508786887f4a39dc06d4c0dbc64b70af90fd698a233a518aa5d07e595d983b8c0526c8f7fb868d61327e88604051938493339785613930565b0390a43b61329a575050505050506132989150151561399a565b005b6132dd97935f936132ef6020999794613301946040519c8d9b8c9a8b9963bc197c8160e01b8b523360048c015260248b015260a060448b015260a48a019161390c565b8781036003190160648901529161390c565b8481036003190160848601529161397a565b03925af1801561266957613298915f9161332f575b506001600160e01b03191663bc197c8160e01b1461399a565b613348915060203d60201161051c5761050e81836137f9565b82613316565b8061335c6001928c8b6138e2565b356133688286886138e2565b3590895f525f60205260405f20815f5260205260405f2061338a8382546138f2565b90558b5f525f60205260405f20905f526020526133ac60405f209182546138ff565b90550161323e565b505f85815260016020908152604080832033845290915290205460ff16613228565b346116b8575f3660031901126116b85760206040517f00000000000000000000000000000000000000000000000000000000000000008152f35b346116b8575f3660031901126116b857613454337f00000000000000000000000000000000000000000000000000000000000000006001600160a01b03161461382e565b60ff600354166006811015612b09576134d457600454156134a257600160ff1960035416176003557f3927b788a62eb53f7192cd9286f49295f01b938b6afc23aef0af5d035cd853165f80a1005b60405162461bcd60e51b815260206004820152600a6024820152694e6f20656e747269657360b01b6044820152606490fd5b60405162461bcd60e51b815260206004820152601760248201527f436f6e7465737420616c726561647920737461727465640000000000000000006044820152606490fd5b346116b8575f3660031901126116b85761355d337f00000000000000000000000000000000000000000000000000000000000000006001600160a01b03161461382e565b60ff600354166006811015612b0957600381141590816135fb575b50156135b657613590600460ff196003541617600355565b7f9237e8f0d5063a695b8695e82c82bc24d15591de9d04449771a6ea4b128317375f80a1005b60405162461bcd60e51b815260206004820152601f60248201527f436f6e7465737420736574746c6564202d2063616e6e6f742063616e63656c006044820152606490fd5b60059150141581613578565b346116b85760203660031901126116b8576136406040516136296020826137f9565b5f815260405191829160208352602083019061371c565b0390f35b346116b85760203660031901126116b85760043563ffffffff60e01b81168091036116b8576020906301ffc9a760e01b81149081156136a1575b8115613690575b506040519015158152f35b6303a24d0760e21b14905082613685565b636cdb3d1360e11b8114915061367e565b346116b85760403660031901126116b8576020906001600160a01b036136d66136f0565b165f525f825260405f206024355f52825260405f20548152f35b600435906001600160a01b03821682036116b857565b602435906001600160a01b03821682036116b857565b805180835260209291819084018484015e5f828201840152601f01601f1916010190565b9181601f840112156116b8578235916001600160401b0383116116b8576020808501948460051b0101116116b857565b9181601f840112156116b8578235916001600160401b0383116116b857602083818601950101116116b857565b346116b8575f3660031901126116b8575f806004545b8083106137c557602082604051908152f35b906137d860019161293561290e866137e1565b920191906137b3565b600454811015612c9f5760045f5260205f2001905f90565b90601f801991011681019081106001600160401b0382111761381a57604052565b634e487b7160e01b5f52604160045260245ffd5b1561383557565b60405162461bcd60e51b815260206004820152600a6024820152694e6f74206f7261636c6560b01b6044820152606490fd5b1561386e57565b60405162461bcd60e51b815260206004820152600f60248201526e0988a9c8ea890be9a92a69a82a8869608b1b6044820152606490fd5b156138ac57565b60405162461bcd60e51b815260206004820152600e60248201526d1393d517d055551213d49256915160921b6044820152606490fd5b9190811015612c9f5760051b0190565b919082039182116128dd57565b919082018092116128dd57565b81835290916001600160fb1b0383116116b85760209260051b809284830137010190565b929061394990613957959360408652604086019161390c565b92602081850391015261390c565b90565b908160209103126116b857516001600160e01b0319811681036116b85790565b908060209392818452848401375f828201840152601f01601f1916010190565b156139a157565b60405162461bcd60e51b815260206004820152601060248201526f155394d0519157d49150d2541251539560821b6044820152606490fd5b156139e057565b60405162461bcd60e51b815260206004820152600a6024820152695245454e5452414e435960b01b6044820152606490fd5b15613a1957565b60405162461bcd60e51b81526020600482015260096024820152684e6f20737570706c7960b81b6044820152606490fd5b818102929181159184041417156128dd57565b8115613a67570490565b634e487b7160e01b5f52601260045260245ffd5b81810392915f1380158285131691841216176128dd57565b6001600160401b03811161381a5760051b60200190565b356001600160a01b03811681036116b85790565b15613ac557565b60405162461bcd60e51b815260206004820152601360248201527210dbdb9d195cdd081b9bdd081cd95d1d1b1959606a1b6044820152606490fd5b15613b0757565b60405162461bcd60e51b815260206004820152601360248201527213585c9ad95d081b9bdd081c995cdbdb1d9959606a1b6044820152606490fd5b15613b4957565b60405162461bcd60e51b81526020600482015260116024820152704e6f742077696e6e696e6720656e74727960781b6044820152606490fd5b633b9aca00613b92910480613a4a565b808004600114811517156128dd57670de0b6b3a76400009004620f42400180620f4240116128dd5790565b905f929160018060a01b031691828452836020526040842082855260205260408420613bea8282546138f2565b905560405191825260208201527fc3d58168c5ae7397731d063d5bbf3d657854427343f4c083240f7aacaa2d0f6260403392a4565b60405163a9059cbb60e01b81526001600160a01b03909216600483015260248201929092526020905f9060449082855af19081601f3d1160015f5114161516613ca2575b5015613c6b57565b60405162461bcd60e51b815260206004820152600f60248201526e1514905394d1915497d19052531151608a1b6044820152606490fd5b3b153d171590505f613c63565b15613cb657565b60405162461bcd60e51b81526020600482015260126024820152710416d6f756e74206d757374206265203e20360741b6044820152606490fd5b15613cf757565b60405162461bcd60e51b815260206004820152600f60248201526e2737ba1032b73a393c9037bbb732b960891b6044820152606490fd5b92919083613d3d575b50505050565b60405160208101916bffffffffffffffffffffffff199060601b16825260148152613d696034826137f9565b519020613d7583613a93565b91613d8360405193846137f9565b83835260208301809460051b8201913683116116b857905b828210613e33575050509080519283613dfd575b5050905003613dc1575f808080613d37565b60405162461bcd60e51b815260206004820152601460248201527324b73b30b634b21036b2b935b63290383937b7b360611b6044820152606490fd5b9260051b01602001905b8251811160051b90815260208351911852602060405f20920191818310613e0757915050805f80613daf565b8135815260209182019101613d9b565b6040516323b872dd60e01b81526001600160a01b03928316600482015292909116602483015260448201929092526020905f9060649082855af19081601f3d1160015f5114161516613ed4575b5015613e9857565b60405162461bcd60e51b81526020600482015260146024820152731514905394d1915497d19493d357d1905253115160621b6044820152606490fd5b3b153d171590505f613e90565b8115613f8f57613ef081613b82565b620f4240830290838204620f4240036128dd57613f0c91613a5d565b918260011c928060011b90808204600214901517156128dd57905f925b60328410613f39575b5050505090565b90919293600181018082116128dd57841115613f8957613f5984826138ff565b60011c9083613f688385613f95565b1015613f7d5750600190945b01929190613f29565b94935060019093613f74565b93613f32565b50505f90565b908015613f8f57613fa690826138ff565b90613fb182826138ff565b60011c613fd9613fc9613fc384613b82565b92613b82565b92613fd385613b82565b946138f2565b906001600160fe1b03831683036128dd57625b8d80936140036140089261400e9560021b906138ff565b6138ff565b90613a4a565b049056fea26469706673582212209f9adc8bf6705b254e710a931b2798090f0e43bffb4ca1b1246657b02ec61b1564736f6c634300081a0033","linkReferences":{}},"methodIdentifiers":{"BPS_DENOMINATOR()":"e1a45218","PRICE_PRECISION()":"95082d25","REFERRAL_ROOT()":"ba594751","activateContest()":"24f9cc4c","addPrimaryPosition(uint256,bytes32[])":"e1db226a","addSecondaryPosition(uint256,uint256,bytes32[])":"fed76325","balanceOf(address,uint256)":"00fdd58e","balanceOfBatch(address[],uint256[])":"4e1273f4","calculateSecondaryPrice(uint256)":"3a2babc2","cancelContest()":"1db0e667","cancelExpired()":"a01e4a1f","claimPrimaryPayout(uint256)":"af19e0d5","claimSecondaryPayout(uint256)":"4034b060","closeContest()":"a094c632","entries(uint256)":"b30906d4","entryOwner(uint256)":"df1ef4c6","expiryTimestamp()":"ade6e2aa","getEntriesCount()":"d09685b0","getEntryAtIndex(uint256)":"c9a496aa","getPrimarySideBalance()":"7680a51e","getSecondarySideBalance()":"9455937a","isApprovedForAll(address,address)":"e985e9c5","lockContest()":"75f25006","netPosition(uint256)":"6932b382","oracle()":"7dc0d1d0","paymentToken()":"3013ce29","primaryDepositAmount()":"933b1282","primaryDepositSecondarySubsidyBps()":"2da6a967","primaryMerkleRoot()":"ed4af81f","primaryPrizePool()":"b9937e30","primaryPrizePoolPayouts(uint256)":"c8d5c1b1","pushPrimaryPayouts(uint256[])":"c8d22700","pushSecondaryPayouts(address[],uint256)":"d6a74ce0","referralGroupId()":"853999cf","referralNetworkBps()":"309d79c5","removePrimaryPosition(uint256)":"7e8f1234","removeSecondaryPosition(uint256,uint256)":"74d34214","rewardDistributor()":"acc2166a","safeBatchTransferFrom(address,address,uint256[],uint256[],bytes)":"2eb2c2d6","safeTransferFrom(address,address,uint256,uint256,bytes)":"f242432a","secondaryDepositedPerEntry(address,uint256)":"bf6bbf09","secondaryLiquidityPerEntry(uint256)":"b48e94ce","secondaryMarketResolved()":"ae4c8ba9","secondaryMerkleRoot()":"9a9a5d9d","secondaryPrimarySubsidyPerEntry(uint256)":"6c547767","secondaryWinningEntry()":"af1d9197","setApprovalForAll(address,bool)":"a22cb465","setPrimaryMerkleRoot(bytes32)":"fc8c28e1","setSecondaryMerkleRoot(bytes32)":"3789a2fb","settleContest(uint256[],uint256[],(address,uint256,address,bytes32,bytes32),bytes)":"6fd96903","state()":"c19d93fb","supportsInterface(bytes4)":"01ffc9a7","totalSecondaryLiquidity()":"e08a1a42","uri(uint256)":"0e89341c"},"id":1}