{"abi":[{"type":"function","name":"contestHost","inputs":[{"name":"","type":"address","internalType":"address"}],"outputs":[{"name":"","type":"address","internalType":"address"}],"stateMutability":"view"},{"type":"function","name":"contests","inputs":[{"name":"","type":"uint256","internalType":"uint256"}],"outputs":[{"name":"","type":"address","internalType":"address"}],"stateMutability":"view"},{"type":"function","name":"createContest","inputs":[{"name":"paymentToken","type":"address","internalType":"address"},{"name":"oracle","type":"address","internalType":"address"},{"name":"contestantDepositAmount","type":"uint256","internalType":"uint256"},{"name":"referralNetworkBps","type":"uint256","internalType":"uint256"},{"name":"expiry","type":"uint256","internalType":"uint256"},{"name":"primaryDepositSecondarySubsidyBps","type":"uint256","internalType":"uint256"},{"name":"rewardDistributor","type":"address","internalType":"address"},{"name":"referralGroupId","type":"bytes32","internalType":"bytes32"}],"outputs":[{"name":"","type":"address","internalType":"address"}],"stateMutability":"nonpayable"},{"type":"function","name":"getContestCount","inputs":[],"outputs":[{"name":"","type":"uint256","internalType":"uint256"}],"stateMutability":"view"},{"type":"function","name":"getContests","inputs":[],"outputs":[{"name":"","type":"address[]","internalType":"address[]"}],"stateMutability":"view"},{"type":"event","name":"ContestCreated","inputs":[{"name":"contest","type":"address","indexed":true,"internalType":"address"},{"name":"host","type":"address","indexed":true,"internalType":"address"},{"name":"contestantDepositAmount","type":"uint256","indexed":false,"internalType":"uint256"}],"anonymous":false}],"bytecode":{"object":"0x608080604052346015576148b5908161001a8239f35b5f80fdfe6080806040526004361015610012575f80fd5b5f3560e01c90816334dd7a2e146103035750806364c3c166146102e757806382b86aa3146101875780639d7ed738146101465763bfaba76a14610053575f80fd5b34610142575f366003190112610142576040518060205f54918281520180915f80527f290decd9548b62a8d60345a988386fc84ba6bc95484008f6362f93160ef3e563905f5b81811061012357505050829003601f01601f191682019167ffffffffffffffff83118184101761010f5790829182604052602083019060208452518091526040830191905f5b8181106100ed575050500390f35b82516001600160a01b03168452859450602093840193909201916001016100df565b634e487b7160e01b5f52604160045260245ffd5b82546001600160a01b0316845260209093019260019283019201610099565b5f80fd5b34610142576020366003190112610142576004355f548110156101425761016e602091610358565b905460405160039290921b1c6001600160a01b03168152f35b3461014257610100366003190112610142576101a1610342565b6024356001600160a01b03811690819003610142576044359160c4356001600160a01b0381169081900361014257604051926144fd918285019185831067ffffffffffffffff84111761010f5761010094869461038386396001600160a01b031683526020830152604082018690526064356060830152608435608083015260a43560a083015260c082015260e43560e08201520301905ff080156102dc5760018060a01b03165f54916801000000000000000083101561010f5761026d836001602095015f55610358565b81549060031b9084821b9160018060a01b03901b1916179055815f526001835260405f20336bffffffffffffffffffffffff60a01b825416179055604051908152817f0930d90e589f3eb61818e12c03f3b7838099abcb975a02054dc58e1fe7cddf0f843393a3604051908152f35b6040513d5f823e3d90fd5b34610142575f3660031901126101425760205f54604051908152f35b34610142576020366003190112610142576020906001600160a01b03610327610342565b165f9081526001835260409020546001600160a01b03168152f35b600435906001600160a01b038216820361014257565b5f5481101561036e575f805260205f2001905f90565b634e487b7160e01b5f52603260045260245ffdfe6101803461039d57601f6144fd38819003918201601f19168301916001600160401b038311848410176103a1578084926101009460405283398101031261039d57610049816103b5565b90610056602082016103b5565b6040820151606083015160808401519160a08501519360e061007a60c088016103b5565b9601516001600255966001600160a01b03811615610358576001600160a01b03821615610322576103e884116102dd57428511156102a7576127108611610262576001600160a01b0387161561021d5760805260a05260c05260e0526101005261012052610140526101605260ff196003541660035560405161413390816103ca823960805181818161045501528181610adb01528181610e8f0152818161104701528181611360015281816115c001528181611a9301528181611dd5015281816122cc01528181612b4001528181612e5c0152613210015260a0518181816106ba01528181610cca01528181610fe80152818161153f01528181611c0801528181611c4e01528181612600015281816126c3015281816134fd0152613606015260c0518181816109ca015281816118700152611960015260e05181818161277f01526131d801526101005181818161099101528181611435015281816115860152611727015261012051818181610a8f01528181611a2301526134a701526101405181818161146e0152612a430152610160518181816118ab0152612a9c0152f35b60405162461bcd60e51b815260206004820152601a60248201527f496e76616c696420726577617264206469737472696275746f720000000000006044820152606490fd5b60405162461bcd60e51b815260206004820152601460248201527f537562736964792062707320746f6f20686967680000000000000000000000006044820152606490fd5b60405162461bcd60e51b815260206004820152600e60248201526d115e1c1a5c9e481a5b881c185cdd60921b6044820152606490fd5b60405162461bcd60e51b815260206004820152601d60248201527f526566657272616c206e6574776f726b2066656520746f6f20686967680000006044820152606490fd5b60405162461bcd60e51b815260206004820152600e60248201526d496e76616c6964206f7261636c6560901b6044820152606490fd5b60405162461bcd60e51b815260206004820152601560248201527f496e76616c6964207061796d656e7420746f6b656e00000000000000000000006044820152606490fd5b5f80fd5b634e487b7160e01b5f52604160045260245ffd5b51906001600160a01b038216820361039d5756fe6080806040526004361015610012575f80fd5b5f905f3560e01c908162fdd58e146137895750806301ffc9a71461371b5780630e89341c146136de5780631db0e667146135f057806324f9cc4c146134e75780632be269b8146134ca5780632da6a967146134905780632eb2c2d61461323f5780633013ce29146131fb578063309d79c5146131c157806330f7fbc01461263c5780633789a2fb146125c25780633a2babc21461257d5780634034b060146121e95780634e1273f4146120a85780636932b3821461207e5780636c5477671461205457806374d3421414611d0057806375f2500614611c375780637680a51e1461121c5780637dc0d1d014611bf25780637e8f1234146118ce578063853999cf14611893578063933b1282146118585780639455937a14610c5757806395082d251461183a5780639a9a5d9d1461181c578063a01e4a1f14611714578063a094c6321461152c578063a22cb4651461149d578063acc2166a14611458578063ade6e2aa1461141d578063ae4c8ba9146113fa578063af19e0d5146112ad578063af1d91971461128f578063b30906d414611264578063b48e94ce1461123a578063b9937e301461121c578063ba59475114611200578063bf6bbf09146111bd578063c19d93fb1461117d578063c8d2270014610fb1578063c8d5c1b114610f87578063c9a496aa14610f19578063d09685b014610efb578063d6a74ce014610c8f578063df1ef4c614610c5c578063e08a1a4214610c57578063e1a4521814610c3a578063e1db226a1461090d578063e985e9c5146108b5578063ed4af81f14610897578063f242432a146106f6578063fc8c28e11461067c5763fed763251461027a575f80fd5b34610679576060366003190112610679576004356024356044356001600160401b038111610675576102b36102d0913690600401613817565b906102c2600160025414613ac4565b600280556011543390613e19565b60ff600354166006811015610661578015908115610656575b501561060757818352600760205260408320546001600160a01b0316156105b857610315811515613d9a565b818352600b602052604083205481848213156105ad5761033491613fcc565b801561054d57828452600c602052604084206103518382546139ea565b9055828452600b60205260408420805490828201918684841291129080158216911516176105395755826040518381528260208201527fa00dafed0dbb4c386c4a62b78c2bcbf149dcebfed234ad200c7e6631854d48b060403392a3338452600e60205260408420838552602052604084206103ce8382546139ea565b9055604051926103df6020856138e4565b5f84523385528460205260408520818652602052604085206104028382546139ea565b90556040518181528260208201528533917fc3d58168c5ae7397731d063d5bbf3d657854427343f4c083240f7aacaa2d0f6260403392a4333b61048a5750506104829150610451331515613a85565b30337f00000000000000000000000000000000000000000000000000000000000000006001600160a01b0316613f2e565b600160025580f35b906020916104ca604051958693849363f23a6e6160e01b85523360048601528960248601526044850152606484015260a0608484015260a48301906137f3565b038186335af191821561052e57610482926104519185916104ff575b506001600160e01b03191663f23a6e6160e01b14613a85565b610521915060203d602011610527575b61051981836138e4565b810190613a45565b5f6104e6565b503d61050f565b6040513d85823e3d90fd5b634e487b7160e01b86526011600452602486fd5b60405162461bcd60e51b815260206004820152603260248201527f5061796d656e7420746f6f20736d616c6c3a20696e73756666696369656e7420604482015271746f20707572636861736520746f6b656e7360701b6064820152608490fd5b610334915084613fcc565b60405162461bcd60e51b815260206004820152602160248201527f456e74727920646f6573206e6f74206578697374206f722077697468647261776044820152603760f91b6064820152608490fd5b60405162461bcd60e51b815260206004820152602160248201527f5365636f6e6461727920706f736974696f6e73206e6f7420617661696c61626c6044820152606560f81b6064820152608490fd5b60019150145f6102e9565b634e487b7160e01b84526021600452602484fd5b8380fd5b80fd5b5034610679576020366003190112610679577f1f3ffb5a38f057a21fbb6b9c891954827a2657844fbc0ae99188cce46f059e2b60206004356106e8337f00000000000000000000000000000000000000000000000000000000000000006001600160a01b031614613919565b80600a55604051908152a180f35b50346106795760a0366003190112610679576107106137c7565b6107186137dd565b826064356044356084356001600160401b0381116106755761073e903690600401613847565b90959093906001600160a01b03163381148015610875575b61075f90613990565b80825281602052604082208383526020526040822061077f8582546139dd565b905560018060a01b038616958683528260205260408320848452602052604083206107ab8682546139ea565b905586826040518681528760208201527fc3d58168c5ae7397731d063d5bbf3d657854427343f4c083240f7aacaa2d0f6260403392a43b6107fa5750505050506107f791501515613a85565b80f35b61083d6020969495976040519889978896879563f23a6e6160e01b875233600488015260248701526044860152606485015260a0608485015260a4840191613a65565b03925af1801561086a576107f79183916104ff57506001600160e01b03191663f23a6e6160e01b14613a85565b6040513d84823e3d90fd5b50808252600160209081526040808420335f908152925290205460ff16610756565b50346106795780600319360112610679576020600a54604051908152f35b50346106795760403660031901126106795760406108d16137c7565b916108da6137dd565b9260018060a01b031681526001602052209060018060a01b03165f52602052602060ff60405f2054166040519015158152f35b503461067957604036600319011261067957600435906024356001600160401b038111610c3657610945610962913690600401613817565b90610954600160025414613ac4565b60028055600a543390613e19565b60ff600354166006811015610c2257610bea57818152600760205260408120546001600160a01b0316610bae577f0000000000000000000000000000000000000000000000000000000000000000421015610b775781815260066020526040812054610b3b577f00000000000000000000000000000000000000000000000000000000000000006005549268010000000000000000841015610b2757610a2e81610a168660016104829798016005556138b8565b90919082549060031b91821b915f19901b1916179055565b808452600760205260408420336bffffffffffffffffffffffff60a01b82541617905580337f4a3a30e0139991c1b1492b4364701af9484bb9032a696c2b8c748a1e51f2fd178680a360055481855260066020526040852055612710610ab47f000000000000000000000000000000000000000000000000000000000000000084613afd565b0490610acb610ac383856139dd565b6008546139ea565b60085581610b08575b50309050337f00000000000000000000000000000000000000000000000000000000000000006001600160a01b0316613f2e565b8452600d602052610b1e604085209182546139ea565b90555f80610ad4565b634e487b7160e01b83526041600452602483fd5b60405162461bcd60e51b8152602060048201526014602482015273456e74727920616c72656164792061637469766560601b6044820152606490fd5b60405162461bcd60e51b815260206004820152600f60248201526e10dbdb9d195cdd08195e1c1a5c9959608a1b6044820152606490fd5b60405162461bcd60e51b8152602060048201526014602482015273456e74727920616c72656164792065786973747360601b6044820152606490fd5b60405162461bcd60e51b815260206004820152601060248201526f21b7b73a32b9ba103737ba1037b832b760811b6044820152606490fd5b634e487b7160e01b82526021600452602482fd5b5080fd5b503461067957806003193601126106795760206040516127108152f35b613874565b503461067957602036600319011261067957602090600435815260078252604060018060a01b0391205416604051908152f35b5034610679576040366003190112610679576004356001600160401b038111610c3657610cc0903690600401613817565b60243590610cf8337f00000000000000000000000000000000000000000000000000000000000000006001600160a01b031614613919565b610d06600160025414613ac4565b6002805560ff600354166006811015610ee7576003610d259114613ba9565b610d3360ff60105416613beb565b610d40600f548314613c2d565b818452600b602052610d5760408520541515613b42565b835b818110610d695784600160025580f35b8083610d80610d7b60019486896139cd565b613b2e565b838060a01b038116908189528860205260408920838a5260205288604081205480610db1575b505050505001610d59565b848252600b6020526040822054858352600c60205260408320549080151580610ede575b15610ed557610de7610dec9284613afd565b613b10565b905b610df9818786613d38565b858352600b602052610e1060408420918254613b7a565b9055838252600e602052604082208583526020528160408120558015610da657610eb4817fe256ef8b7b6eaeb621f7e7ca3b683f124df401cb260bbaccf0540299944b858a9487858160209752600c875283604082205410155f14610ec5576040918152600c875220610e848382546139dd565b90555b898060a01b037f000000000000000000000000000000000000000000000000000000000000000016613c6d565b604051908152a3835f808881610da6565b52600c85528d6040812055610e87565b50508190610dee565b50811515610dd5565b634e487b7160e01b85526021600452602485fd5b50346106795780600319360112610679576020600554604051908152f35b503461067957602036600319011261067957600435600554811015610f5257610f436020916138b8565b90549060031b1c604051908152f35b60405162461bcd60e51b815260206004820152600d60248201526c092dcecc2d8d2c840d2dcc8caf609b1b6044820152606490fd5b50346106795760203660031901126106795760406020916004358152600983522054604051908152f35b5034610679576020366003190112610679576004356001600160401b038111610c3657610fe2903690600401613817565b611016337f00000000000000000000000000000000000000000000000000000000000000006001600160a01b031614613919565b611024600160025414613ac4565b6002805560ff60035416600681101561066157916110456003859414613ba9565b7f00000000000000000000000000000000000000000000000000000000000000006001600160a01b031691835b8181106110825784600160025580f35b61108d8183856139cd565b35808652600760205260408620546001600160a01b031691908215611138576001928188526009602052604088205480156111305760207e89742e8fcde5f6c48a17ec50347f2b2d98d85a17abe162b4cd552516f752dd91848b52600982528a60408120558060085410155f146111275761110a816008546139dd565b6008555b61111981858c613c6d565b604051908152a35b01611072565b8a60085561110e565b505050611121565b60405162461bcd60e51b815260206004820152601a60248201527f456e7472792077697468647261776e206f7220696e76616c69640000000000006044820152606490fd5b503461067957806003193601126106795760ff600354166040519060068110156111a957602092508152f35b634e487b7160e01b83526021600452602483fd5b5034610679576040366003190112610679576020906040906001600160a01b036111e56137c7565b168152600e8352818120602435825283522054604051908152f35b5034610679578060031936011261067957602060405160018152f35b50346106795780600319360112610679576020600854604051908152f35b50346106795760203660031901126106795760406020916004358152600c83522054604051908152f35b50346106795760203660031901126106795760043590600554821015610679576020610f43836138b8565b50346106795780600319360112610679576020600f54604051908152f35b5034610679576020366003190112610679576004356112d0600160025414613ac4565b6002805560ff6003541660068110156111a95781835260096020526112fc600360408520549214613ba9565b8183526007602052604083205461131d906001600160a01b03163314613ddb565b156113c9578082526009602052604082205481835260096020528260408120558060085410155f146113c057611355816008546139dd565b6008555b61138d81337f00000000000000000000000000000000000000000000000000000000000000006001600160a01b0316613c6d565b6040519081527e89742e8fcde5f6c48a17ec50347f2b2d98d85a17abe162b4cd552516f752dd60203392a3600160025580f35b82600855611359565b60405162461bcd60e51b8152602060048201526009602482015268139bc81c185e5bdd5d60ba1b6044820152606490fd5b5034610679578060031936011261067957602060ff601054166040519015158152f35b503461067957806003193601126106795760206040517f00000000000000000000000000000000000000000000000000000000000000008152f35b50346106795780600319360112610679576040517f00000000000000000000000000000000000000000000000000000000000000006001600160a01b03168152602090f35b5034610679576040366003190112610679576114b76137c7565b602435908115158092036115285733835260016020526040832060018060a01b0382165f5260205260405f2060ff1981541660ff841617905560405191825260018060a01b0316907f17307eab39ab6107e8899845ad3d59bd9653f200f220920489ca2b5937696c3160203392a380f35b8280fd5b50346106795780600319360112610679577f0000000000000000000000000000000000000000000000000000000000000000611572336001600160a01b03831614613919565b611580600160025414613ac4565b600280557f000000000000000000000000000000000000000000000000000000000000000042106116da576040516370a0823160e01b81523060048201527f00000000000000000000000000000000000000000000000000000000000000006001600160a01b031691602082602481865afa9182156116cf578492611697575b5081611610575b83600160025580f35b83600855835b600554811015611654578061162c6001926138b8565b90549060031b1c808752600c6020528660408120558652600d60205285604081205501611616565b5061166b92600560ff196003541617600355613c6d565b7fef19c40e684c836035e6598f5d86819dfec89371571efdeed7947339739711438180a15f8080611607565b9091506020813d6020116116c7575b816116b3602093836138e4565b810103126116c35751905f611600565b5f80fd5b3d91506116a6565b6040513d86823e3d90fd5b60405162461bcd60e51b8152602060048201526012602482015271115e1c1a5c9e481b9bdd081c995858da195960721b6044820152606490fd5b50346106795780600319360112610679577f000000000000000000000000000000000000000000000000000000000000000042106117e95760ff600354166006811015610c2257600381141590816117dd575b50156117a65761177f600460ff196003541617600355565b7f9237e8f0d5063a695b8695e82c82bc24d15591de9d04449771a6ea4b128317378180a180f35b60405162461bcd60e51b815260206004820152600f60248201526e105b1c9958591e481cd95d1d1b1959608a1b6044820152606490fd5b6005915014155f611767565b60405162461bcd60e51b815260206004820152600b60248201526a139bdd08195e1c1a5c995960aa1b6044820152606490fd5b50346106795780600319360112610679576020601154604051908152f35b50346106795780600319360112610679576020604051620f42408152f35b503461067957806003193601126106795760206040517f00000000000000000000000000000000000000000000000000000000000000008152f35b503461067957806003193601126106795760206040517f00000000000000000000000000000000000000000000000000000000000000008152f35b5034610679576020366003190112610679576004356118f1600160025414613ac4565b6002805560ff6003541660068110156111a9578015908115611be7575b5015611b895780825260076020526040822054611935906001600160a01b03163314613ddb565b808252600760208181526040808520548486529290915280842080546001600160a01b0319169055517f0000000000000000000000000000000000000000000000000000000000000000916001600160a01b0316837fa11660be5ca5ef93a56a1f22e4de3d92bcb1727897a5e70a7262c26e256f3a408680a382845260066020526040842054908115611b5457505f198101818111611b40576005545f19810190811161053957808203611b0d575b5050506005548015611af9575f19016119fc816138b8565b8154905f199060031b1b191690556005558183526006602052826040812055612710611a487f000000000000000000000000000000000000000000000000000000000000000083613afd565b04611a5e611a5682846139dd565b6008546139dd565b600855828452600d60205280604085205410611ac057610482928452600d602052611a8e604085209182546139dd565b9055337f00000000000000000000000000000000000000000000000000000000000000006001600160a01b0316613c6d565b60405162461bcd60e51b81526020600482015260116024820152705375627369647920756e646572666c6f7760781b6044820152606490fd5b634e487b7160e01b84526031600452602484fd5b610a1691611b1d611b2c926138b8565b90549060031b1c9283916138b8565b8452600660205260408420555f80806119e4565b634e487b7160e01b85526011600452602485fd5b62461bcd60e51b815260206004820152601060248201526f456e747279206e6f742061637469766560801b6044820152606490fd5b60405162461bcd60e51b815260206004820152603060248201527f43616e6e6f74207769746864726177202d20636f6e7465737420696e2070726f60448201526f19dc995cdcc81bdc881cd95d1d1b195960821b6064820152608490fd5b60049150145f61190e565b50346106795780600319360112610679576040517f00000000000000000000000000000000000000000000000000000000000000006001600160a01b03168152602090f35b5034610679578060031936011261067957611c7c337f00000000000000000000000000000000000000000000000000000000000000006001600160a01b031614613919565b60ff600354166006811015610c2257600103611cc657600260ff1960035416176003557fca4f15905dfed40aa7885e1be889ff7da045bd49fc916c3a40cf8b0a3db7636a8180a180f35b60405162461bcd60e51b8152602060048201526012602482015271436f6e74657374206e6f742061637469766560701b6044820152606490fd5b503461067957604036600319011261067957600435602435611d26600160025414613ac4565b60028055338352826020526040832082845260205260408320549060ff600354166006811015610ee7578015908115612049575b5015611feb57828452600760205260408420546001600160a01b031615611faf57611d86811515613d9a565b808210611f7357828452600b602052611dbe6040852054611da8811515613b42565b848652600c602052610de7604087205484613afd565b6040516370a0823160e01b815230600482015290927f00000000000000000000000000000000000000000000000000000000000000006001600160a01b03169290602083602481875afa8015611f685786938891611f33575b50808611611f2b575b50338752600e60205260408720838852602052604087205480611ef6575b5050611e4b818333613d38565b818652600b60205260408620611e62828254613b7a565b90556040519081528360208201527fa2b936e19d2f391e984b3c8722e0e0a30ef1b73581371ed847624152e65d16f560403392a381611ea45783600160025580f35b828452600c6020526040842054611edc93908311611ee4578452600c60205260408420611ed28382546139dd565b90555b3390613c6d565b5f8080611607565b8452600c602052836040812055611ed5565b611f07611f0d92610de78584613afd565b906139dd565b338752600e6020526040872083885260205260408720555f80611e3e565b94505f611e20565b9350506020833d602011611f60575b81611f4f602093836138e4565b810103126116c3578592515f611e17565b3d9150611f42565b6040513d89823e3d90fd5b60405162461bcd60e51b8152602060048201526014602482015273496e73756666696369656e742062616c616e636560601b6044820152606490fd5b60405162461bcd60e51b8152602060048201526014602482015273115b9d1c9e48191bd95cc81b9bdd08195e1a5cdd60621b6044820152606490fd5b60405162461bcd60e51b815260206004820152603060248201527f43616e6e6f74207769746864726177202d20636f6d7065746974696f6e20737460448201526f185c9d1959081bdc881cd95d1d1b195960821b6064820152608490fd5b60049150145f611d5a565b50346106795760203660031901126106795760406020916004358152600d83522054604051908152f35b50346106795760203660031901126106795760406020916004358152600b83522054604051908152f35b5034610679576040366003190112610679576004356001600160401b038111610c36576120d9903690600401613817565b6024356001600160401b038111610675576120f8903690600401613817565b9190612105838314613952565b61210e82613b92565b9261211c60405194856138e4565b82845261212883613b92565b602085019590601f1901368737865b84811061218257878688604051928392602084019060208552518091526040840192915b818110612169575050500390f35b825184528594506020938401939092019160010161215b565b6001600160a01b03612198610d7b8388866139cd565b16885287602052604088206121ae8285876139cd565b358952602052604088205486518210156121d557600582901b870160200152600101612137565b634e487b7160e01b89526032600452602489fd5b50346106795760203660031901126106795760043561220c600160025414613ac4565b600280553382528160205260408220818352602052604082205460ff6003541660068110156106615761225d9061225660ff601054166122516003600f549414613ba9565b613beb565b8314613c2d565b818352600760205260408320546001600160a01b03161561252a5780156124f957818352600b6020526040832054612296811515613b42565b828452600c60205260408420549081156124f157610de76122b79284613afd565b6040516370a0823160e01b81523060048201527f00000000000000000000000000000000000000000000000000000000000000006001600160a01b03169290919081602084602481885afa908115611f6857869488926124ba575b5081106124b2575b50612326818433613d38565b828652600b60205261233d60408720918254613b7a565b9055338552600e602052604085208286526020528460408120558015155f1461248057818552600c6020526040852054811161246d57818552600c6020526040852061238a8282546139dd565b90555b612398813385613c6d565b6040519081527fe256ef8b7b6eaeb621f7e7ca3b683f124df401cb260bbaccf0540299944b858a60203392a35b818352600b6020526040832054156123e1575b82600160025580f35b6040516370a0823160e01b815230600482015290602082602481845afa9182156116cf578492612439575b5081612419575b506123d8565b612431928452600c6020528360408120553390613c6d565b5f8080612413565b9091506020813d602011612465575b81612455602093836138e4565b810103126116c35751905f61240c565b3d9150612448565b818552600c60205284604081205561238d565b506040518481527fe256ef8b7b6eaeb621f7e7ca3b683f124df401cb260bbaccf0540299944b858a60203392a36123c5565b91505f61231a565b945090506020843d6020116124e9575b816124d7602093836138e4565b810103126116c357859351905f612312565b3d91506124ca565b5050826122b7565b60405162461bcd60e51b81526020600482015260096024820152684e6f20746f6b656e7360b81b6044820152606490fd5b60405162461bcd60e51b815260206004820152602560248201527f456e74727920646f6573206e6f74206578697374206f72207761732077697468604482015264323930bbb760d91b6064820152608490fd5b5034610679576020366003190112610679576125b36020916004358152600b83526040812054908082135f146125bb5750613cfd565b604051908152f35b9050613cfd565b5034610679576020366003190112610679577fa2877b861a6a177d8c1a4430a6f8716104652f70e5c8fbd58aa775ef96da4a52602060043561262e337f00000000000000000000000000000000000000000000000000000000000000006001600160a01b031614613919565b80601155604051908152a180f35b50346116c3576101403660031901126116c3576004356001600160401b0381116116c35761266e903690600401613817565b90916024356001600160401b0381116116c35761268f903690600401613817565b92909360e06043193601126116c357610124356001600160401b0381116116c3576126be903690600401613847565b9094907f00000000000000000000000000000000000000000000000000000000000000006126f6336001600160a01b03831614613919565b612704600160025414613ac4565b6002805560ff6003541660068110156131ad57600181149081156131a2575b501561315d5784159182613118578386036130db57600554918287116130a3575f805b868c81841061302c575050612710915003612fe757600854985f935f905b808210612f9e575050612777848b6139ea565b5f9a612710917f00000000000000000000000000000000000000000000000000000000000000009081151580612f95575b612f5c575b5050816127106127c181946127c894613afd565b0496613afd565b049980612a10575b50505050600360ff19815416176003558060085584865b8986868484106129d4575050505050506129c05781359586600f55600160ff196010541617601055845b60055481101561284f57806128276001926138b8565b90549060031b1c808852600c6020528760408120558752600d60205286604081205501612811565b508695600f548652600c6020526040862055600f5495868652600b602052604086205496808752600c60205260408720549788151590816129b7575b506128d1575b867f0fed27f5e3cd741c181cc0d3b0c47df2013638faa8b7aa7084de3946098eb78e87876128c6888860405194859485613a1b565b0390a1600160025580f35b8652600c6020528560408120558596865b86811061295457509081886128c69594937f0fed27f5e3cd741c181cc0d3b0c47df2013638faa8b7aa7084de3946098eb78e999a1061292a575b505087965081929350612891565b612933916139dd565b908852600960205261294a604089209182546139ea565b905587808061291c565b61295f8188886139cd565b356127106129786129718489896139cd565b3585613afd565b0480612989575b50506001016128e2565b61299781600194939c6139ea565b9a8a5260096020526129ae60408b209182546139ea565b9055908a61297f565b9050158961288b565b634e487b7160e01b84526032600452602484fd5b6129f3846129fa926129ec82600199612710976139cd565b35956139cd565b3586613afd565b04908952600960205260408920550185906127e7565b90919294505f9487355f52600760205260018060a01b0360405f205416928315612f2657604051631b8dda1960e01b81527f000000000000000000000000000000000000000000000000000000000000000092906001600160a01b038416602082600481845afa918215612c83575f92612ee2575b506040516377ccfd4b60e01b8152600481018890527f00000000000000000000000000000000000000000000000000000000000000006024820181905292602090829060449082906001600160a01b03165afa908115612c83575f91612ea0575b506001600160a01b03169788151580612e95575b15612e25575060643591868303612de0576044356001600160a01b03811691908281036116c3578a8303612da257608435966001600160a01b038816908189036116c3577f00000000000000000000000000000000000000000000000000000000000000006001600160a01b031697888303612d5d5760a435948503612d185760e4359a428c03612cd35761010435996004548b03612c8e57612b9e918e91613c6d565b863b156116c3575f988995612bfe946040519c8d9b8c9a8b99637b59ae1160e11b8b525060048a01526024890152506044870152606486015260c4359b8c608487015260a486015260c485015261010060e4850152610104840191613a65565b03925af18015612c8357612c6e575b506004545f198114612c5a579160409160017f3fcc8d771fa3184f3e1d36fc708fc9e3a881e989b1e83f525460ba1184d9cb19940160045582519182526020820152a35b5f8080806127d0565b634e487b7160e01b8b52601160045260248bfd5b612c7b919a505f906138e4565b5f985f612c0d565b6040513d5f823e3d90fd5b60405162461bcd60e51b815260206004820152601760248201527f526566657272616c206e6f6e6365206d69736d617463680000000000000000006044820152606490fd5b60405162461bcd60e51b815260206004820152601b60248201527f526566657272616c2074696d657374616d70206d69736d6174636800000000006044820152606490fd5b60405162461bcd60e51b815260206004820152601760248201527f526566657272616c2067726f7570206d69736d617463680000000000000000006044820152606490fd5b60405162461bcd60e51b815260206004820152601760248201527f526566657272616c20746f6b656e206d69736d617463680000000000000000006044820152606490fd5b60405162461bcd60e51b81526020600482015260166024820152750a4cacccae4e4c2d840eae6cae440dad2e6dac2e8c6d60531b6044820152606490fd5b60405162461bcd60e51b815260206004820152601860248201527f526566657272616c20616d6f756e74206d69736d6174636800000000000000006044820152606490fd5b9697507f29f8dbc55e5e4360f3c59ce726d91cdc67db886965c1b3c00cabed616cb3aa11966020969550612e8994508593509150507f00000000000000000000000000000000000000000000000000000000000000006001600160a01b0316613c6d565b604051908152a2612c51565b506001891415612afa565b90506020813d602011612eda575b81612ebb602093836138e4565b810103126116c357516001600160a01b03811681036116c3575f612ae6565b3d9150612eae565b9091506020813d602011612f1e575b81612efe602093836138e4565b810103126116c357516001600160a01b03811681036116c357905f612a85565b3d9150612ef1565b60405162461bcd60e51b815260206004820152600e60248201526d24b73b30b634b2103bb4b73732b960911b6044820152606490fd5b81849394929e50612f6c91613afd565b049b8103908111612f815790806127106127ad565b634e487b7160e01b5f52601160045260245ffd5b508015156127a8565b9094612fdf600191612fd9612fb2896138b8565b90549060031b1c805f52600c60205260405f2054905f52600d60205260405f2054906139ea565b906139ea565b950190612764565b60405162461bcd60e51b815260206004820152601860248201527f5061796f757473206d7573742073756d20746f203130302500000000000000006044820152606490fd5b6130379184916139cd565b351561305e5761305660019161304f848f8b906139cd565b35906139ea565b910190612746565b60405162461bcd60e51b815260206004820152601960248201527f557365206e6f6e2d7a65726f207061796f757473206f6e6c79000000000000006044820152606490fd5b60405162461bcd60e51b815260206004820152601060248201526f546f6f206d616e792077696e6e65727360801b6044820152606490fd5b60405162461bcd60e51b8152602060048201526015602482015274082e4e4c2f240d8cadccee8d040dad2e6dac2e8c6d605b1b6044820152606490fd5b60405162461bcd60e51b815260206004820152601d60248201527f4d7573742068617665206174206c65617374206f6e652077696e6e65720000006044820152606490fd5b60405162461bcd60e51b815260206004820152601c60248201527f436f6e74657374206e6f7420616374697665206f72206c6f636b6564000000006044820152606490fd5b60029150145f612723565b634e487b7160e01b5f52602160045260245ffd5b346116c3575f3660031901126116c35760206040517f00000000000000000000000000000000000000000000000000000000000000008152f35b346116c3575f3660031901126116c3576040517f00000000000000000000000000000000000000000000000000000000000000006001600160a01b03168152602090f35b346116c35760a03660031901126116c3576132586137c7565b6132606137dd565b6044356001600160401b0381116116c35761327f903690600401613817565b926064356001600160401b0381116116c35761329f903690600401613817565b91906084356001600160401b0381116116c3576132c0903690600401613847565b9190926132ce858914613952565b6001600160a01b031693338514801561346e575b6132eb90613990565b6001600160a01b038716965f5b89811061340857508786887f4a39dc06d4c0dbc64b70af90fd698a233a518aa5d07e595d983b8c0526c8f7fb868d61333888604051938493339785613a1b565b0390a43b6133545750505050505061335291501515613a85565b005b61339797935f936133a960209997946133bb946040519c8d9b8c9a8b9963bc197c8160e01b8b523360048c015260248b015260a060448b015260a48a01916139f7565b878103600319016064890152916139f7565b84810360031901608486015291613a65565b03925af18015612c8357613352915f916133e9575b506001600160e01b03191663bc197c8160e01b14613a85565b613402915060203d6020116105275761051981836138e4565b826133d0565b806134166001928c8b6139cd565b356134228286886139cd565b3590895f525f60205260405f20815f5260205260405f206134448382546139dd565b90558b5f525f60205260405f20905f5260205261346660405f209182546139ea565b9055016132f8565b505f85815260016020908152604080832033845290915290205460ff166132e2565b346116c3575f3660031901126116c35760206040517f00000000000000000000000000000000000000000000000000000000000000008152f35b346116c3575f3660031901126116c3576020600454604051908152f35b346116c3575f3660031901126116c35761352b337f00000000000000000000000000000000000000000000000000000000000000006001600160a01b031614613919565b60ff6003541660068110156131ad576135ab576005541561357957600160ff1960035416176003557f3927b788a62eb53f7192cd9286f49295f01b938b6afc23aef0af5d035cd853165f80a1005b60405162461bcd60e51b815260206004820152600a6024820152694e6f20656e747269657360b01b6044820152606490fd5b60405162461bcd60e51b815260206004820152601760248201527f436f6e7465737420616c726561647920737461727465640000000000000000006044820152606490fd5b346116c3575f3660031901126116c357613634337f00000000000000000000000000000000000000000000000000000000000000006001600160a01b031614613919565b60ff6003541660068110156131ad57600381141590816136d2575b501561368d57613667600460ff196003541617600355565b7f9237e8f0d5063a695b8695e82c82bc24d15591de9d04449771a6ea4b128317375f80a1005b60405162461bcd60e51b815260206004820152601f60248201527f436f6e7465737420736574746c6564202d2063616e6e6f742063616e63656c006044820152606490fd5b6005915014158161364f565b346116c35760203660031901126116c3576137176040516137006020826138e4565b5f81526040519182916020835260208301906137f3565b0390f35b346116c35760203660031901126116c35760043563ffffffff60e01b81168091036116c3576020906301ffc9a760e01b8114908115613778575b8115613767575b506040519015158152f35b6303a24d0760e21b1490508261375c565b636cdb3d1360e11b81149150613755565b346116c35760403660031901126116c3576020906001600160a01b036137ad6137c7565b165f525f825260405f206024355f52825260405f20548152f35b600435906001600160a01b03821682036116c357565b602435906001600160a01b03821682036116c357565b805180835260209291819084018484015e5f828201840152601f01601f1916010190565b9181601f840112156116c3578235916001600160401b0383116116c3576020808501948460051b0101116116c357565b9181601f840112156116c3578235916001600160401b0383116116c357602083818601950101116116c357565b346116c3575f3660031901126116c3575f806005545b80831061389c57602082604051908152f35b906138af600191612fd9612fb2866138b8565b9201919061388a565b6005548110156138d05760055f5260205f2001905f90565b634e487b7160e01b5f52603260045260245ffd5b90601f801991011681019081106001600160401b0382111761390557604052565b634e487b7160e01b5f52604160045260245ffd5b1561392057565b60405162461bcd60e51b815260206004820152600a6024820152694e6f74206f7261636c6560b01b6044820152606490fd5b1561395957565b60405162461bcd60e51b815260206004820152600f60248201526e0988a9c8ea890be9a92a69a82a8869608b1b6044820152606490fd5b1561399757565b60405162461bcd60e51b815260206004820152600e60248201526d1393d517d055551213d49256915160921b6044820152606490fd5b91908110156138d05760051b0190565b91908203918211612f8157565b91908201809211612f8157565b81835290916001600160fb1b0383116116c35760209260051b809284830137010190565b9290613a3490613a4295936040865260408601916139f7565b9260208185039101526139f7565b90565b908160209103126116c357516001600160e01b0319811681036116c35790565b908060209392818452848401375f828201840152601f01601f1916010190565b15613a8c57565b60405162461bcd60e51b815260206004820152601060248201526f155394d0519157d49150d2541251539560821b6044820152606490fd5b15613acb57565b60405162461bcd60e51b815260206004820152600a6024820152695245454e5452414e435960b01b6044820152606490fd5b81810292918115918404141715612f8157565b8115613b1a570490565b634e487b7160e01b5f52601260045260245ffd5b356001600160a01b03811681036116c35790565b15613b4957565b60405162461bcd60e51b81526020600482015260096024820152684e6f20737570706c7960b81b6044820152606490fd5b81810392915f138015828513169184121617612f8157565b6001600160401b0381116139055760051b60200190565b15613bb057565b60405162461bcd60e51b815260206004820152601360248201527210dbdb9d195cdd081b9bdd081cd95d1d1b1959606a1b6044820152606490fd5b15613bf257565b60405162461bcd60e51b815260206004820152601360248201527213585c9ad95d081b9bdd081c995cdbdb1d9959606a1b6044820152606490fd5b15613c3457565b60405162461bcd60e51b81526020600482015260116024820152704e6f742077696e6e696e6720656e74727960781b6044820152606490fd5b60405163a9059cbb60e01b81526001600160a01b03909216600483015260248201929092526020905f9060449082855af19081601f3d1160015f5114161516613cf0575b5015613cb957565b60405162461bcd60e51b815260206004820152600f60248201526e1514905394d1915497d19052531151608a1b6044820152606490fd5b3b153d171590505f613cb1565b633b9aca00613d0d910480613afd565b80800460011481151715612f8157670de0b6b3a76400009004620f42400180620f424011612f815790565b905f929160018060a01b031691828452836020526040842082855260205260408420613d658282546139dd565b905560405191825260208201527fc3d58168c5ae7397731d063d5bbf3d657854427343f4c083240f7aacaa2d0f6260403392a4565b15613da157565b60405162461bcd60e51b81526020600482015260126024820152710416d6f756e74206d757374206265203e20360741b6044820152606490fd5b15613de257565b60405162461bcd60e51b815260206004820152600f60248201526e2737ba1032b73a393c9037bbb732b960891b6044820152606490fd5b92919083613e28575b50505050565b60405160208101916bffffffffffffffffffffffff199060601b16825260148152613e546034826138e4565b519020613e6083613b92565b91613e6e60405193846138e4565b83835260208301809460051b8201913683116116c357905b828210613f1e575050509080519283613ee8575b5050905003613eac575f808080613e22565b60405162461bcd60e51b815260206004820152601460248201527324b73b30b634b21036b2b935b63290383937b7b360611b6044820152606490fd5b9260051b01602001905b8251811160051b90815260208351911852602060405f20920191818310613ef257915050805f80613e9a565b8135815260209182019101613e86565b6040516323b872dd60e01b81526001600160a01b03928316600482015292909116602483015260448201929092526020905f9060649082855af19081601f3d1160015f5114161516613fbf575b5015613f8357565b60405162461bcd60e51b81526020600482015260146024820152731514905394d1915497d19493d357d1905253115160621b6044820152606490fd5b3b153d171590505f613f7b565b811561407a57613fdb81613cfd565b620f4240830290838204620f424003612f8157613ff791613b10565b918260011c928060011b9080820460021490151715612f8157905f925b60328410614024575b5050505090565b9091929360018101808211612f81578411156140745761404484826139ea565b60011c90836140538385614080565b10156140685750600190945b01929190614014565b9493506001909361405f565b9361401d565b50505f90565b90801561407a5761409190826139ea565b9061409c82826139ea565b60011c6140c46140b46140ae84613cfd565b92613cfd565b926140be85613cfd565b946139dd565b906001600160fe1b0383168303612f8157625b8d80936140ee6140f3926140f99560021b906139ea565b6139ea565b90613afd565b049056fea26469706673582212202fe16c2b2cf46a568483216ea7b0acf2e79a232aa3799247bb6323634e6f22ad64736f6c634300081a0033a26469706673582212200cce57cec1bdac5809105c256b6a889f87d7306de1cce26de1278b887c7bbc7d64736f6c634300081a0033","linkReferences":{}},"methodIdentifiers":{"contestHost(address)":"34dd7a2e","contests(uint256)":"9d7ed738","createContest(address,address,uint256,uint256,uint256,uint256,address,bytes32)":"82b86aa3","getContestCount()":"64c3c166","getContests()":"bfaba76a"},"id":2}