{"abi":[{"type":"constructor","inputs":[{"name":"_usdcToken","type":"address","internalType":"address"},{"name":"_platformToken","type":"address","internalType":"address"},{"name":"_aavePool","type":"address","internalType":"address"}],"stateMutability":"nonpayable"},{"type":"function","name":"MAX_DEPOSIT_AMOUNT","inputs":[],"outputs":[{"name":"","type":"uint256","internalType":"uint256"}],"stateMutability":"view"},{"type":"function","name":"MIN_DEPOSIT_AMOUNT","inputs":[],"outputs":[{"name":"","type":"uint256","internalType":"uint256"}],"stateMutability":"view"},{"type":"function","name":"MIN_WITHDRAW_AMOUNT","inputs":[],"outputs":[{"name":"","type":"uint256","internalType":"uint256"}],"stateMutability":"view"},{"type":"function","name":"aUsdcToken","inputs":[],"outputs":[{"name":"","type":"address","internalType":"address"}],"stateMutability":"view"},{"type":"function","name":"aavePool","inputs":[],"outputs":[{"name":"","type":"address","internalType":"contract IPool"}],"stateMutability":"view"},{"type":"function","name":"balanceSupply","inputs":[{"name":"to","type":"address","internalType":"address"}],"outputs":[],"stateMutability":"nonpayable"},{"type":"function","name":"depositUSDC","inputs":[{"name":"amount","type":"uint256","internalType":"uint256"}],"outputs":[],"stateMutability":"nonpayable"},{"type":"function","name":"emergencyWithdrawAll","inputs":[{"name":"to","type":"address","internalType":"address"}],"outputs":[],"stateMutability":"nonpayable"},{"type":"function","name":"getATokenAddress","inputs":[],"outputs":[{"name":"","type":"address","internalType":"address"}],"stateMutability":"view"},{"type":"function","name":"getAaveUSDCBalance","inputs":[],"outputs":[{"name":"","type":"uint256","internalType":"uint256"}],"stateMutability":"view"},{"type":"function","name":"getAccumulatedEarnings","inputs":[],"outputs":[{"name":"","type":"uint256","internalType":"uint256"}],"stateMutability":"view"},{"type":"function","name":"getCurrentYieldRate","inputs":[],"outputs":[{"name":"","type":"uint256","internalType":"uint256"}],"stateMutability":"view"},{"type":"function","name":"getTokenManagerUSDCBalance","inputs":[],"outputs":[{"name":"","type":"uint256","internalType":"uint256"}],"stateMutability":"view"},{"type":"function","name":"getTotalAvailableBalance","inputs":[],"outputs":[{"name":"","type":"uint256","internalType":"uint256"}],"stateMutability":"view"},{"type":"function","name":"getUSDCReserveConfig","inputs":[],"outputs":[{"name":"","type":"tuple","internalType":"struct DataTypes.ReserveConfigurationMap","components":[{"name":"data","type":"uint256","internalType":"uint256"}]}],"stateMutability":"view"},{"type":"function","name":"getUSDCReserveData","inputs":[],"outputs":[{"name":"","type":"tuple","internalType":"struct DataTypes.ReserveData","components":[{"name":"configuration","type":"tuple","internalType":"struct DataTypes.ReserveConfigurationMap","components":[{"name":"data","type":"uint256","internalType":"uint256"}]},{"name":"liquidityIndex","type":"uint128","internalType":"uint128"},{"name":"currentLiquidityRate","type":"uint128","internalType":"uint128"},{"name":"variableBorrowIndex","type":"uint128","internalType":"uint128"},{"name":"currentVariableBorrowRate","type":"uint128","internalType":"uint128"},{"name":"currentStableBorrowRate","type":"uint128","internalType":"uint128"},{"name":"lastUpdateTimestamp","type":"uint40","internalType":"uint40"},{"name":"id","type":"uint16","internalType":"uint16"},{"name":"aTokenAddress","type":"address","internalType":"address"},{"name":"stableDebtTokenAddress","type":"address","internalType":"address"},{"name":"variableDebtTokenAddress","type":"address","internalType":"address"},{"name":"interestRateStrategyAddress","type":"address","internalType":"address"},{"name":"accruedToTreasury","type":"uint128","internalType":"uint128"},{"name":"unbacked","type":"uint128","internalType":"uint128"},{"name":"isolationModeTotalDebt","type":"uint128","internalType":"uint128"}]}],"stateMutability":"view"},{"type":"function","name":"isAaveSupplyPaused","inputs":[],"outputs":[{"name":"","type":"bool","internalType":"bool"}],"stateMutability":"view"},{"type":"function","name":"isAaveWithdrawPaused","inputs":[],"outputs":[{"name":"","type":"bool","internalType":"bool"}],"stateMutability":"view"},{"type":"function","name":"owner","inputs":[],"outputs":[{"name":"","type":"address","internalType":"address"}],"stateMutability":"view"},{"type":"function","name":"pause","inputs":[],"outputs":[],"stateMutability":"nonpayable"},{"type":"function","name":"paused","inputs":[],"outputs":[{"name":"","type":"bool","internalType":"bool"}],"stateMutability":"view"},{"type":"function","name":"platformToken","inputs":[],"outputs":[{"name":"","type":"address","internalType":"contract PlatformToken"}],"stateMutability":"view"},{"type":"function","name":"transferOwnership","inputs":[{"name":"newOwner","type":"address","internalType":"address"}],"outputs":[],"stateMutability":"nonpayable"},{"type":"function","name":"unpause","inputs":[],"outputs":[],"stateMutability":"nonpayable"},{"type":"function","name":"usdcToken","inputs":[],"outputs":[{"name":"","type":"address","internalType":"contract ERC20"}],"stateMutability":"view"},{"type":"function","name":"withdrawUSDC","inputs":[{"name":"platformTokenAmount","type":"uint256","internalType":"uint256"}],"outputs":[],"stateMutability":"nonpayable"},{"type":"event","name":"AaveDepositFallback","inputs":[{"name":"user","type":"address","indexed":true,"internalType":"address"},{"name":"usdcAmount","type":"uint256","indexed":false,"internalType":"uint256"},{"name":"reason","type":"string","indexed":false,"internalType":"string"}],"anonymous":false},{"type":"event","name":"AaveSupplySuccess","inputs":[{"name":"user","type":"address","indexed":true,"internalType":"address"},{"name":"amount","type":"uint256","indexed":false,"internalType":"uint256"}],"anonymous":false},{"type":"event","name":"BalanceSupply","inputs":[{"name":"owner","type":"address","indexed":true,"internalType":"address"},{"name":"recipient","type":"address","indexed":true,"internalType":"address"},{"name":"amount","type":"uint256","indexed":false,"internalType":"uint256"},{"name":"timestamp","type":"uint256","indexed":false,"internalType":"uint256"}],"anonymous":false},{"type":"event","name":"EmergencyWithdrawal","inputs":[{"name":"owner","type":"address","indexed":true,"internalType":"address"},{"name":"recipient","type":"address","indexed":true,"internalType":"address"},{"name":"amount","type":"uint256","indexed":false,"internalType":"uint256"},{"name":"totalTokensMinted","type":"uint256","indexed":false,"internalType":"uint256"},{"name":"requiredBacking","type":"uint256","indexed":false,"internalType":"uint256"},{"name":"backingRatio","type":"uint256","indexed":false,"internalType":"uint256"},{"name":"timestamp","type":"uint256","indexed":false,"internalType":"uint256"}],"anonymous":false},{"type":"event","name":"OwnershipTransferred","inputs":[{"name":"user","type":"address","indexed":true,"internalType":"address"},{"name":"newOwner","type":"address","indexed":true,"internalType":"address"}],"anonymous":false},{"type":"event","name":"PauseStateChanged","inputs":[{"name":"owner","type":"address","indexed":true,"internalType":"address"},{"name":"paused","type":"bool","indexed":false,"internalType":"bool"}],"anonymous":false},{"type":"event","name":"USDCDeposited","inputs":[{"name":"user","type":"address","indexed":true,"internalType":"address"},{"name":"usdcAmount","type":"uint256","indexed":false,"internalType":"uint256"},{"name":"platformTokensMinted","type":"uint256","indexed":false,"internalType":"uint256"}],"anonymous":false},{"type":"event","name":"USDCWithdrawn","inputs":[{"name":"user","type":"address","indexed":true,"internalType":"address"},{"name":"platformTokensBurned","type":"uint256","indexed":false,"internalType":"uint256"},{"name":"usdcAmount","type":"uint256","indexed":false,"internalType":"uint256"}],"anonymous":false},{"type":"error","name":"AaveWithdrawPausedInsufficientBalance","inputs":[]},{"type":"error","name":"AmountBelowMinimum","inputs":[]},{"type":"error","name":"AmountExceedsMaximum","inputs":[]},{"type":"error","name":"ContractPaused","inputs":[]},{"type":"error","name":"InsufficientPlatformTokens","inputs":[]},{"type":"error","name":"InvalidAmount","inputs":[]},{"type":"error","name":"InvalidRecipient","inputs":[]},{"type":"error","name":"NoExcessUSDC","inputs":[]},{"type":"error","name":"NoFundsToWithdraw","inputs":[]},{"type":"error","name":"NoUSDCToReturn","inputs":[]},{"type":"error","name":"ZeroAavePoolAddress","inputs":[]},{"type":"error","name":"ZeroPlatformTokenAddress","inputs":[]},{"type":"error","name":"ZeroUSDCAddress","inputs":[]}],"bytecode":{"object":"0x610100806040523461037c57606081612598803803809161002082856103d3565b83398101031261037c57610033816103f6565b9061004c6040610045602084016103f6565b92016103f6565b9060015f553360018060a01b0319600154161760015560405192335f7f8be0079c531659141344cd1fd0a4f28419497f9722a3daafe3b4186f6b6457e08180a36001600160a01b03169081156103c4576001600160a01b03169182156103b5576001600160a01b03169081156103a657838092826101e09560249460805260a0528160c0526335ea6a7560e01b835260048301525afa90811561039b575f91610200575b5061010001516001600160a01b031660e052604051612179908161041f82396080518181816101a1015281816104930152818161076201528181610b2f01528181610c3b01528181610e3e015281816111f0015281816114e2015281816115e4015281816116b30152818161179c01528181611c2a0152611df8015260a0518181816102040152818161043b015281816106f701528181610a8d01528181611183015281816119730152611b1b015260c05181818161093401528181610bb901528181610e730152818161151401528181611616015281816116e501528181611c540152611e26015260e0518181816104ef01528181610c8f015281816117f3015281816118490152611acd0152f35b8091506101e03d8111610394575b61021881836103d3565b810103906101e0821261037c57604051916101e08301906001600160401b03821184831017610380576020916040521261037c57604051602081016001600160401b038111828210176103805760405281518152825261027a6020820161040a565b602083015261028b6040820161040a565b604083015261029c6060820161040a565b60608301526102ad6080820161040a565b60808301526102be60a0820161040a565b60a083015260c081015164ffffffffff8116810361037c5760c083015260e081015161ffff8116810361037c57610370916101c09160e085015261030561010082016103f6565b61010085015261031861012082016103f6565b61012085015261032b61014082016103f6565b61014085015261033e61016082016103f6565b610160850152610351610180820161040a565b6101808501526103646101a0820161040a565b6101a08501520161040a565b6101c08201525f6100f0565b5f80fd5b634e487b7160e01b5f52604160045260245ffd5b503d61020e565b6040513d5f823e3d90fd5b632b71f70b60e21b5f5260045ffd5b635f3c7e6760e11b5f5260045ffd5b6372ed002b60e01b5f5260045ffd5b601f909101601f19168101906001600160401b0382119082101761038057604052565b51906001600160a01b038216820361037c57565b51906001600160801b038216820361037c5756fe6080806040526004361015610012575f80fd5b5f905f3560e01c9081631179533c146117cb5750806311eac855146117875780631ea30fef1461176b578063220f08ce1461168c5780632b890df0146115af5780633bbb1f63146114bb5780633f4ba83a1461145a57806345c80801146114405780634c34a9821461142157806354ab6269146111045780635c975abb146110df5780635e1f10ff14610da15780638289975614610abc5780638456cb5914610d385780638782524e14610c105780638da5cb5b14610be8578063a03e4bc314610ba4578063a218f7b114610b04578063aea2222914610ae2578063b685784414610ac1578063cc3d6cf714610abc578063d1b812cd14610a78578063db81f99b1461069a578063e3c427b6146103e4578063f2fde38b1461036e5763f688bcfb1461013c575f80fd5b3461036b57602036600319011261036b5760043561015d6001835414611bda565b6002825560ff60015460a01c1661035c57801561034d57612710811061033e5764174876e800811161032f5764e8d4a51000810281810464e8d4a510000361031b577f000000000000000000000000000000000000000000000000000000000000000060208460646040516323b872dd60e01b815233600482015230602482015286604482015282855af19081601f3d11600187511416151661030e575b50156102d257827f00000000000000000000000000000000000000000000000000000000000000006001600160a01b0316803b156102ce576040516340c10f1960e01b8152336004820152602481018490529082908290604490829084905af180156102c3576102aa575b50506102723383611de1565b60405191825260208201527fdf761661d51ab4147355430c8891e0dc7406b6aece4d2b564ccd87e0baa6dfd960403392a26001815580f35b816102b4916118c5565b6102bf57825f610266565b8280fd5b6040513d84823e3d90fd5b5080fd5b60405162461bcd60e51b81526020600482015260146024820152731514905394d1915497d19493d357d1905253115160621b6044820152606490fd5b3b153d171590505f6101fb565b634e487b7160e01b83526011600452602483fd5b6311b5c73d60e21b8252600482fd5b632fcd1a0f60e01b8252600482fd5b63162908e360e11b8252600482fd5b63ab35696f60e01b8252600482fd5b80fd5b503461036b57602036600319011261036b576004356001600160a01b038116908190036102ce5760015481906103ae336001600160a01b03831614611905565b6001600160a01b03191617600155337f8be0079c531659141344cd1fd0a4f28419497f9722a3daafe3b4186f6b6457e08380a380f35b503461036b57602036600319011261036b576004356001600160a01b038116908181036102bf5761042060018060a01b03600154163314611905565b811561068b576040516318160ddd60e01b81526020816004817f00000000000000000000000000000000000000000000000000000000000000006001600160a01b03165afa8015610680578490610649575b6040516370a0823160e01b815230600482015264e8d4a510009091049291507f0000000000000000000000000000000000000000000000000000000000000000906020816024816001600160a01b0386165afa90811561063e57869161060c575b506040516370a0823160e01b81523060048201526020816024817f00000000000000000000000000000000000000000000000000000000000000006001600160a01b03165afa80156106015787906105c9575b610531915082611a7d565b9386948181116105b6575b505083156105a7579183918383610559951061058e575b50611d51565b6040519081524260208201527f6477ace5d8e24d89a6cf79662efd0c77a90e58b441eee1b55df3ccedec260a1e60403392a380f35b61059b6105a09185611a70565b611c13565b505f610553565b6320ae239560e11b8652600486fd5b6105c1929550611a70565b925f8061053c565b506020813d6020116105f9575b816105e3602093836118c5565b810103126105f5576105319051610526565b5f80fd5b3d91506105d6565b6040513d89823e3d90fd5b90506020813d602011610636575b81610627602093836118c5565b810103126105f557515f6104d3565b3d915061061a565b6040513d88823e3d90fd5b506020813d602011610678575b81610663602093836118c5565b810103126105f55764e8d4a510009051610472565b3d9150610656565b6040513d86823e3d90fd5b634e46966960e11b8352600483fd5b50346105f55760203660031901126105f557600435906106bd60015f5414611bda565b60025f5560ff60015460a01c16610a69578115610a5a57662386f26fc100008210610a4b576040516370a0823160e01b81523360048201527f00000000000000000000000000000000000000000000000000000000000000006001600160a01b03169290602081602481875afa801561090d5782915f91610a16575b5010610a075764e8d4a51000810480156109f8576040516370a0823160e01b81523060048201527f000000000000000000000000000000000000000000000000000000000000000091906001600160a01b03831690602081602481855afa90811561090d575f916109c6575b508281109687610918575b803b156105f557604051632770a7eb60e21b815233600482015260248101879052905f908290604490829084905af1801561090d576108f4575b506024939495966108bb575b50602090604051938480926370a0823160e01b82523060048301525afa9081156108b057859161087a575b610839925080821015610871575080925b3390611d51565b60405191825260208201527f9cc6dc8bdb4b6ad75707375ac18017379f79114f0d0dd85bf6de99c0522e8e2760403392a26001815580f35b90508092610832565b90506020823d6020116108a8575b81610895602093836118c5565b810103126105f557610839915190610821565b3d9150610888565b6040513d87823e3d90fd5b6108c58184611a70565b906108cf82611c13565b9182106108dd575b506107f6565b6020929350906108ec91611a7d565b91905f6108d7565b6024949596505f610904916118c5565b5f9594936107ea565b6040513d5f823e3d90fd5b60405163c44b11f760e01b8152600481018490526020816024817f00000000000000000000000000000000000000000000000000000000000000006001600160a01b03165afa801561090d575f90610988575b6001603c1b91505116156107b057632acdbead60e21b5f5260045ffd5b5060203d6020116109bf575b61099e81836118c5565b8101906020818303126105f5576001603c1b916109ba916118e7565b61096b565b503d610994565b90506020813d6020116109f0575b816109e1602093836118c5565b810103126105f557515f6107a5565b3d91506109d4565b630eef549360e01b5f5260045ffd5b635d5e1e3760e11b5f5260045ffd5b9150506020813d602011610a43575b81610a32602093836118c5565b810103126105f5578190515f610739565b3d9150610a25565b632fcd1a0f60e01b5f5260045ffd5b63162908e360e11b5f5260045ffd5b63ab35696f60e01b5f5260045ffd5b346105f5575f3660031901126105f5576040517f00000000000000000000000000000000000000000000000000000000000000006001600160a01b03168152602090f35b611834565b346105f5575f3660031901126105f5576020604051662386f26fc100008152f35b346105f5575f3660031901126105f5576020610afc611ab2565b604051908152f35b346105f5575f3660031901126105f5576040516370a0823160e01b81523060048201526020816024817f00000000000000000000000000000000000000000000000000000000000000006001600160a01b03165afa801561090d575f90610b71575b602090604051908152f35b506020813d602011610b9c575b81610b8b602093836118c5565b810103126105f55760209051610b66565b3d9150610b7e565b346105f5575f3660031901126105f5576040517f00000000000000000000000000000000000000000000000000000000000000006001600160a01b03168152602090f35b346105f5575f3660031901126105f5576001546040516001600160a01b039091168152602090f35b346105f5575f3660031901126105f5576040516370a0823160e01b81523060048201526020816024817f00000000000000000000000000000000000000000000000000000000000000006001600160a01b03165afa90811561090d575f91610d06575b506040516370a0823160e01b81523060048201526020816024817f00000000000000000000000000000000000000000000000000000000000000006001600160a01b03165afa90811561090d575f91610cd3575b6020610afc8385611a7d565b90506020813d602011610cfe575b81610cee602093836118c5565b810103126105f557516020610cc7565b3d9150610ce1565b90506020813d602011610d30575b81610d21602093836118c5565b810103126105f5575181610c73565b3d9150610d14565b346105f5575f3660031901126105f557600154610d5f336001600160a01b03831614611905565b60ff60a01b1916600160a01b17600190815560405190815233907fea7c4db5825dbbd9423248ab5365254c89741ae123968b915ad3a63e0df72b8e90602090a2005b346105f5575f3660031901126105f5575f6101c0604051610dc1816118a8565b604051610dcd81611878565b83815281528260208201528260408201528260608201528260808201528260a08201528260c08201528260e08201528261010082015282610120820152826101408201528261016082015282610180820152826101a082015201526040516335ea6a7560e01b815260018060a01b037f00000000000000000000000000000000000000000000000000000000000000001660048201526101e08160248160018060a01b037f0000000000000000000000000000000000000000000000000000000000000000165afa801561090d575f90610f8c575b6101e0906001600160801b036101c06040519280515184528260208201511660208501528260408201511660408501528260608201511660608501528260808201511660808501528260a08201511660a085015264ffffffffff60c08201511660c085015261ffff60e08201511660e085015260018060a01b036101008201511661010085015260018060a01b036101208201511661012085015260018060a01b036101408201511661014085015260018060a01b03610160820151166101608501528261018082015116610180850152826101a0820151166101a08501520151166101c0820152f35b506101e03d81116110d8575b610fa281836118c5565b81016101e0828203126105f557610fc560405191610fbf836118a8565b836118e7565b8152610fd360208301611a8a565b6020820152610fe460408301611a8a565b6040820152610ff560608301611a8a565b606082015261100660808301611a8a565b608082015261101760a08301611a8a565b60a082015260c082015164ffffffffff811681036105f55760c082015260e08201519161ffff831683036105f5576101c06110cd916101e09460e08501526110626101008201611a9e565b6101008501526110756101208201611a9e565b6101208501526110886101408201611a9e565b61014085015261109b6101608201611a9e565b6101608501526110ae6101808201611a8a565b6101808501526110c16101a08201611a8a565b6101a085015201611a8a565b6101c0820152610ea2565b503d610f98565b346105f5575f3660031901126105f557602060ff60015460a01c166040519015158152f35b346105f55760203660031901126105f5576004356001600160a01b038116908181036105f55761113f60018060a01b03600154163314611905565b8115611412576040516343c1292760e11b8152602081600481305afa90811561090d575f916113e0575b506040516318160ddd60e01b8152909182916020816004817f00000000000000000000000000000000000000000000000000000000000000006001600160a01b03165afa90811561090d575f916113ae575b5064e8d4a510008104915f93801561139f5782151580611396575b611360575b6040516370a0823160e01b81523060048201527f0000000000000000000000000000000000000000000000000000000000000000916020826024816001600160a01b0387165afa91821561090d575f9261132c575b50808210611289575b5050611246918691611d51565b6040519384526020840152604083015260608201524260808201527f589b4f3a0200566367f9c10179d6796ad8b1facbcd53f4c5d94babd03b03f8d060a03392a3005b81929397509061129891611a70565b906112a282611c13565b918210156112c55761124692916112b891611a7d565b9586915b91819350611239565b50506040516343c1292760e11b815290602082600481305afa801561090d575f906112f8575b61124692509586916112bc565b506020823d602011611324575b81611312602093836118c5565b810103126105f55761124691516112eb565b3d9150611305565b9091506020813d602011611358575b81611348602093836118c5565b810103126105f557519089611230565b3d915061133b565b9350612710840284810461271003611382578361137c91611940565b936111db565b634e487b7160e01b5f52601160045260245ffd5b508315156111d6565b6367e3990d60e01b5f5260045ffd5b90506020813d6020116113d8575b816113c9602093836118c5565b810103126105f55751856111bb565b3d91506113bc565b90506020813d60201161140a575b816113fb602093836118c5565b810103126105f5575183611169565b3d91506113ee565b634e46966960e11b5f5260045ffd5b346105f5575f3660031901126105f557602060405164174876e8008152f35b346105f5575f3660031901126105f5576020610afc61195e565b346105f5575f3660031901126105f557600154611481336001600160a01b03831614611905565b60ff60a01b19166001556040515f815233907fea7c4db5825dbbd9423248ab5365254c89741ae123968b915ad3a63e0df72b8e90602090a2005b346105f5575f3660031901126105f55760405163c44b11f760e01b81526001600160a01b037f000000000000000000000000000000000000000000000000000000000000000081166004830152602090829060249082907f0000000000000000000000000000000000000000000000000000000000000000165afa801561090d575f90611574575b60209150516001603c1b81161590811591611564575b506040519015158152f35b600160391b915016151582611559565b5060203d6020116115a8575b61158a81836118c5565b8101906020818303126105f5576020916115a3916118e7565b611543565b503d611580565b346105f5575f3660031901126105f5575f6040516115cc81611878565b5260405163c44b11f760e01b81526001600160a01b037f000000000000000000000000000000000000000000000000000000000000000081166004830152602090829060249082907f0000000000000000000000000000000000000000000000000000000000000000165afa801561090d575f90611651575b60209060405190518152f35b5060203d602011611685575b61166781836118c5565b8101906020818303126105f557602091611680916118e7565b611645565b503d61165d565b346105f5575f3660031901126105f55760405163c44b11f760e01b81526001600160a01b037f000000000000000000000000000000000000000000000000000000000000000081166004830152602090829060249082907f0000000000000000000000000000000000000000000000000000000000000000165afa90811561090d575f91611729575b60206001603c1b8351161515604051908152f35b905060203d602011611764575b61174081836118c5565b81016020828203126105f55761175d6001603c1b916020936118e7565b9150611715565b503d611736565b346105f5575f3660031901126105f55760206040516127108152f35b346105f5575f3660031901126105f5576040517f00000000000000000000000000000000000000000000000000000000000000006001600160a01b03168152602090f35b346105f5575f3660031901126105f5576370a0823160e01b81523060048201526020816024817f00000000000000000000000000000000000000000000000000000000000000006001600160a01b03165afa801561090d575f90610b7157602090604051908152f35b346105f5575f3660031901126105f5576040517f00000000000000000000000000000000000000000000000000000000000000006001600160a01b03168152602090f35b6020810190811067ffffffffffffffff82111761189457604052565b634e487b7160e01b5f52604160045260245ffd5b6101e0810190811067ffffffffffffffff82111761189457604052565b90601f8019910116810190811067ffffffffffffffff82111761189457604052565b91908260209103126105f5576040516118ff81611878565b91518252565b1561190c57565b60405162461bcd60e51b815260206004820152600c60248201526b15539055551213d49256915160a21b6044820152606490fd5b811561194a570490565b634e487b7160e01b5f52601260045260245ffd5b6040516318160ddd60e01b81526020816004817f00000000000000000000000000000000000000000000000000000000000000006001600160a01b03165afa801561090d575f90611a39575b64e8d4a510009150048015611a345760405163aea2222960e01b815290602082600481305afa91821561090d575f92611a00575b506127108202918083046127101490151715611382576119fd91611940565b90565b9091506020813d602011611a2c575b81611a1c602093836118c5565b810103126105f55751905f6119de565b3d9150611a0f565b505f90565b506020813d602011611a68575b81611a53602093836118c5565b810103126105f55764e8d4a5100090516119aa565b3d9150611a46565b9190820391821161138257565b9190820180921161138257565b51906001600160801b03821682036105f557565b51906001600160a01b03821682036105f557565b6040516370a0823160e01b81523060048201526020816024817f00000000000000000000000000000000000000000000000000000000000000006001600160a01b03165afa90811561090d575f91611ba8575b506040516318160ddd60e01b81526020816004817f00000000000000000000000000000000000000000000000000000000000000006001600160a01b03165afa801561090d575f90611b71575b64e8d4a51000915004808211611b685750505f90565b6119fd91611a70565b506020813d602011611ba0575b81611b8b602093836118c5565b810103126105f55764e8d4a510009051611b52565b3d9150611b7e565b90506020813d602011611bd2575b81611bc3602093836118c5565b810103126105f557515f611b05565b3d9150611bb6565b15611be157565b60405162461bcd60e51b815260206004820152600a6024820152695245454e5452414e435960b01b6044820152606490fd5b60405163c44b11f760e01b81526001600160a01b037f00000000000000000000000000000000000000000000000000000000000000008116600483018190527f0000000000000000000000000000000000000000000000000000000000000000909116929091602081602481875afa801561090d575f90611d13575b6001603c1b91505116611d0c5760646020925f6040519586948593631a4ca37b60e21b8552600485015260248401523060448401525af15f9181611cd8575b506119fd57505f90565b9091506020813d602011611d04575b81611cf4602093836118c5565b810103126105f55751905f611cce565b3d9150611ce7565b5050505f90565b5060203d602011611d4a575b611d2981836118c5565b8101906020818303126105f5576001603c1b91611d45916118e7565b611c8f565b503d611d1f565b60405163a9059cbb60e01b81526001600160a01b03909216600483015260248201929092526020905f9060449082855af19081601f3d1160015f5114161516611dd4575b5015611d9d57565b60405162461bcd60e51b815260206004820152600f60248201526e1514905394d1915497d19052531151608a1b6044820152606490fd5b3b153d171590505f611d95565b60405163c44b11f760e01b81526001600160a01b037f0000000000000000000000000000000000000000000000000000000000000000818116600484018190529394937f000000000000000000000000000000000000000000000000000000000000000090921692602081602481875afa90811561090d575f9161210a575b50516001603c1b81161580159182916120fa575b5061202a575060205f604460405163095ea7b360e01b815286600482015282602482015282855af180601f3d1160015f511416151661201e575b15611fdb5760205f604460405163095ea7b360e01b815286600482015288602482015282855af19081601f3d1160015f5114161516612011575b5015611fdb57813b156105f5575f9160848392604051948593849263617ba03760e01b845260048401528860248401523060448401528160648401525af19081611fcb575b50611f935760408051928352602083018190526012908301527110585d99481cdd5c1c1b1e4819985a5b195960721b60608301526001600160a01b0316907fa135ca44207494bbee0d75a8c4cd16eb56ac220d9bb12896f76a2ab16276726490608090a2565b6040519182526001600160a01b0316907f3af390095bc3876df8ec5482d32f2b38e246d97478f05b47d5923d96866dd4c990602090a2565b5f611fd5916118c5565b5f611f2d565b60405162461bcd60e51b815260206004820152600e60248201526d1054141493d59157d1905253115160921b6044820152606490fd5b3b153d171590505f611ee8565b503d813b151715611eae565b6020957fa135ca44207494bbee0d75a8c4cd16eb56ac220d9bb12896f76a2ab162767264959450606093509150156120c85760405161206a6040826118c5565b601281527110585d99481cdd5c1c1b1e481c185d5cd95960721b86820152925b60405193849283526040878401528051968791826040860152018484015e5f8287018401526001600160a01b031694601f01601f19168101030190a2565b6040516120d66040826118c5565b601281527120b0bb329039bab838363c90333937bd32b760711b868201529261208a565b600160391b91501615155f611e74565b905060203d60201161213c575b61212181836118c5565b81016020828203126105f557612136916118e7565b5f611e60565b503d61211756fea2646970667358221220f15811fac5a403d2e5bca971c9198a16cfe5c3b163386de99ccf93559fdec41664736f6c634300081a0033","linkReferences":{}},"methodIdentifiers":{"MAX_DEPOSIT_AMOUNT()":"4c34a982","MIN_DEPOSIT_AMOUNT()":"1ea30fef","MIN_WITHDRAW_AMOUNT()":"b6857844","aUsdcToken()":"cc3d6cf7","aavePool()":"a03e4bc3","balanceSupply(address)":"e3c427b6","depositUSDC(uint256)":"f688bcfb","emergencyWithdrawAll(address)":"54ab6269","getATokenAddress()":"82899756","getAaveUSDCBalance()":"1179533c","getAccumulatedEarnings()":"aea22229","getCurrentYieldRate()":"45c80801","getTokenManagerUSDCBalance()":"a218f7b1","getTotalAvailableBalance()":"8782524e","getUSDCReserveConfig()":"2b890df0","getUSDCReserveData()":"5e1f10ff","isAaveSupplyPaused()":"3bbb1f63","isAaveWithdrawPaused()":"220f08ce","owner()":"8da5cb5b","pause()":"8456cb59","paused()":"5c975abb","platformToken()":"d1b812cd","transferOwnership(address)":"f2fde38b","unpause()":"3f4ba83a","usdcToken()":"11eac855","withdrawUSDC(uint256)":"db81f99b"},"id":50}