{"abi":[{"type":"constructor","inputs":[{"name":"_underlying","type":"address","internalType":"address"}],"stateMutability":"nonpayable"},{"type":"function","name":"_isSupplyPaused","inputs":[],"outputs":[{"name":"","type":"bool","internalType":"bool"}],"stateMutability":"view"},{"type":"function","name":"_isWithdrawPaused","inputs":[],"outputs":[{"name":"","type":"bool","internalType":"bool"}],"stateMutability":"view"},{"type":"function","name":"_supplyShouldFail","inputs":[],"outputs":[{"name":"","type":"bool","internalType":"bool"}],"stateMutability":"view"},{"type":"function","name":"addYield","inputs":[{"name":"to","type":"address","internalType":"address"},{"name":"amount","type":"uint256","internalType":"uint256"}],"outputs":[],"stateMutability":"nonpayable"},{"type":"function","name":"balanceOf","inputs":[{"name":"owner","type":"address","internalType":"address"}],"outputs":[{"name":"","type":"uint256","internalType":"uint256"}],"stateMutability":"view"},{"type":"function","name":"balances","inputs":[{"name":"","type":"address","internalType":"address"}],"outputs":[{"name":"","type":"uint256","internalType":"uint256"}],"stateMutability":"view"},{"type":"function","name":"isSupplyPaused","inputs":[],"outputs":[{"name":"","type":"bool","internalType":"bool"}],"stateMutability":"view"},{"type":"function","name":"isWithdrawPaused","inputs":[],"outputs":[{"name":"","type":"bool","internalType":"bool"}],"stateMutability":"view"},{"type":"function","name":"setSupplyPaused","inputs":[{"name":"paused","type":"bool","internalType":"bool"}],"outputs":[],"stateMutability":"nonpayable"},{"type":"function","name":"setSupplyShouldFail","inputs":[{"name":"shouldFail","type":"bool","internalType":"bool"}],"outputs":[],"stateMutability":"nonpayable"},{"type":"function","name":"setWithdrawPaused","inputs":[{"name":"paused","type":"bool","internalType":"bool"}],"outputs":[],"stateMutability":"nonpayable"},{"type":"function","name":"supply","inputs":[{"name":"asset","type":"address","internalType":"address"},{"name":"amount","type":"uint256","internalType":"uint256"}],"outputs":[],"stateMutability":"nonpayable"},{"type":"function","name":"totalSupply","inputs":[],"outputs":[{"name":"","type":"uint256","internalType":"uint256"}],"stateMutability":"view"},{"type":"function","name":"totalSupplyAmount","inputs":[],"outputs":[{"name":"","type":"uint256","internalType":"uint256"}],"stateMutability":"view"},{"type":"function","name":"underlying","inputs":[],"outputs":[{"name":"","type":"address","internalType":"contract IERC20"}],"stateMutability":"view"},{"type":"function","name":"withdraw","inputs":[{"name":"asset","type":"address","internalType":"address"},{"name":"amount","type":"uint256","internalType":"uint256"}],"outputs":[],"stateMutability":"nonpayable"},{"type":"event","name":"Supply","inputs":[{"name":"from","type":"address","indexed":true,"internalType":"address"},{"name":"dst","type":"address","indexed":true,"internalType":"address"},{"name":"amount","type":"uint256","indexed":false,"internalType":"uint256"}],"anonymous":false},{"type":"event","name":"Withdraw","inputs":[{"name":"from","type":"address","indexed":true,"internalType":"address"},{"name":"dst","type":"address","indexed":true,"internalType":"address"},{"name":"amount","type":"uint256","indexed":false,"internalType":"uint256"}],"anonymous":false}],"bytecode":{"object":"0x60a060405234801561001057600080fd5b50604051610a22380380610a2283398101604081905261002f91610040565b6001600160a01b0316608052610070565b60006020828403121561005257600080fd5b81516001600160a01b038116811461006957600080fd5b9392505050565b6080516109746100ae600039600081816101d7015281816102d4015281816103cc015281816104f601528181610631015261079f01526109746000f3fe608060405234801561001057600080fd5b50600436106101005760003560e01c80636f307dc311610097578063d7b7871711610066578063d7b7871714610277578063f2b9fdb814610289578063f3fef3a31461029c578063f828f50b146102af57600080fd5b80636f307dc3146101d257806370a08231146102115780637ecb8bcf1461023a578063814263261461024d57600080fd5b80632f73e89d116100d35780632f73e89d1461016457806337d151391461017757806364288cfe146101a157806367800b5f146101c257600080fd5b8063094ee6cc146101055780630bc47ad11461012757806318160ddd1461013257806327e235e314610144575b600080fd5b6002546101129060ff1681565b60405190151581526020015b60405180910390f35b60025460ff16610112565b6001545b60405190815260200161011e565b610136610152366004610865565b60006020819052908152604090205481565b6002546101129062010000900460ff1681565b61019f610185366004610898565b600280549115156101000261ff0019909216919091179055565b005b61019f6101af366004610898565b6002805460ff1916911515919091179055565b600254610100900460ff16610112565b6101f97f000000000000000000000000000000000000000000000000000000000000000081565b6040516001600160a01b03909116815260200161011e565b61013661021f366004610865565b6001600160a01b031660009081526020819052604090205490565b61019f6102483660046108b5565b6102b8565b61019f61025b366004610898565b60028054911515620100000262ff000019909216919091179055565b60025461011290610100900460ff1681565b61019f6102973660046108b5565b610382565b61019f6102aa3660046108b5565b6105e5565b61013660015481565b6040516340c10f1960e01b8152306004820152602481018290527f00000000000000000000000000000000000000000000000000000000000000006001600160a01b0316906340c10f1990604401600060405180830381600087803b15801561032057600080fd5b505af1158015610334573d6000803e3d6000fd5b505050506001600160a01b038216600090815260208190526040812080548392906103609084906108f5565b92505081905550806001600082825461037991906108f5565b90915550505050565b60025460ff16156103ca5760405162461bcd60e51b815260206004820152600d60248201526c14dd5c1c1b1e481c185d5cd959609a1b60448201526064015b60405180910390fd5b7f00000000000000000000000000000000000000000000000000000000000000006001600160a01b0316826001600160a01b03161461043b5760405162461bcd60e51b815260206004820152600d60248201526c125b9d985b1a5908185cdcd95d609a1b60448201526064016103c1565b6000811161048b5760405162461bcd60e51b815260206004820152601d60248201527f416d6f756e74206d7573742062652067726561746572207468616e203000000060448201526064016103c1565b60025462010000900460ff16156104d45760405162461bcd60e51b815260206004820152600d60248201526c14dd5c1c1b1e4819985a5b1959609a1b60448201526064016103c1565b6040516323b872dd60e01b8152336004820152306024820152604481018290527f00000000000000000000000000000000000000000000000000000000000000006001600160a01b0316906323b872dd906064016020604051808303816000875af1158015610547573d6000803e3d6000fd5b505050506040513d601f19601f8201168201806040525081019061056b919061090e565b50336000908152602081905260408120805483929061058b9084906108f5565b9250508190555080600160008282546105a491906108f5565b9091555050604051818152339081907fd1cf3d156d5f8f0d50f6c122ed609cec09d35c9b9fb3fff6ea0959134dae424e906020015b60405180910390a35050565b600254610100900460ff161561062f5760405162461bcd60e51b815260206004820152600f60248201526e15da5d1a191c985dc81c185d5cd959608a1b60448201526064016103c1565b7f00000000000000000000000000000000000000000000000000000000000000006001600160a01b0316826001600160a01b0316146106a05760405162461bcd60e51b815260206004820152600d60248201526c125b9d985b1a5908185cdcd95d609a1b60448201526064016103c1565b600081116106f05760405162461bcd60e51b815260206004820152601d60248201527f416d6f756e74206d7573742062652067726561746572207468616e203000000060448201526064016103c1565b336000908152602081905260409020548111156107465760405162461bcd60e51b8152602060048201526014602482015273496e73756666696369656e742062616c616e636560601b60448201526064016103c1565b336000908152602081905260408120805483929061076590849061092b565b92505081905550806001600082825461077e919061092b565b909155505060405163a9059cbb60e01b8152336004820152602481018290527f00000000000000000000000000000000000000000000000000000000000000006001600160a01b03169063a9059cbb906044016020604051808303816000875af11580156107f0573d6000803e3d6000fd5b505050506040513d601f19601f82011682018060405250810190610814919061090e565b50604051818152339081907f9b1bfa7fa9ee420a16e124f794c35ac9f90472acc99140eb2f6447c714cad8eb906020016105d9565b80356001600160a01b038116811461086057600080fd5b919050565b60006020828403121561087757600080fd5b61088082610849565b9392505050565b801515811461089557600080fd5b50565b6000602082840312156108aa57600080fd5b813561088081610887565b600080604083850312156108c857600080fd5b6108d183610849565b946020939093013593505050565b634e487b7160e01b600052601160045260246000fd5b80820180821115610908576109086108df565b92915050565b60006020828403121561092057600080fd5b815161088081610887565b81810381811115610908576109086108df56fea2646970667358221220379f6df68b5f511012835ab13ed72790d83e8661178b84991c1656a934239db864736f6c63430008140033","linkReferences":{}},"methodIdentifiers":{"_isSupplyPaused()":"094ee6cc","_isWithdrawPaused()":"d7b78717","_supplyShouldFail()":"2f73e89d","addYield(address,uint256)":"7ecb8bcf","balanceOf(address)":"70a08231","balances(address)":"27e235e3","isSupplyPaused()":"0bc47ad1","isWithdrawPaused()":"67800b5f","setSupplyPaused(bool)":"64288cfe","setSupplyShouldFail(bool)":"81426326","setWithdrawPaused(bool)":"37d15139","supply(address,uint256)":"f2b9fdb8","totalSupply()":"18160ddd","totalSupplyAmount()":"f828f50b","underlying()":"6f307dc3","withdraw(address,uint256)":"f3fef3a3"},"id":6}