{"abi":[{"type":"constructor","inputs":[],"stateMutability":"nonpayable"},{"type":"function","name":"DOMAIN_SEPARATOR","inputs":[],"outputs":[{"name":"","type":"bytes32","internalType":"bytes32"}],"stateMutability":"view"},{"type":"function","name":"allowance","inputs":[{"name":"","type":"address","internalType":"address"},{"name":"","type":"address","internalType":"address"}],"outputs":[{"name":"","type":"uint256","internalType":"uint256"}],"stateMutability":"view"},{"type":"function","name":"approve","inputs":[{"name":"spender","type":"address","internalType":"address"},{"name":"amount","type":"uint256","internalType":"uint256"}],"outputs":[{"name":"","type":"bool","internalType":"bool"}],"stateMutability":"nonpayable"},{"type":"function","name":"balanceOf","inputs":[{"name":"","type":"address","internalType":"address"}],"outputs":[{"name":"","type":"uint256","internalType":"uint256"}],"stateMutability":"view"},{"type":"function","name":"burn","inputs":[{"name":"from","type":"address","internalType":"address"},{"name":"amount","type":"uint256","internalType":"uint256"}],"outputs":[],"stateMutability":"nonpayable"},{"type":"function","name":"decimals","inputs":[],"outputs":[{"name":"","type":"uint8","internalType":"uint8"}],"stateMutability":"view"},{"type":"function","name":"mint","inputs":[{"name":"to","type":"address","internalType":"address"},{"name":"amount","type":"uint256","internalType":"uint256"}],"outputs":[],"stateMutability":"nonpayable"},{"type":"function","name":"name","inputs":[],"outputs":[{"name":"","type":"string","internalType":"string"}],"stateMutability":"view"},{"type":"function","name":"nonces","inputs":[{"name":"","type":"address","internalType":"address"}],"outputs":[{"name":"","type":"uint256","internalType":"uint256"}],"stateMutability":"view"},{"type":"function","name":"owner","inputs":[],"outputs":[{"name":"","type":"address","internalType":"address"}],"stateMutability":"view"},{"type":"function","name":"permit","inputs":[{"name":"owner","type":"address","internalType":"address"},{"name":"spender","type":"address","internalType":"address"},{"name":"value","type":"uint256","internalType":"uint256"},{"name":"deadline","type":"uint256","internalType":"uint256"},{"name":"v","type":"uint8","internalType":"uint8"},{"name":"r","type":"bytes32","internalType":"bytes32"},{"name":"s","type":"bytes32","internalType":"bytes32"}],"outputs":[],"stateMutability":"nonpayable"},{"type":"function","name":"symbol","inputs":[],"outputs":[{"name":"","type":"string","internalType":"string"}],"stateMutability":"view"},{"type":"function","name":"totalSupply","inputs":[],"outputs":[{"name":"","type":"uint256","internalType":"uint256"}],"stateMutability":"view"},{"type":"function","name":"transfer","inputs":[{"name":"to","type":"address","internalType":"address"},{"name":"amount","type":"uint256","internalType":"uint256"}],"outputs":[{"name":"","type":"bool","internalType":"bool"}],"stateMutability":"nonpayable"},{"type":"function","name":"transferFrom","inputs":[{"name":"from","type":"address","internalType":"address"},{"name":"to","type":"address","internalType":"address"},{"name":"amount","type":"uint256","internalType":"uint256"}],"outputs":[{"name":"","type":"bool","internalType":"bool"}],"stateMutability":"nonpayable"},{"type":"function","name":"transferOwnership","inputs":[{"name":"newOwner","type":"address","internalType":"address"}],"outputs":[],"stateMutability":"nonpayable"},{"type":"event","name":"Approval","inputs":[{"name":"owner","type":"address","indexed":true,"internalType":"address"},{"name":"spender","type":"address","indexed":true,"internalType":"address"},{"name":"amount","type":"uint256","indexed":false,"internalType":"uint256"}],"anonymous":false},{"type":"event","name":"OwnershipTransferred","inputs":[{"name":"user","type":"address","indexed":true,"internalType":"address"},{"name":"newOwner","type":"address","indexed":true,"internalType":"address"}],"anonymous":false},{"type":"event","name":"Transfer","inputs":[{"name":"from","type":"address","indexed":true,"internalType":"address"},{"name":"to","type":"address","indexed":true,"internalType":"address"},{"name":"amount","type":"uint256","indexed":false,"internalType":"uint256"}],"anonymous":false}],"bytecode":{"object":"0x60e06040523461041c57604051610017604082610420565b601081526f55534420436f696e202878555344432960801b6020820152604051610042604082610420565b6005815264785553444360d81b602082015281516001600160401b03811161034f5761006e5f54610443565b601f81116103cd575b50602092601f821160011461036e57928192935f92610363575b50508160011b915f199060031b1c1916175f555b80516001600160401b03811161034f576100c0600154610443565b601f81116102ec575b50602091601f821160011461028c579181925f92610281575b50508160011b915f199060031b1c1916176001555b60066080524660a0526040515f905f54918161011284610443565b9182825260208201946001811690815f14610265575060011461021b575b61013c92500382610420565b51902060405160208101917f8b73c3c69bb8fe3d512ecc4cf759cc79239f7b179b0ffacaa9a75d522b39400f835260408201527fc89efdaa54c0f20c7adf612882df0950f5a951637e0307cdcb4c672f298b8bc660608201524660808201523060a082015260a081526101b060c082610420565b51902060c052600680546001600160a01b03191633908117909155604051905f7f8be0079c531659141344cd1fd0a4f28419497f9722a3daafe3b4186f6b6457e08180a3610bc6908161047c8239608051816106be015260a051816109be015260c051816109e40152f35b505f80805290915f805160206110428339815191525b81831061024957505090602061013c92820101610130565b6020919350806001915483858801015201910190918392610231565b60ff191686525061013c92151560051b82016020019050610130565b015190505f806100e2565b601f1982169260015f52805f20915f5b8581106102d4575083600195106102bc575b505050811b016001556100f7565b01515f1960f88460031b161c191690555f80806102ae565b9192602060018192868501518155019401920161029c565b60015f527fb10e2d527612073b26eecdfd717e6a320cf44b4afac2b0732d9fcbe2b7fa0cf6601f830160051c81019160208410610345575b601f0160051c01905b81811061033a57506100c9565b5f815560010161032d565b9091508190610324565b634e487b7160e01b5f52604160045260245ffd5b015190505f80610091565b601f198216935f8052805f20915f5b8681106103b5575083600195961061039d575b505050811b015f556100a5565b01515f1960f88460031b161c191690555f8080610390565b9192602060018192868501518155019401920161037d565b5f80525f80516020611042833981519152601f830160051c81019160208410610412575b601f0160051c01905b8181106104075750610077565b5f81556001016103fa565b90915081906103f1565b5f80fd5b601f909101601f19168101906001600160401b0382119082101761034f57604052565b90600182811c92168015610471575b602083101461045d57565b634e487b7160e01b5f52602260045260245ffd5b91607f169161045256fe60806040526004361015610011575f80fd5b5f3560e01c806306fdde0314610848578063095ea7b3146107cf57806318160ddd146107b257806323b872dd146106e2578063313ce567146106a55780633644e5151461068357806340c10f19146105f657806370a08231146105be5780637ecebe00146105865780638da5cb5b1461055e57806395d89b41146104845780639dc29fac1461040f578063a9059cbb1461039a578063d505accf14610190578063dd62ed3e146101405763f2fde38b146100c9575f80fd5b3461013c57602036600319011261013c576100e2610982565b600654906100fa336001600160a01b03841614610b35565b6001600160a01b03166001600160a01b0319919091168117600655337f8be0079c531659141344cd1fd0a4f28419497f9722a3daafe3b4186f6b6457e05f80a3005b5f80fd5b3461013c57604036600319011261013c57610159610982565b610161610998565b6001600160a01b039182165f908152600460209081526040808320949093168252928352819020549051908152f35b3461013c5760e036600319011261013c576101a9610982565b6101b1610998565b6044356064359260843560ff811680910361013c574285106103555760805f916020936101dc6109bb565b9060018060a01b03169687855260058652604085209889549960018b01905560405190878201927f6e71edae12b1b97f4d1f60370fef10105fa2faae0126114a169c64845d6126c984528a604084015260018060a01b03169a8b6060840152898784015260a083015260c082015260c0815261025960e082610922565b519020604051908682019261190160f01b84526022830152604282015260428152610285606282610922565b519020906040519182528482015260a435604082015260c435606082015282805260015afa1561034a575f516001600160a01b031680151580610341575b1561030b577f8c5be1e5ebec7d5bd14f71427d1e84f3dd0314c0f7b2291e5b200ac8c7c3b925916020915f526004825260405f20855f5282528060405f2055604051908152a3005b60405162461bcd60e51b815260206004820152600e60248201526d24a72b20a624a22fa9a4a3a722a960911b6044820152606490fd5b508281146102c3565b6040513d5f823e3d90fd5b60405162461bcd60e51b815260206004820152601760248201527f5045524d49545f444541444c494e455f455850495245440000000000000000006044820152606490fd5b3461013c57604036600319011261013c576103b3610982565b60243590335f52600360205260405f206103ce8382546109ae565b905560018060a01b031690815f52600360205260405f208181540190556040519081525f80516020610b7183398151915260203392a3602060405160018152f35b3461013c57604036600319011261013c575f610429610982565b5f80516020610b7183398151915260206024359261045260018060a01b03600654163314610b35565b60018060a01b03169283855260038252604085206104718282546109ae565b90558060025403600255604051908152a3005b3461013c575f36600319011261013c576040515f6001546104a4816108ea565b808452906001811690811561053a57506001146104dc575b6104d8836104cc81850382610922565b60405191829182610958565b0390f35b60015f9081527fb10e2d527612073b26eecdfd717e6a320cf44b4afac2b0732d9fcbe2b7fa0cf6939250905b808210610520575090915081016020016104cc6104bc565b919260018160209254838588010152019101909291610508565b60ff191660208086019190915291151560051b840190910191506104cc90506104bc565b3461013c575f36600319011261013c576006546040516001600160a01b039091168152602090f35b3461013c57602036600319011261013c576001600160a01b036105a7610982565b165f526005602052602060405f2054604051908152f35b3461013c57602036600319011261013c576001600160a01b036105df610982565b165f526003602052602060405f2054604051908152f35b3461013c57604036600319011261013c5761060f610982565b6024359061062860018060a01b03600654163314610b35565b6002549082820180921161066f5760205f80516020610b71833981519152915f9360025560018060a01b0316938484526003825260408420818154019055604051908152a3005b634e487b7160e01b5f52601160045260245ffd5b3461013c575f36600319011261013c57602061069d6109bb565b604051908152f35b3461013c575f36600319011261013c57602060405160ff7f0000000000000000000000000000000000000000000000000000000000000000168152f35b3461013c57606036600319011261013c576106fb610982565b610703610998565b6001600160a01b039091165f818152600460209081526040808320338452825290912054604435935f80516020610b718339815191529291856001820161078d575b5050835f526003825260405f2061075d8682546109ae565b90556001600160a01b03165f818152600383526040908190208054870190555194855293a3602060405160018152f35b610796916109ae565b5f85815260048452604080822033835285529020558585610745565b3461013c575f36600319011261013c576020600254604051908152f35b3461013c57604036600319011261013c576107e8610982565b335f8181526004602090815260408083206001600160a01b03909516808452948252918290206024359081905591519182527f8c5be1e5ebec7d5bd14f71427d1e84f3dd0314c0f7b2291e5b200ac8c7c3b92591a3602060405160018152f35b3461013c575f36600319011261013c576040515f8054610867816108ea565b808452906001811690811561053a575060011461088e576104d8836104cc81850382610922565b5f8080527f290decd9548b62a8d60345a988386fc84ba6bc95484008f6362f93160ef3e563939250905b8082106108d0575090915081016020016104cc6104bc565b9192600181602092548385880101520191019092916108b8565b90600182811c92168015610918575b602083101461090457565b634e487b7160e01b5f52602260045260245ffd5b91607f16916108f9565b90601f8019910116810190811067ffffffffffffffff82111761094457604052565b634e487b7160e01b5f52604160045260245ffd5b602060409281835280519182918282860152018484015e5f828201840152601f01601f1916010190565b600435906001600160a01b038216820361013c57565b602435906001600160a01b038216820361013c57565b9190820391821161066f57565b467f000000000000000000000000000000000000000000000000000000000000000003610a06577f000000000000000000000000000000000000000000000000000000000000000090565b6040515f905f549181610a18846108ea565b9182825260208201946001811690815f14610b195750600114610abc575b610a4292500382610922565b51902060405160208101917f8b73c3c69bb8fe3d512ecc4cf759cc79239f7b179b0ffacaa9a75d522b39400f835260408201527fc89efdaa54c0f20c7adf612882df0950f5a951637e0307cdcb4c672f298b8bc660608201524660808201523060a082015260a08152610ab660c082610922565b51902090565b505f80805290917f290decd9548b62a8d60345a988386fc84ba6bc95484008f6362f93160ef3e5635b818310610afd575050906020610a4292820101610a36565b6020919350806001915483858801015201910190918392610ae5565b60ff1916865250610a4292151560051b82016020019050610a36565b15610b3c57565b60405162461bcd60e51b815260206004820152600c60248201526b15539055551213d49256915160a21b6044820152606490fdfeddf252ad1be2c89b69c2b068fc378daa952ba7f163c4a11628f55a4df523b3efa26469706673582212205a587e0f86de8050a718cdb5742a7782b89478deb8dcc8bd03411785e48a26bb64736f6c634300081a0033290decd9548b62a8d60345a988386fc84ba6bc95484008f6362f93160ef3e563","linkReferences":{}},"methodIdentifiers":{"DOMAIN_SEPARATOR()":"3644e515","allowance(address,address)":"dd62ed3e","approve(address,uint256)":"095ea7b3","balanceOf(address)":"70a08231","burn(address,uint256)":"9dc29fac","decimals()":"313ce567","mint(address,uint256)":"40c10f19","name()":"06fdde03","nonces(address)":"7ecebe00","owner()":"8da5cb5b","permit(address,address,uint256,uint256,uint8,bytes32,bytes32)":"d505accf","symbol()":"95d89b41","totalSupply()":"18160ddd","transfer(address,uint256)":"a9059cbb","transferFrom(address,address,uint256)":"23b872dd","transferOwnership(address)":"f2fde38b"},"id":43}