{"abi":[{"type":"constructor","inputs":[{"name":"initialOwner","type":"address","internalType":"address"},{"name":"initialOracle","type":"address","internalType":"address"},{"name":"initialGroupId","type":"bytes32","internalType":"bytes32"}],"stateMutability":"nonpayable"},{"type":"function","name":"REFERRAL_ROOT","inputs":[],"outputs":[{"name":"","type":"address","internalType":"address"}],"stateMutability":"view"},{"type":"function","name":"authorizeOracle","inputs":[{"name":"oracle","type":"address","internalType":"address"},{"name":"groupId","type":"bytes32","internalType":"bytes32"}],"outputs":[],"stateMutability":"nonpayable"},{"type":"function","name":"batchRegister","inputs":[{"name":"users","type":"address[]","internalType":"address[]"},{"name":"referrer","type":"address","internalType":"address"},{"name":"groupId","type":"bytes32","internalType":"bytes32"}],"outputs":[],"stateMutability":"nonpayable"},{"type":"function","name":"getAncestors","inputs":[{"name":"user","type":"address","internalType":"address"},{"name":"groupId","type":"bytes32","internalType":"bytes32"},{"name":"maxLevels","type":"uint256","internalType":"uint256"}],"outputs":[{"name":"","type":"address[]","internalType":"address[]"}],"stateMutability":"view"},{"type":"function","name":"getAuthorizedOracles","inputs":[{"name":"groupId","type":"bytes32","internalType":"bytes32"}],"outputs":[{"name":"","type":"address[]","internalType":"address[]"}],"stateMutability":"view"},{"type":"function","name":"getChildren","inputs":[{"name":"referrer","type":"address","internalType":"address"},{"name":"groupId","type":"bytes32","internalType":"bytes32"}],"outputs":[{"name":"","type":"address[]","internalType":"address[]"}],"stateMutability":"view"},{"type":"function","name":"getPayoutAncestors","inputs":[{"name":"user","type":"address","internalType":"address"},{"name":"groupId","type":"bytes32","internalType":"bytes32"},{"name":"maxLevels","type":"uint256","internalType":"uint256"}],"outputs":[{"name":"","type":"address[]","internalType":"address[]"}],"stateMutability":"view"},{"type":"function","name":"getPayoutChain","inputs":[{"name":"user","type":"address","internalType":"address"},{"name":"groupId","type":"bytes32","internalType":"bytes32"},{"name":"maxLevels","type":"uint256","internalType":"uint256"}],"outputs":[{"name":"chain","type":"address[]","internalType":"address[]"}],"stateMutability":"view"},{"type":"function","name":"getReferrer","inputs":[{"name":"user","type":"address","internalType":"address"},{"name":"groupId","type":"bytes32","internalType":"bytes32"}],"outputs":[{"name":"","type":"address","internalType":"address"}],"stateMutability":"view"},{"type":"function","name":"getSkiplisted","inputs":[{"name":"groupId","type":"bytes32","internalType":"bytes32"}],"outputs":[{"name":"","type":"address[]","internalType":"address[]"}],"stateMutability":"view"},{"type":"function","name":"isAuthorizedOracle","inputs":[{"name":"oracle","type":"address","internalType":"address"},{"name":"groupId","type":"bytes32","internalType":"bytes32"}],"outputs":[{"name":"","type":"bool","internalType":"bool"}],"stateMutability":"view"},{"type":"function","name":"isRegistered","inputs":[{"name":"user","type":"address","internalType":"address"},{"name":"groupId","type":"bytes32","internalType":"bytes32"}],"outputs":[{"name":"","type":"bool","internalType":"bool"}],"stateMutability":"view"},{"type":"function","name":"isSkiplisted","inputs":[{"name":"user","type":"address","internalType":"address"},{"name":"groupId","type":"bytes32","internalType":"bytes32"}],"outputs":[{"name":"","type":"bool","internalType":"bool"}],"stateMutability":"view"},{"type":"function","name":"owner","inputs":[],"outputs":[{"name":"","type":"address","internalType":"address"}],"stateMutability":"view"},{"type":"function","name":"register","inputs":[{"name":"user","type":"address","internalType":"address"},{"name":"referrer","type":"address","internalType":"address"},{"name":"groupId","type":"bytes32","internalType":"bytes32"}],"outputs":[],"stateMutability":"nonpayable"},{"type":"function","name":"setSkiplisted","inputs":[{"name":"user","type":"address","internalType":"address"},{"name":"groupId","type":"bytes32","internalType":"bytes32"},{"name":"skiplisted","type":"bool","internalType":"bool"}],"outputs":[],"stateMutability":"nonpayable"},{"type":"function","name":"transferOwnership","inputs":[{"name":"newOwner","type":"address","internalType":"address"}],"outputs":[],"stateMutability":"nonpayable"},{"type":"function","name":"unauthorizeOracle","inputs":[{"name":"oracle","type":"address","internalType":"address"},{"name":"groupId","type":"bytes32","internalType":"bytes32"}],"outputs":[],"stateMutability":"nonpayable"},{"type":"event","name":"AddressSkiplisted","inputs":[{"name":"groupId","type":"bytes32","indexed":true,"internalType":"bytes32"},{"name":"user","type":"address","indexed":true,"internalType":"address"}],"anonymous":false},{"type":"event","name":"AddressUnskiplisted","inputs":[{"name":"groupId","type":"bytes32","indexed":true,"internalType":"bytes32"},{"name":"user","type":"address","indexed":true,"internalType":"address"}],"anonymous":false},{"type":"event","name":"OracleAuthorized","inputs":[{"name":"groupId","type":"bytes32","indexed":true,"internalType":"bytes32"},{"name":"oracle","type":"address","indexed":true,"internalType":"address"}],"anonymous":false},{"type":"event","name":"OracleUnauthorized","inputs":[{"name":"groupId","type":"bytes32","indexed":true,"internalType":"bytes32"},{"name":"oracle","type":"address","indexed":true,"internalType":"address"}],"anonymous":false},{"type":"event","name":"OwnershipTransferred","inputs":[{"name":"user","type":"address","indexed":true,"internalType":"address"},{"name":"newOwner","type":"address","indexed":true,"internalType":"address"}],"anonymous":false},{"type":"event","name":"UserRegistered","inputs":[{"name":"user","type":"address","indexed":true,"internalType":"address"},{"name":"referrer","type":"address","indexed":true,"internalType":"address"}],"anonymous":false},{"type":"error","name":"InvalidOracleAddress","inputs":[]},{"type":"error","name":"InvalidReferrerAddress","inputs":[]},{"type":"error","name":"InvalidUserAddress","inputs":[]},{"type":"error","name":"ReferrerNotInTree","inputs":[]},{"type":"error","name":"SelfReferralNotAllowed","inputs":[]},{"type":"error","name":"UnauthorizedOracle","inputs":[]},{"type":"error","name":"UserAlreadyRegistered","inputs":[]}],"bytecode":{"object":"0x60803461017457601f6112b738819003918201601f19168301916001600160401b03831184841017610160578084926060946040528339810103126101745761004781610178565b604061005560208401610178565b9201515f80546001600160a01b0319166001600160a01b039093169283178155604051939192907f8be0079c531659141344cd1fd0a4f28419497f9722a3daafe3b4186f6b6457e08180a36001600160a01b031690816100bc575b61112a838161018d8239f35b805f52600360205260405f20825f5260205260405f20600160ff19825416179055805f52600460205260405f2080549068010000000000000000821015610160576001820180825582101561014c575f5260205f20018260018060a01b03198254161790557faaab643bb0d796c67da7e0319d085f8d96313e1c6c5b11d983920a976032f1845f80a35f806100b0565b634e487b7160e01b5f52603260045260245ffd5b634e487b7160e01b5f52604160045260245ffd5b5f80fd5b51906001600160a01b03821682036101745756fe60806040526004361015610011575f80fd5b5f3560e01c8063293840cc14610999578063389835a61461092c578063622be01c1461086e578063662d8bbb1461082557806366695b1e1461079e57806369b15fce1461074957806377ccfd4b146106ff5780638da5cb5b146106d85780639836b951146104f6578063aaa9ff3d146104dc578063b5d89b4f14610493578063ba59475114610478578063d1024b8e1461040b578063d65ad694146103bf578063e96dc26a14610395578063ee65ac40146102c8578063f2fde38b146102535763f4841e52146100df575f80fd5b3461024f57604036600319011261024f576100f86109c9565b6024359061011060018060a01b035f54163314610f07565b815f52600360205260405f2060018060a01b0382165f5260205260ff60405f20541661013857005b5f8281526003602090815260408083206001600160a01b03909416808452938252808320805460ff19169055848352600490915281209192905b82548082101561024657846101878386610c58565b905460039190911b1c6001600160a01b0316146101a75750600101610172565b919290915f1981019081116102325761020c926101e36101ca6102079385610c58565b905460039190911b1c6001600160a01b03169184610c58565b81546001600160a01b0393841660039290921b91821b9390911b1916919091179055565b610c6d565b7f922aa703ae9be9291f929809d75084b5cb5b3b882b3b1d6eaf2d4c35a2f916205f80a3005b634e487b7160e01b5f52601160045260245ffd5b5050905061020c565b5f80fd5b3461024f57602036600319011261024f5761026c6109c9565b5f5490610283336001600160a01b03841614610f07565b60018060a01b031680916bffffffffffffffffffffffff60a01b16175f55337f8be0079c531659141344cd1fd0a4f28419497f9722a3daafe3b4186f6b6457e05f80a3005b3461024f57604036600319011261024f576102e16109c9565b6024356102f860018060a01b035f54163314610f07565b6001600160a01b03821691821561038657815f52600360205260405f20835f5260205260ff60405f2054161561032a57005b61036090825f52600360205260405f20845f5260205260405f20600160ff19825416179055825f52600460205260405f20610cad565b7faaab643bb0d796c67da7e0319d085f8d96313e1c6c5b11d983920a976032f1845f80a3005b635521068160e01b5f5260045ffd5b3461024f576103bb6103af6103a9366109df565b91610df2565b60405191829182610a09565b0390f35b3461024f57604036600319011261024f576103d86109c9565b6024355f9081526001602090815260408083206001600160a01b0394851684528252918290205491519190921615158152f35b3461024f57602036600319011261024f576004355f52600660205260405f206040519081602082549182815201915f5260205f20905f5b818110610459576103bb856103af81870382610a4b565b82546001600160a01b0316845260209093019260019283019201610442565b3461024f575f36600319011261024f57602060405160018152f35b3461024f57604036600319011261024f576104ac6109c9565b6024355f52600560205260405f209060018060a01b03165f52602052602060ff60405f2054166040519015158152f35b3461024f576103bb6103af6104f0366109df565b91610cd7565b3461024f57606036600319011261024f5761050f6109c9565b60243560443591821515830361024f575f82815260036020908152604080832033845290915290205460ff16156106c9576001600160a01b03811692831580156106bf575b6106b057156105db57815f52600560205260405f20835f5260205260ff60405f2054161561057f575b005b6105b590825f52600560205260405f20845f5260205260405f20600160ff19825416179055825f52600660205260405f20610cad565b7fa6bbcf9daacf22d2d88cb6eba89f3735d315da2c0f7607b03baa255dd608a2315f80a3005b50805f52600560205260405f20825f5260205260ff60405f2054166105fc57005b805f52600560205260405f20825f5260205260405f2060ff198154169055805f52600660205260405f20905f5b8254808210156106a7578461063e8386610c58565b905460039190911b1c6001600160a01b03161461065e5750600101610629565b919290915f19810190811161023257610681926101e36101ca6102079385610c58565b7f116e76857e6e94fd78ec8dc12bac2dfc67df99ef6666b44a751fbd5fce48f01f5f80a3005b50509050610681565b630702b3d960e41b5f5260045ffd5b5060018414610554565b63db8d1fb760e01b5f5260045ffd5b3461024f575f36600319011261024f575f546040516001600160a01b039091168152602090f35b3461024f57604036600319011261024f576107186109c9565b6024355f9081526001602090815260408083206001600160a01b039485168452825291829020549151919092168152f35b3461024f57606036600319011261024f576107626109c9565b61076a6109b3565b60443590815f52600360205260405f2060018060a01b0333165f5260205260ff60405f205416156106c95761057d92610f42565b3461024f57604036600319011261024f576107b76109c9565b6024355f52600260205260405f209060018060a01b03165f5260205260405f206040519081602082549182815201915f5260205f20905f5b818110610806576103bb856103af81870382610a4b565b82546001600160a01b03168452602090930192600192830192016107ef565b3461024f57604036600319011261024f5761083e6109c9565b6024355f52600360205260405f209060018060a01b03165f52602052602060ff60405f2054166040519015158152f35b3461024f57606036600319011261024f5760043567ffffffffffffffff811161024f573660238201121561024f57806004013567ffffffffffffffff811161024f573660248260051b8401011161024f576108c76109b3565b9160443590815f52600360205260405f2060018060a01b0333165f5260205260ff60405f205416156106c9575f5b8381101561057d57600581901b820160240135906001600160a01b038216820361024f576109268487600194610f42565b016108f5565b3461024f57602036600319011261024f576004355f52600460205260405f206040519081602082549182815201915f5260205f20905f5b81811061097a576103bb856103af81870382610a4b565b82546001600160a01b0316845260209093019260019283019201610963565b3461024f576103bb6103af6109ad366109df565b91610b01565b602435906001600160a01b038216820361024f57565b600435906001600160a01b038216820361024f57565b606090600319011261024f576004356001600160a01b038116810361024f57906024359060443590565b60206040818301928281528451809452019201905f5b818110610a2c5750505090565b82516001600160a01b0316845260209384019390920191600101610a1f565b90601f8019910116810190811067ffffffffffffffff821117610a6d57604052565b634e487b7160e01b5f52604160045260245ffd5b67ffffffffffffffff8111610a6d5760051b60200190565b90610aa382610a81565b610ab06040519182610a4b565b8281528092610ac1601f1991610a81565b0190602036910137565b8051821015610adf5760209160051b010190565b634e487b7160e01b5f52603260045260245ffd5b5f1981146102325760010190565b919290916001600160a01b031680158015610c4e575b8015610c46575b610c2a57610b2b84610a99565b915f91845f52600160205260405f20905f5260205260405f2060018060a01b039054165b6001600160a01b031680151580610c1f575b80610c16575b15610bce57845f52600560205260405f20815f5260205260ff60405f20541615610bb2575b5f85815260016020908152604080832093835292905220546001600160a01b0316610b4f565b918083610bc2610bc89387610acb565b52610af3565b91610b8c565b509250909250610bdd81610a99565b905f5b818110610bee575090925050565b6001906001600160a01b03610c038288610acb565b5116610c0f8286610acb565b5201610be0565b50858310610b67565b506001811415610b61565b50915050604051610c3c602082610a4b565b5f81525f36813790565b508315610b1e565b5060018114610b17565b8054821015610adf575f5260205f2001905f90565b80548015610c99575f190190610c838282610c58565b81549060018060a01b039060031b1b1916905555565b634e487b7160e01b5f52603160045260245ffd5b9081549168010000000000000000831015610a6d57826101e3916001610cd595018155610c58565b565b919290916001600160a01b0381168015908115610de7575b508015610ddf575b610c2a57610d0484610a99565b915f915b6001600160a01b031680151580610dd4575b80610dcb575b15610d8557845f52600560205260405f20815f5260205260ff60405f20541615610d6b575b5f85815260016020908152604080832093835292905220546001600160a01b0316610d08565b80610d7f610d7885610af3565b9486610acb565b52610d45565b509250909250610d9481610a99565b925f5b828110610da357505050565b6001906001600160a01b03610db88285610acb565b5116610dc48288610acb565b5201610d97565b50858310610d20565b506001811415610d1a565b508315610cf7565b60019150145f610cef565b6001600160a01b0316919082158015610efd575b610eec57610e1382610a99565b935f93825f52600160205260405f20905f5260205260405f2060018060a01b039054165b6001600160a01b031680151580610ee1575b80610ed8575b15610e915780610e5f8688610acb565b525f83815260016020908152604080832093835292905220546001600160a01b031693610e8b90610af3565b93610e37565b5092915050610e9f81610a99565b905f5b818110610eb0575090925050565b6001906001600160a01b03610ec58288610acb565b5116610ed18286610acb565b5201610ea2565b50838510610e4f565b506001811415610e49565b505050604051610c3c602082610a4b565b5060018314610e06565b15610f0e57565b60405162461bcd60e51b815260206004820152600c60248201526b15539055551213d49256915160a21b6044820152606490fd5b90916001600160a01b038216918215801561106c575b6106b0576001600160a01b03841693841561105d5783851461104e575f8381526001602090815260408083208784529091529020546001600160a01b031661103f57826001861415918261102d575b505061101e5781610ff8925f52600160205260405f20845f5260205260405f20856bffffffffffffffffffffffff60a01b8254161790555f52600260205260405f20845f5260205260405f20610cad565b7f2138b9314634f9fdd5e49bee3eaf17ca557b6637524d0db759711c3bfcd3d8505f80a3565b63d0ceadb160e01b5f5260045ffd5b6110379250611076565b15825f610fa7565b634f2532fb60e11b5f5260045ffd5b6341a31fa560e11b5f5260045ffd5b630552cfb760e11b5f5260045ffd5b5060018314610f58565b6001600160a01b038116600114806110ec575b6110e5575f8281526001602090815260408083206001600160a01b0385811685529252909120541615801592906110bf57505090565b9091505f52600260205260405f209060018060a01b03165f5260205260405f2054151590565b5050600190565b50600161108956fea264697066735822122077284dbe03e85dceb4073427c22b6eda4bf69d323e3667419afe691a0870220964736f6c634300081a0033","linkReferences":{}},"methodIdentifiers":{"REFERRAL_ROOT()":"ba594751","authorizeOracle(address,bytes32)":"ee65ac40","batchRegister(address[],address,bytes32)":"622be01c","getAncestors(address,bytes32,uint256)":"e96dc26a","getAuthorizedOracles(bytes32)":"389835a6","getChildren(address,bytes32)":"66695b1e","getPayoutAncestors(address,bytes32,uint256)":"293840cc","getPayoutChain(address,bytes32,uint256)":"aaa9ff3d","getReferrer(address,bytes32)":"77ccfd4b","getSkiplisted(bytes32)":"d1024b8e","isAuthorizedOracle(address,bytes32)":"662d8bbb","isRegistered(address,bytes32)":"d65ad694","isSkiplisted(address,bytes32)":"b5d89b4f","owner()":"8da5cb5b","register(address,address,bytes32)":"69b15fce","setSkiplisted(address,bytes32,bool)":"9836b951","transferOwnership(address)":"f2fde38b","unauthorizeOracle(address,bytes32)":"f4841e52"},"id":26}