{"abi":[{"type":"constructor","inputs":[{"name":"_paymentToken","type":"address","internalType":"address"},{"name":"_oracle","type":"address","internalType":"address"},{"name":"_contestantDepositAmount","type":"uint256","internalType":"uint256"},{"name":"_oracleFeeBps","type":"uint256","internalType":"uint256"},{"name":"_expiryTimestamp","type":"uint256","internalType":"uint256"},{"name":"_liquidityParameter","type":"uint256","internalType":"uint256"},{"name":"_demandSensitivityBps","type":"uint256","internalType":"uint256"}],"stateMutability":"nonpayable"},{"type":"function","name":"BPS_DENOMINATOR","inputs":[],"outputs":[{"name":"","type":"uint256","internalType":"uint256"}],"stateMutability":"view"},{"type":"function","name":"PRICE_PRECISION","inputs":[],"outputs":[{"name":"","type":"uint256","internalType":"uint256"}],"stateMutability":"view"},{"type":"function","name":"SPECTATOR_ENTRY_FEE_BPS","inputs":[],"outputs":[{"name":"","type":"uint256","internalType":"uint256"}],"stateMutability":"view"},{"type":"function","name":"accumulatedPrizeBonus","inputs":[],"outputs":[{"name":"","type":"uint256","internalType":"uint256"}],"stateMutability":"view"},{"type":"function","name":"activateContest","inputs":[],"outputs":[],"stateMutability":"nonpayable"},{"type":"function","name":"addPrediction","inputs":[{"name":"outcomeId","type":"uint256","internalType":"uint256"},{"name":"amount","type":"uint256","internalType":"uint256"}],"outputs":[],"stateMutability":"nonpayable"},{"type":"function","name":"balanceOf","inputs":[{"name":"account","type":"address","internalType":"address"},{"name":"id","type":"uint256","internalType":"uint256"}],"outputs":[{"name":"","type":"uint256","internalType":"uint256"}],"stateMutability":"view"},{"type":"function","name":"balanceOfBatch","inputs":[{"name":"accounts","type":"address[]","internalType":"address[]"},{"name":"ids","type":"uint256[]","internalType":"uint256[]"}],"outputs":[{"name":"","type":"uint256[]","internalType":"uint256[]"}],"stateMutability":"view"},{"type":"function","name":"calculateOutcomePrice","inputs":[{"name":"outcomeId","type":"uint256","internalType":"uint256"}],"outputs":[{"name":"","type":"uint256","internalType":"uint256"}],"stateMutability":"view"},{"type":"function","name":"cancelContest","inputs":[],"outputs":[],"stateMutability":"nonpayable"},{"type":"function","name":"cancelExpired","inputs":[],"outputs":[],"stateMutability":"nonpayable"},{"type":"function","name":"claimContestPayout","inputs":[],"outputs":[],"stateMutability":"nonpayable"},{"type":"function","name":"claimPredictionPayout","inputs":[{"name":"outcomeId","type":"uint256","internalType":"uint256"}],"outputs":[],"stateMutability":"nonpayable"},{"type":"function","name":"closePredictions","inputs":[],"outputs":[],"stateMutability":"nonpayable"},{"type":"function","name":"contestantBonuses","inputs":[{"name":"","type":"address","internalType":"address"}],"outputs":[{"name":"","type":"uint256","internalType":"uint256"}],"stateMutability":"view"},{"type":"function","name":"contestantDepositAmount","inputs":[],"outputs":[{"name":"","type":"uint256","internalType":"uint256"}],"stateMutability":"view"},{"type":"function","name":"contestants","inputs":[{"name":"","type":"uint256","internalType":"uint256"}],"outputs":[{"name":"","type":"address","internalType":"address"}],"stateMutability":"view"},{"type":"function","name":"demandSensitivityBps","inputs":[],"outputs":[{"name":"","type":"uint256","internalType":"uint256"}],"stateMutability":"view"},{"type":"function","name":"distributeExpiredContest","inputs":[],"outputs":[],"stateMutability":"nonpayable"},{"type":"function","name":"expiryTimestamp","inputs":[],"outputs":[{"name":"","type":"uint256","internalType":"uint256"}],"stateMutability":"view"},{"type":"function","name":"finalContestantPayouts","inputs":[{"name":"","type":"address","internalType":"address"}],"outputs":[{"name":"","type":"uint256","internalType":"uint256"}],"stateMutability":"view"},{"type":"function","name":"getContestantAtIndex","inputs":[{"name":"index","type":"uint256","internalType":"uint256"}],"outputs":[{"name":"","type":"address","internalType":"address"}],"stateMutability":"view"},{"type":"function","name":"getContestantsCount","inputs":[],"outputs":[{"name":"","type":"uint256","internalType":"uint256"}],"stateMutability":"view"},{"type":"function","name":"getSpectatorAtIndex","inputs":[{"name":"index","type":"uint256","internalType":"uint256"}],"outputs":[{"name":"","type":"address","internalType":"address"}],"stateMutability":"view"},{"type":"function","name":"getSpectatorsCount","inputs":[],"outputs":[{"name":"","type":"uint256","internalType":"uint256"}],"stateMutability":"view"},{"type":"function","name":"isApprovedForAll","inputs":[{"name":"account","type":"address","internalType":"address"},{"name":"operator","type":"address","internalType":"address"}],"outputs":[{"name":"","type":"bool","internalType":"bool"}],"stateMutability":"view"},{"type":"function","name":"isContestant","inputs":[{"name":"","type":"address","internalType":"address"}],"outputs":[{"name":"","type":"bool","internalType":"bool"}],"stateMutability":"view"},{"type":"function","name":"isSpectator","inputs":[{"name":"","type":"address","internalType":"address"}],"outputs":[{"name":"","type":"bool","internalType":"bool"}],"stateMutability":"view"},{"type":"function","name":"joinContest","inputs":[],"outputs":[],"stateMutability":"nonpayable"},{"type":"function","name":"leaveContest","inputs":[],"outputs":[],"stateMutability":"nonpayable"},{"type":"function","name":"liquidityParameter","inputs":[],"outputs":[{"name":"","type":"uint256","internalType":"uint256"}],"stateMutability":"view"},{"type":"function","name":"netPosition","inputs":[{"name":"","type":"uint256","internalType":"uint256"}],"outputs":[{"name":"","type":"int256","internalType":"int256"}],"stateMutability":"view"},{"type":"function","name":"oracle","inputs":[],"outputs":[{"name":"","type":"address","internalType":"address"}],"stateMutability":"view"},{"type":"function","name":"oracleFeeBps","inputs":[],"outputs":[{"name":"","type":"uint256","internalType":"uint256"}],"stateMutability":"view"},{"type":"function","name":"paymentToken","inputs":[],"outputs":[{"name":"","type":"address","internalType":"contract IERC20"}],"stateMutability":"view"},{"type":"function","name":"safeBatchTransferFrom","inputs":[{"name":"from","type":"address","internalType":"address"},{"name":"to","type":"address","internalType":"address"},{"name":"ids","type":"uint256[]","internalType":"uint256[]"},{"name":"values","type":"uint256[]","internalType":"uint256[]"},{"name":"data","type":"bytes","internalType":"bytes"}],"outputs":[],"stateMutability":"nonpayable"},{"type":"function","name":"safeTransferFrom","inputs":[{"name":"from","type":"address","internalType":"address"},{"name":"to","type":"address","internalType":"address"},{"name":"id","type":"uint256","internalType":"uint256"},{"name":"value","type":"uint256","internalType":"uint256"},{"name":"data","type":"bytes","internalType":"bytes"}],"outputs":[],"stateMutability":"nonpayable"},{"type":"function","name":"setApprovalForAll","inputs":[{"name":"operator","type":"address","internalType":"address"},{"name":"approved","type":"bool","internalType":"bool"}],"outputs":[],"stateMutability":"nonpayable"},{"type":"function","name":"settleContest","inputs":[{"name":"winners","type":"address[]","internalType":"address[]"},{"name":"payoutBps","type":"uint256[]","internalType":"uint256[]"}],"outputs":[],"stateMutability":"nonpayable"},{"type":"function","name":"spectatorMarketResolved","inputs":[],"outputs":[{"name":"","type":"bool","internalType":"bool"}],"stateMutability":"view"},{"type":"function","name":"spectatorTotalDeposited","inputs":[{"name":"","type":"address","internalType":"address"}],"outputs":[{"name":"","type":"uint256","internalType":"uint256"}],"stateMutability":"view"},{"type":"function","name":"spectatorWinningOutcome","inputs":[],"outputs":[{"name":"","type":"uint256","internalType":"uint256"}],"stateMutability":"view"},{"type":"function","name":"spectators","inputs":[{"name":"","type":"uint256","internalType":"uint256"}],"outputs":[{"name":"","type":"address","internalType":"address"}],"stateMutability":"view"},{"type":"function","name":"state","inputs":[],"outputs":[{"name":"","type":"uint8","internalType":"enum Contest.ContestState"}],"stateMutability":"view"},{"type":"function","name":"supportsInterface","inputs":[{"name":"interfaceId","type":"bytes4","internalType":"bytes4"}],"outputs":[{"name":"","type":"bool","internalType":"bool"}],"stateMutability":"view"},{"type":"function","name":"totalContestantDeposits","inputs":[],"outputs":[{"name":"","type":"uint256","internalType":"uint256"}],"stateMutability":"view"},{"type":"function","name":"totalSpectatorCollateral","inputs":[],"outputs":[{"name":"","type":"uint256","internalType":"uint256"}],"stateMutability":"view"},{"type":"function","name":"totalVolumeOnContestant","inputs":[{"name":"","type":"address","internalType":"address"}],"outputs":[{"name":"","type":"uint256","internalType":"uint256"}],"stateMutability":"view"},{"type":"function","name":"uri","inputs":[{"name":"","type":"uint256","internalType":"uint256"}],"outputs":[{"name":"","type":"string","internalType":"string"}],"stateMutability":"view"},{"type":"function","name":"withdrawPrediction","inputs":[{"name":"outcomeId","type":"uint256","internalType":"uint256"},{"name":"tokenAmount","type":"uint256","internalType":"uint256"}],"outputs":[],"stateMutability":"nonpayable"},{"type":"event","name":"ApprovalForAll","inputs":[{"name":"account","type":"address","indexed":true,"internalType":"address"},{"name":"operator","type":"address","indexed":true,"internalType":"address"},{"name":"approved","type":"bool","indexed":false,"internalType":"bool"}],"anonymous":false},{"type":"event","name":"ContestActivated","inputs":[],"anonymous":false},{"type":"event","name":"ContestCancelled","inputs":[],"anonymous":false},{"type":"event","name":"ContestForceDistributed","inputs":[{"name":"contestantsPaid","type":"uint256","indexed":false,"internalType":"uint256"},{"name":"spectatorsPaid","type":"uint256","indexed":false,"internalType":"uint256"},{"name":"timestamp","type":"uint256","indexed":false,"internalType":"uint256"}],"anonymous":false},{"type":"event","name":"ContestSettled","inputs":[{"name":"winners","type":"address[]","indexed":false,"internalType":"address[]"},{"name":"payouts","type":"uint256[]","indexed":false,"internalType":"uint256[]"}],"anonymous":false},{"type":"event","name":"ContestantDeposited","inputs":[{"name":"contestant","type":"address","indexed":true,"internalType":"address"}],"anonymous":false},{"type":"event","name":"ContestantPayoutClaimed","inputs":[{"name":"contestant","type":"address","indexed":true,"internalType":"address"},{"name":"amount","type":"uint256","indexed":false,"internalType":"uint256"}],"anonymous":false},{"type":"event","name":"PredictionsClosed","inputs":[],"anonymous":false},{"type":"event","name":"SpectatorDeposited","inputs":[{"name":"spectator","type":"address","indexed":true,"internalType":"address"},{"name":"outcomeId","type":"uint256","indexed":true,"internalType":"uint256"},{"name":"amount","type":"uint256","indexed":false,"internalType":"uint256"},{"name":"tokensReceived","type":"uint256","indexed":false,"internalType":"uint256"}],"anonymous":false},{"type":"event","name":"SpectatorPayoutRedeemed","inputs":[{"name":"spectator","type":"address","indexed":true,"internalType":"address"},{"name":"outcomeId","type":"uint256","indexed":true,"internalType":"uint256"},{"name":"payout","type":"uint256","indexed":false,"internalType":"uint256"}],"anonymous":false},{"type":"event","name":"SpectatorWithdrew","inputs":[{"name":"spectator","type":"address","indexed":true,"internalType":"address"},{"name":"amount","type":"uint256","indexed":false,"internalType":"uint256"}],"anonymous":false},{"type":"event","name":"TransferBatch","inputs":[{"name":"operator","type":"address","indexed":true,"internalType":"address"},{"name":"from","type":"address","indexed":true,"internalType":"address"},{"name":"to","type":"address","indexed":true,"internalType":"address"},{"name":"ids","type":"uint256[]","indexed":false,"internalType":"uint256[]"},{"name":"values","type":"uint256[]","indexed":false,"internalType":"uint256[]"}],"anonymous":false},{"type":"event","name":"TransferSingle","inputs":[{"name":"operator","type":"address","indexed":true,"internalType":"address"},{"name":"from","type":"address","indexed":true,"internalType":"address"},{"name":"to","type":"address","indexed":true,"internalType":"address"},{"name":"id","type":"uint256","indexed":false,"internalType":"uint256"},{"name":"value","type":"uint256","indexed":false,"internalType":"uint256"}],"anonymous":false},{"type":"event","name":"URI","inputs":[{"name":"value","type":"string","indexed":false,"internalType":"string"},{"name":"id","type":"uint256","indexed":true,"internalType":"uint256"}],"anonymous":false},{"type":"error","name":"ERC1155InsufficientBalance","inputs":[{"name":"sender","type":"address","internalType":"address"},{"name":"balance","type":"uint256","internalType":"uint256"},{"name":"needed","type":"uint256","internalType":"uint256"},{"name":"tokenId","type":"uint256","internalType":"uint256"}]},{"type":"error","name":"ERC1155InvalidApprover","inputs":[{"name":"approver","type":"address","internalType":"address"}]},{"type":"error","name":"ERC1155InvalidArrayLength","inputs":[{"name":"idsLength","type":"uint256","internalType":"uint256"},{"name":"valuesLength","type":"uint256","internalType":"uint256"}]},{"type":"error","name":"ERC1155InvalidOperator","inputs":[{"name":"operator","type":"address","internalType":"address"}]},{"type":"error","name":"ERC1155InvalidReceiver","inputs":[{"name":"receiver","type":"address","internalType":"address"}]},{"type":"error","name":"ERC1155InvalidSender","inputs":[{"name":"sender","type":"address","internalType":"address"}]},{"type":"error","name":"ERC1155MissingApprovalForAll","inputs":[{"name":"operator","type":"address","internalType":"address"},{"name":"owner","type":"address","internalType":"address"}]},{"type":"error","name":"ReentrancyGuardReentrantCall","inputs":[]},{"type":"error","name":"SafeERC20FailedOperation","inputs":[{"name":"token","type":"address","internalType":"address"}]}],"bytecode":{"object":"0x6101606040523480156200001257600080fd5b5060405162003fb638038062003fb68339810160408190526200003591620002f4565b6040805160208101909152600081526200004f81620002c5565b5060016003556001600160a01b038716620000b15760405162461bcd60e51b815260206004820152601560248201527f496e76616c6964207061796d656e7420746f6b656e000000000000000000000060448201526064015b60405180910390fd5b6001600160a01b038616620000fa5760405162461bcd60e51b815260206004820152600e60248201526d496e76616c6964206f7261636c6560901b6044820152606401620000a8565b600085116200014c5760405162461bcd60e51b815260206004820152601660248201527f496e76616c6964206465706f73697420616d6f756e74000000000000000000006044820152606401620000a8565b6103e8841115620001a05760405162461bcd60e51b815260206004820152601360248201527f4f7261636c652066656520746f6f2068696768000000000000000000000000006044820152606401620000a8565b428311620001e25760405162461bcd60e51b815260206004820152600e60248201526d115e1c1a5c9e481a5b881c185cdd60921b6044820152606401620000a8565b60008211620002345760405162461bcd60e51b815260206004820152601b60248201527f496e76616c6964206c697175696469747920706172616d6574657200000000006044820152606401620000a8565b612710811115620002885760405162461bcd60e51b815260206004820152601a60248201527f496e76616c69642064656d616e642073656e73697469766974790000000000006044820152606401620000a8565b6001600160a01b039687166080529490951660a05260c09290925260e0526101005261012091909152610140526004805460ff19169055620004cc565b6002620002d3828262000400565b5050565b80516001600160a01b0381168114620002ef57600080fd5b919050565b600080600080600080600060e0888a0312156200031057600080fd5b6200031b88620002d7565b96506200032b60208901620002d7565b604089015160608a015160808b015160a08c015160c0909c01519a9d939c50919a90999198509650945092505050565b634e487b7160e01b600052604160045260246000fd5b600181811c908216806200038657607f821691505b602082108103620003a757634e487b7160e01b600052602260045260246000fd5b50919050565b601f821115620003fb57600081815260208120601f850160051c81016020861015620003d65750805b601f850160051c820191505b81811015620003f757828155600101620003e2565b5050505b505050565b81516001600160401b038111156200041c576200041c6200035b565b62000434816200042d845462000371565b84620003ad565b602080601f8311600181146200046c5760008415620004535750858301515b600019600386901b1c1916600185901b178555620003f7565b600085815260208120601f198616915b828110156200049d578886015182559484019460019091019084016200047c565b5085821015620004bc5787850151600019600388901b60f8161c191681555b5050505050600190811b01905550565b60805160a05160c05160e0516101005161012051610140516139c4620005f26000396000818161050201526108b101526000818161041d015261088d01526000818161062401528181610f40015281816116e601526119560152600081816104bb0152818161247a015281816124b5015261264e015260008181610365015281816110000152818161106301528181611f7e015261210801526000818161053f0152818161091f01528181610d6e0152818161158e01528181611669015281816121d601526125cf0152600081816103d501528181610cf50152818161103f01528181611304015281816117bc015281816118ac01528181611c3601528181611cc201528181611df9015281816120e5015281816125ad01526126aa01526139c46000f3fe608060405234801561001057600080fd5b50600436106102d55760003560e01c806384e0d1b411610182578063ade6e2aa116100e9578063e985e9c5116100a2578063f1d570671161007c578063f1d57067146106dd578063f242432a146106e6578063fc6cc4a3146106f9578063fc810d7d1461071957600080fd5b8063e985e9c5146106a4578063f0014e13146106b7578063f010e12d146106ca57600080fd5b8063ade6e2aa1461061f578063bf7753a214610646578063c19d93fb1461064e578063dfd50f5214610668578063e1a452181461067b578063e8f45ab21461068457600080fd5b8063a01e4a1f1161013b578063a01e4a1f146105c3578063a22cb465146105cb578063a450fe44146105de578063a56964ab146105f1578063a5877e1914610604578063a9adb0fd1461061757600080fd5b806384e0d1b41461056157806385c6c959146105815780638f466eaf146105a157806395082d25146105a9578063964766a5146105b357806398e1eac3146105bb57600080fd5b806332e6190b116102415780635a9855c3116101fa578063693b4660116101d4578063693b4660146104fd5780637b8488ea146105245780637bc09bad1461052d5780637dc0d1d01461053a57600080fd5b80635a9855c3146104ae5780635c76fda7146104b65780636932b382146104dd57600080fd5b806332e6190b1461040f5780633a69a1be146104185780633c9c73ed1461043f5780634e1273f4146104625780635508bd6b146104825780635a701e1e1461048b57600080fd5b806322fc1d0a1161029357806322fc1d0a1461038757806324f9cc4c1461039a57806326bec2de146103a25780632e0ec188146103aa5780632eb2c2d6146103bd5780633013ce29146103d057600080fd5b8062fdd58e146102da57806301ffc9a7146103005780630e89341c1461032357806311c5c792146103435780631db0e667146103565780631f85354a14610360575b600080fd5b6102ed6102e8366004613057565b610722565b6040519081526020015b60405180910390f35b61031361030e366004613097565b61074a565b60405190151581526020016102f7565b6103366103313660046130bb565b61079a565b6040516102f7919061311a565b6102ed6103513660046130bb565b61082e565b61035e610914565b005b6102ed7f000000000000000000000000000000000000000000000000000000000000000081565b61035e61039536600461312d565b610a1d565b61035e610d63565b61035e610e89565b61035e6103b836600461312d565b6110be565b61035e6103cb366004613295565b611447565b6103f77f000000000000000000000000000000000000000000000000000000000000000081565b6040516001600160a01b0390911681526020016102f7565b6102ed600d5481565b6102ed7f000000000000000000000000000000000000000000000000000000000000000081565b61031361044d36600461333f565b600a6020526000908152604090205460ff1681565b61047561047036600461335a565b6114ae565b6040516102f79190613455565b6102ed60115481565b61031361049936600461333f565b60066020526000908152604090205460ff1681565b61035e611583565b6102ed7f000000000000000000000000000000000000000000000000000000000000000081565b6102ed6104eb3660046130bb565b600b6020526000908152604090205481565b6102ed7f000000000000000000000000000000000000000000000000000000000000000081565b6102ed60075481565b6012546103139060ff1681565b6103f77f000000000000000000000000000000000000000000000000000000000000000081565b6102ed61056f36600461333f565b600f6020526000908152604090205481565b6102ed61058f36600461333f565b60086020526000908152604090205481565b6005546102ed565b6102ed620f424081565b6009546102ed565b61035e61165e565b61035e611954565b61035e6105d9366004613468565b611a2e565b6103f76105ec3660046130bb565b611a39565b61035e6105ff3660046130bb565b611aab565b6103f76106123660046130bb565b611d32565b61035e611d5c565b6102ed7f000000000000000000000000000000000000000000000000000000000000000081565b61035e611e68565b60045461065b9060ff1681565b6040516102f791906134ba565b6103f76106763660046130bb565b612136565b6102ed61271081565b6102ed61069236600461333f565b60106020526000908152604090205481565b6103136106b23660046134e2565b612146565b6103f76106c53660046130bb565b612174565b61035e6106d8366004613561565b6121cb565b6102ed600c5481565b61035e6106f43660046135cd565b6127d7565b6102ed61070736600461333f565b600e6020526000908152604090205481565b6102ed6105dc81565b6000818152602081815260408083206001600160a01b03861684529091529020545b92915050565b60006001600160e01b03198216636cdb3d1360e11b148061077b57506001600160e01b031982166303a24d0760e21b145b8061074457506301ffc9a760e01b6001600160e01b0319831614610744565b6060600280546107a990613632565b80601f01602080910402602001604051908101604052809291908181526020018280546107d590613632565b80156108225780601f106107f757610100808354040283529160200191610822565b820191906000526020600020905b81548152906001019060200180831161080557829003601f168201915b50505050509050919050565b600554600090821061085b5760405162461bcd60e51b81526004016108529061366c565b60405180910390fd5b6000828152600b602052604081205490808212156108815761087c826136ab565b610883565b815b9050620f424060007f00000000000000000000000000000000000000000000000000000000000000006108d67f0000000000000000000000000000000000000000000000000000000000000000856136c7565b6108e091906136de565b90506000841280156108f157508181105b1561090a576109008183613700565b9695505050505050565b6109008183613713565b336001600160a01b037f0000000000000000000000000000000000000000000000000000000000000000161461095c5760405162461bcd60e51b815260040161085290613726565b600360045460ff166005811115610975576109756134a4565b1415801561099a5750600560045460ff166005811115610997576109976134a4565b14155b6109e65760405162461bcd60e51b815260206004820152601f60248201527f436f6e7465737420736574746c6564202d2063616e6e6f742063616e63656c006044820152606401610852565b6004805460ff1916811790556040517f9237e8f0d5063a695b8695e82c82bc24d15591de9d04449771a6ea4b1283173790600090a1565b610a25612836565b600060045460ff166005811115610a3e57610a3e6134a4565b1480610a605750600160045460ff166005811115610a5e57610a5e6134a4565b145b80610a8057506004805460ff166005811115610a7e57610a7e6134a4565b145b610ae45760405162461bcd60e51b815260206004820152602f60248201527f43616e6e6f74207769746864726177202d2070726564696374696f6e73206c6f60448201526e18dad959081bdc881cd95d1d1b1959608a1b6064820152608401610852565b6005548210610b055760405162461bcd60e51b81526004016108529061366c565b60008111610b4a5760405162461bcd60e51b81526020600482015260126024820152710416d6f756e74206d757374206265203e20360741b6044820152606401610852565b80610b553384610722565b1015610b9a5760405162461bcd60e51b8152602060048201526014602482015273496e73756666696369656e742062616c616e636560601b6044820152606401610852565b6000610ba63384610722565b33600090815260106020526040812054919250908290610bc79085906136c7565b610bd191906136de565b90506000612710610be46105dc846136c7565b610bee91906136de565b90506000610bfc8284613700565b9050610c09338787612860565b6000868152600b602052604081208054879290610c2790849061374a565b90915550610c3890506002836136de565b600d6000828254610c499190613700565b90915550610c5a90506002836136de565b600e600060058981548110610c7157610c71613771565b60009182526020808320909101546001600160a01b0316835282019290925260400181208054909190610ca5908490613700565b9250508190555080600c6000828254610cbe9190613700565b90915550503360009081526010602052604081208054859290610ce2908490613700565b90915550610d1c90506001600160a01b037f00000000000000000000000000000000000000000000000000000000000000001633856128cf565b60405183815233907f1afd07c523e365fe5caad76bb954272a33ed72374f832943fe8bb4d8484683409060200160405180910390a250505050610d5f6001600355565b5050565b336001600160a01b037f00000000000000000000000000000000000000000000000000000000000000001614610dab5760405162461bcd60e51b815260040161085290613726565b600060045460ff166005811115610dc457610dc46134a4565b14610e115760405162461bcd60e51b815260206004820152601760248201527f436f6e7465737420616c726561647920737461727465640000000000000000006044820152606401610852565b600554610e515760405162461bcd60e51b815260206004820152600e60248201526d4e6f20636f6e74657374616e747360901b6044820152606401610852565b6004805460ff191660011790556040517f3927b788a62eb53f7192cd9286f49295f01b938b6afc23aef0af5d035cd8531690600090a1565b610e91612836565b600060045460ff166005811115610eaa57610eaa6134a4565b14610eea5760405162461bcd60e51b815260206004820152601060248201526f21b7b73a32b9ba103737ba1037b832b760811b6044820152606401610852565b3360009081526006602052604090205460ff1615610f3e5760405162461bcd60e51b8152602060048201526011602482015270105b1c9958591e4819195c1bdcda5d1959607a1b6044820152606401610852565b7f00000000000000000000000000000000000000000000000000000000000000004210610f9f5760405162461bcd60e51b815260206004820152600f60248201526e10dbdb9d195cdd08195e1c1a5c9959608a1b6044820152606401610852565b6005805460018181019092557f036b6384b5eca791c62761152d0c79bb0604c104a5fb6f4eb0703f3154bb3db00180546001600160a01b031916339081179091556000908152600660205260408120805460ff1916909217909155600780547f0000000000000000000000000000000000000000000000000000000000000000929061102c908490613713565b9091555061108790506001600160a01b037f00000000000000000000000000000000000000000000000000000000000000001633307f0000000000000000000000000000000000000000000000000000000000000000612933565b60405133907fea6307fcf9cf9edb437dc6d37829d9f04a77d6fb28461f9155076d02098566ee90600090a26110bc6001600355565b565b6110c6612836565b600060045460ff1660058111156110df576110df6134a4565b14806111015750600160045460ff1660058111156110ff576110ff6134a4565b145b61114d5760405162461bcd60e51b815260206004820152601960248201527f50726564696374696f6e73206e6f7420617661696c61626c65000000000000006044820152606401610852565b600554821061116e5760405162461bcd60e51b81526004016108529061366c565b600081116111b35760405162461bcd60e51b81526020600482015260126024820152710416d6f756e74206d757374206265203e20360741b6044820152606401610852565b336000908152600a602052604090205460ff16611225576009805460018181019092557f6e1540171b6c0c960b71a7020d9f60077f6af931a8bbf590da0223dacf75c7af0180546001600160a01b031916339081179091556000908152600a60205260409020805460ff191690911790555b60006127106112366105dc846136c7565b61124091906136de565b9050600061124e8284613700565b9050600061125b8561082e565b905060008161126d620f4240856136c7565b61127791906136de565b90506112846002856136de565b600d60008282546112959190613713565b909155506112a690506002856136de565b600e6000600589815481106112bd576112bd613771565b60009182526020808320909101546001600160a01b03168352820192909252604001812080549091906112f1908490613713565b9091555061132c90506001600160a01b037f000000000000000000000000000000000000000000000000000000000000000016333088612933565b336000908152601060205260408120805487929061134b908490613713565b9250508190555061136d3387836040518060200160405280600081525061296c565b6000868152600b60205260408120805483929061138b908490613787565b9250508190555080600f6000600589815481106113aa576113aa613771565b60009182526020808320909101546001600160a01b03168352820192909252604001812080549091906113de908490613713565b9250508190555082600c60008282546113f79190613713565b90915550506040805186815260208101839052879133917f3d516f677e4f650c5678a09cdf06e998bf8e05cbe8d92906362e8589a8f064a5910160405180910390a350505050610d5f6001600355565b336001600160a01b038616811480159061146857506114668682612146565b155b156114995760405163711bec9160e11b81526001600160a01b03808316600483015287166024820152604401610852565b6114a686868686866129c9565b505050505050565b606081518351146114df5781518351604051635b05999160e01b815260048101929092526024820152604401610852565b6000835167ffffffffffffffff8111156114fb576114fb61314f565b604051908082528060200260200182016040528015611524578160200160208202803683370190505b50905060005b845181101561157b5760208082028601015161154e90602080840287010151610722565b82828151811061156057611560613771565b6020908102919091010152611574816137af565b905061152a565b509392505050565b336001600160a01b037f000000000000000000000000000000000000000000000000000000000000000016146115cb5760405162461bcd60e51b815260040161085290613726565b600160045460ff1660058111156115e4576115e46134a4565b146116265760405162461bcd60e51b8152602060048201526012602482015271436f6e74657374206e6f742061637469766560701b6044820152606401610852565b6004805460ff191660021790556040517f91b4dd20084a71e964f322b0044cfe5523abf93f4d02b7e3ed621e1500fd162290600090a1565b336001600160a01b037f000000000000000000000000000000000000000000000000000000000000000016146116a65760405162461bcd60e51b815260040161085290613726565b6116ae612836565b600360045460ff1660058111156116c7576116c76134a4565b146116e45760405162461bcd60e51b8152600401610852906137c8565b7f00000000000000000000000000000000000000000000000000000000000000004210156117495760405162461bcd60e51b8152602060048201526012602482015271115e1c1a5c9e481b9bdd081c995858da195960721b6044820152606401610852565b60008060005b6005548110156118065760006005828154811061176e5761176e613771565b60009182526020808320909101546001600160a01b0316808352600890915260409091205490915080156117f1576001600160a01b038083166000908152600860205260408120556117e3907f00000000000000000000000000000000000000000000000000000000000000001683836128cf565b846117ed816137af565b9550505b505080806117fe906137af565b91505061174f565b506011546000908152600b602052604090205480156118fa5760005b6009548110156118f85760006009828154811061184157611841613771565b60009182526020822001546011546001600160a01b039091169250611867908390610722565b905080156118e35761187c8260115483612860565b600084600c548361188d91906136c7565b61189791906136de565b905080156118e1576118d36001600160a01b037f00000000000000000000000000000000000000000000000000000000000000001684836128cf565b856118dd816137af565b9650505b505b505080806118f0906137af565b915050611822565b505b6004805460ff191660051790556040805184815260208101849052428183015290517f81af9be4712c68e4890ef828e7ecb62e37897b50b7c0edab83fd545bd6d060b2916060908290030190a15050506110bc6001600355565b7f00000000000000000000000000000000000000000000000000000000000000004210156119b25760405162461bcd60e51b815260206004820152600b60248201526a139bdd08195e1c1a5c995960aa1b6044820152606401610852565b600360045460ff1660058111156119cb576119cb6134a4565b141580156119f05750600560045460ff1660058111156119ed576119ed6134a4565b14155b6109e65760405162461bcd60e51b815260206004820152600f60248201526e105b1c9958591e481cd95d1d1b1959608a1b6044820152606401610852565b610d5f338383612a29565b6009546000908210611a7d5760405162461bcd60e51b815260206004820152600d60248201526c092dcecc2d8d2c840d2dcc8caf609b1b6044820152606401610852565b60098281548110611a9057611a90613771565b6000918252602090912001546001600160a01b031692915050565b611ab3612836565b600360045460ff166005811115611acc57611acc6134a4565b14611ae95760405162461bcd60e51b8152600401610852906137c8565b60125460ff16611b315760405162461bcd60e51b815260206004820152601360248201527213585c9ad95d081b9bdd081c995cdbdb1d9959606a1b6044820152606401610852565b6005548110611b525760405162461bcd60e51b81526004016108529061366c565b6000611b5e3383610722565b905060008111611b9c5760405162461bcd60e51b81526020600482015260096024820152684e6f20746f6b656e7360b81b6044820152606401610852565b611ba7338383612860565b60006011548303611cec576000838152600b602052604090205480611bfa5760405162461bcd60e51b81526020600482015260096024820152684e6f20737570706c7960b81b6044820152606401610852565b80600c5484611c0991906136c7565b611c1391906136de565b6040516370a0823160e01b81523060048201529092506000906001600160a01b037f000000000000000000000000000000000000000000000000000000000000000016906370a0823190602401602060405180830381865afa158015611c7d573d6000803e3d6000fd5b505050506040513d601f19601f82011682018060405250810190611ca191906137f5565b905080831115611caf578092505b8215611ce957611ce96001600160a01b037f00000000000000000000000000000000000000000000000000000000000000001633856128cf565b50505b604051818152839033907fd661a3227475e550e8171253b7c0e37ede0ff071f017a4c55b647d5a04b5e4359060200160405180910390a35050611d2f6001600355565b50565b60098181548110611d4257600080fd5b6000918252602090912001546001600160a01b0316905081565b611d64612836565b600360045460ff166005811115611d7d57611d7d6134a4565b14611d9a5760405162461bcd60e51b8152600401610852906137c8565b3360009081526008602052604090205480611de35760405162461bcd60e51b8152602060048201526009602482015268139bc81c185e5bdd5d60ba1b6044820152606401610852565b33600081815260086020526040812055611e28907f00000000000000000000000000000000000000000000000000000000000000006001600160a01b031690836128cf565b60405181815233907f9e2d6fa5f8818953c417e9cacffa6cbb51294f8f2a3f1713a0171e5b704244099060200160405180910390a2506110bc6001600355565b611e70612836565b600060045460ff166005811115611e8957611e896134a4565b1480611eaa57506004805460ff166005811115611ea857611ea86134a4565b145b611f0f5760405162461bcd60e51b815260206004820152603060248201527f43616e6e6f74207769746864726177202d20636f6e7465737420696e2070726f60448201526f19dc995cdcc81bdc881cd95d1d1b195960821b6064820152608401610852565b3360009081526006602052604090205460ff16611f615760405162461bcd60e51b815260206004820152601060248201526f139bdd08184818dbdb9d195cdd185b9d60821b6044820152606401610852565b336000908152600660205260408120805460ff19169055600780547f00000000000000000000000000000000000000000000000000000000000000009290611faa908490613700565b909155506000905060045460ff166005811115611fc957611fc96134a4565b036120d85760005b6005548110156120d657336001600160a01b031660058281548110611ff857611ff8613771565b6000918252602090912001546001600160a01b0316036120c4576005805461202290600190613700565b8154811061203257612032613771565b600091825260209091200154600580546001600160a01b03909216918390811061205e5761205e613771565b9060005260206000200160006101000a8154816001600160a01b0302191690836001600160a01b03160217905550600580548061209d5761209d61380e565b600082815260209020810160001990810180546001600160a01b03191690550190556120d6565b806120ce816137af565b915050611fd1565b505b61212c6001600160a01b037f000000000000000000000000000000000000000000000000000000000000000016337f00000000000000000000000000000000000000000000000000000000000000006128cf565b6110bc6001600355565b60058181548110611d4257600080fd5b6001600160a01b03918216600090815260016020908152604080832093909416825291909152205460ff1690565b60055460009082106121b85760405162461bcd60e51b815260206004820152600d60248201526c092dcecc2d8d2c840d2dcc8caf609b1b6044820152606401610852565b60058281548110611a9057611a90613771565b336001600160a01b037f000000000000000000000000000000000000000000000000000000000000000016146122135760405162461bcd60e51b815260040161085290613726565b61221b612836565b600160045460ff166005811115612234576122346134a4565b14806122565750600260045460ff166005811115612254576122546134a4565b145b6122a25760405162461bcd60e51b815260206004820152601c60248201527f436f6e74657374206e6f7420616374697665206f72206c6f636b6564000000006044820152606401610852565b60055483146122f35760405162461bcd60e51b815260206004820152601760248201527f57696e6e657273206c656e677468206d69736d617463680000000000000000006044820152606401610852565b60055481146123445760405162461bcd60e51b815260206004820152601760248201527f5061796f757473206c656e677468206d69736d617463680000000000000000006044820152606401610852565b6000805b828110156123885783838281811061236257612362613771565b90506020020135826123749190613713565b915080612380816137af565b915050612348565b5061271081146123da5760405162461bcd60e51b815260206004820152601860248201527f5061796f757473206d7573742073756d20746f203130302500000000000000006044820152606401610852565b6004805460ff19166003179055600d546007546000916123f991613713565b90506000805b60055481101561246357600e60006005838154811061242057612420613771565b60009182526020808320909101546001600160a01b0316835282019290925260400190205461244f9083613713565b91508061245b816137af565b9150506123ff565b5061246e8183613713565b9150600061271061249f7f0000000000000000000000000000000000000000000000000000000000000000856136c7565b6124a991906136de565b905060006127106124da7f000000000000000000000000000000000000000000000000000000000000000082613700565b600d546007546124ea9190613713565b6124f491906136c7565b6124fe91906136de565b905060005b8881101561259957600061271089898481811061252257612522613771565b905060200201358461253491906136c7565b61253e91906136de565b905080600860008d8d8681811061255757612557613771565b905060200201602081019061256c919061333f565b6001600160a01b031681526020810191909152604001600020555080612591816137af565b915050612503565b5081156125f4576125f46001600160a01b037f0000000000000000000000000000000000000000000000000000000000000000167f0000000000000000000000000000000000000000000000000000000000000000846128cf565b60005b6005548110156126e85760006005828154811061261657612616613771565b60009182526020808320909101546001600160a01b0316808352600e90915260409091205490915080156126d35760006127106126737f000000000000000000000000000000000000000000000000000000000000000082613700565b61267d90846136c7565b61268791906136de565b6001600160a01b038085166000908152600e60205260408120559091506126d1907f00000000000000000000000000000000000000000000000000000000000000001684836128cf565b505b505080806126e0906137af565b9150506125f7565b506000898960008181106126fe576126fe613771565b9050602002016020810190612713919061333f565b905060005b60055481101561277557816001600160a01b03166005828154811061273f5761273f613771565b6000918252602090912001546001600160a01b031603612763576011819055612775565b8061276d816137af565b915050612718565b506012805460ff191660011790556040517f87390527874bc40d4437d7050c3d9020e6a8a79d8a0c32f616101240b33a8e63906127b9908c908c908c908c90613824565b60405180910390a15050505050506127d16001600355565b50505050565b336001600160a01b03861681148015906127f857506127f68682612146565b155b156128295760405163711bec9160e11b81526001600160a01b03808316600483015287166024820152604401610852565b6114a68686868686612abf565b60026003540361285957604051633ee5aeb560e01b815260040160405180910390fd5b6002600355565b6001600160a01b03831661288957604051626a0d4560e21b815260006004820152602401610852565b604080516001808252602082018590528183019081526060820184905260a082019092526000608082018181529192916128c891879185908590612b4d565b5050505050565b6040516001600160a01b0383811660248301526044820183905261292e91859182169063a9059cbb906064015b604051602081830303815290604052915060e01b6020820180516001600160e01b038381831617835250505050612ba0565b505050565b6040516001600160a01b0384811660248301528381166044830152606482018390526127d19186918216906323b872dd906084016128fc565b6001600160a01b03841661299657604051632bfa23e760e11b815260006004820152602401610852565b604080516001808252602082018690528183019081526060820185905260808201909252906114a6600087848487612b4d565b6001600160a01b0384166129f357604051632bfa23e760e11b815260006004820152602401610852565b6001600160a01b038516612a1c57604051626a0d4560e21b815260006004820152602401610852565b6128c88585858585612b4d565b6001600160a01b038216612a525760405162ced3e160e81b815260006004820152602401610852565b6001600160a01b03838116600081815260016020908152604080832094871680845294825291829020805460ff191686151590811790915591519182527f17307eab39ab6107e8899845ad3d59bd9653f200f220920489ca2b5937696c31910160405180910390a3505050565b6001600160a01b038416612ae957604051632bfa23e760e11b815260006004820152602401610852565b6001600160a01b038516612b1257604051626a0d4560e21b815260006004820152602401610852565b60408051600180825260208201869052818301908152606082018590526080820190925290612b448787848487612b4d565b50505050505050565b612b5985858585612c11565b6001600160a01b038416156128c85782513390600103612b925760208481015190840151612b8b838989858589612e2e565b50506114a6565b6114a6818787878787612f52565b600080602060008451602086016000885af180612bc3576040513d6000823e3d81fd5b50506000513d91508115612bdb578060011415612be8565b6001600160a01b0384163b155b156127d157604051635274afe760e01b81526001600160a01b0385166004820152602401610852565b8051825114612c405781518151604051635b05999160e01b815260048101929092526024820152604401610852565b3360005b8351811015612d4f576020818102858101820151908501909101516001600160a01b03881615612cf7576000828152602081815260408083206001600160a01b038c16845290915290205481811015612cd0576040516303dee4c560e01b81526001600160a01b038a166004820152602481018290526044810183905260648101849052608401610852565b6000838152602081815260408083206001600160a01b038d16845290915290209082900390555b6001600160a01b03871615612d3c576000828152602081815260408083206001600160a01b038b16845290915281208054839290612d36908490613713565b90915550505b505080612d48906137af565b9050612c44565b508251600103612dd05760208301516000906020840151909150856001600160a01b0316876001600160a01b0316846001600160a01b03167fc3d58168c5ae7397731d063d5bbf3d657854427343f4c083240f7aacaa2d0f628585604051612dc1929190918252602082015260400190565b60405180910390a450506128c8565b836001600160a01b0316856001600160a01b0316826001600160a01b03167f4a39dc06d4c0dbc64b70af90fd698a233a518aa5d07e595d983b8c0526c8f7fb8686604051612e1f9291906138a0565b60405180910390a45050505050565b6001600160a01b0384163b156114a65760405163f23a6e6160e01b81526001600160a01b0385169063f23a6e6190612e7290899089908890889088906004016138ce565b6020604051808303816000875af1925050508015612ead575060408051601f3d908101601f19168201909252612eaa91810190613913565b60015b612f16573d808015612edb576040519150601f19603f3d011682016040523d82523d6000602084013e612ee0565b606091505b508051600003612f0e57604051632bfa23e760e11b81526001600160a01b0386166004820152602401610852565b805181602001fd5b6001600160e01b0319811663f23a6e6160e01b14612b4457604051632bfa23e760e11b81526001600160a01b0386166004820152602401610852565b6001600160a01b0384163b156114a65760405163bc197c8160e01b81526001600160a01b0385169063bc197c8190612f969089908990889088908890600401613930565b6020604051808303816000875af1925050508015612fd1575060408051601f3d908101601f19168201909252612fce91810190613913565b60015b612fff573d808015612edb576040519150601f19603f3d011682016040523d82523d6000602084013e612ee0565b6001600160e01b0319811663bc197c8160e01b14612b4457604051632bfa23e760e11b81526001600160a01b0386166004820152602401610852565b80356001600160a01b038116811461305257600080fd5b919050565b6000806040838503121561306a57600080fd5b6130738361303b565b946020939093013593505050565b6001600160e01b031981168114611d2f57600080fd5b6000602082840312156130a957600080fd5b81356130b481613081565b9392505050565b6000602082840312156130cd57600080fd5b5035919050565b6000815180845260005b818110156130fa576020818501810151868301820152016130de565b506000602082860101526020601f19601f83011685010191505092915050565b6020815260006130b460208301846130d4565b6000806040838503121561314057600080fd5b50508035926020909101359150565b634e487b7160e01b600052604160045260246000fd5b604051601f8201601f1916810167ffffffffffffffff8111828210171561318e5761318e61314f565b604052919050565b600067ffffffffffffffff8211156131b0576131b061314f565b5060051b60200190565b600082601f8301126131cb57600080fd5b813560206131e06131db83613196565b613165565b82815260059290921b840181019181810190868411156131ff57600080fd5b8286015b8481101561321a5780358352918301918301613203565b509695505050505050565b600082601f83011261323657600080fd5b813567ffffffffffffffff8111156132505761325061314f565b613263601f8201601f1916602001613165565b81815284602083860101111561327857600080fd5b816020850160208301376000918101602001919091529392505050565b600080600080600060a086880312156132ad57600080fd5b6132b68661303b565b94506132c46020870161303b565b9350604086013567ffffffffffffffff808211156132e157600080fd5b6132ed89838a016131ba565b9450606088013591508082111561330357600080fd5b61330f89838a016131ba565b9350608088013591508082111561332557600080fd5b5061333288828901613225565b9150509295509295909350565b60006020828403121561335157600080fd5b6130b48261303b565b6000806040838503121561336d57600080fd5b823567ffffffffffffffff8082111561338557600080fd5b818501915085601f83011261339957600080fd5b813560206133a96131db83613196565b82815260059290921b840181019181810190898411156133c857600080fd5b948201945b838610156133ed576133de8661303b565b825294820194908201906133cd565b9650508601359250508082111561340357600080fd5b50613410858286016131ba565b9150509250929050565b600081518084526020808501945080840160005b8381101561344a5781518752958201959082019060010161342e565b509495945050505050565b6020815260006130b4602083018461341a565b6000806040838503121561347b57600080fd5b6134848361303b565b91506020830135801515811461349957600080fd5b809150509250929050565b634e487b7160e01b600052602160045260246000fd5b60208101600683106134dc57634e487b7160e01b600052602160045260246000fd5b91905290565b600080604083850312156134f557600080fd5b6134fe8361303b565b915061350c6020840161303b565b90509250929050565b60008083601f84011261352757600080fd5b50813567ffffffffffffffff81111561353f57600080fd5b6020830191508360208260051b850101111561355a57600080fd5b9250929050565b6000806000806040858703121561357757600080fd5b843567ffffffffffffffff8082111561358f57600080fd5b61359b88838901613515565b909650945060208701359150808211156135b457600080fd5b506135c187828801613515565b95989497509550505050565b600080600080600060a086880312156135e557600080fd5b6135ee8661303b565b94506135fc6020870161303b565b93506040860135925060608601359150608086013567ffffffffffffffff81111561362657600080fd5b61333288828901613225565b600181811c9082168061364657607f821691505b60208210810361366657634e487b7160e01b600052602260045260246000fd5b50919050565b6020808252600f908201526e496e76616c6964206f7574636f6d6560881b604082015260600190565b634e487b7160e01b600052601160045260246000fd5b6000600160ff1b82016136c0576136c0613695565b5060000390565b808202811582820484141761074457610744613695565b6000826136fb57634e487b7160e01b600052601260045260246000fd5b500490565b8181038181111561074457610744613695565b8082018082111561074457610744613695565b6020808252600a90820152694e6f74206f7261636c6560b01b604082015260600190565b818103600083128015838313168383128216171561376a5761376a613695565b5092915050565b634e487b7160e01b600052603260045260246000fd5b80820182811260008312801582168215821617156137a7576137a7613695565b505092915050565b6000600182016137c1576137c1613695565b5060010190565b60208082526013908201527210dbdb9d195cdd081b9bdd081cd95d1d1b1959606a1b604082015260600190565b60006020828403121561380757600080fd5b5051919050565b634e487b7160e01b600052603160045260246000fd5b6040808252810184905260008560608301825b87811015613865576001600160a01b036138508461303b565b16825260209283019290910190600101613837565b5083810360208501528481526001600160fb1b0385111561388557600080fd5b8460051b915081866020830137016020019695505050505050565b6040815260006138b3604083018561341a565b82810360208401526138c5818561341a565b95945050505050565b6001600160a01b03868116825285166020820152604081018490526060810183905260a060808201819052600090613908908301846130d4565b979650505050505050565b60006020828403121561392557600080fd5b81516130b481613081565b6001600160a01b0386811682528516602082015260a06040820181905260009061395c9083018661341a565b828103606084015261396e818661341a565b9050828103608084015261398281856130d4565b9897505050505050505056fea2646970667358221220860db6f42a110823c98da46da60dc21ceb06883e436bf8d9ec279f4f5e14b5f664736f6c63430008140033","linkReferences":{}},"methodIdentifiers":{"BPS_DENOMINATOR()":"e1a45218","PRICE_PRECISION()":"95082d25","SPECTATOR_ENTRY_FEE_BPS()":"fc810d7d","accumulatedPrizeBonus()":"32e6190b","activateContest()":"24f9cc4c","addPrediction(uint256,uint256)":"2e0ec188","balanceOf(address,uint256)":"00fdd58e","balanceOfBatch(address[],uint256[])":"4e1273f4","calculateOutcomePrice(uint256)":"11c5c792","cancelContest()":"1db0e667","cancelExpired()":"a01e4a1f","claimContestPayout()":"a9adb0fd","claimPredictionPayout(uint256)":"a56964ab","closePredictions()":"5a9855c3","contestantBonuses(address)":"fc6cc4a3","contestantDepositAmount()":"1f85354a","contestants(uint256)":"dfd50f52","demandSensitivityBps()":"693b4660","distributeExpiredContest()":"98e1eac3","expiryTimestamp()":"ade6e2aa","finalContestantPayouts(address)":"85c6c959","getContestantAtIndex(uint256)":"f0014e13","getContestantsCount()":"8f466eaf","getSpectatorAtIndex(uint256)":"a450fe44","getSpectatorsCount()":"964766a5","isApprovedForAll(address,address)":"e985e9c5","isContestant(address)":"5a701e1e","isSpectator(address)":"3c9c73ed","joinContest()":"26bec2de","leaveContest()":"bf7753a2","liquidityParameter()":"3a69a1be","netPosition(uint256)":"6932b382","oracle()":"7dc0d1d0","oracleFeeBps()":"5c76fda7","paymentToken()":"3013ce29","safeBatchTransferFrom(address,address,uint256[],uint256[],bytes)":"2eb2c2d6","safeTransferFrom(address,address,uint256,uint256,bytes)":"f242432a","setApprovalForAll(address,bool)":"a22cb465","settleContest(address[],uint256[])":"f010e12d","spectatorMarketResolved()":"7bc09bad","spectatorTotalDeposited(address)":"e8f45ab2","spectatorWinningOutcome()":"5508bd6b","spectators(uint256)":"a5877e19","state()":"c19d93fb","supportsInterface(bytes4)":"01ffc9a7","totalContestantDeposits()":"7b8488ea","totalSpectatorCollateral()":"f1d57067","totalVolumeOnContestant(address)":"84e0d1b4","uri(uint256)":"0e89341c","withdrawPrediction(uint256,uint256)":"22fc1d0a"},"id":44}