{"abi":[{"type":"constructor","inputs":[{"name":"_paymentToken","type":"address","internalType":"address"},{"name":"_oracle","type":"address","internalType":"address"},{"name":"_contestantDepositAmount","type":"uint256","internalType":"uint256"},{"name":"_oracleFeeBps","type":"uint256","internalType":"uint256"},{"name":"_expiryTimestamp","type":"uint256","internalType":"uint256"},{"name":"_liquidityParameter","type":"uint256","internalType":"uint256"},{"name":"_demandSensitivityBps","type":"uint256","internalType":"uint256"},{"name":"_prizeShareBps","type":"uint256","internalType":"uint256"},{"name":"_userShareBps","type":"uint256","internalType":"uint256"}],"stateMutability":"nonpayable"},{"type":"function","name":"BPS_DENOMINATOR","inputs":[],"outputs":[{"name":"","type":"uint256","internalType":"uint256"}],"stateMutability":"view"},{"type":"function","name":"PRICE_PRECISION","inputs":[],"outputs":[{"name":"","type":"uint256","internalType":"uint256"}],"stateMutability":"view"},{"type":"function","name":"accumulatedOracleFee","inputs":[],"outputs":[{"name":"","type":"uint256","internalType":"uint256"}],"stateMutability":"view"},{"type":"function","name":"activateContest","inputs":[],"outputs":[],"stateMutability":"nonpayable"},{"type":"function","name":"addPrediction","inputs":[{"name":"entryId","type":"uint256","internalType":"uint256"},{"name":"amount","type":"uint256","internalType":"uint256"}],"outputs":[],"stateMutability":"nonpayable"},{"type":"function","name":"balanceOf","inputs":[{"name":"account","type":"address","internalType":"address"},{"name":"id","type":"uint256","internalType":"uint256"}],"outputs":[{"name":"","type":"uint256","internalType":"uint256"}],"stateMutability":"view"},{"type":"function","name":"balanceOfBatch","inputs":[{"name":"accounts","type":"address[]","internalType":"address[]"},{"name":"ids","type":"uint256[]","internalType":"uint256[]"}],"outputs":[{"name":"","type":"uint256[]","internalType":"uint256[]"}],"stateMutability":"view"},{"type":"function","name":"calculateEntryPrice","inputs":[{"name":"entryId","type":"uint256","internalType":"uint256"}],"outputs":[{"name":"","type":"uint256","internalType":"uint256"}],"stateMutability":"view"},{"type":"function","name":"cancelContest","inputs":[],"outputs":[],"stateMutability":"nonpayable"},{"type":"function","name":"cancelExpired","inputs":[],"outputs":[],"stateMutability":"nonpayable"},{"type":"function","name":"claimEntryPayout","inputs":[{"name":"entryId","type":"uint256","internalType":"uint256"}],"outputs":[],"stateMutability":"nonpayable"},{"type":"function","name":"claimOracleFee","inputs":[],"outputs":[],"stateMutability":"nonpayable"},{"type":"function","name":"claimPredictionPayout","inputs":[{"name":"entryId","type":"uint256","internalType":"uint256"}],"outputs":[],"stateMutability":"nonpayable"},{"type":"function","name":"closePredictions","inputs":[],"outputs":[],"stateMutability":"nonpayable"},{"type":"function","name":"contestPrizePool","inputs":[],"outputs":[{"name":"","type":"uint256","internalType":"uint256"}],"stateMutability":"view"},{"type":"function","name":"contestPrizePoolSubsidy","inputs":[],"outputs":[{"name":"","type":"uint256","internalType":"uint256"}],"stateMutability":"view"},{"type":"function","name":"contestantDepositAmount","inputs":[],"outputs":[{"name":"","type":"uint256","internalType":"uint256"}],"stateMutability":"view"},{"type":"function","name":"contestantSubsidy","inputs":[{"name":"","type":"uint256","internalType":"uint256"}],"outputs":[{"name":"","type":"uint256","internalType":"uint256"}],"stateMutability":"view"},{"type":"function","name":"demandSensitivityBps","inputs":[],"outputs":[{"name":"","type":"uint256","internalType":"uint256"}],"stateMutability":"view"},{"type":"function","name":"entries","inputs":[{"name":"","type":"uint256","internalType":"uint256"}],"outputs":[{"name":"","type":"uint256","internalType":"uint256"}],"stateMutability":"view"},{"type":"function","name":"entryOwner","inputs":[{"name":"","type":"uint256","internalType":"uint256"}],"outputs":[{"name":"","type":"address","internalType":"address"}],"stateMutability":"view"},{"type":"function","name":"entryWithdrawn","inputs":[{"name":"","type":"uint256","internalType":"uint256"}],"outputs":[{"name":"","type":"bool","internalType":"bool"}],"stateMutability":"view"},{"type":"function","name":"expiryTimestamp","inputs":[],"outputs":[{"name":"","type":"uint256","internalType":"uint256"}],"stateMutability":"view"},{"type":"function","name":"finalEntryPayouts","inputs":[{"name":"","type":"uint256","internalType":"uint256"}],"outputs":[{"name":"","type":"uint256","internalType":"uint256"}],"stateMutability":"view"},{"type":"function","name":"getEntriesCount","inputs":[],"outputs":[{"name":"","type":"uint256","internalType":"uint256"}],"stateMutability":"view"},{"type":"function","name":"getEntryAtIndex","inputs":[{"name":"index","type":"uint256","internalType":"uint256"}],"outputs":[{"name":"","type":"uint256","internalType":"uint256"}],"stateMutability":"view"},{"type":"function","name":"getSpectatorAtIndex","inputs":[{"name":"index","type":"uint256","internalType":"uint256"}],"outputs":[{"name":"","type":"address","internalType":"address"}],"stateMutability":"view"},{"type":"function","name":"getSpectatorsCount","inputs":[],"outputs":[{"name":"","type":"uint256","internalType":"uint256"}],"stateMutability":"view"},{"type":"function","name":"getUserEntriesCount","inputs":[{"name":"user","type":"address","internalType":"address"}],"outputs":[{"name":"","type":"uint256","internalType":"uint256"}],"stateMutability":"view"},{"type":"function","name":"getUserEntryAtIndex","inputs":[{"name":"user","type":"address","internalType":"address"},{"name":"index","type":"uint256","internalType":"uint256"}],"outputs":[{"name":"","type":"uint256","internalType":"uint256"}],"stateMutability":"view"},{"type":"function","name":"isApprovedForAll","inputs":[{"name":"account","type":"address","internalType":"address"},{"name":"operator","type":"address","internalType":"address"}],"outputs":[{"name":"","type":"bool","internalType":"bool"}],"stateMutability":"view"},{"type":"function","name":"isSpectator","inputs":[{"name":"","type":"address","internalType":"address"}],"outputs":[{"name":"","type":"bool","internalType":"bool"}],"stateMutability":"view"},{"type":"function","name":"joinContest","inputs":[{"name":"entryId","type":"uint256","internalType":"uint256"}],"outputs":[],"stateMutability":"nonpayable"},{"type":"function","name":"leaveContest","inputs":[{"name":"entryId","type":"uint256","internalType":"uint256"}],"outputs":[],"stateMutability":"nonpayable"},{"type":"function","name":"liquidityParameter","inputs":[],"outputs":[{"name":"","type":"uint256","internalType":"uint256"}],"stateMutability":"view"},{"type":"function","name":"netPosition","inputs":[{"name":"","type":"uint256","internalType":"uint256"}],"outputs":[{"name":"","type":"int256","internalType":"int256"}],"stateMutability":"view"},{"type":"function","name":"oracle","inputs":[],"outputs":[{"name":"","type":"address","internalType":"address"}],"stateMutability":"view"},{"type":"function","name":"oracleFeeBps","inputs":[],"outputs":[{"name":"","type":"uint256","internalType":"uint256"}],"stateMutability":"view"},{"type":"function","name":"paymentToken","inputs":[],"outputs":[{"name":"","type":"address","internalType":"contract IERC20"}],"stateMutability":"view"},{"type":"function","name":"predictionPrizePool","inputs":[],"outputs":[{"name":"","type":"uint256","internalType":"uint256"}],"stateMutability":"view"},{"type":"function","name":"prizeShareBps","inputs":[],"outputs":[{"name":"","type":"uint256","internalType":"uint256"}],"stateMutability":"view"},{"type":"function","name":"pushContestantPayouts","inputs":[{"name":"entryIds","type":"uint256[]","internalType":"uint256[]"}],"outputs":[],"stateMutability":"nonpayable"},{"type":"function","name":"pushSpectatorPayouts","inputs":[{"name":"spectatorAddresses","type":"address[]","internalType":"address[]"},{"name":"entryId","type":"uint256","internalType":"uint256"}],"outputs":[],"stateMutability":"nonpayable"},{"type":"function","name":"safeBatchTransferFrom","inputs":[{"name":"from","type":"address","internalType":"address"},{"name":"to","type":"address","internalType":"address"},{"name":"ids","type":"uint256[]","internalType":"uint256[]"},{"name":"values","type":"uint256[]","internalType":"uint256[]"},{"name":"data","type":"bytes","internalType":"bytes"}],"outputs":[],"stateMutability":"nonpayable"},{"type":"function","name":"safeTransferFrom","inputs":[{"name":"from","type":"address","internalType":"address"},{"name":"to","type":"address","internalType":"address"},{"name":"id","type":"uint256","internalType":"uint256"},{"name":"value","type":"uint256","internalType":"uint256"},{"name":"data","type":"bytes","internalType":"bytes"}],"outputs":[],"stateMutability":"nonpayable"},{"type":"function","name":"setApprovalForAll","inputs":[{"name":"operator","type":"address","internalType":"address"},{"name":"approved","type":"bool","internalType":"bool"}],"outputs":[],"stateMutability":"nonpayable"},{"type":"function","name":"settleContest","inputs":[{"name":"winningEntries","type":"uint256[]","internalType":"uint256[]"},{"name":"payoutBps","type":"uint256[]","internalType":"uint256[]"}],"outputs":[],"stateMutability":"nonpayable"},{"type":"function","name":"spectatorDepositedPerEntry","inputs":[{"name":"","type":"address","internalType":"address"},{"name":"","type":"uint256","internalType":"uint256"}],"outputs":[{"name":"","type":"uint256","internalType":"uint256"}],"stateMutability":"view"},{"type":"function","name":"spectatorMarketResolved","inputs":[],"outputs":[{"name":"","type":"bool","internalType":"bool"}],"stateMutability":"view"},{"type":"function","name":"spectatorWinningEntry","inputs":[],"outputs":[{"name":"","type":"uint256","internalType":"uint256"}],"stateMutability":"view"},{"type":"function","name":"spectators","inputs":[{"name":"","type":"uint256","internalType":"uint256"}],"outputs":[{"name":"","type":"address","internalType":"address"}],"stateMutability":"view"},{"type":"function","name":"state","inputs":[],"outputs":[{"name":"","type":"uint8","internalType":"enum Contest.ContestState"}],"stateMutability":"view"},{"type":"function","name":"supportsInterface","inputs":[{"name":"interfaceId","type":"bytes4","internalType":"bytes4"}],"outputs":[{"name":"","type":"bool","internalType":"bool"}],"stateMutability":"view"},{"type":"function","name":"sweepToTreasury","inputs":[],"outputs":[],"stateMutability":"nonpayable"},{"type":"function","name":"uri","inputs":[{"name":"","type":"uint256","internalType":"uint256"}],"outputs":[{"name":"","type":"string","internalType":"string"}],"stateMutability":"view"},{"type":"function","name":"userEntries","inputs":[{"name":"","type":"address","internalType":"address"},{"name":"","type":"uint256","internalType":"uint256"}],"outputs":[{"name":"","type":"uint256","internalType":"uint256"}],"stateMutability":"view"},{"type":"function","name":"userShareBps","inputs":[],"outputs":[{"name":"","type":"uint256","internalType":"uint256"}],"stateMutability":"view"},{"type":"function","name":"withdrawPrediction","inputs":[{"name":"entryId","type":"uint256","internalType":"uint256"},{"name":"tokenAmount","type":"uint256","internalType":"uint256"}],"outputs":[],"stateMutability":"nonpayable"},{"type":"event","name":"ApprovalForAll","inputs":[{"name":"account","type":"address","indexed":true,"internalType":"address"},{"name":"operator","type":"address","indexed":true,"internalType":"address"},{"name":"approved","type":"bool","indexed":false,"internalType":"bool"}],"anonymous":false},{"type":"event","name":"ContestActivated","inputs":[],"anonymous":false},{"type":"event","name":"ContestCancelled","inputs":[],"anonymous":false},{"type":"event","name":"ContestSettled","inputs":[{"name":"winningEntries","type":"uint256[]","indexed":false,"internalType":"uint256[]"},{"name":"payouts","type":"uint256[]","indexed":false,"internalType":"uint256[]"}],"anonymous":false},{"type":"event","name":"EntryDeposited","inputs":[{"name":"owner","type":"address","indexed":true,"internalType":"address"},{"name":"entryId","type":"uint256","indexed":true,"internalType":"uint256"}],"anonymous":false},{"type":"event","name":"EntryPayoutClaimed","inputs":[{"name":"owner","type":"address","indexed":true,"internalType":"address"},{"name":"entryId","type":"uint256","indexed":true,"internalType":"uint256"},{"name":"amount","type":"uint256","indexed":false,"internalType":"uint256"}],"anonymous":false},{"type":"event","name":"EntryWithdrawn","inputs":[{"name":"entryId","type":"uint256","indexed":true,"internalType":"uint256"},{"name":"owner","type":"address","indexed":true,"internalType":"address"},{"name":"spectatorsRefunded","type":"uint256","indexed":false,"internalType":"uint256"}],"anonymous":false},{"type":"event","name":"PredictionAdded","inputs":[{"name":"spectator","type":"address","indexed":true,"internalType":"address"},{"name":"entryId","type":"uint256","indexed":true,"internalType":"uint256"},{"name":"amount","type":"uint256","indexed":false,"internalType":"uint256"},{"name":"tokensReceived","type":"uint256","indexed":false,"internalType":"uint256"}],"anonymous":false},{"type":"event","name":"PredictionWithdrawn","inputs":[{"name":"spectator","type":"address","indexed":true,"internalType":"address"},{"name":"amount","type":"uint256","indexed":false,"internalType":"uint256"}],"anonymous":false},{"type":"event","name":"PredictionsClosed","inputs":[],"anonymous":false},{"type":"event","name":"SpectatorPayoutRedeemed","inputs":[{"name":"spectator","type":"address","indexed":true,"internalType":"address"},{"name":"entryId","type":"uint256","indexed":true,"internalType":"uint256"},{"name":"payout","type":"uint256","indexed":false,"internalType":"uint256"}],"anonymous":false},{"type":"event","name":"TransferBatch","inputs":[{"name":"operator","type":"address","indexed":true,"internalType":"address"},{"name":"from","type":"address","indexed":true,"internalType":"address"},{"name":"to","type":"address","indexed":true,"internalType":"address"},{"name":"ids","type":"uint256[]","indexed":false,"internalType":"uint256[]"},{"name":"values","type":"uint256[]","indexed":false,"internalType":"uint256[]"}],"anonymous":false},{"type":"event","name":"TransferSingle","inputs":[{"name":"operator","type":"address","indexed":true,"internalType":"address"},{"name":"from","type":"address","indexed":true,"internalType":"address"},{"name":"to","type":"address","indexed":true,"internalType":"address"},{"name":"id","type":"uint256","indexed":false,"internalType":"uint256"},{"name":"value","type":"uint256","indexed":false,"internalType":"uint256"}],"anonymous":false},{"type":"event","name":"URI","inputs":[{"name":"value","type":"string","indexed":false,"internalType":"string"},{"name":"id","type":"uint256","indexed":true,"internalType":"uint256"}],"anonymous":false},{"type":"error","name":"ERC1155InsufficientBalance","inputs":[{"name":"sender","type":"address","internalType":"address"},{"name":"balance","type":"uint256","internalType":"uint256"},{"name":"needed","type":"uint256","internalType":"uint256"},{"name":"tokenId","type":"uint256","internalType":"uint256"}]},{"type":"error","name":"ERC1155InvalidApprover","inputs":[{"name":"approver","type":"address","internalType":"address"}]},{"type":"error","name":"ERC1155InvalidArrayLength","inputs":[{"name":"idsLength","type":"uint256","internalType":"uint256"},{"name":"valuesLength","type":"uint256","internalType":"uint256"}]},{"type":"error","name":"ERC1155InvalidOperator","inputs":[{"name":"operator","type":"address","internalType":"address"}]},{"type":"error","name":"ERC1155InvalidReceiver","inputs":[{"name":"receiver","type":"address","internalType":"address"}]},{"type":"error","name":"ERC1155InvalidSender","inputs":[{"name":"sender","type":"address","internalType":"address"}]},{"type":"error","name":"ERC1155MissingApprovalForAll","inputs":[{"name":"operator","type":"address","internalType":"address"},{"name":"owner","type":"address","internalType":"address"}]},{"type":"error","name":"ReentrancyGuardReentrantCall","inputs":[]},{"type":"error","name":"SafeERC20FailedOperation","inputs":[{"name":"token","type":"address","internalType":"address"}]}],"bytecode":{"object":"0x6101a0346200050757620047476001600160401b03601f38839003908101601f191684019082821185831017620004f1578085946040938452853961012093849181010312620005075762000054846200050c565b602091620000648387016200050c565b81870151606088015160808901519160a08a01519360c08b01519660e08c015198610100809d01519a8851908282019082821090821117620004f157895260008091526002546001908181811c91168015620004e6575b84821014620004d257601f8111620004a3575b5060028290556003556001600160a01b039283169283156200045f578416156200042a578415620003e6576103e88611620003a257428711156200036d578715620003295761271090818b11620002e5578c8c0190818d11620002d15750116200028e575060805260a05260c05260e0528752855261014091825261016092835261018093845260ff19600454166004555193614225958662000522873960805186818161060f01528181610bc101528181610ef6015281816111dc0152818161129c01528181611bcf01528181611d36015281816121f30152818161256c015281816129550152612b56015260a0518681816108d801528181610c490152818161121f015281816115ff0152818161197d01528181611cf001528181611dd20152818161246501526127f1015260c051868181610573015281816109a70152611b5e015260e0518681816105a301528181610af301528181610e0601528181611a4c0152611b8e01525185818161126001528181611ad901528181611ea001526123b301525184818161139f015261377f015251838181611c93015261375801525182818161200f0152613a430152518181816119420152613a6f0152f35b60649088519062461bcd60e51b82526004820152601660248201527f546f74616c2066656573206578636565642031303025000000000000000000006044820152fd5b634e487b7160e01b81526011600452602490fd5b895162461bcd60e51b815260048101849052601a60248201527f496e76616c69642064656d616e642073656e73697469766974790000000000006044820152606490fd5b885162461bcd60e51b815260048101839052601b60248201527f496e76616c6964206c697175696469747920706172616d6574657200000000006044820152606490fd5b885162461bcd60e51b815260048101839052600e60248201526d115e1c1a5c9e481a5b881c185cdd60921b6044820152606490fd5b885162461bcd60e51b815260048101839052601360248201527f4f7261636c652066656520746f6f2068696768000000000000000000000000006044820152606490fd5b885162461bcd60e51b815260048101839052601660248201527f496e76616c6964206465706f73697420616d6f756e74000000000000000000006044820152606490fd5b885162461bcd60e51b815260048101839052600e60248201526d496e76616c6964206f7261636c6560901b6044820152606490fd5b895162461bcd60e51b815260048101849052601560248201527f496e76616c6964207061796d656e7420746f6b656e00000000000000000000006044820152606490fd5b6002835281601f858520920160051c8201915b828110620004c6575050620000ce565b848155018290620004b6565b634e487b7160e01b83526022600452602483fd5b90607f1690620000bb565b634e487b7160e01b600052604160045260246000fd5b600080fd5b51906001600160a01b0382168203620005075756fe6080604052600436101561001257600080fd5b60003560e01c8062fdd58e146103b657806301ffc9a7146103b157806307b19bfb146103ac5780630b913af0146103a75780630e89341c146103a257806317dd92581461039d5780631db0e667146103985780631f85354a1461039357806322fc1d0a1461038e57806324f9cc4c146103895780632e0ec188146103845780632eb2c2d61461037f5780633013ce291461037a578063362433ca14610375578063375bef8b146103705780633a69a1be1461036b5780633c9c73ed146103665780634c60b1f1146103615780634e1273f41461035c5780634ee837a614610357578063563930e71461035257806359fe5d681461034d5780635a3e4e9e146103485780635a9855c3146103435780635c76fda71461033e5780635d6e6c7c1461033957806367a89a3b146103345780636932b3821461032f578063693b46601461032a57806378449d57146103255780637ae45fe3146103205780637bc09bad1461031b5780637dc0d1d0146103165780638c13d5461461031157806395082d251461030c578063964766a514610307578063a006b46814610302578063a01e4a1f146102fd578063a22cb465146102f8578063a422f348146102f3578063a450fe44146102ee578063a56964ab146102e9578063a5877e19146102e4578063ade6e2aa146102df578063b30906d4146102da578063bdd74d07146102d5578063c19d93fb146102d0578063c9a496aa146102cb578063d09685b0146102c6578063de11c839146102c1578063df1ef4c6146102bc578063e1a45218146102b7578063e1f370dd146102b2578063e70baa89146102ad578063e985e9c5146102a8578063ec9ff062146102a3578063f242432a1461029e5763f8c5992b1461029957600080fd5b612ac5565b6129a0565b6127ad565b612745565b6126fa565b6126d4565b6126b7565b612683565b612665565b612647565b6125ed565b6125c3565b612427565b6123d6565b61239b565b612340565b612096565b612032565b611ff7565b611f37565b611e8c565b611e6e565b611e50565b611e32565b611e01565b611dbc565b611d99565b611cd4565b611cb6565b611c7b565b611c4f565b611c23565b611a6f565b611a34565b611965565b61192a565b6118ed565b6115ac565b61155e565b6114a3565b611404565b6113c2565b611387565b61135b565b61120b565b6111c6565b61109b565b610d15565b610c31565b6109ca565b61098f565b6108c0565b6108a2565b61079c565b6106ec565b6104a2565b610434565b6103d1565b6001600160a01b038116036103cc57565b600080fd5b346103cc5760403660031901126103cc5760206104196004356103f3816103bb565b6024356000526000835260406000209060018060a01b0316600052602052604060002090565b54604051908152f35b6001600160e01b03198116036103cc57565b346103cc5760203660031901126103cc57602060043561045381610422565b63ffffffff60e01b16636cdb3d1360e11b8114908115610491575b8115610480575b506040519015158152f35b6301ffc9a760e01b14905038610475565b6303a24d0760e21b8114915061046e565b346103cc5760203660031901126103cc576004356104be613448565b6104e66104cd60045460ff1690565b6104d6816125a3565b80159081156106a5575b5061346b565b61051d61050d610500836000526006602052604060002090565b546001600160a01b031690565b6001600160a01b031633146134d0565b61054a61054561054161053a846000526007602052604060002090565b5460ff1690565b1590565b61350e565b61056e610561826000526007602052604060002090565b805460ff19166001179055565b6106337f00000000000000000000000000000000000000000000000000000000000000006105f06105eb6105e36127106105c87f000000000000000000000000000000000000000000000000000000000000000086613633565b046105dd6105d882601454613385565b601455565b84613385565b600854613385565b600855565b610604836000526010602052604060002090565b5480610674575b50337f000000000000000000000000000000000000000000000000000000000000000061355a565b604051600081523391907fa0eeb808a10f56b15221fb8aeefb2b8cf677a82e4924d099bd08659179f2ead09080602081015b0390a36106726001600355565b005b61069a61069f916000610691876000526010602052604060002090565b55600f54612ec0565b600f55565b3861060b565b600491506106b2816125a3565b14386104e0565b634e487b7160e01b600052603260045260246000fd5b80548210156106e75760005260206000200190600090565b6106b9565b346103cc5760403660031901126103cc57600435610709816103bb565b6001600160a01b03166000908152600a60205260409020805460243591908210156103cc5760209161073a916106cf565b90546040519160031b1c8152f35b919082519283825260005b848110610774575050826000602080949584010152601f8019910116010190565b602081830181015184830182015201610753565b906020610799928181520190610748565b90565b346103cc576020806003193601126103cc576040519060009060025460019181831c92808316928315610898575b8285108414610884578487526020870193908115610865575060011461080b575b610807866107fb81880382610fa3565b60405191829182610788565b0390f35b6002600090815294509192917f405787fa12a823e0f2b7631cc41b3ba8828b3321ca811111fa75cd3aa3bb5ace5b83861061085457505050910190506107fb82610807386107eb565b805485870152948201948101610839565b60ff1916845250505090151560051b0190506107fb82610807386107eb565b634e487b7160e01b86526022600452602486fd5b93607f16936107ca565b346103cc5760003660031901126103cc576020600f54604051908152f35b346103cc5760008060031936011261098c57610906337f00000000000000000000000000000000000000000000000000000000000000006001600160a01b0316146135a9565b60ff6004541660068110156109785780600361092b9214159081610963575b5061409e565b61093c600460ff1981541617600455565b7f9237e8f0d5063a695b8695e82c82bc24d15591de9d04449771a6ea4b128317378180a180f35b60059150610970816125a3565b141538610925565b634e487b7160e01b82526021600452602482fd5b80fd5b346103cc5760003660031901126103cc5760206040517f00000000000000000000000000000000000000000000000000000000000000008152f35b346103cc5760403660031901126103cc57602435610bad6004356109ec613448565b610a146109fb60045460ff1690565b610a04816125a3565b8015908115610c1d575b50613aad565b6000818152600660205260409020610a40906001600160a01b0390610a3890610500565b161515613666565b610a4b831515613832565b610a8683610a7e33610a67856000526000602052604060002090565b9060018060a01b0316600052602052604060002090565b541015613b12565b610b99610b9461069a610ae1610aaa33610a67876000526000602052604060002090565b54336000908152601160205260409020610adc908990610ad69089905b90600052602052604060002090565b54613633565b613646565b95610b6b610b33610b2e612710610b187f00000000000000000000000000000000000000000000000000000000000000008c613633565b04610b286105d882601454613385565b8a613385565b613a39565b94919093610b42818a33613b6e565b610b61610b598a600052600d602052604060002090565b918254613b55565b9055600f54613385565b610b8a610b82866000526010602052604060002090565b918254613385565b9055600e54613385565b600e55565b336000908152601160205260409020610ac7565b610bb8828254613385565b9055610be581337f000000000000000000000000000000000000000000000000000000000000000061355a565b60405190815233907f9cb65bacdb5e304250d6133102b1ff3d8c1334b18125cd716921b31fc163aeea90602090a26106726001600355565b60049150610c2a816125a3565b1438610a0e565b346103cc5760008060031936011261098c57610c77337f00000000000000000000000000000000000000000000000000000000000000006001600160a01b0316146135a9565b60ff60045416600681101561097857610cd057610c9760055415156135e2565b610ca9600160ff196004541617600455565b7f3927b788a62eb53f7192cd9286f49295f01b938b6afc23aef0af5d035cd853168180a180f35b60405162461bcd60e51b815260206004820152601760248201527f436f6e7465737420616c726561647920737461727465640000000000000000006044820152606490fd5b346103cc5760403660031901126103cc57600435602435610d34613448565b610d5c610d4360045460ff1690565b610d4c816125a3565b8015908115610f59575b506137e6565b6000828152600660205260409020610d80906001600160a01b0390610a3890610500565b610da2610d9d61054161053a856000526007602052604060002090565b6136a9565b610dad811515613832565b336000908152600c60205260409020610dc9906105419061053a565b610f33575b7f0a9c87fe11971c997b7c38f2c1f9f0ceef6eaf02052d9620b38466c4a1ef2c73610665610e4e61069a610e41610b2e612710610e2b7f000000000000000000000000000000000000000000000000000000000000000089613633565b04610e3b6105d882601454612ec0565b87613385565b9391600f93919354612ec0565b610e6d610e65876000526010602052604060002090565b918254612ec0565b9055336000908152601160205260409020610e89908690610ac7565b610e94858254612ec0565b9055610eee610b94610eb1610ea8886136e7565b610adc8561361b565b92610ec5610ebd612f77565b858a336138f3565b610ed988600052600d602052604060002090565b610ee48582546138d7565b9055600e54612ec0565b610f1a8430337f0000000000000000000000000000000000000000000000000000000000000000613392565b6040805194855260208501919091523393918291820190565b610f3c33613873565b336000908152600c60205260409020610f5490610561565b610dce565b60019150610f66816125a3565b1438610d56565b634e487b7160e01b600052604160045260246000fd5b602081019081106001600160401b03821117610f9e57604052565b610f6d565b90601f801991011681019081106001600160401b03821117610f9e57604052565b6001600160401b038111610f9e5760051b60200190565b81601f820112156103cc57803591610ff283610fc4565b926110006040519485610fa3565b808452602092838086019260051b8201019283116103cc578301905b82821061102a575050505090565b8135815290830190830161101c565b6001600160401b038111610f9e57601f01601f191660200190565b81601f820112156103cc5780359061106b82611039565b926110796040519485610fa3565b828452602083830101116103cc57816000926020809301838601378301015290565b346103cc5760a03660031901126103cc57600480356110b9816103bb565b6024356110c5816103bb565b6001600160401b03906044358281116103cc576110e59036908601610fdb565b906064358381116103cc576110fd9036908701610fdb565b926084359081116103cc576111159036908701611054565b936001600160a01b038082169033821415806111a2575b6111755783161561115d5715611146576106729550612cb1565b604051626a0d4560e21b8152600081880152602490fd5b604051632bfa23e760e11b8152600081890152602490fd5b6040805163711bec9160e11b815233818b019081526001600160a01b038616602082015290918291010390fd5b50600082815260016020908152604080832033845290915290205460ff161561112c565b346103cc5760003660031901126103cc576040517f00000000000000000000000000000000000000000000000000000000000000006001600160a01b03168152602090f35b346103cc5760008060031936011261098c577f00000000000000000000000000000000000000000000000000000000000000006001600160a01b0361125333828416146135a9565b61125b613448565b6112877f0000000000000000000000000000000000000000000000000000000000000000421015614172565b6040516370a0823160e01b81523060048201527f00000000000000000000000000000000000000000000000000000000000000009290916020908390602490829087165afa918215611356578492611326575b50816112ef575b836112ec6001600355565b80f35b6112f89261355a565b6113026000600e55565b61130c6000601455565b61131e600560ff196004541617600455565b3880806112e1565b61134891925060203d811161134f575b6113408183610fa3565b81019061408f565b90386112da565b503d611336565b612f6b565b346103cc5760203660031901126103cc5760043560005260106020526020604060002054604051908152f35b346103cc5760003660031901126103cc5760206040517f00000000000000000000000000000000000000000000000000000000000000008152f35b346103cc5760203660031901126103cc576004356113df816103bb565b60018060a01b0316600052600c602052602060ff604060002054166040519015158152f35b346103cc5760403660031901126103cc57602061073a600435611426816103bb565b6001600160a01b03166000818152600a84526040902054602435919061144d9083106141b3565b600052600a835260406000206106cf565b90815180825260208080930193019160005b82811061147e575050505090565b835185529381019392810192600101611470565b90602061079992818152019061145e565b346103cc5760403660031901126103cc576004356001600160401b038082116103cc57366023830112156103cc5781600401356114df81610fc4565b926114ed6040519485610fa3565b81845260209160248386019160051b830101913683116103cc57602401905b82821061154557856024358681116103cc5761080791611533611539923690600401610fdb565b90612bec565b60405191829182611492565b8380918335611553816103bb565b81520191019061150c565b346103cc5760003660031901126103cc576020601454604051908152f35b9181601f840112156103cc578235916001600160401b0383116103cc576020808501948460051b0101116103cc57565b346103cc5760403660031901126103cc576001600160401b036004358181116103cc576115dd90369060040161157c565b90916024359081116103cc576115f790369060040161157c565b929061162d337f00000000000000000000000000000000000000000000000000000000000000006001600160a01b0316146135a9565b611635613448565b61165f61164460045460ff1690565b61164d816125a3565b600181149081156118d9575b50613d0a565b61166a831515613d56565b611675848414613da2565b611683600554841115613de6565b6000805b85811061189e575061271061169c9114613e8a565b6116ae600360ff196004541617600455565b6116bd600854600f5490612ec0565b60005b8481106118575750506116dc6116d68484613e25565b35601255565b6116ee600160ff196013541617601355565b611704601254600052600d602052604060002090565b54600e5490811515908161184e575b50611759575b507f0fed27f5e3cd741c181cc0d3b0c47df2013638faa8b7aa7084de3946098eb78e9361174c9160405194859485613efa565b0390a16106726001600355565b6117636000600e55565b6000805b8581106117dc57509181837f0fed27f5e3cd741c181cc0d3b0c47df2013638faa8b7aa7084de3946098eb78e979361174c95106117a9575b5050915093611719565b6117b291613385565b6117d3610e656117c28888613e25565b356000526009602052604060002090565b9055388061179f565b906117e8828787613e2e565b359161180a6118026117fb838b89613e2e565b3586613633565b612710900490565b80611821575b5061181c919250612bc4565b611767565b611845610e656118348361181c96612ec0565b956000526009602052604060002090565b90558291611810565b90501538611713565b80611866611899928787613e2e565b3561189361188261180261187b858c8a613e2e565b3587613633565b916000526009602052604060002090565b55612bc4565b6116c0565b906118ce6118d4916118bc6118b4858a88613e2e565b351515613e3e565b6118c7848987613e2e565b3590612ec0565b91612bc4565b611687565b600291506118e6816125a3565b1438611659565b346103cc5760203660031901126103cc5760043561190a816103bb565b60018060a01b0316600052600a6020526020604060002054604051908152f35b346103cc5760003660031901126103cc5760206040517f00000000000000000000000000000000000000000000000000000000000000008152f35b346103cc5760008060031936011261098c576119ab337f00000000000000000000000000000000000000000000000000000000000000006001600160a01b0316146135a9565b60ff600454166006811015610978576001036119fa576119d3600260ff196004541617600455565b7f91b4dd20084a71e964f322b0044cfe5523abf93f4d02b7e3ed621e1500fd16228180a180f35b60405162461bcd60e51b8152602060048201526012602482015271436f6e74657374206e6f742061637469766560701b6044820152606490fd5b346103cc5760003660031901126103cc5760206040517f00000000000000000000000000000000000000000000000000000000000000008152f35b346103cc5760203660031901126103cc57600435611a8b613448565b611aa9611a9a60045460ff1690565b611aa3816125a3565b15613237565b6000818152600660205260409020611ad4906001600160a01b0390611acd90610500565b1615613276565b611aff7f000000000000000000000000000000000000000000000000000000000000000042106132b9565b611b08816132f7565b611b3f33611b20836000526006602052604060002090565b80546001600160a01b0319166001600160a01b03909216919091179055565b336000908152600a60205260409020611b5990829061333f565b611bf37f0000000000000000000000000000000000000000000000000000000000000000611bcb6105eb611bc3612710611bb37f000000000000000000000000000000000000000000000000000000000000000086613633565b046105dd6105d882601454612ec0565b600854612ec0565b30337f0000000000000000000000000000000000000000000000000000000000000000613392565b337f4d503c0f892472082177d76a3e17f685ac26922907be7d7d9a76d287c75b011a600080a36106726001600355565b346103cc5760203660031901126103cc5760043560005260096020526020604060002054604051908152f35b346103cc5760203660031901126103cc57600435600052600d6020526020604060002054604051908152f35b346103cc5760003660031901126103cc5760206040517f00000000000000000000000000000000000000000000000000000000000000008152f35b346103cc5760003660031901126103cc576020601254604051908152f35b346103cc5760008060031936011261098c57611cee613448565b7f0000000000000000000000000000000000000000000000000000000000000000611d23336001600160a01b038316146135a9565b6014548015611d6257611d5a91836014557f000000000000000000000000000000000000000000000000000000000000000061355a565b600160035580f35b60405162461bcd60e51b815260206004820152600f60248201526e4e6f2066656520746f20636c61696d60881b6044820152606490fd5b346103cc5760003660031901126103cc57602060ff601354166040519015158152f35b346103cc5760003660031901126103cc576040517f00000000000000000000000000000000000000000000000000000000000000006001600160a01b03168152602090f35b346103cc5760203660031901126103cc576004356000526007602052602060ff604060002054166040519015158152f35b346103cc5760003660031901126103cc576020604051620f42408152f35b346103cc5760003660031901126103cc576020600b54604051908152f35b346103cc5760003660031901126103cc576020600e54604051908152f35b346103cc5760008060031936011261098c577f00000000000000000000000000000000000000000000000000000000000000004210611f045761092b611ed460045460ff1690565b611edd816125a3565b60038114159081611eef575b506140ea565b60059150611efc816125a3565b141538611ee9565b60405162461bcd60e51b815260206004820152600b60248201526a139bdd08195e1c1a5c995960aa1b6044820152606490fd5b346103cc5760403660031901126103cc57600435611f54816103bb565b60243590811515908183036103cc576001600160a01b038116928315611fdf57611fa0611fb19233600052600160205260406000209060018060a01b0316600052602052604060002090565b9060ff801983541691151516179055565b6040519081527f17307eab39ab6107e8899845ad3d59bd9653f200f220920489ca2b5937696c3160203392a3005b60405162ced3e160e81b815260006004820152602490fd5b346103cc5760003660031901126103cc5760206040517f00000000000000000000000000000000000000000000000000000000000000008152f35b346103cc5760203660031901126103cc57600435600b548110612054816141b3565b156106e757600b6000527f0175b7a638427703f0dbe7bb9bbf987a2551717b34e79f33b5b1008d1fa01db901546040516001600160a01b039091168152602090f35b346103cc576020806003193601126103cc57600435906120b4613448565b6120d460036120c560045460ff1690565b6120ce816125a3565b14613f21565b6120e86120e360135460ff1690565b613f9b565b60018060a01b039061210b82610a38610500866000526006602052604060002090565b61212d61212861054161053a866000526007602052604060002090565b613fdd565b61214533610a67856000526000602052604060002090565b5491821515916121548361401f565b61215f848633613b6e565b60009360125486146121a2575b604051858152869033907fd661a3227475e550e8171253b7c0e37ede0ff071f017a4c55b647d5a04b5e435908060208101610665565b90919293506121d66121be86600052600d602052604060002090565b546121ca811515614057565b610adc600e5484613633565b93612321575b506040516370a0823160e01b8082523060048301527f0000000000000000000000000000000000000000000000000000000000000000938416918381602481865afa90811561135657600091612304575b508086116122fc575b50846122c5575b61225186600052600d602052604060002090565b5461216c57604051908152306004820152908290829060249082905afa918215611356576000926122a8575b50508061228c575b808061216c565b6122a19161229a6000600e55565b339061355a565b3880612285565b6122be9250803d1061134f576113408183610fa3565b388061227d565b600e5485116122ed576122dd610b9486600e54613385565b6122e885338661355a565b61223d565b6122f76000600e55565b6122dd565b945038612236565b61231b9150843d861161134f576113408183610fa3565b3861222d565b612338610b5986600052600d602052604060002090565b9055386121dc565b346103cc5760203660031901126103cc57600435600b548110156103cc57600b6000527f0175b7a638427703f0dbe7bb9bbf987a2551717b34e79f33b5b1008d1fa01db901546040516001600160a01b039091168152602090f35b346103cc5760003660031901126103cc5760206040517f00000000000000000000000000000000000000000000000000000000000000008152f35b346103cc5760203660031901126103cc576004356005548110156103cc5760209060056000527f036b6384b5eca791c62761152d0c79bb0604c104a5fb6f4eb0703f3154bb3db00154604051908152f35b346103cc5760203660031901126103cc576004356001600160401b0381116103cc5761245790369060040161157c565b6001600160a01b0361248c337f00000000000000000000000000000000000000000000000000000000000000008316146135a9565b612494613448565b6124a560036120c560045460ff1690565b60005b8281106124b9576106726001600355565b806124c8612509928587613e2e565b356124fc6124e0826000526009602052604060002090565b546124f5836000526010602052604060002090565b5490612ec0565b8061250e575b5050612bc4565b6124a8565b6000828152600960205260408120556000828152601060205260408120557f701dad1e38516ac5470bc60eb299368a20c7f2b50f2a5b4bcbd0e5a3a74c186e85612565610500856000526006602052604060002090565b61259084827f000000000000000000000000000000000000000000000000000000000000000061355a565b6040519384521691602090a33880612502565b600611156125ad57565b634e487b7160e01b600052602160045260246000fd5b346103cc5760003660031901126103cc5760ff6004541660405160068210156125ad576020918152f35b346103cc5760203660031901126103cc57600435600554811061260f816141b3565b156106e75760209060056000527f036b6384b5eca791c62761152d0c79bb0604c104a5fb6f4eb0703f3154bb3db00154604051908152f35b346103cc5760003660031901126103cc576020600554604051908152f35b346103cc5760003660031901126103cc576020600854604051908152f35b346103cc5760203660031901126103cc576004356000526006602052602060018060a01b0360406000205416604051908152f35b346103cc5760003660031901126103cc5760206040516127108152f35b346103cc5760203660031901126103cc5760206126f26004356136e7565b604051908152f35b346103cc5760403660031901126103cc57600435612717816103bb565b60018060a01b0316600052601160205260406000206024356000526020526020604060002054604051908152f35b346103cc5760403660031901126103cc57602060ff6127a1600435612769816103bb565b60243590612776826103bb565b60018060a01b03166000526001845260406000209060018060a01b0316600052602052604060002090565b54166040519015158152f35b346103cc576040806003193601126103cc576004356001600160401b0381116103cc576127de90369060040161157c565b91602435906001600160a01b03612818337f00000000000000000000000000000000000000000000000000000000000000008316146135a9565b612820613448565b61283160036120c560045460ff1690565b6128406120e360135460ff1690565b61284d6012548414614128565b61286183600052600d602052604060002090565b549061286e821515614057565b60005b868110612882576106726001600355565b808561289a6128956128c2948b8b613e2e565b614168565b6128b281610a67846000526000602052604060002090565b5490816128c7575b505050612bc4565b612871565b6128d2828483613b6e565b6128e683600052600d602052604060002090565b6128f1838254613b55565b905585600e9161290789610adc85548097613633565b9384612916575b5050506128ba565b7fd661a3227475e550e8171253b7c0e37ede0ff071f017a4c55b647d5a04b5e435938591821161298f5761294e91610b949154613385565b61297984827f000000000000000000000000000000000000000000000000000000000000000061355a565b89519384521691602090a385388085818061290e565b505061299b6000600e55565b61294e565b346103cc5760a03660031901126103cc576004356129bd816103bb565b6024356129c9816103bb565b6084356001600160401b0381116103cc576129e8903690600401611054565b906001600160a01b03838116903382141580612aa1575b612a7a57821615612a615715612a495761067292612a416064356044359160405192600184526020840152604083019160018352606084015260808301604052565b929091612cb1565b604051626a0d4560e21b815260006004820152602490fd5b604051632bfa23e760e11b815260006004820152602490fd5b60405163711bec9160e11b81523360048201526001600160a01b0386166024820152604490fd5b50600082815260016020908152604080832033845290915290205460ff16156129ff565b346103cc5760203660031901126103cc57600435612ae1613448565b612af5600360ff600454166120ce816125a3565b612b0f61050d610500836000526006602052604060002090565b612b266124e0826000526009602052604060002090565b612b31811515613f63565b600082815260096020526040812055600082815260106020526040812055612b7a81337f000000000000000000000000000000000000000000000000000000000000000061355a565b60405190815233907f701dad1e38516ac5470bc60eb299368a20c7f2b50f2a5b4bcbd0e5a3a74c186e908060208101610665565b634e487b7160e01b600052601160045260246000fd5b6000198114612bd35760010190565b612bae565b80518210156106e75760209160051b010190565b91909180518351808203612c8f575050805190612c0882610fc4565b91612c166040519384610fa3565b808352612c25601f1991610fc4565b0190602091368385013760005b8151811015612c8757600581901b8281018401519087018401516000908152602081815260408083206001600160a01b0390941683529290522054612c829190612c7c8287612bd8565b52612bc4565b612c32565b509193505050565b604051635b05999160e01b815260048101919091526024810191909152604490fd5b949190918151845190818103612c8f57505060005b8251811015612db957600581901b83810160209081015191870101516001600160a01b03929186908a8516612d32575b612d08948216612d0d57505050612bc4565b612cc6565b612d2891610a67610e65926000526000602052604060002090565b90553885816128ba565b9192939050612d4f8a610a67846000526000602052604060002090565b54838110612d825791879184612d0896959403612d7a8d610a67856000526000602052604060002090565b559450612cf6565b6040516303dee4c560e01b81526001600160a01b038c16600482015260248101919091526044810184905260648101839052608490fd5b509491939290936001855114600014612e64576020858101518382015160408051928352928201526001600160a01b03838116929086169133917fc3d58168c5ae7397731d063d5bbf3d657854427343f4c083240f7aacaa2d0f6291a45b6001600160a01b038116612e2d575b5050505050565b8451600103612e5357602080612e4996015192015192336130b4565b3880808080612e26565b612e5f94919233613200565b612e49565b6040516001600160a01b03828116919085169033907f4a39dc06d4c0dbc64b70af90fd698a233a518aa5d07e595d983b8c0526c8f7fb9080612ea7888c83612ecd565b0390a4612e17565b90620f4240918201809211612bd357565b91908201809211612bd357565b9091612ee46107999360408452604084019061145e565b91602081840391015261145e565b908160209103126103cc575161079981610422565b909260a0926107999594600180861b0316835260006020840152604083015260608201528160808201520190610748565b919261079995949160a094600180871b038092168552166020840152604083015260608201528160808201520190610748565b6040513d6000823e3d90fd5b60405190612f8482610f83565b60008252565b3d15612fb5573d90612f9b82611039565b91612fa96040519384610fa3565b82523d6000602084013e565b606090565b9293919093843b612fcc575050505050565b602091612fef604051948593849363f23a6e6160e01b9889865260048601612f07565b038160006001600160a01b0388165af160009181613084575b506130475782613016612f8a565b805191908261304057604051632bfa23e760e11b81526001600160a01b0383166004820152602490fd5b9050602001fd5b6001600160e01b0319160361306157503880808080612e26565b604051632bfa23e760e11b81526001600160a01b03919091166004820152602490fd5b6130a691925060203d81116130ad575b61309e8183610fa3565b810190612ef2565b9038613008565b503d613094565b939290949194853b6130c9575b505050505050565b6130ec602093604051958694859463f23a6e6160e01b998a875260048701612f38565b038160006001600160a01b0388165af16000918161312e575b506131135782613016612f8a565b6001600160e01b0319160361306157503880808080806130c1565b61314791925060203d81116130ad5761309e8183610fa3565b9038613105565b9261317d610799959361318b9360018060a01b031686526000602087015260a0604087015260a086019061145e565b90848203606086015261145e565b916080818403910152610748565b9390610799959361317d9161318b9460018060a01b03809216885216602087015260a0604087015260a086019061145e565b9293919093843b6131dd575050505050565b602091612fef604051948593849363bc197c8160e01b988986526004860161314e565b939290949194853b61321457505050505050565b6130ec602093604051958694859463bc197c8160e01b998a875260048701613199565b1561323e57565b60405162461bcd60e51b815260206004820152601060248201526f21b7b73a32b9ba103737ba1037b832b760811b6044820152606490fd5b1561327d57565b60405162461bcd60e51b8152602060048201526014602482015273456e74727920616c72656164792065786973747360601b6044820152606490fd5b156132c057565b60405162461bcd60e51b815260206004820152600f60248201526e10dbdb9d195cdd08195e1c1a5c9959608a1b6044820152606490fd5b600554600160401b811015610f9e5760018101806005558110156106e75760056000527f036b6384b5eca791c62761152d0c79bb0604c104a5fb6f4eb0703f3154bb3db00155565b8054600160401b811015610f9e5761335c916001820181556106cf565b819291549060031b91821b91600019901b1916179055565b90620f4240918203918211612bd357565b91908203918211612bd357565b6040516323b872dd60e01b60208201526001600160a01b03928316602482015292909116604483015260648083019390935291815260a08101918183106001600160401b03841117610f9e576133ea926040526133ec565b565b906000602091828151910182855af115612f6b576000513d61343f57506001600160a01b0381163b155b61341d5750565b604051635274afe760e01b81526001600160a01b039091166004820152602490fd5b60011415613416565b600260035414613459576002600355565b604051633ee5aeb560e01b8152600490fd5b1561347257565b60405162461bcd60e51b815260206004820152603060248201527f43616e6e6f74207769746864726177202d20636f6e7465737420696e2070726f60448201526f19dc995cdcc81bdc881cd95d1d1b195960821b6064820152608490fd5b156134d757565b60405162461bcd60e51b815260206004820152600f60248201526e2737ba1032b73a393c9037bbb732b960891b6044820152606490fd5b1561351557565b60405162461bcd60e51b815260206004820152601760248201527f456e74727920616c72656164792077697468647261776e0000000000000000006044820152606490fd5b60405163a9059cbb60e01b60208201526001600160a01b03909216602483015260448083019390935291815260808101916001600160401b03831182841017610f9e576133ea926040526133ec565b156135b057565b60405162461bcd60e51b815260206004820152600a6024820152694e6f74206f7261636c6560b01b6044820152606490fd5b156135e957565b60405162461bcd60e51b815260206004820152600a6024820152694e6f20656e747269657360b01b6044820152606490fd5b90620f424091828102928184041490151715612bd357565b81810292918115918404141715612bd357565b8115613650570490565b634e487b7160e01b600052601260045260246000fd5b1561366d57565b60405162461bcd60e51b8152602060048201526014602482015273115b9d1c9e48191bd95cc81b9bdd08195e1a5cdd60621b6044820152606490fd5b156136b057565b60405162461bcd60e51b815260206004820152600f60248201526e22b73a393c903bb4ba34323930bbb760891b6044820152606490fd5b600081815260066020526040902054613740919061370f906001600160a01b03161515613666565b61373060ff613728836000526007602052604060002090565b5416156136a9565b600052600d602052604060002090565b5460008082129190826137cd575061377d6137a4915b7f000000000000000000000000000000000000000000000000000000000000000090613633565b7f000000000000000000000000000000000000000000000000000000000000000090613646565b90806137c1575b6137b85761079990612eaf565b61079990613374565b50620f424081106137ab565b600160ff1b8214612bd3576137a49161377d9103613756565b156137ed57565b60405162461bcd60e51b815260206004820152601960248201527f50726564696374696f6e73206e6f7420617661696c61626c65000000000000006044820152606490fd5b1561383957565b60405162461bcd60e51b81526020600482015260126024820152710416d6f756e74206d757374206265203e20360741b6044820152606490fd5b600b54600160401b811015610f9e576001810180600b558110156106e757600b6000527f0175b7a638427703f0dbe7bb9bbf987a2551717b34e79f33b5b1008d1fa01db90180546001600160a01b0319166001600160a01b03909216919091179055565b91909160008382019384129112908015821691151617612bd357565b6001600160a01b03811693929091908415612a615761392f60405192600184526020840152604083019160018352606084015260808301604052565b928151845190818103612c8f57505060005b825181101561398657806139819160051b61397a610e6587610a67602080868b010151958c010151946000526000602052604060002090565b9055612bc4565b613941565b5092919360018251146000146139fd5760208281015184820151604080519283529282015260009133917fc3d58168c5ae7397731d063d5bbf3d657854427343f4c083240f7aacaa2d0f629190a45b80516001036139f357906020806133ea959301519101519133612fba565b6133ea93336131cb565b60006040517f4a39dc06d4c0dbc64b70af90fd698a233a518aa5d07e595d983b8c0526c8f7fb339180613a31888883612ecd565b0390a46139d5565b6127109182613a687f000000000000000000000000000000000000000000000000000000000000000084613633565b0492613a947f000000000000000000000000000000000000000000000000000000000000000084613633565b0491838103908111612bd357828103908111612bd35790565b15613ab457565b60405162461bcd60e51b815260206004820152603060248201527f43616e6e6f74207769746864726177202d20636f6d7065746974696f6e20737460448201526f185c9d1959081bdc881cd95d1d1b195960821b6064820152608490fd5b15613b1957565b60405162461bcd60e51b8152602060048201526014602482015273496e73756666696369656e742062616c616e636560601b6044820152606490fd5b81810392916000138015828513169184121617612bd357565b6001600160a01b038116929091908315612a4957613ba960405192600184526020840152604083019160018352606084015260808301604052565b919060409460008651613bbb81610f83565b528151845190818103613ce957505060005b8251811015613c62578060051b60208082860101519187010151613bff86610a67846000526000602052604060002090565b54818110613c2c5786610a67613c279594936118939303936000526000602052604060002090565b613bcd565b89516303dee4c560e01b81526001600160a01b038816600482015260248101919091526044810182905260648101839052608490fd5b50949060009493925060018151148514613cb75760209081015192810151915192835282015233907fc3d58168c5ae7397731d063d5bbf3d657854427343f4c083240f7aacaa2d0f629080604081015b0390a4565b905133927f4a39dc06d4c0dbc64b70af90fd698a233a518aa5d07e595d983b8c0526c8f7fb928291613cb29183612ecd565b8751635b05999160e01b815260048101919091526024810191909152604490fd5b15613d1157565b60405162461bcd60e51b815260206004820152601c60248201527f436f6e74657374206e6f7420616374697665206f72206c6f636b6564000000006044820152606490fd5b15613d5d57565b60405162461bcd60e51b815260206004820152601d60248201527f4d7573742068617665206174206c65617374206f6e652077696e6e65720000006044820152606490fd5b15613da957565b60405162461bcd60e51b8152602060048201526015602482015274082e4e4c2f240d8cadccee8d040dad2e6dac2e8c6d605b1b6044820152606490fd5b15613ded57565b60405162461bcd60e51b815260206004820152601060248201526f546f6f206d616e792077696e6e65727360801b6044820152606490fd5b90156106e75790565b91908110156106e75760051b0190565b15613e4557565b60405162461bcd60e51b815260206004820152601960248201527f557365206e6f6e2d7a65726f207061796f757473206f6e6c79000000000000006044820152606490fd5b15613e9157565b60405162461bcd60e51b815260206004820152601860248201527f5061796f757473206d7573742073756d20746f203130302500000000000000006044820152606490fd5b81835290916001600160fb1b0383116103cc5760209260051b809284830137010190565b9290613f13906107999593604086526040860191613ed6565b926020818503910152613ed6565b15613f2857565b60405162461bcd60e51b815260206004820152601360248201527210dbdb9d195cdd081b9bdd081cd95d1d1b1959606a1b6044820152606490fd5b15613f6a57565b60405162461bcd60e51b8152602060048201526009602482015268139bc81c185e5bdd5d60ba1b6044820152606490fd5b15613fa257565b60405162461bcd60e51b815260206004820152601360248201527213585c9ad95d081b9bdd081c995cdbdb1d9959606a1b6044820152606490fd5b15613fe457565b60405162461bcd60e51b815260206004820152601360248201527222b73a393c903bb0b9903bb4ba34323930bbb760691b6044820152606490fd5b1561402657565b60405162461bcd60e51b81526020600482015260096024820152684e6f20746f6b656e7360b81b6044820152606490fd5b1561405e57565b60405162461bcd60e51b81526020600482015260096024820152684e6f20737570706c7960b81b6044820152606490fd5b908160209103126103cc575190565b156140a557565b60405162461bcd60e51b815260206004820152601f60248201527f436f6e7465737420736574746c6564202d2063616e6e6f742063616e63656c006044820152606490fd5b156140f157565b60405162461bcd60e51b815260206004820152600f60248201526e105b1c9958591e481cd95d1d1b1959608a1b6044820152606490fd5b1561412f57565b60405162461bcd60e51b81526020600482015260116024820152704e6f742077696e6e696e6720656e74727960781b6044820152606490fd5b35610799816103bb565b1561417957565b60405162461bcd60e51b8152602060048201526012602482015271115e1c1a5c9e481b9bdd081c995858da195960721b6044820152606490fd5b156141ba57565b60405162461bcd60e51b815260206004820152600d60248201526c092dcecc2d8d2c840d2dcc8caf609b1b6044820152606490fdfea2646970667358221220693317a043d71f8e4ae41ee5da4455b3a5a467a0b62f1189d36f6870342a363064736f6c63430008140033","linkReferences":{}},"methodIdentifiers":{"BPS_DENOMINATOR()":"e1a45218","PRICE_PRECISION()":"95082d25","accumulatedOracleFee()":"4ee837a6","activateContest()":"24f9cc4c","addPrediction(uint256,uint256)":"2e0ec188","balanceOf(address,uint256)":"00fdd58e","balanceOfBatch(address[],uint256[])":"4e1273f4","calculateEntryPrice(uint256)":"e1f370dd","cancelContest()":"1db0e667","cancelExpired()":"a01e4a1f","claimEntryPayout(uint256)":"f8c5992b","claimOracleFee()":"7ae45fe3","claimPredictionPayout(uint256)":"a56964ab","closePredictions()":"5a9855c3","contestPrizePool()":"de11c839","contestPrizePoolSubsidy()":"17dd9258","contestantDepositAmount()":"1f85354a","contestantSubsidy(uint256)":"375bef8b","demandSensitivityBps()":"693b4660","entries(uint256)":"b30906d4","entryOwner(uint256)":"df1ef4c6","entryWithdrawn(uint256)":"8c13d546","expiryTimestamp()":"ade6e2aa","finalEntryPayouts(uint256)":"67a89a3b","getEntriesCount()":"d09685b0","getEntryAtIndex(uint256)":"c9a496aa","getSpectatorAtIndex(uint256)":"a450fe44","getSpectatorsCount()":"964766a5","getUserEntriesCount(address)":"59fe5d68","getUserEntryAtIndex(address,uint256)":"4c60b1f1","isApprovedForAll(address,address)":"e985e9c5","isSpectator(address)":"3c9c73ed","joinContest(uint256)":"5d6e6c7c","leaveContest(uint256)":"07b19bfb","liquidityParameter()":"3a69a1be","netPosition(uint256)":"6932b382","oracle()":"7dc0d1d0","oracleFeeBps()":"5c76fda7","paymentToken()":"3013ce29","predictionPrizePool()":"a006b468","prizeShareBps()":"a422f348","pushContestantPayouts(uint256[])":"bdd74d07","pushSpectatorPayouts(address[],uint256)":"ec9ff062","safeBatchTransferFrom(address,address,uint256[],uint256[],bytes)":"2eb2c2d6","safeTransferFrom(address,address,uint256,uint256,bytes)":"f242432a","setApprovalForAll(address,bool)":"a22cb465","settleContest(uint256[],uint256[])":"563930e7","spectatorDepositedPerEntry(address,uint256)":"e70baa89","spectatorMarketResolved()":"7bc09bad","spectatorWinningEntry()":"78449d57","spectators(uint256)":"a5877e19","state()":"c19d93fb","supportsInterface(bytes4)":"01ffc9a7","sweepToTreasury()":"362433ca","uri(uint256)":"0e89341c","userEntries(address,uint256)":"0b913af0","userShareBps()":"5a3e4e9e","withdrawPrediction(uint256,uint256)":"22fc1d0a"},"id":44}