{"abi":[{"type":"constructor","inputs":[{"name":"_paymentToken","type":"address","internalType":"address"},{"name":"_oracle","type":"address","internalType":"address"},{"name":"_contestantDepositAmount","type":"uint256","internalType":"uint256"},{"name":"_oracleFeeBps","type":"uint256","internalType":"uint256"},{"name":"_expiryTimestamp","type":"uint256","internalType":"uint256"},{"name":"_liquidityParameter","type":"uint256","internalType":"uint256"},{"name":"_demandSensitivityBps","type":"uint256","internalType":"uint256"}],"stateMutability":"nonpayable"},{"type":"function","name":"BPS_DENOMINATOR","inputs":[],"outputs":[{"name":"","type":"uint256","internalType":"uint256"}],"stateMutability":"view"},{"type":"function","name":"PRICE_PRECISION","inputs":[],"outputs":[{"name":"","type":"uint256","internalType":"uint256"}],"stateMutability":"view"},{"type":"function","name":"SPECTATOR_ENTRY_FEE_BPS","inputs":[],"outputs":[{"name":"","type":"uint256","internalType":"uint256"}],"stateMutability":"view"},{"type":"function","name":"accumulatedPrizeBonus","inputs":[],"outputs":[{"name":"","type":"uint256","internalType":"uint256"}],"stateMutability":"view"},{"type":"function","name":"activateContest","inputs":[],"outputs":[],"stateMutability":"nonpayable"},{"type":"function","name":"addPrediction","inputs":[{"name":"outcomeId","type":"uint256","internalType":"uint256"},{"name":"amount","type":"uint256","internalType":"uint256"}],"outputs":[],"stateMutability":"nonpayable"},{"type":"function","name":"balanceOf","inputs":[{"name":"account","type":"address","internalType":"address"},{"name":"id","type":"uint256","internalType":"uint256"}],"outputs":[{"name":"","type":"uint256","internalType":"uint256"}],"stateMutability":"view"},{"type":"function","name":"balanceOfBatch","inputs":[{"name":"accounts","type":"address[]","internalType":"address[]"},{"name":"ids","type":"uint256[]","internalType":"uint256[]"}],"outputs":[{"name":"","type":"uint256[]","internalType":"uint256[]"}],"stateMutability":"view"},{"type":"function","name":"calculateOutcomePrice","inputs":[{"name":"outcomeId","type":"uint256","internalType":"uint256"}],"outputs":[{"name":"","type":"uint256","internalType":"uint256"}],"stateMutability":"view"},{"type":"function","name":"cancel","inputs":[],"outputs":[],"stateMutability":"nonpayable"},{"type":"function","name":"cancelExpired","inputs":[],"outputs":[],"stateMutability":"nonpayable"},{"type":"function","name":"claimContestPayout","inputs":[],"outputs":[],"stateMutability":"nonpayable"},{"type":"function","name":"claimPredictionPayout","inputs":[{"name":"outcomeId","type":"uint256","internalType":"uint256"}],"outputs":[],"stateMutability":"nonpayable"},{"type":"function","name":"contestantBonuses","inputs":[{"name":"","type":"address","internalType":"address"}],"outputs":[{"name":"","type":"uint256","internalType":"uint256"}],"stateMutability":"view"},{"type":"function","name":"contestantDepositAmount","inputs":[],"outputs":[{"name":"","type":"uint256","internalType":"uint256"}],"stateMutability":"view"},{"type":"function","name":"contestants","inputs":[{"name":"","type":"uint256","internalType":"uint256"}],"outputs":[{"name":"","type":"address","internalType":"address"}],"stateMutability":"view"},{"type":"function","name":"demandSensitivityBps","inputs":[],"outputs":[{"name":"","type":"uint256","internalType":"uint256"}],"stateMutability":"view"},{"type":"function","name":"distribute","inputs":[{"name":"winners","type":"address[]","internalType":"address[]"},{"name":"payoutBps","type":"uint256[]","internalType":"uint256[]"}],"outputs":[],"stateMutability":"nonpayable"},{"type":"function","name":"expiryTimestamp","inputs":[],"outputs":[{"name":"","type":"uint256","internalType":"uint256"}],"stateMutability":"view"},{"type":"function","name":"finalContestantPayouts","inputs":[{"name":"","type":"address","internalType":"address"}],"outputs":[{"name":"","type":"uint256","internalType":"uint256"}],"stateMutability":"view"},{"type":"function","name":"forceClose","inputs":[],"outputs":[],"stateMutability":"nonpayable"},{"type":"function","name":"getContestantAtIndex","inputs":[{"name":"index","type":"uint256","internalType":"uint256"}],"outputs":[{"name":"","type":"address","internalType":"address"}],"stateMutability":"view"},{"type":"function","name":"getContestantsCount","inputs":[],"outputs":[{"name":"","type":"uint256","internalType":"uint256"}],"stateMutability":"view"},{"type":"function","name":"getSpectatorAtIndex","inputs":[{"name":"index","type":"uint256","internalType":"uint256"}],"outputs":[{"name":"","type":"address","internalType":"address"}],"stateMutability":"view"},{"type":"function","name":"getSpectatorsCount","inputs":[],"outputs":[{"name":"","type":"uint256","internalType":"uint256"}],"stateMutability":"view"},{"type":"function","name":"isApprovedForAll","inputs":[{"name":"account","type":"address","internalType":"address"},{"name":"operator","type":"address","internalType":"address"}],"outputs":[{"name":"","type":"bool","internalType":"bool"}],"stateMutability":"view"},{"type":"function","name":"isContestant","inputs":[{"name":"","type":"address","internalType":"address"}],"outputs":[{"name":"","type":"bool","internalType":"bool"}],"stateMutability":"view"},{"type":"function","name":"isSpectator","inputs":[{"name":"","type":"address","internalType":"address"}],"outputs":[{"name":"","type":"bool","internalType":"bool"}],"stateMutability":"view"},{"type":"function","name":"joinContest","inputs":[],"outputs":[],"stateMutability":"nonpayable"},{"type":"function","name":"leaveContest","inputs":[],"outputs":[],"stateMutability":"nonpayable"},{"type":"function","name":"liquidityParameter","inputs":[],"outputs":[{"name":"","type":"uint256","internalType":"uint256"}],"stateMutability":"view"},{"type":"function","name":"lockBetting","inputs":[],"outputs":[],"stateMutability":"nonpayable"},{"type":"function","name":"netPosition","inputs":[{"name":"","type":"uint256","internalType":"uint256"}],"outputs":[{"name":"","type":"int256","internalType":"int256"}],"stateMutability":"view"},{"type":"function","name":"oracle","inputs":[],"outputs":[{"name":"","type":"address","internalType":"address"}],"stateMutability":"view"},{"type":"function","name":"oracleFeeBps","inputs":[],"outputs":[{"name":"","type":"uint256","internalType":"uint256"}],"stateMutability":"view"},{"type":"function","name":"paymentToken","inputs":[],"outputs":[{"name":"","type":"address","internalType":"contract IERC20"}],"stateMutability":"view"},{"type":"function","name":"safeBatchTransferFrom","inputs":[{"name":"from","type":"address","internalType":"address"},{"name":"to","type":"address","internalType":"address"},{"name":"ids","type":"uint256[]","internalType":"uint256[]"},{"name":"values","type":"uint256[]","internalType":"uint256[]"},{"name":"data","type":"bytes","internalType":"bytes"}],"outputs":[],"stateMutability":"nonpayable"},{"type":"function","name":"safeTransferFrom","inputs":[{"name":"from","type":"address","internalType":"address"},{"name":"to","type":"address","internalType":"address"},{"name":"id","type":"uint256","internalType":"uint256"},{"name":"value","type":"uint256","internalType":"uint256"},{"name":"data","type":"bytes","internalType":"bytes"}],"outputs":[],"stateMutability":"nonpayable"},{"type":"function","name":"setApprovalForAll","inputs":[{"name":"operator","type":"address","internalType":"address"},{"name":"approved","type":"bool","internalType":"bool"}],"outputs":[],"stateMutability":"nonpayable"},{"type":"function","name":"spectatorMarketResolved","inputs":[],"outputs":[{"name":"","type":"bool","internalType":"bool"}],"stateMutability":"view"},{"type":"function","name":"spectatorTotalDeposited","inputs":[{"name":"","type":"address","internalType":"address"}],"outputs":[{"name":"","type":"uint256","internalType":"uint256"}],"stateMutability":"view"},{"type":"function","name":"spectatorWinningOutcome","inputs":[],"outputs":[{"name":"","type":"uint256","internalType":"uint256"}],"stateMutability":"view"},{"type":"function","name":"spectators","inputs":[{"name":"","type":"uint256","internalType":"uint256"}],"outputs":[{"name":"","type":"address","internalType":"address"}],"stateMutability":"view"},{"type":"function","name":"state","inputs":[],"outputs":[{"name":"","type":"uint8","internalType":"enum Contest.ContestState"}],"stateMutability":"view"},{"type":"function","name":"supportsInterface","inputs":[{"name":"interfaceId","type":"bytes4","internalType":"bytes4"}],"outputs":[{"name":"","type":"bool","internalType":"bool"}],"stateMutability":"view"},{"type":"function","name":"totalContestantDeposits","inputs":[],"outputs":[{"name":"","type":"uint256","internalType":"uint256"}],"stateMutability":"view"},{"type":"function","name":"totalSpectatorCollateral","inputs":[],"outputs":[{"name":"","type":"uint256","internalType":"uint256"}],"stateMutability":"view"},{"type":"function","name":"totalVolumeOnContestant","inputs":[{"name":"","type":"address","internalType":"address"}],"outputs":[{"name":"","type":"uint256","internalType":"uint256"}],"stateMutability":"view"},{"type":"function","name":"uri","inputs":[{"name":"","type":"uint256","internalType":"uint256"}],"outputs":[{"name":"","type":"string","internalType":"string"}],"stateMutability":"view"},{"type":"function","name":"withdrawPrediction","inputs":[{"name":"outcomeId","type":"uint256","internalType":"uint256"},{"name":"tokenAmount","type":"uint256","internalType":"uint256"}],"outputs":[],"stateMutability":"nonpayable"},{"type":"event","name":"ApprovalForAll","inputs":[{"name":"account","type":"address","indexed":true,"internalType":"address"},{"name":"operator","type":"address","indexed":true,"internalType":"address"},{"name":"approved","type":"bool","indexed":false,"internalType":"bool"}],"anonymous":false},{"type":"event","name":"BettingLocked","inputs":[],"anonymous":false},{"type":"event","name":"ContestActivated","inputs":[],"anonymous":false},{"type":"event","name":"ContestCancelled","inputs":[],"anonymous":false},{"type":"event","name":"ContestForceClosed","inputs":[{"name":"contestantsPaid","type":"uint256","indexed":false,"internalType":"uint256"},{"name":"spectatorsPaid","type":"uint256","indexed":false,"internalType":"uint256"},{"name":"timestamp","type":"uint256","indexed":false,"internalType":"uint256"}],"anonymous":false},{"type":"event","name":"ContestSettled","inputs":[{"name":"winners","type":"address[]","indexed":false,"internalType":"address[]"},{"name":"payouts","type":"uint256[]","indexed":false,"internalType":"uint256[]"}],"anonymous":false},{"type":"event","name":"ContestantDeposited","inputs":[{"name":"contestant","type":"address","indexed":true,"internalType":"address"}],"anonymous":false},{"type":"event","name":"ContestantPayoutClaimed","inputs":[{"name":"contestant","type":"address","indexed":true,"internalType":"address"},{"name":"amount","type":"uint256","indexed":false,"internalType":"uint256"}],"anonymous":false},{"type":"event","name":"SpectatorDeposited","inputs":[{"name":"spectator","type":"address","indexed":true,"internalType":"address"},{"name":"outcomeId","type":"uint256","indexed":true,"internalType":"uint256"},{"name":"amount","type":"uint256","indexed":false,"internalType":"uint256"},{"name":"tokensReceived","type":"uint256","indexed":false,"internalType":"uint256"}],"anonymous":false},{"type":"event","name":"SpectatorPayoutRedeemed","inputs":[{"name":"spectator","type":"address","indexed":true,"internalType":"address"},{"name":"outcomeId","type":"uint256","indexed":true,"internalType":"uint256"},{"name":"payout","type":"uint256","indexed":false,"internalType":"uint256"}],"anonymous":false},{"type":"event","name":"SpectatorWithdrew","inputs":[{"name":"spectator","type":"address","indexed":true,"internalType":"address"},{"name":"amount","type":"uint256","indexed":false,"internalType":"uint256"}],"anonymous":false},{"type":"event","name":"TransferBatch","inputs":[{"name":"operator","type":"address","indexed":true,"internalType":"address"},{"name":"from","type":"address","indexed":true,"internalType":"address"},{"name":"to","type":"address","indexed":true,"internalType":"address"},{"name":"ids","type":"uint256[]","indexed":false,"internalType":"uint256[]"},{"name":"values","type":"uint256[]","indexed":false,"internalType":"uint256[]"}],"anonymous":false},{"type":"event","name":"TransferSingle","inputs":[{"name":"operator","type":"address","indexed":true,"internalType":"address"},{"name":"from","type":"address","indexed":true,"internalType":"address"},{"name":"to","type":"address","indexed":true,"internalType":"address"},{"name":"id","type":"uint256","indexed":false,"internalType":"uint256"},{"name":"value","type":"uint256","indexed":false,"internalType":"uint256"}],"anonymous":false},{"type":"event","name":"URI","inputs":[{"name":"value","type":"string","indexed":false,"internalType":"string"},{"name":"id","type":"uint256","indexed":true,"internalType":"uint256"}],"anonymous":false},{"type":"error","name":"ERC1155InsufficientBalance","inputs":[{"name":"sender","type":"address","internalType":"address"},{"name":"balance","type":"uint256","internalType":"uint256"},{"name":"needed","type":"uint256","internalType":"uint256"},{"name":"tokenId","type":"uint256","internalType":"uint256"}]},{"type":"error","name":"ERC1155InvalidApprover","inputs":[{"name":"approver","type":"address","internalType":"address"}]},{"type":"error","name":"ERC1155InvalidArrayLength","inputs":[{"name":"idsLength","type":"uint256","internalType":"uint256"},{"name":"valuesLength","type":"uint256","internalType":"uint256"}]},{"type":"error","name":"ERC1155InvalidOperator","inputs":[{"name":"operator","type":"address","internalType":"address"}]},{"type":"error","name":"ERC1155InvalidReceiver","inputs":[{"name":"receiver","type":"address","internalType":"address"}]},{"type":"error","name":"ERC1155InvalidSender","inputs":[{"name":"sender","type":"address","internalType":"address"}]},{"type":"error","name":"ERC1155MissingApprovalForAll","inputs":[{"name":"operator","type":"address","internalType":"address"},{"name":"owner","type":"address","internalType":"address"}]},{"type":"error","name":"ReentrancyGuardReentrantCall","inputs":[]},{"type":"error","name":"SafeERC20FailedOperation","inputs":[{"name":"token","type":"address","internalType":"address"}]}],"bytecode":{"object":"0x6101606040523480156200001257600080fd5b5060405162003faa38038062003faa8339810160408190526200003591620002f4565b6040805160208101909152600081526200004f81620002c5565b5060016003556001600160a01b038716620000b15760405162461bcd60e51b815260206004820152601560248201527f496e76616c6964207061796d656e7420746f6b656e000000000000000000000060448201526064015b60405180910390fd5b6001600160a01b038616620000fa5760405162461bcd60e51b815260206004820152600e60248201526d496e76616c6964206f7261636c6560901b6044820152606401620000a8565b600085116200014c5760405162461bcd60e51b815260206004820152601660248201527f496e76616c6964206465706f73697420616d6f756e74000000000000000000006044820152606401620000a8565b6103e8841115620001a05760405162461bcd60e51b815260206004820152601360248201527f4f7261636c652066656520746f6f2068696768000000000000000000000000006044820152606401620000a8565b428311620001e25760405162461bcd60e51b815260206004820152600e60248201526d115e1c1a5c9e481a5b881c185cdd60921b6044820152606401620000a8565b60008211620002345760405162461bcd60e51b815260206004820152601b60248201527f496e76616c6964206c697175696469747920706172616d6574657200000000006044820152606401620000a8565b612710811115620002885760405162461bcd60e51b815260206004820152601a60248201527f496e76616c69642064656d616e642073656e73697469766974790000000000006044820152606401620000a8565b6001600160a01b039687166080529490951660a05260c09290925260e0526101005261012091909152610140526004805460ff19169055620004cc565b6002620002d3828262000400565b5050565b80516001600160a01b0381168114620002ef57600080fd5b919050565b600080600080600080600060e0888a0312156200031057600080fd5b6200031b88620002d7565b96506200032b60208901620002d7565b604089015160608a015160808b015160a08c015160c0909c01519a9d939c50919a90999198509650945092505050565b634e487b7160e01b600052604160045260246000fd5b600181811c908216806200038657607f821691505b602082108103620003a757634e487b7160e01b600052602260045260246000fd5b50919050565b601f821115620003fb57600081815260208120601f850160051c81016020861015620003d65750805b601f850160051c820191505b81811015620003f757828155600101620003e2565b5050505b505050565b81516001600160401b038111156200041c576200041c6200035b565b62000434816200042d845462000371565b84620003ad565b602080601f8311600181146200046c5760008415620004535750858301515b600019600386901b1c1916600185901b178555620003f7565b600085815260208120601f198616915b828110156200049d578886015182559484019460019091019084016200047c565b5085821015620004bc5787850151600019600388901b60f8161c191681555b5050505050600190811b01905550565b60805160a05160c05160e0516101005161012051610140516139b8620005f26000396000818161050501526108b1015260008181610428015261088d01526000818161062701528181610e3301528181611b020152611d720152600081816104be015281816112600152818161129b015261143401526000818161035b01528181610ef301528181610f56015281816123d1015261255b01526000818161054a01528181610c6101528181610fbc015281816113b501528181611a850152818161259401526126ad0152600081816103e001528181610be801528181610f320152818161139301528181611490015281816117fb01528181611bd801528181611cc801528181612089015281816121150152818161224c015261253801526139b86000f3fe608060405234801561001057600080fd5b50600436106102d55760003560e01c806384e0d1b411610182578063bf7753a2116100e9578063e985e9c5116100a2578063f1d570671161007c578063f1d57067146106dd578063f242432a146106e6578063fc6cc4a3146106f9578063fc810d7d1461071957600080fd5b8063e985e9c5146106af578063ea8a1af0146106c2578063f0014e13146106ca57600080fd5b8063bf7753a214610649578063c19d93fb14610651578063c798e2431461066b578063dfd50f5214610673578063e1a4521814610686578063e8f45ab21461068f57600080fd5b8063a22cb4651161013b578063a22cb465146105ce578063a450fe44146105e1578063a56964ab146105f4578063a5877e1914610607578063a9adb0fd1461061a578063ade6e2aa1461062257600080fd5b806384e0d1b41461056c57806385c6c9591461058c5780638f466eaf146105ac57806395082d25146105b4578063964766a5146105be578063a01e4a1f146105c657600080fd5b806332e6190b116102415780635c76fda7116101fa57806377678414116101d457806377678414146105275780637b8488ea1461052f5780637bc09bad146105385780637dc0d1d01461054557600080fd5b80635c76fda7146104b95780636932b382146104e0578063693b46601461050057600080fd5b806332e6190b1461041a5780633a69a1be146104235780633c9c73ed1461044a5780634e1273f41461046d5780635508bd6b1461048d5780635a701e1e1461049657600080fd5b806324f9cc4c1161029357806324f9cc4c1461039257806326bec2de1461039a5780632929abe6146103a25780632e0ec188146103b55780632eb2c2d6146103c85780633013ce29146103db57600080fd5b8062fdd58e146102da57806301ffc9a7146103005780630e89341c1461032357806311c5c792146103435780631f85354a1461035657806322fc1d0a1461037d575b600080fd5b6102ed6102e836600461304b565b610722565b6040519081526020015b60405180910390f35b61031361030e36600461308b565b61074a565b60405190151581526020016102f7565b6103366103313660046130af565b61079a565b6040516102f7919061310e565b6102ed6103513660046130af565b61082e565b6102ed7f000000000000000000000000000000000000000000000000000000000000000081565b61039061038b366004613121565b610914565b005b610390610c56565b610390610d7c565b6103906103b036600461318f565b610fb1565b6103906103c3366004613121565b6115bd565b6103906103d6366004613341565b61193e565b6104027f000000000000000000000000000000000000000000000000000000000000000081565b6040516001600160a01b0390911681526020016102f7565b6102ed600d5481565b6102ed7f000000000000000000000000000000000000000000000000000000000000000081565b6103136104583660046133eb565b600a6020526000908152604090205460ff1681565b61048061047b366004613406565b6119a5565b6040516102f79190613501565b6102ed60115481565b6103136104a43660046133eb565b60066020526000908152604090205460ff1681565b6102ed7f000000000000000000000000000000000000000000000000000000000000000081565b6102ed6104ee3660046130af565b600b6020526000908152604090205481565b6102ed7f000000000000000000000000000000000000000000000000000000000000000081565b610390611a7a565b6102ed60075481565b6012546103139060ff1681565b6104027f000000000000000000000000000000000000000000000000000000000000000081565b6102ed61057a3660046133eb565b600f6020526000908152604090205481565b6102ed61059a3660046133eb565b60086020526000908152604090205481565b6005546102ed565b6102ed620f424081565b6009546102ed565b610390611d70565b6103906105dc366004613514565b611e81565b6104026105ef3660046130af565b611e8c565b6103906106023660046130af565b611efe565b6104026106153660046130af565b612185565b6103906121af565b6102ed7f000000000000000000000000000000000000000000000000000000000000000081565b6103906122bb565b60045461065e9060ff1681565b6040516102f79190613566565b610390612589565b6104026106813660046130af565b612664565b6102ed61271081565b6102ed61069d3660046133eb565b60106020526000908152604090205481565b6103136106bd36600461358e565b612674565b6103906126a2565b6104026106d83660046130af565b612774565b6102ed600c5481565b6103906106f43660046135c1565b6127cb565b6102ed6107073660046133eb565b600e6020526000908152604090205481565b6102ed6105dc81565b6000818152602081815260408083206001600160a01b03861684529091529020545b92915050565b60006001600160e01b03198216636cdb3d1360e11b148061077b57506001600160e01b031982166303a24d0760e21b145b8061074457506301ffc9a760e01b6001600160e01b0319831614610744565b6060600280546107a990613626565b80601f01602080910402602001604051908101604052809291908181526020018280546107d590613626565b80156108225780601f106107f757610100808354040283529160200191610822565b820191906000526020600020905b81548152906001019060200180831161080557829003601f168201915b50505050509050919050565b600554600090821061085b5760405162461bcd60e51b815260040161085290613660565b60405180910390fd5b6000828152600b602052604081205490808212156108815761087c8261369f565b610883565b815b9050620f424060007f00000000000000000000000000000000000000000000000000000000000000006108d67f0000000000000000000000000000000000000000000000000000000000000000856136bb565b6108e091906136d2565b90506000841280156108f157508181105b1561090a5761090081836136f4565b9695505050505050565b6109008183613707565b61091c61282a565b600060045460ff16600581111561093557610935613550565b14806109575750600160045460ff16600581111561095557610955613550565b145b8061097757506004805460ff16600581111561097557610975613550565b145b6109d75760405162461bcd60e51b815260206004820152602b60248201527f43616e6e6f74207769746864726177202d2062657474696e67206c6f636b656460448201526a081bdc881cd95d1d1b195960aa1b6064820152608401610852565b60055482106109f85760405162461bcd60e51b815260040161085290613660565b60008111610a3d5760405162461bcd60e51b81526020600482015260126024820152710416d6f756e74206d757374206265203e20360741b6044820152606401610852565b80610a483384610722565b1015610a8d5760405162461bcd60e51b8152602060048201526014602482015273496e73756666696369656e742062616c616e636560601b6044820152606401610852565b6000610a993384610722565b33600090815260106020526040812054919250908290610aba9085906136bb565b610ac491906136d2565b90506000612710610ad76105dc846136bb565b610ae191906136d2565b90506000610aef82846136f4565b9050610afc338787612854565b6000868152600b602052604081208054879290610b1a90849061371a565b90915550610b2b90506002836136d2565b600d6000828254610b3c91906136f4565b90915550610b4d90506002836136d2565b600e600060058981548110610b6457610b64613741565b60009182526020808320909101546001600160a01b0316835282019290925260400181208054909190610b989084906136f4565b9250508190555080600c6000828254610bb191906136f4565b90915550503360009081526010602052604081208054859290610bd59084906136f4565b90915550610c0f90506001600160a01b037f00000000000000000000000000000000000000000000000000000000000000001633856128c3565b60405183815233907f1afd07c523e365fe5caad76bb954272a33ed72374f832943fe8bb4d8484683409060200160405180910390a250505050610c526001600355565b5050565b336001600160a01b037f00000000000000000000000000000000000000000000000000000000000000001614610c9e5760405162461bcd60e51b815260040161085290613757565b600060045460ff166005811115610cb757610cb7613550565b14610d045760405162461bcd60e51b815260206004820152601760248201527f436f6e7465737420616c726561647920737461727465640000000000000000006044820152606401610852565b600554610d445760405162461bcd60e51b815260206004820152600e60248201526d4e6f20636f6e74657374616e747360901b6044820152606401610852565b6004805460ff191660011790556040517f3927b788a62eb53f7192cd9286f49295f01b938b6afc23aef0af5d035cd8531690600090a1565b610d8461282a565b600060045460ff166005811115610d9d57610d9d613550565b14610ddd5760405162461bcd60e51b815260206004820152601060248201526f21b7b73a32b9ba103737ba1037b832b760811b6044820152606401610852565b3360009081526006602052604090205460ff1615610e315760405162461bcd60e51b8152602060048201526011602482015270105b1c9958591e4819195c1bdcda5d1959607a1b6044820152606401610852565b7f00000000000000000000000000000000000000000000000000000000000000004210610e925760405162461bcd60e51b815260206004820152600f60248201526e10dbdb9d195cdd08195e1c1a5c9959608a1b6044820152606401610852565b6005805460018181019092557f036b6384b5eca791c62761152d0c79bb0604c104a5fb6f4eb0703f3154bb3db00180546001600160a01b031916339081179091556000908152600660205260408120805460ff1916909217909155600780547f00000000000000000000000000000000000000000000000000000000000000009290610f1f908490613707565b90915550610f7a90506001600160a01b037f00000000000000000000000000000000000000000000000000000000000000001633307f0000000000000000000000000000000000000000000000000000000000000000612927565b60405133907fea6307fcf9cf9edb437dc6d37829d9f04a77d6fb28461f9155076d02098566ee90600090a2610faf6001600355565b565b336001600160a01b037f00000000000000000000000000000000000000000000000000000000000000001614610ff95760405162461bcd60e51b815260040161085290613757565b61100161282a565b600160045460ff16600581111561101a5761101a613550565b148061103c5750600260045460ff16600581111561103a5761103a613550565b145b6110885760405162461bcd60e51b815260206004820152601c60248201527f436f6e74657374206e6f7420616374697665206f72206c6f636b6564000000006044820152606401610852565b60055483146110d95760405162461bcd60e51b815260206004820152601760248201527f57696e6e657273206c656e677468206d69736d617463680000000000000000006044820152606401610852565b600554811461112a5760405162461bcd60e51b815260206004820152601760248201527f5061796f757473206c656e677468206d69736d617463680000000000000000006044820152606401610852565b6000805b8281101561116e5783838281811061114857611148613741565b905060200201358261115a9190613707565b9150806111668161377b565b91505061112e565b5061271081146111c05760405162461bcd60e51b815260206004820152601860248201527f5061796f757473206d7573742073756d20746f203130302500000000000000006044820152606401610852565b6004805460ff19166003179055600d546007546000916111df91613707565b90506000805b60055481101561124957600e60006005838154811061120657611206613741565b60009182526020808320909101546001600160a01b031683528201929092526040019020546112359083613707565b9150806112418161377b565b9150506111e5565b506112548183613707565b915060006127106112857f0000000000000000000000000000000000000000000000000000000000000000856136bb565b61128f91906136d2565b905060006127106112c07f0000000000000000000000000000000000000000000000000000000000000000826136f4565b600d546007546112d09190613707565b6112da91906136bb565b6112e491906136d2565b905060005b8881101561137f57600061271089898481811061130857611308613741565b905060200201358461131a91906136bb565b61132491906136d2565b905080600860008d8d8681811061133d5761133d613741565b905060200201602081019061135291906133eb565b6001600160a01b0316815260208101919091526040016000205550806113778161377b565b9150506112e9565b5081156113da576113da6001600160a01b037f0000000000000000000000000000000000000000000000000000000000000000167f0000000000000000000000000000000000000000000000000000000000000000846128c3565b60005b6005548110156114ce576000600582815481106113fc576113fc613741565b60009182526020808320909101546001600160a01b0316808352600e90915260409091205490915080156114b95760006127106114597f0000000000000000000000000000000000000000000000000000000000000000826136f4565b61146390846136bb565b61146d91906136d2565b6001600160a01b038085166000908152600e60205260408120559091506114b7907f00000000000000000000000000000000000000000000000000000000000000001684836128c3565b505b505080806114c69061377b565b9150506113dd565b506000898960008181106114e4576114e4613741565b90506020020160208101906114f991906133eb565b905060005b60055481101561155b57816001600160a01b03166005828154811061152557611525613741565b6000918252602090912001546001600160a01b03160361154957601181905561155b565b806115538161377b565b9150506114fe565b506012805460ff191660011790556040517f87390527874bc40d4437d7050c3d9020e6a8a79d8a0c32f616101240b33a8e639061159f908c908c908c908c90613794565b60405180910390a15050505050506115b76001600355565b50505050565b6115c561282a565b600060045460ff1660058111156115de576115de613550565b14806116005750600160045460ff1660058111156115fe576115fe613550565b145b6116445760405162461bcd60e51b815260206004820152601560248201527442657474696e67206e6f7420617661696c61626c6560581b6044820152606401610852565b60055482106116655760405162461bcd60e51b815260040161085290613660565b600081116116aa5760405162461bcd60e51b81526020600482015260126024820152710416d6f756e74206d757374206265203e20360741b6044820152606401610852565b336000908152600a602052604090205460ff1661171c576009805460018181019092557f6e1540171b6c0c960b71a7020d9f60077f6af931a8bbf590da0223dacf75c7af0180546001600160a01b031916339081179091556000908152600a60205260409020805460ff191690911790555b600061271061172d6105dc846136bb565b61173791906136d2565b9050600061174582846136f4565b905060006117528561082e565b9050600081611764620f4240856136bb565b61176e91906136d2565b905061177b6002856136d2565b600d600082825461178c9190613707565b9091555061179d90506002856136d2565b600e6000600589815481106117b4576117b4613741565b60009182526020808320909101546001600160a01b03168352820192909252604001812080549091906117e8908490613707565b9091555061182390506001600160a01b037f000000000000000000000000000000000000000000000000000000000000000016333088612927565b3360009081526010602052604081208054879290611842908490613707565b9250508190555061186433878360405180602001604052806000815250612960565b6000868152600b602052604081208054839290611882908490613810565b9250508190555080600f6000600589815481106118a1576118a1613741565b60009182526020808320909101546001600160a01b03168352820192909252604001812080549091906118d5908490613707565b9250508190555082600c60008282546118ee9190613707565b90915550506040805186815260208101839052879133917f3d516f677e4f650c5678a09cdf06e998bf8e05cbe8d92906362e8589a8f064a5910160405180910390a350505050610c526001600355565b336001600160a01b038616811480159061195f575061195d8682612674565b155b156119905760405163711bec9160e11b81526001600160a01b03808316600483015287166024820152604401610852565b61199d86868686866129bd565b505050505050565b606081518351146119d65781518351604051635b05999160e01b815260048101929092526024820152604401610852565b6000835167ffffffffffffffff8111156119f2576119f26131fb565b604051908082528060200260200182016040528015611a1b578160200160208202803683370190505b50905060005b8451811015611a7257602080820286010151611a4590602080840287010151610722565b828281518110611a5757611a57613741565b6020908102919091010152611a6b8161377b565b9050611a21565b509392505050565b336001600160a01b037f00000000000000000000000000000000000000000000000000000000000000001614611ac25760405162461bcd60e51b815260040161085290613757565b611aca61282a565b600360045460ff166005811115611ae357611ae3613550565b14611b005760405162461bcd60e51b815260040161085290613838565b7f0000000000000000000000000000000000000000000000000000000000000000421015611b655760405162461bcd60e51b8152602060048201526012602482015271115e1c1a5c9e481b9bdd081c995858da195960721b6044820152606401610852565b60008060005b600554811015611c2257600060058281548110611b8a57611b8a613741565b60009182526020808320909101546001600160a01b031680835260089091526040909120549091508015611c0d576001600160a01b03808316600090815260086020526040812055611bff907f00000000000000000000000000000000000000000000000000000000000000001683836128c3565b84611c098161377b565b9550505b50508080611c1a9061377b565b915050611b6b565b506011546000908152600b60205260409020548015611d165760005b600954811015611d1457600060098281548110611c5d57611c5d613741565b60009182526020822001546011546001600160a01b039091169250611c83908390610722565b90508015611cff57611c988260115483612854565b600084600c5483611ca991906136bb565b611cb391906136d2565b90508015611cfd57611cef6001600160a01b037f00000000000000000000000000000000000000000000000000000000000000001684836128c3565b85611cf98161377b565b9650505b505b50508080611d0c9061377b565b915050611c3e565b505b6004805460ff191660051790556040805184815260208101849052428183015290517f427e67c713c4d792371b2c1749a884cdf6bbe83d295edf70328a40943b066951916060908290030190a1505050610faf6001600355565b7f0000000000000000000000000000000000000000000000000000000000000000421015611dce5760405162461bcd60e51b815260206004820152600b60248201526a139bdd08195e1c1a5c995960aa1b6044820152606401610852565b600360045460ff166005811115611de757611de7613550565b14158015611e0c5750600560045460ff166005811115611e0957611e09613550565b14155b611e4a5760405162461bcd60e51b815260206004820152600f60248201526e105b1c9958591e481cd95d1d1b1959608a1b6044820152606401610852565b6004805460ff1916811790556040517f9237e8f0d5063a695b8695e82c82bc24d15591de9d04449771a6ea4b1283173790600090a1565b610c52338383612a1d565b6009546000908210611ed05760405162461bcd60e51b815260206004820152600d60248201526c092dcecc2d8d2c840d2dcc8caf609b1b6044820152606401610852565b60098281548110611ee357611ee3613741565b6000918252602090912001546001600160a01b031692915050565b611f0661282a565b600360045460ff166005811115611f1f57611f1f613550565b14611f3c5760405162461bcd60e51b815260040161085290613838565b60125460ff16611f845760405162461bcd60e51b815260206004820152601360248201527213585c9ad95d081b9bdd081c995cdbdb1d9959606a1b6044820152606401610852565b6005548110611fa55760405162461bcd60e51b815260040161085290613660565b6000611fb13383610722565b905060008111611fef5760405162461bcd60e51b81526020600482015260096024820152684e6f20746f6b656e7360b81b6044820152606401610852565b611ffa338383612854565b6000601154830361213f576000838152600b60205260409020548061204d5760405162461bcd60e51b81526020600482015260096024820152684e6f20737570706c7960b81b6044820152606401610852565b80600c548461205c91906136bb565b61206691906136d2565b6040516370a0823160e01b81523060048201529092506000906001600160a01b037f000000000000000000000000000000000000000000000000000000000000000016906370a0823190602401602060405180830381865afa1580156120d0573d6000803e3d6000fd5b505050506040513d601f19601f820116820180604052508101906120f49190613865565b905080831115612102578092505b821561213c5761213c6001600160a01b037f00000000000000000000000000000000000000000000000000000000000000001633856128c3565b50505b604051818152839033907fd661a3227475e550e8171253b7c0e37ede0ff071f017a4c55b647d5a04b5e4359060200160405180910390a350506121826001600355565b50565b6009818154811061219557600080fd5b6000918252602090912001546001600160a01b0316905081565b6121b761282a565b600360045460ff1660058111156121d0576121d0613550565b146121ed5760405162461bcd60e51b815260040161085290613838565b33600090815260086020526040902054806122365760405162461bcd60e51b8152602060048201526009602482015268139bc81c185e5bdd5d60ba1b6044820152606401610852565b3360008181526008602052604081205561227b907f00000000000000000000000000000000000000000000000000000000000000006001600160a01b031690836128c3565b60405181815233907f9e2d6fa5f8818953c417e9cacffa6cbb51294f8f2a3f1713a0171e5b704244099060200160405180910390a250610faf6001600355565b6122c361282a565b600060045460ff1660058111156122dc576122dc613550565b14806122fd57506004805460ff1660058111156122fb576122fb613550565b145b6123625760405162461bcd60e51b815260206004820152603060248201527f43616e6e6f74207769746864726177202d20636f6e7465737420696e2070726f60448201526f19dc995cdcc81bdc881cd95d1d1b195960821b6064820152608401610852565b3360009081526006602052604090205460ff166123b45760405162461bcd60e51b815260206004820152601060248201526f139bdd08184818dbdb9d195cdd185b9d60821b6044820152606401610852565b336000908152600660205260408120805460ff19169055600780547f000000000000000000000000000000000000000000000000000000000000000092906123fd9084906136f4565b909155506000905060045460ff16600581111561241c5761241c613550565b0361252b5760005b60055481101561252957336001600160a01b03166005828154811061244b5761244b613741565b6000918252602090912001546001600160a01b0316036125175760058054612475906001906136f4565b8154811061248557612485613741565b600091825260209091200154600580546001600160a01b0390921691839081106124b1576124b1613741565b9060005260206000200160006101000a8154816001600160a01b0302191690836001600160a01b0316021790555060058054806124f0576124f061387e565b600082815260209020810160001990810180546001600160a01b0319169055019055612529565b806125218161377b565b915050612424565b505b61257f6001600160a01b037f000000000000000000000000000000000000000000000000000000000000000016337f00000000000000000000000000000000000000000000000000000000000000006128c3565b610faf6001600355565b336001600160a01b037f000000000000000000000000000000000000000000000000000000000000000016146125d15760405162461bcd60e51b815260040161085290613757565b600160045460ff1660058111156125ea576125ea613550565b1461262c5760405162461bcd60e51b8152602060048201526012602482015271436f6e74657374206e6f742061637469766560701b6044820152606401610852565b6004805460ff191660021790556040517f20f438108f566a3b8a4fad3801124562b45b5a7a96dc158d41cbfec8d926a9da90600090a1565b6005818154811061219557600080fd5b6001600160a01b03918216600090815260016020908152604080832093909416825291909152205460ff1690565b336001600160a01b037f000000000000000000000000000000000000000000000000000000000000000016146126ea5760405162461bcd60e51b815260040161085290613757565b600360045460ff16600581111561270357612703613550565b141580156127285750600560045460ff16600581111561272557612725613550565b14155b611e4a5760405162461bcd60e51b815260206004820152601f60248201527f436f6e7465737420736574746c6564202d2063616e6e6f742063616e63656c006044820152606401610852565b60055460009082106127b85760405162461bcd60e51b815260206004820152600d60248201526c092dcecc2d8d2c840d2dcc8caf609b1b6044820152606401610852565b60058281548110611ee357611ee3613741565b336001600160a01b03861681148015906127ec57506127ea8682612674565b155b1561281d5760405163711bec9160e11b81526001600160a01b03808316600483015287166024820152604401610852565b61199d8686868686612ab3565b60026003540361284d57604051633ee5aeb560e01b815260040160405180910390fd5b6002600355565b6001600160a01b03831661287d57604051626a0d4560e21b815260006004820152602401610852565b604080516001808252602082018590528183019081526060820184905260a082019092526000608082018181529192916128bc91879185908590612b41565b5050505050565b6040516001600160a01b0383811660248301526044820183905261292291859182169063a9059cbb906064015b604051602081830303815290604052915060e01b6020820180516001600160e01b038381831617835250505050612b94565b505050565b6040516001600160a01b0384811660248301528381166044830152606482018390526115b79186918216906323b872dd906084016128f0565b6001600160a01b03841661298a57604051632bfa23e760e11b815260006004820152602401610852565b6040805160018082526020820186905281830190815260608201859052608082019092529061199d600087848487612b41565b6001600160a01b0384166129e757604051632bfa23e760e11b815260006004820152602401610852565b6001600160a01b038516612a1057604051626a0d4560e21b815260006004820152602401610852565b6128bc8585858585612b41565b6001600160a01b038216612a465760405162ced3e160e81b815260006004820152602401610852565b6001600160a01b03838116600081815260016020908152604080832094871680845294825291829020805460ff191686151590811790915591519182527f17307eab39ab6107e8899845ad3d59bd9653f200f220920489ca2b5937696c31910160405180910390a3505050565b6001600160a01b038416612add57604051632bfa23e760e11b815260006004820152602401610852565b6001600160a01b038516612b0657604051626a0d4560e21b815260006004820152602401610852565b60408051600180825260208201869052818301908152606082018590526080820190925290612b388787848487612b41565b50505050505050565b612b4d85858585612c05565b6001600160a01b038416156128bc5782513390600103612b865760208481015190840151612b7f838989858589612e22565b505061199d565b61199d818787878787612f46565b600080602060008451602086016000885af180612bb7576040513d6000823e3d81fd5b50506000513d91508115612bcf578060011415612bdc565b6001600160a01b0384163b155b156115b757604051635274afe760e01b81526001600160a01b0385166004820152602401610852565b8051825114612c345781518151604051635b05999160e01b815260048101929092526024820152604401610852565b3360005b8351811015612d43576020818102858101820151908501909101516001600160a01b03881615612ceb576000828152602081815260408083206001600160a01b038c16845290915290205481811015612cc4576040516303dee4c560e01b81526001600160a01b038a166004820152602481018290526044810183905260648101849052608401610852565b6000838152602081815260408083206001600160a01b038d16845290915290209082900390555b6001600160a01b03871615612d30576000828152602081815260408083206001600160a01b038b16845290915281208054839290612d2a908490613707565b90915550505b505080612d3c9061377b565b9050612c38565b508251600103612dc45760208301516000906020840151909150856001600160a01b0316876001600160a01b0316846001600160a01b03167fc3d58168c5ae7397731d063d5bbf3d657854427343f4c083240f7aacaa2d0f628585604051612db5929190918252602082015260400190565b60405180910390a450506128bc565b836001600160a01b0316856001600160a01b0316826001600160a01b03167f4a39dc06d4c0dbc64b70af90fd698a233a518aa5d07e595d983b8c0526c8f7fb8686604051612e13929190613894565b60405180910390a45050505050565b6001600160a01b0384163b1561199d5760405163f23a6e6160e01b81526001600160a01b0385169063f23a6e6190612e6690899089908890889088906004016138c2565b6020604051808303816000875af1925050508015612ea1575060408051601f3d908101601f19168201909252612e9e91810190613907565b60015b612f0a573d808015612ecf576040519150601f19603f3d011682016040523d82523d6000602084013e612ed4565b606091505b508051600003612f0257604051632bfa23e760e11b81526001600160a01b0386166004820152602401610852565b805181602001fd5b6001600160e01b0319811663f23a6e6160e01b14612b3857604051632bfa23e760e11b81526001600160a01b0386166004820152602401610852565b6001600160a01b0384163b1561199d5760405163bc197c8160e01b81526001600160a01b0385169063bc197c8190612f8a9089908990889088908890600401613924565b6020604051808303816000875af1925050508015612fc5575060408051601f3d908101601f19168201909252612fc291810190613907565b60015b612ff3573d808015612ecf576040519150601f19603f3d011682016040523d82523d6000602084013e612ed4565b6001600160e01b0319811663bc197c8160e01b14612b3857604051632bfa23e760e11b81526001600160a01b0386166004820152602401610852565b80356001600160a01b038116811461304657600080fd5b919050565b6000806040838503121561305e57600080fd5b6130678361302f565b946020939093013593505050565b6001600160e01b03198116811461218257600080fd5b60006020828403121561309d57600080fd5b81356130a881613075565b9392505050565b6000602082840312156130c157600080fd5b5035919050565b6000815180845260005b818110156130ee576020818501810151868301820152016130d2565b506000602082860101526020601f19601f83011685010191505092915050565b6020815260006130a860208301846130c8565b6000806040838503121561313457600080fd5b50508035926020909101359150565b60008083601f84011261315557600080fd5b50813567ffffffffffffffff81111561316d57600080fd5b6020830191508360208260051b850101111561318857600080fd5b9250929050565b600080600080604085870312156131a557600080fd5b843567ffffffffffffffff808211156131bd57600080fd5b6131c988838901613143565b909650945060208701359150808211156131e257600080fd5b506131ef87828801613143565b95989497509550505050565b634e487b7160e01b600052604160045260246000fd5b604051601f8201601f1916810167ffffffffffffffff8111828210171561323a5761323a6131fb565b604052919050565b600067ffffffffffffffff82111561325c5761325c6131fb565b5060051b60200190565b600082601f83011261327757600080fd5b8135602061328c61328783613242565b613211565b82815260059290921b840181019181810190868411156132ab57600080fd5b8286015b848110156132c657803583529183019183016132af565b509695505050505050565b600082601f8301126132e257600080fd5b813567ffffffffffffffff8111156132fc576132fc6131fb565b61330f601f8201601f1916602001613211565b81815284602083860101111561332457600080fd5b816020850160208301376000918101602001919091529392505050565b600080600080600060a0868803121561335957600080fd5b6133628661302f565b94506133706020870161302f565b9350604086013567ffffffffffffffff8082111561338d57600080fd5b61339989838a01613266565b945060608801359150808211156133af57600080fd5b6133bb89838a01613266565b935060808801359150808211156133d157600080fd5b506133de888289016132d1565b9150509295509295909350565b6000602082840312156133fd57600080fd5b6130a88261302f565b6000806040838503121561341957600080fd5b823567ffffffffffffffff8082111561343157600080fd5b818501915085601f83011261344557600080fd5b8135602061345561328783613242565b82815260059290921b8401810191818101908984111561347457600080fd5b948201945b838610156134995761348a8661302f565b82529482019490820190613479565b965050860135925050808211156134af57600080fd5b506134bc85828601613266565b9150509250929050565b600081518084526020808501945080840160005b838110156134f6578151875295820195908201906001016134da565b509495945050505050565b6020815260006130a860208301846134c6565b6000806040838503121561352757600080fd5b6135308361302f565b91506020830135801515811461354557600080fd5b809150509250929050565b634e487b7160e01b600052602160045260246000fd5b602081016006831061358857634e487b7160e01b600052602160045260246000fd5b91905290565b600080604083850312156135a157600080fd5b6135aa8361302f565b91506135b86020840161302f565b90509250929050565b600080600080600060a086880312156135d957600080fd5b6135e28661302f565b94506135f06020870161302f565b93506040860135925060608601359150608086013567ffffffffffffffff81111561361a57600080fd5b6133de888289016132d1565b600181811c9082168061363a57607f821691505b60208210810361365a57634e487b7160e01b600052602260045260246000fd5b50919050565b6020808252600f908201526e496e76616c6964206f7574636f6d6560881b604082015260600190565b634e487b7160e01b600052601160045260246000fd5b6000600160ff1b82016136b4576136b4613689565b5060000390565b808202811582820484141761074457610744613689565b6000826136ef57634e487b7160e01b600052601260045260246000fd5b500490565b8181038181111561074457610744613689565b8082018082111561074457610744613689565b818103600083128015838313168383128216171561373a5761373a613689565b5092915050565b634e487b7160e01b600052603260045260246000fd5b6020808252600a90820152694e6f74206f7261636c6560b01b604082015260600190565b60006001820161378d5761378d613689565b5060010190565b6040808252810184905260008560608301825b878110156137d5576001600160a01b036137c08461302f565b168252602092830192909101906001016137a7565b5083810360208501528481526001600160fb1b038511156137f557600080fd5b8460051b915081866020830137016020019695505050505050565b808201828112600083128015821682158216171561383057613830613689565b505092915050565b60208082526013908201527210dbdb9d195cdd081b9bdd081cd95d1d1b1959606a1b604082015260600190565b60006020828403121561387757600080fd5b5051919050565b634e487b7160e01b600052603160045260246000fd5b6040815260006138a760408301856134c6565b82810360208401526138b981856134c6565b95945050505050565b6001600160a01b03868116825285166020820152604081018490526060810183905260a0608082018190526000906138fc908301846130c8565b979650505050505050565b60006020828403121561391957600080fd5b81516130a881613075565b6001600160a01b0386811682528516602082015260a060408201819052600090613950908301866134c6565b828103606084015261396281866134c6565b9050828103608084015261397681856130c8565b9897505050505050505056fea26469706673582212209fcb3629bb8968c54fb2827f493598420ad2635b44cb91fb2530f9501b86184364736f6c63430008140033","linkReferences":{}},"methodIdentifiers":{"BPS_DENOMINATOR()":"e1a45218","PRICE_PRECISION()":"95082d25","SPECTATOR_ENTRY_FEE_BPS()":"fc810d7d","accumulatedPrizeBonus()":"32e6190b","activateContest()":"24f9cc4c","addPrediction(uint256,uint256)":"2e0ec188","balanceOf(address,uint256)":"00fdd58e","balanceOfBatch(address[],uint256[])":"4e1273f4","calculateOutcomePrice(uint256)":"11c5c792","cancel()":"ea8a1af0","cancelExpired()":"a01e4a1f","claimContestPayout()":"a9adb0fd","claimPredictionPayout(uint256)":"a56964ab","contestantBonuses(address)":"fc6cc4a3","contestantDepositAmount()":"1f85354a","contestants(uint256)":"dfd50f52","demandSensitivityBps()":"693b4660","distribute(address[],uint256[])":"2929abe6","expiryTimestamp()":"ade6e2aa","finalContestantPayouts(address)":"85c6c959","forceClose()":"77678414","getContestantAtIndex(uint256)":"f0014e13","getContestantsCount()":"8f466eaf","getSpectatorAtIndex(uint256)":"a450fe44","getSpectatorsCount()":"964766a5","isApprovedForAll(address,address)":"e985e9c5","isContestant(address)":"5a701e1e","isSpectator(address)":"3c9c73ed","joinContest()":"26bec2de","leaveContest()":"bf7753a2","liquidityParameter()":"3a69a1be","lockBetting()":"c798e243","netPosition(uint256)":"6932b382","oracle()":"7dc0d1d0","oracleFeeBps()":"5c76fda7","paymentToken()":"3013ce29","safeBatchTransferFrom(address,address,uint256[],uint256[],bytes)":"2eb2c2d6","safeTransferFrom(address,address,uint256,uint256,bytes)":"f242432a","setApprovalForAll(address,bool)":"a22cb465","spectatorMarketResolved()":"7bc09bad","spectatorTotalDeposited(address)":"e8f45ab2","spectatorWinningOutcome()":"5508bd6b","spectators(uint256)":"a5877e19","state()":"c19d93fb","supportsInterface(bytes4)":"01ffc9a7","totalContestantDeposits()":"7b8488ea","totalSpectatorCollateral()":"f1d57067","totalVolumeOnContestant(address)":"84e0d1b4","uri(uint256)":"0e89341c","withdrawPrediction(uint256,uint256)":"22fc1d0a"},"id":44}