{"abi":[{"type":"constructor","inputs":[{"name":"_paymentToken","type":"address","internalType":"address"},{"name":"_oracle","type":"address","internalType":"address"},{"name":"_contestantDepositAmount","type":"uint256","internalType":"uint256"},{"name":"_oracleFeeBps","type":"uint256","internalType":"uint256"},{"name":"_expiryTimestamp","type":"uint256","internalType":"uint256"},{"name":"_liquidityParameter","type":"uint256","internalType":"uint256"},{"name":"_demandSensitivityBps","type":"uint256","internalType":"uint256"},{"name":"_prizeShareBps","type":"uint256","internalType":"uint256"},{"name":"_userShareBps","type":"uint256","internalType":"uint256"}],"stateMutability":"nonpayable"},{"type":"function","name":"BPS_DENOMINATOR","inputs":[],"outputs":[{"name":"","type":"uint256","internalType":"uint256"}],"stateMutability":"view"},{"type":"function","name":"PRICE_PRECISION","inputs":[],"outputs":[{"name":"","type":"uint256","internalType":"uint256"}],"stateMutability":"view"},{"type":"function","name":"activateContest","inputs":[],"outputs":[],"stateMutability":"nonpayable"},{"type":"function","name":"addPrediction","inputs":[{"name":"entryId","type":"uint256","internalType":"uint256"},{"name":"amount","type":"uint256","internalType":"uint256"}],"outputs":[],"stateMutability":"nonpayable"},{"type":"function","name":"balanceOf","inputs":[{"name":"account","type":"address","internalType":"address"},{"name":"id","type":"uint256","internalType":"uint256"}],"outputs":[{"name":"","type":"uint256","internalType":"uint256"}],"stateMutability":"view"},{"type":"function","name":"balanceOfBatch","inputs":[{"name":"accounts","type":"address[]","internalType":"address[]"},{"name":"ids","type":"uint256[]","internalType":"uint256[]"}],"outputs":[{"name":"","type":"uint256[]","internalType":"uint256[]"}],"stateMutability":"view"},{"type":"function","name":"calculateEntryPrice","inputs":[{"name":"entryId","type":"uint256","internalType":"uint256"}],"outputs":[{"name":"","type":"uint256","internalType":"uint256"}],"stateMutability":"view"},{"type":"function","name":"cancelContest","inputs":[],"outputs":[],"stateMutability":"nonpayable"},{"type":"function","name":"cancelExpired","inputs":[],"outputs":[],"stateMutability":"nonpayable"},{"type":"function","name":"claimAllEntryPayouts","inputs":[],"outputs":[],"stateMutability":"nonpayable"},{"type":"function","name":"claimEntryPayout","inputs":[{"name":"entryId","type":"uint256","internalType":"uint256"}],"outputs":[],"stateMutability":"nonpayable"},{"type":"function","name":"claimPredictionPayout","inputs":[{"name":"entryId","type":"uint256","internalType":"uint256"}],"outputs":[],"stateMutability":"nonpayable"},{"type":"function","name":"closePredictions","inputs":[],"outputs":[],"stateMutability":"nonpayable"},{"type":"function","name":"contestPrizePool","inputs":[],"outputs":[{"name":"","type":"uint256","internalType":"uint256"}],"stateMutability":"view"},{"type":"function","name":"contestPrizePoolSubsidy","inputs":[],"outputs":[{"name":"","type":"uint256","internalType":"uint256"}],"stateMutability":"view"},{"type":"function","name":"contestantDepositAmount","inputs":[],"outputs":[{"name":"","type":"uint256","internalType":"uint256"}],"stateMutability":"view"},{"type":"function","name":"contestantSubsidy","inputs":[{"name":"","type":"uint256","internalType":"uint256"}],"outputs":[{"name":"","type":"uint256","internalType":"uint256"}],"stateMutability":"view"},{"type":"function","name":"demandSensitivityBps","inputs":[],"outputs":[{"name":"","type":"uint256","internalType":"uint256"}],"stateMutability":"view"},{"type":"function","name":"distributeExpiredContest","inputs":[],"outputs":[],"stateMutability":"nonpayable"},{"type":"function","name":"entries","inputs":[{"name":"","type":"uint256","internalType":"uint256"}],"outputs":[{"name":"","type":"uint256","internalType":"uint256"}],"stateMutability":"view"},{"type":"function","name":"entryOwner","inputs":[{"name":"","type":"uint256","internalType":"uint256"}],"outputs":[{"name":"","type":"address","internalType":"address"}],"stateMutability":"view"},{"type":"function","name":"entryWithdrawn","inputs":[{"name":"","type":"uint256","internalType":"uint256"}],"outputs":[{"name":"","type":"bool","internalType":"bool"}],"stateMutability":"view"},{"type":"function","name":"expiryTimestamp","inputs":[],"outputs":[{"name":"","type":"uint256","internalType":"uint256"}],"stateMutability":"view"},{"type":"function","name":"finalEntryPayouts","inputs":[{"name":"","type":"uint256","internalType":"uint256"}],"outputs":[{"name":"","type":"uint256","internalType":"uint256"}],"stateMutability":"view"},{"type":"function","name":"getEntriesCount","inputs":[],"outputs":[{"name":"","type":"uint256","internalType":"uint256"}],"stateMutability":"view"},{"type":"function","name":"getEntryAtIndex","inputs":[{"name":"index","type":"uint256","internalType":"uint256"}],"outputs":[{"name":"","type":"uint256","internalType":"uint256"}],"stateMutability":"view"},{"type":"function","name":"getSpectatorAtIndex","inputs":[{"name":"index","type":"uint256","internalType":"uint256"}],"outputs":[{"name":"","type":"address","internalType":"address"}],"stateMutability":"view"},{"type":"function","name":"getSpectatorsCount","inputs":[],"outputs":[{"name":"","type":"uint256","internalType":"uint256"}],"stateMutability":"view"},{"type":"function","name":"getUserEntriesCount","inputs":[{"name":"user","type":"address","internalType":"address"}],"outputs":[{"name":"","type":"uint256","internalType":"uint256"}],"stateMutability":"view"},{"type":"function","name":"getUserEntryAtIndex","inputs":[{"name":"user","type":"address","internalType":"address"},{"name":"index","type":"uint256","internalType":"uint256"}],"outputs":[{"name":"","type":"uint256","internalType":"uint256"}],"stateMutability":"view"},{"type":"function","name":"isApprovedForAll","inputs":[{"name":"account","type":"address","internalType":"address"},{"name":"operator","type":"address","internalType":"address"}],"outputs":[{"name":"","type":"bool","internalType":"bool"}],"stateMutability":"view"},{"type":"function","name":"isSpectator","inputs":[{"name":"","type":"address","internalType":"address"}],"outputs":[{"name":"","type":"bool","internalType":"bool"}],"stateMutability":"view"},{"type":"function","name":"joinContest","inputs":[{"name":"entryId","type":"uint256","internalType":"uint256"}],"outputs":[],"stateMutability":"nonpayable"},{"type":"function","name":"leaveContest","inputs":[{"name":"entryId","type":"uint256","internalType":"uint256"}],"outputs":[],"stateMutability":"nonpayable"},{"type":"function","name":"liquidityParameter","inputs":[],"outputs":[{"name":"","type":"uint256","internalType":"uint256"}],"stateMutability":"view"},{"type":"function","name":"netPosition","inputs":[{"name":"","type":"uint256","internalType":"uint256"}],"outputs":[{"name":"","type":"int256","internalType":"int256"}],"stateMutability":"view"},{"type":"function","name":"oracle","inputs":[],"outputs":[{"name":"","type":"address","internalType":"address"}],"stateMutability":"view"},{"type":"function","name":"oracleFeeBps","inputs":[],"outputs":[{"name":"","type":"uint256","internalType":"uint256"}],"stateMutability":"view"},{"type":"function","name":"paymentToken","inputs":[],"outputs":[{"name":"","type":"address","internalType":"contract IERC20"}],"stateMutability":"view"},{"type":"function","name":"predictionPrizePool","inputs":[],"outputs":[{"name":"","type":"uint256","internalType":"uint256"}],"stateMutability":"view"},{"type":"function","name":"prizeShareBps","inputs":[],"outputs":[{"name":"","type":"uint256","internalType":"uint256"}],"stateMutability":"view"},{"type":"function","name":"safeBatchTransferFrom","inputs":[{"name":"from","type":"address","internalType":"address"},{"name":"to","type":"address","internalType":"address"},{"name":"ids","type":"uint256[]","internalType":"uint256[]"},{"name":"values","type":"uint256[]","internalType":"uint256[]"},{"name":"data","type":"bytes","internalType":"bytes"}],"outputs":[],"stateMutability":"nonpayable"},{"type":"function","name":"safeTransferFrom","inputs":[{"name":"from","type":"address","internalType":"address"},{"name":"to","type":"address","internalType":"address"},{"name":"id","type":"uint256","internalType":"uint256"},{"name":"value","type":"uint256","internalType":"uint256"},{"name":"data","type":"bytes","internalType":"bytes"}],"outputs":[],"stateMutability":"nonpayable"},{"type":"function","name":"setApprovalForAll","inputs":[{"name":"operator","type":"address","internalType":"address"},{"name":"approved","type":"bool","internalType":"bool"}],"outputs":[],"stateMutability":"nonpayable"},{"type":"function","name":"settleContest","inputs":[{"name":"winningEntries","type":"uint256[]","internalType":"uint256[]"},{"name":"payoutBps","type":"uint256[]","internalType":"uint256[]"}],"outputs":[],"stateMutability":"nonpayable"},{"type":"function","name":"spectatorDepositedPerEntry","inputs":[{"name":"","type":"address","internalType":"address"},{"name":"","type":"uint256","internalType":"uint256"}],"outputs":[{"name":"","type":"uint256","internalType":"uint256"}],"stateMutability":"view"},{"type":"function","name":"spectatorMarketResolved","inputs":[],"outputs":[{"name":"","type":"bool","internalType":"bool"}],"stateMutability":"view"},{"type":"function","name":"spectatorTotalDeposited","inputs":[{"name":"","type":"address","internalType":"address"}],"outputs":[{"name":"","type":"uint256","internalType":"uint256"}],"stateMutability":"view"},{"type":"function","name":"spectatorWinningEntry","inputs":[],"outputs":[{"name":"","type":"uint256","internalType":"uint256"}],"stateMutability":"view"},{"type":"function","name":"spectators","inputs":[{"name":"","type":"uint256","internalType":"uint256"}],"outputs":[{"name":"","type":"address","internalType":"address"}],"stateMutability":"view"},{"type":"function","name":"state","inputs":[],"outputs":[{"name":"","type":"uint8","internalType":"enum Contest.ContestState"}],"stateMutability":"view"},{"type":"function","name":"supportsInterface","inputs":[{"name":"interfaceId","type":"bytes4","internalType":"bytes4"}],"outputs":[{"name":"","type":"bool","internalType":"bool"}],"stateMutability":"view"},{"type":"function","name":"uri","inputs":[{"name":"","type":"uint256","internalType":"uint256"}],"outputs":[{"name":"","type":"string","internalType":"string"}],"stateMutability":"view"},{"type":"function","name":"userEntries","inputs":[{"name":"","type":"address","internalType":"address"},{"name":"","type":"uint256","internalType":"uint256"}],"outputs":[{"name":"","type":"uint256","internalType":"uint256"}],"stateMutability":"view"},{"type":"function","name":"userShareBps","inputs":[],"outputs":[{"name":"","type":"uint256","internalType":"uint256"}],"stateMutability":"view"},{"type":"function","name":"withdrawPrediction","inputs":[{"name":"entryId","type":"uint256","internalType":"uint256"},{"name":"tokenAmount","type":"uint256","internalType":"uint256"}],"outputs":[],"stateMutability":"nonpayable"},{"type":"event","name":"ApprovalForAll","inputs":[{"name":"account","type":"address","indexed":true,"internalType":"address"},{"name":"operator","type":"address","indexed":true,"internalType":"address"},{"name":"approved","type":"bool","indexed":false,"internalType":"bool"}],"anonymous":false},{"type":"event","name":"ContestActivated","inputs":[],"anonymous":false},{"type":"event","name":"ContestCancelled","inputs":[],"anonymous":false},{"type":"event","name":"ContestForceDistributed","inputs":[{"name":"entriesPaid","type":"uint256","indexed":false,"internalType":"uint256"},{"name":"spectatorsPaid","type":"uint256","indexed":false,"internalType":"uint256"},{"name":"timestamp","type":"uint256","indexed":false,"internalType":"uint256"}],"anonymous":false},{"type":"event","name":"ContestSettled","inputs":[{"name":"winningEntries","type":"uint256[]","indexed":false,"internalType":"uint256[]"},{"name":"payouts","type":"uint256[]","indexed":false,"internalType":"uint256[]"}],"anonymous":false},{"type":"event","name":"EntryDeposited","inputs":[{"name":"owner","type":"address","indexed":true,"internalType":"address"},{"name":"entryId","type":"uint256","indexed":true,"internalType":"uint256"}],"anonymous":false},{"type":"event","name":"EntryPayoutClaimed","inputs":[{"name":"owner","type":"address","indexed":true,"internalType":"address"},{"name":"entryId","type":"uint256","indexed":true,"internalType":"uint256"},{"name":"amount","type":"uint256","indexed":false,"internalType":"uint256"}],"anonymous":false},{"type":"event","name":"EntryWithdrawn","inputs":[{"name":"entryId","type":"uint256","indexed":true,"internalType":"uint256"},{"name":"owner","type":"address","indexed":true,"internalType":"address"},{"name":"spectatorsRefunded","type":"uint256","indexed":false,"internalType":"uint256"}],"anonymous":false},{"type":"event","name":"PredictionAdded","inputs":[{"name":"spectator","type":"address","indexed":true,"internalType":"address"},{"name":"entryId","type":"uint256","indexed":true,"internalType":"uint256"},{"name":"amount","type":"uint256","indexed":false,"internalType":"uint256"},{"name":"tokensReceived","type":"uint256","indexed":false,"internalType":"uint256"}],"anonymous":false},{"type":"event","name":"PredictionWithdrawn","inputs":[{"name":"spectator","type":"address","indexed":true,"internalType":"address"},{"name":"amount","type":"uint256","indexed":false,"internalType":"uint256"}],"anonymous":false},{"type":"event","name":"PredictionsClosed","inputs":[],"anonymous":false},{"type":"event","name":"SpectatorAutoRefunded","inputs":[{"name":"spectator","type":"address","indexed":true,"internalType":"address"},{"name":"entryId","type":"uint256","indexed":true,"internalType":"uint256"},{"name":"amount","type":"uint256","indexed":false,"internalType":"uint256"}],"anonymous":false},{"type":"event","name":"SpectatorPayoutRedeemed","inputs":[{"name":"spectator","type":"address","indexed":true,"internalType":"address"},{"name":"entryId","type":"uint256","indexed":true,"internalType":"uint256"},{"name":"payout","type":"uint256","indexed":false,"internalType":"uint256"}],"anonymous":false},{"type":"event","name":"TransferBatch","inputs":[{"name":"operator","type":"address","indexed":true,"internalType":"address"},{"name":"from","type":"address","indexed":true,"internalType":"address"},{"name":"to","type":"address","indexed":true,"internalType":"address"},{"name":"ids","type":"uint256[]","indexed":false,"internalType":"uint256[]"},{"name":"values","type":"uint256[]","indexed":false,"internalType":"uint256[]"}],"anonymous":false},{"type":"event","name":"TransferSingle","inputs":[{"name":"operator","type":"address","indexed":true,"internalType":"address"},{"name":"from","type":"address","indexed":true,"internalType":"address"},{"name":"to","type":"address","indexed":true,"internalType":"address"},{"name":"id","type":"uint256","indexed":false,"internalType":"uint256"},{"name":"value","type":"uint256","indexed":false,"internalType":"uint256"}],"anonymous":false},{"type":"event","name":"URI","inputs":[{"name":"value","type":"string","indexed":false,"internalType":"string"},{"name":"id","type":"uint256","indexed":true,"internalType":"uint256"}],"anonymous":false},{"type":"error","name":"ERC1155InsufficientBalance","inputs":[{"name":"sender","type":"address","internalType":"address"},{"name":"balance","type":"uint256","internalType":"uint256"},{"name":"needed","type":"uint256","internalType":"uint256"},{"name":"tokenId","type":"uint256","internalType":"uint256"}]},{"type":"error","name":"ERC1155InvalidApprover","inputs":[{"name":"approver","type":"address","internalType":"address"}]},{"type":"error","name":"ERC1155InvalidArrayLength","inputs":[{"name":"idsLength","type":"uint256","internalType":"uint256"},{"name":"valuesLength","type":"uint256","internalType":"uint256"}]},{"type":"error","name":"ERC1155InvalidOperator","inputs":[{"name":"operator","type":"address","internalType":"address"}]},{"type":"error","name":"ERC1155InvalidReceiver","inputs":[{"name":"receiver","type":"address","internalType":"address"}]},{"type":"error","name":"ERC1155InvalidSender","inputs":[{"name":"sender","type":"address","internalType":"address"}]},{"type":"error","name":"ERC1155MissingApprovalForAll","inputs":[{"name":"operator","type":"address","internalType":"address"},{"name":"owner","type":"address","internalType":"address"}]},{"type":"error","name":"ReentrancyGuardReentrantCall","inputs":[]},{"type":"error","name":"SafeERC20FailedOperation","inputs":[{"name":"token","type":"address","internalType":"address"}]}],"bytecode":{"object":"0x6101a0346200050057620048d26001600160401b03601f38839003908101601f191684019082821185831017620004ea5780859460409384528539610120938491810103126200050057620000548462000505565b6020916200006483870162000505565b81870151606088015160808901519160a08a01519360c08b01519660e08c015198610100809d01519a8851908282019082821090821117620004ea57895260008091526002546001908181811c91168015620004df575b84821014620004cb57601f81116200049c575b5060028290556003556001600160a01b03928316928315620004585784161562000423578415620003df576103e886116200039b574287111562000366578715620003225761271090818b11620002de578c8c0190818d11620002ca57501162000287575060805260a05260c05260e0528752855261014091825261016092835261018093845260ff196004541660045551936143b795866200051b87396080518681816107d40152818161082401528181610dcc0152818161113d01528181611423015281816117e001528181611e3b015281816120470152818161225901528181612394015281816127340152612d2b015260a051868181610b0001528181610e54015281816116cd01528181611c28015281816120b10152612165015260c05186818161057f01528181610bcf0152611e09015260e0518681816117960152611cf7015251858181611d84015281816121b10152818161242801526128f70152518481816114960152613b10015251838181611eff0152613ae90152518281816106b901528181610ce20152818161100501526125930152518181816106f801528181610d15015281816110320152611bed0152f35b60649088519062461bcd60e51b82526004820152601660248201527f546f74616c2066656573206578636565642031303025000000000000000000006044820152fd5b634e487b7160e01b81526011600452602490fd5b895162461bcd60e51b815260048101849052601a60248201527f496e76616c69642064656d616e642073656e73697469766974790000000000006044820152606490fd5b885162461bcd60e51b815260048101839052601b60248201527f496e76616c6964206c697175696469747920706172616d6574657200000000006044820152606490fd5b885162461bcd60e51b815260048101839052600e60248201526d115e1c1a5c9e481a5b881c185cdd60921b6044820152606490fd5b885162461bcd60e51b815260048101839052601360248201527f4f7261636c652066656520746f6f2068696768000000000000000000000000006044820152606490fd5b885162461bcd60e51b815260048101839052601660248201527f496e76616c6964206465706f73697420616d6f756e74000000000000000000006044820152606490fd5b885162461bcd60e51b815260048101839052600e60248201526d496e76616c6964206f7261636c6560901b6044820152606490fd5b895162461bcd60e51b815260048101849052601560248201527f496e76616c6964207061796d656e7420746f6b656e00000000000000000000006044820152606490fd5b6002835281601f858520920160051c8201915b828110620004bf575050620000ce565b848155018290620004af565b634e487b7160e01b83526022600452602483fd5b90607f1690620000bb565b634e487b7160e01b600052604160045260246000fd5b600080fd5b51906001600160a01b0382168203620005005756fe6080604052600436101561001257600080fd5b60003560e01c8062fdd58e1461039657806301ffc9a71461039157806307b19bfb1461038c5780630b913af0146103875780630e89341c1461038257806317dd92581461037d5780631db0e667146103785780631f85354a1461037357806322fc1d0a1461036e57806324f9cc4c146103695780632e0ec188146103645780632eb2c2d61461035f5780633013ce291461035a578063375bef8b146103555780633a69a1be146103505780633c9c73ed1461034b5780634c60b1f1146103465780634e1273f414610341578063563930e71461033c57806359fe5d68146103375780635a3e4e9e146103325780635a9855c31461032d5780635c76fda7146103285780635d6e6c7c1461032357806367a89a3b1461031e5780636932b38214610319578063693b46601461031457806378449d571461030f5780637964b54a1461030a5780637bc09bad146103055780637dc0d1d0146103005780638c13d546146102fb57806395082d25146102f6578063964766a5146102f157806398e1eac3146102ec578063a006b468146102e7578063a01e4a1f146102e2578063a22cb465146102dd578063a422f348146102d8578063a450fe44146102d3578063a56964ab146102ce578063a5877e19146102c9578063ade6e2aa146102c4578063b30906d4146102bf578063c19d93fb146102ba578063c9a496aa146102b5578063d09685b0146102b0578063de11c839146102ab578063df1ef4c6146102a6578063e1a45218146102a1578063e1f370dd1461029c578063e70baa8914610297578063e8f45ab214610292578063e985e9c51461028d578063f242432a146102885763f8c5992b1461028357600080fd5b612c9b565b612b7d565b612b20565b612ae6565b612a9e565b612a78565b612a5b565b612a27565b612a09565b6129eb565b6129a3565b612979565b61291a565b6128df565b612896565b612608565b6125b6565b61257b565b6124bf565b612414565b6123f6565b61214d565b61212f565b612111565b6120e0565b61209b565b612078565b611f40565b611f22565b611ee7565b611ebb565b611e8f565b611d1a565b611cdf565b611c10565b611bd5565b611b9b565b61167e565b611593565b6114f8565b6114b9565b61147e565b611452565b61140d565b6112e6565b610f20565b610e3c565b610bf2565b610bb7565b610ae8565b610aca565b6109c4565b610918565b6104ad565b61043f565b6103e0565b600435906001600160a01b03821682036103b157565b600080fd5b602435906001600160a01b03821682036103b157565b35906001600160a01b03821682036103b157565b346103b15760403660031901126103b15760206104246103fe61039b565b6024356000526000835260406000209060018060a01b0316600052602052604060002090565b54604051908152f35b6001600160e01b03198116036103b157565b346103b15760203660031901126103b157602060043561045e8161042d565b63ffffffff60e01b16636cdb3d1360e11b811490811561049c575b811561048b575b506040519015158152f35b6301ffc9a760e01b14905038610480565b6303a24d0760e21b81149150610479565b346103b15760203660031901126103b1576004356104c96135ef565b6104f16104d860045460ff1690565b6104e181612959565b8015908115610887575b50613612565b610515610508826000526006602052604060002090565b546001600160a01b031690565b6001600160a01b03919061052c9083163314613677565b610559610554610550610549846000526007602052604060002090565b5460ff1690565b1590565b6136b5565b61057d610570826000526007602052604060002090565b805460ff19166001179055565b7f0000000000000000000000000000000000000000000000000000000000000000916105b36105ae84600854613722565b600855565b6000805b600b5481101561081b57836105e36105ce836108b1565b905460039190911b1c6001600160a01b031690565b84610613826105fc856000526000602052604060002090565b9060018060a01b0316600052602052604060002090565b54918261062d575b5050505061062890612d99565b6105b7565b6001600160a01b038116600090815260126020526040902061065b9085905b90600052602052604060002090565b549283610669575b5061061b565b84928261078461077f8688610756610751886106289e9f9c9a7f2306399dedc3481dae378e3b9952209dede2c0482a19e690b0231390d086061d9a61080e9f6106b192613793565b6106e66106de7f000000000000000000000000000000000000000000000000000000000000000086613747565b612710900490565b9061074761073f61072e61071d6106de7f00000000000000000000000000000000000000000000000000000000000000008a613747565b976107288987613096565b90613722565b97600052600d602052604060002090565b91825461377a565b9055600f54613722565b600f55565b61077561076d8a6000526010602052604060002090565b918254613722565b9055600e54613722565b600e55565b6001600160a01b03811660009081526011602052604090206107a7858254613722565b90556001600160a01b03811660009081526012602052604081206107cc90879061064c565b556107f884827f0000000000000000000000000000000000000000000000000000000000000000613935565b604051938452169180602081015b0390a3612d99565b9190508338848180610663565b508261084885337f0000000000000000000000000000000000000000000000000000000000000000613935565b60405191825233917fa0eeb808a10f56b15221fb8aeefb2b8cf677a82e4924d099bd08659179f2ead09080602081015b0390a36108856001600355565b005b6004915061089481612959565b14386104eb565b634e487b7160e01b600052603260045260246000fd5b600b548110156108d657600b6000526000805160206143628339815191520190600090565b61089b565b6005548110156108d65760056000526000805160206143428339815191520190600090565b80548210156108d65760005260206000200190600090565b346103b15760403660031901126103b15761093161039b565b6001600160a01b03166000908152600a60205260409020805460243591908210156103b15760209161096291610900565b90546040519160031b1c8152f35b919082519283825260005b84811061099c575050826000602080949584010152601f8019910116010190565b60208183018101518483018201520161097b565b9060206109c1928181520190610970565b90565b346103b1576020806003193601126103b1576040519060009060025460019181831c92808316928315610ac0575b8285108414610aac578487526020870193908115610a8d5750600114610a33575b610a2f86610a23818803826111eb565b604051918291826109b0565b0390f35b6002600090815294509192917f405787fa12a823e0f2b7631cc41b3ba8828b3321ca811111fa75cd3aa3bb5ace5b838610610a7c5750505091019050610a2382610a2f38610a13565b805485870152948201948101610a61565b60ff1916845250505090151560051b019050610a2382610a2f38610a13565b634e487b7160e01b86526022600452602486fd5b93607f16936109f2565b346103b15760003660031901126103b1576020600f54604051908152f35b346103b157600080600319360112610bb457610b2e337f00000000000000000000000000000000000000000000000000000000000000006001600160a01b031614613985565b60ff600454166006811015610ba057806003610b539214159081610b8b575b5061423a565b610b64600460ff1981541617600455565b7f9237e8f0d5063a695b8695e82c82bc24d15591de9d04449771a6ea4b128317378180a180f35b60059150610b9881612959565b141538610b4d565b634e487b7160e01b82526021600452602482fd5b80fd5b346103b15760003660031901126103b15760206040517f00000000000000000000000000000000000000000000000000000000000000008152f35b346103b15760403660031901126103b157602435610db8600435610c146135ef565b610c3c610c2360045460ff1690565b610c2c81612959565b8015908115610e28575b50613db8565b6000818152600660205260409020610c68906001600160a01b0390610c6090610508565b1615156139f7565b610c73831515613bc3565b610c9783610c8f336105fc856000526000602052604060002090565b541015613e1d565b610d8861077f610cd9610cb8336105fc866000526000602052604060002090565b54336000908152601160205260409020610cd490889054613747565b61375a565b94610d076106de7f000000000000000000000000000000000000000000000000000000000000000088613747565b610d71610751610d3a6106de7f00000000000000000000000000000000000000000000000000000000000000008b613747565b92610d4e610d488583613096565b8b613722565b94610d5a818a33613793565b61074761073f8a600052600d602052604060002090565b61077561076d866000526010602052604060002090565b336000908152601160205260409020610da2848254613722565b905533600090815260126020526040902061064c565b610dc3828254613722565b9055610df081337f0000000000000000000000000000000000000000000000000000000000000000613935565b60405190815233907f9cb65bacdb5e304250d6133102b1ff3d8c1334b18125cd716921b31fc163aeea90602090a26108856001600355565b60049150610e3581612959565b1438610c36565b346103b157600080600319360112610bb457610e82337f00000000000000000000000000000000000000000000000000000000000000006001600160a01b031614613985565b60ff600454166006811015610ba057610edb57610ea260055415156139be565b610eb4600160ff196004541617600455565b7f3927b788a62eb53f7192cd9286f49295f01b938b6afc23aef0af5d035cd853168180a180f35b60405162461bcd60e51b815260206004820152601760248201527f436f6e7465737420616c726561647920737461727465640000000000000000006044820152606490fd5b346103b15760403660031901126103b157600435602435610f3f6135ef565b610f67610f4e60045460ff1690565b610f5781612959565b80159081156111a0575b50613b77565b6000828152600660205260409020610f8b906001600160a01b0390610c6090610508565b610fad610fa8610550610549856000526007602052604060002090565b613a3a565b610fb8811515613bc3565b336000908152600c60205260409020610fd49061055090610549565b61117a575b7f0a9c87fe11971c997b7c38f2c1f9f0ceef6eaf02052d9620b38466c4a1ef2c7361087861102a6106de7f000000000000000000000000000000000000000000000000000000000000000085613747565b6110576106de7f000000000000000000000000000000000000000000000000000000000000000086613747565b61107961075161107061106a8486613096565b88613722565b93600f54613096565b611098611090876000526010602052604060002090565b918254613096565b90553360009081526011602052604090206110b4858254613096565b90553360009081526012602052604090206110d090869061064c565b6110db858254613096565b905561113561077f6110f86110ef88613a78565b610cd48561372f565b9261110c61110461314d565b858a33613c72565b61112088600052600d602052604060002090565b61112b858254613c56565b9055600e54613096565b6111618430337f0000000000000000000000000000000000000000000000000000000000000000613538565b6040805194855260208501919091523393918291820190565b61118333613c04565b336000908152600c6020526040902061119b90610570565b610fd9565b600191506111ad81612959565b1438610f61565b634e487b7160e01b600052604160045260246000fd5b6020810190811067ffffffffffffffff8211176111e657604052565b6111b4565b90601f8019910116810190811067ffffffffffffffff8211176111e657604052565b67ffffffffffffffff81116111e65760051b60200190565b81601f820112156103b15780359161123c8361120d565b9261124a60405194856111eb565b808452602092838086019260051b8201019283116103b1578301905b828210611274575050505090565b81358152908301908301611266565b67ffffffffffffffff81116111e657601f01601f191660200190565b81601f820112156103b1578035906112b682611283565b926112c460405194856111eb565b828452602083830101116103b157816000926020809301838601378301015290565b346103b15760a03660031901126103b1576112ff61039b565b6113076103b6565b906044359167ffffffffffffffff908184116103b15761132c60049436908601611225565b906064358381116103b1576113449036908701611225565b926084359081116103b15761135c903690870161129f565b936001600160a01b038082169033821415806113e9575b6113bc578316156113a4571561138d576108859550612e86565b604051626a0d4560e21b8152600081880152602490fd5b604051632bfa23e760e11b8152600081890152602490fd5b6040805163711bec9160e11b815233818b019081526001600160a01b038616602082015290918291010390fd5b50600082815260016020908152604080832033845290915290205460ff1615611373565b346103b15760003660031901126103b1576040517f00000000000000000000000000000000000000000000000000000000000000006001600160a01b03168152602090f35b346103b15760203660031901126103b15760043560005260106020526020604060002054604051908152f35b346103b15760003660031901126103b15760206040517f00000000000000000000000000000000000000000000000000000000000000008152f35b346103b15760203660031901126103b1576001600160a01b036114da61039b565b16600052600c602052602060ff604060002054166040519015158152f35b346103b15760403660031901126103b157602061096261151661039b565b6001600160a01b03166000818152600a84526040902054602435919061153d908310614305565b600052600a83526040600020610900565b90815180825260208080930193019160005b82811061156e575050505090565b835185529381019392810192600101611560565b9060206109c192818152019061154e565b346103b15760403660031901126103b15760043567ffffffffffffffff8082116103b157366023830112156103b15781600401356115d08161120d565b926115de60405194856111eb565b81845260209160248386019160051b830101913683116103b157602401905b82821061163657856024358681116103b157610a2f9161162461162a923690600401611225565b90612dc1565b60405191829182611582565b838091611642846103cc565b8152019101906115fd565b9181601f840112156103b15782359167ffffffffffffffff83116103b1576020808501948460051b0101116103b157565b346103b1576040806003193601126103b15767ffffffffffffffff6004358181116103b1576116b190369060040161164d565b916024359081116103b1576116ca90369060040161164d565b937f0000000000000000000000000000000000000000000000000000000000000000611700336001600160a01b03831614613985565b6117086135ef565b60045460ff169061171882612959565b611733600192838114908115611b87575b5090889391613e60565b61173e871515613eac565b611749838814613ef8565b6005906117598254891115613f3c565b6000805b858110611b4757506127106117729114613fe0565b611784600360ff196004541617600455565b611793600854600f5490613096565b907f00000000000000000000000000000000000000000000000000000000000000006117d86106de6117c86106de8487613747565b946117d284613701565b90613747565b8a60008a8a8d7f00000000000000000000000000000000000000000000000000000000000000009b5b8c868610611a9f5750505050505050506000938285905b6119e2575b505050509061182b91613096565b806119d1575b50506118466118408686613f7b565b35601355565b611858600160ff196014541617601455565b61186e601354600052600d602052604060002090565b5490600e549182151590816119c8575b506118c4575b5050936118b7917f0fed27f5e3cd741c181cc0d3b0c47df2013638faa8b7aa7084de3946098eb78e955194859485614050565b0390a16108856001600355565b6118ce6000600e55565b600091825b8781106119575750917f0fed27f5e3cd741c181cc0d3b0c47df2013638faa8b7aa7084de3946098eb78e979391836118b79694831061191a575b5050509195819350611884565b61194f9261192791613722565b906119496105086119388b8b613f7b565b356000526006602052604060002090565b90613935565b38808061190d565b611962818989613f84565b3561197b6106de611974848d8b613f84565b3585613747565b80611991575b505061198c90612d99565b6118d3565b806119bb6105086119aa6119c19461198c97969a613096565b986000526006602052604060002090565b86613935565b9038611981565b9050153861187e565b6119db9183613935565b3880611831565b8154811015611a9a57611a016119f7826108db565b90549060031b1c90565b611a15816000526010602052604060002090565b5480611a2d575b5050611a2790612d99565b83611818565b611a9390611a8d610508611a7c859b6000611a56611a2799986000526010602052604060002090565b55611a76611a6f6106de611a698d613701565b88613747565b8096613722565b90613096565b9a6000526006602052604060002090565b8b613935565b9038611a1c565b61181d565b611b06611aed6106de611ae68961080696611adf82611b3b9e7f701dad1e38516ac5470bc60eb299368a20c7f2b50f2a5b4bcbd0e5a3a74c186e9b613f84565b359a613f84565b358b613747565b8092611949610508896000526006602052604060002090565b611b2c611b20610508876000526006602052604060002090565b6001600160a01b031690565b93519081529081906020820190565b8b908a8a8f8e90611801565b9194611b7e91611b66611b5e85611b78948c613f84565b351515613f94565b611b71848d8b613f84565b3590613096565b91612d99565b9089949161175d565b60029150611b9481612959565b1438611729565b346103b15760203660031901126103b1576001600160a01b03611bbc61039b565b16600052600a6020526020604060002054604051908152f35b346103b15760003660031901126103b15760206040517f00000000000000000000000000000000000000000000000000000000000000008152f35b346103b157600080600319360112610bb457611c56337f00000000000000000000000000000000000000000000000000000000000000006001600160a01b031614613985565b60ff600454166006811015610ba057600103611ca557611c7e600260ff196004541617600455565b7f91b4dd20084a71e964f322b0044cfe5523abf93f4d02b7e3ed621e1500fd16228180a180f35b60405162461bcd60e51b8152602060048201526012602482015271436f6e74657374206e6f742061637469766560701b6044820152606490fd5b346103b15760003660031901126103b15760206040517f00000000000000000000000000000000000000000000000000000000000000008152f35b346103b15760203660031901126103b157600435611d366135ef565b611d54611d4560045460ff1690565b611d4e81612959565b1561340d565b6000818152600660205260409020611d7f906001600160a01b0390611d7890610508565b161561344c565b611daa7f0000000000000000000000000000000000000000000000000000000000000000421061348f565b611db3816134cd565b611dea33611dcb836000526006602052604060002090565b80546001600160a01b0319166001600160a01b03909216919091179055565b336000908152600a60205260409020611e04908290613503565b611e5f7f0000000000000000000000000000000000000000000000000000000000000000611e376105ae82600854613096565b30337f0000000000000000000000000000000000000000000000000000000000000000613538565b337f4d503c0f892472082177d76a3e17f685ac26922907be7d7d9a76d287c75b011a600080a36108856001600355565b346103b15760203660031901126103b15760043560005260096020526020604060002054604051908152f35b346103b15760203660031901126103b157600435600052600d6020526020604060002054604051908152f35b346103b15760003660031901126103b15760206040517f00000000000000000000000000000000000000000000000000000000000000008152f35b346103b15760003660031901126103b1576020601354604051908152f35b346103b157600080600319360112610bb457611f5a6135ef565b611f7a6003611f6b60045460ff1690565b611f7481612959565b14614077565b336000908152600a602052604090208190611f94906140f1565b9082905b825182101561203457611fab8284612dad565b5191611fc1836000526009602052604060002090565b549283611fdb575b50611fd5919250612d99565b90611f98565b611ffe84611fd59488611ff8856000526009602052604060002090565b55613096565b6040519485529333907f701dad1e38516ac5470bc60eb299368a20c7f2b50f2a5b4bcbd0e5a3a74c186e90602090a38291611fc9565b61206b8491612044811515614140565b337f0000000000000000000000000000000000000000000000000000000000000000613935565b6120756001600355565b80f35b346103b15760003660031901126103b157602060ff601454166040519015158152f35b346103b15760003660031901126103b1576040517f00000000000000000000000000000000000000000000000000000000000000006001600160a01b03168152602090f35b346103b15760203660031901126103b1576004356000526007602052602060ff604060002054166040519015158152f35b346103b15760003660031901126103b1576020604051620f42408152f35b346103b15760003660031901126103b1576020600b54604051908152f35b346103b157600080600319360112610bb457612193337f00000000000000000000000000000000000000000000000000000000000000006001600160a01b031614613985565b61219b6135ef565b6121ac6003611f6b60045460ff1690565b6121d87f00000000000000000000000000000000000000000000000000000000000000004210156142c4565b8080805b60055481101561228a576121f26119f7826108db565b612206816000526009602052604060002090565b54908161221e575b505061221990612d99565b6121dc565b9261227d61228292612257610508878a612246612219999a6000526009602052604060002090565b556000526006602052604060002090565b7f0000000000000000000000000000000000000000000000000000000000000000613935565b612d99565b91903861220e565b506013916122a38354600052600d602052604060002090565b549283612303575b507f81af9be4712c68e4890ef828e7ecb62e37897b50b7c0edab83fd545bd6d060b292506122e1600560ff196004541617600455565b6040805192835260208301919091524290820152606090a16120756001600355565b9192845b600b548110156123c05761231d6105ce826108b1565b84546000818152602081815260408083206001600160a01b038616845290915290205484918161235a575b5050505061235590612d99565b612307565b8161236d6123769493610cd49387613793565b600e5490613747565b9081612385575b808491612348565b9361227d6123b89261235594967f0000000000000000000000000000000000000000000000000000000000000000613935565b92903861237d565b50507f81af9be4712c68e4890ef828e7ecb62e37897b50b7c0edab83fd545bd6d060b29291506123f06000600e55565b386122ab565b346103b15760003660031901126103b1576020600e54604051908152f35b346103b157600080600319360112610bb4577f0000000000000000000000000000000000000000000000000000000000000000421061248c57610b5361245c60045460ff1690565b61246581612959565b60038114159081612477575b50614286565b6005915061248481612959565b141538612471565b60405162461bcd60e51b815260206004820152600b60248201526a139bdd08195e1c1a5c995960aa1b6044820152606490fd5b346103b15760403660031901126103b1576124d861039b565b60243590811515908183036103b1576001600160a01b038116928315612563576125246125359233600052600160205260406000209060018060a01b0316600052602052604060002090565b9060ff801983541691151516179055565b6040519081527f17307eab39ab6107e8899845ad3d59bd9653f200f220920489ca2b5937696c3160203392a3005b60405162ced3e160e81b815260006004820152602490fd5b346103b15760003660031901126103b15760206040517f00000000000000000000000000000000000000000000000000000000000000008152f35b346103b15760203660031901126103b157600435600b5481106125d881614305565b156108d657600b60005260008051602061436283398151915201546040516001600160a01b039091168152602090f35b346103b1576020806003193601126103b157600435906126266135ef565b6126376003611f6b60045460ff1690565b61264b61264660145460ff1690565b614179565b60018060a01b039061266e82610c60610508866000526006602052604060002090565b612686336105fc856000526000602052604060002090565b549182151591612695836141bb565b6126a0848633613793565b60009360135486146126e3575b604051858152869033907fd661a3227475e550e8171253b7c0e37ede0ff071f017a4c55b647d5a04b5e435908060208101610878565b90919293506127176126ff86600052600d602052604060002090565b5461270b8115156141f3565b610cd4600e5484613747565b93612877575b506040516370a0823160e01b8082523060048301527f0000000000000000000000000000000000000000000000000000000000000000938416918381602481865afa9081156128165760009161285a575b50808611612852575b508461281b575b61279286600052600d602052604060002090565b546126ad57604051908152306004820152908290829060249082905afa918215612816576000926127e9575b5050806127cd575b80806126ad565b6127e2916127db6000600e55565b3390613935565b38806127c6565b6128089250803d1061280f575b61280081836111eb565b81019061422b565b38806127be565b503d6127f6565b613141565b600e5485116128435761283361077f86600e54613722565b61283e853386613935565b61277e565b61284d6000600e55565b612833565b945038612777565b6128719150843d861161280f5761280081836111eb565b3861276e565b61288e61073f86600052600d602052604060002090565b90553861271d565b346103b15760203660031901126103b157600435600b548110156103b157600b60005260008051602061436283398151915201546040516001600160a01b039091168152602090f35b346103b15760003660031901126103b15760206040517f00000000000000000000000000000000000000000000000000000000000000008152f35b346103b15760203660031901126103b1576004356005548110156103b15760209060056000526000805160206143428339815191520154604051908152f35b6006111561296357565b634e487b7160e01b600052602160045260246000fd5b346103b15760003660031901126103b15760ff600454166040516006821015612963576020918152f35b346103b15760203660031901126103b15760043560055481106129c581614305565b156108d65760209060056000526000805160206143428339815191520154604051908152f35b346103b15760003660031901126103b1576020600554604051908152f35b346103b15760003660031901126103b1576020600854604051908152f35b346103b15760203660031901126103b1576004356000526006602052602060018060a01b0360406000205416604051908152f35b346103b15760003660031901126103b15760206040516127108152f35b346103b15760203660031901126103b1576020612a96600435613a78565b604051908152f35b346103b15760403660031901126103b1576001600160a01b03612abf61039b565b16600052601260205260406000206024356000526020526020604060002054604051908152f35b346103b15760203660031901126103b1576001600160a01b03612b0761039b565b1660005260116020526020604060002054604051908152f35b346103b15760403660031901126103b157602060ff612b71612b4061039b565b612b486103b6565b6001600160a01b0391821660009081526001865260408082209290931681526020919091522090565b54166040519015158152f35b346103b15760a03660031901126103b157612b9661039b565b612b9e6103b6565b60843567ffffffffffffffff81116103b157612bbe90369060040161129f565b906001600160a01b03838116903382141580612c77575b612c5057821615612c375715612c1f5761088592612c176064356044359160405192600184526020840152604083019160018352606084015260808301604052565b929091612e86565b604051626a0d4560e21b815260006004820152602490fd5b604051632bfa23e760e11b815260006004820152602490fd5b60405163711bec9160e11b81523360048201526001600160a01b0386166024820152604490fd5b50600082815260016020908152604080832033845290915290205460ff1615612bd5565b346103b15760203660031901126103b157600435612cb76135ef565b612ccb600360ff60045416611f7481612959565b612cf5612ce5610508836000526006602052604060002090565b6001600160a01b03163314613677565b612d09816000526009602052604060002090565b54612d158115156140b9565b600082815260096020526040812055612d4f81337f0000000000000000000000000000000000000000000000000000000000000000613935565b60405190815233907f701dad1e38516ac5470bc60eb299368a20c7f2b50f2a5b4bcbd0e5a3a74c186e908060208101610878565b634e487b7160e01b600052601160045260246000fd5b6000198114612da85760010190565b612d83565b80518210156108d65760209160051b010190565b91909180518351808203612e64575050805190612ddd8261120d565b91612deb60405193846111eb565b808352612dfa601f199161120d565b0190602091368385013760005b8151811015612e5c57600581901b8281018401519087018401516000908152602081815260408083206001600160a01b0390941683529290522054612e579190612e518287612dad565b52612d99565b612e07565b509193505050565b604051635b05999160e01b815260048101919091526024810191909152604490fd5b949190918151845190818103612e6457505060005b8251811015612f8f57600581901b83810160209081015191870101516001600160a01b03929186908a8516612f08575b612ede948216612ee3575b505050612d99565b612e9b565b612efe916105fc611090926000526000602052604060002090565b9055388581612ed6565b9192939050612f258a6105fc846000526000602052604060002090565b54838110612f585791879184612ede96959403612f508d6105fc856000526000602052604060002090565b559450612ecb565b6040516303dee4c560e01b81526001600160a01b038c16600482015260248101919091526044810184905260648101839052608490fd5b50949193929093600185511460001461303a576020858101518382015160408051928352928201526001600160a01b03838116929086169133917fc3d58168c5ae7397731d063d5bbf3d657854427343f4c083240f7aacaa2d0f6291a45b6001600160a01b038116613003575b5050505050565b84516001036130295760208061301f960151920151923361328a565b3880808080612ffc565b613035949192336133d6565b61301f565b6040516001600160a01b03828116919085169033907f4a39dc06d4c0dbc64b70af90fd698a233a518aa5d07e595d983b8c0526c8f7fb908061307d888c836130a3565b0390a4612fed565b90620f4240918201809211612da857565b91908201809211612da857565b90916130ba6109c19360408452604084019061154e565b91602081840391015261154e565b908160209103126103b157516109c18161042d565b909260a0926109c19594600180861b0316835260006020840152604083015260608201528160808201520190610970565b91926109c195949160a094600180871b038092168552166020840152604083015260608201528160808201520190610970565b6040513d6000823e3d90fd5b6040519061315a826111ca565b60008252565b3d1561318b573d9061317182611283565b9161317f60405193846111eb565b82523d6000602084013e565b606090565b9293919093843b6131a2575050505050565b6020916131c5604051948593849363f23a6e6160e01b98898652600486016130dd565b038160006001600160a01b0388165af16000918161325a575b5061321d57826131ec613160565b805191908261321657604051632bfa23e760e11b81526001600160a01b0383166004820152602490fd5b9050602001fd5b6001600160e01b0319160361323757503880808080612ffc565b604051632bfa23e760e11b81526001600160a01b03919091166004820152602490fd5b61327c91925060203d8111613283575b61327481836111eb565b8101906130c8565b90386131de565b503d61326a565b939290949194853b61329f575b505050505050565b6132c2602093604051958694859463f23a6e6160e01b998a87526004870161310e565b038160006001600160a01b0388165af160009181613304575b506132e957826131ec613160565b6001600160e01b031916036132375750388080808080613297565b61331d91925060203d81116132835761327481836111eb565b90386132db565b926133536109c195936133619360018060a01b031686526000602087015260a0604087015260a086019061154e565b90848203606086015261154e565b916080818403910152610970565b93906109c19593613353916133619460018060a01b03809216885216602087015260a0604087015260a086019061154e565b9293919093843b6133b3575050505050565b6020916131c5604051948593849363bc197c8160e01b9889865260048601613324565b939290949194853b6133ea57505050505050565b6132c2602093604051958694859463bc197c8160e01b998a87526004870161336f565b1561341457565b60405162461bcd60e51b815260206004820152601060248201526f21b7b73a32b9ba103737ba1037b832b760811b6044820152606490fd5b1561345357565b60405162461bcd60e51b8152602060048201526014602482015273456e74727920616c72656164792065786973747360601b6044820152606490fd5b1561349657565b60405162461bcd60e51b815260206004820152600f60248201526e10dbdb9d195cdd08195e1c1a5c9959608a1b6044820152606490fd5b600554600160401b8110156111e65760018101806005558110156108d65760056000526000805160206143428339815191520155565b8054600160401b8110156111e65761352091600182018155610900565b819291549060031b91821b91600019901b1916179055565b6040516323b872dd60e01b60208201526001600160a01b03928316602482015292909116604483015260648083019390935291815260a081019181831067ffffffffffffffff8411176111e65761359192604052613593565b565b906000602091828151910182855af115613141576000513d6135e657506001600160a01b0381163b155b6135c45750565b604051635274afe760e01b81526001600160a01b039091166004820152602490fd5b600114156135bd565b600260035414613600576002600355565b604051633ee5aeb560e01b8152600490fd5b1561361957565b60405162461bcd60e51b815260206004820152603060248201527f43616e6e6f74207769746864726177202d20636f6e7465737420696e2070726f60448201526f19dc995cdcc81bdc881cd95d1d1b195960821b6064820152608490fd5b1561367e57565b60405162461bcd60e51b815260206004820152600f60248201526e2737ba1032b73a393c9037bbb732b960891b6044820152606490fd5b156136bc57565b60405162461bcd60e51b815260206004820152601760248201527f456e74727920616c72656164792077697468647261776e0000000000000000006044820152606490fd5b90612710918203918211612da857565b90620f4240918203918211612da857565b91908203918211612da857565b90620f424091828102928184041490151715612da857565b81810292918115918404141715612da857565b8115613764570490565b634e487b7160e01b600052601260045260246000fd5b81810392916000138015828513169184121617612da857565b6001600160a01b038116929091908315612c1f576137ce60405192600184526020840152604083019160018352606084015260808301604052565b9190604094600086516137e0816111ca565b52815184519081810361391457505060005b825181101561388d578060051b60208082860101519187010151613824866105fc846000526000602052604060002090565b5481811061385757866105fc61385295949361384c9303936000526000602052604060002090565b55612d99565b6137f2565b89516303dee4c560e01b81526001600160a01b038816600482015260248101919091526044810182905260648101839052608490fd5b509490600094939250600181511485146138e25760209081015192810151915192835282015233907fc3d58168c5ae7397731d063d5bbf3d657854427343f4c083240f7aacaa2d0f629080604081015b0390a4565b905133927f4a39dc06d4c0dbc64b70af90fd698a233a518aa5d07e595d983b8c0526c8f7fb9282916138dd91836130a3565b8751635b05999160e01b815260048101919091526024810191909152604490fd5b60405163a9059cbb60e01b60208201526001600160a01b039092166024830152604480830193909352918152608081019167ffffffffffffffff8311828410176111e65761359192604052613593565b1561398c57565b60405162461bcd60e51b815260206004820152600a6024820152694e6f74206f7261636c6560b01b6044820152606490fd5b156139c557565b60405162461bcd60e51b815260206004820152600a6024820152694e6f20656e747269657360b01b6044820152606490fd5b156139fe57565b60405162461bcd60e51b8152602060048201526014602482015273115b9d1c9e48191bd95cc81b9bdd08195e1a5cdd60621b6044820152606490fd5b15613a4157565b60405162461bcd60e51b815260206004820152600f60248201526e22b73a393c903bb4ba34323930bbb760891b6044820152606490fd5b600081815260066020526040902054613ad19190613aa0906001600160a01b031615156139f7565b613ac160ff613ab9836000526007602052604060002090565b541615613a3a565b600052600d602052604060002090565b546000808212919082613b5e5750613b0e613b35915b7f000000000000000000000000000000000000000000000000000000000000000090613747565b7f00000000000000000000000000000000000000000000000000000000000000009061375a565b9080613b52575b613b49576109c190613085565b6109c190613711565b50620f42408110613b3c565b600160ff1b8214612da857613b3591613b0e9103613ae7565b15613b7e57565b60405162461bcd60e51b815260206004820152601960248201527f50726564696374696f6e73206e6f7420617661696c61626c65000000000000006044820152606490fd5b15613bca57565b60405162461bcd60e51b81526020600482015260126024820152710416d6f756e74206d757374206265203e20360741b6044820152606490fd5b600b54600160401b8110156111e6576001810180600b558110156108d657600b6000526000805160206143628339815191520180546001600160a01b0319166001600160a01b03909216919091179055565b91909160008382019384129112908015821691151617612da857565b6001600160a01b03811693929091908415612c3757613cae60405192600184526020840152604083019160018352606084015260808301604052565b928151845190818103612e6457505060005b8251811015613d055780613d009160051b613cf9611090876105fc602080868b010151958c010151946000526000602052604060002090565b9055612d99565b613cc0565b509291936001825114600014613d7c5760208281015184820151604080519283529282015260009133917fc3d58168c5ae7397731d063d5bbf3d657854427343f4c083240f7aacaa2d0f629190a45b8051600103613d725790602080613591959301519101519133613190565b61359193336133a1565b60006040517f4a39dc06d4c0dbc64b70af90fd698a233a518aa5d07e595d983b8c0526c8f7fb339180613db08888836130a3565b0390a4613d54565b15613dbf57565b60405162461bcd60e51b815260206004820152603060248201527f43616e6e6f74207769746864726177202d20636f6d7065746974696f6e20737460448201526f185c9d1959081bdc881cd95d1d1b195960821b6064820152608490fd5b15613e2457565b60405162461bcd60e51b8152602060048201526014602482015273496e73756666696369656e742062616c616e636560601b6044820152606490fd5b15613e6757565b60405162461bcd60e51b815260206004820152601c60248201527f436f6e74657374206e6f7420616374697665206f72206c6f636b6564000000006044820152606490fd5b15613eb357565b60405162461bcd60e51b815260206004820152601d60248201527f4d7573742068617665206174206c65617374206f6e652077696e6e65720000006044820152606490fd5b15613eff57565b60405162461bcd60e51b8152602060048201526015602482015274082e4e4c2f240d8cadccee8d040dad2e6dac2e8c6d605b1b6044820152606490fd5b15613f4357565b60405162461bcd60e51b815260206004820152601060248201526f546f6f206d616e792077696e6e65727360801b6044820152606490fd5b90156108d65790565b91908110156108d65760051b0190565b15613f9b57565b60405162461bcd60e51b815260206004820152601960248201527f557365206e6f6e2d7a65726f207061796f757473206f6e6c79000000000000006044820152606490fd5b15613fe757565b60405162461bcd60e51b815260206004820152601860248201527f5061796f757473206d7573742073756d20746f203130302500000000000000006044820152606490fd5b81835290916001600160fb1b0383116103b15760209260051b809284830137010190565b9290614069906109c1959360408652604086019161402c565b92602081850391015261402c565b1561407e57565b60405162461bcd60e51b815260206004820152601360248201527210dbdb9d195cdd081b9bdd081cd95d1d1b1959606a1b6044820152606490fd5b156140c057565b60405162461bcd60e51b8152602060048201526009602482015268139bc81c185e5bdd5d60ba1b6044820152606490fd5b9060405191828154918282526020928383019160005283600020936000905b82821061412657505050613591925003836111eb565b855484526001958601958895509381019390910190614110565b1561414757565b60405162461bcd60e51b815260206004820152600a6024820152694e6f207061796f75747360b01b6044820152606490fd5b1561418057565b60405162461bcd60e51b815260206004820152601360248201527213585c9ad95d081b9bdd081c995cdbdb1d9959606a1b6044820152606490fd5b156141c257565b60405162461bcd60e51b81526020600482015260096024820152684e6f20746f6b656e7360b81b6044820152606490fd5b156141fa57565b60405162461bcd60e51b81526020600482015260096024820152684e6f20737570706c7960b81b6044820152606490fd5b908160209103126103b1575190565b1561424157565b60405162461bcd60e51b815260206004820152601f60248201527f436f6e7465737420736574746c6564202d2063616e6e6f742063616e63656c006044820152606490fd5b1561428d57565b60405162461bcd60e51b815260206004820152600f60248201526e105b1c9958591e481cd95d1d1b1959608a1b6044820152606490fd5b156142cb57565b60405162461bcd60e51b8152602060048201526012602482015271115e1c1a5c9e481b9bdd081c995858da195960721b6044820152606490fd5b1561430c57565b60405162461bcd60e51b815260206004820152600d60248201526c092dcecc2d8d2c840d2dcc8caf609b1b6044820152606490fdfe036b6384b5eca791c62761152d0c79bb0604c104a5fb6f4eb0703f3154bb3db00175b7a638427703f0dbe7bb9bbf987a2551717b34e79f33b5b1008d1fa01db9a26469706673582212201325f678e63b024a4cd8caf5c39724497be14dae598c5baebfa22b836403dcd664736f6c63430008140033","linkReferences":{}},"methodIdentifiers":{"BPS_DENOMINATOR()":"e1a45218","PRICE_PRECISION()":"95082d25","activateContest()":"24f9cc4c","addPrediction(uint256,uint256)":"2e0ec188","balanceOf(address,uint256)":"00fdd58e","balanceOfBatch(address[],uint256[])":"4e1273f4","calculateEntryPrice(uint256)":"e1f370dd","cancelContest()":"1db0e667","cancelExpired()":"a01e4a1f","claimAllEntryPayouts()":"7964b54a","claimEntryPayout(uint256)":"f8c5992b","claimPredictionPayout(uint256)":"a56964ab","closePredictions()":"5a9855c3","contestPrizePool()":"de11c839","contestPrizePoolSubsidy()":"17dd9258","contestantDepositAmount()":"1f85354a","contestantSubsidy(uint256)":"375bef8b","demandSensitivityBps()":"693b4660","distributeExpiredContest()":"98e1eac3","entries(uint256)":"b30906d4","entryOwner(uint256)":"df1ef4c6","entryWithdrawn(uint256)":"8c13d546","expiryTimestamp()":"ade6e2aa","finalEntryPayouts(uint256)":"67a89a3b","getEntriesCount()":"d09685b0","getEntryAtIndex(uint256)":"c9a496aa","getSpectatorAtIndex(uint256)":"a450fe44","getSpectatorsCount()":"964766a5","getUserEntriesCount(address)":"59fe5d68","getUserEntryAtIndex(address,uint256)":"4c60b1f1","isApprovedForAll(address,address)":"e985e9c5","isSpectator(address)":"3c9c73ed","joinContest(uint256)":"5d6e6c7c","leaveContest(uint256)":"07b19bfb","liquidityParameter()":"3a69a1be","netPosition(uint256)":"6932b382","oracle()":"7dc0d1d0","oracleFeeBps()":"5c76fda7","paymentToken()":"3013ce29","predictionPrizePool()":"a006b468","prizeShareBps()":"a422f348","safeBatchTransferFrom(address,address,uint256[],uint256[],bytes)":"2eb2c2d6","safeTransferFrom(address,address,uint256,uint256,bytes)":"f242432a","setApprovalForAll(address,bool)":"a22cb465","settleContest(uint256[],uint256[])":"563930e7","spectatorDepositedPerEntry(address,uint256)":"e70baa89","spectatorMarketResolved()":"7bc09bad","spectatorTotalDeposited(address)":"e8f45ab2","spectatorWinningEntry()":"78449d57","spectators(uint256)":"a5877e19","state()":"c19d93fb","supportsInterface(bytes4)":"01ffc9a7","uri(uint256)":"0e89341c","userEntries(address,uint256)":"0b913af0","userShareBps()":"5a3e4e9e","withdrawPrediction(uint256,uint256)":"22fc1d0a"},"id":44}