{"abi":[{"type":"constructor","inputs":[{"name":"_name","type":"string","internalType":"string"},{"name":"_entryFee","type":"uint256","internalType":"uint256"},{"name":"_maxParticipants","type":"uint256","internalType":"uint256"},{"name":"_endTime","type":"uint256","internalType":"uint256"},{"name":"_paymentToken","type":"address","internalType":"address"},{"name":"_oracle","type":"address","internalType":"address"},{"name":"_aavePoolAddressesProvider","type":"address","internalType":"address"}],"stateMutability":"nonpayable"},{"type":"function","name":"aUSDC","inputs":[],"outputs":[{"name":"","type":"address","internalType":"contract IERC20"}],"stateMutability":"view"},{"type":"function","name":"aavePool","inputs":[],"outputs":[{"name":"","type":"address","internalType":"contract IPool"}],"stateMutability":"view"},{"type":"function","name":"cancelAndRefund","inputs":[],"outputs":[],"stateMutability":"nonpayable"},{"type":"function","name":"closeEntry","inputs":[],"outputs":[],"stateMutability":"nonpayable"},{"type":"function","name":"details","inputs":[],"outputs":[{"name":"name","type":"string","internalType":"string"},{"name":"entryFee","type":"uint256","internalType":"uint256"},{"name":"maxParticipants","type":"uint256","internalType":"uint256"},{"name":"endTime","type":"uint256","internalType":"uint256"}],"stateMutability":"view"},{"type":"function","name":"distribute","inputs":[{"name":"_payoutBasisPoints","type":"uint256[]","internalType":"uint256[]"}],"outputs":[],"stateMutability":"nonpayable"},{"type":"function","name":"emergencyWithdraw","inputs":[],"outputs":[],"stateMutability":"nonpayable"},{"type":"function","name":"enter","inputs":[],"outputs":[],"stateMutability":"nonpayable"},{"type":"function","name":"hasEntered","inputs":[{"name":"","type":"address","internalType":"address"}],"outputs":[{"name":"","type":"bool","internalType":"bool"}],"stateMutability":"view"},{"type":"function","name":"leave","inputs":[],"outputs":[],"stateMutability":"nonpayable"},{"type":"function","name":"oracle","inputs":[],"outputs":[{"name":"","type":"address","internalType":"address"}],"stateMutability":"view"},{"type":"function","name":"owner","inputs":[],"outputs":[{"name":"","type":"address","internalType":"address"}],"stateMutability":"view"},{"type":"function","name":"participants","inputs":[{"name":"","type":"uint256","internalType":"uint256"}],"outputs":[{"name":"","type":"address","internalType":"address"}],"stateMutability":"view"},{"type":"function","name":"paymentToken","inputs":[],"outputs":[{"name":"","type":"address","internalType":"contract IERC20"}],"stateMutability":"view"},{"type":"function","name":"renounceOwnership","inputs":[],"outputs":[],"stateMutability":"nonpayable"},{"type":"function","name":"state","inputs":[],"outputs":[{"name":"","type":"uint8","internalType":"enum Contest.ContestState"}],"stateMutability":"view"},{"type":"function","name":"totalInitialDeposits","inputs":[],"outputs":[{"name":"","type":"uint256","internalType":"uint256"}],"stateMutability":"view"},{"type":"function","name":"transferOwnership","inputs":[{"name":"newOwner","type":"address","internalType":"address"}],"outputs":[],"stateMutability":"nonpayable"},{"type":"event","name":"ContestCancelled","inputs":[],"anonymous":false},{"type":"event","name":"ContestEntered","inputs":[{"name":"participant","type":"address","indexed":true,"internalType":"address"}],"anonymous":false},{"type":"event","name":"ContestLeft","inputs":[{"name":"participant","type":"address","indexed":true,"internalType":"address"}],"anonymous":false},{"type":"event","name":"EntryClosed","inputs":[],"anonymous":false},{"type":"event","name":"OwnershipTransferred","inputs":[{"name":"previousOwner","type":"address","indexed":true,"internalType":"address"},{"name":"newOwner","type":"address","indexed":true,"internalType":"address"}],"anonymous":false},{"type":"event","name":"ParticipantRefunded","inputs":[{"name":"participant","type":"address","indexed":true,"internalType":"address"},{"name":"amount","type":"uint256","indexed":false,"internalType":"uint256"}],"anonymous":false},{"type":"event","name":"PayoutsDistributed","inputs":[{"name":"payouts","type":"uint256[]","indexed":false,"internalType":"uint256[]"}],"anonymous":false},{"type":"error","name":"OwnableInvalidOwner","inputs":[{"name":"owner","type":"address","internalType":"address"}]},{"type":"error","name":"OwnableUnauthorizedAccount","inputs":[{"name":"account","type":"address","internalType":"address"}]},{"type":"error","name":"ReentrancyGuardReentrantCall","inputs":[]}],"bytecode":{"object":"0x61010060405234801561001157600080fd5b506040516123a03803806123a08339810160408190526100309161029f565b6001600055338061005b57604051631e4fbdf760e01b81526000600482015260240160405180910390fd5b610064816101c2565b506040805160808101825288815260208101889052908101869052606081018590526004806100938a82610425565b50602082810151600183015560408084015160028401556060909301516003928301556001600160a01b0386811660805285811660a052825460ff1916909255825163026b1d5f60e01b8152925184939284169263026b1d5f9260048083019391928290030181865afa15801561010e573d6000803e3d6000fd5b505050506040513d601f19601f8201168201806040525081019061013291906104e3565b6001600160a01b0390811660c08190526040516335ea6a7560e01b81529186166004830152906335ea6a75906024016101e060405180830381865afa15801561017f573d6000803e3d6000fd5b505050506040513d601f19601f820116820180604052508101906101a39190610584565b61010001516001600160a01b031660e052506106b09650505050505050565b600180546001600160a01b038381166001600160a01b0319831681179093556040519116919082907f8be0079c531659141344cd1fd0a4f28419497f9722a3daafe3b4186f6b6457e090600090a35050565b634e487b7160e01b600052604160045260246000fd5b6040516101e081016001600160401b038111828210171561024d5761024d610214565b60405290565b604051601f8201601f191681016001600160401b038111828210171561027b5761027b610214565b604052919050565b80516001600160a01b038116811461029a57600080fd5b919050565b600080600080600080600060e0888a0312156102ba57600080fd5b87516001600160401b038111156102d057600080fd5b8801601f81018a136102e157600080fd5b80516001600160401b038111156102fa576102fa610214565b61030d601f8201601f1916602001610253565b8181528b602083850101111561032257600080fd5b60005b8281101561034157602081850181015183830182015201610325565b5060006020928201830152908a015160408b015160608c0151929a5090985096509450610372905060808901610283565b925061038060a08901610283565b915061038e60c08901610283565b905092959891949750929550565b600181811c908216806103b057607f821691505b6020821081036103d057634e487b7160e01b600052602260045260246000fd5b50919050565b601f82111561042057806000526020600020601f840160051c810160208510156103fd5750805b601f840160051c820191505b8181101561041d5760008155600101610409565b50505b505050565b81516001600160401b0381111561043e5761043e610214565b6104528161044c845461039c565b846103d6565b6020601f821160018114610486576000831561046e5750848201515b600019600385901b1c1916600184901b17845561041d565b600084815260208120601f198516915b828110156104b65787850151825560209485019460019092019101610496565b50848210156104d45786840151600019600387901b60f8161c191681555b50505050600190811b01905550565b6000602082840312156104f557600080fd5b6104fe82610283565b9392505050565b60006020828403121561051757600080fd5b604051602081016001600160401b038111828210171561053957610539610214565b6040529151825250919050565b80516001600160801b038116811461029a57600080fd5b805164ffffffffff8116811461029a57600080fd5b805161ffff8116811461029a57600080fd5b60006101e082840312801561059857600080fd5b506105a161022a565b6105ab8484610505565b81526105b960208401610546565b60208201526105ca60408401610546565b60408201526105db60608401610546565b60608201526105ec60808401610546565b60808201526105fd60a08401610546565b60a082015261060e60c0840161055d565b60c082015261061f60e08401610572565b60e08201526106316101008401610283565b6101008201526106446101208401610283565b6101208201526106576101408401610283565b61014082015261066a6101608401610283565b61016082015261067d6101808401610546565b6101808201526106906101a08401610546565b6101a08201526106a36101c08401610546565b6101c08201529392505050565b60805160a05160c05160e051611bfa6107a6600039600081816101de01528181610360015261091901526000818161025d015281816103f2015281816109a601528181610edc01528181611214015281816115f801526116cf015260008181610225015281816106940152818161076b01528181610ce101526113690152600081816101620152818161041f0152818161050c01528181610602015281816106c3015281816109d301528181610b4101528181610c4f01528181610d1001528181610f0901528181610f9701528181611241015281816112cf01528181611521015281816115cb01526116920152611bfa6000f3fe608060405234801561001057600080fd5b50600436106101165760003560e01c80637dc0d1d0116100a2578063d66d9e1911610071578063d66d9e1914610299578063db2e21bc146102a1578063e79181c6146102a9578063e97dcb62146102b1578063f2fde38b146102b957600080fd5b80637dc0d1d0146102205780638da5cb5b14610247578063a03e4bc314610258578063c19d93fb1461027f57600080fd5b80634ea4f8e6116100e95780634ea4f8e6146101af57806351cc0da7146101c2578063559fda33146101d9578063565974d314610200578063715018a61461021857600080fd5b80632009dc651461011b57806324d70dea146101255780633013ce291461015d57806335c1d3491461019c575b600080fd5b6101236102cc565b005b6101486101333660046118a1565b60086020526000908152604090205460ff1681565b60405190151581526020015b60405180910390f35b6101847f000000000000000000000000000000000000000000000000000000000000000081565b6040516001600160a01b039091168152602001610154565b6101846101aa3660046118d1565b610736565b6101236101bd3660046118ea565b610760565b6101cb60025481565b604051908152602001610154565b6101847f000000000000000000000000000000000000000000000000000000000000000081565b610208610d87565b6040516101549493929190611961565b610123610e2b565b6101847f000000000000000000000000000000000000000000000000000000000000000081565b6001546001600160a01b0316610184565b6101847f000000000000000000000000000000000000000000000000000000000000000081565b60035461028c9060ff1681565b60405161015491906119da565b610123610e3f565b610123611168565b61012361135e565b610123611431565b6101236102c73660046118a1565b6117b2565b6102d46117f0565b60006003805460ff16908111156102ed576102ed6119c4565b146103135760405162461bcd60e51b815260040161030a90611a02565b60405180910390fd5b6003805460ff1916811790556040517f9237e8f0d5063a695b8695e82c82bc24d15591de9d04449771a6ea4b1283173790600090a16040516370a0823160e01b81523060048201526000907f00000000000000000000000000000000000000000000000000000000000000006001600160a01b0316906370a0823190602401602060405180830381865afa1580156103af573d6000803e3d6000fd5b505050506040513d601f19601f820116820180604052508101906103d39190611a2c565b9050801561049057604051631a4ca37b60e21b81526001600160a01b037f000000000000000000000000000000000000000000000000000000000000000016906369328dec9061044b907f00000000000000000000000000000000000000000000000000000000000000009085903090600401611a45565b6020604051808303816000875af115801561046a573d6000803e3d6000fd5b505050506040513d601f19601f8201168201806040525081019061048e9190611a2c565b505b60005b6009548110156105dd576000600982815481106104b2576104b2611a68565b60009182526020808320909101546001600160a01b0316808352600890915260409091205490915060ff16156105d45760055460405163a9059cbb60e01b81526001600160a01b03838116600483015260248201929092527f00000000000000000000000000000000000000000000000000000000000000009091169063a9059cbb906044016020604051808303816000875af1158015610557573d6000803e3d6000fd5b505050506040513d601f19601f8201168201806040525081019061057b9190611a7e565b506001600160a01b038116600081815260086020908152604091829020805460ff1916905560055491519182527f357ff40138a06ece2e77a160416673f406b2401bab0927942c4b31e96afeb248910160405180910390a25b50600101610493565b506105ea6009600061186f565b6040516370a0823160e01b81523060048201526000907f00000000000000000000000000000000000000000000000000000000000000006001600160a01b0316906370a0823190602401602060405180830381865afa158015610651573d6000803e3d6000fd5b505050506040513d601f19601f820116820180604052508101906106759190611a2c565b905080156107325760405163a9059cbb60e01b81526001600160a01b037f000000000000000000000000000000000000000000000000000000000000000081166004830152602482018390527f0000000000000000000000000000000000000000000000000000000000000000169063a9059cbb906044016020604051808303816000875af115801561070c573d6000803e3d6000fd5b505050506040513d601f19601f820116820180604052508101906107309190611a7e565b505b5050565b6009818154811061074657600080fd5b6000918252602090912001546001600160a01b0316905081565b336001600160a01b037f000000000000000000000000000000000000000000000000000000000000000016146107c55760405162461bcd60e51b815260206004820152600a6024820152694e6f74206f7261636c6560b01b604482015260640161030a565b60016003805460ff16908111156107de576107de6119c4565b1461082b5760405162461bcd60e51b815260206004820152601760248201527f436f6e74657374206e6f7420696e2070726f6772657373000000000000000000604482015260640161030a565b60095481146108755760405162461bcd60e51b8152602060048201526016602482015275092dcecc2d8d2c840e0c2f2deeae8e640d8cadccee8d60531b604482015260640161030a565b6000805b828110156108af5783838281811061089357610893611a68565b90506020020135826108a59190611ab6565b9150600101610879565b5080612710146109015760405162461bcd60e51b815260206004820181905260248201527f546f74616c206d75737420626520313030303020626173697320706f696e7473604482015260640161030a565b6040516370a0823160e01b81523060048201526000907f00000000000000000000000000000000000000000000000000000000000000006001600160a01b0316906370a0823190602401602060405180830381865afa158015610968573d6000803e3d6000fd5b505050506040513d601f19601f8201168201806040525081019061098c9190611a2c565b604051631a4ca37b60e21b81529091506001600160a01b037f000000000000000000000000000000000000000000000000000000000000000016906369328dec906109ff907f00000000000000000000000000000000000000000000000000000000000000009085903090600401611a45565b6020604051808303816000875af1158015610a1e573d6000803e3d6000fd5b505050506040513d601f19601f82011682018060405250810190610a429190611a2c565b5060008367ffffffffffffffff811115610a5e57610a5e611acf565b604051908082528060200260200182016040528015610a87578160200160208202803683370190505b50905060005b84811015610aed57612710868683818110610aaa57610aaa611a68565b90506020020135600254610abe9190611ae5565b610ac89190611afc565b828281518110610ada57610ada611a68565b6020908102919091010152600101610a8d565b506003805460ff191660021790556040517fc841c91bdaa23c1c4bdb58cea14d01f2024cc9ef361c26151d0f82cf6216af3c90610b2b908390611b1e565b60405180910390a160005b8151811015610c36577f00000000000000000000000000000000000000000000000000000000000000006001600160a01b031663a9059cbb60098381548110610b8157610b81611a68565b9060005260206000200160009054906101000a90046001600160a01b0316848481518110610bb157610bb1611a68565b60200260200101516040518363ffffffff1660e01b8152600401610bea9291906001600160a01b03929092168252602082015260400190565b6020604051808303816000875af1158015610c09573d6000803e3d6000fd5b505050506040513d601f19601f82011682018060405250810190610c2d9190611a7e565b50600101610b36565b506040516370a0823160e01b81523060048201526000907f00000000000000000000000000000000000000000000000000000000000000006001600160a01b0316906370a0823190602401602060405180830381865afa158015610c9e573d6000803e3d6000fd5b505050506040513d601f19601f82011682018060405250810190610cc29190611a2c565b90508015610d7f5760405163a9059cbb60e01b81526001600160a01b037f000000000000000000000000000000000000000000000000000000000000000081166004830152602482018390527f0000000000000000000000000000000000000000000000000000000000000000169063a9059cbb906044016020604051808303816000875af1158015610d59573d6000803e3d6000fd5b505050506040513d601f19601f82011682018060405250810190610d7d9190611a7e565b505b505050505050565b600480548190610d9690611b61565b80601f0160208091040260200160405190810160405280929190818152602001828054610dc290611b61565b8015610e0f5780601f10610de457610100808354040283529160200191610e0f565b820191906000526020600020905b815481529060010190602001808311610df257829003601f168201915b5050505050908060010154908060020154908060030154905084565b610e336117f0565b610e3d600061181d565b565b60006003805460ff1690811115610e5857610e586119c4565b14610e755760405162461bcd60e51b815260040161030a90611a02565b3360009081526008602052604090205460ff16610ec25760405162461bcd60e51b815260206004820152600b60248201526a139bdd08195b9d195c995960aa1b604482015260640161030a565b600554604051631a4ca37b60e21b81526001600160a01b037f000000000000000000000000000000000000000000000000000000000000000016916369328dec91610f33917f0000000000000000000000000000000000000000000000000000000000000000913090600401611a45565b6020604051808303816000875af1158015610f52573d6000803e3d6000fd5b505050506040513d601f19601f82011682018060405250810190610f769190611a2c565b5060055460405163a9059cbb60e01b815233600482015260248101919091527f00000000000000000000000000000000000000000000000000000000000000006001600160a01b03169063a9059cbb906044016020604051808303816000875af1158015610fe8573d6000803e3d6000fd5b505050506040513d601f19601f8201168201806040525081019061100c9190611a7e565b5060055460028054600090611022908490611b9b565b9091555050336000908152600860205260408120805460ff191690555b60095481101561113a57336001600160a01b03166009828154811061106657611066611a68565b6000918252602090912001546001600160a01b031603611132576009805461109090600190611b9b565b815481106110a0576110a0611a68565b600091825260209091200154600980546001600160a01b0390921691839081106110cc576110cc611a68565b9060005260206000200160006101000a8154816001600160a01b0302191690836001600160a01b03160217905550600980548061110b5761110b611bae565b600082815260209020810160001990810180546001600160a01b031916905501905561113a565b60010161103f565b5060405133907f3b4c73af13f824ed105a106e6028c2c875414b487d9e05d6b71cc29cc17a63a290600090a2565b3360009081526008602052604090205460ff166111b55760405162461bcd60e51b815260206004820152600b60248201526a139bdd08195b9d195c995960aa1b604482015260640161030a565b60075442116111fa5760405162461bcd60e51b815260206004820152601160248201527010dbdb9d195cdd081b9bdd08195b991959607a1b604482015260640161030a565b600554604051631a4ca37b60e21b81526001600160a01b037f000000000000000000000000000000000000000000000000000000000000000016916369328dec9161126b917f0000000000000000000000000000000000000000000000000000000000000000913090600401611a45565b6020604051808303816000875af115801561128a573d6000803e3d6000fd5b505050506040513d601f19601f820116820180604052508101906112ae9190611a2c565b5060055460405163a9059cbb60e01b815233600482015260248101919091527f00000000000000000000000000000000000000000000000000000000000000006001600160a01b03169063a9059cbb906044016020604051808303816000875af1158015611320573d6000803e3d6000fd5b505050506040513d601f19601f820116820180604052508101906113449190611a7e565b50336000908152600860205260409020805460ff19169055565b336001600160a01b037f000000000000000000000000000000000000000000000000000000000000000016146113c35760405162461bcd60e51b815260206004820152600a6024820152694e6f74206f7261636c6560b01b604482015260640161030a565b60006003805460ff16908111156113dc576113dc6119c4565b146113f95760405162461bcd60e51b815260040161030a90611a02565b6003805460ff191660011790556040517f7284d0466035e33033537f3ba45309c13d7987b85dc198a5f0c4179d85960b2490600090a1565b60006003805460ff169081111561144a5761144a6119c4565b146114675760405162461bcd60e51b815260040161030a90611a02565b3360009081526008602052604090205460ff16156114b95760405162461bcd60e51b815260206004820152600f60248201526e105b1c9958591e48195b9d195c9959608a1b604482015260640161030a565b600654600954106114fb5760405162461bcd60e51b815260206004820152600c60248201526b10dbdb9d195cdd08199d5b1b60a21b604482015260640161030a565b6005546040516323b872dd60e01b815233600482015230602482015260448101919091527f00000000000000000000000000000000000000000000000000000000000000006001600160a01b0316906323b872dd906064016020604051808303816000875af1158015611572573d6000803e3d6000fd5b505050506040513d601f19601f820116820180604052508101906115969190611a7e565b50600554600280546000906115ac908490611ab6565b909155505060055460405163095ea7b360e01b81526001600160a01b037f0000000000000000000000000000000000000000000000000000000000000000169163095ea7b391611634917f0000000000000000000000000000000000000000000000000000000000000000916004016001600160a01b03929092168252602082015260400190565b6020604051808303816000875af1158015611653573d6000803e3d6000fd5b505050506040513d601f19601f820116820180604052508101906116779190611a7e565b5060055460405163617ba03760e01b81526001600160a01b037f0000000000000000000000000000000000000000000000000000000000000000811660048301526024820192909252306044820152600060648201527f00000000000000000000000000000000000000000000000000000000000000009091169063617ba03790608401600060405180830381600087803b15801561171557600080fd5b505af1158015611729573d6000803e3d6000fd5b50506009805460018181019092557f6e1540171b6c0c960b71a7020d9f60077f6af931a8bbf590da0223dacf75c7af0180546001600160a01b03191633908117909155600081815260086020526040808220805460ff191690941790935591519093507fd9a5d560deba3dbf49e6ff3bcbd63368413ae5c61aa3af28115af040577565999250a2565b6117ba6117f0565b6001600160a01b0381166117e457604051631e4fbdf760e01b81526000600482015260240161030a565b6117ed8161181d565b50565b6001546001600160a01b03163314610e3d5760405163118cdaa760e01b815233600482015260240161030a565b600180546001600160a01b038381166001600160a01b0319831681179093556040519116919082907f8be0079c531659141344cd1fd0a4f28419497f9722a3daafe3b4186f6b6457e090600090a35050565b50805460008255906000526020600020908101906117ed91905b8082111561189d5760008155600101611889565b5090565b6000602082840312156118b357600080fd5b81356001600160a01b03811681146118ca57600080fd5b9392505050565b6000602082840312156118e357600080fd5b5035919050565b600080602083850312156118fd57600080fd5b823567ffffffffffffffff81111561191457600080fd5b8301601f8101851361192557600080fd5b803567ffffffffffffffff81111561193c57600080fd5b8560208260051b840101111561195157600080fd5b6020919091019590945092505050565b608081526000855180608084015260005b8181101561198f57602081890181015160a0868401015201611972565b50600060a0828501015260a0601f19601f83011684010191505084602083015283604083015282606083015295945050505050565b634e487b7160e01b600052602160045260246000fd5b60208101600483106119fc57634e487b7160e01b600052602160045260246000fd5b91905290565b60208082526010908201526f21b7b73a32b9ba103737ba1037b832b760811b604082015260600190565b600060208284031215611a3e57600080fd5b5051919050565b6001600160a01b0393841681526020810192909252909116604082015260600190565b634e487b7160e01b600052603260045260246000fd5b600060208284031215611a9057600080fd5b815180151581146118ca57600080fd5b634e487b7160e01b600052601160045260246000fd5b80820180821115611ac957611ac9611aa0565b92915050565b634e487b7160e01b600052604160045260246000fd5b8082028115828204841417611ac957611ac9611aa0565b600082611b1957634e487b7160e01b600052601260045260246000fd5b500490565b602080825282518282018190526000918401906040840190835b81811015611b56578351835260209384019390920191600101611b38565b509095945050505050565b600181811c90821680611b7557607f821691505b602082108103611b9557634e487b7160e01b600052602260045260246000fd5b50919050565b81810381811115611ac957611ac9611aa0565b634e487b7160e01b600052603160045260246000fdfea2646970667358221220fac4286d759121752fc1f33ebe96eb5e819f557a318035347a472703c41d280964736f6c634300081a0033","linkReferences":{}},"methodIdentifiers":{"aUSDC()":"559fda33","aavePool()":"a03e4bc3","cancelAndRefund()":"2009dc65","closeEntry()":"e79181c6","details()":"565974d3","distribute(uint256[])":"4ea4f8e6","emergencyWithdraw()":"db2e21bc","enter()":"e97dcb62","hasEntered(address)":"24d70dea","leave()":"d66d9e19","oracle()":"7dc0d1d0","owner()":"8da5cb5b","participants(uint256)":"35c1d349","paymentToken()":"3013ce29","renounceOwnership()":"715018a6","state()":"c19d93fb","totalInitialDeposits()":"51cc0da7","transferOwnership(address)":"f2fde38b"},"id":29}