{"abi":[{"type":"constructor","inputs":[{"name":"_paymentToken","type":"address","internalType":"address"},{"name":"_oracle","type":"address","internalType":"address"},{"name":"_contestantDepositAmount","type":"uint256","internalType":"uint256"},{"name":"_oracleFeeBps","type":"uint256","internalType":"uint256"},{"name":"_expiryTimestamp","type":"uint256","internalType":"uint256"},{"name":"_liquidityParameter","type":"uint256","internalType":"uint256"},{"name":"_demandSensitivityBps","type":"uint256","internalType":"uint256"},{"name":"_prizeShareBps","type":"uint256","internalType":"uint256"},{"name":"_userShareBps","type":"uint256","internalType":"uint256"}],"stateMutability":"nonpayable"},{"type":"function","name":"BPS_DENOMINATOR","inputs":[],"outputs":[{"name":"","type":"uint256","internalType":"uint256"}],"stateMutability":"view"},{"type":"function","name":"PRICE_PRECISION","inputs":[],"outputs":[{"name":"","type":"uint256","internalType":"uint256"}],"stateMutability":"view"},{"type":"function","name":"accumulatedPrizeBonus","inputs":[],"outputs":[{"name":"","type":"uint256","internalType":"uint256"}],"stateMutability":"view"},{"type":"function","name":"activateContest","inputs":[],"outputs":[],"stateMutability":"nonpayable"},{"type":"function","name":"addPrediction","inputs":[{"name":"entryId","type":"uint256","internalType":"uint256"},{"name":"amount","type":"uint256","internalType":"uint256"}],"outputs":[],"stateMutability":"nonpayable"},{"type":"function","name":"balanceOf","inputs":[{"name":"account","type":"address","internalType":"address"},{"name":"id","type":"uint256","internalType":"uint256"}],"outputs":[{"name":"","type":"uint256","internalType":"uint256"}],"stateMutability":"view"},{"type":"function","name":"balanceOfBatch","inputs":[{"name":"accounts","type":"address[]","internalType":"address[]"},{"name":"ids","type":"uint256[]","internalType":"uint256[]"}],"outputs":[{"name":"","type":"uint256[]","internalType":"uint256[]"}],"stateMutability":"view"},{"type":"function","name":"calculateEntryPrice","inputs":[{"name":"entryId","type":"uint256","internalType":"uint256"}],"outputs":[{"name":"","type":"uint256","internalType":"uint256"}],"stateMutability":"view"},{"type":"function","name":"cancelContest","inputs":[],"outputs":[],"stateMutability":"nonpayable"},{"type":"function","name":"cancelExpired","inputs":[],"outputs":[],"stateMutability":"nonpayable"},{"type":"function","name":"claimAllEntryPayouts","inputs":[],"outputs":[],"stateMutability":"nonpayable"},{"type":"function","name":"claimEntryPayout","inputs":[{"name":"entryId","type":"uint256","internalType":"uint256"}],"outputs":[],"stateMutability":"nonpayable"},{"type":"function","name":"claimPredictionPayout","inputs":[{"name":"entryId","type":"uint256","internalType":"uint256"}],"outputs":[],"stateMutability":"nonpayable"},{"type":"function","name":"closePredictions","inputs":[],"outputs":[],"stateMutability":"nonpayable"},{"type":"function","name":"contestantDepositAmount","inputs":[],"outputs":[{"name":"","type":"uint256","internalType":"uint256"}],"stateMutability":"view"},{"type":"function","name":"demandSensitivityBps","inputs":[],"outputs":[{"name":"","type":"uint256","internalType":"uint256"}],"stateMutability":"view"},{"type":"function","name":"distributeExpiredContest","inputs":[],"outputs":[],"stateMutability":"nonpayable"},{"type":"function","name":"entries","inputs":[{"name":"","type":"uint256","internalType":"uint256"}],"outputs":[{"name":"","type":"uint256","internalType":"uint256"}],"stateMutability":"view"},{"type":"function","name":"entryBonuses","inputs":[{"name":"","type":"uint256","internalType":"uint256"}],"outputs":[{"name":"","type":"uint256","internalType":"uint256"}],"stateMutability":"view"},{"type":"function","name":"entryOwner","inputs":[{"name":"","type":"uint256","internalType":"uint256"}],"outputs":[{"name":"","type":"address","internalType":"address"}],"stateMutability":"view"},{"type":"function","name":"entryWithdrawn","inputs":[{"name":"","type":"uint256","internalType":"uint256"}],"outputs":[{"name":"","type":"bool","internalType":"bool"}],"stateMutability":"view"},{"type":"function","name":"expiryTimestamp","inputs":[],"outputs":[{"name":"","type":"uint256","internalType":"uint256"}],"stateMutability":"view"},{"type":"function","name":"finalEntryPayouts","inputs":[{"name":"","type":"uint256","internalType":"uint256"}],"outputs":[{"name":"","type":"uint256","internalType":"uint256"}],"stateMutability":"view"},{"type":"function","name":"getEntriesCount","inputs":[],"outputs":[{"name":"","type":"uint256","internalType":"uint256"}],"stateMutability":"view"},{"type":"function","name":"getEntryAtIndex","inputs":[{"name":"index","type":"uint256","internalType":"uint256"}],"outputs":[{"name":"","type":"uint256","internalType":"uint256"}],"stateMutability":"view"},{"type":"function","name":"getSpectatorAtIndex","inputs":[{"name":"index","type":"uint256","internalType":"uint256"}],"outputs":[{"name":"","type":"address","internalType":"address"}],"stateMutability":"view"},{"type":"function","name":"getSpectatorsCount","inputs":[],"outputs":[{"name":"","type":"uint256","internalType":"uint256"}],"stateMutability":"view"},{"type":"function","name":"getUserEntriesCount","inputs":[{"name":"user","type":"address","internalType":"address"}],"outputs":[{"name":"","type":"uint256","internalType":"uint256"}],"stateMutability":"view"},{"type":"function","name":"getUserEntryAtIndex","inputs":[{"name":"user","type":"address","internalType":"address"},{"name":"index","type":"uint256","internalType":"uint256"}],"outputs":[{"name":"","type":"uint256","internalType":"uint256"}],"stateMutability":"view"},{"type":"function","name":"isApprovedForAll","inputs":[{"name":"account","type":"address","internalType":"address"},{"name":"operator","type":"address","internalType":"address"}],"outputs":[{"name":"","type":"bool","internalType":"bool"}],"stateMutability":"view"},{"type":"function","name":"isSpectator","inputs":[{"name":"","type":"address","internalType":"address"}],"outputs":[{"name":"","type":"bool","internalType":"bool"}],"stateMutability":"view"},{"type":"function","name":"joinContest","inputs":[{"name":"entryId","type":"uint256","internalType":"uint256"}],"outputs":[],"stateMutability":"nonpayable"},{"type":"function","name":"leaveContest","inputs":[{"name":"entryId","type":"uint256","internalType":"uint256"}],"outputs":[],"stateMutability":"nonpayable"},{"type":"function","name":"liquidityParameter","inputs":[],"outputs":[{"name":"","type":"uint256","internalType":"uint256"}],"stateMutability":"view"},{"type":"function","name":"netPosition","inputs":[{"name":"","type":"uint256","internalType":"uint256"}],"outputs":[{"name":"","type":"int256","internalType":"int256"}],"stateMutability":"view"},{"type":"function","name":"oracle","inputs":[],"outputs":[{"name":"","type":"address","internalType":"address"}],"stateMutability":"view"},{"type":"function","name":"oracleFeeBps","inputs":[],"outputs":[{"name":"","type":"uint256","internalType":"uint256"}],"stateMutability":"view"},{"type":"function","name":"paymentToken","inputs":[],"outputs":[{"name":"","type":"address","internalType":"contract IERC20"}],"stateMutability":"view"},{"type":"function","name":"prizeShareBps","inputs":[],"outputs":[{"name":"","type":"uint256","internalType":"uint256"}],"stateMutability":"view"},{"type":"function","name":"safeBatchTransferFrom","inputs":[{"name":"from","type":"address","internalType":"address"},{"name":"to","type":"address","internalType":"address"},{"name":"ids","type":"uint256[]","internalType":"uint256[]"},{"name":"values","type":"uint256[]","internalType":"uint256[]"},{"name":"data","type":"bytes","internalType":"bytes"}],"outputs":[],"stateMutability":"nonpayable"},{"type":"function","name":"safeTransferFrom","inputs":[{"name":"from","type":"address","internalType":"address"},{"name":"to","type":"address","internalType":"address"},{"name":"id","type":"uint256","internalType":"uint256"},{"name":"value","type":"uint256","internalType":"uint256"},{"name":"data","type":"bytes","internalType":"bytes"}],"outputs":[],"stateMutability":"nonpayable"},{"type":"function","name":"setApprovalForAll","inputs":[{"name":"operator","type":"address","internalType":"address"},{"name":"approved","type":"bool","internalType":"bool"}],"outputs":[],"stateMutability":"nonpayable"},{"type":"function","name":"settleContest","inputs":[{"name":"winningEntries","type":"uint256[]","internalType":"uint256[]"},{"name":"payoutBps","type":"uint256[]","internalType":"uint256[]"}],"outputs":[],"stateMutability":"nonpayable"},{"type":"function","name":"spectatorDepositedPerEntry","inputs":[{"name":"","type":"address","internalType":"address"},{"name":"","type":"uint256","internalType":"uint256"}],"outputs":[{"name":"","type":"uint256","internalType":"uint256"}],"stateMutability":"view"},{"type":"function","name":"spectatorMarketResolved","inputs":[],"outputs":[{"name":"","type":"bool","internalType":"bool"}],"stateMutability":"view"},{"type":"function","name":"spectatorTotalDeposited","inputs":[{"name":"","type":"address","internalType":"address"}],"outputs":[{"name":"","type":"uint256","internalType":"uint256"}],"stateMutability":"view"},{"type":"function","name":"spectatorWinningEntry","inputs":[],"outputs":[{"name":"","type":"uint256","internalType":"uint256"}],"stateMutability":"view"},{"type":"function","name":"spectators","inputs":[{"name":"","type":"uint256","internalType":"uint256"}],"outputs":[{"name":"","type":"address","internalType":"address"}],"stateMutability":"view"},{"type":"function","name":"state","inputs":[],"outputs":[{"name":"","type":"uint8","internalType":"enum Contest.ContestState"}],"stateMutability":"view"},{"type":"function","name":"supportsInterface","inputs":[{"name":"interfaceId","type":"bytes4","internalType":"bytes4"}],"outputs":[{"name":"","type":"bool","internalType":"bool"}],"stateMutability":"view"},{"type":"function","name":"totalContestantDeposits","inputs":[],"outputs":[{"name":"","type":"uint256","internalType":"uint256"}],"stateMutability":"view"},{"type":"function","name":"totalSpectatorCollateral","inputs":[],"outputs":[{"name":"","type":"uint256","internalType":"uint256"}],"stateMutability":"view"},{"type":"function","name":"totalVolumeOnEntry","inputs":[{"name":"","type":"uint256","internalType":"uint256"}],"outputs":[{"name":"","type":"uint256","internalType":"uint256"}],"stateMutability":"view"},{"type":"function","name":"uri","inputs":[{"name":"","type":"uint256","internalType":"uint256"}],"outputs":[{"name":"","type":"string","internalType":"string"}],"stateMutability":"view"},{"type":"function","name":"userEntries","inputs":[{"name":"","type":"address","internalType":"address"},{"name":"","type":"uint256","internalType":"uint256"}],"outputs":[{"name":"","type":"uint256","internalType":"uint256"}],"stateMutability":"view"},{"type":"function","name":"userShareBps","inputs":[],"outputs":[{"name":"","type":"uint256","internalType":"uint256"}],"stateMutability":"view"},{"type":"function","name":"withdrawPrediction","inputs":[{"name":"entryId","type":"uint256","internalType":"uint256"},{"name":"tokenAmount","type":"uint256","internalType":"uint256"}],"outputs":[],"stateMutability":"nonpayable"},{"type":"event","name":"ApprovalForAll","inputs":[{"name":"account","type":"address","indexed":true,"internalType":"address"},{"name":"operator","type":"address","indexed":true,"internalType":"address"},{"name":"approved","type":"bool","indexed":false,"internalType":"bool"}],"anonymous":false},{"type":"event","name":"ContestActivated","inputs":[],"anonymous":false},{"type":"event","name":"ContestCancelled","inputs":[],"anonymous":false},{"type":"event","name":"ContestForceDistributed","inputs":[{"name":"entriesPaid","type":"uint256","indexed":false,"internalType":"uint256"},{"name":"spectatorsPaid","type":"uint256","indexed":false,"internalType":"uint256"},{"name":"timestamp","type":"uint256","indexed":false,"internalType":"uint256"}],"anonymous":false},{"type":"event","name":"ContestSettled","inputs":[{"name":"winningEntries","type":"uint256[]","indexed":false,"internalType":"uint256[]"},{"name":"payouts","type":"uint256[]","indexed":false,"internalType":"uint256[]"}],"anonymous":false},{"type":"event","name":"EntryDeposited","inputs":[{"name":"owner","type":"address","indexed":true,"internalType":"address"},{"name":"entryId","type":"uint256","indexed":true,"internalType":"uint256"}],"anonymous":false},{"type":"event","name":"EntryPayoutClaimed","inputs":[{"name":"owner","type":"address","indexed":true,"internalType":"address"},{"name":"entryId","type":"uint256","indexed":true,"internalType":"uint256"},{"name":"amount","type":"uint256","indexed":false,"internalType":"uint256"}],"anonymous":false},{"type":"event","name":"EntryWithdrawn","inputs":[{"name":"entryId","type":"uint256","indexed":true,"internalType":"uint256"},{"name":"owner","type":"address","indexed":true,"internalType":"address"},{"name":"spectatorsRefunded","type":"uint256","indexed":false,"internalType":"uint256"}],"anonymous":false},{"type":"event","name":"PredictionsClosed","inputs":[],"anonymous":false},{"type":"event","name":"SpectatorAutoRefunded","inputs":[{"name":"spectator","type":"address","indexed":true,"internalType":"address"},{"name":"entryId","type":"uint256","indexed":true,"internalType":"uint256"},{"name":"amount","type":"uint256","indexed":false,"internalType":"uint256"}],"anonymous":false},{"type":"event","name":"SpectatorDeposited","inputs":[{"name":"spectator","type":"address","indexed":true,"internalType":"address"},{"name":"entryId","type":"uint256","indexed":true,"internalType":"uint256"},{"name":"amount","type":"uint256","indexed":false,"internalType":"uint256"},{"name":"tokensReceived","type":"uint256","indexed":false,"internalType":"uint256"}],"anonymous":false},{"type":"event","name":"SpectatorPayoutRedeemed","inputs":[{"name":"spectator","type":"address","indexed":true,"internalType":"address"},{"name":"entryId","type":"uint256","indexed":true,"internalType":"uint256"},{"name":"payout","type":"uint256","indexed":false,"internalType":"uint256"}],"anonymous":false},{"type":"event","name":"SpectatorWithdrew","inputs":[{"name":"spectator","type":"address","indexed":true,"internalType":"address"},{"name":"amount","type":"uint256","indexed":false,"internalType":"uint256"}],"anonymous":false},{"type":"event","name":"TransferBatch","inputs":[{"name":"operator","type":"address","indexed":true,"internalType":"address"},{"name":"from","type":"address","indexed":true,"internalType":"address"},{"name":"to","type":"address","indexed":true,"internalType":"address"},{"name":"ids","type":"uint256[]","indexed":false,"internalType":"uint256[]"},{"name":"values","type":"uint256[]","indexed":false,"internalType":"uint256[]"}],"anonymous":false},{"type":"event","name":"TransferSingle","inputs":[{"name":"operator","type":"address","indexed":true,"internalType":"address"},{"name":"from","type":"address","indexed":true,"internalType":"address"},{"name":"to","type":"address","indexed":true,"internalType":"address"},{"name":"id","type":"uint256","indexed":false,"internalType":"uint256"},{"name":"value","type":"uint256","indexed":false,"internalType":"uint256"}],"anonymous":false},{"type":"event","name":"URI","inputs":[{"name":"value","type":"string","indexed":false,"internalType":"string"},{"name":"id","type":"uint256","indexed":true,"internalType":"uint256"}],"anonymous":false},{"type":"error","name":"ERC1155InsufficientBalance","inputs":[{"name":"sender","type":"address","internalType":"address"},{"name":"balance","type":"uint256","internalType":"uint256"},{"name":"needed","type":"uint256","internalType":"uint256"},{"name":"tokenId","type":"uint256","internalType":"uint256"}]},{"type":"error","name":"ERC1155InvalidApprover","inputs":[{"name":"approver","type":"address","internalType":"address"}]},{"type":"error","name":"ERC1155InvalidArrayLength","inputs":[{"name":"idsLength","type":"uint256","internalType":"uint256"},{"name":"valuesLength","type":"uint256","internalType":"uint256"}]},{"type":"error","name":"ERC1155InvalidOperator","inputs":[{"name":"operator","type":"address","internalType":"address"}]},{"type":"error","name":"ERC1155InvalidReceiver","inputs":[{"name":"receiver","type":"address","internalType":"address"}]},{"type":"error","name":"ERC1155InvalidSender","inputs":[{"name":"sender","type":"address","internalType":"address"}]},{"type":"error","name":"ERC1155MissingApprovalForAll","inputs":[{"name":"operator","type":"address","internalType":"address"},{"name":"owner","type":"address","internalType":"address"}]},{"type":"error","name":"ReentrancyGuardReentrantCall","inputs":[]},{"type":"error","name":"SafeERC20FailedOperation","inputs":[{"name":"token","type":"address","internalType":"address"}]}],"bytecode":{"object":"0x6101a06040523480156200001257600080fd5b50604051620048643803806200486483398101604081905262000035916200035e565b6040805160208101909152600081526200004f816200032f565b5060016003556001600160a01b038916620000b15760405162461bcd60e51b815260206004820152601560248201527f496e76616c6964207061796d656e7420746f6b656e000000000000000000000060448201526064015b60405180910390fd5b6001600160a01b038816620000fa5760405162461bcd60e51b815260206004820152600e60248201526d496e76616c6964206f7261636c6560901b6044820152606401620000a8565b600087116200014c5760405162461bcd60e51b815260206004820152601660248201527f496e76616c6964206465706f73697420616d6f756e74000000000000000000006044820152606401620000a8565b6103e8861115620001a05760405162461bcd60e51b815260206004820152601360248201527f4f7261636c652066656520746f6f2068696768000000000000000000000000006044820152606401620000a8565b428511620001e25760405162461bcd60e51b815260206004820152600e60248201526d115e1c1a5c9e481a5b881c185cdd60921b6044820152606401620000a8565b60008411620002345760405162461bcd60e51b815260206004820152601b60248201527f496e76616c6964206c697175696469747920706172616d6574657200000000006044820152606401620000a8565b612710831115620002885760405162461bcd60e51b815260206004820152601a60248201527f496e76616c69642064656d616e642073656e73697469766974790000000000006044820152606401620000a8565b612710620002978284620003da565b1115620002e75760405162461bcd60e51b815260206004820152601660248201527f546f74616c2066656573206578636565642031303025000000000000000000006044820152606401620000a8565b6001600160a01b039889166080529690971660a05260c09490945260e09290925261010052610120526101405261016091909152610180526004805460ff1916905562000573565b60026200033d8282620004a7565b5050565b80516001600160a01b03811681146200035957600080fd5b919050565b60008060008060008060008060006101208a8c0312156200037e57600080fd5b620003898a62000341565b98506200039960208b0162000341565b975060408a0151965060608a0151955060808a0151945060a08a0151935060c08a0151925060e08a015191506101008a015190509295985092959850929598565b80820180821115620003fc57634e487b7160e01b600052601160045260246000fd5b92915050565b634e487b7160e01b600052604160045260246000fd5b600181811c908216806200042d57607f821691505b6020821081036200044e57634e487b7160e01b600052602260045260246000fd5b50919050565b601f821115620004a257600081815260208120601f850160051c810160208610156200047d5750805b601f850160051c820191505b818110156200049e5782815560010162000489565b5050505b505050565b81516001600160401b03811115620004c357620004c362000402565b620004db81620004d4845462000418565b8462000454565b602080601f831160018114620005135760008415620004fa5750858301515b600019600386901b1c1916600185901b1785556200049e565b600085815260208120601f198616915b82811015620005445788860151825594840194600190910190840162000523565b5085821015620005635787850151600019600388901b60f8161c191681555b5050505050600190811b01905550565b60805160a05160c05160e051610100516101205161014051610160516101805161417d620006e7600039600081816105ae01528181610bd1015281816111de01526116b101526000818161074401528181610b96015281816111a301526116760152600081816106570152612db70152600081816104f50152612d930152600081816107a40152818161221a01528181612606015261287c0152600081816105dd01528181611da701528181611de20152611f5a01526000818161044501528181610ada01528181610db8015281816122ed01526123500152600081816106a501528181610ef20152818161138a01528181611a6e01528181611ee40152818161208b01526125890152600081816104ad01528181610cf301528181610d950152818161130f0152818161176f01528181611ec201528181611fc00152818161232c01528181612549015281816126e1015281816127d201528181612b4f01528181612bdb0152612fa1015261417d6000f3fe608060405234801561001057600080fd5b50600436106103825760003560e01c80637964b54a116101de578063a5877e191161010f578063e1a45218116100ad578063e985e9c51161007c578063e985e9c51461089e578063f1d57067146108b1578063f242432a146108ba578063f8c5992b146108cd57600080fd5b8063e1a4521814610837578063e1f370dd14610840578063e70baa8914610853578063e8f45ab21461087e57600080fd5b8063c19d93fb116100e9578063c19d93fb146107d9578063c9a496aa146107f3578063d09685b014610806578063df1ef4c61461080e57600080fd5b8063a5877e191461078c578063ade6e2aa1461079f578063b30906d4146107c657600080fd5b8063964766a51161017c578063a22cb46511610156578063a22cb4651461072c578063a422f3481461073f578063a450fe4414610766578063a56964ab1461077957600080fd5b8063964766a51461071457806398e1eac31461071c578063a01e4a1f1461072457600080fd5b80637dc0d1d0116101b85780637dc0d1d0146106a057806381288ae7146106c75780638c13d546146106e757806395082d251461070a57600080fd5b80637964b54a146106825780637b8488ea1461068a5780637bc09bad1461069357600080fd5b80633a69a1be116102b85780635a9855c31161025657806367a89a3b1161023057806367a89a3b146106125780636932b38214610632578063693b46601461065257806378449d571461067957600080fd5b80635a9855c3146105d05780635c76fda7146105d85780635d6e6c7c146105ff57600080fd5b80634e1273f4116102925780634e1273f41461054d578063563930e71461056d57806359fe5d68146105805780635a3e4e9e146105a957600080fd5b80633a69a1be146104f05780633c9c73ed146105175780634c60b1f11461053a57600080fd5b80631f85354a116103255780632e0ec188116102ff5780632e0ec188146104825780632eb2c2d6146104955780633013ce29146104a857806332e6190b146104e757600080fd5b80631f85354a1461044057806322fc1d0a1461046757806324f9cc4c1461047a57600080fd5b806307b19bfb1161036157806307b19bfb146103f05780630b913af0146104055780630e89341c146104185780631db0e6671461043857600080fd5b8062fdd58e1461038757806301ffc9a7146103ad5780630769ede3146103d0575b600080fd5b61039a61039536600461381d565b6108e0565b6040519081526020015b60405180910390f35b6103c06103bb36600461385d565b610908565b60405190151581526020016103a4565b61039a6103de366004613881565b60106020526000908152604090205481565b6104036103fe366004613881565b610958565b005b61039a61041336600461381d565b610e22565b61042b610426366004613881565b610e53565b6040516103a491906138e0565b610403610ee7565b61039a7f000000000000000000000000000000000000000000000000000000000000000081565b6104036104753660046138f3565b610ff0565b61040361137f565b6104036104903660046138f3565b6114a1565b6104036104a3366004613a5b565b6118b3565b6104cf7f000000000000000000000000000000000000000000000000000000000000000081565b6040516001600160a01b0390911681526020016103a4565b61039a600f5481565b61039a7f000000000000000000000000000000000000000000000000000000000000000081565b6103c0610525366004613b05565b600c6020526000908152604090205460ff1681565b61039a61054836600461381d565b61191a565b61056061055b366004613b20565b61198e565b6040516103a49190613c1b565b61040361057b366004613c7a565b611a63565b61039a61058e366004613b05565b6001600160a01b03166000908152600a602052604090205490565b61039a7f000000000000000000000000000000000000000000000000000000000000000081565b610403612080565b61039a7f000000000000000000000000000000000000000000000000000000000000000081565b61040361060d366004613881565b61215b565b61039a610620366004613881565b60096020526000908152604090205481565b61039a610640366004613881565b600d6020526000908152604090205481565b61039a7f000000000000000000000000000000000000000000000000000000000000000081565b61039a60145481565b6104036123ab565b61039a60085481565b6015546103c09060ff1681565b6104cf7f000000000000000000000000000000000000000000000000000000000000000081565b61039a6106d5366004613881565b60116020526000908152604090205481565b6103c06106f5366004613881565b60076020526000908152604090205460ff1681565b61039a620f424081565b600b5461039a565b61040361257e565b61040361287a565b61040361073a366004613ce6565b612954565b61039a7f000000000000000000000000000000000000000000000000000000000000000081565b6104cf610774366004613881565b61295f565b610403610787366004613881565b6129b1565b6104cf61079a366004613881565b612c48565b61039a7f000000000000000000000000000000000000000000000000000000000000000081565b61039a6107d4366004613881565b612c72565b6004546107e69060ff1681565b6040516103a49190613d38565b61039a610801366004613881565b612c93565b60055461039a565b6104cf61081c366004613881565b6006602052600090815260409020546001600160a01b031681565b61039a61271081565b61039a61084e366004613881565b612cdc565b61039a61086136600461381d565b601360209081526000928352604080842090915290825290205481565b61039a61088c366004613b05565b60126020526000908152604090205481565b6103c06108ac366004613d60565b612e1a565b61039a600e5481565b6104036108c8366004613d93565b612e48565b6104036108db366004613881565b612ea7565b6000818152602081815260408083206001600160a01b03861684529091529020545b92915050565b60006001600160e01b03198216636cdb3d1360e11b148061093957506001600160e01b031982166303a24d0760e21b145b8061090257506301ffc9a760e01b6001600160e01b0319831614610902565b610960612ffc565b600060045460ff16600581111561097957610979613d22565b148061099a57506004805460ff16600581111561099857610998613d22565b145b610a045760405162461bcd60e51b815260206004820152603060248201527f43616e6e6f74207769746864726177202d20636f6e7465737420696e2070726f60448201526f19dc995cdcc81bdc881cd95d1d1b195960821b60648201526084015b60405180910390fd5b6000818152600660205260409020546001600160a01b03163314610a5c5760405162461bcd60e51b815260206004820152600f60248201526e2737ba1032b73a393c9037bbb732b960891b60448201526064016109fb565b60008181526007602052604090205460ff1615610abb5760405162461bcd60e51b815260206004820152601760248201527f456e74727920616c72656164792077697468647261776e00000000000000000060448201526064016109fb565b6000818152600760205260408120805460ff19166001179055600880547f00000000000000000000000000000000000000000000000000000000000000009290610b06908490613e0e565b9091555060009050805b600b54811015610d87576000600b8281548110610b2f57610b2f613e21565b60009182526020822001546001600160a01b03169150610b4f82866108e0565b90508015610d72576001600160a01b03821660009081526013602090815260408083208884529091529020548015610d7057610b8c838784613026565b6000612710610bbb7f000000000000000000000000000000000000000000000000000000000000000084613e37565b610bc59190613e4e565b90506000612710610bf67f000000000000000000000000000000000000000000000000000000000000000085613e37565b610c009190613e4e565b90506000610c0e8284613e70565b90506000610c1c8286613e0e565b905085600d60008c81526020019081526020016000206000828254610c419190613e83565b9250508190555083600f6000828254610c5a9190613e0e565b909155505060008a81526010602052604081208054859290610c7d908490613e0e565b9250508190555080600e6000828254610c969190613e0e565b90915550506001600160a01b03871660009081526012602052604081208054879290610cc3908490613e0e565b90915550506001600160a01b0380881660009081526013602090815260408083208e8452909152812055610d1a907f0000000000000000000000000000000000000000000000000000000000000000168887613095565b89876001600160a01b03167f2306399dedc3481dae378e3b9952209dede2c0482a19e690b0231390d086061d87604051610d5691815260200190565b60405180910390a388610d6881613eaa565b995050505050505b505b50508080610d7f90613eaa565b915050610b10565b50610ddc6001600160a01b037f000000000000000000000000000000000000000000000000000000000000000016337f0000000000000000000000000000000000000000000000000000000000000000613095565b604051818152339083907fa0eeb808a10f56b15221fb8aeefb2b8cf677a82e4924d099bd08659179f2ead0906020015b60405180910390a350610e1f6001600355565b50565b600a6020528160005260406000208181548110610e3e57600080fd5b90600052602060002001600091509150505481565b606060028054610e6290613ec3565b80601f0160208091040260200160405190810160405280929190818152602001828054610e8e90613ec3565b8015610edb5780601f10610eb057610100808354040283529160200191610edb565b820191906000526020600020905b815481529060010190602001808311610ebe57829003601f168201915b50505050509050919050565b336001600160a01b037f00000000000000000000000000000000000000000000000000000000000000001614610f2f5760405162461bcd60e51b81526004016109fb90613efd565b600360045460ff166005811115610f4857610f48613d22565b14158015610f6d5750600560045460ff166005811115610f6a57610f6a613d22565b14155b610fb95760405162461bcd60e51b815260206004820152601f60248201527f436f6e7465737420736574746c6564202d2063616e6e6f742063616e63656c0060448201526064016109fb565b6004805460ff1916811790556040517f9237e8f0d5063a695b8695e82c82bc24d15591de9d04449771a6ea4b1283173790600090a1565b610ff8612ffc565b600060045460ff16600581111561101157611011613d22565b148061103257506004805460ff16600581111561103057611030613d22565b145b6110975760405162461bcd60e51b815260206004820152603060248201527f43616e6e6f74207769746864726177202d20636f6d7065746974696f6e20737460448201526f185c9d1959081bdc881cd95d1d1b195960821b60648201526084016109fb565b6000828152600660205260409020546001600160a01b03166110cb5760405162461bcd60e51b81526004016109fb90613f21565b600081116111105760405162461bcd60e51b81526020600482015260126024820152710416d6f756e74206d757374206265203e20360741b60448201526064016109fb565b8061111b33846108e0565b10156111605760405162461bcd60e51b8152602060048201526014602482015273496e73756666696369656e742062616c616e636560601b60448201526064016109fb565b600061116c33846108e0565b3360009081526012602052604081205491925090829061118d908590613e37565b6111979190613e4e565b905060006127106111c87f000000000000000000000000000000000000000000000000000000000000000084613e37565b6111d29190613e4e565b905060006127106112037f000000000000000000000000000000000000000000000000000000000000000085613e37565b61120d9190613e4e565b9050600061121b8284613e70565b905060006112298286613e0e565b9050611236338989613026565b6000888152600d602052604081208054899290611254908490613e83565b9250508190555083600f600082825461126d9190613e0e565b909155505060008881526010602052604081208054859290611290908490613e0e565b9250508190555080600e60008282546112a99190613e0e565b909155505033600090815260126020526040812080548792906112cd908490613e0e565b90915550503360009081526013602090815260408083208b8452909152812080548792906112fc908490613e0e565b9091555061133690506001600160a01b037f0000000000000000000000000000000000000000000000000000000000000000163387613095565b60405185815233907f1afd07c523e365fe5caad76bb954272a33ed72374f832943fe8bb4d8484683409060200160405180910390a250505050505061137b6001600355565b5050565b336001600160a01b037f000000000000000000000000000000000000000000000000000000000000000016146113c75760405162461bcd60e51b81526004016109fb90613efd565b600060045460ff1660058111156113e0576113e0613d22565b1461142d5760405162461bcd60e51b815260206004820152601760248201527f436f6e7465737420616c7265616479207374617274656400000000000000000060448201526064016109fb565b6005546114695760405162461bcd60e51b815260206004820152600a6024820152694e6f20656e747269657360b01b60448201526064016109fb565b6004805460ff191660011790556040517f3927b788a62eb53f7192cd9286f49295f01b938b6afc23aef0af5d035cd8531690600090a1565b6114a9612ffc565b600060045460ff1660058111156114c2576114c2613d22565b14806114e45750600160045460ff1660058111156114e2576114e2613d22565b145b6115305760405162461bcd60e51b815260206004820152601960248201527f50726564696374696f6e73206e6f7420617661696c61626c650000000000000060448201526064016109fb565b6000828152600660205260409020546001600160a01b03166115645760405162461bcd60e51b81526004016109fb90613f21565b60008281526007602052604090205460ff16156115b55760405162461bcd60e51b815260206004820152600f60248201526e22b73a393c903bb4ba34323930bbb760891b60448201526064016109fb565b600081116115fa5760405162461bcd60e51b81526020600482015260126024820152710416d6f756e74206d757374206265203e20360741b60448201526064016109fb565b336000908152600c602052604090205460ff1661166c57600b805460018181019092557f0175b7a638427703f0dbe7bb9bbf987a2551717b34e79f33b5b1008d1fa01db90180546001600160a01b031916339081179091556000908152600c60205260409020805460ff191690911790555b600061271061169b7f000000000000000000000000000000000000000000000000000000000000000084613e37565b6116a59190613e4e565b905060006127106116d67f000000000000000000000000000000000000000000000000000000000000000085613e37565b6116e09190613e4e565b905060006116ee8284613e70565b905060006116fc8286613e0e565b9050600061170987612cdc565b905060008161171b620f424085613e37565b6117259190613e4e565b905085600f60008282546117399190613e70565b90915550506000888152601060205260408120805487929061175c908490613e70565b9091555061179790506001600160a01b037f00000000000000000000000000000000000000000000000000000000000000001633308a6130f9565b33600090815260126020526040812080548992906117b6908490613e70565b90915550503360009081526013602090815260408083208b8452909152812080548992906117e5908490613e70565b9250508190555061180733898360405180602001604052806000815250613132565b6000888152600d602052604081208054839290611825908490613f4f565b909155505060008881526011602052604081208054839290611848908490613e70565b9250508190555082600e60008282546118619190613e70565b90915550506040805188815260208101839052899133917f3d516f677e4f650c5678a09cdf06e998bf8e05cbe8d92906362e8589a8f064a5910160405180910390a350505050505061137b6001600355565b336001600160a01b03861681148015906118d457506118d28682612e1a565b155b156119055760405163711bec9160e11b81526001600160a01b038083166004830152871660248201526044016109fb565b611912868686868661318f565b505050505050565b6001600160a01b0382166000908152600a602052604081205482106119515760405162461bcd60e51b81526004016109fb90613f77565b6001600160a01b0383166000908152600a6020526040902080548390811061197b5761197b613e21565b9060005260206000200154905092915050565b606081518351146119bf5781518351604051635b05999160e01b8152600481019290925260248201526044016109fb565b6000835167ffffffffffffffff8111156119db576119db613915565b604051908082528060200260200182016040528015611a04578160200160208202803683370190505b50905060005b8451811015611a5b57602080820286010151611a2e906020808402870101516108e0565b828281518110611a4057611a40613e21565b6020908102919091010152611a5481613eaa565b9050611a0a565b509392505050565b336001600160a01b037f00000000000000000000000000000000000000000000000000000000000000001614611aab5760405162461bcd60e51b81526004016109fb90613efd565b611ab3612ffc565b600160045460ff166005811115611acc57611acc613d22565b1480611aee5750600260045460ff166005811115611aec57611aec613d22565b145b611b3a5760405162461bcd60e51b815260206004820152601c60248201527f436f6e74657374206e6f7420616374697665206f72206c6f636b65640000000060448201526064016109fb565b82611b875760405162461bcd60e51b815260206004820152601d60248201527f4d7573742068617665206174206c65617374206f6e652077696e6e657200000060448201526064016109fb565b828114611bce5760405162461bcd60e51b8152602060048201526015602482015274082e4e4c2f240d8cadccee8d040dad2e6dac2e8c6d605b1b60448201526064016109fb565b600554831115611c135760405162461bcd60e51b815260206004820152601060248201526f546f6f206d616e792077696e6e65727360801b60448201526064016109fb565b6000805b82811015611cbf576000848483818110611c3357611c33613e21565b9050602002013511611c875760405162461bcd60e51b815260206004820152601960248201527f557365206e6f6e2d7a65726f207061796f757473206f6e6c790000000000000060448201526064016109fb565b838382818110611c9957611c99613e21565b9050602002013582611cab9190613e70565b915080611cb781613eaa565b915050611c17565b506127108114611d115760405162461bcd60e51b815260206004820152601860248201527f5061796f757473206d7573742073756d20746f2031303025000000000000000060448201526064016109fb565b6004805460ff19166003179055600f54600854600091611d3091613e70565b90506000805b600554811015611d90576010600060058381548110611d5757611d57613e21565b906000526020600020015481526020019081526020016000205482611d7c9190613e70565b915080611d8881613eaa565b915050611d36565b50611d9b8183613e70565b91506000612710611dcc7f000000000000000000000000000000000000000000000000000000000000000085613e37565b611dd69190613e4e565b90506000612710611e077f000000000000000000000000000000000000000000000000000000000000000082613e0e565b600f54600854611e179190613e70565b611e219190613e37565b611e2b9190613e4e565b905060005b88811015611eae5760008a8a83818110611e4c57611e4c613e21565b90506020020135905060006127108a8a85818110611e6c57611e6c613e21565b9050602002013585611e7e9190613e37565b611e889190613e4e565b600092835260096020526040909220919091555080611ea681613eaa565b915050611e30565b508115611f0957611f096001600160a01b037f0000000000000000000000000000000000000000000000000000000000000000167f000000000000000000000000000000000000000000000000000000000000000084613095565b60005b60055481101561200057600060058281548110611f2b57611f2b613e21565b600091825260208083209091015480835260109091526040909120549091508015611feb576000612710611f7f7f000000000000000000000000000000000000000000000000000000000000000082613e0e565b611f899084613e37565b611f939190613e4e565b60008481526010602090815260408083208390556006909152902054909150611fe9906001600160a01b037f00000000000000000000000000000000000000000000000000000000000000008116911683613095565b505b50508080611ff890613eaa565b915050611f0c565b508888600081811061201457612014613e21565b6020029190910135601455506015805460ff191660011790556040517f0fed27f5e3cd741c181cc0d3b0c47df2013638faa8b7aa7084de3946098eb78e90612063908b908b908b908b90613fd0565b60405180910390a1505050505061207a6001600355565b50505050565b336001600160a01b037f000000000000000000000000000000000000000000000000000000000000000016146120c85760405162461bcd60e51b81526004016109fb90613efd565b600160045460ff1660058111156120e1576120e1613d22565b146121235760405162461bcd60e51b8152602060048201526012602482015271436f6e74657374206e6f742061637469766560701b60448201526064016109fb565b6004805460ff191660021790556040517f91b4dd20084a71e964f322b0044cfe5523abf93f4d02b7e3ed621e1500fd162290600090a1565b612163612ffc565b600060045460ff16600581111561217c5761217c613d22565b146121bc5760405162461bcd60e51b815260206004820152601060248201526f21b7b73a32b9ba103737ba1037b832b760811b60448201526064016109fb565b6000818152600660205260409020546001600160a01b0316156122185760405162461bcd60e51b8152602060048201526014602482015273456e74727920616c72656164792065786973747360601b60448201526064016109fb565b7f000000000000000000000000000000000000000000000000000000000000000042106122795760405162461bcd60e51b815260206004820152600f60248201526e10dbdb9d195cdd08195e1c1a5c9959608a1b60448201526064016109fb565b6005805460018181019092557f036b6384b5eca791c62761152d0c79bb0604c104a5fb6f4eb0703f3154bb3db001829055600082815260066020908152604080832080546001600160a01b031916339081179091558352600a825282208054938401815582528120909101829055600880547f00000000000000000000000000000000000000000000000000000000000000009290612319908490613e70565b9091555061237490506001600160a01b037f00000000000000000000000000000000000000000000000000000000000000001633307f00000000000000000000000000000000000000000000000000000000000000006130f9565b604051819033907f4d503c0f892472082177d76a3e17f685ac26922907be7d7d9a76d287c75b011a90600090a3610e1f6001600355565b6123b3612ffc565b600360045460ff1660058111156123cc576123cc613d22565b146123e95760405162461bcd60e51b81526004016109fb90614002565b336000908152600a602090815260408083208054825181850281018501909352808352849383018282801561243d57602002820191906000526020600020905b815481526020019060010190808311612429575b5050505050905060005b81518110156124fe57600082828151811061246457612464613e21565b6020908102919091018101516000818152600990925260409091205490915080156124e9576000828152600960205260408120556124a28186613e70565b945081336001600160a01b03167f701dad1e38516ac5470bc60eb299368a20c7f2b50f2a5b4bcbd0e5a3a74c186e836040516124e091815260200190565b60405180910390a35b505080806124f690613eaa565b915050612447565b506000821161253c5760405162461bcd60e51b815260206004820152600a6024820152694e6f207061796f75747360b01b60448201526064016109fb565b6125706001600160a01b037f0000000000000000000000000000000000000000000000000000000000000000163384613095565b505061257c6001600355565b565b336001600160a01b037f000000000000000000000000000000000000000000000000000000000000000016146125c65760405162461bcd60e51b81526004016109fb90613efd565b6125ce612ffc565b600360045460ff1660058111156125e7576125e7613d22565b146126045760405162461bcd60e51b81526004016109fb90614002565b7f00000000000000000000000000000000000000000000000000000000000000004210156126695760405162461bcd60e51b8152602060048201526012602482015271115e1c1a5c9e481b9bdd081c995858da195960721b60448201526064016109fb565b60008060005b60055481101561272c5760006005828154811061268e5761268e613e21565b60009182526020808320909101548083526009909152604090912054909150801561271757600082815260096020908152604080832083905560069091529020546001600160a01b0390811690612708907f0000000000000000000000000000000000000000000000000000000000000000168284613095565b8561271281613eaa565b965050505b5050808061272490613eaa565b91505061266f565b506014546000908152600d602052604090205480156128205760005b600b5481101561281e576000600b828154811061276757612767613e21565b60009182526020822001546014546001600160a01b03909116925061278d9083906108e0565b90508015612809576127a28260145483613026565b600084600e54836127b39190613e37565b6127bd9190613e4e565b90508015612807576127f96001600160a01b037f0000000000000000000000000000000000000000000000000000000000000000168483613095565b8561280381613eaa565b9650505b505b5050808061281690613eaa565b915050612748565b505b6004805460ff191660051790556040805184815260208101849052428183015290517f81af9be4712c68e4890ef828e7ecb62e37897b50b7c0edab83fd545bd6d060b2916060908290030190a150505061257c6001600355565b7f00000000000000000000000000000000000000000000000000000000000000004210156128d85760405162461bcd60e51b815260206004820152600b60248201526a139bdd08195e1c1a5c995960aa1b60448201526064016109fb565b600360045460ff1660058111156128f1576128f1613d22565b141580156129165750600560045460ff16600581111561291357612913613d22565b14155b610fb95760405162461bcd60e51b815260206004820152600f60248201526e105b1c9958591e481cd95d1d1b1959608a1b60448201526064016109fb565b61137b3383836131ef565b600b5460009082106129835760405162461bcd60e51b81526004016109fb90613f77565b600b828154811061299657612996613e21565b6000918252602090912001546001600160a01b031692915050565b6129b9612ffc565b600360045460ff1660058111156129d2576129d2613d22565b146129ef5760405162461bcd60e51b81526004016109fb90614002565b60155460ff16612a375760405162461bcd60e51b815260206004820152601360248201527213585c9ad95d081b9bdd081c995cdbdb1d9959606a1b60448201526064016109fb565b6000818152600660205260409020546001600160a01b0316612a6b5760405162461bcd60e51b81526004016109fb90613f21565b6000612a7733836108e0565b905060008111612ab55760405162461bcd60e51b81526020600482015260096024820152684e6f20746f6b656e7360b81b60448201526064016109fb565b612ac0338383613026565b60006014548303612c05576000838152600d602052604090205480612b135760405162461bcd60e51b81526020600482015260096024820152684e6f20737570706c7960b81b60448201526064016109fb565b80600e5484612b229190613e37565b612b2c9190613e4e565b6040516370a0823160e01b81523060048201529092506000906001600160a01b037f000000000000000000000000000000000000000000000000000000000000000016906370a0823190602401602060405180830381865afa158015612b96573d6000803e3d6000fd5b505050506040513d601f19601f82011682018060405250810190612bba919061402f565b905080831115612bc8578092505b8215612c0257612c026001600160a01b037f0000000000000000000000000000000000000000000000000000000000000000163385613095565b50505b604051818152839033907fd661a3227475e550e8171253b7c0e37ede0ff071f017a4c55b647d5a04b5e4359060200160405180910390a35050610e1f6001600355565b600b8181548110612c5857600080fd5b6000918252602090912001546001600160a01b0316905081565b60058181548110612c8257600080fd5b600091825260209091200154905081565b6005546000908210612cb75760405162461bcd60e51b81526004016109fb90613f77565b60058281548110612cca57612cca613e21565b90600052602060002001549050919050565b6000818152600660205260408120546001600160a01b0316612d105760405162461bcd60e51b81526004016109fb90613f21565b60008281526007602052604090205460ff1615612d615760405162461bcd60e51b815260206004820152600f60248201526e22b73a393c903bb4ba34323930bbb760891b60448201526064016109fb565b6000828152600d60205260408120549080821215612d8757612d8282614048565b612d89565b815b9050620f424060007f0000000000000000000000000000000000000000000000000000000000000000612ddc7f000000000000000000000000000000000000000000000000000000000000000085613e37565b612de69190613e4e565b9050600084128015612df757508181105b15612e1057612e068183613e0e565b9695505050505050565b612e068183613e70565b6001600160a01b03918216600090815260016020908152604080832093909416825291909152205460ff1690565b336001600160a01b0386168114801590612e695750612e678682612e1a565b155b15612e9a5760405163711bec9160e11b81526001600160a01b038083166004830152871660248201526044016109fb565b6119128686868686613285565b612eaf612ffc565b600360045460ff166005811115612ec857612ec8613d22565b14612ee55760405162461bcd60e51b81526004016109fb90614002565b6000818152600660205260409020546001600160a01b03163314612f3d5760405162461bcd60e51b815260206004820152600f60248201526e2737ba1032b73a393c9037bbb732b960891b60448201526064016109fb565b60008181526009602052604090205480612f855760405162461bcd60e51b8152602060048201526009602482015268139bc81c185e5bdd5d60ba1b60448201526064016109fb565b600082815260096020526040812055612fc86001600160a01b037f0000000000000000000000000000000000000000000000000000000000000000163383613095565b604051818152829033907f701dad1e38516ac5470bc60eb299368a20c7f2b50f2a5b4bcbd0e5a3a74c186e90602001610e0c565b60026003540361301f57604051633ee5aeb560e01b815260040160405180910390fd5b6002600355565b6001600160a01b03831661304f57604051626a0d4560e21b8152600060048201526024016109fb565b604080516001808252602082018590528183019081526060820184905260a0820190925260006080820181815291929161308e91879185908590613313565b5050505050565b6040516001600160a01b038381166024830152604482018390526130f491859182169063a9059cbb906064015b604051602081830303815290604052915060e01b6020820180516001600160e01b038381831617835250505050613366565b505050565b6040516001600160a01b03848116602483015283811660448301526064820183905261207a9186918216906323b872dd906084016130c2565b6001600160a01b03841661315c57604051632bfa23e760e11b8152600060048201526024016109fb565b60408051600180825260208201869052818301908152606082018590526080820190925290611912600087848487613313565b6001600160a01b0384166131b957604051632bfa23e760e11b8152600060048201526024016109fb565b6001600160a01b0385166131e257604051626a0d4560e21b8152600060048201526024016109fb565b61308e8585858585613313565b6001600160a01b0382166132185760405162ced3e160e81b8152600060048201526024016109fb565b6001600160a01b03838116600081815260016020908152604080832094871680845294825291829020805460ff191686151590811790915591519182527f17307eab39ab6107e8899845ad3d59bd9653f200f220920489ca2b5937696c31910160405180910390a3505050565b6001600160a01b0384166132af57604051632bfa23e760e11b8152600060048201526024016109fb565b6001600160a01b0385166132d857604051626a0d4560e21b8152600060048201526024016109fb565b6040805160018082526020820186905281830190815260608201859052608082019092529061330a8787848487613313565b50505050505050565b61331f858585856133d7565b6001600160a01b0384161561308e578251339060010361335857602084810151908401516133518389898585896135f4565b5050611912565b611912818787878787613718565b600080602060008451602086016000885af180613389576040513d6000823e3d81fd5b50506000513d915081156133a15780600114156133ae565b6001600160a01b0384163b155b1561207a57604051635274afe760e01b81526001600160a01b03851660048201526024016109fb565b80518251146134065781518151604051635b05999160e01b8152600481019290925260248201526044016109fb565b3360005b8351811015613515576020818102858101820151908501909101516001600160a01b038816156134bd576000828152602081815260408083206001600160a01b038c16845290915290205481811015613496576040516303dee4c560e01b81526001600160a01b038a1660048201526024810182905260448101839052606481018490526084016109fb565b6000838152602081815260408083206001600160a01b038d16845290915290209082900390555b6001600160a01b03871615613502576000828152602081815260408083206001600160a01b038b168452909152812080548392906134fc908490613e70565b90915550505b50508061350e90613eaa565b905061340a565b5082516001036135965760208301516000906020840151909150856001600160a01b0316876001600160a01b0316846001600160a01b03167fc3d58168c5ae7397731d063d5bbf3d657854427343f4c083240f7aacaa2d0f628585604051613587929190918252602082015260400190565b60405180910390a4505061308e565b836001600160a01b0316856001600160a01b0316826001600160a01b03167f4a39dc06d4c0dbc64b70af90fd698a233a518aa5d07e595d983b8c0526c8f7fb86866040516135e5929190614064565b60405180910390a45050505050565b6001600160a01b0384163b156119125760405163f23a6e6160e01b81526001600160a01b0385169063f23a6e61906136389089908990889088908890600401614092565b6020604051808303816000875af1925050508015613673575060408051601f3d908101601f19168201909252613670918101906140cc565b60015b6136dc573d8080156136a1576040519150601f19603f3d011682016040523d82523d6000602084013e6136a6565b606091505b5080516000036136d457604051632bfa23e760e11b81526001600160a01b03861660048201526024016109fb565b805181602001fd5b6001600160e01b0319811663f23a6e6160e01b1461330a57604051632bfa23e760e11b81526001600160a01b03861660048201526024016109fb565b6001600160a01b0384163b156119125760405163bc197c8160e01b81526001600160a01b0385169063bc197c819061375c90899089908890889088906004016140e9565b6020604051808303816000875af1925050508015613797575060408051601f3d908101601f19168201909252613794918101906140cc565b60015b6137c5573d8080156136a1576040519150601f19603f3d011682016040523d82523d6000602084013e6136a6565b6001600160e01b0319811663bc197c8160e01b1461330a57604051632bfa23e760e11b81526001600160a01b03861660048201526024016109fb565b80356001600160a01b038116811461381857600080fd5b919050565b6000806040838503121561383057600080fd5b61383983613801565b946020939093013593505050565b6001600160e01b031981168114610e1f57600080fd5b60006020828403121561386f57600080fd5b813561387a81613847565b9392505050565b60006020828403121561389357600080fd5b5035919050565b6000815180845260005b818110156138c0576020818501810151868301820152016138a4565b506000602082860101526020601f19601f83011685010191505092915050565b60208152600061387a602083018461389a565b6000806040838503121561390657600080fd5b50508035926020909101359150565b634e487b7160e01b600052604160045260246000fd5b604051601f8201601f1916810167ffffffffffffffff8111828210171561395457613954613915565b604052919050565b600067ffffffffffffffff82111561397657613976613915565b5060051b60200190565b600082601f83011261399157600080fd5b813560206139a66139a18361395c565b61392b565b82815260059290921b840181019181810190868411156139c557600080fd5b8286015b848110156139e057803583529183019183016139c9565b509695505050505050565b600082601f8301126139fc57600080fd5b813567ffffffffffffffff811115613a1657613a16613915565b613a29601f8201601f191660200161392b565b818152846020838601011115613a3e57600080fd5b816020850160208301376000918101602001919091529392505050565b600080600080600060a08688031215613a7357600080fd5b613a7c86613801565b9450613a8a60208701613801565b9350604086013567ffffffffffffffff80821115613aa757600080fd5b613ab389838a01613980565b94506060880135915080821115613ac957600080fd5b613ad589838a01613980565b93506080880135915080821115613aeb57600080fd5b50613af8888289016139eb565b9150509295509295909350565b600060208284031215613b1757600080fd5b61387a82613801565b60008060408385031215613b3357600080fd5b823567ffffffffffffffff80821115613b4b57600080fd5b818501915085601f830112613b5f57600080fd5b81356020613b6f6139a18361395c565b82815260059290921b84018101918181019089841115613b8e57600080fd5b948201945b83861015613bb357613ba486613801565b82529482019490820190613b93565b96505086013592505080821115613bc957600080fd5b50613bd685828601613980565b9150509250929050565b600081518084526020808501945080840160005b83811015613c1057815187529582019590820190600101613bf4565b509495945050505050565b60208152600061387a6020830184613be0565b60008083601f840112613c4057600080fd5b50813567ffffffffffffffff811115613c5857600080fd5b6020830191508360208260051b8501011115613c7357600080fd5b9250929050565b60008060008060408587031215613c9057600080fd5b843567ffffffffffffffff80821115613ca857600080fd5b613cb488838901613c2e565b90965094506020870135915080821115613ccd57600080fd5b50613cda87828801613c2e565b95989497509550505050565b60008060408385031215613cf957600080fd5b613d0283613801565b915060208301358015158114613d1757600080fd5b809150509250929050565b634e487b7160e01b600052602160045260246000fd5b6020810160068310613d5a57634e487b7160e01b600052602160045260246000fd5b91905290565b60008060408385031215613d7357600080fd5b613d7c83613801565b9150613d8a60208401613801565b90509250929050565b600080600080600060a08688031215613dab57600080fd5b613db486613801565b9450613dc260208701613801565b93506040860135925060608601359150608086013567ffffffffffffffff811115613dec57600080fd5b613af8888289016139eb565b634e487b7160e01b600052601160045260246000fd5b8181038181111561090257610902613df8565b634e487b7160e01b600052603260045260246000fd5b808202811582820484141761090257610902613df8565b600082613e6b57634e487b7160e01b600052601260045260246000fd5b500490565b8082018082111561090257610902613df8565b8181036000831280158383131683831282161715613ea357613ea3613df8565b5092915050565b600060018201613ebc57613ebc613df8565b5060010190565b600181811c90821680613ed757607f821691505b602082108103613ef757634e487b7160e01b600052602260045260246000fd5b50919050565b6020808252600a90820152694e6f74206f7261636c6560b01b604082015260600190565b602080825260149082015273115b9d1c9e48191bd95cc81b9bdd08195e1a5cdd60621b604082015260600190565b8082018281126000831280158216821582161715613f6f57613f6f613df8565b505092915050565b6020808252600d908201526c092dcecc2d8d2c840d2dcc8caf609b1b604082015260600190565b81835260006001600160fb1b03831115613fb757600080fd5b8260051b80836020870137939093016020019392505050565b604081526000613fe4604083018688613f9e565b8281036020840152613ff7818587613f9e565b979650505050505050565b60208082526013908201527210dbdb9d195cdd081b9bdd081cd95d1d1b1959606a1b604082015260600190565b60006020828403121561404157600080fd5b5051919050565b6000600160ff1b820161405d5761405d613df8565b5060000390565b6040815260006140776040830185613be0565b82810360208401526140898185613be0565b95945050505050565b6001600160a01b03868116825285166020820152604081018490526060810183905260a060808201819052600090613ff79083018461389a565b6000602082840312156140de57600080fd5b815161387a81613847565b6001600160a01b0386811682528516602082015260a06040820181905260009061411590830186613be0565b82810360608401526141278186613be0565b9050828103608084015261413b818561389a565b9897505050505050505056fea26469706673582212201de96cfde04a6cef10d71f4624c78ac48fc0573bc8e54c74dd6b72d27e241a1d64736f6c63430008140033","linkReferences":{}},"methodIdentifiers":{"BPS_DENOMINATOR()":"e1a45218","PRICE_PRECISION()":"95082d25","accumulatedPrizeBonus()":"32e6190b","activateContest()":"24f9cc4c","addPrediction(uint256,uint256)":"2e0ec188","balanceOf(address,uint256)":"00fdd58e","balanceOfBatch(address[],uint256[])":"4e1273f4","calculateEntryPrice(uint256)":"e1f370dd","cancelContest()":"1db0e667","cancelExpired()":"a01e4a1f","claimAllEntryPayouts()":"7964b54a","claimEntryPayout(uint256)":"f8c5992b","claimPredictionPayout(uint256)":"a56964ab","closePredictions()":"5a9855c3","contestantDepositAmount()":"1f85354a","demandSensitivityBps()":"693b4660","distributeExpiredContest()":"98e1eac3","entries(uint256)":"b30906d4","entryBonuses(uint256)":"0769ede3","entryOwner(uint256)":"df1ef4c6","entryWithdrawn(uint256)":"8c13d546","expiryTimestamp()":"ade6e2aa","finalEntryPayouts(uint256)":"67a89a3b","getEntriesCount()":"d09685b0","getEntryAtIndex(uint256)":"c9a496aa","getSpectatorAtIndex(uint256)":"a450fe44","getSpectatorsCount()":"964766a5","getUserEntriesCount(address)":"59fe5d68","getUserEntryAtIndex(address,uint256)":"4c60b1f1","isApprovedForAll(address,address)":"e985e9c5","isSpectator(address)":"3c9c73ed","joinContest(uint256)":"5d6e6c7c","leaveContest(uint256)":"07b19bfb","liquidityParameter()":"3a69a1be","netPosition(uint256)":"6932b382","oracle()":"7dc0d1d0","oracleFeeBps()":"5c76fda7","paymentToken()":"3013ce29","prizeShareBps()":"a422f348","safeBatchTransferFrom(address,address,uint256[],uint256[],bytes)":"2eb2c2d6","safeTransferFrom(address,address,uint256,uint256,bytes)":"f242432a","setApprovalForAll(address,bool)":"a22cb465","settleContest(uint256[],uint256[])":"563930e7","spectatorDepositedPerEntry(address,uint256)":"e70baa89","spectatorMarketResolved()":"7bc09bad","spectatorTotalDeposited(address)":"e8f45ab2","spectatorWinningEntry()":"78449d57","spectators(uint256)":"a5877e19","state()":"c19d93fb","supportsInterface(bytes4)":"01ffc9a7","totalContestantDeposits()":"7b8488ea","totalSpectatorCollateral()":"f1d57067","totalVolumeOnEntry(uint256)":"81288ae7","uri(uint256)":"0e89341c","userEntries(address,uint256)":"0b913af0","userShareBps()":"5a3e4e9e","withdrawPrediction(uint256,uint256)":"22fc1d0a"},"id":44}