{"abi":[{"type":"constructor","inputs":[{"name":"_paymentToken","type":"address","internalType":"address"},{"name":"_oracle","type":"address","internalType":"address"},{"name":"_primaryDepositAmount","type":"uint256","internalType":"uint256"},{"name":"_oracleFeeBps","type":"uint256","internalType":"uint256"},{"name":"_expiryTimestamp","type":"uint256","internalType":"uint256"},{"name":"_liquidityParameter","type":"uint256","internalType":"uint256"},{"name":"_demandSensitivityBps","type":"uint256","internalType":"uint256"},{"name":"_positionBonusShareBps","type":"uint256","internalType":"uint256"},{"name":"_targetPrimaryShareBps","type":"uint256","internalType":"uint256"},{"name":"_maxCrossSubsidyBps","type":"uint256","internalType":"uint256"}],"stateMutability":"nonpayable"},{"type":"function","name":"BPS_DENOMINATOR","inputs":[],"outputs":[{"name":"","type":"uint256","internalType":"uint256"}],"stateMutability":"view"},{"type":"function","name":"PRICE_PRECISION","inputs":[],"outputs":[{"name":"","type":"uint256","internalType":"uint256"}],"stateMutability":"view"},{"type":"function","name":"accumulatedOracleFee","inputs":[],"outputs":[{"name":"","type":"uint256","internalType":"uint256"}],"stateMutability":"view"},{"type":"function","name":"activateContest","inputs":[],"outputs":[],"stateMutability":"nonpayable"},{"type":"function","name":"addPrimaryPosition","inputs":[{"name":"entryId","type":"uint256","internalType":"uint256"},{"name":"merkleProof","type":"bytes32[]","internalType":"bytes32[]"}],"outputs":[],"stateMutability":"nonpayable"},{"type":"function","name":"addSecondaryPosition","inputs":[{"name":"entryId","type":"uint256","internalType":"uint256"},{"name":"amount","type":"uint256","internalType":"uint256"},{"name":"merkleProof","type":"bytes32[]","internalType":"bytes32[]"}],"outputs":[],"stateMutability":"nonpayable"},{"type":"function","name":"balanceOf","inputs":[{"name":"account","type":"address","internalType":"address"},{"name":"id","type":"uint256","internalType":"uint256"}],"outputs":[{"name":"","type":"uint256","internalType":"uint256"}],"stateMutability":"view"},{"type":"function","name":"balanceOfBatch","inputs":[{"name":"accounts","type":"address[]","internalType":"address[]"},{"name":"ids","type":"uint256[]","internalType":"uint256[]"}],"outputs":[{"name":"","type":"uint256[]","internalType":"uint256[]"}],"stateMutability":"view"},{"type":"function","name":"calculateSecondaryPrice","inputs":[{"name":"entryId","type":"uint256","internalType":"uint256"}],"outputs":[{"name":"","type":"uint256","internalType":"uint256"}],"stateMutability":"view"},{"type":"function","name":"cancelContest","inputs":[],"outputs":[],"stateMutability":"nonpayable"},{"type":"function","name":"cancelExpired","inputs":[],"outputs":[],"stateMutability":"nonpayable"},{"type":"function","name":"claimOracleFee","inputs":[],"outputs":[],"stateMutability":"nonpayable"},{"type":"function","name":"claimPrimaryPayout","inputs":[{"name":"entryId","type":"uint256","internalType":"uint256"}],"outputs":[],"stateMutability":"nonpayable"},{"type":"function","name":"claimSecondaryPayout","inputs":[{"name":"entryId","type":"uint256","internalType":"uint256"}],"outputs":[],"stateMutability":"nonpayable"},{"type":"function","name":"closeContest","inputs":[],"outputs":[],"stateMutability":"nonpayable"},{"type":"function","name":"demandSensitivityBps","inputs":[],"outputs":[{"name":"","type":"uint256","internalType":"uint256"}],"stateMutability":"view"},{"type":"function","name":"entries","inputs":[{"name":"","type":"uint256","internalType":"uint256"}],"outputs":[{"name":"","type":"uint256","internalType":"uint256"}],"stateMutability":"view"},{"type":"function","name":"entryOwner","inputs":[{"name":"","type":"uint256","internalType":"uint256"}],"outputs":[{"name":"","type":"address","internalType":"address"}],"stateMutability":"view"},{"type":"function","name":"expiryTimestamp","inputs":[],"outputs":[{"name":"","type":"uint256","internalType":"uint256"}],"stateMutability":"view"},{"type":"function","name":"getEntriesCount","inputs":[],"outputs":[{"name":"","type":"uint256","internalType":"uint256"}],"stateMutability":"view"},{"type":"function","name":"getEntryAtIndex","inputs":[{"name":"index","type":"uint256","internalType":"uint256"}],"outputs":[{"name":"","type":"uint256","internalType":"uint256"}],"stateMutability":"view"},{"type":"function","name":"getPrimarySideBalance","inputs":[],"outputs":[{"name":"","type":"uint256","internalType":"uint256"}],"stateMutability":"view"},{"type":"function","name":"getPrimarySideShareBps","inputs":[],"outputs":[{"name":"","type":"uint256","internalType":"uint256"}],"stateMutability":"view"},{"type":"function","name":"getSecondarySideBalance","inputs":[],"outputs":[{"name":"","type":"uint256","internalType":"uint256"}],"stateMutability":"view"},{"type":"function","name":"isApprovedForAll","inputs":[{"name":"account","type":"address","internalType":"address"},{"name":"operator","type":"address","internalType":"address"}],"outputs":[{"name":"","type":"bool","internalType":"bool"}],"stateMutability":"view"},{"type":"function","name":"liquidityParameter","inputs":[],"outputs":[{"name":"","type":"uint256","internalType":"uint256"}],"stateMutability":"view"},{"type":"function","name":"lockContest","inputs":[],"outputs":[],"stateMutability":"nonpayable"},{"type":"function","name":"maxCrossSubsidyBps","inputs":[],"outputs":[{"name":"","type":"uint256","internalType":"uint256"}],"stateMutability":"view"},{"type":"function","name":"netPosition","inputs":[{"name":"","type":"uint256","internalType":"uint256"}],"outputs":[{"name":"","type":"int256","internalType":"int256"}],"stateMutability":"view"},{"type":"function","name":"oracle","inputs":[],"outputs":[{"name":"","type":"address","internalType":"address"}],"stateMutability":"view"},{"type":"function","name":"oracleFeeBps","inputs":[],"outputs":[{"name":"","type":"uint256","internalType":"uint256"}],"stateMutability":"view"},{"type":"function","name":"paymentToken","inputs":[],"outputs":[{"name":"","type":"address","internalType":"contract IERC20"}],"stateMutability":"view"},{"type":"function","name":"positionBonusShareBps","inputs":[],"outputs":[{"name":"","type":"uint256","internalType":"uint256"}],"stateMutability":"view"},{"type":"function","name":"primaryDepositAmount","inputs":[],"outputs":[{"name":"","type":"uint256","internalType":"uint256"}],"stateMutability":"view"},{"type":"function","name":"primaryMerkleRoot","inputs":[],"outputs":[{"name":"","type":"bytes32","internalType":"bytes32"}],"stateMutability":"view"},{"type":"function","name":"primaryPositionSubsidy","inputs":[{"name":"","type":"uint256","internalType":"uint256"}],"outputs":[{"name":"","type":"uint256","internalType":"uint256"}],"stateMutability":"view"},{"type":"function","name":"primaryPrizePool","inputs":[],"outputs":[{"name":"","type":"uint256","internalType":"uint256"}],"stateMutability":"view"},{"type":"function","name":"primaryPrizePoolPayouts","inputs":[{"name":"","type":"uint256","internalType":"uint256"}],"outputs":[{"name":"","type":"uint256","internalType":"uint256"}],"stateMutability":"view"},{"type":"function","name":"primaryPrizePoolSubsidy","inputs":[],"outputs":[{"name":"","type":"uint256","internalType":"uint256"}],"stateMutability":"view"},{"type":"function","name":"primaryToSecondarySubsidy","inputs":[{"name":"","type":"uint256","internalType":"uint256"}],"outputs":[{"name":"","type":"uint256","internalType":"uint256"}],"stateMutability":"view"},{"type":"function","name":"pushPrimaryPayouts","inputs":[{"name":"entryIds","type":"uint256[]","internalType":"uint256[]"}],"outputs":[],"stateMutability":"nonpayable"},{"type":"function","name":"pushSecondaryPayouts","inputs":[{"name":"participantAddresses","type":"address[]","internalType":"address[]"},{"name":"entryId","type":"uint256","internalType":"uint256"}],"outputs":[],"stateMutability":"nonpayable"},{"type":"function","name":"removePrimaryPosition","inputs":[{"name":"entryId","type":"uint256","internalType":"uint256"}],"outputs":[],"stateMutability":"nonpayable"},{"type":"function","name":"removeSecondaryPosition","inputs":[{"name":"entryId","type":"uint256","internalType":"uint256"},{"name":"tokenAmount","type":"uint256","internalType":"uint256"}],"outputs":[],"stateMutability":"nonpayable"},{"type":"function","name":"safeBatchTransferFrom","inputs":[{"name":"from","type":"address","internalType":"address"},{"name":"to","type":"address","internalType":"address"},{"name":"ids","type":"uint256[]","internalType":"uint256[]"},{"name":"values","type":"uint256[]","internalType":"uint256[]"},{"name":"data","type":"bytes","internalType":"bytes"}],"outputs":[],"stateMutability":"nonpayable"},{"type":"function","name":"safeTransferFrom","inputs":[{"name":"from","type":"address","internalType":"address"},{"name":"to","type":"address","internalType":"address"},{"name":"id","type":"uint256","internalType":"uint256"},{"name":"value","type":"uint256","internalType":"uint256"},{"name":"data","type":"bytes","internalType":"bytes"}],"outputs":[],"stateMutability":"nonpayable"},{"type":"function","name":"secondaryDepositedPerEntry","inputs":[{"name":"","type":"address","internalType":"address"},{"name":"","type":"uint256","internalType":"uint256"}],"outputs":[{"name":"","type":"uint256","internalType":"uint256"}],"stateMutability":"view"},{"type":"function","name":"secondaryMarketResolved","inputs":[],"outputs":[{"name":"","type":"bool","internalType":"bool"}],"stateMutability":"view"},{"type":"function","name":"secondaryMerkleRoot","inputs":[],"outputs":[{"name":"","type":"bytes32","internalType":"bytes32"}],"stateMutability":"view"},{"type":"function","name":"secondaryPrizePool","inputs":[],"outputs":[{"name":"","type":"uint256","internalType":"uint256"}],"stateMutability":"view"},{"type":"function","name":"secondaryPrizePoolSubsidy","inputs":[],"outputs":[{"name":"","type":"uint256","internalType":"uint256"}],"stateMutability":"view"},{"type":"function","name":"secondaryToPrimarySubsidy","inputs":[{"name":"","type":"address","internalType":"address"},{"name":"","type":"uint256","internalType":"uint256"}],"outputs":[{"name":"","type":"uint256","internalType":"uint256"}],"stateMutability":"view"},{"type":"function","name":"secondaryWinningEntry","inputs":[],"outputs":[{"name":"","type":"uint256","internalType":"uint256"}],"stateMutability":"view"},{"type":"function","name":"setApprovalForAll","inputs":[{"name":"operator","type":"address","internalType":"address"},{"name":"approved","type":"bool","internalType":"bool"}],"outputs":[],"stateMutability":"nonpayable"},{"type":"function","name":"setPrimaryMerkleRoot","inputs":[{"name":"_root","type":"bytes32","internalType":"bytes32"}],"outputs":[],"stateMutability":"nonpayable"},{"type":"function","name":"setSecondaryMerkleRoot","inputs":[{"name":"_root","type":"bytes32","internalType":"bytes32"}],"outputs":[],"stateMutability":"nonpayable"},{"type":"function","name":"settleContest","inputs":[{"name":"winningEntries","type":"uint256[]","internalType":"uint256[]"},{"name":"payoutBps","type":"uint256[]","internalType":"uint256[]"}],"outputs":[],"stateMutability":"nonpayable"},{"type":"function","name":"state","inputs":[],"outputs":[{"name":"","type":"uint8","internalType":"enum Contest.ContestState"}],"stateMutability":"view"},{"type":"function","name":"supportsInterface","inputs":[{"name":"interfaceId","type":"bytes4","internalType":"bytes4"}],"outputs":[{"name":"","type":"bool","internalType":"bool"}],"stateMutability":"view"},{"type":"function","name":"targetPrimaryShareBps","inputs":[],"outputs":[{"name":"","type":"uint256","internalType":"uint256"}],"stateMutability":"view"},{"type":"function","name":"totalPrimaryPositionSubsidies","inputs":[],"outputs":[{"name":"","type":"uint256","internalType":"uint256"}],"stateMutability":"view"},{"type":"function","name":"uri","inputs":[{"name":"","type":"uint256","internalType":"uint256"}],"outputs":[{"name":"","type":"string","internalType":"string"}],"stateMutability":"view"},{"type":"event","name":"ApprovalForAll","inputs":[{"name":"account","type":"address","indexed":true,"internalType":"address"},{"name":"operator","type":"address","indexed":true,"internalType":"address"},{"name":"approved","type":"bool","indexed":false,"internalType":"bool"}],"anonymous":false},{"type":"event","name":"ContestActivated","inputs":[],"anonymous":false},{"type":"event","name":"ContestCancelled","inputs":[],"anonymous":false},{"type":"event","name":"ContestClosed","inputs":[],"anonymous":false},{"type":"event","name":"ContestLocked","inputs":[],"anonymous":false},{"type":"event","name":"ContestSettled","inputs":[{"name":"winningEntries","type":"uint256[]","indexed":false,"internalType":"uint256[]"},{"name":"payouts","type":"uint256[]","indexed":false,"internalType":"uint256[]"}],"anonymous":false},{"type":"event","name":"PrimaryMerkleRootUpdated","inputs":[{"name":"newRoot","type":"bytes32","indexed":false,"internalType":"bytes32"}],"anonymous":false},{"type":"event","name":"PrimaryPayoutClaimed","inputs":[{"name":"owner","type":"address","indexed":true,"internalType":"address"},{"name":"entryId","type":"uint256","indexed":true,"internalType":"uint256"},{"name":"amount","type":"uint256","indexed":false,"internalType":"uint256"}],"anonymous":false},{"type":"event","name":"PrimaryPositionAdded","inputs":[{"name":"owner","type":"address","indexed":true,"internalType":"address"},{"name":"entryId","type":"uint256","indexed":true,"internalType":"uint256"}],"anonymous":false},{"type":"event","name":"PrimaryPositionRemoved","inputs":[{"name":"entryId","type":"uint256","indexed":true,"internalType":"uint256"},{"name":"owner","type":"address","indexed":true,"internalType":"address"}],"anonymous":false},{"type":"event","name":"SecondaryMerkleRootUpdated","inputs":[{"name":"newRoot","type":"bytes32","indexed":false,"internalType":"bytes32"}],"anonymous":false},{"type":"event","name":"SecondaryPayoutClaimed","inputs":[{"name":"participant","type":"address","indexed":true,"internalType":"address"},{"name":"entryId","type":"uint256","indexed":true,"internalType":"uint256"},{"name":"payout","type":"uint256","indexed":false,"internalType":"uint256"}],"anonymous":false},{"type":"event","name":"SecondaryPositionAdded","inputs":[{"name":"participant","type":"address","indexed":true,"internalType":"address"},{"name":"entryId","type":"uint256","indexed":true,"internalType":"uint256"},{"name":"amount","type":"uint256","indexed":false,"internalType":"uint256"},{"name":"tokensReceived","type":"uint256","indexed":false,"internalType":"uint256"}],"anonymous":false},{"type":"event","name":"SecondaryPositionRemoved","inputs":[{"name":"participant","type":"address","indexed":true,"internalType":"address"},{"name":"amount","type":"uint256","indexed":false,"internalType":"uint256"}],"anonymous":false},{"type":"event","name":"TransferBatch","inputs":[{"name":"operator","type":"address","indexed":true,"internalType":"address"},{"name":"from","type":"address","indexed":true,"internalType":"address"},{"name":"to","type":"address","indexed":true,"internalType":"address"},{"name":"ids","type":"uint256[]","indexed":false,"internalType":"uint256[]"},{"name":"values","type":"uint256[]","indexed":false,"internalType":"uint256[]"}],"anonymous":false},{"type":"event","name":"TransferSingle","inputs":[{"name":"operator","type":"address","indexed":true,"internalType":"address"},{"name":"from","type":"address","indexed":true,"internalType":"address"},{"name":"to","type":"address","indexed":true,"internalType":"address"},{"name":"id","type":"uint256","indexed":false,"internalType":"uint256"},{"name":"value","type":"uint256","indexed":false,"internalType":"uint256"}],"anonymous":false},{"type":"event","name":"URI","inputs":[{"name":"value","type":"string","indexed":false,"internalType":"string"},{"name":"id","type":"uint256","indexed":true,"internalType":"uint256"}],"anonymous":false},{"type":"error","name":"ERC1155InsufficientBalance","inputs":[{"name":"sender","type":"address","internalType":"address"},{"name":"balance","type":"uint256","internalType":"uint256"},{"name":"needed","type":"uint256","internalType":"uint256"},{"name":"tokenId","type":"uint256","internalType":"uint256"}]},{"type":"error","name":"ERC1155InvalidApprover","inputs":[{"name":"approver","type":"address","internalType":"address"}]},{"type":"error","name":"ERC1155InvalidArrayLength","inputs":[{"name":"idsLength","type":"uint256","internalType":"uint256"},{"name":"valuesLength","type":"uint256","internalType":"uint256"}]},{"type":"error","name":"ERC1155InvalidOperator","inputs":[{"name":"operator","type":"address","internalType":"address"}]},{"type":"error","name":"ERC1155InvalidReceiver","inputs":[{"name":"receiver","type":"address","internalType":"address"}]},{"type":"error","name":"ERC1155InvalidSender","inputs":[{"name":"sender","type":"address","internalType":"address"}]},{"type":"error","name":"ERC1155MissingApprovalForAll","inputs":[{"name":"operator","type":"address","internalType":"address"},{"name":"owner","type":"address","internalType":"address"}]},{"type":"error","name":"ReentrancyGuardReentrantCall","inputs":[]},{"type":"error","name":"SafeERC20FailedOperation","inputs":[{"name":"token","type":"address","internalType":"address"}]}],"bytecode":{"object":"0x6101c034620005bf57601f62004f4d38819003918201601f1916830192916001600160401b03919082851184861017620005a9578084926040968752833961014091829181010312620005bf576200005783620005c4565b9360209162000068838601620005c4565b91808601516060870151608088015160a08901519160c08a01519360e08b0151976101009c8d8d01519a610120809e01519c8951908282019082821090821117620005a9578a526000809152600254906001918281811c911680156200059e575b848210146200058a57601f81116200055b575b506002556003556001600160a01b039182169182156200051757831615620004e3578315620004a0576103e885116200045d574286111562000429578615620003e657612710808911620003a257808c116200035e57808d116200031a578d11620002d7575060805260a05260c05260e0528952875282526101609283526101809384526101a094855260ff196004541660045551946149739687620005da8839608051878181610a9c01528181610d28015281816116d20152818161191101528181611b1001528181611de10152818161210c015281816124f3015281816128c901528181612b3f015261302c015260a0518781816106720152818161075f01528181610b08015281816110b5015281816117dd015281816118cb0152818161198a01528181611d64015281816123cb015281816127620152612e09015260c051878181611a5301528181611c160152612abc015260e0518781816113d9015281816115b601528181611a7d01528181612ae60152612f1e015251868181611cb901528181611da5015281816120080152612a44015251858181610b8101526147f601525184818161148b01526147cf015251838181611602015281816126a20152612f640152518281816126fb015281816145fe015261472a015251818181611faf0152818161464f015281816146a601526147640152f35b60649089519062461bcd60e51b82526004820152601360248201527f496e76616c6964207375627369647920636170000000000000000000000000006044820152fd5b895162461bcd60e51b815260048101839052601460248201527f496e76616c69642074617267657420726174696f0000000000000000000000006044820152606490fd5b895162461bcd60e51b815260048101839052601c60248201527f496e76616c696420706f736974696f6e20626f6e7573207368617265000000006044820152606490fd5b895162461bcd60e51b815260048101839052601a60248201527f496e76616c69642064656d616e642073656e73697469766974790000000000006044820152606490fd5b60649089519062461bcd60e51b82526004820152601b60248201527f496e76616c6964206c697175696469747920706172616d6574657200000000006044820152fd5b60649089519062461bcd60e51b82526004820152600e60248201526d115e1c1a5c9e481a5b881c185cdd60921b6044820152fd5b60649089519062461bcd60e51b82526004820152601360248201527f4f7261636c652066656520746f6f2068696768000000000000000000000000006044820152fd5b60649089519062461bcd60e51b82526004820152601660248201527f496e76616c6964206465706f73697420616d6f756e74000000000000000000006044820152fd5b60649089519062461bcd60e51b82526004820152600e60248201526d496e76616c6964206f7261636c6560901b6044820152fd5b895162461bcd60e51b815260048101839052601560248201527f496e76616c6964207061796d656e7420746f6b656e00000000000000000000006044820152606490fd5b6002825282601f858420920160051c8201915b8281106200057e575050620000dc565b8381550183906200056e565b634e487b7160e01b82526022600452602482fd5b90607f1690620000c9565b634e487b7160e01b600052604160045260246000fd5b600080fd5b51906001600160a01b0382168203620005bf5756fe6080604052600436101561001257600080fd5b60003560e01c8062fdd58e146103f657806301ffc9a7146103f1578063060d4f7a146103ec5780630e89341c146103e75780631db0e667146103e2578063219200f9146103dd57806324f9cc4c146103d85780632eb2c2d6146103d35780633013ce29146103ce5780633789a2fb146103c95780633a2babc2146103c45780633a69a1be146103bf5780634034b060146103ba5780634e1273f4146103b55780634ee837a6146103b05780634fd34950146103ab578063563930e7146103a65780635c76fda7146103a1578063655984f31461039c5780636932b38214610397578063693b46601461039257806374d342141461038d57806375f25006146103885780637680a51e146103835780637ae45fe31461037e5780637dc0d1d0146103795780637e8f123414610374578063829e4c641461036f578063933b12821461036a5780639455937a1461036557806395082d25146103605780639a9a5d9d1461035b578063a01e4a1f14610356578063a094c63214610351578063a22cb4651461034c578063a5b3f3f614610347578063a7e2bc5414610342578063ade6e2aa1461033d578063ae4c8ba914610338578063af19e0d514610333578063af1d91971461032e578063b30906d414610329578063b356357014610324578063b9937e301461031f578063bf6bbf091461031a578063c19d93fb14610315578063c53e21e414610310578063c8d227001461030b578063c8d5c1b114610306578063c9a496aa14610301578063cb6381da146102fc578063d09685b0146102f7578063d601eef3146102f2578063d6a74ce0146102ed578063df1ef4c6146102e8578063e1a45218146102e3578063e1db226a146102de578063e985e9c5146102d9578063ed4af81f146102d4578063f242432a146102cf578063fc8c28e1146102ca5763fed76325146102c557600080fd5b612e44565b612dcc565b612ca7565b612c89565b612c21565b6129ba565b61299d565b612969565b61271e565b6126e3565b6126c5565b61268a565b612604565b6125d8565b61238d565b612361565b612337565b6122cc565b6122ae565b612282565b612231565b6121fd565b61204e565b61202b565b611ff0565b611fd2565b611f97565b611ed7565b611d50565b611ca5565b611c87565b611c69565b611c39565b611bfe565b611be0565b6119b9565b611974565b6118af565b611894565b6117c5565b6114ae565b611473565b611447565b6113fc565b6113c1565b611062565b611017565b610ff9565b610f3e565b610ba4565b610b69565b610b43565b610acb565b610a86565b610959565b610747565b610729565b61065a565b610554565b6104e2565b610474565b610411565b6001600160a01b0381160361040c57565b600080fd5b3461040c57604036600319011261040c576020610459600435610433816103fb565b6024356000526000835260406000209060018060a01b0316600052602052604060002090565b54604051908152f35b6001600160e01b031981160361040c57565b3461040c57602036600319011261040c57602060043561049381610462565b63ffffffff60e01b16636cdb3d1360e11b81149081156104d1575b81156104c0575b506040519015158152f35b6301ffc9a760e01b149050386104b5565b6303a24d0760e21b811491506104ae565b3461040c57600036600319011261040c576020600f54604051908152f35b919082519283825260005b84811061052c575050826000602080949584010152601f8019910116010190565b60208183018101518483018201520161050b565b906020610551928181520190610500565b90565b3461040c5760208060031936011261040c576040519060009060025460019181831c92808316928315610650575b828510841461063c57848752602087019390811561061d57506001146105c3575b6105bf866105b381880382610861565b60405191829182610540565b0390f35b6002600090815294509192917f405787fa12a823e0f2b7631cc41b3ba8828b3321ca811111fa75cd3aa3bb5ace5b83861061060c57505050910190506105b3826105bf386105a3565b8054858701529482019481016105f1565b60ff1916845250505090151560051b0190506105b3826105bf386105a3565b634e487b7160e01b86526022600452602486fd5b93607f1693610582565b3461040c57600080600319360112610726576106a0337f00000000000000000000000000000000000000000000000000000000000000006001600160a01b031614614265565b60ff600454166006811015610712578060036106c592141590816106fd575b506144ee565b6106d6600460ff1981541617600455565b7f9237e8f0d5063a695b8695e82c82bc24d15591de9d04449771a6ea4b128317378180a180f35b6005915061070a81612317565b1415386106bf565b634e487b7160e01b82526021600452602482fd5b80fd5b3461040c57600036600319011261040c576020601154604051908152f35b3461040c576000806003193601126107265761078d337f00000000000000000000000000000000000000000000000000000000000000006001600160a01b031614614265565b60ff600454166006811015610712576107e6576107ad600654151561429e565b6107bf600160ff196004541617600455565b7f3927b788a62eb53f7192cd9286f49295f01b938b6afc23aef0af5d035cd853168180a180f35b60405162461bcd60e51b815260206004820152601760248201527f436f6e7465737420616c726561647920737461727465640000000000000000006044820152606490fd5b634e487b7160e01b600052604160045260246000fd5b602081019081106001600160401b0382111761085c57604052565b61082b565b90601f801991011681019081106001600160401b0382111761085c57604052565b6001600160401b03811161085c5760051b60200190565b81601f8201121561040c578035916108b083610882565b926108be6040519485610861565b808452602092838086019260051b82010192831161040c578301905b8282106108e8575050505090565b813581529083019083016108da565b6001600160401b03811161085c57601f01601f191660200190565b81601f8201121561040c57803590610929826108f7565b926109376040519485610861565b8284526020838301011161040c57816000926020809301838601378301015290565b3461040c5760a036600319011261040c5760048035610977816103fb565b602435610983816103fb565b6001600160401b039060443582811161040c576109a39036908601610899565b9060643583811161040c576109bb9036908701610899565b9260843590811161040c576109d39036908701610912565b936001600160a01b03808216903382141580610a62575b610a3557831615610a1d5715610a0657610a04955061322b565b005b604051626a0d4560e21b8152600081880152602490fd5b604051632bfa23e760e11b8152600081890152602490fd5b6040805163711bec9160e11b815233818b019081526001600160a01b038616602082015290918291010390fd5b50600082815260016020908152604080832033845290915290205460ff16156109ea565b3461040c57600036600319011261040c576040517f00000000000000000000000000000000000000000000000000000000000000006001600160a01b03168152602090f35b3461040c57602036600319011261040c577fa2877b861a6a177d8c1a4430a6f8716104652f70e5c8fbd58aa775ef96da4a526020600435610b36337f00000000000000000000000000000000000000000000000000000000000000006001600160a01b031614614265565b80601655604051908152a1005b3461040c57602036600319011261040c576020610b61600435614789565b604051908152f35b3461040c57600036600319011261040c5760206040517f00000000000000000000000000000000000000000000000000000000000000008152f35b3461040c5760208060031936011261040c5760043590610bc2613a24565b610be26003610bd360045460ff1690565b610bdc81612317565b14613b96565b610bf6610bf160155460ff1690565b61414a565b60018060a01b0390610c2e82610c26610c19866000526007602052604060002090565b546001600160a01b031690565b16151561418c565b610c5d33610c46856000526000602052604060002090565b9060018060a01b0316600052602052604060002090565b549182151591610c6c836141e6565b610c77848633613fae565b6000936014548614610cc3575b604051858152869033907fe256ef8b7b6eaeb621f7e7ca3b683f124df401cb260bbaccf0540299944b858a9080602081015b0390a3610a046001600355565b9091929350610cdc85600052600d602052604060002090565b5490610ce982151561421e565b610d0b610cfb600e54600f549061343b565b92610d068484613c28565b613c3b565b94610ed2575b506040516370a0823160e01b8082523060048301527f00000000000000000000000000000000000000000000000000000000000000009485169290918481602481875afa908115610e1757600091610eb5575b50808711610ead575b5085610e1c575b50610d8986600052600d602052604060002090565b54610c8457604051908152306004820152908290829060249082905afa918215610e1757600092610dea575b505080610dc4575b8080610c84565b610de391610dd26000600e55565b610ddc6000600f55565b3390613b47565b3880610dbd565b610e099250803d10610e10575b610e018183610861565b810190614256565b3880610db5565b503d610df7565b6134e6565b80610e34575b50610e2e853386613b47565b38610d74565b610e45600e5491610d068389613c28565b610e4f8188613961565b918111610e9d57610e65610e6a91600e54613961565b600e55565b600f548111610e8d57610e82610e8791600f54613961565b600f55565b38610e22565b50610e986000600f55565b610e87565b50610ea86000600e55565b610e6a565b955038610d6d565b610ecc9150853d8711610e1057610e018183610861565b38610d64565b610ef1610ee987600052600d602052604060002090565b918254613f95565b905538610d11565b90815180825260208080930193019160005b828110610f19575050505090565b835185529381019392810192600101610f0b565b906020610551928181520190610ef9565b3461040c57604036600319011261040c576004356001600160401b0380821161040c573660238301121561040c578160040135610f7a81610882565b92610f886040519485610861565b81845260209160248386019160051b8301019136831161040c57602401905b828210610fe0578560243586811161040c576105bf91610fce610fd4923690600401610899565b90613166565b60405191829182610f2d565b8380918335610fee816103fb565b815201910190610fa7565b3461040c57600036600319011261040c576020600554604051908152f35b3461040c57600036600319011261040c576020610b616148f3565b9181601f8401121561040c578235916001600160401b03831161040c576020808501948460051b01011161040c57565b3461040c57604036600319011261040c576001600160401b0360043581811161040c57611093903690600401611032565b909160243590811161040c576110ad903690600401611032565b92906110e3337f00000000000000000000000000000000000000000000000000000000000000006001600160a01b031614614265565b6110eb613a24565b6111156110fa60045460ff1690565b61110381612317565b600181149081156113ad575b506142d7565b611120831515614323565b61112b84841461436f565b6111396006548411156143b3565b6000805b85811061137257506127106111529114614457565b611164600360ff196004541617600455565b6111736008546009549061343b565b60005b84811061132b57505061119261118c84846143f2565b35601455565b6111a4600160ff196015541617601555565b6111ba601454600052600d602052604060002090565b546111ca600e54600f549061343b565b908115159081611322575b5061121b575b507f0fed27f5e3cd741c181cc0d3b0c47df2013638faa8b7aa7084de3946098eb78e9361120e91604051948594856144c7565b0390a1610a046001600355565b6112256000600e55565b61122f6000600f55565b6000805b8581106112b057509181837f0fed27f5e3cd741c181cc0d3b0c47df2013638faa8b7aa7084de3946098eb78e979361120e9510611275575b50509150936111db565b61127e91613961565b6112a761129f61128e88886143f2565b35600052600b602052604060002090565b91825461343b565b9055388061126b565b906112bc8287876143fb565b35916112de6112d66112cf838b896143fb565b3586613c28565b612710900490565b806112f5575b506112f091925061313e565b611233565b61131961129f611308836112f09661343b565b95600052600b602052604060002090565b905582916112e4565b905015386111d5565b8061133a61136d9287876143fb565b356113676113566112d661134f858c8a6143fb565b3587613c28565b91600052600b602052604060002090565b5561313e565b611176565b906113a26113a891611390611388858a886143fb565b35151561440b565b61139b8489876143fb565b359061343b565b9161313e565b61113d565b600291506113ba81612317565b143861110f565b3461040c57600036600319011261040c5760206040517f00000000000000000000000000000000000000000000000000000000000000008152f35b3461040c57604036600319011261040c57600435611419816103fb565b60018060a01b0316600052601360205260406000206024356000526020526020604060002054604051908152f35b3461040c57602036600319011261040c57600435600052600d6020526020604060002054604051908152f35b3461040c57600036600319011261040c5760206040517f00000000000000000000000000000000000000000000000000000000000000008152f35b3461040c57604036600319011261040c576024356004356114cd613a24565b6114f56114dc60045460ff1690565b6114e581612317565b80159081156117b1575b50613eaa565b6000818152600760205260409020611521906001600160a01b039061151990610c19565b161515613f0f565b61152c821515613d07565b6115508261154833610c46856000526000602052604060002090565b541015613f52565b61156833610c46836000526000602052604060002090565b54906115a782610d06856115a1856115923360018060a01b03166000526012602052604060002090565b90600052602052604060002090565b54613c28565b926116566115f66127106115db7f000000000000000000000000000000000000000000000000000000000000000088613c28565b046115f06115eb82600554613961565b600555565b86613961565b9361162e6116276112d67f000000000000000000000000000000000000000000000000000000000000000088613c28565b8096613961565b9480611776575b50336000908152601360205260409020610d069084906115a1908790611592565b9280841161176e575b61169d9161167085610e6593613961565b9061167c818633613fae565b611693610ee986600052600d602052604060002090565b9055600e54613961565b3360009081526012602052604090206116b7908290611592565b6116c2848254613961565b90558161172e575b826116f681337f0000000000000000000000000000000000000000000000000000000000000000613b47565b60405190815233907f9ab0480f2900ac3d2b39009247d33515552abee0ba84caa8a3f1c6435fbb266e90602090a2610a046001600355565b61175d6117659161174961174485600954613961565b600955565b336000908152601360205260409020611592565b918254613961565b905538806116ca565b92508261165f565b6117a66117ab91611791876000526010602052604060002090565b61179c828254613961565b9055601154613961565b601155565b38611635565b600491506117be81612317565b14386114ef565b3461040c576000806003193601126107265761180b337f00000000000000000000000000000000000000000000000000000000000000006001600160a01b031614614265565b60ff6004541660068110156107125760010361185a57611833600260ff196004541617600455565b7fca4f15905dfed40aa7885e1be889ff7da045bd49fc916c3a40cf8b0a3db7636a8180a180f35b60405162461bcd60e51b8152602060048201526012602482015271436f6e74657374206e6f742061637469766560701b6044820152606490fd5b3461040c57600036600319011261040c576020610b616146cb565b3461040c57600080600319360112610726576118c9613a24565b7f00000000000000000000000000000000000000000000000000000000000000006118fe336001600160a01b03831614614265565b600554801561193d5761193591836005557f0000000000000000000000000000000000000000000000000000000000000000613b47565b600160035580f35b60405162461bcd60e51b815260206004820152600f60248201526e4e6f2066656520746f20636c61696d60881b6044820152606490fd5b3461040c57600036600319011261040c576040517f00000000000000000000000000000000000000000000000000000000000000006001600160a01b03168152602090f35b3461040c57602036600319011261040c576004356119d5613a24565b6119fd6119e460045460ff1690565b6119ed81612317565b8015908115611bcc575b50613aa4565b611a27611a17610c19836000526007602052604060002090565b6001600160a01b03163314613b09565b611a4e611a3e826000526007602052604060002090565b80546001600160a01b0319169055565b611b347f0000000000000000000000000000000000000000000000000000000000000000611ab8612710611aa27f000000000000000000000000000000000000000000000000000000000000000084613c28565b04611ab26115eb82600554613961565b82613961565b611aea611ae5611add611ad587600052600a602052604060002090565b548094613961565b600854613961565b600855565b80611ba0575b50611b05836000526010602052604060002090565b5480611b65575b50337f0000000000000000000000000000000000000000000000000000000000000000613b47565b33907fa11660be5ca5ef93a56a1f22e4de3d92bcb1727897a5e70a7262c26e256f3a40600080a3610a046001600355565b611ae5611b9a916000611b82876000526010602052604060002090565b55611b926117a682601154613961565b60085461343b565b38611b0c565b610e82611bc6916000611bbd87600052600a602052604060002090565b55600f54613961565b38611af0565b60049150611bd981612317565b14386119f7565b3461040c57600036600319011261040c576020600e54604051908152f35b3461040c57600036600319011261040c5760206040517f00000000000000000000000000000000000000000000000000000000000000008152f35b3461040c57600036600319011261040c57600e54600f548101809111611c6457602090604051908152f35b613128565b3461040c57600036600319011261040c576020604051620f42408152f35b3461040c57600036600319011261040c576020601654604051908152f35b3461040c57600080600319360112610726577f00000000000000000000000000000000000000000000000000000000000000004210611d1d576106c5611ced60045460ff1690565b611cf681612317565b60038114159081611d08575b5061457b565b60059150611d1581612317565b141538611d02565b60405162461bcd60e51b815260206004820152600b60248201526a139bdd08195e1c1a5c995960aa1b6044820152606490fd5b3461040c57600080600319360112610726577f00000000000000000000000000000000000000000000000000000000000000006001600160a01b03611d983382841614614265565b611da0613a24565b611dcc7f000000000000000000000000000000000000000000000000000000000000000042101561453a565b6040516370a0823160e01b81523060048201527f00000000000000000000000000000000000000000000000000000000000000009290916020908390602490829087165afa918215610e17578492611eb7575b5081611e34575b83611e316001600355565b80f35b611e8b92611e426000600855565b611e4c6000600955565b611e566000601155565b611e606000600e55565b611e6a6000600f55565b611e746000600555565b611e86600560ff196004541617600455565b613b47565b7fef19c40e684c836035e6598f5d86819dfec89371571efdeed7947339739711438180a1388080611e26565b611ed091925060203d8111610e1057610e018183610861565b9038611e1f565b3461040c57604036600319011261040c57600435611ef4816103fb565b602435908115159081830361040c576001600160a01b038116928315611f7f57611f40611f519233600052600160205260406000209060018060a01b0316600052602052604060002090565b9060ff801983541691151516179055565b6040519081527f17307eab39ab6107e8899845ad3d59bd9653f200f220920489ca2b5937696c3160203392a3005b60405162ced3e160e81b815260006004820152602490fd5b3461040c57600036600319011261040c5760206040517f00000000000000000000000000000000000000000000000000000000000000008152f35b3461040c57600036600319011261040c576020600954604051908152f35b3461040c57600036600319011261040c5760206040517f00000000000000000000000000000000000000000000000000000000000000008152f35b3461040c57600036600319011261040c57602060ff601554166040519015158152f35b3461040c57602036600319011261040c5760043561206a613a24565b61207b6003610bd360045460ff1690565b612095611a17610c19836000526007602052604060002090565b6120a981600052600b602052604060002090565b546120be826000526010602052604060002090565b54906120ca828261343b565b916120d6831515613bd8565b6000848152600b6020526040812055806121d1575b50600854906120fc6009548361343b565b80612163575b50505061213081337f0000000000000000000000000000000000000000000000000000000000000000613b47565b60405190815233907e89742e8fcde5f6c48a17ec50347f2b2d98d85a17abe162b4cd552516f752dd908060208101610cb6565b61217461217b91610d068585613c28565b8092613961565b9181116121c157611ae561219191600854613961565b60095481116121b1576117446121a991600954613961565b388080612102565b506121bc6000600955565b6121a9565b506121cc6000600855565b612191565b6117a66121f79160006121ee876000526010602052604060002090565b55601154613961565b386120eb565b3461040c57600036600319011261040c576020601454604051908152f35b634e487b7160e01b600052603260045260246000fd5b3461040c57602036600319011261040c5760043560065481101561040c5760209060066000527ff652222313e28459528d920b65115c16c04f3efc82aaedc97be59f3f377c0d3f0154604051908152f35b3461040c57602036600319011261040c57600435600052600a6020526020604060002054604051908152f35b3461040c57600036600319011261040c576020600854604051908152f35b3461040c57604036600319011261040c576004356122e9816103fb565b60018060a01b0316600052601260205260406000206024356000526020526020604060002054604051908152f35b6006111561232157565b634e487b7160e01b600052602160045260246000fd5b3461040c57600036600319011261040c5760ff600454166040516006821015612321576020918152f35b3461040c57602036600319011261040c5760043560005260106020526020604060002054604051908152f35b3461040c57602036600319011261040c576004356001600160401b03811161040c576123bd903690600401611032565b6001600160a01b036123f2337f0000000000000000000000000000000000000000000000000000000000000000831614614265565b6123fa613a24565b61240b6003610bd360045460ff1690565b60005b82811061241f57610a046001600355565b8061242e61249d9285876143fb565b35612446610c19826000526007602052604060002090565b8481169061245582151561485d565b61246983600052600b602052604060002090565b549061247f846000526010602052604060002090565b549161248b838261343b565b90816124a2575b50505050505061313e565b61240e565b8161252793612517927e89742e8fcde5f6c48a17ec50347f2b2d98d85a17abe162b4cd552516f752dd9660006124e28b600052600b602052604060002090565b55806125b5575b5080612535575b507f0000000000000000000000000000000000000000000000000000000000000000613b47565b6040519081529081906020820190565b0390a3388080808080612492565b60085490600961254681548461343b565b80612554575b5050506124f0565b8361257361256c61258893610d0661259e9888613c28565b8095613961565b936000918181106125ae57611ae59250613961565b54600091908181106125a7576117449250613961565b3880808061254c565b5050611744565b5050611ae5565b6117a66125d29160006121ee8d6000526010602052604060002090565b386124e9565b3461040c57602036600319011261040c57600435600052600b6020526020604060002054604051908152f35b3461040c57602036600319011261040c576004356006548110156126555760209060066000527ff652222313e28459528d920b65115c16c04f3efc82aaedc97be59f3f377c0d3f0154604051908152f35b60405162461bcd60e51b815260206004820152600d60248201526c092dcecc2d8d2c840d2dcc8caf609b1b6044820152606490fd5b3461040c57600036600319011261040c5760206040517f00000000000000000000000000000000000000000000000000000000000000008152f35b3461040c57600036600319011261040c576020600654604051908152f35b3461040c57600036600319011261040c5760206040517f00000000000000000000000000000000000000000000000000000000000000008152f35b3461040c5760408060031936011261040c576004356001600160401b03811161040c5761274f903690600401611032565b91602435906001600160a01b03612789337f0000000000000000000000000000000000000000000000000000000000000000831614614265565b612791613a24565b6127a26003610bd360045460ff1690565b6127b1610bf160155460ff1690565b6127be60145484146148a9565b6127d283600052600d602052604060002090565b54906127df82151561421e565b600e918254926127f3600f9485549061343b565b9460005b89811061280857610a046001600355565b808861282061281b61284b948e8e6143fb565b6148e9565b898761283a83610c46866000526000602052604060002090565b5480612850575b505050505061313e565b6127f7565b6128899281612863610d06938888613fae565b61287787600052600d602052604060002090565b612882828254613f95565b9055613c28565b90888261289a575b50878b91612841565b7fe256ef8b7b6eaeb621f7e7ca3b683f124df401cb260bbaccf0540299944b858a918c612901575b6128ed84827f0000000000000000000000000000000000000000000000000000000000000000613b47565b87519384521691602090a388388088612891565b88546129118e610d068388613c28565b61291b8187613961565b91811161295957610e65612930918c54613961565b8c548d90821161294d5761294891610e829154613961565b6128c2565b50506129486000600f55565b506129646000600e55565b612930565b3461040c57602036600319011261040c576004356000526007602052602060018060a01b0360406000205416604051908152f35b3461040c57600036600319011261040c5760206040516127108152f35b3461040c57604036600319011261040c576004356024356001600160401b03811161040c576129ed903690600401611032565b906129f6613a24565b612a14612a0560045460ff1690565b612a0e81612317565b156137b2565b6000838152600760205260409020612a3f906001600160a01b0390612a3890610c19565b16156137f1565b612a6a7f00000000000000000000000000000000000000000000000000000000000000004210613834565b600c549182612bbe575b505050612a8081613903565b612ab733612a98836000526007602052604060002090565b80546001600160a01b0319166001600160a01b03909216919091179055565b612b637f0000000000000000000000000000000000000000000000000000000000000000612b1b612710612b0b7f000000000000000000000000000000000000000000000000000000000000000084613c28565b04611ab26115eb8260055461343b565b612b34611ae5611b92612b2d846145b9565b8094613961565b80612b93575b5030337f000000000000000000000000000000000000000000000000000000000000000061396e565b337f4a3a30e0139991c1b1492b4364701af9484bb9032a696c2b8c748a1e51f2fd17600080a3610a046001600355565b610e8281612bb892612baf87600052600a602052604060002090565b55600f5461343b565b38612b3a565b612c1992612c0f612c14936040516020810190612c0481612bf633856014916bffffffffffffffffffffffff199060601b1681520190565b03601f198101835282610861565b519020933691613872565b613a47565b6138c0565b388080612a74565b3461040c57604036600319011261040c57602060ff612c7d600435612c45816103fb565b60243590612c52826103fb565b60018060a01b03166000526001845260406000209060018060a01b0316600052602052604060002090565b54166040519015158152f35b3461040c57600036600319011261040c576020600c54604051908152f35b3461040c5760a036600319011261040c57600435612cc4816103fb565b602435612cd0816103fb565b6084356001600160401b03811161040c57612cef903690600401610912565b906001600160a01b03838116903382141580612da8575b612d8157821615612d685715612d5057610a0492612d486064356044359160405192600184526020840152604083019160018352606084015260808301604052565b92909161322b565b604051626a0d4560e21b815260006004820152602490fd5b604051632bfa23e760e11b815260006004820152602490fd5b60405163711bec9160e11b81523360048201526001600160a01b0386166024820152604490fd5b50600082815260016020908152604080832033845290915290205460ff1615612d06565b3461040c57602036600319011261040c577f1f3ffb5a38f057a21fbb6b9c891954827a2657844fbc0ae99188cce46f059e2b6020600435612e37337f00000000000000000000000000000000000000000000000000000000000000006001600160a01b031614614265565b80600c55604051908152a1005b3461040c57606036600319011261040c576004356024356044356001600160401b03811161040c57612e7a903690600401611032565b90612e83613a24565b612eab612e9260045460ff1690565b612e9b81612317565b8015908115613114575b50613c5b565b6000848152600760205260409020612ed7906001600160a01b0390612ecf90610c19565b161515613cb1565b612ee2831515613d07565b60165491826130d4575b5050507fa00dafed0dbb4c386c4a62b78c2bcbf149dcebfed234ad200c7e6631854d48b0610cb6612f59612710612f437f000000000000000000000000000000000000000000000000000000000000000086613c28565b04612f536115eb8260055461343b565b84613961565b612f896121746112d67f000000000000000000000000000000000000000000000000000000000000000084613c28565b908061309e575b50612f9d612174826146e9565b9080613069575b50336000908152601260205260409020612fbf908690611592565b612fca85825461343b565b9055613024610e65612fe7612fde88614789565b610d0685613c10565b92612ffb612ff36134f2565b858a33613d64565b61300f88600052600d602052604060002090565b61301a858254613d48565b9055600e5461343b565b6130508430337f000000000000000000000000000000000000000000000000000000000000000061396e565b6040805194855260208501919091523393918291820190565b6130786117448260095461343b565b3360009081526013602052604090206130969061129f908890611592565b905538612fa4565b6117a66130ce916130b9886000526010602052604060002090565b6130c482825461343b565b905560115461343b565b38612f90565b61310c92612c0f612c14936040516020810190612c0481612bf633856014916bffffffffffffffffffffffff199060601b1681520190565b388080612eec565b6001915061312181612317565b1438612ea5565b634e487b7160e01b600052601160045260246000fd5b6000198114611c645760010190565b80518210156131615760209160051b010190565b61221b565b9190918051835180820361320957505080519061318282610882565b916131906040519384610861565b80835261319f601f1991610882565b0190602091368385013760005b815181101561320157600581901b8281018401519087018401516000908152602081815260408083206001600160a01b03909416835292905220546131fc91906131f6828761314d565b5261313e565b6131ac565b509193505050565b604051635b05999160e01b815260048101919091526024810191909152604490fd5b94919091815184519081810361320957505060005b825181101561333457600581901b83810160209081015191870101516001600160a01b03929186908a85166132ad575b613283948216613288575b50505061313e565b613240565b6132a391610c4661129f926000526000602052604060002090565b905538858161327b565b91929390506132ca8a610c46846000526000602052604060002090565b548381106132fd5791879184613283969594036132f58d610c46856000526000602052604060002090565b559450613270565b6040516303dee4c560e01b81526001600160a01b038c16600482015260248101919091526044810184905260648101839052608490fd5b5094919392909360018551146000146133df576020858101518382015160408051928352928201526001600160a01b03838116929086169133917fc3d58168c5ae7397731d063d5bbf3d657854427343f4c083240f7aacaa2d0f6291a45b6001600160a01b0381166133a8575b5050505050565b84516001036133ce576020806133c4960151920151923361362f565b38808080806133a1565b6133da9491923361377b565b6133c4565b6040516001600160a01b03828116919085169033907f4a39dc06d4c0dbc64b70af90fd698a233a518aa5d07e595d983b8c0526c8f7fb9080613422888c83613448565b0390a4613392565b90620f4240918201809211611c6457565b91908201809211611c6457565b909161345f61055193604084526040840190610ef9565b916020818403910152610ef9565b9081602091031261040c575161055181610462565b909260a0926105519594600180861b0316835260006020840152604083015260608201528160808201520190610500565b919261055195949160a094600180871b038092168552166020840152604083015260608201528160808201520190610500565b6040513d6000823e3d90fd5b604051906134ff82610841565b60008252565b3d15613530573d90613516826108f7565b916135246040519384610861565b82523d6000602084013e565b606090565b9293919093843b613547575050505050565b60209161356a604051948593849363f23a6e6160e01b9889865260048601613482565b038160006001600160a01b0388165af1600091816135ff575b506135c25782613591613505565b80519190826135bb57604051632bfa23e760e11b81526001600160a01b0383166004820152602490fd5b9050602001fd5b6001600160e01b031916036135dc575038808080806133a1565b604051632bfa23e760e11b81526001600160a01b03919091166004820152602490fd5b61362191925060203d8111613628575b6136198183610861565b81019061346d565b9038613583565b503d61360f565b939290949194853b613644575b505050505050565b613667602093604051958694859463f23a6e6160e01b998a8752600487016134b3565b038160006001600160a01b0388165af1600091816136a9575b5061368e5782613591613505565b6001600160e01b031916036135dc575038808080808061363c565b6136c291925060203d8111613628576136198183610861565b9038613680565b926136f861055195936137069360018060a01b031686526000602087015260a0604087015260a0860190610ef9565b908482036060860152610ef9565b916080818403910152610500565b939061055195936136f8916137069460018060a01b03809216885216602087015260a0604087015260a0860190610ef9565b9293919093843b613758575050505050565b60209161356a604051948593849363bc197c8160e01b98898652600486016136c9565b939290949194853b61378f57505050505050565b613667602093604051958694859463bc197c8160e01b998a875260048701613714565b156137b957565b60405162461bcd60e51b815260206004820152601060248201526f21b7b73a32b9ba103737ba1037b832b760811b6044820152606490fd5b156137f857565b60405162461bcd60e51b8152602060048201526014602482015273456e74727920616c72656164792065786973747360601b6044820152606490fd5b1561383b57565b60405162461bcd60e51b815260206004820152600f60248201526e10dbdb9d195cdd08195e1c1a5c9959608a1b6044820152606490fd5b929161387d82610882565b9161388b6040519384610861565b829481845260208094019160051b810192831161040c57905b8282106138b15750505050565b813581529083019083016138a4565b156138c757565b60405162461bcd60e51b815260206004820152601460248201527324b73b30b634b21036b2b935b63290383937b7b360611b6044820152606490fd5b6006546801000000000000000081101561085c5760018101806006558110156131615760066000527ff652222313e28459528d920b65115c16c04f3efc82aaedc97be59f3f377c0d3f0155565b90620f4240918203918211611c6457565b91908203918211611c6457565b6040516323b872dd60e01b60208201526001600160a01b03928316602482015292909116604483015260648083019390935291815260a08101918183106001600160401b0384111761085c576139c6926040526139c8565b565b906000602091828151910182855af1156134e6576000513d613a1b57506001600160a01b0381163b155b6139f95750565b604051635274afe760e01b81526001600160a01b039091166004820152602490fd5b600114156139f2565b600260035414613a35576002600355565b604051633ee5aeb560e01b8152600490fd5b929091906000915b8451831015613a9c57613a62838661314d565b5190600082821015613a8a5750600052602052613a8460406000205b9261313e565b91613a4f565b604091613a8493825260205220613a7e565b915092501490565b15613aab57565b60405162461bcd60e51b815260206004820152603060248201527f43616e6e6f74207769746864726177202d20636f6e7465737420696e2070726f60448201526f19dc995cdcc81bdc881cd95d1d1b195960821b6064820152608490fd5b15613b1057565b60405162461bcd60e51b815260206004820152600f60248201526e2737ba1032b73a393c9037bbb732b960891b6044820152606490fd5b60405163a9059cbb60e01b60208201526001600160a01b03909216602483015260448083019390935291815260808101916001600160401b0383118284101761085c576139c6926040526139c8565b15613b9d57565b60405162461bcd60e51b815260206004820152601360248201527210dbdb9d195cdd081b9bdd081cd95d1d1b1959606a1b6044820152606490fd5b15613bdf57565b60405162461bcd60e51b8152602060048201526009602482015268139bc81c185e5bdd5d60ba1b6044820152606490fd5b90620f424091828102928184041490151715611c6457565b81810292918115918404141715611c6457565b8115613c45570490565b634e487b7160e01b600052601260045260246000fd5b15613c6257565b60405162461bcd60e51b815260206004820152602160248201527f5365636f6e6461727920706f736974696f6e73206e6f7420617661696c61626c6044820152606560f81b6064820152608490fd5b15613cb857565b60405162461bcd60e51b815260206004820152602160248201527f456e74727920646f6573206e6f74206578697374206f722077697468647261776044820152603760f91b6064820152608490fd5b15613d0e57565b60405162461bcd60e51b81526020600482015260126024820152710416d6f756e74206d757374206265203e20360741b6044820152606490fd5b91909160008382019384129112908015821691151617611c6457565b6001600160a01b03811693929091908415612d6857613da060405192600184526020840152604083019160018352606084015260808301604052565b92815184519081810361320957505060005b8251811015613df75780613df29160051b613deb61129f87610c46602080868b010151958c010151946000526000602052604060002090565b905561313e565b613db2565b509291936001825114600014613e6e5760208281015184820151604080519283529282015260009133917fc3d58168c5ae7397731d063d5bbf3d657854427343f4c083240f7aacaa2d0f629190a45b8051600103613e6457906020806139c6959301519101519133613535565b6139c69333613746565b60006040517f4a39dc06d4c0dbc64b70af90fd698a233a518aa5d07e595d983b8c0526c8f7fb339180613ea2888883613448565b0390a4613e46565b15613eb157565b60405162461bcd60e51b815260206004820152603060248201527f43616e6e6f74207769746864726177202d20636f6d7065746974696f6e20737460448201526f185c9d1959081bdc881cd95d1d1b195960821b6064820152608490fd5b15613f1657565b60405162461bcd60e51b8152602060048201526014602482015273115b9d1c9e48191bd95cc81b9bdd08195e1a5cdd60621b6044820152606490fd5b15613f5957565b60405162461bcd60e51b8152602060048201526014602482015273496e73756666696369656e742062616c616e636560601b6044820152606490fd5b81810392916000138015828513169184121617611c6457565b6001600160a01b038116929091908315612d5057613fe960405192600184526020840152604083019160018352606084015260808301604052565b919060409460008651613ffb81610841565b52815184519081810361412957505060005b82518110156140a2578060051b6020808286010151918701015161403f86610c46846000526000602052604060002090565b5481811061406c5786610c466140679594936113679303936000526000602052604060002090565b61400d565b89516303dee4c560e01b81526001600160a01b038816600482015260248101919091526044810182905260648101839052608490fd5b509490600094939250600181511485146140f75760209081015192810151915192835282015233907fc3d58168c5ae7397731d063d5bbf3d657854427343f4c083240f7aacaa2d0f629080604081015b0390a4565b905133927f4a39dc06d4c0dbc64b70af90fd698a233a518aa5d07e595d983b8c0526c8f7fb9282916140f29183613448565b8751635b05999160e01b815260048101919091526024810191909152604490fd5b1561415157565b60405162461bcd60e51b815260206004820152601360248201527213585c9ad95d081b9bdd081c995cdbdb1d9959606a1b6044820152606490fd5b1561419357565b60405162461bcd60e51b815260206004820152602560248201527f456e74727920646f6573206e6f74206578697374206f72207761732077697468604482015264323930bbb760d91b6064820152608490fd5b156141ed57565b60405162461bcd60e51b81526020600482015260096024820152684e6f20746f6b656e7360b81b6044820152606490fd5b1561422557565b60405162461bcd60e51b81526020600482015260096024820152684e6f20737570706c7960b81b6044820152606490fd5b9081602091031261040c575190565b1561426c57565b60405162461bcd60e51b815260206004820152600a6024820152694e6f74206f7261636c6560b01b6044820152606490fd5b156142a557565b60405162461bcd60e51b815260206004820152600a6024820152694e6f20656e747269657360b01b6044820152606490fd5b156142de57565b60405162461bcd60e51b815260206004820152601c60248201527f436f6e74657374206e6f7420616374697665206f72206c6f636b6564000000006044820152606490fd5b1561432a57565b60405162461bcd60e51b815260206004820152601d60248201527f4d7573742068617665206174206c65617374206f6e652077696e6e65720000006044820152606490fd5b1561437657565b60405162461bcd60e51b8152602060048201526015602482015274082e4e4c2f240d8cadccee8d040dad2e6dac2e8c6d605b1b6044820152606490fd5b156143ba57565b60405162461bcd60e51b815260206004820152601060248201526f546f6f206d616e792077696e6e65727360801b6044820152606490fd5b90156131615790565b91908110156131615760051b0190565b1561441257565b60405162461bcd60e51b815260206004820152601960248201527f557365206e6f6e2d7a65726f207061796f757473206f6e6c79000000000000006044820152606490fd5b1561445e57565b60405162461bcd60e51b815260206004820152601860248201527f5061796f757473206d7573742073756d20746f203130302500000000000000006044820152606490fd5b81835290916001600160fb1b03831161040c5760209260051b809284830137010190565b92906144e09061055195936040865260408601916144a3565b9260208185039101526144a3565b156144f557565b60405162461bcd60e51b815260206004820152601f60248201527f436f6e7465737420736574746c6564202d2063616e6e6f742063616e63656c006044820152606490fd5b1561454157565b60405162461bcd60e51b8152602060048201526012602482015271115e1c1a5c9e481b9bdd081c995858da195960721b6044820152606490fd5b1561458257565b60405162461bcd60e51b815260206004820152600f60248201526e105b1c9958591e481cd95d1d1b1959608a1b6044820152606490fd5b801580156146a3575b61469d576145ce6146cb565b6145ef826145ea6145e4600e54600f549061343b565b8461343b565b61343b565b8015614695576112d6614623917f000000000000000000000000000000000000000000000000000000000000000090613c28565b8061462e848461343b565b111561469557614641836146469361343b565b613961565b906146746112d67f000000000000000000000000000000000000000000000000000000000000000083613c28565b80831161468d575b50808211614688575090565b905090565b91503861467c565b505050600090565b50600090565b507f0000000000000000000000000000000000000000000000000000000000000000156145c2565b6008546009548101809111611c64576011548101809111611c645790565b80158015614761575b61469d576146fe6146cb565b600e54600f548101809111611c6457826145ea61471b928461343b565b8015614695576112d661474f917f000000000000000000000000000000000000000000000000000000000000000090613c28565b90808211156146955761464691613961565b507f0000000000000000000000000000000000000000000000000000000000000000156146f2565b6000818152600760205260408120549091906147af906001600160a01b03161515613cb1565b8152600d6020526040812054818112918261484457506147f461481b915b7f000000000000000000000000000000000000000000000000000000000000000090613c28565b7f000000000000000000000000000000000000000000000000000000000000000090613c3b565b9080614838575b61482f576105519061342a565b61055190613950565b50620f42408110614822565b600160ff1b8214611c645761481b916147f491036147cd565b1561486457565b60405162461bcd60e51b815260206004820152601a60248201527f456e7472792077697468647261776e206f7220696e76616c69640000000000006044820152606490fd5b156148b057565b60405162461bcd60e51b81526020600482015260116024820152704e6f742077696e6e696e6720656e74727960781b6044820152606490fd5b35610551816103fb565b6148fb6146cb565b600e54600f548101809111611c64578101808211611c645780156149365761271091828102928184041490151715611c645761055191613c3b565b505060009056fea2646970667358221220341c178d7fb59b8f09ff56e3c1d044e53c64157f72ab3eaabfe866f31c8bbf5064736f6c63430008140033","linkReferences":{}},"methodIdentifiers":{"BPS_DENOMINATOR()":"e1a45218","PRICE_PRECISION()":"95082d25","accumulatedOracleFee()":"4ee837a6","activateContest()":"24f9cc4c","addPrimaryPosition(uint256,bytes32[])":"e1db226a","addSecondaryPosition(uint256,uint256,bytes32[])":"fed76325","balanceOf(address,uint256)":"00fdd58e","balanceOfBatch(address[],uint256[])":"4e1273f4","calculateSecondaryPrice(uint256)":"3a2babc2","cancelContest()":"1db0e667","cancelExpired()":"a01e4a1f","claimOracleFee()":"7ae45fe3","claimPrimaryPayout(uint256)":"af19e0d5","claimSecondaryPayout(uint256)":"4034b060","closeContest()":"a094c632","demandSensitivityBps()":"693b4660","entries(uint256)":"b30906d4","entryOwner(uint256)":"df1ef4c6","expiryTimestamp()":"ade6e2aa","getEntriesCount()":"d09685b0","getEntryAtIndex(uint256)":"c9a496aa","getPrimarySideBalance()":"7680a51e","getPrimarySideShareBps()":"4fd34950","getSecondarySideBalance()":"9455937a","isApprovedForAll(address,address)":"e985e9c5","liquidityParameter()":"3a69a1be","lockContest()":"75f25006","maxCrossSubsidyBps()":"a5b3f3f6","netPosition(uint256)":"6932b382","oracle()":"7dc0d1d0","oracleFeeBps()":"5c76fda7","paymentToken()":"3013ce29","positionBonusShareBps()":"cb6381da","primaryDepositAmount()":"933b1282","primaryMerkleRoot()":"ed4af81f","primaryPositionSubsidy(uint256)":"c53e21e4","primaryPrizePool()":"b9937e30","primaryPrizePoolPayouts(uint256)":"c8d5c1b1","primaryPrizePoolSubsidy()":"a7e2bc54","primaryToSecondarySubsidy(uint256)":"b3563570","pushPrimaryPayouts(uint256[])":"c8d22700","pushSecondaryPayouts(address[],uint256)":"d6a74ce0","removePrimaryPosition(uint256)":"7e8f1234","removeSecondaryPosition(uint256,uint256)":"74d34214","safeBatchTransferFrom(address,address,uint256[],uint256[],bytes)":"2eb2c2d6","safeTransferFrom(address,address,uint256,uint256,bytes)":"f242432a","secondaryDepositedPerEntry(address,uint256)":"bf6bbf09","secondaryMarketResolved()":"ae4c8ba9","secondaryMerkleRoot()":"9a9a5d9d","secondaryPrizePool()":"829e4c64","secondaryPrizePoolSubsidy()":"060d4f7a","secondaryToPrimarySubsidy(address,uint256)":"655984f3","secondaryWinningEntry()":"af1d9197","setApprovalForAll(address,bool)":"a22cb465","setPrimaryMerkleRoot(bytes32)":"fc8c28e1","setSecondaryMerkleRoot(bytes32)":"3789a2fb","settleContest(uint256[],uint256[])":"563930e7","state()":"c19d93fb","supportsInterface(bytes4)":"01ffc9a7","targetPrimaryShareBps()":"d601eef3","totalPrimaryPositionSubsidies()":"219200f9","uri(uint256)":"0e89341c"},"id":46}