{"abi":[{"type":"constructor","inputs":[{"name":"_usdcToken","type":"address","internalType":"address"},{"name":"_platformToken","type":"address","internalType":"address"},{"name":"_cUSDC","type":"address","internalType":"address"}],"stateMutability":"nonpayable"},{"type":"function","name":"accumulatedYieldPerToken","inputs":[],"outputs":[{"name":"","type":"uint256","internalType":"uint256"}],"stateMutability":"view"},{"type":"function","name":"cUSDC","inputs":[],"outputs":[{"name":"","type":"address","internalType":"contract ICErc20"}],"stateMutability":"view"},{"type":"function","name":"calculateWithdrawableUSDC","inputs":[{"name":"user","type":"address","internalType":"address"},{"name":"platformTokenAmount","type":"uint256","internalType":"uint256"}],"outputs":[{"name":"","type":"uint256","internalType":"uint256"}],"stateMutability":"view"},{"type":"function","name":"calculateWithdrawableUSDCForAll","inputs":[{"name":"user","type":"address","internalType":"address"}],"outputs":[{"name":"","type":"uint256","internalType":"uint256"}],"stateMutability":"view"},{"type":"function","name":"claimYield","inputs":[],"outputs":[],"stateMutability":"nonpayable"},{"type":"function","name":"depositUSDC","inputs":[{"name":"amount","type":"uint256","internalType":"uint256"}],"outputs":[],"stateMutability":"nonpayable"},{"type":"function","name":"emergencyWithdrawUSDC","inputs":[{"name":"to","type":"address","internalType":"address"},{"name":"amount","type":"uint256","internalType":"uint256"}],"outputs":[],"stateMutability":"nonpayable"},{"type":"function","name":"getAccumulatedYieldPerToken","inputs":[],"outputs":[{"name":"","type":"uint256","internalType":"uint256"}],"stateMutability":"view"},{"type":"function","name":"getClaimableYield","inputs":[{"name":"user","type":"address","internalType":"address"}],"outputs":[{"name":"","type":"uint256","internalType":"uint256"}],"stateMutability":"view"},{"type":"function","name":"getCompoundUSDCBalance","inputs":[],"outputs":[{"name":"","type":"uint256","internalType":"uint256"}],"stateMutability":"view"},{"type":"function","name":"getExchangeRateExternal","inputs":[],"outputs":[{"name":"","type":"uint256","internalType":"uint256"}],"stateMutability":"view"},{"type":"function","name":"getLastYieldUpdateTime","inputs":[],"outputs":[{"name":"","type":"uint256","internalType":"uint256"}],"stateMutability":"view"},{"type":"function","name":"getPlatformTokenSupply","inputs":[],"outputs":[{"name":"","type":"uint256","internalType":"uint256"}],"stateMutability":"view"},{"type":"function","name":"getTokenManagerBalance","inputs":[],"outputs":[{"name":"","type":"uint256","internalType":"uint256"}],"stateMutability":"view"},{"type":"function","name":"getTokenManagerUSDCBalance","inputs":[],"outputs":[{"name":"","type":"uint256","internalType":"uint256"}],"stateMutability":"view"},{"type":"function","name":"getTotalAvailableBalance","inputs":[],"outputs":[{"name":"","type":"uint256","internalType":"uint256"}],"stateMutability":"view"},{"type":"function","name":"lastExchangeRate","inputs":[],"outputs":[{"name":"","type":"uint256","internalType":"uint256"}],"stateMutability":"view"},{"type":"function","name":"lastYieldUpdateTime","inputs":[],"outputs":[{"name":"","type":"uint256","internalType":"uint256"}],"stateMutability":"view"},{"type":"function","name":"owner","inputs":[],"outputs":[{"name":"","type":"address","internalType":"address"}],"stateMutability":"view"},{"type":"function","name":"platformToken","inputs":[],"outputs":[{"name":"","type":"address","internalType":"contract PlatformToken"}],"stateMutability":"view"},{"type":"function","name":"renounceOwnership","inputs":[],"outputs":[],"stateMutability":"nonpayable"},{"type":"function","name":"tokenManagerMint","inputs":[{"name":"to","type":"address","internalType":"address"},{"name":"amount","type":"uint256","internalType":"uint256"}],"outputs":[],"stateMutability":"nonpayable"},{"type":"function","name":"totalPlatformTokensMinted","inputs":[],"outputs":[{"name":"","type":"uint256","internalType":"uint256"}],"stateMutability":"view"},{"type":"function","name":"totalUSDCBalance","inputs":[],"outputs":[{"name":"","type":"uint256","internalType":"uint256"}],"stateMutability":"view"},{"type":"function","name":"transferOwnership","inputs":[{"name":"newOwner","type":"address","internalType":"address"}],"outputs":[],"stateMutability":"nonpayable"},{"type":"function","name":"usdcToken","inputs":[],"outputs":[{"name":"","type":"address","internalType":"contract IERC20"}],"stateMutability":"view"},{"type":"function","name":"userAccumulatedYield","inputs":[{"name":"","type":"address","internalType":"address"}],"outputs":[{"name":"","type":"uint256","internalType":"uint256"}],"stateMutability":"view"},{"type":"function","name":"userLastYieldPerToken","inputs":[{"name":"","type":"address","internalType":"address"}],"outputs":[{"name":"","type":"uint256","internalType":"uint256"}],"stateMutability":"view"},{"type":"function","name":"withdrawAll","inputs":[],"outputs":[],"stateMutability":"nonpayable"},{"type":"function","name":"withdrawUSDC","inputs":[{"name":"platformTokenAmount","type":"uint256","internalType":"uint256"}],"outputs":[],"stateMutability":"nonpayable"},{"type":"event","name":"EmergencyWithdrawal","inputs":[{"name":"owner","type":"address","indexed":true,"internalType":"address"},{"name":"recipient","type":"address","indexed":true,"internalType":"address"},{"name":"amount","type":"uint256","indexed":false,"internalType":"uint256"},{"name":"timestamp","type":"uint256","indexed":false,"internalType":"uint256"}],"anonymous":false},{"type":"event","name":"ExchangeRateUpdated","inputs":[{"name":"newRate","type":"uint256","indexed":false,"internalType":"uint256"}],"anonymous":false},{"type":"event","name":"OwnershipTransferred","inputs":[{"name":"previousOwner","type":"address","indexed":true,"internalType":"address"},{"name":"newOwner","type":"address","indexed":true,"internalType":"address"}],"anonymous":false},{"type":"event","name":"TokenManagerMint","inputs":[{"name":"to","type":"address","indexed":true,"internalType":"address"},{"name":"amount","type":"uint256","indexed":false,"internalType":"uint256"}],"anonymous":false},{"type":"event","name":"USDCDeposited","inputs":[{"name":"user","type":"address","indexed":true,"internalType":"address"},{"name":"usdcAmount","type":"uint256","indexed":false,"internalType":"uint256"},{"name":"platformTokensMinted","type":"uint256","indexed":false,"internalType":"uint256"}],"anonymous":false},{"type":"event","name":"USDCWithdrawn","inputs":[{"name":"user","type":"address","indexed":true,"internalType":"address"},{"name":"platformTokensBurned","type":"uint256","indexed":false,"internalType":"uint256"},{"name":"usdcAmount","type":"uint256","indexed":false,"internalType":"uint256"}],"anonymous":false},{"type":"event","name":"YieldAccrued","inputs":[{"name":"yieldAmount","type":"uint256","indexed":false,"internalType":"uint256"},{"name":"newAccumulatedYieldPerToken","type":"uint256","indexed":false,"internalType":"uint256"}],"anonymous":false},{"type":"error","name":"OwnableInvalidOwner","inputs":[{"name":"owner","type":"address","internalType":"address"}]},{"type":"error","name":"OwnableUnauthorizedAccount","inputs":[{"name":"account","type":"address","internalType":"address"}]},{"type":"error","name":"ReentrancyGuardReentrantCall","inputs":[]}],"bytecode":{"object":"0x60e06040523480156200001157600080fd5b50604051620028093803806200280983398101604081905262000034916200022a565b600160005533806200006157604051631e4fbdf760e01b8152600060048201526024015b60405180910390fd5b6200006c81620001bb565b506001600160a01b038316620000cf5760405162461bcd60e51b815260206004820152602160248201527f5553444320746f6b656e2063616e6e6f74206265207a65726f206164647265736044820152607360f81b606482015260840162000058565b6001600160a01b038216620001355760405162461bcd60e51b815260206004820152602560248201527f506c6174666f726d20746f6b656e2063616e6e6f74206265207a65726f206164604482015264647265737360d81b606482015260840162000058565b6001600160a01b0381166200018d5760405162461bcd60e51b815260206004820152601c60248201527f43555344432063616e6e6f74206265207a65726f206164647265737300000000604482015260640162000058565b6001600160a01b0392831660805290821660a0521660c05242600455670de0b6b3a764000060065562000274565b600180546001600160a01b038381166001600160a01b0319831681179093556040519116919082907f8be0079c531659141344cd1fd0a4f28419497f9722a3daafe3b4186f6b6457e090600090a35050565b80516001600160a01b03811681146200022557600080fd5b919050565b6000806000606084860312156200024057600080fd5b6200024b846200020d565b92506200025b602085016200020d565b91506200026b604085016200020d565b90509250925092565b60805160a05160c051612454620003b5600039600081816103050152818161060c0152818161071b015281816109b701528181610e350152818161108f015281816114e70152818161174301528181611b3001528181611bb5015261215601526000818161033d0152818161041301528181610b0601528181610bcf01528181610d1101528181611285015281816113c30152818161181701528181611a5301528181611d210152611f0e0152600081816102130152818161057601528181610748015281816107bd0152818161091c015281816109e401528181610a5901528181610d9101528181610e6201528181610ed801528181610f7801528181611117015281816111b101528181611443015281816115140152818161158a0152818161162a015281816119b001528181611b030152611be201526124546000f3fe608060405234801561001057600080fd5b50600436106101da5760003560e01c8063b2449ef311610104578063db81f99b116100a2578063f0f47cb711610071578063f0f47cb7146103ad578063f2fde38b146103b6578063f688bcfb146103c9578063f87707f2146103dc57600080fd5b8063db81f99b1461035f578063e1b3815614610372578063e3cf63401461037a578063ec797fc21461039a57600080fd5b8063ce347a3e116100de578063ce347a3e14610300578063d08d5a2614610327578063d168e2031461032f578063d1b812cd1461033857600080fd5b8063b2449ef3146102e7578063b81dd13a146102ef578063c0e5eea4146102f757600080fd5b80634de396ca1161017c5780638782524e1161014b5780638782524e146102bd5780638da5cb5b146102c55780639764e249146102d6578063a218f7b1146102df57600080fd5b80634de396ca1461029257806370ba630b1461029a578063715018a6146102ad578063853828b6146102b557600080fd5b80632829cfb2116101b85780632829cfb21461024d5780633fac810514610255578063406cf2291461026a5780634177f5641461027257600080fd5b80630283c994146101df5780630b53f8481461020557806311eac8551461020e575b600080fd5b6101f26101ed366004612282565b6103ef565b6040519081526020015b60405180910390f35b6101f260035481565b6102357f000000000000000000000000000000000000000000000000000000000000000081565b6040516001600160a01b0390911681526020016101fc565b6004546101f2565b610268610263366004612282565b6104ec565b005b610268610884565b6101f26102803660046122ac565b60086020526000908152604090205481565b6003546101f2565b6101f26102a83660046122ac565b610ae2565b610268610b9d565b610268610baf565b6101f2611077565b6001546001600160a01b0316610235565b6101f260065481565b6101f2611199565b6005546101f2565b6101f2611225565b6101f260045481565b6102357f000000000000000000000000000000000000000000000000000000000000000081565b6101f261123c565b6101f260055481565b6102357f000000000000000000000000000000000000000000000000000000000000000081565b61026861036d3660046122ce565b611246565b6101f261172b565b6101f26103883660046122ac565b60076020526000908152604090205481565b6101f26103a83660046122ac565b61177a565b6101f260025481565b6102686103c43660046122ac565b611923565b6102686103d73660046122ce565b61195e565b6102686103ea366004612282565b611c8c565b6040516370a0823160e01b81526001600160a01b03838116600483015260009183917f000000000000000000000000000000000000000000000000000000000000000016906370a0823190602401602060405180830381865afa15801561045a573d6000803e3d6000fd5b505050506040513d601f19601f8201168201806040525081019061047e91906122e7565b10156104d15760405162461bcd60e51b815260206004820152601c60248201527f496e73756666696369656e7420706c6174666f726d20746f6b656e730000000060448201526064015b60405180910390fd5b60006104e264e8d4a5100084612316565b9150505b92915050565b6104f4611dd0565b6001600160a01b03821661053e5760405162461bcd60e51b8152602060048201526011602482015270125b9d985b1a59081c9958da5c1a595b9d607a1b60448201526064016104c8565b6000811161055e5760405162461bcd60e51b81526004016104c890612338565b6040516370a0823160e01b81523060048201526000907f00000000000000000000000000000000000000000000000000000000000000006001600160a01b0316906370a0823190602401602060405180830381865afa1580156105c5573d6000803e3d6000fd5b505050506040513d601f19601f820116820180604052508101906105e991906122e7565b6040516370a0823160e01b81523060048201529091506000906001600160a01b037f000000000000000000000000000000000000000000000000000000000000000016906370a0823190602401602060405180830381865afa158015610653573d6000803e3d6000fd5b505050506040513d601f19601f8201168201806040525081019061067791906122e7565b90506000610685828461236f565b9050808411156106ed5760405162461bcd60e51b815260206004820152602d60248201527f496e73756666696369656e742062616c616e636520666f7220656d657267656e60448201526c18de481dda5d1a191c985dd85b609a1b60648201526084016104c8565b838310156107a65760006107018486612382565b60405163f3fef3a360e01b81529091506001600160a01b037f0000000000000000000000000000000000000000000000000000000000000000169063f3fef3a390610772907f0000000000000000000000000000000000000000000000000000000000000000908590600401612395565b600060405180830381600087803b15801561078c57600080fd5b505af11580156107a0573d6000803e3d6000fd5b50505050505b60405163a9059cbb60e01b81526001600160a01b037f0000000000000000000000000000000000000000000000000000000000000000169063a9059cbb906107f49088908890600401612395565b6020604051808303816000875af1158015610813573d6000803e3d6000fd5b505050506040513d601f19601f8201168201806040525081019061083791906123ae565b50604080518581524260208201526001600160a01b0387169133917f873da158b95a7e5e83e2f84a94eeadadc115c324112605ca1819b276b3b035fa910160405180910390a35050505050565b61088c611dfd565b610894611e27565b61089d33611eec565b33600090815260086020526040902054806108ee5760405162461bcd60e51b81526020600482015260116024820152704e6f207969656c6420746f20636c61696d60781b60448201526064016104c8565b33600090815260086020526040808220829055516370a0823160e01b81523060048201526001600160a01b037f000000000000000000000000000000000000000000000000000000000000000016906370a0823190602401602060405180830381865afa158015610963573d6000803e3d6000fd5b505050506040513d601f19601f8201168201806040525081019061098791906122e7565b905081811015610a4257600061099d8284612382565b60405163f3fef3a360e01b81529091506001600160a01b037f0000000000000000000000000000000000000000000000000000000000000000169063f3fef3a390610a0e907f0000000000000000000000000000000000000000000000000000000000000000908590600401612395565b600060405180830381600087803b158015610a2857600080fd5b505af1158015610a3c573d6000803e3d6000fd5b50505050505b60405163a9059cbb60e01b81526001600160a01b037f0000000000000000000000000000000000000000000000000000000000000000169063a9059cbb90610a909033908690600401612395565b6020604051808303816000875af1158015610aaf573d6000803e3d6000fd5b505050506040513d601f19601f82011682018060405250810190610ad391906123ae565b505050610ae06001600055565b565b6040516370a0823160e01b81526001600160a01b03828116600483015260009182917f000000000000000000000000000000000000000000000000000000000000000016906370a0823190602401602060405180830381865afa158015610b4d573d6000803e3d6000fd5b505050506040513d601f19601f82011682018060405250810190610b7191906122e7565b905080600003610b845750600092915050565b6000610b9564e8d4a5100083612316565b949350505050565b610ba5611dd0565b610ae06000612026565b610bb7611dfd565b6040516370a0823160e01b81523360048201526000907f00000000000000000000000000000000000000000000000000000000000000006001600160a01b0316906370a0823190602401602060405180830381865afa158015610c1e573d6000803e3d6000fd5b505050506040513d601f19601f82011682018060405250810190610c4291906122e7565b905060008111610c945760405162461bcd60e51b815260206004820152601e60248201527f4e6f20706c6174666f726d20746f6b656e7320746f207769746864726177000060448201526064016104c8565b610c9c611e27565b610ca533611eec565b6000610cb664e8d4a5100083612316565b90508080610cfa5760405162461bcd60e51b81526020600482015260116024820152702737902aa9a221903a37903932ba3ab93760791b60448201526064016104c8565b604051632770a7eb60e21b81526001600160a01b037f00000000000000000000000000000000000000000000000000000000000000001690639dc29fac90610d489033908790600401612395565b600060405180830381600087803b158015610d6257600080fd5b505af1158015610d76573d6000803e3d6000fd5b50506040516370a0823160e01b8152306004820152600092507f00000000000000000000000000000000000000000000000000000000000000006001600160a01b031691506370a0823190602401602060405180830381865afa158015610de1573d6000803e3d6000fd5b505050506040513d601f19601f82011682018060405250810190610e0591906122e7565b905081811015610ec0576000610e1b8284612382565b60405163f3fef3a360e01b81529091506001600160a01b037f0000000000000000000000000000000000000000000000000000000000000000169063f3fef3a390610e8c907f0000000000000000000000000000000000000000000000000000000000000000908590600401612395565b600060405180830381600087803b158015610ea657600080fd5b505af1158015610eba573d6000803e3d6000fd5b50505050505b6040516370a0823160e01b81523060048201526000907f00000000000000000000000000000000000000000000000000000000000000006001600160a01b0316906370a0823190602401602060405180830381865afa158015610f27573d6000803e3d6000fd5b505050506040513d601f19601f82011682018060405250810190610f4b91906122e7565b90506000838210610f5c5783610f5e565b815b60405163a9059cbb60e01b81529091506001600160a01b037f0000000000000000000000000000000000000000000000000000000000000000169063a9059cbb90610faf9033908590600401612395565b6020604051808303816000875af1158015610fce573d6000803e3d6000fd5b505050506040513d601f19601f82011682018060405250810190610ff291906123ae565b5084600260008282546110059190612382565b92505081905550856003600082825461101e9190612382565b9091555061102c9050612078565b604080518781526020810183905233917f9cc6dc8bdb4b6ad75707375ac18017379f79114f0d0dd85bf6de99c0522e8e27910160405180910390a2505050505050610ae06001600055565b6040516370a0823160e01b81523060048201526000907f00000000000000000000000000000000000000000000000000000000000000006001600160a01b0316906370a0823190602401602060405180830381865afa1580156110de573d6000803e3d6000fd5b505050506040513d601f19601f8201168201806040525081019061110291906122e7565b6040516370a0823160e01b81523060048201527f00000000000000000000000000000000000000000000000000000000000000006001600160a01b0316906370a0823190602401602060405180830381865afa158015611166573d6000803e3d6000fd5b505050506040513d601f19601f8201168201806040525081019061118a91906122e7565b611194919061236f565b905090565b6040516370a0823160e01b81523060048201526000907f00000000000000000000000000000000000000000000000000000000000000006001600160a01b0316906370a08231906024015b602060405180830381865afa158015611201573d6000803e3d6000fd5b505050506040513d601f19601f8201168201806040525081019061119491906122e7565b600061122f612134565b600254611194919061236f565b60006111946121f8565b61124e611dfd565b6000811161126e5760405162461bcd60e51b81526004016104c890612338565b6040516370a0823160e01b815233600482015281907f00000000000000000000000000000000000000000000000000000000000000006001600160a01b0316906370a0823190602401602060405180830381865afa1580156112d4573d6000803e3d6000fd5b505050506040513d601f19601f820116820180604052508101906112f891906122e7565b10156113465760405162461bcd60e51b815260206004820152601c60248201527f496e73756666696369656e7420706c6174666f726d20746f6b656e730000000060448201526064016104c8565b61134e611e27565b61135733611eec565b600061136864e8d4a5100083612316565b905080806113ac5760405162461bcd60e51b81526020600482015260116024820152702737902aa9a221903a37903932ba3ab93760791b60448201526064016104c8565b604051632770a7eb60e21b81526001600160a01b037f00000000000000000000000000000000000000000000000000000000000000001690639dc29fac906113fa9033908790600401612395565b600060405180830381600087803b15801561141457600080fd5b505af1158015611428573d6000803e3d6000fd5b50506040516370a0823160e01b8152306004820152600092507f00000000000000000000000000000000000000000000000000000000000000006001600160a01b031691506370a0823190602401602060405180830381865afa158015611493573d6000803e3d6000fd5b505050506040513d601f19601f820116820180604052508101906114b791906122e7565b9050818110156115725760006114cd8284612382565b60405163f3fef3a360e01b81529091506001600160a01b037f0000000000000000000000000000000000000000000000000000000000000000169063f3fef3a39061153e907f0000000000000000000000000000000000000000000000000000000000000000908590600401612395565b600060405180830381600087803b15801561155857600080fd5b505af115801561156c573d6000803e3d6000fd5b50505050505b6040516370a0823160e01b81523060048201526000907f00000000000000000000000000000000000000000000000000000000000000006001600160a01b0316906370a0823190602401602060405180830381865afa1580156115d9573d6000803e3d6000fd5b505050506040513d601f19601f820116820180604052508101906115fd91906122e7565b9050600083821061160e5783611610565b815b60405163a9059cbb60e01b81529091506001600160a01b037f0000000000000000000000000000000000000000000000000000000000000000169063a9059cbb906116619033908590600401612395565b6020604051808303816000875af1158015611680573d6000803e3d6000fd5b505050506040513d601f19601f820116820180604052508101906116a491906123ae565b5084600260008282546116b79190612382565b9250508190555085600360008282546116d09190612382565b909155506116de9050612078565b604080518781526020810183905233917f9cc6dc8bdb4b6ad75707375ac18017379f79114f0d0dd85bf6de99c0522e8e27910160405180910390a250505050506117286001600055565b50565b6040516370a0823160e01b81523060048201526000907f00000000000000000000000000000000000000000000000000000000000000006001600160a01b0316906370a08231906024016111e4565b600080611785612134565b600554909150811580159061179c57506000600354115b156117f5576000600354116117c35760405162461bcd60e51b81526004016104c8906123d0565b6003546000906117db84670de0b6b3a7640000612407565b6117e59190612316565b90506117f1818361236f565b9150505b6040516370a0823160e01b81526001600160a01b0385811660048301526000917f0000000000000000000000000000000000000000000000000000000000000000909116906370a0823190602401602060405180830381865afa158015611860573d6000803e3d6000fd5b505050506040513d601f19601f8201168201806040525081019061188491906122e7565b9050806000036118ad57505050506001600160a01b031660009081526008602052604090205490565b6001600160a01b0385166000908152600760205260408120546118d09084612382565b90506000670de0b6b3a76400006118e78385612407565b6118f19190612316565b6001600160a01b03881660009081526008602052604090205490915061191890829061236f565b979650505050505050565b61192b611dd0565b6001600160a01b03811661195557604051631e4fbdf760e01b8152600060048201526024016104c8565b61172881612026565b611966611dfd565b600081116119865760405162461bcd60e51b81526004016104c890612338565b61198e611e27565b6040516323b872dd60e01b8152336004820152306024820152604481018290527f00000000000000000000000000000000000000000000000000000000000000006001600160a01b0316906323b872dd906064016020604051808303816000875af1158015611a01573d6000803e3d6000fd5b505050506040513d601f19601f82011682018060405250810190611a2591906123ae565b506000611a3182612255565b9050611a3c33611eec565b6040516340c10f1960e01b81526001600160a01b037f000000000000000000000000000000000000000000000000000000000000000016906340c10f1990611a8a9033908590600401612395565b600060405180830381600087803b158015611aa457600080fd5b505af1158015611ab8573d6000803e3d6000fd5b505050508160026000828254611ace919061236f565b925050819055508060036000828254611ae7919061236f565b909155505060405163095ea7b360e01b81526001600160a01b037f0000000000000000000000000000000000000000000000000000000000000000169063095ea7b390611b5a907f0000000000000000000000000000000000000000000000000000000000000000908690600401612395565b6020604051808303816000875af1158015611b79573d6000803e3d6000fd5b505050506040513d601f19601f82011682018060405250810190611b9d91906123ae565b50604051631e573fb760e31b81526001600160a01b037f0000000000000000000000000000000000000000000000000000000000000000169063f2b9fdb890611c0c907f0000000000000000000000000000000000000000000000000000000000000000908690600401612395565b600060405180830381600087803b158015611c2657600080fd5b505af1158015611c3a573d6000803e3d6000fd5b50505050611c46612078565b604080518381526020810183905233917fdf761661d51ab4147355430c8891e0dc7406b6aece4d2b564ccd87e0baa6dfd9910160405180910390a2506117286001600055565b611c94611dd0565b6001600160a01b038216611cea5760405162461bcd60e51b815260206004820152601b60248201527f43616e6e6f74206d696e7420746f207a65726f2061646472657373000000000060448201526064016104c8565b60008111611d0a5760405162461bcd60e51b81526004016104c890612338565b6040516340c10f1960e01b81526001600160a01b037f000000000000000000000000000000000000000000000000000000000000000016906340c10f1990611d589085908590600401612395565b600060405180830381600087803b158015611d7257600080fd5b505af1158015611d86573d6000803e3d6000fd5b50505050816001600160a01b03167e345cb222ebee2dd2cb45cde4d39014005f4b428cae0995a2ea68d1c0dd8b1882604051611dc491815260200190565b60405180910390a25050565b6001546001600160a01b03163314610ae05760405163118cdaa760e01b81523360048201526024016104c8565b600260005403611e2057604051633ee5aeb560e01b815260040160405180910390fd5b6002600055565b6000611e31612134565b9050600081118015611e4557506000600354115b1561172857600060035411611e6c5760405162461bcd60e51b81526004016104c8906123d0565b600354600090611e8483670de0b6b3a7640000612407565b611e8e9190612316565b90508060056000828254611ea2919061236f565b9091555050426004556005546040805184815260208101929092527ffe2ebf53456a69d7b70affc98b9021c791a9bce3af6fa5d24dfbc2db0f817b54910160405180910390a15050565b6040516370a0823160e01b81526001600160a01b0382811660048301526000917f0000000000000000000000000000000000000000000000000000000000000000909116906370a0823190602401602060405180830381865afa158015611f57573d6000803e3d6000fd5b505050506040513d601f19601f82011682018060405250810190611f7b91906122e7565b90508015612006576001600160a01b038216600090815260076020526040812054600554611fa99190612382565b90508015612004576000670de0b6b3a7640000611fc68385612407565b611fd09190612316565b6001600160a01b038516600090815260086020526040812080549293508392909190611ffd90849061236f565b9091555050505b505b506005546001600160a01b03909116600090815260076020526040902055565b600180546001600160a01b038381166001600160a01b0319831681179093556040519116919082907f8be0079c531659141344cd1fd0a4f28419497f9722a3daafe3b4186f6b6457e090600090a35050565b612080611e27565b600060035460000361209b5750670de0b6b3a76400006120f9565b60006120a5612134565b6002546120b2919061236f565b90506000600354116120d65760405162461bcd60e51b81526004016104c8906123d0565b6003546120eb82670de0b6b3a7640000612407565b6120f59190612316565b9150505b60068190556040518181527f388f446e9526fe5c9af20a5919b342370c8a7c0cb05245afe1e545658fa3cdba9060200160405180910390a150565b6040516370a0823160e01b815230600482015260009081906001600160a01b037f000000000000000000000000000000000000000000000000000000000000000016906370a0823190602401602060405180830381865afa15801561219d573d6000803e3d6000fd5b505050506040513d601f19601f820116820180604052508101906121c191906122e7565b9050806000036121d357600091505090565b600254808211156121ef576121e88183612382565b9250505090565b60009250505090565b600060035460000361220c5750620f424090565b6000612216612134565b600254612223919061236f565b905064e8d4a510006003546122389190612316565b61224582620f4240612407565b61224f9190612316565b91505090565b60006104e68264e8d4a51000612407565b80356001600160a01b038116811461227d57600080fd5b919050565b6000806040838503121561229557600080fd5b61229e83612266565b946020939093013593505050565b6000602082840312156122be57600080fd5b6122c782612266565b9392505050565b6000602082840312156122e057600080fd5b5035919050565b6000602082840312156122f957600080fd5b5051919050565b634e487b7160e01b600052601160045260246000fd5b60008261233357634e487b7160e01b600052601260045260246000fd5b500490565b6020808252601d908201527f416d6f756e74206d7573742062652067726561746572207468616e2030000000604082015260600190565b808201808211156104e6576104e6612300565b818103818111156104e6576104e6612300565b6001600160a01b03929092168252602082015260400190565b6000602082840312156123c057600080fd5b815180151581146122c757600080fd5b60208082526019908201527f4e6f20706c6174666f726d20746f6b656e73206d696e74656400000000000000604082015260600190565b80820281158282048414176104e6576104e661230056fea264697066735822122099f76de07c8744f61beb165b7575c5f840c6ab726789b08bbc920a9a6775ebab64736f6c63430008140033","linkReferences":{}},"methodIdentifiers":{"accumulatedYieldPerToken()":"d168e203","cUSDC()":"ce347a3e","calculateWithdrawableUSDC(address,uint256)":"0283c994","calculateWithdrawableUSDCForAll(address)":"70ba630b","claimYield()":"406cf229","depositUSDC(uint256)":"f688bcfb","emergencyWithdrawUSDC(address,uint256)":"3fac8105","getAccumulatedYieldPerToken()":"b2449ef3","getClaimableYield(address)":"ec797fc2","getCompoundUSDCBalance()":"e1b38156","getExchangeRateExternal()":"d08d5a26","getLastYieldUpdateTime()":"2829cfb2","getPlatformTokenSupply()":"4de396ca","getTokenManagerBalance()":"b81dd13a","getTokenManagerUSDCBalance()":"a218f7b1","getTotalAvailableBalance()":"8782524e","lastExchangeRate()":"9764e249","lastYieldUpdateTime()":"c0e5eea4","owner()":"8da5cb5b","platformToken()":"d1b812cd","renounceOwnership()":"715018a6","tokenManagerMint(address,uint256)":"f87707f2","totalPlatformTokensMinted()":"0b53f848","totalUSDCBalance()":"f0f47cb7","transferOwnership(address)":"f2fde38b","usdcToken()":"11eac855","userAccumulatedYield(address)":"4177f564","userLastYieldPerToken(address)":"e3cf6340","withdrawAll()":"853828b6","withdrawUSDC(uint256)":"db81f99b"},"id":28}