{"abi":[{"type":"constructor","inputs":[{"name":"_usdcToken","type":"address","internalType":"address"},{"name":"_platformToken","type":"address","internalType":"address"},{"name":"_cUSDC","type":"address","internalType":"address"}],"stateMutability":"nonpayable"},{"type":"function","name":"accumulatedYieldPerToken","inputs":[],"outputs":[{"name":"","type":"uint256","internalType":"uint256"}],"stateMutability":"view"},{"type":"function","name":"cUSDC","inputs":[],"outputs":[{"name":"","type":"address","internalType":"contract ICErc20"}],"stateMutability":"view"},{"type":"function","name":"claimYield","inputs":[],"outputs":[],"stateMutability":"nonpayable"},{"type":"function","name":"depositUSDC","inputs":[{"name":"amount","type":"uint256","internalType":"uint256"}],"outputs":[],"stateMutability":"nonpayable"},{"type":"function","name":"emergencyWithdrawUSDC","inputs":[{"name":"to","type":"address","internalType":"address"},{"name":"amount","type":"uint256","internalType":"uint256"}],"outputs":[],"stateMutability":"nonpayable"},{"type":"function","name":"getAccumulatedYieldPerToken","inputs":[],"outputs":[{"name":"","type":"uint256","internalType":"uint256"}],"stateMutability":"view"},{"type":"function","name":"getClaimableYield","inputs":[{"name":"user","type":"address","internalType":"address"}],"outputs":[{"name":"","type":"uint256","internalType":"uint256"}],"stateMutability":"view"},{"type":"function","name":"getCompoundUSDCBalance","inputs":[],"outputs":[{"name":"","type":"uint256","internalType":"uint256"}],"stateMutability":"view"},{"type":"function","name":"getExchangeRateExternal","inputs":[],"outputs":[{"name":"","type":"uint256","internalType":"uint256"}],"stateMutability":"view"},{"type":"function","name":"getLastYieldUpdateTime","inputs":[],"outputs":[{"name":"","type":"uint256","internalType":"uint256"}],"stateMutability":"view"},{"type":"function","name":"getPlatformTokenSupply","inputs":[],"outputs":[{"name":"","type":"uint256","internalType":"uint256"}],"stateMutability":"view"},{"type":"function","name":"getTokenManagerBalance","inputs":[],"outputs":[{"name":"","type":"uint256","internalType":"uint256"}],"stateMutability":"view"},{"type":"function","name":"getTokenManagerUSDCBalance","inputs":[],"outputs":[{"name":"","type":"uint256","internalType":"uint256"}],"stateMutability":"view"},{"type":"function","name":"getTotalAvailableBalance","inputs":[],"outputs":[{"name":"","type":"uint256","internalType":"uint256"}],"stateMutability":"view"},{"type":"function","name":"lastExchangeRate","inputs":[],"outputs":[{"name":"","type":"uint256","internalType":"uint256"}],"stateMutability":"view"},{"type":"function","name":"lastYieldUpdateTime","inputs":[],"outputs":[{"name":"","type":"uint256","internalType":"uint256"}],"stateMutability":"view"},{"type":"function","name":"owner","inputs":[],"outputs":[{"name":"","type":"address","internalType":"address"}],"stateMutability":"view"},{"type":"function","name":"platformToken","inputs":[],"outputs":[{"name":"","type":"address","internalType":"contract PlatformToken"}],"stateMutability":"view"},{"type":"function","name":"renounceOwnership","inputs":[],"outputs":[],"stateMutability":"nonpayable"},{"type":"function","name":"tokenManagerMint","inputs":[{"name":"to","type":"address","internalType":"address"},{"name":"amount","type":"uint256","internalType":"uint256"}],"outputs":[],"stateMutability":"nonpayable"},{"type":"function","name":"totalPlatformTokensMinted","inputs":[],"outputs":[{"name":"","type":"uint256","internalType":"uint256"}],"stateMutability":"view"},{"type":"function","name":"totalUSDCBalance","inputs":[],"outputs":[{"name":"","type":"uint256","internalType":"uint256"}],"stateMutability":"view"},{"type":"function","name":"transferOwnership","inputs":[{"name":"newOwner","type":"address","internalType":"address"}],"outputs":[],"stateMutability":"nonpayable"},{"type":"function","name":"usdcToken","inputs":[],"outputs":[{"name":"","type":"address","internalType":"contract IERC20"}],"stateMutability":"view"},{"type":"function","name":"userAccumulatedYield","inputs":[{"name":"","type":"address","internalType":"address"}],"outputs":[{"name":"","type":"uint256","internalType":"uint256"}],"stateMutability":"view"},{"type":"function","name":"userLastYieldPerToken","inputs":[{"name":"","type":"address","internalType":"address"}],"outputs":[{"name":"","type":"uint256","internalType":"uint256"}],"stateMutability":"view"},{"type":"function","name":"withdrawAll","inputs":[],"outputs":[],"stateMutability":"nonpayable"},{"type":"function","name":"withdrawUSDC","inputs":[{"name":"platformTokenAmount","type":"uint256","internalType":"uint256"}],"outputs":[],"stateMutability":"nonpayable"},{"type":"event","name":"EmergencyWithdrawal","inputs":[{"name":"owner","type":"address","indexed":true,"internalType":"address"},{"name":"recipient","type":"address","indexed":true,"internalType":"address"},{"name":"amount","type":"uint256","indexed":false,"internalType":"uint256"},{"name":"timestamp","type":"uint256","indexed":false,"internalType":"uint256"}],"anonymous":false},{"type":"event","name":"ExchangeRateUpdated","inputs":[{"name":"newRate","type":"uint256","indexed":false,"internalType":"uint256"}],"anonymous":false},{"type":"event","name":"OwnershipTransferred","inputs":[{"name":"previousOwner","type":"address","indexed":true,"internalType":"address"},{"name":"newOwner","type":"address","indexed":true,"internalType":"address"}],"anonymous":false},{"type":"event","name":"TokenManagerMint","inputs":[{"name":"to","type":"address","indexed":true,"internalType":"address"},{"name":"amount","type":"uint256","indexed":false,"internalType":"uint256"}],"anonymous":false},{"type":"event","name":"USDCDeposited","inputs":[{"name":"user","type":"address","indexed":true,"internalType":"address"},{"name":"usdcAmount","type":"uint256","indexed":false,"internalType":"uint256"},{"name":"platformTokensMinted","type":"uint256","indexed":false,"internalType":"uint256"}],"anonymous":false},{"type":"event","name":"USDCWithdrawn","inputs":[{"name":"user","type":"address","indexed":true,"internalType":"address"},{"name":"platformTokensBurned","type":"uint256","indexed":false,"internalType":"uint256"},{"name":"usdcAmount","type":"uint256","indexed":false,"internalType":"uint256"}],"anonymous":false},{"type":"event","name":"YieldAccrued","inputs":[{"name":"yieldAmount","type":"uint256","indexed":false,"internalType":"uint256"},{"name":"newAccumulatedYieldPerToken","type":"uint256","indexed":false,"internalType":"uint256"}],"anonymous":false},{"type":"error","name":"OwnableInvalidOwner","inputs":[{"name":"owner","type":"address","internalType":"address"}]},{"type":"error","name":"OwnableUnauthorizedAccount","inputs":[{"name":"account","type":"address","internalType":"address"}]},{"type":"error","name":"ReentrancyGuardReentrantCall","inputs":[]}],"bytecode":{"object":"0x60e06040523480156200001157600080fd5b506040516200271e3803806200271e83398101604081905262000034916200022a565b600160005533806200006157604051631e4fbdf760e01b8152600060048201526024015b60405180910390fd5b6200006c81620001bb565b506001600160a01b038316620000cf5760405162461bcd60e51b815260206004820152602160248201527f5553444320746f6b656e2063616e6e6f74206265207a65726f206164647265736044820152607360f81b606482015260840162000058565b6001600160a01b038216620001355760405162461bcd60e51b815260206004820152602560248201527f506c6174666f726d20746f6b656e2063616e6e6f74206265207a65726f206164604482015264647265737360d81b606482015260840162000058565b6001600160a01b0381166200018d5760405162461bcd60e51b815260206004820152601c60248201527f43555344432063616e6e6f74206265207a65726f206164647265737300000000604482015260640162000058565b6001600160a01b0392831660805290821660a0521660c05242600455670de0b6b3a764000060065562000274565b600180546001600160a01b038381166001600160a01b0319831681179093556040519116919082907f8be0079c531659141344cd1fd0a4f28419497f9722a3daafe3b4186f6b6457e090600090a35050565b80516001600160a01b03811681146200022557600080fd5b919050565b6000806000606084860312156200024057600080fd5b6200024b846200020d565b92506200025b602085016200020d565b91506200026b604085016200020d565b90509250925092565b60805160a05160c051612377620003a7600039600081816102c9015281816104d8015281816105e70152818161088301528181610c5201528181610ebf01528181611313015281816115820152818161196f015281816119f40152611fd9015260008181610301015281816109e001528181610b1e015281816110b5015281816111ef015281816116560152818161189201528181611b600152611d4d0152600081816101ea015281816104420152818161061401528181610689015281816107e8015281816108b00152818161092501528181610bb601528181610c7f01528181610cf501528181610d9501528181610f4701528181610fe10152818161126f01528181611340015281816113b601528181611456015281816117ef015281816119420152611a2101526123776000f3fe608060405234801561001057600080fd5b50600436106101c45760003560e01c8063b81dd13a116100f9578063e1b3815611610097578063f0f47cb711610071578063f0f47cb714610371578063f2fde38b1461037a578063f688bcfb1461038d578063f87707f2146103a057600080fd5b8063e1b3815614610336578063e3cf63401461033e578063ec797fc21461035e57600080fd5b8063d08d5a26116100d3578063d08d5a26146102eb578063d168e203146102f3578063d1b812cd146102fc578063db81f99b1461032357600080fd5b8063b81dd13a146102b3578063c0e5eea4146102bb578063ce347a3e146102c457600080fd5b8063715018a6116101665780638da5cb5b116101405780638da5cb5b146102895780639764e2491461029a578063a218f7b1146102a3578063b2449ef3146102ab57600080fd5b8063715018a614610271578063853828b6146102795780638782524e1461028157600080fd5b80633fac8105116101a25780633fac81051461022c578063406cf229146102415780634177f564146102495780634de396ca1461026957600080fd5b80630b53f848146101c957806311eac855146101e55780632829cfb214610224575b600080fd5b6101d260035481565b6040519081526020015b60405180910390f35b61020c7f000000000000000000000000000000000000000000000000000000000000000081565b6040516001600160a01b0390911681526020016101dc565b6004546101d2565b61023f61023a3660046121ac565b6103b3565b005b61023f610750565b6101d26102573660046121d6565b60086020526000908152604090205481565b6003546101d2565b61023f6109ae565b61023f6109c0565b6101d2610ea7565b6001546001600160a01b031661020c565b6101d260065481565b6101d2610fc9565b6005546101d2565b6101d2611055565b6101d260045481565b61020c7f000000000000000000000000000000000000000000000000000000000000000081565b6101d261106c565b6101d260055481565b61020c7f000000000000000000000000000000000000000000000000000000000000000081565b61023f6103313660046121f1565b611076565b6101d261156a565b6101d261034c3660046121d6565b60076020526000908152604090205481565b6101d261036c3660046121d6565b6115b9565b6101d260025481565b61023f6103883660046121d6565b611762565b61023f61039b3660046121f1565b61179d565b61023f6103ae3660046121ac565b611acb565b6103bb611c0f565b6001600160a01b03821661040a5760405162461bcd60e51b8152602060048201526011602482015270125b9d985b1a59081c9958da5c1a595b9d607a1b60448201526064015b60405180910390fd5b6000811161042a5760405162461bcd60e51b81526004016104019061220a565b6040516370a0823160e01b81523060048201526000907f00000000000000000000000000000000000000000000000000000000000000006001600160a01b0316906370a0823190602401602060405180830381865afa158015610491573d6000803e3d6000fd5b505050506040513d601f19601f820116820180604052508101906104b59190612241565b6040516370a0823160e01b81523060048201529091506000906001600160a01b037f000000000000000000000000000000000000000000000000000000000000000016906370a0823190602401602060405180830381865afa15801561051f573d6000803e3d6000fd5b505050506040513d601f19601f820116820180604052508101906105439190612241565b905060006105518284612270565b9050808411156105b95760405162461bcd60e51b815260206004820152602d60248201527f496e73756666696369656e742062616c616e636520666f7220656d657267656e60448201526c18de481dda5d1a191c985dd85b609a1b6064820152608401610401565b838310156106725760006105cd8486612283565b60405163f3fef3a360e01b81529091506001600160a01b037f0000000000000000000000000000000000000000000000000000000000000000169063f3fef3a39061063e907f0000000000000000000000000000000000000000000000000000000000000000908590600401612296565b600060405180830381600087803b15801561065857600080fd5b505af115801561066c573d6000803e3d6000fd5b50505050505b60405163a9059cbb60e01b81526001600160a01b037f0000000000000000000000000000000000000000000000000000000000000000169063a9059cbb906106c09088908890600401612296565b6020604051808303816000875af11580156106df573d6000803e3d6000fd5b505050506040513d601f19601f8201168201806040525081019061070391906122af565b50604080518581524260208201526001600160a01b0387169133917f873da158b95a7e5e83e2f84a94eeadadc115c324112605ca1819b276b3b035fa910160405180910390a35050505050565b610758611c3c565b610760611c66565b61076933611d2b565b33600090815260086020526040902054806107ba5760405162461bcd60e51b81526020600482015260116024820152704e6f207969656c6420746f20636c61696d60781b6044820152606401610401565b33600090815260086020526040808220829055516370a0823160e01b81523060048201526001600160a01b037f000000000000000000000000000000000000000000000000000000000000000016906370a0823190602401602060405180830381865afa15801561082f573d6000803e3d6000fd5b505050506040513d601f19601f820116820180604052508101906108539190612241565b90508181101561090e5760006108698284612283565b60405163f3fef3a360e01b81529091506001600160a01b037f0000000000000000000000000000000000000000000000000000000000000000169063f3fef3a3906108da907f0000000000000000000000000000000000000000000000000000000000000000908590600401612296565b600060405180830381600087803b1580156108f457600080fd5b505af1158015610908573d6000803e3d6000fd5b50505050505b60405163a9059cbb60e01b81526001600160a01b037f0000000000000000000000000000000000000000000000000000000000000000169063a9059cbb9061095c9033908690600401612296565b6020604051808303816000875af115801561097b573d6000803e3d6000fd5b505050506040513d601f19601f8201168201806040525081019061099f91906122af565b5050506109ac6001600055565b565b6109b6611c0f565b6109ac6000611e65565b6109c8611c3c565b6040516370a0823160e01b81523360048201526000907f00000000000000000000000000000000000000000000000000000000000000006001600160a01b0316906370a0823190602401602060405180830381865afa158015610a2f573d6000803e3d6000fd5b505050506040513d601f19601f82011682018060405250810190610a539190612241565b905060008111610aa55760405162461bcd60e51b815260206004820152601e60248201527f4e6f20706c6174666f726d20746f6b656e7320746f20776974686472617700006044820152606401610401565b610aad611c66565b610ab633611d2b565b6000610ac182611eb7565b905060008111610b075760405162461bcd60e51b81526020600482015260116024820152702737902aa9a221903a37903932ba3ab93760791b6044820152606401610401565b604051632770a7eb60e21b81526001600160a01b037f00000000000000000000000000000000000000000000000000000000000000001690639dc29fac90610b559033908690600401612296565b600060405180830381600087803b158015610b6f57600080fd5b505af1158015610b83573d6000803e3d6000fd5b505033600090815260086020526040808220829055516370a0823160e01b81523060048201529092506001600160a01b037f00000000000000000000000000000000000000000000000000000000000000001691506370a0823190602401602060405180830381865afa158015610bfe573d6000803e3d6000fd5b505050506040513d601f19601f82011682018060405250810190610c229190612241565b905081811015610cdd576000610c388284612283565b60405163f3fef3a360e01b81529091506001600160a01b037f0000000000000000000000000000000000000000000000000000000000000000169063f3fef3a390610ca9907f0000000000000000000000000000000000000000000000000000000000000000908590600401612296565b600060405180830381600087803b158015610cc357600080fd5b505af1158015610cd7573d6000803e3d6000fd5b50505050505b6040516370a0823160e01b81523060048201526000907f00000000000000000000000000000000000000000000000000000000000000006001600160a01b0316906370a0823190602401602060405180830381865afa158015610d44573d6000803e3d6000fd5b505050506040513d601f19601f82011682018060405250810190610d689190612241565b90506000838210610d795783610d7b565b815b60405163a9059cbb60e01b81529091506001600160a01b037f0000000000000000000000000000000000000000000000000000000000000000169063a9059cbb90610dcc9033908590600401612296565b6020604051808303816000875af1158015610deb573d6000803e3d6000fd5b505050506040513d601f19601f82011682018060405250810190610e0f91906122af565b506000610e2164e8d4a51000876122d1565b90508060026000828254610e359190612283565b925050819055508560036000828254610e4e9190612283565b90915550610e5c9050611efb565b604080518781526020810184905233917f9cc6dc8bdb4b6ad75707375ac18017379f79114f0d0dd85bf6de99c0522e8e27910160405180910390a25050505050506109ac6001600055565b6040516370a0823160e01b81523060048201526000907f00000000000000000000000000000000000000000000000000000000000000006001600160a01b0316906370a0823190602401602060405180830381865afa158015610f0e573d6000803e3d6000fd5b505050506040513d601f19601f82011682018060405250810190610f329190612241565b6040516370a0823160e01b81523060048201527f00000000000000000000000000000000000000000000000000000000000000006001600160a01b0316906370a0823190602401602060405180830381865afa158015610f96573d6000803e3d6000fd5b505050506040513d601f19601f82011682018060405250810190610fba9190612241565b610fc49190612270565b905090565b6040516370a0823160e01b81523060048201526000907f00000000000000000000000000000000000000000000000000000000000000006001600160a01b0316906370a08231906024015b602060405180830381865afa158015611031573d6000803e3d6000fd5b505050506040513d601f19601f82011682018060405250810190610fc49190612241565b600061105f611fb7565b600254610fc49190612270565b6000610fc461207b565b61107e611c3c565b6000811161109e5760405162461bcd60e51b81526004016104019061220a565b6040516370a0823160e01b815233600482015281907f00000000000000000000000000000000000000000000000000000000000000006001600160a01b0316906370a0823190602401602060405180830381865afa158015611104573d6000803e3d6000fd5b505050506040513d601f19601f820116820180604052508101906111289190612241565b10156111765760405162461bcd60e51b815260206004820152601c60248201527f496e73756666696369656e7420706c6174666f726d20746f6b656e73000000006044820152606401610401565b61117e611c66565b61118733611d2b565b600061119282611eb7565b9050600081116111d85760405162461bcd60e51b81526020600482015260116024820152702737902aa9a221903a37903932ba3ab93760791b6044820152606401610401565b604051632770a7eb60e21b81526001600160a01b037f00000000000000000000000000000000000000000000000000000000000000001690639dc29fac906112269033908690600401612296565b600060405180830381600087803b15801561124057600080fd5b505af1158015611254573d6000803e3d6000fd5b50506040516370a0823160e01b8152306004820152600092507f00000000000000000000000000000000000000000000000000000000000000006001600160a01b031691506370a0823190602401602060405180830381865afa1580156112bf573d6000803e3d6000fd5b505050506040513d601f19601f820116820180604052508101906112e39190612241565b90508181101561139e5760006112f98284612283565b60405163f3fef3a360e01b81529091506001600160a01b037f0000000000000000000000000000000000000000000000000000000000000000169063f3fef3a39061136a907f0000000000000000000000000000000000000000000000000000000000000000908590600401612296565b600060405180830381600087803b15801561138457600080fd5b505af1158015611398573d6000803e3d6000fd5b50505050505b6040516370a0823160e01b81523060048201526000907f00000000000000000000000000000000000000000000000000000000000000006001600160a01b0316906370a0823190602401602060405180830381865afa158015611405573d6000803e3d6000fd5b505050506040513d601f19601f820116820180604052508101906114299190612241565b9050600083821061143a578361143c565b815b60405163a9059cbb60e01b81529091506001600160a01b037f0000000000000000000000000000000000000000000000000000000000000000169063a9059cbb9061148d9033908590600401612296565b6020604051808303816000875af11580156114ac573d6000803e3d6000fd5b505050506040513d601f19601f820116820180604052508101906114d091906122af565b5060006114e264e8d4a51000876122d1565b905080600260008282546114f69190612283565b92505081905550856003600082825461150f9190612283565b9091555061151d9050611efb565b604080518781526020810184905233917f9cc6dc8bdb4b6ad75707375ac18017379f79114f0d0dd85bf6de99c0522e8e27910160405180910390a250505050506115676001600055565b50565b6040516370a0823160e01b81523060048201526000907f00000000000000000000000000000000000000000000000000000000000000006001600160a01b0316906370a0823190602401611014565b6000806115c4611fb7565b60055490915081158015906115db57506000600354115b15611634576000600354116116025760405162461bcd60e51b8152600401610401906122f3565b60035460009061161a84670de0b6b3a764000061232a565b61162491906122d1565b90506116308183612270565b9150505b6040516370a0823160e01b81526001600160a01b0385811660048301526000917f0000000000000000000000000000000000000000000000000000000000000000909116906370a0823190602401602060405180830381865afa15801561169f573d6000803e3d6000fd5b505050506040513d601f19601f820116820180604052508101906116c39190612241565b9050806000036116ec57505050506001600160a01b031660009081526008602052604090205490565b6001600160a01b03851660009081526007602052604081205461170f9084612283565b90506000670de0b6b3a7640000611726838561232a565b61173091906122d1565b6001600160a01b038816600090815260086020526040902054909150611757908290612270565b979650505050505050565b61176a611c0f565b6001600160a01b03811661179457604051631e4fbdf760e01b815260006004820152602401610401565b61156781611e65565b6117a5611c3c565b600081116117c55760405162461bcd60e51b81526004016104019061220a565b6117cd611c66565b6040516323b872dd60e01b8152336004820152306024820152604481018290527f00000000000000000000000000000000000000000000000000000000000000006001600160a01b0316906323b872dd906064016020604051808303816000875af1158015611840573d6000803e3d6000fd5b505050506040513d601f19601f8201168201806040525081019061186491906122af565b506000611870826120d8565b905061187b33611d2b565b6040516340c10f1960e01b81526001600160a01b037f000000000000000000000000000000000000000000000000000000000000000016906340c10f19906118c99033908590600401612296565b600060405180830381600087803b1580156118e357600080fd5b505af11580156118f7573d6000803e3d6000fd5b50505050816002600082825461190d9190612270565b9250508190555080600360008282546119269190612270565b909155505060405163095ea7b360e01b81526001600160a01b037f0000000000000000000000000000000000000000000000000000000000000000169063095ea7b390611999907f0000000000000000000000000000000000000000000000000000000000000000908690600401612296565b6020604051808303816000875af11580156119b8573d6000803e3d6000fd5b505050506040513d601f19601f820116820180604052508101906119dc91906122af565b50604051631e573fb760e31b81526001600160a01b037f0000000000000000000000000000000000000000000000000000000000000000169063f2b9fdb890611a4b907f0000000000000000000000000000000000000000000000000000000000000000908690600401612296565b600060405180830381600087803b158015611a6557600080fd5b505af1158015611a79573d6000803e3d6000fd5b50505050611a85611efb565b604080518381526020810183905233917fdf761661d51ab4147355430c8891e0dc7406b6aece4d2b564ccd87e0baa6dfd9910160405180910390a2506115676001600055565b611ad3611c0f565b6001600160a01b038216611b295760405162461bcd60e51b815260206004820152601b60248201527f43616e6e6f74206d696e7420746f207a65726f206164647265737300000000006044820152606401610401565b60008111611b495760405162461bcd60e51b81526004016104019061220a565b6040516340c10f1960e01b81526001600160a01b037f000000000000000000000000000000000000000000000000000000000000000016906340c10f1990611b979085908590600401612296565b600060405180830381600087803b158015611bb157600080fd5b505af1158015611bc5573d6000803e3d6000fd5b50505050816001600160a01b03167e345cb222ebee2dd2cb45cde4d39014005f4b428cae0995a2ea68d1c0dd8b1882604051611c0391815260200190565b60405180910390a25050565b6001546001600160a01b031633146109ac5760405163118cdaa760e01b8152336004820152602401610401565b600260005403611c5f57604051633ee5aeb560e01b815260040160405180910390fd5b6002600055565b6000611c70611fb7565b9050600081118015611c8457506000600354115b1561156757600060035411611cab5760405162461bcd60e51b8152600401610401906122f3565b600354600090611cc383670de0b6b3a764000061232a565b611ccd91906122d1565b90508060056000828254611ce19190612270565b9091555050426004556005546040805184815260208101929092527ffe2ebf53456a69d7b70affc98b9021c791a9bce3af6fa5d24dfbc2db0f817b54910160405180910390a15050565b6040516370a0823160e01b81526001600160a01b0382811660048301526000917f0000000000000000000000000000000000000000000000000000000000000000909116906370a0823190602401602060405180830381865afa158015611d96573d6000803e3d6000fd5b505050506040513d601f19601f82011682018060405250810190611dba9190612241565b90508015611e45576001600160a01b038216600090815260076020526040812054600554611de89190612283565b90508015611e43576000670de0b6b3a7640000611e05838561232a565b611e0f91906122d1565b6001600160a01b038516600090815260086020526040812080549293508392909190611e3c908490612270565b9091555050505b505b506005546001600160a01b03909116600090815260076020526040902055565b600180546001600160a01b038381166001600160a01b0319831681179093556040519116919082907f8be0079c531659141344cd1fd0a4f28419497f9722a3daafe3b4186f6b6457e090600090a35050565b6000600354600003611ecb57506000919050565b6000611ed561207b565b9050670de0b6b3a7640000611eea828561232a565b611ef491906122d1565b9392505050565b611f03611c66565b6000600354600003611f1e5750670de0b6b3a7640000611f7c565b6000611f28611fb7565b600254611f359190612270565b9050600060035411611f595760405162461bcd60e51b8152600401610401906122f3565b600354611f6e82670de0b6b3a764000061232a565b611f7891906122d1565b9150505b60068190556040518181527f388f446e9526fe5c9af20a5919b342370c8a7c0cb05245afe1e545658fa3cdba9060200160405180910390a150565b6040516370a0823160e01b815230600482015260009081906001600160a01b037f000000000000000000000000000000000000000000000000000000000000000016906370a0823190602401602060405180830381865afa158015612020573d6000803e3d6000fd5b505050506040513d601f19601f820116820180604052508101906120449190612241565b90508060000361205657600091505090565b600254808211156120725761206b8183612283565b9250505090565b60009250505090565b600060035460000361208f5750620f424090565b6000612099611fb7565b6002546120a69190612270565b905064e8d4a510006003546120bb91906122d1565b6120c882620f424061232a565b6120d291906122d1565b91505090565b60006003546000036120f9576120f38264e8d4a5100061232a565b92915050565b6000612103611fb7565b6002546121109190612270565b90506000811161216d5760405162461bcd60e51b815260206004820152602260248201527f546f74616c2076616c7565206d7573742062652067726561746572207468616e604482015261020360f41b6064820152608401610401565b6000816003548561217e919061232a565b61218891906122d1565b949350505050565b80356001600160a01b03811681146121a757600080fd5b919050565b600080604083850312156121bf57600080fd5b6121c883612190565b946020939093013593505050565b6000602082840312156121e857600080fd5b611ef482612190565b60006020828403121561220357600080fd5b5035919050565b6020808252601d908201527f416d6f756e74206d7573742062652067726561746572207468616e2030000000604082015260600190565b60006020828403121561225357600080fd5b5051919050565b634e487b7160e01b600052601160045260246000fd5b808201808211156120f3576120f361225a565b818103818111156120f3576120f361225a565b6001600160a01b03929092168252602082015260400190565b6000602082840312156122c157600080fd5b81518015158114611ef457600080fd5b6000826122ee57634e487b7160e01b600052601260045260246000fd5b500490565b60208082526019908201527f4e6f20706c6174666f726d20746f6b656e73206d696e74656400000000000000604082015260600190565b80820281158282048414176120f3576120f361225a56fea2646970667358221220fa5008a678636513a3e226fbefa0917213c0f192f0fb3f6e868faaf73c50627564736f6c63430008140033","linkReferences":{}},"methodIdentifiers":{"accumulatedYieldPerToken()":"d168e203","cUSDC()":"ce347a3e","claimYield()":"406cf229","depositUSDC(uint256)":"f688bcfb","emergencyWithdrawUSDC(address,uint256)":"3fac8105","getAccumulatedYieldPerToken()":"b2449ef3","getClaimableYield(address)":"ec797fc2","getCompoundUSDCBalance()":"e1b38156","getExchangeRateExternal()":"d08d5a26","getLastYieldUpdateTime()":"2829cfb2","getPlatformTokenSupply()":"4de396ca","getTokenManagerBalance()":"b81dd13a","getTokenManagerUSDCBalance()":"a218f7b1","getTotalAvailableBalance()":"8782524e","lastExchangeRate()":"9764e249","lastYieldUpdateTime()":"c0e5eea4","owner()":"8da5cb5b","platformToken()":"d1b812cd","renounceOwnership()":"715018a6","tokenManagerMint(address,uint256)":"f87707f2","totalPlatformTokensMinted()":"0b53f848","totalUSDCBalance()":"f0f47cb7","transferOwnership(address)":"f2fde38b","usdcToken()":"11eac855","userAccumulatedYield(address)":"4177f564","userLastYieldPerToken(address)":"e3cf6340","withdrawAll()":"853828b6","withdrawUSDC(uint256)":"db81f99b"},"id":30}