{"abi":[{"type":"constructor","inputs":[{"name":"_usdcToken","type":"address","internalType":"address"},{"name":"_platformToken","type":"address","internalType":"address"},{"name":"_cUSDC","type":"address","internalType":"address"}],"stateMutability":"nonpayable"},{"type":"function","name":"accumulatedYieldPerToken","inputs":[],"outputs":[{"name":"","type":"uint256","internalType":"uint256"}],"stateMutability":"view"},{"type":"function","name":"cUSDC","inputs":[],"outputs":[{"name":"","type":"address","internalType":"contract ICErc20"}],"stateMutability":"view"},{"type":"function","name":"claimYield","inputs":[],"outputs":[],"stateMutability":"nonpayable"},{"type":"function","name":"depositUSDC","inputs":[{"name":"amount","type":"uint256","internalType":"uint256"}],"outputs":[],"stateMutability":"nonpayable"},{"type":"function","name":"emergencyWithdrawUSDC","inputs":[{"name":"to","type":"address","internalType":"address"},{"name":"amount","type":"uint256","internalType":"uint256"}],"outputs":[],"stateMutability":"nonpayable"},{"type":"function","name":"getAccumulatedYieldPerToken","inputs":[],"outputs":[{"name":"","type":"uint256","internalType":"uint256"}],"stateMutability":"view"},{"type":"function","name":"getClaimableYield","inputs":[{"name":"user","type":"address","internalType":"address"}],"outputs":[{"name":"","type":"uint256","internalType":"uint256"}],"stateMutability":"view"},{"type":"function","name":"getCompoundUSDCBalance","inputs":[],"outputs":[{"name":"","type":"uint256","internalType":"uint256"}],"stateMutability":"view"},{"type":"function","name":"getExchangeRate","inputs":[],"outputs":[{"name":"","type":"uint256","internalType":"uint256"}],"stateMutability":"view"},{"type":"function","name":"getLastYieldUpdateTime","inputs":[],"outputs":[{"name":"","type":"uint256","internalType":"uint256"}],"stateMutability":"view"},{"type":"function","name":"getPlatformTokenSupply","inputs":[],"outputs":[{"name":"","type":"uint256","internalType":"uint256"}],"stateMutability":"view"},{"type":"function","name":"getTokenManagerBalance","inputs":[],"outputs":[{"name":"","type":"uint256","internalType":"uint256"}],"stateMutability":"view"},{"type":"function","name":"getTokenManagerUSDCBalance","inputs":[],"outputs":[{"name":"","type":"uint256","internalType":"uint256"}],"stateMutability":"view"},{"type":"function","name":"getTotalAvailableBalance","inputs":[],"outputs":[{"name":"","type":"uint256","internalType":"uint256"}],"stateMutability":"view"},{"type":"function","name":"lastExchangeRate","inputs":[],"outputs":[{"name":"","type":"uint256","internalType":"uint256"}],"stateMutability":"view"},{"type":"function","name":"lastYieldUpdateTime","inputs":[],"outputs":[{"name":"","type":"uint256","internalType":"uint256"}],"stateMutability":"view"},{"type":"function","name":"owner","inputs":[],"outputs":[{"name":"","type":"address","internalType":"address"}],"stateMutability":"view"},{"type":"function","name":"platformToken","inputs":[],"outputs":[{"name":"","type":"address","internalType":"contract PlatformToken"}],"stateMutability":"view"},{"type":"function","name":"renounceOwnership","inputs":[],"outputs":[],"stateMutability":"nonpayable"},{"type":"function","name":"tokenManagerMint","inputs":[{"name":"to","type":"address","internalType":"address"},{"name":"amount","type":"uint256","internalType":"uint256"}],"outputs":[],"stateMutability":"nonpayable"},{"type":"function","name":"totalPlatformTokensMinted","inputs":[],"outputs":[{"name":"","type":"uint256","internalType":"uint256"}],"stateMutability":"view"},{"type":"function","name":"totalUSDCBalance","inputs":[],"outputs":[{"name":"","type":"uint256","internalType":"uint256"}],"stateMutability":"view"},{"type":"function","name":"transferOwnership","inputs":[{"name":"newOwner","type":"address","internalType":"address"}],"outputs":[],"stateMutability":"nonpayable"},{"type":"function","name":"usdcToken","inputs":[],"outputs":[{"name":"","type":"address","internalType":"contract IERC20"}],"stateMutability":"view"},{"type":"function","name":"userAccumulatedYield","inputs":[{"name":"","type":"address","internalType":"address"}],"outputs":[{"name":"","type":"uint256","internalType":"uint256"}],"stateMutability":"view"},{"type":"function","name":"userLastYieldPerToken","inputs":[{"name":"","type":"address","internalType":"address"}],"outputs":[{"name":"","type":"uint256","internalType":"uint256"}],"stateMutability":"view"},{"type":"function","name":"withdrawAll","inputs":[],"outputs":[],"stateMutability":"nonpayable"},{"type":"function","name":"withdrawUSDC","inputs":[{"name":"platformTokenAmount","type":"uint256","internalType":"uint256"}],"outputs":[],"stateMutability":"nonpayable"},{"type":"event","name":"EmergencyWithdrawal","inputs":[{"name":"owner","type":"address","indexed":true,"internalType":"address"},{"name":"recipient","type":"address","indexed":true,"internalType":"address"},{"name":"amount","type":"uint256","indexed":false,"internalType":"uint256"},{"name":"timestamp","type":"uint256","indexed":false,"internalType":"uint256"}],"anonymous":false},{"type":"event","name":"ExchangeRateUpdated","inputs":[{"name":"newRate","type":"uint256","indexed":false,"internalType":"uint256"}],"anonymous":false},{"type":"event","name":"OwnershipTransferred","inputs":[{"name":"previousOwner","type":"address","indexed":true,"internalType":"address"},{"name":"newOwner","type":"address","indexed":true,"internalType":"address"}],"anonymous":false},{"type":"event","name":"TokenManagerMint","inputs":[{"name":"to","type":"address","indexed":true,"internalType":"address"},{"name":"amount","type":"uint256","indexed":false,"internalType":"uint256"}],"anonymous":false},{"type":"event","name":"USDCDeposited","inputs":[{"name":"user","type":"address","indexed":true,"internalType":"address"},{"name":"usdcAmount","type":"uint256","indexed":false,"internalType":"uint256"},{"name":"platformTokensMinted","type":"uint256","indexed":false,"internalType":"uint256"}],"anonymous":false},{"type":"event","name":"USDCWithdrawn","inputs":[{"name":"user","type":"address","indexed":true,"internalType":"address"},{"name":"platformTokensBurned","type":"uint256","indexed":false,"internalType":"uint256"},{"name":"usdcAmount","type":"uint256","indexed":false,"internalType":"uint256"}],"anonymous":false},{"type":"event","name":"YieldAccrued","inputs":[{"name":"yieldAmount","type":"uint256","indexed":false,"internalType":"uint256"},{"name":"newAccumulatedYieldPerToken","type":"uint256","indexed":false,"internalType":"uint256"}],"anonymous":false},{"type":"error","name":"OwnableInvalidOwner","inputs":[{"name":"owner","type":"address","internalType":"address"}]},{"type":"error","name":"OwnableUnauthorizedAccount","inputs":[{"name":"account","type":"address","internalType":"address"}]},{"type":"error","name":"ReentrancyGuardReentrantCall","inputs":[]}],"bytecode":{"object":"0x60e06040523480156200001157600080fd5b506040516200268e3803806200268e83398101604081905262000034916200022a565b600160005533806200006157604051631e4fbdf760e01b8152600060048201526024015b60405180910390fd5b6200006c81620001bb565b506001600160a01b038316620000cf5760405162461bcd60e51b815260206004820152602160248201527f5553444320746f6b656e2063616e6e6f74206265207a65726f206164647265736044820152607360f81b606482015260840162000058565b6001600160a01b038216620001355760405162461bcd60e51b815260206004820152602560248201527f506c6174666f726d20746f6b656e2063616e6e6f74206265207a65726f206164604482015264647265737360d81b606482015260840162000058565b6001600160a01b0381166200018d5760405162461bcd60e51b815260206004820152601c60248201527f43555344432063616e6e6f74206265207a65726f206164647265737300000000604482015260640162000058565b6001600160a01b0392831660805290821660a0521660c05242600455670de0b6b3a764000060065562000274565b600180546001600160a01b038381166001600160a01b0319831681179093556040519116919082907f8be0079c531659141344cd1fd0a4f28419497f9722a3daafe3b4186f6b6457e090600090a35050565b80516001600160a01b03811681146200022557600080fd5b919050565b6000806000606084860312156200024057600080fd5b6200024b846200020d565b92506200025b602085016200020d565b91506200026b604085016200020d565b90509250925092565b60805160a05160c0516122e7620003a7600039600081816102c9015281816104d8015281816105e70152818161088301528181610c5201528181610ebf0152818161130901528181611578015281816119af01528181611a3401526120300152600081816102f9015281816109e001528181610b1e015281816110ab015281816111e501528181611696015281816118d201528181611ba00152611dbd0152600081816101ea015281816104420152818161061401528181610689015281816107e8015281816108b00152818161092501528181610bb601528181610c7f01528181610cf501528181610d9501528181610f4701528181610fe10152818161126501528181611336015281816113ac0152818161144c0152818161182f015281816119820152611a6101526122e76000f3fe608060405234801561001057600080fd5b50600436106101c45760003560e01c8063b81dd13a116100f9578063e3cf634011610097578063f0f47cb711610071578063f0f47cb714610371578063f2fde38b1461037a578063f688bcfb1461038d578063f87707f2146103a057600080fd5b8063e3cf634014610336578063e6aa216c14610356578063ec797fc21461035e57600080fd5b8063d168e203116100d3578063d168e203146102eb578063d1b812cd146102f4578063db81f99b1461031b578063e1b381561461032e57600080fd5b8063b81dd13a146102b3578063c0e5eea4146102bb578063ce347a3e146102c457600080fd5b8063715018a6116101665780638da5cb5b116101405780638da5cb5b146102895780639764e2491461029a578063a218f7b1146102a3578063b2449ef3146102ab57600080fd5b8063715018a614610271578063853828b6146102795780638782524e1461028157600080fd5b80633fac8105116101a25780633fac81051461022c578063406cf229146102415780634177f564146102495780634de396ca1461026957600080fd5b80630b53f848146101c957806311eac855146101e55780632829cfb214610224575b600080fd5b6101d260035481565b6040519081526020015b60405180910390f35b61020c7f000000000000000000000000000000000000000000000000000000000000000081565b6040516001600160a01b0390911681526020016101dc565b6004546101d2565b61023f61023a366004612153565b6103b3565b005b61023f610750565b6101d261025736600461217d565b60086020526000908152604090205481565b6003546101d2565b61023f6109ae565b61023f6109c0565b6101d2610ea7565b6001546001600160a01b031661020c565b6101d260065481565b6101d2610fc9565b6005546101d2565b6101d2611055565b6101d260045481565b61020c7f000000000000000000000000000000000000000000000000000000000000000081565b6101d260055481565b61020c7f000000000000000000000000000000000000000000000000000000000000000081565b61023f610329366004612198565b61106c565b6101d2611560565b6101d261034436600461217d565b60076020526000908152604090205481565b6101d26115af565b6101d261036c36600461217d565b61161b565b6101d260025481565b61023f61038836600461217d565b6117a2565b61023f61039b366004612198565b6117dd565b61023f6103ae366004612153565b611b0b565b6103bb611c4f565b6001600160a01b03821661040a5760405162461bcd60e51b8152602060048201526011602482015270125b9d985b1a59081c9958da5c1a595b9d607a1b60448201526064015b60405180910390fd5b6000811161042a5760405162461bcd60e51b8152600401610401906121b1565b6040516370a0823160e01b81523060048201526000907f00000000000000000000000000000000000000000000000000000000000000006001600160a01b0316906370a0823190602401602060405180830381865afa158015610491573d6000803e3d6000fd5b505050506040513d601f19601f820116820180604052508101906104b591906121e8565b6040516370a0823160e01b81523060048201529091506000906001600160a01b037f000000000000000000000000000000000000000000000000000000000000000016906370a0823190602401602060405180830381865afa15801561051f573d6000803e3d6000fd5b505050506040513d601f19601f8201168201806040525081019061054391906121e8565b905060006105518284612217565b9050808411156105b95760405162461bcd60e51b815260206004820152602d60248201527f496e73756666696369656e742062616c616e636520666f7220656d657267656e60448201526c18de481dda5d1a191c985dd85b609a1b6064820152608401610401565b838310156106725760006105cd848661222a565b60405163f3fef3a360e01b81529091506001600160a01b037f0000000000000000000000000000000000000000000000000000000000000000169063f3fef3a39061063e907f000000000000000000000000000000000000000000000000000000000000000090859060040161223d565b600060405180830381600087803b15801561065857600080fd5b505af115801561066c573d6000803e3d6000fd5b50505050505b60405163a9059cbb60e01b81526001600160a01b037f0000000000000000000000000000000000000000000000000000000000000000169063a9059cbb906106c0908890889060040161223d565b6020604051808303816000875af11580156106df573d6000803e3d6000fd5b505050506040513d601f19601f820116820180604052508101906107039190612256565b50604080518581524260208201526001600160a01b0387169133917f873da158b95a7e5e83e2f84a94eeadadc115c324112605ca1819b276b3b035fa910160405180910390a35050505050565b610758611c7c565b610760611ca6565b61076933611d9b565b33600090815260086020526040902054806107ba5760405162461bcd60e51b81526020600482015260116024820152704e6f207969656c6420746f20636c61696d60781b6044820152606401610401565b33600090815260086020526040808220829055516370a0823160e01b81523060048201526001600160a01b037f000000000000000000000000000000000000000000000000000000000000000016906370a0823190602401602060405180830381865afa15801561082f573d6000803e3d6000fd5b505050506040513d601f19601f8201168201806040525081019061085391906121e8565b90508181101561090e576000610869828461222a565b60405163f3fef3a360e01b81529091506001600160a01b037f0000000000000000000000000000000000000000000000000000000000000000169063f3fef3a3906108da907f000000000000000000000000000000000000000000000000000000000000000090859060040161223d565b600060405180830381600087803b1580156108f457600080fd5b505af1158015610908573d6000803e3d6000fd5b50505050505b60405163a9059cbb60e01b81526001600160a01b037f0000000000000000000000000000000000000000000000000000000000000000169063a9059cbb9061095c903390869060040161223d565b6020604051808303816000875af115801561097b573d6000803e3d6000fd5b505050506040513d601f19601f8201168201806040525081019061099f9190612256565b5050506109ac6001600055565b565b6109b6611c4f565b6109ac6000611ed5565b6109c8611c7c565b6040516370a0823160e01b81523360048201526000907f00000000000000000000000000000000000000000000000000000000000000006001600160a01b0316906370a0823190602401602060405180830381865afa158015610a2f573d6000803e3d6000fd5b505050506040513d601f19601f82011682018060405250810190610a5391906121e8565b905060008111610aa55760405162461bcd60e51b815260206004820152601e60248201527f4e6f20706c6174666f726d20746f6b656e7320746f20776974686472617700006044820152606401610401565b610aad611ca6565b610ab633611d9b565b6000610ac182611f27565b905060008111610b075760405162461bcd60e51b81526020600482015260116024820152702737902aa9a221903a37903932ba3ab93760791b6044820152606401610401565b604051632770a7eb60e21b81526001600160a01b037f00000000000000000000000000000000000000000000000000000000000000001690639dc29fac90610b55903390869060040161223d565b600060405180830381600087803b158015610b6f57600080fd5b505af1158015610b83573d6000803e3d6000fd5b505033600090815260086020526040808220829055516370a0823160e01b81523060048201529092506001600160a01b037f00000000000000000000000000000000000000000000000000000000000000001691506370a0823190602401602060405180830381865afa158015610bfe573d6000803e3d6000fd5b505050506040513d601f19601f82011682018060405250810190610c2291906121e8565b905081811015610cdd576000610c38828461222a565b60405163f3fef3a360e01b81529091506001600160a01b037f0000000000000000000000000000000000000000000000000000000000000000169063f3fef3a390610ca9907f000000000000000000000000000000000000000000000000000000000000000090859060040161223d565b600060405180830381600087803b158015610cc357600080fd5b505af1158015610cd7573d6000803e3d6000fd5b50505050505b6040516370a0823160e01b81523060048201526000907f00000000000000000000000000000000000000000000000000000000000000006001600160a01b0316906370a0823190602401602060405180830381865afa158015610d44573d6000803e3d6000fd5b505050506040513d601f19601f82011682018060405250810190610d6891906121e8565b90506000838210610d795783610d7b565b815b60405163a9059cbb60e01b81529091506001600160a01b037f0000000000000000000000000000000000000000000000000000000000000000169063a9059cbb90610dcc903390859060040161223d565b6020604051808303816000875af1158015610deb573d6000803e3d6000fd5b505050506040513d601f19601f82011682018060405250810190610e0f9190612256565b506000610e2164e8d4a5100087612278565b90508060026000828254610e35919061222a565b925050819055508560036000828254610e4e919061222a565b90915550610e5c9050611f73565b604080518781526020810184905233917f9cc6dc8bdb4b6ad75707375ac18017379f79114f0d0dd85bf6de99c0522e8e27910160405180910390a25050505050506109ac6001600055565b6040516370a0823160e01b81523060048201526000907f00000000000000000000000000000000000000000000000000000000000000006001600160a01b0316906370a0823190602401602060405180830381865afa158015610f0e573d6000803e3d6000fd5b505050506040513d601f19601f82011682018060405250810190610f3291906121e8565b6040516370a0823160e01b81523060048201527f00000000000000000000000000000000000000000000000000000000000000006001600160a01b0316906370a0823190602401602060405180830381865afa158015610f96573d6000803e3d6000fd5b505050506040513d601f19601f82011682018060405250810190610fba91906121e8565b610fc49190612217565b905090565b6040516370a0823160e01b81523060048201526000907f00000000000000000000000000000000000000000000000000000000000000006001600160a01b0316906370a08231906024015b602060405180830381865afa158015611031573d6000803e3d6000fd5b505050506040513d601f19601f82011682018060405250810190610fc491906121e8565b600061105f61200e565b600254610fc49190612217565b611074611c7c565b600081116110945760405162461bcd60e51b8152600401610401906121b1565b6040516370a0823160e01b815233600482015281907f00000000000000000000000000000000000000000000000000000000000000006001600160a01b0316906370a0823190602401602060405180830381865afa1580156110fa573d6000803e3d6000fd5b505050506040513d601f19601f8201168201806040525081019061111e91906121e8565b101561116c5760405162461bcd60e51b815260206004820152601c60248201527f496e73756666696369656e7420706c6174666f726d20746f6b656e73000000006044820152606401610401565b611174611ca6565b61117d33611d9b565b600061118882611f27565b9050600081116111ce5760405162461bcd60e51b81526020600482015260116024820152702737902aa9a221903a37903932ba3ab93760791b6044820152606401610401565b604051632770a7eb60e21b81526001600160a01b037f00000000000000000000000000000000000000000000000000000000000000001690639dc29fac9061121c903390869060040161223d565b600060405180830381600087803b15801561123657600080fd5b505af115801561124a573d6000803e3d6000fd5b50506040516370a0823160e01b8152306004820152600092507f00000000000000000000000000000000000000000000000000000000000000006001600160a01b031691506370a0823190602401602060405180830381865afa1580156112b5573d6000803e3d6000fd5b505050506040513d601f19601f820116820180604052508101906112d991906121e8565b9050818110156113945760006112ef828461222a565b60405163f3fef3a360e01b81529091506001600160a01b037f0000000000000000000000000000000000000000000000000000000000000000169063f3fef3a390611360907f000000000000000000000000000000000000000000000000000000000000000090859060040161223d565b600060405180830381600087803b15801561137a57600080fd5b505af115801561138e573d6000803e3d6000fd5b50505050505b6040516370a0823160e01b81523060048201526000907f00000000000000000000000000000000000000000000000000000000000000006001600160a01b0316906370a0823190602401602060405180830381865afa1580156113fb573d6000803e3d6000fd5b505050506040513d601f19601f8201168201806040525081019061141f91906121e8565b905060008382106114305783611432565b815b60405163a9059cbb60e01b81529091506001600160a01b037f0000000000000000000000000000000000000000000000000000000000000000169063a9059cbb90611483903390859060040161223d565b6020604051808303816000875af11580156114a2573d6000803e3d6000fd5b505050506040513d601f19601f820116820180604052508101906114c69190612256565b5060006114d864e8d4a5100087612278565b905080600260008282546114ec919061222a565b925050819055508560036000828254611505919061222a565b909155506115139050611f73565b604080518781526020810184905233917f9cc6dc8bdb4b6ad75707375ac18017379f79114f0d0dd85bf6de99c0522e8e27910160405180910390a2505050505061155d6001600055565b50565b6040516370a0823160e01b81523060048201526000907f00000000000000000000000000000000000000000000000000000000000000006001600160a01b0316906370a0823190602401611014565b60006003546000036115c85750670de0b6b3a764000090565b60006115d261200e565b6002546115df9190612217565b905060006115f28264e8d4a5100061229a565b60035490915061160a82670de0b6b3a764000061229a565b6116149190612278565b9250505090565b60008061162661200e565b600554909150811580159061163d57506000600354115b156116745760035460009061165a84670de0b6b3a764000061229a565b6116649190612278565b90506116708183612217565b9150505b6040516370a0823160e01b81526001600160a01b0385811660048301526000917f0000000000000000000000000000000000000000000000000000000000000000909116906370a0823190602401602060405180830381865afa1580156116df573d6000803e3d6000fd5b505050506040513d601f19601f8201168201806040525081019061170391906121e8565b90508060000361172c57505050506001600160a01b031660009081526008602052604090205490565b6001600160a01b03851660009081526007602052604081205461174f908461222a565b90506000670de0b6b3a7640000611766838561229a565b6117709190612278565b6001600160a01b038816600090815260086020526040902054909150611797908290612217565b979650505050505050565b6117aa611c4f565b6001600160a01b0381166117d457604051631e4fbdf760e01b815260006004820152602401610401565b61155d81611ed5565b6117e5611c7c565b600081116118055760405162461bcd60e51b8152600401610401906121b1565b61180d611ca6565b6040516323b872dd60e01b8152336004820152306024820152604481018290527f00000000000000000000000000000000000000000000000000000000000000006001600160a01b0316906323b872dd906064016020604051808303816000875af1158015611880573d6000803e3d6000fd5b505050506040513d601f19601f820116820180604052508101906118a49190612256565b5060006118b0826120cb565b90506118bb33611d9b565b6040516340c10f1960e01b81526001600160a01b037f000000000000000000000000000000000000000000000000000000000000000016906340c10f1990611909903390859060040161223d565b600060405180830381600087803b15801561192357600080fd5b505af1158015611937573d6000803e3d6000fd5b50505050816002600082825461194d9190612217565b9250508190555080600360008282546119669190612217565b909155505060405163095ea7b360e01b81526001600160a01b037f0000000000000000000000000000000000000000000000000000000000000000169063095ea7b3906119d9907f000000000000000000000000000000000000000000000000000000000000000090869060040161223d565b6020604051808303816000875af11580156119f8573d6000803e3d6000fd5b505050506040513d601f19601f82011682018060405250810190611a1c9190612256565b50604051631e573fb760e31b81526001600160a01b037f0000000000000000000000000000000000000000000000000000000000000000169063f2b9fdb890611a8b907f000000000000000000000000000000000000000000000000000000000000000090869060040161223d565b600060405180830381600087803b158015611aa557600080fd5b505af1158015611ab9573d6000803e3d6000fd5b50505050611ac5611f73565b604080518381526020810183905233917fdf761661d51ab4147355430c8891e0dc7406b6aece4d2b564ccd87e0baa6dfd9910160405180910390a25061155d6001600055565b611b13611c4f565b6001600160a01b038216611b695760405162461bcd60e51b815260206004820152601b60248201527f43616e6e6f74206d696e7420746f207a65726f206164647265737300000000006044820152606401610401565b60008111611b895760405162461bcd60e51b8152600401610401906121b1565b6040516340c10f1960e01b81526001600160a01b037f000000000000000000000000000000000000000000000000000000000000000016906340c10f1990611bd7908590859060040161223d565b600060405180830381600087803b158015611bf157600080fd5b505af1158015611c05573d6000803e3d6000fd5b50505050816001600160a01b03167e345cb222ebee2dd2cb45cde4d39014005f4b428cae0995a2ea68d1c0dd8b1882604051611c4391815260200190565b60405180910390a25050565b6001546001600160a01b031633146109ac5760405163118cdaa760e01b8152336004820152602401610401565b600260005403611c9f57604051633ee5aeb560e01b815260040160405180910390fd5b6002600055565b6000611cb061200e565b9050600081118015611cc457506000600354115b1561155d57600060035411611d1b5760405162461bcd60e51b815260206004820152601960248201527f4e6f20706c6174666f726d20746f6b656e73206d696e746564000000000000006044820152606401610401565b600354600090611d3383670de0b6b3a764000061229a565b611d3d9190612278565b90508060056000828254611d519190612217565b9091555050426004556005546040805184815260208101929092527ffe2ebf53456a69d7b70affc98b9021c791a9bce3af6fa5d24dfbc2db0f817b54910160405180910390a15050565b6040516370a0823160e01b81526001600160a01b0382811660048301526000917f0000000000000000000000000000000000000000000000000000000000000000909116906370a0823190602401602060405180830381865afa158015611e06573d6000803e3d6000fd5b505050506040513d601f19601f82011682018060405250810190611e2a91906121e8565b90508015611eb5576001600160a01b038216600090815260076020526040812054600554611e58919061222a565b90508015611eb3576000670de0b6b3a7640000611e75838561229a565b611e7f9190612278565b6001600160a01b038516600090815260086020526040812080549293508392909190611eac908490612217565b9091555050505b505b506005546001600160a01b03909116600090815260076020526040902055565b600180546001600160a01b038381166001600160a01b0319831681179093556040519116919082907f8be0079c531659141344cd1fd0a4f28419497f9722a3daafe3b4186f6b6457e090600090a35050565b6000600354600003611f3b57506000919050565b6000611f4561200e565b600254611f529190612217565b600354909150611f62828561229a565b611f6c9190612278565b9392505050565b611f7b611ca6565b6000600354600003611f965750670de0b6b3a7640000611fd3565b6000611fa061200e565b600254611fad9190612217565b600354909150611fc582670de0b6b3a764000061229a565b611fcf9190612278565b9150505b60068190556040518181527f388f446e9526fe5c9af20a5919b342370c8a7c0cb05245afe1e545658fa3cdba9060200160405180910390a150565b6040516370a0823160e01b815230600482015260009081906001600160a01b037f000000000000000000000000000000000000000000000000000000000000000016906370a0823190602401602060405180830381865afa158015612077573d6000803e3d6000fd5b505050506040513d601f19601f8201168201806040525081019061209b91906121e8565b9050806000036120ad57600091505090565b600254808211156120c257611614818361222a565b60009250505090565b60006003546000036120ec576120e68264e8d4a5100061229a565b92915050565b60006120f661200e565b6002546121039190612217565b905060006121118483612217565b905060008260035486612124919061229a565b61212e9190612278565b95945050505050565b80356001600160a01b038116811461214e57600080fd5b919050565b6000806040838503121561216657600080fd5b61216f83612137565b946020939093013593505050565b60006020828403121561218f57600080fd5b611f6c82612137565b6000602082840312156121aa57600080fd5b5035919050565b6020808252601d908201527f416d6f756e74206d7573742062652067726561746572207468616e2030000000604082015260600190565b6000602082840312156121fa57600080fd5b5051919050565b634e487b7160e01b600052601160045260246000fd5b808201808211156120e6576120e6612201565b818103818111156120e6576120e6612201565b6001600160a01b03929092168252602082015260400190565b60006020828403121561226857600080fd5b81518015158114611f6c57600080fd5b60008261229557634e487b7160e01b600052601260045260246000fd5b500490565b80820281158282048414176120e6576120e661220156fea2646970667358221220285c160a6e6dce78e8020375b4719015ff2d1cd169108d451d6c5ff692d9f55664736f6c63430008140033","linkReferences":{}},"methodIdentifiers":{"accumulatedYieldPerToken()":"d168e203","cUSDC()":"ce347a3e","claimYield()":"406cf229","depositUSDC(uint256)":"f688bcfb","emergencyWithdrawUSDC(address,uint256)":"3fac8105","getAccumulatedYieldPerToken()":"b2449ef3","getClaimableYield(address)":"ec797fc2","getCompoundUSDCBalance()":"e1b38156","getExchangeRate()":"e6aa216c","getLastYieldUpdateTime()":"2829cfb2","getPlatformTokenSupply()":"4de396ca","getTokenManagerBalance()":"b81dd13a","getTokenManagerUSDCBalance()":"a218f7b1","getTotalAvailableBalance()":"8782524e","lastExchangeRate()":"9764e249","lastYieldUpdateTime()":"c0e5eea4","owner()":"8da5cb5b","platformToken()":"d1b812cd","renounceOwnership()":"715018a6","tokenManagerMint(address,uint256)":"f87707f2","totalPlatformTokensMinted()":"0b53f848","totalUSDCBalance()":"f0f47cb7","transferOwnership(address)":"f2fde38b","usdcToken()":"11eac855","userAccumulatedYield(address)":"4177f564","userLastYieldPerToken(address)":"e3cf6340","withdrawAll()":"853828b6","withdrawUSDC(uint256)":"db81f99b"},"id":28}