{"abi":[{"type":"constructor","inputs":[{"name":"_usdcToken","type":"address","internalType":"address"}],"stateMutability":"nonpayable"},{"type":"function","name":"accrueInterest","inputs":[],"outputs":[{"name":"","type":"uint256","internalType":"uint256"}],"stateMutability":"nonpayable"},{"type":"function","name":"addYield","inputs":[{"name":"yieldAmount","type":"uint256","internalType":"uint256"}],"outputs":[],"stateMutability":"nonpayable"},{"type":"function","name":"allowance","inputs":[{"name":"","type":"address","internalType":"address"},{"name":"","type":"address","internalType":"address"}],"outputs":[{"name":"","type":"uint256","internalType":"uint256"}],"stateMutability":"view"},{"type":"function","name":"approve","inputs":[{"name":"spender","type":"address","internalType":"address"},{"name":"amount","type":"uint256","internalType":"uint256"}],"outputs":[{"name":"","type":"bool","internalType":"bool"}],"stateMutability":"nonpayable"},{"type":"function","name":"balanceOf","inputs":[{"name":"","type":"address","internalType":"address"}],"outputs":[{"name":"","type":"uint256","internalType":"uint256"}],"stateMutability":"view"},{"type":"function","name":"balanceOfUnderlying","inputs":[{"name":"owner","type":"address","internalType":"address"}],"outputs":[{"name":"","type":"uint256","internalType":"uint256"}],"stateMutability":"view"},{"type":"function","name":"borrowBalanceCurrent","inputs":[{"name":"","type":"address","internalType":"address"}],"outputs":[{"name":"","type":"uint256","internalType":"uint256"}],"stateMutability":"pure"},{"type":"function","name":"borrowBalanceStored","inputs":[{"name":"","type":"address","internalType":"address"}],"outputs":[{"name":"","type":"uint256","internalType":"uint256"}],"stateMutability":"pure"},{"type":"function","name":"borrowRatePerBlock","inputs":[],"outputs":[{"name":"","type":"uint256","internalType":"uint256"}],"stateMutability":"pure"},{"type":"function","name":"decimals","inputs":[],"outputs":[{"name":"","type":"uint8","internalType":"uint8"}],"stateMutability":"view"},{"type":"function","name":"exchangeRate","inputs":[],"outputs":[{"name":"","type":"uint256","internalType":"uint256"}],"stateMutability":"view"},{"type":"function","name":"exchangeRateCurrent","inputs":[],"outputs":[{"name":"","type":"uint256","internalType":"uint256"}],"stateMutability":"nonpayable"},{"type":"function","name":"exchangeRateStored","inputs":[],"outputs":[{"name":"","type":"uint256","internalType":"uint256"}],"stateMutability":"view"},{"type":"function","name":"getAccountSnapshot","inputs":[{"name":"account","type":"address","internalType":"address"}],"outputs":[{"name":"","type":"uint256","internalType":"uint256"},{"name":"","type":"uint256","internalType":"uint256"},{"name":"","type":"uint256","internalType":"uint256"},{"name":"","type":"uint256","internalType":"uint256"}],"stateMutability":"view"},{"type":"function","name":"getCash","inputs":[],"outputs":[{"name":"","type":"uint256","internalType":"uint256"}],"stateMutability":"view"},{"type":"function","name":"mint","inputs":[{"name":"amount","type":"uint256","internalType":"uint256"}],"outputs":[{"name":"","type":"uint256","internalType":"uint256"}],"stateMutability":"nonpayable"},{"type":"function","name":"name","inputs":[],"outputs":[{"name":"","type":"string","internalType":"string"}],"stateMutability":"view"},{"type":"function","name":"redeem","inputs":[{"name":"cTokenAmount","type":"uint256","internalType":"uint256"}],"outputs":[{"name":"","type":"uint256","internalType":"uint256"}],"stateMutability":"nonpayable"},{"type":"function","name":"redeemUnderlying","inputs":[{"name":"redeemAmount","type":"uint256","internalType":"uint256"}],"outputs":[{"name":"","type":"uint256","internalType":"uint256"}],"stateMutability":"nonpayable"},{"type":"function","name":"seize","inputs":[{"name":"liquidator","type":"address","internalType":"address"},{"name":"borrower","type":"address","internalType":"address"},{"name":"seizeTokens","type":"uint256","internalType":"uint256"}],"outputs":[{"name":"","type":"uint256","internalType":"uint256"}],"stateMutability":"nonpayable"},{"type":"function","name":"setExchangeRate","inputs":[{"name":"newRate","type":"uint256","internalType":"uint256"}],"outputs":[],"stateMutability":"nonpayable"},{"type":"function","name":"supplyRatePerBlock","inputs":[],"outputs":[{"name":"","type":"uint256","internalType":"uint256"}],"stateMutability":"pure"},{"type":"function","name":"symbol","inputs":[],"outputs":[{"name":"","type":"string","internalType":"string"}],"stateMutability":"view"},{"type":"function","name":"totalBorrowsCurrent","inputs":[],"outputs":[{"name":"","type":"uint256","internalType":"uint256"}],"stateMutability":"pure"},{"type":"function","name":"totalSupply","inputs":[],"outputs":[{"name":"","type":"uint256","internalType":"uint256"}],"stateMutability":"view"},{"type":"function","name":"transfer","inputs":[{"name":"to","type":"address","internalType":"address"},{"name":"amount","type":"uint256","internalType":"uint256"}],"outputs":[{"name":"","type":"bool","internalType":"bool"}],"stateMutability":"nonpayable"},{"type":"function","name":"transferFrom","inputs":[{"name":"from","type":"address","internalType":"address"},{"name":"to","type":"address","internalType":"address"},{"name":"amount","type":"uint256","internalType":"uint256"}],"outputs":[{"name":"","type":"bool","internalType":"bool"}],"stateMutability":"nonpayable"},{"type":"function","name":"usdcToken","inputs":[],"outputs":[{"name":"","type":"address","internalType":"address"}],"stateMutability":"view"},{"type":"event","name":"Approval","inputs":[{"name":"owner","type":"address","indexed":true,"internalType":"address"},{"name":"spender","type":"address","indexed":true,"internalType":"address"},{"name":"value","type":"uint256","indexed":false,"internalType":"uint256"}],"anonymous":false},{"type":"event","name":"Transfer","inputs":[{"name":"from","type":"address","indexed":true,"internalType":"address"},{"name":"to","type":"address","indexed":true,"internalType":"address"},{"name":"value","type":"uint256","indexed":false,"internalType":"uint256"}],"anonymous":false}],"bytecode":{"object":"0x60e0604052600b60a09081526a26b7b1b59031aa37b5b2b760a91b60c0526000906200002c90826200015b565b5060408051808201909152600781526636b1aa27a5a2a760c91b60208201526001906200005a90826200015b565b506002805460ff19166008179055670de0b6b3a76400006006553480156200008157600080fd5b50604051620012e8380380620012e8833981016040819052620000a49162000227565b6001600160a01b031660805262000259565b634e487b7160e01b600052604160045260246000fd5b600181811c90821680620000e157607f821691505b6020821081036200010257634e487b7160e01b600052602260045260246000fd5b50919050565b601f8211156200015657600081815260208120601f850160051c81016020861015620001315750805b601f850160051c820191505b8181101562000152578281556001016200013d565b5050505b505050565b81516001600160401b03811115620001775762000177620000b6565b6200018f81620001888454620000cc565b8462000108565b602080601f831160018114620001c75760008415620001ae5750858301515b600019600386901b1c1916600185901b17855562000152565b600085815260208120601f198616915b82811015620001f857888601518255948401946001909101908401620001d7565b5085821015620002175787850151600019600388901b60f8161c191681555b5050505050600190811b01905550565b6000602082840312156200023a57600080fd5b81516001600160a01b03811681146200025257600080fd5b9392505050565b608051611057620002916000396000818161020f0152818161083601528181610bf901528181610c800152610d2b01526110576000f3fe608060405234801561001057600080fd5b50600436106101c45760003560e01c806395d89b41116100f9578063bd6d894d11610097578063db006a7511610071578063db006a75146103ab578063db068e0e146103be578063dd62ed3e146103d1578063f8f9da28146102c157600080fd5b8063bd6d894d14610274578063c37f68e214610345578063c8b2b5461461039657600080fd5b8063a6afed95116100d3578063a6afed95146102c1578063a9059cbb1461031f578063ae9d70b0146102c1578063b2a02ff11461033257600080fd5b806395d89b411461030457806395dd919314610249578063a0712d681461030c57600080fd5b8063313ce567116101665780633ba0b9a9116101405780633ba0b9a9146102c857806370a08231146102d157806373acee98146102c1578063852a12e3146102f157600080fd5b8063313ce5671461028f5780633af9e669146102ae5780633b1d21a2146102c157600080fd5b806317bfdfbc116101a257806317bfdfbc1461024957806318160ddd1461026b578063182df0f51461027457806323b872dd1461027c57600080fd5b806306fdde03146101c9578063095ea7b3146101e757806311eac8551461020a575b600080fd5b6101d16103fc565b6040516101de9190610dab565b60405180910390f35b6101fa6101f5366004610e15565b61048a565b60405190151581526020016101de565b6102317f000000000000000000000000000000000000000000000000000000000000000081565b6040516001600160a01b0390911681526020016101de565b61025d610257366004610e3f565b50600090565b6040519081526020016101de565b61025d60035481565b60065461025d565b6101fa61028a366004610e61565b6104f7565b60025461029c9060ff1681565b60405160ff90911681526020016101de565b61025d6102bc366004610e3f565b61067d565b600061025d565b61025d60065481565b61025d6102df366004610e3f565b60046020526000908152604090205481565b61025d6102ff366004610e9d565b6106b9565b6101d161077b565b61025d61031a366004610e9d565b610788565b6101fa61032d366004610e15565b6108b5565b61025d610340366004610e61565b610960565b610376610353366004610e3f565b6001600160a01b0316600090815260046020526040812054600654919290918391565b6040805194855260208501939093529183015260608201526080016101de565b6103a96103a4366004610e9d565b610a39565b005b61025d6103b9366004610e9d565b610b27565b6103a96103cc366004610e9d565b600655565b61025d6103df366004610eb6565b600560209081526000928352604080842090915290825290205481565b6000805461040990610ee9565b80601f016020809104026020016040519081016040528092919081815260200182805461043590610ee9565b80156104825780601f1061045757610100808354040283529160200191610482565b820191906000526020600020905b81548152906001019060200180831161046557829003601f168201915b505050505081565b3360008181526005602090815260408083206001600160a01b038716808552925280832085905551919290917f8c5be1e5ebec7d5bd14f71427d1e84f3dd0314c0f7b2291e5b200ac8c7c3b925906104e59086815260200190565b60405180910390a35060015b92915050565b6001600160a01b0383166000908152600460205260408120548211156105385760405162461bcd60e51b815260040161052f90610f23565b60405180910390fd5b6001600160a01b03841660009081526005602090815260408083203384529091529020548211156105a45760405162461bcd60e51b8152602060048201526016602482015275496e73756666696369656e7420616c6c6f77616e636560501b604482015260640161052f565b6001600160a01b038416600090815260046020526040812080548492906105cc908490610f67565b90915550506001600160a01b038316600090815260046020526040812080548492906105f9908490610f7a565b90915550506001600160a01b038416600090815260056020908152604080832033845290915281208054849290610631908490610f67565b92505081905550826001600160a01b0316846001600160a01b03166000805160206110028339815191528460405161066b91815260200190565b60405180910390a35060019392505050565b6006546001600160a01b0382166000908152600460205260408120549091670de0b6b3a7640000916106af9190610f8d565b6104f19190610fa4565b60008060065483670de0b6b3a76400006106d39190610f8d565b6106dd9190610fa4565b3360009081526004602052604090205490915081111561070f5760405162461bcd60e51b815260040161052f90610f23565b336000908152600460205260408120805483929061072e908490610f67565b9250508190555080600360008282546107479190610f67565b909155505060405181815260009033906000805160206110028339815191529060200160405180910390a350600092915050565b6001805461040990610ee9565b60008060065483670de0b6b3a76400006107a29190610f8d565b6107ac9190610fa4565b336000908152600460205260408120805492935083929091906107d0908490610f7a565b9250508190555080600360008282546107e99190610f7a565b909155505060405181815233906000906000805160206110028339815191529060200160405180910390a36040516323b872dd60e01b8152336004820152306024820152604481018490527f00000000000000000000000000000000000000000000000000000000000000006001600160a01b0316906323b872dd906064016020604051808303816000875af1158015610887573d6000803e3d6000fd5b505050506040513d601f19601f820116820180604052508101906108ab9190610fc6565b5060009392505050565b336000908152600460205260408120548211156108e45760405162461bcd60e51b815260040161052f90610f23565b3360009081526004602052604081208054849290610903908490610f67565b90915550506001600160a01b03831660009081526004602052604081208054849290610930908490610f7a565b90915550506040518281526001600160a01b038416903390600080516020611002833981519152906020016104e5565b6001600160a01b0382166000908152600460205260408120548211156109985760405162461bcd60e51b815260040161052f90610f23565b6001600160a01b038316600090815260046020526040812080548492906109c0908490610f67565b90915550506001600160a01b038416600090815260046020526040812080548492906109ed908490610f7a565b92505081905550836001600160a01b0316836001600160a01b031660008051602061100283398151915284604051610a2791815260200190565b60405180910390a35060009392505050565b600654600090610a5183670de0b6b3a7640000610f8d565b610a5b9190610fa4565b33600090815260046020526040812080549293508392909190610a7f908490610f7a565b925050819055508060036000828254610a989190610f7a565b909155505060405181815233906000906000805160206110028339815191529060200160405180910390a36000670de0b6b3a7640000600654600354610ade9190610f8d565b610ae89190610fa4565b9050610af48382610f7a565b60035490915015610b2257600354610b1482670de0b6b3a7640000610f8d565b610b1e9190610fa4565b6006555b505050565b33600090815260046020526040812054821115610b565760405162461bcd60e51b815260040161052f90610f23565b6000670de0b6b3a764000060065484610b6f9190610f8d565b610b799190610fa4565b33600090815260046020526040812080549293508592909190610b9d908490610f67565b925050819055508260036000828254610bb69190610f67565b909155505060405183815260009033906000805160206110028339815191529060200160405180910390a36040516370a0823160e01b81523060048201526000907f00000000000000000000000000000000000000000000000000000000000000006001600160a01b0316906370a0823190602401602060405180830381865afa158015610c48573d6000803e3d6000fd5b505050506040513d601f19601f82011682018060405250810190610c6c9190610fe8565b905081811015610d0f576001600160a01b037f0000000000000000000000000000000000000000000000000000000000000000166340c10f1930610cb08486610f67565b6040516001600160e01b031960e085901b1681526001600160a01b0390921660048301526024820152604401600060405180830381600087803b158015610cf657600080fd5b505af1158015610d0a573d6000803e3d6000fd5b505050505b60405163a9059cbb60e01b8152336004820152602481018390527f00000000000000000000000000000000000000000000000000000000000000006001600160a01b03169063a9059cbb906044016020604051808303816000875af1158015610d7c573d6000803e3d6000fd5b505050506040513d601f19601f82011682018060405250810190610da09190610fc6565b506000949350505050565b600060208083528351808285015260005b81811015610dd857858101830151858201604001528201610dbc565b506000604082860101526040601f19601f8301168501019250505092915050565b80356001600160a01b0381168114610e1057600080fd5b919050565b60008060408385031215610e2857600080fd5b610e3183610df9565b946020939093013593505050565b600060208284031215610e5157600080fd5b610e5a82610df9565b9392505050565b600080600060608486031215610e7657600080fd5b610e7f84610df9565b9250610e8d60208501610df9565b9150604084013590509250925092565b600060208284031215610eaf57600080fd5b5035919050565b60008060408385031215610ec957600080fd5b610ed283610df9565b9150610ee060208401610df9565b90509250929050565b600181811c90821680610efd57607f821691505b602082108103610f1d57634e487b7160e01b600052602260045260246000fd5b50919050565b602080825260149082015273496e73756666696369656e742062616c616e636560601b604082015260600190565b634e487b7160e01b600052601160045260246000fd5b818103818111156104f1576104f1610f51565b808201808211156104f1576104f1610f51565b80820281158282048414176104f1576104f1610f51565b600082610fc157634e487b7160e01b600052601260045260246000fd5b500490565b600060208284031215610fd857600080fd5b81518015158114610e5a57600080fd5b600060208284031215610ffa57600080fd5b505191905056feddf252ad1be2c89b69c2b068fc378daa952ba7f163c4a11628f55a4df523b3efa2646970667358221220813980ab34d875dcce89d20d5c902abfafa9b9d3f485fba4e7a371b21c30120664736f6c63430008140033","linkReferences":{}},"methodIdentifiers":{"accrueInterest()":"a6afed95","addYield(uint256)":"c8b2b546","allowance(address,address)":"dd62ed3e","approve(address,uint256)":"095ea7b3","balanceOf(address)":"70a08231","balanceOfUnderlying(address)":"3af9e669","borrowBalanceCurrent(address)":"17bfdfbc","borrowBalanceStored(address)":"95dd9193","borrowRatePerBlock()":"f8f9da28","decimals()":"313ce567","exchangeRate()":"3ba0b9a9","exchangeRateCurrent()":"bd6d894d","exchangeRateStored()":"182df0f5","getAccountSnapshot(address)":"c37f68e2","getCash()":"3b1d21a2","mint(uint256)":"a0712d68","name()":"06fdde03","redeem(uint256)":"db006a75","redeemUnderlying(uint256)":"852a12e3","seize(address,address,uint256)":"b2a02ff1","setExchangeRate(uint256)":"db068e0e","supplyRatePerBlock()":"ae9d70b0","symbol()":"95d89b41","totalBorrowsCurrent()":"73acee98","totalSupply()":"18160ddd","transfer(address,uint256)":"a9059cbb","transferFrom(address,address,uint256)":"23b872dd","usdcToken()":"11eac855"},"id":39}