{"abi":[{"type":"function","name":"DEBT_CEILING_DECIMALS","inputs":[],"outputs":[{"name":"","type":"uint256","internalType":"uint256"}],"stateMutability":"view"},{"type":"function","name":"MAX_RESERVES_COUNT","inputs":[],"outputs":[{"name":"","type":"uint16","internalType":"uint16"}],"stateMutability":"view"}],"bytecode":{"object":"0x6080806040523460175760919081601c823930815050f35b5f80fdfe60808060405260043610156011575f80fd5b5f3560e01c908163280d5de914604857506331b561ba14602f575f80fd5b5f366003190112604457602060405160808152f35b5f80fd5b5f36600319011260445780600260209252f3fea264697066735822122006113ee023c95f4e1371f095d9364b0944439b5f957fd2ae90d2f3425309475764736f6c634300081a0033","linkReferences":{}},"methodIdentifiers":{"DEBT_CEILING_DECIMALS()":"280d5de9","MAX_RESERVES_COUNT()":"31b561ba"},"id":42}