{"abi":[{"type":"constructor","inputs":[{"name":"_underlying","type":"address","internalType":"address"}],"stateMutability":"nonpayable"},{"type":"function","name":"_isSupplyPaused","inputs":[],"outputs":[{"name":"","type":"bool","internalType":"bool"}],"stateMutability":"view"},{"type":"function","name":"_isWithdrawPaused","inputs":[],"outputs":[{"name":"","type":"bool","internalType":"bool"}],"stateMutability":"view"},{"type":"function","name":"_supplyShouldFail","inputs":[],"outputs":[{"name":"","type":"bool","internalType":"bool"}],"stateMutability":"view"},{"type":"function","name":"addYield","inputs":[{"name":"to","type":"address","internalType":"address"},{"name":"amount","type":"uint256","internalType":"uint256"}],"outputs":[],"stateMutability":"nonpayable"},{"type":"function","name":"balanceOf","inputs":[{"name":"owner","type":"address","internalType":"address"}],"outputs":[{"name":"","type":"uint256","internalType":"uint256"}],"stateMutability":"view"},{"type":"function","name":"balances","inputs":[{"name":"","type":"address","internalType":"address"}],"outputs":[{"name":"","type":"uint256","internalType":"uint256"}],"stateMutability":"view"},{"type":"function","name":"getSupplyRate","inputs":[{"name":"utilization","type":"uint256","internalType":"uint256"}],"outputs":[{"name":"","type":"uint256","internalType":"uint256"}],"stateMutability":"view"},{"type":"function","name":"getUtilization","inputs":[],"outputs":[{"name":"","type":"uint256","internalType":"uint256"}],"stateMutability":"view"},{"type":"function","name":"isSupplyPaused","inputs":[],"outputs":[{"name":"","type":"bool","internalType":"bool"}],"stateMutability":"view"},{"type":"function","name":"isWithdrawPaused","inputs":[],"outputs":[{"name":"","type":"bool","internalType":"bool"}],"stateMutability":"view"},{"type":"function","name":"mockSupplyRate","inputs":[],"outputs":[{"name":"","type":"uint256","internalType":"uint256"}],"stateMutability":"view"},{"type":"function","name":"mockUtilization","inputs":[],"outputs":[{"name":"","type":"uint256","internalType":"uint256"}],"stateMutability":"view"},{"type":"function","name":"setMockSupplyRate","inputs":[{"name":"supplyRate","type":"uint256","internalType":"uint256"}],"outputs":[],"stateMutability":"nonpayable"},{"type":"function","name":"setMockUtilization","inputs":[{"name":"utilization","type":"uint256","internalType":"uint256"}],"outputs":[],"stateMutability":"nonpayable"},{"type":"function","name":"setSupplyPaused","inputs":[{"name":"paused","type":"bool","internalType":"bool"}],"outputs":[],"stateMutability":"nonpayable"},{"type":"function","name":"setSupplyShouldFail","inputs":[{"name":"shouldFail","type":"bool","internalType":"bool"}],"outputs":[],"stateMutability":"nonpayable"},{"type":"function","name":"setWithdrawPaused","inputs":[{"name":"paused","type":"bool","internalType":"bool"}],"outputs":[],"stateMutability":"nonpayable"},{"type":"function","name":"supply","inputs":[{"name":"asset","type":"address","internalType":"address"},{"name":"amount","type":"uint256","internalType":"uint256"}],"outputs":[],"stateMutability":"nonpayable"},{"type":"function","name":"totalSupply","inputs":[],"outputs":[{"name":"","type":"uint256","internalType":"uint256"}],"stateMutability":"view"},{"type":"function","name":"totalSupplyAmount","inputs":[],"outputs":[{"name":"","type":"uint256","internalType":"uint256"}],"stateMutability":"view"},{"type":"function","name":"underlying","inputs":[],"outputs":[{"name":"","type":"address","internalType":"contract IERC20"}],"stateMutability":"view"},{"type":"function","name":"withdraw","inputs":[{"name":"asset","type":"address","internalType":"address"},{"name":"amount","type":"uint256","internalType":"uint256"}],"outputs":[],"stateMutability":"nonpayable"},{"type":"event","name":"Supply","inputs":[{"name":"from","type":"address","indexed":true,"internalType":"address"},{"name":"dst","type":"address","indexed":true,"internalType":"address"},{"name":"amount","type":"uint256","indexed":false,"internalType":"uint256"}],"anonymous":false},{"type":"event","name":"Withdraw","inputs":[{"name":"from","type":"address","indexed":true,"internalType":"address"},{"name":"dst","type":"address","indexed":true,"internalType":"address"},{"name":"amount","type":"uint256","indexed":false,"internalType":"uint256"}],"anonymous":false}],"bytecode":{"object":"0x60a034609157601f6109e238819003918201601f19168301916001600160401b03831184841017609557808492602094604052833981010312609157516001600160a01b03811690819003609157608052670ca485ac5e61800060035563844cb57760045560405161093890816100aa82396080518181816101650152818161031b01528181610551015261068d0152f35b5f80fd5b634e487b7160e01b5f52604160045260245ffdfe6080806040526004361015610012575f80fd5b5f905f3560e01c908163094ee6cc146107c9575080630bc47ad1146107a7578063165bb40b1461078a57806318160ddd1461076d57806327e235e3146106285780632f73e89d1461074857806337d151391461071157806364288cfe146106e157806367800b5f146106bc5780636f307dc314610678578063704ff35d1461065f57806370a08231146106285780637eb711311461060b5780637ecb8bcf1461053157806381426326146104f45780638aaa54c0146104d6578063905cdbc1146104bb578063d7b7871714610495578063d955759d14610476578063f2b9fdb8146102e8578063f3fef3a3146101305763f828f50b14610110575f80fd5b3461012d578060031936011261012d576020600154604051908152f35b80fd5b503461012d57604036600319011261012d5761014a6107e8565b6024359060ff60025460081c166102b1576001600160a01b037f000000000000000000000000000000000000000000000000000000000000000081169161019391168214610855565b61019e821515610891565b33835282602052816040842054106102755733835282602052604083206101c68382546108f5565b90556101d4826001546108f5565b60015560405163a9059cbb60e01b815233600482015260248101839052906020908290604490829087905af1801561026a5761023d575b5060405190815233907f9b1bfa7fa9ee420a16e124f794c35ac9f90472acc99140eb2f6447c714cad8eb60203392a380f35b61025e9060203d602011610263575b61025681836107fe565b8101906108dd565b61020b565b503d61024c565b6040513d85823e3d90fd5b60405162461bcd60e51b8152602060048201526014602482015273496e73756666696369656e742062616c616e636560601b6044820152606490fd5b60405162461bcd60e51b815260206004820152600f60248201526e15da5d1a191c985dc81c185d5cd959608a1b6044820152606490fd5b503461012d57604036600319011261012d576103026107e8565b6024359060025460ff8116610441576001600160a01b037f000000000000000000000000000000000000000000000000000000000000000081169260ff929161034d91168414610855565b610358841515610891565b60101c1661040c57602083916064604051809481936323b872dd60e01b83523360048401523060248401528760448401525af1801561026a576103ef575b5033825281602052604082206103ad828254610834565b90556103bb81600154610834565b60015560405190815233907fd1cf3d156d5f8f0d50f6c122ed609cec09d35c9b9fb3fff6ea0959134dae424e60203392a380f35b6104079060203d6020116102635761025681836107fe565b610396565b60405162461bcd60e51b815260206004820152600d60248201526c14dd5c1c1b1e4819985a5b1959609a1b6044820152606490fd5b60405162461bcd60e51b815260206004820152600d60248201526c14dd5c1c1b1e481c185d5cd959609a1b6044820152606490fd5b503461012d57602036600319011261012d576020600454604051908152f35b503461012d578060031936011261012d57602060ff60025460081c166040519015158152f35b503461012d57602036600319011261012d5760043560045580f35b503461012d578060031936011261012d576020600354604051908152f35b503461012d57602036600319011261012d5760043580151580910361052d5762ff00006002549160101b169062ff000019161760025580f35b5080fd5b50346106075760403660031901126106075761054b6107e8565b906024357f00000000000000000000000000000000000000000000000000000000000000006001600160a01b0316803b15610607576040516340c10f1960e01b815230600482015260248101839052905f908290604490829084905af180156105fc576105e6575b506105e0919260018060a01b0316835282602052604083206105d6828254610834565b9055600154610834565b60015580f35b6105e092505f6105f5916107fe565b5f916105b3565b6040513d5f823e3d90fd5b5f80fd5b34610607575f366003190112610607576020600354604051908152f35b34610607576020366003190112610607576001600160a01b036106496107e8565b165f525f602052602060405f2054604051908152f35b3461060757602036600319011261060757600435600355005b34610607575f366003190112610607576040517f00000000000000000000000000000000000000000000000000000000000000006001600160a01b03168152602090f35b34610607575f36600319011261060757602060ff60025460081c166040519015158152f35b34610607576020366003190112610607576004358015158091036106075760ff8019600254169116176002555f80f35b34610607576020366003190112610607576004358015158091036106075761ff006002549160081b169061ff001916176002555f80f35b34610607575f36600319011261060757602060ff60025460101c166040519015158152f35b34610607575f366003190112610607576020600154604051908152f35b34610607575f366003190112610607576020600454604051908152f35b34610607575f36600319011261060757602060ff600254166040519015158152f35b34610607575f3660031901126106075760209060ff6002541615158152f35b600435906001600160a01b038216820361060757565b90601f8019910116810190811067ffffffffffffffff82111761082057604052565b634e487b7160e01b5f52604160045260245ffd5b9190820180921161084157565b634e487b7160e01b5f52601160045260245ffd5b1561085c57565b60405162461bcd60e51b815260206004820152600d60248201526c125b9d985b1a5908185cdcd95d609a1b6044820152606490fd5b1561089857565b60405162461bcd60e51b815260206004820152601d60248201527f416d6f756e74206d7573742062652067726561746572207468616e20300000006044820152606490fd5b90816020910312610607575180151581036106075790565b919082039182116108415756fea2646970667358221220451bd5f8fd05fcca7fc07c091cc6a49ab24a53c08dd502e677f09a8fe1733fc664736f6c634300081a0033","linkReferences":{}},"methodIdentifiers":{"_isSupplyPaused()":"094ee6cc","_isWithdrawPaused()":"d7b78717","_supplyShouldFail()":"2f73e89d","addYield(address,uint256)":"7ecb8bcf","balanceOf(address)":"70a08231","balances(address)":"27e235e3","getSupplyRate(uint256)":"d955759d","getUtilization()":"7eb71131","isSupplyPaused()":"0bc47ad1","isWithdrawPaused()":"67800b5f","mockSupplyRate()":"165bb40b","mockUtilization()":"8aaa54c0","setMockSupplyRate(uint256)":"905cdbc1","setMockUtilization(uint256)":"704ff35d","setSupplyPaused(bool)":"64288cfe","setSupplyShouldFail(bool)":"81426326","setWithdrawPaused(bool)":"37d15139","supply(address,uint256)":"f2b9fdb8","totalSupply()":"18160ddd","totalSupplyAmount()":"f828f50b","underlying()":"6f307dc3","withdraw(address,uint256)":"f3fef3a3"},"id":55}