{"abi":[{"type":"constructor","inputs":[{"name":"_usdcToken","type":"address","internalType":"address"}],"stateMutability":"nonpayable"},{"type":"function","name":"accrueInterest","inputs":[],"outputs":[{"name":"","type":"uint256","internalType":"uint256"}],"stateMutability":"nonpayable"},{"type":"function","name":"addYield","inputs":[{"name":"yieldAmount","type":"uint256","internalType":"uint256"}],"outputs":[],"stateMutability":"nonpayable"},{"type":"function","name":"allowance","inputs":[{"name":"","type":"address","internalType":"address"},{"name":"","type":"address","internalType":"address"}],"outputs":[{"name":"","type":"uint256","internalType":"uint256"}],"stateMutability":"view"},{"type":"function","name":"approve","inputs":[{"name":"spender","type":"address","internalType":"address"},{"name":"amount","type":"uint256","internalType":"uint256"}],"outputs":[{"name":"","type":"bool","internalType":"bool"}],"stateMutability":"nonpayable"},{"type":"function","name":"balanceOf","inputs":[{"name":"","type":"address","internalType":"address"}],"outputs":[{"name":"","type":"uint256","internalType":"uint256"}],"stateMutability":"view"},{"type":"function","name":"balanceOfUnderlying","inputs":[{"name":"owner","type":"address","internalType":"address"}],"outputs":[{"name":"","type":"uint256","internalType":"uint256"}],"stateMutability":"view"},{"type":"function","name":"decimals","inputs":[],"outputs":[{"name":"","type":"uint8","internalType":"uint8"}],"stateMutability":"view"},{"type":"function","name":"exchangeRate","inputs":[],"outputs":[{"name":"","type":"uint256","internalType":"uint256"}],"stateMutability":"view"},{"type":"function","name":"exchangeRateCurrent","inputs":[],"outputs":[{"name":"","type":"uint256","internalType":"uint256"}],"stateMutability":"nonpayable"},{"type":"function","name":"exchangeRateStored","inputs":[],"outputs":[{"name":"","type":"uint256","internalType":"uint256"}],"stateMutability":"view"},{"type":"function","name":"getCash","inputs":[],"outputs":[{"name":"","type":"uint256","internalType":"uint256"}],"stateMutability":"view"},{"type":"function","name":"mint","inputs":[{"name":"amount","type":"uint256","internalType":"uint256"}],"outputs":[{"name":"","type":"uint256","internalType":"uint256"}],"stateMutability":"nonpayable"},{"type":"function","name":"name","inputs":[],"outputs":[{"name":"","type":"string","internalType":"string"}],"stateMutability":"view"},{"type":"function","name":"redeem","inputs":[{"name":"cTokenAmount","type":"uint256","internalType":"uint256"}],"outputs":[{"name":"","type":"uint256","internalType":"uint256"}],"stateMutability":"nonpayable"},{"type":"function","name":"redeemUnderlying","inputs":[{"name":"redeemAmount","type":"uint256","internalType":"uint256"}],"outputs":[{"name":"","type":"uint256","internalType":"uint256"}],"stateMutability":"nonpayable"},{"type":"function","name":"supply","inputs":[{"name":"asset","type":"address","internalType":"address"},{"name":"amount","type":"uint256","internalType":"uint256"}],"outputs":[],"stateMutability":"nonpayable"},{"type":"function","name":"symbol","inputs":[],"outputs":[{"name":"","type":"string","internalType":"string"}],"stateMutability":"view"},{"type":"function","name":"totalSupply","inputs":[],"outputs":[{"name":"","type":"uint256","internalType":"uint256"}],"stateMutability":"view"},{"type":"function","name":"transfer","inputs":[{"name":"to","type":"address","internalType":"address"},{"name":"amount","type":"uint256","internalType":"uint256"}],"outputs":[{"name":"","type":"bool","internalType":"bool"}],"stateMutability":"nonpayable"},{"type":"function","name":"transferFrom","inputs":[{"name":"from","type":"address","internalType":"address"},{"name":"to","type":"address","internalType":"address"},{"name":"amount","type":"uint256","internalType":"uint256"}],"outputs":[{"name":"","type":"bool","internalType":"bool"}],"stateMutability":"nonpayable"},{"type":"function","name":"usdcToken","inputs":[],"outputs":[{"name":"","type":"address","internalType":"address"}],"stateMutability":"view"},{"type":"function","name":"withdraw","inputs":[{"name":"asset","type":"address","internalType":"address"},{"name":"amount","type":"uint256","internalType":"uint256"}],"outputs":[],"stateMutability":"nonpayable"},{"type":"event","name":"Approval","inputs":[{"name":"owner","type":"address","indexed":true,"internalType":"address"},{"name":"spender","type":"address","indexed":true,"internalType":"address"},{"name":"value","type":"uint256","indexed":false,"internalType":"uint256"}],"anonymous":false},{"type":"event","name":"Transfer","inputs":[{"name":"from","type":"address","indexed":true,"internalType":"address"},{"name":"to","type":"address","indexed":true,"internalType":"address"},{"name":"value","type":"uint256","indexed":false,"internalType":"uint256"}],"anonymous":false}],"bytecode":{"object":"0x60e0604052600b60a09081526a26b7b1b59031aa37b5b2b760a91b60c0526000906200002c90826200015b565b5060408051808201909152600781526636b1aa27a5a2a760c91b60208201526001906200005a90826200015b565b506002805460ff19166008179055670de0b6b3a76400006006553480156200008157600080fd5b50604051620018b2380380620018b2833981016040819052620000a49162000227565b6001600160a01b031660805262000259565b634e487b7160e01b600052604160045260246000fd5b600181811c90821680620000e157607f821691505b6020821081036200010257634e487b7160e01b600052602260045260246000fd5b50919050565b601f8211156200015657600081815260208120601f850160051c81016020861015620001315750805b601f850160051c820191505b8181101562000152578281556001016200013d565b5050505b505050565b81516001600160401b03811115620001775762000177620000b6565b6200018f81620001888454620000cc565b8462000108565b602080601f831160018114620001c75760008415620001ae5750858301515b600019600386901b1c1916600185901b17855562000152565b600085815260208120601f198616915b82811015620001f857888601518255948401946001909101908401620001d7565b5085821015620002175787850151600019600388901b60f8161c191681555b5050505050600190811b01905550565b6000602082840312156200023a57600080fd5b81516001600160a01b03811681146200025257600080fd5b9392505050565b6080516115db620002d76000396000818161018d015281816106410152818161078a01528181610811015281816108bc015281816109f801528181610d3401528181610dbb01528181610e6601528181610e9f01528181610fc00152818161103d015281816111810152818161120801526112b301526115db6000f3fe608060405234801561001057600080fd5b50600436106101425760003560e01c8063852a12e3116100b8578063bd6d894d1161007c578063bd6d894d146101de578063c8b2b546146102a4578063db006a75146102b9578063dd62ed3e146102cc578063f2b9fdb8146102f7578063f3fef3a31461030a57600080fd5b8063852a12e31461025c57806395d89b411461026f578063a0712d6814610277578063a6afed951461028a578063a9059cbb1461029157600080fd5b806323b872dd1161010a57806323b872dd146101e6578063313ce567146101f95780633af9e669146102185780633b1d21a21461022b5780633ba0b9a91461023357806370a082311461023c57600080fd5b806306fdde0314610147578063095ea7b31461016557806311eac8551461018857806318160ddd146101c7578063182df0f5146101de575b600080fd5b61014f61031d565b60405161015c919061132f565b60405180910390f35b610178610173366004611399565b6103ab565b604051901515815260200161015c565b6101af7f000000000000000000000000000000000000000000000000000000000000000081565b6040516001600160a01b03909116815260200161015c565b6101d060035481565b60405190815260200161015c565b6006546101d0565b6101786101f43660046113c3565b610418565b6002546102069060ff1681565b60405160ff909116815260200161015c565b6101d06102263660046113ff565b6105ed565b6101d0610629565b6101d060065481565b6101d061024a3660046113ff565b60046020526000908152604090205481565b6101d061026a366004611421565b6106b9565b61014f61093d565b6101d0610285366004611421565b61094a565b60006101d0565b61017861029f366004611399565b610a77565b6102b76102b2366004611421565b610b75565b005b6101d06102c7366004611421565b610c63565b6101d06102da36600461143a565b600560209081526000928352604080842090915290825290205481565b6102b7610305366004611399565b610e9d565b6102b7610318366004611399565b61103b565b6000805461032a9061146d565b80601f01602080910402602001604051908101604052809291908181526020018280546103569061146d565b80156103a35780601f10610378576101008083540402835291602001916103a3565b820191906000526020600020905b81548152906001019060200180831161038657829003601f168201915b505050505081565b3360008181526005602090815260408083206001600160a01b038716808552925280832085905551919290917f8c5be1e5ebec7d5bd14f71427d1e84f3dd0314c0f7b2291e5b200ac8c7c3b925906104069086815260200190565b60405180910390a35060015b92915050565b60006001600160a01b0383166104705760405162461bcd60e51b81526020600482015260186024820152775472616e7366657220746f207a65726f206164647265737360401b60448201526064015b60405180910390fd5b6001600160a01b0384166000908152600460205260409020548211156104a85760405162461bcd60e51b8152600401610467906114a7565b6001600160a01b03841660009081526005602090815260408083203384529091529020548211156105145760405162461bcd60e51b8152602060048201526016602482015275496e73756666696369656e7420616c6c6f77616e636560501b6044820152606401610467565b6001600160a01b0384166000908152600460205260408120805484929061053c9084906114eb565b90915550506001600160a01b038316600090815260046020526040812080548492906105699084906114fe565b90915550506001600160a01b0384166000908152600560209081526040808320338452909152812080548492906105a19084906114eb565b92505081905550826001600160a01b0316846001600160a01b0316600080516020611586833981519152846040516105db91815260200190565b60405180910390a35060019392505050565b6006546001600160a01b0382166000908152600460205260408120549091670de0b6b3a76400009161061f9190611511565b6104129190611528565b6040516370a0823160e01b81523060048201526000907f00000000000000000000000000000000000000000000000000000000000000006001600160a01b0316906370a0823190602401602060405180830381865afa158015610690573d6000803e3d6000fd5b505050506040513d601f19601f820116820180604052508101906106b4919061154a565b905090565b60008060065483670de0b6b3a76400006106d39190611511565b6106dd9190611528565b3360009081526004602052604090205490915081111561070f5760405162461bcd60e51b8152600401610467906114a7565b336000908152600460205260408120805483929061072e9084906114eb565b92505081905550806003600082825461074791906114eb565b909155505060405181815260009033906000805160206115868339815191529060200160405180910390a36040516370a0823160e01b81523060048201526000907f00000000000000000000000000000000000000000000000000000000000000006001600160a01b0316906370a0823190602401602060405180830381865afa1580156107d9573d6000803e3d6000fd5b505050506040513d601f19601f820116820180604052508101906107fd919061154a565b9050838110156108a0576001600160a01b037f0000000000000000000000000000000000000000000000000000000000000000166340c10f193061084184886114eb565b6040516001600160e01b031960e085901b1681526001600160a01b0390921660048301526024820152604401600060405180830381600087803b15801561088757600080fd5b505af115801561089b573d6000803e3d6000fd5b505050505b60405163a9059cbb60e01b8152336004820152602481018590527f00000000000000000000000000000000000000000000000000000000000000006001600160a01b03169063a9059cbb906044015b6020604051808303816000875af115801561090e573d6000803e3d6000fd5b505050506040513d601f19601f820116820180604052508101906109329190611563565b506000949350505050565b6001805461032a9061146d565b60008060065483670de0b6b3a76400006109649190611511565b61096e9190611528565b336000908152600460205260408120805492935083929091906109929084906114fe565b9250508190555080600360008282546109ab91906114fe565b909155505060405181815233906000906000805160206115868339815191529060200160405180910390a36040516323b872dd60e01b8152336004820152306024820152604481018490527f00000000000000000000000000000000000000000000000000000000000000006001600160a01b0316906323b872dd906064016020604051808303816000875af1158015610a49573d6000803e3d6000fd5b505050506040513d601f19601f82011682018060405250810190610a6d9190611563565b5060009392505050565b60006001600160a01b038316610aca5760405162461bcd60e51b81526020600482015260186024820152775472616e7366657220746f207a65726f206164647265737360401b6044820152606401610467565b33600090815260046020526040902054821115610af95760405162461bcd60e51b8152600401610467906114a7565b3360009081526004602052604081208054849290610b189084906114eb565b90915550506001600160a01b03831660009081526004602052604081208054849290610b459084906114fe565b90915550506040518281526001600160a01b03841690339060008051602061158683398151915290602001610406565b600654600090610b8d83670de0b6b3a7640000611511565b610b979190611528565b33600090815260046020526040812080549293508392909190610bbb9084906114fe565b925050819055508060036000828254610bd491906114fe565b909155505060405181815233906000906000805160206115868339815191529060200160405180910390a36000670de0b6b3a7640000600654600354610c1a9190611511565b610c249190611528565b9050610c3083826114fe565b60035490915015610c5e57600354610c5082670de0b6b3a7640000611511565b610c5a9190611528565b6006555b505050565b600080670de0b6b3a764000060065484610c7d9190611511565b610c879190611528565b33600090815260046020526040902054909150831115610cb95760405162461bcd60e51b8152600401610467906114a7565b3360009081526004602052604081208054859290610cd89084906114eb565b925050819055508260036000828254610cf191906114eb565b909155505060405183815260009033906000805160206115868339815191529060200160405180910390a36040516370a0823160e01b81523060048201526000907f00000000000000000000000000000000000000000000000000000000000000006001600160a01b0316906370a0823190602401602060405180830381865afa158015610d83573d6000803e3d6000fd5b505050506040513d601f19601f82011682018060405250810190610da7919061154a565b905081811015610e4a576001600160a01b037f0000000000000000000000000000000000000000000000000000000000000000166340c10f1930610deb84866114eb565b6040516001600160e01b031960e085901b1681526001600160a01b0390921660048301526024820152604401600060405180830381600087803b158015610e3157600080fd5b505af1158015610e45573d6000803e3d6000fd5b505050505b60405163a9059cbb60e01b8152336004820152602481018390527f00000000000000000000000000000000000000000000000000000000000000006001600160a01b03169063a9059cbb906044016108ef565b7f00000000000000000000000000000000000000000000000000000000000000006001600160a01b0316826001600160a01b031614610f145760405162461bcd60e51b815260206004820152601360248201527213db9b1e481554d110c81cdd5c1c1bdc9d1959606a1b6044820152606401610467565b600654600090610f2c83670de0b6b3a7640000611511565b610f369190611528565b33600090815260046020526040812080549293508392909190610f5a9084906114fe565b925050819055508060036000828254610f7391906114fe565b909155505060405181815233906000906000805160206115868339815191529060200160405180910390a36040516323b872dd60e01b8152336004820152306024820152604481018390527f00000000000000000000000000000000000000000000000000000000000000006001600160a01b0316906323b872dd906064016020604051808303816000875af1158015611011573d6000803e3d6000fd5b505050506040513d601f19601f820116820180604052508101906110359190611563565b50505050565b7f00000000000000000000000000000000000000000000000000000000000000006001600160a01b0316826001600160a01b0316146110b25760405162461bcd60e51b815260206004820152601360248201527213db9b1e481554d110c81cdd5c1c1bdc9d1959606a1b6044820152606401610467565b6006546000906110ca83670de0b6b3a7640000611511565b6110d49190611528565b336000908152600460205260409020549091508111156111065760405162461bcd60e51b8152600401610467906114a7565b33600090815260046020526040812080548392906111259084906114eb565b92505081905550806003600082825461113e91906114eb565b909155505060405181815260009033906000805160206115868339815191529060200160405180910390a36040516370a0823160e01b81523060048201526000907f00000000000000000000000000000000000000000000000000000000000000006001600160a01b0316906370a0823190602401602060405180830381865afa1580156111d0573d6000803e3d6000fd5b505050506040513d601f19601f820116820180604052508101906111f4919061154a565b905082811015611297576001600160a01b037f0000000000000000000000000000000000000000000000000000000000000000166340c10f193061123884876114eb565b6040516001600160e01b031960e085901b1681526001600160a01b0390921660048301526024820152604401600060405180830381600087803b15801561127e57600080fd5b505af1158015611292573d6000803e3d6000fd5b505050505b60405163a9059cbb60e01b8152336004820152602481018490527f00000000000000000000000000000000000000000000000000000000000000006001600160a01b03169063a9059cbb906044016020604051808303816000875af1158015611304573d6000803e3d6000fd5b505050506040513d601f19601f820116820180604052508101906113289190611563565b5050505050565b600060208083528351808285015260005b8181101561135c57858101830151858201604001528201611340565b506000604082860101526040601f19601f8301168501019250505092915050565b80356001600160a01b038116811461139457600080fd5b919050565b600080604083850312156113ac57600080fd5b6113b58361137d565b946020939093013593505050565b6000806000606084860312156113d857600080fd5b6113e18461137d565b92506113ef6020850161137d565b9150604084013590509250925092565b60006020828403121561141157600080fd5b61141a8261137d565b9392505050565b60006020828403121561143357600080fd5b5035919050565b6000806040838503121561144d57600080fd5b6114568361137d565b91506114646020840161137d565b90509250929050565b600181811c9082168061148157607f821691505b6020821081036114a157634e487b7160e01b600052602260045260246000fd5b50919050565b602080825260149082015273496e73756666696369656e742062616c616e636560601b604082015260600190565b634e487b7160e01b600052601160045260246000fd5b81810381811115610412576104126114d5565b80820180821115610412576104126114d5565b8082028115828204841417610412576104126114d5565b60008261154557634e487b7160e01b600052601260045260246000fd5b500490565b60006020828403121561155c57600080fd5b5051919050565b60006020828403121561157557600080fd5b8151801515811461141a57600080fdfeddf252ad1be2c89b69c2b068fc378daa952ba7f163c4a11628f55a4df523b3efa264697066735822122077d25d50d3c98847e3b034fc73e455b5c49fe50abe0696ac010663d3ebdb033c64736f6c63430008140033","linkReferences":{}},"methodIdentifiers":{"accrueInterest()":"a6afed95","addYield(uint256)":"c8b2b546","allowance(address,address)":"dd62ed3e","approve(address,uint256)":"095ea7b3","balanceOf(address)":"70a08231","balanceOfUnderlying(address)":"3af9e669","decimals()":"313ce567","exchangeRate()":"3ba0b9a9","exchangeRateCurrent()":"bd6d894d","exchangeRateStored()":"182df0f5","getCash()":"3b1d21a2","mint(uint256)":"a0712d68","name()":"06fdde03","redeem(uint256)":"db006a75","redeemUnderlying(uint256)":"852a12e3","supply(address,uint256)":"f2b9fdb8","symbol()":"95d89b41","totalSupply()":"18160ddd","transfer(address,uint256)":"a9059cbb","transferFrom(address,address,uint256)":"23b872dd","usdcToken()":"11eac855","withdraw(address,uint256)":"f3fef3a3"},"id":31}