{"abi":[{"type":"constructor","inputs":[],"stateMutability":"nonpayable"},{"type":"function","name":"_addCompMarkets","inputs":[{"name":"","type":"address[]","internalType":"address[]"}],"outputs":[],"stateMutability":"nonpayable"},{"type":"function","name":"_become","inputs":[{"name":"","type":"address","internalType":"address"}],"outputs":[],"stateMutability":"nonpayable"},{"type":"function","name":"_deployMarket","inputs":[{"name":"","type":"bytes","internalType":"bytes"},{"name":"","type":"bool","internalType":"bool"}],"outputs":[{"name":"","type":"uint256","internalType":"uint256"}],"stateMutability":"pure"},{"type":"function","name":"_dropCompMarket","inputs":[{"name":"","type":"address","internalType":"address"}],"outputs":[],"stateMutability":"nonpayable"},{"type":"function","name":"_setBorrowCap","inputs":[{"name":"","type":"address","internalType":"address"},{"name":"","type":"uint256","internalType":"uint256"}],"outputs":[{"name":"","type":"uint256","internalType":"uint256"}],"stateMutability":"pure"},{"type":"function","name":"_setBorrowPaused","inputs":[{"name":"","type":"address","internalType":"address"},{"name":"","type":"bool","internalType":"bool"}],"outputs":[{"name":"","type":"bool","internalType":"bool"}],"stateMutability":"pure"},{"type":"function","name":"_setCloseFactor","inputs":[{"name":"","type":"uint256","internalType":"uint256"}],"outputs":[{"name":"","type":"uint256","internalType":"uint256"}],"stateMutability":"pure"},{"type":"function","name":"_setCollateralFactor","inputs":[{"name":"","type":"address","internalType":"address"},{"name":"","type":"uint256","internalType":"uint256"}],"outputs":[{"name":"","type":"uint256","internalType":"uint256"}],"stateMutability":"pure"},{"type":"function","name":"_setCompBorrowerRewardsDistributor","inputs":[{"name":"","type":"address","internalType":"address"}],"outputs":[],"stateMutability":"nonpayable"},{"type":"function","name":"_setCompBorrowerRewardsDistributorAndCompSupplierRewardsDistributor","inputs":[{"name":"","type":"address","internalType":"address"},{"name":"","type":"address","internalType":"address"}],"outputs":[],"stateMutability":"nonpayable"},{"type":"function","name":"_setCompGrantor","inputs":[{"name":"","type":"address","internalType":"address"}],"outputs":[],"stateMutability":"nonpayable"},{"type":"function","name":"_setCompRate","inputs":[{"name":"","type":"uint256","internalType":"uint256"}],"outputs":[],"stateMutability":"nonpayable"},{"type":"function","name":"_setCompRateAndCompBorrowerRewardsDistributor","inputs":[{"name":"","type":"uint256","internalType":"uint256"},{"name":"","type":"address","internalType":"address"}],"outputs":[],"stateMutability":"nonpayable"},{"type":"function","name":"_setCompRateAndCompBorrowerRewardsDistributorAndCompSupplierRewardsDistributor","inputs":[{"name":"","type":"uint256","internalType":"uint256"},{"name":"","type":"address","internalType":"address"},{"name":"","type":"address","internalType":"address"}],"outputs":[],"stateMutability":"nonpayable"},{"type":"function","name":"_setCompRateAndCompSupplierRewardsDistributor","inputs":[{"name":"","type":"uint256","internalType":"uint256"},{"name":"","type":"address","internalType":"address"}],"outputs":[],"stateMutability":"nonpayable"},{"type":"function","name":"_setCompSpeed","inputs":[{"name":"","type":"address","internalType":"address"},{"name":"","type":"uint256","internalType":"uint256"}],"outputs":[],"stateMutability":"nonpayable"},{"type":"function","name":"_setCompSupplierRewardsDistributor","inputs":[{"name":"","type":"address","internalType":"address"}],"outputs":[],"stateMutability":"nonpayable"},{"type":"function","name":"_setInterestRateModel","inputs":[{"name":"","type":"address","internalType":"address"},{"name":"","type":"address","internalType":"address"}],"outputs":[{"name":"","type":"uint256","internalType":"uint256"}],"stateMutability":"pure"},{"type":"function","name":"_setLiquidationIncentive","inputs":[{"name":"","type":"uint256","internalType":"uint256"}],"outputs":[{"name":"","type":"uint256","internalType":"uint256"}],"stateMutability":"pure"},{"type":"function","name":"_setMaxAssets","inputs":[{"name":"","type":"uint256","internalType":"uint256"}],"outputs":[{"name":"","type":"uint256","internalType":"uint256"}],"stateMutability":"pure"},{"type":"function","name":"_setMintPaused","inputs":[{"name":"","type":"address","internalType":"address"},{"name":"","type":"bool","internalType":"bool"}],"outputs":[{"name":"","type":"bool","internalType":"bool"}],"stateMutability":"pure"},{"type":"function","name":"_setPauseGuardian","inputs":[{"name":"","type":"address","internalType":"address"}],"outputs":[{"name":"","type":"uint256","internalType":"uint256"}],"stateMutability":"pure"},{"type":"function","name":"_setPriceOracle","inputs":[{"name":"","type":"address","internalType":"address"}],"outputs":[{"name":"","type":"uint256","internalType":"uint256"}],"stateMutability":"pure"},{"type":"function","name":"_setReserveFactor","inputs":[{"name":"","type":"address","internalType":"address"},{"name":"","type":"uint256","internalType":"uint256"}],"outputs":[{"name":"","type":"uint256","internalType":"uint256"}],"stateMutability":"pure"},{"type":"function","name":"_setSeizePaused","inputs":[{"name":"","type":"bool","internalType":"bool"}],"outputs":[{"name":"","type":"bool","internalType":"bool"}],"stateMutability":"pure"},{"type":"function","name":"_setSupplyCap","inputs":[{"name":"","type":"address","internalType":"address"},{"name":"","type":"uint256","internalType":"uint256"}],"outputs":[{"name":"","type":"uint256","internalType":"uint256"}],"stateMutability":"pure"},{"type":"function","name":"_setTransferPaused","inputs":[{"name":"","type":"bool","internalType":"bool"}],"outputs":[{"name":"","type":"bool","internalType":"bool"}],"stateMutability":"pure"},{"type":"function","name":"_supportMarket","inputs":[{"name":"","type":"address","internalType":"address"}],"outputs":[{"name":"","type":"uint256","internalType":"uint256"}],"stateMutability":"pure"},{"type":"function","name":"borrowAllowed","inputs":[{"name":"","type":"address","internalType":"address"},{"name":"","type":"address","internalType":"address"},{"name":"","type":"uint256","internalType":"uint256"}],"outputs":[{"name":"","type":"uint256","internalType":"uint256"}],"stateMutability":"pure"},{"type":"function","name":"borrowVerify","inputs":[{"name":"","type":"address","internalType":"address"},{"name":"","type":"address","internalType":"address"},{"name":"","type":"uint256","internalType":"uint256"}],"outputs":[],"stateMutability":"nonpayable"},{"type":"function","name":"enterMarkets","inputs":[{"name":"cTokens","type":"address[]","internalType":"address[]"}],"outputs":[{"name":"","type":"uint256[]","internalType":"uint256[]"}],"stateMutability":"nonpayable"},{"type":"function","name":"exitMarket","inputs":[{"name":"cToken","type":"address","internalType":"address"}],"outputs":[{"name":"","type":"uint256","internalType":"uint256"}],"stateMutability":"nonpayable"},{"type":"function","name":"getAccountLiquidity","inputs":[{"name":"","type":"address","internalType":"address"}],"outputs":[{"name":"","type":"uint256","internalType":"uint256"},{"name":"","type":"uint256","internalType":"uint256"},{"name":"","type":"uint256","internalType":"uint256"}],"stateMutability":"pure"},{"type":"function","name":"getAllMarkets","inputs":[],"outputs":[{"name":"","type":"address[]","internalType":"address[]"}],"stateMutability":"pure"},{"type":"function","name":"getAssetsIn","inputs":[{"name":"","type":"address","internalType":"address"}],"outputs":[{"name":"","type":"address[]","internalType":"address[]"}],"stateMutability":"pure"},{"type":"function","name":"getCompAddress","inputs":[],"outputs":[{"name":"","type":"address","internalType":"address"}],"stateMutability":"pure"},{"type":"function","name":"getHypotheticalAccountLiquidity","inputs":[{"name":"","type":"address","internalType":"address"},{"name":"","type":"address","internalType":"address"},{"name":"","type":"uint256","internalType":"uint256"},{"name":"","type":"uint256","internalType":"uint256"}],"outputs":[{"name":"","type":"uint256","internalType":"uint256"},{"name":"","type":"uint256","internalType":"uint256"},{"name":"","type":"uint256","internalType":"uint256"}],"stateMutability":"pure"},{"type":"function","name":"isComptroller","inputs":[],"outputs":[{"name":"","type":"bool","internalType":"bool"}],"stateMutability":"pure"},{"type":"function","name":"isMarketListed","inputs":[{"name":"cToken","type":"address","internalType":"address"}],"outputs":[{"name":"","type":"bool","internalType":"bool"}],"stateMutability":"view"},{"type":"function","name":"liquidateBorrowAllowed","inputs":[{"name":"","type":"address","internalType":"address"},{"name":"","type":"address","internalType":"address"},{"name":"","type":"address","internalType":"address"},{"name":"","type":"address","internalType":"address"},{"name":"","type":"uint256","internalType":"uint256"}],"outputs":[{"name":"","type":"uint256","internalType":"uint256"}],"stateMutability":"pure"},{"type":"function","name":"liquidateBorrowVerify","inputs":[{"name":"","type":"address","internalType":"address"},{"name":"","type":"address","internalType":"address"},{"name":"","type":"address","internalType":"address"},{"name":"","type":"address","internalType":"address"},{"name":"","type":"uint256","internalType":"uint256"},{"name":"","type":"uint256","internalType":"uint256"}],"outputs":[],"stateMutability":"nonpayable"},{"type":"function","name":"liquidateCalculateSeizeTokens","inputs":[{"name":"","type":"address","internalType":"address"},{"name":"","type":"address","internalType":"address"},{"name":"","type":"uint256","internalType":"uint256"}],"outputs":[{"name":"","type":"uint256","internalType":"uint256"},{"name":"","type":"uint256","internalType":"uint256"}],"stateMutability":"pure"},{"type":"function","name":"liquidateSeizeCalculateAmount","inputs":[{"name":"","type":"address","internalType":"address"},{"name":"","type":"address","internalType":"address"},{"name":"","type":"uint256","internalType":"uint256"}],"outputs":[{"name":"","type":"uint256","internalType":"uint256"},{"name":"","type":"uint256","internalType":"uint256"}],"stateMutability":"pure"},{"type":"function","name":"marketListed","inputs":[{"name":"","type":"address","internalType":"address"}],"outputs":[{"name":"","type":"bool","internalType":"bool"}],"stateMutability":"view"},{"type":"function","name":"mintAllowed","inputs":[{"name":"","type":"address","internalType":"address"},{"name":"","type":"address","internalType":"address"},{"name":"","type":"uint256","internalType":"uint256"}],"outputs":[{"name":"","type":"uint256","internalType":"uint256"}],"stateMutability":"pure"},{"type":"function","name":"mintVerify","inputs":[{"name":"","type":"address","internalType":"address"},{"name":"","type":"address","internalType":"address"},{"name":"","type":"uint256","internalType":"uint256"},{"name":"","type":"uint256","internalType":"uint256"}],"outputs":[],"stateMutability":"nonpayable"},{"type":"function","name":"redeemAllowed","inputs":[{"name":"","type":"address","internalType":"address"},{"name":"","type":"address","internalType":"address"},{"name":"","type":"uint256","internalType":"uint256"}],"outputs":[{"name":"","type":"uint256","internalType":"uint256"}],"stateMutability":"pure"},{"type":"function","name":"redeemVerify","inputs":[{"name":"","type":"address","internalType":"address"},{"name":"","type":"address","internalType":"address"},{"name":"","type":"uint256","internalType":"uint256"},{"name":"","type":"uint256","internalType":"uint256"}],"outputs":[],"stateMutability":"nonpayable"},{"type":"function","name":"repayBorrowAllowed","inputs":[{"name":"","type":"address","internalType":"address"},{"name":"","type":"address","internalType":"address"},{"name":"","type":"address","internalType":"address"},{"name":"","type":"uint256","internalType":"uint256"}],"outputs":[{"name":"","type":"uint256","internalType":"uint256"}],"stateMutability":"pure"},{"type":"function","name":"repayBorrowVerify","inputs":[{"name":"","type":"address","internalType":"address"},{"name":"","type":"address","internalType":"address"},{"name":"","type":"address","internalType":"address"},{"name":"","type":"uint256","internalType":"uint256"},{"name":"","type":"uint256","internalType":"uint256"}],"outputs":[],"stateMutability":"nonpayable"},{"type":"function","name":"seizeAllowed","inputs":[{"name":"","type":"address","internalType":"address"},{"name":"","type":"address","internalType":"address"},{"name":"","type":"address","internalType":"address"},{"name":"","type":"address","internalType":"address"},{"name":"","type":"uint256","internalType":"uint256"}],"outputs":[{"name":"","type":"uint256","internalType":"uint256"}],"stateMutability":"pure"},{"type":"function","name":"seizeVerify","inputs":[{"name":"","type":"address","internalType":"address"},{"name":"","type":"address","internalType":"address"},{"name":"","type":"address","internalType":"address"},{"name":"","type":"address","internalType":"address"},{"name":"","type":"uint256","internalType":"uint256"}],"outputs":[],"stateMutability":"nonpayable"},{"type":"function","name":"transferAllowed","inputs":[{"name":"","type":"address","internalType":"address"},{"name":"","type":"address","internalType":"address"},{"name":"","type":"address","internalType":"address"},{"name":"","type":"uint256","internalType":"uint256"}],"outputs":[{"name":"","type":"uint256","internalType":"uint256"}],"stateMutability":"pure"},{"type":"function","name":"transferVerify","inputs":[{"name":"","type":"address","internalType":"address"},{"name":"","type":"address","internalType":"address"},{"name":"","type":"address","internalType":"address"},{"name":"","type":"uint256","internalType":"uint256"}],"outputs":[],"stateMutability":"nonpayable"}],"bytecode":{"object":"0x608060405234801561001057600080fd5b50610c9d806100206000396000f3fe608060405234801561001057600080fd5b50600436106103415760003560e01c80635fc7e71e116101b8578063bdcdc25811610104578063d9226ced116100a2578063e960f0381161007c578063e960f0381461059f578063eabe7d91146104e4578063ede4edd01461063a578063f1f21f79146103a757600080fd5b8063d9226ced1461040d578063da3d454c146104e4578063e4028eee1461059f57600080fd5b8063c62d8e58116100de578063c62d8e581461061e578063ce485c5e1461062c578063cf791c63146103a7578063d02f73511461054e57600080fd5b8063bdcdc258146103cf578063c2998238146105fe578063c488847b1461041b57600080fd5b80638ebf636411610171578063a76b3fda1161014b578063a76b3fda14610515578063abfceffc146105bc578063afe54cd41461059f578063b0772d0b146105ea57600080fd5b80638ebf6364146103f9578063985490a4146103a75780639d1b5a0a146105ad57600080fd5b80635fc7e71e1461054e5780636a491112146105675780636a56947e146105755780636d35bf9114610583578063776f26071461059157806380a3d6cf1461059f57600080fd5b80633bcf7ec1116102925780634fd42e171161023057806355ee1fe11161020a57806355ee1fe1146105155780635c778605146105235780635ec88c79146105365780635f5af1aa1461051557600080fd5b80634fd42e171461040d578063517210f6146104f257806351dff9891461047557600080fd5b8063434caf251161026c578063434caf251461048957806347ef3b3b146104975780634e79238f146104ad5780634ef4c3e1146104e457600080fd5b80633bcf7ec1146103995780633d98a1e51461044957806341c728b91461047557600080fd5b806324008a62116102ff5780632d70db78116102d95780632d70db78146103f9578063317b0b771461040d5780633932c7741461041b5780633aa729b4146103a757600080fd5b806324008a62146103cf57806324de2426146103e75780632b8d020e146103e757600080fd5b80627e3dd214610346578063081ad1cc1461035e578063089eca7b1461038257806318c882a5146103995780631d504dc6146103a75780631ededc91146103ba575b600080fd5b60015b60405190151581526020015b60405180910390f35b61037461036c366004610776565b600092915050565b604051908152602001610355565b6103746103903660046107b9565b60009392505050565b61034961036c36600461083a565b6103b86103b5366004610864565b50565b005b6103b86103c8366004610886565b5050505050565b6103746103dd3660046108db565b6000949350505050565b6103b86103f5366004610926565b5050565b610349610407366004610949565b50600090565b610374610407366004610964565b61043461042936600461097d565b600080935093915050565b60408051928352602083019190915201610355565b610349610457366004610864565b6001600160a01b031660009081526020819052604090205460ff1690565b6103b86104833660046109b9565b50505050565b6103b86103f53660046109fb565b6103b86104a5366004610a25565b505050505050565b6104c96104bb3660046109b9565b600080809450945094915050565b60408051938452602084019290925290820152606001610355565b61037461039036600461097d565b610349610500366004610864565b60006020819052908152604090205460ff1681565b610374610407366004610864565b6103b861053136600461097d565b505050565b6104c9610544366004610864565b5060009081908190565b61037461055c366004610a8b565b600095945050505050565b6103b86103b5366004610964565b6103b86104833660046108db565b6103b86103c8366004610a8b565b6103b86103f5366004610776565b61037461036c3660046109fb565b60405160008152602001610355565b6105dd6105ca366004610864565b5060408051600081526020810190915290565b6040516103559190610ae7565b6040805160008152602081019091526105dd565b61061161060c366004610b34565b61066a565b6040516103559190610ba9565b6103b8610531366004610be1565b6103b86103f5366004610b34565b610374610648366004610864565b6001600160a01b03166000908152602081905260408120805460ff1916905590565b606060008267ffffffffffffffff81111561068757610687610c14565b6040519080825280602002602001820160405280156106b0578160200160208202803683370190505b50905060005b838110156107525760016000808787858181106106d5576106d5610c2a565b90506020020160208101906106ea9190610864565b6001600160a01b03166001600160a01b0316815260200190815260200160002060006101000a81548160ff021916908315150217905550600082828151811061073557610735610c2a565b60209081029190910101528061074a81610c40565b9150506106b6565b509392505050565b80356001600160a01b038116811461077157600080fd5b919050565b6000806040838503121561078957600080fd5b6107928361075a565b91506107a06020840161075a565b90509250929050565b8035801515811461077157600080fd5b6000806000604084860312156107ce57600080fd5b833567ffffffffffffffff808211156107e657600080fd5b818601915086601f8301126107fa57600080fd5b81358181111561080957600080fd5b87602082850101111561081b57600080fd5b60209283019550935061083191860190506107a9565b90509250925092565b6000806040838503121561084d57600080fd5b6108568361075a565b91506107a0602084016107a9565b60006020828403121561087657600080fd5b61087f8261075a565b9392505050565b600080600080600060a0868803121561089e57600080fd5b6108a78661075a565b94506108b56020870161075a565b93506108c36040870161075a565b94979396509394606081013594506080013592915050565b600080600080608085870312156108f157600080fd5b6108fa8561075a565b93506109086020860161075a565b92506109166040860161075a565b9396929550929360600135925050565b6000806040838503121561093957600080fd5b823591506107a06020840161075a565b60006020828403121561095b57600080fd5b61087f826107a9565b60006020828403121561097657600080fd5b5035919050565b60008060006060848603121561099257600080fd5b61099b8461075a565b92506109a96020850161075a565b9150604084013590509250925092565b600080600080608085870312156109cf57600080fd5b6109d88561075a565b93506109e66020860161075a565b93969395505050506040820135916060013590565b60008060408385031215610a0e57600080fd5b610a178361075a565b946020939093013593505050565b60008060008060008060c08789031215610a3e57600080fd5b610a478761075a565b9550610a556020880161075a565b9450610a636040880161075a565b9350610a716060880161075a565b92506080870135915060a087013590509295509295509295565b600080600080600060a08688031215610aa357600080fd5b610aac8661075a565b9450610aba6020870161075a565b9350610ac86040870161075a565b9250610ad66060870161075a565b949793965091946080013592915050565b6020808252825182820181905260009190848201906040850190845b81811015610b285783516001600160a01b031683529284019291840191600101610b03565b50909695505050505050565b60008060208385031215610b4757600080fd5b823567ffffffffffffffff80821115610b5f57600080fd5b818501915085601f830112610b7357600080fd5b813581811115610b8257600080fd5b8660208260051b8501011115610b9757600080fd5b60209290920196919550909350505050565b6020808252825182820181905260009190848201906040850190845b81811015610b2857835183529284019291840191600101610bc5565b600080600060608486031215610bf657600080fd5b83359250610c066020850161075a565b91506108316040850161075a565b634e487b7160e01b600052604160045260246000fd5b634e487b7160e01b600052603260045260246000fd5b600060018201610c6057634e487b7160e01b600052601160045260246000fd5b506001019056fea2646970667358221220b0d52e3e0ef424214f94983d1a0526c28e59d10ca88ef53e0ed1535be749a75b64736f6c63430008140033","linkReferences":{}},"methodIdentifiers":{"_addCompMarkets(address[])":"ce485c5e","_become(address)":"1d504dc6","_deployMarket(bytes,bool)":"089eca7b","_dropCompMarket(address)":"3aa729b4","_setBorrowCap(address,uint256)":"80a3d6cf","_setBorrowPaused(address,bool)":"18c882a5","_setCloseFactor(uint256)":"317b0b77","_setCollateralFactor(address,uint256)":"e4028eee","_setCompBorrowerRewardsDistributor(address)":"cf791c63","_setCompBorrowerRewardsDistributorAndCompSupplierRewardsDistributor(address,address)":"776f2607","_setCompGrantor(address)":"f1f21f79","_setCompRate(uint256)":"6a491112","_setCompRateAndCompBorrowerRewardsDistributor(uint256,address)":"24de2426","_setCompRateAndCompBorrowerRewardsDistributorAndCompSupplierRewardsDistributor(uint256,address,address)":"c62d8e58","_setCompRateAndCompSupplierRewardsDistributor(uint256,address)":"2b8d020e","_setCompSpeed(address,uint256)":"434caf25","_setCompSupplierRewardsDistributor(address)":"985490a4","_setInterestRateModel(address,address)":"081ad1cc","_setLiquidationIncentive(uint256)":"4fd42e17","_setMaxAssets(uint256)":"d9226ced","_setMintPaused(address,bool)":"3bcf7ec1","_setPauseGuardian(address)":"5f5af1aa","_setPriceOracle(address)":"55ee1fe1","_setReserveFactor(address,uint256)":"e960f038","_setSeizePaused(bool)":"2d70db78","_setSupplyCap(address,uint256)":"afe54cd4","_setTransferPaused(bool)":"8ebf6364","_supportMarket(address)":"a76b3fda","borrowAllowed(address,address,uint256)":"da3d454c","borrowVerify(address,address,uint256)":"5c778605","enterMarkets(address[])":"c2998238","exitMarket(address)":"ede4edd0","getAccountLiquidity(address)":"5ec88c79","getAllMarkets()":"b0772d0b","getAssetsIn(address)":"abfceffc","getCompAddress()":"9d1b5a0a","getHypotheticalAccountLiquidity(address,address,uint256,uint256)":"4e79238f","isComptroller()":"007e3dd2","isMarketListed(address)":"3d98a1e5","liquidateBorrowAllowed(address,address,address,address,uint256)":"5fc7e71e","liquidateBorrowVerify(address,address,address,address,uint256,uint256)":"47ef3b3b","liquidateCalculateSeizeTokens(address,address,uint256)":"c488847b","liquidateSeizeCalculateAmount(address,address,uint256)":"3932c774","marketListed(address)":"517210f6","mintAllowed(address,address,uint256)":"4ef4c3e1","mintVerify(address,address,uint256,uint256)":"41c728b9","redeemAllowed(address,address,uint256)":"eabe7d91","redeemVerify(address,address,uint256,uint256)":"51dff989","repayBorrowAllowed(address,address,address,uint256)":"24008a62","repayBorrowVerify(address,address,address,uint256,uint256)":"1ededc91","seizeAllowed(address,address,address,address,uint256)":"d02f7351","seizeVerify(address,address,address,address,uint256)":"6d35bf91","transferAllowed(address,address,address,uint256)":"bdcdc258","transferVerify(address,address,address,uint256)":"6a56947e"},"id":40}