{"abi":[{"type":"constructor","inputs":[{"name":"_underlying","type":"address","internalType":"address"}],"stateMutability":"nonpayable"},{"type":"function","name":"_isSupplyPaused","inputs":[],"outputs":[{"name":"","type":"bool","internalType":"bool"}],"stateMutability":"view"},{"type":"function","name":"_isWithdrawPaused","inputs":[],"outputs":[{"name":"","type":"bool","internalType":"bool"}],"stateMutability":"view"},{"type":"function","name":"addYield","inputs":[{"name":"to","type":"address","internalType":"address"},{"name":"amount","type":"uint256","internalType":"uint256"}],"outputs":[],"stateMutability":"nonpayable"},{"type":"function","name":"balanceOf","inputs":[{"name":"owner","type":"address","internalType":"address"}],"outputs":[{"name":"","type":"uint256","internalType":"uint256"}],"stateMutability":"view"},{"type":"function","name":"balances","inputs":[{"name":"","type":"address","internalType":"address"}],"outputs":[{"name":"","type":"uint256","internalType":"uint256"}],"stateMutability":"view"},{"type":"function","name":"isSupplyPaused","inputs":[],"outputs":[{"name":"","type":"bool","internalType":"bool"}],"stateMutability":"view"},{"type":"function","name":"isWithdrawPaused","inputs":[],"outputs":[{"name":"","type":"bool","internalType":"bool"}],"stateMutability":"view"},{"type":"function","name":"setSupplyPaused","inputs":[{"name":"paused","type":"bool","internalType":"bool"}],"outputs":[],"stateMutability":"nonpayable"},{"type":"function","name":"setWithdrawPaused","inputs":[{"name":"paused","type":"bool","internalType":"bool"}],"outputs":[],"stateMutability":"nonpayable"},{"type":"function","name":"supply","inputs":[{"name":"asset","type":"address","internalType":"address"},{"name":"amount","type":"uint256","internalType":"uint256"}],"outputs":[],"stateMutability":"nonpayable"},{"type":"function","name":"totalSupply","inputs":[],"outputs":[{"name":"","type":"uint256","internalType":"uint256"}],"stateMutability":"view"},{"type":"function","name":"totalSupplyAmount","inputs":[],"outputs":[{"name":"","type":"uint256","internalType":"uint256"}],"stateMutability":"view"},{"type":"function","name":"underlying","inputs":[],"outputs":[{"name":"","type":"address","internalType":"contract IERC20"}],"stateMutability":"view"},{"type":"function","name":"withdraw","inputs":[{"name":"asset","type":"address","internalType":"address"},{"name":"amount","type":"uint256","internalType":"uint256"}],"outputs":[],"stateMutability":"nonpayable"},{"type":"event","name":"Supply","inputs":[{"name":"from","type":"address","indexed":true,"internalType":"address"},{"name":"dst","type":"address","indexed":true,"internalType":"address"},{"name":"amount","type":"uint256","indexed":false,"internalType":"uint256"}],"anonymous":false},{"type":"event","name":"Withdraw","inputs":[{"name":"from","type":"address","indexed":true,"internalType":"address"},{"name":"dst","type":"address","indexed":true,"internalType":"address"},{"name":"amount","type":"uint256","indexed":false,"internalType":"uint256"}],"anonymous":false}],"bytecode":{"object":"0x60a060405234801561001057600080fd5b5060405161098638038061098683398101604081905261002f91610040565b6001600160a01b0316608052610070565b60006020828403121561005257600080fd5b81516001600160a01b038116811461006957600080fd5b9392505050565b6080516108d86100ae600039600081816101ae01528181610281015281816103790152818161045a01528181610595015261070301526108d86000f3fe608060405234801561001057600080fd5b50600436106100ea5760003560e01c80636f307dc31161008c578063d7b7871711610066578063d7b7871714610224578063f2b9fdb814610236578063f3fef3a314610249578063f828f50b1461025c57600080fd5b80636f307dc3146101a957806370a08231146101e85780637ecb8bcf1461021157600080fd5b806327e235e3116100c857806327e235e31461012e57806337d151391461014e57806364288cfe1461017857806367800b5f1461019957600080fd5b8063094ee6cc146100ef5780630bc47ad11461011157806318160ddd1461011c575b600080fd5b6002546100fc9060ff1681565b60405190151581526020015b60405180910390f35b60025460ff166100fc565b6001545b604051908152602001610108565b61012061013c3660046107c9565b60006020819052908152604090205481565b61017661015c3660046107fc565b600280549115156101000261ff0019909216919091179055565b005b6101766101863660046107fc565b6002805460ff1916911515919091179055565b600254610100900460ff166100fc565b6101d07f000000000000000000000000000000000000000000000000000000000000000081565b6040516001600160a01b039091168152602001610108565b6101206101f63660046107c9565b6001600160a01b031660009081526020819052604090205490565b61017661021f366004610819565b610265565b6002546100fc90610100900460ff1681565b610176610244366004610819565b61032f565b610176610257366004610819565b610549565b61012060015481565b6040516340c10f1960e01b8152306004820152602481018290527f00000000000000000000000000000000000000000000000000000000000000006001600160a01b0316906340c10f1990604401600060405180830381600087803b1580156102cd57600080fd5b505af11580156102e1573d6000803e3d6000fd5b505050506001600160a01b0382166000908152602081905260408120805483929061030d908490610859565b9250508190555080600160008282546103269190610859565b90915550505050565b60025460ff16156103775760405162461bcd60e51b815260206004820152600d60248201526c14dd5c1c1b1e481c185d5cd959609a1b60448201526064015b60405180910390fd5b7f00000000000000000000000000000000000000000000000000000000000000006001600160a01b0316826001600160a01b0316146103e85760405162461bcd60e51b815260206004820152600d60248201526c125b9d985b1a5908185cdcd95d609a1b604482015260640161036e565b600081116104385760405162461bcd60e51b815260206004820152601d60248201527f416d6f756e74206d7573742062652067726561746572207468616e2030000000604482015260640161036e565b6040516323b872dd60e01b8152336004820152306024820152604481018290527f00000000000000000000000000000000000000000000000000000000000000006001600160a01b0316906323b872dd906064016020604051808303816000875af11580156104ab573d6000803e3d6000fd5b505050506040513d601f19601f820116820180604052508101906104cf9190610872565b5033600090815260208190526040812080548392906104ef908490610859565b9250508190555080600160008282546105089190610859565b9091555050604051818152339081907fd1cf3d156d5f8f0d50f6c122ed609cec09d35c9b9fb3fff6ea0959134dae424e906020015b60405180910390a35050565b600254610100900460ff16156105935760405162461bcd60e51b815260206004820152600f60248201526e15da5d1a191c985dc81c185d5cd959608a1b604482015260640161036e565b7f00000000000000000000000000000000000000000000000000000000000000006001600160a01b0316826001600160a01b0316146106045760405162461bcd60e51b815260206004820152600d60248201526c125b9d985b1a5908185cdcd95d609a1b604482015260640161036e565b600081116106545760405162461bcd60e51b815260206004820152601d60248201527f416d6f756e74206d7573742062652067726561746572207468616e2030000000604482015260640161036e565b336000908152602081905260409020548111156106aa5760405162461bcd60e51b8152602060048201526014602482015273496e73756666696369656e742062616c616e636560601b604482015260640161036e565b33600090815260208190526040812080548392906106c990849061088f565b9250508190555080600160008282546106e2919061088f565b909155505060405163a9059cbb60e01b8152336004820152602481018290527f00000000000000000000000000000000000000000000000000000000000000006001600160a01b03169063a9059cbb906044016020604051808303816000875af1158015610754573d6000803e3d6000fd5b505050506040513d601f19601f820116820180604052508101906107789190610872565b50604051818152339081907f9b1bfa7fa9ee420a16e124f794c35ac9f90472acc99140eb2f6447c714cad8eb9060200161053d565b80356001600160a01b03811681146107c457600080fd5b919050565b6000602082840312156107db57600080fd5b6107e4826107ad565b9392505050565b80151581146107f957600080fd5b50565b60006020828403121561080e57600080fd5b81356107e4816107eb565b6000806040838503121561082c57600080fd5b610835836107ad565b946020939093013593505050565b634e487b7160e01b600052601160045260246000fd5b8082018082111561086c5761086c610843565b92915050565b60006020828403121561088457600080fd5b81516107e4816107eb565b8181038181111561086c5761086c61084356fea2646970667358221220bc766a2fd76fc117c481677d2c1b15e273fdda6e679dc8c0e5caa931084337d164736f6c63430008140033","linkReferences":{}},"methodIdentifiers":{"_isSupplyPaused()":"094ee6cc","_isWithdrawPaused()":"d7b78717","addYield(address,uint256)":"7ecb8bcf","balanceOf(address)":"70a08231","balances(address)":"27e235e3","isSupplyPaused()":"0bc47ad1","isWithdrawPaused()":"67800b5f","setSupplyPaused(bool)":"64288cfe","setWithdrawPaused(bool)":"37d15139","supply(address,uint256)":"f2b9fdb8","totalSupply()":"18160ddd","totalSupplyAmount()":"f828f50b","underlying()":"6f307dc3","withdraw(address,uint256)":"f3fef3a3"},"id":28}