{"abi":[{"type":"constructor","inputs":[{"name":"_underlying","type":"address","internalType":"address"}],"stateMutability":"nonpayable"},{"type":"function","name":"BASE_INDEX_SCALE","inputs":[],"outputs":[{"name":"","type":"uint64","internalType":"uint64"}],"stateMutability":"view"},{"type":"function","name":"FACTOR_SCALE","inputs":[],"outputs":[{"name":"","type":"uint64","internalType":"uint64"}],"stateMutability":"view"},{"type":"function","name":"SECONDS_PER_YEAR","inputs":[],"outputs":[{"name":"","type":"uint64","internalType":"uint64"}],"stateMutability":"view"},{"type":"function","name":"SUPPLY_RATE_PER_SECOND","inputs":[],"outputs":[{"name":"","type":"uint64","internalType":"uint64"}],"stateMutability":"view"},{"type":"function","name":"_isSupplyPaused","inputs":[],"outputs":[{"name":"","type":"bool","internalType":"bool"}],"stateMutability":"view"},{"type":"function","name":"_isWithdrawPaused","inputs":[],"outputs":[{"name":"","type":"bool","internalType":"bool"}],"stateMutability":"view"},{"type":"function","name":"accrueAccount","inputs":[{"name":"account","type":"address","internalType":"address"}],"outputs":[],"stateMutability":"nonpayable"},{"type":"function","name":"addInterestPayment","inputs":[{"name":"amount","type":"uint256","internalType":"uint256"}],"outputs":[],"stateMutability":"nonpayable"},{"type":"function","name":"balanceOf","inputs":[{"name":"owner","type":"address","internalType":"address"}],"outputs":[{"name":"","type":"uint256","internalType":"uint256"}],"stateMutability":"view"},{"type":"function","name":"baseBorrowIndex","inputs":[],"outputs":[{"name":"","type":"uint64","internalType":"uint64"}],"stateMutability":"view"},{"type":"function","name":"baseSupplyIndex","inputs":[],"outputs":[{"name":"","type":"uint64","internalType":"uint64"}],"stateMutability":"view"},{"type":"function","name":"borrow","inputs":[{"name":"amount","type":"uint256","internalType":"uint256"}],"outputs":[],"stateMutability":"nonpayable"},{"type":"function","name":"borrowerBalances","inputs":[{"name":"","type":"address","internalType":"address"}],"outputs":[{"name":"","type":"uint256","internalType":"uint256"}],"stateMutability":"view"},{"type":"function","name":"isSupplyPaused","inputs":[],"outputs":[{"name":"","type":"bool","internalType":"bool"}],"stateMutability":"view"},{"type":"function","name":"isWithdrawPaused","inputs":[],"outputs":[{"name":"","type":"bool","internalType":"bool"}],"stateMutability":"view"},{"type":"function","name":"lastAccrualTime","inputs":[],"outputs":[{"name":"","type":"uint40","internalType":"uint40"}],"stateMutability":"view"},{"type":"function","name":"principal","inputs":[{"name":"","type":"address","internalType":"address"}],"outputs":[{"name":"","type":"int104","internalType":"int104"}],"stateMutability":"view"},{"type":"function","name":"repay","inputs":[{"name":"amount","type":"uint256","internalType":"uint256"}],"outputs":[],"stateMutability":"nonpayable"},{"type":"function","name":"setPauseStatus","inputs":[{"name":"supplyPaused","type":"bool","internalType":"bool"},{"name":"withdrawPaused","type":"bool","internalType":"bool"}],"outputs":[],"stateMutability":"nonpayable"},{"type":"function","name":"supply","inputs":[{"name":"asset","type":"address","internalType":"address"},{"name":"amount","type":"uint256","internalType":"uint256"}],"outputs":[],"stateMutability":"nonpayable"},{"type":"function","name":"totalBorrow","inputs":[],"outputs":[{"name":"","type":"uint256","internalType":"uint256"}],"stateMutability":"view"},{"type":"function","name":"totalBorrowBase","inputs":[],"outputs":[{"name":"","type":"uint104","internalType":"uint104"}],"stateMutability":"view"},{"type":"function","name":"totalBorrowed","inputs":[],"outputs":[{"name":"","type":"uint256","internalType":"uint256"}],"stateMutability":"view"},{"type":"function","name":"totalSupply","inputs":[],"outputs":[{"name":"","type":"uint256","internalType":"uint256"}],"stateMutability":"view"},{"type":"function","name":"totalSupplyBase","inputs":[],"outputs":[{"name":"","type":"uint104","internalType":"uint104"}],"stateMutability":"view"},{"type":"function","name":"underlying","inputs":[],"outputs":[{"name":"","type":"address","internalType":"contract IERC20"}],"stateMutability":"view"},{"type":"function","name":"withdraw","inputs":[{"name":"asset","type":"address","internalType":"address"},{"name":"amount","type":"uint256","internalType":"uint256"}],"outputs":[],"stateMutability":"nonpayable"},{"type":"event","name":"Borrow","inputs":[{"name":"borrower","type":"address","indexed":true,"internalType":"address"},{"name":"amount","type":"uint256","indexed":false,"internalType":"uint256"}],"anonymous":false},{"type":"event","name":"Repay","inputs":[{"name":"borrower","type":"address","indexed":true,"internalType":"address"},{"name":"amount","type":"uint256","indexed":false,"internalType":"uint256"}],"anonymous":false},{"type":"event","name":"Supply","inputs":[{"name":"from","type":"address","indexed":true,"internalType":"address"},{"name":"dst","type":"address","indexed":true,"internalType":"address"},{"name":"amount","type":"uint256","indexed":false,"internalType":"uint256"}],"anonymous":false},{"type":"event","name":"Transfer","inputs":[{"name":"from","type":"address","indexed":true,"internalType":"address"},{"name":"to","type":"address","indexed":true,"internalType":"address"},{"name":"amount","type":"uint256","indexed":false,"internalType":"uint256"}],"anonymous":false},{"type":"event","name":"Withdraw","inputs":[{"name":"from","type":"address","indexed":true,"internalType":"address"},{"name":"dst","type":"address","indexed":true,"internalType":"address"},{"name":"amount","type":"uint256","indexed":false,"internalType":"uint256"}],"anonymous":false}],"bytecode":{"object":"0x60806040526000805464071afd498d60af1b600160a01b600160e01b0319909116179055600180546001600160401b03191666038d7ea4c6800017905534801561004857600080fd5b50604051611599380380611599833981016040819052610067916100b6565b600080546001600160a01b0319166001600160a01b03929092169190911790556002805464ffffffffff60681b19166d01000000000000000000000000004264ffffffffff16021790556100e6565b6000602082840312156100c857600080fd5b81516001600160a01b03811681146100df57600080fd5b9392505050565b6114a4806100f56000396000f3fe608060405234801561001057600080fd5b50600436106101a95760003560e01c806374471361116100f9578063d7b7871711610097578063e01c15dc11610071578063e01c15dc146103fd578063e6a69ab81461041d578063f2b9fdb814610428578063f3fef3a31461043b57600080fd5b8063d7b78717146103aa578063d7e72708146103bc578063dd66f8b2146103ea57600080fd5b8063b8add2b0116100d3578063b8add2b01461033f578063bfe69c8d14610371578063c05e831914610384578063c5ebeaec1461039757600080fd5b806374471361146103155780638285ef4014610328578063a1fb63451461033057600080fd5b80632ce0f9d6116101665780634d74a6f0116101405780634d74a6f0146102b957806367800b5f146102c75780636f307dc3146102d757806370a082311461030257600080fd5b80632ce0f9d614610265578063371fd8e61461029b5780634c19386c146102b057600080fd5b8063094ee6cc146101ae5780630bc47ad1146101d057806311ea16b6146101db578063172b382f146101fe57806318160ddd14610218578063278cc7a01461022e575b600080fd5b6004546101bb9060ff1681565b60405190151581526020015b60405180910390f35b60045460ff166101bb565b6101e6635e80a46881565b6040516001600160401b0390911681526020016101c7565b6000546101e690600160a01b90046001600160401b031681565b61022061044e565b6040519081526020016101c7565b60015461024d906801000000000000000090046001600160681b031681565b6040516001600160681b0390911681526020016101c7565b6102886102733660046111e2565b600360205260009081526040902054600c0b81565b604051600c9190910b81526020016101c7565b6102ae6102a93660046111fd565b6104a8565b005b61022060065481565b6101e666038d7ea4c6800081565b600454610100900460ff166101bb565b6000546102ea906001600160a01b031681565b6040516001600160a01b0390911681526020016101c7565b6102206103103660046111e2565b61064d565b60025461024d906001600160681b031681565b6102206106b0565b6101e6670de0b6b3a764000081565b6102ae61034d366004611224565b6004805461ffff191692151561ff0019169290921761010091151591909102179055565b6102ae61037f3660046111e2565b6106eb565b6001546101e6906001600160401b031681565b6102ae6103a53660046111fd565b6106f6565b6004546101bb90610100900460ff1681565b6002546103d490600160681b900464ffffffffff1681565b60405164ffffffffff90911681526020016101c7565b6102ae6103f83660046111fd565b61082b565b61022061040b3660046111e2565b60056020526000908152604090205481565b6101e66301e1338081565b6102ae61043636600461125d565b610892565b6102ae61044936600461125d565b610b4e565b600254600090819061048090600160681b900464ffffffffff16425b610474919061129d565b64ffffffffff16610e36565b5090506104a281600160089054906101000a90046001600160681b0316610ecd565b91505090565b600454610100900460ff16156104f45760405162461bcd60e51b815260206004820152600c60248201526b14995c185e481c185d5cd95960a21b60448201526064015b60405180910390fd5b6104fc610f06565b3360009081526005602052604090205481111561055b5760405162461bcd60e51b815260206004820152601b60248201527f496e73756666696369656e7420626f72726f772062616c616e6365000000000060448201526064016104eb565b336000908152600560205260408120805483929061057a9084906112c2565b92505081905550806006600082825461059391906112c2565b90915550506000546040516323b872dd60e01b8152336004820152306024820152604481018390526001600160a01b03909116906323b872dd906064016020604051808303816000875af11580156105ef573d6000803e3d6000fd5b505050506040513d601f19601f8201168201806040525081019061061391906112d5565b5060405181815233907f5c16de4f8b59bd9caf0f49a545f25819a895ed223294290b408242e72a594231906020015b60405180910390a250565b600254600090819061066d90600160681b900464ffffffffff164261046a565b506001600160a01b038416600090815260036020526040812054919250600c9190910b90811361069e5760006106a8565b6106a88282610ecd565b949350505050565b60025460009081906106d090600160681b900464ffffffffff164261046a565b6002549092506104a2915082906001600160681b0316610ecd565b6106f3610f06565b50565b600454610100900460ff161561073e5760405162461bcd60e51b815260206004820152600d60248201526c109bdc9c9bddc81c185d5cd959609a1b60448201526064016104eb565b610746610f06565b33600090815260056020526040812080548392906107659084906112f9565b92505081905550806006600082825461077e91906112f9565b909155505060005460405163a9059cbb60e01b8152336004820152602481018390526001600160a01b039091169063a9059cbb906044016020604051808303816000875af11580156107d4573d6000803e3d6000fd5b505050506040513d601f19601f820116820180604052508101906107f891906112d5565b5060405181815233907fcbc04eca7e9da35cb1393a6135a199ca52e450d5e9251cbd99f7847d33a3675090602001610642565b6000546040516340c10f1960e01b8152306004820152602481018390526001600160a01b03909116906340c10f1990604401600060405180830381600087803b15801561087757600080fd5b505af115801561088b573d6000803e3d6000fd5b5050505050565b60045460ff16156108d55760405162461bcd60e51b815260206004820152600d60248201526c14dd5c1c1b1e481c185d5cd959609a1b60448201526064016104eb565b6000546001600160a01b038381169116146109225760405162461bcd60e51b815260206004820152600d60248201526c125b9d985b1a5908185cdcd95d609a1b60448201526064016104eb565b61092a610f06565b6000546040516323b872dd60e01b8152336004820152306024820152604481018390526001600160a01b03909116906323b872dd906064016020604051808303816000875af1158015610981573d6000803e3d6000fd5b505050506040513d601f19601f820116820180604052508101906109a591906112d5565b5033600090815260036020526040812054600c0b906109c382610fa2565b905060006109d1848361130c565b905060006109de82610ff7565b90506000806109ed8684611044565b9150915080600160088282829054906101000a90046001600160681b0316610a159190611334565b92506101000a8154816001600160681b0302191690836001600160681b0316021790555081600260008282829054906101000a90046001600160681b0316610a5d9190611354565b82546101009290920a6001600160681b038181021990931691831602179091553360008181526003602090815260409182902080546cffffffffffffffffffffffffff191694891694909417909355518a815290925082917fd1cf3d156d5f8f0d50f6c122ed609cec09d35c9b9fb3fff6ea0959134dae424e910160405180910390a36001600160681b03811615610b4457600080543391907fddf252ad1be2c89b69c2b068fc378daa952ba7f163c4a11628f55a4df523b3ef90610b3290600160a01b90046001600160401b031685610ecd565b60405190815260200160405180910390a35b5050505050505050565b600454610100900460ff1615610b985760405162461bcd60e51b815260206004820152600f60248201526e15da5d1a191c985dc81c185d5cd959608a1b60448201526064016104eb565b6000546001600160a01b03838116911614610be55760405162461bcd60e51b815260206004820152600d60248201526c125b9d985b1a5908185cdcd95d609a1b60448201526064016104eb565b610bed610f06565b33600090815260036020526040812054600c0b90610c0a82610fa2565b90506000610c188483611374565b90506000610c2582610ff7565b90506000821215610c6f5760405162461bcd60e51b8152602060048201526014602482015273496e73756666696369656e742062616c616e636560601b60448201526064016104eb565b600080610c7c86846110b6565b9150915081600160088282829054906101000a90046001600160681b0316610ca49190611354565b92506101000a8154816001600160681b0302191690836001600160681b0316021790555080600260008282829054906101000a90046001600160681b0316610cec9190611334565b82546101009290920a6001600160681b038181021990931691831602179091553360008181526003602052604080822080546cffffffffffffffffffffffffff19169489169490941790935554915163a9059cbb60e01b81526004810191909152602481018a90526001600160a01b03909116915063a9059cbb906044016020604051808303816000875af1158015610d89573d6000803e3d6000fd5b505050506040513d601f19601f82011682018060405250810190610dad91906112d5565b50604051878152339081907f9b1bfa7fa9ee420a16e124f794c35ac9f90472acc99140eb2f6447c714cad8eb9060200160405180910390a36001600160681b03821615610b44576000805433907fddf252ad1be2c89b69c2b068fc378daa952ba7f163c4a11628f55a4df523b3ef90610b3290600160a01b90046001600160401b031686610ecd565b6000805460015482916001600160401b03600160a01b909104811691168415610ec357635e80a46880610e83610e7e6001600160401b038616610e798a85611394565b611108565b61111d565b610e8d90856113ab565b9350610eb4610e7e846001600160401b031689846001600160401b0316610e799190611394565b610ebe90846113ab565b925050505b9094909350915050565b600066038d7ea4c68000610ef36001600160401b0385166001600160681b038516611394565b610efd91906113cb565b90505b92915050565b6002544290600090610f2690600160681b900464ffffffffff168361129d565b64ffffffffff1690508015610f9e57610f3e81610e36565b6001805467ffffffffffffffff19166001600160401b039283161790556000805467ffffffffffffffff60a01b1916600160a01b93909216929092021790556002805464ffffffffff60681b1916600160681b64ffffffffff8516021790555b5050565b60008082600c0b12610fcb57600054610f0090600160a01b90046001600160401b031683610ecd565b600154610fe9906001600160401b0316610fe4846113ed565b610ecd565b610f0090611419565b919050565b600080821261101d57600054610f0090600160a01b90046001600160401b03168361117a565b60015461103b906001600160401b031661103684611419565b611197565b610f00906113ed565b60008083600c0b83600c0b1215611060575060009050806110af565b600083600c0b13611080576110758484611435565b6000915091506110af565b600084600c0b126110a05760006110978585611435565b915091506110af565b6110a9846113ed565b83915091505b9250929050565b60008083600c0b83600c0b13156110d2575060009050806110af565b600083600c0b126110e7576110758385611435565b600084600c0b136110fe5760006110978486611435565b83611097846113ed565b6000670de0b6b3a7640000610ef38385611394565b60006001600160401b038211156111765760405162461bcd60e51b815260206004820181905260248201527f5361666536343a2076616c756520657863656564732075696e743634206d617860448201526064016104eb565b5090565b60006001600160401b038316610ef366038d7ea4c6800084611394565b60006001600160401b0383166001816111b766038d7ea4c6800086611394565b6111c191906112f9565b610ef391906112c2565b80356001600160a01b0381168114610ff257600080fd5b6000602082840312156111f457600080fd5b610efd826111cb565b60006020828403121561120f57600080fd5b5035919050565b80151581146106f357600080fd5b6000806040838503121561123757600080fd5b823561124281611216565b9150602083013561125281611216565b809150509250929050565b6000806040838503121561127057600080fd5b611279836111cb565b946020939093013593505050565b634e487b7160e01b600052601160045260246000fd5b64ffffffffff8281168282160390808211156112bb576112bb611287565b5092915050565b81810381811115610f0057610f00611287565b6000602082840312156112e757600080fd5b81516112f281611216565b9392505050565b80820180821115610f0057610f00611287565b808201828112600083128015821682158216171561132c5761132c611287565b505092915050565b6001600160681b038181168382160190808211156112bb576112bb611287565b6001600160681b038281168282160390808211156112bb576112bb611287565b81810360008312801583831316838312821617156112bb576112bb611287565b8082028115828204841417610f0057610f00611287565b6001600160401b038181168382160190808211156112bb576112bb611287565b6000826113e857634e487b7160e01b600052601260045260246000fd5b500490565b600081600c0b6c7fffffffffffffffffffffffff19810361141057611410611287565b60000392915050565b6000600160ff1b820161142e5761142e611287565b5060000390565b600c82810b9082900b036c7fffffffffffffffffffffffff1981126c7fffffffffffffffffffffffff82131715610f0057610f0061128756fea264697066735822122045474a085d433a7880418d979153be49c447864a21e5a91f2b8a91c3f4cc277364736f6c63430008140033","linkReferences":{}},"methodIdentifiers":{"BASE_INDEX_SCALE()":"4d74a6f0","FACTOR_SCALE()":"a1fb6345","SECONDS_PER_YEAR()":"e6a69ab8","SUPPLY_RATE_PER_SECOND()":"11ea16b6","_isSupplyPaused()":"094ee6cc","_isWithdrawPaused()":"d7b78717","accrueAccount(address)":"bfe69c8d","addInterestPayment(uint256)":"dd66f8b2","balanceOf(address)":"70a08231","baseBorrowIndex()":"c05e8319","baseSupplyIndex()":"172b382f","borrow(uint256)":"c5ebeaec","borrowerBalances(address)":"e01c15dc","isSupplyPaused()":"0bc47ad1","isWithdrawPaused()":"67800b5f","lastAccrualTime()":"d7e72708","principal(address)":"2ce0f9d6","repay(uint256)":"371fd8e6","setPauseStatus(bool,bool)":"b8add2b0","supply(address,uint256)":"f2b9fdb8","totalBorrow()":"8285ef40","totalBorrowBase()":"74471361","totalBorrowed()":"4c19386c","totalSupply()":"18160ddd","totalSupplyBase()":"278cc7a0","underlying()":"6f307dc3","withdraw(address,uint256)":"f3fef3a3"},"id":29}