{"abi":[{"type":"constructor","inputs":[{"name":"_underlying","type":"address","internalType":"address"}],"stateMutability":"nonpayable"},{"type":"function","name":"addYield","inputs":[{"name":"to","type":"address","internalType":"address"},{"name":"yieldAmount","type":"uint256","internalType":"uint256"}],"outputs":[],"stateMutability":"nonpayable"},{"type":"function","name":"balanceOf","inputs":[{"name":"owner","type":"address","internalType":"address"}],"outputs":[{"name":"","type":"uint256","internalType":"uint256"}],"stateMutability":"view"},{"type":"function","name":"cTokenBalance","inputs":[{"name":"","type":"address","internalType":"address"}],"outputs":[{"name":"","type":"uint256","internalType":"uint256"}],"stateMutability":"view"},{"type":"function","name":"isSupplyPaused","inputs":[],"outputs":[{"name":"","type":"bool","internalType":"bool"}],"stateMutability":"view"},{"type":"function","name":"isWithdrawPaused","inputs":[],"outputs":[{"name":"","type":"bool","internalType":"bool"}],"stateMutability":"view"},{"type":"function","name":"setPauseStatus","inputs":[{"name":"_isSupplyPaused","type":"bool","internalType":"bool"},{"name":"_isWithdrawPaused","type":"bool","internalType":"bool"}],"outputs":[],"stateMutability":"nonpayable"},{"type":"function","name":"supply","inputs":[{"name":"asset","type":"address","internalType":"address"},{"name":"amount","type":"uint256","internalType":"uint256"}],"outputs":[],"stateMutability":"nonpayable"},{"type":"function","name":"totalSupply","inputs":[],"outputs":[{"name":"","type":"uint256","internalType":"uint256"}],"stateMutability":"view"},{"type":"function","name":"underlying","inputs":[],"outputs":[{"name":"","type":"address","internalType":"contract IERC20"}],"stateMutability":"view"},{"type":"function","name":"underlyingBalance","inputs":[{"name":"","type":"address","internalType":"address"}],"outputs":[{"name":"","type":"uint256","internalType":"uint256"}],"stateMutability":"view"},{"type":"function","name":"withdraw","inputs":[{"name":"asset","type":"address","internalType":"address"},{"name":"amount","type":"uint256","internalType":"uint256"}],"outputs":[],"stateMutability":"nonpayable"}],"bytecode":{"object":"0x608060405234801561001057600080fd5b5060405161085d38038061085d83398101604081905261002f91610054565b600080546001600160a01b0319166001600160a01b0392909216919091179055610084565b60006020828403121561006657600080fd5b81516001600160a01b038116811461007d57600080fd5b9392505050565b6107ca806100936000396000f3fe608060405234801561001057600080fd5b50600436106100a95760003560e01c80636f307dc3116100715780636f307dc31461013957806370a08231146101645780637ecb8bcf1461018d578063b8add2b0146101a2578063f2b9fdb8146101d4578063f3fef3a3146101e757600080fd5b80630bc47ad1146100ae57806318160ddd146100d05780633e642575146100e757806357bb50a71461010757806367800b5f14610127575b600080fd5b6004546100bb9060ff1681565b60405190151581526020015b60405180910390f35b6100d960035481565b6040519081526020016100c7565b6100d96100f5366004610686565b60026020526000908152604090205481565b6100d9610115366004610686565b60016020526000908152604090205481565b6004546100bb90610100900460ff1681565b60005461014c906001600160a01b031681565b6040516001600160a01b0390911681526020016100c7565b6100d9610172366004610686565b6001600160a01b031660009081526002602052604090205490565b6101a061019b3660046106a8565b6101fa565b005b6101a06101b03660046106e3565b6004805461ffff191692151561ff0019169290921761010091151591909102179055565b6101a06101e23660046106a8565b610244565b6101a06101f53660046106a8565b610398565b6001600160a01b03821660009081526002602052604081208054839290610222908490610732565b92505081905550806003600082825461023b9190610732565b90915550505050565b60045460ff161561028c5760405162461bcd60e51b815260206004820152600d60248201526c14dd5c1c1b1e481c185d5cd959609a1b60448201526064015b60405180910390fd5b6000546001600160a01b038381169116146102d95760405162461bcd60e51b815260206004820152600d60248201526c125b9d985b1a5908185cdcd95d609a1b6044820152606401610283565b6000546040516323b872dd60e01b8152336004820152306024820152604481018390526001600160a01b03909116906323b872dd906064016020604051808303816000875af1158015610330573d6000803e3d6000fd5b505050506040513d601f19601f82011682018060405250810190610354919061074b565b503360009081526001602052604081208054839290610374908490610732565b90915550503360009081526002602052604081208054839290610222908490610732565b600454610100900460ff16156103e25760405162461bcd60e51b815260206004820152600f60248201526e15da5d1a191c985dc81c185d5cd959608a1b6044820152606401610283565b6000546001600160a01b0383811691161461042f5760405162461bcd60e51b815260206004820152600d60248201526c125b9d985b1a5908185cdcd95d609a1b6044820152606401610283565b336000908152600260205260409020548111156104855760405162461bcd60e51b8152602060048201526014602482015273496e73756666696369656e742062616c616e636560601b6044820152606401610283565b3360009081526001602052604090205481116104c05733600090815260016020526040812080548392906104ba908490610768565b90915550505b33600090815260026020526040812080548392906104df908490610768565b9250508190555080600360008282546104f89190610768565b9091555050600080546040516370a0823160e01b81523060048201526001600160a01b03909116906370a0823190602401602060405180830381865afa158015610546573d6000803e3d6000fd5b505050506040513d601f19601f8201168201806040525081019061056a919061077b565b9050818110156105ef576000546001600160a01b03166340c10f19306105908486610768565b6040516001600160e01b031960e085901b1681526001600160a01b0390921660048301526024820152604401600060405180830381600087803b1580156105d657600080fd5b505af11580156105ea573d6000803e3d6000fd5b505050505b60005460405163a9059cbb60e01b8152336004820152602481018490526001600160a01b039091169063a9059cbb906044016020604051808303816000875af1158015610640573d6000803e3d6000fd5b505050506040513d601f19601f82011682018060405250810190610664919061074b565b50505050565b80356001600160a01b038116811461068157600080fd5b919050565b60006020828403121561069857600080fd5b6106a18261066a565b9392505050565b600080604083850312156106bb57600080fd5b6106c48361066a565b946020939093013593505050565b80151581146106e057600080fd5b50565b600080604083850312156106f657600080fd5b8235610701816106d2565b91506020830135610711816106d2565b809150509250929050565b634e487b7160e01b600052601160045260246000fd5b808201808211156107455761074561071c565b92915050565b60006020828403121561075d57600080fd5b81516106a1816106d2565b818103818111156107455761074561071c565b60006020828403121561078d57600080fd5b505191905056fea26469706673582212203aca1f88bd4b3ecddc2d54a17992a2aa1edd1f332ffbff0556f507bc9024dc3b64736f6c63430008140033","linkReferences":{}},"methodIdentifiers":{"addYield(address,uint256)":"7ecb8bcf","balanceOf(address)":"70a08231","cTokenBalance(address)":"57bb50a7","isSupplyPaused()":"0bc47ad1","isWithdrawPaused()":"67800b5f","setPauseStatus(bool,bool)":"b8add2b0","supply(address,uint256)":"f2b9fdb8","totalSupply()":"18160ddd","underlying()":"6f307dc3","underlyingBalance(address)":"3e642575","withdraw(address,uint256)":"f3fef3a3"},"id":29}