{"abi":[{"type":"function","name":"ACL_ADMIN_CANNOT_BE_ZERO","inputs":[],"outputs":[{"name":"","type":"string","internalType":"string"}],"stateMutability":"view"},{"type":"function","name":"ADDRESSES_PROVIDER_ALREADY_ADDED","inputs":[],"outputs":[{"name":"","type":"string","internalType":"string"}],"stateMutability":"view"},{"type":"function","name":"ADDRESSES_PROVIDER_NOT_REGISTERED","inputs":[],"outputs":[{"name":"","type":"string","internalType":"string"}],"stateMutability":"view"},{"type":"function","name":"AMOUNT_BIGGER_THAN_MAX_LOAN_SIZE_STABLE","inputs":[],"outputs":[{"name":"","type":"string","internalType":"string"}],"stateMutability":"view"},{"type":"function","name":"ASSET_NOT_BORROWABLE_IN_ISOLATION","inputs":[],"outputs":[{"name":"","type":"string","internalType":"string"}],"stateMutability":"view"},{"type":"function","name":"ASSET_NOT_LISTED","inputs":[],"outputs":[{"name":"","type":"string","internalType":"string"}],"stateMutability":"view"},{"type":"function","name":"BORROWING_NOT_ENABLED","inputs":[],"outputs":[{"name":"","type":"string","internalType":"string"}],"stateMutability":"view"},{"type":"function","name":"BORROW_CAP_EXCEEDED","inputs":[],"outputs":[{"name":"","type":"string","internalType":"string"}],"stateMutability":"view"},{"type":"function","name":"BRIDGE_PROTOCOL_FEE_INVALID","inputs":[],"outputs":[{"name":"","type":"string","internalType":"string"}],"stateMutability":"view"},{"type":"function","name":"CALLER_MUST_BE_POOL","inputs":[],"outputs":[{"name":"","type":"string","internalType":"string"}],"stateMutability":"view"},{"type":"function","name":"CALLER_NOT_ASSET_LISTING_OR_POOL_ADMIN","inputs":[],"outputs":[{"name":"","type":"string","internalType":"string"}],"stateMutability":"view"},{"type":"function","name":"CALLER_NOT_ATOKEN","inputs":[],"outputs":[{"name":"","type":"string","internalType":"string"}],"stateMutability":"view"},{"type":"function","name":"CALLER_NOT_BRIDGE","inputs":[],"outputs":[{"name":"","type":"string","internalType":"string"}],"stateMutability":"view"},{"type":"function","name":"CALLER_NOT_EMERGENCY_ADMIN","inputs":[],"outputs":[{"name":"","type":"string","internalType":"string"}],"stateMutability":"view"},{"type":"function","name":"CALLER_NOT_POOL_ADMIN","inputs":[],"outputs":[{"name":"","type":"string","internalType":"string"}],"stateMutability":"view"},{"type":"function","name":"CALLER_NOT_POOL_CONFIGURATOR","inputs":[],"outputs":[{"name":"","type":"string","internalType":"string"}],"stateMutability":"view"},{"type":"function","name":"CALLER_NOT_POOL_OR_EMERGENCY_ADMIN","inputs":[],"outputs":[{"name":"","type":"string","internalType":"string"}],"stateMutability":"view"},{"type":"function","name":"CALLER_NOT_RISK_OR_POOL_ADMIN","inputs":[],"outputs":[{"name":"","type":"string","internalType":"string"}],"stateMutability":"view"},{"type":"function","name":"COLLATERAL_BALANCE_IS_ZERO","inputs":[],"outputs":[{"name":"","type":"string","internalType":"string"}],"stateMutability":"view"},{"type":"function","name":"COLLATERAL_CANNOT_BE_LIQUIDATED","inputs":[],"outputs":[{"name":"","type":"string","internalType":"string"}],"stateMutability":"view"},{"type":"function","name":"COLLATERAL_CANNOT_COVER_NEW_BORROW","inputs":[],"outputs":[{"name":"","type":"string","internalType":"string"}],"stateMutability":"view"},{"type":"function","name":"COLLATERAL_SAME_AS_BORROWING_CURRENCY","inputs":[],"outputs":[{"name":"","type":"string","internalType":"string"}],"stateMutability":"view"},{"type":"function","name":"DEBT_CEILING_EXCEEDED","inputs":[],"outputs":[{"name":"","type":"string","internalType":"string"}],"stateMutability":"view"},{"type":"function","name":"DEBT_CEILING_NOT_ZERO","inputs":[],"outputs":[{"name":"","type":"string","internalType":"string"}],"stateMutability":"view"},{"type":"function","name":"EMODE_CATEGORY_RESERVED","inputs":[],"outputs":[{"name":"","type":"string","internalType":"string"}],"stateMutability":"view"},{"type":"function","name":"FLASHLOAN_DISABLED","inputs":[],"outputs":[{"name":"","type":"string","internalType":"string"}],"stateMutability":"view"},{"type":"function","name":"FLASHLOAN_PREMIUM_INVALID","inputs":[],"outputs":[{"name":"","type":"string","internalType":"string"}],"stateMutability":"view"},{"type":"function","name":"HEALTH_FACTOR_LOWER_THAN_LIQUIDATION_THRESHOLD","inputs":[],"outputs":[{"name":"","type":"string","internalType":"string"}],"stateMutability":"view"},{"type":"function","name":"HEALTH_FACTOR_NOT_BELOW_THRESHOLD","inputs":[],"outputs":[{"name":"","type":"string","internalType":"string"}],"stateMutability":"view"},{"type":"function","name":"INCONSISTENT_EMODE_CATEGORY","inputs":[],"outputs":[{"name":"","type":"string","internalType":"string"}],"stateMutability":"view"},{"type":"function","name":"INCONSISTENT_FLASHLOAN_PARAMS","inputs":[],"outputs":[{"name":"","type":"string","internalType":"string"}],"stateMutability":"view"},{"type":"function","name":"INCONSISTENT_PARAMS_LENGTH","inputs":[],"outputs":[{"name":"","type":"string","internalType":"string"}],"stateMutability":"view"},{"type":"function","name":"INTEREST_RATE_REBALANCE_CONDITIONS_NOT_MET","inputs":[],"outputs":[{"name":"","type":"string","internalType":"string"}],"stateMutability":"view"},{"type":"function","name":"INVALID_ADDRESSES_PROVIDER","inputs":[],"outputs":[{"name":"","type":"string","internalType":"string"}],"stateMutability":"view"},{"type":"function","name":"INVALID_ADDRESSES_PROVIDER_ID","inputs":[],"outputs":[{"name":"","type":"string","internalType":"string"}],"stateMutability":"view"},{"type":"function","name":"INVALID_AMOUNT","inputs":[],"outputs":[{"name":"","type":"string","internalType":"string"}],"stateMutability":"view"},{"type":"function","name":"INVALID_BORROW_CAP","inputs":[],"outputs":[{"name":"","type":"string","internalType":"string"}],"stateMutability":"view"},{"type":"function","name":"INVALID_BURN_AMOUNT","inputs":[],"outputs":[{"name":"","type":"string","internalType":"string"}],"stateMutability":"view"},{"type":"function","name":"INVALID_DEBT_CEILING","inputs":[],"outputs":[{"name":"","type":"string","internalType":"string"}],"stateMutability":"view"},{"type":"function","name":"INVALID_DECIMALS","inputs":[],"outputs":[{"name":"","type":"string","internalType":"string"}],"stateMutability":"view"},{"type":"function","name":"INVALID_EMODE_CATEGORY","inputs":[],"outputs":[{"name":"","type":"string","internalType":"string"}],"stateMutability":"view"},{"type":"function","name":"INVALID_EMODE_CATEGORY_ASSIGNMENT","inputs":[],"outputs":[{"name":"","type":"string","internalType":"string"}],"stateMutability":"view"},{"type":"function","name":"INVALID_EMODE_CATEGORY_PARAMS","inputs":[],"outputs":[{"name":"","type":"string","internalType":"string"}],"stateMutability":"view"},{"type":"function","name":"INVALID_EXPIRATION","inputs":[],"outputs":[{"name":"","type":"string","internalType":"string"}],"stateMutability":"view"},{"type":"function","name":"INVALID_FLASHLOAN_EXECUTOR_RETURN","inputs":[],"outputs":[{"name":"","type":"string","internalType":"string"}],"stateMutability":"view"},{"type":"function","name":"INVALID_INTEREST_RATE_MODE_SELECTED","inputs":[],"outputs":[{"name":"","type":"string","internalType":"string"}],"stateMutability":"view"},{"type":"function","name":"INVALID_LIQUIDATION_PROTOCOL_FEE","inputs":[],"outputs":[{"name":"","type":"string","internalType":"string"}],"stateMutability":"view"},{"type":"function","name":"INVALID_LIQ_BONUS","inputs":[],"outputs":[{"name":"","type":"string","internalType":"string"}],"stateMutability":"view"},{"type":"function","name":"INVALID_LIQ_THRESHOLD","inputs":[],"outputs":[{"name":"","type":"string","internalType":"string"}],"stateMutability":"view"},{"type":"function","name":"INVALID_LTV","inputs":[],"outputs":[{"name":"","type":"string","internalType":"string"}],"stateMutability":"view"},{"type":"function","name":"INVALID_MINT_AMOUNT","inputs":[],"outputs":[{"name":"","type":"string","internalType":"string"}],"stateMutability":"view"},{"type":"function","name":"INVALID_OPTIMAL_STABLE_TO_TOTAL_DEBT_RATIO","inputs":[],"outputs":[{"name":"","type":"string","internalType":"string"}],"stateMutability":"view"},{"type":"function","name":"INVALID_OPTIMAL_USAGE_RATIO","inputs":[],"outputs":[{"name":"","type":"string","internalType":"string"}],"stateMutability":"view"},{"type":"function","name":"INVALID_RESERVE_FACTOR","inputs":[],"outputs":[{"name":"","type":"string","internalType":"string"}],"stateMutability":"view"},{"type":"function","name":"INVALID_RESERVE_INDEX","inputs":[],"outputs":[{"name":"","type":"string","internalType":"string"}],"stateMutability":"view"},{"type":"function","name":"INVALID_RESERVE_PARAMS","inputs":[],"outputs":[{"name":"","type":"string","internalType":"string"}],"stateMutability":"view"},{"type":"function","name":"INVALID_SIGNATURE","inputs":[],"outputs":[{"name":"","type":"string","internalType":"string"}],"stateMutability":"view"},{"type":"function","name":"INVALID_SUPPLY_CAP","inputs":[],"outputs":[{"name":"","type":"string","internalType":"string"}],"stateMutability":"view"},{"type":"function","name":"INVALID_UNBACKED_MINT_CAP","inputs":[],"outputs":[{"name":"","type":"string","internalType":"string"}],"stateMutability":"view"},{"type":"function","name":"LTV_VALIDATION_FAILED","inputs":[],"outputs":[{"name":"","type":"string","internalType":"string"}],"stateMutability":"view"},{"type":"function","name":"NOT_CONTRACT","inputs":[],"outputs":[{"name":"","type":"string","internalType":"string"}],"stateMutability":"view"},{"type":"function","name":"NOT_ENOUGH_AVAILABLE_USER_BALANCE","inputs":[],"outputs":[{"name":"","type":"string","internalType":"string"}],"stateMutability":"view"},{"type":"function","name":"NO_DEBT_OF_SELECTED_TYPE","inputs":[],"outputs":[{"name":"","type":"string","internalType":"string"}],"stateMutability":"view"},{"type":"function","name":"NO_EXPLICIT_AMOUNT_TO_REPAY_ON_BEHALF","inputs":[],"outputs":[{"name":"","type":"string","internalType":"string"}],"stateMutability":"view"},{"type":"function","name":"NO_MORE_RESERVES_ALLOWED","inputs":[],"outputs":[{"name":"","type":"string","internalType":"string"}],"stateMutability":"view"},{"type":"function","name":"NO_OUTSTANDING_STABLE_DEBT","inputs":[],"outputs":[{"name":"","type":"string","internalType":"string"}],"stateMutability":"view"},{"type":"function","name":"NO_OUTSTANDING_VARIABLE_DEBT","inputs":[],"outputs":[{"name":"","type":"string","internalType":"string"}],"stateMutability":"view"},{"type":"function","name":"OPERATION_NOT_SUPPORTED","inputs":[],"outputs":[{"name":"","type":"string","internalType":"string"}],"stateMutability":"view"},{"type":"function","name":"POOL_ADDRESSES_DO_NOT_MATCH","inputs":[],"outputs":[{"name":"","type":"string","internalType":"string"}],"stateMutability":"view"},{"type":"function","name":"PRICE_ORACLE_SENTINEL_CHECK_FAILED","inputs":[],"outputs":[{"name":"","type":"string","internalType":"string"}],"stateMutability":"view"},{"type":"function","name":"RESERVE_ALREADY_ADDED","inputs":[],"outputs":[{"name":"","type":"string","internalType":"string"}],"stateMutability":"view"},{"type":"function","name":"RESERVE_ALREADY_INITIALIZED","inputs":[],"outputs":[{"name":"","type":"string","internalType":"string"}],"stateMutability":"view"},{"type":"function","name":"RESERVE_DEBT_NOT_ZERO","inputs":[],"outputs":[{"name":"","type":"string","internalType":"string"}],"stateMutability":"view"},{"type":"function","name":"RESERVE_FROZEN","inputs":[],"outputs":[{"name":"","type":"string","internalType":"string"}],"stateMutability":"view"},{"type":"function","name":"RESERVE_INACTIVE","inputs":[],"outputs":[{"name":"","type":"string","internalType":"string"}],"stateMutability":"view"},{"type":"function","name":"RESERVE_LIQUIDITY_NOT_ZERO","inputs":[],"outputs":[{"name":"","type":"string","internalType":"string"}],"stateMutability":"view"},{"type":"function","name":"RESERVE_PAUSED","inputs":[],"outputs":[{"name":"","type":"string","internalType":"string"}],"stateMutability":"view"},{"type":"function","name":"SILOED_BORROWING_VIOLATION","inputs":[],"outputs":[{"name":"","type":"string","internalType":"string"}],"stateMutability":"view"},{"type":"function","name":"SPECIFIED_CURRENCY_NOT_BORROWED_BY_USER","inputs":[],"outputs":[{"name":"","type":"string","internalType":"string"}],"stateMutability":"view"},{"type":"function","name":"STABLE_BORROWING_ENABLED","inputs":[],"outputs":[{"name":"","type":"string","internalType":"string"}],"stateMutability":"view"},{"type":"function","name":"STABLE_BORROWING_NOT_ENABLED","inputs":[],"outputs":[{"name":"","type":"string","internalType":"string"}],"stateMutability":"view"},{"type":"function","name":"STABLE_DEBT_NOT_ZERO","inputs":[],"outputs":[{"name":"","type":"string","internalType":"string"}],"stateMutability":"view"},{"type":"function","name":"SUPPLY_CAP_EXCEEDED","inputs":[],"outputs":[{"name":"","type":"string","internalType":"string"}],"stateMutability":"view"},{"type":"function","name":"UNBACKED_MINT_CAP_EXCEEDED","inputs":[],"outputs":[{"name":"","type":"string","internalType":"string"}],"stateMutability":"view"},{"type":"function","name":"UNDERLYING_BALANCE_ZERO","inputs":[],"outputs":[{"name":"","type":"string","internalType":"string"}],"stateMutability":"view"},{"type":"function","name":"UNDERLYING_CANNOT_BE_RESCUED","inputs":[],"outputs":[{"name":"","type":"string","internalType":"string"}],"stateMutability":"view"},{"type":"function","name":"UNDERLYING_CLAIMABLE_RIGHTS_NOT_ZERO","inputs":[],"outputs":[{"name":"","type":"string","internalType":"string"}],"stateMutability":"view"},{"type":"function","name":"USER_IN_ISOLATION_MODE_OR_LTV_ZERO","inputs":[],"outputs":[{"name":"","type":"string","internalType":"string"}],"stateMutability":"view"},{"type":"function","name":"VARIABLE_DEBT_SUPPLY_NOT_ZERO","inputs":[],"outputs":[{"name":"","type":"string","internalType":"string"}],"stateMutability":"view"},{"type":"function","name":"ZERO_ADDRESS_NOT_VALID","inputs":[],"outputs":[{"name":"","type":"string","internalType":"string"}],"stateMutability":"view"}],"bytecode":{"object":"0x60808060405234601957611484908161001e823930815050f35b5f80fdfe60806040526004361015610011575f80fd5b5f3560e01c8063084dfa0d1461139b57806311d7b0061461136f57806312dcade81461134257806314dcfbbc14611315578063198d6a6b146112e85780631abbb001146112bb57806322a734461461128e57806326bbd0531461126157806326e7b312146112355780632926c971146112085780632c8e3b4c146111dc5780632eed17e8146111af578063335763de14611182578063366eb54d146111555780633793078214611128578063471df685146110fb57806347ba93d8146110ce57806347cf1523146110a1578063480702ae14611074578063485c8ff6146110485780634d86f3931461101b5780634e01e3c114610fee5780634e3aed3714610fc15780634ef999ff14610f945780634f77647b14610f685780635126745014610f3b57806352ba9dbe14610f0e5780635d9c76c014610ee157806360c3de8014610eb557806361c111d214610e8857806365a83bab14610e5b57806365e7ef4c14610e2e5780636b3f7cc714610e015780636cd3cfbc14610dd4578063712f536a14610da757806373dea5e314610d7a57806374459b1414610d4d578063747fa55614610d2057806376ae8fca14610cf35780637aa0767e14610cc65780637fea6f3614610c995780638596aad514610c6c578063895f7dc814610c3f57806389c5d45f14610c125780638a34400014610be55780638aa3ca4c14610bb85780638b8b98d714610b8b5780638eda46bd14610b5e5780638f7722b214610b3157806394f9fd8a14610b04578063952633c514610ad75780639527e9d914610aaa57806399ce53f314610a7d578063a2797c8014610a50578063a2e976c614610a23578063a3402a38146109f6578063a4868dca146109c9578063a8c978531461099c578063ab883ca01461096f578063abd351b114610942578063ac75323614610916578063b0510054146108e9578063b4a45730146108bc578063b5e7936614610890578063b68774e914610863578063b7f5e22414610836578063b87041c214610809578063bad8308c146107dc578063c08a1146146107af578063c863808214610782578063c899301a14610755578063cd23367c14610728578063d14bb17a146106fb578063d1cd8b1d146106ce578063d6f9fcde146106a1578063d9adda8514610674578063dc191bd914610647578063dcc56db61461061a578063dd1dd95f146105ed578063de24948c146105c0578063e02f07ee14610594578063e3fa20f514610567578063e4dd8b741461053a578063e981483a1461050d578063f07f6785146104e0578063f10727db146104b3578063f479ea1114610486578063fa163a8314610459578063fae827911461042c5763fd1828ff146103f7575f80fd5b5f3660031901126104285761042461040d6113c8565b61373560f01b602082015260405191829182611424565b0390f35b5f80fd5b5f366003190112610428576104246104426113c8565b61191b60f11b602082015260405191829182611424565b5f3660031901126104285761042461046f6113c8565b611b1b60f11b602082015260405191829182611424565b5f3660031901126104285761042461049c6113c8565b61189b60f11b602082015260405191829182611424565b5f366003190112610428576104246104c96113c8565b611a9b60f11b602082015260405191829182611424565b5f366003190112610428576104246104f66113c8565b61066760f31b602082015260405191829182611424565b5f366003190112610428576104246105236113c8565b61039360f41b602082015260405191829182611424565b5f366003190112610428576104246105506113c8565b61383160f01b602082015260405191829182611424565b5f3660031901126104285761042461057d6113c8565b61199b60f11b602082015260405191829182611424565b5f366003190112610428576104246105aa611400565b603760f81b602082015260405191829182611424565b5f366003190112610428576104246105d66113c8565b61383960f01b602082015260405191829182611424565b5f366003190112610428576104246106036113c8565b610d8d60f21b602082015260405191829182611424565b5f366003190112610428576104246106306113c8565b61373360f01b602082015260405191829182611424565b5f3660031901126104285761042461065d6113c8565b61333960f01b602082015260405191829182611424565b5f3660031901126104285761042461068a6113c8565b61363160f01b602082015260405191829182611424565b5f366003190112610428576104246106b76113c8565b6106c760f31b602082015260405191829182611424565b5f366003190112610428576104246106e46113c8565b610dcd60f21b602082015260405191829182611424565b5f366003190112610428576104246107116113c8565b61373760f01b602082015260405191829182611424565b5f3660031901126104285761042461073e6113c8565b611c1960f11b602082015260405191829182611424565b5f3660031901126104285761042461076b6113c8565b610e0d60f21b602082015260405191829182611424565b5f366003190112610428576104246107986113c8565b61353960f01b602082015260405191829182611424565b5f366003190112610428576104246107c56113c8565b6106e760f31b602082015260405191829182611424565b5f366003190112610428576104246107f26113c8565b611b9b60f11b602082015260405191829182611424565b5f3660031901126104285761042461081f6113c8565b61353760f01b602082015260405191829182611424565b5f3660031901126104285761042461084c6113c8565b61199960f11b602082015260405191829182611424565b5f366003190112610428576104246108796113c8565b61323960f01b602082015260405191829182611424565b5f366003190112610428576104246108a6611400565b600d60fa1b602082015260405191829182611424565b5f366003190112610428576104246108d26113c8565b611a1960f11b602082015260405191829182611424565b5f366003190112610428576104246108ff6113c8565b61353160f01b602082015260405191829182611424565b5f3660031901126104285761042461092c611400565b603160f81b602082015260405191829182611424565b5f366003190112610428576104246109586113c8565b610c8d60f21b602082015260405191829182611424565b5f366003190112610428576104246109856113c8565b61383560f01b602082015260405191829182611424565b5f366003190112610428576104246109b26113c8565b61373160f01b602082015260405191829182611424565b5f366003190112610428576104246109df6113c8565b61363760f01b602082015260405191829182611424565b5f36600319011261042857610424610a0c6113c8565b61373960f01b602082015260405191829182611424565b5f36600319011261042857610424610a396113c8565b61313160f01b602082015260405191829182611424565b5f36600319011261042857610424610a666113c8565b61343360f01b602082015260405191829182611424565b5f36600319011261042857610424610a936113c8565b61363360f01b602082015260405191829182611424565b5f36600319011261042857610424610ac06113c8565b61363560f01b602082015260405191829182611424565b5f36600319011261042857610424610aed6113c8565b61343560f01b602082015260405191829182611424565b5f36600319011261042857610424610b1a6113c8565b610d4d60f21b602082015260405191829182611424565b5f36600319011261042857610424610b476113c8565b6106a760f31b602082015260405191829182611424565b5f36600319011261042857610424610b746113c8565b61037360f41b602082015260405191829182611424565b5f36600319011261042857610424610ba16113c8565b61038360f41b602082015260405191829182611424565b5f36600319011261042857610424610bce6113c8565b61393160f01b602082015260405191829182611424565b5f36600319011261042857610424610bfb6113c8565b61333760f01b602082015260405191829182611424565b5f36600319011261042857610424610c286113c8565b61333360f01b602082015260405191829182611424565b5f36600319011261042857610424610c556113c8565b611a1b60f11b602082015260405191829182611424565b5f36600319011261042857610424610c826113c8565b61036360f41b602082015260405191829182611424565b5f36600319011261042857610424610caf6113c8565b61313360f01b602082015260405191829182611424565b5f36600319011261042857610424610cdc6113c8565b61191960f11b602082015260405191829182611424565b5f36600319011261042857610424610d096113c8565b61313560f01b602082015260405191829182611424565b5f36600319011261042857610424610d366113c8565b61313960f01b602082015260405191829182611424565b5f36600319011261042857610424610d636113c8565b61343160f01b602082015260405191829182611424565b5f36600319011261042857610424610d906113c8565b61343960f01b602082015260405191829182611424565b5f36600319011261042857610424610dbd6113c8565b61034360f41b602082015260405191829182611424565b5f36600319011261042857610424610dea6113c8565b61064760f31b602082015260405191829182611424565b5f36600319011261042857610424610e176113c8565b611a9960f11b602082015260405191829182611424565b5f36600319011261042857610424610e446113c8565b61353560f01b602082015260405191829182611424565b5f36600319011261042857610424610e716113c8565b61353360f01b602082015260405191829182611424565b5f36600319011261042857610424610e9e6113c8565b61031360f41b602082015260405191829182611424565b5f36600319011261042857610424610ecb611400565b600760fb1b602082015260405191829182611424565b5f36600319011261042857610424610ef76113c8565b61313760f01b602082015260405191829182611424565b5f36600319011261042857610424610f246113c8565b61323760f01b602082015260405191829182611424565b5f36600319011261042857610424610f516113c8565b61323560f01b602082015260405191829182611424565b5f36600319011261042857610424610f7e611400565b601b60f91b602082015260405191829182611424565b5f36600319011261042857610424610faa6113c8565b61033360f41b602082015260405191829182611424565b5f36600319011261042857610424610fd76113c8565b61383360f01b602082015260405191829182611424565b5f366003190112610428576104246110046113c8565b610ccd60f21b602082015260405191829182611424565b5f366003190112610428576104246110316113c8565b61333160f01b602082015260405191829182611424565b5f3660031901126104285761042461105e611400565b601960f91b602082015260405191829182611424565b5f3660031901126104285761042461108a6113c8565b611b1960f11b602082015260405191829182611424565b5f366003190112610428576104246110b76113c8565b61323160f01b602082015260405191829182611424565b5f366003190112610428576104246110e46113c8565b611b9960f11b602082015260405191829182611424565b5f366003190112610428576104246111116113c8565b61323360f01b602082015260405191829182611424565b5f3660031901126104285761042461113e6113c8565b61189960f11b602082015260405191829182611424565b5f3660031901126104285761042461116b6113c8565b61333560f01b602082015260405191829182611424565b5f366003190112610428576104246111986113c8565b61032360f41b602082015260405191829182611424565b5f366003190112610428576104246111c56113c8565b61035360f41b602082015260405191829182611424565b5f366003190112610428576104246111f2611400565b603560f81b602082015260405191829182611424565b5f3660031901126104285761042461121e6113c8565b610d0d60f21b602082015260405191829182611424565b5f3660031901126104285761042461124b611400565b603360f81b602082015260405191829182611424565b5f366003190112610428576104246112776113c8565b61363960f01b602082015260405191829182611424565b5f366003190112610428576104246112a46113c8565b61343760f01b602082015260405191829182611424565b5f366003190112610428576104246112d16113c8565b61383760f01b602082015260405191829182611424565b5f366003190112610428576104246112fe6113c8565b61070760f31b602082015260405191829182611424565b5f3660031901126104285761042461132b6113c8565b611c1b60f11b602082015260405191829182611424565b5f366003190112610428576104246113586113c8565b610c4d60f21b602082015260405191829182611424565b5f36600319011261042857610424611385611400565b603960f81b602082015260405191829182611424565b5f366003190112610428576104246113b16113c8565b61062760f31b602082015260405191829182611424565b604051906040820182811067ffffffffffffffff8211176113ec5760405260028252565b634e487b7160e01b5f52604160045260245ffd5b604051906040820182811067ffffffffffffffff8211176113ec5760405260018252565b602060409281835280519182918282860152018484015e5f828201840152601f01601f191601019056fea2646970667358221220ac71bf4e70c9936a028a94b75368068658cf828d064ab17502a92ec933836d0364736f6c634300081a0033","linkReferences":{}},"methodIdentifiers":{"ACL_ADMIN_CANNOT_BE_ZERO()":"fd1828ff","ADDRESSES_PROVIDER_ALREADY_ADDED()":"14dcfbbc","ADDRESSES_PROVIDER_NOT_REGISTERED()":"e02f07ee","AMOUNT_BIGGER_THAN_MAX_LOAN_SIZE_STABLE()":"f07f6785","ASSET_NOT_BORROWABLE_IN_ISOLATION()":"8596aad5","ASSET_NOT_LISTED()":"cd23367c","BORROWING_NOT_ENABLED()":"4ef999ff","BORROW_CAP_EXCEEDED()":"2eed17e8","BRIDGE_PROTOCOL_FEE_INVALID()":"7aa0767e","CALLER_MUST_BE_POOL()":"471df685","CALLER_NOT_ASSET_LISTING_OR_POOL_ADMIN()":"2c8e3b4c","CALLER_NOT_ATOKEN()":"a2e976c6","CALLER_NOT_BRIDGE()":"4f77647b","CALLER_NOT_EMERGENCY_ADMIN()":"485c8ff6","CALLER_NOT_POOL_ADMIN()":"ac753236","CALLER_NOT_POOL_CONFIGURATOR()":"61c111d2","CALLER_NOT_POOL_OR_EMERGENCY_ADMIN()":"26e7b312","CALLER_NOT_RISK_OR_POOL_ADMIN()":"b5e79366","COLLATERAL_BALANCE_IS_ZERO()":"4e01e3c1","COLLATERAL_CANNOT_BE_LIQUIDATED()":"895f7dc8","COLLATERAL_CANNOT_COVER_NEW_BORROW()":"e3fa20f5","COLLATERAL_SAME_AS_BORROWING_CURRENCY()":"8a344000","DEBT_CEILING_EXCEEDED()":"65a83bab","DEBT_CEILING_NOT_ZERO()":"e4dd8b74","EMODE_CATEGORY_RESERVED()":"f479ea11","FLASHLOAN_DISABLED()":"8aa3ca4c","FLASHLOAN_PREMIUM_INVALID()":"747fa556","HEALTH_FACTOR_LOWER_THAN_LIQUIDATION_THRESHOLD()":"366eb54d","HEALTH_FACTOR_NOT_BELOW_THRESHOLD()":"952633c5","INCONSISTENT_EMODE_CATEGORY()":"8f7722b2","INCONSISTENT_FLASHLOAN_PARAMS()":"73dea5e3","INCONSISTENT_PARAMS_LENGTH()":"bad8308c","INTEREST_RATE_REBALANCE_CONDITIONS_NOT_MET()":"2926c971","INVALID_ADDRESSES_PROVIDER()":"37930782","INVALID_ADDRESSES_PROVIDER_ID()":"60c3de80","INVALID_AMOUNT()":"fae82791","INVALID_BORROW_CAP()":"d6f9fcde","INVALID_BURN_AMOUNT()":"51267450","INVALID_DEBT_CEILING()":"dcc56db6","INVALID_DECIMALS()":"fa163a83","INVALID_EMODE_CATEGORY()":"a8c97853","INVALID_EMODE_CATEGORY_ASSIGNMENT()":"5d9c76c0","INVALID_EMODE_CATEGORY_PARAMS()":"47cf1523","INVALID_EXPIRATION()":"c08a1146","INVALID_FLASHLOAN_EXECUTOR_RETURN()":"7fea6f36","INVALID_INTEREST_RATE_MODE_SELECTED()":"89c5d45f","INVALID_LIQUIDATION_PROTOCOL_FEE()":"8eda46bd","INVALID_LIQ_BONUS()":"9527e9d9","INVALID_LIQ_THRESHOLD()":"dd1dd95f","INVALID_LTV()":"99ce53f3","INVALID_MINT_AMOUNT()":"abd351b1","INVALID_OPTIMAL_STABLE_TO_TOTAL_DEBT_RATIO()":"c899301a","INVALID_OPTIMAL_USAGE_RATIO()":"4e3aed37","INVALID_RESERVE_FACTOR()":"a4868dca","INVALID_RESERVE_INDEX()":"d1cd8b1d","INVALID_RESERVE_PARAMS()":"335763de","INVALID_SIGNATURE()":"a3402a38","INVALID_SUPPLY_CAP()":"26bbd053","INVALID_UNBACKED_MINT_CAP()":"47ba93d8","LTV_VALIDATION_FAILED()":"b87041c2","NOT_CONTRACT()":"11d7b006","NOT_ENOUGH_AVAILABLE_USER_BALANCE()":"b7f5e224","NO_DEBT_OF_SELECTED_TYPE()":"dc191bd9","NO_EXPLICIT_AMOUNT_TO_REPAY_ON_BEHALF()":"712f536a","NO_MORE_RESERVES_ALLOWED()":"76ae8fca","NO_OUTSTANDING_STABLE_DEBT()":"74459b14","NO_OUTSTANDING_VARIABLE_DEBT()":"b4a45730","OPERATION_NOT_SUPPORTED()":"8b8b98d7","POOL_ADDRESSES_DO_NOT_MATCH()":"1abbb001","PRICE_ORACLE_SENTINEL_CHECK_FAILED()":"c8638082","RESERVE_ALREADY_ADDED()":"12dcade8","RESERVE_ALREADY_INITIALIZED()":"d9adda85","RESERVE_DEBT_NOT_ZERO()":"e981483a","RESERVE_FROZEN()":"6cd3cfbc","RESERVE_INACTIVE()":"52ba9dbe","RESERVE_LIQUIDITY_NOT_ZERO()":"084dfa0d","RESERVE_PAUSED()":"b68774e9","SILOED_BORROWING_VIOLATION()":"de24948c","SPECIFIED_CURRENCY_NOT_BORROWED_BY_USER()":"22a73446","STABLE_BORROWING_ENABLED()":"198d6a6b","STABLE_BORROWING_NOT_ENABLED()":"4d86f393","STABLE_DEBT_NOT_ZERO()":"65e7ef4c","SUPPLY_CAP_EXCEEDED()":"b0510054","UNBACKED_MINT_CAP_EXCEEDED()":"6b3f7cc7","UNDERLYING_BALANCE_ZERO()":"a2797c80","UNDERLYING_CANNOT_BE_RESCUED()":"ab883ca0","UNDERLYING_CLAIMABLE_RIGHTS_NOT_ZERO()":"94f9fd8a","USER_IN_ISOLATION_MODE_OR_LTV_ZERO()":"480702ae","VARIABLE_DEBT_SUPPLY_NOT_ZERO()":"f10727db","ZERO_ADDRESS_NOT_VALID()":"d14bb17a"},"id":43}