{"abi":[{"type":"function","name":"BASE_PRICE","inputs":[],"outputs":[{"name":"","type":"uint256","internalType":"uint256"}],"stateMutability":"view"},{"type":"function","name":"COEFFICIENT","inputs":[],"outputs":[{"name":"","type":"uint256","internalType":"uint256"}],"stateMutability":"view"},{"type":"function","name":"PRICE_PRECISION","inputs":[],"outputs":[{"name":"","type":"uint256","internalType":"uint256"}],"stateMutability":"view"}],"bytecode":{"object":"0x6080806040523460175760a19081601c823930815050f35b5f80fdfe60808060405260043610156011575f80fd5b5f3560e01c908163065decc614603d5750806395082d251460395763f86325ed146039575f80fd5b6054565b5f36600319011260505780600160209252f35b5f80fd5b5f3660031901126050576020604051620f42408152f3fea2646970667358221220fbe28303347d0c92bc3850da0dc1a38ca120a88d9305f3ed0dd9fafcaabc32e464736f6c634300081a0033","linkReferences":{}},"methodIdentifiers":{"BASE_PRICE()":"f86325ed","COEFFICIENT()":"065decc6","PRICE_PRECISION()":"95082d25"},"id":5}