{"abi":[{"type":"constructor","inputs":[{"name":"_usdcToken","type":"address","internalType":"address"},{"name":"_platformToken","type":"address","internalType":"address"},{"name":"_cUSDC","type":"address","internalType":"address"}],"stateMutability":"nonpayable"},{"type":"function","name":"accumulatedYieldPerToken","inputs":[],"outputs":[{"name":"","type":"uint256","internalType":"uint256"}],"stateMutability":"view"},{"type":"function","name":"cUSDC","inputs":[],"outputs":[{"name":"","type":"address","internalType":"contract ICErc20"}],"stateMutability":"view"},{"type":"function","name":"claimYield","inputs":[],"outputs":[],"stateMutability":"nonpayable"},{"type":"function","name":"depositUSDC","inputs":[{"name":"amount","type":"uint256","internalType":"uint256"}],"outputs":[],"stateMutability":"nonpayable"},{"type":"function","name":"emergencyWithdrawUSDC","inputs":[{"name":"to","type":"address","internalType":"address"},{"name":"amount","type":"uint256","internalType":"uint256"}],"outputs":[],"stateMutability":"nonpayable"},{"type":"function","name":"getAccumulatedYieldPerToken","inputs":[],"outputs":[{"name":"","type":"uint256","internalType":"uint256"}],"stateMutability":"view"},{"type":"function","name":"getClaimableYield","inputs":[{"name":"user","type":"address","internalType":"address"}],"outputs":[{"name":"","type":"uint256","internalType":"uint256"}],"stateMutability":"view"},{"type":"function","name":"getCompoundUSDCBalance","inputs":[],"outputs":[{"name":"","type":"uint256","internalType":"uint256"}],"stateMutability":"view"},{"type":"function","name":"getExchangeRate","inputs":[],"outputs":[{"name":"","type":"uint256","internalType":"uint256"}],"stateMutability":"view"},{"type":"function","name":"getLastYieldUpdateTime","inputs":[],"outputs":[{"name":"","type":"uint256","internalType":"uint256"}],"stateMutability":"view"},{"type":"function","name":"getPlatformTokenSupply","inputs":[],"outputs":[{"name":"","type":"uint256","internalType":"uint256"}],"stateMutability":"view"},{"type":"function","name":"getTotalAvailableBalance","inputs":[],"outputs":[{"name":"","type":"uint256","internalType":"uint256"}],"stateMutability":"view"},{"type":"function","name":"getTreasuryBalance","inputs":[],"outputs":[{"name":"","type":"uint256","internalType":"uint256"}],"stateMutability":"view"},{"type":"function","name":"getTreasuryUSDCBalance","inputs":[],"outputs":[{"name":"","type":"uint256","internalType":"uint256"}],"stateMutability":"view"},{"type":"function","name":"lastExchangeRate","inputs":[],"outputs":[{"name":"","type":"uint256","internalType":"uint256"}],"stateMutability":"view"},{"type":"function","name":"lastYieldUpdateTime","inputs":[],"outputs":[{"name":"","type":"uint256","internalType":"uint256"}],"stateMutability":"view"},{"type":"function","name":"owner","inputs":[],"outputs":[{"name":"","type":"address","internalType":"address"}],"stateMutability":"view"},{"type":"function","name":"platformToken","inputs":[],"outputs":[{"name":"","type":"address","internalType":"contract PlatformToken"}],"stateMutability":"view"},{"type":"function","name":"renounceOwnership","inputs":[],"outputs":[],"stateMutability":"nonpayable"},{"type":"function","name":"totalPlatformTokensMinted","inputs":[],"outputs":[{"name":"","type":"uint256","internalType":"uint256"}],"stateMutability":"view"},{"type":"function","name":"totalUSDCBalance","inputs":[],"outputs":[{"name":"","type":"uint256","internalType":"uint256"}],"stateMutability":"view"},{"type":"function","name":"transferOwnership","inputs":[{"name":"newOwner","type":"address","internalType":"address"}],"outputs":[],"stateMutability":"nonpayable"},{"type":"function","name":"treasuryMint","inputs":[{"name":"to","type":"address","internalType":"address"},{"name":"amount","type":"uint256","internalType":"uint256"}],"outputs":[],"stateMutability":"nonpayable"},{"type":"function","name":"usdcToken","inputs":[],"outputs":[{"name":"","type":"address","internalType":"contract IERC20"}],"stateMutability":"view"},{"type":"function","name":"userAccumulatedYield","inputs":[{"name":"","type":"address","internalType":"address"}],"outputs":[{"name":"","type":"uint256","internalType":"uint256"}],"stateMutability":"view"},{"type":"function","name":"userLastYieldPerToken","inputs":[{"name":"","type":"address","internalType":"address"}],"outputs":[{"name":"","type":"uint256","internalType":"uint256"}],"stateMutability":"view"},{"type":"function","name":"withdrawAll","inputs":[],"outputs":[],"stateMutability":"nonpayable"},{"type":"function","name":"withdrawUSDC","inputs":[{"name":"platformTokenAmount","type":"uint256","internalType":"uint256"}],"outputs":[],"stateMutability":"nonpayable"},{"type":"event","name":"EmergencyWithdrawal","inputs":[{"name":"owner","type":"address","indexed":true,"internalType":"address"},{"name":"recipient","type":"address","indexed":true,"internalType":"address"},{"name":"amount","type":"uint256","indexed":false,"internalType":"uint256"},{"name":"timestamp","type":"uint256","indexed":false,"internalType":"uint256"}],"anonymous":false},{"type":"event","name":"ExchangeRateUpdated","inputs":[{"name":"newRate","type":"uint256","indexed":false,"internalType":"uint256"}],"anonymous":false},{"type":"event","name":"OwnershipTransferred","inputs":[{"name":"previousOwner","type":"address","indexed":true,"internalType":"address"},{"name":"newOwner","type":"address","indexed":true,"internalType":"address"}],"anonymous":false},{"type":"event","name":"TreasuryMint","inputs":[{"name":"to","type":"address","indexed":true,"internalType":"address"},{"name":"amount","type":"uint256","indexed":false,"internalType":"uint256"}],"anonymous":false},{"type":"event","name":"USDCDeposited","inputs":[{"name":"user","type":"address","indexed":true,"internalType":"address"},{"name":"usdcAmount","type":"uint256","indexed":false,"internalType":"uint256"},{"name":"platformTokensMinted","type":"uint256","indexed":false,"internalType":"uint256"}],"anonymous":false},{"type":"event","name":"USDCWithdrawn","inputs":[{"name":"user","type":"address","indexed":true,"internalType":"address"},{"name":"platformTokensBurned","type":"uint256","indexed":false,"internalType":"uint256"},{"name":"usdcAmount","type":"uint256","indexed":false,"internalType":"uint256"}],"anonymous":false},{"type":"event","name":"YieldAccrued","inputs":[{"name":"yieldAmount","type":"uint256","indexed":false,"internalType":"uint256"},{"name":"newAccumulatedYieldPerToken","type":"uint256","indexed":false,"internalType":"uint256"}],"anonymous":false},{"type":"error","name":"OwnableInvalidOwner","inputs":[{"name":"owner","type":"address","internalType":"address"}]},{"type":"error","name":"OwnableUnauthorizedAccount","inputs":[{"name":"account","type":"address","internalType":"address"}]},{"type":"error","name":"ReentrancyGuardReentrantCall","inputs":[]}],"bytecode":{"object":"0x60e06040523480156200001157600080fd5b50604051620026ed380380620026ed83398101604081905262000034916200022a565b600160005533806200006157604051631e4fbdf760e01b8152600060048201526024015b60405180910390fd5b6200006c81620001bb565b506001600160a01b038316620000cf5760405162461bcd60e51b815260206004820152602160248201527f5553444320746f6b656e2063616e6e6f74206265207a65726f206164647265736044820152607360f81b606482015260840162000058565b6001600160a01b038216620001355760405162461bcd60e51b815260206004820152602560248201527f506c6174666f726d20746f6b656e2063616e6e6f74206265207a65726f206164604482015264647265737360d81b606482015260840162000058565b6001600160a01b0381166200018d5760405162461bcd60e51b815260206004820152601c60248201527f43555344432063616e6e6f74206265207a65726f206164647265737300000000604482015260640162000058565b6001600160a01b0392831660805290821660a0521660c05242600455670de0b6b3a764000060065562000274565b600180546001600160a01b038381166001600160a01b0319831681179093556040519116919082907f8be0079c531659141344cd1fd0a4f28419497f9722a3daafe3b4186f6b6457e090600090a35050565b80516001600160a01b03811681146200022557600080fd5b919050565b6000806000606084860312156200024057600080fd5b6200024b846200020d565b92506200025b602085016200020d565b91506200026b604085016200020d565b90509250925092565b60805160a05160c051612346620003a7600039600081816102dc01528181610569015281816106780152818161091401528181610d0101528181610f700152818161146e015281816116dd01528181611b0e01528181611b93015261208301526000818161030c01528181610a7101528181610bcd01528181611121015281816112100152818161134a015281816117e701528181611a160152611dd80152600081816101f2015281816103cb015281816104d3015281816106a50152818161071a0152818161087901528181610941015281816109b601528181610c6501528181610d2e01528181610da401528181610e4401528181610ff8015281816113ca0152818161149b01528181611511015281816115b10152818161198001528181611ae10152611bc001526123466000f3fe608060405234801561001057600080fd5b50600436106101c45760003560e01c8063aa35cca3116100f9578063e1b3815611610097578063ec797fc211610071578063ec797fc214610371578063f0f47cb714610384578063f2fde38b1461038d578063f688bcfb146103a057600080fd5b8063e1b3815614610341578063e3cf634014610349578063e6aa216c1461036957600080fd5b8063ce347a3e116100d3578063ce347a3e146102d7578063d168e203146102fe578063d1b812cd14610307578063db81f99b1461032e57600080fd5b8063aa35cca3146102b3578063b2449ef3146102c6578063c0e5eea4146102ce57600080fd5b80634de396ca116101665780638782524e116101405780638782524e146102895780638da5cb5b146102915780639764e249146102a25780639b5655dc146102ab57600080fd5b80634de396ca14610271578063715018a614610279578063853828b61461028157600080fd5b80632829cfb2116101a25780632829cfb21461022c5780633fac810514610234578063406cf229146102495780634177f5641461025157600080fd5b80630b53f848146101c95780630e91ae28146101e557806311eac855146101ed575b600080fd5b6101d260035481565b6040519081526020015b60405180910390f35b6101d26103b3565b6102147f000000000000000000000000000000000000000000000000000000000000000081565b6040516001600160a01b0390911681526020016101dc565b6004546101d2565b6102476102423660046121ac565b610444565b005b6102476107e1565b6101d261025f3660046121d6565b60086020526000908152604090205481565b6003546101d2565b610247610a3f565b610247610a51565b6101d2610f58565b6001546001600160a01b0316610214565b6101d260065481565b6101d2611075565b6102476102c13660046121ac565b61108c565b6005546101d2565b6101d260045481565b6102147f000000000000000000000000000000000000000000000000000000000000000081565b6101d260055481565b6102147f000000000000000000000000000000000000000000000000000000000000000081565b61024761033c3660046121f1565b6111d1565b6101d26116c5565b6101d26103573660046121d6565b60076020526000908152604090205481565b6101d2611714565b6101d261037f3660046121d6565b61176c565b6101d260025481565b61024761039b3660046121d6565b6118f3565b6102476103ae3660046121f1565b61192e565b6040516370a0823160e01b81523060048201526000907f00000000000000000000000000000000000000000000000000000000000000006001600160a01b0316906370a08231906024015b602060405180830381865afa15801561041b573d6000803e3d6000fd5b505050506040513d601f19601f8201168201806040525081019061043f919061220a565b905090565b61044c611c6a565b6001600160a01b03821661049b5760405162461bcd60e51b8152602060048201526011602482015270125b9d985b1a59081c9958da5c1a595b9d607a1b60448201526064015b60405180910390fd5b600081116104bb5760405162461bcd60e51b815260040161049290612223565b6040516370a0823160e01b81523060048201526000907f00000000000000000000000000000000000000000000000000000000000000006001600160a01b0316906370a0823190602401602060405180830381865afa158015610522573d6000803e3d6000fd5b505050506040513d601f19601f82011682018060405250810190610546919061220a565b604051633af9e66960e01b81523060048201529091506000906001600160a01b037f00000000000000000000000000000000000000000000000000000000000000001690633af9e66990602401602060405180830381865afa1580156105b0573d6000803e3d6000fd5b505050506040513d601f19601f820116820180604052508101906105d4919061220a565b905060006105e28284612270565b90508084111561064a5760405162461bcd60e51b815260206004820152602d60248201527f496e73756666696369656e742062616c616e636520666f7220656d657267656e60448201526c18de481dda5d1a191c985dd85b609a1b6064820152608401610492565b8383101561070357600061065e8486612289565b60405163f3fef3a360e01b81529091506001600160a01b037f0000000000000000000000000000000000000000000000000000000000000000169063f3fef3a3906106cf907f000000000000000000000000000000000000000000000000000000000000000090859060040161229c565b600060405180830381600087803b1580156106e957600080fd5b505af11580156106fd573d6000803e3d6000fd5b50505050505b60405163a9059cbb60e01b81526001600160a01b037f0000000000000000000000000000000000000000000000000000000000000000169063a9059cbb90610751908890889060040161229c565b6020604051808303816000875af1158015610770573d6000803e3d6000fd5b505050506040513d601f19601f8201168201806040525081019061079491906122b5565b50604080518581524260208201526001600160a01b0387169133917f873da158b95a7e5e83e2f84a94eeadadc115c324112605ca1819b276b3b035fa910160405180910390a35050505050565b6107e9611c97565b6107f1611cc1565b6107fa33611db6565b336000908152600860205260409020548061084b5760405162461bcd60e51b81526020600482015260116024820152704e6f207969656c6420746f20636c61696d60781b6044820152606401610492565b33600090815260086020526040808220829055516370a0823160e01b81523060048201526001600160a01b037f000000000000000000000000000000000000000000000000000000000000000016906370a0823190602401602060405180830381865afa1580156108c0573d6000803e3d6000fd5b505050506040513d601f19601f820116820180604052508101906108e4919061220a565b90508181101561099f5760006108fa8284612289565b60405163f3fef3a360e01b81529091506001600160a01b037f0000000000000000000000000000000000000000000000000000000000000000169063f3fef3a39061096b907f000000000000000000000000000000000000000000000000000000000000000090859060040161229c565b600060405180830381600087803b15801561098557600080fd5b505af1158015610999573d6000803e3d6000fd5b50505050505b60405163a9059cbb60e01b81526001600160a01b037f0000000000000000000000000000000000000000000000000000000000000000169063a9059cbb906109ed903390869060040161229c565b6020604051808303816000875af1158015610a0c573d6000803e3d6000fd5b505050506040513d601f19601f82011682018060405250810190610a3091906122b5565b505050610a3d6001600055565b565b610a47611c6a565b610a3d6000611ef0565b610a59611c97565b6040516370a0823160e01b81523360048201526000907f00000000000000000000000000000000000000000000000000000000000000006001600160a01b0316906370a0823190602401602060405180830381865afa158015610ac0573d6000803e3d6000fd5b505050506040513d601f19601f82011682018060405250810190610ae4919061220a565b905060008111610b365760405162461bcd60e51b815260206004820152601e60248201527f4e6f20706c6174666f726d20746f6b656e7320746f20776974686472617700006044820152606401610492565b610b3e611cc1565b610b4733611db6565b3360009081526008602052604081205490610b6183611f42565b905060008111610ba75760405162461bcd60e51b81526020600482015260116024820152702737902aa9a221903a37903932ba3ab93760791b6044820152606401610492565b6000610bb38383612270565b604051632770a7eb60e21b81529091506001600160a01b037f00000000000000000000000000000000000000000000000000000000000000001690639dc29fac90610c04903390889060040161229c565b600060405180830381600087803b158015610c1e57600080fd5b505af1158015610c32573d6000803e3d6000fd5b505033600090815260086020526040808220829055516370a0823160e01b81523060048201529092506001600160a01b037f00000000000000000000000000000000000000000000000000000000000000001691506370a0823190602401602060405180830381865afa158015610cad573d6000803e3d6000fd5b505050506040513d601f19601f82011682018060405250810190610cd1919061220a565b905081811015610d8c576000610ce78284612289565b60405163f3fef3a360e01b81529091506001600160a01b037f0000000000000000000000000000000000000000000000000000000000000000169063f3fef3a390610d58907f000000000000000000000000000000000000000000000000000000000000000090859060040161229c565b600060405180830381600087803b158015610d7257600080fd5b505af1158015610d86573d6000803e3d6000fd5b50505050505b6040516370a0823160e01b81523060048201526000907f00000000000000000000000000000000000000000000000000000000000000006001600160a01b0316906370a0823190602401602060405180830381865afa158015610df3573d6000803e3d6000fd5b505050506040513d601f19601f82011682018060405250810190610e17919061220a565b90506000838210610e285783610e2a565b815b60405163a9059cbb60e01b81529091506001600160a01b037f0000000000000000000000000000000000000000000000000000000000000000169063a9059cbb90610e7b903390859060040161229c565b6020604051808303816000875af1158015610e9a573d6000803e3d6000fd5b505050506040513d601f19601f82011682018060405250810190610ebe91906122b5565b506000610ed064e8d4a51000896122d7565b90508060026000828254610ee49190612289565b925050819055508060036000828254610efd9190612289565b90915550610f0b9050611fc6565b604080518981526020810184905233917f9cc6dc8bdb4b6ad75707375ac18017379f79114f0d0dd85bf6de99c0522e8e27910160405180910390a25050505050505050610a3d6001600055565b604051633af9e66960e01b81523060048201526000907f00000000000000000000000000000000000000000000000000000000000000006001600160a01b031690633af9e66990602401602060405180830381865afa158015610fbf573d6000803e3d6000fd5b505050506040513d601f19601f82011682018060405250810190610fe3919061220a565b6040516370a0823160e01b81523060048201527f00000000000000000000000000000000000000000000000000000000000000006001600160a01b0316906370a0823190602401602060405180830381865afa158015611047573d6000803e3d6000fd5b505050506040513d601f19601f8201168201806040525081019061106b919061220a565b61043f9190612270565b600061107f612061565b60025461043f9190612270565b611094611c6a565b6001600160a01b0382166110ea5760405162461bcd60e51b815260206004820152601b60248201527f43616e6e6f74206d696e7420746f207a65726f206164647265737300000000006044820152606401610492565b6000811161110a5760405162461bcd60e51b815260040161049290612223565b6040516340c10f1960e01b81526001600160a01b037f000000000000000000000000000000000000000000000000000000000000000016906340c10f1990611158908590859060040161229c565b600060405180830381600087803b15801561117257600080fd5b505af1158015611186573d6000803e3d6000fd5b50505050816001600160a01b03167f4a9f0bc4fa7e0e0d70aba96482e6e4dadf15298daff23a34b937566acd51b393826040516111c591815260200190565b60405180910390a25050565b6111d9611c97565b600081116111f95760405162461bcd60e51b815260040161049290612223565b6040516370a0823160e01b815233600482015281907f00000000000000000000000000000000000000000000000000000000000000006001600160a01b0316906370a0823190602401602060405180830381865afa15801561125f573d6000803e3d6000fd5b505050506040513d601f19601f82011682018060405250810190611283919061220a565b10156112d15760405162461bcd60e51b815260206004820152601c60248201527f496e73756666696369656e7420706c6174666f726d20746f6b656e73000000006044820152606401610492565b6112d9611cc1565b6112e233611db6565b60006112ed82611f42565b9050600081116113335760405162461bcd60e51b81526020600482015260116024820152702737902aa9a221903a37903932ba3ab93760791b6044820152606401610492565b604051632770a7eb60e21b81526001600160a01b037f00000000000000000000000000000000000000000000000000000000000000001690639dc29fac90611381903390869060040161229c565b600060405180830381600087803b15801561139b57600080fd5b505af11580156113af573d6000803e3d6000fd5b50506040516370a0823160e01b8152306004820152600092507f00000000000000000000000000000000000000000000000000000000000000006001600160a01b031691506370a0823190602401602060405180830381865afa15801561141a573d6000803e3d6000fd5b505050506040513d601f19601f8201168201806040525081019061143e919061220a565b9050818110156114f95760006114548284612289565b60405163f3fef3a360e01b81529091506001600160a01b037f0000000000000000000000000000000000000000000000000000000000000000169063f3fef3a3906114c5907f000000000000000000000000000000000000000000000000000000000000000090859060040161229c565b600060405180830381600087803b1580156114df57600080fd5b505af11580156114f3573d6000803e3d6000fd5b50505050505b6040516370a0823160e01b81523060048201526000907f00000000000000000000000000000000000000000000000000000000000000006001600160a01b0316906370a0823190602401602060405180830381865afa158015611560573d6000803e3d6000fd5b505050506040513d601f19601f82011682018060405250810190611584919061220a565b905060008382106115955783611597565b815b60405163a9059cbb60e01b81529091506001600160a01b037f0000000000000000000000000000000000000000000000000000000000000000169063a9059cbb906115e8903390859060040161229c565b6020604051808303816000875af1158015611607573d6000803e3d6000fd5b505050506040513d601f19601f8201168201806040525081019061162b91906122b5565b50600061163d64e8d4a51000876122d7565b905080600260008282546116519190612289565b92505081905550806003600082825461166a9190612289565b909155506116789050611fc6565b604080518781526020810184905233917f9cc6dc8bdb4b6ad75707375ac18017379f79114f0d0dd85bf6de99c0522e8e27910160405180910390a250505050506116c26001600055565b50565b604051633af9e66960e01b81523060048201526000907f00000000000000000000000000000000000000000000000000000000000000006001600160a01b031690633af9e669906024016103fe565b600060035460000361172d5750670de0b6b3a764000090565b6000611737612061565b6002546117449190612270565b60035490915061175c82670de0b6b3a76400006122f9565b61176691906122d7565b91505090565b600080611777612061565b600554909150811580159061178e57506000600354115b156117c5576003546000906117ab84670de0b6b3a76400006122f9565b6117b591906122d7565b90506117c18183612270565b9150505b6040516370a0823160e01b81526001600160a01b0385811660048301526000917f0000000000000000000000000000000000000000000000000000000000000000909116906370a0823190602401602060405180830381865afa158015611830573d6000803e3d6000fd5b505050506040513d601f19601f82011682018060405250810190611854919061220a565b90508060000361187d57505050506001600160a01b031660009081526008602052604090205490565b6001600160a01b0385166000908152600760205260408120546118a09084612289565b90506000670de0b6b3a76400006118b783856122f9565b6118c191906122d7565b6001600160a01b0388166000908152600860205260409020549091506118e8908290612270565b979650505050505050565b6118fb611c6a565b6001600160a01b03811661192557604051631e4fbdf760e01b815260006004820152602401610492565b6116c281611ef0565b611936611c97565b600081116119565760405162461bcd60e51b815260040161049290612223565b61195e611cc1565b6040516323b872dd60e01b8152336004820152306024820152604481018290527f00000000000000000000000000000000000000000000000000000000000000006001600160a01b0316906323b872dd906064016020604051808303816000875af11580156119d1573d6000803e3d6000fd5b505050506040513d601f19601f820116820180604052508101906119f591906122b5565b506000611a0182612125565b9050611a0c33611db6565b6001600160a01b037f0000000000000000000000000000000000000000000000000000000000000000166340c10f1933611a4b8464e8d4a510006122f9565b6040518363ffffffff1660e01b8152600401611a6892919061229c565b600060405180830381600087803b158015611a8257600080fd5b505af1158015611a96573d6000803e3d6000fd5b505050508160026000828254611aac9190612270565b925050819055508060036000828254611ac59190612270565b909155505060405163095ea7b360e01b81526001600160a01b037f0000000000000000000000000000000000000000000000000000000000000000169063095ea7b390611b38907f000000000000000000000000000000000000000000000000000000000000000090869060040161229c565b6020604051808303816000875af1158015611b57573d6000803e3d6000fd5b505050506040513d601f19601f82011682018060405250810190611b7b91906122b5565b50604051631e573fb760e31b81526001600160a01b037f0000000000000000000000000000000000000000000000000000000000000000169063f2b9fdb890611bea907f000000000000000000000000000000000000000000000000000000000000000090869060040161229c565b600060405180830381600087803b158015611c0457600080fd5b505af1158015611c18573d6000803e3d6000fd5b50505050611c24611fc6565b604080518381526020810183905233917fdf761661d51ab4147355430c8891e0dc7406b6aece4d2b564ccd87e0baa6dfd9910160405180910390a2506116c26001600055565b6001546001600160a01b03163314610a3d5760405163118cdaa760e01b8152336004820152602401610492565b600260005403611cba57604051633ee5aeb560e01b815260040160405180910390fd5b6002600055565b6000611ccb612061565b9050600081118015611cdf57506000600354115b156116c257600060035411611d365760405162461bcd60e51b815260206004820152601960248201527f4e6f20706c6174666f726d20746f6b656e73206d696e746564000000000000006044820152606401610492565b600354600090611d4e83670de0b6b3a76400006122f9565b611d5891906122d7565b90508060056000828254611d6c9190612270565b9091555050426004556005546040805184815260208101929092527ffe2ebf53456a69d7b70affc98b9021c791a9bce3af6fa5d24dfbc2db0f817b54910160405180910390a15050565b6040516370a0823160e01b81526001600160a01b0382811660048301526000917f0000000000000000000000000000000000000000000000000000000000000000909116906370a0823190602401602060405180830381865afa158015611e21573d6000803e3d6000fd5b505050506040513d601f19601f82011682018060405250810190611e45919061220a565b90508015611ed0576001600160a01b038216600090815260076020526040812054600554611e739190612289565b90508015611ece576000670de0b6b3a7640000611e9083856122f9565b611e9a91906122d7565b6001600160a01b038516600090815260086020526040812080549293508392909190611ec7908490612270565b9091555050505b505b506005546001600160a01b03909116600090815260076020526040902055565b600180546001600160a01b038381166001600160a01b0319831681179093556040519116919082907f8be0079c531659141344cd1fd0a4f28419497f9722a3daafe3b4186f6b6457e090600090a35050565b6000600354600003611f5657506000919050565b6000611f6764e8d4a51000846122d7565b90506000611f73612061565b600254611f809190612270565b9050600354670de0b6b3a7640000611f9891906122f9565b611fa282846122f9565b611fb490670de0b6b3a76400006122f9565b611fbe91906122d7565b949350505050565b611fce611cc1565b6000600354600003611fe95750670de0b6b3a7640000612026565b6000611ff3612061565b6002546120009190612270565b60035490915061201882670de0b6b3a76400006122f9565b61202291906122d7565b9150505b60068190556040518181527f388f446e9526fe5c9af20a5919b342370c8a7c0cb05245afe1e545658fa3cdba9060200160405180910390a150565b604051633af9e66960e01b815230600482015260009081906001600160a01b037f00000000000000000000000000000000000000000000000000000000000000001690633af9e66990602401602060405180830381865afa1580156120ca573d6000803e3d6000fd5b505050506040513d601f19601f820116820180604052508101906120ee919061220a565b90508060000361210057600091505090565b6002548082111561211c576121158183612289565b9250505090565b60009250505090565b6000600354600003612135575090565b600061213f612061565b60025461214c9190612270565b905061216081670de0b6b3a76400006122f9565b60035461216d90856122f9565b61217f90670de0b6b3a76400006122f9565b61218991906122d7565b9392505050565b80356001600160a01b03811681146121a757600080fd5b919050565b600080604083850312156121bf57600080fd5b6121c883612190565b946020939093013593505050565b6000602082840312156121e857600080fd5b61218982612190565b60006020828403121561220357600080fd5b5035919050565b60006020828403121561221c57600080fd5b5051919050565b6020808252601d908201527f416d6f756e74206d7573742062652067726561746572207468616e2030000000604082015260600190565b634e487b7160e01b600052601160045260246000fd5b808201808211156122835761228361225a565b92915050565b818103818111156122835761228361225a565b6001600160a01b03929092168252602082015260400190565b6000602082840312156122c757600080fd5b8151801515811461218957600080fd5b6000826122f457634e487b7160e01b600052601260045260246000fd5b500490565b80820281158282048414176122835761228361225a56fea2646970667358221220c64fc333b05d9987cf8c659c20cf46a5191a7636820fd9a5cbef095a5ec7fc6764736f6c63430008140033","linkReferences":{}},"methodIdentifiers":{"accumulatedYieldPerToken()":"d168e203","cUSDC()":"ce347a3e","claimYield()":"406cf229","depositUSDC(uint256)":"f688bcfb","emergencyWithdrawUSDC(address,uint256)":"3fac8105","getAccumulatedYieldPerToken()":"b2449ef3","getClaimableYield(address)":"ec797fc2","getCompoundUSDCBalance()":"e1b38156","getExchangeRate()":"e6aa216c","getLastYieldUpdateTime()":"2829cfb2","getPlatformTokenSupply()":"4de396ca","getTotalAvailableBalance()":"8782524e","getTreasuryBalance()":"9b5655dc","getTreasuryUSDCBalance()":"0e91ae28","lastExchangeRate()":"9764e249","lastYieldUpdateTime()":"c0e5eea4","owner()":"8da5cb5b","platformToken()":"d1b812cd","renounceOwnership()":"715018a6","totalPlatformTokensMinted()":"0b53f848","totalUSDCBalance()":"f0f47cb7","transferOwnership(address)":"f2fde38b","treasuryMint(address,uint256)":"aa35cca3","usdcToken()":"11eac855","userAccumulatedYield(address)":"4177f564","userLastYieldPerToken(address)":"e3cf6340","withdrawAll()":"853828b6","withdrawUSDC(uint256)":"db81f99b"},"id":30}