{"abi":[{"type":"constructor","inputs":[{"name":"_usdcToken","type":"address","internalType":"address"},{"name":"_platformToken","type":"address","internalType":"address"},{"name":"_aavePoolAddressesProvider","type":"address","internalType":"address"}],"stateMutability":"nonpayable"},{"type":"function","name":"aUSDC","inputs":[],"outputs":[{"name":"","type":"address","internalType":"contract IERC20"}],"stateMutability":"view"},{"type":"function","name":"aavePool","inputs":[],"outputs":[{"name":"","type":"address","internalType":"contract IPool"}],"stateMutability":"view"},{"type":"function","name":"depositUSDC","inputs":[{"name":"amount","type":"uint256","internalType":"uint256"}],"outputs":[],"stateMutability":"nonpayable"},{"type":"function","name":"emergencyWithdrawUSDC","inputs":[{"name":"to","type":"address","internalType":"address"},{"name":"amount","type":"uint256","internalType":"uint256"}],"outputs":[],"stateMutability":"nonpayable"},{"type":"function","name":"getExchangeRate","inputs":[],"outputs":[{"name":"","type":"uint256","internalType":"uint256"}],"stateMutability":"view"},{"type":"function","name":"getPlatformTokenSupply","inputs":[],"outputs":[{"name":"","type":"uint256","internalType":"uint256"}],"stateMutability":"view"},{"type":"function","name":"getTreasuryBalance","inputs":[],"outputs":[{"name":"","type":"uint256","internalType":"uint256"}],"stateMutability":"view"},{"type":"function","name":"owner","inputs":[],"outputs":[{"name":"","type":"address","internalType":"address"}],"stateMutability":"view"},{"type":"function","name":"platformToken","inputs":[],"outputs":[{"name":"","type":"address","internalType":"contract PlatformToken"}],"stateMutability":"view"},{"type":"function","name":"renounceOwnership","inputs":[],"outputs":[],"stateMutability":"nonpayable"},{"type":"function","name":"totalPlatformTokensMinted","inputs":[],"outputs":[{"name":"","type":"uint256","internalType":"uint256"}],"stateMutability":"view"},{"type":"function","name":"totalUSDCBalance","inputs":[],"outputs":[{"name":"","type":"uint256","internalType":"uint256"}],"stateMutability":"view"},{"type":"function","name":"transferOwnership","inputs":[{"name":"newOwner","type":"address","internalType":"address"}],"outputs":[],"stateMutability":"nonpayable"},{"type":"function","name":"updateExchangeRate","inputs":[],"outputs":[],"stateMutability":"nonpayable"},{"type":"function","name":"usdcToken","inputs":[],"outputs":[{"name":"","type":"address","internalType":"contract IERC20"}],"stateMutability":"view"},{"type":"function","name":"withdrawUSDC","inputs":[{"name":"platformTokenAmount","type":"uint256","internalType":"uint256"}],"outputs":[],"stateMutability":"nonpayable"},{"type":"event","name":"ExchangeRateUpdated","inputs":[{"name":"newRate","type":"uint256","indexed":false,"internalType":"uint256"}],"anonymous":false},{"type":"event","name":"OwnershipTransferred","inputs":[{"name":"previousOwner","type":"address","indexed":true,"internalType":"address"},{"name":"newOwner","type":"address","indexed":true,"internalType":"address"}],"anonymous":false},{"type":"event","name":"USDCDeposited","inputs":[{"name":"user","type":"address","indexed":true,"internalType":"address"},{"name":"usdcAmount","type":"uint256","indexed":false,"internalType":"uint256"},{"name":"platformTokensMinted","type":"uint256","indexed":false,"internalType":"uint256"}],"anonymous":false},{"type":"event","name":"USDCWithdrawn","inputs":[{"name":"user","type":"address","indexed":true,"internalType":"address"},{"name":"platformTokensBurned","type":"uint256","indexed":false,"internalType":"uint256"},{"name":"usdcAmount","type":"uint256","indexed":false,"internalType":"uint256"}],"anonymous":false},{"type":"error","name":"OwnableInvalidOwner","inputs":[{"name":"owner","type":"address","internalType":"address"}]},{"type":"error","name":"OwnableUnauthorizedAccount","inputs":[{"name":"account","type":"address","internalType":"address"}]},{"type":"error","name":"ReentrancyGuardReentrantCall","inputs":[]}],"bytecode":{"object":"0x61010060405234801561001157600080fd5b50604051611605380380611605833981016040819052610030916101d6565b6001600055338061005b57604051631e4fbdf760e01b81526000600482015260240160405180910390fd5b61006481610168565b506001600160a01b0380841660805282811660a0526040805163026b1d5f60e01b81529051839283169163026b1d5f9160048083019260209291908290030181865afa1580156100b8573d6000803e3d6000fd5b505050506040513d601f19601f820116820180604052508101906100dc9190610219565b6001600160a01b0390811660c08190526040516335ea6a7560e01b81529186166004830152906335ea6a75906024016101e060405180830381865afa158015610129573d6000803e3d6000fd5b505050506040513d601f19601f8201168201806040525081019061014d91906102ff565b61010001516001600160a01b031660e0525061042b92505050565b600180546001600160a01b038381166001600160a01b0319831681179093556040519116919082907f8be0079c531659141344cd1fd0a4f28419497f9722a3daafe3b4186f6b6457e090600090a35050565b80516001600160a01b03811681146101d157600080fd5b919050565b6000806000606084860312156101eb57600080fd5b6101f4846101ba565b9250610202602085016101ba565b9150610210604085016101ba565b90509250925092565b60006020828403121561022b57600080fd5b610234826101ba565b9392505050565b6040516101e081016001600160401b038111828210171561026c57634e487b7160e01b600052604160045260246000fd5b60405290565b60006020828403121561028457600080fd5b604051602081016001600160401b03811182821017156102b457634e487b7160e01b600052604160045260246000fd5b6040529151825250919050565b80516001600160801b03811681146101d157600080fd5b805164ffffffffff811681146101d157600080fd5b805161ffff811681146101d157600080fd5b60006101e082840312801561031357600080fd5b5061031c61023b565b6103268484610272565b8152610334602084016102c1565b6020820152610345604084016102c1565b6040820152610356606084016102c1565b6060820152610367608084016102c1565b608082015261037860a084016102c1565b60a082015261038960c084016102d8565b60c082015261039a60e084016102ed565b60e08201526103ac61010084016101ba565b6101008201526103bf61012084016101ba565b6101208201526103d261014084016101ba565b6101408201526103e561016084016101ba565b6101608201526103f861018084016102c1565b61018082015261040b6101a084016102c1565b6101a082015261041e6101c084016102c1565b6101c08201529392505050565b60805160a05160c05160e05161112a6104db6000396000818161018a0152610db00152600081816101d20152818161045a0152818161085601528181610bfc0152610cec0152600081816101f9015281816105d4015281816107020152610b510152600081816101300152818161038201528181610422015281816104f20152818161077d0152818161081e015281816108e401528181610ab101528181610c2b0152610cb0015261112a6000f3fe608060405234801561001057600080fd5b50600436106101005760003560e01c80639b5655dc11610097578063e6aa216c11610066578063e6aa216c1461022e578063f0f47cb714610236578063f2fde38b1461023f578063f688bcfb1461025257600080fd5b80639b5655dc146101c5578063a03e4bc3146101cd578063d1b812cd146101f4578063db81f99b1461021b57600080fd5b80634de396ca116100d35780634de396ca1461017d578063559fda3314610185578063715018a6146101ac5780638da5cb5b146101b457600080fd5b806302ce728f146101055780630b53f8481461010f57806311eac8551461012b5780633fac81051461016a575b600080fd5b61010d610265565b005b61011860035481565b6040519081526020015b60405180910390f35b6101527f000000000000000000000000000000000000000000000000000000000000000081565b6040516001600160a01b039091168152602001610122565b61010d610178366004610faf565b6102f3565b600354610118565b6101527f000000000000000000000000000000000000000000000000000000000000000081565b61010d610565565b6001546001600160a01b0316610152565b610118610579565b6101527f000000000000000000000000000000000000000000000000000000000000000081565b6101527f000000000000000000000000000000000000000000000000000000000000000081565b61010d610229366004610fd9565b610595565b6101186109d4565b61011860025481565b61010d61024d366004610ff2565b610a2c565b61010d610260366004610fd9565b610a67565b60006003546000036102805750670de0b6b3a76400006102bd565b600061028a610d8e565b6002546102979190611023565b6003549091506102af82670de0b6b3a7640000611036565b6102b9919061104d565b9150505b6040518181527f388f446e9526fe5c9af20a5919b342370c8a7c0cb05245afe1e545658fa3cdba9060200160405180910390a150565b6102fb610e52565b6001600160a01b03821661034a5760405162461bcd60e51b8152602060048201526011602482015270125b9d985b1a59081c9958da5c1a595b9d607a1b60448201526064015b60405180910390fd5b6000811161036a5760405162461bcd60e51b81526004016103419061106f565b6040516370a0823160e01b81523060048201526000907f00000000000000000000000000000000000000000000000000000000000000006001600160a01b0316906370a0823190602401602060405180830381865afa1580156103d1573d6000803e3d6000fd5b505050506040513d601f19601f820116820180604052508101906103f591906110a6565b9050818110156104cc57600061040b82846110bf565b604051631a4ca37b60e21b81526001600160a01b037f000000000000000000000000000000000000000000000000000000000000000081166004830152602482018390523060448301529192507f0000000000000000000000000000000000000000000000000000000000000000909116906369328dec906064016020604051808303816000875af11580156104a5573d6000803e3d6000fd5b505050506040513d601f19601f820116820180604052508101906104c991906110a6565b50505b60405163a9059cbb60e01b81526001600160a01b038481166004830152602482018490527f0000000000000000000000000000000000000000000000000000000000000000169063a9059cbb906044016020604051808303816000875af115801561053b573d6000803e3d6000fd5b505050506040513d601f19601f8201168201806040525081019061055f91906110d2565b50505050565b61056d610e52565b6105776000610e7f565b565b6000610583610d8e565b6002546105909190611023565b905090565b61059d610ed1565b600081116105bd5760405162461bcd60e51b81526004016103419061106f565b6040516370a0823160e01b815233600482015281907f00000000000000000000000000000000000000000000000000000000000000006001600160a01b0316906370a0823190602401602060405180830381865afa158015610623573d6000803e3d6000fd5b505050506040513d601f19601f8201168201806040525081019061064791906110a6565b10156106955760405162461bcd60e51b815260206004820152601c60248201527f496e73756666696369656e7420706c6174666f726d20746f6b656e73000000006044820152606401610341565b60006106a082610efb565b9050600081116106e65760405162461bcd60e51b81526020600482015260116024820152702737902aa9a221903a37903932ba3ab93760791b6044820152606401610341565b604051632770a7eb60e21b8152336004820152602481018390527f00000000000000000000000000000000000000000000000000000000000000006001600160a01b031690639dc29fac90604401600060405180830381600087803b15801561074e57600080fd5b505af1158015610762573d6000803e3d6000fd5b50506040516370a0823160e01b8152306004820152600092507f00000000000000000000000000000000000000000000000000000000000000006001600160a01b031691506370a0823190602401602060405180830381865afa1580156107cd573d6000803e3d6000fd5b505050506040513d601f19601f820116820180604052508101906107f191906110a6565b9050818110156108c857600061080782846110bf565b604051631a4ca37b60e21b81526001600160a01b037f000000000000000000000000000000000000000000000000000000000000000081166004830152602482018390523060448301529192507f0000000000000000000000000000000000000000000000000000000000000000909116906369328dec906064016020604051808303816000875af11580156108a1573d6000803e3d6000fd5b505050506040513d601f19601f820116820180604052508101906108c591906110a6565b50505b60405163a9059cbb60e01b8152336004820152602481018390527f00000000000000000000000000000000000000000000000000000000000000006001600160a01b03169063a9059cbb906044016020604051808303816000875af1158015610935573d6000803e3d6000fd5b505050506040513d601f19601f8201168201806040525081019061095991906110d2565b50816002600082825461096c91906110bf565b92505081905550826003600082825461098591906110bf565b9091555050604080518481526020810184905233917f9cc6dc8bdb4b6ad75707375ac18017379f79114f0d0dd85bf6de99c0522e8e27910160405180910390a250506109d16001600055565b50565b60006003546000036109ed5750670de0b6b3a764000090565b60006109f7610d8e565b600254610a049190611023565b600354909150610a1c82670de0b6b3a7640000611036565b610a26919061104d565b91505090565b610a34610e52565b6001600160a01b038116610a5e57604051631e4fbdf760e01b815260006004820152602401610341565b6109d181610e7f565b610a6f610ed1565b60008111610a8f5760405162461bcd60e51b81526004016103419061106f565b6040516323b872dd60e01b8152336004820152306024820152604481018290527f00000000000000000000000000000000000000000000000000000000000000006001600160a01b0316906323b872dd906064016020604051808303816000875af1158015610b02573d6000803e3d6000fd5b505050506040513d601f19601f82011682018060405250810190610b2691906110d2565b506000610b3282610f47565b6040516340c10f1960e01b8152336004820152602481018290529091507f00000000000000000000000000000000000000000000000000000000000000006001600160a01b0316906340c10f1990604401600060405180830381600087803b158015610b9d57600080fd5b505af1158015610bb1573d6000803e3d6000fd5b505050508160026000828254610bc79190611023565b925050819055508060036000828254610be09190611023565b909155505060405163095ea7b360e01b81526001600160a01b037f000000000000000000000000000000000000000000000000000000000000000081166004830152602482018490527f0000000000000000000000000000000000000000000000000000000000000000169063095ea7b3906044016020604051808303816000875af1158015610c74573d6000803e3d6000fd5b505050506040513d601f19601f82011682018060405250810190610c9891906110d2565b5060405163617ba03760e01b81526001600160a01b037f00000000000000000000000000000000000000000000000000000000000000008116600483015260248201849052306044830152600060648301527f0000000000000000000000000000000000000000000000000000000000000000169063617ba03790608401600060405180830381600087803b158015610d3057600080fd5b505af1158015610d44573d6000803e3d6000fd5b505060408051858152602081018590523393507fdf761661d51ab4147355430c8891e0dc7406b6aece4d2b564ccd87e0baa6dfd992500160405180910390a2506109d16001600055565b6040516370a0823160e01b815230600482015260009081906001600160a01b037f000000000000000000000000000000000000000000000000000000000000000016906370a0823190602401602060405180830381865afa158015610df7573d6000803e3d6000fd5b505050506040513d601f19601f82011682018060405250810190610e1b91906110a6565b905080600003610e2d57600091505090565b60025480821115610e4957610e4281836110bf565b9250505090565b60009250505090565b6001546001600160a01b031633146105775760405163118cdaa760e01b8152336004820152602401610341565b600180546001600160a01b038381166001600160a01b0319831681179093556040519116919082907f8be0079c531659141344cd1fd0a4f28419497f9722a3daafe3b4186f6b6457e090600090a35050565b600260005403610ef457604051633ee5aeb560e01b815260040160405180910390fd5b6002600055565b6000600354600003610f0f57506000919050565b6000610f19610d8e565b600254610f269190611023565b600354909150610f368285611036565b610f40919061104d565b9392505050565b6000600354600003610f6b57610f6582670de0b6b3a7640000611036565b92915050565b6000610f75610d8e565b600254610f829190611023565b90508060035484610f369190611036565b80356001600160a01b0381168114610faa57600080fd5b919050565b60008060408385031215610fc257600080fd5b610fcb83610f93565b946020939093013593505050565b600060208284031215610feb57600080fd5b5035919050565b60006020828403121561100457600080fd5b610f4082610f93565b634e487b7160e01b600052601160045260246000fd5b80820180821115610f6557610f6561100d565b8082028115828204841417610f6557610f6561100d565b60008261106a57634e487b7160e01b600052601260045260246000fd5b500490565b6020808252601d908201527f416d6f756e74206d7573742062652067726561746572207468616e2030000000604082015260600190565b6000602082840312156110b857600080fd5b5051919050565b81810381811115610f6557610f6561100d565b6000602082840312156110e457600080fd5b81518015158114610f4057600080fdfea2646970667358221220cdeadbc89068b606e494e601beae08e2438c2946a546bb28626e88314c59729e64736f6c634300081a0033","linkReferences":{}},"methodIdentifiers":{"aUSDC()":"559fda33","aavePool()":"a03e4bc3","depositUSDC(uint256)":"f688bcfb","emergencyWithdrawUSDC(address,uint256)":"3fac8105","getExchangeRate()":"e6aa216c","getPlatformTokenSupply()":"4de396ca","getTreasuryBalance()":"9b5655dc","owner()":"8da5cb5b","platformToken()":"d1b812cd","renounceOwnership()":"715018a6","totalPlatformTokensMinted()":"0b53f848","totalUSDCBalance()":"f0f47cb7","transferOwnership(address)":"f2fde38b","updateExchangeRate()":"02ce728f","usdcToken()":"11eac855","withdrawUSDC(uint256)":"db81f99b"},"id":33}