{"abi":[{"type":"constructor","inputs":[{"name":"_paymentToken","type":"address","internalType":"address"},{"name":"_treasury","type":"address","internalType":"address"}],"stateMutability":"nonpayable"},{"type":"function","name":"addOracle","inputs":[{"name":"oracle","type":"address","internalType":"address"}],"outputs":[],"stateMutability":"nonpayable"},{"type":"function","name":"createEscrow","inputs":[{"name":"name","type":"string","internalType":"string"},{"name":"depositAmount","type":"uint256","internalType":"uint256"},{"name":"maxParticipants","type":"uint256","internalType":"uint256"},{"name":"endTime","type":"uint256","internalType":"uint256"},{"name":"oracle","type":"address","internalType":"address"}],"outputs":[{"name":"","type":"address","internalType":"address"}],"stateMutability":"nonpayable"},{"type":"function","name":"escrows","inputs":[{"name":"","type":"uint256","internalType":"uint256"}],"outputs":[{"name":"","type":"address","internalType":"contract Escrow"}],"stateMutability":"view"},{"type":"function","name":"getEscrows","inputs":[],"outputs":[{"name":"","type":"address[]","internalType":"contract Escrow[]"}],"stateMutability":"view"},{"type":"function","name":"oracles","inputs":[{"name":"","type":"address","internalType":"address"}],"outputs":[{"name":"","type":"bool","internalType":"bool"}],"stateMutability":"view"},{"type":"function","name":"owner","inputs":[],"outputs":[{"name":"","type":"address","internalType":"address"}],"stateMutability":"view"},{"type":"function","name":"paymentToken","inputs":[],"outputs":[{"name":"","type":"address","internalType":"address"}],"stateMutability":"view"},{"type":"function","name":"removeOracle","inputs":[{"name":"oracle","type":"address","internalType":"address"}],"outputs":[],"stateMutability":"nonpayable"},{"type":"function","name":"renounceOwnership","inputs":[],"outputs":[],"stateMutability":"nonpayable"},{"type":"function","name":"transferOwnership","inputs":[{"name":"newOwner","type":"address","internalType":"address"}],"outputs":[],"stateMutability":"nonpayable"},{"type":"function","name":"treasury","inputs":[],"outputs":[{"name":"","type":"address","internalType":"address"}],"stateMutability":"view"},{"type":"event","name":"EscrowCreated","inputs":[{"name":"escrow","type":"address","indexed":true,"internalType":"address"},{"name":"host","type":"address","indexed":true,"internalType":"address"},{"name":"depositAmount","type":"uint256","indexed":false,"internalType":"uint256"}],"anonymous":false},{"type":"event","name":"OracleAdded","inputs":[{"name":"oracle","type":"address","indexed":true,"internalType":"address"}],"anonymous":false},{"type":"event","name":"OracleRemoved","inputs":[{"name":"oracle","type":"address","indexed":true,"internalType":"address"}],"anonymous":false},{"type":"event","name":"OwnershipTransferred","inputs":[{"name":"previousOwner","type":"address","indexed":true,"internalType":"address"},{"name":"newOwner","type":"address","indexed":true,"internalType":"address"}],"anonymous":false},{"type":"error","name":"OwnableInvalidOwner","inputs":[{"name":"owner","type":"address","internalType":"address"}]},{"type":"error","name":"OwnableUnauthorizedAccount","inputs":[{"name":"account","type":"address","internalType":"address"}]}],"bytecode":{"object":"0x60c060405234801561001057600080fd5b5060405161255338038061255383398101604081905261002f916100e2565b338061005557604051631e4fbdf760e01b81526000600482015260240160405180910390fd5b61005e81610076565b506001600160a01b039182166080521660a052610115565b600080546001600160a01b038381166001600160a01b0319831681178455604051919092169283917f8be0079c531659141344cd1fd0a4f28419497f9722a3daafe3b4186f6b6457e09190a35050565b80516001600160a01b03811681146100dd57600080fd5b919050565b600080604083850312156100f557600080fd5b6100fe836100c6565b915061010c602084016100c6565b90509250929050565b60805160a05161240c6101476000396000818161010a015261040a01526000818160e301526103e8015261240c6000f3fe608060405234801561001057600080fd5b50600436106100a95760003560e01c80638da5cb5b116100715780638da5cb5b1461014b578063a0735bf41461015c578063addd50991461016f578063df5dd1a5146101a2578063f2fde38b146101b5578063fdc85fc4146101c857600080fd5b8063012f52ee146100ae5780633013ce29146100de57806361d027b3146101055780636afcb6da1461012c578063715018a614610141575b600080fd5b6100c16100bc366004610710565b6101db565b6040516001600160a01b0390911681526020015b60405180910390f35b6100c17f000000000000000000000000000000000000000000000000000000000000000081565b6100c17f000000000000000000000000000000000000000000000000000000000000000081565b610134610205565b6040516100d59190610729565b610149610267565b005b6000546001600160a01b03166100c1565b6100c161016a3660046107a7565b61027b565b61019261017d36600461088a565b60016020526000908152604090205460ff1681565b60405190151581526020016100d5565b6101496101b036600461088a565b6104f2565b6101496101c336600461088a565b6105a2565b6101496101d636600461088a565b6105e0565b600281815481106101eb57600080fd5b6000918252602090912001546001600160a01b0316905081565b6060600280548060200260200160405190810160405280929190818152602001828054801561025d57602002820191906000526020600020905b81546001600160a01b0316815260019091019060200180831161023f575b5050505050905090565b61026f610686565b61027960006106b3565b565b60004283116102d15760405162461bcd60e51b815260206004820152601a60248201527f456e642074696d65206d75737420626520696e2066757475726500000000000060448201526064015b60405180910390fd5b600184116103215760405162461bcd60e51b815260206004820152601c60248201527f4e656564206174206c656173742032207061727469636970616e74730000000060448201526064016102c8565b6001600160a01b03821660009081526001602052604090205460ff166103825760405162461bcd60e51b81526020600482015260166024820152754e6f7420616e20617070726f766564206f7261636c6560501b60448201526064016102c8565b600085116103e05760405162461bcd60e51b815260206004820152602560248201527f4465706f73697420616d6f756e74206d75737420626520677265617465722074604482015264068616e20360dc1b60648201526084016102c8565b6000868686867f0000000000000000000000000000000000000000000000000000000000000000877f000000000000000000000000000000000000000000000000000000000000000060405161043590610703565b61044597969594939291906108ac565b604051809103906000f080158015610461573d6000803e3d6000fd5b50600280546001810182556000919091527f405787fa12a823e0f2b7631cc41b3ba8828b3321ca811111fa75cd3aa3bb5ace0180546001600160a01b0319166001600160a01b03831690811790915560405188815291925033917f78da7430b15648a5954de6bf3f6dc65a9eb64c292537d89a2a9989fdd36799239060200160405180910390a39695505050505050565b6104fa610686565b6001600160a01b03811660009081526001602052604090205460ff16156105545760405162461bcd60e51b815260206004820152600e60248201526d416c7265616479206f7261636c6560901b60448201526064016102c8565b6001600160a01b0381166000818152600160208190526040808320805460ff1916909217909155517e47706786c922d17b39285dc59d696bafea72c0b003d3841ae1202076f4c2e49190a250565b6105aa610686565b6001600160a01b0381166105d457604051631e4fbdf760e01b8152600060048201526024016102c8565b6105dd816106b3565b50565b6105e8610686565b6001600160a01b03811660009081526001602052604090205460ff1661063d5760405162461bcd60e51b815260206004820152600a6024820152694e6f74206f7261636c6560b01b60448201526064016102c8565b6001600160a01b038116600081815260016020526040808220805460ff19169055517f9c8e7d83025bef8a04c664b2f753f64b8814bdb7e27291d7e50935f18cc3c7129190a250565b6000546001600160a01b031633146102795760405163118cdaa760e01b81523360048201526024016102c8565b600080546001600160a01b038381166001600160a01b0319831681178455604051919092169283917f8be0079c531659141344cd1fd0a4f28419497f9722a3daafe3b4186f6b6457e09190a35050565b611a8e8061094983390190565b60006020828403121561072257600080fd5b5035919050565b602080825282518282018190526000918401906040840190835b8181101561076a5783516001600160a01b0316835260209384019390920191600101610743565b509095945050505050565b634e487b7160e01b600052604160045260246000fd5b80356001600160a01b03811681146107a257600080fd5b919050565b600080600080600060a086880312156107bf57600080fd5b853567ffffffffffffffff8111156107d657600080fd5b8601601f810188136107e757600080fd5b803567ffffffffffffffff81111561080157610801610775565b604051601f8201601f19908116603f0116810167ffffffffffffffff8111828210171561083057610830610775565b6040528181528282016020018a101561084857600080fd5b81602084016020830137600060209282018301529650870135945050604086013592506060860135915061087e6080870161078b565b90509295509295909350565b60006020828403121561089c57600080fd5b6108a58261078b565b9392505050565b60e08152600088518060e084015260005b818110156108db576020818c018101516101008684010152016108bd565b5060006101008285010152610100601f19601f83011684010191505087602083015286604083015285606083015261091e60808301866001600160a01b03169052565b6001600160a01b03841660a08301526001600160a01b03831660c08301529897505050505050505056fe60e060405234801561001057600080fd5b50604051611a8e380380611a8e83398101604081905261002f91610163565b6001600055338061005a57604051631e4fbdf760e01b81526000600482015260240160405180910390fd5b610063816100df565b506040805160808101825288815260208101889052908101869052606081018590526004806100928a82610307565b5060208201516001820155604082015160028201556060909101516003918201556001600160a01b0393841660805291831660a05290911660c052805460ff19169055506103c592505050565b600180546001600160a01b038381166001600160a01b0319831681179093556040519116919082907f8be0079c531659141344cd1fd0a4f28419497f9722a3daafe3b4186f6b6457e090600090a35050565b634e487b7160e01b600052604160045260246000fd5b80516001600160a01b038116811461015e57600080fd5b919050565b600080600080600080600060e0888a03121561017e57600080fd5b87516001600160401b0381111561019457600080fd5b8801601f81018a136101a557600080fd5b80516001600160401b038111156101be576101be610131565b604051601f8201601f19908116603f011681016001600160401b03811182821017156101ec576101ec610131565b6040528181528282016020018c101561020457600080fd5b60005b8281101561022357602081850181015183830182015201610207565b5060006020928201830152908a015160408b015160608c0151929a5090985096509450610254905060808901610147565b925061026260a08901610147565b915061027060c08901610147565b905092959891949750929550565b600181811c9082168061029257607f821691505b6020821081036102b257634e487b7160e01b600052602260045260246000fd5b50919050565b601f82111561030257806000526020600020601f840160051c810160208510156102df5750805b601f840160051c820191505b818110156102ff57600081556001016102eb565b50505b505050565b81516001600160401b0381111561032057610320610131565b6103348161032e845461027e565b846102b8565b6020601f82116001811461036857600083156103505750848201515b600019600385901b1c1916600184901b1784556102ff565b600084815260208120601f198516915b828110156103985787850151825560209485019460019092019101610378565b50848210156103b65786840151600019600387901b60f8161c191681555b50505050600190811b01905550565b60805160a05160c05161163f61044f600039600081816101cb0152818161052d0152610ca60152600081816101fa015281816108790152610e0e01526000818161012a015281816103a50152818161049b0152818161055c0152818161069d01528181610b0601528181610c1401528181610cd501528181610fc7015261118f015261163f6000f3fe608060405234801561001057600080fd5b50600436106101165760003560e01c80637dc0d1d0116100a2578063cabfaa1811610071578063cabfaa181461024f578063d0e30db014610257578063db2e21bc1461025f578063f2c16e6f14610267578063f2fde38b1461029a57600080fd5b80637dc0d1d0146101f55780638da5cb5b1461021c5780639496fd1c1461022d578063c19d93fb1461023557600080fd5b80634ea4f8e6116100e95780634ea4f8e61461018457806351cc0da714610197578063565974d3146101ae57806361d027b3146101c6578063715018a6146101ed57600080fd5b80632009dc651461011b5780633013ce291461012557806335c1d349146101695780633ccfd60b1461017c575b600080fd5b6101236102ad565b005b61014c7f000000000000000000000000000000000000000000000000000000000000000081565b6040516001600160a01b0390911681526020015b60405180910390f35b61014c61017736600461130a565b6105ce565b6101236105f8565b610123610192366004611323565b61086e565b6101a060025481565b604051908152602001610160565b6101b6610d4b565b604051610160949392919061139a565b61014c7f000000000000000000000000000000000000000000000000000000000000000081565b610123610def565b61014c7f000000000000000000000000000000000000000000000000000000000000000081565b6001546001600160a01b031661014c565b610123610e03565b6003546102429060ff1681565b6040516101609190611413565b6009546101a0565b610123610ed6565b6101236110dc565b61028a61027536600461143b565b60086020526000908152604090205460ff1681565b6040519015158152602001610160565b6101236102a836600461143b565b61121e565b6102b5611259565b60006003805460ff16908111156102ce576102ce6113fd565b146102f45760405162461bcd60e51b81526004016102eb9061146b565b60405180910390fd5b6003805460ff1916811790556040517f6e3be9294e58d10b9c8053cfd5e09871b67e442fe394d6b0870d336b9df984a990600090a160005b6009548110156104765760006009828154811061034b5761034b611494565b60009182526020808320909101546001600160a01b0316808352600890915260409091205490915060ff161561046d5760055460405163a9059cbb60e01b81526001600160a01b03838116600483015260248201929092527f00000000000000000000000000000000000000000000000000000000000000009091169063a9059cbb906044016020604051808303816000875af11580156103f0573d6000803e3d6000fd5b505050506040513d601f19601f8201168201806040525081019061041491906114aa565b506001600160a01b038116600081815260086020908152604091829020805460ff1916905560055491519182527f357ff40138a06ece2e77a160416673f406b2401bab0927942c4b31e96afeb248910160405180910390a25b5060010161032c565b50610483600960006112d8565b6040516370a0823160e01b81523060048201526000907f00000000000000000000000000000000000000000000000000000000000000006001600160a01b0316906370a0823190602401602060405180830381865afa1580156104ea573d6000803e3d6000fd5b505050506040513d601f19601f8201168201806040525081019061050e91906114cc565b905080156105cb5760405163a9059cbb60e01b81526001600160a01b037f000000000000000000000000000000000000000000000000000000000000000081166004830152602482018390527f0000000000000000000000000000000000000000000000000000000000000000169063a9059cbb906044016020604051808303816000875af11580156105a5573d6000803e3d6000fd5b505050506040513d601f19601f820116820180604052508101906105c991906114aa565b505b50565b600981815481106105de57600080fd5b6000918252602090912001546001600160a01b0316905081565b60006003805460ff1690811115610611576106116113fd565b1461062e5760405162461bcd60e51b81526004016102eb9061146b565b3360009081526008602052604090205460ff1661067d5760405162461bcd60e51b815260206004820152600d60248201526c139bdd0819195c1bdcda5d1959609a1b60448201526064016102eb565b60055460405163a9059cbb60e01b815233600482015260248101919091527f00000000000000000000000000000000000000000000000000000000000000006001600160a01b03169063a9059cbb906044016020604051808303816000875af11580156106ee573d6000803e3d6000fd5b505050506040513d601f19601f8201168201806040525081019061071291906114aa565b50600554600280546000906107289084906114fb565b9091555050336000908152600860205260408120805460ff191690555b60095481101561084057336001600160a01b03166009828154811061076c5761076c611494565b6000918252602090912001546001600160a01b0316036108385760098054610796906001906114fb565b815481106107a6576107a6611494565b600091825260209091200154600980546001600160a01b0390921691839081106107d2576107d2611494565b9060005260206000200160006101000a8154816001600160a01b0302191690836001600160a01b03160217905550600980548061081157610811611514565b600082815260209020810160001990810180546001600160a01b0319169055019055610840565b600101610745565b5060405133907fd900faab28619592e985fe698e5edf2e0819a9d670c3b2547afb60504aa115fb90600090a2565b336001600160a01b037f000000000000000000000000000000000000000000000000000000000000000016146108d35760405162461bcd60e51b815260206004820152600a6024820152694e6f74206f7261636c6560b01b60448201526064016102eb565b60016003805460ff16908111156108ec576108ec6113fd565b146109325760405162461bcd60e51b8152602060048201526016602482015275457363726f77206e6f7420696e2070726f677265737360501b60448201526064016102eb565b600954811461097c5760405162461bcd60e51b8152602060048201526016602482015275092dcecc2d8d2c840e0c2f2deeae8e640d8cadccee8d60531b60448201526064016102eb565b6000805b828110156109b65783838281811061099a5761099a611494565b90506020020135826109ac919061152a565b9150600101610980565b508061271014610a085760405162461bcd60e51b815260206004820181905260248201527f546f74616c206d75737420626520313030303020626173697320706f696e747360448201526064016102eb565b60008267ffffffffffffffff811115610a2357610a2361153d565b604051908082528060200260200182016040528015610a4c578160200160208202803683370190505b50905060005b83811015610ab257612710858583818110610a6f57610a6f611494565b90506020020135600254610a839190611553565b610a8d919061156a565b828281518110610a9f57610a9f611494565b6020908102919091010152600101610a52565b506003805460ff191660021790556040517fc841c91bdaa23c1c4bdb58cea14d01f2024cc9ef361c26151d0f82cf6216af3c90610af090839061158c565b60405180910390a160005b8151811015610bfb577f00000000000000000000000000000000000000000000000000000000000000006001600160a01b031663a9059cbb60098381548110610b4657610b46611494565b9060005260206000200160009054906101000a90046001600160a01b0316848481518110610b7657610b76611494565b60200260200101516040518363ffffffff1660e01b8152600401610baf9291906001600160a01b03929092168252602082015260400190565b6020604051808303816000875af1158015610bce573d6000803e3d6000fd5b505050506040513d601f19601f82011682018060405250810190610bf291906114aa565b50600101610afb565b506040516370a0823160e01b81523060048201526000907f00000000000000000000000000000000000000000000000000000000000000006001600160a01b0316906370a0823190602401602060405180830381865afa158015610c63573d6000803e3d6000fd5b505050506040513d601f19601f82011682018060405250810190610c8791906114cc565b90508015610d445760405163a9059cbb60e01b81526001600160a01b037f000000000000000000000000000000000000000000000000000000000000000081166004830152602482018390527f0000000000000000000000000000000000000000000000000000000000000000169063a9059cbb906044016020604051808303816000875af1158015610d1e573d6000803e3d6000fd5b505050506040513d601f19601f82011682018060405250810190610d4291906114aa565b505b5050505050565b600480548190610d5a906115cf565b80601f0160208091040260200160405190810160405280929190818152602001828054610d86906115cf565b8015610dd35780601f10610da857610100808354040283529160200191610dd3565b820191906000526020600020905b815481529060010190602001808311610db657829003601f168201915b5050505050908060010154908060020154908060030154905084565b610df7611259565b610e016000611286565b565b336001600160a01b037f00000000000000000000000000000000000000000000000000000000000000001614610e685760405162461bcd60e51b815260206004820152600a6024820152694e6f74206f7261636c6560b01b60448201526064016102eb565b60006003805460ff1690811115610e8157610e816113fd565b14610e9e5760405162461bcd60e51b81526004016102eb9061146b565b6003805460ff191660011790556040517f1a8ade30f60946b8fb7b4d1cf93dc594fa0e441eca24e1b9b88cfa375e3488b190600090a1565b60006003805460ff1690811115610eef57610eef6113fd565b14610f0c5760405162461bcd60e51b81526004016102eb9061146b565b3360009081526008602052604090205460ff1615610f605760405162461bcd60e51b8152602060048201526011602482015270105b1c9958591e4819195c1bdcda5d1959607a1b60448201526064016102eb565b60065460095410610fa15760405162461bcd60e51b815260206004820152600b60248201526a115cd8dc9bddc8199d5b1b60aa1b60448201526064016102eb565b6005546040516323b872dd60e01b815233600482015230602482015260448101919091527f00000000000000000000000000000000000000000000000000000000000000006001600160a01b0316906323b872dd906064016020604051808303816000875af1158015611018573d6000803e3d6000fd5b505050506040513d601f19601f8201168201806040525081019061103c91906114aa565b506005546002805460009061105290849061152a565b90915550506009805460018181019092557f6e1540171b6c0c960b71a7020d9f60077f6af931a8bbf590da0223dacf75c7af0180546001600160a01b03191633908117909155600081815260086020526040808220805460ff1916909417909355915190917f36c3f1bdccade0360be44662425e3c1011ac51718d18e4e2712481f1c44e4a3c91a2565b3360009081526008602052604090205460ff1661112b5760405162461bcd60e51b815260206004820152600d60248201526c139bdd0819195c1bdcda5d1959609a1b60448201526064016102eb565b600754421161116f5760405162461bcd60e51b815260206004820152601060248201526f115cd8dc9bddc81b9bdd08195b99195960821b60448201526064016102eb565b60055460405163a9059cbb60e01b815233600482015260248101919091527f00000000000000000000000000000000000000000000000000000000000000006001600160a01b03169063a9059cbb906044016020604051808303816000875af11580156111e0573d6000803e3d6000fd5b505050506040513d601f19601f8201168201806040525081019061120491906114aa565b50336000908152600860205260409020805460ff19169055565b611226611259565b6001600160a01b03811661125057604051631e4fbdf760e01b8152600060048201526024016102eb565b6105cb81611286565b6001546001600160a01b03163314610e015760405163118cdaa760e01b81523360048201526024016102eb565b600180546001600160a01b038381166001600160a01b0319831681179093556040519116919082907f8be0079c531659141344cd1fd0a4f28419497f9722a3daafe3b4186f6b6457e090600090a35050565b50805460008255906000526020600020908101906105cb91905b8082111561130657600081556001016112f2565b5090565b60006020828403121561131c57600080fd5b5035919050565b6000806020838503121561133657600080fd5b823567ffffffffffffffff81111561134d57600080fd5b8301601f8101851361135e57600080fd5b803567ffffffffffffffff81111561137557600080fd5b8560208260051b840101111561138a57600080fd5b6020919091019590945092505050565b608081526000855180608084015260005b818110156113c857602081890181015160a08684010152016113ab565b50600060a0828501015260a0601f19601f83011684010191505084602083015283604083015282606083015295945050505050565b634e487b7160e01b600052602160045260246000fd5b602081016004831061143557634e487b7160e01b600052602160045260246000fd5b91905290565b60006020828403121561144d57600080fd5b81356001600160a01b038116811461146457600080fd5b9392505050565b6020808252600f908201526e22b9b1b937bb903737ba1037b832b760891b604082015260600190565b634e487b7160e01b600052603260045260246000fd5b6000602082840312156114bc57600080fd5b8151801515811461146457600080fd5b6000602082840312156114de57600080fd5b5051919050565b634e487b7160e01b600052601160045260246000fd5b8181038181111561150e5761150e6114e5565b92915050565b634e487b7160e01b600052603160045260246000fd5b8082018082111561150e5761150e6114e5565b634e487b7160e01b600052604160045260246000fd5b808202811582820484141761150e5761150e6114e5565b60008261158757634e487b7160e01b600052601260045260246000fd5b500490565b602080825282518282018190526000918401906040840190835b818110156115c45783518352602093840193909201916001016115a6565b509095945050505050565b600181811c908216806115e357607f821691505b60208210810361160357634e487b7160e01b600052602260045260246000fd5b5091905056fea26469706673582212203c5588ff32c21978efcc34e179cd76c10cb3980442ea6c294eeeeba357bee2be64736f6c634300081a0033a26469706673582212203c7a052811a6db1d58343f48cedb1977a1141d03396de69ae2a07c5d1a2ad5a964736f6c634300081a0033","linkReferences":{}},"methodIdentifiers":{"addOracle(address)":"df5dd1a5","createEscrow(string,uint256,uint256,uint256,address)":"a0735bf4","escrows(uint256)":"012f52ee","getEscrows()":"6afcb6da","oracles(address)":"addd5099","owner()":"8da5cb5b","paymentToken()":"3013ce29","removeOracle(address)":"fdc85fc4","renounceOwnership()":"715018a6","transferOwnership(address)":"f2fde38b","treasury()":"61d027b3"},"id":30}