{"abi":[{"type":"constructor","inputs":[{"name":"_paymentToken","type":"address","internalType":"address"},{"name":"_decimals","type":"uint8","internalType":"uint8"}],"stateMutability":"nonpayable"},{"type":"function","name":"createEscrow","inputs":[{"name":"depositAmount","type":"uint256","internalType":"uint256"},{"name":"expiry","type":"uint256","internalType":"uint256"},{"name":"oracle","type":"address","internalType":"address"},{"name":"oracleFee","type":"uint256","internalType":"uint256"}],"outputs":[{"name":"","type":"address","internalType":"address"}],"stateMutability":"nonpayable"},{"type":"function","name":"escrows","inputs":[{"name":"","type":"uint256","internalType":"uint256"}],"outputs":[{"name":"","type":"address","internalType":"contract Escrow"}],"stateMutability":"view"},{"type":"function","name":"getEscrows","inputs":[],"outputs":[{"name":"","type":"address[]","internalType":"contract Escrow[]"}],"stateMutability":"view"},{"type":"function","name":"owner","inputs":[],"outputs":[{"name":"","type":"address","internalType":"address"}],"stateMutability":"view"},{"type":"function","name":"paymentToken","inputs":[],"outputs":[{"name":"","type":"address","internalType":"address"}],"stateMutability":"view"},{"type":"function","name":"paymentTokenDecimals","inputs":[],"outputs":[{"name":"","type":"uint8","internalType":"uint8"}],"stateMutability":"view"},{"type":"function","name":"renounceOwnership","inputs":[],"outputs":[],"stateMutability":"nonpayable"},{"type":"function","name":"setPaymentToken","inputs":[{"name":"_newPaymentToken","type":"address","internalType":"address"},{"name":"_decimals","type":"uint8","internalType":"uint8"}],"outputs":[],"stateMutability":"nonpayable"},{"type":"function","name":"transferOwnership","inputs":[{"name":"newOwner","type":"address","internalType":"address"}],"outputs":[],"stateMutability":"nonpayable"},{"type":"event","name":"EscrowCreated","inputs":[{"name":"escrow","type":"address","indexed":true,"internalType":"address"},{"name":"host","type":"address","indexed":true,"internalType":"address"},{"name":"depositAmount","type":"uint256","indexed":false,"internalType":"uint256"}],"anonymous":false},{"type":"event","name":"OwnershipTransferred","inputs":[{"name":"previousOwner","type":"address","indexed":true,"internalType":"address"},{"name":"newOwner","type":"address","indexed":true,"internalType":"address"}],"anonymous":false},{"type":"event","name":"PaymentTokenUpdated","inputs":[{"name":"oldToken","type":"address","indexed":true,"internalType":"address"},{"name":"newToken","type":"address","indexed":true,"internalType":"address"},{"name":"decimals","type":"uint8","indexed":false,"internalType":"uint8"}],"anonymous":false},{"type":"error","name":"OwnableInvalidOwner","inputs":[{"name":"owner","type":"address","internalType":"address"}]},{"type":"error","name":"OwnableUnauthorizedAccount","inputs":[{"name":"account","type":"address","internalType":"address"}]}],"bytecode":{"object":"0x608060405234801561001057600080fd5b5060405161244838038061244883398101604081905261002f91610138565b338061005657604051631e4fbdf760e01b8152600060048201526024015b60405180910390fd5b61005f816100e8565b506001600160a01b0382166100b65760405162461bcd60e51b815260206004820152601d60248201527f496e76616c6964207061796d656e7420746f6b656e2061646472657373000000604482015260640161004d565b6002805460ff909216600160a01b026001600160a81b03199092166001600160a01b0390931692909217179055610184565b600080546001600160a01b038381166001600160a01b0319831681178455604051919092169283917f8be0079c531659141344cd1fd0a4f28419497f9722a3daafe3b4186f6b6457e09190a35050565b6000806040838503121561014b57600080fd5b82516001600160a01b038116811461016257600080fd5b602084015190925060ff8116811461017957600080fd5b809150509250929050565b6122b5806101936000396000f3fe60806040523480156200001157600080fd5b50600436106200009f5760003560e01c8063325cd796116200006e578063325cd796146200011c5780636afcb6da1462000144578063715018a6146200015d5780638da5cb5b1462000167578063f2fde38b146200017957600080fd5b8063012f52ee14620000a457806302e4d5a014620000d85780632e1aaf5a14620000ef5780633013ce291462000108575b600080fd5b620000bb620000b53660046200064b565b62000190565b6040516001600160a01b0390911681526020015b60405180910390f35b620000bb620000e936600462000682565b620001bb565b6200010662000100366004620006c2565b62000430565b005b600254620000bb906001600160a01b031681565b6002546200013190600160a01b900460ff1681565b60405160ff9091168152602001620000cf565b6200014e620004fe565b604051620000cf919062000703565b6200010662000562565b6000546001600160a01b0316620000bb565b620001066200018a36600462000752565b6200057a565b60018181548110620001a157600080fd5b6000918252602090912001546001600160a01b0316905081565b6000428411620002125760405162461bcd60e51b815260206004820152601860248201527f457870697279206d75737420626520696e20667574757265000000000000000060448201526064015b60405180910390fd5b6001600160a01b0383166200026a5760405162461bcd60e51b815260206004820152601d60248201527f4f7261636c652063616e6e6f74206265207a65726f2061646472657373000000604482015260640162000209565b60008511620002ca5760405162461bcd60e51b815260206004820152602560248201527f4465706f73697420616d6f756e74206d75737420626520677265617465722074604482015264068616e20360dc1b606482015260840162000209565b6127108211156200031e5760405162461bcd60e51b815260206004820152601d60248201527f4f7261636c65206665652063616e6e6f74206578636565642031303025000000604482015260640162000209565b600254604051600091879187916001600160a01b03811691600160a01b90910460ff16908890889062000351906200063d565b95865260208601949094526001600160a01b03928316604086015260ff909116606085015216608083015260a082015260c001604051809103906000f080158015620003a1573d6000803e3d6000fd5b506001805480820182556000919091527fb10e2d527612073b26eecdfd717e6a320cf44b4afac2b0732d9fcbe2b7fa0cf60180546001600160a01b0319166001600160a01b03831690811790915560405188815291925033917f78da7430b15648a5954de6bf3f6dc65a9eb64c292537d89a2a9989fdd36799239060200160405180910390a395945050505050565b6200043a620005be565b6001600160a01b038216620004925760405162461bcd60e51b815260206004820152601d60248201527f496e76616c6964207061796d656e7420746f6b656e2061646472657373000000604482015260640162000209565b600280546001600160a01b038481166001600160a81b031983168117600160a01b60ff87169081029190911790945560405193845291169182907f0fd5b29b6e224124a7dab3883b0884a1a2ddb7c191399184154db4493423a4879060200160405180910390a3505050565b606060018054806020026020016040519081016040528092919081815260200182805480156200055857602002820191906000526020600020905b81546001600160a01b0316815260019091019060200180831162000539575b5050505050905090565b6200056c620005be565b620005786000620005ed565b565b62000584620005be565b6001600160a01b038116620005b057604051631e4fbdf760e01b81526000600482015260240162000209565b620005bb81620005ed565b50565b6000546001600160a01b03163314620005785760405163118cdaa760e01b815233600482015260240162000209565b600080546001600160a01b038381166001600160a01b0319831681178455604051919092169283917f8be0079c531659141344cd1fd0a4f28419497f9722a3daafe3b4186f6b6457e09190a35050565b611b08806200077883390190565b6000602082840312156200065e57600080fd5b5035919050565b80356001600160a01b03811681146200067d57600080fd5b919050565b600080600080608085870312156200069957600080fd5b8435935060208501359250620006b26040860162000665565b9396929550929360600135925050565b60008060408385031215620006d657600080fd5b620006e18362000665565b9150602083013560ff81168114620006f857600080fd5b809150509250929050565b6020808252825182820181905260009190848201906040850190845b81811015620007465783516001600160a01b0316835292840192918401916001016200071f565b50909695505050505050565b6000602082840312156200076557600080fd5b620007708262000665565b939250505056fe6101006040523480156200001257600080fd5b5060405162001b0838038062001b088339810160408190526200003591620002e8565b600160005533806200006257604051631e4fbdf760e01b8152600060048201526024015b60405180910390fd5b6200006d8162000279565b5060008611620000ce5760405162461bcd60e51b815260206004820152602560248201527f4465706f73697420616d6f756e74206d75737420626520677265617465722074604482015264068616e20360dc1b606482015260840162000059565b4285116200011f5760405162461bcd60e51b815260206004820152601c60248201527f457870697279206d75737420626520696e207468652066757475726500000000604482015260640162000059565b6001600160a01b038416620001835760405162461bcd60e51b8152602060048201526024808201527f5061796d656e7420746f6b656e2063616e6e6f74206265207a65726f206164646044820152637265737360e01b606482015260840162000059565b6001600160a01b038216620001db5760405162461bcd60e51b815260206004820152601d60248201527f4f7261636c652063616e6e6f74206265207a65726f2061646472657373000000604482015260640162000059565b6127108111156200022f5760405162461bcd60e51b815260206004820152601d60248201527f4f7261636c65206665652063616e6e6f74206578636565642031303025000000604482015260640162000059565b604080518082019091528681526020018590526002959095556003939093556001600160a01b0391821660805260ff1660a0521660c05260e0526005805460ff1916905562000355565b600180546001600160a01b038381166001600160a01b0319831681179093556040519116919082907f8be0079c531659141344cd1fd0a4f28419497f9722a3daafe3b4186f6b6457e090600090a35050565b80516001600160a01b0381168114620002e357600080fd5b919050565b60008060008060008060c087890312156200030257600080fd5b86519550602087015194506200031b60408801620002cb565b9350606087015160ff811681146200033257600080fd5b92506200034260808801620002cb565b915060a087015190509295509295509295565b60805160a05160c05160e051611725620003e36000396000818161031901526109d1015260008181610260015281816103460152818161084601528181610cdf015261108f015260006101bd01526000818161017e0152818161048f0152818161079501528181610b3501528181610c4d01528181610d0e01528181610f9d01526111fd01526117256000f3fe608060405234801561001057600080fd5b50600436106101375760003560e01c80637856ed41116100b8578063cabfaa181161007c578063cabfaa18146102b5578063d0e30db0146102bd578063f2c16e6f146102c5578063f2fde38b146102f8578063f3baf0701461030b578063f9cd3ceb1461031457600080fd5b80637856ed41146102535780637dc0d1d01461025b5780638da5cb5b146102825780639496fd1c14610293578063c19d93fb1461029b57600080fd5b80633ccfd60b116100ff5780633ccfd60b146102045780634ea4f8e61461020c57806351cc0da71461021f578063565974d314610228578063715018a61461024b57600080fd5b8063083b91371461013c5780632009dc651461016f5780633013ce2914610179578063325cd796146101b857806335c1d349146101f1575b600080fd5b61015c61014a366004611451565b60076020526000908152604090205481565b6040519081526020015b60405180910390f35b61017761033b565b005b6101a07f000000000000000000000000000000000000000000000000000000000000000081565b6040516001600160a01b039091168152602001610166565b6101df7f000000000000000000000000000000000000000000000000000000000000000081565b60405160ff9091168152602001610166565b6101a06101ff366004611481565b61057f565b6101776105a9565b61017761021a36600461149a565b61083b565b61015c60045481565b600254600354610236919082565b60408051928352602083019190915201610166565b610177610d91565b610177610da3565b6101a07f000000000000000000000000000000000000000000000000000000000000000081565b6001546001600160a01b03166101a0565b61017761104e565b6005546102a89060ff1681565b6040516101669190611525565b60085461015c565b610177611104565b6102e86102d3366004611451565b60066020526000908152604090205460ff1681565b6040519015158152602001610166565b610177610306366004611451565b611338565b61015c6107d081565b61015c7f000000000000000000000000000000000000000000000000000000000000000081565b336001600160a01b037f0000000000000000000000000000000000000000000000000000000000000000161461038c5760405162461bcd60e51b81526004016103839061154d565b60405180910390fd5b600060055460ff1660038111156103a5576103a561150f565b14806103c75750600160055460ff1660038111156103c5576103c561150f565b145b6104135760405162461bcd60e51b815260206004820152601f60248201527f457363726f77206e6f7420696e2063616e63656c6c61626c65207374617465006044820152606401610383565b60005b6008548110156105335760006008828154811061043557610435611571565b60009182526020808320909101546001600160a01b0316808352600690915260409091205490915060ff16156105205760025460405163a9059cbb60e01b81526001600160a01b03838116600483015260248201929092527f00000000000000000000000000000000000000000000000000000000000000009091169063a9059cbb906044016020604051808303816000875af11580156104da573d6000803e3d6000fd5b505050506040513d601f19601f820116820180604052508101906104fe9190611587565b506001600160a01b0381166000908152600660205260409020805460ff191690555b508061052b816115bf565b915050610416565b50600060048190556105479060089061141f565b6005805460ff191660031790556040517f6e3be9294e58d10b9c8053cfd5e09871b67e442fe394d6b0870d336b9df984a990600090a1565b6008818154811061058f57600080fd5b6000918252602090912001546001600160a01b0316905081565b600060055460ff1660038111156105c2576105c261150f565b146105df5760405162461bcd60e51b8152600401610383906115d8565b6105e7611376565b3360009081526006602052604090205460ff166106365760405162461bcd60e51b815260206004820152600d60248201526c139bdd0819195c1bdcda5d1959609a1b6044820152606401610383565b6002546004805460009061064b908490611601565b9091555050336000908152600660205260408120805460ff1916905560085461067690600190611601565b33600090815260076020526040902054909150811115610723576000600882815481106106a5576106a5611571565b60009182526020808320909101543383526007909152604090912054600880546001600160a01b039093169350839290919081106106e5576106e5611571565b600091825260208083209190910180546001600160a01b0319166001600160a01b039485161790553382526007905260408082205493909216815220555b60088054806107345761073461161a565b60008281526020808220600019908401810180546001600160a01b0319169055909201909255338083526007909152604080832092909255600254915163a9059cbb60e01b8152600481019190915260248101919091526001600160a01b037f0000000000000000000000000000000000000000000000000000000000000000169063a9059cbb906044016020604051808303816000875af11580156107de573d6000803e3d6000fd5b505050506040513d601f19601f820116820180604052508101906108029190611587565b5060405133907fd900faab28619592e985fe698e5edf2e0819a9d670c3b2547afb60504aa115fb90600090a2506108396001600055565b565b336001600160a01b037f000000000000000000000000000000000000000000000000000000000000000016146108835760405162461bcd60e51b81526004016103839061154d565b61088b611376565b600160055460ff1660038111156108a4576108a461150f565b146108ea5760405162461bcd60e51b8152602060048201526016602482015275457363726f77206e6f7420696e2070726f677265737360501b6044820152606401610383565b60085481146109345760405162461bcd60e51b8152602060048201526016602482015275092dcecc2d8d2c840e0c2f2deeae8e640d8cadccee8d60531b6044820152606401610383565b6000805b828110156109785783838281811061095257610952611571565b90506020020135826109649190611630565b915080610970816115bf565b915050610938565b5080612710146109ca5760405162461bcd60e51b815260206004820181905260248201527f546f74616c206d75737420626520313030303020626173697320706f696e74736044820152606401610383565b60006127107f00000000000000000000000000000000000000000000000000000000000000006004546109fd9190611643565b610a07919061165a565b9050600081600454610a199190611601565b905060008467ffffffffffffffff811115610a3657610a3661167c565b604051908082528060200260200182016040528015610a5f578160200160208202803683370190505b5090506000805b86811015610ae1576000612710898984818110610a8557610a85611571565b9050602002013586610a979190611643565b610aa1919061165a565b905080848381518110610ab657610ab6611571565b6020908102919091010152610acb8184611630565b9250508080610ad9906115bf565b915050610a66565b506005805460ff191660021790556040517fc841c91bdaa23c1c4bdb58cea14d01f2024cc9ef361c26151d0f82cf6216af3c90610b1f908490611692565b60405180910390a160005b8251811015610c34577f00000000000000000000000000000000000000000000000000000000000000006001600160a01b031663a9059cbb60088381548110610b7557610b75611571565b9060005260206000200160009054906101000a90046001600160a01b0316858481518110610ba557610ba5611571565b60200260200101516040518363ffffffff1660e01b8152600401610bde9291906001600160a01b03929092168252602082015260400190565b6020604051808303816000875af1158015610bfd573d6000803e3d6000fd5b505050506040513d601f19601f82011682018060405250810190610c219190611587565b5080610c2c816115bf565b915050610b2a565b506040516370a0823160e01b81523060048201526000907f00000000000000000000000000000000000000000000000000000000000000006001600160a01b0316906370a0823190602401602060405180830381865afa158015610c9c573d6000803e3d6000fd5b505050506040513d601f19601f82011682018060405250810190610cc091906116d6565b90508015610d7d5760405163a9059cbb60e01b81526001600160a01b037f000000000000000000000000000000000000000000000000000000000000000081166004830152602482018390527f0000000000000000000000000000000000000000000000000000000000000000169063a9059cbb906044016020604051808303816000875af1158015610d57573d6000803e3d6000fd5b505050506040513d601f19601f82011682018060405250810190610d7b9190611587565b505b505050505050610d8d6001600055565b5050565b610d996113a0565b61083960006113cd565b610dab611376565b3360009081526006602052604090205460ff16610dfa5760405162461bcd60e51b815260206004820152600d60248201526c139bdd0819195c1bdcda5d1959609a1b6044820152606401610383565b6003544211610e3e5760405162461bcd60e51b815260206004820152601060248201526f115cd8dc9bddc81b9bdd08195b99195960821b6044820152606401610383565b60025460048054600090610e53908490611601565b9091555050336000908152600660205260408120805460ff19169055600854610e7e90600190611601565b33600090815260076020526040902054909150811115610f2b57600060088281548110610ead57610ead611571565b60009182526020808320909101543383526007909152604090912054600880546001600160a01b03909316935083929091908110610eed57610eed611571565b600091825260208083209190910180546001600160a01b0319166001600160a01b039485161790553382526007905260408082205493909216815220555b6008805480610f3c57610f3c61161a565b60008281526020808220600019908401810180546001600160a01b0319169055909201909255338083526007909152604080832092909255600254915163a9059cbb60e01b8152600481019190915260248101919091526001600160a01b037f0000000000000000000000000000000000000000000000000000000000000000169063a9059cbb906044016020604051808303816000875af1158015610fe6573d6000803e3d6000fd5b505050506040513d601f19601f8201168201806040525081019061100a9190611587565b5060025460405190815233907f101bd6e12c3c6f11cbf1db27912774787706087c957936edf461ec69ce2945769060200160405180910390a2506108396001600055565b600060055460ff1660038111156110675761106761150f565b146110845760405162461bcd60e51b8152600401610383906115d8565b336001600160a01b037f000000000000000000000000000000000000000000000000000000000000000016146110cc5760405162461bcd60e51b81526004016103839061154d565b6005805460ff191660011790556040517f1a8ade30f60946b8fb7b4d1cf93dc594fa0e441eca24e1b9b88cfa375e3488b190600090a1565b600060055460ff16600381111561111d5761111d61150f565b1461113a5760405162461bcd60e51b8152600401610383906115d8565b611142611376565b3360009081526006602052604090205460ff16156111965760405162461bcd60e51b8152602060048201526011602482015270105b1c9958591e4819195c1bdcda5d1959607a1b6044820152606401610383565b6008546107d0116111d75760405162461bcd60e51b815260206004820152600b60248201526a115cd8dc9bddc8199d5b1b60aa1b6044820152606401610383565b6002546040516323b872dd60e01b815233600482015230602482015260448101919091527f00000000000000000000000000000000000000000000000000000000000000006001600160a01b0316906323b872dd906064016020604051808303816000875af115801561124e573d6000803e3d6000fd5b505050506040513d601f19601f820116820180604052508101906112729190611587565b5060025460048054600090611288908490611630565b909155505060088054600181810183557ff3f7a9fe364faab93b216da50a3214154f22a0a2b415b23a84c8169e8b636ee390910180546001600160a01b031916339081179091556000908152600660205260409020805460ff19168217905590546112f39190611601565b3360008181526007602052604080822093909355915190917f36c3f1bdccade0360be44662425e3c1011ac51718d18e4e2712481f1c44e4a3c91a26108396001600055565b6113406113a0565b6001600160a01b03811661136a57604051631e4fbdf760e01b815260006004820152602401610383565b611373816113cd565b50565b60026000540361139957604051633ee5aeb560e01b815260040160405180910390fd5b6002600055565b6001546001600160a01b031633146108395760405163118cdaa760e01b8152336004820152602401610383565b600180546001600160a01b038381166001600160a01b0319831681179093556040519116919082907f8be0079c531659141344cd1fd0a4f28419497f9722a3daafe3b4186f6b6457e090600090a35050565b508054600082559060005260206000209081019061137391905b8082111561144d5760008155600101611439565b5090565b60006020828403121561146357600080fd5b81356001600160a01b038116811461147a57600080fd5b9392505050565b60006020828403121561149357600080fd5b5035919050565b600080602083850312156114ad57600080fd5b823567ffffffffffffffff808211156114c557600080fd5b818501915085601f8301126114d957600080fd5b8135818111156114e857600080fd5b8660208260051b85010111156114fd57600080fd5b60209290920196919550909350505050565b634e487b7160e01b600052602160045260246000fd5b602081016004831061154757634e487b7160e01b600052602160045260246000fd5b91905290565b6020808252600a90820152694e6f74206f7261636c6560b01b604082015260600190565b634e487b7160e01b600052603260045260246000fd5b60006020828403121561159957600080fd5b8151801515811461147a57600080fd5b634e487b7160e01b600052601160045260246000fd5b6000600182016115d1576115d16115a9565b5060010190565b6020808252600f908201526e22b9b1b937bb903737ba1037b832b760891b604082015260600190565b81810381811115611614576116146115a9565b92915050565b634e487b7160e01b600052603160045260246000fd5b80820180821115611614576116146115a9565b8082028115828204841417611614576116146115a9565b60008261167757634e487b7160e01b600052601260045260246000fd5b500490565b634e487b7160e01b600052604160045260246000fd5b6020808252825182820181905260009190848201906040850190845b818110156116ca578351835292840192918401916001016116ae565b50909695505050505050565b6000602082840312156116e857600080fd5b505191905056fea26469706673582212201a74ebd104e35500305adb32ad2241cc5d5622b9b8f6922073acbdc38843571164736f6c63430008140033a264697066735822122089fda063c49fe2e5f7a68f51c0b91a4dbbdef821198ace7bcbeaad025afba04564736f6c63430008140033","linkReferences":{}},"methodIdentifiers":{"createEscrow(uint256,uint256,address,uint256)":"02e4d5a0","escrows(uint256)":"012f52ee","getEscrows()":"6afcb6da","owner()":"8da5cb5b","paymentToken()":"3013ce29","paymentTokenDecimals()":"325cd796","renounceOwnership()":"715018a6","setPaymentToken(address,uint8)":"2e1aaf5a","transferOwnership(address)":"f2fde38b"},"id":28}