{"abi":[{"type":"constructor","inputs":[{"name":"_paymentToken","type":"address","internalType":"address"},{"name":"_aavePoolAddressesProvider","type":"address","internalType":"address"}],"stateMutability":"nonpayable"},{"type":"function","name":"aavePoolAddressesProvider","inputs":[],"outputs":[{"name":"","type":"address","internalType":"address"}],"stateMutability":"view"},{"type":"function","name":"addOracle","inputs":[{"name":"oracle","type":"address","internalType":"address"}],"outputs":[],"stateMutability":"nonpayable"},{"type":"function","name":"createEscrow","inputs":[{"name":"name","type":"string","internalType":"string"},{"name":"depositAmount","type":"uint256","internalType":"uint256"},{"name":"maxParticipants","type":"uint256","internalType":"uint256"},{"name":"endTime","type":"uint256","internalType":"uint256"},{"name":"oracle","type":"address","internalType":"address"}],"outputs":[{"name":"","type":"address","internalType":"address"}],"stateMutability":"nonpayable"},{"type":"function","name":"escrows","inputs":[{"name":"","type":"uint256","internalType":"uint256"}],"outputs":[{"name":"","type":"address","internalType":"contract Escrow"}],"stateMutability":"view"},{"type":"function","name":"getEscrows","inputs":[],"outputs":[{"name":"","type":"address[]","internalType":"contract Escrow[]"}],"stateMutability":"view"},{"type":"function","name":"oracles","inputs":[{"name":"","type":"address","internalType":"address"}],"outputs":[{"name":"","type":"bool","internalType":"bool"}],"stateMutability":"view"},{"type":"function","name":"owner","inputs":[],"outputs":[{"name":"","type":"address","internalType":"address"}],"stateMutability":"view"},{"type":"function","name":"paymentToken","inputs":[],"outputs":[{"name":"","type":"address","internalType":"address"}],"stateMutability":"view"},{"type":"function","name":"removeOracle","inputs":[{"name":"oracle","type":"address","internalType":"address"}],"outputs":[],"stateMutability":"nonpayable"},{"type":"function","name":"renounceOwnership","inputs":[],"outputs":[],"stateMutability":"nonpayable"},{"type":"function","name":"transferOwnership","inputs":[{"name":"newOwner","type":"address","internalType":"address"}],"outputs":[],"stateMutability":"nonpayable"},{"type":"event","name":"EscrowCreated","inputs":[{"name":"escrow","type":"address","indexed":true,"internalType":"address"},{"name":"host","type":"address","indexed":true,"internalType":"address"},{"name":"depositAmount","type":"uint256","indexed":false,"internalType":"uint256"}],"anonymous":false},{"type":"event","name":"OracleAdded","inputs":[{"name":"oracle","type":"address","indexed":true,"internalType":"address"}],"anonymous":false},{"type":"event","name":"OracleRemoved","inputs":[{"name":"oracle","type":"address","indexed":true,"internalType":"address"}],"anonymous":false},{"type":"event","name":"OwnershipTransferred","inputs":[{"name":"previousOwner","type":"address","indexed":true,"internalType":"address"},{"name":"newOwner","type":"address","indexed":true,"internalType":"address"}],"anonymous":false},{"type":"error","name":"OwnableInvalidOwner","inputs":[{"name":"owner","type":"address","internalType":"address"}]},{"type":"error","name":"OwnableUnauthorizedAccount","inputs":[{"name":"account","type":"address","internalType":"address"}]}],"bytecode":{"object":"0x60c060405234801561001057600080fd5b50604051612e74380380612e7483398101604081905261002f916100e2565b338061005557604051631e4fbdf760e01b81526000600482015260240160405180910390fd5b61005e81610076565b506001600160a01b039182166080521660a052610115565b600080546001600160a01b038381166001600160a01b0319831681178455604051919092169283917f8be0079c531659141344cd1fd0a4f28419497f9722a3daafe3b4186f6b6457e09190a35050565b80516001600160a01b03811681146100dd57600080fd5b919050565b600080604083850312156100f557600080fd5b6100fe836100c6565b915061010c602084016100c6565b90509250929050565b60805160a051612d2d6101476000396000818161010a015261040a01526000818160e301526103e80152612d2d6000f3fe608060405234801561001057600080fd5b50600436106100a95760003560e01c80638da5cb5b116100715780638da5cb5b1461014b578063a0735bf41461015c578063addd50991461016f578063df5dd1a5146101a2578063f2fde38b146101b5578063fdc85fc4146101c857600080fd5b8063012f52ee146100ae5780633013ce29146100de57806369e4e005146101055780636afcb6da1461012c578063715018a614610141575b600080fd5b6100c16100bc366004610710565b6101db565b6040516001600160a01b0390911681526020015b60405180910390f35b6100c17f000000000000000000000000000000000000000000000000000000000000000081565b6100c17f000000000000000000000000000000000000000000000000000000000000000081565b610134610205565b6040516100d59190610729565b610149610267565b005b6000546001600160a01b03166100c1565b6100c161016a3660046107a7565b61027b565b61019261017d36600461088a565b60016020526000908152604090205460ff1681565b60405190151581526020016100d5565b6101496101b036600461088a565b6104f2565b6101496101c336600461088a565b6105a2565b6101496101d636600461088a565b6105e0565b600281815481106101eb57600080fd5b6000918252602090912001546001600160a01b0316905081565b6060600280548060200260200160405190810160405280929190818152602001828054801561025d57602002820191906000526020600020905b81546001600160a01b0316815260019091019060200180831161023f575b5050505050905090565b61026f610686565b61027960006106b3565b565b60004283116102d15760405162461bcd60e51b815260206004820152601a60248201527f456e642074696d65206d75737420626520696e2066757475726500000000000060448201526064015b60405180910390fd5b600184116103215760405162461bcd60e51b815260206004820152601c60248201527f4e656564206174206c656173742032207061727469636970616e74730000000060448201526064016102c8565b6001600160a01b03821660009081526001602052604090205460ff166103825760405162461bcd60e51b81526020600482015260166024820152754e6f7420616e20617070726f766564206f7261636c6560501b60448201526064016102c8565b600085116103e05760405162461bcd60e51b815260206004820152602560248201527f4465706f73697420616d6f756e74206d75737420626520677265617465722074604482015264068616e20360dc1b60648201526084016102c8565b6000868686867f0000000000000000000000000000000000000000000000000000000000000000877f000000000000000000000000000000000000000000000000000000000000000060405161043590610703565b61044597969594939291906108ac565b604051809103906000f080158015610461573d6000803e3d6000fd5b50600280546001810182556000919091527f405787fa12a823e0f2b7631cc41b3ba8828b3321ca811111fa75cd3aa3bb5ace0180546001600160a01b0319166001600160a01b03831690811790915560405188815291925033917f78da7430b15648a5954de6bf3f6dc65a9eb64c292537d89a2a9989fdd36799239060200160405180910390a39695505050505050565b6104fa610686565b6001600160a01b03811660009081526001602052604090205460ff16156105545760405162461bcd60e51b815260206004820152600e60248201526d416c7265616479206f7261636c6560901b60448201526064016102c8565b6001600160a01b0381166000818152600160208190526040808320805460ff1916909217909155517e47706786c922d17b39285dc59d696bafea72c0b003d3841ae1202076f4c2e49190a250565b6105aa610686565b6001600160a01b0381166105d457604051631e4fbdf760e01b8152600060048201526024016102c8565b6105dd816106b3565b50565b6105e8610686565b6001600160a01b03811660009081526001602052604090205460ff1661063d5760405162461bcd60e51b815260206004820152600a6024820152694e6f74206f7261636c6560b01b60448201526064016102c8565b6001600160a01b038116600081815260016020526040808220805460ff19169055517f9c8e7d83025bef8a04c664b2f753f64b8814bdb7e27291d7e50935f18cc3c7129190a250565b6000546001600160a01b031633146102795760405163118cdaa760e01b81523360048201526024016102c8565b600080546001600160a01b038381166001600160a01b0319831681178455604051919092169283917f8be0079c531659141344cd1fd0a4f28419497f9722a3daafe3b4186f6b6457e09190a35050565b6123af8061094983390190565b60006020828403121561072257600080fd5b5035919050565b602080825282518282018190526000918401906040840190835b8181101561076a5783516001600160a01b0316835260209384019390920191600101610743565b509095945050505050565b634e487b7160e01b600052604160045260246000fd5b80356001600160a01b03811681146107a257600080fd5b919050565b600080600080600060a086880312156107bf57600080fd5b853567ffffffffffffffff8111156107d657600080fd5b8601601f810188136107e757600080fd5b803567ffffffffffffffff81111561080157610801610775565b604051601f8201601f19908116603f0116810167ffffffffffffffff8111828210171561083057610830610775565b6040528181528282016020018a101561084857600080fd5b81602084016020830137600060209282018301529650870135945050604086013592506060860135915061087e6080870161078b565b90509295509295909350565b60006020828403121561089c57600080fd5b6108a58261078b565b9392505050565b60e08152600088518060e084015260005b818110156108db576020818c018101516101008684010152016108bd565b5060006101008285010152610100601f19601f83011684010191505087602083015286604083015285606083015261091e60808301866001600160a01b03169052565b6001600160a01b03841660a08301526001600160a01b03831660c08301529897505050505050505056fe61010060405234801561001157600080fd5b506040516123af3803806123af8339810160408190526100309161029f565b6001600055338061005b57604051631e4fbdf760e01b81526000600482015260240160405180910390fd5b610064816101c2565b506040805160808101825288815260208101889052908101869052606081018590526004806100938a82610425565b50602082810151600183015560408084015160028401556060909301516003928301556001600160a01b0386811660805285811660a052825460ff1916909255825163026b1d5f60e01b8152925184939284169263026b1d5f9260048083019391928290030181865afa15801561010e573d6000803e3d6000fd5b505050506040513d601f19601f8201168201806040525081019061013291906104e3565b6001600160a01b0390811660c08190526040516335ea6a7560e01b81529186166004830152906335ea6a75906024016101e060405180830381865afa15801561017f573d6000803e3d6000fd5b505050506040513d601f19601f820116820180604052508101906101a39190610584565b61010001516001600160a01b031660e052506106b09650505050505050565b600180546001600160a01b038381166001600160a01b0319831681179093556040519116919082907f8be0079c531659141344cd1fd0a4f28419497f9722a3daafe3b4186f6b6457e090600090a35050565b634e487b7160e01b600052604160045260246000fd5b6040516101e081016001600160401b038111828210171561024d5761024d610214565b60405290565b604051601f8201601f191681016001600160401b038111828210171561027b5761027b610214565b604052919050565b80516001600160a01b038116811461029a57600080fd5b919050565b600080600080600080600060e0888a0312156102ba57600080fd5b87516001600160401b038111156102d057600080fd5b8801601f81018a136102e157600080fd5b80516001600160401b038111156102fa576102fa610214565b61030d601f8201601f1916602001610253565b8181528b602083850101111561032257600080fd5b60005b8281101561034157602081850181015183830182015201610325565b5060006020928201830152908a015160408b015160608c0151929a5090985096509450610372905060808901610283565b925061038060a08901610283565b915061038e60c08901610283565b905092959891949750929550565b600181811c908216806103b057607f821691505b6020821081036103d057634e487b7160e01b600052602260045260246000fd5b50919050565b601f82111561042057806000526020600020601f840160051c810160208510156103fd5750805b601f840160051c820191505b8181101561041d5760008155600101610409565b50505b505050565b81516001600160401b0381111561043e5761043e610214565b6104528161044c845461039c565b846103d6565b6020601f821160018114610486576000831561046e5750848201515b600019600385901b1c1916600184901b17845561041d565b600084815260208120601f198516915b828110156104b65787850151825560209485019460019092019101610496565b50848210156104d45786840151600019600387901b60f8161c191681555b50505050600190811b01905550565b6000602082840312156104f557600080fd5b6104fe82610283565b9392505050565b60006020828403121561051757600080fd5b604051602081016001600160401b038111828210171561053957610539610214565b6040529151825250919050565b80516001600160801b038116811461029a57600080fd5b805164ffffffffff8116811461029a57600080fd5b805161ffff8116811461029a57600080fd5b60006101e082840312801561059857600080fd5b506105a161022a565b6105ab8484610505565b81526105b960208401610546565b60208201526105ca60408401610546565b60408201526105db60608401610546565b60608201526105ec60808401610546565b60808201526105fd60a08401610546565b60a082015261060e60c0840161055d565b60c082015261061f60e08401610572565b60e08201526106316101008401610283565b6101008201526106446101208401610283565b6101208201526106576101408401610283565b61014082015261066a6101608401610283565b61016082015261067d6101808401610546565b6101808201526106906101a08401610546565b6101a08201526106a36101c08401610546565b6101c08201529392505050565b60805160a05160c05160e051611c096107a6600039600081816101be015281816103730152610c50015260008181610245015281816104050152818161081201528181610cdd01528181611411015281816114e80152611678015260008181610205015281816106a701528181610aa9015281816110180152611181015260008181610135015281816104320152818161051f01528181610615015281816106d60152818161083f015281816108cd01528181610d0a01528181610e7801528181610f86015281816110470152818161133a015281816113e4015281816114ab015281816116a501526117330152611c096000f3fe608060405234801561001057600080fd5b50600436106101215760003560e01c80637dc0d1d0116100ad578063cabfaa1811610071578063cabfaa1814610281578063d0e30db014610289578063db2e21bc14610291578063f2c16e6f14610299578063f2fde38b146102cc57600080fd5b80637dc0d1d0146102005780638da5cb5b146102275780639496fd1c14610238578063a03e4bc314610240578063c19d93fb1461026757600080fd5b80634ea4f8e6116100f45780634ea4f8e61461018f57806351cc0da7146101a2578063559fda33146101b9578063565974d3146101e0578063715018a6146101f857600080fd5b80632009dc65146101265780633013ce291461013057806335c1d349146101745780633ccfd60b14610187575b600080fd5b61012e6102df565b005b6101577f000000000000000000000000000000000000000000000000000000000000000081565b6040516001600160a01b0390911681526020015b60405180910390f35b6101576101823660046118b1565b610749565b61012e610773565b61012e61019d3660046118ca565b610a9e565b6101ab60025481565b60405190815260200161016b565b6101577f000000000000000000000000000000000000000000000000000000000000000081565b6101e86110be565b60405161016b9493929190611941565b61012e611162565b6101577f000000000000000000000000000000000000000000000000000000000000000081565b6001546001600160a01b0316610157565b61012e611176565b6101577f000000000000000000000000000000000000000000000000000000000000000081565b6003546102749060ff1681565b60405161016b91906119ba565b6009546101ab565b61012e611249565b61012e6115cb565b6102bc6102a73660046119e2565b60086020526000908152604090205460ff1681565b604051901515815260200161016b565b61012e6102da3660046119e2565b6117c2565b6102e7611800565b60006003805460ff1690811115610300576103006119a4565b146103265760405162461bcd60e51b815260040161031d90611a12565b60405180910390fd5b6003805460ff1916811790556040517f6e3be9294e58d10b9c8053cfd5e09871b67e442fe394d6b0870d336b9df984a990600090a16040516370a0823160e01b81523060048201526000907f00000000000000000000000000000000000000000000000000000000000000006001600160a01b0316906370a0823190602401602060405180830381865afa1580156103c2573d6000803e3d6000fd5b505050506040513d601f19601f820116820180604052508101906103e69190611a3b565b905080156104a357604051631a4ca37b60e21b81526001600160a01b037f000000000000000000000000000000000000000000000000000000000000000016906369328dec9061045e907f00000000000000000000000000000000000000000000000000000000000000009085903090600401611a54565b6020604051808303816000875af115801561047d573d6000803e3d6000fd5b505050506040513d601f19601f820116820180604052508101906104a19190611a3b565b505b60005b6009548110156105f0576000600982815481106104c5576104c5611a77565b60009182526020808320909101546001600160a01b0316808352600890915260409091205490915060ff16156105e75760055460405163a9059cbb60e01b81526001600160a01b03838116600483015260248201929092527f00000000000000000000000000000000000000000000000000000000000000009091169063a9059cbb906044016020604051808303816000875af115801561056a573d6000803e3d6000fd5b505050506040513d601f19601f8201168201806040525081019061058e9190611a8d565b506001600160a01b038116600081815260086020908152604091829020805460ff1916905560055491519182527f357ff40138a06ece2e77a160416673f406b2401bab0927942c4b31e96afeb248910160405180910390a25b506001016104a6565b506105fd6009600061187f565b6040516370a0823160e01b81523060048201526000907f00000000000000000000000000000000000000000000000000000000000000006001600160a01b0316906370a0823190602401602060405180830381865afa158015610664573d6000803e3d6000fd5b505050506040513d601f19601f820116820180604052508101906106889190611a3b565b905080156107455760405163a9059cbb60e01b81526001600160a01b037f000000000000000000000000000000000000000000000000000000000000000081166004830152602482018390527f0000000000000000000000000000000000000000000000000000000000000000169063a9059cbb906044016020604051808303816000875af115801561071f573d6000803e3d6000fd5b505050506040513d601f19601f820116820180604052508101906107439190611a8d565b505b5050565b6009818154811061075957600080fd5b6000918252602090912001546001600160a01b0316905081565b60006003805460ff169081111561078c5761078c6119a4565b146107a95760405162461bcd60e51b815260040161031d90611a12565b3360009081526008602052604090205460ff166107f85760405162461bcd60e51b815260206004820152600d60248201526c139bdd0819195c1bdcda5d1959609a1b604482015260640161031d565b600554604051631a4ca37b60e21b81526001600160a01b037f000000000000000000000000000000000000000000000000000000000000000016916369328dec91610869917f0000000000000000000000000000000000000000000000000000000000000000913090600401611a54565b6020604051808303816000875af1158015610888573d6000803e3d6000fd5b505050506040513d601f19601f820116820180604052508101906108ac9190611a3b565b5060055460405163a9059cbb60e01b815233600482015260248101919091527f00000000000000000000000000000000000000000000000000000000000000006001600160a01b03169063a9059cbb906044016020604051808303816000875af115801561091e573d6000803e3d6000fd5b505050506040513d601f19601f820116820180604052508101906109429190611a8d565b5060055460028054600090610958908490611ac5565b9091555050336000908152600860205260408120805460ff191690555b600954811015610a7057336001600160a01b03166009828154811061099c5761099c611a77565b6000918252602090912001546001600160a01b031603610a6857600980546109c690600190611ac5565b815481106109d6576109d6611a77565b600091825260209091200154600980546001600160a01b039092169183908110610a0257610a02611a77565b9060005260206000200160006101000a8154816001600160a01b0302191690836001600160a01b031602179055506009805480610a4157610a41611ade565b600082815260209020810160001990810180546001600160a01b0319169055019055610a70565b600101610975565b5060405133907fd900faab28619592e985fe698e5edf2e0819a9d670c3b2547afb60504aa115fb90600090a2565b336001600160a01b037f00000000000000000000000000000000000000000000000000000000000000001614610b035760405162461bcd60e51b815260206004820152600a6024820152694e6f74206f7261636c6560b01b604482015260640161031d565b60016003805460ff1690811115610b1c57610b1c6119a4565b14610b625760405162461bcd60e51b8152602060048201526016602482015275457363726f77206e6f7420696e2070726f677265737360501b604482015260640161031d565b6009548114610bac5760405162461bcd60e51b8152602060048201526016602482015275092dcecc2d8d2c840e0c2f2deeae8e640d8cadccee8d60531b604482015260640161031d565b6000805b82811015610be657838382818110610bca57610bca611a77565b9050602002013582610bdc9190611af4565b9150600101610bb0565b508061271014610c385760405162461bcd60e51b815260206004820181905260248201527f546f74616c206d75737420626520313030303020626173697320706f696e7473604482015260640161031d565b6040516370a0823160e01b81523060048201526000907f00000000000000000000000000000000000000000000000000000000000000006001600160a01b0316906370a0823190602401602060405180830381865afa158015610c9f573d6000803e3d6000fd5b505050506040513d601f19601f82011682018060405250810190610cc39190611a3b565b604051631a4ca37b60e21b81529091506001600160a01b037f000000000000000000000000000000000000000000000000000000000000000016906369328dec90610d36907f00000000000000000000000000000000000000000000000000000000000000009085903090600401611a54565b6020604051808303816000875af1158015610d55573d6000803e3d6000fd5b505050506040513d601f19601f82011682018060405250810190610d799190611a3b565b5060008367ffffffffffffffff811115610d9557610d95611b07565b604051908082528060200260200182016040528015610dbe578160200160208202803683370190505b50905060005b84811015610e2457612710868683818110610de157610de1611a77565b90506020020135600254610df59190611b1d565b610dff9190611b34565b828281518110610e1157610e11611a77565b6020908102919091010152600101610dc4565b506003805460ff191660021790556040517fc841c91bdaa23c1c4bdb58cea14d01f2024cc9ef361c26151d0f82cf6216af3c90610e62908390611b56565b60405180910390a160005b8151811015610f6d577f00000000000000000000000000000000000000000000000000000000000000006001600160a01b031663a9059cbb60098381548110610eb857610eb8611a77565b9060005260206000200160009054906101000a90046001600160a01b0316848481518110610ee857610ee8611a77565b60200260200101516040518363ffffffff1660e01b8152600401610f219291906001600160a01b03929092168252602082015260400190565b6020604051808303816000875af1158015610f40573d6000803e3d6000fd5b505050506040513d601f19601f82011682018060405250810190610f649190611a8d565b50600101610e6d565b506040516370a0823160e01b81523060048201526000907f00000000000000000000000000000000000000000000000000000000000000006001600160a01b0316906370a0823190602401602060405180830381865afa158015610fd5573d6000803e3d6000fd5b505050506040513d601f19601f82011682018060405250810190610ff99190611a3b565b905080156110b65760405163a9059cbb60e01b81526001600160a01b037f000000000000000000000000000000000000000000000000000000000000000081166004830152602482018390527f0000000000000000000000000000000000000000000000000000000000000000169063a9059cbb906044016020604051808303816000875af1158015611090573d6000803e3d6000fd5b505050506040513d601f19601f820116820180604052508101906110b49190611a8d565b505b505050505050565b6004805481906110cd90611b99565b80601f01602080910402602001604051908101604052809291908181526020018280546110f990611b99565b80156111465780601f1061111b57610100808354040283529160200191611146565b820191906000526020600020905b81548152906001019060200180831161112957829003601f168201915b5050505050908060010154908060020154908060030154905084565b61116a611800565b611174600061182d565b565b336001600160a01b037f000000000000000000000000000000000000000000000000000000000000000016146111db5760405162461bcd60e51b815260206004820152600a6024820152694e6f74206f7261636c6560b01b604482015260640161031d565b60006003805460ff16908111156111f4576111f46119a4565b146112115760405162461bcd60e51b815260040161031d90611a12565b6003805460ff191660011790556040517f1a8ade30f60946b8fb7b4d1cf93dc594fa0e441eca24e1b9b88cfa375e3488b190600090a1565b60006003805460ff1690811115611262576112626119a4565b1461127f5760405162461bcd60e51b815260040161031d90611a12565b3360009081526008602052604090205460ff16156112d35760405162461bcd60e51b8152602060048201526011602482015270105b1c9958591e4819195c1bdcda5d1959607a1b604482015260640161031d565b600654600954106113145760405162461bcd60e51b815260206004820152600b60248201526a115cd8dc9bddc8199d5b1b60aa1b604482015260640161031d565b6005546040516323b872dd60e01b815233600482015230602482015260448101919091527f00000000000000000000000000000000000000000000000000000000000000006001600160a01b0316906323b872dd906064016020604051808303816000875af115801561138b573d6000803e3d6000fd5b505050506040513d601f19601f820116820180604052508101906113af9190611a8d565b50600554600280546000906113c5908490611af4565b909155505060055460405163095ea7b360e01b81526001600160a01b037f0000000000000000000000000000000000000000000000000000000000000000169163095ea7b39161144d917f0000000000000000000000000000000000000000000000000000000000000000916004016001600160a01b03929092168252602082015260400190565b6020604051808303816000875af115801561146c573d6000803e3d6000fd5b505050506040513d601f19601f820116820180604052508101906114909190611a8d565b5060055460405163617ba03760e01b81526001600160a01b037f0000000000000000000000000000000000000000000000000000000000000000811660048301526024820192909252306044820152600060648201527f00000000000000000000000000000000000000000000000000000000000000009091169063617ba03790608401600060405180830381600087803b15801561152e57600080fd5b505af1158015611542573d6000803e3d6000fd5b50506009805460018181019092557f6e1540171b6c0c960b71a7020d9f60077f6af931a8bbf590da0223dacf75c7af0180546001600160a01b03191633908117909155600081815260086020526040808220805460ff191690941790935591519093507f36c3f1bdccade0360be44662425e3c1011ac51718d18e4e2712481f1c44e4a3c9250a2565b3360009081526008602052604090205460ff1661161a5760405162461bcd60e51b815260206004820152600d60248201526c139bdd0819195c1bdcda5d1959609a1b604482015260640161031d565b600754421161165e5760405162461bcd60e51b815260206004820152601060248201526f115cd8dc9bddc81b9bdd08195b99195960821b604482015260640161031d565b600554604051631a4ca37b60e21b81526001600160a01b037f000000000000000000000000000000000000000000000000000000000000000016916369328dec916116cf917f0000000000000000000000000000000000000000000000000000000000000000913090600401611a54565b6020604051808303816000875af11580156116ee573d6000803e3d6000fd5b505050506040513d601f19601f820116820180604052508101906117129190611a3b565b5060055460405163a9059cbb60e01b815233600482015260248101919091527f00000000000000000000000000000000000000000000000000000000000000006001600160a01b03169063a9059cbb906044016020604051808303816000875af1158015611784573d6000803e3d6000fd5b505050506040513d601f19601f820116820180604052508101906117a89190611a8d565b50336000908152600860205260409020805460ff19169055565b6117ca611800565b6001600160a01b0381166117f457604051631e4fbdf760e01b81526000600482015260240161031d565b6117fd8161182d565b50565b6001546001600160a01b031633146111745760405163118cdaa760e01b815233600482015260240161031d565b600180546001600160a01b038381166001600160a01b0319831681179093556040519116919082907f8be0079c531659141344cd1fd0a4f28419497f9722a3daafe3b4186f6b6457e090600090a35050565b50805460008255906000526020600020908101906117fd91905b808211156118ad5760008155600101611899565b5090565b6000602082840312156118c357600080fd5b5035919050565b600080602083850312156118dd57600080fd5b823567ffffffffffffffff8111156118f457600080fd5b8301601f8101851361190557600080fd5b803567ffffffffffffffff81111561191c57600080fd5b8560208260051b840101111561193157600080fd5b6020919091019590945092505050565b608081526000855180608084015260005b8181101561196f57602081890181015160a0868401015201611952565b50600060a0828501015260a0601f19601f83011684010191505084602083015283604083015282606083015295945050505050565b634e487b7160e01b600052602160045260246000fd5b60208101600483106119dc57634e487b7160e01b600052602160045260246000fd5b91905290565b6000602082840312156119f457600080fd5b81356001600160a01b0381168114611a0b57600080fd5b9392505050565b6020808252600f908201526e22b9b1b937bb903737ba1037b832b760891b604082015260600190565b600060208284031215611a4d57600080fd5b5051919050565b6001600160a01b0393841681526020810192909252909116604082015260600190565b634e487b7160e01b600052603260045260246000fd5b600060208284031215611a9f57600080fd5b81518015158114611a0b57600080fd5b634e487b7160e01b600052601160045260246000fd5b81810381811115611ad857611ad8611aaf565b92915050565b634e487b7160e01b600052603160045260246000fd5b80820180821115611ad857611ad8611aaf565b634e487b7160e01b600052604160045260246000fd5b8082028115828204841417611ad857611ad8611aaf565b600082611b5157634e487b7160e01b600052601260045260246000fd5b500490565b602080825282518282018190526000918401906040840190835b81811015611b8e578351835260209384019390920191600101611b70565b509095945050505050565b600181811c90821680611bad57607f821691505b602082108103611bcd57634e487b7160e01b600052602260045260246000fd5b5091905056fea264697066735822122076a3e4933750771c475767af6d9194f785d03fcfb5606d8dd646aad3f1d5bcf964736f6c634300081a0033a2646970667358221220c4ed30ac1066cdd5ab26735cc9147bea61752713935324abe931bab2874edd5f64736f6c634300081a0033","linkReferences":{}},"methodIdentifiers":{"aavePoolAddressesProvider()":"69e4e005","addOracle(address)":"df5dd1a5","createEscrow(string,uint256,uint256,uint256,address)":"a0735bf4","escrows(uint256)":"012f52ee","getEscrows()":"6afcb6da","oracles(address)":"addd5099","owner()":"8da5cb5b","paymentToken()":"3013ce29","removeOracle(address)":"fdc85fc4","renounceOwnership()":"715018a6","transferOwnership(address)":"f2fde38b"},"id":30}