{"abi":[{"type":"constructor","inputs":[{"name":"_platformFee","type":"uint256","internalType":"uint256"},{"name":"_paymentToken","type":"address","internalType":"address"},{"name":"_aavePoolAddressesProvider","type":"address","internalType":"address"}],"stateMutability":"nonpayable"},{"type":"function","name":"aavePoolAddressesProvider","inputs":[],"outputs":[{"name":"","type":"address","internalType":"address"}],"stateMutability":"view"},{"type":"function","name":"addOracle","inputs":[{"name":"oracle","type":"address","internalType":"address"}],"outputs":[],"stateMutability":"nonpayable"},{"type":"function","name":"collectPlatformFees","inputs":[],"outputs":[],"stateMutability":"nonpayable"},{"type":"function","name":"contests","inputs":[{"name":"","type":"uint256","internalType":"uint256"}],"outputs":[{"name":"","type":"address","internalType":"contract Contest"}],"stateMutability":"view"},{"type":"function","name":"createContest","inputs":[{"name":"name","type":"string","internalType":"string"},{"name":"entryFee","type":"uint256","internalType":"uint256"},{"name":"maxParticipants","type":"uint256","internalType":"uint256"},{"name":"endTime","type":"uint256","internalType":"uint256"},{"name":"oracle","type":"address","internalType":"address"}],"outputs":[{"name":"","type":"address","internalType":"address"}],"stateMutability":"nonpayable"},{"type":"function","name":"getContests","inputs":[],"outputs":[{"name":"","type":"address[]","internalType":"contract Contest[]"}],"stateMutability":"view"},{"type":"function","name":"oracles","inputs":[{"name":"","type":"address","internalType":"address"}],"outputs":[{"name":"","type":"bool","internalType":"bool"}],"stateMutability":"view"},{"type":"function","name":"owner","inputs":[],"outputs":[{"name":"","type":"address","internalType":"address"}],"stateMutability":"view"},{"type":"function","name":"paymentToken","inputs":[],"outputs":[{"name":"","type":"address","internalType":"address"}],"stateMutability":"view"},{"type":"function","name":"platformFee","inputs":[],"outputs":[{"name":"","type":"uint256","internalType":"uint256"}],"stateMutability":"view"},{"type":"function","name":"removeOracle","inputs":[{"name":"oracle","type":"address","internalType":"address"}],"outputs":[],"stateMutability":"nonpayable"},{"type":"function","name":"renounceOwnership","inputs":[],"outputs":[],"stateMutability":"nonpayable"},{"type":"function","name":"setPlatformFee","inputs":[{"name":"newFee","type":"uint256","internalType":"uint256"}],"outputs":[],"stateMutability":"nonpayable"},{"type":"function","name":"transferOwnership","inputs":[{"name":"newOwner","type":"address","internalType":"address"}],"outputs":[],"stateMutability":"nonpayable"},{"type":"event","name":"ContestCreated","inputs":[{"name":"contest","type":"address","indexed":true,"internalType":"address"},{"name":"host","type":"address","indexed":true,"internalType":"address"},{"name":"entryFee","type":"uint256","indexed":false,"internalType":"uint256"}],"anonymous":false},{"type":"event","name":"OracleAdded","inputs":[{"name":"oracle","type":"address","indexed":true,"internalType":"address"}],"anonymous":false},{"type":"event","name":"OracleRemoved","inputs":[{"name":"oracle","type":"address","indexed":true,"internalType":"address"}],"anonymous":false},{"type":"event","name":"OwnershipTransferred","inputs":[{"name":"previousOwner","type":"address","indexed":true,"internalType":"address"},{"name":"newOwner","type":"address","indexed":true,"internalType":"address"}],"anonymous":false},{"type":"event","name":"PlatformFeeUpdated","inputs":[{"name":"newFee","type":"uint256","indexed":false,"internalType":"uint256"}],"anonymous":false},{"type":"error","name":"OwnableInvalidOwner","inputs":[{"name":"owner","type":"address","internalType":"address"}]},{"type":"error","name":"OwnableUnauthorizedAccount","inputs":[{"name":"account","type":"address","internalType":"address"}]}],"bytecode":{"object":"0x60c060405234801561001057600080fd5b5060405161337038038061337083398101604081905261002f916100e8565b338061005557604051631e4fbdf760e01b81526000600482015260240160405180910390fd5b61005e8161007c565b506001929092556001600160a01b039081166080521660a052610124565b600080546001600160a01b038381166001600160a01b0319831681178455604051919092169283917f8be0079c531659141344cd1fd0a4f28419497f9722a3daafe3b4186f6b6457e09190a35050565b80516001600160a01b03811681146100e357600080fd5b919050565b6000806000606084860312156100fd57600080fd5b8351925061010d602085016100cc565b915061011b604085016100cc565b90509250925092565b60805160a05161320b6101656000396000818161017f01526103d2015260008181610150015281816103ad0152818161055f015261061b015261320b6000f3fe608060405234801561001057600080fd5b50600436106100ea5760003560e01c80638da5cb5b1161008c578063bfaba76a11610066578063bfaba76a14610200578063df5dd1a514610215578063f2fde38b14610228578063fdc85fc41461023b57600080fd5b80638da5cb5b146101a95780639d7ed738146101ba578063addd5099146101cd57600080fd5b80633013ce29116100c85780633013ce291461014b5780634287f2451461017257806369e4e0051461017a578063715018a6146101a157600080fd5b806310325de3146100ef57806312e8e2c31461011f57806326232a2e14610134575b600080fd5b6101026100fd3660046109f6565b61024e565b6040516001600160a01b0390911681526020015b60405180910390f35b61013261012d366004610ad9565b6104bb565b005b61013d60015481565b604051908152602001610116565b6101027f000000000000000000000000000000000000000000000000000000000000000081565b61013261053f565b6101027f000000000000000000000000000000000000000000000000000000000000000081565b61013261070c565b6000546001600160a01b0316610102565b6101026101c8366004610ad9565b610720565b6101f06101db366004610af2565b60026020526000908152604090205460ff1681565b6040519015158152602001610116565b61020861074a565b6040516101169190610b14565b610132610223366004610af2565b6107ac565b610132610236366004610af2565b610859565b610132610249366004610af2565b610894565b60004283116102a45760405162461bcd60e51b815260206004820152601a60248201527f456e642074696d65206d75737420626520696e2066757475726500000000000060448201526064015b60405180910390fd5b600184116102f45760405162461bcd60e51b815260206004820152601c60248201527f4e656564206174206c656173742032207061727469636970616e747300000000604482015260640161029b565b6001600160a01b03821660009081526002602052604090205460ff166103555760405162461bcd60e51b81526020600482015260166024820152754e6f7420616e20617070726f766564206f7261636c6560501b604482015260640161029b565b600085116103a55760405162461bcd60e51b815260206004820181905260248201527f456e74727920666565206d7573742062652067726561746572207468616e2030604482015260640161029b565b6000868686867f0000000000000000000000000000000000000000000000000000000000000000876001547f00000000000000000000000000000000000000000000000000000000000000006040516103fd906109b7565b61040e989796959493929190610b60565b604051809103906000f08015801561042a573d6000803e3d6000fd5b50600380546001810182556000919091527fc2575a0e9e593c00f959f8c92f12db2869c3395a3b0502d05e2516446f71f85b0180546001600160a01b0319166001600160a01b03831690811790915560405188815291925033917f0930d90e589f3eb61818e12c03f3b7838099abcb975a02054dc58e1fe7cddf0f9060200160405180910390a39695505050505050565b6104c361093a565b6103e88111156105045760405162461bcd60e51b815260206004820152600c60248201526b08ccaca40e8dede40d0d2ced60a31b604482015260640161029b565b60018190556040518181527f45610d581145924dd7090a5017e5f2b1d6f42213bb2e95707ff86846bbfcb1ca9060200160405180910390a150565b61054761093a565b6040516370a0823160e01b81523060048201526000907f00000000000000000000000000000000000000000000000000000000000000006001600160a01b0316906370a0823190602401602060405180830381865afa1580156105ae573d6000803e3d6000fd5b505050506040513d601f19601f820116820180604052508101906105d29190610c0b565b9050600081116106195760405162461bcd60e51b8152602060048201526012602482015271139bc81999595cc81d1bc818dbdb1b1958dd60721b604482015260640161029b565b7f00000000000000000000000000000000000000000000000000000000000000006001600160a01b031663a9059cbb61065a6000546001600160a01b031690565b6040516001600160e01b031960e084901b1681526001600160a01b039091166004820152602481018490526044016020604051808303816000875af11580156106a7573d6000803e3d6000fd5b505050506040513d601f19601f820116820180604052508101906106cb9190610c24565b6107095760405162461bcd60e51b815260206004820152600f60248201526e151c985b9cd9995c8819985a5b1959608a1b604482015260640161029b565b50565b61071461093a565b61071e6000610967565b565b6003818154811061073057600080fd5b6000918252602090912001546001600160a01b0316905081565b606060038054806020026020016040519081016040528092919081815260200182805480156107a257602002820191906000526020600020905b81546001600160a01b03168152600190910190602001808311610784575b5050505050905090565b6107b461093a565b6001600160a01b03811660009081526002602052604090205460ff161561080e5760405162461bcd60e51b815260206004820152600e60248201526d416c7265616479206f7261636c6560901b604482015260640161029b565b6001600160a01b038116600081815260026020526040808220805460ff19166001179055517e47706786c922d17b39285dc59d696bafea72c0b003d3841ae1202076f4c2e49190a250565b61086161093a565b6001600160a01b03811661088b57604051631e4fbdf760e01b81526000600482015260240161029b565b61070981610967565b61089c61093a565b6001600160a01b03811660009081526002602052604090205460ff166108f15760405162461bcd60e51b815260206004820152600a6024820152694e6f74206f7261636c6560b01b604482015260640161029b565b6001600160a01b038116600081815260026020526040808220805460ff19169055517f9c8e7d83025bef8a04c664b2f753f64b8814bdb7e27291d7e50935f18cc3c7129190a250565b6000546001600160a01b0316331461071e5760405163118cdaa760e01b815233600482015260240161029b565b600080546001600160a01b038381166001600160a01b0319831681178455604051919092169283917f8be0079c531659141344cd1fd0a4f28419497f9722a3daafe3b4186f6b6457e09190a35050565b61258f80610c4783390190565b634e487b7160e01b600052604160045260246000fd5b80356001600160a01b03811681146109f157600080fd5b919050565b600080600080600060a08688031215610a0e57600080fd5b853567ffffffffffffffff811115610a2557600080fd5b8601601f81018813610a3657600080fd5b803567ffffffffffffffff811115610a5057610a506109c4565b604051601f8201601f19908116603f0116810167ffffffffffffffff81118282101715610a7f57610a7f6109c4565b6040528181528282016020018a1015610a9757600080fd5b816020840160208301376000602092820183015296508701359450506040860135925060608601359150610acd608087016109da565b90509295509295909350565b600060208284031215610aeb57600080fd5b5035919050565b600060208284031215610b0457600080fd5b610b0d826109da565b9392505050565b602080825282518282018190526000918401906040840190835b81811015610b555783516001600160a01b0316835260209384019390920191600101610b2e565b509095945050505050565b6101008152600089518061010084015260005b81811015610b91576020818d01810151610120868401015201610b73565b5060006101208285010152610120601f19601f830116840101915050886020830152876040830152866060830152610bd460808301876001600160a01b03169052565b6001600160a01b03851660a08301528360c0830152610bfe60e08301846001600160a01b03169052565b9998505050505050505050565b600060208284031215610c1d57600080fd5b5051919050565b600060208284031215610c3657600080fd5b81518015158114610b0d57600080fdfe61012060405234801561001157600080fd5b5060405161258f38038061258f833981016040819052610030916102a6565b6001600055338061005b57604051631e4fbdf760e01b81526000600482015260240160405180910390fd5b610064816101c9565b506040805160808101825289815260208101899052908101879052606081018690526004806100938b82610437565b50602082810151600183015560408084015160028401556060909301516003928301556001600160a01b0387811660805286811660a05260c0869052825460ff1916909255825163026b1d5f60e01b8152925184939284169263026b1d5f9260048083019391928290030181865afa158015610113573d6000803e3d6000fd5b505050506040513d601f19601f8201168201806040525081019061013791906104f5565b6001600160a01b0390811660e08190526040516335ea6a7560e01b81529187166004830152906335ea6a75906024016101e060405180830381865afa158015610184573d6000803e3d6000fd5b505050506040513d601f19601f820116820180604052508101906101a89190610596565b610100908101516001600160a01b03169052506106c2975050505050505050565b600180546001600160a01b038381166001600160a01b0319831681179093556040519116919082907f8be0079c531659141344cd1fd0a4f28419497f9722a3daafe3b4186f6b6457e090600090a35050565b634e487b7160e01b600052604160045260246000fd5b6040516101e081016001600160401b03811182821017156102545761025461021b565b60405290565b604051601f8201601f191681016001600160401b03811182821017156102825761028261021b565b604052919050565b80516001600160a01b03811681146102a157600080fd5b919050565b600080600080600080600080610100898b0312156102c357600080fd5b88516001600160401b038111156102d957600080fd5b8901601f81018b136102ea57600080fd5b80516001600160401b038111156103035761030361021b565b610316601f8201601f191660200161025a565b8181528c602083850101111561032b57600080fd5b60005b8281101561034a5760208185018101518383018201520161032e565b5060006020928201830152908b015160408c015160608d0151929b509099509750955061037b905060808a0161028a565b935061038960a08a0161028a565b60c08a0151909350915061039f60e08a0161028a565b90509295985092959890939650565b600181811c908216806103c257607f821691505b6020821081036103e257634e487b7160e01b600052602260045260246000fd5b50919050565b601f82111561043257806000526020600020601f840160051c8101602085101561040f5750805b601f840160051c820191505b8181101561042f576000815560010161041b565b50505b505050565b81516001600160401b038111156104505761045061021b565b6104648161045e84546103ae565b846103e8565b6020601f82116001811461049857600083156104805750848201515b600019600385901b1c1916600184901b17845561042f565b600084815260208120601f198516915b828110156104c857878501518255602094850194600190920191016104a8565b50848210156104e65786840151600019600387901b60f8161c191681555b50505050600190811b01905550565b60006020828403121561050757600080fd5b6105108261028a565b9392505050565b60006020828403121561052957600080fd5b604051602081016001600160401b038111828210171561054b5761054b61021b565b6040529151825250919050565b80516001600160801b03811681146102a157600080fd5b805164ffffffffff811681146102a157600080fd5b805161ffff811681146102a157600080fd5b60006101e08284031280156105aa57600080fd5b506105b3610231565b6105bd8484610517565b81526105cb60208401610558565b60208201526105dc60408401610558565b60408201526105ed60608401610558565b60608201526105fe60808401610558565b608082015261060f60a08401610558565b60a082015261062060c0840161056f565b60c082015261063160e08401610584565b60e0820152610643610100840161028a565b610100820152610656610120840161028a565b610120820152610669610140840161028a565b61014082015261067c610160840161028a565b61016082015261068f6101808401610558565b6101808201526106a26101a08401610558565b6101a08201526106b56101c08401610558565b6101c08201529392505050565b60805160a05160c05160e05161010051611db06107df6000396000818161021001528181610392015261094001526000818161028f01528181610424015281816109cd01528181611092015281816113ca015281816117ae015261188501526000818161016d0152610b01015260008181610257015281816106c60152818161079d01528181610c4901528181610e94015261151f0152600081816101a2015281816104510152818161053e01528181610634015281816106f5015281816109fa01528181610a8201528181610c7801528181610cf401528181610e0201528181610ec3015281816110bf0152818161114d015281816113f701528181611485015281816116d70152818161178101526118480152611db06000f3fe608060405234801561001057600080fd5b50600436106101215760003560e01c8063715018a6116100ad578063d66d9e1911610071578063d66d9e19146102cb578063db2e21bc146102d3578063e79181c6146102db578063e97dcb62146102e3578063f2fde38b146102eb57600080fd5b8063715018a61461024a5780637dc0d1d0146102525780638da5cb5b14610279578063a03e4bc31461028a578063c19d93fb146102b157600080fd5b806335c1d349116100f457806335c1d349146101dc5780634ea4f8e6146101ef57806351cc0da714610202578063559fda331461020b578063565974d31461023257600080fd5b80632009dc651461012657806324d70dea1461013057806326232a2e146101685780633013ce291461019d575b600080fd5b61012e6102fe565b005b61015361013e366004611a57565b60086020526000908152604090205460ff1681565b60405190151581526020015b60405180910390f35b61018f7f000000000000000000000000000000000000000000000000000000000000000081565b60405190815260200161015f565b6101c47f000000000000000000000000000000000000000000000000000000000000000081565b6040516001600160a01b03909116815260200161015f565b6101c46101ea366004611a87565b610768565b61012e6101fd366004611aa0565b610792565b61018f60025481565b6101c47f000000000000000000000000000000000000000000000000000000000000000081565b61023a610f3d565b60405161015f9493929190611b17565b61012e610fe1565b6101c47f000000000000000000000000000000000000000000000000000000000000000081565b6001546001600160a01b03166101c4565b6101c47f000000000000000000000000000000000000000000000000000000000000000081565b6003546102be9060ff1681565b60405161015f9190611b90565b61012e610ff5565b61012e61131e565b61012e611514565b61012e6115e7565b61012e6102f9366004611a57565b611968565b6103066119a6565b60006003805460ff169081111561031f5761031f611b7a565b146103455760405162461bcd60e51b815260040161033c90611bb8565b60405180910390fd5b6003805460ff1916811790556040517f9237e8f0d5063a695b8695e82c82bc24d15591de9d04449771a6ea4b1283173790600090a16040516370a0823160e01b81523060048201526000907f00000000000000000000000000000000000000000000000000000000000000006001600160a01b0316906370a0823190602401602060405180830381865afa1580156103e1573d6000803e3d6000fd5b505050506040513d601f19601f820116820180604052508101906104059190611be2565b905080156104c257604051631a4ca37b60e21b81526001600160a01b037f000000000000000000000000000000000000000000000000000000000000000016906369328dec9061047d907f00000000000000000000000000000000000000000000000000000000000000009085903090600401611bfb565b6020604051808303816000875af115801561049c573d6000803e3d6000fd5b505050506040513d601f19601f820116820180604052508101906104c09190611be2565b505b60005b60095481101561060f576000600982815481106104e4576104e4611c1e565b60009182526020808320909101546001600160a01b0316808352600890915260409091205490915060ff16156106065760055460405163a9059cbb60e01b81526001600160a01b03838116600483015260248201929092527f00000000000000000000000000000000000000000000000000000000000000009091169063a9059cbb906044016020604051808303816000875af1158015610589573d6000803e3d6000fd5b505050506040513d601f19601f820116820180604052508101906105ad9190611c34565b506001600160a01b038116600081815260086020908152604091829020805460ff1916905560055491519182527f357ff40138a06ece2e77a160416673f406b2401bab0927942c4b31e96afeb248910160405180910390a25b506001016104c5565b5061061c60096000611a25565b6040516370a0823160e01b81523060048201526000907f00000000000000000000000000000000000000000000000000000000000000006001600160a01b0316906370a0823190602401602060405180830381865afa158015610683573d6000803e3d6000fd5b505050506040513d601f19601f820116820180604052508101906106a79190611be2565b905080156107645760405163a9059cbb60e01b81526001600160a01b037f000000000000000000000000000000000000000000000000000000000000000081166004830152602482018390527f0000000000000000000000000000000000000000000000000000000000000000169063a9059cbb906044016020604051808303816000875af115801561073e573d6000803e3d6000fd5b505050506040513d601f19601f820116820180604052508101906107629190611c34565b505b5050565b6009818154811061077857600080fd5b6000918252602090912001546001600160a01b0316905081565b336001600160a01b037f000000000000000000000000000000000000000000000000000000000000000016146107f75760405162461bcd60e51b815260206004820152600a6024820152694e6f74206f7261636c6560b01b604482015260640161033c565b60016003805460ff169081111561081057610810611b7a565b146108525760405162461bcd60e51b815260206004820152601260248201527110dbdb9d195cdd081b9bdd0818db1bdcd95960721b604482015260640161033c565b600954811461089c5760405162461bcd60e51b8152602060048201526016602482015275092dcecc2d8d2c840e0c2f2deeae8e640d8cadccee8d60531b604482015260640161033c565b6000805b828110156108d6578383828181106108ba576108ba611c1e565b90506020020135826108cc9190611c6c565b91506001016108a0565b5080612710146109285760405162461bcd60e51b815260206004820181905260248201527f546f74616c206d75737420626520313030303020626173697320706f696e7473604482015260640161033c565b6040516370a0823160e01b81523060048201526000907f00000000000000000000000000000000000000000000000000000000000000006001600160a01b0316906370a0823190602401602060405180830381865afa15801561098f573d6000803e3d6000fd5b505050506040513d601f19601f820116820180604052508101906109b39190611be2565b604051631a4ca37b60e21b81529091506001600160a01b037f000000000000000000000000000000000000000000000000000000000000000016906369328dec90610a26907f00000000000000000000000000000000000000000000000000000000000000009085903090600401611bfb565b6020604051808303816000875af1158015610a45573d6000803e3d6000fd5b505050506040513d601f19601f82011682018060405250810190610a699190611be2565b506040516370a0823160e01b81523060048201526000907f00000000000000000000000000000000000000000000000000000000000000006001600160a01b0316906370a0823190602401602060405180830381865afa158015610ad1573d6000803e3d6000fd5b505050506040513d601f19601f82011682018060405250810190610af59190611be2565b90506000612710610b267f000000000000000000000000000000000000000000000000000000000000000084611c85565b610b309190611c9c565b9050600081600254610b429190611cbe565b905060008667ffffffffffffffff811115610b5f57610b5f611cd1565b604051908082528060200260200182016040528015610b88578160200160208202803683370190505b50905060005b87811015610bec57612710898983818110610bab57610bab611c1e565b9050602002013584610bbd9190611c85565b610bc79190611c9c565b828281518110610bd957610bd9611c1e565b6020908102919091010152600101610b8e565b506003805460ff191660021790556040517fc841c91bdaa23c1c4bdb58cea14d01f2024cc9ef361c26151d0f82cf6216af3c90610c2a908390611ce7565b60405180910390a160405163a9059cbb60e01b81526001600160a01b037f000000000000000000000000000000000000000000000000000000000000000081166004830152602482018590527f0000000000000000000000000000000000000000000000000000000000000000169063a9059cbb906044016020604051808303816000875af1158015610cc1573d6000803e3d6000fd5b505050506040513d601f19601f82011682018060405250810190610ce59190611c34565b5060005b8151811015610de9577f00000000000000000000000000000000000000000000000000000000000000006001600160a01b031663a9059cbb60098381548110610d3457610d34611c1e565b9060005260206000200160009054906101000a90046001600160a01b0316848481518110610d6457610d64611c1e565b60200260200101516040518363ffffffff1660e01b8152600401610d9d9291906001600160a01b03929092168252602082015260400190565b6020604051808303816000875af1158015610dbc573d6000803e3d6000fd5b505050506040513d601f19601f82011682018060405250810190610de09190611c34565b50600101610ce9565b506040516370a0823160e01b81523060048201526000907f00000000000000000000000000000000000000000000000000000000000000006001600160a01b0316906370a0823190602401602060405180830381865afa158015610e51573d6000803e3d6000fd5b505050506040513d601f19601f82011682018060405250810190610e759190611be2565b90508015610f325760405163a9059cbb60e01b81526001600160a01b037f000000000000000000000000000000000000000000000000000000000000000081166004830152602482018390527f0000000000000000000000000000000000000000000000000000000000000000169063a9059cbb906044016020604051808303816000875af1158015610f0c573d6000803e3d6000fd5b505050506040513d601f19601f82011682018060405250810190610f309190611c34565b505b505050505050505050565b600480548190610f4c90611d2a565b80601f0160208091040260200160405190810160405280929190818152602001828054610f7890611d2a565b8015610fc55780601f10610f9a57610100808354040283529160200191610fc5565b820191906000526020600020905b815481529060010190602001808311610fa857829003601f168201915b5050505050908060010154908060020154908060030154905084565b610fe96119a6565b610ff360006119d3565b565b60006003805460ff169081111561100e5761100e611b7a565b1461102b5760405162461bcd60e51b815260040161033c90611bb8565b3360009081526008602052604090205460ff166110785760405162461bcd60e51b815260206004820152600b60248201526a139bdd08195b9d195c995960aa1b604482015260640161033c565b600554604051631a4ca37b60e21b81526001600160a01b037f000000000000000000000000000000000000000000000000000000000000000016916369328dec916110e9917f0000000000000000000000000000000000000000000000000000000000000000913090600401611bfb565b6020604051808303816000875af1158015611108573d6000803e3d6000fd5b505050506040513d601f19601f8201168201806040525081019061112c9190611be2565b5060055460405163a9059cbb60e01b815233600482015260248101919091527f00000000000000000000000000000000000000000000000000000000000000006001600160a01b03169063a9059cbb906044016020604051808303816000875af115801561119e573d6000803e3d6000fd5b505050506040513d601f19601f820116820180604052508101906111c29190611c34565b50600554600280546000906111d8908490611cbe565b9091555050336000908152600860205260408120805460ff191690555b6009548110156112f057336001600160a01b03166009828154811061121c5761121c611c1e565b6000918252602090912001546001600160a01b0316036112e8576009805461124690600190611cbe565b8154811061125657611256611c1e565b600091825260209091200154600980546001600160a01b03909216918390811061128257611282611c1e565b9060005260206000200160006101000a8154816001600160a01b0302191690836001600160a01b0316021790555060098054806112c1576112c1611d64565b600082815260209020810160001990810180546001600160a01b03191690550190556112f0565b6001016111f5565b5060405133907f3b4c73af13f824ed105a106e6028c2c875414b487d9e05d6b71cc29cc17a63a290600090a2565b3360009081526008602052604090205460ff1661136b5760405162461bcd60e51b815260206004820152600b60248201526a139bdd08195b9d195c995960aa1b604482015260640161033c565b60075442116113b05760405162461bcd60e51b815260206004820152601160248201527010dbdb9d195cdd081b9bdd08195b991959607a1b604482015260640161033c565b600554604051631a4ca37b60e21b81526001600160a01b037f000000000000000000000000000000000000000000000000000000000000000016916369328dec91611421917f0000000000000000000000000000000000000000000000000000000000000000913090600401611bfb565b6020604051808303816000875af1158015611440573d6000803e3d6000fd5b505050506040513d601f19601f820116820180604052508101906114649190611be2565b5060055460405163a9059cbb60e01b815233600482015260248101919091527f00000000000000000000000000000000000000000000000000000000000000006001600160a01b03169063a9059cbb906044016020604051808303816000875af11580156114d6573d6000803e3d6000fd5b505050506040513d601f19601f820116820180604052508101906114fa9190611c34565b50336000908152600860205260409020805460ff19169055565b336001600160a01b037f000000000000000000000000000000000000000000000000000000000000000016146115795760405162461bcd60e51b815260206004820152600a6024820152694e6f74206f7261636c6560b01b604482015260640161033c565b60006003805460ff169081111561159257611592611b7a565b146115af5760405162461bcd60e51b815260040161033c90611bb8565b6003805460ff191660011790556040517f7284d0466035e33033537f3ba45309c13d7987b85dc198a5f0c4179d85960b2490600090a1565b60006003805460ff169081111561160057611600611b7a565b1461161d5760405162461bcd60e51b815260040161033c90611bb8565b3360009081526008602052604090205460ff161561166f5760405162461bcd60e51b815260206004820152600f60248201526e105b1c9958591e48195b9d195c9959608a1b604482015260640161033c565b600654600954106116b15760405162461bcd60e51b815260206004820152600c60248201526b10dbdb9d195cdd08199d5b1b60a21b604482015260640161033c565b6005546040516323b872dd60e01b815233600482015230602482015260448101919091527f00000000000000000000000000000000000000000000000000000000000000006001600160a01b0316906323b872dd906064016020604051808303816000875af1158015611728573d6000803e3d6000fd5b505050506040513d601f19601f8201168201806040525081019061174c9190611c34565b5060055460028054600090611762908490611c6c565b909155505060055460405163095ea7b360e01b81526001600160a01b037f0000000000000000000000000000000000000000000000000000000000000000169163095ea7b3916117ea917f0000000000000000000000000000000000000000000000000000000000000000916004016001600160a01b03929092168252602082015260400190565b6020604051808303816000875af1158015611809573d6000803e3d6000fd5b505050506040513d601f19601f8201168201806040525081019061182d9190611c34565b5060055460405163617ba03760e01b81526001600160a01b037f0000000000000000000000000000000000000000000000000000000000000000811660048301526024820192909252306044820152600060648201527f00000000000000000000000000000000000000000000000000000000000000009091169063617ba03790608401600060405180830381600087803b1580156118cb57600080fd5b505af11580156118df573d6000803e3d6000fd5b50506009805460018181019092557f6e1540171b6c0c960b71a7020d9f60077f6af931a8bbf590da0223dacf75c7af0180546001600160a01b03191633908117909155600081815260086020526040808220805460ff191690941790935591519093507fd9a5d560deba3dbf49e6ff3bcbd63368413ae5c61aa3af28115af040577565999250a2565b6119706119a6565b6001600160a01b03811661199a57604051631e4fbdf760e01b81526000600482015260240161033c565b6119a3816119d3565b50565b6001546001600160a01b03163314610ff35760405163118cdaa760e01b815233600482015260240161033c565b600180546001600160a01b038381166001600160a01b0319831681179093556040519116919082907f8be0079c531659141344cd1fd0a4f28419497f9722a3daafe3b4186f6b6457e090600090a35050565b50805460008255906000526020600020908101906119a391905b80821115611a535760008155600101611a3f565b5090565b600060208284031215611a6957600080fd5b81356001600160a01b0381168114611a8057600080fd5b9392505050565b600060208284031215611a9957600080fd5b5035919050565b60008060208385031215611ab357600080fd5b823567ffffffffffffffff811115611aca57600080fd5b8301601f81018513611adb57600080fd5b803567ffffffffffffffff811115611af257600080fd5b8560208260051b8401011115611b0757600080fd5b6020919091019590945092505050565b608081526000855180608084015260005b81811015611b4557602081890181015160a0868401015201611b28565b50600060a0828501015260a0601f19601f83011684010191505084602083015283604083015282606083015295945050505050565b634e487b7160e01b600052602160045260246000fd5b6020810160048310611bb257634e487b7160e01b600052602160045260246000fd5b91905290565b60208082526010908201526f21b7b73a32b9ba103737ba1037b832b760811b604082015260600190565b600060208284031215611bf457600080fd5b5051919050565b6001600160a01b0393841681526020810192909252909116604082015260600190565b634e487b7160e01b600052603260045260246000fd5b600060208284031215611c4657600080fd5b81518015158114611a8057600080fd5b634e487b7160e01b600052601160045260246000fd5b80820180821115611c7f57611c7f611c56565b92915050565b8082028115828204841417611c7f57611c7f611c56565b600082611cb957634e487b7160e01b600052601260045260246000fd5b500490565b81810381811115611c7f57611c7f611c56565b634e487b7160e01b600052604160045260246000fd5b602080825282518282018190526000918401906040840190835b81811015611d1f578351835260209384019390920191600101611d01565b509095945050505050565b600181811c90821680611d3e57607f821691505b602082108103611d5e57634e487b7160e01b600052602260045260246000fd5b50919050565b634e487b7160e01b600052603160045260246000fdfea26469706673582212202bb0d579a510adfa5663e2d8d2b5f25518c62d889bf4fec631e778b8ae1a9da164736f6c634300081a0033a2646970667358221220f350768bef7dd1b9b0077802753f028c905d6d88f643b8ce1614eb2aef44121364736f6c634300081a0033","linkReferences":{}},"methodIdentifiers":{"aavePoolAddressesProvider()":"69e4e005","addOracle(address)":"df5dd1a5","collectPlatformFees()":"4287f245","contests(uint256)":"9d7ed738","createContest(string,uint256,uint256,uint256,address)":"10325de3","getContests()":"bfaba76a","oracles(address)":"addd5099","owner()":"8da5cb5b","paymentToken()":"3013ce29","platformFee()":"26232a2e","removeOracle(address)":"fdc85fc4","renounceOwnership()":"715018a6","setPlatformFee(uint256)":"12e8e2c3","transferOwnership(address)":"f2fde38b"},"id":30}