{"abi":[{"type":"function","name":"contestHost","inputs":[{"name":"","type":"address","internalType":"address"}],"outputs":[{"name":"","type":"address","internalType":"address"}],"stateMutability":"view"},{"type":"function","name":"contests","inputs":[{"name":"","type":"uint256","internalType":"uint256"}],"outputs":[{"name":"","type":"address","internalType":"address"}],"stateMutability":"view"},{"type":"function","name":"createContest","inputs":[{"name":"paymentToken","type":"address","internalType":"address"},{"name":"oracle","type":"address","internalType":"address"},{"name":"contestantDepositAmount","type":"uint256","internalType":"uint256"},{"name":"oracleFee","type":"uint256","internalType":"uint256"},{"name":"expiry","type":"uint256","internalType":"uint256"},{"name":"primaryEntryInvestmentShareBps","type":"uint256","internalType":"uint256"}],"outputs":[{"name":"","type":"address","internalType":"address"}],"stateMutability":"nonpayable"},{"type":"function","name":"getContestCount","inputs":[],"outputs":[{"name":"","type":"uint256","internalType":"uint256"}],"stateMutability":"view"},{"type":"function","name":"getContests","inputs":[],"outputs":[{"name":"","type":"address[]","internalType":"address[]"}],"stateMutability":"view"},{"type":"event","name":"ContestCreated","inputs":[{"name":"contest","type":"address","indexed":true,"internalType":"address"},{"name":"host","type":"address","indexed":true,"internalType":"address"},{"name":"contestantDepositAmount","type":"uint256","indexed":false,"internalType":"uint256"}],"anonymous":false}],"bytecode":{"object":"0x608080604052346015576140ac908161001a8239f35b5f80fdfe6080806040526004361015610012575f80fd5b5f3560e01c90816334dd7a2e146102df575080634e6d7a86146101a357806364c3c166146101875780639d7ed738146101465763bfaba76a14610053575f80fd5b34610142575f366003190112610142576040518060205f54918281520180915f80527f290decd9548b62a8d60345a988386fc84ba6bc95484008f6362f93160ef3e563905f5b81811061012357505050829003601f01601f191682019167ffffffffffffffff83118184101761010f5790829182604052602083019060208452518091526040830191905f5b8181106100ed575050500390f35b82516001600160a01b03168452859450602093840193909201916001016100df565b634e487b7160e01b5f52604160045260245ffd5b82546001600160a01b0316845260209093019260019283019201610099565b5f80fd5b34610142576020366003190112610142576004355f548110156101425761016e602091610334565b905460405160039290921b1c6001600160a01b03168152f35b34610142575f3660031901126101425760205f54604051908152f35b346101425760c0366003190112610142576101bc61031e565b6024356001600160a01b03811690819003610142576044359160405191613d18908184019084821067ffffffffffffffff83111761010f5760c093859361035f85396001600160a01b031682526020820152604081018590526064356060820152608435608082015260a43560a08201520301905ff080156102d45760018060a01b03165f54916801000000000000000083101561010f57610265836001602095015f55610334565b81549060031b9084821b9160018060a01b03901b1916179055815f526001835260405f20336bffffffffffffffffffffffff60a01b825416179055604051908152817f0930d90e589f3eb61818e12c03f3b7838099abcb975a02054dc58e1fe7cddf0f843393a3604051908152f35b6040513d5f823e3d90fd5b34610142576020366003190112610142576020906001600160a01b0361030361031e565b165f9081526001835260409020546001600160a01b03168152f35b600435906001600160a01b038216820361014257565b5f5481101561034a575f805260205f2001905f90565b634e487b7160e01b5f52603260045260245ffdfe6101403461032c57601f613d1838819003918201601f19168301916001600160401b038311848410176103305780849260c09460405283398101031261032c5761004881610344565b9061005560208201610344565b60408201516060830151608084015160a0909401516001600255949092906001600160a01b038116156102e7576001600160a01b038216156102b1576103e8841161026c57428511156102365761271086116101e25760805260a05260c05260e052610100526101205260ff19600354166003556040516139bf9081610359823960805181818161047701528181610ac901528181610e440152818161103401528181611391015281816115b70152818161195601528181611a9a01528181611c9a015281816125b40152612999015260a0518181816106ee01528181610c4201528181610fd70152818161153601528181611a0101528181611a5401528181611b1401528181611f880152818161294901528181612c2d0152612d36015260c051818181610a130152818161184601526118f4015260e051818181610e050152818161105f0152818161135d01528181611f4f01526126810152610100518181816109eb015281816114780152818161157d01526117010152610120518181816103060152610ec90152f35b60405162461bcd60e51b815260206004820152602660248201527f496e76616c6964207072696d61727920656e74727920696e766573746d656e7460448201526520736861726560d01b6064820152608490fd5b60405162461bcd60e51b815260206004820152600e60248201526d115e1c1a5c9e481a5b881c185cdd60921b6044820152606490fd5b60405162461bcd60e51b815260206004820152601360248201527f4f7261636c652066656520746f6f2068696768000000000000000000000000006044820152606490fd5b60405162461bcd60e51b815260206004820152600e60248201526d496e76616c6964206f7261636c6560901b6044820152606490fd5b60405162461bcd60e51b815260206004820152601560248201527f496e76616c6964207061796d656e7420746f6b656e00000000000000000000006044820152606490fd5b5f80fd5b634e487b7160e01b5f52604160045260245ffd5b51906001600160a01b038216820361032c5756fe6080806040526004361015610012575f80fd5b5f3560e01c908162fdd58e14612e935750806301ffc9a714612e255780630e89341c14612de85780631db0e66714612d2057806324f9cc4c14612c175780632eb2c2d6146129c85780633013ce29146129845780633789a2fb1461290c5780633a2babc2146128cc5780634034b060146124d05780634e1273f4146123cf5780634ee837a6146123b25780634fd3495014612390578063563930e714611f725780635c76fda714611f385780636932b38214611f0e57806374d3421414611bc557806375f2500614611afe5780637680a51e146112255780637ae45fe314611a305780637dc0d1d0146119ec5780637e8f123414611869578063933b12821461182f5780639455937a14610bd157806395082d25146118125780639a9a5d9d146117f5578063a01e4a1f146116ef578063a094c63214611524578063a22cb4651461149b578063ade6e2aa14611461578063ae4c8ba91461143f578063af19e0d5146112b2578063af1d919714611295578063b30906d41461126c578063b48e94ce14611242578063b9937e3014611225578063bf6bbf09146111e1578063c19d93fb146111b8578063c8d2270014610fa0578063c8d5c1b114610f76578063c9a496aa14610f09578063d09685b014610eec578063d1a7dabc14610eb2578063d6a74ce014610c08578063df1ef4c614610bd6578063e08a1a4214610bd1578063e1a4521814610bb5578063e1db226a14610968578063e985e9c514610911578063ed4af81f146108f4578063f242432a14610729578063fc8c28e1146106b15763fed7632514610262575f80fd5b346106ad5760603660031901126106ad576004356024356044356001600160401b0381116106ad5761029b6102b8913690600401612f21565b906102aa6001600254146131cc565b60028055600f5433906135a3565b60ff60035416600681101561069957801590811561068e575b501561063f575f828152600660205260409020546001600160a01b0316156105f0576102fe811515613524565b61271061032b7f00000000000000000000000000000000000000000000000000000000000000008361323d565b049161033783836130e5565b90805f52600a60205260405f20545f81135f146105e857915b8415801593906105df57816103658783613756565b80955b610566575b61037a9061037f936130f2565b613756565b90811561050657825f52600b60205260405f2061039d8682546130f2565b90556103a982856130f2565b95835f52600a60205260405f209485545f898201998a1291129080158216911516176104f2576104a4976104739655846040518881528560208201528360408201528260608201527f5800e09d8494dbc3b74037eb4b461080c8c687b48d5889543b4902ba9de5195560803392a35f858152600660205260409020546001600160a01b031690806104ab575b505050335f52600c60205260405f20835f5260205261045960405f209182546130f2565b90556040519161046a602084613000565b5f835233613804565b30337f00000000000000000000000000000000000000000000000000000000000000006001600160a01b03166136b8565b6001600255005b6104ea92825f52600c60205260405f20875f526020526104d060405f209182546130f2565b905585604051926104e2602085613000565b5f8452613804565b5f8080610435565b634e487b7160e01b5f52601160045260245ffd5b60405162461bcd60e51b815260206004820152603260248201527f5061796d656e7420746f6f20736d616c6c3a20696e73756666696369656e7420604482015271746f20707572636861736520746f6b656e7360701b6064820152608490fd5b90501561057457818461036d565b60405162461bcd60e51b815260206004820152603a60248201527f5061796d656e7420746f6f20736d616c6c3a207072696d61727920656e74727960448201527f20696e766573746d656e742062757973206e6f20746f6b656e730000000000006064820152608490fd5b815f8095610368565b505f91610350565b60405162461bcd60e51b815260206004820152602160248201527f456e74727920646f6573206e6f74206578697374206f722077697468647261776044820152603760f91b6064820152608490fd5b60405162461bcd60e51b815260206004820152602160248201527f5365636f6e6461727920706f736974696f6e73206e6f7420617661696c61626c6044820152606560f81b6064820152608490fd5b60019150145f6102d1565b634e487b7160e01b5f52602160045260245ffd5b5f80fd5b346106ad5760203660031901126106ad577f1f3ffb5a38f057a21fbb6b9c891954827a2657844fbc0ae99188cce46f059e2b602060043561071c337f00000000000000000000000000000000000000000000000000000000000000006001600160a01b031614613021565b80600955604051908152a1005b346106ad5760a03660031901126106ad57610742612ed1565b61074a612ee7565b6064356044356084356001600160401b0381116106ad5761076f903690600401612f51565b946001600160a01b03169033821480156108d2575b61078d90613098565b815f525f60205260405f20835f5260205260405f206107ad8582546130e5565b905560018060a01b03851694855f525f60205260405f20845f5260205260405f206107d98682546130f2565b905585836040518681528760208201527fc3d58168c5ae7397731d063d5bbf3d657854427343f4c083240f7aacaa2d0f6260403392a43b61082657505050506108249150151561318d565b005b602094929161086a5f926040519889978896879563f23a6e6160e01b875233600488015260248701526044860152606485015260a0608485015260a484019161316d565b03925af180156108c757610824915f91610898575b506001600160e01b03191663f23a6e6160e01b1461318d565b6108ba915060203d6020116108c0575b6108b28183613000565b81019061314d565b8261087f565b503d6108a8565b6040513d5f823e3d90fd5b505f82815260016020908152604080832033845290915290205460ff16610784565b346106ad575f3660031901126106ad576020600954604051908152f35b346106ad5760403660031901126106ad5761092a612ed1565b610932612ee7565b9060018060a01b03165f52600160205260405f209060018060a01b03165f52602052602060ff60405f2054166040519015158152f35b346106ad5760403660031901126106ad576004356024356001600160401b0381116106ad5761099e6109bb913690600401612f21565b906109ad6001600254146131cc565b6002805560095433906135a3565b60ff60035416600681101561069957610b7d575f818152600660205260409020546001600160a01b0316610b41577f0000000000000000000000000000000000000000000000000000000000000000421015610b0a577f00000000000000000000000000000000000000000000000000000000000000006005549168010000000000000000831015610af657610a5a8360016104a49501600555612fe8565b81549060031b9083821b915f19901b1916179055805f52600660205260405f20336bffffffffffffffffffffffff60a01b825416179055337f4a3a30e0139991c1b1492b4364701af9484bb9032a696c2b8c748a1e51f2fd175f80a3610ac2816007546130f2565b60075530337f00000000000000000000000000000000000000000000000000000000000000006001600160a01b03166136b8565b634e487b7160e01b5f52604160045260245ffd5b60405162461bcd60e51b815260206004820152600f60248201526e10dbdb9d195cdd08195e1c1a5c9959608a1b6044820152606490fd5b60405162461bcd60e51b8152602060048201526014602482015273456e74727920616c72656164792065786973747360601b6044820152606490fd5b60405162461bcd60e51b815260206004820152601060248201526f21b7b73a32b9ba103737ba1037b832b760811b6044820152606490fd5b346106ad575f3660031901126106ad5760206040516127108152f35b612fce565b346106ad5760203660031901126106ad576004355f526006602052602060018060a01b0360405f205416604051908152f35b346106ad5760403660031901126106ad576004356001600160401b0381116106ad57610c38903690600401612f21565b90602435610c70337f00000000000000000000000000000000000000000000000000000000000000006001600160a01b031614613021565b610c7e6001600254146131cc565b6002805560ff600354166006811015610699576003610c9d91146132ef565b610cab60ff600e5416613331565b610cb8600d548214613373565b805f52600a602052610ccf60405f20541515613205565b5f5b838110610cdf576001600255005b8082610cf6610cf160019488886130d5565b61329d565b838060a01b03811690815f525f60205260405f20835f5260205260405f205480610d25575b5050505001610cd1565b835f52600a60205260405f2054845f52600b60205260405f20549080151580610ea9575b15610ea057610d5b610d60928461323d565b613250565b905b610d6d818685613432565b845f52600a602052610d8460405f2091825461326e565b9055825f52600c60205260405f20845f526020525f60408120558015610d1b577fe256ef8b7b6eaeb621f7e7ca3b683f124df401cb260bbaccf0540299944b858a91610e69602092865f52600b84528060405f205410155f14610e8e57865f52600b845260405f20610df78282546130e5565b90555b610e32612710610e2a7f00000000000000000000000000000000000000000000000000000000000000008461323d565b0480926130e5565b92818492610e79575b50898060a01b037f000000000000000000000000000000000000000000000000000000000000000016613494565b604051908152a382868080610d1b565b610e85906004546130f2565b6004558d610e3b565b865f52600b84525f6040812055610dfa565b50505f90610d62565b50811515610d49565b346106ad575f3660031901126106ad5760206040517f00000000000000000000000000000000000000000000000000000000000000008152f35b346106ad575f3660031901126106ad576020600554604051908152f35b346106ad5760203660031901126106ad57600435600554811015610f4157610f32602091612fe8565b90549060031b1c604051908152f35b60405162461bcd60e51b815260206004820152600d60248201526c092dcecc2d8d2c840d2dcc8caf609b1b6044820152606490fd5b346106ad5760203660031901126106ad576004355f526008602052602060405f2054604051908152f35b346106ad5760203660031901126106ad576004356001600160401b0381116106ad57610fd0903690600401612f21565b90611005337f00000000000000000000000000000000000000000000000000000000000000006001600160a01b031614613021565b6110136001600254146131cc565b6002805560ff60035416600681101561069957600361103291146132ef565b7f00000000000000000000000000000000000000000000000000000000000000006001600160a01b0316917f0000000000000000000000000000000000000000000000000000000000000000905f5b81811061108f576001600255005b61109a8183866130d5565b355f818152600660205260409020546001600160a01b03169190821561117357600192815f52600860205260405f2054801561116b5760207e89742e8fcde5f6c48a17ec50347f2b2d98d85a17abe162b4cd552516f752dd91845f52600882525f60408120558060075410155f1461116257611118816007546130e5565b6007555b61112c612710610e2a8b8461323d565b908061114d575b5061113f81858d613494565b604051908152a35b01611081565b611159906004546130f2565b6004558b611133565b5f60075561111c565b505050611147565b60405162461bcd60e51b815260206004820152601a60248201527f456e7472792077697468647261776e206f7220696e76616c69640000000000006044820152606490fd5b346106ad575f3660031901126106ad5760ff600354166040516006821015610699576020918152f35b346106ad5760403660031901126106ad576001600160a01b03611202612ed1565b165f52600c60205260405f206024355f52602052602060405f2054604051908152f35b346106ad575f3660031901126106ad576020600754604051908152f35b346106ad5760203660031901126106ad576004355f52600b602052602060405f2054604051908152f35b346106ad5760203660031901126106ad576004356005548110156106ad57610f32602091612fe8565b346106ad575f3660031901126106ad576020600d54604051908152f35b346106ad5760203660031901126106ad576004356112d46001600254146131cc565b6002805560ff60035416600681101561069957815f526008602052611300600360405f205492146132ef565b5f82815260066020526040902054611322906001600160a01b03163314613565565b1561140e575f818152600860205260408120805491905560075481116114055761134e816007546130e5565b6007555b611382612710610e2a7f00000000000000000000000000000000000000000000000000000000000000008461323d565b90806113f0575b506113be81337f00000000000000000000000000000000000000000000000000000000000000006001600160a01b0316613494565b6040519081527e89742e8fcde5f6c48a17ec50347f2b2d98d85a17abe162b4cd552516f752dd60203392a36001600255005b6113fc906004546130f2565b60045582611389565b5f600755611352565b60405162461bcd60e51b8152602060048201526009602482015268139bc81c185e5bdd5d60ba1b6044820152606490fd5b346106ad575f3660031901126106ad57602060ff600e54166040519015158152f35b346106ad575f3660031901126106ad5760206040517f00000000000000000000000000000000000000000000000000000000000000008152f35b346106ad5760403660031901126106ad576114b4612ed1565b602435908115158092036106ad57335f52600160205260405f2060018060a01b0382165f5260205260405f2060ff1981541660ff841617905560405191825260018060a01b0316907f17307eab39ab6107e8899845ad3d59bd9653f200f220920489ca2b5937696c3160203392a3005b346106ad575f3660031901126106ad577f0000000000000000000000000000000000000000000000000000000000000000611569336001600160a01b03831614613021565b6115776001600254146131cc565b600280557f000000000000000000000000000000000000000000000000000000000000000042106116b5576040516370a0823160e01b81523060048201527f00000000000000000000000000000000000000000000000000000000000000006001600160a01b031691602082602481865afa9182156108c7575f92611681575b5081611604576001600255005b5f6007555f6004555f5b60055481101561163e5780611624600192612fe8565b90549060031b1c5f52600b6020525f60408120550161160e565b5061165592600560ff196003541617600355613494565b7fef19c40e684c836035e6598f5d86819dfec89371571efdeed7947339739711435f80a18080806104a4565b9091506020813d6020116116ad575b8161169d60209383613000565b810103126106ad575190836115f7565b3d9150611690565b60405162461bcd60e51b8152602060048201526012602482015271115e1c1a5c9e481b9bdd081c995858da195960721b6044820152606490fd5b346106ad575f3660031901126106ad577f000000000000000000000000000000000000000000000000000000000000000042106117c25760ff60035416600681101561069957600381141590816117b6575b501561177f57611759600460ff196003541617600355565b7f9237e8f0d5063a695b8695e82c82bc24d15591de9d04449771a6ea4b128317375f80a1005b60405162461bcd60e51b815260206004820152600f60248201526e105b1c9958591e481cd95d1d1b1959608a1b6044820152606490fd5b60059150141581611741565b60405162461bcd60e51b815260206004820152600b60248201526a139bdd08195e1c1a5c995960aa1b6044820152606490fd5b346106ad575f3660031901126106ad576020600f54604051908152f35b346106ad575f3660031901126106ad576020604051620f42408152f35b346106ad575f3660031901126106ad5760206040517f00000000000000000000000000000000000000000000000000000000000000008152f35b346106ad5760203660031901126106ad5760043561188b6001600254146131cc565b6002805560ff6003541660068110156106995780159081156119e1575b5015611983575f818152600660205260409020546104a491906118d5906001600160a01b03163314613565565b5f81815260066020526040812080546001600160a01b031981169091557f0000000000000000000000000000000000000000000000000000000000000000926001600160a01b03909116917fa11660be5ca5ef93a56a1f22e4de3d92bcb1727897a5e70a7262c26e256f3a409080a3611950816007546130e5565b600755337f00000000000000000000000000000000000000000000000000000000000000006001600160a01b0316613494565b60405162461bcd60e51b815260206004820152603060248201527f43616e6e6f74207769746864726177202d20636f6e7465737420696e2070726f60448201526f19dc995cdcc81bdc881cd95d1d1b195960821b6064820152608490fd5b6004915014826118a8565b346106ad575f3660031901126106ad576040517f00000000000000000000000000000000000000000000000000000000000000006001600160a01b03168152602090f35b346106ad575f3660031901126106ad57611a4e6001600254146131cc565b600280557f0000000000000000000000000000000000000000000000000000000000000000611a87336001600160a01b03831614613021565b6004548015611ac7575f6004556104a4917f00000000000000000000000000000000000000000000000000000000000000006001600160a01b0316613494565b60405162461bcd60e51b815260206004820152600f60248201526e4e6f2066656520746f20636c61696d60881b6044820152606490fd5b346106ad575f3660031901126106ad57611b42337f00000000000000000000000000000000000000000000000000000000000000006001600160a01b031614613021565b60ff60035416600681101561069957600103611b8b57600260ff1960035416176003557fca4f15905dfed40aa7885e1be889ff7da045bd49fc916c3a40cf8b0a3db7636a5f80a1005b60405162461bcd60e51b8152602060048201526012602482015271436f6e74657374206e6f742061637469766560701b6044820152606490fd5b346106ad5760403660031901126106ad57600435602435611bea6001600254146131cc565b60028055335f525f60205260405f20825f5260205260405f20549060ff600354166006811015610699578015908115611f03575b5015611ea5575f838152600660205260409020546001600160a01b031615611e6957611c4b811515613524565b808210611e2d57825f52600a602052611c8360405f2054611c6d811515613205565b845f52600b602052610d5b60405f20548461323d565b6040516370a0823160e01b815230600482015290927f00000000000000000000000000000000000000000000000000000000000000006001600160a01b03169290602083602481875afa80156108c75786935f91611df8575b50808611611df0575b50335f52600c60205260405f20835f5260205260405f205480611dbb575b5050611d10818333613432565b815f52600a60205260405f20611d2782825461326e565b90556040519081528360208201527fa2b936e19d2f391e984b3c8722e0e0a30ef1b73581371ed847624152e65d16f560403392a381611d67576001600255005b82611da1935f52600b6020528260405f205410155f14611da9575f52600b60205260405f20611d978382546130e5565b90555b3390613494565b8080806104a4565b5f52600b6020525f6040812055611d9a565b611dcc611dd292610d5b858461323d565b906130e5565b335f52600c60205260405f20835f5260205260405f20558580611d03565b945086611ce5565b9350506020833d602011611e25575b81611e1460209383613000565b810103126106ad5785925187611cdc565b3d9150611e07565b60405162461bcd60e51b8152602060048201526014602482015273496e73756666696369656e742062616c616e636560601b6044820152606490fd5b60405162461bcd60e51b8152602060048201526014602482015273115b9d1c9e48191bd95cc81b9bdd08195e1a5cdd60621b6044820152606490fd5b60405162461bcd60e51b815260206004820152603060248201527f43616e6e6f74207769746864726177202d20636f6d7065746974696f6e20737460448201526f185c9d1959081bdc881cd95d1d1b195960821b6064820152608490fd5b600491501484611c1e565b346106ad5760203660031901126106ad576004355f52600a602052602060405f2054604051908152f35b346106ad575f3660031901126106ad5760206040517f00000000000000000000000000000000000000000000000000000000000000008152f35b346106ad57611f8036612f7e565b9290611fb6337f00000000000000000000000000000000000000000000000000000000000000006001600160a01b031614613021565b611fc46001600254146131cc565b6002805560ff6003541660068110156106995760018114908115612385575b50156123405782156122fb578383036122be576005548311612286575f805b858210612210576127109150036121cb57600360ff19815416176003556007545f5b848110612197575050813580600d55600160ff19600e541617600e55805f52600a60205260405f2054815f52600b60205260405f205490811515908161218e575b506120a9575b50507f0fed27f5e3cd741c181cc0d3b0c47df2013638faa8b7aa7084de3946098eb78e9361209f9160405194859485613123565b0390a16001600255005b815f52600b6020525f60408120555f805b868110612129575091818361209f95937f0fed27f5e3cd741c181cc0d3b0c47df2013638faa8b7aa7084de3946098eb78e9995106120ff575b5050509181955061206b565b612108916130e5565b905f52600860205261211f60405f209182546130f2565b90558680806120f3565b906121358288886130d5565b359161271061214f612148838c8a6130d5565b358661323d565b0480612162575b506001919250016120ba565b61216e816001946130f2565b935f52600860205261218560405f209182546130f2565b90558291612156565b90501587612065565b806121a560019287876130d5565b356127106121b7612148848b896130d5565b04905f52600860205260405f205501612024565b60405162461bcd60e51b815260206004820152601860248201527f5061796f757473206d7573742073756d20746f203130302500000000000000006044820152606490fd5b61221b8287856130d5565b3515612241576122396001916122328489876130d5565b35906130f2565b910190612002565b60405162461bcd60e51b815260206004820152601960248201527f557365206e6f6e2d7a65726f207061796f757473206f6e6c79000000000000006044820152606490fd5b60405162461bcd60e51b815260206004820152601060248201526f546f6f206d616e792077696e6e65727360801b6044820152606490fd5b60405162461bcd60e51b8152602060048201526015602482015274082e4e4c2f240d8cadccee8d040dad2e6dac2e8c6d605b1b6044820152606490fd5b60405162461bcd60e51b815260206004820152601d60248201527f4d7573742068617665206174206c65617374206f6e652077696e6e65720000006044820152606490fd5b60405162461bcd60e51b815260206004820152601c60248201527f436f6e74657374206e6f7420616374697665206f72206c6f636b6564000000006044820152606490fd5b600291501485611fe3565b346106ad575f3660031901126106ad5760206123aa6132b1565b604051908152f35b346106ad575f3660031901126106ad576020600454604051908152f35b346106ad576123dd36612f7e565b9291906123eb84831461305a565b6123f482613286565b936124026040519586613000565b82855261240e83613286565b602086019490601f19013686375f5b848110612468578587604051918291602083019060208452518091526040830191905f5b81811061244f575050500390f35b8251845285945060209384019390920191600101612441565b6001600160a01b0361247e610cf18388866130d5565b165f525f60205260405f206124948285876130d5565b355f5260205260405f20549087518110156124bc5760019160208260051b8a0101520161241d565b634e487b7160e01b5f52603260045260245ffd5b346106ad5760203660031901126106ad576004356124f26001600254146131cc565b60028055335f525f60205260405f20815f5260205260405f205460ff600354166006811015610699576125439061253c60ff600e54166125376003600d5494146132ef565b613331565b8314613373565b5f828152600660205260409020546001600160a01b03161561287957801561284857815f52600a60205260405f205461257d811515613205565b5f838152600b602052604090205490811561284057610d5b61259f928461323d565b6040516370a0823160e01b81523060048201527f00000000000000000000000000000000000000000000000000000000000000006001600160a01b03169290919081602084602481885afa9081156108c75786945f92612809575b508110612801575b5061260e818433613432565b825f52600a60205261262560405f2091825461326e565b9055335f52600c60205260405f20825f526020525f60408120558015155f146127cf575f828152600b602052604090205481116127bc57815f52600b60205260405f206126738282546130e5565b90555b6126a6612710610e2a7f00000000000000000000000000000000000000000000000000000000000000008461323d565b90806127a7575b506126b9813385613494565b6040519081527fe256ef8b7b6eaeb621f7e7ca3b683f124df401cb260bbaccf0540299944b858a60203392a35b815f52600a60205260405f2054156126ff576001600255005b6040516370a0823160e01b8152306004820152602081602481855afa9081156108c7575f91612775575b506004548082111561276c5761273e916130e5565b905b8161274c575b506104a4565b612764925f52600b6020525f60408120553390613494565b808080612746565b50505f90612740565b90506020813d60201161279f575b8161279060209383613000565b810103126106ad575183612729565b3d9150612783565b6127b3906004546130f2565b600455846126ad565b815f52600b6020525f6040812055612676565b506040515f81527fe256ef8b7b6eaeb621f7e7ca3b683f124df401cb260bbaccf0540299944b858a60203392a36126e6565b915085612602565b945090506020843d602011612838575b8161282660209383613000565b810103126106ad5785935190876125fa565b3d9150612819565b50505f61259f565b60405162461bcd60e51b81526020600482015260096024820152684e6f20746f6b656e7360b81b6044820152606490fd5b60405162461bcd60e51b815260206004820152602560248201527f456e74727920646f6573206e6f74206578697374206f72207761732077697468604482015264323930bbb760d91b6064820152608490fd5b346106ad5760203660031901126106ad576004355f52600a60205260405f20545f81135f14612900576123aa6020916133f7565b5060206123aa5f6133f7565b346106ad5760203660031901126106ad577fa2877b861a6a177d8c1a4430a6f8716104652f70e5c8fbd58aa775ef96da4a526020600435612977337f00000000000000000000000000000000000000000000000000000000000000006001600160a01b031614613021565b80600f55604051908152a1005b346106ad575f3660031901126106ad576040517f00000000000000000000000000000000000000000000000000000000000000006001600160a01b03168152602090f35b346106ad5760a03660031901126106ad576129e1612ed1565b6129e9612ee7565b6044356001600160401b0381116106ad57612a08903690600401612f21565b926064356001600160401b0381116106ad57612a28903690600401612f21565b91906084356001600160401b0381116106ad57612a49903690600401612f51565b919092612a5785891461305a565b6001600160a01b0316933385148015612bf5575b612a7490613098565b6001600160a01b038716965f5b898110612b8f57508786887f4a39dc06d4c0dbc64b70af90fd698a233a518aa5d07e595d983b8c0526c8f7fb868d612ac188604051938493339785613123565b0390a43b612adb575050505050506108249150151561318d565b612b1e97935f93612b306020999794612b42946040519c8d9b8c9a8b9963bc197c8160e01b8b523360048c015260248b015260a060448b015260a48a01916130ff565b878103600319016064890152916130ff565b8481036003190160848601529161316d565b03925af180156108c757610824915f91612b70575b506001600160e01b03191663bc197c8160e01b1461318d565b612b89915060203d6020116108c0576108b28183613000565b82612b57565b80612b9d6001928c8b6130d5565b35612ba98286886130d5565b3590895f525f60205260405f20815f5260205260405f20612bcb8382546130e5565b90558b5f525f60205260405f20905f52602052612bed60405f209182546130f2565b905501612a81565b505f85815260016020908152604080832033845290915290205460ff16612a6b565b346106ad575f3660031901126106ad57612c5b337f00000000000000000000000000000000000000000000000000000000000000006001600160a01b031614613021565b60ff60035416600681101561069957612cdb5760055415612ca957600160ff1960035416176003557f3927b788a62eb53f7192cd9286f49295f01b938b6afc23aef0af5d035cd853165f80a1005b60405162461bcd60e51b815260206004820152600a6024820152694e6f20656e747269657360b01b6044820152606490fd5b60405162461bcd60e51b815260206004820152601760248201527f436f6e7465737420616c726561647920737461727465640000000000000000006044820152606490fd5b346106ad575f3660031901126106ad57612d64337f00000000000000000000000000000000000000000000000000000000000000006001600160a01b031614613021565b60ff6003541660068110156106995760038114159081612ddc575b5015612d9757611759600460ff196003541617600355565b60405162461bcd60e51b815260206004820152601f60248201527f436f6e7465737420736574746c6564202d2063616e6e6f742063616e63656c006044820152606490fd5b60059150141581612d7f565b346106ad5760203660031901126106ad57612e21604051612e0a602082613000565b5f8152604051918291602083526020830190612efd565b0390f35b346106ad5760203660031901126106ad5760043563ffffffff60e01b81168091036106ad576020906301ffc9a760e01b8114908115612e82575b8115612e71575b506040519015158152f35b6303a24d0760e21b14905082612e66565b636cdb3d1360e11b81149150612e5f565b346106ad5760403660031901126106ad576020906001600160a01b03612eb7612ed1565b165f525f825260405f206024355f52825260405f20548152f35b600435906001600160a01b03821682036106ad57565b602435906001600160a01b03821682036106ad57565b805180835260209291819084018484015e5f828201840152601f01601f1916010190565b9181601f840112156106ad578235916001600160401b0383116106ad576020808501948460051b0101116106ad57565b9181601f840112156106ad578235916001600160401b0383116106ad57602083818601950101116106ad57565b60406003198201126106ad576004356001600160401b0381116106ad5781612fa891600401612f21565b92909291602435906001600160401b0382116106ad57612fca91600401612f21565b9091565b346106ad575f3660031901126106ad5760206123aa6133b3565b6005548110156124bc5760055f5260205f2001905f90565b90601f801991011681019081106001600160401b03821117610af657604052565b1561302857565b60405162461bcd60e51b815260206004820152600a6024820152694e6f74206f7261636c6560b01b6044820152606490fd5b1561306157565b60405162461bcd60e51b815260206004820152600f60248201526e0988a9c8ea890be9a92a69a82a8869608b1b6044820152606490fd5b1561309f57565b60405162461bcd60e51b815260206004820152600e60248201526d1393d517d055551213d49256915160921b6044820152606490fd5b91908110156124bc5760051b0190565b919082039182116104f257565b919082018092116104f257565b81835290916001600160fb1b0383116106ad5760209260051b809284830137010190565b929061313c9061314a95936040865260408601916130ff565b9260208185039101526130ff565b90565b908160209103126106ad57516001600160e01b0319811681036106ad5790565b908060209392818452848401375f828201840152601f01601f1916010190565b1561319457565b60405162461bcd60e51b815260206004820152601060248201526f155394d0519157d49150d2541251539560821b6044820152606490fd5b156131d357565b60405162461bcd60e51b815260206004820152600a6024820152695245454e5452414e435960b01b6044820152606490fd5b1561320c57565b60405162461bcd60e51b81526020600482015260096024820152684e6f20737570706c7960b81b6044820152606490fd5b818102929181159184041417156104f257565b811561325a570490565b634e487b7160e01b5f52601260045260245ffd5b81810392915f1380158285131691841216176104f257565b6001600160401b038111610af65760051b60200190565b356001600160a01b03811681036106ad5790565b6007546132c56132bf6133b3565b826130f2565b80156132e95761271082029180830461271014901517156104f25761314a91613250565b50505f90565b156132f657565b60405162461bcd60e51b815260206004820152601360248201527210dbdb9d195cdd081b9bdd081cd95d1d1b1959606a1b6044820152606490fd5b1561333857565b60405162461bcd60e51b815260206004820152601360248201527213585c9ad95d081b9bdd081c995cdbdb1d9959606a1b6044820152606490fd5b1561337a57565b60405162461bcd60e51b81526020600482015260116024820152704e6f742077696e6e696e6720656e74727960781b6044820152606490fd5b5f905f6005545b8082106133c5575050565b90926133ef6001916133d686612fe8565b90549060031b1c5f52600b60205260405f2054906130f2565b9301906133ba565b633b9aca0061340791048061323d565b808004600114811517156104f257670de0b6b3a76400009004620f42400180620f4240116104f25790565b905f929160018060a01b03169182845283602052604084208285526020526040842061345f8282546130e5565b905560405191825260208201527fc3d58168c5ae7397731d063d5bbf3d657854427343f4c083240f7aacaa2d0f6260403392a4565b60405163a9059cbb60e01b81526001600160a01b03909216600483015260248201929092526020905f9060449082855af19081601f3d1160015f5114161516613517575b50156134e057565b60405162461bcd60e51b815260206004820152600f60248201526e1514905394d1915497d19052531151608a1b6044820152606490fd5b3b153d171590505f6134d8565b1561352b57565b60405162461bcd60e51b81526020600482015260126024820152710416d6f756e74206d757374206265203e20360741b6044820152606490fd5b1561356c57565b60405162461bcd60e51b815260206004820152600f60248201526e2737ba1032b73a393c9037bbb732b960891b6044820152606490fd5b929190836135b2575b50505050565b60405160208101916bffffffffffffffffffffffff199060601b168252601481526135de603482613000565b5190206135ea83613286565b916135f86040519384613000565b83835260208301809460051b8201913683116106ad57905b8282106136a8575050509080519283613672575b5050905003613636575f8080806135ac565b60405162461bcd60e51b815260206004820152601460248201527324b73b30b634b21036b2b935b63290383937b7b360611b6044820152606490fd5b9260051b01602001905b8251811160051b90815260208351911852602060405f2092019181831061367c57915050805f80613624565b8135815260209182019101613610565b6040516323b872dd60e01b81526001600160a01b03928316600482015292909116602483015260448201929092526020905f9060649082855af19081601f3d1160015f5114161516613749575b501561370d57565b60405162461bcd60e51b81526020600482015260146024820152731514905394d1915497d19493d357d1905253115160621b6044820152606490fd5b3b153d171590505f613705565b81156132e957613765816133f7565b620f4240830290838204620f4240036104f25761378191613250565b918260011c928060011b90808204600214901517156104f257905f925b603284106137ae575b5050505090565b90919293600181018082116104f2578411156137fe576137ce84826130f2565b60011c90836137dd838561390c565b10156137f25750600190945b0192919061379e565b949350600190936137e9565b936137a7565b91929060018060a01b03831692835f525f60205260405f20825f5260205260405f206138318682546130f2565b9055835f6040518481528760208201527fc3d58168c5ae7397731d063d5bbf3d657854427343f4c083240f7aacaa2d0f6260403392a43b61387c57505061387a9150151561318d565b565b916138c0935f6020946040519687958694859363f23a6e6160e01b85523360048601528560248601526044850152606484015260a0608484015260a4830190612efd565b03925af180156108c75761387a915f916138ed57506001600160e01b03191663f23a6e6160e01b1461318d565b613906915060203d6020116108c0576108b28183613000565b5f61087f565b9080156132e95761391d90826130f2565b9061392882826130f2565b60011c61395061394061393a846133f7565b926133f7565b9261394a856133f7565b946130e5565b906001600160fe1b03831683036104f257625b8d809361397a61397f926139859560021b906130f2565b6130f2565b9061323d565b049056fea264697066735822122082b15d84ba7be9eab48a5c243d74e6c4b44e80ce2b36b1e34ff432ee236634e564736f6c634300081a0033a26469706673582212201f9dea9098843a6bdb0dcd810241fb39414aab745ea19f31430315a5a203e77c64736f6c634300081a0033","linkReferences":{}},"methodIdentifiers":{"contestHost(address)":"34dd7a2e","contests(uint256)":"9d7ed738","createContest(address,address,uint256,uint256,uint256,uint256)":"4e6d7a86","getContestCount()":"64c3c166","getContests()":"bfaba76a"},"id":2}