{"abi":[{"type":"function","name":"LIQUIDITY_MULTIPLIER","inputs":[],"outputs":[{"name":"","type":"uint256","internalType":"uint256"}],"stateMutability":"view"},{"type":"function","name":"contestHost","inputs":[{"name":"","type":"address","internalType":"address"}],"outputs":[{"name":"","type":"address","internalType":"address"}],"stateMutability":"view"},{"type":"function","name":"contests","inputs":[{"name":"","type":"uint256","internalType":"uint256"}],"outputs":[{"name":"","type":"address","internalType":"address"}],"stateMutability":"view"},{"type":"function","name":"createContest","inputs":[{"name":"paymentToken","type":"address","internalType":"address"},{"name":"oracle","type":"address","internalType":"address"},{"name":"contestantDepositAmount","type":"uint256","internalType":"uint256"},{"name":"oracleFee","type":"uint256","internalType":"uint256"},{"name":"expiry","type":"uint256","internalType":"uint256"},{"name":"liquidityParameterOverride","type":"uint256","internalType":"uint256"},{"name":"demandSensitivity","type":"uint256","internalType":"uint256"},{"name":"prizeShareBps","type":"uint256","internalType":"uint256"},{"name":"userShareBps","type":"uint256","internalType":"uint256"}],"outputs":[{"name":"","type":"address","internalType":"address"}],"stateMutability":"nonpayable"},{"type":"function","name":"getContestCount","inputs":[],"outputs":[{"name":"","type":"uint256","internalType":"uint256"}],"stateMutability":"view"},{"type":"function","name":"getContests","inputs":[],"outputs":[{"name":"","type":"address[]","internalType":"address[]"}],"stateMutability":"view"},{"type":"event","name":"ContestCreated","inputs":[{"name":"contest","type":"address","indexed":true,"internalType":"address"},{"name":"host","type":"address","indexed":true,"internalType":"address"},{"name":"contestantDepositAmount","type":"uint256","indexed":false,"internalType":"uint256"}],"anonymous":false}],"bytecode":{"object":"0x6080806040523461001657614ef5908161001c8239f35b600080fdfe608060408181526004918236101561001657600080fd5b600090813560e01c90816334dd7a2e14610370575080635e344ce61461035457806364c3c166146103375780638740a5f5146101995780639d7ed738146101555763bfaba76a1461006657600080fd5b3461015257806003193601126101525781518091805493848352602080930180958380527f290decd9548b62a8d60345a988386fc84ba6bc95484008f6362f93160ef3e56390845b868282106101355750505050849003601f01601f191684019567ffffffffffffffff871185881017610122575085815282865292518583018190528594938501939290915b82811061010257505050500390f35b83516001600160a01b0316855286955093810193928101926001016100f3565b634e487b7160e01b835260419052602482fd5b83546001600160a01b0316855290930192600192830192016100ae565b80fd5b5091346101955760203660031901126101955735918054831015610152575061017f6020926103c3565b905491519160018060a01b039160031b1c168152f35b8280fd5b509034610333576101209182600319360112610152576101b76103a8565b9060243560018060a01b0394858216809203610195576044359360a435801561030e575b865193614ab2928386019386851067ffffffffffffffff8611176102fb5786949392918b916200040e8739168352602083015286888301526064356060830152608435608083015260a082015260c43560c082015260e43560e08201526101043561010082015203019082f080156102ef578416938154680100000000000000008110156102dc5760209650906102798260018795940184556103c3565b819291549060031b9188831b921b19161790558481526001865220336bffffffffffffffffffffffff60a01b8254161790558151908152827f0930d90e589f3eb61818e12c03f3b7838099abcb975a02054dc58e1fe7cddf0f853393a351908152f35b634e487b7160e01b835260418752602483fd5b508251903d90823e3d90fd5b634e487b7160e01b885260418c52602488fd5b50606485028581046064148615176101db57634e487b7160e01b855260118952602485fd5b5080fd5b509034610333578160031936011261033357602091549051908152f35b5090346103335781600319360112610333576020905160648152f35b90508234610195576020366003190112610195576020926001600160a01b0391908261039a6103a8565b168152600185522054168152f35b600435906001600160a01b03821682036103be57565b600080fd5b9060009182548110156103f9578280527f290decd9548b62a8d60345a988386fc84ba6bc95484008f6362f93160ef3e563019190565b634e487b7160e01b83526032600452602483fdfe6101a034620005155762004ab26001600160401b03601f38839003908101601f191684019082821185831017620004ff578085946040938452853961012093849181010312620005155762000054846200051a565b602091620000648387016200051a565b81870151606088015160808901519160a08a01519360c08b01519660e08c015198610100809d01519a8851908282019082821090821117620004ff57895260008091526002546001908181811c91168015620004f4575b84821014620004e057601f8111620004b1575b5060028290556003556001600160a01b039283169283156200046d5784161562000438578415620003f4576103e88611620003b057428711156200037b578715620003375761271090818b11620002f3578c8c0190818d11620002df5750116200029c575060805260a05260c05260e0528752855261014091825261016092835261018093845260ff196004541660045551936145829586620005308739608051868181610a7701528181610b3701528181610e71015281816117110152818161181e01528181611aa501528181611f9801528181612349015281816125fa015281816128210152612d5c015260a0518681816106800152818161074f01528181610aba01528181610c33015281816111a9015281816117d801528181611897015281816121550152818161225f015281816124960152612b1b015260c051868181611a0e01528181611be101526127b0015260e0518681816114b70152818161164601528181611a3e015281816127e00152612c74015251858181610afb01528181611c5401528181611ea50152612720015251848181610cac0152613ad201525183818161151e0152613aab015251828181611b750152613da00152518181816117990152613dcc0152f35b60649088519062461bcd60e51b82526004820152601660248201527f546f74616c2066656573206578636565642031303025000000000000000000006044820152fd5b634e487b7160e01b81526011600452602490fd5b895162461bcd60e51b815260048101849052601a60248201527f496e76616c69642064656d616e642073656e73697469766974790000000000006044820152606490fd5b885162461bcd60e51b815260048101839052601b60248201527f496e76616c6964206c697175696469747920706172616d6574657200000000006044820152606490fd5b885162461bcd60e51b815260048101839052600e60248201526d115e1c1a5c9e481a5b881c185cdd60921b6044820152606490fd5b885162461bcd60e51b815260048101839052601360248201527f4f7261636c652066656520746f6f2068696768000000000000000000000000006044820152606490fd5b885162461bcd60e51b815260048101839052601660248201527f496e76616c6964206465706f73697420616d6f756e74000000000000000000006044820152606490fd5b885162461bcd60e51b815260048101839052600e60248201526d496e76616c6964206f7261636c6560901b6044820152606490fd5b895162461bcd60e51b815260048101849052601560248201527f496e76616c6964207061796d656e7420746f6b656e00000000000000000000006044820152606490fd5b6002835281601f858520920160051c8201915b828110620004d4575050620000ce565b848155018290620004c4565b634e487b7160e01b83526022600452602483fd5b90607f1690620000bb565b634e487b7160e01b600052604160045260246000fd5b600080fd5b51906001600160a01b0382168203620005155756fe6080604052600436101561001257600080fd5b60003560e01c8062fdd58e146103f657806301ffc9a7146103f1578063030a91da146103ec5780630e89341c146103e75780631db0e667146103e2578063239dba4f146103dd5780632eb2c2d6146103d85780633013ce29146103d3578063362433ca146103ce5780633789a2fb146103c95780633a2babc2146103c45780633a69a1be146103bf5780634034b060146103ba5780634b77b7e4146103b55780634e1273f4146103b05780634ee837a6146103ab578063563930e7146103a65780635c76fda7146103a15780636932b3821461039c578063693b46601461039757806374d342141461039257806379acdb3a1461038d5780637ae45fe3146103885780637dc0d1d0146103835780637e487b481461037e5780637e8f123414610379578063829e4c641461037457806384e43b481461036f5780638c13d5461461036a578063933b12821461036557806395082d25146103605780639a9a5d9d1461035b578063a01e4a1f14610356578063a22cb46514610351578063a2ba52d91461034c578063a7e2bc5414610347578063a8920a8f14610342578063ac567bd61461033d578063ade6e2aa14610338578063ae4c8ba914610333578063af19e0d51461032e578063af1d919714610329578063b30906d414610324578063b9937e301461031f578063bf6bbf091461031a578063c19d93fb14610315578063c53e21e414610310578063c6c509901461030b578063c8d2270014610306578063c9a496aa14610301578063ca41cd20146102fc578063d09685b0146102f7578063d6a74ce0146102f2578063df1ef4c6146102ed578063e1a45218146102e8578063e1db226a146102e3578063e985e9c5146102de578063ed4af81f146102d9578063edadee04146102d4578063f242432a146102cf578063fc8c28e1146102ca5763fed76325146102c557600080fd5b612b56565b612ade565b6129b9565b61295e565b612940565b6128d8565b612696565b612679565b612645565b612452565b612434565b6123da565b612380565b612221565b61213d565b612111565b6120e7565b61207c565b61205e565b61200d565b611fef565b611eeb565b611ec8565b611e8d565b611e4b565b611de7565b611dc9565b611dab565b611ceb565b611c40565b611c22565b611c04565b611bc9565b611b98565b611b5d565b611b3f565b611955565b6118f9565b611881565b6117bc565b611781565b611541565b611506565b6114da565b61149f565b611156565b611108565b61104d565b610fcb565b610ccf565b610c94565b610c6e565b610bf6565b610aa6565b610a61565b610934565b610737565b610668565b610562565b6104e2565b610474565b610411565b6001600160a01b0381160361040c57565b600080fd5b3461040c57604036600319011261040c576020610459600435610433816103fb565b6024356000526000835260406000209060018060a01b0316600052602052604060002090565b54604051908152f35b6001600160e01b031981160361040c57565b3461040c57602036600319011261040c57602060043561049381610462565b63ffffffff60e01b16636cdb3d1360e11b81149081156104d1575b81156104c0575b506040519015158152f35b6301ffc9a760e01b149050386104b5565b6303a24d0760e21b811491506104ae565b3461040c57602036600319011261040c5760043560005260096020526020604060002054604051908152f35b919082519283825260005b84811061053a575050826000602080949584010152601f8019910116010190565b602081830181015184830182015201610519565b90602061055f92818152019061050e565b90565b3461040c5760208060031936011261040c576040519060009060025460019181831c9280831692831561065e575b828510841461064a57848752602087019390811561062b57506001146105d1575b6105cd866105c18188038261083c565b6040519182918261054e565b0390f35b6002600090815294509192917f405787fa12a823e0f2b7631cc41b3ba8828b3321ca811111fa75cd3aa3bb5ace5b83861061061a57505050910190506105c1826105cd386105b1565b8054858701529482019481016105ff565b60ff1916845250505090151560051b0190506105c1826105cd386105b1565b634e487b7160e01b86526022600452602486fd5b93607f1693610590565b3461040c57600080600319360112610734576106ae337f00000000000000000000000000000000000000000000000000000000000000006001600160a01b0316146138fc565b60ff600454166006811015610720578060036106d3921415908161070b575b506143fb565b6106e4600460ff1981541617600455565b7f9237e8f0d5063a695b8695e82c82bc24d15591de9d04449771a6ea4b128317378180a180f35b60059150610718816120c7565b1415386106cd565b634e487b7160e01b82526021600452602482fd5b80fd5b3461040c576000806003193601126107345761077d337f00000000000000000000000000000000000000000000000000000000000000006001600160a01b0316146138fc565b60ff600454166006811015610720576001036107cc576107a5600260ff196004541617600455565b7f6269223632367ef23aa42f76f04d80bd3a94f9372a7e882c8b3dbe70515c80fc8180a180f35b60405162461bcd60e51b8152602060048201526012602482015271436f6e74657374206e6f742061637469766560701b6044820152606490fd5b634e487b7160e01b600052604160045260246000fd5b602081019081106001600160401b0382111761083757604052565b610806565b90601f801991011681019081106001600160401b0382111761083757604052565b6001600160401b0381116108375760051b60200190565b81601f8201121561040c5780359161088b8361085d565b92610899604051948561083c565b808452602092838086019260051b82010192831161040c578301905b8282106108c3575050505090565b813581529083019083016108b5565b6001600160401b03811161083757601f01601f191660200190565b81601f8201121561040c57803590610904826108d2565b92610912604051948561083c565b8284526020838301011161040c57816000926020809301838601378301015290565b3461040c5760a036600319011261040c5760048035610952816103fb565b60243561095e816103fb565b6001600160401b039060443582811161040c5761097e9036908601610874565b9060643583811161040c576109969036908701610874565b9260843590811161040c576109ae90369087016108ed565b936001600160a01b03808216903382141580610a3d575b610a10578316156109f857156109e1576109df9550612f16565b005b604051626a0d4560e21b8152600081880152602490fd5b604051632bfa23e760e11b8152600081890152602490fd5b6040805163711bec9160e11b815233818b019081526001600160a01b038616602082015290918291010390fd5b50600082815260016020908152604080832033845290915290205460ff16156109c5565b3461040c57600036600319011261040c576040517f00000000000000000000000000000000000000000000000000000000000000006001600160a01b03168152602090f35b3461040c57600080600319360112610734577f00000000000000000000000000000000000000000000000000000000000000006001600160a01b03610aee33828416146138fc565b610af661373e565b610b227f00000000000000000000000000000000000000000000000000000000000000004210156144cf565b6040516370a0823160e01b81523060048201527f00000000000000000000000000000000000000000000000000000000000000009290916020908390602490829087165afa918215610bf1578492610bc1575b5081610b8a575b83610b876001600355565b80f35b610b93926138ad565b610b9d6000600e55565b610ba76000601455565b610bb9600560ff196004541617600455565b388080610b7c565b610be391925060203d8111610bea575b610bdb818361083c565b8101906143ec565b9038610b75565b503d610bd1565b6131d0565b3461040c57602036600319011261040c577fa2877b861a6a177d8c1a4430a6f8716104652f70e5c8fbd58aa775ef96da4a526020600435610c61337f00000000000000000000000000000000000000000000000000000000000000006001600160a01b0316146138fc565b80601655604051908152a1005b3461040c57602036600319011261040c576020610c8c600435613a3a565b604051908152f35b3461040c57600036600319011261040c5760206040517f00000000000000000000000000000000000000000000000000000000000000008152f35b3461040c5760208060031936011261040c5760043590610ced61373e565b610d0d6003610cfe60045460ff1690565b610d07816120c7565b1461427e565b610d21610d1c60135460ff1690565b6142f8565b60018060a01b0390610d5982610d51610d44866000526006602052604060002090565b546001600160a01b031690565b1615156139b9565b610d86610d81610d7d610d76866000526007602052604060002090565b5460ff1690565b1590565b61433a565b610db533610d9e856000526000602052604060002090565b9060018060a01b0316600052602052604060002090565b549182151591610dc48361437c565b610dcf848633613ecb565b6000936012548614610e1b575b604051858152869033907fe256ef8b7b6eaeb621f7e7ca3b683f124df401cb260bbaccf0540299944b858a9080602081015b0390a36109df6001600355565b9091929350610e54610e3786600052600d602052604060002090565b54610e438115156143b4565b610e4f600e5484613986565b613999565b93610fa4575b506040516370a0823160e01b8082523060048301527f0000000000000000000000000000000000000000000000000000000000000000938416918381602481865afa908115610bf157600091610f87575b50808611610f7f575b5084610f43575b610ecf86600052600d602052604060002090565b54610ddc57604051908152306004820152908290829060249082905afa918215610bf157600092610f26575b505080610f0a575b8080610ddc565b610f1f91610f186000600e55565b33906138ad565b3880610f03565b610f3c9250803d10610bea57610bdb818361083c565b3880610efb565b600e548511610f7057610f60610f5b86600e5461367b565b600e55565b610f6b8533866138ad565b610ebb565b610f7a6000600e55565b610f60565b945038610eb4565b610f9e9150843d8611610bea57610bdb818361083c565b38610eab565b610fc3610fbb86600052600d602052604060002090565b918254613eb2565b905538610e5a565b3461040c57602036600319011261040c57600435610fe8816103fb565b60018060a01b0316600052600a6020526020604060002054604051908152f35b90815180825260208080930193019160005b828110611028575050505090565b83518552938101939281019260010161101a565b90602061055f928181520190611008565b3461040c57604036600319011261040c576004356001600160401b0380821161040c573660238301121561040c5781600401356110898161085d565b92611097604051948561083c565b81845260209160248386019160051b8301019136831161040c57602401905b8282106110ef578560243586811161040c576105cd916110dd6110e3923690600401610874565b90612e51565b6040519182918261103c565b83809183356110fd816103fb565b8152019101906110b6565b3461040c57600036600319011261040c576020601454604051908152f35b9181601f8401121561040c578235916001600160401b03831161040c576020808501948460051b01011161040c57565b3461040c57604036600319011261040c576001600160401b0360043581811161040c57611187903690600401611126565b909160243590811161040c576111a1903690600401611126565b92906111d7337f00000000000000000000000000000000000000000000000000000000000000006001600160a01b0316146138fc565b6111df61373e565b6112096111ee60045460ff1690565b6111f7816120c7565b6001811490811561148b575b50614067565b6112148315156140b3565b61121f8484146140ff565b61122d600554841115614143565b6000805b858110611450575061271061124691146141e7565b611258600360ff196004541617600455565b611267600854600f5490613125565b60005b8481106114095750506112866112808484614182565b35601255565b611298600160ff196013541617601355565b6112ae601254600052600d602052604060002090565b54600e54908115159081611400575b50611303575b507f0fed27f5e3cd741c181cc0d3b0c47df2013638faa8b7aa7084de3946098eb78e936112f69160405194859485614257565b0390a16109df6001600355565b61130d6000600e55565b6000805b85811061138e57509181837f0fed27f5e3cd741c181cc0d3b0c47df2013638faa8b7aa7084de3946098eb78e97936112f69510611353575b50509150936112c3565b61135c9161367b565b61138561137d61136c8888614182565b356000526009602052604060002090565b918254613125565b90553880611349565b9061139a82878761418b565b35916113bc6113b46113ad838b8961418b565b3586613986565b612710900490565b806113d3575b506113ce919250612e29565b611311565b6113f761137d6113e6836113ce96613125565b956000526009602052604060002090565b905582916113c2565b905015386112bd565b8061141861144b92878761418b565b356114456114346113b461142d858c8a61418b565b3587613986565b916000526009602052604060002090565b55612e29565b61126a565b906114806114869161146e611466858a8861418b565b35151561419b565b61147984898761418b565b3590613125565b91612e29565b611231565b60029150611498816120c7565b1438611203565b3461040c57600036600319011261040c5760206040517f00000000000000000000000000000000000000000000000000000000000000008152f35b3461040c57602036600319011261040c57600435600052600d6020526020604060002054604051908152f35b3461040c57600036600319011261040c5760206040517f00000000000000000000000000000000000000000000000000000000000000008152f35b3461040c57604036600319011261040c576024356116fd60043561156361373e565b61158b61157260045460ff1690565b61157b816120c7565b801590811561176d575b50613e0a565b60008181526006602052604090206115af906001600160a01b0390610d5190610d44565b6115ba831515613b8f565b6115de836115d633610d9e856000526000602052604060002090565b541015613e6f565b6116e9610f5b6116bb61163461160233610d9e876000526000602052604060002090565b54336000908152601160205260409020610e4f90899061162e9089905b90600052602052604060002090565b54613986565b956116c061168b61168661271061166b7f00000000000000000000000000000000000000000000000000000000000000008c613986565b0461168061167b8260145461367b565b601455565b8a61367b565b613d96565b9491909361169a818a33613ecb565b6116b1610fbb8a600052600d602052604060002090565b9055600f5461367b565b600f55565b6116df6116d7866000526010602052604060002090565b91825461367b565b9055600e5461367b565b33600090815260116020526040902061161f565b61170882825461367b565b905561173581337f00000000000000000000000000000000000000000000000000000000000000006138ad565b60405190815233907f9ab0480f2900ac3d2b39009247d33515552abee0ba84caa8a3f1c6435fbb266e90602090a26109df6001600355565b6004915061177a816120c7565b1438611585565b3461040c57600036600319011261040c5760206040517f00000000000000000000000000000000000000000000000000000000000000008152f35b3461040c57600080600319360112610734576117d661373e565b7f000000000000000000000000000000000000000000000000000000000000000061180b336001600160a01b038316146138fc565b601454801561184a5761184291836014557f00000000000000000000000000000000000000000000000000000000000000006138ad565b600160035580f35b60405162461bcd60e51b815260206004820152600f60248201526e4e6f2066656520746f20636c61696d60881b6044820152606490fd5b3461040c57600036600319011261040c576040517f00000000000000000000000000000000000000000000000000000000000000006001600160a01b03168152602090f35b634e487b7160e01b600052603260045260246000fd5b80548210156118f45760005260206000200190600090565b6118c6565b3461040c57604036600319011261040c57600435611916816103fb565b6001600160a01b03166000908152600a602052604090208054602435919082101561040c57602091611947916118dc565b90546040519160031b1c8152f35b3461040c57602036600319011261040c5760043561197161373e565b61199961198060045460ff1690565b611989816120c7565b8015908115611b2b575b506137be565b6119c36119b3610d44836000526006602052604060002090565b6001600160a01b03163314613823565b6119e56119e0610d7d610d76846000526007602052604060002090565b613861565b611a096119fc826000526007602052604060002090565b805460ff19166001179055565b611ac97f0000000000000000000000000000000000000000000000000000000000000000611a86611a81611a79612710611a637f000000000000000000000000000000000000000000000000000000000000000086613986565b04611a7361167b8260145461367b565b8461367b565b60085461367b565b600855565b611a9a836000526010602052604060002090565b5480611aff575b50337f00000000000000000000000000000000000000000000000000000000000000006138ad565b604051600081523391907ffb16de2fc4c8fdff22bb4d4f5cf83fe2e5b87a62b83a9b3f9cb47af7a12fe672908060208101610e0e565b6116bb611b25916000611b1c876000526010602052604060002090565b55600f54613125565b38611aa1565b60049150611b38816120c7565b1438611993565b3461040c57600036600319011261040c576020600e54604051908152f35b3461040c57600036600319011261040c5760206040517f00000000000000000000000000000000000000000000000000000000000000008152f35b3461040c57602036600319011261040c576004356000526007602052602060ff604060002054166040519015158152f35b3461040c57600036600319011261040c5760206040517f00000000000000000000000000000000000000000000000000000000000000008152f35b3461040c57600036600319011261040c576020604051620f42408152f35b3461040c57600036600319011261040c576020601654604051908152f35b3461040c57600080600319360112610734577f00000000000000000000000000000000000000000000000000000000000000004210611cb8576106d3611c8860045460ff1690565b611c91816120c7565b60038114159081611ca3575b50614447565b60059150611cb0816120c7565b141538611c9d565b60405162461bcd60e51b815260206004820152600b60248201526a139bdd08195e1c1a5c995960aa1b6044820152606490fd5b3461040c57604036600319011261040c57600435611d08816103fb565b602435908115159081830361040c576001600160a01b038116928315611d9357611d54611d659233600052600160205260406000209060018060a01b0316600052602052604060002090565b9060ff801983541691151516179055565b6040519081527f17307eab39ab6107e8899845ad3d59bd9653f200f220920489ca2b5937696c3160203392a3005b60405162ced3e160e81b815260006004820152602490fd5b3461040c57600036600319011261040c576020600b54604051908152f35b3461040c57600036600319011261040c576020600f54604051908152f35b3461040c57602036600319011261040c57600435600b548110611e0981614510565b156118f457600b6000527f0175b7a638427703f0dbe7bb9bbf987a2551717b34e79f33b5b1008d1fa01db901546040516001600160a01b039091168152602090f35b3461040c57602036600319011261040c57600435611e68816103fb565b60018060a01b0316600052600c602052602060ff604060002054166040519015158152f35b3461040c57600036600319011261040c5760206040517f00000000000000000000000000000000000000000000000000000000000000008152f35b3461040c57600036600319011261040c57602060ff601354166040519015158152f35b3461040c57602036600319011261040c57600435611f0761373e565b611f1b600360ff60045416610d07816120c7565b611f356119b3610d44836000526006602052604060002090565b611f68611f4c826000526009602052604060002090565b54611f61836000526010602052604060002090565b5490613125565b611f738115156142c0565b600082815260096020526040812055600082815260106020526040812055611fbc81337f00000000000000000000000000000000000000000000000000000000000000006138ad565b60405190815233907e89742e8fcde5f6c48a17ec50347f2b2d98d85a17abe162b4cd552516f752dd908060208101610e0e565b3461040c57600036600319011261040c576020601254604051908152f35b3461040c57602036600319011261040c5760043560055481101561040c5760209060056000527f036b6384b5eca791c62761152d0c79bb0604c104a5fb6f4eb0703f3154bb3db00154604051908152f35b3461040c57600036600319011261040c576020600854604051908152f35b3461040c57604036600319011261040c57600435612099816103fb565b60018060a01b0316600052601160205260406000206024356000526020526020604060002054604051908152f35b600611156120d157565b634e487b7160e01b600052602160045260246000fd5b3461040c57600036600319011261040c5760ff6004541660405160068210156120d1576020918152f35b3461040c57602036600319011261040c5760043560005260106020526020604060002054604051908152f35b3461040c5760008060031936011261073457612183337f00000000000000000000000000000000000000000000000000000000000000006001600160a01b0316146138fc565b60ff600454166006811015610720576121dc576121a36005541515613935565b6121b5600160ff196004541617600455565b7f7c028d8ce12d1020a80993ae2164a0e613606fa7d0f767fd5c0a2a6d789960fd8180a180f35b60405162461bcd60e51b815260206004820152601760248201527f436f6e7465737420616c726561647920737461727465640000000000000000006044820152606490fd5b3461040c57602036600319011261040c576004356001600160401b03811161040c57612251903690600401611126565b6001600160a01b03612286337f00000000000000000000000000000000000000000000000000000000000000008316146138fc565b61228e61373e565b61229f6003610cfe60045460ff1690565b60005b8281106122b3576109df6001600355565b806122c26122e792858761418b565b356122da611f4c826000526009602052604060002090565b806122ec575b5050612e29565b6122a2565b6000828152600960205260408120556000828152601060205260408120557e89742e8fcde5f6c48a17ec50347f2b2d98d85a17abe162b4cd552516f752dd85612342610d44856000526006602052604060002090565b61236d84827f00000000000000000000000000000000000000000000000000000000000000006138ad565b6040519384521691602090a338806122e0565b3461040c57602036600319011261040c5760043560055481106123a281614510565b156118f45760209060056000527f036b6384b5eca791c62761152d0c79bb0604c104a5fb6f4eb0703f3154bb3db00154604051908152f35b3461040c57604036600319011261040c5760206119476004356123fc816103fb565b6001600160a01b03166000818152600a845260409020546024359190612423908310614510565b600052600a835260406000206118dc565b3461040c57600036600319011261040c576020600554604051908152f35b3461040c5760408060031936011261040c576004356001600160401b03811161040c57612483903690600401611126565b91602435906001600160a01b036124bd337f00000000000000000000000000000000000000000000000000000000000000008316146138fc565b6124c561373e565b6124d66003610cfe60045460ff1690565b6124e5610d1c60135460ff1690565b6124f26012548414614485565b61250683600052600d602052604060002090565b54906125138215156143b4565b60005b868110612527576109df6001600355565b808561253f61253a612567948b8b61418b565b6144c5565b61255781610d9e846000526000602052604060002090565b54908161256c575b505050612e29565b612516565b612577828483613ecb565b61258b83600052600d602052604060002090565b612596838254613eb2565b905585600e916125ac89610e4f85548097613986565b93846125bb575b50505061255f565b7fe256ef8b7b6eaeb621f7e7ca3b683f124df401cb260bbaccf0540299944b858a9385918211612634576125f391610f5b915461367b565b61261e84827f00000000000000000000000000000000000000000000000000000000000000006138ad565b89519384521691602090a38538808581806125b3565b50506126406000600e55565b6125f3565b3461040c57602036600319011261040c576004356000526006602052602060018060a01b0360406000205416604051908152f35b3461040c57600036600319011261040c5760206040516127108152f35b3461040c57604036600319011261040c576004356024356001600160401b03811161040c576126c9903690600401611126565b906126d261373e565b6126f06126e160045460ff1690565b6126ea816120c7565b1561349c565b600083815260066020526040902061271b906001600160a01b039061271490610d44565b16156134db565b6127467f0000000000000000000000000000000000000000000000000000000000000000421061351e565b6015549182612875575b8361275a816135ed565b61279133612772836000526006602052604060002090565b80546001600160a01b0319166001600160a01b03909216919091179055565b336000908152600a602052604090206127ab908290613635565b6128457f000000000000000000000000000000000000000000000000000000000000000061281d611a816128156127106128057f000000000000000000000000000000000000000000000000000000000000000086613986565b04611a7361167b82601454613125565b600854613125565b30337f0000000000000000000000000000000000000000000000000000000000000000613688565b337f4a3a30e0139991c1b1492b4364701af9484bb9032a696c2b8c748a1e51f2fd17600080a36109df6001600355565b6128d0926128c66128cb9360405160208101906128bb816128ad33856014916bffffffffffffffffffffffff199060601b1681520190565b03601f19810183528261083c565b51902093369161355c565b613761565b6135aa565b388080612750565b3461040c57604036600319011261040c57602060ff6129346004356128fc816103fb565b60243590612909826103fb565b60018060a01b03166000526001845260406000209060018060a01b0316600052602052604060002090565b54166040519015158152f35b3461040c57600036600319011261040c576020601554604051908152f35b3461040c57602036600319011261040c57600435600b5481101561040c57600b6000527f0175b7a638427703f0dbe7bb9bbf987a2551717b34e79f33b5b1008d1fa01db901546040516001600160a01b039091168152602090f35b3461040c5760a036600319011261040c576004356129d6816103fb565b6024356129e2816103fb565b6084356001600160401b03811161040c57612a019036906004016108ed565b906001600160a01b03838116903382141580612aba575b612a9357821615612a7a5715612a62576109df92612a5a6064356044359160405192600184526020840152604083019160018352606084015260808301604052565b929091612f16565b604051626a0d4560e21b815260006004820152602490fd5b604051632bfa23e760e11b815260006004820152602490fd5b60405163711bec9160e11b81523360048201526001600160a01b0386166024820152604490fd5b50600082815260016020908152604080832033845290915290205460ff1615612a18565b3461040c57602036600319011261040c577f1f3ffb5a38f057a21fbb6b9c891954827a2657844fbc0ae99188cce46f059e2b6020600435612b49337f00000000000000000000000000000000000000000000000000000000000000006001600160a01b0316146138fc565b80601555604051908152a1005b3461040c57606036600319011261040c576004356024356044356001600160401b03811161040c57612b8c903690600401611126565b90612b9561373e565b612bbd612ba460045460ff1690565b612bad816120c7565b8015908115612dff575b50613b39565b6000848152600660205260409020612be1906001600160a01b0390610d5190610d44565b612c03612bfe610d7d610d76876000526007602052604060002090565b6139fc565b612c0e831515613b8f565b6016549182612dbf575b5050336000908152600c60205260409020612c379150610d7d90610d76565b612d99575b7fa00dafed0dbb4c386c4a62b78c2bcbf149dcebfed234ad200c7e6631854d48b0610e0e612cbc6116bb612caf611686612710612c997f000000000000000000000000000000000000000000000000000000000000000089613986565b04612ca961167b82601454613125565b8761367b565b9391600f93919354613125565b612cd361137d876000526010602052604060002090565b9055336000908152601160205260409020612cef90869061161f565b612cfa858254613125565b9055612d54610f5b612d17612d0e88613a3a565b610e4f8561396e565b92612d2b612d236131dc565b858a33613c50565b612d3f88600052600d602052604060002090565b612d4a858254613c34565b9055600e54613125565b612d808430337f0000000000000000000000000000000000000000000000000000000000000000613688565b6040805194855260208501919091523393918291820190565b612da233613bd0565b336000908152600c60205260409020612dba906119fc565b612c3c565b612df7926128c66128cb9360405160208101906128bb816128ad33856014916bffffffffffffffffffffffff199060601b1681520190565b388080612c18565b60019150612e0c816120c7565b1438612bb7565b634e487b7160e01b600052601160045260246000fd5b6000198114612e385760010190565b612e13565b80518210156118f45760209160051b010190565b91909180518351808203612ef4575050805190612e6d8261085d565b91612e7b604051938461083c565b808352612e8a601f199161085d565b0190602091368385013760005b8151811015612eec57600581901b8281018401519087018401516000908152602081815260408083206001600160a01b0390941683529290522054612ee79190612ee18287612e3d565b52612e29565b612e97565b509193505050565b604051635b05999160e01b815260048101919091526024810191909152604490fd5b949190918151845190818103612ef457505060005b825181101561301e57600581901b83810160209081015191870101516001600160a01b03929186908a8516612f97575b612f6d948216612f7257505050612e29565b612f2b565b612f8d91610d9e61137d926000526000602052604060002090565b905538858161255f565b9192939050612fb48a610d9e846000526000602052604060002090565b54838110612fe75791879184612f6d96959403612fdf8d610d9e856000526000602052604060002090565b559450612f5b565b6040516303dee4c560e01b81526001600160a01b038c16600482015260248101919091526044810184905260648101839052608490fd5b5094919392909360018551146000146130c9576020858101518382015160408051928352928201526001600160a01b03838116929086169133917fc3d58168c5ae7397731d063d5bbf3d657854427343f4c083240f7aacaa2d0f6291a45b6001600160a01b038116613092575b5050505050565b84516001036130b8576020806130ae9601519201519233613319565b388080808061308b565b6130c494919233613465565b6130ae565b6040516001600160a01b03828116919085169033907f4a39dc06d4c0dbc64b70af90fd698a233a518aa5d07e595d983b8c0526c8f7fb908061310c888c83613132565b0390a461307c565b90620f4240918201809211612e3857565b91908201809211612e3857565b909161314961055f93604084526040840190611008565b916020818403910152611008565b9081602091031261040c575161055f81610462565b909260a09261055f9594600180861b031683526000602084015260408301526060820152816080820152019061050e565b919261055f95949160a094600180871b03809216855216602084015260408301526060820152816080820152019061050e565b6040513d6000823e3d90fd5b604051906131e98261081c565b60008252565b3d1561321a573d90613200826108d2565b9161320e604051938461083c565b82523d6000602084013e565b606090565b9293919093843b613231575050505050565b602091613254604051948593849363f23a6e6160e01b988986526004860161316c565b038160006001600160a01b0388165af1600091816132e9575b506132ac578261327b6131ef565b80519190826132a557604051632bfa23e760e11b81526001600160a01b0383166004820152602490fd5b9050602001fd5b6001600160e01b031916036132c65750388080808061308b565b604051632bfa23e760e11b81526001600160a01b03919091166004820152602490fd5b61330b91925060203d8111613312575b613303818361083c565b810190613157565b903861326d565b503d6132f9565b939290949194853b61332e575b505050505050565b613351602093604051958694859463f23a6e6160e01b998a87526004870161319d565b038160006001600160a01b0388165af160009181613393575b50613378578261327b6131ef565b6001600160e01b031916036132c65750388080808080613326565b6133ac91925060203d811161331257613303818361083c565b903861336a565b926133e261055f95936133f09360018060a01b031686526000602087015260a0604087015260a0860190611008565b908482036060860152611008565b91608081840391015261050e565b939061055f95936133e2916133f09460018060a01b03809216885216602087015260a0604087015260a0860190611008565b9293919093843b613442575050505050565b602091613254604051948593849363bc197c8160e01b98898652600486016133b3565b939290949194853b61347957505050505050565b613351602093604051958694859463bc197c8160e01b998a8752600487016133fe565b156134a357565b60405162461bcd60e51b815260206004820152601060248201526f21b7b73a32b9ba103737ba1037b832b760811b6044820152606490fd5b156134e257565b60405162461bcd60e51b8152602060048201526014602482015273456e74727920616c72656164792065786973747360601b6044820152606490fd5b1561352557565b60405162461bcd60e51b815260206004820152600f60248201526e10dbdb9d195cdd08195e1c1a5c9959608a1b6044820152606490fd5b92916135678261085d565b91613575604051938461083c565b829481845260208094019160051b810192831161040c57905b82821061359b5750505050565b8135815290830190830161358e565b156135b157565b60405162461bcd60e51b815260206004820152601460248201527324b73b30b634b21036b2b935b63290383937b7b360611b6044820152606490fd5b600554600160401b8110156108375760018101806005558110156118f45760056000527f036b6384b5eca791c62761152d0c79bb0604c104a5fb6f4eb0703f3154bb3db00155565b8054600160401b81101561083757613652916001820181556118dc565b819291549060031b91821b91600019901b1916179055565b90620f4240918203918211612e3857565b91908203918211612e3857565b6040516323b872dd60e01b60208201526001600160a01b03928316602482015292909116604483015260648083019390935291815260a08101918183106001600160401b03841117610837576136e0926040526136e2565b565b906000602091828151910182855af1156131d0576000513d61373557506001600160a01b0381163b155b6137135750565b604051635274afe760e01b81526001600160a01b039091166004820152602490fd5b6001141561370c565b60026003541461374f576002600355565b604051633ee5aeb560e01b8152600490fd5b929091906000915b84518310156137b65761377c8386612e3d565b51906000828210156137a4575060005260205261379e60406000205b92612e29565b91613769565b60409161379e93825260205220613798565b915092501490565b156137c557565b60405162461bcd60e51b815260206004820152603060248201527f43616e6e6f74207769746864726177202d20636f6e7465737420696e2070726f60448201526f19dc995cdcc81bdc881cd95d1d1b195960821b6064820152608490fd5b1561382a57565b60405162461bcd60e51b815260206004820152600f60248201526e2737ba1032b73a393c9037bbb732b960891b6044820152606490fd5b1561386857565b60405162461bcd60e51b815260206004820152601760248201527f456e74727920616c72656164792077697468647261776e0000000000000000006044820152606490fd5b60405163a9059cbb60e01b60208201526001600160a01b03909216602483015260448083019390935291815260808101916001600160401b03831182841017610837576136e0926040526136e2565b1561390357565b60405162461bcd60e51b815260206004820152600a6024820152694e6f74206f7261636c6560b01b6044820152606490fd5b1561393c57565b60405162461bcd60e51b815260206004820152600a6024820152694e6f20656e747269657360b01b6044820152606490fd5b90620f424091828102928184041490151715612e3857565b81810292918115918404141715612e3857565b81156139a3570490565b634e487b7160e01b600052601260045260246000fd5b156139c057565b60405162461bcd60e51b8152602060048201526014602482015273115b9d1c9e48191bd95cc81b9bdd08195e1a5cdd60621b6044820152606490fd5b15613a0357565b60405162461bcd60e51b815260206004820152600f60248201526e22b73a393c903bb4ba34323930bbb760891b6044820152606490fd5b600081815260066020526040902054613a939190613a62906001600160a01b031615156139b9565b613a8360ff613a7b836000526007602052604060002090565b5416156139fc565b600052600d602052604060002090565b546000808212919082613b205750613ad0613af7915b7f000000000000000000000000000000000000000000000000000000000000000090613986565b7f000000000000000000000000000000000000000000000000000000000000000090613999565b9080613b14575b613b0b5761055f90613114565b61055f9061366a565b50620f42408110613afe565b600160ff1b8214612e3857613af791613ad09103613aa9565b15613b4057565b60405162461bcd60e51b815260206004820152602160248201527f5365636f6e6461727920706f736974696f6e73206e6f7420617661696c61626c6044820152606560f81b6064820152608490fd5b15613b9657565b60405162461bcd60e51b81526020600482015260126024820152710416d6f756e74206d757374206265203e20360741b6044820152606490fd5b600b54600160401b811015610837576001810180600b558110156118f457600b6000527f0175b7a638427703f0dbe7bb9bbf987a2551717b34e79f33b5b1008d1fa01db90180546001600160a01b0319166001600160a01b03909216919091179055565b91909160008382019384129112908015821691151617612e3857565b6001600160a01b03811693929091908415612a7a57613c8c60405192600184526020840152604083019160018352606084015260808301604052565b928151845190818103612ef457505060005b8251811015613ce35780613cde9160051b613cd761137d87610d9e602080868b010151958c010151946000526000602052604060002090565b9055612e29565b613c9e565b509291936001825114600014613d5a5760208281015184820151604080519283529282015260009133917fc3d58168c5ae7397731d063d5bbf3d657854427343f4c083240f7aacaa2d0f629190a45b8051600103613d5057906020806136e095930151910151913361321f565b6136e09333613430565b60006040517f4a39dc06d4c0dbc64b70af90fd698a233a518aa5d07e595d983b8c0526c8f7fb339180613d8e888883613132565b0390a4613d32565b6127109182613dc57f000000000000000000000000000000000000000000000000000000000000000084613986565b0492613df17f000000000000000000000000000000000000000000000000000000000000000084613986565b0491838103908111612e3857828103908111612e385790565b15613e1157565b60405162461bcd60e51b815260206004820152603060248201527f43616e6e6f74207769746864726177202d20636f6d7065746974696f6e20737460448201526f185c9d1959081bdc881cd95d1d1b195960821b6064820152608490fd5b15613e7657565b60405162461bcd60e51b8152602060048201526014602482015273496e73756666696369656e742062616c616e636560601b6044820152606490fd5b81810392916000138015828513169184121617612e3857565b6001600160a01b038116929091908315612a6257613f0660405192600184526020840152604083019160018352606084015260808301604052565b919060409460008651613f188161081c565b52815184519081810361404657505060005b8251811015613fbf578060051b60208082860101519187010151613f5c86610d9e846000526000602052604060002090565b54818110613f895786610d9e613f849594936114459303936000526000602052604060002090565b613f2a565b89516303dee4c560e01b81526001600160a01b038816600482015260248101919091526044810182905260648101839052608490fd5b509490600094939250600181511485146140145760209081015192810151915192835282015233907fc3d58168c5ae7397731d063d5bbf3d657854427343f4c083240f7aacaa2d0f629080604081015b0390a4565b905133927f4a39dc06d4c0dbc64b70af90fd698a233a518aa5d07e595d983b8c0526c8f7fb92829161400f9183613132565b8751635b05999160e01b815260048101919091526024810191909152604490fd5b1561406e57565b60405162461bcd60e51b815260206004820152601c60248201527f436f6e74657374206e6f7420616374697665206f72206c6f636b6564000000006044820152606490fd5b156140ba57565b60405162461bcd60e51b815260206004820152601d60248201527f4d7573742068617665206174206c65617374206f6e652077696e6e65720000006044820152606490fd5b1561410657565b60405162461bcd60e51b8152602060048201526015602482015274082e4e4c2f240d8cadccee8d040dad2e6dac2e8c6d605b1b6044820152606490fd5b1561414a57565b60405162461bcd60e51b815260206004820152601060248201526f546f6f206d616e792077696e6e65727360801b6044820152606490fd5b90156118f45790565b91908110156118f45760051b0190565b156141a257565b60405162461bcd60e51b815260206004820152601960248201527f557365206e6f6e2d7a65726f207061796f757473206f6e6c79000000000000006044820152606490fd5b156141ee57565b60405162461bcd60e51b815260206004820152601860248201527f5061796f757473206d7573742073756d20746f203130302500000000000000006044820152606490fd5b81835290916001600160fb1b03831161040c5760209260051b809284830137010190565b92906142709061055f9593604086526040860191614233565b926020818503910152614233565b1561428557565b60405162461bcd60e51b815260206004820152601360248201527210dbdb9d195cdd081b9bdd081cd95d1d1b1959606a1b6044820152606490fd5b156142c757565b60405162461bcd60e51b8152602060048201526009602482015268139bc81c185e5bdd5d60ba1b6044820152606490fd5b156142ff57565b60405162461bcd60e51b815260206004820152601360248201527213585c9ad95d081b9bdd081c995cdbdb1d9959606a1b6044820152606490fd5b1561434157565b60405162461bcd60e51b815260206004820152601360248201527222b73a393c903bb0b9903bb4ba34323930bbb760691b6044820152606490fd5b1561438357565b60405162461bcd60e51b81526020600482015260096024820152684e6f20746f6b656e7360b81b6044820152606490fd5b156143bb57565b60405162461bcd60e51b81526020600482015260096024820152684e6f20737570706c7960b81b6044820152606490fd5b9081602091031261040c575190565b1561440257565b60405162461bcd60e51b815260206004820152601f60248201527f436f6e7465737420736574746c6564202d2063616e6e6f742063616e63656c006044820152606490fd5b1561444e57565b60405162461bcd60e51b815260206004820152600f60248201526e105b1c9958591e481cd95d1d1b1959608a1b6044820152606490fd5b1561448c57565b60405162461bcd60e51b81526020600482015260116024820152704e6f742077696e6e696e6720656e74727960781b6044820152606490fd5b3561055f816103fb565b156144d657565b60405162461bcd60e51b8152602060048201526012602482015271115e1c1a5c9e481b9bdd081c995858da195960721b6044820152606490fd5b1561451757565b60405162461bcd60e51b815260206004820152600d60248201526c092dcecc2d8d2c840d2dcc8caf609b1b6044820152606490fdfea26469706673582212203355d6be7c838e3a2d93df3353edfaddf2dd7a1cd7ff5c66fb90ff6a0382097564736f6c63430008140033a2646970667358221220e3beff532b7d3e95393cb65bc6dd68f21d1ba39f623cd601bda6e6ab22c2bf4864736f6c63430008140033","linkReferences":{}},"methodIdentifiers":{"LIQUIDITY_MULTIPLIER()":"5e344ce6","contestHost(address)":"34dd7a2e","contests(uint256)":"9d7ed738","createContest(address,address,uint256,uint256,uint256,uint256,uint256,uint256,uint256)":"8740a5f5","getContestCount()":"64c3c166","getContests()":"bfaba76a"},"id":47}