{"abi":[{"type":"function","name":"LIQUIDITY_MULTIPLIER","inputs":[],"outputs":[{"name":"","type":"uint256","internalType":"uint256"}],"stateMutability":"view"},{"type":"function","name":"contestHost","inputs":[{"name":"","type":"address","internalType":"address"}],"outputs":[{"name":"","type":"address","internalType":"address"}],"stateMutability":"view"},{"type":"function","name":"contests","inputs":[{"name":"","type":"uint256","internalType":"uint256"}],"outputs":[{"name":"","type":"address","internalType":"address"}],"stateMutability":"view"},{"type":"function","name":"createContest","inputs":[{"name":"paymentToken","type":"address","internalType":"address"},{"name":"oracle","type":"address","internalType":"address"},{"name":"contestantDepositAmount","type":"uint256","internalType":"uint256"},{"name":"oracleFee","type":"uint256","internalType":"uint256"},{"name":"expiry","type":"uint256","internalType":"uint256"},{"name":"liquidityParameterOverride","type":"uint256","internalType":"uint256"},{"name":"demandSensitivity","type":"uint256","internalType":"uint256"},{"name":"positionBonusShareBps","type":"uint256","internalType":"uint256"},{"name":"targetPrimaryShareBps","type":"uint256","internalType":"uint256"},{"name":"maxCrossSubsidyBps","type":"uint256","internalType":"uint256"}],"outputs":[{"name":"","type":"address","internalType":"address"}],"stateMutability":"nonpayable"},{"type":"function","name":"getContestCount","inputs":[],"outputs":[{"name":"","type":"uint256","internalType":"uint256"}],"stateMutability":"view"},{"type":"function","name":"getContests","inputs":[],"outputs":[{"name":"","type":"address[]","internalType":"address[]"}],"stateMutability":"view"},{"type":"event","name":"ContestCreated","inputs":[{"name":"contest","type":"address","indexed":true,"internalType":"address"},{"name":"host","type":"address","indexed":true,"internalType":"address"},{"name":"contestantDepositAmount","type":"uint256","indexed":false,"internalType":"uint256"}],"anonymous":false}],"bytecode":{"object":"0x608080604052346100165761520b908161001c8239f35b600080fdfe608060408181526004918236101561001657600080fd5b600090813560e01c90816334dd7a2e1461037a575080635e344ce61461035e57806364c3c166146103415780639d7ed73814610301578063b536b19d146101555763bfaba76a1461006657600080fd5b3461015257806003193601126101525781518091805493848352602080930180958380527f290decd9548b62a8d60345a988386fc84ba6bc95484008f6362f93160ef3e56390845b868282106101355750505050849003601f01601f191684019567ffffffffffffffff871185881017610122575085815282865292518583018190528594938501939290915b82811061010257505050500390f35b83516001600160a01b0316855286955093810193928101926001016100f3565b634e487b7160e01b835260419052602482fd5b83546001600160a01b0316855290930192600192830192016100ae565b80fd5b5090346102fd576101409182600319360112610152576101736103b2565b9060243560018060a01b03948582168092036102f9576044359360a43580156102d4575b865193614dbe928386019386851067ffffffffffffffff8611176102c15786949392918b91620004188739168352602083015286888301526064356060830152608435608083015260a082015260c43560c082015260e43560e0820152610104356101008201526101243561012082015203019082f080156102b5578416938154680100000000000000008110156102a257602096509061023f8260018795940184556103cd565b819291549060031b9188831b921b19161790558481526001865220336bffffffffffffffffffffffff60a01b8254161790558151908152827f0930d90e589f3eb61818e12c03f3b7838099abcb975a02054dc58e1fe7cddf0f853393a351908152f35b634e487b7160e01b835260418752602483fd5b508251903d90823e3d90fd5b634e487b7160e01b885260418c52602488fd5b506064850285810460641486151761019757634e487b7160e01b855260118952602485fd5b8280fd5b5080fd5b5091346102f95760203660031901126102f95735918054831015610152575061032b6020926103cd565b905491519160018060a01b039160031b1c168152f35b5090346102fd57816003193601126102fd57602091549051908152f35b5090346102fd57816003193601126102fd576020905160648152f35b905082346102f95760203660031901126102f9576020926001600160a01b039190826103a46103b2565b168152600185522054168152f35b600435906001600160a01b03821682036103c857565b600080fd5b906000918254811015610403578280527f290decd9548b62a8d60345a988386fc84ba6bc95484008f6362f93160ef3e563019190565b634e487b7160e01b83526032600452602483fdfe6101c034620005bf57601f62004dbe38819003918201601f1916830192916001600160401b03919082851184861017620005a9578084926040968752833961014091829181010312620005bf576200005783620005c4565b9360209162000068838601620005c4565b91808601516060870151608088015160a08901519160c08a01519360e08b0151976101009c8d8d01519a610120809e01519c8951908282019082821090821117620005a9578a526000809152600254906001918281811c911680156200059e575b848210146200058a57601f81116200055b575b506002556003556001600160a01b039182169182156200051757831615620004e3578315620004a0576103e885116200045d574286111562000429578615620003e657612710808911620003a257808c116200035e57808d116200031a578d11620002d7575060805260a05260c05260e0528952875282526101609283526101809384526101a094855260ff196004541660045551946147e49687620005da8839608051878181610a5e01528181610cdb0152818161160d0152818161184c01528181611a4b01528181611cec01528181611fef015281816123d6015281816127a9015281816129ca0152612eb7015260a0518781816106340152818161072101528181610aca015281816110060152818161171801528181611806015281816118c501528181611c6f015281816122ae015281816126450152612c94015260c05187818161198e01528181611b510152612947015260e051878181611314015281816114f1015281816119b8015281816129710152612da9015251868181611bc401528181611cb001528181611eeb01526128cf015251858181610b4301526146730152518481816113c6015261464c01525183818161153d015281816125850152612def0152518281816125de0152818161448201526145a7015251818181611e92015281816144d30152818161452a01526145e10152f35b60649089519062461bcd60e51b82526004820152601360248201527f496e76616c6964207375627369647920636170000000000000000000000000006044820152fd5b895162461bcd60e51b815260048101839052601460248201527f496e76616c69642074617267657420726174696f0000000000000000000000006044820152606490fd5b895162461bcd60e51b815260048101839052601c60248201527f496e76616c696420706f736974696f6e20626f6e7573207368617265000000006044820152606490fd5b895162461bcd60e51b815260048101839052601a60248201527f496e76616c69642064656d616e642073656e73697469766974790000000000006044820152606490fd5b60649089519062461bcd60e51b82526004820152601b60248201527f496e76616c6964206c697175696469747920706172616d6574657200000000006044820152fd5b60649089519062461bcd60e51b82526004820152600e60248201526d115e1c1a5c9e481a5b881c185cdd60921b6044820152fd5b60649089519062461bcd60e51b82526004820152601360248201527f4f7261636c652066656520746f6f2068696768000000000000000000000000006044820152fd5b60649089519062461bcd60e51b82526004820152601660248201527f496e76616c6964206465706f73697420616d6f756e74000000000000000000006044820152fd5b60649089519062461bcd60e51b82526004820152600e60248201526d496e76616c6964206f7261636c6560901b6044820152fd5b895162461bcd60e51b815260048101839052601560248201527f496e76616c6964207061796d656e7420746f6b656e00000000000000000000006044820152606490fd5b6002825282601f858420920160051c8201915b8281106200057e575050620000dc565b8381550183906200056e565b634e487b7160e01b82526022600452602482fd5b90607f1690620000c9565b634e487b7160e01b600052604160045260246000fd5b600080fd5b51906001600160a01b0382168203620005bf5756fe6080604052600436101561001257600080fd5b60003560e01c8062fdd58e146103d657806301ffc9a7146103d15780630e89341c146103cc5780631db0e667146103c7578063219200f9146103c257806324f9cc4c146103bd5780632eb2c2d6146103b85780633013ce29146103b35780633789a2fb146103ae5780633a2babc2146103a95780633a69a1be146103a45780634034b0601461039f5780634e1273f41461039a5780634ee837a6146103955780634fd3495014610390578063563930e71461038b5780635c76fda714610386578063655984f3146103815780636932b3821461037c578063693b46601461037757806374d342141461037257806375f250061461036d5780637680a51e146103685780637ae45fe3146103635780637dc0d1d01461035e5780637e8f123414610359578063829e4c6414610354578063933b12821461034f57806395082d251461034a5780639a9a5d9d14610345578063a01e4a1f14610340578063a094c6321461033b578063a22cb46514610336578063a5b3f3f614610331578063a7e2bc541461032c578063ade6e2aa14610327578063ae4c8ba914610322578063af19e0d51461031d578063af1d919714610318578063b30906d414610313578063b35635701461030e578063b9937e3014610309578063bf6bbf0914610304578063c19d93fb146102ff578063c53e21e4146102fa578063c8d22700146102f5578063c8d5c1b1146102f0578063c9a496aa146102eb578063cb6381da146102e6578063d09685b0146102e1578063d601eef3146102dc578063d6a74ce0146102d7578063df1ef4c6146102d2578063e1a45218146102cd578063e1db226a146102c8578063e985e9c5146102c3578063ed4af81f146102be578063f242432a146102b9578063fc8c28e1146102b45763fed76325146102af57600080fd5b612ccf565b612c57565b612b32565b612b14565b612aac565b612845565b612828565b6127f4565b612601565b6125c6565b6125a8565b61256d565b6124e7565b6124bb565b612270565b612244565b61221a565b6121af565b612191565b612165565b612114565b6120e0565b611f31565b611f0e565b611ed3565b611eb5565b611e7a565b611dba565b611c5b565b611bb0565b611b92565b611b74565b611b39565b611b1b565b6118f4565b6118af565b6117ea565b6117cf565b611700565b6113e9565b6113ae565b611382565b611337565b6112fc565b610fb3565b610f68565b610f4a565b610e8f565b610b66565b610b2b565b610b05565b610a8d565b610a48565b61091b565b610709565b6106eb565b61061c565b610516565b610454565b6103f1565b6001600160a01b038116036103ec57565b600080fd5b346103ec5760403660031901126103ec576020610439600435610413816103db565b6024356000526000835260406000209060018060a01b0316600052602052604060002090565b54604051908152f35b6001600160e01b03198116036103ec57565b346103ec5760203660031901126103ec57602060043561047381610442565b63ffffffff60e01b16636cdb3d1360e11b81149081156104b1575b81156104a0575b506040519015158152f35b6301ffc9a760e01b14905038610495565b6303a24d0760e21b8114915061048e565b919082519283825260005b8481106104ee575050826000602080949584010152601f8019910116010190565b6020818301810151848301820152016104cd565b9060206105139281815201906104c2565b90565b346103ec576020806003193601126103ec576040519060009060025460019181831c92808316928315610612575b82851084146105fe5784875260208701939081156105df5750600114610585575b6105818661057581880382610823565b60405191829182610502565b0390f35b6002600090815294509192917f405787fa12a823e0f2b7631cc41b3ba8828b3321ca811111fa75cd3aa3bb5ace5b8386106105ce57505050910190506105758261058138610565565b8054858701529482019481016105b3565b60ff1916845250505090151560051b0190506105758261058138610565565b634e487b7160e01b86526022600452602486fd5b93607f1693610544565b346103ec576000806003193601126106e857610662337f00000000000000000000000000000000000000000000000000000000000000006001600160a01b0316146140f4565b60ff6004541660068110156106d45780600361068792141590816106bf575b5061437d565b610698600460ff1981541617600455565b7f9237e8f0d5063a695b8695e82c82bc24d15591de9d04449771a6ea4b128317378180a180f35b600591506106cc816121fa565b141538610681565b634e487b7160e01b82526021600452602482fd5b80fd5b346103ec5760003660031901126103ec576020601054604051908152f35b346103ec576000806003193601126106e85761074f337f00000000000000000000000000000000000000000000000000000000000000006001600160a01b0316146140f4565b60ff6004541660068110156106d4576107a85761076f600654151561412d565b610781600160ff196004541617600455565b7f3927b788a62eb53f7192cd9286f49295f01b938b6afc23aef0af5d035cd853168180a180f35b60405162461bcd60e51b815260206004820152601760248201527f436f6e7465737420616c726561647920737461727465640000000000000000006044820152606490fd5b634e487b7160e01b600052604160045260246000fd5b602081019081106001600160401b0382111761081e57604052565b6107ed565b90601f801991011681019081106001600160401b0382111761081e57604052565b6001600160401b03811161081e5760051b60200190565b81601f820112156103ec5780359161087283610844565b926108806040519485610823565b808452602092838086019260051b8201019283116103ec578301905b8282106108aa575050505090565b8135815290830190830161089c565b6001600160401b03811161081e57601f01601f191660200190565b81601f820112156103ec578035906108eb826108b9565b926108f96040519485610823565b828452602083830101116103ec57816000926020809301838601378301015290565b346103ec5760a03660031901126103ec5760048035610939816103db565b602435610945816103db565b6001600160401b03906044358281116103ec57610965903690860161085b565b906064358381116103ec5761097d903690870161085b565b926084359081116103ec5761099590369087016108d4565b936001600160a01b03808216903382141580610a24575b6109f7578316156109df57156109c8576109c695506130bb565b005b604051626a0d4560e21b8152600081880152602490fd5b604051632bfa23e760e11b8152600081890152602490fd5b6040805163711bec9160e11b815233818b019081526001600160a01b038616602082015290918291010390fd5b50600082815260016020908152604080832033845290915290205460ff16156109ac565b346103ec5760003660031901126103ec576040517f00000000000000000000000000000000000000000000000000000000000000006001600160a01b03168152602090f35b346103ec5760203660031901126103ec577fa2877b861a6a177d8c1a4430a6f8716104652f70e5c8fbd58aa775ef96da4a526020600435610af8337f00000000000000000000000000000000000000000000000000000000000000006001600160a01b0316146140f4565b80601555604051908152a1005b346103ec5760203660031901126103ec576020610b23600435614606565b604051908152f35b346103ec5760003660031901126103ec5760206040517f00000000000000000000000000000000000000000000000000000000000000008152f35b346103ec576020806003193601126103ec5760043590610b846138b3565b610ba46003610b9560045460ff1690565b610b9e816121fa565b14613a25565b610bb8610bb360145460ff1690565b613fd9565b60018060a01b0390610bf082610be8610bdb866000526007602052604060002090565b546001600160a01b031690565b16151561401b565b610c1f33610c08856000526000602052604060002090565b9060018060a01b0316600052602052604060002090565b549182151591610c2e83614075565b610c39848633613e3d565b6000936013548614610c85575b604051858152869033907fe256ef8b7b6eaeb621f7e7ca3b683f124df401cb260bbaccf0540299944b858a9080602081015b0390a36109c66001600355565b9091929350610cbe610ca186600052600d602052604060002090565b54610cad8115156140ad565b610cb9600e5484613ab7565b613aca565b93610e23575b506040516370a0823160e01b8082523060048301527f0000000000000000000000000000000000000000000000000000000000000000938416918381602481865afa908115610dbd57600091610e06575b50808611610dfe575b5084610dc2575b610d3986600052600d602052604060002090565b54610c4657604051908152306004820152908290829060249082905afa918215610dbd57600092610d90575b505080610d74575b8080610c46565b610d8991610d826000600e55565b33906139d6565b3880610d6d565b610daf9250803d10610db6575b610da78183610823565b8101906140e5565b3880610d65565b503d610d9d565b613375565b600e548511610def57610ddf610dda86600e546137f0565b600e55565b610dea8533866139d6565b610d25565b610df96000600e55565b610ddf565b945038610d1e565b610e1d9150843d8611610db657610da78183610823565b38610d15565b610e42610e3a86600052600d602052604060002090565b918254613e24565b905538610cc4565b90815180825260208080930193019160005b828110610e6a575050505090565b835185529381019392810192600101610e5c565b906020610513928181520190610e4a565b346103ec5760403660031901126103ec576004356001600160401b038082116103ec57366023830112156103ec578160040135610ecb81610844565b92610ed96040519485610823565b81845260209160248386019160051b830101913683116103ec57602401905b828210610f3157856024358681116103ec5761058191610f1f610f2592369060040161085b565b90612ff6565b60405191829182610e7e565b8380918335610f3f816103db565b815201910190610ef8565b346103ec5760003660031901126103ec576020600554604051908152f35b346103ec5760003660031901126103ec576020610b23614770565b9181601f840112156103ec578235916001600160401b0383116103ec576020808501948460051b0101116103ec57565b346103ec5760403660031901126103ec576001600160401b036004358181116103ec57610fe4903690600401610f83565b90916024359081116103ec57610ffe903690600401610f83565b9290611034337f00000000000000000000000000000000000000000000000000000000000000006001600160a01b0316146140f4565b61103c6138b3565b61106661104b60045460ff1690565b611054816121fa565b600181149081156112e8575b50614166565b6110718315156141b2565b61107c8484146141fe565b61108a600654841115614242565b6000805b8581106112ad57506127106110a391146142e6565b6110b5600360ff196004541617600455565b6110c4600854600954906132ca565b60005b8481106112665750506110e36110dd8484614281565b35601355565b6110f5600160ff196014541617601455565b61110b601354600052600d602052604060002090565b54600e5490811515908161125d575b50611160575b507f0fed27f5e3cd741c181cc0d3b0c47df2013638faa8b7aa7084de3946098eb78e936111539160405194859485614356565b0390a16109c66001600355565b61116a6000600e55565b6000805b8581106111eb57509181837f0fed27f5e3cd741c181cc0d3b0c47df2013638faa8b7aa7084de3946098eb78e979361115395106111b0575b5050915093611120565b6111b9916137f0565b6111e26111da6111c98888614281565b35600052600b602052604060002090565b9182546132ca565b905538806111a6565b906111f782878761428a565b359161121961121161120a838b8961428a565b3586613ab7565b612710900490565b80611230575b5061122b919250612fc9565b61116e565b6112546111da6112438361122b966132ca565b95600052600b602052604060002090565b9055829161121f565b9050153861111a565b806112756112a892878761428a565b356112a261129161121161128a858c8a61428a565b3587613ab7565b91600052600b602052604060002090565b55612fc9565b6110c7565b906112dd6112e3916112cb6112c3858a8861428a565b35151561429a565b6112d684898761428a565b35906132ca565b91612fc9565b61108e565b600291506112f5816121fa565b1438611060565b346103ec5760003660031901126103ec5760206040517f00000000000000000000000000000000000000000000000000000000000000008152f35b346103ec5760403660031901126103ec57600435611354816103db565b60018060a01b0316600052601260205260406000206024356000526020526020604060002054604051908152f35b346103ec5760203660031901126103ec57600435600052600d6020526020604060002054604051908152f35b346103ec5760003660031901126103ec5760206040517f00000000000000000000000000000000000000000000000000000000000000008152f35b346103ec5760403660031901126103ec576024356004356114086138b3565b61143061141760045460ff1690565b611420816121fa565b80159081156116ec575b50613d39565b600081815260076020526040902061145c906001600160a01b039061145490610bdb565b161515613d9e565b611467821515613b96565b61148b8261148333610c08856000526000602052604060002090565b541015613de1565b6114a333610c08836000526000602052604060002090565b54906114e282610cb9856114dc856114cd3360018060a01b03166000526011602052604060002090565b90600052602052604060002090565b54613ab7565b926115916115316127106115167f000000000000000000000000000000000000000000000000000000000000000088613ab7565b0461152b611526826005546137f0565b600555565b866137f0565b936115696115626112117f000000000000000000000000000000000000000000000000000000000000000088613ab7565b80966137f0565b94806116b1575b50336000908152601260205260409020610cb99084906114dc9087906114cd565b928084116116a9575b6115d8916115ab85610dda936137f0565b906115b7818633613e3d565b6115ce610e3a86600052600d602052604060002090565b9055600e546137f0565b3360009081526011602052604090206115f29082906114cd565b6115fd8482546137f0565b905581611669575b8261163181337f00000000000000000000000000000000000000000000000000000000000000006139d6565b60405190815233907f9ab0480f2900ac3d2b39009247d33515552abee0ba84caa8a3f1c6435fbb266e90602090a26109c66001600355565b6116986116a09161168461167f856009546137f0565b600955565b3360009081526012602052604090206114cd565b9182546137f0565b90553880611605565b92508261159a565b6116e16116e6916116cc87600052600f602052604060002090565b6116d78282546137f0565b90556010546137f0565b601055565b38611570565b600491506116f9816121fa565b143861142a565b346103ec576000806003193601126106e857611746337f00000000000000000000000000000000000000000000000000000000000000006001600160a01b0316146140f4565b60ff6004541660068110156106d4576001036117955761176e600260ff196004541617600455565b7fca4f15905dfed40aa7885e1be889ff7da045bd49fc916c3a40cf8b0a3db7636a8180a180f35b60405162461bcd60e51b8152602060048201526012602482015271436f6e74657374206e6f742061637469766560701b6044820152606490fd5b346103ec5760003660031901126103ec576020610b2361454f565b346103ec576000806003193601126106e8576118046138b3565b7f0000000000000000000000000000000000000000000000000000000000000000611839336001600160a01b038316146140f4565b60055480156118785761187091836005557f00000000000000000000000000000000000000000000000000000000000000006139d6565b600160035580f35b60405162461bcd60e51b815260206004820152600f60248201526e4e6f2066656520746f20636c61696d60881b6044820152606490fd5b346103ec5760003660031901126103ec576040517f00000000000000000000000000000000000000000000000000000000000000006001600160a01b03168152602090f35b346103ec5760203660031901126103ec576004356119106138b3565b61193861191f60045460ff1690565b611928816121fa565b8015908115611b07575b50613933565b611962611952610bdb836000526007602052604060002090565b6001600160a01b03163314613998565b611989611979826000526007602052604060002090565b80546001600160a01b0319169055565b611a6f7f00000000000000000000000000000000000000000000000000000000000000006119f36127106119dd7f000000000000000000000000000000000000000000000000000000000000000084613ab7565b046119ed611526826005546137f0565b826137f0565b611a25611a20611a18611a1087600052600a602052604060002090565b5480946137f0565b6008546137f0565b600855565b80611adb575b50611a4083600052600f602052604060002090565b5480611aa0575b50337f00000000000000000000000000000000000000000000000000000000000000006139d6565b33907fa11660be5ca5ef93a56a1f22e4de3d92bcb1727897a5e70a7262c26e256f3a40600080a36109c66001600355565b611a20611ad5916000611abd87600052600f602052604060002090565b55611acd6116e1826010546137f0565b6008546132ca565b38611a47565b610dda611b01916000611af887600052600a602052604060002090565b55600e546137f0565b38611a2b565b60049150611b14816121fa565b1438611932565b346103ec5760003660031901126103ec576020600e54604051908152f35b346103ec5760003660031901126103ec5760206040517f00000000000000000000000000000000000000000000000000000000000000008152f35b346103ec5760003660031901126103ec576020604051620f42408152f35b346103ec5760003660031901126103ec576020601554604051908152f35b346103ec576000806003193601126106e8577f00000000000000000000000000000000000000000000000000000000000000004210611c2857610687611bf860045460ff1690565b611c01816121fa565b60038114159081611c13575b5061440a565b60059150611c20816121fa565b141538611c0d565b60405162461bcd60e51b815260206004820152600b60248201526a139bdd08195e1c1a5c995960aa1b6044820152606490fd5b346103ec576000806003193601126106e8577f00000000000000000000000000000000000000000000000000000000000000006001600160a01b03611ca333828416146140f4565b611cab6138b3565b611cd77f00000000000000000000000000000000000000000000000000000000000000004210156143c9565b6040516370a0823160e01b81523060048201527f00000000000000000000000000000000000000000000000000000000000000009290916020908390602490829087165afa918215610dbd578492611d9a575b5081611d3f575b83611d3c6001600355565b80f35b611d48926139d6565b611d526000600e55565b611d5c6000600555565b611d6e600560ff196004541617600455565b7fef19c40e684c836035e6598f5d86819dfec89371571efdeed7947339739711438180a1388080611d31565b611db391925060203d8111610db657610da78183610823565b9038611d2a565b346103ec5760403660031901126103ec57600435611dd7816103db565b60243590811515908183036103ec576001600160a01b038116928315611e6257611e23611e349233600052600160205260406000209060018060a01b0316600052602052604060002090565b9060ff801983541691151516179055565b6040519081527f17307eab39ab6107e8899845ad3d59bd9653f200f220920489ca2b5937696c3160203392a3005b60405162ced3e160e81b815260006004820152602490fd5b346103ec5760003660031901126103ec5760206040517f00000000000000000000000000000000000000000000000000000000000000008152f35b346103ec5760003660031901126103ec576020600954604051908152f35b346103ec5760003660031901126103ec5760206040517f00000000000000000000000000000000000000000000000000000000000000008152f35b346103ec5760003660031901126103ec57602060ff601454166040519015158152f35b346103ec5760203660031901126103ec57600435611f4d6138b3565b611f5e6003610b9560045460ff1690565b611f78611952610bdb836000526007602052604060002090565b611f8c81600052600b602052604060002090565b54611fa182600052600f602052604060002090565b5490611fad82826132ca565b91611fb9831515613a67565b6000848152600b6020526040812055806120b4575b5060085490611fdf600954836132ca565b80612046575b50505061201381337f00000000000000000000000000000000000000000000000000000000000000006139d6565b60405190815233907e89742e8fcde5f6c48a17ec50347f2b2d98d85a17abe162b4cd552516f752dd908060208101610c78565b61205761205e91610cb98585613ab7565b80926137f0565b9181116120a457611a20612074916008546137f0565b60095481116120945761167f61208c916009546137f0565b388080611fe5565b5061209f6000600955565b61208c565b506120af6000600855565b612074565b6116e16120da9160006120d187600052600f602052604060002090565b556010546137f0565b38611fce565b346103ec5760003660031901126103ec576020601354604051908152f35b634e487b7160e01b600052603260045260246000fd5b346103ec5760203660031901126103ec576004356006548110156103ec5760209060066000527ff652222313e28459528d920b65115c16c04f3efc82aaedc97be59f3f377c0d3f0154604051908152f35b346103ec5760203660031901126103ec57600435600052600a6020526020604060002054604051908152f35b346103ec5760003660031901126103ec576020600854604051908152f35b346103ec5760403660031901126103ec576004356121cc816103db565b60018060a01b0316600052601160205260406000206024356000526020526020604060002054604051908152f35b6006111561220457565b634e487b7160e01b600052602160045260246000fd5b346103ec5760003660031901126103ec5760ff600454166040516006821015612204576020918152f35b346103ec5760203660031901126103ec57600435600052600f6020526020604060002054604051908152f35b346103ec5760203660031901126103ec576004356001600160401b0381116103ec576122a0903690600401610f83565b6001600160a01b036122d5337f00000000000000000000000000000000000000000000000000000000000000008316146140f4565b6122dd6138b3565b6122ee6003610b9560045460ff1690565b60005b828110612302576109c66001600355565b8061231161238092858761428a565b35612329610bdb826000526007602052604060002090565b848116906123388215156146da565b61234c83600052600b602052604060002090565b549061236284600052600f602052604060002090565b549161236e83826132ca565b9081612385575b505050505050612fc9565b6122f1565b8161240a936123fa927e89742e8fcde5f6c48a17ec50347f2b2d98d85a17abe162b4cd552516f752dd9660006123c58b600052600b602052604060002090565b5580612498575b5080612418575b507f00000000000000000000000000000000000000000000000000000000000000006139d6565b6040519081529081906020820190565b0390a3388080808080612375565b6008549060096124298154846132ca565b80612437575b5050506123d3565b8361245661244f61246b93610cb96124819888613ab7565b80956137f0565b9360009181811061249157611a2092506137f0565b546000919081811061248a5761167f92506137f0565b3880808061242f565b505061167f565b5050611a20565b6116e16124b59160006120d18d600052600f602052604060002090565b386123cc565b346103ec5760203660031901126103ec57600435600052600b6020526020604060002054604051908152f35b346103ec5760203660031901126103ec576004356006548110156125385760209060066000527ff652222313e28459528d920b65115c16c04f3efc82aaedc97be59f3f377c0d3f0154604051908152f35b60405162461bcd60e51b815260206004820152600d60248201526c092dcecc2d8d2c840d2dcc8caf609b1b6044820152606490fd5b346103ec5760003660031901126103ec5760206040517f00000000000000000000000000000000000000000000000000000000000000008152f35b346103ec5760003660031901126103ec576020600654604051908152f35b346103ec5760003660031901126103ec5760206040517f00000000000000000000000000000000000000000000000000000000000000008152f35b346103ec576040806003193601126103ec576004356001600160401b0381116103ec57612632903690600401610f83565b91602435906001600160a01b0361266c337f00000000000000000000000000000000000000000000000000000000000000008316146140f4565b6126746138b3565b6126856003610b9560045460ff1690565b612694610bb360145460ff1690565b6126a16013548414614726565b6126b583600052600d602052604060002090565b54906126c28215156140ad565b60005b8681106126d6576109c66001600355565b80856126ee6126e9612716948b8b61428a565b614766565b61270681610c08846000526000602052604060002090565b54908161271b575b505050612fc9565b6126c5565b612726828483613e3d565b61273a83600052600d602052604060002090565b612745838254613e24565b905585600e9161275b89610cb985548097613ab7565b938461276a575b50505061270e565b7fe256ef8b7b6eaeb621f7e7ca3b683f124df401cb260bbaccf0540299944b858a93859182116127e3576127a291610dda91546137f0565b6127cd84827f00000000000000000000000000000000000000000000000000000000000000006139d6565b89519384521691602090a3853880858180612762565b50506127ef6000600e55565b6127a2565b346103ec5760203660031901126103ec576004356000526007602052602060018060a01b0360406000205416604051908152f35b346103ec5760003660031901126103ec5760206040516127108152f35b346103ec5760403660031901126103ec576004356024356001600160401b0381116103ec57612878903690600401610f83565b906128816138b3565b61289f61289060045460ff1690565b612899816121fa565b15613641565b60008381526007602052604090206128ca906001600160a01b03906128c390610bdb565b1615613680565b6128f57f000000000000000000000000000000000000000000000000000000000000000042106136c3565b600c549182612a49575b50505061290b81613792565b61294233612923836000526007602052604060002090565b80546001600160a01b0319166001600160a01b03909216919091179055565b6129ee7f00000000000000000000000000000000000000000000000000000000000000006129a66127106129967f000000000000000000000000000000000000000000000000000000000000000084613ab7565b046119ed611526826005546132ca565b6129bf611a20611acd6129b884614448565b80946137f0565b80612a1e575b5030337f00000000000000000000000000000000000000000000000000000000000000006137fd565b337f4a3a30e0139991c1b1492b4364701af9484bb9032a696c2b8c748a1e51f2fd17600080a36109c66001600355565b610dda81612a4392612a3a87600052600a602052604060002090565b55600e546132ca565b386129c5565b612aa492612a9a612a9f936040516020810190612a8f81612a8133856014916bffffffffffffffffffffffff199060601b1681520190565b03601f198101835282610823565b519020933691613701565b6138d6565b61374f565b3880806128ff565b346103ec5760403660031901126103ec57602060ff612b08600435612ad0816103db565b60243590612add826103db565b60018060a01b03166000526001845260406000209060018060a01b0316600052602052604060002090565b54166040519015158152f35b346103ec5760003660031901126103ec576020600c54604051908152f35b346103ec5760a03660031901126103ec57600435612b4f816103db565b602435612b5b816103db565b6084356001600160401b0381116103ec57612b7a9036906004016108d4565b906001600160a01b03838116903382141580612c33575b612c0c57821615612bf35715612bdb576109c692612bd36064356044359160405192600184526020840152604083019160018352606084015260808301604052565b9290916130bb565b604051626a0d4560e21b815260006004820152602490fd5b604051632bfa23e760e11b815260006004820152602490fd5b60405163711bec9160e11b81523360048201526001600160a01b0386166024820152604490fd5b50600082815260016020908152604080832033845290915290205460ff1615612b91565b346103ec5760203660031901126103ec577f1f3ffb5a38f057a21fbb6b9c891954827a2657844fbc0ae99188cce46f059e2b6020600435612cc2337f00000000000000000000000000000000000000000000000000000000000000006001600160a01b0316146140f4565b80600c55604051908152a1005b346103ec5760603660031901126103ec576004356024356044356001600160401b0381116103ec57612d05903690600401610f83565b90612d0e6138b3565b612d36612d1d60045460ff1690565b612d26816121fa565b8015908115612f9f575b50613aea565b6000848152600760205260409020612d62906001600160a01b0390612d5a90610bdb565b161515613b40565b612d6d831515613b96565b6015549182612f5f575b5050507fa00dafed0dbb4c386c4a62b78c2bcbf149dcebfed234ad200c7e6631854d48b0610c78612de4612710612dce7f000000000000000000000000000000000000000000000000000000000000000086613ab7565b04612dde611526826005546132ca565b846137f0565b612e146120576112117f000000000000000000000000000000000000000000000000000000000000000084613ab7565b9080612f29575b50612e286120578261456d565b9080612ef4575b50336000908152601160205260409020612e4a9086906114cd565b612e558582546132ca565b9055612eaf610dda612e72612e6988614606565b610cb985613a9f565b92612e86612e7e613381565b858a33613bf3565b612e9a88600052600d602052604060002090565b612ea5858254613bd7565b9055600e546132ca565b612edb8430337f00000000000000000000000000000000000000000000000000000000000000006137fd565b6040805194855260208501919091523393918291820190565b612f0361167f826009546132ca565b336000908152601260205260409020612f21906111da9088906114cd565b905538612e2f565b6116e1612f5991612f4488600052600f602052604060002090565b612f4f8282546132ca565b90556010546132ca565b38612e1b565b612f9792612a9a612a9f936040516020810190612a8f81612a8133856014916bffffffffffffffffffffffff199060601b1681520190565b388080612d77565b60019150612fac816121fa565b1438612d30565b634e487b7160e01b600052601160045260246000fd5b6000198114612fd85760010190565b612fb3565b8051821015612ff15760209160051b010190565b6120fe565b9190918051835180820361309957505080519061301282610844565b916130206040519384610823565b80835261302f601f1991610844565b0190602091368385013760005b815181101561309157600581901b8281018401519087018401516000908152602081815260408083206001600160a01b039094168352929052205461308c91906130868287612fdd565b52612fc9565b61303c565b509193505050565b604051635b05999160e01b815260048101919091526024810191909152604490fd5b94919091815184519081810361309957505060005b82518110156131c357600581901b83810160209081015191870101516001600160a01b03929186908a851661313c575b61311294821661311757505050612fc9565b6130d0565b61313291610c086111da926000526000602052604060002090565b905538858161270e565b91929390506131598a610c08846000526000602052604060002090565b5483811061318c5791879184613112969594036131848d610c08856000526000602052604060002090565b559450613100565b6040516303dee4c560e01b81526001600160a01b038c16600482015260248101919091526044810184905260648101839052608490fd5b50949193929093600185511460001461326e576020858101518382015160408051928352928201526001600160a01b03838116929086169133917fc3d58168c5ae7397731d063d5bbf3d657854427343f4c083240f7aacaa2d0f6291a45b6001600160a01b038116613237575b5050505050565b845160010361325d5760208061325396015192015192336134be565b3880808080613230565b6132699491923361360a565b613253565b6040516001600160a01b03828116919085169033907f4a39dc06d4c0dbc64b70af90fd698a233a518aa5d07e595d983b8c0526c8f7fb90806132b1888c836132d7565b0390a4613221565b90620f4240918201809211612fd857565b91908201809211612fd857565b90916132ee61051393604084526040840190610e4a565b916020818403910152610e4a565b908160209103126103ec575161051381610442565b909260a0926105139594600180861b03168352600060208401526040830152606082015281608082015201906104c2565b919261051395949160a094600180871b0380921685521660208401526040830152606082015281608082015201906104c2565b6040513d6000823e3d90fd5b6040519061338e82610803565b60008252565b3d156133bf573d906133a5826108b9565b916133b36040519384610823565b82523d6000602084013e565b606090565b9293919093843b6133d6575050505050565b6020916133f9604051948593849363f23a6e6160e01b9889865260048601613311565b038160006001600160a01b0388165af16000918161348e575b506134515782613420613394565b805191908261344a57604051632bfa23e760e11b81526001600160a01b0383166004820152602490fd5b9050602001fd5b6001600160e01b0319160361346b57503880808080613230565b604051632bfa23e760e11b81526001600160a01b03919091166004820152602490fd5b6134b091925060203d81116134b7575b6134a88183610823565b8101906132fc565b9038613412565b503d61349e565b939290949194853b6134d3575b505050505050565b6134f6602093604051958694859463f23a6e6160e01b998a875260048701613342565b038160006001600160a01b0388165af160009181613538575b5061351d5782613420613394565b6001600160e01b0319160361346b57503880808080806134cb565b61355191925060203d81116134b7576134a88183610823565b903861350f565b9261358761051395936135959360018060a01b031686526000602087015260a0604087015260a0860190610e4a565b908482036060860152610e4a565b9160808184039101526104c2565b93906105139593613587916135959460018060a01b03809216885216602087015260a0604087015260a0860190610e4a565b9293919093843b6135e7575050505050565b6020916133f9604051948593849363bc197c8160e01b9889865260048601613558565b939290949194853b61361e57505050505050565b6134f6602093604051958694859463bc197c8160e01b998a8752600487016135a3565b1561364857565b60405162461bcd60e51b815260206004820152601060248201526f21b7b73a32b9ba103737ba1037b832b760811b6044820152606490fd5b1561368757565b60405162461bcd60e51b8152602060048201526014602482015273456e74727920616c72656164792065786973747360601b6044820152606490fd5b156136ca57565b60405162461bcd60e51b815260206004820152600f60248201526e10dbdb9d195cdd08195e1c1a5c9959608a1b6044820152606490fd5b929161370c82610844565b9161371a6040519384610823565b829481845260208094019160051b81019283116103ec57905b8282106137405750505050565b81358152908301908301613733565b1561375657565b60405162461bcd60e51b815260206004820152601460248201527324b73b30b634b21036b2b935b63290383937b7b360611b6044820152606490fd5b6006546801000000000000000081101561081e576001810180600655811015612ff15760066000527ff652222313e28459528d920b65115c16c04f3efc82aaedc97be59f3f377c0d3f0155565b90620f4240918203918211612fd857565b91908203918211612fd857565b6040516323b872dd60e01b60208201526001600160a01b03928316602482015292909116604483015260648083019390935291815260a08101918183106001600160401b0384111761081e5761385592604052613857565b565b906000602091828151910182855af115613375576000513d6138aa57506001600160a01b0381163b155b6138885750565b604051635274afe760e01b81526001600160a01b039091166004820152602490fd5b60011415613881565b6002600354146138c4576002600355565b604051633ee5aeb560e01b8152600490fd5b929091906000915b845183101561392b576138f18386612fdd565b5190600082821015613919575060005260205261391360406000205b92612fc9565b916138de565b6040916139139382526020522061390d565b915092501490565b1561393a57565b60405162461bcd60e51b815260206004820152603060248201527f43616e6e6f74207769746864726177202d20636f6e7465737420696e2070726f60448201526f19dc995cdcc81bdc881cd95d1d1b195960821b6064820152608490fd5b1561399f57565b60405162461bcd60e51b815260206004820152600f60248201526e2737ba1032b73a393c9037bbb732b960891b6044820152606490fd5b60405163a9059cbb60e01b60208201526001600160a01b03909216602483015260448083019390935291815260808101916001600160401b0383118284101761081e5761385592604052613857565b15613a2c57565b60405162461bcd60e51b815260206004820152601360248201527210dbdb9d195cdd081b9bdd081cd95d1d1b1959606a1b6044820152606490fd5b15613a6e57565b60405162461bcd60e51b8152602060048201526009602482015268139bc81c185e5bdd5d60ba1b6044820152606490fd5b90620f424091828102928184041490151715612fd857565b81810292918115918404141715612fd857565b8115613ad4570490565b634e487b7160e01b600052601260045260246000fd5b15613af157565b60405162461bcd60e51b815260206004820152602160248201527f5365636f6e6461727920706f736974696f6e73206e6f7420617661696c61626c6044820152606560f81b6064820152608490fd5b15613b4757565b60405162461bcd60e51b815260206004820152602160248201527f456e74727920646f6573206e6f74206578697374206f722077697468647261776044820152603760f91b6064820152608490fd5b15613b9d57565b60405162461bcd60e51b81526020600482015260126024820152710416d6f756e74206d757374206265203e20360741b6044820152606490fd5b91909160008382019384129112908015821691151617612fd857565b6001600160a01b03811693929091908415612bf357613c2f60405192600184526020840152604083019160018352606084015260808301604052565b92815184519081810361309957505060005b8251811015613c865780613c819160051b613c7a6111da87610c08602080868b010151958c010151946000526000602052604060002090565b9055612fc9565b613c41565b509291936001825114600014613cfd5760208281015184820151604080519283529282015260009133917fc3d58168c5ae7397731d063d5bbf3d657854427343f4c083240f7aacaa2d0f629190a45b8051600103613cf357906020806138559593015191015191336133c4565b61385593336135d5565b60006040517f4a39dc06d4c0dbc64b70af90fd698a233a518aa5d07e595d983b8c0526c8f7fb339180613d318888836132d7565b0390a4613cd5565b15613d4057565b60405162461bcd60e51b815260206004820152603060248201527f43616e6e6f74207769746864726177202d20636f6d7065746974696f6e20737460448201526f185c9d1959081bdc881cd95d1d1b195960821b6064820152608490fd5b15613da557565b60405162461bcd60e51b8152602060048201526014602482015273115b9d1c9e48191bd95cc81b9bdd08195e1a5cdd60621b6044820152606490fd5b15613de857565b60405162461bcd60e51b8152602060048201526014602482015273496e73756666696369656e742062616c616e636560601b6044820152606490fd5b81810392916000138015828513169184121617612fd857565b6001600160a01b038116929091908315612bdb57613e7860405192600184526020840152604083019160018352606084015260808301604052565b919060409460008651613e8a81610803565b528151845190818103613fb857505060005b8251811015613f31578060051b60208082860101519187010151613ece86610c08846000526000602052604060002090565b54818110613efb5786610c08613ef69594936112a29303936000526000602052604060002090565b613e9c565b89516303dee4c560e01b81526001600160a01b038816600482015260248101919091526044810182905260648101839052608490fd5b50949060009493925060018151148514613f865760209081015192810151915192835282015233907fc3d58168c5ae7397731d063d5bbf3d657854427343f4c083240f7aacaa2d0f629080604081015b0390a4565b905133927f4a39dc06d4c0dbc64b70af90fd698a233a518aa5d07e595d983b8c0526c8f7fb928291613f8191836132d7565b8751635b05999160e01b815260048101919091526024810191909152604490fd5b15613fe057565b60405162461bcd60e51b815260206004820152601360248201527213585c9ad95d081b9bdd081c995cdbdb1d9959606a1b6044820152606490fd5b1561402257565b60405162461bcd60e51b815260206004820152602560248201527f456e74727920646f6573206e6f74206578697374206f72207761732077697468604482015264323930bbb760d91b6064820152608490fd5b1561407c57565b60405162461bcd60e51b81526020600482015260096024820152684e6f20746f6b656e7360b81b6044820152606490fd5b156140b457565b60405162461bcd60e51b81526020600482015260096024820152684e6f20737570706c7960b81b6044820152606490fd5b908160209103126103ec575190565b156140fb57565b60405162461bcd60e51b815260206004820152600a6024820152694e6f74206f7261636c6560b01b6044820152606490fd5b1561413457565b60405162461bcd60e51b815260206004820152600a6024820152694e6f20656e747269657360b01b6044820152606490fd5b1561416d57565b60405162461bcd60e51b815260206004820152601c60248201527f436f6e74657374206e6f7420616374697665206f72206c6f636b6564000000006044820152606490fd5b156141b957565b60405162461bcd60e51b815260206004820152601d60248201527f4d7573742068617665206174206c65617374206f6e652077696e6e65720000006044820152606490fd5b1561420557565b60405162461bcd60e51b8152602060048201526015602482015274082e4e4c2f240d8cadccee8d040dad2e6dac2e8c6d605b1b6044820152606490fd5b1561424957565b60405162461bcd60e51b815260206004820152601060248201526f546f6f206d616e792077696e6e65727360801b6044820152606490fd5b9015612ff15790565b9190811015612ff15760051b0190565b156142a157565b60405162461bcd60e51b815260206004820152601960248201527f557365206e6f6e2d7a65726f207061796f757473206f6e6c79000000000000006044820152606490fd5b156142ed57565b60405162461bcd60e51b815260206004820152601860248201527f5061796f757473206d7573742073756d20746f203130302500000000000000006044820152606490fd5b81835290916001600160fb1b0383116103ec5760209260051b809284830137010190565b929061436f906105139593604086526040860191614332565b926020818503910152614332565b1561438457565b60405162461bcd60e51b815260206004820152601f60248201527f436f6e7465737420736574746c6564202d2063616e6e6f742063616e63656c006044820152606490fd5b156143d057565b60405162461bcd60e51b8152602060048201526012602482015271115e1c1a5c9e481b9bdd081c995858da195960721b6044820152606490fd5b1561441157565b60405162461bcd60e51b815260206004820152600f60248201526e105b1c9958591e481cd95d1d1b1959608a1b6044820152606490fd5b80158015614527575b6145215761445d61454f565b600e548101808211612fd85782614473916132ca565b8015614519576112116144a7917f000000000000000000000000000000000000000000000000000000000000000090613ab7565b806144b284846132ca565b1115614519576144c5836144ca936132ca565b6137f0565b906144f86112117f000000000000000000000000000000000000000000000000000000000000000083613ab7565b808311614511575b5080821161450c575090565b905090565b915038614500565b505050600090565b50600090565b507f000000000000000000000000000000000000000000000000000000000000000015614451565b6008546009548101809111612fd8576010548101809111612fd85790565b801580156145de575b6145215761458261454f565b600e548101808211612fd85782614598916132ca565b8015614519576112116145cc917f000000000000000000000000000000000000000000000000000000000000000090613ab7565b9080821115614519576144ca916137f0565b507f000000000000000000000000000000000000000000000000000000000000000015614576565b60008181526007602052604081205490919061462c906001600160a01b03161515613b40565b8152600d602052604081205481811291826146c15750614671614698915b7f000000000000000000000000000000000000000000000000000000000000000090613ab7565b7f000000000000000000000000000000000000000000000000000000000000000090613aca565b90806146b5575b6146ac57610513906132b9565b610513906137df565b50620f4240811061469f565b600160ff1b8214612fd85761469891614671910361464a565b156146e157565b60405162461bcd60e51b815260206004820152601a60248201527f456e7472792077697468647261776e206f7220696e76616c69640000000000006044820152606490fd5b1561472d57565b60405162461bcd60e51b81526020600482015260116024820152704e6f742077696e6e696e6720656e74727960781b6044820152606490fd5b35610513816103db565b61477861454f565b600e548101808211612fd85780156147a75761271091828102928184041490151715612fd85761051391613aca565b505060009056fea2646970667358221220e6c90a462ff0e6195a432afee8aeef714ace1eb592e79e918a8b61aeb229d6ba64736f6c63430008140033a2646970667358221220640b85db9fb8e9e521add9bdeb1f7f509178d01bdaadc09428f1c20abc5caf4164736f6c63430008140033","linkReferences":{}},"methodIdentifiers":{"LIQUIDITY_MULTIPLIER()":"5e344ce6","contestHost(address)":"34dd7a2e","contests(uint256)":"9d7ed738","createContest(address,address,uint256,uint256,uint256,uint256,uint256,uint256,uint256,uint256)":"b536b19d","getContestCount()":"64c3c166","getContests()":"bfaba76a"},"id":47}