{"abi":[{"type":"function","name":"contestHost","inputs":[{"name":"","type":"address","internalType":"address"}],"outputs":[{"name":"","type":"address","internalType":"address"}],"stateMutability":"view"},{"type":"function","name":"contests","inputs":[{"name":"","type":"uint256","internalType":"uint256"}],"outputs":[{"name":"","type":"address","internalType":"address"}],"stateMutability":"view"},{"type":"function","name":"createContest","inputs":[{"name":"paymentToken","type":"address","internalType":"address"},{"name":"oracle","type":"address","internalType":"address"},{"name":"contestantDepositAmount","type":"uint256","internalType":"uint256"},{"name":"oracleFee","type":"uint256","internalType":"uint256"},{"name":"expiry","type":"uint256","internalType":"uint256"},{"name":"liquidityParameter","type":"uint256","internalType":"uint256"},{"name":"demandSensitivity","type":"uint256","internalType":"uint256"}],"outputs":[{"name":"","type":"address","internalType":"address"}],"stateMutability":"nonpayable"},{"type":"function","name":"getContestCount","inputs":[],"outputs":[{"name":"","type":"uint256","internalType":"uint256"}],"stateMutability":"view"},{"type":"function","name":"getContests","inputs":[],"outputs":[{"name":"","type":"address[]","internalType":"address[]"}],"stateMutability":"view"},{"type":"event","name":"ContestCreated","inputs":[{"name":"contest","type":"address","indexed":true,"internalType":"address"},{"name":"host","type":"address","indexed":true,"internalType":"address"},{"name":"contestantDepositAmount","type":"uint256","indexed":false,"internalType":"uint256"}],"anonymous":false}],"bytecode":{"object":"0x608060405234801561001057600080fd5b50613fd3806100206000396000f3fe608060405234801561001057600080fd5b50600436106100575760003560e01c806334dd7a2e1461005c57806364c3c166146100a25780639d7ed738146100b3578063bfaba76a146100c6578063fa62a7fc146100db575b600080fd5b61008561006a3660046102b7565b6001602052600090815260409020546001600160a01b031681565b6040516001600160a01b0390911681526020015b60405180910390f35b600054604051908152602001610099565b6100856100c13660046102d9565b6100ee565b6100ce610118565b60405161009991906102f2565b6100856100e936600461033f565b61017a565b600081815481106100fe57600080fd5b6000918252602090912001546001600160a01b0316905081565b6060600080548060200260200160405190810160405280929190818152602001828054801561017057602002820191906000526020600020905b81546001600160a01b03168152600190910190602001808311610152575b5050505050905090565b600080888888888888886040516101909061028d565b6001600160a01b03978816815296909516602087015260408601939093526060850191909152608084015260a083015260c082015260e001604051809103906000f0801580156101e4573d6000803e3d6000fd5b5060008054600180820183557f290decd9548b62a8d60345a988386fc84ba6bc95484008f6362f93160ef3e56390910180546001600160a01b03199081166001600160a01b038616908117909255818452602092835260409384902080543392168217905592518b8152939450849390917f0930d90e589f3eb61818e12c03f3b7838099abcb975a02054dc58e1fe7cddf0f910160405180910390a39998505050505050505050565b613c00806200039e83390190565b80356001600160a01b03811681146102b257600080fd5b919050565b6000602082840312156102c957600080fd5b6102d28261029b565b9392505050565b6000602082840312156102eb57600080fd5b5035919050565b6020808252825182820181905260009190848201906040850190845b818110156103335783516001600160a01b03168352928401929184019160010161030e565b50909695505050505050565b600080600080600080600060e0888a03121561035a57600080fd5b6103638861029b565b96506103716020890161029b565b96999698505050506040850135946060810135946080820135945060a0820135935060c090910135915056fe6101606040523480156200001257600080fd5b5060405162003c0038038062003c008339810160408190526200003591620002f4565b6040805160208101909152600081526200004f81620002c5565b5060016003556001600160a01b038716620000b15760405162461bcd60e51b815260206004820152601560248201527f496e76616c6964207061796d656e7420746f6b656e000000000000000000000060448201526064015b60405180910390fd5b6001600160a01b038616620000fa5760405162461bcd60e51b815260206004820152600e60248201526d496e76616c6964206f7261636c6560901b6044820152606401620000a8565b600085116200014c5760405162461bcd60e51b815260206004820152601660248201527f496e76616c6964206465706f73697420616d6f756e74000000000000000000006044820152606401620000a8565b6103e8841115620001a05760405162461bcd60e51b815260206004820152601360248201527f4f7261636c652066656520746f6f2068696768000000000000000000000000006044820152606401620000a8565b428311620001e25760405162461bcd60e51b815260206004820152600e60248201526d115e1c1a5c9e481a5b881c185cdd60921b6044820152606401620000a8565b60008211620002345760405162461bcd60e51b815260206004820152601b60248201527f496e76616c6964206c697175696469747920706172616d6574657200000000006044820152606401620000a8565b612710811115620002885760405162461bcd60e51b815260206004820152601a60248201527f496e76616c69642064656d616e642073656e73697469766974790000000000006044820152606401620000a8565b6001600160a01b039687166080529490951660a05260c09290925260e0526101005261012091909152610140526004805460ff19169055620004cc565b6002620002d3828262000400565b5050565b80516001600160a01b0381168114620002ef57600080fd5b919050565b600080600080600080600060e0888a0312156200031057600080fd5b6200031b88620002d7565b96506200032b60208901620002d7565b604089015160608a015160808b015160a08c015160c0909c01519a9d939c50919a90999198509650945092505050565b634e487b7160e01b600052604160045260246000fd5b600181811c908216806200038657607f821691505b602082108103620003a757634e487b7160e01b600052602260045260246000fd5b50919050565b601f821115620003fb57600081815260208120601f850160051c81016020861015620003d65750805b601f850160051c820191505b81811015620003f757828155600101620003e2565b5050505b505050565b81516001600160401b038111156200041c576200041c6200035b565b62000434816200042d845462000371565b84620003ad565b602080601f8311600181146200046c5760008415620004535750858301515b600019600386901b1c1916600185901b178555620003f7565b600085815260208120601f198616915b828110156200049d578886015182559484019460019091019084016200047c565b5085821015620004bc5787850151600019600388901b60f8161c191681555b5050505050600190811b01905550565b60805160a05160c05160e051610100516101205161014051613623620005dd600039600081816104b0015261081e0152600081816103f601526107fa01526000818161059c01528181610f3e0152611bac015260008181610469015281816113440152818161138d015281816114d6015261156b01526000818161033301528181610ffe015281816110610152818161219901526123230152600081816104ed0152818161088c015281816109ba015281816110c7015281816114a701526123b40152600081816103ae01528181610e190152818161103d01528181611485015281816115c70152818161192b01528181611e5401528181611ee001528181612013015261230001526136236000f3fe608060405234801561001057600080fd5b50600436106102895760003560e01c80637bc09bad1161015c578063bf7753a2116100ce578063ea8a1af011610087578063ea8a1af01461062f578063f0014e1314610637578063f1d570671461064a578063f242432a14610653578063fc6cc4a314610666578063fc810d7d1461068657600080fd5b8063bf7753a2146105be578063c19d93fb146105c6578063dfd50f52146105e0578063e1a45218146105f3578063e8f45ab2146105fc578063e985e9c51461061c57600080fd5b806395082d251161012057806395082d2514610557578063a01e4a1f14610561578063a22cb46514610569578063a56964ab1461057c578063a9adb0fd1461058f578063ade6e2aa1461059757600080fd5b80637bc09bad146104db5780637dc0d1d0146104e857806384e0d1b41461050f57806385c6c9591461052f5780638f466eaf1461054f57600080fd5b80632e0ec188116102005780635508bd6b116101b95780635508bd6b146104385780635a701e1e146104415780635c76fda7146104645780636932b3821461048b578063693b4660146104ab5780637b8488ea146104d257600080fd5b80632e0ec188146103835780632eb2c2d6146103965780633013ce29146103a957806332e6190b146103e85780633a69a1be146103f15780634e1273f41461041857600080fd5b806315b197701161025257806315b19770146103145780631765634b146103265780631f85354a1461032e57806322fc1d0a1461035557806326bec2de146103685780632929abe61461037057600080fd5b8062fdd58e1461028e57806301ffc9a7146102b45780630e89341c146102d757806311c5c792146102f757806315ac534d1461030a575b600080fd5b6102a161029c366004612ce3565b61068f565b6040519081526020015b60405180910390f35b6102c76102c2366004612d23565b6106b7565b60405190151581526020016102ab565b6102ea6102e5366004612d47565b610707565b6040516102ab9190612da6565b6102a1610305366004612d47565b61079b565b610312610881565b005b6004546102c790610100900460ff1681565b6103126109af565b6102a17f000000000000000000000000000000000000000000000000000000000000000081565b610312610363366004612db9565b610ad7565b610312610e87565b61031261037e366004612e27565b6110bc565b610312610391366004612db9565b6116f6565b6103126103a4366004612fd9565b611a6e565b6103d07f000000000000000000000000000000000000000000000000000000000000000081565b6040516001600160a01b0390911681526020016102ab565b6102a1600b5481565b6102a17f000000000000000000000000000000000000000000000000000000000000000081565b61042b610426366004613083565b611ad5565b6040516102ab919061317e565b6102a1600f5481565b6102c761044f366004613191565b60066020526000908152604090205460ff1681565b6102a17f000000000000000000000000000000000000000000000000000000000000000081565b6102a1610499366004612d47565b60096020526000908152604090205481565b6102a17f000000000000000000000000000000000000000000000000000000000000000081565b6102a160075481565b6010546102c79060ff1681565b6103d07f000000000000000000000000000000000000000000000000000000000000000081565b6102a161051d366004613191565b600d6020526000908152604090205481565b6102a161053d366004613191565b60086020526000908152604090205481565b6005546102a1565b6102a1620f424081565b610312611baa565b6103126105773660046131ac565b611c98565b61031261058a366004612d47565b611ca3565b610312611f50565b6102a17f000000000000000000000000000000000000000000000000000000000000000081565b610312612082565b6004546105d39060ff1681565b6040516102ab91906131fe565b6103d06105ee366004612d47565b612351565b6102a161271081565b6102a161060a366004613191565b600e6020526000908152604090205481565b6102c761062a366004613226565b61237b565b6103126123a9565b6103d0610645366004612d47565b6123f1565b6102a1600a5481565b610312610661366004613259565b612463565b6102a1610674366004613191565b600c6020526000908152604090205481565b6102a16105dc81565b6000818152602081815260408083206001600160a01b03861684529091529020545b92915050565b60006001600160e01b03198216636cdb3d1360e11b14806106e857506001600160e01b031982166303a24d0760e21b145b806106b157506301ffc9a760e01b6001600160e01b03198316146106b1565b606060028054610716906132be565b80601f0160208091040260200160405190810160405280929190818152602001828054610742906132be565b801561078f5780601f106107645761010080835404028352916020019161078f565b820191906000526020600020905b81548152906001019060200180831161077257829003601f168201915b50505050509050919050565b60055460009082106107c85760405162461bcd60e51b81526004016107bf906132f8565b60405180910390fd5b60008281526009602052604081205490808212156107ee576107e982613337565b6107f0565b815b9050620f424060007f00000000000000000000000000000000000000000000000000000000000000006108437f000000000000000000000000000000000000000000000000000000000000000085613353565b61084d919061336a565b905060008412801561085e57508181105b156108775761086d818361338c565b9695505050505050565b61086d818361339f565b336001600160a01b037f000000000000000000000000000000000000000000000000000000000000000016146108c95760405162461bcd60e51b81526004016107bf906133b2565b600160045460ff1660038111156108e2576108e26131e8565b146109295760405162461bcd60e51b8152602060048201526017602482015276436f6e74657374206e6f7420696e2070726f677265737360481b60448201526064016107bf565b600454610100900460ff166109795760405162461bcd60e51b815260206004820152601660248201527510995d1d1a5b99c8185b1c9958591e4818db1bdcd95960521b60448201526064016107bf565b6004805461ff00191690556040517f61c54c4a156e474ec61fa0166fb08e91674c7e603abf6ff54b7e6dcbb326371d90600090a1565b336001600160a01b037f000000000000000000000000000000000000000000000000000000000000000016146109f75760405162461bcd60e51b81526004016107bf906133b2565b600060045460ff166003811115610a1057610a106131e8565b14610a5d5760405162461bcd60e51b815260206004820152601760248201527f436f6e7465737420616c7265616479207374617274656400000000000000000060448201526064016107bf565b600554610a9d5760405162461bcd60e51b815260206004820152600e60248201526d4e6f20636f6e74657374616e747360901b60448201526064016107bf565b6004805461ffff19166101011790556040517fcb59954cfdb230ea56cd9045215ccaad84ef1801a69a9df32b3404fbc1612d4890600090a1565b610adf6124c2565b600060045460ff166003811115610af857610af86131e8565b1480610b1a5750600160045460ff166003811115610b1857610b186131e8565b145b80610b3b5750600360045460ff166003811115610b3957610b396131e8565b145b610b935760405162461bcd60e51b8152602060048201526024808201527f43616e6e6f742077697468647261772066726f6d20736574746c656420636f6e6044820152631d195cdd60e21b60648201526084016107bf565b600160045460ff166003811115610bac57610bac6131e8565b03610c0857600454610100900460ff16610c085760405162461bcd60e51b815260206004820181905260248201527f42657474696e6720636c6f736564202d2063616e6e6f7420776974686472617760448201526064016107bf565b6005548210610c295760405162461bcd60e51b81526004016107bf906132f8565b60008111610c6e5760405162461bcd60e51b81526020600482015260126024820152710416d6f756e74206d757374206265203e20360741b60448201526064016107bf565b80610c79338461068f565b1015610cbe5760405162461bcd60e51b8152602060048201526014602482015273496e73756666696369656e742062616c616e636560601b60448201526064016107bf565b6000610cca338461068f565b336000908152600e6020526040812054919250908290610ceb908590613353565b610cf5919061336a565b90506000612710610d086105dc84613353565b610d12919061336a565b90506000610d20828461338c565b9050610d2d3387876124ec565b60008681526009602052604081208054879290610d4b9084906133d6565b90915550610d5c905060028361336a565b600b6000828254610d6d919061338c565b90915550610d7e905060028361336a565b600c600060058981548110610d9557610d956133fd565b60009182526020808320909101546001600160a01b0316835282019290925260400181208054909190610dc990849061338c565b9250508190555080600a6000828254610de2919061338c565b9091555050336000908152600e602052604081208054859290610e0690849061338c565b90915550610e4090506001600160a01b037f000000000000000000000000000000000000000000000000000000000000000016338561255b565b60405183815233907f1afd07c523e365fe5caad76bb954272a33ed72374f832943fe8bb4d8484683409060200160405180910390a250505050610e836001600355565b5050565b610e8f6124c2565b600060045460ff166003811115610ea857610ea86131e8565b14610ee85760405162461bcd60e51b815260206004820152601060248201526f21b7b73a32b9ba103737ba1037b832b760811b60448201526064016107bf565b3360009081526006602052604090205460ff1615610f3c5760405162461bcd60e51b8152602060048201526011602482015270105b1c9958591e4819195c1bdcda5d1959607a1b60448201526064016107bf565b7f00000000000000000000000000000000000000000000000000000000000000004210610f9d5760405162461bcd60e51b815260206004820152600f60248201526e10dbdb9d195cdd08195e1c1a5c9959608a1b60448201526064016107bf565b6005805460018181019092557f036b6384b5eca791c62761152d0c79bb0604c104a5fb6f4eb0703f3154bb3db00180546001600160a01b031916339081179091556000908152600660205260408120805460ff1916909217909155600780547f0000000000000000000000000000000000000000000000000000000000000000929061102a90849061339f565b9091555061108590506001600160a01b037f00000000000000000000000000000000000000000000000000000000000000001633307f00000000000000000000000000000000000000000000000000000000000000006125bf565b60405133907fea6307fcf9cf9edb437dc6d37829d9f04a77d6fb28461f9155076d02098566ee90600090a26110ba6001600355565b565b336001600160a01b037f000000000000000000000000000000000000000000000000000000000000000016146111045760405162461bcd60e51b81526004016107bf906133b2565b61110c6124c2565b600160045460ff166003811115611125576111256131e8565b1461116c5760405162461bcd60e51b8152602060048201526017602482015276436f6e74657374206e6f7420696e2070726f677265737360481b60448201526064016107bf565b60055483146111bd5760405162461bcd60e51b815260206004820152601760248201527f57696e6e657273206c656e677468206d69736d6174636800000000000000000060448201526064016107bf565b600554811461120e5760405162461bcd60e51b815260206004820152601760248201527f5061796f757473206c656e677468206d69736d6174636800000000000000000060448201526064016107bf565b6000805b828110156112525783838281811061122c5761122c6133fd565b905060200201358261123e919061339f565b91508061124a81613413565b915050611212565b5061271081146112a45760405162461bcd60e51b815260206004820152601860248201527f5061796f757473206d7573742073756d20746f2031303025000000000000000060448201526064016107bf565b6004805460ff19166002179055600b546007546000916112c39161339f565b90506000805b60055481101561132d57600c6000600583815481106112ea576112ea6133fd565b60009182526020808320909101546001600160a01b03168352820192909252604001902054611319908361339f565b91508061132581613413565b9150506112c9565b50611338818361339f565b915060006127106113697f000000000000000000000000000000000000000000000000000000000000000085613353565b611373919061336a565b90506000611381828561338c565b905060006127106113b27f00000000000000000000000000000000000000000000000000000000000000008261338c565b600b546007546113c2919061339f565b6113cc9190613353565b6113d6919061336a565b905060005b898110156114715760006127108a8a848181106113fa576113fa6133fd565b905060200201358461140c9190613353565b611416919061336a565b905080600860008e8e8681811061142f5761142f6133fd565b90506020020160208101906114449190613191565b6001600160a01b03168152602081019190915260400160002055508061146981613413565b9150506113db565b5082156114cc576114cc6001600160a01b037f0000000000000000000000000000000000000000000000000000000000000000167f00000000000000000000000000000000000000000000000000000000000000008561255b565b60006127106114fb7f00000000000000000000000000000000000000000000000000000000000000008261338c565b6115059087613353565b61150f919061336a565b905060005b60055481101561160557600060058281548110611533576115336133fd565b60009182526020808320909101546001600160a01b0316808352600c90915260409091205490915080156115f05760006127106115907f00000000000000000000000000000000000000000000000000000000000000008261338c565b61159a9084613353565b6115a4919061336a565b6001600160a01b038085166000908152600c60205260408120559091506115ee907f000000000000000000000000000000000000000000000000000000000000000016848361255b565b505b505080806115fd90613413565b915050611514565b5060008b8b600081811061161b5761161b6133fd565b90506020020160208101906116309190613191565b905060005b60055481101561169257816001600160a01b03166005828154811061165c5761165c6133fd565b6000918252602090912001546001600160a01b03160361168057600f819055611692565b8061168a81613413565b915050611635565b506010805460ff191660011790556040517f87390527874bc40d4437d7050c3d9020e6a8a79d8a0c32f616101240b33a8e63906116d6908e908e908e908e9061342c565b60405180910390a150505050505050506116f06001600355565b50505050565b6116fe6124c2565b600060045460ff166003811115611717576117176131e8565b14806117395750600160045460ff166003811115611737576117376131e8565b145b61177d5760405162461bcd60e51b815260206004820152601560248201527442657474696e67206e6f7420617661696c61626c6560581b60448201526064016107bf565b600060045460ff166003811115611796576117966131e8565b14806117a95750600454610100900460ff165b6117e65760405162461bcd60e51b815260206004820152600e60248201526d10995d1d1a5b99c818db1bdcd95960921b60448201526064016107bf565b60055482106118075760405162461bcd60e51b81526004016107bf906132f8565b6000811161184c5760405162461bcd60e51b81526020600482015260126024820152710416d6f756e74206d757374206265203e20360741b60448201526064016107bf565b600061271061185d6105dc84613353565b611867919061336a565b90506000611875828461338c565b905060006118828561079b565b9050600081611894620f424085613353565b61189e919061336a565b90506118ab60028561336a565b600b60008282546118bc919061339f565b909155506118cd905060028561336a565b600c6000600589815481106118e4576118e46133fd565b60009182526020808320909101546001600160a01b031683528201929092526040018120805490919061191890849061339f565b9091555061195390506001600160a01b037f0000000000000000000000000000000000000000000000000000000000000000163330886125bf565b336000908152600e60205260408120805487929061197290849061339f565b92505081905550611994338783604051806020016040528060008152506125f8565b600086815260096020526040812080548392906119b29084906134a8565b9250508190555080600d6000600589815481106119d1576119d16133fd565b60009182526020808320909101546001600160a01b0316835282019290925260400181208054909190611a0590849061339f565b9250508190555082600a6000828254611a1e919061339f565b90915550506040805186815260208101839052879133917f3d516f677e4f650c5678a09cdf06e998bf8e05cbe8d92906362e8589a8f064a5910160405180910390a350505050610e836001600355565b336001600160a01b0386168114801590611a8f5750611a8d868261237b565b155b15611ac05760405163711bec9160e11b81526001600160a01b038083166004830152871660248201526044016107bf565b611acd8686868686612655565b505050505050565b60608151835114611b065781518351604051635b05999160e01b8152600481019290925260248201526044016107bf565b6000835167ffffffffffffffff811115611b2257611b22612e93565b604051908082528060200260200182016040528015611b4b578160200160208202803683370190505b50905060005b8451811015611ba257602080820286010151611b759060208084028701015161068f565b828281518110611b8757611b876133fd565b6020908102919091010152611b9b81613413565b9050611b51565b509392505050565b7f0000000000000000000000000000000000000000000000000000000000000000421015611c085760405162461bcd60e51b815260206004820152600b60248201526a139bdd08195e1c1a5c995960aa1b60448201526064016107bf565b600260045460ff166003811115611c2157611c216131e8565b03611c605760405162461bcd60e51b815260206004820152600f60248201526e105b1c9958591e481cd95d1d1b1959608a1b60448201526064016107bf565b6004805460ff191660031790556040517f9237e8f0d5063a695b8695e82c82bc24d15591de9d04449771a6ea4b1283173790600090a1565b610e833383836126b5565b611cab6124c2565b600260045460ff166003811115611cc457611cc46131e8565b14611d075760405162461bcd60e51b815260206004820152601360248201527210dbdb9d195cdd081b9bdd081cd95d1d1b1959606a1b60448201526064016107bf565b60105460ff16611d4f5760405162461bcd60e51b815260206004820152601360248201527213585c9ad95d081b9bdd081c995cdbdb1d9959606a1b60448201526064016107bf565b6005548110611d705760405162461bcd60e51b81526004016107bf906132f8565b6000611d7c338361068f565b905060008111611dba5760405162461bcd60e51b81526020600482015260096024820152684e6f20746f6b656e7360b81b60448201526064016107bf565b611dc53383836124ec565b6000600f548303611f0a5760008381526009602052604090205480611e185760405162461bcd60e51b81526020600482015260096024820152684e6f20737570706c7960b81b60448201526064016107bf565b80600a5484611e279190613353565b611e31919061336a565b6040516370a0823160e01b81523060048201529092506000906001600160a01b037f000000000000000000000000000000000000000000000000000000000000000016906370a0823190602401602060405180830381865afa158015611e9b573d6000803e3d6000fd5b505050506040513d601f19601f82011682018060405250810190611ebf91906134d0565b905080831115611ecd578092505b8215611f0757611f076001600160a01b037f000000000000000000000000000000000000000000000000000000000000000016338561255b565b50505b604051818152839033907fd661a3227475e550e8171253b7c0e37ede0ff071f017a4c55b647d5a04b5e4359060200160405180910390a35050611f4d6001600355565b50565b611f586124c2565b600260045460ff166003811115611f7157611f716131e8565b14611fb45760405162461bcd60e51b815260206004820152601360248201527210dbdb9d195cdd081b9bdd081cd95d1d1b1959606a1b60448201526064016107bf565b3360009081526008602052604090205480611ffd5760405162461bcd60e51b8152602060048201526009602482015268139bc81c185e5bdd5d60ba1b60448201526064016107bf565b33600081815260086020526040812055612042907f00000000000000000000000000000000000000000000000000000000000000006001600160a01b0316908361255b565b60405181815233907f9e2d6fa5f8818953c417e9cacffa6cbb51294f8f2a3f1713a0171e5b704244099060200160405180910390a2506110ba6001600355565b61208a6124c2565b600060045460ff1660038111156120a3576120a36131e8565b14806120c55750600360045460ff1660038111156120c3576120c36131e8565b145b61212a5760405162461bcd60e51b815260206004820152603060248201527f43616e6e6f74207769746864726177202d20636f6e7465737420696e2070726f60448201526f19dc995cdcc81bdc881cd95d1d1b195960821b60648201526084016107bf565b3360009081526006602052604090205460ff1661217c5760405162461bcd60e51b815260206004820152601060248201526f139bdd08184818dbdb9d195cdd185b9d60821b60448201526064016107bf565b336000908152600660205260408120805460ff19169055600780547f000000000000000000000000000000000000000000000000000000000000000092906121c590849061338c565b909155506000905060045460ff1660038111156121e4576121e46131e8565b036122f35760005b6005548110156122f157336001600160a01b031660058281548110612213576122136133fd565b6000918252602090912001546001600160a01b0316036122df576005805461223d9060019061338c565b8154811061224d5761224d6133fd565b600091825260209091200154600580546001600160a01b039092169183908110612279576122796133fd565b9060005260206000200160006101000a8154816001600160a01b0302191690836001600160a01b0316021790555060058054806122b8576122b86134e9565b600082815260209020810160001990810180546001600160a01b03191690550190556122f1565b806122e981613413565b9150506121ec565b505b6123476001600160a01b037f000000000000000000000000000000000000000000000000000000000000000016337f000000000000000000000000000000000000000000000000000000000000000061255b565b6110ba6001600355565b6005818154811061236157600080fd5b6000918252602090912001546001600160a01b0316905081565b6001600160a01b03918216600090815260016020908152604080832093909416825291909152205460ff1690565b336001600160a01b037f00000000000000000000000000000000000000000000000000000000000000001614611c085760405162461bcd60e51b81526004016107bf906133b2565b60055460009082106124355760405162461bcd60e51b815260206004820152600d60248201526c092dcecc2d8d2c840d2dcc8caf609b1b60448201526064016107bf565b60058281548110612448576124486133fd565b6000918252602090912001546001600160a01b031692915050565b336001600160a01b03861681148015906124845750612482868261237b565b155b156124b55760405163711bec9160e11b81526001600160a01b038083166004830152871660248201526044016107bf565b611acd868686868661274b565b6002600354036124e557604051633ee5aeb560e01b815260040160405180910390fd5b6002600355565b6001600160a01b03831661251557604051626a0d4560e21b8152600060048201526024016107bf565b604080516001808252602082018590528183019081526060820184905260a08201909252600060808201818152919291612554918791859085906127d9565b5050505050565b6040516001600160a01b038381166024830152604482018390526125ba91859182169063a9059cbb906064015b604051602081830303815290604052915060e01b6020820180516001600160e01b03838183161783525050505061282c565b505050565b6040516001600160a01b0384811660248301528381166044830152606482018390526116f09186918216906323b872dd90608401612588565b6001600160a01b03841661262257604051632bfa23e760e11b8152600060048201526024016107bf565b60408051600180825260208201869052818301908152606082018590526080820190925290611acd6000878484876127d9565b6001600160a01b03841661267f57604051632bfa23e760e11b8152600060048201526024016107bf565b6001600160a01b0385166126a857604051626a0d4560e21b8152600060048201526024016107bf565b61255485858585856127d9565b6001600160a01b0382166126de5760405162ced3e160e81b8152600060048201526024016107bf565b6001600160a01b03838116600081815260016020908152604080832094871680845294825291829020805460ff191686151590811790915591519182527f17307eab39ab6107e8899845ad3d59bd9653f200f220920489ca2b5937696c31910160405180910390a3505050565b6001600160a01b03841661277557604051632bfa23e760e11b8152600060048201526024016107bf565b6001600160a01b03851661279e57604051626a0d4560e21b8152600060048201526024016107bf565b604080516001808252602082018690528183019081526060820185905260808201909252906127d087878484876127d9565b50505050505050565b6127e58585858561289d565b6001600160a01b03841615612554578251339060010361281e5760208481015190840151612817838989858589612aba565b5050611acd565b611acd818787878787612bde565b600080602060008451602086016000885af18061284f576040513d6000823e3d81fd5b50506000513d91508115612867578060011415612874565b6001600160a01b0384163b155b156116f057604051635274afe760e01b81526001600160a01b03851660048201526024016107bf565b80518251146128cc5781518151604051635b05999160e01b8152600481019290925260248201526044016107bf565b3360005b83518110156129db576020818102858101820151908501909101516001600160a01b03881615612983576000828152602081815260408083206001600160a01b038c1684529091529020548181101561295c576040516303dee4c560e01b81526001600160a01b038a1660048201526024810182905260448101839052606481018490526084016107bf565b6000838152602081815260408083206001600160a01b038d16845290915290209082900390555b6001600160a01b038716156129c8576000828152602081815260408083206001600160a01b038b168452909152812080548392906129c290849061339f565b90915550505b5050806129d490613413565b90506128d0565b508251600103612a5c5760208301516000906020840151909150856001600160a01b0316876001600160a01b0316846001600160a01b03167fc3d58168c5ae7397731d063d5bbf3d657854427343f4c083240f7aacaa2d0f628585604051612a4d929190918252602082015260400190565b60405180910390a45050612554565b836001600160a01b0316856001600160a01b0316826001600160a01b03167f4a39dc06d4c0dbc64b70af90fd698a233a518aa5d07e595d983b8c0526c8f7fb8686604051612aab9291906134ff565b60405180910390a45050505050565b6001600160a01b0384163b15611acd5760405163f23a6e6160e01b81526001600160a01b0385169063f23a6e6190612afe908990899088908890889060040161352d565b6020604051808303816000875af1925050508015612b39575060408051601f3d908101601f19168201909252612b3691810190613572565b60015b612ba2573d808015612b67576040519150601f19603f3d011682016040523d82523d6000602084013e612b6c565b606091505b508051600003612b9a57604051632bfa23e760e11b81526001600160a01b03861660048201526024016107bf565b805181602001fd5b6001600160e01b0319811663f23a6e6160e01b146127d057604051632bfa23e760e11b81526001600160a01b03861660048201526024016107bf565b6001600160a01b0384163b15611acd5760405163bc197c8160e01b81526001600160a01b0385169063bc197c8190612c22908990899088908890889060040161358f565b6020604051808303816000875af1925050508015612c5d575060408051601f3d908101601f19168201909252612c5a91810190613572565b60015b612c8b573d808015612b67576040519150601f19603f3d011682016040523d82523d6000602084013e612b6c565b6001600160e01b0319811663bc197c8160e01b146127d057604051632bfa23e760e11b81526001600160a01b03861660048201526024016107bf565b80356001600160a01b0381168114612cde57600080fd5b919050565b60008060408385031215612cf657600080fd5b612cff83612cc7565b946020939093013593505050565b6001600160e01b031981168114611f4d57600080fd5b600060208284031215612d3557600080fd5b8135612d4081612d0d565b9392505050565b600060208284031215612d5957600080fd5b5035919050565b6000815180845260005b81811015612d8657602081850181015186830182015201612d6a565b506000602082860101526020601f19601f83011685010191505092915050565b602081526000612d406020830184612d60565b60008060408385031215612dcc57600080fd5b50508035926020909101359150565b60008083601f840112612ded57600080fd5b50813567ffffffffffffffff811115612e0557600080fd5b6020830191508360208260051b8501011115612e2057600080fd5b9250929050565b60008060008060408587031215612e3d57600080fd5b843567ffffffffffffffff80821115612e5557600080fd5b612e6188838901612ddb565b90965094506020870135915080821115612e7a57600080fd5b50612e8787828801612ddb565b95989497509550505050565b634e487b7160e01b600052604160045260246000fd5b604051601f8201601f1916810167ffffffffffffffff81118282101715612ed257612ed2612e93565b604052919050565b600067ffffffffffffffff821115612ef457612ef4612e93565b5060051b60200190565b600082601f830112612f0f57600080fd5b81356020612f24612f1f83612eda565b612ea9565b82815260059290921b84018101918181019086841115612f4357600080fd5b8286015b84811015612f5e5780358352918301918301612f47565b509695505050505050565b600082601f830112612f7a57600080fd5b813567ffffffffffffffff811115612f9457612f94612e93565b612fa7601f8201601f1916602001612ea9565b818152846020838601011115612fbc57600080fd5b816020850160208301376000918101602001919091529392505050565b600080600080600060a08688031215612ff157600080fd5b612ffa86612cc7565b945061300860208701612cc7565b9350604086013567ffffffffffffffff8082111561302557600080fd5b61303189838a01612efe565b9450606088013591508082111561304757600080fd5b61305389838a01612efe565b9350608088013591508082111561306957600080fd5b5061307688828901612f69565b9150509295509295909350565b6000806040838503121561309657600080fd5b823567ffffffffffffffff808211156130ae57600080fd5b818501915085601f8301126130c257600080fd5b813560206130d2612f1f83612eda565b82815260059290921b840181019181810190898411156130f157600080fd5b948201945b838610156131165761310786612cc7565b825294820194908201906130f6565b9650508601359250508082111561312c57600080fd5b5061313985828601612efe565b9150509250929050565b600081518084526020808501945080840160005b8381101561317357815187529582019590820190600101613157565b509495945050505050565b602081526000612d406020830184613143565b6000602082840312156131a357600080fd5b612d4082612cc7565b600080604083850312156131bf57600080fd5b6131c883612cc7565b9150602083013580151581146131dd57600080fd5b809150509250929050565b634e487b7160e01b600052602160045260246000fd5b602081016004831061322057634e487b7160e01b600052602160045260246000fd5b91905290565b6000806040838503121561323957600080fd5b61324283612cc7565b915061325060208401612cc7565b90509250929050565b600080600080600060a0868803121561327157600080fd5b61327a86612cc7565b945061328860208701612cc7565b93506040860135925060608601359150608086013567ffffffffffffffff8111156132b257600080fd5b61307688828901612f69565b600181811c908216806132d257607f821691505b6020821081036132f257634e487b7160e01b600052602260045260246000fd5b50919050565b6020808252600f908201526e496e76616c6964206f7574636f6d6560881b604082015260600190565b634e487b7160e01b600052601160045260246000fd5b6000600160ff1b820161334c5761334c613321565b5060000390565b80820281158282048414176106b1576106b1613321565b60008261338757634e487b7160e01b600052601260045260246000fd5b500490565b818103818111156106b1576106b1613321565b808201808211156106b1576106b1613321565b6020808252600a90820152694e6f74206f7261636c6560b01b604082015260600190565b81810360008312801583831316838312821617156133f6576133f6613321565b5092915050565b634e487b7160e01b600052603260045260246000fd5b60006001820161342557613425613321565b5060010190565b6040808252810184905260008560608301825b8781101561346d576001600160a01b0361345884612cc7565b1682526020928301929091019060010161343f565b5083810360208501528481526001600160fb1b0385111561348d57600080fd5b8460051b915081866020830137016020019695505050505050565b80820182811260008312801582168215821617156134c8576134c8613321565b505092915050565b6000602082840312156134e257600080fd5b5051919050565b634e487b7160e01b600052603160045260246000fd5b6040815260006135126040830185613143565b82810360208401526135248185613143565b95945050505050565b6001600160a01b03868116825285166020820152604081018490526060810183905260a06080820181905260009061356790830184612d60565b979650505050505050565b60006020828403121561358457600080fd5b8151612d4081612d0d565b6001600160a01b0386811682528516602082015260a0604082018190526000906135bb90830186613143565b82810360608401526135cd8186613143565b905082810360808401526135e18185612d60565b9897505050505050505056fea26469706673582212207e0dc16229fb7c5adccd6283861332dea9f1aaa9f0456eb932055b8b035a00f364736f6c63430008140033a2646970667358221220622d40d9212fd90c342f9be689fd70c22d246058ee38a17e6cf27b8d258b4f9d64736f6c63430008140033","linkReferences":{}},"methodIdentifiers":{"contestHost(address)":"34dd7a2e","contests(uint256)":"9d7ed738","createContest(address,address,uint256,uint256,uint256,uint256,uint256)":"fa62a7fc","getContestCount()":"64c3c166","getContests()":"bfaba76a"},"id":45}