{"abi":[{"type":"function","name":"LIQUIDITY_MULTIPLIER","inputs":[],"outputs":[{"name":"","type":"uint256","internalType":"uint256"}],"stateMutability":"view"},{"type":"function","name":"contestHost","inputs":[{"name":"","type":"address","internalType":"address"}],"outputs":[{"name":"","type":"address","internalType":"address"}],"stateMutability":"view"},{"type":"function","name":"contests","inputs":[{"name":"","type":"uint256","internalType":"uint256"}],"outputs":[{"name":"","type":"address","internalType":"address"}],"stateMutability":"view"},{"type":"function","name":"createContest","inputs":[{"name":"paymentToken","type":"address","internalType":"address"},{"name":"oracle","type":"address","internalType":"address"},{"name":"contestantDepositAmount","type":"uint256","internalType":"uint256"},{"name":"oracleFee","type":"uint256","internalType":"uint256"},{"name":"expiry","type":"uint256","internalType":"uint256"},{"name":"liquidityParameterOverride","type":"uint256","internalType":"uint256"},{"name":"demandSensitivity","type":"uint256","internalType":"uint256"},{"name":"prizeShareBps","type":"uint256","internalType":"uint256"},{"name":"userShareBps","type":"uint256","internalType":"uint256"}],"outputs":[{"name":"","type":"address","internalType":"address"}],"stateMutability":"nonpayable"},{"type":"function","name":"getContestCount","inputs":[],"outputs":[{"name":"","type":"uint256","internalType":"uint256"}],"stateMutability":"view"},{"type":"function","name":"getContests","inputs":[],"outputs":[{"name":"","type":"address[]","internalType":"address[]"}],"stateMutability":"view"},{"type":"event","name":"ContestCreated","inputs":[{"name":"contest","type":"address","indexed":true,"internalType":"address"},{"name":"host","type":"address","indexed":true,"internalType":"address"},{"name":"contestantDepositAmount","type":"uint256","indexed":false,"internalType":"uint256"}],"anonymous":false}],"bytecode":{"object":"0x6080806040523461001657614a8f908161001c8239f35b600080fdfe608060408181526004918236101561001657600080fd5b600090813560e01c90816334dd7a2e14610370575080635e344ce61461035457806364c3c166146103375780638740a5f5146101995780639d7ed738146101555763bfaba76a1461006657600080fd5b3461015257806003193601126101525781518091805493848352602080930180958380527f290decd9548b62a8d60345a988386fc84ba6bc95484008f6362f93160ef3e56390845b868282106101355750505050849003601f01601f191684019567ffffffffffffffff871185881017610122575085815282865292518583018190528594938501939290915b82811061010257505050500390f35b83516001600160a01b0316855286955093810193928101926001016100f3565b634e487b7160e01b835260419052602482fd5b83546001600160a01b0316855290930192600192830192016100ae565b80fd5b5091346101955760203660031901126101955735918054831015610152575061017f6020926103c3565b905491519160018060a01b039160031b1c168152f35b8280fd5b509034610333576101209182600319360112610152576101b76103a8565b9060243560018060a01b0394858216809203610195576044359360a435801561030e575b86519361464c928386019386851067ffffffffffffffff8611176102fb5786949392918b916200040e8739168352602083015286888301526064356060830152608435608083015260a082015260c43560c082015260e43560e08201526101043561010082015203019082f080156102ef578416938154680100000000000000008110156102dc5760209650906102798260018795940184556103c3565b819291549060031b9188831b921b19161790558481526001865220336bffffffffffffffffffffffff60a01b8254161790558151908152827f0930d90e589f3eb61818e12c03f3b7838099abcb975a02054dc58e1fe7cddf0f853393a351908152f35b634e487b7160e01b835260418752602483fd5b508251903d90823e3d90fd5b634e487b7160e01b885260418c52602488fd5b50606485028581046064148615176101db57634e487b7160e01b855260118952602485fd5b5080fd5b509034610333578160031936011261033357602091549051908152f35b5090346103335781600319360112610333576020905160648152f35b90508234610195576020366003190112610195576020926001600160a01b0391908261039a6103a8565b168152600185522054168152f35b600435906001600160a01b03821682036103be57565b600080fd5b9060009182548110156103f9578280527f290decd9548b62a8d60345a988386fc84ba6bc95484008f6362f93160ef3e563019190565b634e487b7160e01b83526032600452602483fdfe6101a03462000515576200464c6001600160401b03601f38839003908101601f191684019082821185831017620004ff578085946040938452853961012093849181010312620005155762000054846200051a565b602091620000648387016200051a565b81870151606088015160808901519160a08a01519360c08b01519660e08c015198610100809d01519a8851908282019082821090821117620004ff57895260008091526002546001908181811c91168015620004f4575b84821014620004e057601f8111620004b1575b5060028290556003556001600160a01b039283169283156200046d5784161562000438578415620003f4576103e88611620003b057428711156200037b578715620003375761271090818b11620002f3578c8c0190818d11620002df5750116200029c575060805260a05260c05260e0528752855261014091825261016092835261018093845260ff1960045416600455519361411c95866200053087396080518681816109e001528181610c5d015281816114dd015281816116b90152818161189201528181611b3301528181611dea015281816120cd0152818161237c015281816125890152612a2e015260a0518681816105d4015281816106a301528181610a4c01528181610f6d01528181611565015281816116730152818161173201528181611ab601528181611fe3015281816122180152612828015260c0518681816117fb015281816119980152612518015260e05186818161127b015281816114120152818161182b015281816125480152612946015251858181611a0b01528181611af701528181611cf701526124a2015251848181610ac501526136b90152518381816112e2015261369201525182818161195d0152614032015251818181611634015261405e0152f35b60649088519062461bcd60e51b82526004820152601660248201527f546f74616c2066656573206578636565642031303025000000000000000000006044820152fd5b634e487b7160e01b81526011600452602490fd5b895162461bcd60e51b815260048101849052601a60248201527f496e76616c69642064656d616e642073656e73697469766974790000000000006044820152606490fd5b885162461bcd60e51b815260048101839052601b60248201527f496e76616c6964206c697175696469747920706172616d6574657200000000006044820152606490fd5b885162461bcd60e51b815260048101839052600e60248201526d115e1c1a5c9e481a5b881c185cdd60921b6044820152606490fd5b885162461bcd60e51b815260048101839052601360248201527f4f7261636c652066656520746f6f2068696768000000000000000000000000006044820152606490fd5b885162461bcd60e51b815260048101839052601660248201527f496e76616c6964206465706f73697420616d6f756e74000000000000000000006044820152606490fd5b885162461bcd60e51b815260048101839052600e60248201526d496e76616c6964206f7261636c6560901b6044820152606490fd5b895162461bcd60e51b815260048101849052601560248201527f496e76616c6964207061796d656e7420746f6b656e00000000000000000000006044820152606490fd5b6002835281601f858520920160051c8201915b828110620004d4575050620000ce565b848155018290620004c4565b634e487b7160e01b83526022600452602483fd5b90607f1690620000bb565b634e487b7160e01b600052604160045260246000fd5b600080fd5b51906001600160a01b0382168203620005155756fe6080604052600436101561001257600080fd5b60003560e01c8062fdd58e1461037657806301ffc9a7146103715780630e89341c1461036c5780631db0e6671461036757806324f9cc4c146103625780632eb2c2d61461035d5780633013ce29146103585780633789a2fb146103535780633a2babc21461034e5780633a69a1be146103495780634034b060146103445780634e1273f41461033f5780634ee837a61461033a578063563930e7146103355780635c76fda7146103305780636932b3821461032b578063693b46601461032657806374d342141461032157806375f250061461031c57806379acdb3a146103175780637ae45fe3146103125780637dc0d1d01461030d5780637e8f123414610308578063829e4c641461030357806384e43b48146102fe578063933b1282146102f957806395082d25146102f45780639a9a5d9d146102ef578063a01e4a1f146102ea578063a094c632146102e5578063a22cb465146102e0578063a7e2bc54146102db578063ade6e2aa146102d6578063ae4c8ba9146102d1578063af19e0d5146102cc578063af1d9197146102c7578063b30906d4146102c2578063b9937e30146102bd578063bf6bbf09146102b8578063c19d93fb146102b3578063c53e21e4146102ae578063c8d22700146102a9578063c8d5c1b1146102a4578063c9a496aa1461029f578063d09685b01461029a578063d6a74ce014610295578063df1ef4c614610290578063e1a452181461028b578063e1db226a14610286578063e985e9c514610281578063ed4af81f1461027c578063f242432a14610277578063fc8c28e1146102725763fed763251461026d57600080fd5b612863565b6127eb565b6126c6565b6126a8565b612640565b612418565b6123fb565b6123c7565b6121d4565b6121b6565b612130565b612104565b611fa5565b611f79565b611f4f565b611ee4565b611ec6565b611e75565b611e41565b611d3d565b611d1a565b611cdf565b611cc1565b611c01565b611aa2565b6119f7565b6119d9565b6119bb565b611980565b611945565b611927565b611761565b61171c565b611657565b61161c565b61154d565b611305565b6112ca565b61129e565b611263565b610f1a565b610ecc565b610e11565b610ae8565b610aad565b610a87565b610a0f565b6109ca565b61089d565b61068b565b6105bc565b6104b6565b6103f4565b610391565b6001600160a01b0381160361038c57565b600080fd5b3461038c57604036600319011261038c5760206103d96004356103b38161037b565b6024356000526000835260406000209060018060a01b0316600052602052604060002090565b54604051908152f35b6001600160e01b031981160361038c57565b3461038c57602036600319011261038c576020600435610413816103e2565b63ffffffff60e01b16636cdb3d1360e11b8114908115610451575b8115610440575b506040519015158152f35b6301ffc9a760e01b14905038610435565b6303a24d0760e21b8114915061042e565b919082519283825260005b84811061048e575050826000602080949584010152601f8019910116010190565b60208183018101518483018201520161046d565b9060206104b3928181520190610462565b90565b3461038c5760208060031936011261038c576040519060009060025460019181831c928083169283156105b2575b828510841461059e57848752602087019390811561057f5750600114610525575b61052186610515818803826107a5565b604051918291826104a2565b0390f35b6002600090815294509192917f405787fa12a823e0f2b7631cc41b3ba8828b3321ca811111fa75cd3aa3bb5ace5b83861061056e57505050910190506105158261052138610505565b805485870152948201948101610553565b60ff1916845250505090151560051b0190506105158261052138610505565b634e487b7160e01b86526022600452602486fd5b93607f16936104e4565b3461038c5760008060031936011261068857610602337f00000000000000000000000000000000000000000000000000000000000000006001600160a01b031614613cd4565b60ff60045416600681101561067457806003610627921415908161065f575b50613f5d565b610638600460ff1981541617600455565b7f9237e8f0d5063a695b8695e82c82bc24d15591de9d04449771a6ea4b128317378180a180f35b6005915061066c81611f2f565b141538610621565b634e487b7160e01b82526021600452602482fd5b80fd5b3461038c57600080600319360112610688576106d1337f00000000000000000000000000000000000000000000000000000000000000006001600160a01b031614613cd4565b60ff6004541660068110156106745761072a576106f16006541515613d0d565b610703600160ff196004541617600455565b7f3927b788a62eb53f7192cd9286f49295f01b938b6afc23aef0af5d035cd853168180a180f35b60405162461bcd60e51b815260206004820152601760248201527f436f6e7465737420616c726561647920737461727465640000000000000000006044820152606490fd5b634e487b7160e01b600052604160045260246000fd5b602081019081106001600160401b038211176107a057604052565b61076f565b90601f801991011681019081106001600160401b038211176107a057604052565b6001600160401b0381116107a05760051b60200190565b81601f8201121561038c578035916107f4836107c6565b9261080260405194856107a5565b808452602092838086019260051b82010192831161038c578301905b82821061082c575050505090565b8135815290830190830161081e565b6001600160401b0381116107a057601f01601f191660200190565b81601f8201121561038c5780359061086d8261083b565b9261087b60405194856107a5565b8284526020838301011161038c57816000926020809301838601378301015290565b3461038c5760a036600319011261038c57600480356108bb8161037b565b6024356108c78161037b565b6001600160401b039060443582811161038c576108e790369086016107dd565b9060643583811161038c576108ff90369087016107dd565b9260843590811161038c576109179036908701610856565b936001600160a01b038082169033821415806109a6575b61097957831615610961571561094a576109489550612bc7565b005b604051626a0d4560e21b8152600081880152602490fd5b604051632bfa23e760e11b8152600081890152602490fd5b6040805163711bec9160e11b815233818b019081526001600160a01b038616602082015290918291010390fd5b50600082815260016020908152604080832033845290915290205460ff161561092e565b3461038c57600036600319011261038c576040517f00000000000000000000000000000000000000000000000000000000000000006001600160a01b03168152602090f35b3461038c57602036600319011261038c577fa2877b861a6a177d8c1a4430a6f8716104652f70e5c8fbd58aa775ef96da4a526020600435610a7a337f00000000000000000000000000000000000000000000000000000000000000006001600160a01b031614613cd4565b80601255604051908152a1005b3461038c57602036600319011261038c576020610aa560043561364c565b604051908152f35b3461038c57600036600319011261038c5760206040517f00000000000000000000000000000000000000000000000000000000000000008152f35b3461038c5760208060031936011261038c5760043590610b066133bf565b610b266003610b1760045460ff1690565b610b2081611f2f565b14613531565b610b3a610b3560115460ff1690565b613bb9565b60018060a01b0390610b7282610b6a610b5d866000526007602052604060002090565b546001600160a01b031690565b161515613bfb565b610ba133610b8a856000526000602052604060002090565b9060018060a01b0316600052602052604060002090565b549182151591610bb083613c55565b610bbb848633613a1d565b6000936010548614610c07575b604051858152869033907fe256ef8b7b6eaeb621f7e7ca3b683f124df401cb260bbaccf0540299944b858a9080602081015b0390a36109486001600355565b9091929350610c40610c2386600052600b602052604060002090565b54610c2f811515613c8d565b610c3b600c5484613619565b61362c565b93610da5575b506040516370a0823160e01b8082523060048301527f0000000000000000000000000000000000000000000000000000000000000000938416918381602481865afa908115610d3f57600091610d88575b50808611610d80575b5084610d44575b610cbb86600052600b602052604060002090565b54610bc857604051908152306004820152908290829060249082905afa918215610d3f57600092610d12575b505080610cf6575b8080610bc8565b610d0b91610d046000600c55565b33906134e2565b3880610cef565b610d319250803d10610d38575b610d2981836107a5565b810190613cc5565b3880610ce7565b503d610d1f565b612e81565b600c548511610d7157610d61610d5c86600c546132fc565b600c55565b610d6c8533866134e2565b610ca7565b610d7b6000600c55565b610d61565b945038610ca0565b610d9f9150843d8611610d3857610d2981836107a5565b38610c97565b610dc4610dbc86600052600b602052604060002090565b918254613a04565b905538610c46565b90815180825260208080930193019160005b828110610dec575050505090565b835185529381019392810192600101610dde565b9060206104b3928181520190610dcc565b3461038c57604036600319011261038c576004356001600160401b0380821161038c573660238301121561038c578160040135610e4d816107c6565b92610e5b60405194856107a5565b81845260209160248386019160051b8301019136831161038c57602401905b828210610eb3578560243586811161038c5761052191610ea1610ea79236906004016107dd565b90612b02565b60405191829182610e00565b8380918335610ec18161037b565b815201910190610e7a565b3461038c57600036600319011261038c576020600554604051908152f35b9181601f8401121561038c578235916001600160401b03831161038c576020808501948460051b01011161038c57565b3461038c57604036600319011261038c576001600160401b0360043581811161038c57610f4b903690600401610eea565b909160243590811161038c57610f65903690600401610eea565b9290610f9b337f00000000000000000000000000000000000000000000000000000000000000006001600160a01b031614613cd4565b610fa36133bf565b610fcd610fb260045460ff1690565b610fbb81611f2f565b6001811490811561124f575b50613d46565b610fd8831515613d92565b610fe3848414613dde565b610ff1600654841115613e22565b6000805b858110611214575061271061100a9114613ec6565b61101c600360ff196004541617600455565b61102b600854600d5490612dd6565b60005b8481106111cd57505061104a6110448484613e61565b35601055565b61105c600160ff196011541617601155565b611072601054600052600b602052604060002090565b54600c549081151590816111c4575b506110c7575b507f0fed27f5e3cd741c181cc0d3b0c47df2013638faa8b7aa7084de3946098eb78e936110ba9160405194859485613f36565b0390a16109486001600355565b6110d16000600c55565b6000805b85811061115257509181837f0fed27f5e3cd741c181cc0d3b0c47df2013638faa8b7aa7084de3946098eb78e97936110ba9510611117575b5050915093611087565b611120916132fc565b6111496111416111308888613e61565b356000526009602052604060002090565b918254612dd6565b9055388061110d565b9061115e828787613e6a565b3591611180611178611171838b89613e6a565b3586613619565b612710900490565b80611197575b50611192919250612ad5565b6110d5565b6111bb6111416111aa8361119296612dd6565b956000526009602052604060002090565b90558291611186565b90501538611081565b806111dc61120f928787613e6a565b356112096111f86111786111f1858c8a613e6a565b3587613619565b916000526009602052604060002090565b55612ad5565b61102e565b9061124461124a9161123261122a858a88613e6a565b351515613e7a565b61123d848987613e6a565b3590612dd6565b91612ad5565b610ff5565b6002915061125c81611f2f565b1438610fc7565b3461038c57600036600319011261038c5760206040517f00000000000000000000000000000000000000000000000000000000000000008152f35b3461038c57602036600319011261038c57600435600052600b6020526020604060002054604051908152f35b3461038c57600036600319011261038c5760206040517f00000000000000000000000000000000000000000000000000000000000000008152f35b3461038c57604036600319011261038c576024356114c96004356113276133bf565b61134f61133660045460ff1690565b61133f81611f2f565b8015908115611539575b50613919565b600081815260076020526040902061137b906001600160a01b039061137390610b5d565b16151561397e565b611386831515613776565b6113aa836113a233610b8a856000526000602052604060002090565b5410156139c1565b6114b5610d5c6114876114006113ce33610b8a876000526000602052604060002090565b54336000908152600f60205260409020610c3b9089906113fa9089905b90600052602052604060002090565b54613619565b9561148c6114576114526127106114377f00000000000000000000000000000000000000000000000000000000000000008c613619565b0461144c611447826005546132fc565b600555565b8a6132fc565b614028565b94919093611466818a33613a1d565b61147d610dbc8a600052600b602052604060002090565b9055600d546132fc565b600d55565b6114ab6114a386600052600e602052604060002090565b9182546132fc565b9055600c546132fc565b336000908152600f602052604090206113eb565b6114d48282546132fc565b905561150181337f00000000000000000000000000000000000000000000000000000000000000006134e2565b60405190815233907f9ab0480f2900ac3d2b39009247d33515552abee0ba84caa8a3f1c6435fbb266e90602090a26109486001600355565b6004915061154681611f2f565b1438611349565b3461038c5760008060031936011261068857611593337f00000000000000000000000000000000000000000000000000000000000000006001600160a01b031614613cd4565b60ff600454166006811015610674576001036115e2576115bb600260ff196004541617600455565b7fca4f15905dfed40aa7885e1be889ff7da045bd49fc916c3a40cf8b0a3db7636a8180a180f35b60405162461bcd60e51b8152602060048201526012602482015271436f6e74657374206e6f742061637469766560701b6044820152606490fd5b3461038c57600036600319011261038c5760206040517f00000000000000000000000000000000000000000000000000000000000000008152f35b3461038c57600080600319360112610688576116716133bf565b7f00000000000000000000000000000000000000000000000000000000000000006116a6336001600160a01b03831614613cd4565b60055480156116e5576116dd91836005557f00000000000000000000000000000000000000000000000000000000000000006134e2565b600160035580f35b60405162461bcd60e51b815260206004820152600f60248201526e4e6f2066656520746f20636c61696d60881b6044820152606490fd5b3461038c57600036600319011261038c576040517f00000000000000000000000000000000000000000000000000000000000000006001600160a01b03168152602090f35b3461038c57602036600319011261038c5760043561177d6133bf565b6117a561178c60045460ff1690565b61179581611f2f565b8015908115611913575b5061343f565b6117cf6117bf610b5d836000526007602052604060002090565b6001600160a01b031633146134a4565b6117f66117e6826000526007602052604060002090565b80546001600160a01b0319169055565b6118b67f000000000000000000000000000000000000000000000000000000000000000061187361186e6118666127106118507f000000000000000000000000000000000000000000000000000000000000000086613619565b04611860611447826005546132fc565b846132fc565b6008546132fc565b600855565b61188783600052600e602052604060002090565b54806118e7575b50337f00000000000000000000000000000000000000000000000000000000000000006134e2565b33907fa11660be5ca5ef93a56a1f22e4de3d92bcb1727897a5e70a7262c26e256f3a40600080a36109486001600355565b61148761190d91600061190487600052600e602052604060002090565b55600d54612dd6565b3861188e565b6004915061192081611f2f565b143861179f565b3461038c57600036600319011261038c576020600c54604051908152f35b3461038c57600036600319011261038c5760206040517f00000000000000000000000000000000000000000000000000000000000000008152f35b3461038c57600036600319011261038c5760206040517f00000000000000000000000000000000000000000000000000000000000000008152f35b3461038c57600036600319011261038c576020604051620f42408152f35b3461038c57600036600319011261038c576020601254604051908152f35b3461038c57600080600319360112610688577f00000000000000000000000000000000000000000000000000000000000000004210611a6f57610627611a3f60045460ff1690565b611a4881611f2f565b60038114159081611a5a575b50613fea565b60059150611a6781611f2f565b141538611a54565b60405162461bcd60e51b815260206004820152600b60248201526a139bdd08195e1c1a5c995960aa1b6044820152606490fd5b3461038c57600080600319360112610688577f00000000000000000000000000000000000000000000000000000000000000006001600160a01b03611aea3382841614613cd4565b611af26133bf565b611b1e7f0000000000000000000000000000000000000000000000000000000000000000421015613fa9565b6040516370a0823160e01b81523060048201527f00000000000000000000000000000000000000000000000000000000000000009290916020908390602490829087165afa918215610d3f578492611be1575b5081611b86575b83611b836001600355565b80f35b611b8f926134e2565b611b996000600c55565b611ba36000600555565b611bb5600560ff196004541617600455565b7fef19c40e684c836035e6598f5d86819dfec89371571efdeed7947339739711438180a1388080611b78565b611bfa91925060203d8111610d3857610d2981836107a5565b9038611b71565b3461038c57604036600319011261038c57600435611c1e8161037b565b602435908115159081830361038c576001600160a01b038116928315611ca957611c6a611c7b9233600052600160205260406000209060018060a01b0316600052602052604060002090565b9060ff801983541691151516179055565b6040519081527f17307eab39ab6107e8899845ad3d59bd9653f200f220920489ca2b5937696c3160203392a3005b60405162ced3e160e81b815260006004820152602490fd5b3461038c57600036600319011261038c576020600d54604051908152f35b3461038c57600036600319011261038c5760206040517f00000000000000000000000000000000000000000000000000000000000000008152f35b3461038c57600036600319011261038c57602060ff601154166040519015158152f35b3461038c57602036600319011261038c57600435611d596133bf565b611d6d600360ff60045416610b2081611f2f565b611d876117bf610b5d836000526007602052604060002090565b611dba611d9e826000526009602052604060002090565b54611db383600052600e602052604060002090565b5490612dd6565b611dc5811515613573565b6000828152600960205260408120556000828152600e6020526040812055611e0e81337f00000000000000000000000000000000000000000000000000000000000000006134e2565b60405190815233907e89742e8fcde5f6c48a17ec50347f2b2d98d85a17abe162b4cd552516f752dd908060208101610bfa565b3461038c57600036600319011261038c576020601054604051908152f35b634e487b7160e01b600052603260045260246000fd5b3461038c57602036600319011261038c5760043560065481101561038c5760209060066000527ff652222313e28459528d920b65115c16c04f3efc82aaedc97be59f3f377c0d3f0154604051908152f35b3461038c57600036600319011261038c576020600854604051908152f35b3461038c57604036600319011261038c57600435611f018161037b565b60018060a01b0316600052600f60205260406000206024356000526020526020604060002054604051908152f35b60061115611f3957565b634e487b7160e01b600052602160045260246000fd5b3461038c57600036600319011261038c5760ff600454166040516006821015611f39576020918152f35b3461038c57602036600319011261038c57600435600052600e6020526020604060002054604051908152f35b3461038c57602036600319011261038c576004356001600160401b03811161038c57611fd5903690600401610eea565b6001600160a01b0361200a337f0000000000000000000000000000000000000000000000000000000000000000831614613cd4565b6120126133bf565b6120236003610b1760045460ff1690565b60005b828110612037576109486001600355565b8061204661206b928587613e6a565b3561205e611d9e826000526009602052604060002090565b80612070575b5050612ad5565b612026565b6000828152600960205260408120556000828152600e60205260408120557e89742e8fcde5f6c48a17ec50347f2b2d98d85a17abe162b4cd552516f752dd856120c6610b5d856000526007602052604060002090565b6120f184827f00000000000000000000000000000000000000000000000000000000000000006134e2565b6040519384521691602090a33880612064565b3461038c57602036600319011261038c5760043560005260096020526020604060002054604051908152f35b3461038c57602036600319011261038c576004356006548110156121815760209060066000527ff652222313e28459528d920b65115c16c04f3efc82aaedc97be59f3f377c0d3f0154604051908152f35b60405162461bcd60e51b815260206004820152600d60248201526c092dcecc2d8d2c840d2dcc8caf609b1b6044820152606490fd5b3461038c57600036600319011261038c576020600654604051908152f35b3461038c5760408060031936011261038c576004356001600160401b03811161038c57612205903690600401610eea565b91602435906001600160a01b0361223f337f0000000000000000000000000000000000000000000000000000000000000000831614613cd4565b6122476133bf565b6122586003610b1760045460ff1690565b612267610b3560115460ff1690565b612274601054841461409c565b61228883600052600b602052604060002090565b5490612295821515613c8d565b60005b8681106122a9576109486001600355565b80856122c16122bc6122e9948b8b613e6a565b6140dc565b6122d981610b8a846000526000602052604060002090565b5490816122ee575b505050612ad5565b612298565b6122f9828483613a1d565b61230d83600052600b602052604060002090565b612318838254613a04565b905585600c9161232e89610c3b85548097613619565b938461233d575b5050506122e1565b7fe256ef8b7b6eaeb621f7e7ca3b683f124df401cb260bbaccf0540299944b858a93859182116123b65761237591610d5c91546132fc565b6123a084827f00000000000000000000000000000000000000000000000000000000000000006134e2565b89519384521691602090a3853880858180612335565b50506123c26000600c55565b612375565b3461038c57602036600319011261038c576004356000526007602052602060018060a01b0360406000205416604051908152f35b3461038c57600036600319011261038c5760206040516127108152f35b3461038c57604036600319011261038c576004356024356001600160401b03811161038c5761244b903690600401610eea565b906124546133bf565b61247261246360045460ff1690565b61246c81611f2f565b1561314d565b600083815260076020526040902061249d906001600160a01b039061249690610b5d565b161561318c565b6124c87f000000000000000000000000000000000000000000000000000000000000000042106131cf565b600a5491826125dd575b836124dc8161329e565b612513336124f4836000526007602052604060002090565b80546001600160a01b0319166001600160a01b03909216919091179055565b6125ad7f000000000000000000000000000000000000000000000000000000000000000061258561186e61257d61271061256d7f000000000000000000000000000000000000000000000000000000000000000086613619565b0461186061144782600554612dd6565b600854612dd6565b30337f0000000000000000000000000000000000000000000000000000000000000000613309565b337f4a3a30e0139991c1b1492b4364701af9484bb9032a696c2b8c748a1e51f2fd17600080a36109486001600355565b6126389261262e6126339360405160208101906126238161261533856014916bffffffffffffffffffffffff199060601b1681520190565b03601f1981018352826107a5565b51902093369161320d565b6133e2565b61325b565b3880806124d2565b3461038c57604036600319011261038c57602060ff61269c6004356126648161037b565b602435906126718261037b565b60018060a01b03166000526001845260406000209060018060a01b0316600052602052604060002090565b54166040519015158152f35b3461038c57600036600319011261038c576020600a54604051908152f35b3461038c5760a036600319011261038c576004356126e38161037b565b6024356126ef8161037b565b6084356001600160401b03811161038c5761270e903690600401610856565b906001600160a01b038381169033821415806127c7575b6127a057821615612787571561276f57610948926127676064356044359160405192600184526020840152604083019160018352606084015260808301604052565b929091612bc7565b604051626a0d4560e21b815260006004820152602490fd5b604051632bfa23e760e11b815260006004820152602490fd5b60405163711bec9160e11b81523360048201526001600160a01b0386166024820152604490fd5b50600082815260016020908152604080832033845290915290205460ff1615612725565b3461038c57602036600319011261038c577f1f3ffb5a38f057a21fbb6b9c891954827a2657844fbc0ae99188cce46f059e2b6020600435612856337f00000000000000000000000000000000000000000000000000000000000000006001600160a01b031614613cd4565b80600a55604051908152a1005b3461038c57606036600319011261038c576004356024356044356001600160401b03811161038c57612899903690600401610eea565b906128a26133bf565b6128ca6128b160045460ff1690565b6128ba81611f2f565b8015908115612aab575b50613720565b60008481526007602052604090206128f6906001600160a01b03906128ee90610b5d565b1615156135ab565b612901831515613776565b6012549182612a6b575b5050507fa00dafed0dbb4c386c4a62b78c2bcbf149dcebfed234ad200c7e6631854d48b0610bfa61298e61148761298161145261271061296b7f000000000000000000000000000000000000000000000000000000000000000089613619565b0461297b61144782600554612dd6565b876132fc565b9391600d93919354612dd6565b6129a561114187600052600e602052604060002090565b9055336000908152600f602052604090206129c19086906113eb565b6129cc858254612dd6565b9055612a26610d5c6129e96129e08861364c565b610c3b85613601565b926129fd6129f5612e8d565b858a336137d3565b612a1188600052600b602052604060002090565b612a1c8582546137b7565b9055600c54612dd6565b612a528430337f0000000000000000000000000000000000000000000000000000000000000000613309565b6040805194855260208501919091523393918291820190565b612aa39261262e6126339360405160208101906126238161261533856014916bffffffffffffffffffffffff199060601b1681520190565b38808061290b565b60019150612ab881611f2f565b14386128c4565b634e487b7160e01b600052601160045260246000fd5b6000198114612ae45760010190565b612abf565b8051821015612afd5760209160051b010190565b611e5f565b91909180518351808203612ba5575050805190612b1e826107c6565b91612b2c60405193846107a5565b808352612b3b601f19916107c6565b0190602091368385013760005b8151811015612b9d57600581901b8281018401519087018401516000908152602081815260408083206001600160a01b0390941683529290522054612b989190612b928287612ae9565b52612ad5565b612b48565b509193505050565b604051635b05999160e01b815260048101919091526024810191909152604490fd5b949190918151845190818103612ba557505060005b8251811015612ccf57600581901b83810160209081015191870101516001600160a01b03929186908a8516612c48575b612c1e948216612c2357505050612ad5565b612bdc565b612c3e91610b8a611141926000526000602052604060002090565b90553885816122e1565b9192939050612c658a610b8a846000526000602052604060002090565b54838110612c985791879184612c1e96959403612c908d610b8a856000526000602052604060002090565b559450612c0c565b6040516303dee4c560e01b81526001600160a01b038c16600482015260248101919091526044810184905260648101839052608490fd5b509491939290936001855114600014612d7a576020858101518382015160408051928352928201526001600160a01b03838116929086169133917fc3d58168c5ae7397731d063d5bbf3d657854427343f4c083240f7aacaa2d0f6291a45b6001600160a01b038116612d43575b5050505050565b8451600103612d6957602080612d5f9601519201519233612fca565b3880808080612d3c565b612d7594919233613116565b612d5f565b6040516001600160a01b03828116919085169033907f4a39dc06d4c0dbc64b70af90fd698a233a518aa5d07e595d983b8c0526c8f7fb9080612dbd888c83612de3565b0390a4612d2d565b90620f4240918201809211612ae457565b91908201809211612ae457565b9091612dfa6104b393604084526040840190610dcc565b916020818403910152610dcc565b9081602091031261038c57516104b3816103e2565b909260a0926104b39594600180861b0316835260006020840152604083015260608201528160808201520190610462565b91926104b395949160a094600180871b038092168552166020840152604083015260608201528160808201520190610462565b6040513d6000823e3d90fd5b60405190612e9a82610785565b60008252565b3d15612ecb573d90612eb18261083b565b91612ebf60405193846107a5565b82523d6000602084013e565b606090565b9293919093843b612ee2575050505050565b602091612f05604051948593849363f23a6e6160e01b9889865260048601612e1d565b038160006001600160a01b0388165af160009181612f9a575b50612f5d5782612f2c612ea0565b8051919082612f5657604051632bfa23e760e11b81526001600160a01b0383166004820152602490fd5b9050602001fd5b6001600160e01b03191603612f7757503880808080612d3c565b604051632bfa23e760e11b81526001600160a01b03919091166004820152602490fd5b612fbc91925060203d8111612fc3575b612fb481836107a5565b810190612e08565b9038612f1e565b503d612faa565b939290949194853b612fdf575b505050505050565b613002602093604051958694859463f23a6e6160e01b998a875260048701612e4e565b038160006001600160a01b0388165af160009181613044575b506130295782612f2c612ea0565b6001600160e01b03191603612f775750388080808080612fd7565b61305d91925060203d8111612fc357612fb481836107a5565b903861301b565b926130936104b395936130a19360018060a01b031686526000602087015260a0604087015260a0860190610dcc565b908482036060860152610dcc565b916080818403910152610462565b93906104b39593613093916130a19460018060a01b03809216885216602087015260a0604087015260a0860190610dcc565b9293919093843b6130f3575050505050565b602091612f05604051948593849363bc197c8160e01b9889865260048601613064565b939290949194853b61312a57505050505050565b613002602093604051958694859463bc197c8160e01b998a8752600487016130af565b1561315457565b60405162461bcd60e51b815260206004820152601060248201526f21b7b73a32b9ba103737ba1037b832b760811b6044820152606490fd5b1561319357565b60405162461bcd60e51b8152602060048201526014602482015273456e74727920616c72656164792065786973747360601b6044820152606490fd5b156131d657565b60405162461bcd60e51b815260206004820152600f60248201526e10dbdb9d195cdd08195e1c1a5c9959608a1b6044820152606490fd5b9291613218826107c6565b9161322660405193846107a5565b829481845260208094019160051b810192831161038c57905b82821061324c5750505050565b8135815290830190830161323f565b1561326257565b60405162461bcd60e51b815260206004820152601460248201527324b73b30b634b21036b2b935b63290383937b7b360611b6044820152606490fd5b600654680100000000000000008110156107a0576001810180600655811015612afd5760066000527ff652222313e28459528d920b65115c16c04f3efc82aaedc97be59f3f377c0d3f0155565b90620f4240918203918211612ae457565b91908203918211612ae457565b6040516323b872dd60e01b60208201526001600160a01b03928316602482015292909116604483015260648083019390935291815260a08101918183106001600160401b038411176107a05761336192604052613363565b565b906000602091828151910182855af115612e81576000513d6133b657506001600160a01b0381163b155b6133945750565b604051635274afe760e01b81526001600160a01b039091166004820152602490fd5b6001141561338d565b6002600354146133d0576002600355565b604051633ee5aeb560e01b8152600490fd5b929091906000915b8451831015613437576133fd8386612ae9565b5190600082821015613425575060005260205261341f60406000205b92612ad5565b916133ea565b60409161341f93825260205220613419565b915092501490565b1561344657565b60405162461bcd60e51b815260206004820152603060248201527f43616e6e6f74207769746864726177202d20636f6e7465737420696e2070726f60448201526f19dc995cdcc81bdc881cd95d1d1b195960821b6064820152608490fd5b156134ab57565b60405162461bcd60e51b815260206004820152600f60248201526e2737ba1032b73a393c9037bbb732b960891b6044820152606490fd5b60405163a9059cbb60e01b60208201526001600160a01b03909216602483015260448083019390935291815260808101916001600160401b038311828410176107a05761336192604052613363565b1561353857565b60405162461bcd60e51b815260206004820152601360248201527210dbdb9d195cdd081b9bdd081cd95d1d1b1959606a1b6044820152606490fd5b1561357a57565b60405162461bcd60e51b8152602060048201526009602482015268139bc81c185e5bdd5d60ba1b6044820152606490fd5b156135b257565b60405162461bcd60e51b815260206004820152602160248201527f456e74727920646f6573206e6f74206578697374206f722077697468647261776044820152603760f91b6064820152608490fd5b90620f424091828102928184041490151715612ae457565b81810292918115918404141715612ae457565b8115613636570490565b634e487b7160e01b600052601260045260246000fd5b600081815260076020526040812054909190613672906001600160a01b031615156135ab565b8152600b6020526040812054818112918261370757506136b76136de915b7f000000000000000000000000000000000000000000000000000000000000000090613619565b7f00000000000000000000000000000000000000000000000000000000000000009061362c565b90806136fb575b6136f2576104b390612dc5565b6104b3906132eb565b50620f424081106136e5565b600160ff1b8214612ae4576136de916136b79103613690565b1561372757565b60405162461bcd60e51b815260206004820152602160248201527f5365636f6e6461727920706f736974696f6e73206e6f7420617661696c61626c6044820152606560f81b6064820152608490fd5b1561377d57565b60405162461bcd60e51b81526020600482015260126024820152710416d6f756e74206d757374206265203e20360741b6044820152606490fd5b91909160008382019384129112908015821691151617612ae457565b6001600160a01b038116939290919084156127875761380f60405192600184526020840152604083019160018352606084015260808301604052565b928151845190818103612ba557505060005b825181101561386657806138619160051b61385a61114187610b8a602080868b010151958c010151946000526000602052604060002090565b9055612ad5565b613821565b5092919360018251146000146138dd5760208281015184820151604080519283529282015260009133917fc3d58168c5ae7397731d063d5bbf3d657854427343f4c083240f7aacaa2d0f629190a45b80516001036138d35790602080613361959301519101519133612ed0565b61336193336130e1565b60006040517f4a39dc06d4c0dbc64b70af90fd698a233a518aa5d07e595d983b8c0526c8f7fb339180613911888883612de3565b0390a46138b5565b1561392057565b60405162461bcd60e51b815260206004820152603060248201527f43616e6e6f74207769746864726177202d20636f6d7065746974696f6e20737460448201526f185c9d1959081bdc881cd95d1d1b195960821b6064820152608490fd5b1561398557565b60405162461bcd60e51b8152602060048201526014602482015273115b9d1c9e48191bd95cc81b9bdd08195e1a5cdd60621b6044820152606490fd5b156139c857565b60405162461bcd60e51b8152602060048201526014602482015273496e73756666696369656e742062616c616e636560601b6044820152606490fd5b81810392916000138015828513169184121617612ae457565b6001600160a01b03811692909190831561276f57613a5860405192600184526020840152604083019160018352606084015260808301604052565b919060409460008651613a6a81610785565b528151845190818103613b9857505060005b8251811015613b11578060051b60208082860101519187010151613aae86610b8a846000526000602052604060002090565b54818110613adb5786610b8a613ad69594936112099303936000526000602052604060002090565b613a7c565b89516303dee4c560e01b81526001600160a01b038816600482015260248101919091526044810182905260648101839052608490fd5b50949060009493925060018151148514613b665760209081015192810151915192835282015233907fc3d58168c5ae7397731d063d5bbf3d657854427343f4c083240f7aacaa2d0f629080604081015b0390a4565b905133927f4a39dc06d4c0dbc64b70af90fd698a233a518aa5d07e595d983b8c0526c8f7fb928291613b619183612de3565b8751635b05999160e01b815260048101919091526024810191909152604490fd5b15613bc057565b60405162461bcd60e51b815260206004820152601360248201527213585c9ad95d081b9bdd081c995cdbdb1d9959606a1b6044820152606490fd5b15613c0257565b60405162461bcd60e51b815260206004820152602560248201527f456e74727920646f6573206e6f74206578697374206f72207761732077697468604482015264323930bbb760d91b6064820152608490fd5b15613c5c57565b60405162461bcd60e51b81526020600482015260096024820152684e6f20746f6b656e7360b81b6044820152606490fd5b15613c9457565b60405162461bcd60e51b81526020600482015260096024820152684e6f20737570706c7960b81b6044820152606490fd5b9081602091031261038c575190565b15613cdb57565b60405162461bcd60e51b815260206004820152600a6024820152694e6f74206f7261636c6560b01b6044820152606490fd5b15613d1457565b60405162461bcd60e51b815260206004820152600a6024820152694e6f20656e747269657360b01b6044820152606490fd5b15613d4d57565b60405162461bcd60e51b815260206004820152601c60248201527f436f6e74657374206e6f7420616374697665206f72206c6f636b6564000000006044820152606490fd5b15613d9957565b60405162461bcd60e51b815260206004820152601d60248201527f4d7573742068617665206174206c65617374206f6e652077696e6e65720000006044820152606490fd5b15613de557565b60405162461bcd60e51b8152602060048201526015602482015274082e4e4c2f240d8cadccee8d040dad2e6dac2e8c6d605b1b6044820152606490fd5b15613e2957565b60405162461bcd60e51b815260206004820152601060248201526f546f6f206d616e792077696e6e65727360801b6044820152606490fd5b9015612afd5790565b9190811015612afd5760051b0190565b15613e8157565b60405162461bcd60e51b815260206004820152601960248201527f557365206e6f6e2d7a65726f207061796f757473206f6e6c79000000000000006044820152606490fd5b15613ecd57565b60405162461bcd60e51b815260206004820152601860248201527f5061796f757473206d7573742073756d20746f203130302500000000000000006044820152606490fd5b81835290916001600160fb1b03831161038c5760209260051b809284830137010190565b9290613f4f906104b39593604086526040860191613f12565b926020818503910152613f12565b15613f6457565b60405162461bcd60e51b815260206004820152601f60248201527f436f6e7465737420736574746c6564202d2063616e6e6f742063616e63656c006044820152606490fd5b15613fb057565b60405162461bcd60e51b8152602060048201526012602482015271115e1c1a5c9e481b9bdd081c995858da195960721b6044820152606490fd5b15613ff157565b60405162461bcd60e51b815260206004820152600f60248201526e105b1c9958591e481cd95d1d1b1959608a1b6044820152606490fd5b61271091826140577f000000000000000000000000000000000000000000000000000000000000000084613619565b04926140837f000000000000000000000000000000000000000000000000000000000000000084613619565b0491838103908111612ae457828103908111612ae45790565b156140a357565b60405162461bcd60e51b81526020600482015260116024820152704e6f742077696e6e696e6720656e74727960781b6044820152606490fd5b356104b38161037b56fea26469706673582212203f632e488814a964b11211ef0ed43f0e19d18d83538052944657a1dedd5e7ab964736f6c63430008140033a26469706673582212200a4eebae563b21a7d1ba6614f0b2e0b45b575e50f7b5f0c4af5d693ee60fbe5a64736f6c63430008140033","linkReferences":{}},"methodIdentifiers":{"LIQUIDITY_MULTIPLIER()":"5e344ce6","contestHost(address)":"34dd7a2e","contests(uint256)":"9d7ed738","createContest(address,address,uint256,uint256,uint256,uint256,uint256,uint256,uint256)":"8740a5f5","getContestCount()":"64c3c166","getContests()":"bfaba76a"},"id":47}