{"abi":[{"type":"function","name":"contestHost","inputs":[{"name":"","type":"address","internalType":"address"}],"outputs":[{"name":"","type":"address","internalType":"address"}],"stateMutability":"view"},{"type":"function","name":"contests","inputs":[{"name":"","type":"uint256","internalType":"uint256"}],"outputs":[{"name":"","type":"address","internalType":"address"}],"stateMutability":"view"},{"type":"function","name":"createContest","inputs":[{"name":"paymentToken","type":"address","internalType":"address"},{"name":"oracle","type":"address","internalType":"address"},{"name":"contestantDepositAmount","type":"uint256","internalType":"uint256"},{"name":"oracleFee","type":"uint256","internalType":"uint256"},{"name":"expiry","type":"uint256","internalType":"uint256"},{"name":"liquidityParameter","type":"uint256","internalType":"uint256"},{"name":"demandSensitivity","type":"uint256","internalType":"uint256"},{"name":"prizeShareBps","type":"uint256","internalType":"uint256"},{"name":"userShareBps","type":"uint256","internalType":"uint256"}],"outputs":[{"name":"","type":"address","internalType":"address"}],"stateMutability":"nonpayable"},{"type":"function","name":"getContestCount","inputs":[],"outputs":[{"name":"","type":"uint256","internalType":"uint256"}],"stateMutability":"view"},{"type":"function","name":"getContests","inputs":[],"outputs":[{"name":"","type":"address[]","internalType":"address[]"}],"stateMutability":"view"},{"type":"event","name":"ContestCreated","inputs":[{"name":"contest","type":"address","indexed":true,"internalType":"address"},{"name":"host","type":"address","indexed":true,"internalType":"address"},{"name":"contestantDepositAmount","type":"uint256","indexed":false,"internalType":"uint256"}],"anonymous":false}],"bytecode":{"object":"0x608060405234801561001057600080fd5b50614c0f806100206000396000f3fe608060405234801561001057600080fd5b50600436106100575760003560e01c806334dd7a2e1461005c57806364c3c166146100a25780638740a5f5146100b35780639d7ed738146100c6578063bfaba76a146100d9575b600080fd5b61008561006a3660046102ca565b6001602052600090815260409020546001600160a01b031681565b6040516001600160a01b0390911681526020015b60405180910390f35b600054604051908152602001610099565b6100856100c13660046102ec565b6100ee565b6100856100d436600461035d565b610214565b6100e161023e565b6040516100999190610376565b6000808a8a8a8a8a8a8a8a8a604051610106906102a0565b6001600160a01b03998a16815298909716602089015260408801959095526060870193909352608086019190915260a085015260c084015260e083015261010082015261012001604051809103906000f080158015610169573d6000803e3d6000fd5b5060008054600180820183557f290decd9548b62a8d60345a988386fc84ba6bc95484008f6362f93160ef3e56390910180546001600160a01b03199081166001600160a01b038616908117909255818452602092835260409384902080543392168217905592518d8152939450849390917f0930d90e589f3eb61818e12c03f3b7838099abcb975a02054dc58e1fe7cddf0f910160405180910390a39b9a5050505050505050505050565b6000818154811061022457600080fd5b6000918252602090912001546001600160a01b0316905081565b6060600080548060200260200160405190810160405280929190818152602001828054801561029657602002820191906000526020600020905b81546001600160a01b03168152600190910190602001808311610278575b5050505050905090565b61481680620003c483390190565b80356001600160a01b03811681146102c557600080fd5b919050565b6000602082840312156102dc57600080fd5b6102e5826102ae565b9392505050565b60008060008060008060008060006101208a8c03121561030b57600080fd5b6103148a6102ae565b985061032260208b016102ae565b989b989a505050506040870135966060810135966080820135965060a0820135955060c0820135945060e08201359350610100909101359150565b60006020828403121561036f57600080fd5b5035919050565b6020808252825182820181905260009190848201906040850190845b818110156103b75783516001600160a01b031683529284019291840191600101610392565b5090969550505050505056fe6101a06040523480156200001257600080fd5b50604051620048163803806200481683398101604081905262000035916200035e565b6040805160208101909152600081526200004f816200032f565b5060016003556001600160a01b038916620000b15760405162461bcd60e51b815260206004820152601560248201527f496e76616c6964207061796d656e7420746f6b656e000000000000000000000060448201526064015b60405180910390fd5b6001600160a01b038816620000fa5760405162461bcd60e51b815260206004820152600e60248201526d496e76616c6964206f7261636c6560901b6044820152606401620000a8565b600087116200014c5760405162461bcd60e51b815260206004820152601660248201527f496e76616c6964206465706f73697420616d6f756e74000000000000000000006044820152606401620000a8565b6103e8861115620001a05760405162461bcd60e51b815260206004820152601360248201527f4f7261636c652066656520746f6f2068696768000000000000000000000000006044820152606401620000a8565b428511620001e25760405162461bcd60e51b815260206004820152600e60248201526d115e1c1a5c9e481a5b881c185cdd60921b6044820152606401620000a8565b60008411620002345760405162461bcd60e51b815260206004820152601b60248201527f496e76616c6964206c697175696469747920706172616d6574657200000000006044820152606401620000a8565b612710831115620002885760405162461bcd60e51b815260206004820152601a60248201527f496e76616c69642064656d616e642073656e73697469766974790000000000006044820152606401620000a8565b612710620002978284620003da565b1115620002e75760405162461bcd60e51b815260206004820152601660248201527f546f74616c2066656573206578636565642031303025000000000000000000006044820152606401620000a8565b6001600160a01b039889166080529690971660a05260c09490945260e09290925261010052610120526101405261016091909152610180526004805460ff1916905562000573565b60026200033d8282620004a7565b5050565b80516001600160a01b03811681146200035957600080fd5b919050565b60008060008060008060008060006101208a8c0312156200037e57600080fd5b620003898a62000341565b98506200039960208b0162000341565b975060408a0151965060608a0151955060808a0151945060a08a0151935060c08a0151925060e08a015191506101008a015190509295985092959850929598565b80820180821115620003fc57634e487b7160e01b600052601160045260246000fd5b92915050565b634e487b7160e01b600052604160045260246000fd5b600181811c908216806200042d57607f821691505b6020821081036200044e57634e487b7160e01b600052602260045260246000fd5b50919050565b601f821115620004a257600081815260208120601f850160051c810160208610156200047d5750805b601f850160051c820191505b818110156200049e5782815560010162000489565b5050505b505050565b81516001600160401b03811115620004c357620004c362000402565b620004db81620004d4845462000418565b8462000454565b602080601f831160018114620005135760008415620004fa5750858301515b600019600386901b1c1916600185901b1785556200049e565b600085815260208120601f198616915b82811015620005445788860151825594840194600190910190840162000523565b5085821015620005635787850151600019600388901b60f8161c191681555b5050505050600190811b01905550565b60805160a05160c05160e051610100516101205161014051610160516101805161412f620006e7600039600081816105a301528181610ba6015281816111b3015261168601526000818161071901528181610b6b01528181611178015261164b01526000818161064c0152612d690152600081816104ea0152612d45015260008181610779015281816121cc015281816125b8015261282e0152600081816105d201528181611d5901528181611d940152611f0c01526000818161042301528181610aaf01528181610d8d0152818161229f015261230201526000818161069101528181610ec70152818161135f01528181611a2001528181611e960152818161203d015261253b01526000818161048b01528181610cc801528181610d6a015281816112e4015281816117f001528181611e7401528181611f72015281816122de015281816124fb015281816126930152818161278401528181612b0101528181612b8d0152612f53015261412f6000f3fe608060405234801561001057600080fd5b50600436106103775760003560e01c80637964b54a116101d3578063ade6e2aa11610104578063e1a45218116100a2578063e8f45ab21161007c578063e8f45ab21461085c578063e985e9c51461087c578063f242432a1461088f578063f8c5992b146108a257600080fd5b8063e1a4521814610815578063e1f370dd1461081e578063e70baa891461083157600080fd5b8063c9a496aa116100de578063c9a496aa146107c8578063d09685b0146107db578063de11c839146107e3578063df1ef4c6146107ec57600080fd5b8063ade6e2aa14610774578063b30906d41461079b578063c19d93fb146107ae57600080fd5b8063a006b46811610171578063a422f3481161014b578063a422f34814610714578063a450fe441461073b578063a56964ab1461074e578063a5877e191461076157600080fd5b8063a006b468146106f0578063a01e4a1f146106f9578063a22cb4651461070157600080fd5b80638c13d546116101ad5780638c13d546146106b357806395082d25146106d6578063964766a5146106e057806398e1eac3146106e857600080fd5b80637964b54a146106775780637bc09bad1461067f5780637dc0d1d01461068c57600080fd5b80633a69a1be116102ad5780635a9855c31161024b57806367a89a3b1161022557806367a89a3b146106075780636932b38214610627578063693b46601461064757806378449d571461066e57600080fd5b80635a9855c3146105c55780635c76fda7146105cd5780635d6e6c7c146105f457600080fd5b80634e1273f4116102875780634e1273f414610542578063563930e71461056257806359fe5d68146105755780635a3e4e9e1461059e57600080fd5b80633a69a1be146104e55780633c9c73ed1461050c5780634c60b1f11461052f57600080fd5b80631f85354a1161031a5780632e0ec188116102f45780632e0ec188146104605780632eb2c2d6146104735780633013ce2914610486578063375bef8b146104c557600080fd5b80631f85354a1461041e57806322fc1d0a1461044557806324f9cc4c1461045857600080fd5b80630b913af0116103565780630b913af0146103da5780630e89341c146103ed57806317dd92581461040d5780631db0e6671461041657600080fd5b8062fdd58e1461037c57806301ffc9a7146103a257806307b19bfb146103c5575b600080fd5b61038f61038a3660046137cf565b6108b5565b6040519081526020015b60405180910390f35b6103b56103b036600461380f565b6108dd565b6040519015158152602001610399565b6103d86103d3366004613833565b61092d565b005b61038f6103e83660046137cf565b610df7565b6104006103fb366004613833565b610e28565b6040516103999190613892565b61038f600f5481565b6103d8610ebc565b61038f7f000000000000000000000000000000000000000000000000000000000000000081565b6103d86104533660046138a5565b610fc5565b6103d8611354565b6103d861046e3660046138a5565b611476565b6103d8610481366004613a0d565b611865565b6104ad7f000000000000000000000000000000000000000000000000000000000000000081565b6040516001600160a01b039091168152602001610399565b61038f6104d3366004613833565b60106020526000908152604090205481565b61038f7f000000000000000000000000000000000000000000000000000000000000000081565b6103b561051a366004613ab7565b600c6020526000908152604090205460ff1681565b61038f61053d3660046137cf565b6118cc565b610555610550366004613ad2565b611940565b6040516103999190613bcd565b6103d8610570366004613c2c565b611a15565b61038f610583366004613ab7565b6001600160a01b03166000908152600a602052604090205490565b61038f7f000000000000000000000000000000000000000000000000000000000000000081565b6103d8612032565b61038f7f000000000000000000000000000000000000000000000000000000000000000081565b6103d8610602366004613833565b61210d565b61038f610615366004613833565b60096020526000908152604090205481565b61038f610635366004613833565b600d6020526000908152604090205481565b61038f7f000000000000000000000000000000000000000000000000000000000000000081565b61038f60135481565b6103d861235d565b6014546103b59060ff1681565b6104ad7f000000000000000000000000000000000000000000000000000000000000000081565b6103b56106c1366004613833565b60076020526000908152604090205460ff1681565b61038f620f424081565b600b5461038f565b6103d8612530565b61038f600e5481565b6103d861282c565b6103d861070f366004613c98565b612906565b61038f7f000000000000000000000000000000000000000000000000000000000000000081565b6104ad610749366004613833565b612911565b6103d861075c366004613833565b612963565b6104ad61076f366004613833565b612bfa565b61038f7f000000000000000000000000000000000000000000000000000000000000000081565b61038f6107a9366004613833565b612c24565b6004546107bb9060ff1681565b6040516103999190613cea565b61038f6107d6366004613833565b612c45565b60055461038f565b61038f60085481565b6104ad6107fa366004613833565b6006602052600090815260409020546001600160a01b031681565b61038f61271081565b61038f61082c366004613833565b612c8e565b61038f61083f3660046137cf565b601260209081526000928352604080842090915290825290205481565b61038f61086a366004613ab7565b60116020526000908152604090205481565b6103b561088a366004613d12565b612dcc565b6103d861089d366004613d45565b612dfa565b6103d86108b0366004613833565b612e59565b6000818152602081815260408083206001600160a01b03861684529091529020545b92915050565b60006001600160e01b03198216636cdb3d1360e11b148061090e57506001600160e01b031982166303a24d0760e21b145b806108d757506301ffc9a760e01b6001600160e01b03198316146108d7565b610935612fae565b600060045460ff16600581111561094e5761094e613cd4565b148061096f57506004805460ff16600581111561096d5761096d613cd4565b145b6109d95760405162461bcd60e51b815260206004820152603060248201527f43616e6e6f74207769746864726177202d20636f6e7465737420696e2070726f60448201526f19dc995cdcc81bdc881cd95d1d1b195960821b60648201526084015b60405180910390fd5b6000818152600660205260409020546001600160a01b03163314610a315760405162461bcd60e51b815260206004820152600f60248201526e2737ba1032b73a393c9037bbb732b960891b60448201526064016109d0565b60008181526007602052604090205460ff1615610a905760405162461bcd60e51b815260206004820152601760248201527f456e74727920616c72656164792077697468647261776e00000000000000000060448201526064016109d0565b6000818152600760205260408120805460ff19166001179055600880547f00000000000000000000000000000000000000000000000000000000000000009290610adb908490613dc0565b9091555060009050805b600b54811015610d5c576000600b8281548110610b0457610b04613dd3565b60009182526020822001546001600160a01b03169150610b2482866108b5565b90508015610d47576001600160a01b03821660009081526012602090815260408083208884529091529020548015610d4557610b61838784612fd8565b6000612710610b907f000000000000000000000000000000000000000000000000000000000000000084613de9565b610b9a9190613e00565b90506000612710610bcb7f000000000000000000000000000000000000000000000000000000000000000085613de9565b610bd59190613e00565b90506000610be38284613e22565b90506000610bf18286613dc0565b905085600d60008c81526020019081526020016000206000828254610c169190613e35565b9250508190555083600f6000828254610c2f9190613dc0565b909155505060008a81526010602052604081208054859290610c52908490613dc0565b9250508190555080600e6000828254610c6b9190613dc0565b90915550506001600160a01b03871660009081526011602052604081208054879290610c98908490613dc0565b90915550506001600160a01b0380881660009081526012602090815260408083208e8452909152812055610cef907f0000000000000000000000000000000000000000000000000000000000000000168887613047565b89876001600160a01b03167f2306399dedc3481dae378e3b9952209dede2c0482a19e690b0231390d086061d87604051610d2b91815260200190565b60405180910390a388610d3d81613e5c565b995050505050505b505b50508080610d5490613e5c565b915050610ae5565b50610db16001600160a01b037f000000000000000000000000000000000000000000000000000000000000000016337f0000000000000000000000000000000000000000000000000000000000000000613047565b604051818152339083907fa0eeb808a10f56b15221fb8aeefb2b8cf677a82e4924d099bd08659179f2ead0906020015b60405180910390a350610df46001600355565b50565b600a6020528160005260406000208181548110610e1357600080fd5b90600052602060002001600091509150505481565b606060028054610e3790613e75565b80601f0160208091040260200160405190810160405280929190818152602001828054610e6390613e75565b8015610eb05780601f10610e8557610100808354040283529160200191610eb0565b820191906000526020600020905b815481529060010190602001808311610e9357829003601f168201915b50505050509050919050565b336001600160a01b037f00000000000000000000000000000000000000000000000000000000000000001614610f045760405162461bcd60e51b81526004016109d090613eaf565b600360045460ff166005811115610f1d57610f1d613cd4565b14158015610f425750600560045460ff166005811115610f3f57610f3f613cd4565b14155b610f8e5760405162461bcd60e51b815260206004820152601f60248201527f436f6e7465737420736574746c6564202d2063616e6e6f742063616e63656c0060448201526064016109d0565b6004805460ff1916811790556040517f9237e8f0d5063a695b8695e82c82bc24d15591de9d04449771a6ea4b1283173790600090a1565b610fcd612fae565b600060045460ff166005811115610fe657610fe6613cd4565b148061100757506004805460ff16600581111561100557611005613cd4565b145b61106c5760405162461bcd60e51b815260206004820152603060248201527f43616e6e6f74207769746864726177202d20636f6d7065746974696f6e20737460448201526f185c9d1959081bdc881cd95d1d1b195960821b60648201526084016109d0565b6000828152600660205260409020546001600160a01b03166110a05760405162461bcd60e51b81526004016109d090613ed3565b600081116110e55760405162461bcd60e51b81526020600482015260126024820152710416d6f756e74206d757374206265203e20360741b60448201526064016109d0565b806110f033846108b5565b10156111355760405162461bcd60e51b8152602060048201526014602482015273496e73756666696369656e742062616c616e636560601b60448201526064016109d0565b600061114133846108b5565b33600090815260116020526040812054919250908290611162908590613de9565b61116c9190613e00565b9050600061271061119d7f000000000000000000000000000000000000000000000000000000000000000084613de9565b6111a79190613e00565b905060006127106111d87f000000000000000000000000000000000000000000000000000000000000000085613de9565b6111e29190613e00565b905060006111f08284613e22565b905060006111fe8286613dc0565b905061120b338989612fd8565b6000888152600d602052604081208054899290611229908490613e35565b9250508190555083600f60008282546112429190613dc0565b909155505060008881526010602052604081208054859290611265908490613dc0565b9250508190555080600e600082825461127e9190613dc0565b909155505033600090815260116020526040812080548792906112a2908490613dc0565b90915550503360009081526012602090815260408083208b8452909152812080548792906112d1908490613dc0565b9091555061130b90506001600160a01b037f0000000000000000000000000000000000000000000000000000000000000000163387613047565b60405185815233907f1afd07c523e365fe5caad76bb954272a33ed72374f832943fe8bb4d8484683409060200160405180910390a25050505050506113506001600355565b5050565b336001600160a01b037f0000000000000000000000000000000000000000000000000000000000000000161461139c5760405162461bcd60e51b81526004016109d090613eaf565b600060045460ff1660058111156113b5576113b5613cd4565b146114025760405162461bcd60e51b815260206004820152601760248201527f436f6e7465737420616c7265616479207374617274656400000000000000000060448201526064016109d0565b60055461143e5760405162461bcd60e51b815260206004820152600a6024820152694e6f20656e747269657360b01b60448201526064016109d0565b6004805460ff191660011790556040517f3927b788a62eb53f7192cd9286f49295f01b938b6afc23aef0af5d035cd8531690600090a1565b61147e612fae565b600060045460ff16600581111561149757611497613cd4565b14806114b95750600160045460ff1660058111156114b7576114b7613cd4565b145b6115055760405162461bcd60e51b815260206004820152601960248201527f50726564696374696f6e73206e6f7420617661696c61626c650000000000000060448201526064016109d0565b6000828152600660205260409020546001600160a01b03166115395760405162461bcd60e51b81526004016109d090613ed3565b60008281526007602052604090205460ff161561158a5760405162461bcd60e51b815260206004820152600f60248201526e22b73a393c903bb4ba34323930bbb760891b60448201526064016109d0565b600081116115cf5760405162461bcd60e51b81526020600482015260126024820152710416d6f756e74206d757374206265203e20360741b60448201526064016109d0565b336000908152600c602052604090205460ff1661164157600b805460018181019092557f0175b7a638427703f0dbe7bb9bbf987a2551717b34e79f33b5b1008d1fa01db90180546001600160a01b031916339081179091556000908152600c60205260409020805460ff191690911790555b60006127106116707f000000000000000000000000000000000000000000000000000000000000000084613de9565b61167a9190613e00565b905060006127106116ab7f000000000000000000000000000000000000000000000000000000000000000085613de9565b6116b59190613e00565b905060006116c38284613e22565b905060006116d18286613dc0565b905060006116de87612c8e565b90506000816116f0620f424085613de9565b6116fa9190613e00565b905085600f600082825461170e9190613e22565b909155505060008881526010602052604081208054879290611731908490613e22565b90915550503360009081526011602052604081208054899290611755908490613e22565b90915550503360009081526012602090815260408083208b845290915281208054899290611784908490613e22565b925050819055506117a6338983604051806020016040528060008152506130ab565b6000888152600d6020526040812080548392906117c4908490613f01565b9250508190555082600e60008282546117dd9190613e22565b9091555061181890506001600160a01b037f00000000000000000000000000000000000000000000000000000000000000001633308a613108565b6040805188815260208101839052899133917f3d516f677e4f650c5678a09cdf06e998bf8e05cbe8d92906362e8589a8f064a5910160405180910390a35050505050506113506001600355565b336001600160a01b038616811480159061188657506118848682612dcc565b155b156118b75760405163711bec9160e11b81526001600160a01b038083166004830152871660248201526044016109d0565b6118c48686868686613141565b505050505050565b6001600160a01b0382166000908152600a602052604081205482106119035760405162461bcd60e51b81526004016109d090613f29565b6001600160a01b0383166000908152600a6020526040902080548390811061192d5761192d613dd3565b9060005260206000200154905092915050565b606081518351146119715781518351604051635b05999160e01b8152600481019290925260248201526044016109d0565b6000835167ffffffffffffffff81111561198d5761198d6138c7565b6040519080825280602002602001820160405280156119b6578160200160208202803683370190505b50905060005b8451811015611a0d576020808202860101516119e0906020808402870101516108b5565b8282815181106119f2576119f2613dd3565b6020908102919091010152611a0681613e5c565b90506119bc565b509392505050565b336001600160a01b037f00000000000000000000000000000000000000000000000000000000000000001614611a5d5760405162461bcd60e51b81526004016109d090613eaf565b611a65612fae565b600160045460ff166005811115611a7e57611a7e613cd4565b1480611aa05750600260045460ff166005811115611a9e57611a9e613cd4565b145b611aec5760405162461bcd60e51b815260206004820152601c60248201527f436f6e74657374206e6f7420616374697665206f72206c6f636b65640000000060448201526064016109d0565b82611b395760405162461bcd60e51b815260206004820152601d60248201527f4d7573742068617665206174206c65617374206f6e652077696e6e657200000060448201526064016109d0565b828114611b805760405162461bcd60e51b8152602060048201526015602482015274082e4e4c2f240d8cadccee8d040dad2e6dac2e8c6d605b1b60448201526064016109d0565b600554831115611bc55760405162461bcd60e51b815260206004820152601060248201526f546f6f206d616e792077696e6e65727360801b60448201526064016109d0565b6000805b82811015611c71576000848483818110611be557611be5613dd3565b9050602002013511611c395760405162461bcd60e51b815260206004820152601960248201527f557365206e6f6e2d7a65726f207061796f757473206f6e6c790000000000000060448201526064016109d0565b838382818110611c4b57611c4b613dd3565b9050602002013582611c5d9190613e22565b915080611c6981613e5c565b915050611bc9565b506127108114611cc35760405162461bcd60e51b815260206004820152601860248201527f5061796f757473206d7573742073756d20746f2031303025000000000000000060448201526064016109d0565b6004805460ff19166003179055600f54600854600091611ce291613e22565b90506000805b600554811015611d42576010600060058381548110611d0957611d09613dd3565b906000526020600020015481526020019081526020016000205482611d2e9190613e22565b915080611d3a81613e5c565b915050611ce8565b50611d4d8183613e22565b91506000612710611d7e7f000000000000000000000000000000000000000000000000000000000000000085613de9565b611d889190613e00565b90506000612710611db97f000000000000000000000000000000000000000000000000000000000000000082613dc0565b600f54600854611dc99190613e22565b611dd39190613de9565b611ddd9190613e00565b905060005b88811015611e605760008a8a83818110611dfe57611dfe613dd3565b90506020020135905060006127108a8a85818110611e1e57611e1e613dd3565b9050602002013585611e309190613de9565b611e3a9190613e00565b600092835260096020526040909220919091555080611e5881613e5c565b915050611de2565b508115611ebb57611ebb6001600160a01b037f0000000000000000000000000000000000000000000000000000000000000000167f000000000000000000000000000000000000000000000000000000000000000084613047565b60005b600554811015611fb257600060058281548110611edd57611edd613dd3565b600091825260208083209091015480835260109091526040909120549091508015611f9d576000612710611f317f000000000000000000000000000000000000000000000000000000000000000082613dc0565b611f3b9084613de9565b611f459190613e00565b60008481526010602090815260408083208390556006909152902054909150611f9b906001600160a01b037f00000000000000000000000000000000000000000000000000000000000000008116911683613047565b505b50508080611faa90613e5c565b915050611ebe565b5088886000818110611fc657611fc6613dd3565b6020029190910135601355506014805460ff191660011790556040517f0fed27f5e3cd741c181cc0d3b0c47df2013638faa8b7aa7084de3946098eb78e90612015908b908b908b908b90613f82565b60405180910390a1505050505061202c6001600355565b50505050565b336001600160a01b037f0000000000000000000000000000000000000000000000000000000000000000161461207a5760405162461bcd60e51b81526004016109d090613eaf565b600160045460ff16600581111561209357612093613cd4565b146120d55760405162461bcd60e51b8152602060048201526012602482015271436f6e74657374206e6f742061637469766560701b60448201526064016109d0565b6004805460ff191660021790556040517f91b4dd20084a71e964f322b0044cfe5523abf93f4d02b7e3ed621e1500fd162290600090a1565b612115612fae565b600060045460ff16600581111561212e5761212e613cd4565b1461216e5760405162461bcd60e51b815260206004820152601060248201526f21b7b73a32b9ba103737ba1037b832b760811b60448201526064016109d0565b6000818152600660205260409020546001600160a01b0316156121ca5760405162461bcd60e51b8152602060048201526014602482015273456e74727920616c72656164792065786973747360601b60448201526064016109d0565b7f0000000000000000000000000000000000000000000000000000000000000000421061222b5760405162461bcd60e51b815260206004820152600f60248201526e10dbdb9d195cdd08195e1c1a5c9959608a1b60448201526064016109d0565b6005805460018181019092557f036b6384b5eca791c62761152d0c79bb0604c104a5fb6f4eb0703f3154bb3db001829055600082815260066020908152604080832080546001600160a01b031916339081179091558352600a825282208054938401815582528120909101829055600880547f000000000000000000000000000000000000000000000000000000000000000092906122cb908490613e22565b9091555061232690506001600160a01b037f00000000000000000000000000000000000000000000000000000000000000001633307f0000000000000000000000000000000000000000000000000000000000000000613108565b604051819033907f4d503c0f892472082177d76a3e17f685ac26922907be7d7d9a76d287c75b011a90600090a3610df46001600355565b612365612fae565b600360045460ff16600581111561237e5761237e613cd4565b1461239b5760405162461bcd60e51b81526004016109d090613fb4565b336000908152600a60209081526040808320805482518185028101850190935280835284938301828280156123ef57602002820191906000526020600020905b8154815260200190600101908083116123db575b5050505050905060005b81518110156124b057600082828151811061241657612416613dd3565b60209081029190910181015160008181526009909252604090912054909150801561249b576000828152600960205260408120556124548186613e22565b945081336001600160a01b03167f701dad1e38516ac5470bc60eb299368a20c7f2b50f2a5b4bcbd0e5a3a74c186e8360405161249291815260200190565b60405180910390a35b505080806124a890613e5c565b9150506123f9565b50600082116124ee5760405162461bcd60e51b815260206004820152600a6024820152694e6f207061796f75747360b01b60448201526064016109d0565b6125226001600160a01b037f0000000000000000000000000000000000000000000000000000000000000000163384613047565b505061252e6001600355565b565b336001600160a01b037f000000000000000000000000000000000000000000000000000000000000000016146125785760405162461bcd60e51b81526004016109d090613eaf565b612580612fae565b600360045460ff16600581111561259957612599613cd4565b146125b65760405162461bcd60e51b81526004016109d090613fb4565b7f000000000000000000000000000000000000000000000000000000000000000042101561261b5760405162461bcd60e51b8152602060048201526012602482015271115e1c1a5c9e481b9bdd081c995858da195960721b60448201526064016109d0565b60008060005b6005548110156126de5760006005828154811061264057612640613dd3565b6000918252602080832090910154808352600990915260409091205490915080156126c957600082815260096020908152604080832083905560069091529020546001600160a01b03908116906126ba907f0000000000000000000000000000000000000000000000000000000000000000168284613047565b856126c481613e5c565b965050505b505080806126d690613e5c565b915050612621565b506013546000908152600d602052604090205480156127d25760005b600b548110156127d0576000600b828154811061271957612719613dd3565b60009182526020822001546013546001600160a01b03909116925061273f9083906108b5565b905080156127bb576127548260135483612fd8565b600084600e54836127659190613de9565b61276f9190613e00565b905080156127b9576127ab6001600160a01b037f0000000000000000000000000000000000000000000000000000000000000000168483613047565b856127b581613e5c565b9650505b505b505080806127c890613e5c565b9150506126fa565b505b6004805460ff191660051790556040805184815260208101849052428183015290517f81af9be4712c68e4890ef828e7ecb62e37897b50b7c0edab83fd545bd6d060b2916060908290030190a150505061252e6001600355565b7f000000000000000000000000000000000000000000000000000000000000000042101561288a5760405162461bcd60e51b815260206004820152600b60248201526a139bdd08195e1c1a5c995960aa1b60448201526064016109d0565b600360045460ff1660058111156128a3576128a3613cd4565b141580156128c85750600560045460ff1660058111156128c5576128c5613cd4565b14155b610f8e5760405162461bcd60e51b815260206004820152600f60248201526e105b1c9958591e481cd95d1d1b1959608a1b60448201526064016109d0565b6113503383836131a1565b600b5460009082106129355760405162461bcd60e51b81526004016109d090613f29565b600b828154811061294857612948613dd3565b6000918252602090912001546001600160a01b031692915050565b61296b612fae565b600360045460ff16600581111561298457612984613cd4565b146129a15760405162461bcd60e51b81526004016109d090613fb4565b60145460ff166129e95760405162461bcd60e51b815260206004820152601360248201527213585c9ad95d081b9bdd081c995cdbdb1d9959606a1b60448201526064016109d0565b6000818152600660205260409020546001600160a01b0316612a1d5760405162461bcd60e51b81526004016109d090613ed3565b6000612a2933836108b5565b905060008111612a675760405162461bcd60e51b81526020600482015260096024820152684e6f20746f6b656e7360b81b60448201526064016109d0565b612a72338383612fd8565b60006013548303612bb7576000838152600d602052604090205480612ac55760405162461bcd60e51b81526020600482015260096024820152684e6f20737570706c7960b81b60448201526064016109d0565b80600e5484612ad49190613de9565b612ade9190613e00565b6040516370a0823160e01b81523060048201529092506000906001600160a01b037f000000000000000000000000000000000000000000000000000000000000000016906370a0823190602401602060405180830381865afa158015612b48573d6000803e3d6000fd5b505050506040513d601f19601f82011682018060405250810190612b6c9190613fe1565b905080831115612b7a578092505b8215612bb457612bb46001600160a01b037f0000000000000000000000000000000000000000000000000000000000000000163385613047565b50505b604051818152839033907fd661a3227475e550e8171253b7c0e37ede0ff071f017a4c55b647d5a04b5e4359060200160405180910390a35050610df46001600355565b600b8181548110612c0a57600080fd5b6000918252602090912001546001600160a01b0316905081565b60058181548110612c3457600080fd5b600091825260209091200154905081565b6005546000908210612c695760405162461bcd60e51b81526004016109d090613f29565b60058281548110612c7c57612c7c613dd3565b90600052602060002001549050919050565b6000818152600660205260408120546001600160a01b0316612cc25760405162461bcd60e51b81526004016109d090613ed3565b60008281526007602052604090205460ff1615612d135760405162461bcd60e51b815260206004820152600f60248201526e22b73a393c903bb4ba34323930bbb760891b60448201526064016109d0565b6000828152600d60205260408120549080821215612d3957612d3482613ffa565b612d3b565b815b9050620f424060007f0000000000000000000000000000000000000000000000000000000000000000612d8e7f000000000000000000000000000000000000000000000000000000000000000085613de9565b612d989190613e00565b9050600084128015612da957508181105b15612dc257612db88183613dc0565b9695505050505050565b612db88183613e22565b6001600160a01b03918216600090815260016020908152604080832093909416825291909152205460ff1690565b336001600160a01b0386168114801590612e1b5750612e198682612dcc565b155b15612e4c5760405163711bec9160e11b81526001600160a01b038083166004830152871660248201526044016109d0565b6118c48686868686613237565b612e61612fae565b600360045460ff166005811115612e7a57612e7a613cd4565b14612e975760405162461bcd60e51b81526004016109d090613fb4565b6000818152600660205260409020546001600160a01b03163314612eef5760405162461bcd60e51b815260206004820152600f60248201526e2737ba1032b73a393c9037bbb732b960891b60448201526064016109d0565b60008181526009602052604090205480612f375760405162461bcd60e51b8152602060048201526009602482015268139bc81c185e5bdd5d60ba1b60448201526064016109d0565b600082815260096020526040812055612f7a6001600160a01b037f0000000000000000000000000000000000000000000000000000000000000000163383613047565b604051818152829033907f701dad1e38516ac5470bc60eb299368a20c7f2b50f2a5b4bcbd0e5a3a74c186e90602001610de1565b600260035403612fd157604051633ee5aeb560e01b815260040160405180910390fd5b6002600355565b6001600160a01b03831661300157604051626a0d4560e21b8152600060048201526024016109d0565b604080516001808252602082018590528183019081526060820184905260a08201909252600060808201818152919291613040918791859085906132c5565b5050505050565b6040516001600160a01b038381166024830152604482018390526130a691859182169063a9059cbb906064015b604051602081830303815290604052915060e01b6020820180516001600160e01b038381831617835250505050613318565b505050565b6001600160a01b0384166130d557604051632bfa23e760e11b8152600060048201526024016109d0565b604080516001808252602082018690528183019081526060820185905260808201909252906118c46000878484876132c5565b6040516001600160a01b03848116602483015283811660448301526064820183905261202c9186918216906323b872dd90608401613074565b6001600160a01b03841661316b57604051632bfa23e760e11b8152600060048201526024016109d0565b6001600160a01b03851661319457604051626a0d4560e21b8152600060048201526024016109d0565b61304085858585856132c5565b6001600160a01b0382166131ca5760405162ced3e160e81b8152600060048201526024016109d0565b6001600160a01b03838116600081815260016020908152604080832094871680845294825291829020805460ff191686151590811790915591519182527f17307eab39ab6107e8899845ad3d59bd9653f200f220920489ca2b5937696c31910160405180910390a3505050565b6001600160a01b03841661326157604051632bfa23e760e11b8152600060048201526024016109d0565b6001600160a01b03851661328a57604051626a0d4560e21b8152600060048201526024016109d0565b604080516001808252602082018690528183019081526060820185905260808201909252906132bc87878484876132c5565b50505050505050565b6132d185858585613389565b6001600160a01b03841615613040578251339060010361330a57602084810151908401516133038389898585896135a6565b50506118c4565b6118c48187878787876136ca565b600080602060008451602086016000885af18061333b576040513d6000823e3d81fd5b50506000513d91508115613353578060011415613360565b6001600160a01b0384163b155b1561202c57604051635274afe760e01b81526001600160a01b03851660048201526024016109d0565b80518251146133b85781518151604051635b05999160e01b8152600481019290925260248201526044016109d0565b3360005b83518110156134c7576020818102858101820151908501909101516001600160a01b0388161561346f576000828152602081815260408083206001600160a01b038c16845290915290205481811015613448576040516303dee4c560e01b81526001600160a01b038a1660048201526024810182905260448101839052606481018490526084016109d0565b6000838152602081815260408083206001600160a01b038d16845290915290209082900390555b6001600160a01b038716156134b4576000828152602081815260408083206001600160a01b038b168452909152812080548392906134ae908490613e22565b90915550505b5050806134c090613e5c565b90506133bc565b5082516001036135485760208301516000906020840151909150856001600160a01b0316876001600160a01b0316846001600160a01b03167fc3d58168c5ae7397731d063d5bbf3d657854427343f4c083240f7aacaa2d0f628585604051613539929190918252602082015260400190565b60405180910390a45050613040565b836001600160a01b0316856001600160a01b0316826001600160a01b03167f4a39dc06d4c0dbc64b70af90fd698a233a518aa5d07e595d983b8c0526c8f7fb8686604051613597929190614016565b60405180910390a45050505050565b6001600160a01b0384163b156118c45760405163f23a6e6160e01b81526001600160a01b0385169063f23a6e61906135ea9089908990889088908890600401614044565b6020604051808303816000875af1925050508015613625575060408051601f3d908101601f191682019092526136229181019061407e565b60015b61368e573d808015613653576040519150601f19603f3d011682016040523d82523d6000602084013e613658565b606091505b50805160000361368657604051632bfa23e760e11b81526001600160a01b03861660048201526024016109d0565b805181602001fd5b6001600160e01b0319811663f23a6e6160e01b146132bc57604051632bfa23e760e11b81526001600160a01b03861660048201526024016109d0565b6001600160a01b0384163b156118c45760405163bc197c8160e01b81526001600160a01b0385169063bc197c819061370e908990899088908890889060040161409b565b6020604051808303816000875af1925050508015613749575060408051601f3d908101601f191682019092526137469181019061407e565b60015b613777573d808015613653576040519150601f19603f3d011682016040523d82523d6000602084013e613658565b6001600160e01b0319811663bc197c8160e01b146132bc57604051632bfa23e760e11b81526001600160a01b03861660048201526024016109d0565b80356001600160a01b03811681146137ca57600080fd5b919050565b600080604083850312156137e257600080fd5b6137eb836137b3565b946020939093013593505050565b6001600160e01b031981168114610df457600080fd5b60006020828403121561382157600080fd5b813561382c816137f9565b9392505050565b60006020828403121561384557600080fd5b5035919050565b6000815180845260005b8181101561387257602081850181015186830182015201613856565b506000602082860101526020601f19601f83011685010191505092915050565b60208152600061382c602083018461384c565b600080604083850312156138b857600080fd5b50508035926020909101359150565b634e487b7160e01b600052604160045260246000fd5b604051601f8201601f1916810167ffffffffffffffff81118282101715613906576139066138c7565b604052919050565b600067ffffffffffffffff821115613928576139286138c7565b5060051b60200190565b600082601f83011261394357600080fd5b813560206139586139538361390e565b6138dd565b82815260059290921b8401810191818101908684111561397757600080fd5b8286015b84811015613992578035835291830191830161397b565b509695505050505050565b600082601f8301126139ae57600080fd5b813567ffffffffffffffff8111156139c8576139c86138c7565b6139db601f8201601f19166020016138dd565b8181528460208386010111156139f057600080fd5b816020850160208301376000918101602001919091529392505050565b600080600080600060a08688031215613a2557600080fd5b613a2e866137b3565b9450613a3c602087016137b3565b9350604086013567ffffffffffffffff80821115613a5957600080fd5b613a6589838a01613932565b94506060880135915080821115613a7b57600080fd5b613a8789838a01613932565b93506080880135915080821115613a9d57600080fd5b50613aaa8882890161399d565b9150509295509295909350565b600060208284031215613ac957600080fd5b61382c826137b3565b60008060408385031215613ae557600080fd5b823567ffffffffffffffff80821115613afd57600080fd5b818501915085601f830112613b1157600080fd5b81356020613b216139538361390e565b82815260059290921b84018101918181019089841115613b4057600080fd5b948201945b83861015613b6557613b56866137b3565b82529482019490820190613b45565b96505086013592505080821115613b7b57600080fd5b50613b8885828601613932565b9150509250929050565b600081518084526020808501945080840160005b83811015613bc257815187529582019590820190600101613ba6565b509495945050505050565b60208152600061382c6020830184613b92565b60008083601f840112613bf257600080fd5b50813567ffffffffffffffff811115613c0a57600080fd5b6020830191508360208260051b8501011115613c2557600080fd5b9250929050565b60008060008060408587031215613c4257600080fd5b843567ffffffffffffffff80821115613c5a57600080fd5b613c6688838901613be0565b90965094506020870135915080821115613c7f57600080fd5b50613c8c87828801613be0565b95989497509550505050565b60008060408385031215613cab57600080fd5b613cb4836137b3565b915060208301358015158114613cc957600080fd5b809150509250929050565b634e487b7160e01b600052602160045260246000fd5b6020810160068310613d0c57634e487b7160e01b600052602160045260246000fd5b91905290565b60008060408385031215613d2557600080fd5b613d2e836137b3565b9150613d3c602084016137b3565b90509250929050565b600080600080600060a08688031215613d5d57600080fd5b613d66866137b3565b9450613d74602087016137b3565b93506040860135925060608601359150608086013567ffffffffffffffff811115613d9e57600080fd5b613aaa8882890161399d565b634e487b7160e01b600052601160045260246000fd5b818103818111156108d7576108d7613daa565b634e487b7160e01b600052603260045260246000fd5b80820281158282048414176108d7576108d7613daa565b600082613e1d57634e487b7160e01b600052601260045260246000fd5b500490565b808201808211156108d7576108d7613daa565b8181036000831280158383131683831282161715613e5557613e55613daa565b5092915050565b600060018201613e6e57613e6e613daa565b5060010190565b600181811c90821680613e8957607f821691505b602082108103613ea957634e487b7160e01b600052602260045260246000fd5b50919050565b6020808252600a90820152694e6f74206f7261636c6560b01b604082015260600190565b602080825260149082015273115b9d1c9e48191bd95cc81b9bdd08195e1a5cdd60621b604082015260600190565b8082018281126000831280158216821582161715613f2157613f21613daa565b505092915050565b6020808252600d908201526c092dcecc2d8d2c840d2dcc8caf609b1b604082015260600190565b81835260006001600160fb1b03831115613f6957600080fd5b8260051b80836020870137939093016020019392505050565b604081526000613f96604083018688613f50565b8281036020840152613fa9818587613f50565b979650505050505050565b60208082526013908201527210dbdb9d195cdd081b9bdd081cd95d1d1b1959606a1b604082015260600190565b600060208284031215613ff357600080fd5b5051919050565b6000600160ff1b820161400f5761400f613daa565b5060000390565b6040815260006140296040830185613b92565b828103602084015261403b8185613b92565b95945050505050565b6001600160a01b03868116825285166020820152604081018490526060810183905260a060808201819052600090613fa99083018461384c565b60006020828403121561409057600080fd5b815161382c816137f9565b6001600160a01b0386811682528516602082015260a0604082018190526000906140c790830186613b92565b82810360608401526140d98186613b92565b905082810360808401526140ed818561384c565b9897505050505050505056fea2646970667358221220f4934aa5069a2a52fca56e4d183cfd6d20a2333d7ed926c3fcf1f9811718158364736f6c63430008140033a2646970667358221220a599c89c0dab83e835fc7febe8e34ea8cc3b822ee29b23df1634aa1c47a80ccf64736f6c63430008140033","linkReferences":{}},"methodIdentifiers":{"contestHost(address)":"34dd7a2e","contests(uint256)":"9d7ed738","createContest(address,address,uint256,uint256,uint256,uint256,uint256,uint256,uint256)":"8740a5f5","getContestCount()":"64c3c166","getContests()":"bfaba76a"},"id":45}