{"abi":[{"type":"constructor","inputs":[{"name":"_usdcToken","type":"address","internalType":"address"},{"name":"_platformToken","type":"address","internalType":"address"},{"name":"_cUSDC","type":"address","internalType":"address"}],"stateMutability":"nonpayable"},{"type":"function","name":"balanceSupply","inputs":[{"name":"to","type":"address","internalType":"address"}],"outputs":[],"stateMutability":"nonpayable"},{"type":"function","name":"cUSDC","inputs":[],"outputs":[{"name":"","type":"address","internalType":"contract ICErc20"}],"stateMutability":"view"},{"type":"function","name":"depositUSDC","inputs":[{"name":"amount","type":"uint256","internalType":"uint256"}],"outputs":[],"stateMutability":"nonpayable"},{"type":"function","name":"emergencyWithdrawAll","inputs":[{"name":"to","type":"address","internalType":"address"}],"outputs":[],"stateMutability":"nonpayable"},{"type":"function","name":"getCompoundUSDCBalance","inputs":[],"outputs":[{"name":"","type":"uint256","internalType":"uint256"}],"stateMutability":"view"},{"type":"function","name":"getTokenManagerUSDCBalance","inputs":[],"outputs":[{"name":"","type":"uint256","internalType":"uint256"}],"stateMutability":"view"},{"type":"function","name":"getTotalAvailableBalance","inputs":[],"outputs":[{"name":"","type":"uint256","internalType":"uint256"}],"stateMutability":"view"},{"type":"function","name":"isCompoundSupplyPaused","inputs":[],"outputs":[{"name":"","type":"bool","internalType":"bool"}],"stateMutability":"view"},{"type":"function","name":"isCompoundWithdrawPaused","inputs":[],"outputs":[{"name":"","type":"bool","internalType":"bool"}],"stateMutability":"view"},{"type":"function","name":"owner","inputs":[],"outputs":[{"name":"","type":"address","internalType":"address"}],"stateMutability":"view"},{"type":"function","name":"platformToken","inputs":[],"outputs":[{"name":"","type":"address","internalType":"contract PlatformToken"}],"stateMutability":"view"},{"type":"function","name":"renounceOwnership","inputs":[],"outputs":[],"stateMutability":"nonpayable"},{"type":"function","name":"transferOwnership","inputs":[{"name":"newOwner","type":"address","internalType":"address"}],"outputs":[],"stateMutability":"nonpayable"},{"type":"function","name":"usdcToken","inputs":[],"outputs":[{"name":"","type":"address","internalType":"contract IERC20"}],"stateMutability":"view"},{"type":"function","name":"withdrawUSDC","inputs":[{"name":"platformTokenAmount","type":"uint256","internalType":"uint256"}],"outputs":[],"stateMutability":"nonpayable"},{"type":"event","name":"BalanceSupply","inputs":[{"name":"owner","type":"address","indexed":true,"internalType":"address"},{"name":"recipient","type":"address","indexed":true,"internalType":"address"},{"name":"amount","type":"uint256","indexed":false,"internalType":"uint256"},{"name":"timestamp","type":"uint256","indexed":false,"internalType":"uint256"}],"anonymous":false},{"type":"event","name":"CompoundDepositFallback","inputs":[{"name":"user","type":"address","indexed":true,"internalType":"address"},{"name":"usdcAmount","type":"uint256","indexed":false,"internalType":"uint256"},{"name":"reason","type":"string","indexed":false,"internalType":"string"}],"anonymous":false},{"type":"event","name":"EmergencyWithdrawal","inputs":[{"name":"owner","type":"address","indexed":true,"internalType":"address"},{"name":"recipient","type":"address","indexed":true,"internalType":"address"},{"name":"amount","type":"uint256","indexed":false,"internalType":"uint256"},{"name":"timestamp","type":"uint256","indexed":false,"internalType":"uint256"}],"anonymous":false},{"type":"event","name":"OwnershipTransferred","inputs":[{"name":"previousOwner","type":"address","indexed":true,"internalType":"address"},{"name":"newOwner","type":"address","indexed":true,"internalType":"address"}],"anonymous":false},{"type":"event","name":"USDCDeposited","inputs":[{"name":"user","type":"address","indexed":true,"internalType":"address"},{"name":"usdcAmount","type":"uint256","indexed":false,"internalType":"uint256"},{"name":"platformTokensMinted","type":"uint256","indexed":false,"internalType":"uint256"}],"anonymous":false},{"type":"event","name":"USDCWithdrawn","inputs":[{"name":"user","type":"address","indexed":true,"internalType":"address"},{"name":"platformTokensBurned","type":"uint256","indexed":false,"internalType":"uint256"},{"name":"usdcAmount","type":"uint256","indexed":false,"internalType":"uint256"}],"anonymous":false},{"type":"error","name":"OwnableInvalidOwner","inputs":[{"name":"owner","type":"address","internalType":"address"}]},{"type":"error","name":"OwnableUnauthorizedAccount","inputs":[{"name":"account","type":"address","internalType":"address"}]},{"type":"error","name":"ReentrancyGuardReentrantCall","inputs":[]},{"type":"error","name":"SafeERC20FailedOperation","inputs":[{"name":"token","type":"address","internalType":"address"}]}],"bytecode":{"object":"0x60e0346200028c57601f62001a7138819003918201601f191683019291906001600160401b03841183851017620002915781606092849260409687528339810103126200028c576200005181620002a7565b6200006c836200006460208501620002a7565b9301620002a7565b9060016000553315620002745760018054336001600160a01b0319821681179092558551946001600160a01b03939092849283167f8be0079c531659141344cd1fd0a4f28419497f9722a3daafe3b4186f6b6457e0600080a3169384156200022857508116918215620001d65716918215620001925760805260a05260c052516117b49081620002bd8239608051818181610128015281816106bc01528181610afe0152818161101f0152818161112a0152818161130a0152611535015260a05181818161017c0152818161067f01528181610aa50152610f7d015260c0518181816101e3015281816105c10152818161070a015281816109da01528181610cac01528181610dac01528181610fc1015281816110860152818161117301526113db0152f35b835162461bcd60e51b815260206004820152601c60248201527f43555344432063616e6e6f74206265207a65726f2061646472657373000000006044820152606490fd5b845162461bcd60e51b815260206004820152602560248201527f506c6174666f726d20746f6b656e2063616e6e6f74206265207a65726f206164604482015264647265737360d81b6064820152608490fd5b62461bcd60e51b815260206004820152602160248201527f5553444320746f6b656e2063616e6e6f74206265207a65726f206164647265736044820152607360f81b6064820152608490fd5b8351631e4fbdf760e01b815260006004820152602490fd5b600080fd5b634e487b7160e01b600052604160045260246000fd5b51906001600160a01b03821682036200028c5756fe6080604081815260048036101561001557600080fd5b600092833560e01c90816311eac855146115215750806354ab62691461128d578063715018a61461122f5780638782524e146110f15780638da5cb5b146110c8578063970d01f01461105f578063a218f7b114610ff0578063ce347a3e14610fac578063d1b812cd14610f68578063db81f99b14610a5e578063e1b38156146109ab578063e3c427b61461062d578063ec559a131461059a578063f2fde38b146105065763f688bcfb146100c857600080fd5b3461037757602091826003193601126104ce578135926100e66116eb565b8315906100f38215611590565b64e8d4a5100091828602928684041417156104f35782516323b872dd60e01b81523381860152306024820152604481018690527f00000000000000000000000000000000000000000000000000000000000000009487916001600160a01b038088169291858160648188885af19081156104b057906101799186916104d6575b50611640565b807f000000000000000000000000000000000000000000000000000000000000000016803b156104d25787516340c10f1960e01b815233848201908152602081018990529091869183919082908490829060400103925af180156104b0579085916104ba575b50507f000000000000000000000000000000000000000000000000000000000000000016968651630bc47ad160e01b8152858184818c5afa9081156104b0578591610483575b5061040257865163095ea7b360e01b8682018181526001600160a01b038b16602484015260448084018d9052835291929187908790610265606487611606565b85519082865af186513d826103e6575b50501561037b575b505050863b15610377578551631e573fb760e31b81526001600160a01b03909216908201908152602081018890529095829187919082908490829060400103925af1948561035f575b50507fdf761661d51ab4147355430c8891e0dc7406b6aece4d2b564ccd87e0baa6dfd9931560001461035a57825185815283828201526016848201527510dbdb5c1bdd5b99081cdd5c1c1b1e4819985a5b195960521b60608201527f3554b7a16ab99066e785a88a3412248e24757254e599304e8520474a76d3f29960803392a25b82519485528401523392a26001815580f35b610348565b610368906115dc565b6103735785386102c6565b8580fd5b8280fd5b909192939450875190868201528860248201528a6044820152604481526080810181811067ffffffffffffffff8211176103d157916103c48c969594926103c9948b5282611683565b611683565b38808061027d565b604185634e487b7160e01b6000525260246000fd5b9091506103fa5750843b15155b3880610275565b6001146103f3565b505050507fdf761661d51ab4147355430c8891e0dc7406b6aece4d2b564ccd87e0baa6dfd99350825185815283828201526016848201527510dbdb5c1bdd5b99081cdd5c1c1b1e481c185d5cd95960521b60608201527f3554b7a16ab99066e785a88a3412248e24757254e599304e8520474a76d3f29960803392a2610348565b6104a39150863d88116104a9575b61049b8183611606565b810190611628565b38610225565b503d610491565b88513d87823e3d90fd5b6104c3906115dc565b6104ce5783386101df565b8380fd5b8480fd5b6104ed9150873d89116104a95761049b8183611606565b38610173565b634e487b7160e01b865260118452602486fd5b509034610377576020366003190112610377576001600160a01b038235818116939192908490036104d257610539611564565b8315610584575050600154826bffffffffffffffffffffffff60a01b821617600155167f8be0079c531659141344cd1fd0a4f28419497f9722a3daafe3b4186f6b6457e0600080a380f35b51631e4fbdf760e01b8152908101849052602490fd5b5090346103775782600319360112610377578051630bc47ad160e01b8152916020908390817f00000000000000000000000000000000000000000000000000000000000000006001600160a01b03165afa9182156106235760209392610604575b50519015158152f35b61061c919250833d81116104a95761049b8183611606565b90386105fb565b81513d85823e3d90fd5b50903461037757602090816003193601126104ce5782356001600160a01b03818116949193918585036109a757610662611564565b61066d86151561173e565b83516318160ddd60e01b8152838183817f000000000000000000000000000000000000000000000000000000000000000087165afa801561099d57889061096b575b64e8d4a5100091500494827f000000000000000000000000000000000000000000000000000000000000000016918551936370a0823160e01b9081865230838701528686602481885afa958615610932578b9661093c575b507f00000000000000000000000000000000000000000000000000000000000000001690875190815230838201528681602481855afa8015610932578b906108fe575b610755915086611731565b978a988181116108eb575b505087156108a8579189869492899485881061081a575b50885163a9059cbb60e01b81526001600160a01b0390931690830190815260208101949094529094508492839190829060400103925af1908115610810577f6477ace5d8e24d89a6cf79662efd0c77a90e58b441eee1b55df3ccedec260a1e9392916107e99188916107f95750611640565b815193845242908401523392a380f35b6104ed9150833d85116104a95761049b8183611606565b83513d88823e3d90fd5b93955091939561082a919661170e565b91803b1561037357875163f3fef3a360e01b81526001600160a01b038616838201908152602081019490945295928391879182908490829060400103925af1801561089e5791889391879593610881575b86610777565b935093509361089084916115dc565b61037757838593889361087b565b87513d84823e3d90fd5b865162461bcd60e51b8152808301879052601a60248201527f4e6f20657863657373205553444320746f2077697468647261770000000000006044820152606490fd5b6108f692995061170e565b963880610760565b508681813d831161092b575b6109148183611606565b8101031261092657610755905161074a565b600080fd5b503d61090a565b88513d8d823e3d90fd5b9095508681813d8311610964575b6109548183611606565b8101031261092657519438610707565b503d61094a565b508381813d8311610996575b6109818183611606565b810103126109265764e8d4a5100090516106af565b503d610977565b85513d8a823e3d90fd5b8680fd5b50919034610a5a5781600319360112610a5a5780516370a0823160e01b815230938101939093526020836024817f00000000000000000000000000000000000000000000000000000000000000006001600160a01b03165afa918215610a4f5791610a1b575b6020925051908152f35b90506020823d8211610a47575b81610a3560209383611606565b81010312610926576020915190610a11565b3d9150610a28565b9051903d90823e3d90fd5b5080fd5b50903461037757602090816003193601126104ce57823591610a7e6116eb565b610a89831515611590565b81516370a0823160e01b80825233868301526001600160a01b037f0000000000000000000000000000000000000000000000000000000000000000811693926024929084818581895afa908115610f5e579088918b91610f2d575b5010610eeb5764e8d4a510008704918215610eb557808a917f000000000000000000000000000000000000000000000000000000000000000016968851848152308c820152878188818c5afa908115610eab579086918591610e79575b5010610d96575b803b15610377578851632770a7eb60e21b815233818d01908152602081018c90529091849183919082908490829060400103925af18015610d7857908391610d82575b50508751838152308b820152868187818b5afa908115610d78579083929188959491610d46575b50858110610c9b575b50505086519384918252308a83015281875afa91821561099d578892610c68575b50958291610c2097808210600014610c5e57509384915b865163a9059cbb60e01b81523391810191825260208201939093529197889283918b918391604090910190565b03925af1948515610810577f9cc6dc8bdb4b6ad75707375ac18017379f79114f0d0dd85bf6de99c0522e8e2794956103489188916107f95750611640565b9050938491610bf3565b9150958282813d8311610c94575b610c808183611606565b810103126109265790519095610c20610bdc565b503d610c76565b610ca991929394508561170e565b907f000000000000000000000000000000000000000000000000000000000000000016803b1561037757885163f3fef3a360e01b81526001600160a01b038916818d019081526020810193909352918391839182908490829060400103925af18015610d3c579086939291610d1f575b80610bbb565b610d2b919293506115dc565b610d385783908938610d19565b8880fd5b88513d84823e3d90fd5b9250509281813d8311610d71575b610d5e8183611606565b810103126109265785928b915138610bb2565b503d610d54565b89513d85823e3d90fd5b610d8b906115dc565b610a5a578138610b8b565b88516367800b5f60e01b81529192509086818c817f000000000000000000000000000000000000000000000000000000000000000087165afa908115610e6f578c91610e52575b50610dea57908a91610b48565b875162461bcd60e51b8152808b01879052603d818701527f436f6d706f756e642077697468647261772069732070617573656420616e642060448201527f696e73756666696369656e7420636f6e74726163742062616c616e63650000006064820152608490fd5b610e699150873d89116104a95761049b8183611606565b38610ddd565b89513d8e823e3d90fd5b945050508683813d8311610ea4575b610e928183611606565b8101031261092657848c935138610b41565b503d610e88565b8a513d86823e3d90fd5b865162461bcd60e51b8152808a01869052601181860152702737902aa9a221903a37903932ba3ab93760791b6044820152606490fd5b855162461bcd60e51b8152808901859052601c818501527f496e73756666696369656e7420706c6174666f726d20746f6b656e73000000006044820152606490fd5b809250868092503d8311610f57575b610f468183611606565b810103126109265787905138610ae4565b503d610f3c565b87513d8c823e3d90fd5b505034610a5a5781600319360112610a5a57517f00000000000000000000000000000000000000000000000000000000000000006001600160a01b03168152602090f35b505034610a5a5781600319360112610a5a57517f00000000000000000000000000000000000000000000000000000000000000006001600160a01b03168152602090f35b50919034610a5a5781600319360112610a5a5780516370a0823160e01b815230938101939093526020836024817f00000000000000000000000000000000000000000000000000000000000000006001600160a01b03165afa918215610a4f5791610a1b576020925051908152f35b50903461037757826003193601126103775780516367800b5f60e01b8152916020908390817f00000000000000000000000000000000000000000000000000000000000000006001600160a01b03165afa91821561062357602093926106045750519015158152f35b505034610a5a5781600319360112610a5a5760015490516001600160a01b039091168152602090f35b50913461122c578060031936011261122c5781516370a0823160e01b80825230858301526020946001600160a01b0393929186836024817f000000000000000000000000000000000000000000000000000000000000000089165afa928315611222579087929185946111ef575b5060249087519687938492835230908301527f0000000000000000000000000000000000000000000000000000000000000000165afa9182156111e457916111b3575b6111ac9250611731565b9051908152f35b90508382813d83116111dd575b6111ca8183611606565b81010312610926576111ac9151906111a2565b503d6111c0565b8451903d90823e3d90fd5b8381949295503d831161121b575b6112078183611606565b81010312610926576024879251939061115f565b503d6111fd565b86513d86823e3d90fd5b80fd5b833461122c578060031936011261122c57611248611564565b600180546001600160a01b031981169091556000906001600160a01b03167f8be0079c531659141344cd1fd0a4f28419497f9722a3daafe3b4186f6b6457e08280a380f35b50903461037757602090816003193601126104ce5782356001600160a01b03818116949193918585036109a7576112c2611564565b6112cd86151561173e565b83516343c1292760e11b81529483868381305afa95861561099d5788966114ee575b5085156114b45784516370a0823160e01b81523081840152927f000000000000000000000000000000000000000000000000000000000000000081169289918686602481885afa9586156114aa579183918a959389979598611476575b508588106113c8575b50885163a9059cbb60e01b81526001600160a01b039093169083019081526020810194909452909450849283919082906040015b03925af1908115610810577f873da158b95a7e5e83e2f84a94eeadadc115c324112605ca1819b276b3b035fa9392916107e99188916107f95750611640565b92955093956113d891939661170e565b907f00000000000000000000000000000000000000000000000000000000000000001690813b1561037757875163f3fef3a360e01b81526001600160a01b03871685820190815260208101929092529291839182908490829060400103925af1801561146c5761144f575b84928988938693611355565b928492879299611461611389966115dc565b999250925092611443565b86513d8b823e3d90fd5b955096509484813d83116114a3575b61148f8183611606565b8101031261122c578694899451963861134c565b503d611485565b88513d85823e3d90fd5b845162461bcd60e51b815280830185905260146024820152734e6f2066756e647320746f20776974686472617760601b6044820152606490fd5b9095508381813d831161151a575b6115068183611606565b81010312611516575194386112ef565b8780fd5b503d6114fc565b849034610a5a5781600319360112610a5a577f00000000000000000000000000000000000000000000000000000000000000006001600160a01b03168152602090f35b6001546001600160a01b0316330361157857565b60405163118cdaa760e01b8152336004820152602490fd5b1561159757565b60405162461bcd60e51b815260206004820152601d60248201527f416d6f756e74206d7573742062652067726561746572207468616e20300000006044820152606490fd5b67ffffffffffffffff81116115f057604052565b634e487b7160e01b600052604160045260246000fd5b90601f8019910116810190811067ffffffffffffffff8211176115f057604052565b90816020910312610926575180151581036109265790565b1561164757565b60405162461bcd60e51b81526020600482015260146024820152731554d110c81d1c985b9cd9995c8819985a5b195960621b6044820152606490fd5b906000602091828151910182855af1156116df576000513d6116d657506001600160a01b0381163b155b6116b45750565b604051635274afe760e01b81526001600160a01b039091166004820152602490fd5b600114156116ad565b6040513d6000823e3d90fd5b6002600054146116fc576002600055565b604051633ee5aeb560e01b8152600490fd5b9190820391821161171b57565b634e487b7160e01b600052601160045260246000fd5b9190820180921161171b57565b1561174557565b60405162461bcd60e51b8152602060048201526011602482015270125b9d985b1a59081c9958da5c1a595b9d607a1b6044820152606490fdfea26469706673582212201921b6fc993273edf8097c553d2c09c221acbf8fb281226403ab4f90413a845964736f6c63430008140033","linkReferences":{}},"methodIdentifiers":{"balanceSupply(address)":"e3c427b6","cUSDC()":"ce347a3e","depositUSDC(uint256)":"f688bcfb","emergencyWithdrawAll(address)":"54ab6269","getCompoundUSDCBalance()":"e1b38156","getTokenManagerUSDCBalance()":"a218f7b1","getTotalAvailableBalance()":"8782524e","isCompoundSupplyPaused()":"ec559a13","isCompoundWithdrawPaused()":"970d01f0","owner()":"8da5cb5b","platformToken()":"d1b812cd","renounceOwnership()":"715018a6","transferOwnership(address)":"f2fde38b","usdcToken()":"11eac855","withdrawUSDC(uint256)":"db81f99b"},"id":46}