{"abi":[{"type":"constructor","inputs":[{"name":"_usdcToken","type":"address","internalType":"address"},{"name":"_platformToken","type":"address","internalType":"address"},{"name":"_cUSDC","type":"address","internalType":"address"}],"stateMutability":"nonpayable"},{"type":"function","name":"balanceSupply","inputs":[{"name":"to","type":"address","internalType":"address"}],"outputs":[],"stateMutability":"nonpayable"},{"type":"function","name":"cUSDC","inputs":[],"outputs":[{"name":"","type":"address","internalType":"contract ICErc20"}],"stateMutability":"view"},{"type":"function","name":"depositUSDC","inputs":[{"name":"amount","type":"uint256","internalType":"uint256"}],"outputs":[],"stateMutability":"nonpayable"},{"type":"function","name":"emergencyWithdrawAll","inputs":[{"name":"to","type":"address","internalType":"address"}],"outputs":[],"stateMutability":"nonpayable"},{"type":"function","name":"getCompoundUSDCBalance","inputs":[],"outputs":[{"name":"","type":"uint256","internalType":"uint256"}],"stateMutability":"view"},{"type":"function","name":"getTokenManagerUSDCBalance","inputs":[],"outputs":[{"name":"","type":"uint256","internalType":"uint256"}],"stateMutability":"view"},{"type":"function","name":"getTotalAvailableBalance","inputs":[],"outputs":[{"name":"","type":"uint256","internalType":"uint256"}],"stateMutability":"view"},{"type":"function","name":"owner","inputs":[],"outputs":[{"name":"","type":"address","internalType":"address"}],"stateMutability":"view"},{"type":"function","name":"platformToken","inputs":[],"outputs":[{"name":"","type":"address","internalType":"contract PlatformToken"}],"stateMutability":"view"},{"type":"function","name":"renounceOwnership","inputs":[],"outputs":[],"stateMutability":"nonpayable"},{"type":"function","name":"transferOwnership","inputs":[{"name":"newOwner","type":"address","internalType":"address"}],"outputs":[],"stateMutability":"nonpayable"},{"type":"function","name":"usdcToken","inputs":[],"outputs":[{"name":"","type":"address","internalType":"contract IERC20"}],"stateMutability":"view"},{"type":"function","name":"withdrawAll","inputs":[],"outputs":[],"stateMutability":"nonpayable"},{"type":"function","name":"withdrawUSDC","inputs":[{"name":"platformTokenAmount","type":"uint256","internalType":"uint256"}],"outputs":[],"stateMutability":"nonpayable"},{"type":"event","name":"BalanceSupply","inputs":[{"name":"owner","type":"address","indexed":true,"internalType":"address"},{"name":"recipient","type":"address","indexed":true,"internalType":"address"},{"name":"amount","type":"uint256","indexed":false,"internalType":"uint256"},{"name":"timestamp","type":"uint256","indexed":false,"internalType":"uint256"}],"anonymous":false},{"type":"event","name":"EmergencyWithdrawal","inputs":[{"name":"owner","type":"address","indexed":true,"internalType":"address"},{"name":"recipient","type":"address","indexed":true,"internalType":"address"},{"name":"amount","type":"uint256","indexed":false,"internalType":"uint256"},{"name":"timestamp","type":"uint256","indexed":false,"internalType":"uint256"}],"anonymous":false},{"type":"event","name":"OwnershipTransferred","inputs":[{"name":"previousOwner","type":"address","indexed":true,"internalType":"address"},{"name":"newOwner","type":"address","indexed":true,"internalType":"address"}],"anonymous":false},{"type":"event","name":"USDCDeposited","inputs":[{"name":"user","type":"address","indexed":true,"internalType":"address"},{"name":"usdcAmount","type":"uint256","indexed":false,"internalType":"uint256"},{"name":"platformTokensMinted","type":"uint256","indexed":false,"internalType":"uint256"}],"anonymous":false},{"type":"event","name":"USDCWithdrawn","inputs":[{"name":"user","type":"address","indexed":true,"internalType":"address"},{"name":"platformTokensBurned","type":"uint256","indexed":false,"internalType":"uint256"},{"name":"usdcAmount","type":"uint256","indexed":false,"internalType":"uint256"}],"anonymous":false},{"type":"error","name":"OwnableInvalidOwner","inputs":[{"name":"owner","type":"address","internalType":"address"}]},{"type":"error","name":"OwnableUnauthorizedAccount","inputs":[{"name":"account","type":"address","internalType":"address"}]},{"type":"error","name":"ReentrancyGuardReentrantCall","inputs":[]}],"bytecode":{"object":"0x60e06040523480156200001157600080fd5b50604051620020e5380380620020e583398101604081905262000034916200021a565b600160005533806200006157604051631e4fbdf760e01b8152600060048201526024015b60405180910390fd5b6200006c81620001ab565b506001600160a01b038316620000cf5760405162461bcd60e51b815260206004820152602160248201527f5553444320746f6b656e2063616e6e6f74206265207a65726f206164647265736044820152607360f81b606482015260840162000058565b6001600160a01b038216620001355760405162461bcd60e51b815260206004820152602560248201527f506c6174666f726d20746f6b656e2063616e6e6f74206265207a65726f206164604482015264647265737360d81b606482015260840162000058565b6001600160a01b0381166200018d5760405162461bcd60e51b815260206004820152601c60248201527f43555344432063616e6e6f74206265207a65726f206164647265737300000000604482015260640162000058565b6001600160a01b0392831660805290821660a0521660c05262000264565b600180546001600160a01b038381166001600160a01b0319831681179093556040519116919082907f8be0079c531659141344cd1fd0a4f28419497f9722a3daafe3b4186f6b6457e090600090a35050565b80516001600160a01b03811681146200021557600080fd5b919050565b6000806000606084860312156200023057600080fd5b6200023b84620001fd565b92506200024b60208501620001fd565b91506200025b60408501620001fd565b90509250925092565b60805160a05160c051611d4f620003966000396000818161018c015281816103e80152818161066c015281816108cb01528181610b0b01528181610dd30152818161103201528181611274015281816114450152818161155501528181611777015281816119d50152611a5a0152600081816101b3015281816105a5015281816107a701528181610d1001528181610f0e01528181611301015261192801526000818160f401528181610345015281816104150152818161048d01528181610827015281816108f80152818161096e015281816109fa01528181610b9301528181610c2d01528181610f8e0152818161105f015281816110d501528181611161015281816113b701528181611582015281816115fa01528181611885015281816119a60152611a870152611d4f6000f3fe608060405234801561001057600080fd5b50600436106100ea5760003560e01c8063ce347a3e1161008c578063e1b3815611610066578063e1b38156146101e8578063e3c427b6146101f0578063f2fde38b14610203578063f688bcfb1461021657600080fd5b8063ce347a3e14610187578063d1b812cd146101ae578063db81f99b146101d557600080fd5b8063853828b6116100c8578063853828b6146101505780638782524e146101585780638da5cb5b1461016e578063a218f7b11461017f57600080fd5b806311eac855146100ef57806354ab626914610133578063715018a614610148575b600080fd5b6101167f000000000000000000000000000000000000000000000000000000000000000081565b6040516001600160a01b0390911681526020015b60405180910390f35b610146610141366004611bd3565b610229565b005b610146610571565b610146610585565b610160610af3565b60405190815260200161012a565b6001546001600160a01b0316610116565b610160610c15565b6101167f000000000000000000000000000000000000000000000000000000000000000081565b6101167f000000000000000000000000000000000000000000000000000000000000000081565b6101466101e3366004611c03565b610ca1565b61016061125c565b6101466101fe366004611bd3565b6112ab565b610146610211366004611bd3565b6116e2565b610146610224366004611c03565b61171d565b610231611b2a565b6001600160a01b0381166102805760405162461bcd60e51b8152602060048201526011602482015270125b9d985b1a59081c9958da5c1a595b9d607a1b60448201526064015b60405180910390fd5b6000306001600160a01b0316638782524e6040518163ffffffff1660e01b8152600401602060405180830381865afa1580156102c0573d6000803e3d6000fd5b505050506040513d601f19601f820116820180604052508101906102e49190611c1c565b90506000811161032d5760405162461bcd60e51b81526020600482015260146024820152734e6f2066756e647320746f20776974686472617760601b6044820152606401610277565b6040516370a0823160e01b81523060048201526000907f00000000000000000000000000000000000000000000000000000000000000006001600160a01b0316906370a0823190602401602060405180830381865afa158015610394573d6000803e3d6000fd5b505050506040513d601f19601f820116820180604052508101906103b89190611c1c565b9050818110156104735760006103ce8284611c4b565b60405163f3fef3a360e01b81529091506001600160a01b037f0000000000000000000000000000000000000000000000000000000000000000169063f3fef3a39061043f907f0000000000000000000000000000000000000000000000000000000000000000908590600401611c64565b600060405180830381600087803b15801561045957600080fd5b505af115801561046d573d6000803e3d6000fd5b50505050505b60405163a9059cbb60e01b81526000906001600160a01b037f0000000000000000000000000000000000000000000000000000000000000000169063a9059cbb906104c49087908790600401611c64565b6020604051808303816000875af11580156104e3573d6000803e3d6000fd5b505050506040513d601f19601f820116820180604052508101906105079190611c7d565b9050806105265760405162461bcd60e51b815260040161027790611c9f565b604080518481524260208201526001600160a01b0386169133917f873da158b95a7e5e83e2f84a94eeadadc115c324112605ca1819b276b3b035fa910160405180910390a350505050565b610579611b2a565b6105836000611b57565b565b61058d611ba9565b6040516370a0823160e01b81523360048201526000907f00000000000000000000000000000000000000000000000000000000000000006001600160a01b0316906370a0823190602401602060405180830381865afa1580156105f4573d6000803e3d6000fd5b505050506040513d601f19601f820116820180604052508101906106189190611c1c565b90506000811161066a5760405162461bcd60e51b815260206004820152601e60248201527f4e6f20706c6174666f726d20746f6b656e7320746f20776974686472617700006044820152606401610277565b7f00000000000000000000000000000000000000000000000000000000000000006001600160a01b03166367800b5f6040518163ffffffff1660e01b8152600401602060405180830381865afa1580156106c8573d6000803e3d6000fd5b505050506040513d601f19601f820116820180604052508101906106ec9190611c7d565b156107395760405162461bcd60e51b815260206004820152601b60248201527f436f6d706f756e642077697468647261772069732070617573656400000000006044820152606401610277565b600061074a64e8d4a5100083611ccd565b9050600081116107905760405162461bcd60e51b81526020600482015260116024820152702737902aa9a221903a37903932ba3ab93760791b6044820152606401610277565b604051632770a7eb60e21b81526001600160a01b037f00000000000000000000000000000000000000000000000000000000000000001690639dc29fac906107de9033908690600401611c64565b600060405180830381600087803b1580156107f857600080fd5b505af115801561080c573d6000803e3d6000fd5b50506040516370a0823160e01b8152306004820152600092507f00000000000000000000000000000000000000000000000000000000000000006001600160a01b031691506370a0823190602401602060405180830381865afa158015610877573d6000803e3d6000fd5b505050506040513d601f19601f8201168201806040525081019061089b9190611c1c565b9050818110156109565760006108b18284611c4b565b60405163f3fef3a360e01b81529091506001600160a01b037f0000000000000000000000000000000000000000000000000000000000000000169063f3fef3a390610922907f0000000000000000000000000000000000000000000000000000000000000000908590600401611c64565b600060405180830381600087803b15801561093c57600080fd5b505af1158015610950573d6000803e3d6000fd5b50505050505b6040516370a0823160e01b81523060048201526000907f00000000000000000000000000000000000000000000000000000000000000006001600160a01b0316906370a0823190602401602060405180830381865afa1580156109bd573d6000803e3d6000fd5b505050506040513d601f19601f820116820180604052508101906109e19190611c1c565b905060008382106109f257836109f4565b815b905060007f00000000000000000000000000000000000000000000000000000000000000006001600160a01b031663a9059cbb33846040518363ffffffff1660e01b8152600401610a46929190611c64565b6020604051808303816000875af1158015610a65573d6000803e3d6000fd5b505050506040513d601f19601f82011682018060405250810190610a899190611c7d565b905080610aa85760405162461bcd60e51b815260040161027790611c9f565b604080518781526020810184905233917f9cc6dc8bdb4b6ad75707375ac18017379f79114f0d0dd85bf6de99c0522e8e27910160405180910390a25050505050506105836001600055565b6040516370a0823160e01b81523060048201526000907f00000000000000000000000000000000000000000000000000000000000000006001600160a01b0316906370a0823190602401602060405180830381865afa158015610b5a573d6000803e3d6000fd5b505050506040513d601f19601f82011682018060405250810190610b7e9190611c1c565b6040516370a0823160e01b81523060048201527f00000000000000000000000000000000000000000000000000000000000000006001600160a01b0316906370a0823190602401602060405180830381865afa158015610be2573d6000803e3d6000fd5b505050506040513d601f19601f82011682018060405250810190610c069190611c1c565b610c109190611cef565b905090565b6040516370a0823160e01b81523060048201526000907f00000000000000000000000000000000000000000000000000000000000000006001600160a01b0316906370a08231906024015b602060405180830381865afa158015610c7d573d6000803e3d6000fd5b505050506040513d601f19601f82011682018060405250810190610c109190611c1c565b610ca9611ba9565b60008111610cf95760405162461bcd60e51b815260206004820152601d60248201527f416d6f756e74206d7573742062652067726561746572207468616e20300000006044820152606401610277565b6040516370a0823160e01b815233600482015281907f00000000000000000000000000000000000000000000000000000000000000006001600160a01b0316906370a0823190602401602060405180830381865afa158015610d5f573d6000803e3d6000fd5b505050506040513d601f19601f82011682018060405250810190610d839190611c1c565b1015610dd15760405162461bcd60e51b815260206004820152601c60248201527f496e73756666696369656e7420706c6174666f726d20746f6b656e73000000006044820152606401610277565b7f00000000000000000000000000000000000000000000000000000000000000006001600160a01b03166367800b5f6040518163ffffffff1660e01b8152600401602060405180830381865afa158015610e2f573d6000803e3d6000fd5b505050506040513d601f19601f82011682018060405250810190610e539190611c7d565b15610ea05760405162461bcd60e51b815260206004820152601b60248201527f436f6d706f756e642077697468647261772069732070617573656400000000006044820152606401610277565b6000610eb164e8d4a5100083611ccd565b905060008111610ef75760405162461bcd60e51b81526020600482015260116024820152702737902aa9a221903a37903932ba3ab93760791b6044820152606401610277565b604051632770a7eb60e21b81526001600160a01b037f00000000000000000000000000000000000000000000000000000000000000001690639dc29fac90610f459033908690600401611c64565b600060405180830381600087803b158015610f5f57600080fd5b505af1158015610f73573d6000803e3d6000fd5b50506040516370a0823160e01b8152306004820152600092507f00000000000000000000000000000000000000000000000000000000000000006001600160a01b031691506370a0823190602401602060405180830381865afa158015610fde573d6000803e3d6000fd5b505050506040513d601f19601f820116820180604052508101906110029190611c1c565b9050818110156110bd5760006110188284611c4b565b60405163f3fef3a360e01b81529091506001600160a01b037f0000000000000000000000000000000000000000000000000000000000000000169063f3fef3a390611089907f0000000000000000000000000000000000000000000000000000000000000000908590600401611c64565b600060405180830381600087803b1580156110a357600080fd5b505af11580156110b7573d6000803e3d6000fd5b50505050505b6040516370a0823160e01b81523060048201526000907f00000000000000000000000000000000000000000000000000000000000000006001600160a01b0316906370a0823190602401602060405180830381865afa158015611124573d6000803e3d6000fd5b505050506040513d601f19601f820116820180604052508101906111489190611c1c565b90506000838210611159578361115b565b815b905060007f00000000000000000000000000000000000000000000000000000000000000006001600160a01b031663a9059cbb33846040518363ffffffff1660e01b81526004016111ad929190611c64565b6020604051808303816000875af11580156111cc573d6000803e3d6000fd5b505050506040513d601f19601f820116820180604052508101906111f09190611c7d565b90508061120f5760405162461bcd60e51b815260040161027790611c9f565b604080518781526020810184905233917f9cc6dc8bdb4b6ad75707375ac18017379f79114f0d0dd85bf6de99c0522e8e27910160405180910390a250505050506112596001600055565b50565b6040516370a0823160e01b81523060048201526000907f00000000000000000000000000000000000000000000000000000000000000006001600160a01b0316906370a0823190602401610c60565b6112b3611b2a565b6001600160a01b0381166112fd5760405162461bcd60e51b8152602060048201526011602482015270125b9d985b1a59081c9958da5c1a595b9d607a1b6044820152606401610277565b60007f00000000000000000000000000000000000000000000000000000000000000006001600160a01b03166318160ddd6040518163ffffffff1660e01b8152600401602060405180830381865afa15801561135d573d6000803e3d6000fd5b505050506040513d601f19601f820116820180604052508101906113819190611c1c565b9050600061139464e8d4a5100083611ccd565b6040516370a0823160e01b81523060048201529091506000906001600160a01b037f000000000000000000000000000000000000000000000000000000000000000016906370a0823190602401602060405180830381865afa1580156113fe573d6000803e3d6000fd5b505050506040513d601f19601f820116820180604052508101906114229190611c1c565b6040516370a0823160e01b81523060048201529091506000906001600160a01b037f000000000000000000000000000000000000000000000000000000000000000016906370a0823190602401602060405180830381865afa15801561148c573d6000803e3d6000fd5b505050506040513d601f19601f820116820180604052508101906114b09190611c1c565b905060006114be8284611cef565b90506000848211156114d7576114d48583611c4b565b90505b600081116115275760405162461bcd60e51b815260206004820152601a60248201527f4e6f20657863657373205553444320746f2077697468647261770000000000006044820152606401610277565b808410156115e057600061153b8583611c4b565b60405163f3fef3a360e01b81529091506001600160a01b037f0000000000000000000000000000000000000000000000000000000000000000169063f3fef3a3906115ac907f0000000000000000000000000000000000000000000000000000000000000000908590600401611c64565b600060405180830381600087803b1580156115c657600080fd5b505af11580156115da573d6000803e3d6000fd5b50505050505b60405163a9059cbb60e01b81526000906001600160a01b037f0000000000000000000000000000000000000000000000000000000000000000169063a9059cbb90611631908b908690600401611c64565b6020604051808303816000875af1158015611650573d6000803e3d6000fd5b505050506040513d601f19601f820116820180604052508101906116749190611c7d565b9050806116935760405162461bcd60e51b815260040161027790611c9f565b604080518381524260208201526001600160a01b038a169133917f6477ace5d8e24d89a6cf79662efd0c77a90e58b441eee1b55df3ccedec260a1e910160405180910390a35050505050505050565b6116ea611b2a565b6001600160a01b03811661171457604051631e4fbdf760e01b815260006004820152602401610277565b61125981611b57565b611725611ba9565b600081116117755760405162461bcd60e51b815260206004820152601d60248201527f416d6f756e74206d7573742062652067726561746572207468616e20300000006044820152606401610277565b7f00000000000000000000000000000000000000000000000000000000000000006001600160a01b0316630bc47ad16040518163ffffffff1660e01b8152600401602060405180830381865afa1580156117d3573d6000803e3d6000fd5b505050506040513d601f19601f820116820180604052508101906117f79190611c7d565b156118445760405162461bcd60e51b815260206004820152601960248201527f436f6d706f756e6420737570706c7920697320706175736564000000000000006044820152606401610277565b60006118558264e8d4a51000611d02565b6040516323b872dd60e01b8152336004820152306024820152604481018490529091506000906001600160a01b037f000000000000000000000000000000000000000000000000000000000000000016906323b872dd906064016020604051808303816000875af11580156118ce573d6000803e3d6000fd5b505050506040513d601f19601f820116820180604052508101906118f29190611c7d565b9050806119115760405162461bcd60e51b815260040161027790611c9f565b6040516340c10f1960e01b81526001600160a01b037f000000000000000000000000000000000000000000000000000000000000000016906340c10f199061195f9033908690600401611c64565b600060405180830381600087803b15801561197957600080fd5b505af115801561198d573d6000803e3d6000fd5b505060405163095ea7b360e01b81526001600160a01b037f000000000000000000000000000000000000000000000000000000000000000016925063095ea7b391506119ff907f0000000000000000000000000000000000000000000000000000000000000000908790600401611c64565b6020604051808303816000875af1158015611a1e573d6000803e3d6000fd5b505050506040513d601f19601f82011682018060405250810190611a429190611c7d565b50604051631e573fb760e31b81526001600160a01b037f0000000000000000000000000000000000000000000000000000000000000000169063f2b9fdb890611ab1907f0000000000000000000000000000000000000000000000000000000000000000908790600401611c64565b600060405180830381600087803b158015611acb57600080fd5b505af1158015611adf573d6000803e3d6000fd5b505060408051868152602081018690523393507fdf761661d51ab4147355430c8891e0dc7406b6aece4d2b564ccd87e0baa6dfd992500160405180910390a250506112596001600055565b6001546001600160a01b031633146105835760405163118cdaa760e01b8152336004820152602401610277565b600180546001600160a01b038381166001600160a01b0319831681179093556040519116919082907f8be0079c531659141344cd1fd0a4f28419497f9722a3daafe3b4186f6b6457e090600090a35050565b600260005403611bcc57604051633ee5aeb560e01b815260040160405180910390fd5b6002600055565b600060208284031215611be557600080fd5b81356001600160a01b0381168114611bfc57600080fd5b9392505050565b600060208284031215611c1557600080fd5b5035919050565b600060208284031215611c2e57600080fd5b5051919050565b634e487b7160e01b600052601160045260246000fd5b81810381811115611c5e57611c5e611c35565b92915050565b6001600160a01b03929092168252602082015260400190565b600060208284031215611c8f57600080fd5b81518015158114611bfc57600080fd5b6020808252601490820152731554d110c81d1c985b9cd9995c8819985a5b195960621b604082015260600190565b600082611cea57634e487b7160e01b600052601260045260246000fd5b500490565b80820180821115611c5e57611c5e611c35565b8082028115828204841417611c5e57611c5e611c3556fea2646970667358221220b7f629fc22e92d382881ef9856297166bd660eae95c687c63176620e412faf9964736f6c63430008140033","linkReferences":{}},"methodIdentifiers":{"balanceSupply(address)":"e3c427b6","cUSDC()":"ce347a3e","depositUSDC(uint256)":"f688bcfb","emergencyWithdrawAll(address)":"54ab6269","getCompoundUSDCBalance()":"e1b38156","getTokenManagerUSDCBalance()":"a218f7b1","getTotalAvailableBalance()":"8782524e","owner()":"8da5cb5b","platformToken()":"d1b812cd","renounceOwnership()":"715018a6","transferOwnership(address)":"f2fde38b","usdcToken()":"11eac855","withdrawAll()":"853828b6","withdrawUSDC(uint256)":"db81f99b"},"id":26}