{"abi":[{"type":"constructor","inputs":[{"name":"_escrow","type":"address","internalType":"address"},{"name":"_liquidityParameter","type":"uint256","internalType":"uint256"},{"name":"_oracle","type":"address","internalType":"address"},{"name":"_demandSensitivityBps","type":"uint256","internalType":"uint256"}],"stateMutability":"nonpayable"},{"type":"function","name":"ENTRY_FEE_BPS","inputs":[],"outputs":[{"name":"","type":"uint256","internalType":"uint256"}],"stateMutability":"view"},{"type":"function","name":"PAYOUT_DENOMINATOR","inputs":[],"outputs":[{"name":"","type":"uint256","internalType":"uint256"}],"stateMutability":"view"},{"type":"function","name":"PRICE_PRECISION","inputs":[],"outputs":[{"name":"","type":"uint256","internalType":"uint256"}],"stateMutability":"view"},{"type":"function","name":"accumulatedPrizeBonus","inputs":[],"outputs":[{"name":"","type":"uint256","internalType":"uint256"}],"stateMutability":"view"},{"type":"function","name":"balanceOf","inputs":[{"name":"account","type":"address","internalType":"address"},{"name":"id","type":"uint256","internalType":"uint256"}],"outputs":[{"name":"","type":"uint256","internalType":"uint256"}],"stateMutability":"view"},{"type":"function","name":"balanceOfBatch","inputs":[{"name":"accounts","type":"address[]","internalType":"address[]"},{"name":"ids","type":"uint256[]","internalType":"uint256[]"}],"outputs":[{"name":"","type":"uint256[]","internalType":"uint256[]"}],"stateMutability":"view"},{"type":"function","name":"calculateLMSRCost","inputs":[{"name":"","type":"uint256","internalType":"uint256"},{"name":"","type":"uint256","internalType":"uint256"},{"name":"","type":"uint256","internalType":"uint256"}],"outputs":[{"name":"","type":"uint256","internalType":"uint256"}],"stateMutability":"pure"},{"type":"function","name":"calculateOutcomePrice","inputs":[{"name":"outcomeId","type":"uint256","internalType":"uint256"}],"outputs":[{"name":"","type":"uint256","internalType":"uint256"}],"stateMutability":"view"},{"type":"function","name":"contestEscrow","inputs":[],"outputs":[{"name":"","type":"address","internalType":"contract Escrow"}],"stateMutability":"view"},{"type":"function","name":"contestantBonuses","inputs":[{"name":"","type":"address","internalType":"address"}],"outputs":[{"name":"","type":"uint256","internalType":"uint256"}],"stateMutability":"view"},{"type":"function","name":"demandSensitivityBps","inputs":[],"outputs":[{"name":"","type":"uint256","internalType":"uint256"}],"stateMutability":"view"},{"type":"function","name":"depositCompleteSets","inputs":[{"name":"amount","type":"uint256","internalType":"uint256"}],"outputs":[],"stateMutability":"nonpayable"},{"type":"function","name":"depositOnOutcome","inputs":[{"name":"outcomeId","type":"uint256","internalType":"uint256"},{"name":"amount","type":"uint256","internalType":"uint256"}],"outputs":[],"stateMutability":"nonpayable"},{"type":"function","name":"distributeFees","inputs":[],"outputs":[],"stateMutability":"nonpayable"},{"type":"function","name":"feesDistributed","inputs":[],"outputs":[{"name":"","type":"bool","internalType":"bool"}],"stateMutability":"view"},{"type":"function","name":"getContestantStats","inputs":[{"name":"contestant","type":"address","internalType":"address"}],"outputs":[{"name":"bonus","type":"uint256","internalType":"uint256"},{"name":"totalVolume","type":"uint256","internalType":"uint256"},{"name":"volumePercentage","type":"uint256","internalType":"uint256"}],"stateMutability":"view"},{"type":"function","name":"getImpliedProbability","inputs":[{"name":"outcomeId","type":"uint256","internalType":"uint256"}],"outputs":[{"name":"","type":"uint256","internalType":"uint256"}],"stateMutability":"view"},{"type":"function","name":"getOutcomeParticipant","inputs":[{"name":"outcomeId","type":"uint256","internalType":"uint256"}],"outputs":[{"name":"","type":"address","internalType":"address"}],"stateMutability":"view"},{"type":"function","name":"getTotalBonusPool","inputs":[],"outputs":[{"name":"","type":"uint256","internalType":"uint256"}],"stateMutability":"view"},{"type":"function","name":"isApprovedForAll","inputs":[{"name":"account","type":"address","internalType":"address"},{"name":"operator","type":"address","internalType":"address"}],"outputs":[{"name":"","type":"bool","internalType":"bool"}],"stateMutability":"view"},{"type":"function","name":"isOpen","inputs":[],"outputs":[{"name":"","type":"bool","internalType":"bool"}],"stateMutability":"view"},{"type":"function","name":"isSettled","inputs":[],"outputs":[{"name":"","type":"bool","internalType":"bool"}],"stateMutability":"view"},{"type":"function","name":"liquidityParameter","inputs":[],"outputs":[{"name":"","type":"uint256","internalType":"uint256"}],"stateMutability":"view"},{"type":"function","name":"netPosition","inputs":[{"name":"","type":"uint256","internalType":"uint256"}],"outputs":[{"name":"","type":"int256","internalType":"int256"}],"stateMutability":"view"},{"type":"function","name":"numOutcomes","inputs":[],"outputs":[{"name":"","type":"uint256","internalType":"uint256"}],"stateMutability":"view"},{"type":"function","name":"oracle","inputs":[],"outputs":[{"name":"","type":"address","internalType":"address"}],"stateMutability":"view"},{"type":"function","name":"outcomeToParticipant","inputs":[{"name":"","type":"uint256","internalType":"uint256"}],"outputs":[{"name":"","type":"address","internalType":"address"}],"stateMutability":"view"},{"type":"function","name":"participantToOutcome","inputs":[{"name":"","type":"address","internalType":"address"}],"outputs":[{"name":"","type":"uint256","internalType":"uint256"}],"stateMutability":"view"},{"type":"function","name":"paymentToken","inputs":[],"outputs":[{"name":"","type":"address","internalType":"contract IERC20"}],"stateMutability":"view"},{"type":"function","name":"payoutNumerators","inputs":[{"name":"","type":"uint256","internalType":"uint256"}],"outputs":[{"name":"","type":"uint256","internalType":"uint256"}],"stateMutability":"view"},{"type":"function","name":"redeemPosition","inputs":[{"name":"outcomeId","type":"uint256","internalType":"uint256"}],"outputs":[],"stateMutability":"nonpayable"},{"type":"function","name":"resolveMarket","inputs":[],"outputs":[],"stateMutability":"nonpayable"},{"type":"function","name":"safeBatchTransferFrom","inputs":[{"name":"from","type":"address","internalType":"address"},{"name":"to","type":"address","internalType":"address"},{"name":"ids","type":"uint256[]","internalType":"uint256[]"},{"name":"values","type":"uint256[]","internalType":"uint256[]"},{"name":"data","type":"bytes","internalType":"bytes"}],"outputs":[],"stateMutability":"nonpayable"},{"type":"function","name":"safeTransferFrom","inputs":[{"name":"from","type":"address","internalType":"address"},{"name":"to","type":"address","internalType":"address"},{"name":"id","type":"uint256","internalType":"uint256"},{"name":"value","type":"uint256","internalType":"uint256"},{"name":"data","type":"bytes","internalType":"bytes"}],"outputs":[],"stateMutability":"nonpayable"},{"type":"function","name":"setApprovalForAll","inputs":[{"name":"operator","type":"address","internalType":"address"},{"name":"approved","type":"bool","internalType":"bool"}],"outputs":[],"stateMutability":"nonpayable"},{"type":"function","name":"supportsInterface","inputs":[{"name":"interfaceId","type":"bytes4","internalType":"bytes4"}],"outputs":[{"name":"","type":"bool","internalType":"bool"}],"stateMutability":"view"},{"type":"function","name":"swapOutcomes","inputs":[{"name":"","type":"uint256","internalType":"uint256"},{"name":"","type":"uint256","internalType":"uint256"},{"name":"","type":"uint256","internalType":"uint256"}],"outputs":[],"stateMutability":"pure"},{"type":"function","name":"totalCollateral","inputs":[],"outputs":[{"name":"","type":"uint256","internalType":"uint256"}],"stateMutability":"view"},{"type":"function","name":"totalVolumeOnContestant","inputs":[{"name":"","type":"address","internalType":"address"}],"outputs":[{"name":"","type":"uint256","internalType":"uint256"}],"stateMutability":"view"},{"type":"function","name":"uri","inputs":[{"name":"","type":"uint256","internalType":"uint256"}],"outputs":[{"name":"","type":"string","internalType":"string"}],"stateMutability":"view"},{"type":"function","name":"withdraw","inputs":[{"name":"amount","type":"uint256","internalType":"uint256"}],"outputs":[],"stateMutability":"nonpayable"},{"type":"event","name":"ApprovalForAll","inputs":[{"name":"account","type":"address","indexed":true,"internalType":"address"},{"name":"operator","type":"address","indexed":true,"internalType":"address"},{"name":"approved","type":"bool","indexed":false,"internalType":"bool"}],"anonymous":false},{"type":"event","name":"ContestantBonusPaid","inputs":[{"name":"contestant","type":"address","indexed":true,"internalType":"address"},{"name":"amount","type":"uint256","indexed":false,"internalType":"uint256"}],"anonymous":false},{"type":"event","name":"ContestantBonusesPaid","inputs":[{"name":"totalAmount","type":"uint256","indexed":false,"internalType":"uint256"},{"name":"numRecipients","type":"uint256","indexed":false,"internalType":"uint256"}],"anonymous":false},{"type":"event","name":"Deposited","inputs":[{"name":"spectator","type":"address","indexed":true,"internalType":"address"},{"name":"amount","type":"uint256","indexed":false,"internalType":"uint256"}],"anonymous":false},{"type":"event","name":"MarketClosed","inputs":[],"anonymous":false},{"type":"event","name":"OutcomesSwapped","inputs":[{"name":"spectator","type":"address","indexed":true,"internalType":"address"},{"name":"fromId","type":"uint256","indexed":true,"internalType":"uint256"},{"name":"toId","type":"uint256","indexed":true,"internalType":"uint256"},{"name":"amountBurned","type":"uint256","indexed":false,"internalType":"uint256"},{"name":"amountMinted","type":"uint256","indexed":false,"internalType":"uint256"},{"name":"swapCost","type":"uint256","indexed":false,"internalType":"uint256"}],"anonymous":false},{"type":"event","name":"PositionRedeemed","inputs":[{"name":"spectator","type":"address","indexed":true,"internalType":"address"},{"name":"outcomeId","type":"uint256","indexed":true,"internalType":"uint256"},{"name":"amount","type":"uint256","indexed":false,"internalType":"uint256"},{"name":"payout","type":"uint256","indexed":false,"internalType":"uint256"}],"anonymous":false},{"type":"event","name":"PositionsMerged","inputs":[{"name":"spectator","type":"address","indexed":true,"internalType":"address"},{"name":"amount","type":"uint256","indexed":false,"internalType":"uint256"}],"anonymous":false},{"type":"event","name":"PrizeBonusTransferred","inputs":[{"name":"amount","type":"uint256","indexed":false,"internalType":"uint256"}],"anonymous":false},{"type":"event","name":"ResultsReported","inputs":[{"name":"payoutNumerators","type":"uint256[]","indexed":false,"internalType":"uint256[]"}],"anonymous":false},{"type":"event","name":"SwapFeeCollected","inputs":[{"name":"prizeBonus","type":"uint256","indexed":false,"internalType":"uint256"},{"name":"contestantBonus","type":"uint256","indexed":false,"internalType":"uint256"},{"name":"contestant","type":"address","indexed":true,"internalType":"address"},{"name":"volume","type":"uint256","indexed":false,"internalType":"uint256"}],"anonymous":false},{"type":"event","name":"TransferBatch","inputs":[{"name":"operator","type":"address","indexed":true,"internalType":"address"},{"name":"from","type":"address","indexed":true,"internalType":"address"},{"name":"to","type":"address","indexed":true,"internalType":"address"},{"name":"ids","type":"uint256[]","indexed":false,"internalType":"uint256[]"},{"name":"values","type":"uint256[]","indexed":false,"internalType":"uint256[]"}],"anonymous":false},{"type":"event","name":"TransferSingle","inputs":[{"name":"operator","type":"address","indexed":true,"internalType":"address"},{"name":"from","type":"address","indexed":true,"internalType":"address"},{"name":"to","type":"address","indexed":true,"internalType":"address"},{"name":"id","type":"uint256","indexed":false,"internalType":"uint256"},{"name":"value","type":"uint256","indexed":false,"internalType":"uint256"}],"anonymous":false},{"type":"event","name":"URI","inputs":[{"name":"value","type":"string","indexed":false,"internalType":"string"},{"name":"id","type":"uint256","indexed":true,"internalType":"uint256"}],"anonymous":false},{"type":"error","name":"ERC1155InsufficientBalance","inputs":[{"name":"sender","type":"address","internalType":"address"},{"name":"balance","type":"uint256","internalType":"uint256"},{"name":"needed","type":"uint256","internalType":"uint256"},{"name":"tokenId","type":"uint256","internalType":"uint256"}]},{"type":"error","name":"ERC1155InvalidApprover","inputs":[{"name":"approver","type":"address","internalType":"address"}]},{"type":"error","name":"ERC1155InvalidArrayLength","inputs":[{"name":"idsLength","type":"uint256","internalType":"uint256"},{"name":"valuesLength","type":"uint256","internalType":"uint256"}]},{"type":"error","name":"ERC1155InvalidOperator","inputs":[{"name":"operator","type":"address","internalType":"address"}]},{"type":"error","name":"ERC1155InvalidReceiver","inputs":[{"name":"receiver","type":"address","internalType":"address"}]},{"type":"error","name":"ERC1155InvalidSender","inputs":[{"name":"sender","type":"address","internalType":"address"}]},{"type":"error","name":"ERC1155MissingApprovalForAll","inputs":[{"name":"operator","type":"address","internalType":"address"},{"name":"owner","type":"address","internalType":"address"}]},{"type":"error","name":"ReentrancyGuardReentrantCall","inputs":[]},{"type":"error","name":"SafeERC20FailedOperation","inputs":[{"name":"token","type":"address","internalType":"address"}]}],"bytecode":{"object":"0x6101406040523480156200001257600080fd5b50604051620039fb380380620039fb833981016040819052620000359162000517565b6040805160208101909152600081526200004f81620004ec565b5060016003556001600160a01b038416620000b15760405162461bcd60e51b815260206004820152601d60248201527f457363726f772063616e6e6f74206265207a65726f206164647265737300000060448201526064015b60405180910390fd5b6001600160a01b038216620001095760405162461bcd60e51b815260206004820152601d60248201527f4f7261636c652063616e6e6f74206265207a65726f20616464726573730000006044820152606401620000a8565b600083116200015b5760405162461bcd60e51b815260206004820152601f60248201527f4c697175696469747920706172616d65746572206d757374206265203e2030006044820152606401620000a8565b612710811115620001bd5760405162461bcd60e51b815260206004820152602560248201527f44656d616e642073656e73697469766974792063616e6e6f7420657863656564604482015264203130302560d81b6064820152608401620000a8565b6001600160a01b03841660a052600160a0516001600160a01b031663c19d93fb6040518163ffffffff1660e01b8152600401602060405180830381865afa1580156200020d573d6000803e3d6000fd5b505050506040513d601f19601f820116820180604052508101906200023391906200057b565b600381111562000247576200024762000565565b14620002965760405162461bcd60e51b815260206004820152601a60248201527f457363726f77206d75737420626520494e5f50524f47524553530000000000006044820152606401620000a8565b6001600160a01b0380831660c05261010084905261012082905260a05160408051633013ce2960e01b815290519190921691633013ce299160048083019260209291908290030181865afa158015620002f3573d6000803e3d6000fd5b505050506040513d601f19601f82011682018060405250810190620003199190620005a5565b6001600160a01b03166080816001600160a01b031681525050600060a0516001600160a01b031663cabfaa186040518163ffffffff1660e01b8152600401602060405180830381865afa15801562000375573d6000803e3d6000fd5b505050506040513d601f19601f820116820180604052508101906200039b9190620005c5565b905060008111620003ef5760405162461bcd60e51b815260206004820152601a60248201527f4e6f207061727469636970616e747320696e20636f6e746573740000000000006044820152606401620000a8565b60e081905260005b81811015620004e05760a0516040516335c1d34960e01b8152600481018390526000916001600160a01b0316906335c1d34990602401602060405180830381865afa1580156200044b573d6000803e3d6000fd5b505050506040513d601f19601f82011682018060405250810190620004719190620005a5565b6001600160a01b03166000818152600a60205260408120849055600b805460018101825591527f0175b7a638427703f0dbe7bb9bbf987a2551717b34e79f33b5b1008d1fa01db90180546001600160a01b03191690911790555080620004d781620005df565b915050620003f7565b50505050505062000778565b6002620004fa8282620006ac565b5050565b6001600160a01b03811681146200051457600080fd5b50565b600080600080608085870312156200052e57600080fd5b84516200053b81620004fe565b6020860151604087015191955093506200055581620004fe565b6060959095015193969295505050565b634e487b7160e01b600052602160045260246000fd5b6000602082840312156200058e57600080fd5b8151600481106200059e57600080fd5b9392505050565b600060208284031215620005b857600080fd5b81516200059e81620004fe565b600060208284031215620005d857600080fd5b5051919050565b6000600182016200060057634e487b7160e01b600052601160045260246000fd5b5060010190565b634e487b7160e01b600052604160045260246000fd5b600181811c908216806200063257607f821691505b6020821081036200065357634e487b7160e01b600052602260045260246000fd5b50919050565b601f821115620006a757600081815260208120601f850160051c81016020861015620006825750805b601f850160051c820191505b81811015620006a3578281556001016200068e565b5050505b505050565b81516001600160401b03811115620006c857620006c862000607565b620006e081620006d984546200061d565b8462000659565b602080601f831160018114620007185760008415620006ff5750858301515b600019600386901b1c1916600185901b178555620006a3565b600085815260208120601f198616915b82811015620007495788860151825594840194600190910190840162000728565b5085821015620007685787850151600019600388901b60f8161c191681555b5050505050600190811b01905550565b60805160a05160c05160e0516101005161012051613168620008936000396000818161044b01526107be015260008181610399015261079a0152600081816104b9015281816107220152818161084f01528181610b0f01528181610b7701528181610db301528181610f2701528181610fe501528181611073015281816110ae015281816112a5015281816116e8015281816117f00152818161182b015281816118f001528181611b3d01528181611c1f01528181611ca301528181611d220152612090015260006104720152600081816103f101528181610c2501526115430152600081816103490152818161098b0152818161115e01528181611432015281816114cc015281816118c3015261211901526131686000f3fe608060405234801561001057600080fd5b50600436106102525760003560e01c80636932b38211610146578063a65b11a0116100c3578063bc483edd11610087578063bc483edd14610578578063bd5d665f1461058b578063e985e9c5146105b9578063ecb62b6e146105cc578063f242432a146105df578063fc6cc4a3146105f257600080fd5b8063a65b11a014610517578063aaaac84614610537578063aebacafc1461054a578063b56d9c2c1461055d578063bb57ad201461057057600080fd5b806390282be51161010a57806390282be5146104db5780639089ad0e146104e457806395082d25146104ed578063a22cb465146104f7578063a317f2d61461050a57600080fd5b80636932b38214610426578063693b4660146104465780637dc0d1d01461046d57806384e0d1b4146104945780638767d64e146104b457600080fd5b80632fefd77f116101d457806347535d7b1161019857806347535d7b146103bb5780634ac8eb5f146103c35780634e1273f4146103cc5780635b52041e146103ec57806360d9b4891461041357600080fd5b80632fefd77f146103315780633013ce29146103445780633270bb5b1461038357806332e6190b1461038b5780633a69a1be1461039457600080fd5b8063168d6c101161021b578063168d6c10146102db5780632b9b55b3146102f05780632bcef2a4146102f85780632e1a7d4d1461030b5780632eb2c2d61461031e57600080fd5b8062fdd58e1461025757806301ffc9a71461027d57806303a3434b146102a05780630e89341c146102a857806311c5c792146102c8575b600080fd5b61026a6102653660046127ee565b610612565b6040519081526020015b60405180910390f35b61029061028b36600461282e565b61063a565b6040519015158152602001610274565b60075461026a565b6102bb6102b636600461284b565b61068a565b60405161027491906128aa565b61026a6102d636600461284b565b61071e565b6102ee6102e93660046128bd565b610821565b005b6102ee610aa4565b61026a6103063660046128df565b610e8b565b6102ee61031936600461284b565b610ed6565b6102ee61032c366004612a51565b6111cb565b6102ee61033f36600461284b565b611232565b61036b7f000000000000000000000000000000000000000000000000000000000000000081565b6040516001600160a01b039091168152602001610274565b61029061153c565b61026a60075481565b61026a7f000000000000000000000000000000000000000000000000000000000000000081565b6102906115da565b61026a60045481565b6103df6103da366004612afb565b6115e3565b6040516102749190612bf6565b61036b7f000000000000000000000000000000000000000000000000000000000000000081565b61026a61042136600461284b565b6116b8565b61026a61043436600461284b565b60066020526000908152604090205481565b61026a7f000000000000000000000000000000000000000000000000000000000000000081565b61036b7f000000000000000000000000000000000000000000000000000000000000000081565b61026a6104a2366004612c09565b60096020526000908152604090205481565b61026a7f000000000000000000000000000000000000000000000000000000000000000081565b61026a61271081565b61026a6105dc81565b61026a620f424081565b6102ee610505366004612c24565b6116d9565b600c546102909060ff1681565b61026a610525366004612c09565b600a6020526000908152604090205481565b61036b61054536600461284b565b6116e4565b6102ee61055836600461284b565b611753565b6102ee61056b3660046128df565b6119b1565b6102ee611a1f565b61036b61058636600461284b565b611ae8565b61059e610599366004612c09565b611b12565b60408051938452602084019290925290820152606001610274565b6102906105c7366004612c60565b611bed565b61026a6105da36600461284b565b611c1b565b6102ee6105ed366004612c93565b611d9a565b61026a610600366004612c09565b60086020526000908152604090205481565b6000818152602081815260408083206001600160a01b03861684529091529020545b92915050565b60006001600160e01b03198216636cdb3d1360e11b148061066b57506001600160e01b031982166303a24d0760e21b145b8061063457506301ffc9a760e01b6001600160e01b0319831614610634565b60606002805461069990612cf8565b80601f01602080910402602001604051908101604052809291908181526020018280546106c590612cf8565b80156107125780601f106106e757610100808354040283529160200191610712565b820191906000526020600020905b8154815290600101906020018083116106f557829003601f168201915b50505050509050919050565b60007f000000000000000000000000000000000000000000000000000000000000000082106107685760405162461bcd60e51b815260040161075f90612d32565b60405180910390fd5b600082815260066020526040812054908082121561078e5761078982612d74565b610790565b815b9050620f424060007f00000000000000000000000000000000000000000000000000000000000000006107e37f000000000000000000000000000000000000000000000000000000000000000085612d90565b6107ed9190612da7565b90506000841280156107fe57508181105b156108175761080d8183612dc9565b9695505050505050565b61080d8183612ddc565b6108296115da565b6108455760405162461bcd60e51b815260040161075f90612def565b61084d611df9565b7f0000000000000000000000000000000000000000000000000000000000000000821061088c5760405162461bcd60e51b815260040161075f90612d32565b600081116108ac5760405162461bcd60e51b815260040161075f90612e18565b60006127106108bd6105dc84612d90565b6108c79190612da7565b905060006108d58284612dc9565b905060006108e28561071e565b90506000816108f4620f424085612d90565b6108fe9190612da7565b905061090b600285612da7565b6007600082825461091c9190612ddc565b9091555061092d9050600285612da7565b60086000600b898154811061094457610944612e44565b60009182526020808320909101546001600160a01b0316835282019290925260400181208054909190610978908490612ddc565b909155506109b390506001600160a01b037f000000000000000000000000000000000000000000000000000000000000000016333088611e23565b6109ce33878360405180602001604052806000815250611e90565b600086815260066020526040812080548392906109ec908490612e5a565b925050819055508060096000600b8981548110610a0b57610a0b612e44565b60009182526020808320909101546001600160a01b0316835282019290925260400181208054909190610a3f908490612ddc565b925050819055508260046000828254610a589190612ddc565b909155505060405185815233907f2da466a7b24304f47e87fa2e1e5a81b9831ce54fec19055ce277ca2f39ba42c49060200160405180910390a250505050610aa06001600355565b5050565b610aac61153c565b610ac85760405162461bcd60e51b815260040161075f90612e82565b60055415610b0b5760405162461bcd60e51b815260206004820152601060248201526f105b1c9958591e481c995cdbdb1d995960821b604482015260640161075f565b60007f000000000000000000000000000000000000000000000000000000000000000067ffffffffffffffff811115610b4657610b4661290b565b604051908082528060200260200182016040528015610b6f578160200160208202803683370190505b50905060005b7f0000000000000000000000000000000000000000000000000000000000000000811015610c0a57600b8181548110610bb057610bb0612e44565b9060005260206000200160009054906101000a90046001600160a01b0316828281518110610be057610be0612e44565b6001600160a01b039092166020928302919091019091015280610c0281612eaf565b915050610b75565b506040516317585b4560e01b81526000906001600160a01b037f000000000000000000000000000000000000000000000000000000000000000016906317585b4590610c5a908590600401612ec8565b600060405180830381865afa158015610c77573d6000803e3d6000fd5b505050506040513d6000823e601f3d908101601f19168201604052610c9f9190810190612f15565b90506000815111610ceb5760405162461bcd60e51b8152602060048201526016602482015275139bc81c185e5bdd5d1cc8191a5cdd1c9a589d5d195960521b604482015260640161075f565b60008082600081518110610d0157610d01612e44565b602002602001015190506000600190505b8351811015610d6e5781848281518110610d2e57610d2e612e44565b60200260200101511115610d5c57838181518110610d4e57610d4e612e44565b602002602001015191508092505b80610d6681612eaf565b915050610d12565b5060008111610db15760405162461bcd60e51b815260206004820152600f60248201526e139bc81dda5b9b995c88199bdd5b99608a1b604482015260640161075f565b7f000000000000000000000000000000000000000000000000000000000000000067ffffffffffffffff811115610dea57610dea61290b565b604051908082528060200260200182016040528015610e13578160200160208202803683370190505b508051610e2891600591602090910190612772565b5061271060058381548110610e3f57610e3f612e44565b90600052602060002001819055507fec5b366fa032c5388d4731f83407378f89246f78d925fdda7dda31d8976af6c76005604051610e7d9190612fa6565b60405180910390a150505050565b60405162461bcd60e51b815260206004820152601b60248201527f537761702066756e6374696f6e616c6974792064697361626c65640000000000604482015260009060640161075f565b610ede6115da565b610efa5760405162461bcd60e51b815260040161075f90612def565b610f02611df9565b60008111610f225760405162461bcd60e51b815260040161075f90612e18565b60005b7f0000000000000000000000000000000000000000000000000000000000000000811015610fa95781610f583383610612565b1015610f975760405162461bcd60e51b815260206004820152600e60248201526d125b98dbdb5c1b195d19481cd95d60921b604482015260640161075f565b80610fa181612eaf565b915050610f25565b506000610fba6105dc612710612dc9565b610fc661271084612d90565b610fd09190612da7565b90506000610fde8383612dc9565b905060005b7f000000000000000000000000000000000000000000000000000000000000000081101561104c57611016338286611eed565b60008181526006602052604081208054869290611034908490612fe1565b9091555081905061104481612eaf565b915050610fe3565b50611058600282612da7565b600760008282546110699190612dc9565b90915550600090507f000000000000000000000000000000000000000000000000000000000000000061109d600284612da7565b6110a79190612da7565b905060005b7f0000000000000000000000000000000000000000000000000000000000000000811015611138578160086000600b84815481106110ec576110ec612e44565b60009182526020808320909101546001600160a01b0316835282019290925260400181208054909190611120908490612dc9565b9091555081905061113081612eaf565b9150506110ac565b50836004600082825461114b9190612dc9565b9091555061118590506001600160a01b037f0000000000000000000000000000000000000000000000000000000000000000163385611f5c565b60405183815233907f642ce031dc6e8b3ae6f862e919c65456b32b3cb3bdcc3a1d83424ec13f44b723906020015b60405180910390a25050506111c86001600355565b50565b336001600160a01b03861681148015906111ec57506111ea8682611bed565b155b1561121d5760405163711bec9160e11b81526001600160a01b0380831660048301528716602482015260440161075f565b61122a8686868686611f92565b505050505050565b61123a611df9565b61124261153c565b61125e5760405162461bcd60e51b815260040161075f90612e82565b6005546112a35760405162461bcd60e51b815260206004820152601360248201527213585c9ad95d081b9bdd081c995cdbdb1d9959606a1b604482015260640161075f565b7f000000000000000000000000000000000000000000000000000000000000000081106112e25760405162461bcd60e51b815260040161075f90612d32565b60006112ee3383610612565b9050600081116113365760405162461bcd60e51b81526020600482015260136024820152724e6f20746f6b656e7320746f2072656465656d60681b604482015260640161075f565b6000806005848154811061134c5761134c612e44565b906000526020600020015411156114ae57600083815260066020526040902054806113c35760405162461bcd60e51b815260206004820152602160248201527f4e6f20746f6b656e73206d696e74656420666f722074686973206f7574636f6d6044820152606560f81b606482015260840161075f565b6113cf61271082612d90565b600585815481106113e2576113e2612e44565b9060005260206000200154600454856113fb9190612d90565b6114059190612d90565b61140f9190612da7565b6040516370a0823160e01b81523060048201529092506000906001600160a01b037f000000000000000000000000000000000000000000000000000000000000000016906370a0823190602401602060405180830381865afa158015611479573d6000803e3d6000fd5b505050506040513d601f19601f8201168201806040525081019061149d9190613008565b9050808311156114ab578092505b50505b6114b9338484611eed565b80156114f3576114f36001600160a01b037f0000000000000000000000000000000000000000000000000000000000000000163383611f5c565b6040805183815260208101839052849133917f50a8b5fa7eefe8420501c5a1c34c9aedab2e4a6078f744bbb9e358f743bc812a910160405180910390a350506111c86001600355565b600060025b7f00000000000000000000000000000000000000000000000000000000000000006001600160a01b031663c19d93fb6040518163ffffffff1660e01b8152600401602060405180830381865afa15801561159f573d6000803e3d6000fd5b505050506040513d601f19601f820116820180604052508101906115c39190613037565b60038111156115d4576115d4613021565b14905090565b60006001611541565b606081518351146116145781518351604051635b05999160e01b81526004810192909252602482015260440161075f565b6000835167ffffffffffffffff8111156116305761163061290b565b604051908082528060200260200182016040528015611659578160200160208202803683370190505b50905060005b84518110156116b05760208082028601015161168390602080840287010151610612565b82828151811061169557611695612e44565b60209081029190910101526116a981612eaf565b905061165f565b509392505050565b600581815481106116c857600080fd5b600091825260209091200154905081565b610aa0338383611ff2565b60007f000000000000000000000000000000000000000000000000000000000000000082106117255760405162461bcd60e51b815260040161075f90612d32565b600b828154811061173857611738612e44565b6000918252602090912001546001600160a01b031692915050565b61175b6115da565b6117775760405162461bcd60e51b815260040161075f90612def565b61177f611df9565b6000811161179f5760405162461bcd60e51b815260040161075f90612e18565b60006127106117b06105dc84612d90565b6117ba9190612da7565b905060006117c88284612dc9565b90506117d5600283612da7565b600760008282546117e69190612ddc565b90915550600090507f000000000000000000000000000000000000000000000000000000000000000061181a600285612da7565b6118249190612da7565b905060005b7f00000000000000000000000000000000000000000000000000000000000000008110156118b5578160086000600b848154811061186957611869612e44565b60009182526020808320909101546001600160a01b031683528201929092526040018120805490919061189d908490612ddc565b909155508190506118ad81612eaf565b915050611829565b506118eb6001600160a01b037f000000000000000000000000000000000000000000000000000000000000000016333087611e23565b60005b7f00000000000000000000000000000000000000000000000000000000000000008110156119675761193133828560405180602001604052806000815250611e90565b6000818152600660205260408120805485929061194f908490612e5a565b9091555081905061195f81612eaf565b9150506118ee565b50816004600082825461197a9190612ddc565b909155505060405184815233907f2da466a7b24304f47e87fa2e1e5a81b9831ce54fec19055ce277ca2f39ba42c4906020016111b3565b60405162461bcd60e51b815260206004820152603c60248201527f537761702066756e6374696f6e616c6974792064697361626c6564202d20757360448201527f65206465706f7369744f6e4f7574636f6d65282920696e737465616400000000606482015260840161075f565b611a27611df9565b611a2f61153c565b611a4b5760405162461bcd60e51b815260040161075f90612e82565b600c5460ff1615611a9e5760405162461bcd60e51b815260206004820152601860248201527f4665657320616c72656164792064697374726962757465640000000000000000604482015260640161075f565b600c805460ff19166001179055611ab3612088565b6040517f0b5f6bf058282d5cc003efc735b9ee453bbd7f9bef4c6db6300d095f3eefac2890600090a1611ae66001600355565b565b600b8181548110611af857600080fd5b6000918252602090912001546001600160a01b0316905081565b6001600160a01b0381166000908152600860209081526040808320546009909252822054909180805b7f0000000000000000000000000000000000000000000000000000000000000000811015611bbd5760096000600b8381548110611b7a57611b7a612e44565b60009182526020808320909101546001600160a01b03168352820192909252604001902054611ba99083612ddc565b915080611bb581612eaf565b915050611b3b565b5060008111611bcd576000611be4565b80611bda61271085612d90565b611be49190612da7565b93959294505050565b6001600160a01b03918216600090815260016020908152604080832093909416825291909152205460ff1690565b60007f00000000000000000000000000000000000000000000000000000000000000008210611c5c5760405162461bcd60e51b815260040161075f90612d32565b611c646115da565b611c9d5760055415611c955760058281548110611c8357611c83612e44565b90600052602060002001549050919050565b506000919050565b6000805b7f0000000000000000000000000000000000000000000000000000000000000000811015611d14576000818152600660205260408120549080821215611cef57611cea82612d74565b611cf1565b815b9050611cfd8185612ddc565b935050508080611d0c90612eaf565b915050611ca1565b5080600003611d5057611d497f0000000000000000000000000000000000000000000000000000000000000000612710612da7565b9392505050565b6000838152600660205260408120549080821215611d7657611d7182612d74565b611d78565b815b905082611d8761271083612d90565b611d919190612da7565b95945050505050565b336001600160a01b0386168114801590611dbb5750611db98682611bed565b155b15611dec5760405163711bec9160e11b81526001600160a01b0380831660048301528716602482015260440161075f565b61122a86868686866121f6565b600260035403611e1c57604051633ee5aeb560e01b815260040160405180910390fd5b6002600355565b6040516001600160a01b038481166024830152838116604483015260648201839052611e8a9186918216906323b872dd906084015b604051602081830303815290604052915060e01b6020820180516001600160e01b038381831617835250505050612284565b50505050565b6001600160a01b038416611eba57604051632bfa23e760e11b81526000600482015260240161075f565b6040805160018082526020820186905281830190815260608201859052608082019092529061122a6000878484876122f5565b6001600160a01b038316611f1657604051626a0d4560e21b81526000600482015260240161075f565b604080516001808252602082018590528183019081526060820184905260a08201909252600060808201818152919291611f55918791859085906122f5565b5050505050565b6040516001600160a01b03838116602483015260448201839052611f8d91859182169063a9059cbb90606401611e58565b505050565b6001600160a01b038416611fbc57604051632bfa23e760e11b81526000600482015260240161075f565b6001600160a01b038516611fe557604051626a0d4560e21b81526000600482015260240161075f565b611f5585858585856122f5565b6001600160a01b03821661201b5760405162ced3e160e81b81526000600482015260240161075f565b6001600160a01b03838116600081815260016020908152604080832094871680845294825291829020805460ff191686151590811790915591519182527f17307eab39ab6107e8899845ad3d59bd9653f200f220920489ca2b5937696c31910160405180910390a3505050565b60008060005b7f00000000000000000000000000000000000000000000000000000000000000008110156121b2576000600b82815481106120cb576120cb612e44565b60009182526020808320909101546001600160a01b03168083526008909152604090912054909150801561219d576001600160a01b03808316600090815260086020526040812055612140907f0000000000000000000000000000000000000000000000000000000000000000168383611f5c565b61214a8186612ddc565b94508361215681612eaf565b945050816001600160a01b03167ff2d1fac28f18531dc5fc879ae9f5d170d102054389b99f7e9af35bbaab972a158260405161219491815260200190565b60405180910390a25b505080806121aa90612eaf565b91505061208e565b508115610aa05760408051838152602081018390527fb9f8c90354ed5b616436a80ae74f96e0b46c855ee27e96bc60f8daa8a5dbcc86910160405180910390a15050565b6001600160a01b03841661222057604051632bfa23e760e11b81526000600482015260240161075f565b6001600160a01b03851661224957604051626a0d4560e21b81526000600482015260240161075f565b6040805160018082526020820186905281830190815260608201859052608082019092529061227b87878484876122f5565b50505050505050565b600080602060008451602086016000885af1806122a7576040513d6000823e3d81fd5b50506000513d915081156122bf5780600114156122cc565b6001600160a01b0384163b155b15611e8a57604051635274afe760e01b81526001600160a01b038516600482015260240161075f565b61230185858585612348565b6001600160a01b03841615611f55578251339060010361233a5760208481015190840151612333838989858589612565565b505061122a565b61122a818787878787612689565b80518251146123775781518151604051635b05999160e01b81526004810192909252602482015260440161075f565b3360005b8351811015612486576020818102858101820151908501909101516001600160a01b0388161561242e576000828152602081815260408083206001600160a01b038c16845290915290205481811015612407576040516303dee4c560e01b81526001600160a01b038a16600482015260248101829052604481018390526064810184905260840161075f565b6000838152602081815260408083206001600160a01b038d16845290915290209082900390555b6001600160a01b03871615612473576000828152602081815260408083206001600160a01b038b1684529091528120805483929061246d908490612ddc565b90915550505b50508061247f90612eaf565b905061237b565b5082516001036125075760208301516000906020840151909150856001600160a01b0316876001600160a01b0316846001600160a01b03167fc3d58168c5ae7397731d063d5bbf3d657854427343f4c083240f7aacaa2d0f6285856040516124f8929190918252602082015260400190565b60405180910390a45050611f55565b836001600160a01b0316856001600160a01b0316826001600160a01b03167f4a39dc06d4c0dbc64b70af90fd698a233a518aa5d07e595d983b8c0526c8f7fb8686604051612556929190613058565b60405180910390a45050505050565b6001600160a01b0384163b1561122a5760405163f23a6e6160e01b81526001600160a01b0385169063f23a6e61906125a9908990899088908890889060040161307d565b6020604051808303816000875af19250505080156125e4575060408051601f3d908101601f191682019092526125e1918101906130b7565b60015b61264d573d808015612612576040519150601f19603f3d011682016040523d82523d6000602084013e612617565b606091505b50805160000361264557604051632bfa23e760e11b81526001600160a01b038616600482015260240161075f565b805181602001fd5b6001600160e01b0319811663f23a6e6160e01b1461227b57604051632bfa23e760e11b81526001600160a01b038616600482015260240161075f565b6001600160a01b0384163b1561122a5760405163bc197c8160e01b81526001600160a01b0385169063bc197c81906126cd90899089908890889088906004016130d4565b6020604051808303816000875af1925050508015612708575060408051601f3d908101601f19168201909252612705918101906130b7565b60015b612736573d808015612612576040519150601f19603f3d011682016040523d82523d6000602084013e612617565b6001600160e01b0319811663bc197c8160e01b1461227b57604051632bfa23e760e11b81526001600160a01b038616600482015260240161075f565b8280548282559060005260206000209081019282156127ad579160200282015b828111156127ad578251825591602001919060010190612792565b506127b99291506127bd565b5090565b5b808211156127b957600081556001016127be565b80356001600160a01b03811681146127e957600080fd5b919050565b6000806040838503121561280157600080fd5b61280a836127d2565b946020939093013593505050565b6001600160e01b0319811681146111c857600080fd5b60006020828403121561284057600080fd5b8135611d4981612818565b60006020828403121561285d57600080fd5b5035919050565b6000815180845260005b8181101561288a5760208185018101518683018201520161286e565b506000602082860101526020601f19601f83011685010191505092915050565b602081526000611d496020830184612864565b600080604083850312156128d057600080fd5b50508035926020909101359150565b6000806000606084860312156128f457600080fd5b505081359360208301359350604090920135919050565b634e487b7160e01b600052604160045260246000fd5b604051601f8201601f1916810167ffffffffffffffff8111828210171561294a5761294a61290b565b604052919050565b600067ffffffffffffffff82111561296c5761296c61290b565b5060051b60200190565b600082601f83011261298757600080fd5b8135602061299c61299783612952565b612921565b82815260059290921b840181019181810190868411156129bb57600080fd5b8286015b848110156129d657803583529183019183016129bf565b509695505050505050565b600082601f8301126129f257600080fd5b813567ffffffffffffffff811115612a0c57612a0c61290b565b612a1f601f8201601f1916602001612921565b818152846020838601011115612a3457600080fd5b816020850160208301376000918101602001919091529392505050565b600080600080600060a08688031215612a6957600080fd5b612a72866127d2565b9450612a80602087016127d2565b9350604086013567ffffffffffffffff80821115612a9d57600080fd5b612aa989838a01612976565b94506060880135915080821115612abf57600080fd5b612acb89838a01612976565b93506080880135915080821115612ae157600080fd5b50612aee888289016129e1565b9150509295509295909350565b60008060408385031215612b0e57600080fd5b823567ffffffffffffffff80821115612b2657600080fd5b818501915085601f830112612b3a57600080fd5b81356020612b4a61299783612952565b82815260059290921b84018101918181019089841115612b6957600080fd5b948201945b83861015612b8e57612b7f866127d2565b82529482019490820190612b6e565b96505086013592505080821115612ba457600080fd5b50612bb185828601612976565b9150509250929050565b600081518084526020808501945080840160005b83811015612beb57815187529582019590820190600101612bcf565b509495945050505050565b602081526000611d496020830184612bbb565b600060208284031215612c1b57600080fd5b611d49826127d2565b60008060408385031215612c3757600080fd5b612c40836127d2565b915060208301358015158114612c5557600080fd5b809150509250929050565b60008060408385031215612c7357600080fd5b612c7c836127d2565b9150612c8a602084016127d2565b90509250929050565b600080600080600060a08688031215612cab57600080fd5b612cb4866127d2565b9450612cc2602087016127d2565b93506040860135925060608601359150608086013567ffffffffffffffff811115612cec57600080fd5b612aee888289016129e1565b600181811c90821680612d0c57607f821691505b602082108103612d2c57634e487b7160e01b600052602260045260246000fd5b50919050565b602080825260129082015271125b9d985b1a59081bdd5d18dbdb5948125160721b604082015260600190565b634e487b7160e01b600052601160045260246000fd5b6000600160ff1b8201612d8957612d89612d5e565b5060000390565b808202811582820484141761063457610634612d5e565b600082612dc457634e487b7160e01b600052601260045260246000fd5b500490565b8181038181111561063457610634612d5e565b8082018082111561063457610634612d5e565b6020808252600f908201526e26b0b935b2ba103737ba1037b832b760891b604082015260600190565b6020808252601290820152710416d6f756e74206d757374206265203e20360741b604082015260600190565b634e487b7160e01b600052603260045260246000fd5b8082018281126000831280158216821582161715612e7a57612e7a612d5e565b505092915050565b60208082526013908201527210dbdb9d195cdd081b9bdd081cd95d1d1b1959606a1b604082015260600190565b600060018201612ec157612ec1612d5e565b5060010190565b6020808252825182820181905260009190848201906040850190845b81811015612f095783516001600160a01b031683529284019291840191600101612ee4565b50909695505050505050565b60006020808385031215612f2857600080fd5b825167ffffffffffffffff811115612f3f57600080fd5b8301601f81018513612f5057600080fd5b8051612f5e61299782612952565b81815260059190911b82018301908381019087831115612f7d57600080fd5b928401925b82841015612f9b57835182529284019290840190612f82565b979650505050505050565b6020808252825482820181905260008481528281209092916040850190845b81811015612f0957835483526001938401939285019201612fc5565b818103600083128015838313168383128216171561300157613001612d5e565b5092915050565b60006020828403121561301a57600080fd5b5051919050565b634e487b7160e01b600052602160045260246000fd5b60006020828403121561304957600080fd5b815160048110611d4957600080fd5b60408152600061306b6040830185612bbb565b8281036020840152611d918185612bbb565b6001600160a01b03868116825285166020820152604081018490526060810183905260a060808201819052600090612f9b90830184612864565b6000602082840312156130c957600080fd5b8151611d4981612818565b6001600160a01b0386811682528516602082015260a06040820181905260009061310090830186612bbb565b82810360608401526131128186612bbb565b905082810360808401526131268185612864565b9897505050505050505056fea26469706673582212203b531ec616f23773b60d82e6b7ddc5bc79269f6d9e28cba34d755ee063c61e5c64736f6c63430008140033","linkReferences":{}},"methodIdentifiers":{"ENTRY_FEE_BPS()":"9089ad0e","PAYOUT_DENOMINATOR()":"90282be5","PRICE_PRECISION()":"95082d25","accumulatedPrizeBonus()":"32e6190b","balanceOf(address,uint256)":"00fdd58e","balanceOfBatch(address[],uint256[])":"4e1273f4","calculateLMSRCost(uint256,uint256,uint256)":"2bcef2a4","calculateOutcomePrice(uint256)":"11c5c792","contestEscrow()":"5b52041e","contestantBonuses(address)":"fc6cc4a3","demandSensitivityBps()":"693b4660","depositCompleteSets(uint256)":"aebacafc","depositOnOutcome(uint256,uint256)":"168d6c10","distributeFees()":"bb57ad20","feesDistributed()":"a317f2d6","getContestantStats(address)":"bd5d665f","getImpliedProbability(uint256)":"ecb62b6e","getOutcomeParticipant(uint256)":"aaaac846","getTotalBonusPool()":"03a3434b","isApprovedForAll(address,address)":"e985e9c5","isOpen()":"47535d7b","isSettled()":"3270bb5b","liquidityParameter()":"3a69a1be","netPosition(uint256)":"6932b382","numOutcomes()":"8767d64e","oracle()":"7dc0d1d0","outcomeToParticipant(uint256)":"bc483edd","participantToOutcome(address)":"a65b11a0","paymentToken()":"3013ce29","payoutNumerators(uint256)":"60d9b489","redeemPosition(uint256)":"2fefd77f","resolveMarket()":"2b9b55b3","safeBatchTransferFrom(address,address,uint256[],uint256[],bytes)":"2eb2c2d6","safeTransferFrom(address,address,uint256,uint256,bytes)":"f242432a","setApprovalForAll(address,bool)":"a22cb465","supportsInterface(bytes4)":"01ffc9a7","swapOutcomes(uint256,uint256,uint256)":"b56d9c2c","totalCollateral()":"4ac8eb5f","totalVolumeOnContestant(address)":"84e0d1b4","uri(uint256)":"0e89341c","withdraw(uint256)":"2e1a7d4d"},"id":49}