{"abi":[{"type":"constructor","inputs":[{"name":"_escrow","type":"address","internalType":"address"},{"name":"_liquidityParameter","type":"uint256","internalType":"uint256"},{"name":"_oracle","type":"address","internalType":"address"}],"stateMutability":"nonpayable"},{"type":"function","name":"PAYOUT_DENOMINATOR","inputs":[],"outputs":[{"name":"","type":"uint256","internalType":"uint256"}],"stateMutability":"view"},{"type":"function","name":"balanceOf","inputs":[{"name":"account","type":"address","internalType":"address"},{"name":"id","type":"uint256","internalType":"uint256"}],"outputs":[{"name":"","type":"uint256","internalType":"uint256"}],"stateMutability":"view"},{"type":"function","name":"balanceOfBatch","inputs":[{"name":"accounts","type":"address[]","internalType":"address[]"},{"name":"ids","type":"uint256[]","internalType":"uint256[]"}],"outputs":[{"name":"","type":"uint256[]","internalType":"uint256[]"}],"stateMutability":"view"},{"type":"function","name":"calculateLMSRCost","inputs":[{"name":"","type":"uint256","internalType":"uint256"},{"name":"toId","type":"uint256","internalType":"uint256"},{"name":"amount","type":"uint256","internalType":"uint256"}],"outputs":[{"name":"","type":"uint256","internalType":"uint256"}],"stateMutability":"view"},{"type":"function","name":"closeMarket","inputs":[],"outputs":[],"stateMutability":"nonpayable"},{"type":"function","name":"contestEscrow","inputs":[],"outputs":[{"name":"","type":"address","internalType":"contract Escrow"}],"stateMutability":"view"},{"type":"function","name":"deposit","inputs":[{"name":"amount","type":"uint256","internalType":"uint256"}],"outputs":[],"stateMutability":"nonpayable"},{"type":"function","name":"getImpliedProbability","inputs":[{"name":"outcomeId","type":"uint256","internalType":"uint256"}],"outputs":[{"name":"","type":"uint256","internalType":"uint256"}],"stateMutability":"view"},{"type":"function","name":"getOutcomeParticipant","inputs":[{"name":"outcomeId","type":"uint256","internalType":"uint256"}],"outputs":[{"name":"","type":"address","internalType":"address"}],"stateMutability":"view"},{"type":"function","name":"isApprovedForAll","inputs":[{"name":"account","type":"address","internalType":"address"},{"name":"operator","type":"address","internalType":"address"}],"outputs":[{"name":"","type":"bool","internalType":"bool"}],"stateMutability":"view"},{"type":"function","name":"liquidityParameter","inputs":[],"outputs":[{"name":"","type":"uint256","internalType":"uint256"}],"stateMutability":"view"},{"type":"function","name":"mergePositions","inputs":[{"name":"amount","type":"uint256","internalType":"uint256"}],"outputs":[],"stateMutability":"nonpayable"},{"type":"function","name":"netPosition","inputs":[{"name":"","type":"uint256","internalType":"uint256"}],"outputs":[{"name":"","type":"int256","internalType":"int256"}],"stateMutability":"view"},{"type":"function","name":"numOutcomes","inputs":[],"outputs":[{"name":"","type":"uint256","internalType":"uint256"}],"stateMutability":"view"},{"type":"function","name":"oracle","inputs":[],"outputs":[{"name":"","type":"address","internalType":"address"}],"stateMutability":"view"},{"type":"function","name":"outcomeToParticipant","inputs":[{"name":"","type":"uint256","internalType":"uint256"}],"outputs":[{"name":"","type":"address","internalType":"address"}],"stateMutability":"view"},{"type":"function","name":"participantToOutcome","inputs":[{"name":"","type":"address","internalType":"address"}],"outputs":[{"name":"","type":"uint256","internalType":"uint256"}],"stateMutability":"view"},{"type":"function","name":"paymentToken","inputs":[],"outputs":[{"name":"","type":"address","internalType":"contract IERC20"}],"stateMutability":"view"},{"type":"function","name":"payoutNumerators","inputs":[{"name":"","type":"uint256","internalType":"uint256"}],"outputs":[{"name":"","type":"uint256","internalType":"uint256"}],"stateMutability":"view"},{"type":"function","name":"redeemPosition","inputs":[{"name":"outcomeId","type":"uint256","internalType":"uint256"}],"outputs":[],"stateMutability":"nonpayable"},{"type":"function","name":"resolveFromEscrow","inputs":[],"outputs":[],"stateMutability":"nonpayable"},{"type":"function","name":"safeBatchTransferFrom","inputs":[{"name":"from","type":"address","internalType":"address"},{"name":"to","type":"address","internalType":"address"},{"name":"ids","type":"uint256[]","internalType":"uint256[]"},{"name":"values","type":"uint256[]","internalType":"uint256[]"},{"name":"data","type":"bytes","internalType":"bytes"}],"outputs":[],"stateMutability":"nonpayable"},{"type":"function","name":"safeTransferFrom","inputs":[{"name":"from","type":"address","internalType":"address"},{"name":"to","type":"address","internalType":"address"},{"name":"id","type":"uint256","internalType":"uint256"},{"name":"value","type":"uint256","internalType":"uint256"},{"name":"data","type":"bytes","internalType":"bytes"}],"outputs":[],"stateMutability":"nonpayable"},{"type":"function","name":"setApprovalForAll","inputs":[{"name":"operator","type":"address","internalType":"address"},{"name":"approved","type":"bool","internalType":"bool"}],"outputs":[],"stateMutability":"nonpayable"},{"type":"function","name":"state","inputs":[],"outputs":[{"name":"","type":"uint8","internalType":"enum PredictionMarket.MarketState"}],"stateMutability":"view"},{"type":"function","name":"supportsInterface","inputs":[{"name":"interfaceId","type":"bytes4","internalType":"bytes4"}],"outputs":[{"name":"","type":"bool","internalType":"bool"}],"stateMutability":"view"},{"type":"function","name":"swapOutcomes","inputs":[{"name":"fromId","type":"uint256","internalType":"uint256"},{"name":"toId","type":"uint256","internalType":"uint256"},{"name":"amount","type":"uint256","internalType":"uint256"}],"outputs":[],"stateMutability":"nonpayable"},{"type":"function","name":"totalCollateral","inputs":[],"outputs":[{"name":"","type":"uint256","internalType":"uint256"}],"stateMutability":"view"},{"type":"function","name":"uri","inputs":[{"name":"","type":"uint256","internalType":"uint256"}],"outputs":[{"name":"","type":"string","internalType":"string"}],"stateMutability":"view"},{"type":"event","name":"ApprovalForAll","inputs":[{"name":"account","type":"address","indexed":true,"internalType":"address"},{"name":"operator","type":"address","indexed":true,"internalType":"address"},{"name":"approved","type":"bool","indexed":false,"internalType":"bool"}],"anonymous":false},{"type":"event","name":"Deposited","inputs":[{"name":"spectator","type":"address","indexed":true,"internalType":"address"},{"name":"amount","type":"uint256","indexed":false,"internalType":"uint256"}],"anonymous":false},{"type":"event","name":"MarketClosed","inputs":[],"anonymous":false},{"type":"event","name":"OutcomesSwapped","inputs":[{"name":"spectator","type":"address","indexed":true,"internalType":"address"},{"name":"fromId","type":"uint256","indexed":true,"internalType":"uint256"},{"name":"toId","type":"uint256","indexed":true,"internalType":"uint256"},{"name":"amountBurned","type":"uint256","indexed":false,"internalType":"uint256"},{"name":"amountMinted","type":"uint256","indexed":false,"internalType":"uint256"},{"name":"swapCost","type":"uint256","indexed":false,"internalType":"uint256"}],"anonymous":false},{"type":"event","name":"PositionRedeemed","inputs":[{"name":"spectator","type":"address","indexed":true,"internalType":"address"},{"name":"outcomeId","type":"uint256","indexed":true,"internalType":"uint256"},{"name":"amount","type":"uint256","indexed":false,"internalType":"uint256"},{"name":"payout","type":"uint256","indexed":false,"internalType":"uint256"}],"anonymous":false},{"type":"event","name":"PositionsMerged","inputs":[{"name":"spectator","type":"address","indexed":true,"internalType":"address"},{"name":"amount","type":"uint256","indexed":false,"internalType":"uint256"}],"anonymous":false},{"type":"event","name":"ResultsReported","inputs":[{"name":"payoutNumerators","type":"uint256[]","indexed":false,"internalType":"uint256[]"}],"anonymous":false},{"type":"event","name":"TransferBatch","inputs":[{"name":"operator","type":"address","indexed":true,"internalType":"address"},{"name":"from","type":"address","indexed":true,"internalType":"address"},{"name":"to","type":"address","indexed":true,"internalType":"address"},{"name":"ids","type":"uint256[]","indexed":false,"internalType":"uint256[]"},{"name":"values","type":"uint256[]","indexed":false,"internalType":"uint256[]"}],"anonymous":false},{"type":"event","name":"TransferSingle","inputs":[{"name":"operator","type":"address","indexed":true,"internalType":"address"},{"name":"from","type":"address","indexed":true,"internalType":"address"},{"name":"to","type":"address","indexed":true,"internalType":"address"},{"name":"id","type":"uint256","indexed":false,"internalType":"uint256"},{"name":"value","type":"uint256","indexed":false,"internalType":"uint256"}],"anonymous":false},{"type":"event","name":"URI","inputs":[{"name":"value","type":"string","indexed":false,"internalType":"string"},{"name":"id","type":"uint256","indexed":true,"internalType":"uint256"}],"anonymous":false},{"type":"error","name":"ERC1155InsufficientBalance","inputs":[{"name":"sender","type":"address","internalType":"address"},{"name":"balance","type":"uint256","internalType":"uint256"},{"name":"needed","type":"uint256","internalType":"uint256"},{"name":"tokenId","type":"uint256","internalType":"uint256"}]},{"type":"error","name":"ERC1155InvalidApprover","inputs":[{"name":"approver","type":"address","internalType":"address"}]},{"type":"error","name":"ERC1155InvalidArrayLength","inputs":[{"name":"idsLength","type":"uint256","internalType":"uint256"},{"name":"valuesLength","type":"uint256","internalType":"uint256"}]},{"type":"error","name":"ERC1155InvalidOperator","inputs":[{"name":"operator","type":"address","internalType":"address"}]},{"type":"error","name":"ERC1155InvalidReceiver","inputs":[{"name":"receiver","type":"address","internalType":"address"}]},{"type":"error","name":"ERC1155InvalidSender","inputs":[{"name":"sender","type":"address","internalType":"address"}]},{"type":"error","name":"ERC1155MissingApprovalForAll","inputs":[{"name":"operator","type":"address","internalType":"address"},{"name":"owner","type":"address","internalType":"address"}]},{"type":"error","name":"ReentrancyGuardReentrantCall","inputs":[]},{"type":"error","name":"SafeERC20FailedOperation","inputs":[{"name":"token","type":"address","internalType":"address"}]}],"bytecode":{"object":"0x6101206040523480156200001257600080fd5b5060405162003081380380620030818339810160408190526200003591620003e1565b6040805160208101909152600081526200004f81620003b6565b5060016003556001600160a01b038316620000b15760405162461bcd60e51b815260206004820152601d60248201527f457363726f772063616e6e6f74206265207a65726f206164647265737300000060448201526064015b60405180910390fd5b6001600160a01b038116620001095760405162461bcd60e51b815260206004820152601d60248201527f4f7261636c652063616e6e6f74206265207a65726f20616464726573730000006044820152606401620000a8565b600082116200015b5760405162461bcd60e51b815260206004820152601f60248201527f4c697175696469747920706172616d65746572206d757374206265203e2030006044820152606401620000a8565b6001600160a01b0380841660a081905290821660c05261010083905260408051633013ce2960e01b81529051633013ce29916004808201926020929091908290030181865afa158015620001b3573d6000803e3d6000fd5b505050506040513d601f19601f82011682018060405250810190620001d9919062000429565b6001600160a01b03166080816001600160a01b031681525050600060a0516001600160a01b031663cabfaa186040518163ffffffff1660e01b8152600401602060405180830381865afa15801562000235573d6000803e3d6000fd5b505050506040513d601f19601f820116820180604052508101906200025b919062000450565b905060008111620002af5760405162461bcd60e51b815260206004820152601a60248201527f4e6f207061727469636970616e747320696e20636f6e746573740000000000006044820152606401620000a8565b60e081905260005b81811015620003a05760a0516040516335c1d34960e01b8152600481018390526000916001600160a01b0316906335c1d34990602401602060405180830381865afa1580156200030b573d6000803e3d6000fd5b505050506040513d601f19601f8201168201806040525081019062000331919062000429565b6001600160a01b031660008181526007602052604081208490556008805460018101825591527ff3f7a9fe364faab93b216da50a3214154f22a0a2b415b23a84c8169e8b636ee30180546001600160a01b0319169091179055508062000397816200046a565b915050620002b7565b50506009805460ff191690555062000603915050565b6002620003c4828262000537565b5050565b6001600160a01b0381168114620003de57600080fd5b50565b600080600060608486031215620003f757600080fd5b83516200040481620003c8565b6020850151604086015191945092506200041e81620003c8565b809150509250925092565b6000602082840312156200043c57600080fd5b81516200044981620003c8565b9392505050565b6000602082840312156200046357600080fd5b5051919050565b6000600182016200048b57634e487b7160e01b600052601160045260246000fd5b5060010190565b634e487b7160e01b600052604160045260246000fd5b600181811c90821680620004bd57607f821691505b602082108103620004de57634e487b7160e01b600052602260045260246000fd5b50919050565b601f8211156200053257600081815260208120601f850160051c810160208610156200050d5750805b601f850160051c820191505b818110156200052e5782815560010162000519565b5050505b505050565b81516001600160401b0381111562000553576200055362000492565b6200056b81620005648454620004a8565b84620004e4565b602080601f831160018114620005a357600084156200058a5750858301515b600019600386901b1c1916600185901b1785556200052e565b600085815260208120601f198616915b82811015620005d457888601518255948401946001909101908401620005b3565b5085821015620005f35787850151600019600388901b60f8161c191681555b5050505050600190811b01905550565b60805160a05160c05160e0516101005161299f620006e2600039600081816102d60152610c7f0152600081816103a701528181610624015281816106ac015281816108d90152818161094101528181610afd01528181610b7801528181610d8f0152818161108c01528181611186015281816111b001528181611434015281816115e90152818161167f01526116fe01526000818161038001526114ef0152600081816103260152818161080101526109ef0152600081816102970152818161073901528181610e7b01528181610f1201526113ef015261299f6000f3fe608060405234801561001057600080fd5b50600436106101ce5760003560e01c80636932b38211610104578063b56d9c2c116100a2578063c511ed5e11610071578063c511ed5e1461046b578063e985e9c514610473578063ecb62b6e14610486578063f242432a1461049957600080fd5b8063b56d9c2c14610418578063b6b55f251461042b578063bc483edd1461043e578063c19d93fb1461045157600080fd5b806390282be5116100de57806390282be5146103c9578063a22cb465146103d2578063a65b11a0146103e5578063aaaac8461461040557600080fd5b80636932b3821461035b5780637dc0d1d01461037b5780638767d64e146103a257600080fd5b80632fefd77f116101715780634ac8eb5f1161014b5780634ac8eb5f146102f85780634e1273f4146103015780635b52041e1461032157806360d9b4891461034857600080fd5b80632fefd77f1461027f5780633013ce29146102925780633a69a1be146102d157600080fd5b80631d344a28116101ad5780631d344a281461023c578063292268a4146102515780632bcef2a4146102595780632eb2c2d61461026c57600080fd5b8062fdd58e146101d357806301ffc9a7146101f95780630e89341c1461021c575b600080fd5b6101e66101e1366004612057565b6104ac565b6040519081526020015b60405180910390f35b61020c610207366004612097565b6104d4565b60405190151581526020016101f0565b61022f61022a3660046120b4565b610524565b6040516101f09190612113565b61024f61024a3660046120b4565b6105b8565b005b61024f6107a3565b6101e6610267366004612126565b610c4d565b61024f61027a366004612298565b610cc2565b61024f61028d3660046120b4565b610d29565b6102b97f000000000000000000000000000000000000000000000000000000000000000081565b6040516001600160a01b0390911681526020016101f0565b6101e67f000000000000000000000000000000000000000000000000000000000000000081565b6101e660045481565b61031461030f366004612342565b610f83565b6040516101f0919061243d565b6102b97f000000000000000000000000000000000000000000000000000000000000000081565b6101e66103563660046120b4565b611058565b6101e66103693660046120b4565b60066020526000908152604090205481565b6102b97f000000000000000000000000000000000000000000000000000000000000000081565b6101e67f000000000000000000000000000000000000000000000000000000000000000081565b6101e661271081565b61024f6103e0366004612450565b611079565b6101e66103f336600461248c565b60076020526000908152604090205481565b6102b96104133660046120b4565b611088565b61024f610426366004612126565b6110f7565b61024f6104393660046120b4565b611384565b6102b961044c3660046120b4565b6114ba565b60095461045e9060ff1681565b6040516101f091906124bd565b61024f6114e4565b61020c6104813660046124e5565b6115b7565b6101e66104943660046120b4565b6115e5565b61024f6104a7366004612518565b611776565b6000818152602081815260408083206001600160a01b03861684529091529020545b92915050565b60006001600160e01b03198216636cdb3d1360e11b148061050557506001600160e01b031982166303a24d0760e21b145b806104ce57506301ffc9a760e01b6001600160e01b03198316146104ce565b6060600280546105339061257d565b80601f016020809104026020016040519081016040528092919081815260200182805461055f9061257d565b80156105ac5780601f10610581576101008083540402835291602001916105ac565b820191906000526020600020905b81548152906001019060200180831161058f57829003601f168201915b50505050509050919050565b600060095460ff1660028111156105d1576105d16124a7565b146105f75760405162461bcd60e51b81526004016105ee906125b7565b60405180910390fd5b6105ff6117d5565b6000811161061f5760405162461bcd60e51b81526004016105ee906125e0565b60005b7f00000000000000000000000000000000000000000000000000000000000000008110156106a6578161065533836104ac565b10156106945760405162461bcd60e51b815260206004820152600e60248201526d125b98dbdb5c1b195d19481cd95d60921b60448201526064016105ee565b8061069e81612622565b915050610622565b5060005b7f0000000000000000000000000000000000000000000000000000000000000000811015610713576106dd3382846117ff565b600081815260066020526040812080548492906106fb90849061263b565b9091555081905061070b81612622565b9150506106aa565b5080600460008282546107269190612662565b9091555061076090506001600160a01b037f000000000000000000000000000000000000000000000000000000000000000016338361186e565b60405181815233907f642ce031dc6e8b3ae6f862e919c65456b32b3cb3bdcc3a1d83424ec13f44b723906020015b60405180910390a26107a06001600355565b50565b600160095460ff1660028111156107bc576107bc6124a7565b146107fd5760405162461bcd60e51b815260206004820152601160248201527013585c9ad95d081b9bdd0818db1bdcd959607a1b60448201526064016105ee565b60027f00000000000000000000000000000000000000000000000000000000000000006001600160a01b031663c19d93fb6040518163ffffffff1660e01b8152600401602060405180830381865afa15801561085d573d6000803e3d6000fd5b505050506040513d601f19601f820116820180604052508101906108819190612675565b6003811115610892576108926124a7565b146108d55760405162461bcd60e51b815260206004820152601360248201527210dbdb9d195cdd081b9bdd081cd95d1d1b1959606a1b60448201526064016105ee565b60007f000000000000000000000000000000000000000000000000000000000000000067ffffffffffffffff81111561091057610910612152565b604051908082528060200260200182016040528015610939578160200160208202803683370190505b50905060005b7f00000000000000000000000000000000000000000000000000000000000000008110156109d4576008818154811061097a5761097a612696565b9060005260206000200160009054906101000a90046001600160a01b03168282815181106109aa576109aa612696565b6001600160a01b0390921660209283029190910190910152806109cc81612622565b91505061093f565b506040516317585b4560e01b81526000906001600160a01b037f000000000000000000000000000000000000000000000000000000000000000016906317585b4590610a249085906004016126ac565b600060405180830381865afa158015610a41573d6000803e3d6000fd5b505050506040513d6000823e601f3d908101601f19168201604052610a6991908101906126f9565b90506000805b8251811015610ab157828181518110610a8a57610a8a612696565b602002602001015182610a9d919061277f565b915080610aa981612622565b915050610a6f565b5060008111610afb5760405162461bcd60e51b8152602060048201526016602482015275139bc81c185e5bdd5d1cc8191a5cdd1c9a589d5d195960521b60448201526064016105ee565b7f000000000000000000000000000000000000000000000000000000000000000067ffffffffffffffff811115610b3457610b34612152565b604051908082528060200260200182016040528015610b5d578160200160208202803683370190505b508051610b7291600591602090910190611fdb565b5060005b7f0000000000000000000000000000000000000000000000000000000000000000811015610c015781612710848381518110610bb457610bb4612696565b6020026020010151610bc69190612792565b610bd091906127a9565b60058281548110610be357610be3612696565b60009182526020909120015580610bf981612622565b915050610b76565b506009805460ff191660021790556040517fec5b366fa032c5388d4731f83407378f89246f78d925fdda7dda31d8976af6c790610c40906005906127cb565b60405180910390a1505050565b6000828152600660205260408120548180821215610c7357610c6e82612806565b610c75565b815b90506000610ca3827f000000000000000000000000000000000000000000000000000000000000000061277f565b610cad8387612792565b610cb791906127a9565b979650505050505050565b336001600160a01b0386168114801590610ce35750610ce186826115b7565b155b15610d145760405163711bec9160e11b81526001600160a01b038083166004830152871660248201526044016105ee565b610d2186868686866118cd565b505050505050565b610d316117d5565b600260095460ff166002811115610d4a57610d4a6124a7565b14610d8d5760405162461bcd60e51b815260206004820152601360248201527213585c9ad95d081b9bdd081c995cdbdb1d9959606a1b60448201526064016105ee565b7f00000000000000000000000000000000000000000000000000000000000000008110610dcc5760405162461bcd60e51b81526004016105ee90612822565b6000610dd833836104ac565b905060008111610e205760405162461bcd60e51b81526020600482015260136024820152724e6f20746f6b656e7320746f2072656465656d60681b60448201526064016105ee565b600061271060058481548110610e3857610e38612696565b906000526020600020015483610e4e9190612792565b610e5891906127a9565b6040516370a0823160e01b81523060048201529091506000906001600160a01b037f000000000000000000000000000000000000000000000000000000000000000016906370a0823190602401602060405180830381865afa158015610ec2573d6000803e3d6000fd5b505050506040513d601f19601f82011682018060405250810190610ee6919061284e565b905080821115610ef4578091505b610eff3385856117ff565b8115610f3957610f396001600160a01b037f000000000000000000000000000000000000000000000000000000000000000016338461186e565b6040805184815260208101849052859133917f50a8b5fa7eefe8420501c5a1c34c9aedab2e4a6078f744bbb9e358f743bc812a910160405180910390a35050506107a06001600355565b60608151835114610fb45781518351604051635b05999160e01b8152600481019290925260248201526044016105ee565b6000835167ffffffffffffffff811115610fd057610fd0612152565b604051908082528060200260200182016040528015610ff9578160200160208202803683370190505b50905060005b845181101561105057602080820286010151611023906020808402870101516104ac565b82828151811061103557611035612696565b602090810291909101015261104981612622565b9050610fff565b509392505050565b6005818154811061106857600080fd5b600091825260209091200154905081565b61108433838361192d565b5050565b60007f000000000000000000000000000000000000000000000000000000000000000082106110c95760405162461bcd60e51b81526004016105ee90612822565b600882815481106110dc576110dc612696565b6000918252602090912001546001600160a01b031692915050565b600060095460ff166002811115611110576111106124a7565b1461112d5760405162461bcd60e51b81526004016105ee906125b7565b6111356117d5565b8183036111845760405162461bcd60e51b815260206004820152601860248201527f43616e6e6f7420737761702073616d65206f7574636f6d65000000000000000060448201526064016105ee565b7f0000000000000000000000000000000000000000000000000000000000000000831080156111d257507f000000000000000000000000000000000000000000000000000000000000000082105b6111ee5760405162461bcd60e51b81526004016105ee90612822565b6000811161120e5760405162461bcd60e51b81526004016105ee906125e0565b8061121933856104ac565b101561125e5760405162461bcd60e51b8152602060048201526014602482015273496e73756666696369656e742062616c616e636560601b60448201526064016105ee565b600061126b848484610c4d565b90508181106112b15760405162461bcd60e51b81526020600482015260126024820152710a6eec2e040c6dee6e840e8dede40d0d2ced60731b60448201526064016105ee565b6112bc3385846117ff565b600084815260066020526040812080548492906112da90849061263b565b90915550600090506112ec8284612662565b9050611309338583604051806020016040528060008152506119c3565b60008481526006602052604081208054839290611327908490612867565b909155505060408051848152602081018390529081018390528490869033907fb1f70a89f11fef67d2045ceee66949b21a1fc0e3dbd428f8d274a77585ef71f09060600160405180910390a4505061137f6001600355565b505050565b600060095460ff16600281111561139d5761139d6124a7565b146113ba5760405162461bcd60e51b81526004016105ee906125b7565b6113c26117d5565b600081116113e25760405162461bcd60e51b81526004016105ee906125e0565b6114176001600160a01b037f000000000000000000000000000000000000000000000000000000000000000016333084611a20565b8060046000828254611429919061277f565b90915550600090505b7f000000000000000000000000000000000000000000000000000000000000000081101561148757611475338284604051806020016040528060008152506119c3565b8061147f81612622565b915050611432565b5060405181815233907f2da466a7b24304f47e87fa2e1e5a81b9831ce54fec19055ce277ca2f39ba42c49060200161078e565b600881815481106114ca57600080fd5b6000918252602090912001546001600160a01b0316905081565b336001600160a01b037f000000000000000000000000000000000000000000000000000000000000000016146115495760405162461bcd60e51b815260206004820152600a6024820152694e6f74206f7261636c6560b01b60448201526064016105ee565b600060095460ff166002811115611562576115626124a7565b1461157f5760405162461bcd60e51b81526004016105ee906125b7565b6009805460ff191660011790556040517f0b5f6bf058282d5cc003efc735b9ee453bbd7f9bef4c6db6300d095f3eefac2890600090a1565b6001600160a01b03918216600090815260016020908152604080832093909416825291909152205460ff1690565b60007f000000000000000000000000000000000000000000000000000000000000000082106116265760405162461bcd60e51b81526004016105ee90612822565b600060095460ff16600281111561163f5761163f6124a7565b146116795760055415611671576005828154811061165f5761165f612696565b90600052602060002001549050919050565b506000919050565b6000805b7f00000000000000000000000000000000000000000000000000000000000000008110156116f05760008181526006602052604081205490808212156116cb576116c682612806565b6116cd565b815b90506116d9818561277f565b9350505080806116e890612622565b91505061167d565b508060000361172c576117257f00000000000000000000000000000000000000000000000000000000000000006127106127a9565b9392505050565b60008381526006602052604081205490808212156117525761174d82612806565b611754565b815b90508261176361271083612792565b61176d91906127a9565b95945050505050565b336001600160a01b0386168114801590611797575061179586826115b7565b155b156117c85760405163711bec9160e11b81526001600160a01b038083166004830152871660248201526044016105ee565b610d218686868686611a5f565b6002600354036117f857604051633ee5aeb560e01b815260040160405180910390fd5b6002600355565b6001600160a01b03831661182857604051626a0d4560e21b8152600060048201526024016105ee565b604080516001808252602082018590528183019081526060820184905260a0820190925260006080820181815291929161186791879185908590611aed565b5050505050565b6040516001600160a01b0383811660248301526044820183905261137f91859182169063a9059cbb906064015b604051602081830303815290604052915060e01b6020820180516001600160e01b038381831617835250505050611b40565b6001600160a01b0384166118f757604051632bfa23e760e11b8152600060048201526024016105ee565b6001600160a01b03851661192057604051626a0d4560e21b8152600060048201526024016105ee565b6118678585858585611aed565b6001600160a01b0382166119565760405162ced3e160e81b8152600060048201526024016105ee565b6001600160a01b03838116600081815260016020908152604080832094871680845294825291829020805460ff191686151590811790915591519182527f17307eab39ab6107e8899845ad3d59bd9653f200f220920489ca2b5937696c31910160405180910390a3505050565b6001600160a01b0384166119ed57604051632bfa23e760e11b8152600060048201526024016105ee565b60408051600180825260208201869052818301908152606082018590526080820190925290610d21600087848487611aed565b6040516001600160a01b038481166024830152838116604483015260648201839052611a599186918216906323b872dd9060840161189b565b50505050565b6001600160a01b038416611a8957604051632bfa23e760e11b8152600060048201526024016105ee565b6001600160a01b038516611ab257604051626a0d4560e21b8152600060048201526024016105ee565b60408051600180825260208201869052818301908152606082018590526080820190925290611ae48787848487611aed565b50505050505050565b611af985858585611bb1565b6001600160a01b038416156118675782513390600103611b325760208481015190840151611b2b838989858589611dce565b5050610d21565b610d21818787878787611ef2565b600080602060008451602086016000885af180611b63576040513d6000823e3d81fd5b50506000513d91508115611b7b578060011415611b88565b6001600160a01b0384163b155b15611a5957604051635274afe760e01b81526001600160a01b03851660048201526024016105ee565b8051825114611be05781518151604051635b05999160e01b8152600481019290925260248201526044016105ee565b3360005b8351811015611cef576020818102858101820151908501909101516001600160a01b03881615611c97576000828152602081815260408083206001600160a01b038c16845290915290205481811015611c70576040516303dee4c560e01b81526001600160a01b038a1660048201526024810182905260448101839052606481018490526084016105ee565b6000838152602081815260408083206001600160a01b038d16845290915290209082900390555b6001600160a01b03871615611cdc576000828152602081815260408083206001600160a01b038b16845290915281208054839290611cd690849061277f565b90915550505b505080611ce890612622565b9050611be4565b508251600103611d705760208301516000906020840151909150856001600160a01b0316876001600160a01b0316846001600160a01b03167fc3d58168c5ae7397731d063d5bbf3d657854427343f4c083240f7aacaa2d0f628585604051611d61929190918252602082015260400190565b60405180910390a45050611867565b836001600160a01b0316856001600160a01b0316826001600160a01b03167f4a39dc06d4c0dbc64b70af90fd698a233a518aa5d07e595d983b8c0526c8f7fb8686604051611dbf92919061288f565b60405180910390a45050505050565b6001600160a01b0384163b15610d215760405163f23a6e6160e01b81526001600160a01b0385169063f23a6e6190611e1290899089908890889088906004016128b4565b6020604051808303816000875af1925050508015611e4d575060408051601f3d908101601f19168201909252611e4a918101906128ee565b60015b611eb6573d808015611e7b576040519150601f19603f3d011682016040523d82523d6000602084013e611e80565b606091505b508051600003611eae57604051632bfa23e760e11b81526001600160a01b03861660048201526024016105ee565b805181602001fd5b6001600160e01b0319811663f23a6e6160e01b14611ae457604051632bfa23e760e11b81526001600160a01b03861660048201526024016105ee565b6001600160a01b0384163b15610d215760405163bc197c8160e01b81526001600160a01b0385169063bc197c8190611f36908990899088908890889060040161290b565b6020604051808303816000875af1925050508015611f71575060408051601f3d908101601f19168201909252611f6e918101906128ee565b60015b611f9f573d808015611e7b576040519150601f19603f3d011682016040523d82523d6000602084013e611e80565b6001600160e01b0319811663bc197c8160e01b14611ae457604051632bfa23e760e11b81526001600160a01b03861660048201526024016105ee565b828054828255906000526020600020908101928215612016579160200282015b82811115612016578251825591602001919060010190611ffb565b50612022929150612026565b5090565b5b808211156120225760008155600101612027565b80356001600160a01b038116811461205257600080fd5b919050565b6000806040838503121561206a57600080fd5b6120738361203b565b946020939093013593505050565b6001600160e01b0319811681146107a057600080fd5b6000602082840312156120a957600080fd5b813561172581612081565b6000602082840312156120c657600080fd5b5035919050565b6000815180845260005b818110156120f3576020818501810151868301820152016120d7565b506000602082860101526020601f19601f83011685010191505092915050565b60208152600061172560208301846120cd565b60008060006060848603121561213b57600080fd5b505081359360208301359350604090920135919050565b634e487b7160e01b600052604160045260246000fd5b604051601f8201601f1916810167ffffffffffffffff8111828210171561219157612191612152565b604052919050565b600067ffffffffffffffff8211156121b3576121b3612152565b5060051b60200190565b600082601f8301126121ce57600080fd5b813560206121e36121de83612199565b612168565b82815260059290921b8401810191818101908684111561220257600080fd5b8286015b8481101561221d5780358352918301918301612206565b509695505050505050565b600082601f83011261223957600080fd5b813567ffffffffffffffff81111561225357612253612152565b612266601f8201601f1916602001612168565b81815284602083860101111561227b57600080fd5b816020850160208301376000918101602001919091529392505050565b600080600080600060a086880312156122b057600080fd5b6122b98661203b565b94506122c76020870161203b565b9350604086013567ffffffffffffffff808211156122e457600080fd5b6122f089838a016121bd565b9450606088013591508082111561230657600080fd5b61231289838a016121bd565b9350608088013591508082111561232857600080fd5b5061233588828901612228565b9150509295509295909350565b6000806040838503121561235557600080fd5b823567ffffffffffffffff8082111561236d57600080fd5b818501915085601f83011261238157600080fd5b813560206123916121de83612199565b82815260059290921b840181019181810190898411156123b057600080fd5b948201945b838610156123d5576123c68661203b565b825294820194908201906123b5565b965050860135925050808211156123eb57600080fd5b506123f8858286016121bd565b9150509250929050565b600081518084526020808501945080840160005b8381101561243257815187529582019590820190600101612416565b509495945050505050565b6020815260006117256020830184612402565b6000806040838503121561246357600080fd5b61246c8361203b565b91506020830135801515811461248157600080fd5b809150509250929050565b60006020828403121561249e57600080fd5b6117258261203b565b634e487b7160e01b600052602160045260246000fd5b60208101600383106124df57634e487b7160e01b600052602160045260246000fd5b91905290565b600080604083850312156124f857600080fd5b6125018361203b565b915061250f6020840161203b565b90509250929050565b600080600080600060a0868803121561253057600080fd5b6125398661203b565b94506125476020870161203b565b93506040860135925060608601359150608086013567ffffffffffffffff81111561257157600080fd5b61233588828901612228565b600181811c9082168061259157607f821691505b6020821081036125b157634e487b7160e01b600052602260045260246000fd5b50919050565b6020808252600f908201526e26b0b935b2ba103737ba1037b832b760891b604082015260600190565b6020808252601290820152710416d6f756e74206d757374206265203e20360741b604082015260600190565b634e487b7160e01b600052601160045260246000fd5b6000600182016126345761263461260c565b5060010190565b818103600083128015838313168383128216171561265b5761265b61260c565b5092915050565b818103818111156104ce576104ce61260c565b60006020828403121561268757600080fd5b81516004811061172557600080fd5b634e487b7160e01b600052603260045260246000fd5b6020808252825182820181905260009190848201906040850190845b818110156126ed5783516001600160a01b0316835292840192918401916001016126c8565b50909695505050505050565b6000602080838503121561270c57600080fd5b825167ffffffffffffffff81111561272357600080fd5b8301601f8101851361273457600080fd5b80516127426121de82612199565b81815260059190911b8201830190838101908783111561276157600080fd5b928401925b82841015610cb757835182529284019290840190612766565b808201808211156104ce576104ce61260c565b80820281158282048414176104ce576104ce61260c565b6000826127c657634e487b7160e01b600052601260045260246000fd5b500490565b6020808252825482820181905260008481528281209092916040850190845b818110156126ed578354835260019384019392850192016127ea565b6000600160ff1b820161281b5761281b61260c565b5060000390565b602080825260129082015271125b9d985b1a59081bdd5d18dbdb5948125160721b604082015260600190565b60006020828403121561286057600080fd5b5051919050565b80820182811260008312801582168215821617156128875761288761260c565b505092915050565b6040815260006128a26040830185612402565b828103602084015261176d8185612402565b6001600160a01b03868116825285166020820152604081018490526060810183905260a060808201819052600090610cb7908301846120cd565b60006020828403121561290057600080fd5b815161172581612081565b6001600160a01b0386811682528516602082015260a06040820181905260009061293790830186612402565b82810360608401526129498186612402565b9050828103608084015261295d81856120cd565b9897505050505050505056fea2646970667358221220eeada029ebdca2511df7910ab1a34be9a45eb478aa2266e3c2e350d7d27d23bd64736f6c63430008140033","linkReferences":{}},"methodIdentifiers":{"PAYOUT_DENOMINATOR()":"90282be5","balanceOf(address,uint256)":"00fdd58e","balanceOfBatch(address[],uint256[])":"4e1273f4","calculateLMSRCost(uint256,uint256,uint256)":"2bcef2a4","closeMarket()":"c511ed5e","contestEscrow()":"5b52041e","deposit(uint256)":"b6b55f25","getImpliedProbability(uint256)":"ecb62b6e","getOutcomeParticipant(uint256)":"aaaac846","isApprovedForAll(address,address)":"e985e9c5","liquidityParameter()":"3a69a1be","mergePositions(uint256)":"1d344a28","netPosition(uint256)":"6932b382","numOutcomes()":"8767d64e","oracle()":"7dc0d1d0","outcomeToParticipant(uint256)":"bc483edd","participantToOutcome(address)":"a65b11a0","paymentToken()":"3013ce29","payoutNumerators(uint256)":"60d9b489","redeemPosition(uint256)":"2fefd77f","resolveFromEscrow()":"292268a4","safeBatchTransferFrom(address,address,uint256[],uint256[],bytes)":"2eb2c2d6","safeTransferFrom(address,address,uint256,uint256,bytes)":"f242432a","setApprovalForAll(address,bool)":"a22cb465","state()":"c19d93fb","supportsInterface(bytes4)":"01ffc9a7","swapOutcomes(uint256,uint256,uint256)":"b56d9c2c","totalCollateral()":"4ac8eb5f","uri(uint256)":"0e89341c"},"id":45}