{"abi":[{"type":"constructor","inputs":[{"name":"name","type":"string","internalType":"string"},{"name":"symbol","type":"string","internalType":"string"}],"stateMutability":"nonpayable"},{"type":"function","name":"DOMAIN_SEPARATOR","inputs":[],"outputs":[{"name":"","type":"bytes32","internalType":"bytes32"}],"stateMutability":"view"},{"type":"function","name":"allowance","inputs":[{"name":"","type":"address","internalType":"address"},{"name":"","type":"address","internalType":"address"}],"outputs":[{"name":"","type":"uint256","internalType":"uint256"}],"stateMutability":"view"},{"type":"function","name":"approve","inputs":[{"name":"spender","type":"address","internalType":"address"},{"name":"amount","type":"uint256","internalType":"uint256"}],"outputs":[{"name":"","type":"bool","internalType":"bool"}],"stateMutability":"nonpayable"},{"type":"function","name":"balanceOf","inputs":[{"name":"","type":"address","internalType":"address"}],"outputs":[{"name":"","type":"uint256","internalType":"uint256"}],"stateMutability":"view"},{"type":"function","name":"burn","inputs":[{"name":"from","type":"address","internalType":"address"},{"name":"amount","type":"uint256","internalType":"uint256"}],"outputs":[],"stateMutability":"nonpayable"},{"type":"function","name":"decimals","inputs":[],"outputs":[{"name":"","type":"uint8","internalType":"uint8"}],"stateMutability":"view"},{"type":"function","name":"depositManager","inputs":[],"outputs":[{"name":"","type":"address","internalType":"address"}],"stateMutability":"view"},{"type":"function","name":"mint","inputs":[{"name":"to","type":"address","internalType":"address"},{"name":"amount","type":"uint256","internalType":"uint256"}],"outputs":[],"stateMutability":"nonpayable"},{"type":"function","name":"name","inputs":[],"outputs":[{"name":"","type":"string","internalType":"string"}],"stateMutability":"view"},{"type":"function","name":"nonces","inputs":[{"name":"","type":"address","internalType":"address"}],"outputs":[{"name":"","type":"uint256","internalType":"uint256"}],"stateMutability":"view"},{"type":"function","name":"owner","inputs":[],"outputs":[{"name":"","type":"address","internalType":"address"}],"stateMutability":"view"},{"type":"function","name":"permit","inputs":[{"name":"owner","type":"address","internalType":"address"},{"name":"spender","type":"address","internalType":"address"},{"name":"value","type":"uint256","internalType":"uint256"},{"name":"deadline","type":"uint256","internalType":"uint256"},{"name":"v","type":"uint8","internalType":"uint8"},{"name":"r","type":"bytes32","internalType":"bytes32"},{"name":"s","type":"bytes32","internalType":"bytes32"}],"outputs":[],"stateMutability":"nonpayable"},{"type":"function","name":"setDepositManager","inputs":[{"name":"_depositManager","type":"address","internalType":"address"}],"outputs":[],"stateMutability":"nonpayable"},{"type":"function","name":"symbol","inputs":[],"outputs":[{"name":"","type":"string","internalType":"string"}],"stateMutability":"view"},{"type":"function","name":"totalSupply","inputs":[],"outputs":[{"name":"","type":"uint256","internalType":"uint256"}],"stateMutability":"view"},{"type":"function","name":"transfer","inputs":[{"name":"to","type":"address","internalType":"address"},{"name":"amount","type":"uint256","internalType":"uint256"}],"outputs":[{"name":"","type":"bool","internalType":"bool"}],"stateMutability":"nonpayable"},{"type":"function","name":"transferFrom","inputs":[{"name":"from","type":"address","internalType":"address"},{"name":"to","type":"address","internalType":"address"},{"name":"amount","type":"uint256","internalType":"uint256"}],"outputs":[{"name":"","type":"bool","internalType":"bool"}],"stateMutability":"nonpayable"},{"type":"function","name":"transferOwnership","inputs":[{"name":"newOwner","type":"address","internalType":"address"}],"outputs":[],"stateMutability":"nonpayable"},{"type":"event","name":"Approval","inputs":[{"name":"owner","type":"address","indexed":true,"internalType":"address"},{"name":"spender","type":"address","indexed":true,"internalType":"address"},{"name":"amount","type":"uint256","indexed":false,"internalType":"uint256"}],"anonymous":false},{"type":"event","name":"DepositManagerBurn","inputs":[{"name":"from","type":"address","indexed":true,"internalType":"address"},{"name":"amount","type":"uint256","indexed":false,"internalType":"uint256"}],"anonymous":false},{"type":"event","name":"DepositManagerMint","inputs":[{"name":"to","type":"address","indexed":true,"internalType":"address"},{"name":"amount","type":"uint256","indexed":false,"internalType":"uint256"}],"anonymous":false},{"type":"event","name":"DepositManagerSet","inputs":[{"name":"depositManager","type":"address","indexed":true,"internalType":"address"}],"anonymous":false},{"type":"event","name":"OwnershipTransferred","inputs":[{"name":"user","type":"address","indexed":true,"internalType":"address"},{"name":"newOwner","type":"address","indexed":true,"internalType":"address"}],"anonymous":false},{"type":"event","name":"Transfer","inputs":[{"name":"from","type":"address","indexed":true,"internalType":"address"},{"name":"to","type":"address","indexed":true,"internalType":"address"},{"name":"amount","type":"uint256","indexed":false,"internalType":"uint256"}],"anonymous":false},{"type":"error","name":"CannotBurnFromZeroAddress","inputs":[]},{"type":"error","name":"CannotMintToZeroAddress","inputs":[]},{"type":"error","name":"DepositManagerNotSet","inputs":[]},{"type":"error","name":"InsufficientBalance","inputs":[]},{"type":"error","name":"InvalidAmount","inputs":[]},{"type":"error","name":"InvalidDepositManagerAddress","inputs":[]},{"type":"error","name":"OnlyDepositManager","inputs":[]}],"bytecode":{"object":"0x60e0806040523461042f5761126f803803809161001c8285610433565b833981019060408183031261042f5780516001600160401b03811161042f5782610047918301610456565b60208201519092906001600160401b03811161042f576100679201610456565b81516001600160401b038111610362576100815f546104ab565b601f81116103e0575b50602092601f821160011461038157928192935f92610376575b50508160011b915f199060031b1c1916175f555b80516001600160401b038111610362576100d36001546104ab565b601f81116102ff575b50602091601f821160011461029f579181925f92610294575b50508160011b915f199060031b1c1916176001555b60126080524660a0526040515f905f549181610125846104ab565b9182825260208201946001811690815f14610278575060011461022e575b61014f92500382610433565b51902060405160208101917f8b73c3c69bb8fe3d512ecc4cf759cc79239f7b179b0ffacaa9a75d522b39400f835260408201527fc89efdaa54c0f20c7adf612882df0950f5a951637e0307cdcb4c672f298b8bc660608201524660808201523060a082015260a081526101c360c082610433565b51902060c052600680546001600160a01b03191633908117909155604051905f7f8be0079c531659141344cd1fd0a4f28419497f9722a3daafe3b4186f6b6457e08180a3610d6b90816104e48239608051816107df015260a05181610b9e015260c05181610bc40152f35b505f80805290915f8051602061124f8339815191525b81831061025c57505090602061014f92820101610143565b6020919350806001915483858801015201910190918392610244565b60ff191686525061014f92151560051b82016020019050610143565b015190505f806100f5565b601f1982169260015f52805f20915f5b8581106102e7575083600195106102cf575b505050811b0160015561010a565b01515f1960f88460031b161c191690555f80806102c1565b919260206001819286850151815501940192016102af565b60015f527fb10e2d527612073b26eecdfd717e6a320cf44b4afac2b0732d9fcbe2b7fa0cf6601f830160051c81019160208410610358575b601f0160051c01905b81811061034d57506100dc565b5f8155600101610340565b9091508190610337565b634e487b7160e01b5f52604160045260245ffd5b015190505f806100a4565b601f198216935f8052805f20915f5b8681106103c857508360019596106103b0575b505050811b015f556100b8565b01515f1960f88460031b161c191690555f80806103a3565b91926020600181928685015181550194019201610390565b5f80525f8051602061124f833981519152601f830160051c81019160208410610425575b601f0160051c01905b81811061041a575061008a565b5f815560010161040d565b9091508190610404565b5f80fd5b601f909101601f19168101906001600160401b0382119082101761036257604052565b81601f8201121561042f578051906001600160401b038211610362576040519261048a601f8401601f191660200185610433565b8284526020838301011161042f57815f9260208093018386015e8301015290565b90600182811c921680156104d9575b60208310146104c557565b634e487b7160e01b5f52602260045260245ffd5b91607f16916104ba56fe60806040526004361015610011575f80fd5b5f3560e01c806306fdde03146109ed578063095ea7b31461097457806318160ddd14610957578063228d71a9146108d357806323b872dd14610803578063313ce567146107c65780633644e515146107a457806340c10f19146106ce5780636c7ac9d8146106a657806370a082311461066e5780637ecebe00146106365780638da5cb5b1461060e57806395d89b41146105345780639dc29fac14610425578063a9059cbb146103b0578063d505accf146101a6578063dd62ed3e146101565763f2fde38b146100df575f80fd5b34610152576020366003190112610152576100f8610b27565b60065490610110336001600160a01b03841614610b53565b6001600160a01b03166001600160a01b0319919091168117600655337f8be0079c531659141344cd1fd0a4f28419497f9722a3daafe3b4186f6b6457e05f80a3005b5f80fd5b346101525760403660031901126101525761016f610b27565b610177610b3d565b6001600160a01b039182165f908152600460209081526040808320949093168252928352819020549051908152f35b346101525760e0366003190112610152576101bf610b27565b6101c7610b3d565b6044356064359260843560ff81168091036101525742851061036b5760805f916020936101f2610b9b565b9060018060a01b03169687855260058652604085209889549960018b01905560405190878201927f6e71edae12b1b97f4d1f60370fef10105fa2faae0126114a169c64845d6126c984528a604084015260018060a01b03169a8b6060840152898784015260a083015260c082015260c0815261026f60e082610ac7565b519020604051908682019261190160f01b8452602283015260428201526042815261029b606282610ac7565b519020906040519182528482015260a435604082015260c435606082015282805260015afa15610360575f516001600160a01b031680151580610357575b15610321577f8c5be1e5ebec7d5bd14f71427d1e84f3dd0314c0f7b2291e5b200ac8c7c3b925916020915f526004825260405f20855f5282528060405f2055604051908152a3005b60405162461bcd60e51b815260206004820152600e60248201526d24a72b20a624a22fa9a4a3a722a960911b6044820152606490fd5b508281146102d9565b6040513d5f823e3d90fd5b60405162461bcd60e51b815260206004820152601760248201527f5045524d49545f444541444c494e455f455850495245440000000000000000006044820152606490fd5b34610152576040366003190112610152576103c9610b27565b60243590335f52600360205260405f206103e4838254610b8e565b905560018060a01b031690815f52600360205260405f208181540190556040519081525f80516020610d1683398151915260203392a3602060405160018152f35b346101525760403660031901126101525761043e610b27565b60075460243591906001600160a01b03168015610525573303610516576001600160a01b03169081156105075780156104f857815f5260036020528060405f2054106104e95760207fe293a7833de8c731abd57e1bf36bb5bf1aeae567430e183e5d331983dbc969d191835f526003825260405f206104be828254610b8e565b905580600254036002555f845f80516020610d1683398151915284604051858152a3604051908152a2005b631e9acf1760e31b5f5260045ffd5b63162908e360e11b5f5260045ffd5b63a30d2d8760e01b5f5260045ffd5b63c7689a0d60e01b5f5260045ffd5b630320df4160e11b5f5260045ffd5b34610152575f366003190112610152576040515f60015461055481610a8f565b80845290600181169081156105ea575060011461058c575b6105888361057c81850382610ac7565b60405191829182610afd565b0390f35b60015f9081527fb10e2d527612073b26eecdfd717e6a320cf44b4afac2b0732d9fcbe2b7fa0cf6939250905b8082106105d05750909150810160200161057c61056c565b9192600181602092548385880101520191019092916105b8565b60ff191660208086019190915291151560051b8401909101915061057c905061056c565b34610152575f366003190112610152576006546040516001600160a01b039091168152602090f35b34610152576020366003190112610152576001600160a01b03610657610b27565b165f526005602052602060405f2054604051908152f35b34610152576020366003190112610152576001600160a01b0361068f610b27565b165f526003602052602060405f2054604051908152f35b34610152575f366003190112610152576007546040516001600160a01b039091168152602090f35b34610152576040366003190112610152576106e7610b27565b60075460243591906001600160a01b03168015610525573303610516576001600160a01b03169081156107955780156104f857600254818101809111610781577f83e06c5298d5337c419eb6ff4c4b0ba6fbc74d02afb320a1e1a7dc946d9480ef91602091600255835f526003825260405f20818154019055835f5f80516020610d1683398151915284604051858152a3604051908152a2005b634e487b7160e01b5f52601160045260245ffd5b6389a4ea1960e01b5f5260045ffd5b34610152575f3660031901126101525760206107be610b9b565b604051908152f35b34610152575f36600319011261015257602060405160ff7f0000000000000000000000000000000000000000000000000000000000000000168152f35b346101525760603660031901126101525761081c610b27565b610824610b3d565b6001600160a01b039091165f818152600460209081526040808320338452825290912054604435935f80516020610d16833981519152929185600182016108ae575b5050835f526003825260405f2061087e868254610b8e565b90556001600160a01b03165f818152600383526040908190208054870190555194855293a3602060405160018152f35b6108b791610b8e565b5f85815260048452604080822033835285529020558585610866565b34610152576020366003190112610152576108ec610b27565b61090160018060a01b03600654163314610b53565b6001600160a01b0316801561094857600780546001600160a01b031916821790557f8266b6a221c4863a3ed4573775de6f10744de1f941956203f18ccbb454ffef225f80a2005b639f69f1cd60e01b5f5260045ffd5b34610152575f366003190112610152576020600254604051908152f35b346101525760403660031901126101525761098d610b27565b335f8181526004602090815260408083206001600160a01b03909516808452948252918290206024359081905591519182527f8c5be1e5ebec7d5bd14f71427d1e84f3dd0314c0f7b2291e5b200ac8c7c3b92591a3602060405160018152f35b34610152575f366003190112610152576040515f8054610a0c81610a8f565b80845290600181169081156105ea5750600114610a33576105888361057c81850382610ac7565b5f8080527f290decd9548b62a8d60345a988386fc84ba6bc95484008f6362f93160ef3e563939250905b808210610a755750909150810160200161057c61056c565b919260018160209254838588010152019101909291610a5d565b90600182811c92168015610abd575b6020831014610aa957565b634e487b7160e01b5f52602260045260245ffd5b91607f1691610a9e565b90601f8019910116810190811067ffffffffffffffff821117610ae957604052565b634e487b7160e01b5f52604160045260245ffd5b602060409281835280519182918282860152018484015e5f828201840152601f01601f1916010190565b600435906001600160a01b038216820361015257565b602435906001600160a01b038216820361015257565b15610b5a57565b60405162461bcd60e51b815260206004820152600c60248201526b15539055551213d49256915160a21b6044820152606490fd5b9190820391821161078157565b467f000000000000000000000000000000000000000000000000000000000000000003610be6577f000000000000000000000000000000000000000000000000000000000000000090565b6040515f905f549181610bf884610a8f565b9182825260208201946001811690815f14610cf95750600114610c9c575b610c2292500382610ac7565b51902060405160208101917f8b73c3c69bb8fe3d512ecc4cf759cc79239f7b179b0ffacaa9a75d522b39400f835260408201527fc89efdaa54c0f20c7adf612882df0950f5a951637e0307cdcb4c672f298b8bc660608201524660808201523060a082015260a08152610c9660c082610ac7565b51902090565b505f80805290917f290decd9548b62a8d60345a988386fc84ba6bc95484008f6362f93160ef3e5635b818310610cdd575050906020610c2292820101610c16565b6020919350806001915483858801015201910190918392610cc5565b60ff1916865250610c2292151560051b82016020019050610c1656feddf252ad1be2c89b69c2b068fc378daa952ba7f163c4a11628f55a4df523b3efa2646970667358221220623e3d8386d3b265323f64fc5fb47cd5e7af705b177c1fa9bb6f0d99dacb511564736f6c634300081a0033290decd9548b62a8d60345a988386fc84ba6bc95484008f6362f93160ef3e563","linkReferences":{}},"methodIdentifiers":{"DOMAIN_SEPARATOR()":"3644e515","allowance(address,address)":"dd62ed3e","approve(address,uint256)":"095ea7b3","balanceOf(address)":"70a08231","burn(address,uint256)":"9dc29fac","decimals()":"313ce567","depositManager()":"6c7ac9d8","mint(address,uint256)":"40c10f19","name()":"06fdde03","nonces(address)":"7ecebe00","owner()":"8da5cb5b","permit(address,address,uint256,uint256,uint8,bytes32,bytes32)":"d505accf","setDepositManager(address)":"228d71a9","symbol()":"95d89b41","totalSupply()":"18160ddd","transfer(address,uint256)":"a9059cbb","transferFrom(address,address,uint256)":"23b872dd","transferOwnership(address)":"f2fde38b"},"id":51}