{"abi":[{"type":"constructor","inputs":[{"name":"name","type":"string","internalType":"string"},{"name":"symbol","type":"string","internalType":"string"}],"stateMutability":"nonpayable"},{"type":"function","name":"allowance","inputs":[{"name":"owner","type":"address","internalType":"address"},{"name":"spender","type":"address","internalType":"address"}],"outputs":[{"name":"","type":"uint256","internalType":"uint256"}],"stateMutability":"view"},{"type":"function","name":"approve","inputs":[{"name":"spender","type":"address","internalType":"address"},{"name":"value","type":"uint256","internalType":"uint256"}],"outputs":[{"name":"","type":"bool","internalType":"bool"}],"stateMutability":"nonpayable"},{"type":"function","name":"balanceOf","inputs":[{"name":"account","type":"address","internalType":"address"}],"outputs":[{"name":"","type":"uint256","internalType":"uint256"}],"stateMutability":"view"},{"type":"function","name":"burn","inputs":[{"name":"from","type":"address","internalType":"address"},{"name":"amount","type":"uint256","internalType":"uint256"}],"outputs":[],"stateMutability":"nonpayable"},{"type":"function","name":"decimals","inputs":[],"outputs":[{"name":"","type":"uint8","internalType":"uint8"}],"stateMutability":"view"},{"type":"function","name":"mint","inputs":[{"name":"to","type":"address","internalType":"address"},{"name":"amount","type":"uint256","internalType":"uint256"}],"outputs":[],"stateMutability":"nonpayable"},{"type":"function","name":"mintRewards","inputs":[{"name":"recipients","type":"address[]","internalType":"address[]"},{"name":"amounts","type":"uint256[]","internalType":"uint256[]"}],"outputs":[],"stateMutability":"nonpayable"},{"type":"function","name":"name","inputs":[],"outputs":[{"name":"","type":"string","internalType":"string"}],"stateMutability":"view"},{"type":"function","name":"owner","inputs":[],"outputs":[{"name":"","type":"address","internalType":"address"}],"stateMutability":"view"},{"type":"function","name":"renounceOwnership","inputs":[],"outputs":[],"stateMutability":"nonpayable"},{"type":"function","name":"symbol","inputs":[],"outputs":[{"name":"","type":"string","internalType":"string"}],"stateMutability":"view"},{"type":"function","name":"totalSupply","inputs":[],"outputs":[{"name":"","type":"uint256","internalType":"uint256"}],"stateMutability":"view"},{"type":"function","name":"transfer","inputs":[{"name":"to","type":"address","internalType":"address"},{"name":"value","type":"uint256","internalType":"uint256"}],"outputs":[{"name":"","type":"bool","internalType":"bool"}],"stateMutability":"nonpayable"},{"type":"function","name":"transferFrom","inputs":[{"name":"from","type":"address","internalType":"address"},{"name":"to","type":"address","internalType":"address"},{"name":"value","type":"uint256","internalType":"uint256"}],"outputs":[{"name":"","type":"bool","internalType":"bool"}],"stateMutability":"nonpayable"},{"type":"function","name":"transferOwnership","inputs":[{"name":"newOwner","type":"address","internalType":"address"}],"outputs":[],"stateMutability":"nonpayable"},{"type":"event","name":"Approval","inputs":[{"name":"owner","type":"address","indexed":true,"internalType":"address"},{"name":"spender","type":"address","indexed":true,"internalType":"address"},{"name":"value","type":"uint256","indexed":false,"internalType":"uint256"}],"anonymous":false},{"type":"event","name":"OwnershipTransferred","inputs":[{"name":"previousOwner","type":"address","indexed":true,"internalType":"address"},{"name":"newOwner","type":"address","indexed":true,"internalType":"address"}],"anonymous":false},{"type":"event","name":"Transfer","inputs":[{"name":"from","type":"address","indexed":true,"internalType":"address"},{"name":"to","type":"address","indexed":true,"internalType":"address"},{"name":"value","type":"uint256","indexed":false,"internalType":"uint256"}],"anonymous":false},{"type":"error","name":"ERC20InsufficientAllowance","inputs":[{"name":"spender","type":"address","internalType":"address"},{"name":"allowance","type":"uint256","internalType":"uint256"},{"name":"needed","type":"uint256","internalType":"uint256"}]},{"type":"error","name":"ERC20InsufficientBalance","inputs":[{"name":"sender","type":"address","internalType":"address"},{"name":"balance","type":"uint256","internalType":"uint256"},{"name":"needed","type":"uint256","internalType":"uint256"}]},{"type":"error","name":"ERC20InvalidApprover","inputs":[{"name":"approver","type":"address","internalType":"address"}]},{"type":"error","name":"ERC20InvalidReceiver","inputs":[{"name":"receiver","type":"address","internalType":"address"}]},{"type":"error","name":"ERC20InvalidSender","inputs":[{"name":"sender","type":"address","internalType":"address"}]},{"type":"error","name":"ERC20InvalidSpender","inputs":[{"name":"spender","type":"address","internalType":"address"}]},{"type":"error","name":"OwnableInvalidOwner","inputs":[{"name":"owner","type":"address","internalType":"address"}]},{"type":"error","name":"OwnableUnauthorizedAccount","inputs":[{"name":"account","type":"address","internalType":"address"}]}],"bytecode":{"object":"0x608060405234801561001057600080fd5b50604051610e36380380610e3683398101604081905261002f91610198565b338282600361003e838261028a565b50600461004b828261028a565b5050506001600160a01b03811661007c57604051631e4fbdf760e01b81526000600482015260240160405180910390fd5b6100858161008d565b505050610348565b600580546001600160a01b038381166001600160a01b0319831681179093556040519116919082907f8be0079c531659141344cd1fd0a4f28419497f9722a3daafe3b4186f6b6457e090600090a35050565b634e487b7160e01b600052604160045260246000fd5b600082601f83011261010657600080fd5b81516001600160401b0381111561011f5761011f6100df565b604051601f8201601f19908116603f011681016001600160401b038111828210171561014d5761014d6100df565b60405281815283820160200185101561016557600080fd5b60005b8281101561018457602081860181015183830182015201610168565b506000918101602001919091529392505050565b600080604083850312156101ab57600080fd5b82516001600160401b038111156101c157600080fd5b6101cd858286016100f5565b602085015190935090506001600160401b038111156101eb57600080fd5b6101f7858286016100f5565b9150509250929050565b600181811c9082168061021557607f821691505b60208210810361023557634e487b7160e01b600052602260045260246000fd5b50919050565b601f82111561028557806000526020600020601f840160051c810160208510156102625750805b601f840160051c820191505b81811015610282576000815560010161026e565b50505b505050565b81516001600160401b038111156102a3576102a36100df565b6102b7816102b18454610201565b8461023b565b6020601f8211600181146102eb57600083156102d35750848201515b600019600385901b1c1916600184901b178455610282565b600084815260208120601f198516915b8281101561031b57878501518255602094850194600190920191016102fb565b50848210156103395786840151600019600387901b60f8161c191681555b50505050600190811b01905550565b610adf806103576000396000f3fe608060405234801561001057600080fd5b50600436106100f55760003560e01c806370a08231116100975780639dc29fac116100665780639dc29fac146101eb578063a9059cbb146101fe578063dd62ed3e14610211578063f2fde38b1461024a57600080fd5b806370a0823114610197578063715018a6146101c05780638da5cb5b146101c857806395d89b41146101e357600080fd5b806318160ddd116100d357806318160ddd1461015057806323b872dd14610162578063313ce5671461017557806340c10f191461018457600080fd5b806306fdde03146100fa578063095ea7b31461011857806312ff23551461013b575b600080fd5b61010261025d565b60405161010f9190610855565b60405180910390f35b61012b6101263660046108bf565b6102ef565b604051901515815260200161010f565b61014e610149366004610935565b610309565b005b6002545b60405190815260200161010f565b61012b6101703660046109a6565b6103c0565b6040516012815260200161010f565b61014e6101923660046108bf565b6103e4565b6101546101a53660046109e3565b6001600160a01b031660009081526020819052604090205490565b61014e6103fa565b6005546040516001600160a01b03909116815260200161010f565b61010261040e565b61014e6101f93660046108bf565b61041d565b61012b61020c3660046108bf565b61042f565b61015461021f366004610a05565b6001600160a01b03918216600090815260016020908152604080832093909416825291909152205490565b61014e6102583660046109e3565b61043d565b60606003805461026c90610a38565b80601f016020809104026020016040519081016040528092919081815260200182805461029890610a38565b80156102e55780601f106102ba576101008083540402835291602001916102e5565b820191906000526020600020905b8154815290600101906020018083116102c857829003601f168201915b5050505050905090565b6000336102fd81858561047b565b60019150505b92915050565b61031161048d565b82811461035e5760405162461bcd60e51b8152602060048201526016602482015275082e4e4c2f2e640d8cadccee8d040dad2e6dac2e8c6d60531b60448201526064015b60405180910390fd5b60005b838110156103b9576103b185858381811061037e5761037e610a72565b905060200201602081019061039391906109e3565b8484848181106103a5576103a5610a72565b905060200201356104ba565b600101610361565b5050505050565b6000336103ce8582856104f0565b6103d985858561056f565b506001949350505050565b6103ec61048d565b6103f682826104ba565b5050565b61040261048d565b61040c60006105ce565b565b60606004805461026c90610a38565b61042561048d565b6103f68282610620565b6000336102fd81858561056f565b61044561048d565b6001600160a01b03811661046f57604051631e4fbdf760e01b815260006004820152602401610355565b610478816105ce565b50565b6104888383836001610656565b505050565b6005546001600160a01b0316331461040c5760405163118cdaa760e01b8152336004820152602401610355565b6001600160a01b0382166104e45760405163ec442f0560e01b815260006004820152602401610355565b6103f66000838361072b565b6001600160a01b03838116600090815260016020908152604080832093861683529290522054600019811015610569578181101561055a57604051637dc7a0d960e11b81526001600160a01b03841660048201526024810182905260448101839052606401610355565b61056984848484036000610656565b50505050565b6001600160a01b03831661059957604051634b637e8f60e11b815260006004820152602401610355565b6001600160a01b0382166105c35760405163ec442f0560e01b815260006004820152602401610355565b61048883838361072b565b600580546001600160a01b038381166001600160a01b0319831681179093556040519116919082907f8be0079c531659141344cd1fd0a4f28419497f9722a3daafe3b4186f6b6457e090600090a35050565b6001600160a01b03821661064a57604051634b637e8f60e11b815260006004820152602401610355565b6103f68260008361072b565b6001600160a01b0384166106805760405163e602df0560e01b815260006004820152602401610355565b6001600160a01b0383166106aa57604051634a1406b160e11b815260006004820152602401610355565b6001600160a01b038085166000908152600160209081526040808320938716835292905220829055801561056957826001600160a01b0316846001600160a01b03167f8c5be1e5ebec7d5bd14f71427d1e84f3dd0314c0f7b2291e5b200ac8c7c3b9258460405161071d91815260200190565b60405180910390a350505050565b6001600160a01b03831661075657806002600082825461074b9190610a88565b909155506107c89050565b6001600160a01b038316600090815260208190526040902054818110156107a95760405163391434e360e21b81526001600160a01b03851660048201526024810182905260448101839052606401610355565b6001600160a01b03841660009081526020819052604090209082900390555b6001600160a01b0382166107e457600280548290039055610803565b6001600160a01b03821660009081526020819052604090208054820190555b816001600160a01b0316836001600160a01b03167fddf252ad1be2c89b69c2b068fc378daa952ba7f163c4a11628f55a4df523b3ef8360405161084891815260200190565b60405180910390a3505050565b602081526000825180602084015260005b818110156108835760208186018101516040868401015201610866565b506000604082850101526040601f19601f83011684010191505092915050565b80356001600160a01b03811681146108ba57600080fd5b919050565b600080604083850312156108d257600080fd5b6108db836108a3565b946020939093013593505050565b60008083601f8401126108fb57600080fd5b50813567ffffffffffffffff81111561091357600080fd5b6020830191508360208260051b850101111561092e57600080fd5b9250929050565b6000806000806040858703121561094b57600080fd5b843567ffffffffffffffff81111561096257600080fd5b61096e878288016108e9565b909550935050602085013567ffffffffffffffff81111561098e57600080fd5b61099a878288016108e9565b95989497509550505050565b6000806000606084860312156109bb57600080fd5b6109c4846108a3565b92506109d2602085016108a3565b929592945050506040919091013590565b6000602082840312156109f557600080fd5b6109fe826108a3565b9392505050565b60008060408385031215610a1857600080fd5b610a21836108a3565b9150610a2f602084016108a3565b90509250929050565b600181811c90821680610a4c57607f821691505b602082108103610a6c57634e487b7160e01b600052602260045260246000fd5b50919050565b634e487b7160e01b600052603260045260246000fd5b8082018082111561030357634e487b7160e01b600052601160045260246000fdfea264697066735822122077732f2c6a75b43191c3a752d32018b16a61255c9d63f96b35d3ff5794b6bcb264736f6c634300081a0033","linkReferences":{}},"methodIdentifiers":{"allowance(address,address)":"dd62ed3e","approve(address,uint256)":"095ea7b3","balanceOf(address)":"70a08231","burn(address,uint256)":"9dc29fac","decimals()":"313ce567","mint(address,uint256)":"40c10f19","mintRewards(address[],uint256[])":"12ff2355","name()":"06fdde03","owner()":"8da5cb5b","renounceOwnership()":"715018a6","symbol()":"95d89b41","totalSupply()":"18160ddd","transfer(address,uint256)":"a9059cbb","transferFrom(address,address,uint256)":"23b872dd","transferOwnership(address)":"f2fde38b"},"id":32}