{"abi":[{"type":"constructor","inputs":[{"name":"name","type":"string","internalType":"string"},{"name":"symbol","type":"string","internalType":"string"}],"stateMutability":"nonpayable"},{"type":"function","name":"allowance","inputs":[{"name":"owner","type":"address","internalType":"address"},{"name":"spender","type":"address","internalType":"address"}],"outputs":[{"name":"","type":"uint256","internalType":"uint256"}],"stateMutability":"view"},{"type":"function","name":"approve","inputs":[{"name":"spender","type":"address","internalType":"address"},{"name":"value","type":"uint256","internalType":"uint256"}],"outputs":[{"name":"","type":"bool","internalType":"bool"}],"stateMutability":"nonpayable"},{"type":"function","name":"balanceOf","inputs":[{"name":"account","type":"address","internalType":"address"}],"outputs":[{"name":"","type":"uint256","internalType":"uint256"}],"stateMutability":"view"},{"type":"function","name":"burn","inputs":[{"name":"from","type":"address","internalType":"address"},{"name":"amount","type":"uint256","internalType":"uint256"}],"outputs":[],"stateMutability":"nonpayable"},{"type":"function","name":"decimals","inputs":[],"outputs":[{"name":"","type":"uint8","internalType":"uint8"}],"stateMutability":"view"},{"type":"function","name":"depositManager","inputs":[],"outputs":[{"name":"","type":"address","internalType":"address"}],"stateMutability":"view"},{"type":"function","name":"mint","inputs":[{"name":"to","type":"address","internalType":"address"},{"name":"amount","type":"uint256","internalType":"uint256"}],"outputs":[],"stateMutability":"nonpayable"},{"type":"function","name":"name","inputs":[],"outputs":[{"name":"","type":"string","internalType":"string"}],"stateMutability":"view"},{"type":"function","name":"owner","inputs":[],"outputs":[{"name":"","type":"address","internalType":"address"}],"stateMutability":"view"},{"type":"function","name":"renounceOwnership","inputs":[],"outputs":[],"stateMutability":"nonpayable"},{"type":"function","name":"setDepositManager","inputs":[{"name":"_depositManager","type":"address","internalType":"address"}],"outputs":[],"stateMutability":"nonpayable"},{"type":"function","name":"symbol","inputs":[],"outputs":[{"name":"","type":"string","internalType":"string"}],"stateMutability":"view"},{"type":"function","name":"totalSupply","inputs":[],"outputs":[{"name":"","type":"uint256","internalType":"uint256"}],"stateMutability":"view"},{"type":"function","name":"transfer","inputs":[{"name":"to","type":"address","internalType":"address"},{"name":"value","type":"uint256","internalType":"uint256"}],"outputs":[{"name":"","type":"bool","internalType":"bool"}],"stateMutability":"nonpayable"},{"type":"function","name":"transferFrom","inputs":[{"name":"from","type":"address","internalType":"address"},{"name":"to","type":"address","internalType":"address"},{"name":"value","type":"uint256","internalType":"uint256"}],"outputs":[{"name":"","type":"bool","internalType":"bool"}],"stateMutability":"nonpayable"},{"type":"function","name":"transferOwnership","inputs":[{"name":"newOwner","type":"address","internalType":"address"}],"outputs":[],"stateMutability":"nonpayable"},{"type":"event","name":"Approval","inputs":[{"name":"owner","type":"address","indexed":true,"internalType":"address"},{"name":"spender","type":"address","indexed":true,"internalType":"address"},{"name":"value","type":"uint256","indexed":false,"internalType":"uint256"}],"anonymous":false},{"type":"event","name":"DepositManagerBurn","inputs":[{"name":"from","type":"address","indexed":true,"internalType":"address"},{"name":"amount","type":"uint256","indexed":false,"internalType":"uint256"}],"anonymous":false},{"type":"event","name":"DepositManagerMint","inputs":[{"name":"to","type":"address","indexed":true,"internalType":"address"},{"name":"amount","type":"uint256","indexed":false,"internalType":"uint256"}],"anonymous":false},{"type":"event","name":"DepositManagerSet","inputs":[{"name":"depositManager","type":"address","indexed":true,"internalType":"address"}],"anonymous":false},{"type":"event","name":"OwnershipTransferred","inputs":[{"name":"previousOwner","type":"address","indexed":true,"internalType":"address"},{"name":"newOwner","type":"address","indexed":true,"internalType":"address"}],"anonymous":false},{"type":"event","name":"Transfer","inputs":[{"name":"from","type":"address","indexed":true,"internalType":"address"},{"name":"to","type":"address","indexed":true,"internalType":"address"},{"name":"value","type":"uint256","indexed":false,"internalType":"uint256"}],"anonymous":false},{"type":"error","name":"ERC20InsufficientAllowance","inputs":[{"name":"spender","type":"address","internalType":"address"},{"name":"allowance","type":"uint256","internalType":"uint256"},{"name":"needed","type":"uint256","internalType":"uint256"}]},{"type":"error","name":"ERC20InsufficientBalance","inputs":[{"name":"sender","type":"address","internalType":"address"},{"name":"balance","type":"uint256","internalType":"uint256"},{"name":"needed","type":"uint256","internalType":"uint256"}]},{"type":"error","name":"ERC20InvalidApprover","inputs":[{"name":"approver","type":"address","internalType":"address"}]},{"type":"error","name":"ERC20InvalidReceiver","inputs":[{"name":"receiver","type":"address","internalType":"address"}]},{"type":"error","name":"ERC20InvalidSender","inputs":[{"name":"sender","type":"address","internalType":"address"}]},{"type":"error","name":"ERC20InvalidSpender","inputs":[{"name":"spender","type":"address","internalType":"address"}]},{"type":"error","name":"OwnableInvalidOwner","inputs":[{"name":"owner","type":"address","internalType":"address"}]},{"type":"error","name":"OwnableUnauthorizedAccount","inputs":[{"name":"account","type":"address","internalType":"address"}]}],"bytecode":{"object":"0x60806040523480156200001157600080fd5b506040516200111f3803806200111f8339810160408190526200003491620001b1565b3382826003620000458382620002aa565b506004620000548282620002aa565b5050506001600160a01b0381166200008657604051631e4fbdf760e01b81526000600482015260240160405180910390fd5b62000091816200009a565b50505062000376565b600580546001600160a01b038381166001600160a01b0319831681179093556040519116919082907f8be0079c531659141344cd1fd0a4f28419497f9722a3daafe3b4186f6b6457e090600090a35050565b634e487b7160e01b600052604160045260246000fd5b600082601f8301126200011457600080fd5b81516001600160401b0380821115620001315762000131620000ec565b604051601f8301601f19908116603f011681019082821181831017156200015c576200015c620000ec565b816040528381526020925086838588010111156200017957600080fd5b600091505b838210156200019d57858201830151818301840152908201906200017e565b600093810190920192909252949350505050565b60008060408385031215620001c557600080fd5b82516001600160401b0380821115620001dd57600080fd5b620001eb8683870162000102565b935060208501519150808211156200020257600080fd5b50620002118582860162000102565b9150509250929050565b600181811c908216806200023057607f821691505b6020821081036200025157634e487b7160e01b600052602260045260246000fd5b50919050565b601f821115620002a557600081815260208120601f850160051c81016020861015620002805750805b601f850160051c820191505b81811015620002a1578281556001016200028c565b5050505b505050565b81516001600160401b03811115620002c657620002c6620000ec565b620002de81620002d784546200021b565b8462000257565b602080601f831160018114620003165760008415620002fd5750858301515b600019600386901b1c1916600185901b178555620002a1565b600085815260208120601f198616915b82811015620003475788860151825594840194600190910190840162000326565b5085821015620003665787850151600019600388901b60f8161c191681555b5050505050600190811b01905550565b610d9980620003866000396000f3fe608060405234801561001057600080fd5b50600436106101005760003560e01c806370a08231116100975780639dc29fac116100665780639dc29fac14610217578063a9059cbb1461022a578063dd62ed3e1461023d578063f2fde38b1461027657600080fd5b806370a08231146101cd578063715018a6146101f65780638da5cb5b146101fe57806395d89b411461020f57600080fd5b806323b872dd116100d357806323b872dd1461016d578063313ce5671461018057806340c10f191461018f5780636c7ac9d8146101a257600080fd5b806306fdde0314610105578063095ea7b31461012357806318160ddd14610146578063228d71a914610158575b600080fd5b61010d610289565b60405161011a9190610b99565b60405180910390f35b610136610131366004610c03565b61031b565b604051901515815260200161011a565b6002545b60405190815260200161011a565b61016b610166366004610c2d565b610335565b005b61013661017b366004610c4f565b6103e2565b6040516012815260200161011a565b61016b61019d366004610c03565b610406565b6006546101b5906001600160a01b031681565b6040516001600160a01b03909116815260200161011a565b61014a6101db366004610c2d565b6001600160a01b031660009081526020819052604090205490565b61016b610578565b6005546001600160a01b03166101b5565b61010d61058c565b61016b610225366004610c03565b61059b565b610136610238366004610c03565b61076f565b61014a61024b366004610c8b565b6001600160a01b03918216600090815260016020908152604080832093909416825291909152205490565b61016b610284366004610c2d565b61077d565b60606003805461029890610cbe565b80601f01602080910402602001604051908101604052809291908181526020018280546102c490610cbe565b80156103115780601f106102e657610100808354040283529160200191610311565b820191906000526020600020905b8154815290600101906020018083116102f457829003601f168201915b5050505050905090565b6000336103298185856107bb565b60019150505b92915050565b61033d6107cd565b6001600160a01b0381166103985760405162461bcd60e51b815260206004820152601e60248201527f496e76616c6964206465706f7369744d616e616765722061646472657373000060448201526064015b60405180910390fd5b600680546001600160a01b0319166001600160a01b0383169081179091556040517f8266b6a221c4863a3ed4573775de6f10744de1f941956203f18ccbb454ffef2290600090a250565b6000336103f08582856107fa565b6103fb858585610879565b506001949350505050565b6006546001600160a01b03166104575760405162461bcd60e51b815260206004820152601660248201527511195c1bdcda5d13585b9859d95c881b9bdd081cd95d60521b604482015260640161038f565b6006546001600160a01b031633146104815760405162461bcd60e51b815260040161038f90610cf8565b6001600160a01b0382166104d75760405162461bcd60e51b815260206004820152601b60248201527f43616e6e6f74206d696e7420746f207a65726f20616464726573730000000000604482015260640161038f565b600081116105275760405162461bcd60e51b815260206004820152601d60248201527f416d6f756e74206d7573742062652067726561746572207468616e2030000000604482015260640161038f565b61053182826108d8565b816001600160a01b03167f83e06c5298d5337c419eb6ff4c4b0ba6fbc74d02afb320a1e1a7dc946d9480ef8260405161056c91815260200190565b60405180910390a25050565b6105806107cd565b61058a6000610912565b565b60606004805461029890610cbe565b6006546001600160a01b03166105ec5760405162461bcd60e51b815260206004820152601660248201527511195c1bdcda5d13585b9859d95c881b9bdd081cd95d60521b604482015260640161038f565b6006546001600160a01b031633146106165760405162461bcd60e51b815260040161038f90610cf8565b6001600160a01b03821661066c5760405162461bcd60e51b815260206004820152601d60248201527f43616e6e6f74206275726e2066726f6d207a65726f2061646472657373000000604482015260640161038f565b600081116106bc5760405162461bcd60e51b815260206004820152601d60248201527f416d6f756e74206d7573742062652067726561746572207468616e2030000000604482015260640161038f565b806106dc836001600160a01b031660009081526020819052604090205490565b101561072a5760405162461bcd60e51b815260206004820152601c60248201527f496e73756666696369656e742062616c616e636520746f206275726e00000000604482015260640161038f565b6107348282610964565b816001600160a01b03167fe293a7833de8c731abd57e1bf36bb5bf1aeae567430e183e5d331983dbc969d18260405161056c91815260200190565b600033610329818585610879565b6107856107cd565b6001600160a01b0381166107af57604051631e4fbdf760e01b81526000600482015260240161038f565b6107b881610912565b50565b6107c8838383600161099a565b505050565b6005546001600160a01b0316331461058a5760405163118cdaa760e01b815233600482015260240161038f565b6001600160a01b03838116600090815260016020908152604080832093861683529290522054600019811015610873578181101561086457604051637dc7a0d960e11b81526001600160a01b0384166004820152602481018290526044810183905260640161038f565b6108738484848403600061099a565b50505050565b6001600160a01b0383166108a357604051634b637e8f60e11b81526000600482015260240161038f565b6001600160a01b0382166108cd5760405163ec442f0560e01b81526000600482015260240161038f565b6107c8838383610a6f565b6001600160a01b0382166109025760405163ec442f0560e01b81526000600482015260240161038f565b61090e60008383610a6f565b5050565b600580546001600160a01b038381166001600160a01b0319831681179093556040519116919082907f8be0079c531659141344cd1fd0a4f28419497f9722a3daafe3b4186f6b6457e090600090a35050565b6001600160a01b03821661098e57604051634b637e8f60e11b81526000600482015260240161038f565b61090e82600083610a6f565b6001600160a01b0384166109c45760405163e602df0560e01b81526000600482015260240161038f565b6001600160a01b0383166109ee57604051634a1406b160e11b81526000600482015260240161038f565b6001600160a01b038085166000908152600160209081526040808320938716835292905220829055801561087357826001600160a01b0316846001600160a01b03167f8c5be1e5ebec7d5bd14f71427d1e84f3dd0314c0f7b2291e5b200ac8c7c3b92584604051610a6191815260200190565b60405180910390a350505050565b6001600160a01b038316610a9a578060026000828254610a8f9190610d42565b90915550610b0c9050565b6001600160a01b03831660009081526020819052604090205481811015610aed5760405163391434e360e21b81526001600160a01b0385166004820152602481018290526044810183905260640161038f565b6001600160a01b03841660009081526020819052604090209082900390555b6001600160a01b038216610b2857600280548290039055610b47565b6001600160a01b03821660009081526020819052604090208054820190555b816001600160a01b0316836001600160a01b03167fddf252ad1be2c89b69c2b068fc378daa952ba7f163c4a11628f55a4df523b3ef83604051610b8c91815260200190565b60405180910390a3505050565b600060208083528351808285015260005b81811015610bc657858101830151858201604001528201610baa565b506000604082860101526040601f19601f8301168501019250505092915050565b80356001600160a01b0381168114610bfe57600080fd5b919050565b60008060408385031215610c1657600080fd5b610c1f83610be7565b946020939093013593505050565b600060208284031215610c3f57600080fd5b610c4882610be7565b9392505050565b600080600060608486031215610c6457600080fd5b610c6d84610be7565b9250610c7b60208501610be7565b9150604084013590509250925092565b60008060408385031215610c9e57600080fd5b610ca783610be7565b9150610cb560208401610be7565b90509250929050565b600181811c90821680610cd257607f821691505b602082108103610cf257634e487b7160e01b600052602260045260246000fd5b50919050565b6020808252602a908201527f4f6e6c79206465706f7369744d616e616765722063616e2063616c6c207468696040820152693990333ab731ba34b7b760b11b606082015260800190565b8082018082111561032f57634e487b7160e01b600052601160045260246000fdfea2646970667358221220b3c4b9eb7d4483348dba0dec13f6a08f0f7ea6c6c55bb33bc76e4384f4c3d59064736f6c63430008140033","linkReferences":{}},"methodIdentifiers":{"allowance(address,address)":"dd62ed3e","approve(address,uint256)":"095ea7b3","balanceOf(address)":"70a08231","burn(address,uint256)":"9dc29fac","decimals()":"313ce567","depositManager()":"6c7ac9d8","mint(address,uint256)":"40c10f19","name()":"06fdde03","owner()":"8da5cb5b","renounceOwnership()":"715018a6","setDepositManager(address)":"228d71a9","symbol()":"95d89b41","totalSupply()":"18160ddd","transfer(address,uint256)":"a9059cbb","transferFrom(address,address,uint256)":"23b872dd","transferOwnership(address)":"f2fde38b"},"id":48}