{"abi":[{"type":"constructor","inputs":[],"stateMutability":"nonpayable"},{"type":"function","name":"allowance","inputs":[{"name":"owner","type":"address","internalType":"address"},{"name":"spender","type":"address","internalType":"address"}],"outputs":[{"name":"","type":"uint256","internalType":"uint256"}],"stateMutability":"view"},{"type":"function","name":"approve","inputs":[{"name":"spender","type":"address","internalType":"address"},{"name":"value","type":"uint256","internalType":"uint256"}],"outputs":[{"name":"","type":"bool","internalType":"bool"}],"stateMutability":"nonpayable"},{"type":"function","name":"balanceOf","inputs":[{"name":"account","type":"address","internalType":"address"}],"outputs":[{"name":"","type":"uint256","internalType":"uint256"}],"stateMutability":"view"},{"type":"function","name":"burn","inputs":[{"name":"from","type":"address","internalType":"address"},{"name":"amount","type":"uint256","internalType":"uint256"}],"outputs":[],"stateMutability":"nonpayable"},{"type":"function","name":"decimals","inputs":[],"outputs":[{"name":"","type":"uint8","internalType":"uint8"}],"stateMutability":"pure"},{"type":"function","name":"mint","inputs":[{"name":"to","type":"address","internalType":"address"},{"name":"amount","type":"uint256","internalType":"uint256"}],"outputs":[],"stateMutability":"nonpayable"},{"type":"function","name":"name","inputs":[],"outputs":[{"name":"","type":"string","internalType":"string"}],"stateMutability":"view"},{"type":"function","name":"owner","inputs":[],"outputs":[{"name":"","type":"address","internalType":"address"}],"stateMutability":"view"},{"type":"function","name":"renounceOwnership","inputs":[],"outputs":[],"stateMutability":"nonpayable"},{"type":"function","name":"setTreasury","inputs":[{"name":"_treasury","type":"address","internalType":"address"}],"outputs":[],"stateMutability":"nonpayable"},{"type":"function","name":"symbol","inputs":[],"outputs":[{"name":"","type":"string","internalType":"string"}],"stateMutability":"view"},{"type":"function","name":"totalSupply","inputs":[],"outputs":[{"name":"","type":"uint256","internalType":"uint256"}],"stateMutability":"view"},{"type":"function","name":"transfer","inputs":[{"name":"to","type":"address","internalType":"address"},{"name":"value","type":"uint256","internalType":"uint256"}],"outputs":[{"name":"","type":"bool","internalType":"bool"}],"stateMutability":"nonpayable"},{"type":"function","name":"transferFrom","inputs":[{"name":"from","type":"address","internalType":"address"},{"name":"to","type":"address","internalType":"address"},{"name":"value","type":"uint256","internalType":"uint256"}],"outputs":[{"name":"","type":"bool","internalType":"bool"}],"stateMutability":"nonpayable"},{"type":"function","name":"transferOwnership","inputs":[{"name":"newOwner","type":"address","internalType":"address"}],"outputs":[],"stateMutability":"nonpayable"},{"type":"function","name":"treasury","inputs":[],"outputs":[{"name":"","type":"address","internalType":"address"}],"stateMutability":"view"},{"type":"event","name":"Approval","inputs":[{"name":"owner","type":"address","indexed":true,"internalType":"address"},{"name":"spender","type":"address","indexed":true,"internalType":"address"},{"name":"value","type":"uint256","indexed":false,"internalType":"uint256"}],"anonymous":false},{"type":"event","name":"OwnershipTransferred","inputs":[{"name":"previousOwner","type":"address","indexed":true,"internalType":"address"},{"name":"newOwner","type":"address","indexed":true,"internalType":"address"}],"anonymous":false},{"type":"event","name":"Transfer","inputs":[{"name":"from","type":"address","indexed":true,"internalType":"address"},{"name":"to","type":"address","indexed":true,"internalType":"address"},{"name":"value","type":"uint256","indexed":false,"internalType":"uint256"}],"anonymous":false},{"type":"event","name":"TreasurySet","inputs":[{"name":"treasury","type":"address","indexed":true,"internalType":"address"}],"anonymous":false},{"type":"error","name":"ERC20InsufficientAllowance","inputs":[{"name":"spender","type":"address","internalType":"address"},{"name":"allowance","type":"uint256","internalType":"uint256"},{"name":"needed","type":"uint256","internalType":"uint256"}]},{"type":"error","name":"ERC20InsufficientBalance","inputs":[{"name":"sender","type":"address","internalType":"address"},{"name":"balance","type":"uint256","internalType":"uint256"},{"name":"needed","type":"uint256","internalType":"uint256"}]},{"type":"error","name":"ERC20InvalidApprover","inputs":[{"name":"approver","type":"address","internalType":"address"}]},{"type":"error","name":"ERC20InvalidReceiver","inputs":[{"name":"receiver","type":"address","internalType":"address"}]},{"type":"error","name":"ERC20InvalidSender","inputs":[{"name":"sender","type":"address","internalType":"address"}]},{"type":"error","name":"ERC20InvalidSpender","inputs":[{"name":"spender","type":"address","internalType":"address"}]},{"type":"error","name":"OwnableInvalidOwner","inputs":[{"name":"owner","type":"address","internalType":"address"}]},{"type":"error","name":"OwnableUnauthorizedAccount","inputs":[{"name":"account","type":"address","internalType":"address"}]}],"bytecode":{"object":"0x608060405234801561001057600080fd5b50336040518060400160405280601281526020017121baba10283630ba3337b936902a37b5b2b760711b8152506040518060400160405280600381526020016210d55560ea1b815250816003908161006891906101a6565b50600461007582826101a6565b5050506001600160a01b0381166100a657604051631e4fbdf760e01b81526000600482015260240160405180910390fd5b6100af816100b5565b50610264565b600580546001600160a01b038381166001600160a01b0319831681179093556040519116919082907f8be0079c531659141344cd1fd0a4f28419497f9722a3daafe3b4186f6b6457e090600090a35050565b634e487b7160e01b600052604160045260246000fd5b600181811c9082168061013157607f821691505b60208210810361015157634e487b7160e01b600052602260045260246000fd5b50919050565b601f8211156101a157806000526020600020601f840160051c8101602085101561017e5750805b601f840160051c820191505b8181101561019e576000815560010161018a565b50505b505050565b81516001600160401b038111156101bf576101bf610107565b6101d3816101cd845461011d565b84610157565b6020601f82116001811461020757600083156101ef5750848201515b600019600385901b1c1916600184901b17845561019e565b600084815260208120601f198516915b828110156102375787850151825560209485019460019092019101610217565b50848210156102555786840151600019600387901b60f8161c191681555b50505050600190811b01905550565b610aba806102736000396000f3fe608060405234801561001057600080fd5b50600436106101005760003560e01c8063715018a611610097578063a9059cbb11610066578063a9059cbb14610217578063dd62ed3e1461022a578063f0f4426014610263578063f2fde38b1461027657600080fd5b8063715018a6146101e35780638da5cb5b146101eb57806395d89b41146101fc5780639dc29fac1461020457600080fd5b8063313ce567116100d3578063313ce5671461016b57806340c10f191461017a57806361d027b31461018f57806370a08231146101ba57600080fd5b806306fdde0314610105578063095ea7b31461012357806318160ddd1461014657806323b872dd14610158575b600080fd5b61010d610289565b60405161011a91906108bf565b60405180910390f35b610136610131366004610929565b61031b565b604051901515815260200161011a565b6002545b60405190815260200161011a565b610136610166366004610953565b610335565b6040516012815260200161011a565b61018d610188366004610929565b610359565b005b6006546101a2906001600160a01b031681565b6040516001600160a01b03909116815260200161011a565b61014a6101c8366004610990565b6001600160a01b031660009081526020819052604090205490565b61018d61039a565b6005546001600160a01b03166101a2565b61010d6103ae565b61018d610212366004610929565b6103bd565b610136610225366004610929565b6103f1565b61014a6102383660046109b2565b6001600160a01b03918216600090815260016020908152604080832093909416825291909152205490565b61018d610271366004610990565b6103ff565b61018d610284366004610990565b6104a7565b606060038054610298906109e5565b80601f01602080910402602001604051908101604052809291908181526020018280546102c4906109e5565b80156103115780601f106102e657610100808354040283529160200191610311565b820191906000526020600020905b8154815290600101906020018083116102f457829003601f168201915b5050505050905090565b6000336103298185856104e5565b60019150505b92915050565b6000336103438582856104f7565b61034e858585610576565b506001949350505050565b6006546001600160a01b0316331461038c5760405162461bcd60e51b815260040161038390610a1f565b60405180910390fd5b61039682826105d5565b5050565b6103a261060b565b6103ac6000610638565b565b606060048054610298906109e5565b6006546001600160a01b031633146103e75760405162461bcd60e51b815260040161038390610a1f565b610396828261068a565b600033610329818585610576565b61040761060b565b6001600160a01b03811661045d5760405162461bcd60e51b815260206004820152601860248201527f496e76616c6964207472656173757279206164647265737300000000000000006044820152606401610383565b600680546001600160a01b0319166001600160a01b0383169081179091556040517f3c864541ef71378c6229510ed90f376565ee42d9c5e0904a984a9e863e6db44f90600090a250565b6104af61060b565b6001600160a01b0381166104d957604051631e4fbdf760e01b815260006004820152602401610383565b6104e281610638565b50565b6104f283838360016106c0565b505050565b6001600160a01b03838116600090815260016020908152604080832093861683529290522054600019811015610570578181101561056157604051637dc7a0d960e11b81526001600160a01b03841660048201526024810182905260448101839052606401610383565b610570848484840360006106c0565b50505050565b6001600160a01b0383166105a057604051634b637e8f60e11b815260006004820152602401610383565b6001600160a01b0382166105ca5760405163ec442f0560e01b815260006004820152602401610383565b6104f2838383610795565b6001600160a01b0382166105ff5760405163ec442f0560e01b815260006004820152602401610383565b61039660008383610795565b6005546001600160a01b031633146103ac5760405163118cdaa760e01b8152336004820152602401610383565b600580546001600160a01b038381166001600160a01b0319831681179093556040519116919082907f8be0079c531659141344cd1fd0a4f28419497f9722a3daafe3b4186f6b6457e090600090a35050565b6001600160a01b0382166106b457604051634b637e8f60e11b815260006004820152602401610383565b61039682600083610795565b6001600160a01b0384166106ea5760405163e602df0560e01b815260006004820152602401610383565b6001600160a01b03831661071457604051634a1406b160e11b815260006004820152602401610383565b6001600160a01b038085166000908152600160209081526040808320938716835292905220829055801561057057826001600160a01b0316846001600160a01b03167f8c5be1e5ebec7d5bd14f71427d1e84f3dd0314c0f7b2291e5b200ac8c7c3b9258460405161078791815260200190565b60405180910390a350505050565b6001600160a01b0383166107c05780600260008282546107b59190610a63565b909155506108329050565b6001600160a01b038316600090815260208190526040902054818110156108135760405163391434e360e21b81526001600160a01b03851660048201526024810182905260448101839052606401610383565b6001600160a01b03841660009081526020819052604090209082900390555b6001600160a01b03821661084e5760028054829003905561086d565b6001600160a01b03821660009081526020819052604090208054820190555b816001600160a01b0316836001600160a01b03167fddf252ad1be2c89b69c2b068fc378daa952ba7f163c4a11628f55a4df523b3ef836040516108b291815260200190565b60405180910390a3505050565b602081526000825180602084015260005b818110156108ed57602081860181015160408684010152016108d0565b506000604082850101526040601f19601f83011684010191505092915050565b80356001600160a01b038116811461092457600080fd5b919050565b6000806040838503121561093c57600080fd5b6109458361090d565b946020939093013593505050565b60008060006060848603121561096857600080fd5b6109718461090d565b925061097f6020850161090d565b929592945050506040919091013590565b6000602082840312156109a257600080fd5b6109ab8261090d565b9392505050565b600080604083850312156109c557600080fd5b6109ce8361090d565b91506109dc6020840161090d565b90509250929050565b600181811c908216806109f957607f821691505b602082108103610a1957634e487b7160e01b600052602260045260246000fd5b50919050565b60208082526024908201527f4f6e6c792074726561737572792063616e2063616c6c20746869732066756e636040820152633a34b7b760e11b606082015260800190565b8082018082111561032f57634e487b7160e01b600052601160045260246000fdfea26469706673582212209228e93c6674913d914230b9e4e9fb3a9a1cce0b93ce90cba6a4229cb691b49464736f6c634300081a0033","linkReferences":{}},"methodIdentifiers":{"allowance(address,address)":"dd62ed3e","approve(address,uint256)":"095ea7b3","balanceOf(address)":"70a08231","burn(address,uint256)":"9dc29fac","decimals()":"313ce567","mint(address,uint256)":"40c10f19","name()":"06fdde03","owner()":"8da5cb5b","renounceOwnership()":"715018a6","setTreasury(address)":"f0f44260","symbol()":"95d89b41","totalSupply()":"18160ddd","transfer(address,uint256)":"a9059cbb","transferFrom(address,address,uint256)":"23b872dd","transferOwnership(address)":"f2fde38b","treasury()":"61d027b3"},"id":32}