{"abi":[{"type":"constructor","inputs":[{"name":"_depositAmount","type":"uint256","internalType":"uint256"},{"name":"_expiry","type":"uint256","internalType":"uint256"},{"name":"_paymentToken","type":"address","internalType":"address"},{"name":"_decimals","type":"uint8","internalType":"uint8"},{"name":"_oracle","type":"address","internalType":"address"},{"name":"_oracleFee","type":"uint256","internalType":"uint256"}],"stateMutability":"nonpayable"},{"type":"function","name":"MAX_PARTICIPANTS","inputs":[],"outputs":[{"name":"","type":"uint256","internalType":"uint256"}],"stateMutability":"view"},{"type":"function","name":"cancelAndRefund","inputs":[],"outputs":[],"stateMutability":"nonpayable"},{"type":"function","name":"closeDeposits","inputs":[],"outputs":[],"stateMutability":"nonpayable"},{"type":"function","name":"deposit","inputs":[],"outputs":[],"stateMutability":"nonpayable"},{"type":"function","name":"details","inputs":[],"outputs":[{"name":"depositAmount","type":"uint256","internalType":"uint256"},{"name":"expiry","type":"uint256","internalType":"uint256"}],"stateMutability":"view"},{"type":"function","name":"distribute","inputs":[{"name":"_payoutBasisPoints","type":"uint256[]","internalType":"uint256[]"}],"outputs":[],"stateMutability":"nonpayable"},{"type":"function","name":"expiredEscrowWithdraw","inputs":[],"outputs":[],"stateMutability":"nonpayable"},{"type":"function","name":"getParticipantsCount","inputs":[],"outputs":[{"name":"","type":"uint256","internalType":"uint256"}],"stateMutability":"view"},{"type":"function","name":"hasDeposited","inputs":[{"name":"","type":"address","internalType":"address"}],"outputs":[{"name":"","type":"bool","internalType":"bool"}],"stateMutability":"view"},{"type":"function","name":"oracle","inputs":[],"outputs":[{"name":"","type":"address","internalType":"address"}],"stateMutability":"view"},{"type":"function","name":"oracleFee","inputs":[],"outputs":[{"name":"","type":"uint256","internalType":"uint256"}],"stateMutability":"view"},{"type":"function","name":"participantIndex","inputs":[{"name":"","type":"address","internalType":"address"}],"outputs":[{"name":"","type":"uint256","internalType":"uint256"}],"stateMutability":"view"},{"type":"function","name":"participants","inputs":[{"name":"","type":"uint256","internalType":"uint256"}],"outputs":[{"name":"","type":"address","internalType":"address"}],"stateMutability":"view"},{"type":"function","name":"paymentToken","inputs":[],"outputs":[{"name":"","type":"address","internalType":"contract IERC20"}],"stateMutability":"view"},{"type":"function","name":"paymentTokenDecimals","inputs":[],"outputs":[{"name":"","type":"uint8","internalType":"uint8"}],"stateMutability":"view"},{"type":"function","name":"state","inputs":[],"outputs":[{"name":"","type":"uint8","internalType":"enum Escrow.EscrowState"}],"stateMutability":"view"},{"type":"function","name":"totalInitialDeposits","inputs":[],"outputs":[{"name":"","type":"uint256","internalType":"uint256"}],"stateMutability":"view"},{"type":"function","name":"withdraw","inputs":[],"outputs":[],"stateMutability":"nonpayable"},{"type":"event","name":"DepositsClosed","inputs":[],"anonymous":false},{"type":"event","name":"EscrowCancelled","inputs":[],"anonymous":false},{"type":"event","name":"EscrowDeposited","inputs":[{"name":"participant","type":"address","indexed":true,"internalType":"address"}],"anonymous":false},{"type":"event","name":"EscrowWithdrawn","inputs":[{"name":"participant","type":"address","indexed":true,"internalType":"address"}],"anonymous":false},{"type":"event","name":"ExpiredEscrowWithdraw","inputs":[{"name":"participant","type":"address","indexed":true,"internalType":"address"},{"name":"amount","type":"uint256","indexed":false,"internalType":"uint256"}],"anonymous":false},{"type":"event","name":"PayoutsDistributed","inputs":[{"name":"payouts","type":"uint256[]","indexed":false,"internalType":"uint256[]"}],"anonymous":false},{"type":"error","name":"ReentrancyGuardReentrantCall","inputs":[]}],"bytecode":{"object":"0x6101006040523480156200001257600080fd5b506040516200191b3803806200191b833981016040819052620000359162000263565b6001600055856200009b5760405162461bcd60e51b815260206004820152602560248201527f4465706f73697420616d6f756e74206d75737420626520677265617465722074604482015264068616e20360dc1b60648201526084015b60405180910390fd5b428511620000ec5760405162461bcd60e51b815260206004820152601c60248201527f457870697279206d75737420626520696e207468652066757475726500000000604482015260640162000092565b6001600160a01b038416620001505760405162461bcd60e51b8152602060048201526024808201527f5061796d656e7420746f6b656e2063616e6e6f74206265207a65726f206164646044820152637265737360e01b606482015260840162000092565b6001600160a01b038216620001a85760405162461bcd60e51b815260206004820152601d60248201527f4f7261636c652063616e6e6f74206265207a65726f2061646472657373000000604482015260640162000092565b612710811115620001fc5760405162461bcd60e51b815260206004820152601d60248201527f4f7261636c65206665652063616e6e6f74206578636565642031303025000000604482015260640162000092565b604080518082019091528681526020018590526001959095556002939093556001600160a01b0391821660805260ff1660a0521660c05260e0526004805460ff19169055620002d0565b80516001600160a01b03811681146200025e57600080fd5b919050565b60008060008060008060c087890312156200027d57600080fd5b8651955060208701519450620002966040880162000246565b9350606087015160ff81168114620002ad57600080fd5b9250620002bd6080880162000246565b915060a087015190509295509295509295565b60805160a05160c05160e0516115bd6200035e600039600081816102cc0152610984015260008181610237015281816102f9015281816107f901528181610c9201526110300152600061019c01526000818161015d015281816104420152818161074801528181610ae801528181610c0001528181610cc101528181610f3e015261114a01526115bd6000f3fe608060405234801561001057600080fd5b50600436106101165760003560e01c80637856ed41116100a2578063cabfaa1811610071578063cabfaa181461027b578063d0e30db014610283578063f2c16e6f1461028b578063f3baf070146102be578063f9cd3ceb146102c757600080fd5b80637856ed411461022a5780637dc0d1d0146102325780639496fd1c14610259578063c19d93fb1461026157600080fd5b806335c1d349116100e957806335c1d349146101d05780633ccfd60b146101e35780634ea4f8e6146101eb57806351cc0da7146101fe578063565974d31461020757600080fd5b8063083b91371461011b5780632009dc651461014e5780633013ce2914610158578063325cd79614610197575b600080fd5b61013b6101293660046112e9565b60066020526000908152604090205481565b6040519081526020015b60405180910390f35b6101566102ee565b005b61017f7f000000000000000000000000000000000000000000000000000000000000000081565b6040516001600160a01b039091168152602001610145565b6101be7f000000000000000000000000000000000000000000000000000000000000000081565b60405160ff9091168152602001610145565b61017f6101de366004611319565b610532565b61015661055c565b6101566101f9366004611332565b6107ee565b61013b60035481565b600154600254610215919082565b60408051928352602083019190915201610145565b610156610d44565b61017f7f000000000000000000000000000000000000000000000000000000000000000081565b610156610fef565b60045461026e9060ff1681565b60405161014591906113bd565b60075461013b565b6101566110a5565b6102ae6102993660046112e9565b60056020526000908152604090205460ff1681565b6040519015158152602001610145565b61013b6107d081565b61013b7f000000000000000000000000000000000000000000000000000000000000000081565b336001600160a01b037f0000000000000000000000000000000000000000000000000000000000000000161461033f5760405162461bcd60e51b8152600401610336906113e5565b60405180910390fd5b600060045460ff166003811115610358576103586113a7565b148061037a5750600160045460ff166003811115610378576103786113a7565b145b6103c65760405162461bcd60e51b815260206004820152601f60248201527f457363726f77206e6f7420696e2063616e63656c6c61626c65207374617465006044820152606401610336565b60005b6007548110156104e6576000600782815481106103e8576103e8611409565b60009182526020808320909101546001600160a01b0316808352600590915260409091205490915060ff16156104d35760015460405163a9059cbb60e01b81526001600160a01b03838116600483015260248201929092527f00000000000000000000000000000000000000000000000000000000000000009091169063a9059cbb906044016020604051808303816000875af115801561048d573d6000803e3d6000fd5b505050506040513d601f19601f820116820180604052508101906104b1919061141f565b506001600160a01b0381166000908152600560205260409020805460ff191690555b50806104de81611457565b9150506103c9565b50600060038190556104fa906007906112af565b6004805460ff191660031790556040517f6e3be9294e58d10b9c8053cfd5e09871b67e442fe394d6b0870d336b9df984a990600090a1565b6007818154811061054257600080fd5b6000918252602090912001546001600160a01b0316905081565b600060045460ff166003811115610575576105756113a7565b146105925760405162461bcd60e51b815260040161033690611470565b61059a611285565b3360009081526005602052604090205460ff166105e95760405162461bcd60e51b815260206004820152600d60248201526c139bdd0819195c1bdcda5d1959609a1b6044820152606401610336565b600154600380546000906105fe908490611499565b9091555050336000908152600560205260408120805460ff1916905560075461062990600190611499565b336000908152600660205260409020549091508111156106d65760006007828154811061065857610658611409565b60009182526020808320909101543383526006909152604090912054600780546001600160a01b0390931693508392909190811061069857610698611409565b600091825260208083209190910180546001600160a01b0319166001600160a01b039485161790553382526006905260408082205493909216815220555b60078054806106e7576106e76114b2565b60008281526020808220600019908401810180546001600160a01b0319169055909201909255338083526006909152604080832092909255600154915163a9059cbb60e01b8152600481019190915260248101919091526001600160a01b037f0000000000000000000000000000000000000000000000000000000000000000169063a9059cbb906044016020604051808303816000875af1158015610791573d6000803e3d6000fd5b505050506040513d601f19601f820116820180604052508101906107b5919061141f565b5060405133907fd900faab28619592e985fe698e5edf2e0819a9d670c3b2547afb60504aa115fb90600090a2506107ec6001600055565b565b336001600160a01b037f000000000000000000000000000000000000000000000000000000000000000016146108365760405162461bcd60e51b8152600401610336906113e5565b61083e611285565b600160045460ff166003811115610857576108576113a7565b1461089d5760405162461bcd60e51b8152602060048201526016602482015275457363726f77206e6f7420696e2070726f677265737360501b6044820152606401610336565b60075481146108e75760405162461bcd60e51b8152602060048201526016602482015275092dcecc2d8d2c840e0c2f2deeae8e640d8cadccee8d60531b6044820152606401610336565b6000805b8281101561092b5783838281811061090557610905611409565b905060200201358261091791906114c8565b91508061092381611457565b9150506108eb565b50806127101461097d5760405162461bcd60e51b815260206004820181905260248201527f546f74616c206d75737420626520313030303020626173697320706f696e74736044820152606401610336565b60006127107f00000000000000000000000000000000000000000000000000000000000000006003546109b091906114db565b6109ba91906114f2565b90506000816003546109cc9190611499565b905060008467ffffffffffffffff8111156109e9576109e9611514565b604051908082528060200260200182016040528015610a12578160200160208202803683370190505b5090506000805b86811015610a94576000612710898984818110610a3857610a38611409565b9050602002013586610a4a91906114db565b610a5491906114f2565b905080848381518110610a6957610a69611409565b6020908102919091010152610a7e81846114c8565b9250508080610a8c90611457565b915050610a19565b506004805460ff191660021790556040517fc841c91bdaa23c1c4bdb58cea14d01f2024cc9ef361c26151d0f82cf6216af3c90610ad290849061152a565b60405180910390a160005b8251811015610be7577f00000000000000000000000000000000000000000000000000000000000000006001600160a01b031663a9059cbb60078381548110610b2857610b28611409565b9060005260206000200160009054906101000a90046001600160a01b0316858481518110610b5857610b58611409565b60200260200101516040518363ffffffff1660e01b8152600401610b919291906001600160a01b03929092168252602082015260400190565b6020604051808303816000875af1158015610bb0573d6000803e3d6000fd5b505050506040513d601f19601f82011682018060405250810190610bd4919061141f565b5080610bdf81611457565b915050610add565b506040516370a0823160e01b81523060048201526000907f00000000000000000000000000000000000000000000000000000000000000006001600160a01b0316906370a0823190602401602060405180830381865afa158015610c4f573d6000803e3d6000fd5b505050506040513d601f19601f82011682018060405250810190610c73919061156e565b90508015610d305760405163a9059cbb60e01b81526001600160a01b037f000000000000000000000000000000000000000000000000000000000000000081166004830152602482018390527f0000000000000000000000000000000000000000000000000000000000000000169063a9059cbb906044016020604051808303816000875af1158015610d0a573d6000803e3d6000fd5b505050506040513d601f19601f82011682018060405250810190610d2e919061141f565b505b505050505050610d406001600055565b5050565b610d4c611285565b3360009081526005602052604090205460ff16610d9b5760405162461bcd60e51b815260206004820152600d60248201526c139bdd0819195c1bdcda5d1959609a1b6044820152606401610336565b6002544211610ddf5760405162461bcd60e51b815260206004820152601060248201526f115cd8dc9bddc81b9bdd08195b99195960821b6044820152606401610336565b60015460038054600090610df4908490611499565b9091555050336000908152600560205260408120805460ff19169055600754610e1f90600190611499565b33600090815260066020526040902054909150811115610ecc57600060078281548110610e4e57610e4e611409565b60009182526020808320909101543383526006909152604090912054600780546001600160a01b03909316935083929091908110610e8e57610e8e611409565b600091825260208083209190910180546001600160a01b0319166001600160a01b039485161790553382526006905260408082205493909216815220555b6007805480610edd57610edd6114b2565b60008281526020808220600019908401810180546001600160a01b0319169055909201909255338083526006909152604080832092909255600154915163a9059cbb60e01b8152600481019190915260248101919091526001600160a01b037f0000000000000000000000000000000000000000000000000000000000000000169063a9059cbb906044016020604051808303816000875af1158015610f87573d6000803e3d6000fd5b505050506040513d601f19601f82011682018060405250810190610fab919061141f565b5060015460405190815233907f101bd6e12c3c6f11cbf1db27912774787706087c957936edf461ec69ce2945769060200160405180910390a2506107ec6001600055565b600060045460ff166003811115611008576110086113a7565b146110255760405162461bcd60e51b815260040161033690611470565b336001600160a01b037f0000000000000000000000000000000000000000000000000000000000000000161461106d5760405162461bcd60e51b8152600401610336906113e5565b6004805460ff191660011790556040517f1a8ade30f60946b8fb7b4d1cf93dc594fa0e441eca24e1b9b88cfa375e3488b190600090a1565b600060045460ff1660038111156110be576110be6113a7565b146110db5760405162461bcd60e51b815260040161033690611470565b6110e3611285565b6007546107d0116111245760405162461bcd60e51b815260206004820152600b60248201526a115cd8dc9bddc8199d5b1b60aa1b6044820152606401610336565b6001546040516323b872dd60e01b815233600482015230602482015260448101919091527f00000000000000000000000000000000000000000000000000000000000000006001600160a01b0316906323b872dd906064016020604051808303816000875af115801561119b573d6000803e3d6000fd5b505050506040513d601f19601f820116820180604052508101906111bf919061141f565b50600154600380546000906111d59084906114c8565b909155505060078054600181810183557fa66cc928b5edb82af9bd49922954155ab7b0942694bea4ce44661d9a8736c68890910180546001600160a01b031916339081179091556000908152600560205260409020805460ff19168217905590546112409190611499565b3360008181526006602052604080822093909355915190917f36c3f1bdccade0360be44662425e3c1011ac51718d18e4e2712481f1c44e4a3c91a26107ec6001600055565b6002600054036112a857604051633ee5aeb560e01b815260040160405180910390fd5b6002600055565b50805460008255906000526020600020908101906112cd91906112d0565b50565b5b808211156112e557600081556001016112d1565b5090565b6000602082840312156112fb57600080fd5b81356001600160a01b038116811461131257600080fd5b9392505050565b60006020828403121561132b57600080fd5b5035919050565b6000806020838503121561134557600080fd5b823567ffffffffffffffff8082111561135d57600080fd5b818501915085601f83011261137157600080fd5b81358181111561138057600080fd5b8660208260051b850101111561139557600080fd5b60209290920196919550909350505050565b634e487b7160e01b600052602160045260246000fd5b60208101600483106113df57634e487b7160e01b600052602160045260246000fd5b91905290565b6020808252600a90820152694e6f74206f7261636c6560b01b604082015260600190565b634e487b7160e01b600052603260045260246000fd5b60006020828403121561143157600080fd5b8151801515811461131257600080fd5b634e487b7160e01b600052601160045260246000fd5b60006001820161146957611469611441565b5060010190565b6020808252600f908201526e22b9b1b937bb903737ba1037b832b760891b604082015260600190565b818103818111156114ac576114ac611441565b92915050565b634e487b7160e01b600052603160045260246000fd5b808201808211156114ac576114ac611441565b80820281158282048414176114ac576114ac611441565b60008261150f57634e487b7160e01b600052601260045260246000fd5b500490565b634e487b7160e01b600052604160045260246000fd5b6020808252825182820181905260009190848201906040850190845b8181101561156257835183529284019291840191600101611546565b50909695505050505050565b60006020828403121561158057600080fd5b505191905056fea26469706673582212204f14f22a7c6fdde42ba807099ab2b85f6009eee892ad05af9862c0f0d99c1f8b64736f6c63430008140033","linkReferences":{}},"methodIdentifiers":{"MAX_PARTICIPANTS()":"f3baf070","cancelAndRefund()":"2009dc65","closeDeposits()":"9496fd1c","deposit()":"d0e30db0","details()":"565974d3","distribute(uint256[])":"4ea4f8e6","expiredEscrowWithdraw()":"7856ed41","getParticipantsCount()":"cabfaa18","hasDeposited(address)":"f2c16e6f","oracle()":"7dc0d1d0","oracleFee()":"f9cd3ceb","participantIndex(address)":"083b9137","participants(uint256)":"35c1d349","paymentToken()":"3013ce29","paymentTokenDecimals()":"325cd796","state()":"c19d93fb","totalInitialDeposits()":"51cc0da7","withdraw()":"3ccfd60b"},"id":31}