{"abi":[{"type":"constructor","inputs":[{"name":"_depositAmount","type":"uint256","internalType":"uint256"},{"name":"_expiry","type":"uint256","internalType":"uint256"},{"name":"_paymentToken","type":"address","internalType":"address"},{"name":"_decimals","type":"uint8","internalType":"uint8"},{"name":"_oracle","type":"address","internalType":"address"},{"name":"_oracleFee","type":"uint256","internalType":"uint256"}],"stateMutability":"nonpayable"},{"type":"function","name":"MAX_PARTICIPANTS","inputs":[],"outputs":[{"name":"","type":"uint256","internalType":"uint256"}],"stateMutability":"view"},{"type":"function","name":"cancelAndRefund","inputs":[],"outputs":[],"stateMutability":"nonpayable"},{"type":"function","name":"closeDeposits","inputs":[],"outputs":[],"stateMutability":"nonpayable"},{"type":"function","name":"deposit","inputs":[],"outputs":[],"stateMutability":"nonpayable"},{"type":"function","name":"depositBalance","inputs":[{"name":"","type":"address","internalType":"address"}],"outputs":[{"name":"","type":"uint256","internalType":"uint256"}],"stateMutability":"view"},{"type":"function","name":"details","inputs":[],"outputs":[{"name":"depositAmount","type":"uint256","internalType":"uint256"},{"name":"expiry","type":"uint256","internalType":"uint256"}],"stateMutability":"view"},{"type":"function","name":"distribute","inputs":[{"name":"_addresses","type":"address[]","internalType":"address[]"},{"name":"_payoutBasisPoints","type":"uint256[]","internalType":"uint256[]"}],"outputs":[],"stateMutability":"nonpayable"},{"type":"function","name":"expiredEscrowWithdraw","inputs":[],"outputs":[],"stateMutability":"nonpayable"},{"type":"function","name":"finalPayouts","inputs":[{"name":"","type":"address","internalType":"address"}],"outputs":[{"name":"","type":"uint256","internalType":"uint256"}],"stateMutability":"view"},{"type":"function","name":"getFinalPayouts","inputs":[{"name":"_addresses","type":"address[]","internalType":"address[]"}],"outputs":[{"name":"","type":"uint256[]","internalType":"uint256[]"}],"stateMutability":"view"},{"type":"function","name":"getParticipantsCount","inputs":[],"outputs":[{"name":"","type":"uint256","internalType":"uint256"}],"stateMutability":"view"},{"type":"function","name":"oracle","inputs":[],"outputs":[{"name":"","type":"address","internalType":"address"}],"stateMutability":"view"},{"type":"function","name":"oracleFee","inputs":[],"outputs":[{"name":"","type":"uint256","internalType":"uint256"}],"stateMutability":"view"},{"type":"function","name":"participants","inputs":[{"name":"","type":"uint256","internalType":"uint256"}],"outputs":[{"name":"","type":"address","internalType":"address"}],"stateMutability":"view"},{"type":"function","name":"paymentToken","inputs":[],"outputs":[{"name":"","type":"address","internalType":"contract IERC20"}],"stateMutability":"view"},{"type":"function","name":"paymentTokenDecimals","inputs":[],"outputs":[{"name":"","type":"uint8","internalType":"uint8"}],"stateMutability":"view"},{"type":"function","name":"state","inputs":[],"outputs":[{"name":"","type":"uint8","internalType":"enum Escrow.EscrowState"}],"stateMutability":"view"},{"type":"function","name":"totalInitialDeposits","inputs":[],"outputs":[{"name":"","type":"uint256","internalType":"uint256"}],"stateMutability":"view"},{"type":"function","name":"withdraw","inputs":[],"outputs":[],"stateMutability":"nonpayable"},{"type":"event","name":"DepositsClosed","inputs":[],"anonymous":false},{"type":"event","name":"EscrowCancelled","inputs":[],"anonymous":false},{"type":"event","name":"EscrowDeposited","inputs":[{"name":"participant","type":"address","indexed":true,"internalType":"address"}],"anonymous":false},{"type":"event","name":"EscrowWithdrawn","inputs":[{"name":"participant","type":"address","indexed":true,"internalType":"address"}],"anonymous":false},{"type":"event","name":"ExpiredEscrowWithdraw","inputs":[{"name":"participant","type":"address","indexed":true,"internalType":"address"},{"name":"amount","type":"uint256","indexed":false,"internalType":"uint256"}],"anonymous":false},{"type":"event","name":"PayoutsDistributed","inputs":[{"name":"payouts","type":"uint256[]","indexed":false,"internalType":"uint256[]"}],"anonymous":false},{"type":"error","name":"ReentrancyGuardReentrantCall","inputs":[]},{"type":"error","name":"SafeERC20FailedOperation","inputs":[{"name":"token","type":"address","internalType":"address"}]}],"bytecode":{"object":"0x6101006040523480156200001257600080fd5b5060405162001afa38038062001afa833981016040819052620000359162000263565b6001600055856200009b5760405162461bcd60e51b815260206004820152602560248201527f4465706f73697420616d6f756e74206d75737420626520677265617465722074604482015264068616e20360dc1b60648201526084015b60405180910390fd5b428511620000ec5760405162461bcd60e51b815260206004820152601c60248201527f457870697279206d75737420626520696e207468652066757475726500000000604482015260640162000092565b6001600160a01b038416620001505760405162461bcd60e51b8152602060048201526024808201527f5061796d656e7420746f6b656e2063616e6e6f74206265207a65726f206164646044820152637265737360e01b606482015260840162000092565b6001600160a01b038216620001a85760405162461bcd60e51b815260206004820152601d60248201527f4f7261636c652063616e6e6f74206265207a65726f2061646472657373000000604482015260640162000092565b612710811115620001fc5760405162461bcd60e51b815260206004820152601d60248201527f4f7261636c65206665652063616e6e6f74206578636565642031303025000000604482015260640162000092565b604080518082019091528681526020018590526001959095556002939093556001600160a01b0391821660805260ff1660a0521660c05260e0526004805460ff19169055620002d0565b80516001600160a01b03811681146200025e57600080fd5b919050565b60008060008060008060c087890312156200027d57600080fd5b8651955060208701519450620002966040880162000246565b9350606087015160ff81168114620002ad57600080fd5b9250620002bd6080880162000246565b915060a087015190509295509295509295565b60805160a05160c05160e05161179c6200035e600039600081816102e80152610820015260008181610246015281816103ee015281816105eb01528181610af701526110e2015260006101b001526000818161017101528181610520015281816109eb01528181610a4d01528181610ad501528181610daf015281816110370152611259015261179c6000f3fe608060405234801561001057600080fd5b50600436106101215760003560e01c80637856ed41116100ad578063cabfaa1811610071578063cabfaa18146102aa578063d03d31de146102b2578063d0e30db0146102d2578063f3baf070146102da578063f9cd3ceb146102e357600080fd5b80637856ed41146102395780637dc0d1d0146102415780639496fd1c14610268578063956501bb14610270578063c19d93fb1461029057600080fd5b8063325cd796116100f4578063325cd796146101ab57806335c1d349146101e45780633ccfd60b146101f757806351cc0da7146101ff578063565974d31461021657600080fd5b806317585b45146101265780632009dc651461014f5780632929abe6146101595780633013ce291461016c575b600080fd5b6101396101343660046114b7565b61030a565b60405161014691906114f9565b60405180910390f35b6101576103e3565b005b61015761016736600461153d565b6105e0565b6101937f000000000000000000000000000000000000000000000000000000000000000081565b6040516001600160a01b039091168152602001610146565b6101d27f000000000000000000000000000000000000000000000000000000000000000081565b60405160ff9091168152602001610146565b6101936101f23660046115a9565b610b68565b610157610b92565b61020860035481565b604051908152602001610146565b600154600254610224919082565b60408051928352602083019190915201610146565b610157610e0c565b6101937f000000000000000000000000000000000000000000000000000000000000000081565b6101576110a1565b61020861027e3660046115c2565b60056020526000908152604090205481565b60045461029d9060ff1681565b6040516101469190611608565b600654610208565b6102086102c03660046115c2565b60086020526000908152604090205481565b610157611157565b6102086107d081565b6102087f000000000000000000000000000000000000000000000000000000000000000081565b606060008267ffffffffffffffff81111561032757610327611630565b604051908082528060200260200182016040528015610350578160200160208202803683370190505b50905060005b838110156103d9576008600086868481811061037457610374611646565b905060200201602081019061038991906115c2565b6001600160a01b03166001600160a01b03168152602001908152602001600020548282815181106103bc576103bc611646565b6020908102919091010152806103d181611672565b915050610356565b5090505b92915050565b336001600160a01b037f000000000000000000000000000000000000000000000000000000000000000016146104345760405162461bcd60e51b815260040161042b9061168b565b60405180910390fd5b61043c6112f9565b600060045460ff166003811115610455576104556115f2565b14806104775750600160045460ff166003811115610475576104756115f2565b145b6104c35760405162461bcd60e51b815260206004820152601f60248201527f457363726f77206e6f7420696e2063616e63656c6c61626c6520737461746500604482015260640161042b565b60005b60065481101561058a576000600682815481106104e5576104e5611646565b60009182526020808320909101546001600160a01b031680835260059091526040909120549091508015610575576105476001600160a01b037f0000000000000000000000000000000000000000000000000000000000000000168383611323565b6001600160a01b038216600090815260056020908152604080832083905560079091529020805460ff191690555b5050808061058290611672565b9150506104c6565b506000600381905561059e90600690611431565b6004805460ff191660031790556040517f6e3be9294e58d10b9c8053cfd5e09871b67e442fe394d6b0870d336b9df984a990600090a16105de6001600055565b565b336001600160a01b037f000000000000000000000000000000000000000000000000000000000000000016146106285760405162461bcd60e51b815260040161042b9061168b565b6106306112f9565b600160045460ff166003811115610649576106496115f2565b1461068f5760405162461bcd60e51b8152602060048201526016602482015275457363726f77206e6f7420696e2070726f677265737360501b604482015260640161042b565b8281146106d65760405162461bcd60e51b8152602060048201526015602482015274082e4e4c2f240d8cadccee8d040dad2e6dac2e8c6d605b1b604482015260640161042b565b826107125760405162461bcd60e51b815260206004820152600c60248201526b456d7074792061727261797360a01b604482015260640161042b565b6000805b828110156107c757600086868381811061073257610732611646565b905060200201602081019061074791906115c2565b6001600160a01b03160361078f5760405162461bcd60e51b815260206004820152600f60248201526e496e76616c6964206164647265737360881b604482015260640161042b565b8383828181106107a1576107a1611646565b90506020020135826107b391906116af565b9150806107bf81611672565b915050610716565b5080612710146108195760405162461bcd60e51b815260206004820181905260248201527f546f74616c206d75737420626520313030303020626173697320706f696e7473604482015260640161042b565b60006127107f000000000000000000000000000000000000000000000000000000000000000060035461084c91906116c2565b61085691906116d9565b905060008160035461086891906116fb565b905060008467ffffffffffffffff81111561088557610885611630565b6040519080825280602002602001820160405280156108ae578160200160208202803683370190505b50905060005b858110156109695760006127108888848181106108d3576108d3611646565b90506020020135856108e591906116c2565b6108ef91906116d9565b90508083838151811061090457610904611646565b60200260200101818152505080600860008c8c8681811061092757610927611646565b905060200201602081019061093c91906115c2565b6001600160a01b03168152602081019190915260400160002055508061096181611672565b9150506108b4565b506004805460ff1916600217905560005b8151811015610a3457600082828151811061099757610997611646565b60200260200101511115610a2257610a228989838181106109ba576109ba611646565b90506020020160208101906109cf91906115c2565b8383815181106109e1576109e1611646565b60200260200101517f00000000000000000000000000000000000000000000000000000000000000006001600160a01b03166113239092919063ffffffff16565b80610a2c81611672565b91505061097a565b506040516370a0823160e01b81523060048201526000907f00000000000000000000000000000000000000000000000000000000000000006001600160a01b0316906370a0823190602401602060405180830381865afa158015610a9c573d6000803e3d6000fd5b505050506040513d601f19601f82011682018060405250810190610ac0919061170e565b90508015610b1c57610b1c6001600160a01b037f0000000000000000000000000000000000000000000000000000000000000000167f000000000000000000000000000000000000000000000000000000000000000083611323565b7fc841c91bdaa23c1c4bdb58cea14d01f2024cc9ef361c26151d0f82cf6216af3c82604051610b4b91906114f9565b60405180910390a15050505050610b626001600055565b50505050565b60068181548110610b7857600080fd5b6000918252602090912001546001600160a01b0316905081565b600060045460ff166003811115610bab57610bab6115f2565b14610bc85760405162461bcd60e51b815260040161042b90611727565b610bd06112f9565b600154336000908152600560205260409020541015610c285760405162461bcd60e51b8152602060048201526014602482015273496e73756666696369656e742062616c616e636560601b604482015260640161042b565b60015460038054600090610c3d9084906116fb565b90915550506001543360009081526005602052604081208054909190610c649084906116fb565b9091555050336000908152600560205260408120549003610d9e57336000908152600760205260408120805460ff191690555b600654811015610d9c57336001600160a01b031660068281548110610cbe57610cbe611646565b6000918252602090912001546001600160a01b031603610d8a5760068054610ce8906001906116fb565b81548110610cf857610cf8611646565b600091825260209091200154600680546001600160a01b039092169183908110610d2457610d24611646565b9060005260206000200160006101000a8154816001600160a01b0302191690836001600160a01b031602179055506006805480610d6357610d63611750565b600082815260209020810160001990810180546001600160a01b0319169055019055610d9c565b80610d9481611672565b915050610c97565b505b600154610dd7906001600160a01b037f000000000000000000000000000000000000000000000000000000000000000016903390611323565b60405133907fd900faab28619592e985fe698e5edf2e0819a9d670c3b2547afb60504aa115fb90600090a26105de6001600055565b610e146112f9565b600154336000908152600560205260409020541015610e6c5760405162461bcd60e51b8152602060048201526014602482015273496e73756666696369656e742062616c616e636560601b604482015260640161042b565b6002544211610eb05760405162461bcd60e51b815260206004820152601060248201526f115cd8dc9bddc81b9bdd08195b99195960821b604482015260640161042b565b60015460038054600090610ec59084906116fb565b90915550506001543360009081526005602052604081208054909190610eec9084906116fb565b909155505033600090815260056020526040812054900361102657336000908152600760205260408120805460ff191690555b60065481101561102457336001600160a01b031660068281548110610f4657610f46611646565b6000918252602090912001546001600160a01b0316036110125760068054610f70906001906116fb565b81548110610f8057610f80611646565b600091825260209091200154600680546001600160a01b039092169183908110610fac57610fac611646565b9060005260206000200160006101000a8154816001600160a01b0302191690836001600160a01b031602179055506006805480610feb57610feb611750565b600082815260209020810160001990810180546001600160a01b0319169055019055611024565b8061101c81611672565b915050610f1f565b505b60015461105f906001600160a01b037f000000000000000000000000000000000000000000000000000000000000000016903390611323565b60015460405190815233907f101bd6e12c3c6f11cbf1db27912774787706087c957936edf461ec69ce2945769060200160405180910390a26105de6001600055565b600060045460ff1660038111156110ba576110ba6115f2565b146110d75760405162461bcd60e51b815260040161042b90611727565b336001600160a01b037f0000000000000000000000000000000000000000000000000000000000000000161461111f5760405162461bcd60e51b815260040161042b9061168b565b6004805460ff191660011790556040517f1a8ade30f60946b8fb7b4d1cf93dc594fa0e441eca24e1b9b88cfa375e3488b190600090a1565b600060045460ff166003811115611170576111706115f2565b1461118d5760405162461bcd60e51b815260040161042b90611727565b6111956112f9565b3360009081526007602052604090205460ff16611248576006546107d0116111ed5760405162461bcd60e51b815260206004820152600b60248201526a115cd8dc9bddc8199d5b1b60aa1b604482015260640161042b565b6006805460018181019092557ff652222313e28459528d920b65115c16c04f3efc82aaedc97be59f3f377c0d3f0180546001600160a01b031916339081179091556000908152600760205260409020805460ff191690911790555b600154611283906001600160a01b037f0000000000000000000000000000000000000000000000000000000000000000169033903090611387565b600154600380546000906112989084906116af565b909155505060015433600090815260056020526040812080549091906112bf9084906116af565b909155505060405133907f36c3f1bdccade0360be44662425e3c1011ac51718d18e4e2712481f1c44e4a3c90600090a26105de6001600055565b60026000540361131c57604051633ee5aeb560e01b815260040160405180910390fd5b6002600055565b6040516001600160a01b0383811660248301526044820183905261138291859182169063a9059cbb906064015b604051602081830303815290604052915060e01b6020820180516001600160e01b0383818316178352505050506113c0565b505050565b6040516001600160a01b038481166024830152838116604483015260648201839052610b629186918216906323b872dd90608401611350565b600080602060008451602086016000885af1806113e3576040513d6000823e3d81fd5b50506000513d915081156113fb578060011415611408565b6001600160a01b0384163b155b15610b6257604051635274afe760e01b81526001600160a01b038516600482015260240161042b565b508054600082559060005260206000209081019061144f9190611452565b50565b5b808211156114675760008155600101611453565b5090565b60008083601f84011261147d57600080fd5b50813567ffffffffffffffff81111561149557600080fd5b6020830191508360208260051b85010111156114b057600080fd5b9250929050565b600080602083850312156114ca57600080fd5b823567ffffffffffffffff8111156114e157600080fd5b6114ed8582860161146b565b90969095509350505050565b6020808252825182820181905260009190848201906040850190845b8181101561153157835183529284019291840191600101611515565b50909695505050505050565b6000806000806040858703121561155357600080fd5b843567ffffffffffffffff8082111561156b57600080fd5b6115778883890161146b565b9096509450602087013591508082111561159057600080fd5b5061159d8782880161146b565b95989497509550505050565b6000602082840312156115bb57600080fd5b5035919050565b6000602082840312156115d457600080fd5b81356001600160a01b03811681146115eb57600080fd5b9392505050565b634e487b7160e01b600052602160045260246000fd5b602081016004831061162a57634e487b7160e01b600052602160045260246000fd5b91905290565b634e487b7160e01b600052604160045260246000fd5b634e487b7160e01b600052603260045260246000fd5b634e487b7160e01b600052601160045260246000fd5b6000600182016116845761168461165c565b5060010190565b6020808252600a90820152694e6f74206f7261636c6560b01b604082015260600190565b808201808211156103dd576103dd61165c565b80820281158282048414176103dd576103dd61165c565b6000826116f657634e487b7160e01b600052601260045260246000fd5b500490565b818103818111156103dd576103dd61165c565b60006020828403121561172057600080fd5b5051919050565b6020808252600f908201526e22b9b1b937bb903737ba1037b832b760891b604082015260600190565b634e487b7160e01b600052603160045260246000fdfea2646970667358221220b163f8d8343191a880760cda503a43984cd61af1820cb31dd053f1e83e469d3c64736f6c63430008140033","linkReferences":{}},"methodIdentifiers":{"MAX_PARTICIPANTS()":"f3baf070","cancelAndRefund()":"2009dc65","closeDeposits()":"9496fd1c","deposit()":"d0e30db0","depositBalance(address)":"956501bb","details()":"565974d3","distribute(address[],uint256[])":"2929abe6","expiredEscrowWithdraw()":"7856ed41","finalPayouts(address)":"d03d31de","getFinalPayouts(address[])":"17585b45","getParticipantsCount()":"cabfaa18","oracle()":"7dc0d1d0","oracleFee()":"f9cd3ceb","participants(uint256)":"35c1d349","paymentToken()":"3013ce29","paymentTokenDecimals()":"325cd796","state()":"c19d93fb","totalInitialDeposits()":"51cc0da7","withdraw()":"3ccfd60b"},"id":8}