{"abi":[{"type":"constructor","inputs":[{"name":"_depositAmount","type":"uint256","internalType":"uint256"},{"name":"_expiry","type":"uint256","internalType":"uint256"},{"name":"_paymentToken","type":"address","internalType":"address"},{"name":"_decimals","type":"uint8","internalType":"uint8"},{"name":"_oracle","type":"address","internalType":"address"},{"name":"_oracleFee","type":"uint256","internalType":"uint256"}],"stateMutability":"nonpayable"},{"type":"function","name":"MAX_PARTICIPANTS","inputs":[],"outputs":[{"name":"","type":"uint256","internalType":"uint256"}],"stateMutability":"view"},{"type":"function","name":"cancelAndRefund","inputs":[],"outputs":[],"stateMutability":"nonpayable"},{"type":"function","name":"closeDeposits","inputs":[],"outputs":[],"stateMutability":"nonpayable"},{"type":"function","name":"deposit","inputs":[],"outputs":[],"stateMutability":"nonpayable"},{"type":"function","name":"depositBalance","inputs":[{"name":"","type":"address","internalType":"address"}],"outputs":[{"name":"","type":"uint256","internalType":"uint256"}],"stateMutability":"view"},{"type":"function","name":"details","inputs":[],"outputs":[{"name":"depositAmount","type":"uint256","internalType":"uint256"},{"name":"expiry","type":"uint256","internalType":"uint256"}],"stateMutability":"view"},{"type":"function","name":"distribute","inputs":[{"name":"_addresses","type":"address[]","internalType":"address[]"},{"name":"_payoutBasisPoints","type":"uint256[]","internalType":"uint256[]"}],"outputs":[],"stateMutability":"nonpayable"},{"type":"function","name":"expiredEscrowWithdraw","inputs":[],"outputs":[],"stateMutability":"nonpayable"},{"type":"function","name":"getParticipantsCount","inputs":[],"outputs":[{"name":"","type":"uint256","internalType":"uint256"}],"stateMutability":"view"},{"type":"function","name":"oracle","inputs":[],"outputs":[{"name":"","type":"address","internalType":"address"}],"stateMutability":"view"},{"type":"function","name":"oracleFee","inputs":[],"outputs":[{"name":"","type":"uint256","internalType":"uint256"}],"stateMutability":"view"},{"type":"function","name":"participants","inputs":[{"name":"","type":"uint256","internalType":"uint256"}],"outputs":[{"name":"","type":"address","internalType":"address"}],"stateMutability":"view"},{"type":"function","name":"paymentToken","inputs":[],"outputs":[{"name":"","type":"address","internalType":"contract IERC20"}],"stateMutability":"view"},{"type":"function","name":"paymentTokenDecimals","inputs":[],"outputs":[{"name":"","type":"uint8","internalType":"uint8"}],"stateMutability":"view"},{"type":"function","name":"state","inputs":[],"outputs":[{"name":"","type":"uint8","internalType":"enum Escrow.EscrowState"}],"stateMutability":"view"},{"type":"function","name":"totalInitialDeposits","inputs":[],"outputs":[{"name":"","type":"uint256","internalType":"uint256"}],"stateMutability":"view"},{"type":"function","name":"withdraw","inputs":[],"outputs":[],"stateMutability":"nonpayable"},{"type":"event","name":"DepositsClosed","inputs":[],"anonymous":false},{"type":"event","name":"EscrowCancelled","inputs":[],"anonymous":false},{"type":"event","name":"EscrowDeposited","inputs":[{"name":"participant","type":"address","indexed":true,"internalType":"address"}],"anonymous":false},{"type":"event","name":"EscrowWithdrawn","inputs":[{"name":"participant","type":"address","indexed":true,"internalType":"address"}],"anonymous":false},{"type":"event","name":"ExpiredEscrowWithdraw","inputs":[{"name":"participant","type":"address","indexed":true,"internalType":"address"},{"name":"amount","type":"uint256","indexed":false,"internalType":"uint256"}],"anonymous":false},{"type":"event","name":"PayoutsDistributed","inputs":[{"name":"payouts","type":"uint256[]","indexed":false,"internalType":"uint256[]"}],"anonymous":false},{"type":"error","name":"ReentrancyGuardReentrantCall","inputs":[]},{"type":"error","name":"SafeERC20FailedOperation","inputs":[{"name":"token","type":"address","internalType":"address"}]}],"bytecode":{"object":"0x6101006040523480156200001257600080fd5b506040516200194438038062001944833981016040819052620000359162000263565b6001600055856200009b5760405162461bcd60e51b815260206004820152602560248201527f4465706f73697420616d6f756e74206d75737420626520677265617465722074604482015264068616e20360dc1b60648201526084015b60405180910390fd5b428511620000ec5760405162461bcd60e51b815260206004820152601c60248201527f457870697279206d75737420626520696e207468652066757475726500000000604482015260640162000092565b6001600160a01b038416620001505760405162461bcd60e51b8152602060048201526024808201527f5061796d656e7420746f6b656e2063616e6e6f74206265207a65726f206164646044820152637265737360e01b606482015260840162000092565b6001600160a01b038216620001a85760405162461bcd60e51b815260206004820152601d60248201527f4f7261636c652063616e6e6f74206265207a65726f2061646472657373000000604482015260640162000092565b612710811115620001fc5760405162461bcd60e51b815260206004820152601d60248201527f4f7261636c65206665652063616e6e6f74206578636565642031303025000000604482015260640162000092565b604080518082019091528681526020018590526001959095556002939093556001600160a01b0391821660805260ff1660a0521660c05260e0526004805460ff19169055620002d0565b80516001600160a01b03811681146200025e57600080fd5b919050565b60008060008060008060c087890312156200027d57600080fd5b8651955060208701519450620002966040880162000246565b9350606087015160ff81168114620002ad57600080fd5b9250620002bd6080880162000246565b915060a087015190509295509295509295565b60805160a05160c05160e0516115e66200035e6000396000818161028e01526106ed01526000818161020c015281816102bb015281816104b80152818161097d0152610f6801526000610176015260008181610132015281816103ed01528181610871015281816108d30152818161095b01528181610c3501528181610ebd01526110df01526115e66000f3fe608060405234801561001057600080fd5b506004361061010b5760003560e01c80637856ed41116100a2578063c19d93fb11610071578063c19d93fb14610256578063cabfaa1814610270578063d0e30db014610278578063f3baf07014610280578063f9cd3ceb1461028957600080fd5b80637856ed41146101ff5780637dc0d1d0146102075780639496fd1c1461022e578063956501bb1461023657600080fd5b806335c1d349116100de57806335c1d349146101aa5780633ccfd60b146101bd57806351cc0da7146101c5578063565974d3146101dc57600080fd5b80632009dc65146101105780632929abe61461011a5780633013ce291461012d578063325cd79614610171575b600080fd5b6101186102b0565b005b61011861012836600461133d565b6104ad565b6101547f000000000000000000000000000000000000000000000000000000000000000081565b6040516001600160a01b0390911681526020015b60405180910390f35b6101987f000000000000000000000000000000000000000000000000000000000000000081565b60405160ff9091168152602001610168565b6101546101b83660046113a9565b6109ee565b610118610a18565b6101ce60035481565b604051908152602001610168565b6001546002546101ea919082565b60408051928352602083019190915201610168565b610118610c92565b6101547f000000000000000000000000000000000000000000000000000000000000000081565b610118610f27565b6101ce6102443660046113c2565b60056020526000908152604090205481565b6004546102639060ff1681565b6040516101689190611408565b6006546101ce565b610118610fdd565b6101ce6107d081565b6101ce7f000000000000000000000000000000000000000000000000000000000000000081565b336001600160a01b037f000000000000000000000000000000000000000000000000000000000000000016146103015760405162461bcd60e51b81526004016102f890611430565b60405180910390fd5b61030961117f565b600060045460ff166003811115610322576103226113f2565b14806103445750600160045460ff166003811115610342576103426113f2565b145b6103905760405162461bcd60e51b815260206004820152601f60248201527f457363726f77206e6f7420696e2063616e63656c6c61626c652073746174650060448201526064016102f8565b60005b600654811015610457576000600682815481106103b2576103b2611454565b60009182526020808320909101546001600160a01b031680835260059091526040909120549091508015610442576104146001600160a01b037f00000000000000000000000000000000000000000000000000000000000000001683836111a9565b6001600160a01b038216600090815260056020908152604080832083905560079091529020805460ff191690555b5050808061044f90611480565b915050610393565b506000600381905561046b906006906112b7565b6004805460ff191660031790556040517f6e3be9294e58d10b9c8053cfd5e09871b67e442fe394d6b0870d336b9df984a990600090a16104ab6001600055565b565b336001600160a01b037f000000000000000000000000000000000000000000000000000000000000000016146104f55760405162461bcd60e51b81526004016102f890611430565b6104fd61117f565b600160045460ff166003811115610516576105166113f2565b1461055c5760405162461bcd60e51b8152602060048201526016602482015275457363726f77206e6f7420696e2070726f677265737360501b60448201526064016102f8565b8281146105a35760405162461bcd60e51b8152602060048201526015602482015274082e4e4c2f240d8cadccee8d040dad2e6dac2e8c6d605b1b60448201526064016102f8565b826105df5760405162461bcd60e51b815260206004820152600c60248201526b456d7074792061727261797360a01b60448201526064016102f8565b6000805b828110156106945760008686838181106105ff576105ff611454565b905060200201602081019061061491906113c2565b6001600160a01b03160361065c5760405162461bcd60e51b815260206004820152600f60248201526e496e76616c6964206164647265737360881b60448201526064016102f8565b83838281811061066e5761066e611454565b90506020020135826106809190611499565b91508061068c81611480565b9150506105e3565b5080612710146106e65760405162461bcd60e51b815260206004820181905260248201527f546f74616c206d75737420626520313030303020626173697320706f696e747360448201526064016102f8565b60006127107f000000000000000000000000000000000000000000000000000000000000000060035461071991906114b2565b61072391906114c9565b905060008160035461073591906114eb565b905060008467ffffffffffffffff811115610752576107526114fe565b60405190808252806020026020018201604052801561077b578160200160208202803683370190505b50905060005b858110156107ef5760006127108888848181106107a0576107a0611454565b90506020020135856107b291906114b2565b6107bc91906114c9565b9050808383815181106107d1576107d1611454565b602090810291909101015250806107e781611480565b915050610781565b506004805460ff1916600217905560005b81518110156108ba57600082828151811061081d5761081d611454565b602002602001015111156108a8576108a889898381811061084057610840611454565b905060200201602081019061085591906113c2565b83838151811061086757610867611454565b60200260200101517f00000000000000000000000000000000000000000000000000000000000000006001600160a01b03166111a99092919063ffffffff16565b806108b281611480565b915050610800565b506040516370a0823160e01b81523060048201526000907f00000000000000000000000000000000000000000000000000000000000000006001600160a01b0316906370a0823190602401602060405180830381865afa158015610922573d6000803e3d6000fd5b505050506040513d601f19601f820116820180604052508101906109469190611514565b905080156109a2576109a26001600160a01b037f0000000000000000000000000000000000000000000000000000000000000000167f0000000000000000000000000000000000000000000000000000000000000000836111a9565b7fc841c91bdaa23c1c4bdb58cea14d01f2024cc9ef361c26151d0f82cf6216af3c826040516109d1919061152d565b60405180910390a150505050506109e86001600055565b50505050565b600681815481106109fe57600080fd5b6000918252602090912001546001600160a01b0316905081565b600060045460ff166003811115610a3157610a316113f2565b14610a4e5760405162461bcd60e51b81526004016102f890611571565b610a5661117f565b600154336000908152600560205260409020541015610aae5760405162461bcd60e51b8152602060048201526014602482015273496e73756666696369656e742062616c616e636560601b60448201526064016102f8565b60015460038054600090610ac39084906114eb565b90915550506001543360009081526005602052604081208054909190610aea9084906114eb565b9091555050336000908152600560205260408120549003610c2457336000908152600760205260408120805460ff191690555b600654811015610c2257336001600160a01b031660068281548110610b4457610b44611454565b6000918252602090912001546001600160a01b031603610c105760068054610b6e906001906114eb565b81548110610b7e57610b7e611454565b600091825260209091200154600680546001600160a01b039092169183908110610baa57610baa611454565b9060005260206000200160006101000a8154816001600160a01b0302191690836001600160a01b031602179055506006805480610be957610be961159a565b600082815260209020810160001990810180546001600160a01b0319169055019055610c22565b80610c1a81611480565b915050610b1d565b505b600154610c5d906001600160a01b037f0000000000000000000000000000000000000000000000000000000000000000169033906111a9565b60405133907fd900faab28619592e985fe698e5edf2e0819a9d670c3b2547afb60504aa115fb90600090a26104ab6001600055565b610c9a61117f565b600154336000908152600560205260409020541015610cf25760405162461bcd60e51b8152602060048201526014602482015273496e73756666696369656e742062616c616e636560601b60448201526064016102f8565b6002544211610d365760405162461bcd60e51b815260206004820152601060248201526f115cd8dc9bddc81b9bdd08195b99195960821b60448201526064016102f8565b60015460038054600090610d4b9084906114eb565b90915550506001543360009081526005602052604081208054909190610d729084906114eb565b9091555050336000908152600560205260408120549003610eac57336000908152600760205260408120805460ff191690555b600654811015610eaa57336001600160a01b031660068281548110610dcc57610dcc611454565b6000918252602090912001546001600160a01b031603610e985760068054610df6906001906114eb565b81548110610e0657610e06611454565b600091825260209091200154600680546001600160a01b039092169183908110610e3257610e32611454565b9060005260206000200160006101000a8154816001600160a01b0302191690836001600160a01b031602179055506006805480610e7157610e7161159a565b600082815260209020810160001990810180546001600160a01b0319169055019055610eaa565b80610ea281611480565b915050610da5565b505b600154610ee5906001600160a01b037f0000000000000000000000000000000000000000000000000000000000000000169033906111a9565b60015460405190815233907f101bd6e12c3c6f11cbf1db27912774787706087c957936edf461ec69ce2945769060200160405180910390a26104ab6001600055565b600060045460ff166003811115610f4057610f406113f2565b14610f5d5760405162461bcd60e51b81526004016102f890611571565b336001600160a01b037f00000000000000000000000000000000000000000000000000000000000000001614610fa55760405162461bcd60e51b81526004016102f890611430565b6004805460ff191660011790556040517f1a8ade30f60946b8fb7b4d1cf93dc594fa0e441eca24e1b9b88cfa375e3488b190600090a1565b600060045460ff166003811115610ff657610ff66113f2565b146110135760405162461bcd60e51b81526004016102f890611571565b61101b61117f565b3360009081526007602052604090205460ff166110ce576006546107d0116110735760405162461bcd60e51b815260206004820152600b60248201526a115cd8dc9bddc8199d5b1b60aa1b60448201526064016102f8565b6006805460018181019092557ff652222313e28459528d920b65115c16c04f3efc82aaedc97be59f3f377c0d3f0180546001600160a01b031916339081179091556000908152600760205260409020805460ff191690911790555b600154611109906001600160a01b037f000000000000000000000000000000000000000000000000000000000000000016903390309061120d565b6001546003805460009061111e908490611499565b90915550506001543360009081526005602052604081208054909190611145908490611499565b909155505060405133907f36c3f1bdccade0360be44662425e3c1011ac51718d18e4e2712481f1c44e4a3c90600090a26104ab6001600055565b6002600054036111a257604051633ee5aeb560e01b815260040160405180910390fd5b6002600055565b6040516001600160a01b0383811660248301526044820183905261120891859182169063a9059cbb906064015b604051602081830303815290604052915060e01b6020820180516001600160e01b038381831617835250505050611246565b505050565b6040516001600160a01b0384811660248301528381166044830152606482018390526109e89186918216906323b872dd906084016111d6565b600080602060008451602086016000885af180611269576040513d6000823e3d81fd5b50506000513d9150811561128157806001141561128e565b6001600160a01b0384163b155b156109e857604051635274afe760e01b81526001600160a01b03851660048201526024016102f8565b50805460008255906000526020600020908101906112d591906112d8565b50565b5b808211156112ed57600081556001016112d9565b5090565b60008083601f84011261130357600080fd5b50813567ffffffffffffffff81111561131b57600080fd5b6020830191508360208260051b850101111561133657600080fd5b9250929050565b6000806000806040858703121561135357600080fd5b843567ffffffffffffffff8082111561136b57600080fd5b611377888389016112f1565b9096509450602087013591508082111561139057600080fd5b5061139d878288016112f1565b95989497509550505050565b6000602082840312156113bb57600080fd5b5035919050565b6000602082840312156113d457600080fd5b81356001600160a01b03811681146113eb57600080fd5b9392505050565b634e487b7160e01b600052602160045260246000fd5b602081016004831061142a57634e487b7160e01b600052602160045260246000fd5b91905290565b6020808252600a90820152694e6f74206f7261636c6560b01b604082015260600190565b634e487b7160e01b600052603260045260246000fd5b634e487b7160e01b600052601160045260246000fd5b6000600182016114925761149261146a565b5060010190565b808201808211156114ac576114ac61146a565b92915050565b80820281158282048414176114ac576114ac61146a565b6000826114e657634e487b7160e01b600052601260045260246000fd5b500490565b818103818111156114ac576114ac61146a565b634e487b7160e01b600052604160045260246000fd5b60006020828403121561152657600080fd5b5051919050565b6020808252825182820181905260009190848201906040850190845b8181101561156557835183529284019291840191600101611549565b50909695505050505050565b6020808252600f908201526e22b9b1b937bb903737ba1037b832b760891b604082015260600190565b634e487b7160e01b600052603160045260246000fdfea2646970667358221220741d1b0dc8ef2072c47361ad3c744240a7f0a99a0aed61f38bd3b13799029aec64736f6c63430008140033","linkReferences":{}},"methodIdentifiers":{"MAX_PARTICIPANTS()":"f3baf070","cancelAndRefund()":"2009dc65","closeDeposits()":"9496fd1c","deposit()":"d0e30db0","depositBalance(address)":"956501bb","details()":"565974d3","distribute(address[],uint256[])":"2929abe6","expiredEscrowWithdraw()":"7856ed41","getParticipantsCount()":"cabfaa18","oracle()":"7dc0d1d0","oracleFee()":"f9cd3ceb","participants(uint256)":"35c1d349","paymentToken()":"3013ce29","paymentTokenDecimals()":"325cd796","state()":"c19d93fb","totalInitialDeposits()":"51cc0da7","withdraw()":"3ccfd60b"},"id":32}