{"abi":[{"type":"function","name":"contestHost","inputs":[{"name":"","type":"address","internalType":"address"}],"outputs":[{"name":"","type":"address","internalType":"address"}],"stateMutability":"view"},{"type":"function","name":"contests","inputs":[{"name":"","type":"uint256","internalType":"uint256"}],"outputs":[{"name":"","type":"address","internalType":"address"}],"stateMutability":"view"},{"type":"function","name":"createContest","inputs":[{"name":"paymentToken","type":"address","internalType":"address"},{"name":"oracle","type":"address","internalType":"address"},{"name":"contestantDepositAmount","type":"uint256","internalType":"uint256"},{"name":"referralNetworkBps","type":"uint256","internalType":"uint256"},{"name":"expiry","type":"uint256","internalType":"uint256"},{"name":"primaryDepositSecondarySubsidyBps","type":"uint256","internalType":"uint256"},{"name":"referralGraph","type":"address","internalType":"address"},{"name":"rewardCalculator","type":"address","internalType":"address"},{"name":"referralGroupId","type":"bytes32","internalType":"bytes32"}],"outputs":[{"name":"","type":"address","internalType":"address"}],"stateMutability":"nonpayable"},{"type":"function","name":"getContestCount","inputs":[],"outputs":[{"name":"","type":"uint256","internalType":"uint256"}],"stateMutability":"view"},{"type":"function","name":"getContests","inputs":[],"outputs":[{"name":"","type":"address[]","internalType":"address[]"}],"stateMutability":"view"},{"type":"event","name":"ContestCreated","inputs":[{"name":"contest","type":"address","indexed":true,"internalType":"address"},{"name":"host","type":"address","indexed":true,"internalType":"address"},{"name":"contestantDepositAmount","type":"uint256","indexed":false,"internalType":"uint256"}],"anonymous":false}],"bytecode":{"object":"0x60808060405234601557614e91908161001a8239f35b5f80fdfe6080806040526004361015610012575f80fd5b5f3560e01c90816334dd7a2e1461032057508063634d7a48146101a357806364c3c166146101875780639d7ed738146101465763bfaba76a14610053575f80fd5b34610142575f366003190112610142576040518060205f54918281520180915f80527f290decd9548b62a8d60345a988386fc84ba6bc95484008f6362f93160ef3e563905f5b81811061012357505050829003601f01601f191682019167ffffffffffffffff83118184101761010f5790829182604052602083019060208452518091526040830191905f5b8181106100ed575050500390f35b82516001600160a01b03168452859450602093840193909201916001016100df565b634e487b7160e01b5f52604160045260245ffd5b82546001600160a01b0316845260209093019260019283019201610099565b5f80fd5b34610142576020366003190112610142576004355f548110156101425761016e602091610375565b905460405160039290921b1c6001600160a01b03168152f35b34610142575f3660031901126101425760205f54604051908152f35b3461014257610120366003190112610142576101bd61035f565b6024356001600160a01b03811690819003610142576044359160c4356001600160a01b038116908190036101425760e4356001600160a01b03811693908490036101425760405193614abc928386019286841067ffffffffffffffff85111761010f576101209587956103a087396001600160a01b031684526020840152604083018790526064356060840152608435608084015260a43560a084015260c083015260e0820152610104356101008201520301905ff080156103155760018060a01b03165f54916801000000000000000083101561010f576102a6836001602095015f55610375565b81549060031b9084821b9160018060a01b03901b1916179055815f526001835260405f20336bffffffffffffffffffffffff60a01b825416179055604051908152817f0930d90e589f3eb61818e12c03f3b7838099abcb975a02054dc58e1fe7cddf0f843393a3604051908152f35b6040513d5f823e3d90fd5b34610142576020366003190112610142576020906001600160a01b0361034461035f565b165f9081526001835260409020546001600160a01b03168152f35b600435906001600160a01b038216820361014257565b5f5481101561038b575f805260205f2001905f90565b634e487b7160e01b5f52603260045260245ffdfe6101c080604052346102c35761012081614abc8038038091610021828561049f565b8339810103126102c357610034816104d6565b90610041602082016104d6565b6040820151606083015160808401519060a08501519261006360c087016104d6565b9461010061007360e089016104d6565b9701516001600255976001600160a01b03811690811561045a576001600160a01b03831615610424576103e885116103df57428611156103a9576127108711610364576001600160a01b0388161561031f576001600160a01b038916156102da5760805260405163313ce56760e01b815290602090829060049082905afa9081156102cf575f9161028f575b5060a05260c05260e05261010052610120526101405261016052610180526101a05260ff19600354166003556040516145d190816104eb823960805181818161080001528181610fbd015281816112a3015281816116270152818161193a01528181611b6a01528181611dbf015281816122610152818161253301528181612f7e015281816130620152818161312c01526135b5015260a05181818161088201526124a7015260c05181818161052c015281816105fa015281816108e301528181610b760152818161141d01528181611521015281816118ac01528181611d5e01528181611fbe015281816123ab01528181613041015261310b015260e05181818161159f015281816116d901526121fe0152610100518181816108460152610c3e015261012051818181611803015281816118f601528181611aa0015281816121a901526124590152610140518181816106dc0152613c87015261016051818181611a5a0152612dd60152610180518181816117a50152612eac01526101a05181818161166b0152612daa0152f35b90506020813d6020116102c7575b816102aa6020938361049f565b810103126102c3575160ff811681036102c3575f6100ff565b5f80fd5b3d915061029d565b6040513d5f823e3d90fd5b60405162461bcd60e51b815260206004820152601960248201527f496e76616c6964207265776172642063616c63756c61746f72000000000000006044820152606490fd5b60405162461bcd60e51b815260206004820152601660248201527f496e76616c696420726566657272616c206772617068000000000000000000006044820152606490fd5b60405162461bcd60e51b815260206004820152601460248201527f537562736964792062707320746f6f20686967680000000000000000000000006044820152606490fd5b60405162461bcd60e51b815260206004820152600e60248201526d115e1c1a5c9e481a5b881c185cdd60921b6044820152606490fd5b60405162461bcd60e51b815260206004820152601d60248201527f526566657272616c206e6574776f726b2066656520746f6f20686967680000006044820152606490fd5b60405162461bcd60e51b815260206004820152600e60248201526d496e76616c6964206f7261636c6560901b6044820152606490fd5b60405162461bcd60e51b815260206004820152601560248201527f496e76616c6964207061796d656e7420746f6b656e00000000000000000000006044820152606490fd5b601f909101601f19168101906001600160401b038211908210176104c257604052565b634e487b7160e01b5f52604160045260245ffd5b51906001600160a01b03821682036102c35756fe60806040526004361015610011575f80fd5b5f3560e01c8062fdd58e146103c957806301ffc9a7146103c45780630e89341c146103bf5780631db0e667146103ba57806324f9cc4c146103b55780632da6a967146103b05780632eb2c2d6146103ab5780633013ce29146103a6578063309d79c5146103a1578063325cd7961461039c5780633789a2fb146103975780633a2babc2146103925780634034b0601461038d5780634e1273f414610388578063563930e7146103835780635d3581f11461037e5780635dcdbc45146103795780636932b382146103745780636c5477671461036f57806374d342141461036a57806375f25006146103655780637680a51e146103015780637d4cb964146103605780637dc0d1d01461035b5780637e8f123414610356578063853999cf146103515780639080b6931461034c578063933b1282146103475780639455937a146102cf57806395082d251461034257806396769e891461033d5780639a9a5d9d14610338578063a01e4a1f14610333578063a094c6321461032e578063a22cb46514610329578063a69dbf0314610324578063ade6e2aa1461031f578063ae4c8ba91461031a578063af19e0d514610315578063af1d919714610310578063b30906d41461030b578063b48e94ce14610306578063b9937e3014610301578063ba594751146102fc578063bf6bbf09146102f7578063c19d93fb146102f2578063c8d22700146102ed578063c8d5c1b1146102e8578063c9a496aa146102e3578063d09685b0146102de578063d6a74ce0146102d9578063df1ef4c6146102d4578063e08a1a42146102cf578063e1a45218146102ca578063e1db226a146102c5578063e985e9c5146102c0578063ed4af81f146102bb578063f242432a146102b6578063fc8c28e1146102b15763fed76325146102ac575f80fd5b6123e6565b61236e565b612328565b61230b565b6122ac565b612139565b61211d565b6116fc565b6120eb565b611f84565b611f67565b611ef5565b611ecb565b611d28565b611cff565b611cac565b611c91565b6114d3565b611c67565b611c2a565b611bdc565b611ae5565b611ac3565b611a89565b611a45565b611a1a565b61189a565b6117f1565b6117d4565b611790565b611773565b6116c2565b61168e565b611654565b611550565b61150c565b6114f0565b611407565b6111d6565b6111ac565b611182565b611167565b61113e565b610b65565b610a97565b610966565b61091e565b6108a6565b610869565b61082f565b6107eb565b61075c565b6106c5565b6105e4565b610516565b6104cf565b61043d565b6103e3565b6001600160a01b038116036103df57565b5f80fd5b346103df5760403660031901126103df57600435610400816103ce565b6001600160a01b03165f90815260208181526040808320602435845282529182902054915191825290f35b6001600160e01b03198116036103df57565b346103df5760203660031901126103df57602060043561045c8161042b565b63ffffffff60e01b166301ffc9a760e01b811490811561049a575b8115610489575b506040519015158152f35b6303a24d0760e21b1490505f61047e565b636cdb3d1360e11b81149150610477565b805180835260209291819084018484015e5f828201840152601f01601f1916010190565b346103df5760203660031901126103df576105086040516104f1602082612590565b5f81526040519182916020835260208301906104ab565b0390f35b5f9103126103df57565b346103df575f3660031901126103df5761055a337f00000000000000000000000000000000000000000000000000000000000000006001600160a01b0316146125ca565b60035460ff81169060068210156105d057600361058092141590816105b8575b50612603565b610592600460ff196003541617600355565b7f9237e8f0d5063a695b8695e82c82bc24d15591de9d04449771a6ea4b128317375f80a1005b6005915060ff166105c881611cf5565b14155f61057a565b634e487b7160e01b5f52602160045260245ffd5b346103df575f3660031901126103df57610628337f00000000000000000000000000000000000000000000000000000000000000006001600160a01b0316146125ca565b60ff6003541660068110156105d05761068057610648600454151561264f565b61065a600160ff196003541617600355565b7f3927b788a62eb53f7192cd9286f49295f01b938b6afc23aef0af5d035cd853165f80a1005b60405162461bcd60e51b815260206004820152601760248201527f436f6e7465737420616c726561647920737461727465640000000000000000006044820152606490fd5b346103df575f3660031901126103df5760206040517f00000000000000000000000000000000000000000000000000000000000000008152f35b9181601f840112156103df578235916001600160401b0383116103df576020808501948460051b0101116103df57565b9181601f840112156103df578235916001600160401b0383116103df57602083818601950101116103df57565b346103df5760a03660031901126103df576107786004356103ce565b6107836024356103ce565b6044356001600160401b0381116103df576107a29036906004016106ff565b50506064356001600160401b0381116103df576107c39036906004016106ff565b50506084356001600160401b0381116103df576107e490369060040161072f565b5050612688565b346103df575f3660031901126103df576040517f00000000000000000000000000000000000000000000000000000000000000006001600160a01b03168152602090f35b346103df575f3660031901126103df5760206040517f00000000000000000000000000000000000000000000000000000000000000008152f35b346103df575f3660031901126103df57602060405160ff7f0000000000000000000000000000000000000000000000000000000000000000168152f35b346103df5760203660031901126103df577fa2877b861a6a177d8c1a4430a6f8716104652f70e5c8fbd58aa775ef96da4a526020600435610911337f00000000000000000000000000000000000000000000000000000000000000006001600160a01b0316146125ca565b80601055604051908152a1005b346103df5760203660031901126103df576004355f52600a60205260405f20545f81135f1461095a57610952602091613412565b604051908152f35b5060206109525f613412565b346103df5760203660031901126103df576004356109886001600254146126c2565b60028055335f525f60205260405f20815f5260205260405f20549060ff6003541660068110156105d0576109f4926109d1916109c6600f5460ff1690565b90600e549285613452565b6109ee6109e6825f52600a60205260405f2090565b5415156126fb565b33613532565b6109fe6001600255565b005b60406003198201126103df576004356001600160401b0381116103df5781610a2a916004016106ff565b92909291602435906001600160401b0382116103df57610a4c916004016106ff565b9091565b90602080835192838152019201905f5b818110610a6d5750505090565b8251845260209384019390920191600101610a60565b906020610a94928181520190610a50565b90565b346103df57610aa536610a00565b8083949303610b2e57610ab78461274a565b935f5b818110610acf57604051806105088882610a83565b80610b1c610b04610aeb610ae6600195878b612785565b612795565b6001600160a01b03165f90815260208190526040902090565b610b0f838789612785565b355f5260205260405f2090565b54610b27828961279f565b5201610aba565b60405162461bcd60e51b815260206004820152600f60248201526e0988a9c8ea890be9a92a69a82a8869608b1b6044820152606490fd5b346103df57610b7336610a00565b927f00000000000000000000000000000000000000000000000000000000000000009291610bab336001600160a01b038616146125ca565b610bb96001600254146126c2565b60028055610bdd6002610bce60035460ff1690565b610bd781611cf5565b146127b3565b610be88315156127f4565b610bf3858414612840565b600454610c0281851115612884565b5f805b8781106110b45750612710610c1a91146129d6565b600754945f915f905b808210611063575050610c368287612931565b5f96612710917f0000000000000000000000000000000000000000000000000000000000000000908115158061105a575b611027575b505081610c8a610c82610c9094610c8294612a52565b612710900490565b94612a52565b9580610f0b575b5050610caa600360ff1981541617600355565b610cb381600755565b825f5b8786808310610ec657915050610cd69250610cd09161277c565b35600e55565b610ce8600160ff19600f541617600f55565b5f5b600454811015610d3a57805f610d33610d11610d07600195611c0d565b90549060031b1c90565b82610d24825f52600b60205260405f2090565b555f52600c60205260405f2090565b5501610cea565b508493610d51600e545f52600b60205260405f2090565b55600e54610d67815f52600a60205260405f2090565b5490610d7b815f52600b60205260405f2090565b54918215159081610ebd575b50610dce575b50507f0fed27f5e3cd741c181cc0d3b0c47df2013638faa8b7aa7084de3946098eb78e93610dc19160405194859485612b29565b0390a16109fe6001600255565b5f908152600b60205260408120555f805b858110610e5b57509181837f0fed27f5e3cd741c181cc0d3b0c47df2013638faa8b7aa7084de3946098eb78e9793610dc19510610e22575b505091819550610d8d565b610e2b91612ab0565b610e52610e4a610e3b888861277c565b355f52600860205260405f2090565b918254612931565b90558680610e17565b90610e67828787612785565b3591610e81610c82610e7a838b89612785565b3586612a52565b80610e93575b50600191925001610ddf565b610eb4610e4a610ea583600196612931565b955f52600860205260405f2090565b90558291610e87565b90501587610d87565b610e4a610ef2610c82610eeb86610ee381610f019760019b612785565b35968b612785565b3588612a52565b925f52600860205260405f2090565b9055018390610cb6565b610f37610f2a610f1b888861277c565b355f52600660205260405f2090565b546001600160a01b031690565b6001600160a01b0381169290610f4e841515612abd565b303b156103df57604051635d3581f160e01b81526001600160a01b03919091166004820152602481018390525f8160448183305af1908161100d575b50611005577f29f8dbc55e5e4360f3c59ce726d91cdc67db886965c1b3c00cabed616cb3aa1191610ffa91610fea9082907f00000000000000000000000000000000000000000000000000000000000000006001600160a01b0316613736565b6040519081529081906020820190565b0390a25b5f80610c97565b505050610ffe565b8061101b5f61102193612590565b8061050c565b5f610f8a565b819950610c909350610c8261104f611049610c82610c829695610c8a95612a52565b9b612a83565b945050819250610c6c565b50801515610c67565b90926110ac6001916110a661107a610d0788611c0d565b61109f61108f825f52600b60205260405f2090565b54915f52600c60205260405f2090565b5490612931565b90612931565b930190610c23565b906110e1906110cf6110c7848b88612785565b3515156128c3565b6110da838a87612785565b3590612931565b906110ed818787612785565b3561110b611103825f52600560205260405f2090565b54151561293e565b5f5b82811061111e575050600101610c05565b80611138836111306001948c8c612785565b35141561298a565b0161110d565b346103df5760403660031901126103df576109fe60043561115e816103ce565b60243590612d80565b346103df575f3660031901126103df576020604051600a8152f35b346103df5760203660031901126103df576004355f52600a602052602060405f2054604051908152f35b346103df5760203660031901126103df576004355f52600c602052602060405f2054604051908152f35b346103df5760403660031901126103df576004356024356111fb6001600254146126c2565b60028055335f9081526020819052604090206112219083905b905f5260205260405f2090565b5461124261123160035460ff1690565b61123a81611cf5565b82848661388d565b611284611257845f52600a60205260405f2090565b546112638115156126fb565b61127f611278865f52600b60205260405f2090565b5485612a52565b612a65565b6040516370a0823160e01b815230600482015290926001600160a01b037f000000000000000000000000000000000000000000000000000000000000000016929091602081602481875afa908115611402575f916113d3575b508085116113c9575b50335f908152600d602052604090206113239285929091611308908890611214565b5480611391575b505061131c81873361394d565b33866139b2565b81611332576109fe6001600255565b8282611349611376955f52600b60205260405f2090565b541061137e57611361905f52600b60205260405f2090565b61136c838254612ab0565b90555b3390613736565b5f80806109f4565b5f908152600b602052604081205561136f565b6113a26113a89261127f8584612a52565b90612ab0565b335f908152600d602052604090206113c1908890611214565b555f8061130f565b93506113236112e6565b6113f5915060203d6020116113fb575b6113ed8183612590565b810190613194565b5f6112dd565b503d6113e3565b612afa565b346103df575f3660031901126103df5761144b337f00000000000000000000000000000000000000000000000000000000000000006001600160a01b0316146125ca565b60ff6003541660068110156105d05760010361149957611473600260ff196003541617600355565b7fca4f15905dfed40aa7885e1be889ff7da045bd49fc916c3a40cf8b0a3db7636a5f80a1005b60405162461bcd60e51b8152602060048201526012602482015271436f6e74657374206e6f742061637469766560701b6044820152606490fd5b346103df575f3660031901126103df576020600754604051908152f35b346103df575f3660031901126103df5760206040516101f48152f35b346103df575f3660031901126103df576040517f00000000000000000000000000000000000000000000000000000000000000006001600160a01b03168152602090f35b346103df5760203660031901126103df576004356115726001600254146126c2565b6002805560ff600354169060068210156105d0576115946109f4923383613a4f565b6115e961162261161a7f0000000000000000000000000000000000000000000000000000000000000000936115ee6115df6115cf8784613af2565b50966115da84613ba4565b613c7f565b9590600754612ab0565b600755565b61160c84611604835f52600c60205260405f2090565b5410156131a3565b5f52600c60205260405f2090565b918254612ab0565b9055337f00000000000000000000000000000000000000000000000000000000000000006001600160a01b0316613736565b346103df575f3660031901126103df5760206040517f00000000000000000000000000000000000000000000000000000000000000008152f35b346103df5760403660031901126103df576109fe6004356116ae816103ce565b602435906116bd303314612b50565b613532565b346103df575f3660031901126103df5760206040517f00000000000000000000000000000000000000000000000000000000000000008152f35b346103df575f3660031901126103df575f80600454905b8183101561176857825f8051602061457c8339815191520154805f52600b60205260405f2054905f52600c60205260405f2054810180911161176357810180911161176357600190920191611713565b61290f565b602090604051908152f35b346103df575f3660031901126103df576020604051620f42408152f35b346103df575f3660031901126103df576040517f00000000000000000000000000000000000000000000000000000000000000006001600160a01b03168152602090f35b346103df575f3660031901126103df576020601054604051908152f35b346103df575f3660031901126103df577f000000000000000000000000000000000000000000000000000000000000000042106118675761058061183760035460ff1690565b61184081611cf5565b60038114159081611852575b506131e3565b6005915061185f81611cf5565b14155f61184c565b60405162461bcd60e51b815260206004820152600b60248201526a139bdd08195e1c1a5c995960aa1b6044820152606490fd5b346103df575f3660031901126103df577f00000000000000000000000000000000000000000000000000000000000000006118df336001600160a01b038316146125ca565b6118ed6001600254146126c2565b6002805561191d7f0000000000000000000000000000000000000000000000000000000000000000421015613221565b6040516370a0823160e01b81523060048201526001600160a01b037f00000000000000000000000000000000000000000000000000000000000000001691602082602481865afa918215611402575f926119f9575b5081611982576109fe6001600255565b61198b5f600755565b5f5b6004548110156119b157805f6119aa610d11610d07600195611c0d565b550161198d565b506119cd926119c8600560ff196003541617600355565b613736565b7fef19c40e684c836035e6598f5d86819dfec89371571efdeed7947339739711435f80a15f80806109f4565b611a1391925060203d6020116113fb576113ed8183612590565b905f611972565b346103df5760403660031901126103df57611a366004356103ce565b60243580151514612688575f80fd5b346103df575f3660031901126103df576040517f00000000000000000000000000000000000000000000000000000000000000006001600160a01b03168152602090f35b346103df575f3660031901126103df5760206040517f00000000000000000000000000000000000000000000000000000000000000008152f35b346103df575f3660031901126103df57602060ff600f54166040519015158152f35b346103df5760203660031901126103df57600435611b076001600254146126c2565b6002805560ff6003541660068110156105d057611b3990611b30835f52600860205260405f2090565b54903384613cbb565b5f81815260086020526040812080549190556007548111611bce57611b636115e982600754612ab0565b611b9781337f00000000000000000000000000000000000000000000000000000000000000006001600160a01b0316613736565b60405190815233907e89742e8fcde5f6c48a17ec50347f2b2d98d85a17abe162b4cd552516f752dd90602090a36109fe6001600255565b611bd75f600755565b611b63565b346103df575f3660031901126103df576020600e54604051908152f35b634e487b7160e01b5f52603260045260245ffd5b600454811015611c255760045f5260205f2001905f90565b611bf9565b346103df5760203660031901126103df576004356004548110156103df5760209060045f525f8051602061457c8339815191520154604051908152f35b346103df5760203660031901126103df576004355f52600b602052602060405f2054604051908152f35b346103df575f3660031901126103df57602060405160018152f35b346103df5760403660031901126103df57600435611cc9816103ce565b6024359060018060a01b03165f52600d60205260405f20905f52602052602060405f2054604051908152f35b600611156105d057565b346103df575f3660031901126103df5760ff6003541660405160068210156105d0576020918152f35b346103df5760203660031901126103df576004356001600160401b0381116103df57611d589036906004016106ff565b611d8c337f00000000000000000000000000000000000000000000000000000000000000006001600160a01b0316146125ca565b611d9a6001600254146126c2565b60028055611dbd6003611dae815460ff1690565b611db781611cf5565b14613262565b7f00000000000000000000000000000000000000000000000000000000000000006001600160a01b03165f5b828110611dfa576109fe6001600255565b80611e086001928587612785565b35611e1e610f2a825f52600660205260405f2090565b838060a01b038116908115611ec357611e3f835f52600860205260405f2090565b54908115611eba5781610fea7e89742e8fcde5f6c48a17ec50347f2b2d98d85a17abe162b4cd552516f752dd93611ea2935f611e83895f52600860205260405f2090565b556007548211611eac57611e9c6115e983600754612ab0565b8a613736565b0390a35b01611de9565b611eb55f600755565b611e9c565b50505050611ea6565b505050611ea6565b346103df5760203660031901126103df576004355f526008602052602060405f2054604051908152f35b346103df5760203660031901126103df57600435600454811015611f325760045f525f8051602061457c8339815191520154604051908152602090f35b60405162461bcd60e51b815260206004820152600d60248201526c092dcecc2d8d2c840d2dcc8caf609b1b6044820152606490fd5b346103df575f3660031901126103df576020600454604051908152f35b346103df5760403660031901126103df576004356001600160401b0381116103df57611fb49036906004016106ff565b60243591611fec337f00000000000000000000000000000000000000000000000000000000000000006001600160a01b0316146125ca565b611ffa6001600254146126c2565b6002805561200e6003611dae815460ff1690565b61202261201d600f5460ff1690565b6132a4565b61202f600e5484146132e6565b6120446109e6845f52600a60205260405f2090565b5f5b828110612057576109fe6001600255565b612065610ae6828585612785565b90612083856112148460018060a01b03165f525f60205260405f2090565b54156120e257303b156103df57604051639080b69360e01b81526001600160a01b03929092166004830152602482018590526001915f8160448183305af16120ce575b505b01612046565b8061101b5f6120dc93612590565b5f6120c6565b600191506120c8565b346103df5760203660031901126103df576004355f526006602052602060018060a01b0360405f205416604051908152f35b346103df575f3660031901126103df5760206040516127108152f35b346103df5760403660031901126103df576024356004356001600160401b0382116103df5761218f6121726109f49336906004016106ff565b906121816001600254146126c2565b600280556009543390613d69565b6121ce61219e60035460ff1690565b6121a781611cf5565b7f000000000000000000000000000000000000000000000000000000000000000083613e4a565b6121ea6121e3825f52600560205260405f2090565b5415613326565b6121f96101f460045410613369565b6115e97f0000000000000000000000000000000000000000000000000000000000000000916122283382613eed565b60045461223d825f52600560205260405f2090565b5561225461224a84613c7f565b9390600754612931565b8161228e575b50309050337f00000000000000000000000000000000000000000000000000000000000000006001600160a01b0316613f74565b610e4a6122a3915f52600c60205260405f2090565b90555f8061225a565b346103df5760403660031901126103df576004356122c9816103ce565b602435906122d6826103ce565b60018060a01b03165f52600160205260405f209060018060a01b03165f52602052602060ff60405f2054166040519015158152f35b346103df575f3660031901126103df576020600954604051908152f35b346103df5760a03660031901126103df576123446004356103ce565b61234f6024356103ce565b6084356001600160401b0381116103df576107e490369060040161072f565b346103df5760203660031901126103df577f1f3ffb5a38f057a21fbb6b9c891954827a2657844fbc0ae99188cce46f059e2b60206004356123d9337f00000000000000000000000000000000000000000000000000000000000000006001600160a01b0316146125ca565b80600955604051908152a1005b346103df5760603660031901126103df576044356004356024356001600160401b0383116103df5761243f6124226109f49436906004016106ff565b906124316001600254146126c2565b600280556010543390613d69565b61247f61244e60035460ff1690565b61245781611cf5565b7f00000000000000000000000000000000000000000000000000000000000000008385614068565b612491825f52600a60205260405f2090565b545f81131561256f576124d2612560915b6124cc7f00000000000000000000000000000000000000000000000000000000000000008561410a565b906141a8565b916124de8315156133ab565b6124f0845f52600b60205260405f2090565b6124fb828254612931565b9055612509838233876142b3565b335f908152600d60205260409020612522908590611214565b61252d828254612931565b905530337f00000000000000000000000000000000000000000000000000000000000000006001600160a01b0316613f74565b6125686125b6565b91336143a7565b506125606124d25f6124a2565b634e487b7160e01b5f52604160045260245ffd5b90601f801991011681019081106001600160401b038211176125b157604052565b61257c565b604051906125c5602083612590565b5f8252565b156125d157565b60405162461bcd60e51b815260206004820152600a6024820152694e6f74206f7261636c6560b01b6044820152606490fd5b1561260a57565b60405162461bcd60e51b815260206004820152601f60248201527f436f6e7465737420736574746c6564202d2063616e6e6f742063616e63656c006044820152606490fd5b1561265657565b60405162461bcd60e51b815260206004820152600a6024820152694e6f20656e747269657360b01b6044820152606490fd5b60405162461bcd60e51b8152602060048201526012602482015271151c985b9cd9995c9cc8191a5cd8589b195960721b6044820152606490fd5b156126c957565b60405162461bcd60e51b815260206004820152600a6024820152695245454e5452414e435960b01b6044820152606490fd5b1561270257565b60405162461bcd60e51b81526020600482015260096024820152684e6f20737570706c7960b81b6044820152606490fd5b6001600160401b0381116125b15760051b60200190565b9061275482612733565b6127616040519182612590565b8281528092612772601f1991612733565b0190602036910137565b9015611c255790565b9190811015611c255760051b0190565b35610a94816103ce565b8051821015611c255760209160051b010190565b156127ba57565b60405162461bcd60e51b815260206004820152601260248201527110dbdb9d195cdd081b9bdd081b1bd8dad95960721b6044820152606490fd5b156127fb57565b60405162461bcd60e51b815260206004820152601d60248201527f4d7573742068617665206174206c65617374206f6e652077696e6e65720000006044820152606490fd5b1561284757565b60405162461bcd60e51b8152602060048201526015602482015274082e4e4c2f240d8cadccee8d040dad2e6dac2e8c6d605b1b6044820152606490fd5b1561288b57565b60405162461bcd60e51b815260206004820152601060248201526f546f6f206d616e792077696e6e65727360801b6044820152606490fd5b156128ca57565b60405162461bcd60e51b815260206004820152601960248201527f557365206e6f6e2d7a65726f207061796f757473206f6e6c79000000000000006044820152606490fd5b634e487b7160e01b5f52601160045260245ffd5b906001820180921161176357565b9190820180921161176357565b1561294557565b60405162461bcd60e51b815260206004820152601a60248201527f57696e6e6572206e6f7420616e2061637469766520656e7472790000000000006044820152606490fd5b1561299157565b60405162461bcd60e51b815260206004820152601760248201527f4475706c69636174652077696e6e696e6720656e7472790000000000000000006044820152606490fd5b156129dd57565b60405162461bcd60e51b815260206004820152601860248201527f5061796f757473206d7573742073756d20746f203130302500000000000000006044820152606490fd5b90620f4240820291808304620f4240149015171561176357565b908160011b918083046002149015171561176357565b8181029291811591840414171561176357565b8115612a6f570490565b634e487b7160e01b5f52601260045260245ffd5b6127100390612710821161176357565b5f1981019190821161176357565b60111981019190821161176357565b9190820391821161176357565b15612ac457565b60405162461bcd60e51b815260206004820152600e60248201526d24b73b30b634b2103bb4b73732b960911b6044820152606490fd5b6040513d5f823e3d90fd5b81835290916001600160fb1b0383116103df5760209260051b809284830137010190565b9290612b4290610a949593604086526040860191612b05565b926020818503910152612b05565b15612b5757565b60405162461bcd60e51b815260206004820152600960248201526827b7363c9039b2b63360b91b6044820152606490fd5b908160209103126103df5751610a94816103ce565b6020818303126103df578051906001600160401b0382116103df57019080601f830112156103df578151612bd081612733565b92612bde6040519485612590565b81845260208085019260051b8201019283116103df57602001905b828210612c065750505090565b602080918351612c15816103ce565b815201910190612bf9565b6020818303126103df578051906001600160401b0382116103df57019080601f830112156103df578151612c5381612733565b92612c616040519485612590565b81845260208085019260051b8201019283116103df57602001905b828210612c895750505090565b8151815260209182019101612c7c565b15612ca057565b60405162461bcd60e51b81526020600482015260166024820152750a4caeec2e4c840d8cadccee8d040dad2e6dac2e8c6d60531b6044820152606490fd5b15612ce557565b60405162461bcd60e51b815260206004820152601260248201527152657761726473206578636565642066656560701b6044820152606490fd5b939290936060810194815260606020820152825180955260206080820193015f955b808710612d5d575050610a949394506040818403910152610a50565b81516001600160a01b031685526001969096019560209485019490910190612d41565b612d8b303314612b50565b6040516377ccfd4b60e01b81526001600160a01b0382811660048301527f000000000000000000000000000000000000000000000000000000000000000060248301819052919291907f000000000000000000000000000000000000000000000000000000000000000016602084604481845afa938415611402575f94613163575b506001600160a01b0384169384158015613159575b6130d95760405163aaa9ff3d60e01b81526001600160a01b039190911660048201526024810192909252600a60448301525f90829060649082905afa908115611402575f916130b7575b50600a8151116130ae575b805115613013578051604051632454438360e11b8152600481018690526024810191909152945f866044816001600160a01b037f0000000000000000000000000000000000000000000000000000000000000000165afa958615611402575f96612fef575b50612eea8651835114612c99565b5f93845b8751861015612f1657612f0e600191612f07888b61279f565b5190612931565b950194612eee565b612f299193955095809294961115612cde565b5f5b8451811015612fa85780612f416001928961279f565b51612f4d575b01612f2b565b612fa3612f6a612f5d838961279f565b516001600160a01b031690565b612f74838b61279f565b5190848060a01b037f000000000000000000000000000000000000000000000000000000000000000016613736565b612f47565b50604051929591946001600160a01b0316937fe990d130d5b65ca11fbee1244257fd7d68ce829bed380b4030a0e76c1e6b2eb593928392612fea929084612d1f565b0390a3565b61300c9196503d805f833e6130048183612590565b810190612c20565b945f612edc565b507f29f8dbc55e5e4360f3c59ce726d91cdc67db886965c1b3c00cabed616cb3aa1191506130a99061308f847f00000000000000000000000000000000000000000000000000000000000000007f00000000000000000000000000000000000000000000000000000000000000006001600160a01b0316613736565b6040519384526001600160a01b0316929081906020820190565b0390a2565b600a8152612e77565b6130d391503d805f833e6130cb8183612590565b810190612b9d565b5f612e6c565b507f29f8dbc55e5e4360f3c59ce726d91cdc67db886965c1b3c00cabed616cb3aa1193506130a992915061308f9050847f00000000000000000000000000000000000000000000000000000000000000007f00000000000000000000000000000000000000000000000000000000000000006001600160a01b0316613736565b5060018514612e22565b61318691945060203d60201161318d575b61317e8183612590565b810190612b88565b925f612e0d565b503d613174565b908160209103126103df575190565b156131aa57565b60405162461bcd60e51b81526020600482015260116024820152705375627369647920756e646572666c6f7760781b6044820152606490fd5b156131ea57565b60405162461bcd60e51b815260206004820152600f60248201526e105b1c9958591e481cd95d1d1b1959608a1b6044820152606490fd5b1561322857565b60405162461bcd60e51b8152602060048201526012602482015271115e1c1a5c9e481b9bdd081c995858da195960721b6044820152606490fd5b1561326957565b60405162461bcd60e51b815260206004820152601360248201527210dbdb9d195cdd081b9bdd081cd95d1d1b1959606a1b6044820152606490fd5b156132ab57565b60405162461bcd60e51b815260206004820152601360248201527213585c9ad95d081b9bdd081c995cdbdb1d9959606a1b6044820152606490fd5b156132ed57565b60405162461bcd60e51b81526020600482015260116024820152704e6f742077696e6e696e6720656e74727960781b6044820152606490fd5b1561332d57565b60405162461bcd60e51b8152602060048201526014602482015273456e74727920616c72656164792061637469766560601b6044820152606490fd5b1561337057565b60405162461bcd60e51b815260206004820152601360248201527213585e08195b9d1c9a595cc81c995858da1959606a1b6044820152606490fd5b156133b257565b60405162461bcd60e51b815260206004820152603260248201527f5061796d656e7420746f6f20736d616c6c3a20696e73756666696369656e7420604482015271746f20707572636861736520746f6b656e7360701b6064820152608490fd5b633b9aca00613422910480612a52565b600f810290808204600f149015171561176357670de0b6b3a76400009004620f42400180620f4240116117635790565b9261346c9061201d600360ff613473969895981614613262565b82146132e6565b5f908152600660205260409020546001600160a01b0316156134c7571561349657565b60405162461bcd60e51b81526020600482015260096024820152684e6f20746f6b656e7360b81b6044820152606490fd5b60405162461bcd60e51b815260206004820152602560248201527f456e74727920646f6573206e6f74206578697374206f72207761732077697468604482015264323930bbb760d91b6064820152608490fd5b81810392915f13801582851316918412161761176357565b61354f826112148360018060a01b03165f525f60205260405f2090565b5490613563835f52600a60205260405f2090565b5461356f8115156126fb565b613581845f52600b60205260405f2090565b5490811561372e5761127f6135969285612a52565b6040516370a0823160e01b815230600482015290926001600160a01b037f000000000000000000000000000000000000000000000000000000000000000016918490602081602481875afa908115611402575f9161370f575b50809111613707575b5061360481868561394d565b613621613619865f52600a60205260405f2090565b91825461351a565b90556001600160a01b0382165f908152600d60205260408120613645908690611214565b5582156136c7578161308f847fe256ef8b7b6eaeb621f7e7ca3b683f124df401cb260bbaccf0540299944b858a94612fea948261368a8a5f52600b60205260405f2090565b54106136b4576136a2895f52600b60205260405f2090565b6136ad848254612ab0565b9055613736565b5f898152600b6020526040812055613736565b506040515f81526001600160a01b0390911691507fe256ef8b7b6eaeb621f7e7ca3b683f124df401cb260bbaccf0540299944b858a908060208101612fea565b93505f6135f8565b613728915060203d6020116113fb576113ed8183612590565b5f6135ef565b50505f613596565b60405163a9059cbb60e01b81526001600160a01b03909216600483015260248201929092526020905f9060449082855af19081601f3d1160015f51141615166137b9575b501561378257565b60405162461bcd60e51b815260206004820152600f60248201526e1514905394d1915497d19052531151608a1b6044820152606490fd5b3b153d171590505f61377a565b156137cd57565b60405162461bcd60e51b8152602060048201526014602482015273115b9d1c9e48191bd95cc81b9bdd08195e1a5cdd60621b6044820152606490fd5b1561381057565b60405162461bcd60e51b81526020600482015260126024820152710416d6f756e74206d757374206265203e20360741b6044820152606490fd5b1561385157565b60405162461bcd60e51b8152602060048201526014602482015273496e73756666696369656e742062616c616e636560601b6044820152606490fd5b9290919060ff168015908115613942575b50156138e4576138d06138e2936138c8610f2a60018060a01b03926006905f5260205260405f2090565b1615156137c6565b6138db821515613809565b101561384a565b565b60405162461bcd60e51b815260206004820152603060248201527f43616e6e6f74207769746864726177202d20636f6d7065746974696f6e20737460448201526f185c9d1959081bdc881cd95d1d1b195960821b6064820152608490fd5b60049150145f61389e565b60018060a01b031690815f525f60205260405f20815f5260205260405f2080549084820391821161176357556040805191825260208201939093525f9233917fc3d58168c5ae7397731d063d5bbf3d657854427343f4c083240f7aacaa2d0f629190a4565b927fa2b936e19d2f391e984b3c8722e0e0a30ef1b73581371ed847624152e65d16f591845f52600a60205260405f206139ec85825461351a565b90556040805194855260208501929092526001600160a01b0316929081908101612fea565b15613a1857565b60405162461bcd60e51b815260206004820152600f60248201526e2737ba1032b73a393c9037bbb732b960891b6044820152606490fd5b9160ff168015908115613ae7575b5015613a89575f91825260066020526040909120546138e2916001600160a01b03908116911614613a11565b60405162461bcd60e51b815260206004820152603060248201527f43616e6e6f74207769746864726177202d20636f6e7465737420696e2070726f60448201526f19dc995cdcc81bdc881cd95d1d1b195960821b6064820152608490fd5b60049150145f613a5d565b5f81815260066020526040812080546001600160a01b031981169091559293849390926001600160a01b03909116917fa11660be5ca5ef93a56a1f22e4de3d92bcb1727897a5e70a7262c26e256f3a409080a3565b6004548015613b90575f19810190600454821015611c255760045f8181527f8a35acfbc15ff81a39ae7d344fd709f28e8600b4aa8c65c6b64bfe7fe36bd19a9092019190915555565b634e487b7160e01b5f52603160045260245ffd5b805f52600560205260405f20548015613c47575f91613bc5613bf092612a93565b613bd0600454612a93565b808203613bf3575b5050613be2613b47565b5f52600560205260405f2090565b55565b613c30613c05610d07613c3f93611c0d565b92613c2b84613c1383611c0d565b90919082549060031b91821b915f19901b1916179055565b612923565b915f52600560205260405f2090565b555f80613bd8565b60405162461bcd60e51b815260206004820152601060248201526f456e747279206e6f742061637469766560801b6044820152606490fd5b612710613cac7f000000000000000000000000000000000000000000000000000000000000000083612a52565b04908181039081116117635791565b613ccd600360ff613cee951614613262565b5f908152600660205260409020546001600160a01b03918216911614613a11565b15613cf557565b60405162461bcd60e51b8152602060048201526009602482015268139bc81c185e5bdd5d60ba1b6044820152606490fd5b15613d2d57565b60405162461bcd60e51b815260206004820152601460248201527324b73b30b634b21036b2b935b63290383937b7b360611b6044820152606490fd5b91929082613d78575b50505050565b60405160208101916bffffffffffffffffffffffff199060601b16825260148152613da4603482612590565b51902092613db182612733565b91613dbf6040519384612590565b808352602083019060051b8201913683116103df57905b828210613dfc5750505091613dee91613df3936144af565b613d26565b5f808080613d72565b8135815260209182019101613dd6565b15613e1357565b60405162461bcd60e51b815260206004820152600f60248201526e10dbdb9d195cdd08195e1c1a5c9959608a1b6044820152606490fd5b909160ff16613eb5575f908152600660205260409020546001600160a01b0316613e79576138e2904210613e0c565b60405162461bcd60e51b8152602060048201526014602482015273456e74727920616c72656164792065786973747360601b6044820152606490fd5b60405162461bcd60e51b815260206004820152601060248201526f21b7b73a32b9ba103737ba1037b832b760811b6044820152606490fd5b90600454680100000000000000008110156125b15760018101600455600454811015611c25575f8051602061457c833981519152018290555f82815260066020526040812080546001600160a01b0319166001600160a01b0390931692831790557f4a3a30e0139991c1b1492b4364701af9484bb9032a696c2b8c748a1e51f2fd179080a3565b6040516323b872dd60e01b81526001600160a01b03928316600482015292909116602483015260448201929092526020905f9060649082855af19081601f3d1160015f5114161516614005575b5015613fc957565b60405162461bcd60e51b81526020600482015260146024820152731514905394d1915497d19493d357d1905253115160621b6044820152606490fd5b3b153d171590505f613fc1565b1561401957565b60405162461bcd60e51b815260206004820152602160248201527f456e74727920646f6573206e6f74206578697374206f722077697468647261776044820152603760f91b6064820152608490fd5b90919260ff60019116036140ad576140846138e2934210613e0c565b5f908152600660205260409020546140a6906001600160a01b03161515614012565b1515613809565b60405162461bcd60e51b815260206004820152602160248201527f5365636f6e6461727920706f736974696f6e73206e6f7420617661696c61626c6044820152606560f81b6064820152608490fd5b604d811161176357600a0a90565b9060ff16601281146141a45760128110614139579061413361412e610a9493612aa1565b6140fc565b90612a65565b601203601281116117635761414d906140fc565b8015612a6f57805f1904821161416657610a9491612a52565b60405162461bcd60e51b81526020600482015260166024820152755061796d656e74207363616c65206f766572666c6f7760501b6044820152606490fd5b5090565b81156142ad576141c36141ba82613412565b61127f84612a22565b9182156142a6576141d45f93612a3c565b916002831061429d575b91905f6001600160ff1b035b60208210614262575b50505f925b60328410614208575b5050505090565b9091929361421581612923565b84111561425c5761422f6142298583612931565b60011c90565b908361423b83856144fa565b10156142505750600190945b019291906141f8565b94935060019093614247565b93614201565b909391928361427182856144fa565b10156142955781811161429557614289600191612a3c565b940190939291936141ea565b9291936141f3565b600292506141de565b5050505f90565b50505f90565b92835f52600a60205260405f20918254828101905f8483129112908015821691151617611763579092556040805193845260208401919091526001600160a01b03909116917fa00dafed0dbb4c386c4a62b78c2bcbf149dcebfed234ad200c7e6631854d48b09181908101612fea565b908160209103126103df5751610a948161042b565b909260a092610a949594600180861b031683525f60208401526040830152606082015281608082015201906104ab565b1561436f57565b60405162461bcd60e51b815260206004820152601060248201526f155394d0519157d49150d2541251539560821b6044820152606490fd5b9192906143c7816112148560018060a01b03165f525f60205260405f2090565b6143d2858254612931565b905560408051828152602081018690526001600160a01b038516949185915f9133917fc3d58168c5ae7397731d063d5bbf3d657854427343f4c083240f7aacaa2d0f629190a43b61442b5750506138e291501515614368565b91614452935f6020946040519687958694859363f23a6e6160e01b85523360048601614338565b03925af18015611402576138e2915f91614480575b506001600160e01b03191663f23a6e6160e01b14614368565b6144a2915060203d6020116144a8575b61449a8183612590565b810190614323565b5f614467565b503d614490565b9091815191826144c1575b5090501490565b8060208092019360051b0101905b8251811160051b90815260208351911852602060405f209201918183106144cf57915050805f6144ba565b9080156142ad57810180821161176357808201918281116117635761452a61452182613412565b9360011c613412565b61453383613412565b91830392831161176357600281901b906001600160fe1b0381160361176357830180931161176357820180921161176357610a949161457191612a52565b625b8d8090612a6556fe8a35acfbc15ff81a39ae7d344fd709f28e8600b4aa8c65c6b64bfe7fe36bd19ba2646970667358221220b8e5a875e8d77632c9f0209eac9c89c0e3e3490dc5cc245c793efabec12860ad64736f6c634300081a0033a26469706673582212203558fe6323af43b1f0b5e42f5ac834a033e5a9f656b942cfa25fdf63350620bf64736f6c634300081a0033","linkReferences":{}},"methodIdentifiers":{"contestHost(address)":"34dd7a2e","contests(uint256)":"9d7ed738","createContest(address,address,uint256,uint256,uint256,uint256,address,address,bytes32)":"634d7a48","getContestCount()":"64c3c166","getContests()":"bfaba76a"},"id":2}