{"abi":[{"type":"constructor","inputs":[{"name":"_paymentToken","type":"address","internalType":"address"},{"name":"_oracle","type":"address","internalType":"address"},{"name":"_primaryDepositAmount","type":"uint256","internalType":"uint256"},{"name":"_referralNetworkBps","type":"uint256","internalType":"uint256"},{"name":"_expiryTimestamp","type":"uint256","internalType":"uint256"},{"name":"_primaryDepositSecondarySubsidyBps","type":"uint256","internalType":"uint256"},{"name":"_referralGraph","type":"address","internalType":"address"},{"name":"_rewardCalculator","type":"address","internalType":"address"},{"name":"_referralGroupId","type":"bytes32","internalType":"bytes32"}],"stateMutability":"nonpayable"},{"type":"function","name":"BPS_DENOMINATOR","inputs":[],"outputs":[{"name":"","type":"uint256","internalType":"uint256"}],"stateMutability":"view"},{"type":"function","name":"MAX_ENTRIES","inputs":[],"outputs":[{"name":"","type":"uint256","internalType":"uint256"}],"stateMutability":"view"},{"type":"function","name":"MAX_REFERRAL_PAYOUT_LEVELS","inputs":[],"outputs":[{"name":"","type":"uint256","internalType":"uint256"}],"stateMutability":"view"},{"type":"function","name":"PRICE_PRECISION","inputs":[],"outputs":[{"name":"","type":"uint256","internalType":"uint256"}],"stateMutability":"view"},{"type":"function","name":"REFERRAL_ROOT","inputs":[],"outputs":[{"name":"","type":"address","internalType":"address"}],"stateMutability":"view"},{"type":"function","name":"activateContest","inputs":[],"outputs":[],"stateMutability":"nonpayable"},{"type":"function","name":"addPrimaryPosition","inputs":[{"name":"entryId","type":"uint256","internalType":"uint256"},{"name":"merkleProof","type":"bytes32[]","internalType":"bytes32[]"}],"outputs":[],"stateMutability":"nonpayable"},{"type":"function","name":"addSecondaryPosition","inputs":[{"name":"entryId","type":"uint256","internalType":"uint256"},{"name":"amount","type":"uint256","internalType":"uint256"},{"name":"merkleProof","type":"bytes32[]","internalType":"bytes32[]"}],"outputs":[],"stateMutability":"nonpayable"},{"type":"function","name":"balanceOf","inputs":[{"name":"","type":"address","internalType":"address"},{"name":"","type":"uint256","internalType":"uint256"}],"outputs":[{"name":"","type":"uint256","internalType":"uint256"}],"stateMutability":"view"},{"type":"function","name":"balanceOfBatch","inputs":[{"name":"owners","type":"address[]","internalType":"address[]"},{"name":"ids","type":"uint256[]","internalType":"uint256[]"}],"outputs":[{"name":"balances","type":"uint256[]","internalType":"uint256[]"}],"stateMutability":"view"},{"type":"function","name":"calculateSecondaryPrice","inputs":[{"name":"entryId","type":"uint256","internalType":"uint256"}],"outputs":[{"name":"","type":"uint256","internalType":"uint256"}],"stateMutability":"view"},{"type":"function","name":"cancelContest","inputs":[],"outputs":[],"stateMutability":"nonpayable"},{"type":"function","name":"cancelExpired","inputs":[],"outputs":[],"stateMutability":"nonpayable"},{"type":"function","name":"claimPrimaryPayout","inputs":[{"name":"entryId","type":"uint256","internalType":"uint256"}],"outputs":[],"stateMutability":"nonpayable"},{"type":"function","name":"claimSecondaryPayout","inputs":[{"name":"entryId","type":"uint256","internalType":"uint256"}],"outputs":[],"stateMutability":"nonpayable"},{"type":"function","name":"closeContest","inputs":[],"outputs":[],"stateMutability":"nonpayable"},{"type":"function","name":"distributeReferralFee","inputs":[{"name":"winner","type":"address","internalType":"address"},{"name":"referralFee","type":"uint256","internalType":"uint256"}],"outputs":[],"stateMutability":"nonpayable"},{"type":"function","name":"entries","inputs":[{"name":"","type":"uint256","internalType":"uint256"}],"outputs":[{"name":"","type":"uint256","internalType":"uint256"}],"stateMutability":"view"},{"type":"function","name":"entryOwner","inputs":[{"name":"","type":"uint256","internalType":"uint256"}],"outputs":[{"name":"","type":"address","internalType":"address"}],"stateMutability":"view"},{"type":"function","name":"expiryTimestamp","inputs":[],"outputs":[{"name":"","type":"uint256","internalType":"uint256"}],"stateMutability":"view"},{"type":"function","name":"getEntriesCount","inputs":[],"outputs":[{"name":"","type":"uint256","internalType":"uint256"}],"stateMutability":"view"},{"type":"function","name":"getEntryAtIndex","inputs":[{"name":"index","type":"uint256","internalType":"uint256"}],"outputs":[{"name":"","type":"uint256","internalType":"uint256"}],"stateMutability":"view"},{"type":"function","name":"getPrimarySideBalance","inputs":[],"outputs":[{"name":"","type":"uint256","internalType":"uint256"}],"stateMutability":"view"},{"type":"function","name":"getSecondarySideBalance","inputs":[],"outputs":[{"name":"","type":"uint256","internalType":"uint256"}],"stateMutability":"view"},{"type":"function","name":"isApprovedForAll","inputs":[{"name":"","type":"address","internalType":"address"},{"name":"","type":"address","internalType":"address"}],"outputs":[{"name":"","type":"bool","internalType":"bool"}],"stateMutability":"view"},{"type":"function","name":"lockContest","inputs":[],"outputs":[],"stateMutability":"nonpayable"},{"type":"function","name":"netPosition","inputs":[{"name":"","type":"uint256","internalType":"uint256"}],"outputs":[{"name":"","type":"int256","internalType":"int256"}],"stateMutability":"view"},{"type":"function","name":"oracle","inputs":[],"outputs":[{"name":"","type":"address","internalType":"address"}],"stateMutability":"view"},{"type":"function","name":"paySecondaryClaimExternal","inputs":[{"name":"participant","type":"address","internalType":"address"},{"name":"entryId","type":"uint256","internalType":"uint256"}],"outputs":[],"stateMutability":"nonpayable"},{"type":"function","name":"paymentToken","inputs":[],"outputs":[{"name":"","type":"address","internalType":"address"}],"stateMutability":"view"},{"type":"function","name":"paymentTokenDecimals","inputs":[],"outputs":[{"name":"","type":"uint8","internalType":"uint8"}],"stateMutability":"view"},{"type":"function","name":"primaryDepositAmount","inputs":[],"outputs":[{"name":"","type":"uint256","internalType":"uint256"}],"stateMutability":"view"},{"type":"function","name":"primaryDepositSecondarySubsidyBps","inputs":[],"outputs":[{"name":"","type":"uint256","internalType":"uint256"}],"stateMutability":"view"},{"type":"function","name":"primaryMerkleRoot","inputs":[],"outputs":[{"name":"","type":"bytes32","internalType":"bytes32"}],"stateMutability":"view"},{"type":"function","name":"primaryPrizePool","inputs":[],"outputs":[{"name":"","type":"uint256","internalType":"uint256"}],"stateMutability":"view"},{"type":"function","name":"primaryPrizePoolPayouts","inputs":[{"name":"","type":"uint256","internalType":"uint256"}],"outputs":[{"name":"","type":"uint256","internalType":"uint256"}],"stateMutability":"view"},{"type":"function","name":"pushPrimaryPayouts","inputs":[{"name":"entryIds","type":"uint256[]","internalType":"uint256[]"}],"outputs":[],"stateMutability":"nonpayable"},{"type":"function","name":"pushSecondaryPayouts","inputs":[{"name":"participantAddresses","type":"address[]","internalType":"address[]"},{"name":"entryId","type":"uint256","internalType":"uint256"}],"outputs":[],"stateMutability":"nonpayable"},{"type":"function","name":"referralGraph","inputs":[],"outputs":[{"name":"","type":"address","internalType":"address"}],"stateMutability":"view"},{"type":"function","name":"referralGroupId","inputs":[],"outputs":[{"name":"","type":"bytes32","internalType":"bytes32"}],"stateMutability":"view"},{"type":"function","name":"referralNetworkBps","inputs":[],"outputs":[{"name":"","type":"uint256","internalType":"uint256"}],"stateMutability":"view"},{"type":"function","name":"removePrimaryPosition","inputs":[{"name":"entryId","type":"uint256","internalType":"uint256"}],"outputs":[],"stateMutability":"nonpayable"},{"type":"function","name":"removeSecondaryPosition","inputs":[{"name":"entryId","type":"uint256","internalType":"uint256"},{"name":"tokenAmount","type":"uint256","internalType":"uint256"}],"outputs":[],"stateMutability":"nonpayable"},{"type":"function","name":"rewardCalculator","inputs":[],"outputs":[{"name":"","type":"address","internalType":"address"}],"stateMutability":"view"},{"type":"function","name":"safeBatchTransferFrom","inputs":[{"name":"","type":"address","internalType":"address"},{"name":"","type":"address","internalType":"address"},{"name":"","type":"uint256[]","internalType":"uint256[]"},{"name":"","type":"uint256[]","internalType":"uint256[]"},{"name":"","type":"bytes","internalType":"bytes"}],"outputs":[],"stateMutability":"pure"},{"type":"function","name":"safeTransferFrom","inputs":[{"name":"","type":"address","internalType":"address"},{"name":"","type":"address","internalType":"address"},{"name":"","type":"uint256","internalType":"uint256"},{"name":"","type":"uint256","internalType":"uint256"},{"name":"","type":"bytes","internalType":"bytes"}],"outputs":[],"stateMutability":"pure"},{"type":"function","name":"secondaryDepositedPerEntry","inputs":[{"name":"","type":"address","internalType":"address"},{"name":"","type":"uint256","internalType":"uint256"}],"outputs":[{"name":"","type":"uint256","internalType":"uint256"}],"stateMutability":"view"},{"type":"function","name":"secondaryLiquidityPerEntry","inputs":[{"name":"","type":"uint256","internalType":"uint256"}],"outputs":[{"name":"","type":"uint256","internalType":"uint256"}],"stateMutability":"view"},{"type":"function","name":"secondaryMarketResolved","inputs":[],"outputs":[{"name":"","type":"bool","internalType":"bool"}],"stateMutability":"view"},{"type":"function","name":"secondaryMerkleRoot","inputs":[],"outputs":[{"name":"","type":"bytes32","internalType":"bytes32"}],"stateMutability":"view"},{"type":"function","name":"secondaryPrimarySubsidyPerEntry","inputs":[{"name":"","type":"uint256","internalType":"uint256"}],"outputs":[{"name":"","type":"uint256","internalType":"uint256"}],"stateMutability":"view"},{"type":"function","name":"secondaryWinningEntry","inputs":[],"outputs":[{"name":"","type":"uint256","internalType":"uint256"}],"stateMutability":"view"},{"type":"function","name":"setApprovalForAll","inputs":[{"name":"","type":"address","internalType":"address"},{"name":"","type":"bool","internalType":"bool"}],"outputs":[],"stateMutability":"pure"},{"type":"function","name":"setPrimaryMerkleRoot","inputs":[{"name":"_root","type":"bytes32","internalType":"bytes32"}],"outputs":[],"stateMutability":"nonpayable"},{"type":"function","name":"setSecondaryMerkleRoot","inputs":[{"name":"_root","type":"bytes32","internalType":"bytes32"}],"outputs":[],"stateMutability":"nonpayable"},{"type":"function","name":"settleContest","inputs":[{"name":"winningEntries","type":"uint256[]","internalType":"uint256[]"},{"name":"payoutBps","type":"uint256[]","internalType":"uint256[]"}],"outputs":[],"stateMutability":"nonpayable"},{"type":"function","name":"state","inputs":[],"outputs":[{"name":"","type":"uint8","internalType":"enum ContestController.ContestState"}],"stateMutability":"view"},{"type":"function","name":"supportsInterface","inputs":[{"name":"interfaceId","type":"bytes4","internalType":"bytes4"}],"outputs":[{"name":"","type":"bool","internalType":"bool"}],"stateMutability":"view"},{"type":"function","name":"totalSecondaryLiquidity","inputs":[],"outputs":[{"name":"sum","type":"uint256","internalType":"uint256"}],"stateMutability":"view"},{"type":"function","name":"uri","inputs":[{"name":"","type":"uint256","internalType":"uint256"}],"outputs":[{"name":"","type":"string","internalType":"string"}],"stateMutability":"pure"},{"type":"event","name":"ApprovalForAll","inputs":[{"name":"owner","type":"address","indexed":true,"internalType":"address"},{"name":"operator","type":"address","indexed":true,"internalType":"address"},{"name":"approved","type":"bool","indexed":false,"internalType":"bool"}],"anonymous":false},{"type":"event","name":"ContestActivated","inputs":[],"anonymous":false},{"type":"event","name":"ContestCancelled","inputs":[],"anonymous":false},{"type":"event","name":"ContestClosed","inputs":[],"anonymous":false},{"type":"event","name":"ContestLocked","inputs":[],"anonymous":false},{"type":"event","name":"ContestSettled","inputs":[{"name":"winningEntries","type":"uint256[]","indexed":false,"internalType":"uint256[]"},{"name":"payouts","type":"uint256[]","indexed":false,"internalType":"uint256[]"}],"anonymous":false},{"type":"event","name":"PrimaryMerkleRootUpdated","inputs":[{"name":"newRoot","type":"bytes32","indexed":false,"internalType":"bytes32"}],"anonymous":false},{"type":"event","name":"PrimaryPayoutClaimed","inputs":[{"name":"owner","type":"address","indexed":true,"internalType":"address"},{"name":"entryId","type":"uint256","indexed":true,"internalType":"uint256"},{"name":"amount","type":"uint256","indexed":false,"internalType":"uint256"}],"anonymous":false},{"type":"event","name":"PrimaryPositionAdded","inputs":[{"name":"owner","type":"address","indexed":true,"internalType":"address"},{"name":"entryId","type":"uint256","indexed":true,"internalType":"uint256"}],"anonymous":false},{"type":"event","name":"PrimaryPositionAdded","inputs":[{"name":"owner","type":"address","indexed":true,"internalType":"address"},{"name":"entryId","type":"uint256","indexed":true,"internalType":"uint256"}],"anonymous":false},{"type":"event","name":"PrimaryPositionRemoved","inputs":[{"name":"entryId","type":"uint256","indexed":true,"internalType":"uint256"},{"name":"owner","type":"address","indexed":true,"internalType":"address"}],"anonymous":false},{"type":"event","name":"PrimaryPositionRemoved","inputs":[{"name":"entryId","type":"uint256","indexed":true,"internalType":"uint256"},{"name":"owner","type":"address","indexed":true,"internalType":"address"}],"anonymous":false},{"type":"event","name":"ReferralNetworkFeeDistributed","inputs":[{"name":"winner","type":"address","indexed":true,"internalType":"address"},{"name":"payoutAnchor","type":"address","indexed":true,"internalType":"address"},{"name":"amount","type":"uint256","indexed":false,"internalType":"uint256"},{"name":"recipients","type":"address[]","indexed":false,"internalType":"address[]"},{"name":"amounts","type":"uint256[]","indexed":false,"internalType":"uint256[]"}],"anonymous":false},{"type":"event","name":"ReferralNetworkFeeToOracle","inputs":[{"name":"winner","type":"address","indexed":true,"internalType":"address"},{"name":"amount","type":"uint256","indexed":false,"internalType":"uint256"}],"anonymous":false},{"type":"event","name":"SecondaryMerkleRootUpdated","inputs":[{"name":"newRoot","type":"bytes32","indexed":false,"internalType":"bytes32"}],"anonymous":false},{"type":"event","name":"SecondaryPayoutClaimed","inputs":[{"name":"participant","type":"address","indexed":true,"internalType":"address"},{"name":"entryId","type":"uint256","indexed":true,"internalType":"uint256"},{"name":"payout","type":"uint256","indexed":false,"internalType":"uint256"}],"anonymous":false},{"type":"event","name":"SecondaryPositionAdded","inputs":[{"name":"participant","type":"address","indexed":true,"internalType":"address"},{"name":"entryId","type":"uint256","indexed":true,"internalType":"uint256"},{"name":"amount","type":"uint256","indexed":false,"internalType":"uint256"},{"name":"participantTokensReceived","type":"uint256","indexed":false,"internalType":"uint256"}],"anonymous":false},{"type":"event","name":"SecondaryPositionAdded","inputs":[{"name":"participant","type":"address","indexed":true,"internalType":"address"},{"name":"entryId","type":"uint256","indexed":true,"internalType":"uint256"},{"name":"amount","type":"uint256","indexed":false,"internalType":"uint256"},{"name":"participantTokensReceived","type":"uint256","indexed":false,"internalType":"uint256"}],"anonymous":false},{"type":"event","name":"SecondaryPositionSold","inputs":[{"name":"participant","type":"address","indexed":true,"internalType":"address"},{"name":"entryId","type":"uint256","indexed":true,"internalType":"uint256"},{"name":"tokenAmount","type":"uint256","indexed":false,"internalType":"uint256"},{"name":"proceeds","type":"uint256","indexed":false,"internalType":"uint256"}],"anonymous":false},{"type":"event","name":"SecondaryPositionSold","inputs":[{"name":"participant","type":"address","indexed":true,"internalType":"address"},{"name":"entryId","type":"uint256","indexed":true,"internalType":"uint256"},{"name":"tokenAmount","type":"uint256","indexed":false,"internalType":"uint256"},{"name":"proceeds","type":"uint256","indexed":false,"internalType":"uint256"}],"anonymous":false},{"type":"event","name":"TransferBatch","inputs":[{"name":"operator","type":"address","indexed":true,"internalType":"address"},{"name":"from","type":"address","indexed":true,"internalType":"address"},{"name":"to","type":"address","indexed":true,"internalType":"address"},{"name":"ids","type":"uint256[]","indexed":false,"internalType":"uint256[]"},{"name":"amounts","type":"uint256[]","indexed":false,"internalType":"uint256[]"}],"anonymous":false},{"type":"event","name":"TransferSingle","inputs":[{"name":"operator","type":"address","indexed":true,"internalType":"address"},{"name":"from","type":"address","indexed":true,"internalType":"address"},{"name":"to","type":"address","indexed":true,"internalType":"address"},{"name":"id","type":"uint256","indexed":false,"internalType":"uint256"},{"name":"amount","type":"uint256","indexed":false,"internalType":"uint256"}],"anonymous":false},{"type":"event","name":"URI","inputs":[{"name":"value","type":"string","indexed":false,"internalType":"string"},{"name":"id","type":"uint256","indexed":true,"internalType":"uint256"}],"anonymous":false}],"bytecode":{"object":"0x6101c080604052346102c35761012081614a798038038091610021828561049f565b8339810103126102c357610034816104d6565b90610041602082016104d6565b6040820151606083015160808401519060a08501519261006360c087016104d6565b9461010061007360e089016104d6565b9701516001600255976001600160a01b03811690811561045a576001600160a01b03831615610424576103e885116103df57428611156103a9576127108711610364576001600160a01b0388161561031f576001600160a01b038916156102da5760805260405163313ce56760e01b815290602090829060049082905afa9081156102cf575f9161028f575b5060a05260c05260e05261010052610120526101405261016052610180526101a05260ff196003541660035560405161458e90816104eb823960805181818161080001528181610fbd015281816112d30152818161164f0152818161198c01528181611bd001528181611e25015281816122c70152818161259901528181612fe4015281816130c80152818161319201526135eb015260a051818181610882015261250d015260c05181818161052c015281816105fa015281816108e301528181610b760152818161144501528181611549015281816118d401528181611dc40152818161202401528181612411015281816130a70152613171015260e0518181816115c70152818161170101526122640152610100518181816108460152610c3e01526101205181818161182b0152818161194801528181611b060152818161220f01526124bf0152610140518181816106dc0152613c44015261016051818181611ac00152612e3c0152610180518181816117cd0152612f1201526101a0518181816116930152612e100152f35b90506020813d6020116102c7575b816102aa6020938361049f565b810103126102c3575160ff811681036102c3575f6100ff565b5f80fd5b3d915061029d565b6040513d5f823e3d90fd5b60405162461bcd60e51b815260206004820152601960248201527f496e76616c6964207265776172642063616c63756c61746f72000000000000006044820152606490fd5b60405162461bcd60e51b815260206004820152601660248201527f496e76616c696420726566657272616c206772617068000000000000000000006044820152606490fd5b60405162461bcd60e51b815260206004820152601460248201527f537562736964792062707320746f6f20686967680000000000000000000000006044820152606490fd5b60405162461bcd60e51b815260206004820152600e60248201526d115e1c1a5c9e481a5b881c185cdd60921b6044820152606490fd5b60405162461bcd60e51b815260206004820152601d60248201527f526566657272616c206e6574776f726b2066656520746f6f20686967680000006044820152606490fd5b60405162461bcd60e51b815260206004820152600e60248201526d496e76616c6964206f7261636c6560901b6044820152606490fd5b60405162461bcd60e51b815260206004820152601560248201527f496e76616c6964207061796d656e7420746f6b656e00000000000000000000006044820152606490fd5b601f909101601f19168101906001600160401b038211908210176104c257604052565b634e487b7160e01b5f52604160045260245ffd5b51906001600160a01b03821682036102c35756fe60806040526004361015610011575f80fd5b5f3560e01c8062fdd58e146103c957806301ffc9a7146103c45780630e89341c146103bf5780631db0e667146103ba57806324f9cc4c146103b55780632da6a967146103b05780632eb2c2d6146103ab5780633013ce29146103a6578063309d79c5146103a1578063325cd7961461039c5780633789a2fb146103975780633a2babc2146103925780634034b0601461038d5780634e1273f414610388578063563930e7146103835780635d3581f11461037e5780635dcdbc45146103795780636932b382146103745780636c5477671461036f57806374d342141461036a57806375f25006146103655780637680a51e146103015780637d4cb964146103605780637dc0d1d01461035b5780637e8f123414610356578063853999cf146103515780639080b6931461034c578063933b1282146103475780639455937a146102cf57806395082d251461034257806396769e891461033d5780639a9a5d9d14610338578063a01e4a1f14610333578063a094c6321461032e578063a22cb46514610329578063a69dbf0314610324578063ade6e2aa1461031f578063ae4c8ba91461031a578063af19e0d514610315578063af1d919714610310578063b30906d41461030b578063b48e94ce14610306578063b9937e3014610301578063ba594751146102fc578063bf6bbf09146102f7578063c19d93fb146102f2578063c8d22700146102ed578063c8d5c1b1146102e8578063c9a496aa146102e3578063d09685b0146102de578063d6a74ce0146102d9578063df1ef4c6146102d4578063e08a1a42146102cf578063e1a45218146102ca578063e1db226a146102c5578063e985e9c5146102c0578063ed4af81f146102bb578063f242432a146102b6578063fc8c28e1146102b15763fed76325146102ac575f80fd5b61244c565b6123d4565b61238e565b612371565b612312565b61219f565b612183565b611724565b612151565b611fea565b611fcd565b611f5b565b611f31565b611d8e565b611d65565b611d12565b611cf7565b6114fb565b611ccd565b611c90565b611c42565b611b4b565b611b29565b611aef565b611aab565b611a80565b6118c2565b611819565b6117fc565b6117b8565b61179b565b6116ea565b6116b6565b61167c565b611578565b611534565b611518565b61142f565b6111d6565b6111ac565b611182565b611167565b61113e565b610b65565b610a97565b610966565b61091e565b6108a6565b610869565b61082f565b6107eb565b61075c565b6106c5565b6105e4565b610516565b6104cf565b61043d565b6103e3565b6001600160a01b038116036103df57565b5f80fd5b346103df5760403660031901126103df57600435610400816103ce565b6001600160a01b03165f90815260208181526040808320602435845282529182902054915191825290f35b6001600160e01b03198116036103df57565b346103df5760203660031901126103df57602060043561045c8161042b565b63ffffffff60e01b166301ffc9a760e01b811490811561049a575b8115610489575b506040519015158152f35b6303a24d0760e21b1490505f61047e565b636cdb3d1360e11b81149150610477565b805180835260209291819084018484015e5f828201840152601f01601f1916010190565b346103df5760203660031901126103df576105086040516104f16020826125f6565b5f81526040519182916020835260208301906104ab565b0390f35b5f9103126103df57565b346103df575f3660031901126103df5761055a337f00000000000000000000000000000000000000000000000000000000000000006001600160a01b031614612630565b60035460ff81169060068210156105d057600361058092141590816105b8575b50612669565b610592600460ff196003541617600355565b7f9237e8f0d5063a695b8695e82c82bc24d15591de9d04449771a6ea4b128317375f80a1005b6005915060ff166105c881611d5b565b14155f61057a565b634e487b7160e01b5f52602160045260245ffd5b346103df575f3660031901126103df57610628337f00000000000000000000000000000000000000000000000000000000000000006001600160a01b031614612630565b60ff6003541660068110156105d0576106805761064860045415156126b5565b61065a600160ff196003541617600355565b7f3927b788a62eb53f7192cd9286f49295f01b938b6afc23aef0af5d035cd853165f80a1005b60405162461bcd60e51b815260206004820152601760248201527f436f6e7465737420616c726561647920737461727465640000000000000000006044820152606490fd5b346103df575f3660031901126103df5760206040517f00000000000000000000000000000000000000000000000000000000000000008152f35b9181601f840112156103df578235916001600160401b0383116103df576020808501948460051b0101116103df57565b9181601f840112156103df578235916001600160401b0383116103df57602083818601950101116103df57565b346103df5760a03660031901126103df576107786004356103ce565b6107836024356103ce565b6044356001600160401b0381116103df576107a29036906004016106ff565b50506064356001600160401b0381116103df576107c39036906004016106ff565b50506084356001600160401b0381116103df576107e490369060040161072f565b50506126ee565b346103df575f3660031901126103df576040517f00000000000000000000000000000000000000000000000000000000000000006001600160a01b03168152602090f35b346103df575f3660031901126103df5760206040517f00000000000000000000000000000000000000000000000000000000000000008152f35b346103df575f3660031901126103df57602060405160ff7f0000000000000000000000000000000000000000000000000000000000000000168152f35b346103df5760203660031901126103df577fa2877b861a6a177d8c1a4430a6f8716104652f70e5c8fbd58aa775ef96da4a526020600435610911337f00000000000000000000000000000000000000000000000000000000000000006001600160a01b031614612630565b80601055604051908152a1005b346103df5760203660031901126103df576004355f52600a60205260405f20545f81135f1461095a576109526020916134b9565b604051908152f35b5060206109525f6134b9565b346103df5760203660031901126103df57600435610988600160025414612728565b60028055335f525f60205260405f20815f5260205260405f20549060ff6003541660068110156105d0576109f4926109d1916109c6600f5460ff1690565b90600e5492856134f9565b6109ee6109e6825f52600a60205260405f2090565b541515612761565b33613568565b6109fe6001600255565b005b60406003198201126103df576004356001600160401b0381116103df5781610a2a916004016106ff565b92909291602435906001600160401b0382116103df57610a4c916004016106ff565b9091565b90602080835192838152019201905f5b818110610a6d5750505090565b8251845260209384019390920191600101610a60565b906020610a94928181520190610a50565b90565b346103df57610aa536610a00565b8083949303610b2e57610ab7846127b0565b935f5b818110610acf57604051806105088882610a83565b80610b1c610b04610aeb610ae6600195878b6127eb565b6127fb565b6001600160a01b03165f90815260208190526040902090565b610b0f8387896127eb565b355f5260205260405f2090565b54610b278289612805565b5201610aba565b60405162461bcd60e51b815260206004820152600f60248201526e0988a9c8ea890be9a92a69a82a8869608b1b6044820152606490fd5b346103df57610b7336610a00565b927f00000000000000000000000000000000000000000000000000000000000000009291610bab336001600160a01b03861614612630565b610bb9600160025414612728565b60028055610bdd6002610bce60035460ff1690565b610bd781611d5b565b14612819565b610be883151561285a565b610bf38584146128a6565b600454610c02818511156128ea565b5f805b8781106110b45750612710610c1a9114612a3c565b600754945f915f905b808210611063575050610c368287612997565b5f96612710917f0000000000000000000000000000000000000000000000000000000000000000908115158061105a575b611027575b505081610c8a610c82610c9094610c8294612ab8565b612710900490565b94612ab8565b9580610f0b575b5050610caa600360ff1981541617600355565b610cb381600755565b825f5b8786808310610ec657915050610cd69250610cd0916127e2565b35600e55565b610ce8600160ff19600f541617600f55565b5f5b600454811015610d3a57805f610d33610d11610d07600195611c73565b90549060031b1c90565b82610d24825f52600b60205260405f2090565b555f52600c60205260405f2090565b5501610cea565b508493610d51600e545f52600b60205260405f2090565b55600e54610d67815f52600a60205260405f2090565b5490610d7b815f52600b60205260405f2090565b54918215159081610ebd575b50610dce575b50507f0fed27f5e3cd741c181cc0d3b0c47df2013638faa8b7aa7084de3946098eb78e93610dc19160405194859485612b8f565b0390a16109fe6001600255565b5f908152600b60205260408120555f805b858110610e5b57509181837f0fed27f5e3cd741c181cc0d3b0c47df2013638faa8b7aa7084de3946098eb78e9793610dc19510610e22575b505091819550610d8d565b610e2b91612b16565b610e52610e4a610e3b88886127e2565b355f52600860205260405f2090565b918254612997565b90558680610e17565b90610e678287876127eb565b3591610e81610c82610e7a838b896127eb565b3586612ab8565b80610e93575b50600191925001610ddf565b610eb4610e4a610ea583600196612997565b955f52600860205260405f2090565b90558291610e87565b90501587610d87565b610e4a610ef2610c82610eeb86610ee381610f019760019b6127eb565b35968b6127eb565b3588612ab8565b925f52600860205260405f2090565b9055018390610cb6565b610f37610f2a610f1b88886127e2565b355f52600660205260405f2090565b546001600160a01b031690565b6001600160a01b0381169290610f4e841515612b23565b303b156103df57604051635d3581f160e01b81526001600160a01b03919091166004820152602481018390525f8160448183305af1908161100d575b50611005577f29f8dbc55e5e4360f3c59ce726d91cdc67db886965c1b3c00cabed616cb3aa1191610ffa91610fea9082907f00000000000000000000000000000000000000000000000000000000000000006001600160a01b031661376c565b6040519081529081906020820190565b0390a25b5f80610c97565b505050610ffe565b8061101b5f611021936125f6565b8061050c565b5f610f8a565b819950610c909350610c8261104f611049610c82610c829695610c8a95612ab8565b9b612ae9565b945050819250610c6c565b50801515610c67565b90926110ac6001916110a661107a610d0788611c73565b61109f61108f825f52600b60205260405f2090565b54915f52600c60205260405f2090565b5490612997565b90612997565b930190610c23565b906110e1906110cf6110c7848b886127eb565b351515612929565b6110da838a876127eb565b3590612997565b906110ed8187876127eb565b3561110b611103825f52600560205260405f2090565b5415156129a4565b5f5b82811061111e575050600101610c05565b80611138836111306001948c8c6127eb565b3514156129f0565b0161110d565b346103df5760403660031901126103df576109fe60043561115e816103ce565b60243590612de6565b346103df575f3660031901126103df576020604051600a8152f35b346103df5760203660031901126103df576004355f52600a602052602060405f2054604051908152f35b346103df5760203660031901126103df576004355f52600c602052602060405f2054604051908152f35b346103df5760403660031901126103df576004356024356111fb600160025414612728565b60028055335f9081526020819052604090206112219083905b905f5260205260405f2090565b5461124161123160035460ff1690565b61123a81611d5b565b828461383d565b611253835f52600a60205260405f2090565b5461125f811515612761565b611271845f52600b60205260405f2090565b54335f908152600d6020526040902061128b908690611214565b545f93816113f3575b505060046112a460035460ff1690565b6112ad81611d5b565b036113d9575050905b6040516370a0823160e01b81523060048201526001600160a01b037f0000000000000000000000000000000000000000000000000000000000000000169190602081602481865afa9081156113d4575f916113a5575b5080841161139b575b50828161132661132d938733613908565b338661396d565b8161133c576109fe6001600255565b8282611353611380955f52600b60205260405f2090565b54106113885761136b905f52600b60205260405f2090565b611376838254612b16565b90555b339061376c565b5f80806109f4565b5f908152600b6020526040812055611379565b925061132d611315565b6113c7915060203d6020116113cd575b6113bf81836125f6565b8101906131fa565b5f61130c565b503d6113b5565b612b60565b6113ed92506113e89084612ab8565b612acb565b906112b6565b819450611407906113e88761140e94612ab8565b8094612b16565b335f908152600d60205260409020611427908790611214565b555f80611294565b346103df575f3660031901126103df57611473337f00000000000000000000000000000000000000000000000000000000000000006001600160a01b031614612630565b60ff6003541660068110156105d0576001036114c15761149b600260ff196003541617600355565b7fca4f15905dfed40aa7885e1be889ff7da045bd49fc916c3a40cf8b0a3db7636a5f80a1005b60405162461bcd60e51b8152602060048201526012602482015271436f6e74657374206e6f742061637469766560701b6044820152606490fd5b346103df575f3660031901126103df576020600754604051908152f35b346103df575f3660031901126103df5760206040516101f48152f35b346103df575f3660031901126103df576040517f00000000000000000000000000000000000000000000000000000000000000006001600160a01b03168152602090f35b346103df5760203660031901126103df5760043561159a600160025414612728565b6002805560ff600354169060068210156105d0576115bc6109f4923383613a0a565b61161161164a6116427f0000000000000000000000000000000000000000000000000000000000000000936116166116076115f78784613aaf565b509661160284613b61565b613c3c565b9590600754612b16565b600755565b6116348461162c835f52600c60205260405f2090565b541015613209565b5f52600c60205260405f2090565b918254612b16565b9055337f00000000000000000000000000000000000000000000000000000000000000006001600160a01b031661376c565b346103df575f3660031901126103df5760206040517f00000000000000000000000000000000000000000000000000000000000000008152f35b346103df5760403660031901126103df576109fe6004356116d6816103ce565b602435906116e5303314612bb6565b613568565b346103df575f3660031901126103df5760206040517f00000000000000000000000000000000000000000000000000000000000000008152f35b346103df575f3660031901126103df575f80600454905b8183101561179057825f805160206145398339815191520154805f52600b60205260405f2054905f52600c60205260405f2054810180911161178b57810180911161178b5760019092019161173b565b612975565b602090604051908152f35b346103df575f3660031901126103df576020604051620f42408152f35b346103df575f3660031901126103df576040517f00000000000000000000000000000000000000000000000000000000000000006001600160a01b03168152602090f35b346103df575f3660031901126103df576020601054604051908152f35b346103df575f3660031901126103df577f0000000000000000000000000000000000000000000000000000000000000000421061188f5761058061185f60035460ff1690565b61186881611d5b565b6003811415908161187a575b50613249565b6005915061188781611d5b565b14155f611874565b60405162461bcd60e51b815260206004820152600b60248201526a139bdd08195e1c1a5c995960aa1b6044820152606490fd5b346103df575f3660031901126103df577f0000000000000000000000000000000000000000000000000000000000000000611907336001600160a01b03831614612630565b611915600160025414612728565b6002805561194361192860035460ff1690565b61193181611d5b565b60038114908115611a6c575b50613287565b61196f7f00000000000000000000000000000000000000000000000000000000000000004210156132c8565b6040516370a0823160e01b81523060048201526001600160a01b037f00000000000000000000000000000000000000000000000000000000000000001691602082602481865afa9182156113d4575f92611a4b575b50816119d4576109fe6001600255565b6119dd5f600755565b5f5b600454811015611a0357805f6119fc610d11610d07600195611c73565b55016119df565b50611a1f92611a1a600560ff196003541617600355565b61376c565b7fef19c40e684c836035e6598f5d86819dfec89371571efdeed7947339739711435f80a15f80806109f4565b611a6591925060203d6020116113cd576113bf81836125f6565b905f6119c4565b60049150611a7981611d5b565b145f61193d565b346103df5760403660031901126103df57611a9c6004356103ce565b602435801515146126ee575f80fd5b346103df575f3660031901126103df576040517f00000000000000000000000000000000000000000000000000000000000000006001600160a01b03168152602090f35b346103df575f3660031901126103df5760206040517f00000000000000000000000000000000000000000000000000000000000000008152f35b346103df575f3660031901126103df57602060ff600f54166040519015158152f35b346103df5760203660031901126103df57600435611b6d600160025414612728565b6002805560ff6003541660068110156105d057611b9f90611b96835f52600860205260405f2090565b54903384613c78565b5f81815260086020526040812080549190556007548111611c3457611bc961161182600754612b16565b611bfd81337f00000000000000000000000000000000000000000000000000000000000000006001600160a01b031661376c565b60405190815233907e89742e8fcde5f6c48a17ec50347f2b2d98d85a17abe162b4cd552516f752dd90602090a36109fe6001600255565b611c3d5f600755565b611bc9565b346103df575f3660031901126103df576020600e54604051908152f35b634e487b7160e01b5f52603260045260245ffd5b600454811015611c8b5760045f5260205f2001905f90565b611c5f565b346103df5760203660031901126103df576004356004548110156103df5760209060045f525f805160206145398339815191520154604051908152f35b346103df5760203660031901126103df576004355f52600b602052602060405f2054604051908152f35b346103df575f3660031901126103df57602060405160018152f35b346103df5760403660031901126103df57600435611d2f816103ce565b6024359060018060a01b03165f52600d60205260405f20905f52602052602060405f2054604051908152f35b600611156105d057565b346103df575f3660031901126103df5760ff6003541660405160068210156105d0576020918152f35b346103df5760203660031901126103df576004356001600160401b0381116103df57611dbe9036906004016106ff565b611df2337f00000000000000000000000000000000000000000000000000000000000000006001600160a01b031614612630565b611e00600160025414612728565b60028055611e236003611e14815460ff1690565b611e1d81611d5b565b14613309565b7f00000000000000000000000000000000000000000000000000000000000000006001600160a01b03165f5b828110611e60576109fe6001600255565b80611e6e60019285876127eb565b35611e84610f2a825f52600660205260405f2090565b838060a01b038116908115611f2957611ea5835f52600860205260405f2090565b54908115611f205781610fea7e89742e8fcde5f6c48a17ec50347f2b2d98d85a17abe162b4cd552516f752dd93611f08935f611ee9895f52600860205260405f2090565b556007548211611f1257611f0261161183600754612b16565b8a61376c565b0390a35b01611e4f565b611f1b5f600755565b611f02565b50505050611f0c565b505050611f0c565b346103df5760203660031901126103df576004355f526008602052602060405f2054604051908152f35b346103df5760203660031901126103df57600435600454811015611f985760045f525f805160206145398339815191520154604051908152602090f35b60405162461bcd60e51b815260206004820152600d60248201526c092dcecc2d8d2c840d2dcc8caf609b1b6044820152606490fd5b346103df575f3660031901126103df576020600454604051908152f35b346103df5760403660031901126103df576004356001600160401b0381116103df5761201a9036906004016106ff565b60243591612052337f00000000000000000000000000000000000000000000000000000000000000006001600160a01b031614612630565b612060600160025414612728565b600280556120746003611e14815460ff1690565b612088612083600f5460ff1690565b61334b565b612095600e54841461338d565b6120aa6109e6845f52600a60205260405f2090565b5f5b8281106120bd576109fe6001600255565b6120cb610ae68285856127eb565b906120e9856112148460018060a01b03165f525f60205260405f2090565b541561214857303b156103df57604051639080b69360e01b81526001600160a01b03929092166004830152602482018590526001915f8160448183305af1612134575b505b016120ac565b8061101b5f612142936125f6565b5f61212c565b6001915061212e565b346103df5760203660031901126103df576004355f526006602052602060018060a01b0360405f205416604051908152f35b346103df575f3660031901126103df5760206040516127108152f35b346103df5760403660031901126103df576024356004356001600160401b0382116103df576121f56121d86109f49336906004016106ff565b906121e7600160025414612728565b600280556009543390613d26565b61223461220460035460ff1690565b61220d81611d5b565b7f000000000000000000000000000000000000000000000000000000000000000083613e07565b612250612249825f52600560205260405f2090565b54156133cd565b61225f6101f460045410613410565b6116117f00000000000000000000000000000000000000000000000000000000000000009161228e3382613eaa565b6004546122a3825f52600560205260405f2090565b556122ba6122b084613c3c565b9390600754612997565b816122f4575b50309050337f00000000000000000000000000000000000000000000000000000000000000006001600160a01b0316613f31565b610e4a612309915f52600c60205260405f2090565b90555f806122c0565b346103df5760403660031901126103df5760043561232f816103ce565b6024359061233c826103ce565b60018060a01b03165f52600160205260405f209060018060a01b03165f52602052602060ff60405f2054166040519015158152f35b346103df575f3660031901126103df576020600954604051908152f35b346103df5760a03660031901126103df576123aa6004356103ce565b6123b56024356103ce565b6084356001600160401b0381116103df576107e490369060040161072f565b346103df5760203660031901126103df577f1f3ffb5a38f057a21fbb6b9c891954827a2657844fbc0ae99188cce46f059e2b602060043561243f337f00000000000000000000000000000000000000000000000000000000000000006001600160a01b031614612630565b80600955604051908152a1005b346103df5760603660031901126103df576044356004356024356001600160401b0383116103df576124a56124886109f49436906004016106ff565b90612497600160025414612728565b600280556010543390613d26565b6124e56124b460035460ff1690565b6124bd81611d5b565b7f00000000000000000000000000000000000000000000000000000000000000008385614025565b6124f7825f52600a60205260405f2090565b545f8113156125d5576125386125c6915b6125327f0000000000000000000000000000000000000000000000000000000000000000856140c7565b90614165565b91612544831515613452565b612556845f52600b60205260405f2090565b612561828254612997565b905561256f83823387614270565b335f908152600d60205260409020612588908590611214565b612593828254612997565b905530337f00000000000000000000000000000000000000000000000000000000000000006001600160a01b0316613f31565b6125ce61261c565b9133614364565b506125c66125385f612508565b634e487b7160e01b5f52604160045260245ffd5b90601f801991011681019081106001600160401b0382111761261757604052565b6125e2565b6040519061262b6020836125f6565b5f8252565b1561263757565b60405162461bcd60e51b815260206004820152600a6024820152694e6f74206f7261636c6560b01b6044820152606490fd5b1561267057565b60405162461bcd60e51b815260206004820152601f60248201527f436f6e7465737420736574746c6564202d2063616e6e6f742063616e63656c006044820152606490fd5b156126bc57565b60405162461bcd60e51b815260206004820152600a6024820152694e6f20656e747269657360b01b6044820152606490fd5b60405162461bcd60e51b8152602060048201526012602482015271151c985b9cd9995c9cc8191a5cd8589b195960721b6044820152606490fd5b1561272f57565b60405162461bcd60e51b815260206004820152600a6024820152695245454e5452414e435960b01b6044820152606490fd5b1561276857565b60405162461bcd60e51b81526020600482015260096024820152684e6f20737570706c7960b81b6044820152606490fd5b6001600160401b0381116126175760051b60200190565b906127ba82612799565b6127c760405191826125f6565b82815280926127d8601f1991612799565b0190602036910137565b9015611c8b5790565b9190811015611c8b5760051b0190565b35610a94816103ce565b8051821015611c8b5760209160051b010190565b1561282057565b60405162461bcd60e51b815260206004820152601260248201527110dbdb9d195cdd081b9bdd081b1bd8dad95960721b6044820152606490fd5b1561286157565b60405162461bcd60e51b815260206004820152601d60248201527f4d7573742068617665206174206c65617374206f6e652077696e6e65720000006044820152606490fd5b156128ad57565b60405162461bcd60e51b8152602060048201526015602482015274082e4e4c2f240d8cadccee8d040dad2e6dac2e8c6d605b1b6044820152606490fd5b156128f157565b60405162461bcd60e51b815260206004820152601060248201526f546f6f206d616e792077696e6e65727360801b6044820152606490fd5b1561293057565b60405162461bcd60e51b815260206004820152601960248201527f557365206e6f6e2d7a65726f207061796f757473206f6e6c79000000000000006044820152606490fd5b634e487b7160e01b5f52601160045260245ffd5b906001820180921161178b57565b9190820180921161178b57565b156129ab57565b60405162461bcd60e51b815260206004820152601a60248201527f57696e6e6572206e6f7420616e2061637469766520656e7472790000000000006044820152606490fd5b156129f757565b60405162461bcd60e51b815260206004820152601760248201527f4475706c69636174652077696e6e696e6720656e7472790000000000000000006044820152606490fd5b15612a4357565b60405162461bcd60e51b815260206004820152601860248201527f5061796f757473206d7573742073756d20746f203130302500000000000000006044820152606490fd5b90620f4240820291808304620f4240149015171561178b57565b908160011b918083046002149015171561178b57565b8181029291811591840414171561178b57565b8115612ad5570490565b634e487b7160e01b5f52601260045260245ffd5b6127100390612710821161178b57565b5f1981019190821161178b57565b60111981019190821161178b57565b9190820391821161178b57565b15612b2a57565b60405162461bcd60e51b815260206004820152600e60248201526d24b73b30b634b2103bb4b73732b960911b6044820152606490fd5b6040513d5f823e3d90fd5b81835290916001600160fb1b0383116103df5760209260051b809284830137010190565b9290612ba890610a949593604086526040860191612b6b565b926020818503910152612b6b565b15612bbd57565b60405162461bcd60e51b815260206004820152600960248201526827b7363c9039b2b63360b91b6044820152606490fd5b908160209103126103df5751610a94816103ce565b6020818303126103df578051906001600160401b0382116103df57019080601f830112156103df578151612c3681612799565b92612c4460405194856125f6565b81845260208085019260051b8201019283116103df57602001905b828210612c6c5750505090565b602080918351612c7b816103ce565b815201910190612c5f565b6020818303126103df578051906001600160401b0382116103df57019080601f830112156103df578151612cb981612799565b92612cc760405194856125f6565b81845260208085019260051b8201019283116103df57602001905b828210612cef5750505090565b8151815260209182019101612ce2565b15612d0657565b60405162461bcd60e51b81526020600482015260166024820152750a4caeec2e4c840d8cadccee8d040dad2e6dac2e8c6d60531b6044820152606490fd5b15612d4b57565b60405162461bcd60e51b815260206004820152601260248201527152657761726473206578636565642066656560701b6044820152606490fd5b939290936060810194815260606020820152825180955260206080820193015f955b808710612dc3575050610a949394506040818403910152610a50565b81516001600160a01b031685526001969096019560209485019490910190612da7565b612df1303314612bb6565b6040516377ccfd4b60e01b81526001600160a01b0382811660048301527f000000000000000000000000000000000000000000000000000000000000000060248301819052919291907f000000000000000000000000000000000000000000000000000000000000000016602084604481845afa9384156113d4575f946131c9575b506001600160a01b03841693841580156131bf575b61313f5760405163aaa9ff3d60e01b81526001600160a01b039190911660048201526024810192909252600a60448301525f90829060649082905afa9081156113d4575f9161311d575b50600a815111613114575b805115613079578051604051632454438360e11b8152600481018690526024810191909152945f866044816001600160a01b037f0000000000000000000000000000000000000000000000000000000000000000165afa9586156113d4575f96613055575b50612f508651835114612cff565b5f93845b8751861015612f7c57612f74600191612f6d888b612805565b5190612997565b950194612f54565b612f8f9193955095809294961115612d44565b5f5b845181101561300e5780612fa760019289612805565b51612fb3575b01612f91565b613009612fd0612fc38389612805565b516001600160a01b031690565b612fda838b612805565b5190848060a01b037f00000000000000000000000000000000000000000000000000000000000000001661376c565b612fad565b50604051929591946001600160a01b0316937fe990d130d5b65ca11fbee1244257fd7d68ce829bed380b4030a0e76c1e6b2eb593928392613050929084612d85565b0390a3565b6130729196503d805f833e61306a81836125f6565b810190612c86565b945f612f42565b507f29f8dbc55e5e4360f3c59ce726d91cdc67db886965c1b3c00cabed616cb3aa11915061310f906130f5847f00000000000000000000000000000000000000000000000000000000000000007f00000000000000000000000000000000000000000000000000000000000000006001600160a01b031661376c565b6040519384526001600160a01b0316929081906020820190565b0390a2565b600a8152612edd565b61313991503d805f833e61313181836125f6565b810190612c03565b5f612ed2565b507f29f8dbc55e5e4360f3c59ce726d91cdc67db886965c1b3c00cabed616cb3aa11935061310f9291506130f59050847f00000000000000000000000000000000000000000000000000000000000000007f00000000000000000000000000000000000000000000000000000000000000006001600160a01b031661376c565b5060018514612e88565b6131ec91945060203d6020116131f3575b6131e481836125f6565b810190612bee565b925f612e73565b503d6131da565b908160209103126103df575190565b1561321057565b60405162461bcd60e51b81526020600482015260116024820152705375627369647920756e646572666c6f7760781b6044820152606490fd5b1561325057565b60405162461bcd60e51b815260206004820152600f60248201526e105b1c9958591e481cd95d1d1b1959608a1b6044820152606490fd5b1561328e57565b60405162461bcd60e51b81526020600482015260126024820152714e6f74207465726d696e616c20737461746560701b6044820152606490fd5b156132cf57565b60405162461bcd60e51b8152602060048201526012602482015271115e1c1a5c9e481b9bdd081c995858da195960721b6044820152606490fd5b1561331057565b60405162461bcd60e51b815260206004820152601360248201527210dbdb9d195cdd081b9bdd081cd95d1d1b1959606a1b6044820152606490fd5b1561335257565b60405162461bcd60e51b815260206004820152601360248201527213585c9ad95d081b9bdd081c995cdbdb1d9959606a1b6044820152606490fd5b1561339457565b60405162461bcd60e51b81526020600482015260116024820152704e6f742077696e6e696e6720656e74727960781b6044820152606490fd5b156133d457565b60405162461bcd60e51b8152602060048201526014602482015273456e74727920616c72656164792061637469766560601b6044820152606490fd5b1561341757565b60405162461bcd60e51b815260206004820152601360248201527213585e08195b9d1c9a595cc81c995858da1959606a1b6044820152606490fd5b1561345957565b60405162461bcd60e51b815260206004820152603260248201527f5061796d656e7420746f6f20736d616c6c3a20696e73756666696369656e7420604482015271746f20707572636861736520746f6b656e7360701b6064820152608490fd5b633b9aca006134c9910480612ab8565b600f810290808204600f149015171561178b57670de0b6b3a76400009004620f42400180620f42401161178b5790565b90939161351893612083600360ff613512941614613309565b1461338d565b1561351f57565b60405162461bcd60e51b81526020600482015260096024820152684e6f20746f6b656e7360b81b6044820152606490fd5b81810392915f13801582851316918412161761178b57565b613585826112148360018060a01b03165f525f60205260405f2090565b5490613599835f52600a60205260405f2090565b546135a5811515612761565b6135b7845f52600b60205260405f2090565b54908115613764576113e86135cc9285612ab8565b6040516370a0823160e01b815230600482015290926001600160a01b037f000000000000000000000000000000000000000000000000000000000000000016918490602081602481875afa9081156113d4575f91613745575b5080911161373d575b5061363a818685613908565b61365761364f865f52600a60205260405f2090565b918254613550565b90556001600160a01b0382165f908152600d6020526040812061367b908690611214565b5582156136fd57816130f5847fe256ef8b7b6eaeb621f7e7ca3b683f124df401cb260bbaccf0540299944b858a9461305094826136c08a5f52600b60205260405f2090565b54106136ea576136d8895f52600b60205260405f2090565b6136e3848254612b16565b905561376c565b5f898152600b602052604081205561376c565b506040515f81526001600160a01b0390911691507fe256ef8b7b6eaeb621f7e7ca3b683f124df401cb260bbaccf0540299944b858a908060208101613050565b93505f61362e565b61375e915060203d6020116113cd576113bf81836125f6565b5f613625565b50505f6135cc565b60405163a9059cbb60e01b81526001600160a01b03909216600483015260248201929092526020905f9060449082855af19081601f3d1160015f51141615166137ef575b50156137b857565b60405162461bcd60e51b815260206004820152600f60248201526e1514905394d1915497d19052531151608a1b6044820152606490fd5b3b153d171590505f6137b0565b1561380357565b60405162461bcd60e51b81526020600482015260126024820152710416d6f756e74206d757374206265203e20360741b6044820152606490fd5b9160ff1680159081156138fd575b501561389f5761385c8215156137fc565b1061386357565b60405162461bcd60e51b8152602060048201526014602482015273496e73756666696369656e742062616c616e636560601b6044820152606490fd5b60405162461bcd60e51b815260206004820152603060248201527f43616e6e6f74207769746864726177202d20636f6d7065746974696f6e20737460448201526f185c9d1959081bdc881cd95d1d1b195960821b6064820152608490fd5b60049150145f61384b565b60018060a01b031690815f525f60205260405f20815f5260205260405f2080549084820391821161178b57556040805191825260208201939093525f9233917fc3d58168c5ae7397731d063d5bbf3d657854427343f4c083240f7aacaa2d0f629190a4565b927fa2b936e19d2f391e984b3c8722e0e0a30ef1b73581371ed847624152e65d16f591845f52600a60205260405f206139a7858254613550565b90556040805194855260208501929092526001600160a01b0316929081908101613050565b156139d357565b60405162461bcd60e51b815260206004820152600f60248201526e2737ba1032b73a393c9037bbb732b960891b6044820152606490fd5b9160ff168015908115613aa4575b5015613a46575f9182526006602052604090912054613a44916001600160a01b039081169116146139cc565b565b60405162461bcd60e51b815260206004820152603060248201527f43616e6e6f74207769746864726177202d20636f6e7465737420696e2070726f60448201526f19dc995cdcc81bdc881cd95d1d1b195960821b6064820152608490fd5b60049150145f613a18565b5f81815260066020526040812080546001600160a01b031981169091559293849390926001600160a01b03909116917fa11660be5ca5ef93a56a1f22e4de3d92bcb1727897a5e70a7262c26e256f3a409080a3565b6004548015613b4d575f19810190600454821015611c8b5760045f8181527f8a35acfbc15ff81a39ae7d344fd709f28e8600b4aa8c65c6b64bfe7fe36bd19a9092019190915555565b634e487b7160e01b5f52603160045260245ffd5b805f52600560205260405f20548015613c04575f91613b82613bad92612af9565b613b8d600454612af9565b808203613bb0575b5050613b9f613b04565b5f52600560205260405f2090565b55565b613bed613bc2610d07613bfc93611c73565b92613be884613bd083611c73565b90919082549060031b91821b915f19901b1916179055565b612989565b915f52600560205260405f2090565b555f80613b95565b60405162461bcd60e51b815260206004820152601060248201526f456e747279206e6f742061637469766560801b6044820152606490fd5b612710613c697f000000000000000000000000000000000000000000000000000000000000000083612ab8565b049081810390811161178b5791565b613c8a600360ff613cab951614613309565b5f908152600660205260409020546001600160a01b039182169116146139cc565b15613cb257565b60405162461bcd60e51b8152602060048201526009602482015268139bc81c185e5bdd5d60ba1b6044820152606490fd5b15613cea57565b60405162461bcd60e51b815260206004820152601460248201527324b73b30b634b21036b2b935b63290383937b7b360611b6044820152606490fd5b91929082613d35575b50505050565b60405160208101916bffffffffffffffffffffffff199060601b16825260148152613d616034826125f6565b51902092613d6e82612799565b91613d7c60405193846125f6565b808352602083019060051b8201913683116103df57905b828210613db95750505091613dab91613db09361446c565b613ce3565b5f808080613d2f565b8135815260209182019101613d93565b15613dd057565b60405162461bcd60e51b815260206004820152600f60248201526e10dbdb9d195cdd08195e1c1a5c9959608a1b6044820152606490fd5b909160ff16613e72575f908152600660205260409020546001600160a01b0316613e3657613a44904210613dc9565b60405162461bcd60e51b8152602060048201526014602482015273456e74727920616c72656164792065786973747360601b6044820152606490fd5b60405162461bcd60e51b815260206004820152601060248201526f21b7b73a32b9ba103737ba1037b832b760811b6044820152606490fd5b90600454680100000000000000008110156126175760018101600455600454811015611c8b575f80516020614539833981519152018290555f82815260066020526040812080546001600160a01b0319166001600160a01b0390931692831790557f4a3a30e0139991c1b1492b4364701af9484bb9032a696c2b8c748a1e51f2fd179080a3565b6040516323b872dd60e01b81526001600160a01b03928316600482015292909116602483015260448201929092526020905f9060649082855af19081601f3d1160015f5114161516613fc2575b5015613f8657565b60405162461bcd60e51b81526020600482015260146024820152731514905394d1915497d19493d357d1905253115160621b6044820152606490fd5b3b153d171590505f613f7e565b15613fd657565b60405162461bcd60e51b815260206004820152602160248201527f456e74727920646f6573206e6f74206578697374206f722077697468647261776044820152603760f91b6064820152608490fd5b90919260ff600191160361406a57614041613a44934210613dc9565b5f90815260066020526040902054614063906001600160a01b03161515613fcf565b15156137fc565b60405162461bcd60e51b815260206004820152602160248201527f5365636f6e6461727920706f736974696f6e73206e6f7420617661696c61626c6044820152606560f81b6064820152608490fd5b604d811161178b57600a0a90565b9060ff166012811461416157601281106140f657906140f06140eb610a9493612b07565b6140b9565b90612acb565b6012036012811161178b5761410a906140b9565b8015612ad557805f1904821161412357610a9491612ab8565b60405162461bcd60e51b81526020600482015260166024820152755061796d656e74207363616c65206f766572666c6f7760501b6044820152606490fd5b5090565b811561426a57614180614177826134b9565b6113e884612a88565b918215614263576141915f93612aa2565b916002831061425a575b91905f6001600160ff1b035b6020821061421f575b50505f925b603284106141c5575b5050505090565b909192936141d281612989565b841115614219576141ec6141e68583612997565b60011c90565b90836141f883856144b7565b101561420d5750600190945b019291906141b5565b94935060019093614204565b936141be565b909391928361422e82856144b7565b10156142525781811161425257614246600191612aa2565b940190939291936141a7565b9291936141b0565b6002925061419b565b5050505f90565b50505f90565b92835f52600a60205260405f20918254828101905f848312911290801582169115161761178b579092556040805193845260208401919091526001600160a01b03909116917fa00dafed0dbb4c386c4a62b78c2bcbf149dcebfed234ad200c7e6631854d48b09181908101613050565b908160209103126103df5751610a948161042b565b909260a092610a949594600180861b031683525f60208401526040830152606082015281608082015201906104ab565b1561432c57565b60405162461bcd60e51b815260206004820152601060248201526f155394d0519157d49150d2541251539560821b6044820152606490fd5b919290614384816112148560018060a01b03165f525f60205260405f2090565b61438f858254612997565b905560408051828152602081018690526001600160a01b038516949185915f9133917fc3d58168c5ae7397731d063d5bbf3d657854427343f4c083240f7aacaa2d0f629190a43b6143e8575050613a4491501515614325565b9161440f935f6020946040519687958694859363f23a6e6160e01b855233600486016142f5565b03925af180156113d457613a44915f9161443d575b506001600160e01b03191663f23a6e6160e01b14614325565b61445f915060203d602011614465575b61445781836125f6565b8101906142e0565b5f614424565b503d61444d565b90918151918261447e575b5090501490565b8060208092019360051b0101905b8251811160051b90815260208351911852602060405f2092019181831061448c57915050805f614477565b90801561426a57810180821161178b578082019182811161178b576144e76144de826134b9565b9360011c6134b9565b6144f0836134b9565b91830392831161178b57600281901b906001600160fe1b0381160361178b57830180931161178b57820180921161178b57610a949161452e91612ab8565b625b8d8090612acb56fe8a35acfbc15ff81a39ae7d344fd709f28e8600b4aa8c65c6b64bfe7fe36bd19ba26469706673582212203ea01f8ca1b29145858a1c311470794bf723b2949107eb253039306382a2ff4164736f6c634300081a0033","linkReferences":{}},"methodIdentifiers":{"BPS_DENOMINATOR()":"e1a45218","MAX_ENTRIES()":"7d4cb964","MAX_REFERRAL_PAYOUT_LEVELS()":"5dcdbc45","PRICE_PRECISION()":"95082d25","REFERRAL_ROOT()":"ba594751","activateContest()":"24f9cc4c","addPrimaryPosition(uint256,bytes32[])":"e1db226a","addSecondaryPosition(uint256,uint256,bytes32[])":"fed76325","balanceOf(address,uint256)":"00fdd58e","balanceOfBatch(address[],uint256[])":"4e1273f4","calculateSecondaryPrice(uint256)":"3a2babc2","cancelContest()":"1db0e667","cancelExpired()":"a01e4a1f","claimPrimaryPayout(uint256)":"af19e0d5","claimSecondaryPayout(uint256)":"4034b060","closeContest()":"a094c632","distributeReferralFee(address,uint256)":"5d3581f1","entries(uint256)":"b30906d4","entryOwner(uint256)":"df1ef4c6","expiryTimestamp()":"ade6e2aa","getEntriesCount()":"d09685b0","getEntryAtIndex(uint256)":"c9a496aa","getPrimarySideBalance()":"7680a51e","getSecondarySideBalance()":"9455937a","isApprovedForAll(address,address)":"e985e9c5","lockContest()":"75f25006","netPosition(uint256)":"6932b382","oracle()":"7dc0d1d0","paySecondaryClaimExternal(address,uint256)":"9080b693","paymentToken()":"3013ce29","paymentTokenDecimals()":"325cd796","primaryDepositAmount()":"933b1282","primaryDepositSecondarySubsidyBps()":"2da6a967","primaryMerkleRoot()":"ed4af81f","primaryPrizePool()":"b9937e30","primaryPrizePoolPayouts(uint256)":"c8d5c1b1","pushPrimaryPayouts(uint256[])":"c8d22700","pushSecondaryPayouts(address[],uint256)":"d6a74ce0","referralGraph()":"a69dbf03","referralGroupId()":"853999cf","referralNetworkBps()":"309d79c5","removePrimaryPosition(uint256)":"7e8f1234","removeSecondaryPosition(uint256,uint256)":"74d34214","rewardCalculator()":"96769e89","safeBatchTransferFrom(address,address,uint256[],uint256[],bytes)":"2eb2c2d6","safeTransferFrom(address,address,uint256,uint256,bytes)":"f242432a","secondaryDepositedPerEntry(address,uint256)":"bf6bbf09","secondaryLiquidityPerEntry(uint256)":"b48e94ce","secondaryMarketResolved()":"ae4c8ba9","secondaryMerkleRoot()":"9a9a5d9d","secondaryPrimarySubsidyPerEntry(uint256)":"6c547767","secondaryWinningEntry()":"af1d9197","setApprovalForAll(address,bool)":"a22cb465","setPrimaryMerkleRoot(bytes32)":"fc8c28e1","setSecondaryMerkleRoot(bytes32)":"3789a2fb","settleContest(uint256[],uint256[])":"563930e7","state()":"c19d93fb","supportsInterface(bytes4)":"01ffc9a7","totalSecondaryLiquidity()":"e08a1a42","uri(uint256)":"0e89341c"},"id":6}