{"abi":[{"type":"constructor","inputs":[{"name":"_paymentToken","type":"address","internalType":"address"},{"name":"_oracle","type":"address","internalType":"address"},{"name":"_primaryDepositAmount","type":"uint256","internalType":"uint256"},{"name":"_oracleFeeBps","type":"uint256","internalType":"uint256"},{"name":"_expiryTimestamp","type":"uint256","internalType":"uint256"},{"name":"_liquidityParameter","type":"uint256","internalType":"uint256"},{"name":"_demandSensitivityBps","type":"uint256","internalType":"uint256"},{"name":"_primaryShareBps","type":"uint256","internalType":"uint256"},{"name":"_primaryPositionShareBps","type":"uint256","internalType":"uint256"},{"name":"_targetPrimaryShareBps","type":"uint256","internalType":"uint256"},{"name":"_maxCrossSubsidyBps","type":"uint256","internalType":"uint256"}],"stateMutability":"nonpayable"},{"type":"function","name":"BPS_DENOMINATOR","inputs":[],"outputs":[{"name":"","type":"uint256","internalType":"uint256"}],"stateMutability":"view"},{"type":"function","name":"PRICE_PRECISION","inputs":[],"outputs":[{"name":"","type":"uint256","internalType":"uint256"}],"stateMutability":"view"},{"type":"function","name":"accumulatedOracleFee","inputs":[],"outputs":[{"name":"","type":"uint256","internalType":"uint256"}],"stateMutability":"view"},{"type":"function","name":"activateContest","inputs":[],"outputs":[],"stateMutability":"nonpayable"},{"type":"function","name":"addPrimaryPosition","inputs":[{"name":"entryId","type":"uint256","internalType":"uint256"},{"name":"merkleProof","type":"bytes32[]","internalType":"bytes32[]"}],"outputs":[],"stateMutability":"nonpayable"},{"type":"function","name":"addSecondaryPosition","inputs":[{"name":"entryId","type":"uint256","internalType":"uint256"},{"name":"amount","type":"uint256","internalType":"uint256"},{"name":"merkleProof","type":"bytes32[]","internalType":"bytes32[]"}],"outputs":[],"stateMutability":"nonpayable"},{"type":"function","name":"balanceOf","inputs":[{"name":"account","type":"address","internalType":"address"},{"name":"id","type":"uint256","internalType":"uint256"}],"outputs":[{"name":"","type":"uint256","internalType":"uint256"}],"stateMutability":"view"},{"type":"function","name":"balanceOfBatch","inputs":[{"name":"accounts","type":"address[]","internalType":"address[]"},{"name":"ids","type":"uint256[]","internalType":"uint256[]"}],"outputs":[{"name":"","type":"uint256[]","internalType":"uint256[]"}],"stateMutability":"view"},{"type":"function","name":"calculateSecondaryPrice","inputs":[{"name":"entryId","type":"uint256","internalType":"uint256"}],"outputs":[{"name":"","type":"uint256","internalType":"uint256"}],"stateMutability":"view"},{"type":"function","name":"cancelContest","inputs":[],"outputs":[],"stateMutability":"nonpayable"},{"type":"function","name":"cancelExpired","inputs":[],"outputs":[],"stateMutability":"nonpayable"},{"type":"function","name":"claimOracleFee","inputs":[],"outputs":[],"stateMutability":"nonpayable"},{"type":"function","name":"claimPrimaryPayout","inputs":[{"name":"entryId","type":"uint256","internalType":"uint256"}],"outputs":[],"stateMutability":"nonpayable"},{"type":"function","name":"claimSecondaryPayout","inputs":[{"name":"entryId","type":"uint256","internalType":"uint256"}],"outputs":[],"stateMutability":"nonpayable"},{"type":"function","name":"closeContest","inputs":[],"outputs":[],"stateMutability":"nonpayable"},{"type":"function","name":"demandSensitivityBps","inputs":[],"outputs":[{"name":"","type":"uint256","internalType":"uint256"}],"stateMutability":"view"},{"type":"function","name":"entries","inputs":[{"name":"","type":"uint256","internalType":"uint256"}],"outputs":[{"name":"","type":"uint256","internalType":"uint256"}],"stateMutability":"view"},{"type":"function","name":"entryOwner","inputs":[{"name":"","type":"uint256","internalType":"uint256"}],"outputs":[{"name":"","type":"address","internalType":"address"}],"stateMutability":"view"},{"type":"function","name":"expiryTimestamp","inputs":[],"outputs":[{"name":"","type":"uint256","internalType":"uint256"}],"stateMutability":"view"},{"type":"function","name":"getEntriesCount","inputs":[],"outputs":[{"name":"","type":"uint256","internalType":"uint256"}],"stateMutability":"view"},{"type":"function","name":"getEntryAtIndex","inputs":[{"name":"index","type":"uint256","internalType":"uint256"}],"outputs":[{"name":"","type":"uint256","internalType":"uint256"}],"stateMutability":"view"},{"type":"function","name":"getPrimarySideBalance","inputs":[],"outputs":[{"name":"","type":"uint256","internalType":"uint256"}],"stateMutability":"view"},{"type":"function","name":"getPrimarySideShareBps","inputs":[],"outputs":[{"name":"","type":"uint256","internalType":"uint256"}],"stateMutability":"view"},{"type":"function","name":"isApprovedForAll","inputs":[{"name":"account","type":"address","internalType":"address"},{"name":"operator","type":"address","internalType":"address"}],"outputs":[{"name":"","type":"bool","internalType":"bool"}],"stateMutability":"view"},{"type":"function","name":"liquidityParameter","inputs":[],"outputs":[{"name":"","type":"uint256","internalType":"uint256"}],"stateMutability":"view"},{"type":"function","name":"lockContest","inputs":[],"outputs":[],"stateMutability":"nonpayable"},{"type":"function","name":"maxCrossSubsidyBps","inputs":[],"outputs":[{"name":"","type":"uint256","internalType":"uint256"}],"stateMutability":"view"},{"type":"function","name":"netPosition","inputs":[{"name":"","type":"uint256","internalType":"uint256"}],"outputs":[{"name":"","type":"int256","internalType":"int256"}],"stateMutability":"view"},{"type":"function","name":"oracle","inputs":[],"outputs":[{"name":"","type":"address","internalType":"address"}],"stateMutability":"view"},{"type":"function","name":"oracleFeeBps","inputs":[],"outputs":[{"name":"","type":"uint256","internalType":"uint256"}],"stateMutability":"view"},{"type":"function","name":"paymentToken","inputs":[],"outputs":[{"name":"","type":"address","internalType":"contract IERC20"}],"stateMutability":"view"},{"type":"function","name":"primaryDepositAmount","inputs":[],"outputs":[{"name":"","type":"uint256","internalType":"uint256"}],"stateMutability":"view"},{"type":"function","name":"primaryMerkleRoot","inputs":[],"outputs":[{"name":"","type":"bytes32","internalType":"bytes32"}],"stateMutability":"view"},{"type":"function","name":"primaryPositionShareBps","inputs":[],"outputs":[{"name":"","type":"uint256","internalType":"uint256"}],"stateMutability":"view"},{"type":"function","name":"primaryPositionSubsidy","inputs":[{"name":"","type":"uint256","internalType":"uint256"}],"outputs":[{"name":"","type":"uint256","internalType":"uint256"}],"stateMutability":"view"},{"type":"function","name":"primaryPrizePool","inputs":[],"outputs":[{"name":"","type":"uint256","internalType":"uint256"}],"stateMutability":"view"},{"type":"function","name":"primaryPrizePoolPayouts","inputs":[{"name":"","type":"uint256","internalType":"uint256"}],"outputs":[{"name":"","type":"uint256","internalType":"uint256"}],"stateMutability":"view"},{"type":"function","name":"primaryPrizePoolSubsidy","inputs":[],"outputs":[{"name":"","type":"uint256","internalType":"uint256"}],"stateMutability":"view"},{"type":"function","name":"primaryShareBps","inputs":[],"outputs":[{"name":"","type":"uint256","internalType":"uint256"}],"stateMutability":"view"},{"type":"function","name":"primaryToSecondarySubsidy","inputs":[{"name":"","type":"uint256","internalType":"uint256"}],"outputs":[{"name":"","type":"uint256","internalType":"uint256"}],"stateMutability":"view"},{"type":"function","name":"pushPrimaryPayouts","inputs":[{"name":"entryIds","type":"uint256[]","internalType":"uint256[]"}],"outputs":[],"stateMutability":"nonpayable"},{"type":"function","name":"pushSecondaryPayouts","inputs":[{"name":"participantAddresses","type":"address[]","internalType":"address[]"},{"name":"entryId","type":"uint256","internalType":"uint256"}],"outputs":[],"stateMutability":"nonpayable"},{"type":"function","name":"removePrimaryPosition","inputs":[{"name":"entryId","type":"uint256","internalType":"uint256"}],"outputs":[],"stateMutability":"nonpayable"},{"type":"function","name":"removeSecondaryPosition","inputs":[{"name":"entryId","type":"uint256","internalType":"uint256"},{"name":"tokenAmount","type":"uint256","internalType":"uint256"}],"outputs":[],"stateMutability":"nonpayable"},{"type":"function","name":"safeBatchTransferFrom","inputs":[{"name":"from","type":"address","internalType":"address"},{"name":"to","type":"address","internalType":"address"},{"name":"ids","type":"uint256[]","internalType":"uint256[]"},{"name":"values","type":"uint256[]","internalType":"uint256[]"},{"name":"data","type":"bytes","internalType":"bytes"}],"outputs":[],"stateMutability":"nonpayable"},{"type":"function","name":"safeTransferFrom","inputs":[{"name":"from","type":"address","internalType":"address"},{"name":"to","type":"address","internalType":"address"},{"name":"id","type":"uint256","internalType":"uint256"},{"name":"value","type":"uint256","internalType":"uint256"},{"name":"data","type":"bytes","internalType":"bytes"}],"outputs":[],"stateMutability":"nonpayable"},{"type":"function","name":"secondaryDepositedPerEntry","inputs":[{"name":"","type":"address","internalType":"address"},{"name":"","type":"uint256","internalType":"uint256"}],"outputs":[{"name":"","type":"uint256","internalType":"uint256"}],"stateMutability":"view"},{"type":"function","name":"secondaryMarketResolved","inputs":[],"outputs":[{"name":"","type":"bool","internalType":"bool"}],"stateMutability":"view"},{"type":"function","name":"secondaryMerkleRoot","inputs":[],"outputs":[{"name":"","type":"bytes32","internalType":"bytes32"}],"stateMutability":"view"},{"type":"function","name":"secondaryPrizePool","inputs":[],"outputs":[{"name":"","type":"uint256","internalType":"uint256"}],"stateMutability":"view"},{"type":"function","name":"secondaryToPrimarySubsidy","inputs":[{"name":"","type":"address","internalType":"address"},{"name":"","type":"uint256","internalType":"uint256"}],"outputs":[{"name":"","type":"uint256","internalType":"uint256"}],"stateMutability":"view"},{"type":"function","name":"secondaryWinningEntry","inputs":[],"outputs":[{"name":"","type":"uint256","internalType":"uint256"}],"stateMutability":"view"},{"type":"function","name":"setApprovalForAll","inputs":[{"name":"operator","type":"address","internalType":"address"},{"name":"approved","type":"bool","internalType":"bool"}],"outputs":[],"stateMutability":"nonpayable"},{"type":"function","name":"setPrimaryMerkleRoot","inputs":[{"name":"_root","type":"bytes32","internalType":"bytes32"}],"outputs":[],"stateMutability":"nonpayable"},{"type":"function","name":"setSecondaryMerkleRoot","inputs":[{"name":"_root","type":"bytes32","internalType":"bytes32"}],"outputs":[],"stateMutability":"nonpayable"},{"type":"function","name":"settleContest","inputs":[{"name":"winningEntries","type":"uint256[]","internalType":"uint256[]"},{"name":"payoutBps","type":"uint256[]","internalType":"uint256[]"}],"outputs":[],"stateMutability":"nonpayable"},{"type":"function","name":"state","inputs":[],"outputs":[{"name":"","type":"uint8","internalType":"enum Contest.ContestState"}],"stateMutability":"view"},{"type":"function","name":"supportsInterface","inputs":[{"name":"interfaceId","type":"bytes4","internalType":"bytes4"}],"outputs":[{"name":"","type":"bool","internalType":"bool"}],"stateMutability":"view"},{"type":"function","name":"targetPrimaryShareBps","inputs":[],"outputs":[{"name":"","type":"uint256","internalType":"uint256"}],"stateMutability":"view"},{"type":"function","name":"totalPrimaryPositionSubsidies","inputs":[],"outputs":[{"name":"","type":"uint256","internalType":"uint256"}],"stateMutability":"view"},{"type":"function","name":"uri","inputs":[{"name":"","type":"uint256","internalType":"uint256"}],"outputs":[{"name":"","type":"string","internalType":"string"}],"stateMutability":"view"},{"type":"event","name":"ApprovalForAll","inputs":[{"name":"account","type":"address","indexed":true,"internalType":"address"},{"name":"operator","type":"address","indexed":true,"internalType":"address"},{"name":"approved","type":"bool","indexed":false,"internalType":"bool"}],"anonymous":false},{"type":"event","name":"ContestActivated","inputs":[],"anonymous":false},{"type":"event","name":"ContestCancelled","inputs":[],"anonymous":false},{"type":"event","name":"ContestClosed","inputs":[],"anonymous":false},{"type":"event","name":"ContestLocked","inputs":[],"anonymous":false},{"type":"event","name":"ContestSettled","inputs":[{"name":"winningEntries","type":"uint256[]","indexed":false,"internalType":"uint256[]"},{"name":"payouts","type":"uint256[]","indexed":false,"internalType":"uint256[]"}],"anonymous":false},{"type":"event","name":"PrimaryMerkleRootUpdated","inputs":[{"name":"newRoot","type":"bytes32","indexed":false,"internalType":"bytes32"}],"anonymous":false},{"type":"event","name":"PrimaryPayoutClaimed","inputs":[{"name":"owner","type":"address","indexed":true,"internalType":"address"},{"name":"entryId","type":"uint256","indexed":true,"internalType":"uint256"},{"name":"amount","type":"uint256","indexed":false,"internalType":"uint256"}],"anonymous":false},{"type":"event","name":"PrimaryPositionAdded","inputs":[{"name":"owner","type":"address","indexed":true,"internalType":"address"},{"name":"entryId","type":"uint256","indexed":true,"internalType":"uint256"}],"anonymous":false},{"type":"event","name":"PrimaryPositionRemoved","inputs":[{"name":"entryId","type":"uint256","indexed":true,"internalType":"uint256"},{"name":"owner","type":"address","indexed":true,"internalType":"address"}],"anonymous":false},{"type":"event","name":"SecondaryMerkleRootUpdated","inputs":[{"name":"newRoot","type":"bytes32","indexed":false,"internalType":"bytes32"}],"anonymous":false},{"type":"event","name":"SecondaryPayoutClaimed","inputs":[{"name":"participant","type":"address","indexed":true,"internalType":"address"},{"name":"entryId","type":"uint256","indexed":true,"internalType":"uint256"},{"name":"payout","type":"uint256","indexed":false,"internalType":"uint256"}],"anonymous":false},{"type":"event","name":"SecondaryPositionAdded","inputs":[{"name":"participant","type":"address","indexed":true,"internalType":"address"},{"name":"entryId","type":"uint256","indexed":true,"internalType":"uint256"},{"name":"amount","type":"uint256","indexed":false,"internalType":"uint256"},{"name":"tokensReceived","type":"uint256","indexed":false,"internalType":"uint256"}],"anonymous":false},{"type":"event","name":"SecondaryPositionRemoved","inputs":[{"name":"participant","type":"address","indexed":true,"internalType":"address"},{"name":"amount","type":"uint256","indexed":false,"internalType":"uint256"}],"anonymous":false},{"type":"event","name":"TransferBatch","inputs":[{"name":"operator","type":"address","indexed":true,"internalType":"address"},{"name":"from","type":"address","indexed":true,"internalType":"address"},{"name":"to","type":"address","indexed":true,"internalType":"address"},{"name":"ids","type":"uint256[]","indexed":false,"internalType":"uint256[]"},{"name":"values","type":"uint256[]","indexed":false,"internalType":"uint256[]"}],"anonymous":false},{"type":"event","name":"TransferSingle","inputs":[{"name":"operator","type":"address","indexed":true,"internalType":"address"},{"name":"from","type":"address","indexed":true,"internalType":"address"},{"name":"to","type":"address","indexed":true,"internalType":"address"},{"name":"id","type":"uint256","indexed":false,"internalType":"uint256"},{"name":"value","type":"uint256","indexed":false,"internalType":"uint256"}],"anonymous":false},{"type":"event","name":"URI","inputs":[{"name":"value","type":"string","indexed":false,"internalType":"string"},{"name":"id","type":"uint256","indexed":true,"internalType":"uint256"}],"anonymous":false},{"type":"error","name":"ERC1155InsufficientBalance","inputs":[{"name":"sender","type":"address","internalType":"address"},{"name":"balance","type":"uint256","internalType":"uint256"},{"name":"needed","type":"uint256","internalType":"uint256"},{"name":"tokenId","type":"uint256","internalType":"uint256"}]},{"type":"error","name":"ERC1155InvalidApprover","inputs":[{"name":"approver","type":"address","internalType":"address"}]},{"type":"error","name":"ERC1155InvalidArrayLength","inputs":[{"name":"idsLength","type":"uint256","internalType":"uint256"},{"name":"valuesLength","type":"uint256","internalType":"uint256"}]},{"type":"error","name":"ERC1155InvalidOperator","inputs":[{"name":"operator","type":"address","internalType":"address"}]},{"type":"error","name":"ERC1155InvalidReceiver","inputs":[{"name":"receiver","type":"address","internalType":"address"}]},{"type":"error","name":"ERC1155InvalidSender","inputs":[{"name":"sender","type":"address","internalType":"address"}]},{"type":"error","name":"ERC1155MissingApprovalForAll","inputs":[{"name":"operator","type":"address","internalType":"address"},{"name":"owner","type":"address","internalType":"address"}]},{"type":"error","name":"ReentrancyGuardReentrantCall","inputs":[]},{"type":"error","name":"SafeERC20FailedOperation","inputs":[{"name":"token","type":"address","internalType":"address"}]}],"bytecode":{"object":"0x6101e0346200060057601f62004d5738819003918201601f1916830192916001600160401b03919082851184861017620005ea5780849260409687528339610160918291810103126200060057620000578362000605565b926020916200006883830162000605565b9186810151966060820151608083015160a084015160c08501519160e0860151936101009c8d880151996101209d8e8a01519c610140809b01519e8a51908282019082821090821117620005ea578b5260008091526002546001908181811c91168015620005df575b84821014620005cb57601f81116200059c575b5060028290556003556001600160a01b03928316928315620005585784161562000523578415620004df576103e886116200049b574287111562000466578715620004225761271090818a11620003de578e8b0190818c11620003ca57508111156200038657808f1162000342578f11620002ff575060805260a05260c05260e0528b528952835283526101809384526101a09485526101c095865260ff1960045416600455519561473c97886200061b8939608051888181610a6e01528181610ceb0152818161171a0152818161195901528181611b3c01528181611ddd015281816120e0015281816124a0015281816127ad015281816129d60152612e8b015260a0518881816106440152818161073101528181610ada01528181611016015281816117ea01528181611913015281816119d201528181611d600152818161239f0152818161264a0152612ca0015260c051888181611a9b01528181611c42015261294b015260e05188818161145c0152818161163901528181611ac5015281816129750152612db5015251878181611cb501528181611da101528181611fdc01526128d3015251868181610b53015261461701525185818161150e01526145f001525184818161136d0152611c07015251838181611348015281816113cf01526118d40152518281816125e301528181614426015261454b015251818181611f8301528181614477015281816144ce01526145850152f35b6064908a519062461bcd60e51b82526004820152601360248201527f496e76616c6964207375627369647920636170000000000000000000000000006044820152fd5b8a5162461bcd60e51b815260048101839052601460248201527f496e76616c69642074617267657420726174696f0000000000000000000000006044820152606490fd5b8a5162461bcd60e51b815260048101839052601760248201527f546f74616c206665657320657863656564206c696d69740000000000000000006044820152606490fd5b634e487b7160e01b81526011600452602490fd5b8b5162461bcd60e51b815260048101849052601a60248201527f496e76616c69642064656d616e642073656e73697469766974790000000000006044820152606490fd5b8a5162461bcd60e51b815260048101839052601b60248201527f496e76616c6964206c697175696469747920706172616d6574657200000000006044820152606490fd5b8a5162461bcd60e51b815260048101839052600e60248201526d115e1c1a5c9e481a5b881c185cdd60921b6044820152606490fd5b8a5162461bcd60e51b815260048101839052601360248201527f4f7261636c652066656520746f6f2068696768000000000000000000000000006044820152606490fd5b8a5162461bcd60e51b815260048101839052601660248201527f496e76616c6964206465706f73697420616d6f756e74000000000000000000006044820152606490fd5b8a5162461bcd60e51b815260048101839052600e60248201526d496e76616c6964206f7261636c6560901b6044820152606490fd5b8b5162461bcd60e51b815260048101849052601560248201527f496e76616c6964207061796d656e7420746f6b656e00000000000000000000006044820152606490fd5b6002835281601f858520920160051c8201915b828110620005bf575050620000e4565b848155018290620005af565b634e487b7160e01b83526022600452602483fd5b90607f1690620000d1565b634e487b7160e01b600052604160045260246000fd5b600080fd5b51906001600160a01b0382168203620006005756fe6080604052600436101561001257600080fd5b60003560e01c8062fdd58e146103e657806301ffc9a7146103e15780630e89341c146103dc5780631db0e667146103d7578063219200f9146103d257806324f9cc4c146103cd5780632eb2c2d6146103c85780633013ce29146103c35780633789a2fb146103be5780633a2babc2146103b95780633a69a1be146103b45780634034b060146103af5780634e1273f4146103aa5780634ee837a6146103a55780634fd34950146103a0578063563930e71461039b5780635c76fda714610396578063655984f3146103915780636932b3821461038c578063693b46601461038757806374d342141461038257806375f250061461037d5780637680a51e1461037857806379acdb3a146103735780637ae45fe31461036e5780637dc0d1d0146103695780637e8f123414610364578063829e4c641461035f57806384e43b481461035a578063933b12821461035557806395082d25146103505780639a9a5d9d1461034b578063a01e4a1f14610346578063a094c63214610341578063a22cb4651461033c578063a5b3f3f614610337578063a7e2bc5414610332578063ade6e2aa1461032d578063ae4c8ba914610328578063af19e0d514610323578063af1d91971461031e578063b30906d414610319578063b356357014610314578063b9937e301461030f578063bf6bbf091461030a578063c19d93fb14610305578063c53e21e414610300578063c8d22700146102fb578063c8d5c1b1146102f6578063c9a496aa146102f1578063d09685b0146102ec578063d601eef3146102e7578063d6a74ce0146102e2578063df1ef4c6146102dd578063e1a45218146102d8578063e1db226a146102d3578063e985e9c5146102ce578063ed4af81f146102c9578063f242432a146102c4578063fc8c28e1146102bf5763fed76325146102ba57600080fd5b612cdb565b612c63565b612b3e565b612b20565b612ab8565b612849565b61282c565b6127f8565b612606565b6125cb565b6125ad565b612527565b6124fb565b612361565b612335565b61230b565b6122a0565b612282565b612256565b612205565b6121d1565b612022565b611fff565b611fc4565b611fa6565b611f6b565b611eab565b611d4c565b611ca1565b611c83565b611c65565b611c2a565b611bef565b611bd1565b611a01565b6119bc565b6118f7565b6118bc565b6118a1565b6117d2565b611531565b6114f6565b6114ca565b61147f565b611444565b610fc3565b610f78565b610f5a565b610e9f565b610b76565b610b3b565b610b15565b610a9d565b610a58565b61092b565b610719565b6106fb565b61062c565b610526565b610464565b610401565b6001600160a01b038116036103fc57565b600080fd5b346103fc5760403660031901126103fc576020610449600435610423816103eb565b6024356000526000835260406000209060018060a01b0316600052602052604060002090565b54604051908152f35b6001600160e01b03198116036103fc57565b346103fc5760203660031901126103fc57602060043561048381610452565b63ffffffff60e01b16636cdb3d1360e11b81149081156104c1575b81156104b0575b506040519015158152f35b6301ffc9a760e01b149050386104a5565b6303a24d0760e21b8114915061049e565b919082519283825260005b8481106104fe575050826000602080949584010152601f8019910116010190565b6020818301810151848301820152016104dd565b9060206105239281815201906104d2565b90565b346103fc576020806003193601126103fc576040519060009060025460019181831c92808316928315610622575b828510841461060e5784875260208701939081156105ef5750600114610595575b6105918661058581880382610833565b60405191829182610512565b0390f35b6002600090815294509192917f405787fa12a823e0f2b7631cc41b3ba8828b3321ca811111fa75cd3aa3bb5ace5b8386106105de57505050910190506105858261059138610575565b8054858701529482019481016105c3565b60ff1916845250505090151560051b0190506105858261059138610575565b634e487b7160e01b86526022600452602486fd5b93607f1693610554565b346103fc576000806003193601126106f857610672337f00000000000000000000000000000000000000000000000000000000000000006001600160a01b031614614098565b60ff6004541660068110156106e45780600361069792141590816106cf575b50614321565b6106a8600460ff1981541617600455565b7f9237e8f0d5063a695b8695e82c82bc24d15591de9d04449771a6ea4b128317378180a180f35b600591506106dc816122eb565b141538610691565b634e487b7160e01b82526021600452602482fd5b80fd5b346103fc5760003660031901126103fc576020600e54604051908152f35b346103fc576000806003193601126106f85761075f337f00000000000000000000000000000000000000000000000000000000000000006001600160a01b031614614098565b60ff6004541660068110156106e4576107b85761077f60065415156140d1565b610791600160ff196004541617600455565b7f3927b788a62eb53f7192cd9286f49295f01b938b6afc23aef0af5d035cd853168180a180f35b60405162461bcd60e51b815260206004820152601760248201527f436f6e7465737420616c726561647920737461727465640000000000000000006044820152606490fd5b634e487b7160e01b600052604160045260246000fd5b602081019081106001600160401b0382111761082e57604052565b6107fd565b90601f801991011681019081106001600160401b0382111761082e57604052565b6001600160401b03811161082e5760051b60200190565b81601f820112156103fc5780359161088283610854565b926108906040519485610833565b808452602092838086019260051b8201019283116103fc578301905b8282106108ba575050505090565b813581529083019083016108ac565b6001600160401b03811161082e57601f01601f191660200190565b81601f820112156103fc578035906108fb826108c9565b926109096040519485610833565b828452602083830101116103fc57816000926020809301838601378301015290565b346103fc5760a03660031901126103fc5760048035610949816103eb565b602435610955816103eb565b6001600160401b03906044358281116103fc57610975903690860161086b565b906064358381116103fc5761098d903690870161086b565b926084359081116103fc576109a590369087016108e4565b936001600160a01b03808216903382141580610a34575b610a07578316156109ef57156109d8576109d69550613059565b005b604051626a0d4560e21b8152600081880152602490fd5b604051632bfa23e760e11b8152600081890152602490fd5b6040805163711bec9160e11b815233818b019081526001600160a01b038616602082015290918291010390fd5b50600082815260016020908152604080832033845290915290205460ff16156109bc565b346103fc5760003660031901126103fc576040517f00000000000000000000000000000000000000000000000000000000000000006001600160a01b03168152602090f35b346103fc5760203660031901126103fc577fa2877b861a6a177d8c1a4430a6f8716104652f70e5c8fbd58aa775ef96da4a526020600435610b08337f00000000000000000000000000000000000000000000000000000000000000006001600160a01b031614614098565b80601555604051908152a1005b346103fc5760203660031901126103fc576020610b336004356145aa565b604051908152f35b346103fc5760003660031901126103fc5760206040517f00000000000000000000000000000000000000000000000000000000000000008152f35b346103fc576020806003193601126103fc5760043590610b94613851565b610bb46003610ba560045460ff1690565b610bae816122eb565b146139c3565b610bc8610bc360145460ff1690565b613f7d565b60018060a01b0390610c0082610bf8610beb866000526007602052604060002090565b546001600160a01b031690565b161515613fbf565b610c2f33610c18856000526000602052604060002090565b9060018060a01b0316600052602052604060002090565b549182151591610c3e83614019565b610c49848633613ddb565b6000936013548614610c95575b604051858152869033907fe256ef8b7b6eaeb621f7e7ca3b683f124df401cb260bbaccf0540299944b858a9080602081015b0390a36109d66001600355565b9091929350610cce610cb186600052600b602052604060002090565b54610cbd811515614051565b610cc9600c5484613a55565b613a68565b93610e33575b506040516370a0823160e01b8082523060048301527f0000000000000000000000000000000000000000000000000000000000000000938416918381602481865afa908115610dcd57600091610e16575b50808611610e0e575b5084610dd2575b610d4986600052600b602052604060002090565b54610c5657604051908152306004820152908290829060249082905afa918215610dcd57600092610da0575b505080610d84575b8080610c56565b610d9991610d926000600c55565b3390613974565b3880610d7d565b610dbf9250803d10610dc6575b610db78183610833565b810190614089565b3880610d75565b503d610dad565b613313565b600c548511610dff57610def610dea86600c5461378e565b600c55565b610dfa853386613974565b610d35565b610e096000600c55565b610def565b945038610d2e565b610e2d9150843d8611610dc657610db78183610833565b38610d25565b610e52610e4a86600052600b602052604060002090565b918254613dc2565b905538610cd4565b90815180825260208080930193019160005b828110610e7a575050505090565b835185529381019392810192600101610e6c565b906020610523928181520190610e5a565b346103fc5760403660031901126103fc576004356001600160401b038082116103fc57366023830112156103fc578160040135610edb81610854565b92610ee96040519485610833565b81845260209160248386019160051b830101913683116103fc57602401905b828210610f4157856024358681116103fc5761059191610f2f610f3592369060040161086b565b90612f94565b60405191829182610e8e565b8380918335610f4f816103eb565b815201910190610f08565b346103fc5760003660031901126103fc576020600554604051908152f35b346103fc5760003660031901126103fc576020610b336146c8565b9181601f840112156103fc578235916001600160401b0383116103fc576020808501948460051b0101116103fc57565b346103fc5760403660031901126103fc576001600160401b036004358181116103fc57610ff4903690600401610f93565b90916024359081116103fc5761100e903690600401610f93565b9290611044337f00000000000000000000000000000000000000000000000000000000000000006001600160a01b031614614098565b61104c613851565b61107661105b60045460ff1690565b611064816122eb565b60018114908115611430575b5061410a565b611081831515614156565b61108c8484146141a2565b61109a6006548411156141e6565b6000805b8581106113f557506127106110b3911461428a565b6110c5600360ff196004541617600455565b600d546110d481600854613268565b90600090808093821515806113cc575b611344575b6110fb926110f69161378e565b613268565b9060005b8681106112a257505050600d5561111f6111198484614225565b35601355565b611131600160ff196014541617601455565b611147601354600052600b602052604060002090565b54600c54908115159081611299575b5061119c575b507f0fed27f5e3cd741c181cc0d3b0c47df2013638faa8b7aa7084de3946098eb78e9361118f91604051948594856142fa565b0390a16109d66001600355565b6111a66000600c55565b6000805b85811061122757509181837f0fed27f5e3cd741c181cc0d3b0c47df2013638faa8b7aa7084de3946098eb78e979361118f95106111ec575b505091509361115c565b6111f59161378e565b61121e6112166112058888614225565b356000526009602052604060002090565b918254613268565b905538806111e2565b9061123382878761422e565b359161125561124d611246838b8961422e565b3586613a55565b612710900490565b8061126c575b50611267919250612f67565b6111aa565b61129061121661127f8361126796613268565b956000526009602052604060002090565b9055829161125b565b90501538611156565b8080896112b36112f1948b8b61422e565b356112cc61124d6112c585858d61422e565b3589613a55565b6112e0826000526009602052604060002090565b5588866112f6575b50505050612f67565b6110ff565b61131061124d6112c561133b96611336966113219561422e565b91600052600f602052604060002090565b61132c828254613268565b9055600e54613268565b600e55565b808938886112e8565b90507f0000000000000000000000000000000000000000000000000000000000000000611391817f0000000000000000000000000000000000000000000000000000000000000000613268565b90816113a1575b505083906110e9565b8395506113b7929450610cc9906110fb94613a55565b916110f66113c5848661378e565b9492611398565b507f000000000000000000000000000000000000000000000000000000000000000015156110e4565b9061142561142b9161141361140b858a8861422e565b35151561423e565b61141e84898761422e565b3590613268565b91612f67565b61109e565b6002915061143d816122eb565b1438611070565b346103fc5760003660031901126103fc5760206040517f00000000000000000000000000000000000000000000000000000000000000008152f35b346103fc5760403660031901126103fc5760043561149c816103eb565b60018060a01b0316600052601260205260406000206024356000526020526020604060002054604051908152f35b346103fc5760203660031901126103fc57600435600052600b6020526020604060002054604051908152f35b346103fc5760003660031901126103fc5760206040517f00000000000000000000000000000000000000000000000000000000000000008152f35b346103fc5760403660031901126103fc57602435600435611550613851565b61157861155f60045460ff1690565b611568816122eb565b80159081156117be575b50613cd7565b60008181526007602052604090206115a4906001600160a01b039061159c90610beb565b161515613d3c565b6115af821515613b34565b6115d3826115cb33610c18856000526000602052604060002090565b541015613d7f565b6115eb33610c18836000526000602052604060002090565b549061162a82610cc985611624856116153360018060a01b03166000526010602052604060002090565b90600052602052604060002090565b54613a55565b9261169e61167961271061165e7f000000000000000000000000000000000000000000000000000000000000000088613a55565b0461167361166e8260055461378e565b600555565b8661378e565b93610cc983611624866116153360018060a01b03166000526012602052604060002090565b928084116117b6575b6116e5916116b885610dea9361378e565b906116c4818633613ddb565b6116db610e4a86600052600b602052604060002090565b9055600c5461378e565b3360009081526010602052604090206116ff908290611615565b61170a84825461378e565b905581611776575b8261173e81337f0000000000000000000000000000000000000000000000000000000000000000613974565b60405190815233907f9ab0480f2900ac3d2b39009247d33515552abee0ba84caa8a3f1c6435fbb266e90602090a26109d66001600355565b6117a56117ad9161179161178c85600d5461378e565b600d55565b336000908152601260205260409020611615565b91825461378e565b90553880611712565b9250826116a7565b600491506117cb816122eb565b1438611572565b346103fc576000806003193601126106f857611818337f00000000000000000000000000000000000000000000000000000000000000006001600160a01b031614614098565b60ff6004541660068110156106e45760010361186757611840600260ff196004541617600455565b7fca4f15905dfed40aa7885e1be889ff7da045bd49fc916c3a40cf8b0a3db7636a8180a180f35b60405162461bcd60e51b8152602060048201526012602482015271436f6e74657374206e6f742061637469766560701b6044820152606490fd5b346103fc5760003660031901126103fc576020610b336144f3565b346103fc5760003660031901126103fc5760206040517f00000000000000000000000000000000000000000000000000000000000000008152f35b346103fc576000806003193601126106f857611911613851565b7f0000000000000000000000000000000000000000000000000000000000000000611946336001600160a01b03831614614098565b60055480156119855761197d91836005557f0000000000000000000000000000000000000000000000000000000000000000613974565b600160035580f35b60405162461bcd60e51b815260206004820152600f60248201526e4e6f2066656520746f20636c61696d60881b6044820152606490fd5b346103fc5760003660031901126103fc576040517f00000000000000000000000000000000000000000000000000000000000000006001600160a01b03168152602090f35b346103fc5760203660031901126103fc57600435611a1d613851565b611a45611a2c60045460ff1690565b611a35816122eb565b8015908115611bbd575b506138d1565b611a6f611a5f610beb836000526007602052604060002090565b6001600160a01b03163314613936565b611a96611a86826000526007602052604060002090565b80546001600160a01b0319169055565b611b607f0000000000000000000000000000000000000000000000000000000000000000611b00612710611aea7f000000000000000000000000000000000000000000000000000000000000000084613a55565b04611afa61166e8260055461378e565b8261378e565b611b32611b2d611b25611b1d876000526011602052604060002090565b54809461378e565b60085461378e565b600855565b80611b91575b50337f0000000000000000000000000000000000000000000000000000000000000000613974565b33907fa11660be5ca5ef93a56a1f22e4de3d92bcb1727897a5e70a7262c26e256f3a40600080a36109d66001600355565b610dea611bb7916000611bae876000526011602052604060002090565b55600c5461378e565b38611b38565b60049150611bca816122eb565b1438611a3f565b346103fc5760003660031901126103fc576020600c54604051908152f35b346103fc5760003660031901126103fc5760206040517f00000000000000000000000000000000000000000000000000000000000000008152f35b346103fc5760003660031901126103fc5760206040517f00000000000000000000000000000000000000000000000000000000000000008152f35b346103fc5760003660031901126103fc576020604051620f42408152f35b346103fc5760003660031901126103fc576020601554604051908152f35b346103fc576000806003193601126106f8577f00000000000000000000000000000000000000000000000000000000000000004210611d1957610697611ce960045460ff1690565b611cf2816122eb565b60038114159081611d04575b506143ae565b60059150611d11816122eb565b141538611cfe565b60405162461bcd60e51b815260206004820152600b60248201526a139bdd08195e1c1a5c995960aa1b6044820152606490fd5b346103fc576000806003193601126106f8577f00000000000000000000000000000000000000000000000000000000000000006001600160a01b03611d943382841614614098565b611d9c613851565b611dc87f000000000000000000000000000000000000000000000000000000000000000042101561436d565b6040516370a0823160e01b81523060048201527f00000000000000000000000000000000000000000000000000000000000000009290916020908390602490829087165afa918215610dcd578492611e8b575b5081611e30575b83611e2d6001600355565b80f35b611e3992613974565b611e436000600c55565b611e4d6000600555565b611e5f600560ff196004541617600455565b7fef19c40e684c836035e6598f5d86819dfec89371571efdeed7947339739711438180a1388080611e22565b611ea491925060203d8111610dc657610db78183610833565b9038611e1b565b346103fc5760403660031901126103fc57600435611ec8816103eb565b60243590811515908183036103fc576001600160a01b038116928315611f5357611f14611f259233600052600160205260406000209060018060a01b0316600052602052604060002090565b9060ff801983541691151516179055565b6040519081527f17307eab39ab6107e8899845ad3d59bd9653f200f220920489ca2b5937696c3160203392a3005b60405162ced3e160e81b815260006004820152602490fd5b346103fc5760003660031901126103fc5760206040517f00000000000000000000000000000000000000000000000000000000000000008152f35b346103fc5760003660031901126103fc576020600d54604051908152f35b346103fc5760003660031901126103fc5760206040517f00000000000000000000000000000000000000000000000000000000000000008152f35b346103fc5760003660031901126103fc57602060ff601454166040519015158152f35b346103fc5760203660031901126103fc5760043561203e613851565b61204f6003610ba560045460ff1690565b612069611a5f610beb836000526007602052604060002090565b61207d816000526009602052604060002090565b5461209282600052600f602052604060002090565b549061209e8282613268565b916120aa831515613a05565b600084815260096020526040812055806121a5575b50600854906120d0600d5483613268565b80612137575b50505061210481337f0000000000000000000000000000000000000000000000000000000000000000613974565b60405190815233907e89742e8fcde5f6c48a17ec50347f2b2d98d85a17abe162b4cd552516f752dd908060208101610c88565b61214861214f91610cc98585613a55565b809261378e565b91811161219557611b2d6121659160085461378e565b600d5481116121855761178c61217d91600d5461378e565b3880806120d6565b506121906000600d55565b61217d565b506121a06000600855565b612165565b6113366121cb9160006121c287600052600f602052604060002090565b55600e5461378e565b386120bf565b346103fc5760003660031901126103fc576020601354604051908152f35b634e487b7160e01b600052603260045260246000fd5b346103fc5760203660031901126103fc576004356006548110156103fc5760209060066000527ff652222313e28459528d920b65115c16c04f3efc82aaedc97be59f3f377c0d3f0154604051908152f35b346103fc5760203660031901126103fc5760043560005260116020526020604060002054604051908152f35b346103fc5760003660031901126103fc576020600854604051908152f35b346103fc5760403660031901126103fc576004356122bd816103eb565b60018060a01b0316600052601060205260406000206024356000526020526020604060002054604051908152f35b600611156122f557565b634e487b7160e01b600052602160045260246000fd5b346103fc5760003660031901126103fc5760ff6004541660405160068210156122f5576020918152f35b346103fc5760203660031901126103fc57600435600052600f6020526020604060002054604051908152f35b346103fc5760203660031901126103fc576004356001600160401b0381116103fc57612391903690600401610f93565b6001600160a01b036123c6337f0000000000000000000000000000000000000000000000000000000000000000831614614098565b6123ce613851565b6123df6003610ba560045460ff1690565b60005b8281106123f3576109d66001600355565b8061240261244692858761422e565b35612417816000526009602052604060002090565b5461243761242f83600052600f602052604060002090565b548092613268565b908161244b575b505050612f67565b6123e2565b600083815260096020526040812055806124d8575b507e89742e8fcde5f6c48a17ec50347f2b2d98d85a17abe162b4cd552516f752dd85612499610beb856000526007602052604060002090565b6124c484827f0000000000000000000000000000000000000000000000000000000000000000613974565b6040519384521691602090a338808061243e565b6113366124f59160006121c286600052600f602052604060002090565b38612460565b346103fc5760203660031901126103fc5760043560005260096020526020604060002054604051908152f35b346103fc5760203660031901126103fc576004356006548110156125785760209060066000527ff652222313e28459528d920b65115c16c04f3efc82aaedc97be59f3f377c0d3f0154604051908152f35b60405162461bcd60e51b815260206004820152600d60248201526c092dcecc2d8d2c840d2dcc8caf609b1b6044820152606490fd5b346103fc5760003660031901126103fc576020600654604051908152f35b346103fc5760003660031901126103fc5760206040517f00000000000000000000000000000000000000000000000000000000000000008152f35b346103fc576040806003193601126103fc576004356001600160401b0381116103fc57612637903690600401610f93565b91602435906001600160a01b03612671337f0000000000000000000000000000000000000000000000000000000000000000831614614098565b612679613851565b61268a6003610ba560045460ff1690565b612699610bc360145460ff1690565b6126a6601354841461467e565b6126ba83600052600b602052604060002090565b54906126c7821515614051565b60005b8681106126db576109d66001600355565b80856126f36126ee61271a948b8b61422e565b6146be565b61270b81610c18846000526000602052604060002090565b54908161271f57505050612f67565b6126ca565b61272a828483613ddb565b61273e83600052600b602052604060002090565b612749838254613dc2565b905585600c9161275f89610cc985548097613a55565b938461276e575b50505061243e565b7fe256ef8b7b6eaeb621f7e7ca3b683f124df401cb260bbaccf0540299944b858a93859182116127e7576127a691610dea915461378e565b6127d184827f0000000000000000000000000000000000000000000000000000000000000000613974565b89519384521691602090a3853880858180612766565b50506127f36000600c55565b6127a6565b346103fc5760203660031901126103fc576004356000526007602052602060018060a01b0360406000205416604051908152f35b346103fc5760003660031901126103fc5760206040516127108152f35b346103fc5760403660031901126103fc576004356024356001600160401b0381116103fc5761287c903690600401610f93565b90612885613851565b6128a361289460045460ff1690565b61289d816122eb565b156135df565b60008381526007602052604090206128ce906001600160a01b03906128c790610beb565b161561361e565b6128f97f00000000000000000000000000000000000000000000000000000000000000004210613661565b600a549182612a55575b50505061290f81613730565b61294633612927836000526007602052604060002090565b80546001600160a01b0319166001600160a01b03909216919091179055565b6129fa7f00000000000000000000000000000000000000000000000000000000000000006129aa61271061299a7f000000000000000000000000000000000000000000000000000000000000000084613a55565b04611afa61166e82600554613268565b6129cb611b2d6129c36129bc846143ec565b809461378e565b600854613268565b80612a2a575b5030337f000000000000000000000000000000000000000000000000000000000000000061379b565b337f4a3a30e0139991c1b1492b4364701af9484bb9032a696c2b8c748a1e51f2fd17600080a36109d66001600355565b610dea81612a4f92612a46876000526011602052604060002090565b55600c54613268565b386129d1565b612ab092612aa6612aab936040516020810190612a9b81612a8d33856014916bffffffffffffffffffffffff199060601b1681520190565b03601f198101835282610833565b51902093369161369f565b613874565b6136ed565b388080612903565b346103fc5760403660031901126103fc57602060ff612b14600435612adc816103eb565b60243590612ae9826103eb565b60018060a01b03166000526001845260406000209060018060a01b0316600052602052604060002090565b54166040519015158152f35b346103fc5760003660031901126103fc576020600a54604051908152f35b346103fc5760a03660031901126103fc57600435612b5b816103eb565b602435612b67816103eb565b6084356001600160401b0381116103fc57612b869036906004016108e4565b906001600160a01b03838116903382141580612c3f575b612c1857821615612bff5715612be7576109d692612bdf6064356044359160405192600184526020840152604083019160018352606084015260808301604052565b929091613059565b604051626a0d4560e21b815260006004820152602490fd5b604051632bfa23e760e11b815260006004820152602490fd5b60405163711bec9160e11b81523360048201526001600160a01b0386166024820152604490fd5b50600082815260016020908152604080832033845290915290205460ff1615612b9d565b346103fc5760203660031901126103fc577f1f3ffb5a38f057a21fbb6b9c891954827a2657844fbc0ae99188cce46f059e2b6020600435612cce337f00000000000000000000000000000000000000000000000000000000000000006001600160a01b031614614098565b80600a55604051908152a1005b346103fc5760603660031901126103fc576004356024356044356001600160401b0381116103fc57612d11903690600401610f93565b90612d1a613851565b612d42612d2960045460ff1690565b612d32816122eb565b8015908115612f3d575b50613a88565b6000848152600760205260409020612d6e906001600160a01b0390612d6690610beb565b161515613ade565b612d79831515613b34565b6015549182612efd575b5050507fa00dafed0dbb4c386c4a62b78c2bcbf149dcebfed234ad200c7e6631854d48b0610c88612df0612710612dda7f000000000000000000000000000000000000000000000000000000000000000086613a55565b04612dea61166e82600554613268565b8461378e565b612dfc61214882614511565b9080612ec8575b50336000908152601060205260409020612e1e908690611615565b612e29858254613268565b9055612e83610dea612e46612e3d886145aa565b610cc985613a3d565b92612e5a612e5261331f565b858a33613b91565b612e6e88600052600b602052604060002090565b612e79858254613b75565b9055600c54613268565b612eaf8430337f000000000000000000000000000000000000000000000000000000000000000061379b565b6040805194855260208501919091523393918291820190565b612ed761178c82600d54613268565b336000908152601260205260409020612ef590611216908890611615565b905538612e03565b612f3592612aa6612aab936040516020810190612a9b81612a8d33856014916bffffffffffffffffffffffff199060601b1681520190565b388080612d83565b60019150612f4a816122eb565b1438612d3c565b634e487b7160e01b600052601160045260246000fd5b6000198114612f765760010190565b612f51565b8051821015612f8f5760209160051b010190565b6121ef565b91909180518351808203613037575050805190612fb082610854565b91612fbe6040519384610833565b808352612fcd601f1991610854565b0190602091368385013760005b815181101561302f57600581901b8281018401519087018401516000908152602081815260408083206001600160a01b039094168352929052205461302a91906130248287612f7b565b52612f67565b612fda565b509193505050565b604051635b05999160e01b815260048101919091526024810191909152604490fd5b94919091815184519081810361303757505060005b825181101561316157600581901b83810160209081015191870101516001600160a01b03929186908a85166130da575b6130b09482166130b557505050612f67565b61306e565b6130d091610c18611216926000526000602052604060002090565b905538858161243e565b91929390506130f78a610c18846000526000602052604060002090565b5483811061312a57918791846130b0969594036131228d610c18856000526000602052604060002090565b55945061309e565b6040516303dee4c560e01b81526001600160a01b038c16600482015260248101919091526044810184905260648101839052608490fd5b50949193929093600185511460001461320c576020858101518382015160408051928352928201526001600160a01b03838116929086169133917fc3d58168c5ae7397731d063d5bbf3d657854427343f4c083240f7aacaa2d0f6291a45b6001600160a01b0381166131d5575b5050505050565b84516001036131fb576020806131f1960151920151923361345c565b38808080806131ce565b613207949192336135a8565b6131f1565b6040516001600160a01b03828116919085169033907f4a39dc06d4c0dbc64b70af90fd698a233a518aa5d07e595d983b8c0526c8f7fb908061324f888c83613275565b0390a46131bf565b90620f4240918201809211612f7657565b91908201809211612f7657565b909161328c61052393604084526040840190610e5a565b916020818403910152610e5a565b908160209103126103fc575161052381610452565b909260a0926105239594600180861b03168352600060208401526040830152606082015281608082015201906104d2565b919261052395949160a094600180871b0380921685521660208401526040830152606082015281608082015201906104d2565b6040513d6000823e3d90fd5b6040519061332c82610813565b60008252565b3d1561335d573d90613343826108c9565b916133516040519384610833565b82523d6000602084013e565b606090565b9293919093843b613374575050505050565b602091613397604051948593849363f23a6e6160e01b98898652600486016132af565b038160006001600160a01b0388165af16000918161342c575b506133ef57826133be613332565b80519190826133e857604051632bfa23e760e11b81526001600160a01b0383166004820152602490fd5b9050602001fd5b6001600160e01b03191603613409575038808080806131ce565b604051632bfa23e760e11b81526001600160a01b03919091166004820152602490fd5b61344e91925060203d8111613455575b6134468183610833565b81019061329a565b90386133b0565b503d61343c565b939290949194853b613471575b505050505050565b613494602093604051958694859463f23a6e6160e01b998a8752600487016132e0565b038160006001600160a01b0388165af1600091816134d6575b506134bb57826133be613332565b6001600160e01b031916036134095750388080808080613469565b6134ef91925060203d8111613455576134468183610833565b90386134ad565b9261352561052395936135339360018060a01b031686526000602087015260a0604087015260a0860190610e5a565b908482036060860152610e5a565b9160808184039101526104d2565b93906105239593613525916135339460018060a01b03809216885216602087015260a0604087015260a0860190610e5a565b9293919093843b613585575050505050565b602091613397604051948593849363bc197c8160e01b98898652600486016134f6565b939290949194853b6135bc57505050505050565b613494602093604051958694859463bc197c8160e01b998a875260048701613541565b156135e657565b60405162461bcd60e51b815260206004820152601060248201526f21b7b73a32b9ba103737ba1037b832b760811b6044820152606490fd5b1561362557565b60405162461bcd60e51b8152602060048201526014602482015273456e74727920616c72656164792065786973747360601b6044820152606490fd5b1561366857565b60405162461bcd60e51b815260206004820152600f60248201526e10dbdb9d195cdd08195e1c1a5c9959608a1b6044820152606490fd5b92916136aa82610854565b916136b86040519384610833565b829481845260208094019160051b81019283116103fc57905b8282106136de5750505050565b813581529083019083016136d1565b156136f457565b60405162461bcd60e51b815260206004820152601460248201527324b73b30b634b21036b2b935b63290383937b7b360611b6044820152606490fd5b6006546801000000000000000081101561082e576001810180600655811015612f8f5760066000527ff652222313e28459528d920b65115c16c04f3efc82aaedc97be59f3f377c0d3f0155565b90620f4240918203918211612f7657565b91908203918211612f7657565b6040516323b872dd60e01b60208201526001600160a01b03928316602482015292909116604483015260648083019390935291815260a08101918183106001600160401b0384111761082e576137f3926040526137f5565b565b906000602091828151910182855af115613313576000513d61384857506001600160a01b0381163b155b6138265750565b604051635274afe760e01b81526001600160a01b039091166004820152602490fd5b6001141561381f565b600260035414613862576002600355565b604051633ee5aeb560e01b8152600490fd5b929091906000915b84518310156138c95761388f8386612f7b565b51906000828210156138b757506000526020526138b160406000205b92612f67565b9161387c565b6040916138b1938252602052206138ab565b915092501490565b156138d857565b60405162461bcd60e51b815260206004820152603060248201527f43616e6e6f74207769746864726177202d20636f6e7465737420696e2070726f60448201526f19dc995cdcc81bdc881cd95d1d1b195960821b6064820152608490fd5b1561393d57565b60405162461bcd60e51b815260206004820152600f60248201526e2737ba1032b73a393c9037bbb732b960891b6044820152606490fd5b60405163a9059cbb60e01b60208201526001600160a01b03909216602483015260448083019390935291815260808101916001600160401b0383118284101761082e576137f3926040526137f5565b156139ca57565b60405162461bcd60e51b815260206004820152601360248201527210dbdb9d195cdd081b9bdd081cd95d1d1b1959606a1b6044820152606490fd5b15613a0c57565b60405162461bcd60e51b8152602060048201526009602482015268139bc81c185e5bdd5d60ba1b6044820152606490fd5b90620f424091828102928184041490151715612f7657565b81810292918115918404141715612f7657565b8115613a72570490565b634e487b7160e01b600052601260045260246000fd5b15613a8f57565b60405162461bcd60e51b815260206004820152602160248201527f5365636f6e6461727920706f736974696f6e73206e6f7420617661696c61626c6044820152606560f81b6064820152608490fd5b15613ae557565b60405162461bcd60e51b815260206004820152602160248201527f456e74727920646f6573206e6f74206578697374206f722077697468647261776044820152603760f91b6064820152608490fd5b15613b3b57565b60405162461bcd60e51b81526020600482015260126024820152710416d6f756e74206d757374206265203e20360741b6044820152606490fd5b91909160008382019384129112908015821691151617612f7657565b6001600160a01b03811693929091908415612bff57613bcd60405192600184526020840152604083019160018352606084015260808301604052565b92815184519081810361303757505060005b8251811015613c245780613c1f9160051b613c1861121687610c18602080868b010151958c010151946000526000602052604060002090565b9055612f67565b613bdf565b509291936001825114600014613c9b5760208281015184820151604080519283529282015260009133917fc3d58168c5ae7397731d063d5bbf3d657854427343f4c083240f7aacaa2d0f629190a45b8051600103613c9157906020806137f3959301519101519133613362565b6137f39333613573565b60006040517f4a39dc06d4c0dbc64b70af90fd698a233a518aa5d07e595d983b8c0526c8f7fb339180613ccf888883613275565b0390a4613c73565b15613cde57565b60405162461bcd60e51b815260206004820152603060248201527f43616e6e6f74207769746864726177202d20636f6d7065746974696f6e20737460448201526f185c9d1959081bdc881cd95d1d1b195960821b6064820152608490fd5b15613d4357565b60405162461bcd60e51b8152602060048201526014602482015273115b9d1c9e48191bd95cc81b9bdd08195e1a5cdd60621b6044820152606490fd5b15613d8657565b60405162461bcd60e51b8152602060048201526014602482015273496e73756666696369656e742062616c616e636560601b6044820152606490fd5b81810392916000138015828513169184121617612f7657565b6001600160a01b038116929091908315612be757613e1660405192600184526020840152604083019160018352606084015260808301604052565b919060409460008651613e2881610813565b528151845190818103613f5c57505060005b8251811015613ed5578060051b60208082860101519187010151613e6c86610c18846000526000602052604060002090565b54818110613e9f5786610c18613e9a959493613e949303936000526000602052604060002090565b55612f67565b613e3a565b89516303dee4c560e01b81526001600160a01b038816600482015260248101919091526044810182905260648101839052608490fd5b50949060009493925060018151148514613f2a5760209081015192810151915192835282015233907fc3d58168c5ae7397731d063d5bbf3d657854427343f4c083240f7aacaa2d0f629080604081015b0390a4565b905133927f4a39dc06d4c0dbc64b70af90fd698a233a518aa5d07e595d983b8c0526c8f7fb928291613f259183613275565b8751635b05999160e01b815260048101919091526024810191909152604490fd5b15613f8457565b60405162461bcd60e51b815260206004820152601360248201527213585c9ad95d081b9bdd081c995cdbdb1d9959606a1b6044820152606490fd5b15613fc657565b60405162461bcd60e51b815260206004820152602560248201527f456e74727920646f6573206e6f74206578697374206f72207761732077697468604482015264323930bbb760d91b6064820152608490fd5b1561402057565b60405162461bcd60e51b81526020600482015260096024820152684e6f20746f6b656e7360b81b6044820152606490fd5b1561405857565b60405162461bcd60e51b81526020600482015260096024820152684e6f20737570706c7960b81b6044820152606490fd5b908160209103126103fc575190565b1561409f57565b60405162461bcd60e51b815260206004820152600a6024820152694e6f74206f7261636c6560b01b6044820152606490fd5b156140d857565b60405162461bcd60e51b815260206004820152600a6024820152694e6f20656e747269657360b01b6044820152606490fd5b1561411157565b60405162461bcd60e51b815260206004820152601c60248201527f436f6e74657374206e6f7420616374697665206f72206c6f636b6564000000006044820152606490fd5b1561415d57565b60405162461bcd60e51b815260206004820152601d60248201527f4d7573742068617665206174206c65617374206f6e652077696e6e65720000006044820152606490fd5b156141a957565b60405162461bcd60e51b8152602060048201526015602482015274082e4e4c2f240d8cadccee8d040dad2e6dac2e8c6d605b1b6044820152606490fd5b156141ed57565b60405162461bcd60e51b815260206004820152601060248201526f546f6f206d616e792077696e6e65727360801b6044820152606490fd5b9015612f8f5790565b9190811015612f8f5760051b0190565b1561424557565b60405162461bcd60e51b815260206004820152601960248201527f557365206e6f6e2d7a65726f207061796f757473206f6e6c79000000000000006044820152606490fd5b1561429157565b60405162461bcd60e51b815260206004820152601860248201527f5061796f757473206d7573742073756d20746f203130302500000000000000006044820152606490fd5b81835290916001600160fb1b0383116103fc5760209260051b809284830137010190565b92906143139061052395936040865260408601916142d6565b9260208185039101526142d6565b1561432857565b60405162461bcd60e51b815260206004820152601f60248201527f436f6e7465737420736574746c6564202d2063616e6e6f742063616e63656c006044820152606490fd5b1561437457565b60405162461bcd60e51b8152602060048201526012602482015271115e1c1a5c9e481b9bdd081c995858da195960721b6044820152606490fd5b156143b557565b60405162461bcd60e51b815260206004820152600f60248201526e105b1c9958591e481cd95d1d1b1959608a1b6044820152606490fd5b801580156144cb575b6144c5576144016144f3565b600c548101808211612f76578261441791613268565b80156144bd5761124d61444b917f000000000000000000000000000000000000000000000000000000000000000090613a55565b806144568484613268565b11156144bd576144698361446e93613268565b61378e565b9061449c61124d7f000000000000000000000000000000000000000000000000000000000000000083613a55565b8083116144b5575b508082116144b0575090565b905090565b9150386144a4565b505050600090565b50600090565b507f0000000000000000000000000000000000000000000000000000000000000000156143f5565b600854600d548101809111612f7657600e548101809111612f765790565b80158015614582575b6144c5576145266144f3565b600c548101808211612f76578261453c91613268565b80156144bd5761124d614570917f000000000000000000000000000000000000000000000000000000000000000090613a55565b90808211156144bd5761446e9161378e565b507f00000000000000000000000000000000000000000000000000000000000000001561451a565b6000818152600760205260408120549091906145d0906001600160a01b03161515613ade565b8152600b60205260408120548181129182614665575061461561463c915b7f000000000000000000000000000000000000000000000000000000000000000090613a55565b7f000000000000000000000000000000000000000000000000000000000000000090613a68565b9080614659575b6146505761052390613257565b6105239061377d565b50620f42408110614643565b600160ff1b8214612f765761463c9161461591036145ee565b1561468557565b60405162461bcd60e51b81526020600482015260116024820152704e6f742077696e6e696e6720656e74727960781b6044820152606490fd5b35610523816103eb565b6146d06144f3565b600c548101808211612f765780156146ff5761271091828102928184041490151715612f765761052391613a68565b505060009056fea2646970667358221220e3cbb5c09468a14bd1b06c15913cba990c798be52aab395497ab0d2389d930ca64736f6c63430008140033","linkReferences":{}},"methodIdentifiers":{"BPS_DENOMINATOR()":"e1a45218","PRICE_PRECISION()":"95082d25","accumulatedOracleFee()":"4ee837a6","activateContest()":"24f9cc4c","addPrimaryPosition(uint256,bytes32[])":"e1db226a","addSecondaryPosition(uint256,uint256,bytes32[])":"fed76325","balanceOf(address,uint256)":"00fdd58e","balanceOfBatch(address[],uint256[])":"4e1273f4","calculateSecondaryPrice(uint256)":"3a2babc2","cancelContest()":"1db0e667","cancelExpired()":"a01e4a1f","claimOracleFee()":"7ae45fe3","claimPrimaryPayout(uint256)":"af19e0d5","claimSecondaryPayout(uint256)":"4034b060","closeContest()":"a094c632","demandSensitivityBps()":"693b4660","entries(uint256)":"b30906d4","entryOwner(uint256)":"df1ef4c6","expiryTimestamp()":"ade6e2aa","getEntriesCount()":"d09685b0","getEntryAtIndex(uint256)":"c9a496aa","getPrimarySideBalance()":"7680a51e","getPrimarySideShareBps()":"4fd34950","isApprovedForAll(address,address)":"e985e9c5","liquidityParameter()":"3a69a1be","lockContest()":"75f25006","maxCrossSubsidyBps()":"a5b3f3f6","netPosition(uint256)":"6932b382","oracle()":"7dc0d1d0","oracleFeeBps()":"5c76fda7","paymentToken()":"3013ce29","primaryDepositAmount()":"933b1282","primaryMerkleRoot()":"ed4af81f","primaryPositionShareBps()":"79acdb3a","primaryPositionSubsidy(uint256)":"c53e21e4","primaryPrizePool()":"b9937e30","primaryPrizePoolPayouts(uint256)":"c8d5c1b1","primaryPrizePoolSubsidy()":"a7e2bc54","primaryShareBps()":"84e43b48","primaryToSecondarySubsidy(uint256)":"b3563570","pushPrimaryPayouts(uint256[])":"c8d22700","pushSecondaryPayouts(address[],uint256)":"d6a74ce0","removePrimaryPosition(uint256)":"7e8f1234","removeSecondaryPosition(uint256,uint256)":"74d34214","safeBatchTransferFrom(address,address,uint256[],uint256[],bytes)":"2eb2c2d6","safeTransferFrom(address,address,uint256,uint256,bytes)":"f242432a","secondaryDepositedPerEntry(address,uint256)":"bf6bbf09","secondaryMarketResolved()":"ae4c8ba9","secondaryMerkleRoot()":"9a9a5d9d","secondaryPrizePool()":"829e4c64","secondaryToPrimarySubsidy(address,uint256)":"655984f3","secondaryWinningEntry()":"af1d9197","setApprovalForAll(address,bool)":"a22cb465","setPrimaryMerkleRoot(bytes32)":"fc8c28e1","setSecondaryMerkleRoot(bytes32)":"3789a2fb","settleContest(uint256[],uint256[])":"563930e7","state()":"c19d93fb","supportsInterface(bytes4)":"01ffc9a7","targetPrimaryShareBps()":"d601eef3","totalPrimaryPositionSubsidies()":"219200f9","uri(uint256)":"0e89341c"},"id":46}