{"abi":[{"type":"constructor","inputs":[{"name":"_paymentToken","type":"address","internalType":"address"},{"name":"_oracle","type":"address","internalType":"address"},{"name":"_primaryDepositAmount","type":"uint256","internalType":"uint256"},{"name":"_oracleFeeBps","type":"uint256","internalType":"uint256"},{"name":"_expiryTimestamp","type":"uint256","internalType":"uint256"},{"name":"_primaryEntryInvestmentShareBps","type":"uint256","internalType":"uint256"}],"stateMutability":"nonpayable"},{"type":"function","name":"BPS_DENOMINATOR","inputs":[],"outputs":[{"name":"","type":"uint256","internalType":"uint256"}],"stateMutability":"view"},{"type":"function","name":"PRICE_PRECISION","inputs":[],"outputs":[{"name":"","type":"uint256","internalType":"uint256"}],"stateMutability":"view"},{"type":"function","name":"accumulatedOracleFee","inputs":[],"outputs":[{"name":"","type":"uint256","internalType":"uint256"}],"stateMutability":"view"},{"type":"function","name":"activateContest","inputs":[],"outputs":[],"stateMutability":"nonpayable"},{"type":"function","name":"addPrimaryPosition","inputs":[{"name":"entryId","type":"uint256","internalType":"uint256"},{"name":"merkleProof","type":"bytes32[]","internalType":"bytes32[]"}],"outputs":[],"stateMutability":"nonpayable"},{"type":"function","name":"addSecondaryPosition","inputs":[{"name":"entryId","type":"uint256","internalType":"uint256"},{"name":"amount","type":"uint256","internalType":"uint256"},{"name":"merkleProof","type":"bytes32[]","internalType":"bytes32[]"}],"outputs":[],"stateMutability":"nonpayable"},{"type":"function","name":"balanceOf","inputs":[{"name":"","type":"address","internalType":"address"},{"name":"","type":"uint256","internalType":"uint256"}],"outputs":[{"name":"","type":"uint256","internalType":"uint256"}],"stateMutability":"view"},{"type":"function","name":"balanceOfBatch","inputs":[{"name":"owners","type":"address[]","internalType":"address[]"},{"name":"ids","type":"uint256[]","internalType":"uint256[]"}],"outputs":[{"name":"balances","type":"uint256[]","internalType":"uint256[]"}],"stateMutability":"view"},{"type":"function","name":"calculateSecondaryPrice","inputs":[{"name":"entryId","type":"uint256","internalType":"uint256"}],"outputs":[{"name":"","type":"uint256","internalType":"uint256"}],"stateMutability":"view"},{"type":"function","name":"cancelContest","inputs":[],"outputs":[],"stateMutability":"nonpayable"},{"type":"function","name":"cancelExpired","inputs":[],"outputs":[],"stateMutability":"nonpayable"},{"type":"function","name":"claimOracleFee","inputs":[],"outputs":[],"stateMutability":"nonpayable"},{"type":"function","name":"claimPrimaryPayout","inputs":[{"name":"entryId","type":"uint256","internalType":"uint256"}],"outputs":[],"stateMutability":"nonpayable"},{"type":"function","name":"claimSecondaryPayout","inputs":[{"name":"entryId","type":"uint256","internalType":"uint256"}],"outputs":[],"stateMutability":"nonpayable"},{"type":"function","name":"closeContest","inputs":[],"outputs":[],"stateMutability":"nonpayable"},{"type":"function","name":"entries","inputs":[{"name":"","type":"uint256","internalType":"uint256"}],"outputs":[{"name":"","type":"uint256","internalType":"uint256"}],"stateMutability":"view"},{"type":"function","name":"entryOwner","inputs":[{"name":"","type":"uint256","internalType":"uint256"}],"outputs":[{"name":"","type":"address","internalType":"address"}],"stateMutability":"view"},{"type":"function","name":"expiryTimestamp","inputs":[],"outputs":[{"name":"","type":"uint256","internalType":"uint256"}],"stateMutability":"view"},{"type":"function","name":"getEntriesCount","inputs":[],"outputs":[{"name":"","type":"uint256","internalType":"uint256"}],"stateMutability":"view"},{"type":"function","name":"getEntryAtIndex","inputs":[{"name":"index","type":"uint256","internalType":"uint256"}],"outputs":[{"name":"","type":"uint256","internalType":"uint256"}],"stateMutability":"view"},{"type":"function","name":"getPrimarySideBalance","inputs":[],"outputs":[{"name":"","type":"uint256","internalType":"uint256"}],"stateMutability":"view"},{"type":"function","name":"getPrimarySideShareBps","inputs":[],"outputs":[{"name":"","type":"uint256","internalType":"uint256"}],"stateMutability":"view"},{"type":"function","name":"getSecondarySideBalance","inputs":[],"outputs":[{"name":"","type":"uint256","internalType":"uint256"}],"stateMutability":"view"},{"type":"function","name":"isApprovedForAll","inputs":[{"name":"","type":"address","internalType":"address"},{"name":"","type":"address","internalType":"address"}],"outputs":[{"name":"","type":"bool","internalType":"bool"}],"stateMutability":"view"},{"type":"function","name":"lockContest","inputs":[],"outputs":[],"stateMutability":"nonpayable"},{"type":"function","name":"netPosition","inputs":[{"name":"","type":"uint256","internalType":"uint256"}],"outputs":[{"name":"","type":"int256","internalType":"int256"}],"stateMutability":"view"},{"type":"function","name":"oracle","inputs":[],"outputs":[{"name":"","type":"address","internalType":"address"}],"stateMutability":"view"},{"type":"function","name":"oracleFeeBps","inputs":[],"outputs":[{"name":"","type":"uint256","internalType":"uint256"}],"stateMutability":"view"},{"type":"function","name":"paymentToken","inputs":[],"outputs":[{"name":"","type":"address","internalType":"address"}],"stateMutability":"view"},{"type":"function","name":"primaryDepositAmount","inputs":[],"outputs":[{"name":"","type":"uint256","internalType":"uint256"}],"stateMutability":"view"},{"type":"function","name":"primaryEntryInvestmentShareBps","inputs":[],"outputs":[{"name":"","type":"uint256","internalType":"uint256"}],"stateMutability":"view"},{"type":"function","name":"primaryMerkleRoot","inputs":[],"outputs":[{"name":"","type":"bytes32","internalType":"bytes32"}],"stateMutability":"view"},{"type":"function","name":"primaryPrizePool","inputs":[],"outputs":[{"name":"","type":"uint256","internalType":"uint256"}],"stateMutability":"view"},{"type":"function","name":"primaryPrizePoolPayouts","inputs":[{"name":"","type":"uint256","internalType":"uint256"}],"outputs":[{"name":"","type":"uint256","internalType":"uint256"}],"stateMutability":"view"},{"type":"function","name":"pushPrimaryPayouts","inputs":[{"name":"entryIds","type":"uint256[]","internalType":"uint256[]"}],"outputs":[],"stateMutability":"nonpayable"},{"type":"function","name":"pushSecondaryPayouts","inputs":[{"name":"participantAddresses","type":"address[]","internalType":"address[]"},{"name":"entryId","type":"uint256","internalType":"uint256"}],"outputs":[],"stateMutability":"nonpayable"},{"type":"function","name":"removePrimaryPosition","inputs":[{"name":"entryId","type":"uint256","internalType":"uint256"}],"outputs":[],"stateMutability":"nonpayable"},{"type":"function","name":"removeSecondaryPosition","inputs":[{"name":"entryId","type":"uint256","internalType":"uint256"},{"name":"tokenAmount","type":"uint256","internalType":"uint256"}],"outputs":[],"stateMutability":"nonpayable"},{"type":"function","name":"safeBatchTransferFrom","inputs":[{"name":"from","type":"address","internalType":"address"},{"name":"to","type":"address","internalType":"address"},{"name":"ids","type":"uint256[]","internalType":"uint256[]"},{"name":"amounts","type":"uint256[]","internalType":"uint256[]"},{"name":"data","type":"bytes","internalType":"bytes"}],"outputs":[],"stateMutability":"nonpayable"},{"type":"function","name":"safeTransferFrom","inputs":[{"name":"from","type":"address","internalType":"address"},{"name":"to","type":"address","internalType":"address"},{"name":"id","type":"uint256","internalType":"uint256"},{"name":"amount","type":"uint256","internalType":"uint256"},{"name":"data","type":"bytes","internalType":"bytes"}],"outputs":[],"stateMutability":"nonpayable"},{"type":"function","name":"secondaryLiquidityPerEntry","inputs":[{"name":"","type":"uint256","internalType":"uint256"}],"outputs":[{"name":"","type":"uint256","internalType":"uint256"}],"stateMutability":"view"},{"type":"function","name":"secondaryMarketResolved","inputs":[],"outputs":[{"name":"","type":"bool","internalType":"bool"}],"stateMutability":"view"},{"type":"function","name":"secondaryMerkleRoot","inputs":[],"outputs":[{"name":"","type":"bytes32","internalType":"bytes32"}],"stateMutability":"view"},{"type":"function","name":"secondaryWinningEntry","inputs":[],"outputs":[{"name":"","type":"uint256","internalType":"uint256"}],"stateMutability":"view"},{"type":"function","name":"setApprovalForAll","inputs":[{"name":"operator","type":"address","internalType":"address"},{"name":"approved","type":"bool","internalType":"bool"}],"outputs":[],"stateMutability":"nonpayable"},{"type":"function","name":"setPrimaryMerkleRoot","inputs":[{"name":"_root","type":"bytes32","internalType":"bytes32"}],"outputs":[],"stateMutability":"nonpayable"},{"type":"function","name":"setSecondaryMerkleRoot","inputs":[{"name":"_root","type":"bytes32","internalType":"bytes32"}],"outputs":[],"stateMutability":"nonpayable"},{"type":"function","name":"settleContest","inputs":[{"name":"winningEntries","type":"uint256[]","internalType":"uint256[]"},{"name":"payoutBps","type":"uint256[]","internalType":"uint256[]"}],"outputs":[],"stateMutability":"nonpayable"},{"type":"function","name":"state","inputs":[],"outputs":[{"name":"","type":"uint8","internalType":"enum ContestController.ContestState"}],"stateMutability":"view"},{"type":"function","name":"supportsInterface","inputs":[{"name":"interfaceId","type":"bytes4","internalType":"bytes4"}],"outputs":[{"name":"","type":"bool","internalType":"bool"}],"stateMutability":"view"},{"type":"function","name":"totalSecondaryLiquidity","inputs":[],"outputs":[{"name":"sum","type":"uint256","internalType":"uint256"}],"stateMutability":"view"},{"type":"function","name":"uri","inputs":[{"name":"","type":"uint256","internalType":"uint256"}],"outputs":[{"name":"","type":"string","internalType":"string"}],"stateMutability":"pure"},{"type":"event","name":"ApprovalForAll","inputs":[{"name":"owner","type":"address","indexed":true,"internalType":"address"},{"name":"operator","type":"address","indexed":true,"internalType":"address"},{"name":"approved","type":"bool","indexed":false,"internalType":"bool"}],"anonymous":false},{"type":"event","name":"ContestActivated","inputs":[],"anonymous":false},{"type":"event","name":"ContestCancelled","inputs":[],"anonymous":false},{"type":"event","name":"ContestClosed","inputs":[],"anonymous":false},{"type":"event","name":"ContestLocked","inputs":[],"anonymous":false},{"type":"event","name":"ContestSettled","inputs":[{"name":"winningEntries","type":"uint256[]","indexed":false,"internalType":"uint256[]"},{"name":"payouts","type":"uint256[]","indexed":false,"internalType":"uint256[]"}],"anonymous":false},{"type":"event","name":"PrimaryMerkleRootUpdated","inputs":[{"name":"newRoot","type":"bytes32","indexed":false,"internalType":"bytes32"}],"anonymous":false},{"type":"event","name":"PrimaryPayoutClaimed","inputs":[{"name":"owner","type":"address","indexed":true,"internalType":"address"},{"name":"entryId","type":"uint256","indexed":true,"internalType":"uint256"},{"name":"amount","type":"uint256","indexed":false,"internalType":"uint256"}],"anonymous":false},{"type":"event","name":"PrimaryPositionAdded","inputs":[{"name":"owner","type":"address","indexed":true,"internalType":"address"},{"name":"entryId","type":"uint256","indexed":true,"internalType":"uint256"}],"anonymous":false},{"type":"event","name":"PrimaryPositionAdded","inputs":[{"name":"owner","type":"address","indexed":true,"internalType":"address"},{"name":"entryId","type":"uint256","indexed":true,"internalType":"uint256"}],"anonymous":false},{"type":"event","name":"PrimaryPositionRemoved","inputs":[{"name":"entryId","type":"uint256","indexed":true,"internalType":"uint256"},{"name":"owner","type":"address","indexed":true,"internalType":"address"}],"anonymous":false},{"type":"event","name":"PrimaryPositionRemoved","inputs":[{"name":"entryId","type":"uint256","indexed":true,"internalType":"uint256"},{"name":"owner","type":"address","indexed":true,"internalType":"address"}],"anonymous":false},{"type":"event","name":"SecondaryMerkleRootUpdated","inputs":[{"name":"newRoot","type":"bytes32","indexed":false,"internalType":"bytes32"}],"anonymous":false},{"type":"event","name":"SecondaryPayoutClaimed","inputs":[{"name":"participant","type":"address","indexed":true,"internalType":"address"},{"name":"entryId","type":"uint256","indexed":true,"internalType":"uint256"},{"name":"payout","type":"uint256","indexed":false,"internalType":"uint256"}],"anonymous":false},{"type":"event","name":"SecondaryPositionAdded","inputs":[{"name":"participant","type":"address","indexed":true,"internalType":"address"},{"name":"entryId","type":"uint256","indexed":true,"internalType":"uint256"},{"name":"amount","type":"uint256","indexed":false,"internalType":"uint256"},{"name":"participantTokensReceived","type":"uint256","indexed":false,"internalType":"uint256"},{"name":"primaryEntryInvestment","type":"uint256","indexed":false,"internalType":"uint256"},{"name":"ownerTokensReceived","type":"uint256","indexed":false,"internalType":"uint256"}],"anonymous":false},{"type":"event","name":"SecondaryPositionAdded","inputs":[{"name":"participant","type":"address","indexed":true,"internalType":"address"},{"name":"entryId","type":"uint256","indexed":true,"internalType":"uint256"},{"name":"amount","type":"uint256","indexed":false,"internalType":"uint256"},{"name":"participantTokensReceived","type":"uint256","indexed":false,"internalType":"uint256"},{"name":"primaryEntryInvestment","type":"uint256","indexed":false,"internalType":"uint256"},{"name":"ownerTokensReceived","type":"uint256","indexed":false,"internalType":"uint256"}],"anonymous":false},{"type":"event","name":"SecondaryPositionSold","inputs":[{"name":"participant","type":"address","indexed":true,"internalType":"address"},{"name":"entryId","type":"uint256","indexed":true,"internalType":"uint256"},{"name":"tokenAmount","type":"uint256","indexed":false,"internalType":"uint256"},{"name":"proceeds","type":"uint256","indexed":false,"internalType":"uint256"}],"anonymous":false},{"type":"event","name":"SecondaryPositionSold","inputs":[{"name":"participant","type":"address","indexed":true,"internalType":"address"},{"name":"entryId","type":"uint256","indexed":true,"internalType":"uint256"},{"name":"tokenAmount","type":"uint256","indexed":false,"internalType":"uint256"},{"name":"proceeds","type":"uint256","indexed":false,"internalType":"uint256"}],"anonymous":false},{"type":"event","name":"TransferBatch","inputs":[{"name":"operator","type":"address","indexed":true,"internalType":"address"},{"name":"from","type":"address","indexed":true,"internalType":"address"},{"name":"to","type":"address","indexed":true,"internalType":"address"},{"name":"ids","type":"uint256[]","indexed":false,"internalType":"uint256[]"},{"name":"amounts","type":"uint256[]","indexed":false,"internalType":"uint256[]"}],"anonymous":false},{"type":"event","name":"TransferSingle","inputs":[{"name":"operator","type":"address","indexed":true,"internalType":"address"},{"name":"from","type":"address","indexed":true,"internalType":"address"},{"name":"to","type":"address","indexed":true,"internalType":"address"},{"name":"id","type":"uint256","indexed":false,"internalType":"uint256"},{"name":"amount","type":"uint256","indexed":false,"internalType":"uint256"}],"anonymous":false},{"type":"event","name":"URI","inputs":[{"name":"value","type":"string","indexed":false,"internalType":"string"},{"name":"id","type":"uint256","indexed":true,"internalType":"uint256"}],"anonymous":false}],"bytecode":{"object":"0x6101403461037757601f613c3b38819003918201601f19168301916001600160401b0383118484101761037b5780849260c094604052833981010312610377576100488161038f565b906100556020820161038f565b60408201516060830151608084015160a0909401516001600255949092906001600160a01b03811615610332576001600160a01b038216156102fc5782156102b7576103e88411610272574285111561023c5761271086116101e85760805260a05260c05260e052610100526101205260ff196003541660035560405161389790816103a4823960805181818161044401528181610a6d01528181610dd001528181610fc0015281816112d9015281816114ff0152818161189e015281816119e201528181611be1015281816124a70152612871015260a05181818161069201528181610be601528181610f630152818161147e015281816119490152818161199c01528181611a5c01528181611e7b0152818161282101528181612b050152612c0e015260c0518181816109b70152818161178e015261183c015260e051818181610d9101528181610feb015281816112a501528181611e42015261255901526101005181818161098f015281816113c0015281816114c501526116490152610120518181816102fb0152610e550152f35b60405162461bcd60e51b815260206004820152602660248201527f496e76616c6964207072696d61727920656e74727920696e766573746d656e7460448201526520736861726560d01b6064820152608490fd5b60405162461bcd60e51b815260206004820152600e60248201526d115e1c1a5c9e481a5b881c185cdd60921b6044820152606490fd5b60405162461bcd60e51b815260206004820152601360248201527f4f7261636c652066656520746f6f2068696768000000000000000000000000006044820152606490fd5b60405162461bcd60e51b815260206004820152601660248201527f496e76616c6964206465706f73697420616d6f756e74000000000000000000006044820152606490fd5b60405162461bcd60e51b815260206004820152600e60248201526d496e76616c6964206f7261636c6560901b6044820152606490fd5b60405162461bcd60e51b815260206004820152601560248201527f496e76616c6964207061796d656e7420746f6b656e00000000000000000000006044820152606490fd5b5f80fd5b634e487b7160e01b5f52604160045260245ffd5b51906001600160a01b03821682036103775756fe6080806040526004361015610012575f80fd5b5f3560e01c908162fdd58e14612d6b5750806301ffc9a714612cfd5780630e89341c14612cc05780631db0e66714612bf857806324f9cc4c14612aef5780632eb2c2d6146128a05780633013ce291461285c5780633789a2fb146127e45780633a2babc2146127a45780634034b060146123c35780634e1273f4146122c25780634ee837a6146122a55780634fd3495014612283578063563930e714611e655780635c76fda714611e2b5780636932b38214611e0157806374d3421414611b0d57806375f2500614611a465780637680a51e1461116d5780637ae45fe3146119785780637dc0d1d0146119345780637e8f1234146117b1578063933b1282146117775780639455937a14610b7557806395082d251461175a5780639a9a5d9d1461173d578063a01e4a1f14611637578063a094c6321461146c578063a22cb465146113e3578063ade6e2aa146113a9578063ae4c8ba914611387578063af19e0d5146111fa578063af1d9197146111dd578063b30906d4146111b4578063b48e94ce1461118a578063b9937e301461116d578063c19d93fb14611144578063c8d2270014610f2c578063c8d5c1b114610f02578063c9a496aa14610e95578063d09685b014610e78578063d1a7dabc14610e3e578063d6a74ce014610bac578063df1ef4c614610b7a578063e08a1a4214610b75578063e1a4521814610b59578063e1db226a1461090c578063e985e9c5146108b5578063ed4af81f14610898578063f242432a146106cd578063fc8c28e1146106555763fed7632514610257575f80fd5b34610651576060366003190112610651576004356024356044356001600160401b038111610651576102906102ad913690600401612df9565b9061029f6001600254146130a4565b60028055600e54339061347b565b60ff60035416600681101561063d578015908115610632575b50156105e3575f828152600660205260409020546001600160a01b031615610594576102f38115156133fc565b6127106103207f000000000000000000000000000000000000000000000000000000000000000083613115565b049161032c8383612fbd565b90805f52600a60205260405f20545f81135f1461058d575b84158015939061058557610358868361362e565b80945b61050f575b61036d9061037293612fca565b61362e565b80156104af57815f52600b60205260405f2061038f858254612fca565b905561039b8184612fca565b92825f52600a60205260405f2080545f868201968712911290801582169115161761049b5761047196610440958592556040519087825284602083015260408201528260608201527f5800e09d8494dbc3b74037eb4b461080c8c687b48d5889543b4902ba9de5195560803392a35f838152600660205260409020546001600160a01b031681610478575b505060405191610437602084612ed8565b5f8352336136dc565b30337f00000000000000000000000000000000000000000000000000000000000000006001600160a01b0316613590565b6001600255005b61049491846040519261048c602085612ed8565b5f84526136dc565b5f80610426565b634e487b7160e01b5f52601160045260245ffd5b60405162461bcd60e51b815260206004820152603260248201527f5061796d656e7420746f6f20736d616c6c3a20696e73756666696369656e7420604482015271746f20707572636861736520746f6b656e7360701b6064820152608490fd5b1561051a5783610360565b60405162461bcd60e51b815260206004820152603a60248201527f5061796d656e7420746f6f20736d616c6c3a207072696d61727920656e74727960448201527f20696e766573746d656e742062757973206e6f20746f6b656e730000000000006064820152608490fd5b5f809461035b565b505f610344565b60405162461bcd60e51b815260206004820152602160248201527f456e74727920646f6573206e6f74206578697374206f722077697468647261776044820152603760f91b6064820152608490fd5b60405162461bcd60e51b815260206004820152602160248201527f5365636f6e6461727920706f736974696f6e73206e6f7420617661696c61626c6044820152606560f81b6064820152608490fd5b60019150145f6102c6565b634e487b7160e01b5f52602160045260245ffd5b5f80fd5b34610651576020366003190112610651577f1f3ffb5a38f057a21fbb6b9c891954827a2657844fbc0ae99188cce46f059e2b60206004356106c0337f00000000000000000000000000000000000000000000000000000000000000006001600160a01b031614612ef9565b80600955604051908152a1005b346106515760a0366003190112610651576106e6612da9565b6106ee612dbf565b6064356044356084356001600160401b03811161065157610713903690600401612e29565b946001600160a01b0316903382148015610876575b61073190612f70565b815f525f60205260405f20835f5260205260405f20610751858254612fbd565b905560018060a01b03851694855f525f60205260405f20845f5260205260405f2061077d868254612fca565b905585836040518681528760208201527fc3d58168c5ae7397731d063d5bbf3d657854427343f4c083240f7aacaa2d0f6260403392a43b6107ca57505050506107c891501515613065565b005b602094929161080e5f926040519889978896879563f23a6e6160e01b875233600488015260248701526044860152606485015260a0608485015260a4840191613045565b03925af1801561086b576107c8915f9161083c575b506001600160e01b03191663f23a6e6160e01b14613065565b61085e915060203d602011610864575b6108568183612ed8565b810190613025565b82610823565b503d61084c565b6040513d5f823e3d90fd5b505f82815260016020908152604080832033845290915290205460ff16610728565b34610651575f366003190112610651576020600954604051908152f35b34610651576040366003190112610651576108ce612da9565b6108d6612dbf565b9060018060a01b03165f52600160205260405f209060018060a01b03165f52602052602060ff60405f2054166040519015158152f35b34610651576040366003190112610651576004356024356001600160401b0381116106515761094261095f913690600401612df9565b906109516001600254146130a4565b60028055600954339061347b565b60ff60035416600681101561063d57610b21575f818152600660205260409020546001600160a01b0316610ae5577f0000000000000000000000000000000000000000000000000000000000000000421015610aae577f00000000000000000000000000000000000000000000000000000000000000006005549168010000000000000000831015610a9a576109fe8360016104719501600555612ec0565b81549060031b9083821b915f19901b1916179055805f52600660205260405f20336bffffffffffffffffffffffff60a01b825416179055337f4a3a30e0139991c1b1492b4364701af9484bb9032a696c2b8c748a1e51f2fd175f80a3610a6681600754612fca565b60075530337f00000000000000000000000000000000000000000000000000000000000000006001600160a01b0316613590565b634e487b7160e01b5f52604160045260245ffd5b60405162461bcd60e51b815260206004820152600f60248201526e10dbdb9d195cdd08195e1c1a5c9959608a1b6044820152606490fd5b60405162461bcd60e51b8152602060048201526014602482015273456e74727920616c72656164792065786973747360601b6044820152606490fd5b60405162461bcd60e51b815260206004820152601060248201526f21b7b73a32b9ba103737ba1037b832b760811b6044820152606490fd5b34610651575f3660031901126106515760206040516127108152f35b612ea6565b34610651576020366003190112610651576004355f526006602052602060018060a01b0360405f205416604051908152f35b34610651576040366003190112610651576004356001600160401b03811161065157610bdc903690600401612df9565b90602435610c14337f00000000000000000000000000000000000000000000000000000000000000006001600160a01b031614612ef9565b610c226001600254146130a4565b6002805560ff60035416600681101561063d576003610c4191146131c7565b610c4f60ff600d5416613209565b610c5c600c54821461324b565b805f52600a602052610c7360405f205415156130dd565b5f5b838110610c83576001600255005b8082610c9a610c956001948888612fad565b613175565b838060a01b03811690815f525f60205260405f20835f5260205260405f205480610cc9575b5050505001610c75565b835f52600a60205260405f2054845f52600b60205260405f20549080151580610e35575b15610e2c57610cff610d049284613115565b613128565b905b610d1181868561330a565b845f52600a602052610d2860405f20918254613146565b90558015610cbf577fe256ef8b7b6eaeb621f7e7ca3b683f124df401cb260bbaccf0540299944b858a91610df5602092865f52600b84528060405f205410155f14610e1a57865f52600b845260405f20610d83828254612fbd565b90555b610dbe612710610db67f000000000000000000000000000000000000000000000000000000000000000084613115565b048092612fbd565b92818492610e05575b50898060a01b037f00000000000000000000000000000000000000000000000000000000000000001661336c565b604051908152a382868080610cbf565b610e1190600454612fca565b6004558d610dc7565b865f52600b84525f6040812055610d86565b50505f90610d06565b50811515610ced565b34610651575f3660031901126106515760206040517f00000000000000000000000000000000000000000000000000000000000000008152f35b34610651575f366003190112610651576020600554604051908152f35b3461065157602036600319011261065157600435600554811015610ecd57610ebe602091612ec0565b90549060031b1c604051908152f35b60405162461bcd60e51b815260206004820152600d60248201526c092dcecc2d8d2c840d2dcc8caf609b1b6044820152606490fd5b34610651576020366003190112610651576004355f526008602052602060405f2054604051908152f35b34610651576020366003190112610651576004356001600160401b03811161065157610f5c903690600401612df9565b90610f91337f00000000000000000000000000000000000000000000000000000000000000006001600160a01b031614612ef9565b610f9f6001600254146130a4565b6002805560ff60035416600681101561063d576003610fbe91146131c7565b7f00000000000000000000000000000000000000000000000000000000000000006001600160a01b0316917f0000000000000000000000000000000000000000000000000000000000000000905f5b81811061101b576001600255005b611026818386612fad565b355f818152600660205260409020546001600160a01b0316919082156110ff57600192815f52600860205260405f205480156110f75760207e89742e8fcde5f6c48a17ec50347f2b2d98d85a17abe162b4cd552516f752dd91845f52600882525f60408120558060075410155f146110ee576110a481600754612fbd565b6007555b6110b8612710610db68b84613115565b90806110d9575b506110cb81858d61336c565b604051908152a35b0161100d565b6110e590600454612fca565b6004558b6110bf565b5f6007556110a8565b5050506110d3565b60405162461bcd60e51b815260206004820152601a60248201527f456e7472792077697468647261776e206f7220696e76616c69640000000000006044820152606490fd5b34610651575f3660031901126106515760ff60035416604051600682101561063d576020918152f35b34610651575f366003190112610651576020600754604051908152f35b34610651576020366003190112610651576004355f52600b602052602060405f2054604051908152f35b346106515760203660031901126106515760043560055481101561065157610ebe602091612ec0565b34610651575f366003190112610651576020600c54604051908152f35b346106515760203660031901126106515760043561121c6001600254146130a4565b6002805560ff60035416600681101561063d57815f526008602052611248600360405f205492146131c7565b5f8281526006602052604090205461126a906001600160a01b0316331461343d565b15611356575f8181526008602052604081208054919055600754811161134d5761129681600754612fbd565b6007555b6112ca612710610db67f000000000000000000000000000000000000000000000000000000000000000084613115565b9080611338575b5061130681337f00000000000000000000000000000000000000000000000000000000000000006001600160a01b031661336c565b6040519081527e89742e8fcde5f6c48a17ec50347f2b2d98d85a17abe162b4cd552516f752dd60203392a36001600255005b61134490600454612fca565b600455826112d1565b5f60075561129a565b60405162461bcd60e51b8152602060048201526009602482015268139bc81c185e5bdd5d60ba1b6044820152606490fd5b34610651575f36600319011261065157602060ff600d54166040519015158152f35b34610651575f3660031901126106515760206040517f00000000000000000000000000000000000000000000000000000000000000008152f35b34610651576040366003190112610651576113fc612da9565b6024359081151580920361065157335f52600160205260405f2060018060a01b0382165f5260205260405f2060ff1981541660ff841617905560405191825260018060a01b0316907f17307eab39ab6107e8899845ad3d59bd9653f200f220920489ca2b5937696c3160203392a3005b34610651575f366003190112610651577f00000000000000000000000000000000000000000000000000000000000000006114b1336001600160a01b03831614612ef9565b6114bf6001600254146130a4565b600280557f000000000000000000000000000000000000000000000000000000000000000042106115fd576040516370a0823160e01b81523060048201527f00000000000000000000000000000000000000000000000000000000000000006001600160a01b031691602082602481865afa91821561086b575f926115c9575b508161154c576001600255005b5f6007555f6004555f5b600554811015611586578061156c600192612ec0565b90549060031b1c5f52600b6020525f604081205501611556565b5061159d92600560ff19600354161760035561336c565b7fef19c40e684c836035e6598f5d86819dfec89371571efdeed7947339739711435f80a1808080610471565b9091506020813d6020116115f5575b816115e560209383612ed8565b810103126106515751908361153f565b3d91506115d8565b60405162461bcd60e51b8152602060048201526012602482015271115e1c1a5c9e481b9bdd081c995858da195960721b6044820152606490fd5b34610651575f366003190112610651577f0000000000000000000000000000000000000000000000000000000000000000421061170a5760ff60035416600681101561063d57600381141590816116fe575b50156116c7576116a1600460ff196003541617600355565b7f9237e8f0d5063a695b8695e82c82bc24d15591de9d04449771a6ea4b128317375f80a1005b60405162461bcd60e51b815260206004820152600f60248201526e105b1c9958591e481cd95d1d1b1959608a1b6044820152606490fd5b60059150141581611689565b60405162461bcd60e51b815260206004820152600b60248201526a139bdd08195e1c1a5c995960aa1b6044820152606490fd5b34610651575f366003190112610651576020600e54604051908152f35b34610651575f366003190112610651576020604051620f42408152f35b34610651575f3660031901126106515760206040517f00000000000000000000000000000000000000000000000000000000000000008152f35b34610651576020366003190112610651576004356117d36001600254146130a4565b6002805560ff60035416600681101561063d578015908115611929575b50156118cb575f81815260066020526040902054610471919061181d906001600160a01b0316331461343d565b5f81815260066020526040812080546001600160a01b031981169091557f0000000000000000000000000000000000000000000000000000000000000000926001600160a01b03909116917fa11660be5ca5ef93a56a1f22e4de3d92bcb1727897a5e70a7262c26e256f3a409080a361189881600754612fbd565b600755337f00000000000000000000000000000000000000000000000000000000000000006001600160a01b031661336c565b60405162461bcd60e51b815260206004820152603060248201527f43616e6e6f74207769746864726177202d20636f6e7465737420696e2070726f60448201526f19dc995cdcc81bdc881cd95d1d1b195960821b6064820152608490fd5b6004915014826117f0565b34610651575f366003190112610651576040517f00000000000000000000000000000000000000000000000000000000000000006001600160a01b03168152602090f35b34610651575f366003190112610651576119966001600254146130a4565b600280557f00000000000000000000000000000000000000000000000000000000000000006119cf336001600160a01b03831614612ef9565b6004548015611a0f575f600455610471917f00000000000000000000000000000000000000000000000000000000000000006001600160a01b031661336c565b60405162461bcd60e51b815260206004820152600f60248201526e4e6f2066656520746f20636c61696d60881b6044820152606490fd5b34610651575f36600319011261065157611a8a337f00000000000000000000000000000000000000000000000000000000000000006001600160a01b031614612ef9565b60ff60035416600681101561063d57600103611ad357600260ff1960035416176003557fca4f15905dfed40aa7885e1be889ff7da045bd49fc916c3a40cf8b0a3db7636a5f80a1005b60405162461bcd60e51b8152602060048201526012602482015271436f6e74657374206e6f742061637469766560701b6044820152606490fd5b3461065157604036600319011261065157600435602435611b326001600254146130a4565b60028055335f525f60205260405f20825f5260205260405f205460ff60035416600681101561063d578015908115611df6575b5015611d98575f838152600660205260409020546001600160a01b031615611d5c578190611b948215156133fc565b10611d2057815f52600a602052611bca60405f2054611bb48115156130dd565b835f52600b602052610cff60405f205484613115565b6040516370a0823160e01b815230600482015290917f00000000000000000000000000000000000000000000000000000000000000006001600160a01b03169190602082602481865afa801561086b5785925f91611ceb575b50808511611ce3575b50611c3881833361330a565b815f52600a60205260405f20611c4f828254613146565b90556040519081528360208201527fa2b936e19d2f391e984b3c8722e0e0a30ef1b73581371ed847624152e65d16f560403392a381611c8f576001600255005b82611cc9935f52600b6020528260405f205410155f14611cd1575f52600b60205260405f20611cbf838254612fbd565b90555b339061336c565b808080610471565b5f52600b6020525f6040812055611cc2565b935085611c2c565b9250506020823d602011611d18575b81611d0760209383612ed8565b810103126106515784915186611c23565b3d9150611cfa565b60405162461bcd60e51b8152602060048201526014602482015273496e73756666696369656e742062616c616e636560601b6044820152606490fd5b60405162461bcd60e51b8152602060048201526014602482015273115b9d1c9e48191bd95cc81b9bdd08195e1a5cdd60621b6044820152606490fd5b60405162461bcd60e51b815260206004820152603060248201527f43616e6e6f74207769746864726177202d20636f6d7065746974696f6e20737460448201526f185c9d1959081bdc881cd95d1d1b195960821b6064820152608490fd5b600491501484611b65565b34610651576020366003190112610651576004355f52600a602052602060405f2054604051908152f35b34610651575f3660031901126106515760206040517f00000000000000000000000000000000000000000000000000000000000000008152f35b3461065157611e7336612e56565b9290611ea9337f00000000000000000000000000000000000000000000000000000000000000006001600160a01b031614612ef9565b611eb76001600254146130a4565b6002805560ff60035416600681101561063d5760018114908115612278575b50156122335782156121ee578383036121b1576005548311612179575f805b858210612103576127109150036120be57600360ff19815416176003556007545f5b84811061208a575050813580600c55600160ff19600d541617600d55805f52600a60205260405f2054815f52600b60205260405f2054908115159081612081575b50611f9c575b50507f0fed27f5e3cd741c181cc0d3b0c47df2013638faa8b7aa7084de3946098eb78e93611f929160405194859485612ffb565b0390a16001600255005b815f52600b6020525f60408120555f805b86811061201c5750918183611f9295937f0fed27f5e3cd741c181cc0d3b0c47df2013638faa8b7aa7084de3946098eb78e999510611ff2575b50505091819550611f5e565b611ffb91612fbd565b905f52600860205261201260405f20918254612fca565b9055868080611fe6565b90612028828888612fad565b359161271061204261203b838c8a612fad565b3586613115565b0480612055575b50600191925001611fad565b61206181600194612fca565b935f52600860205261207860405f20918254612fca565b90558291612049565b90501587611f58565b806120986001928787612fad565b356127106120aa61203b848b89612fad565b04905f52600860205260405f205501611f17565b60405162461bcd60e51b815260206004820152601860248201527f5061796f757473206d7573742073756d20746f203130302500000000000000006044820152606490fd5b61210e828785612fad565b35156121345761212c600191612125848987612fad565b3590612fca565b910190611ef5565b60405162461bcd60e51b815260206004820152601960248201527f557365206e6f6e2d7a65726f207061796f757473206f6e6c79000000000000006044820152606490fd5b60405162461bcd60e51b815260206004820152601060248201526f546f6f206d616e792077696e6e65727360801b6044820152606490fd5b60405162461bcd60e51b8152602060048201526015602482015274082e4e4c2f240d8cadccee8d040dad2e6dac2e8c6d605b1b6044820152606490fd5b60405162461bcd60e51b815260206004820152601d60248201527f4d7573742068617665206174206c65617374206f6e652077696e6e65720000006044820152606490fd5b60405162461bcd60e51b815260206004820152601c60248201527f436f6e74657374206e6f7420616374697665206f72206c6f636b6564000000006044820152606490fd5b600291501485611ed6565b34610651575f36600319011261065157602061229d613189565b604051908152f35b34610651575f366003190112610651576020600454604051908152f35b34610651576122d036612e56565b9291906122de848314612f32565b6122e78261315e565b936122f56040519586612ed8565b8285526123018361315e565b602086019490601f19013686375f5b84811061235b578587604051918291602083019060208452518091526040830191905f5b818110612342575050500390f35b8251845285945060209384019390920191600101612334565b6001600160a01b03612371610c95838886612fad565b165f525f60205260405f20612387828587612fad565b355f5260205260405f20549087518110156123af5760019160208260051b8a01015201612310565b634e487b7160e01b5f52603260045260245ffd5b34610651576020366003190112610651576004356123e56001600254146130a4565b60028055335f525f60205260405f20815f5260205260405f205460ff60035416600681101561063d576124369061242f60ff600d541661242a6003600c5494146131c7565b613209565b831461324b565b5f828152600660205260409020546001600160a01b03161561275157801561272057815f52600a60205260405f20546124708115156130dd565b5f838152600b602052604090205490811561271857610cff6124929284613115565b6040516370a0823160e01b81523060048201527f00000000000000000000000000000000000000000000000000000000000000006001600160a01b03169290919081602084602481885afa90811561086b5786945f926126e1575b5081106126d9575b5061250181843361330a565b825f52600a60205261251860405f20918254613146565b905580156126a7575f828152600b6020526040902054811161269457815f52600b60205260405f2061254b828254612fbd565b90555b61257e612710610db67f000000000000000000000000000000000000000000000000000000000000000084613115565b908061267f575b5061259181338561336c565b6040519081527fe256ef8b7b6eaeb621f7e7ca3b683f124df401cb260bbaccf0540299944b858a60203392a35b815f52600a60205260405f2054156125d7576001600255005b6040516370a0823160e01b8152306004820152602081602481855afa90811561086b575f9161264d575b50600454808211156126445761261691612fbd565b905b81612624575b50610471565b61263c925f52600b6020525f6040812055339061336c565b80808061261e565b50505f90612618565b90506020813d602011612677575b8161266860209383612ed8565b81010312610651575183612601565b3d915061265b565b61268b90600454612fca565b60045584612585565b815f52600b6020525f604081205561254e565b506040515f81527fe256ef8b7b6eaeb621f7e7ca3b683f124df401cb260bbaccf0540299944b858a60203392a36125be565b9150856124f5565b945090506020843d602011612710575b816126fe60209383612ed8565b810103126106515785935190876124ed565b3d91506126f1565b50505f612492565b60405162461bcd60e51b81526020600482015260096024820152684e6f20746f6b656e7360b81b6044820152606490fd5b60405162461bcd60e51b815260206004820152602560248201527f456e74727920646f6573206e6f74206578697374206f72207761732077697468604482015264323930bbb760d91b6064820152608490fd5b34610651576020366003190112610651576004355f52600a60205260405f20545f81135f146127d85761229d6020916132cf565b50602061229d5f6132cf565b34610651576020366003190112610651577fa2877b861a6a177d8c1a4430a6f8716104652f70e5c8fbd58aa775ef96da4a52602060043561284f337f00000000000000000000000000000000000000000000000000000000000000006001600160a01b031614612ef9565b80600e55604051908152a1005b34610651575f366003190112610651576040517f00000000000000000000000000000000000000000000000000000000000000006001600160a01b03168152602090f35b346106515760a0366003190112610651576128b9612da9565b6128c1612dbf565b6044356001600160401b038111610651576128e0903690600401612df9565b926064356001600160401b03811161065157612900903690600401612df9565b91906084356001600160401b03811161065157612921903690600401612e29565b91909261292f858914612f32565b6001600160a01b0316933385148015612acd575b61294c90612f70565b6001600160a01b038716965f5b898110612a6757508786887f4a39dc06d4c0dbc64b70af90fd698a233a518aa5d07e595d983b8c0526c8f7fb868d61299988604051938493339785612ffb565b0390a43b6129b3575050505050506107c891501515613065565b6129f697935f93612a086020999794612a1a946040519c8d9b8c9a8b9963bc197c8160e01b8b523360048c015260248b015260a060448b015260a48a0191612fd7565b87810360031901606489015291612fd7565b84810360031901608486015291613045565b03925af1801561086b576107c8915f91612a48575b506001600160e01b03191663bc197c8160e01b14613065565b612a61915060203d602011610864576108568183612ed8565b82612a2f565b80612a756001928c8b612fad565b35612a81828688612fad565b3590895f525f60205260405f20815f5260205260405f20612aa3838254612fbd565b90558b5f525f60205260405f20905f52602052612ac560405f20918254612fca565b905501612959565b505f85815260016020908152604080832033845290915290205460ff16612943565b34610651575f36600319011261065157612b33337f00000000000000000000000000000000000000000000000000000000000000006001600160a01b031614612ef9565b60ff60035416600681101561063d57612bb35760055415612b8157600160ff1960035416176003557f3927b788a62eb53f7192cd9286f49295f01b938b6afc23aef0af5d035cd853165f80a1005b60405162461bcd60e51b815260206004820152600a6024820152694e6f20656e747269657360b01b6044820152606490fd5b60405162461bcd60e51b815260206004820152601760248201527f436f6e7465737420616c726561647920737461727465640000000000000000006044820152606490fd5b34610651575f36600319011261065157612c3c337f00000000000000000000000000000000000000000000000000000000000000006001600160a01b031614612ef9565b60ff60035416600681101561063d5760038114159081612cb4575b5015612c6f576116a1600460ff196003541617600355565b60405162461bcd60e51b815260206004820152601f60248201527f436f6e7465737420736574746c6564202d2063616e6e6f742063616e63656c006044820152606490fd5b60059150141581612c57565b3461065157602036600319011261065157612cf9604051612ce2602082612ed8565b5f8152604051918291602083526020830190612dd5565b0390f35b346106515760203660031901126106515760043563ffffffff60e01b8116809103610651576020906301ffc9a760e01b8114908115612d5a575b8115612d49575b506040519015158152f35b6303a24d0760e21b14905082612d3e565b636cdb3d1360e11b81149150612d37565b34610651576040366003190112610651576020906001600160a01b03612d8f612da9565b165f525f825260405f206024355f52825260405f20548152f35b600435906001600160a01b038216820361065157565b602435906001600160a01b038216820361065157565b805180835260209291819084018484015e5f828201840152601f01601f1916010190565b9181601f84011215610651578235916001600160401b038311610651576020808501948460051b01011161065157565b9181601f84011215610651578235916001600160401b038311610651576020838186019501011161065157565b6040600319820112610651576004356001600160401b0381116106515781612e8091600401612df9565b92909291602435906001600160401b03821161065157612ea291600401612df9565b9091565b34610651575f36600319011261065157602061229d61328b565b6005548110156123af5760055f5260205f2001905f90565b90601f801991011681019081106001600160401b03821117610a9a57604052565b15612f0057565b60405162461bcd60e51b815260206004820152600a6024820152694e6f74206f7261636c6560b01b6044820152606490fd5b15612f3957565b60405162461bcd60e51b815260206004820152600f60248201526e0988a9c8ea890be9a92a69a82a8869608b1b6044820152606490fd5b15612f7757565b60405162461bcd60e51b815260206004820152600e60248201526d1393d517d055551213d49256915160921b6044820152606490fd5b91908110156123af5760051b0190565b9190820391821161049b57565b9190820180921161049b57565b81835290916001600160fb1b0383116106515760209260051b809284830137010190565b9290613014906130229593604086526040860191612fd7565b926020818503910152612fd7565b90565b9081602091031261065157516001600160e01b0319811681036106515790565b908060209392818452848401375f828201840152601f01601f1916010190565b1561306c57565b60405162461bcd60e51b815260206004820152601060248201526f155394d0519157d49150d2541251539560821b6044820152606490fd5b156130ab57565b60405162461bcd60e51b815260206004820152600a6024820152695245454e5452414e435960b01b6044820152606490fd5b156130e457565b60405162461bcd60e51b81526020600482015260096024820152684e6f20737570706c7960b81b6044820152606490fd5b8181029291811591840414171561049b57565b8115613132570490565b634e487b7160e01b5f52601260045260245ffd5b81810392915f13801582851316918412161761049b57565b6001600160401b038111610a9a5760051b60200190565b356001600160a01b03811681036106515790565b60075461319d61319761328b565b82612fca565b80156131c157612710820291808304612710149015171561049b5761302291613128565b50505f90565b156131ce57565b60405162461bcd60e51b815260206004820152601360248201527210dbdb9d195cdd081b9bdd081cd95d1d1b1959606a1b6044820152606490fd5b1561321057565b60405162461bcd60e51b815260206004820152601360248201527213585c9ad95d081b9bdd081c995cdbdb1d9959606a1b6044820152606490fd5b1561325257565b60405162461bcd60e51b81526020600482015260116024820152704e6f742077696e6e696e6720656e74727960781b6044820152606490fd5b5f905f6005545b80821061329d575050565b90926132c76001916132ae86612ec0565b90549060031b1c5f52600b60205260405f205490612fca565b930190613292565b633b9aca006132df910480613115565b8080046001148115171561049b57670de0b6b3a76400009004620f42400180620f42401161049b5790565b905f929160018060a01b031691828452836020526040842082855260205260408420613337828254612fbd565b905560405191825260208201527fc3d58168c5ae7397731d063d5bbf3d657854427343f4c083240f7aacaa2d0f6260403392a4565b60405163a9059cbb60e01b81526001600160a01b03909216600483015260248201929092526020905f9060449082855af19081601f3d1160015f51141615166133ef575b50156133b857565b60405162461bcd60e51b815260206004820152600f60248201526e1514905394d1915497d19052531151608a1b6044820152606490fd5b3b153d171590505f6133b0565b1561340357565b60405162461bcd60e51b81526020600482015260126024820152710416d6f756e74206d757374206265203e20360741b6044820152606490fd5b1561344457565b60405162461bcd60e51b815260206004820152600f60248201526e2737ba1032b73a393c9037bbb732b960891b6044820152606490fd5b9291908361348a575b50505050565b60405160208101916bffffffffffffffffffffffff199060601b168252601481526134b6603482612ed8565b5190206134c28361315e565b916134d06040519384612ed8565b83835260208301809460051b82019136831161065157905b82821061358057505050908051928361354a575b505090500361350e575f808080613484565b60405162461bcd60e51b815260206004820152601460248201527324b73b30b634b21036b2b935b63290383937b7b360611b6044820152606490fd5b9260051b01602001905b8251811160051b90815260208351911852602060405f2092019181831061355457915050805f806134fc565b81358152602091820191016134e8565b6040516323b872dd60e01b81526001600160a01b03928316600482015292909116602483015260448201929092526020905f9060649082855af19081601f3d1160015f5114161516613621575b50156135e557565b60405162461bcd60e51b81526020600482015260146024820152731514905394d1915497d19493d357d1905253115160621b6044820152606490fd5b3b153d171590505f6135dd565b81156131c15761363d816132cf565b620f4240830290838204620f42400361049b5761365991613128565b918260011c928060011b908082046002149015171561049b57905f925b60328410613686575b5050505090565b909192936001810180821161049b578411156136d6576136a68482612fca565b60011c90836136b583856137e4565b10156136ca5750600190945b01929190613676565b949350600190936136c1565b9361367f565b91929060018060a01b03831692835f525f60205260405f20825f5260205260405f20613709868254612fca565b9055835f6040518481528760208201527fc3d58168c5ae7397731d063d5bbf3d657854427343f4c083240f7aacaa2d0f6260403392a43b61375457505061375291501515613065565b565b91613798935f6020946040519687958694859363f23a6e6160e01b85523360048601528560248601526044850152606484015260a0608484015260a4830190612dd5565b03925af1801561086b57613752915f916137c557506001600160e01b03191663f23a6e6160e01b14613065565b6137de915060203d602011610864576108568183612ed8565b5f610823565b9080156131c1576137f59082612fca565b906138008282612fca565b60011c613828613818613812846132cf565b926132cf565b92613822856132cf565b94612fbd565b906001600160fe1b038316830361049b57625b8d80936138526138579261385d9560021b90612fca565b612fca565b90613115565b049056fea26469706673582212201e45b72751c747378d505d8147012f6f7fe16c97b1d81ef6a47d78ab404ae54764736f6c634300081a0033","linkReferences":{}},"methodIdentifiers":{"BPS_DENOMINATOR()":"e1a45218","PRICE_PRECISION()":"95082d25","accumulatedOracleFee()":"4ee837a6","activateContest()":"24f9cc4c","addPrimaryPosition(uint256,bytes32[])":"e1db226a","addSecondaryPosition(uint256,uint256,bytes32[])":"fed76325","balanceOf(address,uint256)":"00fdd58e","balanceOfBatch(address[],uint256[])":"4e1273f4","calculateSecondaryPrice(uint256)":"3a2babc2","cancelContest()":"1db0e667","cancelExpired()":"a01e4a1f","claimOracleFee()":"7ae45fe3","claimPrimaryPayout(uint256)":"af19e0d5","claimSecondaryPayout(uint256)":"4034b060","closeContest()":"a094c632","entries(uint256)":"b30906d4","entryOwner(uint256)":"df1ef4c6","expiryTimestamp()":"ade6e2aa","getEntriesCount()":"d09685b0","getEntryAtIndex(uint256)":"c9a496aa","getPrimarySideBalance()":"7680a51e","getPrimarySideShareBps()":"4fd34950","getSecondarySideBalance()":"9455937a","isApprovedForAll(address,address)":"e985e9c5","lockContest()":"75f25006","netPosition(uint256)":"6932b382","oracle()":"7dc0d1d0","oracleFeeBps()":"5c76fda7","paymentToken()":"3013ce29","primaryDepositAmount()":"933b1282","primaryEntryInvestmentShareBps()":"d1a7dabc","primaryMerkleRoot()":"ed4af81f","primaryPrizePool()":"b9937e30","primaryPrizePoolPayouts(uint256)":"c8d5c1b1","pushPrimaryPayouts(uint256[])":"c8d22700","pushSecondaryPayouts(address[],uint256)":"d6a74ce0","removePrimaryPosition(uint256)":"7e8f1234","removeSecondaryPosition(uint256,uint256)":"74d34214","safeBatchTransferFrom(address,address,uint256[],uint256[],bytes)":"2eb2c2d6","safeTransferFrom(address,address,uint256,uint256,bytes)":"f242432a","secondaryLiquidityPerEntry(uint256)":"b48e94ce","secondaryMarketResolved()":"ae4c8ba9","secondaryMerkleRoot()":"9a9a5d9d","secondaryWinningEntry()":"af1d9197","setApprovalForAll(address,bool)":"a22cb465","setPrimaryMerkleRoot(bytes32)":"fc8c28e1","setSecondaryMerkleRoot(bytes32)":"3789a2fb","settleContest(uint256[],uint256[])":"563930e7","state()":"c19d93fb","supportsInterface(bytes4)":"01ffc9a7","totalSecondaryLiquidity()":"e08a1a42","uri(uint256)":"0e89341c"},"id":1}