{"abi":[{"type":"constructor","inputs":[{"name":"_platformFee","type":"uint256","internalType":"uint256"},{"name":"_paymentToken","type":"address","internalType":"address"}],"stateMutability":"nonpayable"},{"type":"function","name":"addOracle","inputs":[{"name":"oracle","type":"address","internalType":"address"}],"outputs":[],"stateMutability":"nonpayable"},{"type":"function","name":"collectPlatformFees","inputs":[],"outputs":[],"stateMutability":"nonpayable"},{"type":"function","name":"contests","inputs":[{"name":"","type":"uint256","internalType":"uint256"}],"outputs":[{"name":"","type":"address","internalType":"contract Contest"}],"stateMutability":"view"},{"type":"function","name":"createContest","inputs":[{"name":"name","type":"string","internalType":"string"},{"name":"entryFee","type":"uint256","internalType":"uint256"},{"name":"maxParticipants","type":"uint256","internalType":"uint256"},{"name":"endTime","type":"uint256","internalType":"uint256"},{"name":"oracle","type":"address","internalType":"address"}],"outputs":[{"name":"","type":"address","internalType":"address"}],"stateMutability":"nonpayable"},{"type":"function","name":"getContests","inputs":[],"outputs":[{"name":"","type":"address[]","internalType":"contract Contest[]"}],"stateMutability":"view"},{"type":"function","name":"oracles","inputs":[{"name":"","type":"address","internalType":"address"}],"outputs":[{"name":"","type":"bool","internalType":"bool"}],"stateMutability":"view"},{"type":"function","name":"owner","inputs":[],"outputs":[{"name":"","type":"address","internalType":"address"}],"stateMutability":"view"},{"type":"function","name":"paymentToken","inputs":[],"outputs":[{"name":"","type":"address","internalType":"address"}],"stateMutability":"view"},{"type":"function","name":"paymentTokenDecimals","inputs":[],"outputs":[{"name":"","type":"uint8","internalType":"uint8"}],"stateMutability":"view"},{"type":"function","name":"platformFee","inputs":[],"outputs":[{"name":"","type":"uint256","internalType":"uint256"}],"stateMutability":"view"},{"type":"function","name":"removeOracle","inputs":[{"name":"oracle","type":"address","internalType":"address"}],"outputs":[],"stateMutability":"nonpayable"},{"type":"function","name":"renounceOwnership","inputs":[],"outputs":[],"stateMutability":"nonpayable"},{"type":"function","name":"setPlatformFee","inputs":[{"name":"newFee","type":"uint256","internalType":"uint256"}],"outputs":[],"stateMutability":"nonpayable"},{"type":"function","name":"transferOwnership","inputs":[{"name":"newOwner","type":"address","internalType":"address"}],"outputs":[],"stateMutability":"nonpayable"},{"type":"event","name":"ContestCreated","inputs":[{"name":"contest","type":"address","indexed":true,"internalType":"address"},{"name":"host","type":"address","indexed":true,"internalType":"address"},{"name":"entryFee","type":"uint256","indexed":false,"internalType":"uint256"}],"anonymous":false},{"type":"event","name":"OracleAdded","inputs":[{"name":"oracle","type":"address","indexed":true,"internalType":"address"}],"anonymous":false},{"type":"event","name":"OracleRemoved","inputs":[{"name":"oracle","type":"address","indexed":true,"internalType":"address"}],"anonymous":false},{"type":"event","name":"OwnershipTransferred","inputs":[{"name":"previousOwner","type":"address","indexed":true,"internalType":"address"},{"name":"newOwner","type":"address","indexed":true,"internalType":"address"}],"anonymous":false},{"type":"event","name":"PlatformFeeUpdated","inputs":[{"name":"newFee","type":"uint256","indexed":false,"internalType":"uint256"}],"anonymous":false},{"type":"error","name":"OwnableInvalidOwner","inputs":[{"name":"owner","type":"address","internalType":"address"}]},{"type":"error","name":"OwnableUnauthorizedAccount","inputs":[{"name":"account","type":"address","internalType":"address"}]}],"bytecode":{"object":"0x60c060405234801561001057600080fd5b5060405161278c38038061278c83398101604081905261002f91610130565b338061005557604051631e4fbdf760e01b81526000600482015260240160405180910390fd5b61005e816100e0565b5060018290556001600160a01b03811660808190526040805163313ce56760e01b8152905163313ce567916004808201926020929091908290030181865afa1580156100ae573d6000803e3d6000fd5b505050506040513d601f19601f820116820180604052508101906100d2919061016d565b60ff1660a052506101979050565b600080546001600160a01b038381166001600160a01b0319831681178455604051919092169283917f8be0079c531659141344cd1fd0a4f28419497f9722a3daafe3b4186f6b6457e09190a35050565b6000806040838503121561014357600080fd5b825160208401519092506001600160a01b038116811461016257600080fd5b809150509250929050565b60006020828403121561017f57600080fd5b815160ff8116811461019057600080fd5b9392505050565b60805160a0516125bb6101d16000396000610177015260008181610150015281816103bf0152818161054f015261060b01526125bb6000f3fe608060405234801561001057600080fd5b50600436106100ea5760003560e01c80638da5cb5b1161008c578063bfaba76a11610066578063bfaba76a14610212578063df5dd1a514610227578063f2fde38b1461023a578063fdc85fc41461024d57600080fd5b80638da5cb5b146101bb5780639d7ed738146101cc578063addd5099146101df57600080fd5b80633013ce29116100c85780633013ce291461014b578063325cd796146101725780634287f245146101ab578063715018a6146101b357600080fd5b806310325de3146100ef57806312e8e2c31461011f57806326232a2e14610134575b600080fd5b6101026100fd3660046109e6565b610260565b6040516001600160a01b0390911681526020015b60405180910390f35b61013261012d366004610ac9565b6104ab565b005b61013d60015481565b604051908152602001610116565b6101027f000000000000000000000000000000000000000000000000000000000000000081565b6101997f000000000000000000000000000000000000000000000000000000000000000081565b60405160ff9091168152602001610116565b61013261052f565b6101326106fc565b6000546001600160a01b0316610102565b6101026101da366004610ac9565b610710565b6102026101ed366004610ae2565b60026020526000908152604090205460ff1681565b6040519015158152602001610116565b61021a61073a565b6040516101169190610b04565b610132610235366004610ae2565b61079c565b610132610248366004610ae2565b610849565b61013261025b366004610ae2565b610884565b60004283116102b65760405162461bcd60e51b815260206004820152601a60248201527f456e642074696d65206d75737420626520696e2066757475726500000000000060448201526064015b60405180910390fd5b600184116103065760405162461bcd60e51b815260206004820152601c60248201527f4e656564206174206c656173742032207061727469636970616e74730000000060448201526064016102ad565b6001600160a01b03821660009081526002602052604090205460ff166103675760405162461bcd60e51b81526020600482015260166024820152754e6f7420616e20617070726f766564206f7261636c6560501b60448201526064016102ad565b600085116103b75760405162461bcd60e51b815260206004820181905260248201527f456e74727920666565206d7573742062652067726561746572207468616e203060448201526064016102ad565b6000868686867f0000000000000000000000000000000000000000000000000000000000000000876001546040516103ee906109a7565b6103fe9796959493929190610b50565b604051809103906000f08015801561041a573d6000803e3d6000fd5b50600380546001810182556000919091527fc2575a0e9e593c00f959f8c92f12db2869c3395a3b0502d05e2516446f71f85b0180546001600160a01b0319166001600160a01b03831690811790915560405188815291925033917f0930d90e589f3eb61818e12c03f3b7838099abcb975a02054dc58e1fe7cddf0f9060200160405180910390a39695505050505050565b6104b361092a565b6103e88111156104f45760405162461bcd60e51b815260206004820152600c60248201526b08ccaca40e8dede40d0d2ced60a31b60448201526064016102ad565b60018190556040518181527f45610d581145924dd7090a5017e5f2b1d6f42213bb2e95707ff86846bbfcb1ca9060200160405180910390a150565b61053761092a565b6040516370a0823160e01b81523060048201526000907f00000000000000000000000000000000000000000000000000000000000000006001600160a01b0316906370a0823190602401602060405180830381865afa15801561059e573d6000803e3d6000fd5b505050506040513d601f19601f820116820180604052508101906105c29190610be0565b9050600081116106095760405162461bcd60e51b8152602060048201526012602482015271139bc81999595cc81d1bc818dbdb1b1958dd60721b60448201526064016102ad565b7f00000000000000000000000000000000000000000000000000000000000000006001600160a01b031663a9059cbb61064a6000546001600160a01b031690565b6040516001600160e01b031960e084901b1681526001600160a01b039091166004820152602481018490526044016020604051808303816000875af1158015610697573d6000803e3d6000fd5b505050506040513d601f19601f820116820180604052508101906106bb9190610bf9565b6106f95760405162461bcd60e51b815260206004820152600f60248201526e151c985b9cd9995c8819985a5b1959608a1b60448201526064016102ad565b50565b61070461092a565b61070e6000610957565b565b6003818154811061072057600080fd5b6000918252602090912001546001600160a01b0316905081565b6060600380548060200260200160405190810160405280929190818152602001828054801561079257602002820191906000526020600020905b81546001600160a01b03168152600190910190602001808311610774575b5050505050905090565b6107a461092a565b6001600160a01b03811660009081526002602052604090205460ff16156107fe5760405162461bcd60e51b815260206004820152600e60248201526d416c7265616479206f7261636c6560901b60448201526064016102ad565b6001600160a01b038116600081815260026020526040808220805460ff19166001179055517e47706786c922d17b39285dc59d696bafea72c0b003d3841ae1202076f4c2e49190a250565b61085161092a565b6001600160a01b03811661087b57604051631e4fbdf760e01b8152600060048201526024016102ad565b6106f981610957565b61088c61092a565b6001600160a01b03811660009081526002602052604090205460ff166108e15760405162461bcd60e51b815260206004820152600a6024820152694e6f74206f7261636c6560b01b60448201526064016102ad565b6001600160a01b038116600081815260026020526040808220805460ff19169055517f9c8e7d83025bef8a04c664b2f753f64b8814bdb7e27291d7e50935f18cc3c7129190a250565b6000546001600160a01b0316331461070e5760405163118cdaa760e01b81523360048201526024016102ad565b600080546001600160a01b038381166001600160a01b0319831681178455604051919092169283917f8be0079c531659141344cd1fd0a4f28419497f9722a3daafe3b4186f6b6457e09190a35050565b61196a80610c1c83390190565b634e487b7160e01b600052604160045260246000fd5b80356001600160a01b03811681146109e157600080fd5b919050565b600080600080600060a086880312156109fe57600080fd5b853567ffffffffffffffff811115610a1557600080fd5b8601601f81018813610a2657600080fd5b803567ffffffffffffffff811115610a4057610a406109b4565b604051601f8201601f19908116603f0116810167ffffffffffffffff81118282101715610a6f57610a6f6109b4565b6040528181528282016020018a1015610a8757600080fd5b816020840160208301376000602092820183015296508701359450506040860135925060608601359150610abd608087016109ca565b90509295509295909350565b600060208284031215610adb57600080fd5b5035919050565b600060208284031215610af457600080fd5b610afd826109ca565b9392505050565b602080825282518282018190526000918401906040840190835b81811015610b455783516001600160a01b0316835260209384019390920191600101610b1e565b509095945050505050565b60e08152600088518060e084015260005b81811015610b7f576020818c01810151610100868401015201610b61565b5060006101008285010152610100601f19601f830116840101915050876020830152866040830152856060830152610bc260808301866001600160a01b03169052565b6001600160a01b039390931660a082015260c0015295945050505050565b600060208284031215610bf257600080fd5b5051919050565b600060208284031215610c0b57600080fd5b81518015158114610afd57600080fdfe61010060405234801561001157600080fd5b5060405161196a38038061196a83398101604081905261003091610160565b60016000556040805160808101825288815260208101889052908101869052606081018590526002806100638a82610303565b50602082015181600101556040820151816002015560608201518160030155905050826001600160a01b03166080816001600160a01b031681525050826001600160a01b031663313ce5676040518163ffffffff1660e01b8152600401602060405180830381865afa1580156100dd573d6000803e3d6000fd5b505050506040513d601f19601f8201168201806040525081019061010191906103c1565b60ff1660a0526001600160a01b039190911660c05260e05250506001805460ff19169055506103eb915050565b634e487b7160e01b600052604160045260246000fd5b80516001600160a01b038116811461015b57600080fd5b919050565b600080600080600080600060e0888a03121561017b57600080fd5b87516001600160401b0381111561019157600080fd5b8801601f81018a136101a257600080fd5b80516001600160401b038111156101bb576101bb61012e565b604051601f8201601f19908116603f011681016001600160401b03811182821017156101e9576101e961012e565b6040528181528282016020018c101561020157600080fd5b60005b8281101561022057602081850181015183830182015201610204565b5060006020928201830152908a015160408b015160608c0151929a5090985096509450610251905060808901610144565b925061025f60a08901610144565b9150600060c089015190508091505092959891949750929550565b600181811c9082168061028e57607f821691505b6020821081036102ae57634e487b7160e01b600052602260045260246000fd5b50919050565b601f8211156102fe57806000526020600020601f840160051c810160208510156102db5750805b601f840160051c820191505b818110156102fb57600081556001016102e7565b50505b505050565b81516001600160401b0381111561031c5761031c61012e565b6103308161032a845461027a565b846102b4565b6020601f821160018114610364576000831561034c5750848201515b600019600385901b1c1916600184901b1784556102fb565b600084815260208120601f198516915b828110156103945787850151825560209485019460019092019101610374565b50848210156103b25786840151600019600387901b60f8161c191681555b50505050600190811b01905550565b6000602082840312156103d357600080fd5b815160ff811681146103e457600080fd5b9392505050565b60805160a05160c05160e0516114eb61047f6000396000818161013701526104d2015260008181610224015281816102c5015281816106160152818161086f01528181610e0c01526110ac015260006101ab01526000818161016c0152818161045301528181610645015281816106c10152818161098601528181610b0901528181610d720152610fa601526114eb6000f3fe608060405234801561001057600080fd5b50600436106100f55760003560e01c80637dc0d1d011610097578063db2e21bc11610066578063db2e21bc14610270578063e79181c614610278578063e97dcb6214610280578063ea8a1af01461028857600080fd5b80637dc0d1d01461021f578063a3d2c0d214610246578063c19d93fb1461024e578063d66d9e191461026857600080fd5b8063325cd796116100d3578063325cd796146101a657806335c1d349146101df5780634ea4f8e6146101f2578063565974d31461020757600080fd5b806324d70dea146100fa57806326232a2e146101325780633013ce2914610167575b600080fd5b61011d610108366004611191565b60066020526000908152604090205460ff1681565b60405190151581526020015b60405180910390f35b6101597f000000000000000000000000000000000000000000000000000000000000000081565b604051908152602001610129565b61018e7f000000000000000000000000000000000000000000000000000000000000000081565b6040516001600160a01b039091168152602001610129565b6101cd7f000000000000000000000000000000000000000000000000000000000000000081565b60405160ff9091168152602001610129565b61018e6101ed3660046111c1565b610290565b6102056102003660046111da565b6102ba565b005b61020f6107c0565b6040516101299493929190611251565b61018e7f000000000000000000000000000000000000000000000000000000000000000081565b610205610864565b60015461025b9060ff1681565b60405161012991906112ca565b610205610a66565b610205610cc0565b610205610e01565b610205610eb6565b6102056110a1565b600781815481106102a057600080fd5b6000918252602090912001546001600160a01b0316905081565b336001600160a01b037f0000000000000000000000000000000000000000000000000000000000000000161461030b5760405162461bcd60e51b8152600401610302906112f2565b60405180910390fd5b6001805460ff166003811115610323576103236112b4565b146103655760405162461bcd60e51b815260206004820152601260248201527110dbdb9d195cdd081b9bdd0818db1bdcd95960721b6044820152606401610302565b60075481146103af5760405162461bcd60e51b8152602060048201526016602482015275092dcecc2d8d2c840e0c2f2deeae8e640d8cadccee8d60531b6044820152606401610302565b6000805b828110156103e9578383828181106103cd576103cd611316565b90506020020135826103df9190611342565b91506001016103b3565b50806127101461043b5760405162461bcd60e51b815260206004820181905260248201527f546f74616c206d75737420626520313030303020626173697320706f696e74736044820152606401610302565b6040516370a0823160e01b81523060048201526000907f00000000000000000000000000000000000000000000000000000000000000006001600160a01b0316906370a0823190602401602060405180830381865afa1580156104a2573d6000803e3d6000fd5b505050506040513d601f19601f820116820180604052508101906104c6919061135b565b905060006127106104f77f000000000000000000000000000000000000000000000000000000000000000084611374565b610501919061138b565b9050600061050f82846113ad565b905060008567ffffffffffffffff81111561052c5761052c6113c0565b604051908082528060200260200182016040528015610555578160200160208202803683370190505b50905060005b868110156105b95761271088888381811061057857610578611316565b905060200201358461058a9190611374565b610594919061138b565b8282815181106105a6576105a6611316565b602090810291909101015260010161055b565b506001805460ff191660021790556040517fc841c91bdaa23c1c4bdb58cea14d01f2024cc9ef361c26151d0f82cf6216af3c906105f79083906113d6565b60405180910390a160405163a9059cbb60e01b81526001600160a01b037f000000000000000000000000000000000000000000000000000000000000000081166004830152602482018590527f0000000000000000000000000000000000000000000000000000000000000000169063a9059cbb906044016020604051808303816000875af115801561068e573d6000803e3d6000fd5b505050506040513d601f19601f820116820180604052508101906106b29190611419565b5060005b81518110156107b6577f00000000000000000000000000000000000000000000000000000000000000006001600160a01b031663a9059cbb6007838154811061070157610701611316565b9060005260206000200160009054906101000a90046001600160a01b031684848151811061073157610731611316565b60200260200101516040518363ffffffff1660e01b815260040161076a9291906001600160a01b03929092168252602082015260400190565b6020604051808303816000875af1158015610789573d6000803e3d6000fd5b505050506040513d601f19601f820116820180604052508101906107ad9190611419565b506001016106b6565b5050505050505050565b6002805481906107cf9061143b565b80601f01602080910402602001604051908101604052809291908181526020018280546107fb9061143b565b80156108485780601f1061081d57610100808354040283529160200191610848565b820191906000526020600020905b81548152906001019060200180831161082b57829003601f168201915b5050505050908060010154908060020154908060030154905084565b336001600160a01b037f000000000000000000000000000000000000000000000000000000000000000016146108ac5760405162461bcd60e51b8152600401610302906112f2565b600360015460ff1660038111156108c5576108c56112b4565b1461090a5760405162461bcd60e51b815260206004820152601560248201527410dbdb9d195cdd081b9bdd0818d85b98d95b1b1959605a1b6044820152606401610302565b60005b600754811015610a575760006007828154811061092c5761092c611316565b60009182526020808320909101546001600160a01b0316808352600690915260409091205490915060ff1615610a4e5760035460405163a9059cbb60e01b81526001600160a01b03838116600483015260248201929092527f00000000000000000000000000000000000000000000000000000000000000009091169063a9059cbb906044016020604051808303816000875af11580156109d1573d6000803e3d6000fd5b505050506040513d601f19601f820116820180604052508101906109f59190611419565b506001600160a01b038116600081815260066020908152604091829020805460ff1916905560035491519182527f357ff40138a06ece2e77a160416673f406b2401bab0927942c4b31e96afeb248910160405180910390a25b5060010161090d565b50610a6460076000611157565b565b600060015460ff166003811115610a7f57610a7f6112b4565b14610a9c5760405162461bcd60e51b815260040161030290611475565b3360009081526006602052604090205460ff16610ae95760405162461bcd60e51b815260206004820152600b60248201526a139bdd08195b9d195c995960aa1b6044820152606401610302565b60035460405163a9059cbb60e01b815233600482015260248101919091527f00000000000000000000000000000000000000000000000000000000000000006001600160a01b03169063a9059cbb906044016020604051808303816000875af1158015610b5a573d6000803e3d6000fd5b505050506040513d601f19601f82011682018060405250810190610b7e9190611419565b50336000908152600660205260408120805460ff191690555b600754811015610c9257336001600160a01b031660078281548110610bbe57610bbe611316565b6000918252602090912001546001600160a01b031603610c8a5760078054610be8906001906113ad565b81548110610bf857610bf8611316565b600091825260209091200154600780546001600160a01b039092169183908110610c2457610c24611316565b9060005260206000200160006101000a8154816001600160a01b0302191690836001600160a01b031602179055506007805480610c6357610c6361149f565b600082815260209020810160001990810180546001600160a01b0319169055019055610c92565b600101610b97565b5060405133907f3b4c73af13f824ed105a106e6028c2c875414b487d9e05d6b71cc29cc17a63a290600090a2565b3360009081526006602052604090205460ff16610d0d5760405162461bcd60e51b815260206004820152600b60248201526a139bdd08195b9d195c995960aa1b6044820152606401610302565b6005544211610d525760405162461bcd60e51b815260206004820152601160248201527010dbdb9d195cdd081b9bdd08195b991959607a1b6044820152606401610302565b60035460405163a9059cbb60e01b815233600482015260248101919091527f00000000000000000000000000000000000000000000000000000000000000006001600160a01b03169063a9059cbb906044016020604051808303816000875af1158015610dc3573d6000803e3d6000fd5b505050506040513d601f19601f82011682018060405250810190610de79190611419565b50336000908152600660205260409020805460ff19169055565b336001600160a01b037f00000000000000000000000000000000000000000000000000000000000000001614610e495760405162461bcd60e51b8152600401610302906112f2565b600060015460ff166003811115610e6257610e626112b4565b14610e7f5760405162461bcd60e51b815260040161030290611475565b6001805460ff1916811790556040517f7284d0466035e33033537f3ba45309c13d7987b85dc198a5f0c4179d85960b2490600090a1565b600060015460ff166003811115610ecf57610ecf6112b4565b14610eec5760405162461bcd60e51b815260040161030290611475565b3360009081526006602052604090205460ff1615610f3e5760405162461bcd60e51b815260206004820152600f60248201526e105b1c9958591e48195b9d195c9959608a1b6044820152606401610302565b60045460075410610f805760405162461bcd60e51b815260206004820152600c60248201526b10dbdb9d195cdd08199d5b1b60a21b6044820152606401610302565b6003546040516323b872dd60e01b815233600482015230602482015260448101919091527f00000000000000000000000000000000000000000000000000000000000000006001600160a01b0316906323b872dd906064016020604051808303816000875af1158015610ff7573d6000803e3d6000fd5b505050506040513d601f19601f8201168201806040525081019061101b9190611419565b506007805460018181019092557fa66cc928b5edb82af9bd49922954155ab7b0942694bea4ce44661d9a8736c6880180546001600160a01b03191633908117909155600081815260066020526040808220805460ff1916909417909355915190917fd9a5d560deba3dbf49e6ff3bcbd63368413ae5c61aa3af28115af0405775659991a2565b336001600160a01b037f000000000000000000000000000000000000000000000000000000000000000016146110e95760405162461bcd60e51b8152600401610302906112f2565b600060015460ff166003811115611102576111026112b4565b1461111f5760405162461bcd60e51b815260040161030290611475565b6001805460ff191660031790556040517f9237e8f0d5063a695b8695e82c82bc24d15591de9d04449771a6ea4b1283173790600090a1565b50805460008255906000526020600020908101906111759190611178565b50565b5b8082111561118d5760008155600101611179565b5090565b6000602082840312156111a357600080fd5b81356001600160a01b03811681146111ba57600080fd5b9392505050565b6000602082840312156111d357600080fd5b5035919050565b600080602083850312156111ed57600080fd5b823567ffffffffffffffff81111561120457600080fd5b8301601f8101851361121557600080fd5b803567ffffffffffffffff81111561122c57600080fd5b8560208260051b840101111561124157600080fd5b6020919091019590945092505050565b608081526000855180608084015260005b8181101561127f57602081890181015160a0868401015201611262565b50600060a0828501015260a0601f19601f83011684010191505084602083015283604083015282606083015295945050505050565b634e487b7160e01b600052602160045260246000fd5b60208101600483106112ec57634e487b7160e01b600052602160045260246000fd5b91905290565b6020808252600a90820152694e6f74206f7261636c6560b01b604082015260600190565b634e487b7160e01b600052603260045260246000fd5b634e487b7160e01b600052601160045260246000fd5b808201808211156113555761135561132c565b92915050565b60006020828403121561136d57600080fd5b5051919050565b80820281158282048414176113555761135561132c565b6000826113a857634e487b7160e01b600052601260045260246000fd5b500490565b818103818111156113555761135561132c565b634e487b7160e01b600052604160045260246000fd5b602080825282518282018190526000918401906040840190835b8181101561140e5783518352602093840193909201916001016113f0565b509095945050505050565b60006020828403121561142b57600080fd5b815180151581146111ba57600080fd5b600181811c9082168061144f57607f821691505b60208210810361146f57634e487b7160e01b600052602260045260246000fd5b50919050565b60208082526010908201526f21b7b73a32b9ba103737ba1037b832b760811b604082015260600190565b634e487b7160e01b600052603160045260246000fdfea2646970667358221220efba415b5a4c4a439476d5ba622331ebf3480d92970e61b641a256f81f772bb564736f6c634300081a0033a2646970667358221220efabe2c535563de7dbdcaca19a426ac2d3ca130de86a74102a55b3a6bc32bbac64736f6c634300081a0033","linkReferences":{}},"methodIdentifiers":{"addOracle(address)":"df5dd1a5","collectPlatformFees()":"4287f245","contests(uint256)":"9d7ed738","createContest(string,uint256,uint256,uint256,address)":"10325de3","getContests()":"bfaba76a","oracles(address)":"addd5099","owner()":"8da5cb5b","paymentToken()":"3013ce29","paymentTokenDecimals()":"325cd796","platformFee()":"26232a2e","removeOracle(address)":"fdc85fc4","renounceOwnership()":"715018a6","setPlatformFee(uint256)":"12e8e2c3","transferOwnership(address)":"f2fde38b"},"id":24}