{"abi":[{"type":"constructor","inputs":[{"name":"_usdcToken","type":"address","internalType":"address"},{"name":"_platformToken","type":"address","internalType":"address"},{"name":"_cUSDC","type":"address","internalType":"address"}],"stateMutability":"nonpayable"},{"type":"function","name":"balanceSupply","inputs":[{"name":"to","type":"address","internalType":"address"}],"outputs":[],"stateMutability":"nonpayable"},{"type":"function","name":"cUSDC","inputs":[],"outputs":[{"name":"","type":"address","internalType":"contract ICErc20"}],"stateMutability":"view"},{"type":"function","name":"depositUSDC","inputs":[{"name":"amount","type":"uint256","internalType":"uint256"}],"outputs":[],"stateMutability":"nonpayable"},{"type":"function","name":"emergencyWithdrawAll","inputs":[{"name":"to","type":"address","internalType":"address"}],"outputs":[],"stateMutability":"nonpayable"},{"type":"function","name":"getCompoundUSDCBalance","inputs":[],"outputs":[{"name":"","type":"uint256","internalType":"uint256"}],"stateMutability":"view"},{"type":"function","name":"getTokenManagerUSDCBalance","inputs":[],"outputs":[{"name":"","type":"uint256","internalType":"uint256"}],"stateMutability":"view"},{"type":"function","name":"getTotalAvailableBalance","inputs":[],"outputs":[{"name":"","type":"uint256","internalType":"uint256"}],"stateMutability":"view"},{"type":"function","name":"isCompoundSupplyPaused","inputs":[],"outputs":[{"name":"","type":"bool","internalType":"bool"}],"stateMutability":"view"},{"type":"function","name":"isCompoundWithdrawPaused","inputs":[],"outputs":[{"name":"","type":"bool","internalType":"bool"}],"stateMutability":"view"},{"type":"function","name":"owner","inputs":[],"outputs":[{"name":"","type":"address","internalType":"address"}],"stateMutability":"view"},{"type":"function","name":"platformToken","inputs":[],"outputs":[{"name":"","type":"address","internalType":"contract PlatformToken"}],"stateMutability":"view"},{"type":"function","name":"renounceOwnership","inputs":[],"outputs":[],"stateMutability":"nonpayable"},{"type":"function","name":"transferOwnership","inputs":[{"name":"newOwner","type":"address","internalType":"address"}],"outputs":[],"stateMutability":"nonpayable"},{"type":"function","name":"usdcToken","inputs":[],"outputs":[{"name":"","type":"address","internalType":"contract IERC20"}],"stateMutability":"view"},{"type":"function","name":"withdrawUSDC","inputs":[{"name":"platformTokenAmount","type":"uint256","internalType":"uint256"}],"outputs":[],"stateMutability":"nonpayable"},{"type":"event","name":"BalanceSupply","inputs":[{"name":"owner","type":"address","indexed":true,"internalType":"address"},{"name":"recipient","type":"address","indexed":true,"internalType":"address"},{"name":"amount","type":"uint256","indexed":false,"internalType":"uint256"},{"name":"timestamp","type":"uint256","indexed":false,"internalType":"uint256"}],"anonymous":false},{"type":"event","name":"CompoundDepositFallback","inputs":[{"name":"user","type":"address","indexed":true,"internalType":"address"},{"name":"usdcAmount","type":"uint256","indexed":false,"internalType":"uint256"},{"name":"reason","type":"string","indexed":false,"internalType":"string"}],"anonymous":false},{"type":"event","name":"EmergencyWithdrawal","inputs":[{"name":"owner","type":"address","indexed":true,"internalType":"address"},{"name":"recipient","type":"address","indexed":true,"internalType":"address"},{"name":"amount","type":"uint256","indexed":false,"internalType":"uint256"},{"name":"timestamp","type":"uint256","indexed":false,"internalType":"uint256"}],"anonymous":false},{"type":"event","name":"OwnershipTransferred","inputs":[{"name":"previousOwner","type":"address","indexed":true,"internalType":"address"},{"name":"newOwner","type":"address","indexed":true,"internalType":"address"}],"anonymous":false},{"type":"event","name":"USDCDeposited","inputs":[{"name":"user","type":"address","indexed":true,"internalType":"address"},{"name":"usdcAmount","type":"uint256","indexed":false,"internalType":"uint256"},{"name":"platformTokensMinted","type":"uint256","indexed":false,"internalType":"uint256"}],"anonymous":false},{"type":"event","name":"USDCWithdrawn","inputs":[{"name":"user","type":"address","indexed":true,"internalType":"address"},{"name":"platformTokensBurned","type":"uint256","indexed":false,"internalType":"uint256"},{"name":"usdcAmount","type":"uint256","indexed":false,"internalType":"uint256"}],"anonymous":false},{"type":"error","name":"OwnableInvalidOwner","inputs":[{"name":"owner","type":"address","internalType":"address"}]},{"type":"error","name":"OwnableUnauthorizedAccount","inputs":[{"name":"account","type":"address","internalType":"address"}]},{"type":"error","name":"ReentrancyGuardReentrantCall","inputs":[]}],"bytecode":{"object":"0x60e06040523480156200001157600080fd5b5060405162001dba38038062001dba83398101604081905262000034916200021a565b600160005533806200006157604051631e4fbdf760e01b8152600060048201526024015b60405180910390fd5b6200006c81620001ab565b506001600160a01b038316620000cf5760405162461bcd60e51b815260206004820152602160248201527f5553444320746f6b656e2063616e6e6f74206265207a65726f206164647265736044820152607360f81b606482015260840162000058565b6001600160a01b038216620001355760405162461bcd60e51b815260206004820152602560248201527f506c6174666f726d20746f6b656e2063616e6e6f74206265207a65726f206164604482015264647265737360d81b606482015260840162000058565b6001600160a01b0381166200018d5760405162461bcd60e51b815260206004820152601c60248201527f43555344432063616e6e6f74206265207a65726f206164647265737300000000604482015260640162000058565b6001600160a01b0392831660805290821660a0521660c05262000264565b600180546001600160a01b038381166001600160a01b0319831681179093556040519116919082907f8be0079c531659141344cd1fd0a4f28419497f9722a3daafe3b4186f6b6457e090600090a35050565b80516001600160a01b03811681146200021557600080fd5b919050565b6000806000606084860312156200023057600080fd5b6200023b84620001fd565b92506200024b60208501620001fd565b91506200025b60408501620001fd565b90509250925092565b60805160a05160c051611a4762000373600039600081816101a70152818161040b015281816105c0015281816106ce015281816109f901528181610c2701528181610e6b0152818161103c0152818161114c015281816112dd0152818161151b015281816115e301526116680152600081816101ce0152818161084901528181610b0301528181610ef801526114b001526000818160ff0152818161036801528181610438015281816104b001528181610648015281816107660152818161097901528181610b8301528181610c5401528181610cca01528181610d5601528181610fae01528181611179015281816111f10152818161140d015281816115b601526116950152611a476000f3fe608060405234801561001057600080fd5b50600436106100f55760003560e01c8063ce347a3e11610097578063e3c427b611610066578063e3c427b61461020b578063ec559a131461021e578063f2fde38b14610226578063f688bcfb1461023957600080fd5b8063ce347a3e146101a2578063d1b812cd146101c9578063db81f99b146101f0578063e1b381561461020357600080fd5b80638782524e116100d35780638782524e1461015b5780638da5cb5b14610171578063970d01f014610182578063a218f7b11461019a57600080fd5b806311eac855146100fa57806354ab62691461013e578063715018a614610153575b600080fd5b6101217f000000000000000000000000000000000000000000000000000000000000000081565b6040516001600160a01b0390911681526020015b60405180910390f35b61015161014c3660046118cb565b61024c565b005b610151610594565b6101636105a8565b604051908152602001610135565b6001546001600160a01b0316610121565b61018a6106ca565b6040519015158152602001610135565b61016361074e565b6101217f000000000000000000000000000000000000000000000000000000000000000081565b6101217f000000000000000000000000000000000000000000000000000000000000000081565b6101516101fe3660046118fb565b6107da565b610163610e53565b6101516102193660046118cb565b610ea2565b61018a6112d9565b6101516102343660046118cb565b611339565b6101516102473660046118fb565b611374565b610254611822565b6001600160a01b0381166102a35760405162461bcd60e51b8152602060048201526011602482015270125b9d985b1a59081c9958da5c1a595b9d607a1b60448201526064015b60405180910390fd5b6000306001600160a01b0316638782524e6040518163ffffffff1660e01b8152600401602060405180830381865afa1580156102e3573d6000803e3d6000fd5b505050506040513d601f19601f820116820180604052508101906103079190611914565b9050600081116103505760405162461bcd60e51b81526020600482015260146024820152734e6f2066756e647320746f20776974686472617760601b604482015260640161029a565b6040516370a0823160e01b81523060048201526000907f00000000000000000000000000000000000000000000000000000000000000006001600160a01b0316906370a0823190602401602060405180830381865afa1580156103b7573d6000803e3d6000fd5b505050506040513d601f19601f820116820180604052508101906103db9190611914565b9050818110156104965760006103f18284611943565b60405163f3fef3a360e01b81529091506001600160a01b037f0000000000000000000000000000000000000000000000000000000000000000169063f3fef3a390610462907f000000000000000000000000000000000000000000000000000000000000000090859060040161195c565b600060405180830381600087803b15801561047c57600080fd5b505af1158015610490573d6000803e3d6000fd5b50505050505b60405163a9059cbb60e01b81526000906001600160a01b037f0000000000000000000000000000000000000000000000000000000000000000169063a9059cbb906104e7908790879060040161195c565b6020604051808303816000875af1158015610506573d6000803e3d6000fd5b505050506040513d601f19601f8201168201806040525081019061052a9190611975565b9050806105495760405162461bcd60e51b815260040161029a90611997565b604080518481524260208201526001600160a01b0386169133917f873da158b95a7e5e83e2f84a94eeadadc115c324112605ca1819b276b3b035fa910160405180910390a350505050565b61059c611822565b6105a6600061184f565b565b6040516370a0823160e01b81523060048201526000907f00000000000000000000000000000000000000000000000000000000000000006001600160a01b0316906370a0823190602401602060405180830381865afa15801561060f573d6000803e3d6000fd5b505050506040513d601f19601f820116820180604052508101906106339190611914565b6040516370a0823160e01b81523060048201527f00000000000000000000000000000000000000000000000000000000000000006001600160a01b0316906370a0823190602401602060405180830381865afa158015610697573d6000803e3d6000fd5b505050506040513d601f19601f820116820180604052508101906106bb9190611914565b6106c591906119c5565b905090565b60007f00000000000000000000000000000000000000000000000000000000000000006001600160a01b03166367800b5f6040518163ffffffff1660e01b8152600401602060405180830381865afa15801561072a573d6000803e3d6000fd5b505050506040513d601f19601f820116820180604052508101906106c59190611975565b6040516370a0823160e01b81523060048201526000907f00000000000000000000000000000000000000000000000000000000000000006001600160a01b0316906370a08231906024015b602060405180830381865afa1580156107b6573d6000803e3d6000fd5b505050506040513d601f19601f820116820180604052508101906106c59190611914565b6107e26118a1565b600081116108325760405162461bcd60e51b815260206004820152601d60248201527f416d6f756e74206d7573742062652067726561746572207468616e2030000000604482015260640161029a565b6040516370a0823160e01b815233600482015281907f00000000000000000000000000000000000000000000000000000000000000006001600160a01b0316906370a0823190602401602060405180830381865afa158015610898573d6000803e3d6000fd5b505050506040513d601f19601f820116820180604052508101906108bc9190611914565b101561090a5760405162461bcd60e51b815260206004820152601c60248201527f496e73756666696369656e7420706c6174666f726d20746f6b656e7300000000604482015260640161029a565b600061091b64e8d4a51000836119d8565b9050600081116109615760405162461bcd60e51b81526020600482015260116024820152702737902aa9a221903a37903932ba3ab93760791b604482015260640161029a565b6040516370a0823160e01b81523060048201526000907f00000000000000000000000000000000000000000000000000000000000000006001600160a01b0316906370a0823190602401602060405180830381865afa1580156109c8573d6000803e3d6000fd5b505050506040513d601f19601f820116820180604052508101906109ec9190611914565b90508181101580610aec577f00000000000000000000000000000000000000000000000000000000000000006001600160a01b03166367800b5f6040518163ffffffff1660e01b8152600401602060405180830381865afa158015610a55573d6000803e3d6000fd5b505050506040513d601f19601f82011682018060405250810190610a799190611975565b15610aec5760405162461bcd60e51b815260206004820152603d60248201527f436f6d706f756e642077697468647261772069732070617573656420616e642060448201527f696e73756666696369656e7420636f6e74726163742062616c616e6365000000606482015260840161029a565b604051632770a7eb60e21b81526001600160a01b037f00000000000000000000000000000000000000000000000000000000000000001690639dc29fac90610b3a903390889060040161195c565b600060405180830381600087803b158015610b5457600080fd5b505af1158015610b68573d6000803e3d6000fd5b50506040516370a0823160e01b8152306004820152600092507f00000000000000000000000000000000000000000000000000000000000000006001600160a01b031691506370a0823190602401602060405180830381865afa158015610bd3573d6000803e3d6000fd5b505050506040513d601f19601f82011682018060405250810190610bf79190611914565b905083811015610cb2576000610c0d8286611943565b60405163f3fef3a360e01b81529091506001600160a01b037f0000000000000000000000000000000000000000000000000000000000000000169063f3fef3a390610c7e907f000000000000000000000000000000000000000000000000000000000000000090859060040161195c565b600060405180830381600087803b158015610c9857600080fd5b505af1158015610cac573d6000803e3d6000fd5b50505050505b6040516370a0823160e01b81523060048201526000907f00000000000000000000000000000000000000000000000000000000000000006001600160a01b0316906370a0823190602401602060405180830381865afa158015610d19573d6000803e3d6000fd5b505050506040513d601f19601f82011682018060405250810190610d3d9190611914565b90506000858210610d4e5785610d50565b815b905060007f00000000000000000000000000000000000000000000000000000000000000006001600160a01b031663a9059cbb33846040518363ffffffff1660e01b8152600401610da292919061195c565b6020604051808303816000875af1158015610dc1573d6000803e3d6000fd5b505050506040513d601f19601f82011682018060405250810190610de59190611975565b905080610e045760405162461bcd60e51b815260040161029a90611997565b604080518981526020810184905233917f9cc6dc8bdb4b6ad75707375ac18017379f79114f0d0dd85bf6de99c0522e8e27910160405180910390a250505050505050610e506001600055565b50565b6040516370a0823160e01b81523060048201526000907f00000000000000000000000000000000000000000000000000000000000000006001600160a01b0316906370a0823190602401610799565b610eaa611822565b6001600160a01b038116610ef45760405162461bcd60e51b8152602060048201526011602482015270125b9d985b1a59081c9958da5c1a595b9d607a1b604482015260640161029a565b60007f00000000000000000000000000000000000000000000000000000000000000006001600160a01b03166318160ddd6040518163ffffffff1660e01b8152600401602060405180830381865afa158015610f54573d6000803e3d6000fd5b505050506040513d601f19601f82011682018060405250810190610f789190611914565b90506000610f8b64e8d4a51000836119d8565b6040516370a0823160e01b81523060048201529091506000906001600160a01b037f000000000000000000000000000000000000000000000000000000000000000016906370a0823190602401602060405180830381865afa158015610ff5573d6000803e3d6000fd5b505050506040513d601f19601f820116820180604052508101906110199190611914565b6040516370a0823160e01b81523060048201529091506000906001600160a01b037f000000000000000000000000000000000000000000000000000000000000000016906370a0823190602401602060405180830381865afa158015611083573d6000803e3d6000fd5b505050506040513d601f19601f820116820180604052508101906110a79190611914565b905060006110b582846119c5565b90506000848211156110ce576110cb8583611943565b90505b6000811161111e5760405162461bcd60e51b815260206004820152601a60248201527f4e6f20657863657373205553444320746f207769746864726177000000000000604482015260640161029a565b808410156111d75760006111328583611943565b60405163f3fef3a360e01b81529091506001600160a01b037f0000000000000000000000000000000000000000000000000000000000000000169063f3fef3a3906111a3907f000000000000000000000000000000000000000000000000000000000000000090859060040161195c565b600060405180830381600087803b1580156111bd57600080fd5b505af11580156111d1573d6000803e3d6000fd5b50505050505b60405163a9059cbb60e01b81526000906001600160a01b037f0000000000000000000000000000000000000000000000000000000000000000169063a9059cbb90611228908b90869060040161195c565b6020604051808303816000875af1158015611247573d6000803e3d6000fd5b505050506040513d601f19601f8201168201806040525081019061126b9190611975565b90508061128a5760405162461bcd60e51b815260040161029a90611997565b604080518381524260208201526001600160a01b038a169133917f6477ace5d8e24d89a6cf79662efd0c77a90e58b441eee1b55df3ccedec260a1e910160405180910390a35050505050505050565b60007f00000000000000000000000000000000000000000000000000000000000000006001600160a01b0316630bc47ad16040518163ffffffff1660e01b8152600401602060405180830381865afa15801561072a573d6000803e3d6000fd5b611341611822565b6001600160a01b03811661136b57604051631e4fbdf760e01b81526000600482015260240161029a565b610e508161184f565b61137c6118a1565b600081116113cc5760405162461bcd60e51b815260206004820152601d60248201527f416d6f756e74206d7573742062652067726561746572207468616e2030000000604482015260640161029a565b60006113dd8264e8d4a510006119fa565b6040516323b872dd60e01b8152336004820152306024820152604481018490529091506000906001600160a01b037f000000000000000000000000000000000000000000000000000000000000000016906323b872dd906064016020604051808303816000875af1158015611456573d6000803e3d6000fd5b505050506040513d601f19601f8201168201806040525081019061147a9190611975565b9050806114995760405162461bcd60e51b815260040161029a90611997565b6040516340c10f1960e01b81526001600160a01b037f000000000000000000000000000000000000000000000000000000000000000016906340c10f19906114e7903390869060040161195c565b600060405180830381600087803b15801561150157600080fd5b505af1158015611515573d6000803e3d6000fd5b505050507f00000000000000000000000000000000000000000000000000000000000000006001600160a01b0316630bc47ad16040518163ffffffff1660e01b8152600401602060405180830381865afa158015611577573d6000803e3d6000fd5b505050506040513d601f19601f8201168201806040525081019061159b9190611975565b6117695760405163095ea7b360e01b81526001600160a01b037f0000000000000000000000000000000000000000000000000000000000000000169063095ea7b39061160d907f000000000000000000000000000000000000000000000000000000000000000090879060040161195c565b6020604051808303816000875af115801561162c573d6000803e3d6000fd5b505050506040513d601f19601f820116820180604052508101906116509190611975565b50604051631e573fb760e31b81526001600160a01b037f0000000000000000000000000000000000000000000000000000000000000000169063f2b9fdb8906116bf907f000000000000000000000000000000000000000000000000000000000000000090879060040161195c565b600060405180830381600087803b1580156116d957600080fd5b505af19250505080156116ea575060015b61176457336001600160a01b03167f3554b7a16ab99066e785a88a3412248e24757254e599304e8520474a76d3f299846040516117579181526040602082018190526016908201527510dbdb5c1bdd5b99081cdd5c1c1b1e4819985a5b195960521b606082015260800190565b60405180910390a26117db565b6117db565b336001600160a01b03167f3554b7a16ab99066e785a88a3412248e24757254e599304e8520474a76d3f299846040516117d29181526040602082018190526016908201527510dbdb5c1bdd5b99081cdd5c1c1b1e481c185d5cd95960521b606082015260800190565b60405180910390a25b604080518481526020810184905233917fdf761661d51ab4147355430c8891e0dc7406b6aece4d2b564ccd87e0baa6dfd9910160405180910390a25050610e506001600055565b6001546001600160a01b031633146105a65760405163118cdaa760e01b815233600482015260240161029a565b600180546001600160a01b038381166001600160a01b0319831681179093556040519116919082907f8be0079c531659141344cd1fd0a4f28419497f9722a3daafe3b4186f6b6457e090600090a35050565b6002600054036118c457604051633ee5aeb560e01b815260040160405180910390fd5b6002600055565b6000602082840312156118dd57600080fd5b81356001600160a01b03811681146118f457600080fd5b9392505050565b60006020828403121561190d57600080fd5b5035919050565b60006020828403121561192657600080fd5b5051919050565b634e487b7160e01b600052601160045260246000fd5b818103818111156119565761195661192d565b92915050565b6001600160a01b03929092168252602082015260400190565b60006020828403121561198757600080fd5b815180151581146118f457600080fd5b6020808252601490820152731554d110c81d1c985b9cd9995c8819985a5b195960621b604082015260600190565b808201808211156119565761195661192d565b6000826119f557634e487b7160e01b600052601260045260246000fd5b500490565b80820281158282048414176119565761195661192d56fea2646970667358221220bf908029e494176bc550f26f1b6d37aa3ad667776939be327353164706008c8c64736f6c63430008140033","linkReferences":{}},"methodIdentifiers":{"balanceSupply(address)":"e3c427b6","cUSDC()":"ce347a3e","depositUSDC(uint256)":"f688bcfb","emergencyWithdrawAll(address)":"54ab6269","getCompoundUSDCBalance()":"e1b38156","getTokenManagerUSDCBalance()":"a218f7b1","getTotalAvailableBalance()":"8782524e","isCompoundSupplyPaused()":"ec559a13","isCompoundWithdrawPaused()":"970d01f0","owner()":"8da5cb5b","platformToken()":"d1b812cd","renounceOwnership()":"715018a6","transferOwnership(address)":"f2fde38b","usdcToken()":"11eac855","withdrawUSDC(uint256)":"db81f99b"},"id":30}