{"abi":[{"type":"constructor","inputs":[{"name":"_usdcToken","type":"address","internalType":"address"},{"name":"_platformToken","type":"address","internalType":"address"},{"name":"_cUSDC","type":"address","internalType":"address"}],"stateMutability":"nonpayable"},{"type":"function","name":"balanceSupply","inputs":[{"name":"to","type":"address","internalType":"address"}],"outputs":[],"stateMutability":"nonpayable"},{"type":"function","name":"cUSDC","inputs":[],"outputs":[{"name":"","type":"address","internalType":"contract ICErc20"}],"stateMutability":"view"},{"type":"function","name":"depositUSDC","inputs":[{"name":"amount","type":"uint256","internalType":"uint256"}],"outputs":[],"stateMutability":"nonpayable"},{"type":"function","name":"emergencyWithdrawAll","inputs":[{"name":"to","type":"address","internalType":"address"}],"outputs":[],"stateMutability":"nonpayable"},{"type":"function","name":"getCompoundUSDCBalance","inputs":[],"outputs":[{"name":"","type":"uint256","internalType":"uint256"}],"stateMutability":"view"},{"type":"function","name":"getTokenManagerUSDCBalance","inputs":[],"outputs":[{"name":"","type":"uint256","internalType":"uint256"}],"stateMutability":"view"},{"type":"function","name":"getTotalAvailableBalance","inputs":[],"outputs":[{"name":"","type":"uint256","internalType":"uint256"}],"stateMutability":"view"},{"type":"function","name":"isCompoundSupplyPaused","inputs":[],"outputs":[{"name":"","type":"bool","internalType":"bool"}],"stateMutability":"view"},{"type":"function","name":"isCompoundWithdrawPaused","inputs":[],"outputs":[{"name":"","type":"bool","internalType":"bool"}],"stateMutability":"view"},{"type":"function","name":"owner","inputs":[],"outputs":[{"name":"","type":"address","internalType":"address"}],"stateMutability":"view"},{"type":"function","name":"platformToken","inputs":[],"outputs":[{"name":"","type":"address","internalType":"contract PlatformToken"}],"stateMutability":"view"},{"type":"function","name":"renounceOwnership","inputs":[],"outputs":[],"stateMutability":"nonpayable"},{"type":"function","name":"transferOwnership","inputs":[{"name":"newOwner","type":"address","internalType":"address"}],"outputs":[],"stateMutability":"nonpayable"},{"type":"function","name":"usdcToken","inputs":[],"outputs":[{"name":"","type":"address","internalType":"contract IERC20"}],"stateMutability":"view"},{"type":"function","name":"withdrawAll","inputs":[],"outputs":[],"stateMutability":"nonpayable"},{"type":"function","name":"withdrawUSDC","inputs":[{"name":"platformTokenAmount","type":"uint256","internalType":"uint256"}],"outputs":[],"stateMutability":"nonpayable"},{"type":"event","name":"BalanceSupply","inputs":[{"name":"owner","type":"address","indexed":true,"internalType":"address"},{"name":"recipient","type":"address","indexed":true,"internalType":"address"},{"name":"amount","type":"uint256","indexed":false,"internalType":"uint256"},{"name":"timestamp","type":"uint256","indexed":false,"internalType":"uint256"}],"anonymous":false},{"type":"event","name":"CompoundDepositFallback","inputs":[{"name":"user","type":"address","indexed":true,"internalType":"address"},{"name":"usdcAmount","type":"uint256","indexed":false,"internalType":"uint256"},{"name":"reason","type":"string","indexed":false,"internalType":"string"}],"anonymous":false},{"type":"event","name":"EmergencyWithdrawal","inputs":[{"name":"owner","type":"address","indexed":true,"internalType":"address"},{"name":"recipient","type":"address","indexed":true,"internalType":"address"},{"name":"amount","type":"uint256","indexed":false,"internalType":"uint256"},{"name":"timestamp","type":"uint256","indexed":false,"internalType":"uint256"}],"anonymous":false},{"type":"event","name":"OwnershipTransferred","inputs":[{"name":"previousOwner","type":"address","indexed":true,"internalType":"address"},{"name":"newOwner","type":"address","indexed":true,"internalType":"address"}],"anonymous":false},{"type":"event","name":"USDCDeposited","inputs":[{"name":"user","type":"address","indexed":true,"internalType":"address"},{"name":"usdcAmount","type":"uint256","indexed":false,"internalType":"uint256"},{"name":"platformTokensMinted","type":"uint256","indexed":false,"internalType":"uint256"}],"anonymous":false},{"type":"event","name":"USDCWithdrawn","inputs":[{"name":"user","type":"address","indexed":true,"internalType":"address"},{"name":"platformTokensBurned","type":"uint256","indexed":false,"internalType":"uint256"},{"name":"usdcAmount","type":"uint256","indexed":false,"internalType":"uint256"}],"anonymous":false},{"type":"error","name":"OwnableInvalidOwner","inputs":[{"name":"owner","type":"address","internalType":"address"}]},{"type":"error","name":"OwnableUnauthorizedAccount","inputs":[{"name":"account","type":"address","internalType":"address"}]},{"type":"error","name":"ReentrancyGuardReentrantCall","inputs":[]}],"bytecode":{"object":"0x60e06040523480156200001157600080fd5b50604051620023ea380380620023ea83398101604081905262000034916200021a565b600160005533806200006157604051631e4fbdf760e01b8152600060048201526024015b60405180910390fd5b6200006c81620001ab565b506001600160a01b038316620000cf5760405162461bcd60e51b815260206004820152602160248201527f5553444320746f6b656e2063616e6e6f74206265207a65726f206164647265736044820152607360f81b606482015260840162000058565b6001600160a01b038216620001355760405162461bcd60e51b815260206004820152602560248201527f506c6174666f726d20746f6b656e2063616e6e6f74206265207a65726f206164604482015264647265737360d81b606482015260840162000058565b6001600160a01b0381166200018d5760405162461bcd60e51b815260206004820152601c60248201527f43555344432063616e6e6f74206265207a65726f206164647265737300000000604482015260640162000058565b6001600160a01b0392831660805290821660a0521660c05262000264565b600180546001600160a01b038381166001600160a01b0319831681179093556040519116919082907f8be0079c531659141344cd1fd0a4f28419497f9722a3daafe3b4186f6b6457e090600090a35050565b80516001600160a01b03811681146200021557600080fd5b919050565b6000806000606084860312156200023057600080fd5b6200023b84620001fd565b92506200024b60208501620001fd565b91506200025b60408501620001fd565b90509250925092565b60805160a05160c051612037620003b3600039600081816101ba0152818161041e0152818161078f0152818161096701528181610ba901528181610cb701528181610fe2015281816111ba015281816113fe015281816115cf015281816116df0152818161187001528181611aae01528181611b760152611bfb0152600081816101e1015281816105db0152818161084301528181610e32015281816110960152818161148b0152611a4301526000818161010a0152818161037b0152818161044b015281816104c30152818161070f015281816108c30152818161099401528181610a0a01528181610a9601528181610c3101528181610d4f01528181610f6201528181611116015281816111e70152818161125d015281816112e9015281816115410152818161170c01528181611784015281816119a001528181611b490152611c2801526120376000f3fe608060405234801561001057600080fd5b50600436106101005760003560e01c8063ce347a3e11610097578063e3c427b611610066578063e3c427b61461021e578063ec559a1314610231578063f2fde38b14610239578063f688bcfb1461024c57600080fd5b8063ce347a3e146101b5578063d1b812cd146101dc578063db81f99b14610203578063e1b381561461021657600080fd5b80638782524e116100d35780638782524e1461016e5780638da5cb5b14610184578063970d01f014610195578063a218f7b1146101ad57600080fd5b806311eac8551461010557806354ab626914610149578063715018a61461015e578063853828b614610166575b600080fd5b61012c7f000000000000000000000000000000000000000000000000000000000000000081565b6040516001600160a01b0390911681526020015b60405180910390f35b61015c610157366004611e5e565b61025f565b005b61015c6105a7565b61015c6105bb565b610176610b91565b604051908152602001610140565b6001546001600160a01b031661012c565b61019d610cb3565b6040519015158152602001610140565b610176610d37565b61012c7f000000000000000000000000000000000000000000000000000000000000000081565b61012c7f000000000000000000000000000000000000000000000000000000000000000081565b61015c610211366004611e8e565b610dc3565b6101766113e6565b61015c61022c366004611e5e565b611435565b61019d61186c565b61015c610247366004611e5e565b6118cc565b61015c61025a366004611e8e565b611907565b610267611db5565b6001600160a01b0381166102b65760405162461bcd60e51b8152602060048201526011602482015270125b9d985b1a59081c9958da5c1a595b9d607a1b60448201526064015b60405180910390fd5b6000306001600160a01b0316638782524e6040518163ffffffff1660e01b8152600401602060405180830381865afa1580156102f6573d6000803e3d6000fd5b505050506040513d601f19601f8201168201806040525081019061031a9190611ea7565b9050600081116103635760405162461bcd60e51b81526020600482015260146024820152734e6f2066756e647320746f20776974686472617760601b60448201526064016102ad565b6040516370a0823160e01b81523060048201526000907f00000000000000000000000000000000000000000000000000000000000000006001600160a01b0316906370a0823190602401602060405180830381865afa1580156103ca573d6000803e3d6000fd5b505050506040513d601f19601f820116820180604052508101906103ee9190611ea7565b9050818110156104a95760006104048284611ed6565b60405163f3fef3a360e01b81529091506001600160a01b037f0000000000000000000000000000000000000000000000000000000000000000169063f3fef3a390610475907f0000000000000000000000000000000000000000000000000000000000000000908590600401611eef565b600060405180830381600087803b15801561048f57600080fd5b505af11580156104a3573d6000803e3d6000fd5b50505050505b60405163a9059cbb60e01b81526000906001600160a01b037f0000000000000000000000000000000000000000000000000000000000000000169063a9059cbb906104fa9087908790600401611eef565b6020604051808303816000875af1158015610519573d6000803e3d6000fd5b505050506040513d601f19601f8201168201806040525081019061053d9190611f08565b90508061055c5760405162461bcd60e51b81526004016102ad90611f2a565b604080518481524260208201526001600160a01b0386169133917f873da158b95a7e5e83e2f84a94eeadadc115c324112605ca1819b276b3b035fa910160405180910390a350505050565b6105af611db5565b6105b96000611de2565b565b6105c3611e34565b6040516370a0823160e01b81523360048201526000907f00000000000000000000000000000000000000000000000000000000000000006001600160a01b0316906370a0823190602401602060405180830381865afa15801561062a573d6000803e3d6000fd5b505050506040513d601f19601f8201168201806040525081019061064e9190611ea7565b9050600081116106a05760405162461bcd60e51b815260206004820152601e60248201527f4e6f20706c6174666f726d20746f6b656e7320746f207769746864726177000060448201526064016102ad565b60006106b164e8d4a5100083611f58565b9050600081116106f75760405162461bcd60e51b81526020600482015260116024820152702737902aa9a221903a37903932ba3ab93760791b60448201526064016102ad565b6040516370a0823160e01b81523060048201526000907f00000000000000000000000000000000000000000000000000000000000000006001600160a01b0316906370a0823190602401602060405180830381865afa15801561075e573d6000803e3d6000fd5b505050506040513d601f19601f820116820180604052508101906107829190611ea7565b9050818110158061082c577f00000000000000000000000000000000000000000000000000000000000000006001600160a01b03166367800b5f6040518163ffffffff1660e01b8152600401602060405180830381865afa1580156107eb573d6000803e3d6000fd5b505050506040513d601f19601f8201168201806040525081019061080f9190611f08565b1561082c5760405162461bcd60e51b81526004016102ad90611f7a565b604051632770a7eb60e21b81526001600160a01b037f00000000000000000000000000000000000000000000000000000000000000001690639dc29fac9061087a9033908890600401611eef565b600060405180830381600087803b15801561089457600080fd5b505af11580156108a8573d6000803e3d6000fd5b50506040516370a0823160e01b8152306004820152600092507f00000000000000000000000000000000000000000000000000000000000000006001600160a01b031691506370a0823190602401602060405180830381865afa158015610913573d6000803e3d6000fd5b505050506040513d601f19601f820116820180604052508101906109379190611ea7565b9050838110156109f257600061094d8286611ed6565b60405163f3fef3a360e01b81529091506001600160a01b037f0000000000000000000000000000000000000000000000000000000000000000169063f3fef3a3906109be907f0000000000000000000000000000000000000000000000000000000000000000908590600401611eef565b600060405180830381600087803b1580156109d857600080fd5b505af11580156109ec573d6000803e3d6000fd5b50505050505b6040516370a0823160e01b81523060048201526000907f00000000000000000000000000000000000000000000000000000000000000006001600160a01b0316906370a0823190602401602060405180830381865afa158015610a59573d6000803e3d6000fd5b505050506040513d601f19601f82011682018060405250810190610a7d9190611ea7565b90506000858210610a8e5785610a90565b815b905060007f00000000000000000000000000000000000000000000000000000000000000006001600160a01b031663a9059cbb33846040518363ffffffff1660e01b8152600401610ae2929190611eef565b6020604051808303816000875af1158015610b01573d6000803e3d6000fd5b505050506040513d601f19601f82011682018060405250810190610b259190611f08565b905080610b445760405162461bcd60e51b81526004016102ad90611f2a565b604080518981526020810184905233917f9cc6dc8bdb4b6ad75707375ac18017379f79114f0d0dd85bf6de99c0522e8e27910160405180910390a250505050505050506105b96001600055565b6040516370a0823160e01b81523060048201526000907f00000000000000000000000000000000000000000000000000000000000000006001600160a01b0316906370a0823190602401602060405180830381865afa158015610bf8573d6000803e3d6000fd5b505050506040513d601f19601f82011682018060405250810190610c1c9190611ea7565b6040516370a0823160e01b81523060048201527f00000000000000000000000000000000000000000000000000000000000000006001600160a01b0316906370a0823190602401602060405180830381865afa158015610c80573d6000803e3d6000fd5b505050506040513d601f19601f82011682018060405250810190610ca49190611ea7565b610cae9190611fd7565b905090565b60007f00000000000000000000000000000000000000000000000000000000000000006001600160a01b03166367800b5f6040518163ffffffff1660e01b8152600401602060405180830381865afa158015610d13573d6000803e3d6000fd5b505050506040513d601f19601f82011682018060405250810190610cae9190611f08565b6040516370a0823160e01b81523060048201526000907f00000000000000000000000000000000000000000000000000000000000000006001600160a01b0316906370a08231906024015b602060405180830381865afa158015610d9f573d6000803e3d6000fd5b505050506040513d601f19601f82011682018060405250810190610cae9190611ea7565b610dcb611e34565b60008111610e1b5760405162461bcd60e51b815260206004820152601d60248201527f416d6f756e74206d7573742062652067726561746572207468616e203000000060448201526064016102ad565b6040516370a0823160e01b815233600482015281907f00000000000000000000000000000000000000000000000000000000000000006001600160a01b0316906370a0823190602401602060405180830381865afa158015610e81573d6000803e3d6000fd5b505050506040513d601f19601f82011682018060405250810190610ea59190611ea7565b1015610ef35760405162461bcd60e51b815260206004820152601c60248201527f496e73756666696369656e7420706c6174666f726d20746f6b656e730000000060448201526064016102ad565b6000610f0464e8d4a5100083611f58565b905060008111610f4a5760405162461bcd60e51b81526020600482015260116024820152702737902aa9a221903a37903932ba3ab93760791b60448201526064016102ad565b6040516370a0823160e01b81523060048201526000907f00000000000000000000000000000000000000000000000000000000000000006001600160a01b0316906370a0823190602401602060405180830381865afa158015610fb1573d6000803e3d6000fd5b505050506040513d601f19601f82011682018060405250810190610fd59190611ea7565b9050818110158061107f577f00000000000000000000000000000000000000000000000000000000000000006001600160a01b03166367800b5f6040518163ffffffff1660e01b8152600401602060405180830381865afa15801561103e573d6000803e3d6000fd5b505050506040513d601f19601f820116820180604052508101906110629190611f08565b1561107f5760405162461bcd60e51b81526004016102ad90611f7a565b604051632770a7eb60e21b81526001600160a01b037f00000000000000000000000000000000000000000000000000000000000000001690639dc29fac906110cd9033908890600401611eef565b600060405180830381600087803b1580156110e757600080fd5b505af11580156110fb573d6000803e3d6000fd5b50506040516370a0823160e01b8152306004820152600092507f00000000000000000000000000000000000000000000000000000000000000006001600160a01b031691506370a0823190602401602060405180830381865afa158015611166573d6000803e3d6000fd5b505050506040513d601f19601f8201168201806040525081019061118a9190611ea7565b9050838110156112455760006111a08286611ed6565b60405163f3fef3a360e01b81529091506001600160a01b037f0000000000000000000000000000000000000000000000000000000000000000169063f3fef3a390611211907f0000000000000000000000000000000000000000000000000000000000000000908590600401611eef565b600060405180830381600087803b15801561122b57600080fd5b505af115801561123f573d6000803e3d6000fd5b50505050505b6040516370a0823160e01b81523060048201526000907f00000000000000000000000000000000000000000000000000000000000000006001600160a01b0316906370a0823190602401602060405180830381865afa1580156112ac573d6000803e3d6000fd5b505050506040513d601f19601f820116820180604052508101906112d09190611ea7565b905060008582106112e157856112e3565b815b905060007f00000000000000000000000000000000000000000000000000000000000000006001600160a01b031663a9059cbb33846040518363ffffffff1660e01b8152600401611335929190611eef565b6020604051808303816000875af1158015611354573d6000803e3d6000fd5b505050506040513d601f19601f820116820180604052508101906113789190611f08565b9050806113975760405162461bcd60e51b81526004016102ad90611f2a565b604080518981526020810184905233917f9cc6dc8bdb4b6ad75707375ac18017379f79114f0d0dd85bf6de99c0522e8e27910160405180910390a2505050505050506113e36001600055565b50565b6040516370a0823160e01b81523060048201526000907f00000000000000000000000000000000000000000000000000000000000000006001600160a01b0316906370a0823190602401610d82565b61143d611db5565b6001600160a01b0381166114875760405162461bcd60e51b8152602060048201526011602482015270125b9d985b1a59081c9958da5c1a595b9d607a1b60448201526064016102ad565b60007f00000000000000000000000000000000000000000000000000000000000000006001600160a01b03166318160ddd6040518163ffffffff1660e01b8152600401602060405180830381865afa1580156114e7573d6000803e3d6000fd5b505050506040513d601f19601f8201168201806040525081019061150b9190611ea7565b9050600061151e64e8d4a5100083611f58565b6040516370a0823160e01b81523060048201529091506000906001600160a01b037f000000000000000000000000000000000000000000000000000000000000000016906370a0823190602401602060405180830381865afa158015611588573d6000803e3d6000fd5b505050506040513d601f19601f820116820180604052508101906115ac9190611ea7565b6040516370a0823160e01b81523060048201529091506000906001600160a01b037f000000000000000000000000000000000000000000000000000000000000000016906370a0823190602401602060405180830381865afa158015611616573d6000803e3d6000fd5b505050506040513d601f19601f8201168201806040525081019061163a9190611ea7565b905060006116488284611fd7565b90506000848211156116615761165e8583611ed6565b90505b600081116116b15760405162461bcd60e51b815260206004820152601a60248201527f4e6f20657863657373205553444320746f20776974686472617700000000000060448201526064016102ad565b8084101561176a5760006116c58583611ed6565b60405163f3fef3a360e01b81529091506001600160a01b037f0000000000000000000000000000000000000000000000000000000000000000169063f3fef3a390611736907f0000000000000000000000000000000000000000000000000000000000000000908590600401611eef565b600060405180830381600087803b15801561175057600080fd5b505af1158015611764573d6000803e3d6000fd5b50505050505b60405163a9059cbb60e01b81526000906001600160a01b037f0000000000000000000000000000000000000000000000000000000000000000169063a9059cbb906117bb908b908690600401611eef565b6020604051808303816000875af11580156117da573d6000803e3d6000fd5b505050506040513d601f19601f820116820180604052508101906117fe9190611f08565b90508061181d5760405162461bcd60e51b81526004016102ad90611f2a565b604080518381524260208201526001600160a01b038a169133917f6477ace5d8e24d89a6cf79662efd0c77a90e58b441eee1b55df3ccedec260a1e910160405180910390a35050505050505050565b60007f00000000000000000000000000000000000000000000000000000000000000006001600160a01b0316630bc47ad16040518163ffffffff1660e01b8152600401602060405180830381865afa158015610d13573d6000803e3d6000fd5b6118d4611db5565b6001600160a01b0381166118fe57604051631e4fbdf760e01b8152600060048201526024016102ad565b6113e381611de2565b61190f611e34565b6000811161195f5760405162461bcd60e51b815260206004820152601d60248201527f416d6f756e74206d7573742062652067726561746572207468616e203000000060448201526064016102ad565b60006119708264e8d4a51000611fea565b6040516323b872dd60e01b8152336004820152306024820152604481018490529091506000906001600160a01b037f000000000000000000000000000000000000000000000000000000000000000016906323b872dd906064016020604051808303816000875af11580156119e9573d6000803e3d6000fd5b505050506040513d601f19601f82011682018060405250810190611a0d9190611f08565b905080611a2c5760405162461bcd60e51b81526004016102ad90611f2a565b6040516340c10f1960e01b81526001600160a01b037f000000000000000000000000000000000000000000000000000000000000000016906340c10f1990611a7a9033908690600401611eef565b600060405180830381600087803b158015611a9457600080fd5b505af1158015611aa8573d6000803e3d6000fd5b505050507f00000000000000000000000000000000000000000000000000000000000000006001600160a01b0316630bc47ad16040518163ffffffff1660e01b8152600401602060405180830381865afa158015611b0a573d6000803e3d6000fd5b505050506040513d601f19601f82011682018060405250810190611b2e9190611f08565b611cfc5760405163095ea7b360e01b81526001600160a01b037f0000000000000000000000000000000000000000000000000000000000000000169063095ea7b390611ba0907f0000000000000000000000000000000000000000000000000000000000000000908790600401611eef565b6020604051808303816000875af1158015611bbf573d6000803e3d6000fd5b505050506040513d601f19601f82011682018060405250810190611be39190611f08565b50604051631e573fb760e31b81526001600160a01b037f0000000000000000000000000000000000000000000000000000000000000000169063f2b9fdb890611c52907f0000000000000000000000000000000000000000000000000000000000000000908790600401611eef565b600060405180830381600087803b158015611c6c57600080fd5b505af1925050508015611c7d575060015b611cf757336001600160a01b03167f3554b7a16ab99066e785a88a3412248e24757254e599304e8520474a76d3f29984604051611cea9181526040602082018190526016908201527510dbdb5c1bdd5b99081cdd5c1c1b1e4819985a5b195960521b606082015260800190565b60405180910390a2611d6e565b611d6e565b336001600160a01b03167f3554b7a16ab99066e785a88a3412248e24757254e599304e8520474a76d3f29984604051611d659181526040602082018190526016908201527510dbdb5c1bdd5b99081cdd5c1c1b1e481c185d5cd95960521b606082015260800190565b60405180910390a25b604080518481526020810184905233917fdf761661d51ab4147355430c8891e0dc7406b6aece4d2b564ccd87e0baa6dfd9910160405180910390a250506113e36001600055565b6001546001600160a01b031633146105b95760405163118cdaa760e01b81523360048201526024016102ad565b600180546001600160a01b038381166001600160a01b0319831681179093556040519116919082907f8be0079c531659141344cd1fd0a4f28419497f9722a3daafe3b4186f6b6457e090600090a35050565b600260005403611e5757604051633ee5aeb560e01b815260040160405180910390fd5b6002600055565b600060208284031215611e7057600080fd5b81356001600160a01b0381168114611e8757600080fd5b9392505050565b600060208284031215611ea057600080fd5b5035919050565b600060208284031215611eb957600080fd5b5051919050565b634e487b7160e01b600052601160045260246000fd5b81810381811115611ee957611ee9611ec0565b92915050565b6001600160a01b03929092168252602082015260400190565b600060208284031215611f1a57600080fd5b81518015158114611e8757600080fd5b6020808252601490820152731554d110c81d1c985b9cd9995c8819985a5b195960621b604082015260600190565b600082611f7557634e487b7160e01b600052601260045260246000fd5b500490565b6020808252603d908201527f436f6d706f756e642077697468647261772069732070617573656420616e642060408201527f696e73756666696369656e7420636f6e74726163742062616c616e6365000000606082015260800190565b80820180821115611ee957611ee9611ec0565b8082028115828204841417611ee957611ee9611ec056fea26469706673582212200cb25246cea36a08dcbab23c9c4f230d7ebfc2aa73be527f7ed51ee055d13e6e64736f6c63430008140033","linkReferences":{}},"methodIdentifiers":{"balanceSupply(address)":"e3c427b6","cUSDC()":"ce347a3e","depositUSDC(uint256)":"f688bcfb","emergencyWithdrawAll(address)":"54ab6269","getCompoundUSDCBalance()":"e1b38156","getTokenManagerUSDCBalance()":"a218f7b1","getTotalAvailableBalance()":"8782524e","isCompoundSupplyPaused()":"ec559a13","isCompoundWithdrawPaused()":"970d01f0","owner()":"8da5cb5b","platformToken()":"d1b812cd","renounceOwnership()":"715018a6","transferOwnership(address)":"f2fde38b","usdcToken()":"11eac855","withdrawAll()":"853828b6","withdrawUSDC(uint256)":"db81f99b"},"id":23}