{"abi":[{"type":"function","name":"createEscrow","inputs":[{"name":"depositAmount","type":"uint256","internalType":"uint256"},{"name":"expiry","type":"uint256","internalType":"uint256"},{"name":"paymentToken","type":"address","internalType":"address"},{"name":"paymentTokenDecimals","type":"uint8","internalType":"uint8"},{"name":"oracle","type":"address","internalType":"address"},{"name":"oracleFee","type":"uint256","internalType":"uint256"}],"outputs":[{"name":"","type":"address","internalType":"address"}],"stateMutability":"nonpayable"},{"type":"function","name":"escrows","inputs":[{"name":"","type":"uint256","internalType":"uint256"}],"outputs":[{"name":"","type":"address","internalType":"contract Escrow"}],"stateMutability":"view"},{"type":"function","name":"getEscrows","inputs":[],"outputs":[{"name":"","type":"address[]","internalType":"contract Escrow[]"}],"stateMutability":"view"},{"type":"event","name":"EscrowCreated","inputs":[{"name":"escrow","type":"address","indexed":true,"internalType":"address"},{"name":"host","type":"address","indexed":true,"internalType":"address"},{"name":"depositAmount","type":"uint256","indexed":false,"internalType":"uint256"}],"anonymous":false}],"bytecode":{"object":"0x608060405234801561001057600080fd5b50611f93806100206000396000f3fe608060405234801561001057600080fd5b50600436106100415760003560e01c8063012f52ee146100465780636afcb6da14610076578063d903ce5e1461008b575b600080fd5b6100596100543660046103e7565b61009e565b6040516001600160a01b0390911681526020015b60405180910390f35b61007e6100c8565b60405161006d9190610400565b610059610099366004610469565b61012a565b600081815481106100ae57600080fd5b6000918252602090912001546001600160a01b0316905081565b6060600080548060200260200160405190810160405280929190818152602001828054801561012057602002820191906000526020600020905b81546001600160a01b03168152600190910190602001808311610102575b5050505050905090565b60004286116101805760405162461bcd60e51b815260206004820152601860248201527f457870697279206d75737420626520696e20667574757265000000000000000060448201526064015b60405180910390fd5b6001600160a01b0385166101e25760405162461bcd60e51b8152602060048201526024808201527f5061796d656e7420746f6b656e2063616e6e6f74206265207a65726f206164646044820152637265737360e01b6064820152608401610177565b6001600160a01b0383166102385760405162461bcd60e51b815260206004820152601d60248201527f4f7261636c652063616e6e6f74206265207a65726f20616464726573730000006044820152606401610177565b600087116102965760405162461bcd60e51b815260206004820152602560248201527f4465706f73697420616d6f756e74206d75737420626520677265617465722074604482015264068616e20360dc1b6064820152608401610177565b6127108211156102e85760405162461bcd60e51b815260206004820152601d60248201527f4f7261636c65206665652063616e6e6f742065786365656420313030250000006044820152606401610177565b60008787878787876040516102fc906103da565b95865260208601949094526001600160a01b03928316604086015260ff909116606085015216608083015260a082015260c001604051809103906000f08015801561034b573d6000803e3d6000fd5b50600080546001810182559080527f290decd9548b62a8d60345a988386fc84ba6bc95484008f6362f93160ef3e5630180546001600160a01b0319166001600160a01b0383169081179091556040518a815291925033917f78da7430b15648a5954de6bf3f6dc65a9eb64c292537d89a2a9989fdd36799239060200160405180910390a3979650505050505050565b611a8d806104d183390190565b6000602082840312156103f957600080fd5b5035919050565b6020808252825182820181905260009190848201906040850190845b818110156104415783516001600160a01b03168352928401929184019160010161041c565b50909695505050505050565b80356001600160a01b038116811461046457600080fd5b919050565b60008060008060008060c0878903121561048257600080fd5b86359550602087013594506104996040880161044d565b9350606087013560ff811681146104af57600080fd5b92506104bd6080880161044d565b915060a08701359050929550929550929556fe6101006040523480156200001257600080fd5b5060405162001a8d38038062001a8d833981016040819052620000359162000263565b6001600055856200009b5760405162461bcd60e51b815260206004820152602560248201527f4465706f73697420616d6f756e74206d75737420626520677265617465722074604482015264068616e20360dc1b60648201526084015b60405180910390fd5b428511620000ec5760405162461bcd60e51b815260206004820152601c60248201527f457870697279206d75737420626520696e207468652066757475726500000000604482015260640162000092565b6001600160a01b038416620001505760405162461bcd60e51b8152602060048201526024808201527f5061796d656e7420746f6b656e2063616e6e6f74206265207a65726f206164646044820152637265737360e01b606482015260840162000092565b6001600160a01b038216620001a85760405162461bcd60e51b815260206004820152601d60248201527f4f7261636c652063616e6e6f74206265207a65726f2061646472657373000000604482015260640162000092565b612710811115620001fc5760405162461bcd60e51b815260206004820152601d60248201527f4f7261636c65206665652063616e6e6f74206578636565642031303025000000604482015260640162000092565b604080518082019091528681526020018590526001959095556002939093556001600160a01b0391821660805260ff1660a0521660c05260e0526004805460ff19169055620002d0565b80516001600160a01b03811681146200025e57600080fd5b919050565b60008060008060008060c087890312156200027d57600080fd5b8651955060208701519450620002966040880162000246565b9350606087015160ff81168114620002ad57600080fd5b9250620002bd6080880162000246565b915060a087015190509295509295509295565b60805160a05160c05160e05161172f6200035e6000396000818161028e015261073b01526000818161020c015281816102bb0152818161050601528181610a1c015261113c01526000610176015260008181610132015281816103fe0152818161087b0152818161098a01528181610a4b01528181610d5c0152818161104301526112c8015261172f6000f3fe608060405234801561001057600080fd5b506004361061010b5760003560e01c80637856ed41116100a2578063c19d93fb11610071578063c19d93fb14610256578063cabfaa1814610270578063d0e30db014610278578063f3baf07014610280578063f9cd3ceb1461028957600080fd5b80637856ed41146101ff5780637dc0d1d0146102075780639496fd1c1461022e578063956501bb1461023657600080fd5b806335c1d349116100de57806335c1d349146101aa5780633ccfd60b146101bd57806351cc0da7146101c5578063565974d3146101dc57600080fd5b80632009dc65146101105780632929abe61461011a5780633013ce291461012d578063325cd79614610171575b600080fd5b6101186102b0565b005b610118610128366004611464565b6104fb565b6101547f000000000000000000000000000000000000000000000000000000000000000081565b6040516001600160a01b0390911681526020015b60405180910390f35b6101987f000000000000000000000000000000000000000000000000000000000000000081565b60405160ff9091168152602001610168565b6101546101b83660046114d0565b610b06565b610118610b30565b6101ce60035481565b604051908152602001610168565b6001546002546101ea919082565b60408051928352602083019190915201610168565b610118610e09565b6101547f000000000000000000000000000000000000000000000000000000000000000081565b6101186110fb565b6101ce6102443660046114e9565b60056020526000908152604090205481565b6004546102639060ff1681565b604051610168919061152f565b6006546101ce565b6101186111b1565b6101ce6107d081565b6101ce7f000000000000000000000000000000000000000000000000000000000000000081565b336001600160a01b037f000000000000000000000000000000000000000000000000000000000000000016146103015760405162461bcd60e51b81526004016102f890611557565b60405180910390fd5b600060045460ff16600381111561031a5761031a611519565b148061033c5750600160045460ff16600381111561033a5761033a611519565b145b6103885760405162461bcd60e51b815260206004820152601f60248201527f457363726f77206e6f7420696e2063616e63656c6c61626c652073746174650060448201526064016102f8565b60005b6006548110156104af576000600682815481106103aa576103aa61157b565b60009182526020808320909101546001600160a01b03168083526005909152604090912054909150801561049a5760405163a9059cbb60e01b81526001600160a01b038381166004830152602482018390527f0000000000000000000000000000000000000000000000000000000000000000169063a9059cbb906044016020604051808303816000875af1158015610447573d6000803e3d6000fd5b505050506040513d601f19601f8201168201806040525081019061046b9190611591565b506001600160a01b038216600090815260056020908152604080832083905560079091529020805460ff191690555b505080806104a7906115c9565b91505061038b565b50600060038190556104c3906006906113de565b6004805460ff191660031790556040517f6e3be9294e58d10b9c8053cfd5e09871b67e442fe394d6b0870d336b9df984a990600090a1565b336001600160a01b037f000000000000000000000000000000000000000000000000000000000000000016146105435760405162461bcd60e51b81526004016102f890611557565b61054b6113b4565b600160045460ff16600381111561056457610564611519565b146105aa5760405162461bcd60e51b8152602060048201526016602482015275457363726f77206e6f7420696e2070726f677265737360501b60448201526064016102f8565b8281146105f15760405162461bcd60e51b8152602060048201526015602482015274082e4e4c2f240d8cadccee8d040dad2e6dac2e8c6d605b1b60448201526064016102f8565b8261062d5760405162461bcd60e51b815260206004820152600c60248201526b456d7074792061727261797360a01b60448201526064016102f8565b6000805b828110156106e257600086868381811061064d5761064d61157b565b905060200201602081019061066291906114e9565b6001600160a01b0316036106aa5760405162461bcd60e51b815260206004820152600f60248201526e496e76616c6964206164647265737360881b60448201526064016102f8565b8383828181106106bc576106bc61157b565b90506020020135826106ce91906115e2565b9150806106da816115c9565b915050610631565b5080612710146107345760405162461bcd60e51b815260206004820181905260248201527f546f74616c206d75737420626520313030303020626173697320706f696e747360448201526064016102f8565b60006127107f000000000000000000000000000000000000000000000000000000000000000060035461076791906115fb565b6107719190611612565b90506000816003546107839190611634565b905060008467ffffffffffffffff8111156107a0576107a0611647565b6040519080825280602002602001820160405280156107c9578160200160208202803683370190505b50905060005b8581101561083d5760006127108888848181106107ee576107ee61157b565b905060200201358561080091906115fb565b61080a9190611612565b90508083838151811061081f5761081f61157b565b60209081029190910101525080610835816115c9565b9150506107cf565b506004805460ff1916600217905560005b815181101561097157600082828151811061086b5761086b61157b565b6020026020010151111561095f577f00000000000000000000000000000000000000000000000000000000000000006001600160a01b031663a9059cbb8a8a848181106108ba576108ba61157b565b90506020020160208101906108cf91906114e9565b8484815181106108e1576108e161157b565b60200260200101516040518363ffffffff1660e01b815260040161091a9291906001600160a01b03929092168252602082015260400190565b6020604051808303816000875af1158015610939573d6000803e3d6000fd5b505050506040513d601f19601f8201168201806040525081019061095d9190611591565b505b80610969816115c9565b91505061084e565b506040516370a0823160e01b81523060048201526000907f00000000000000000000000000000000000000000000000000000000000000006001600160a01b0316906370a0823190602401602060405180830381865afa1580156109d9573d6000803e3d6000fd5b505050506040513d601f19601f820116820180604052508101906109fd919061165d565b90508015610aba5760405163a9059cbb60e01b81526001600160a01b037f000000000000000000000000000000000000000000000000000000000000000081166004830152602482018390527f0000000000000000000000000000000000000000000000000000000000000000169063a9059cbb906044016020604051808303816000875af1158015610a94573d6000803e3d6000fd5b505050506040513d601f19601f82011682018060405250810190610ab89190611591565b505b7fc841c91bdaa23c1c4bdb58cea14d01f2024cc9ef361c26151d0f82cf6216af3c82604051610ae99190611676565b60405180910390a15050505050610b006001600055565b50505050565b60068181548110610b1657600080fd5b6000918252602090912001546001600160a01b0316905081565b600060045460ff166003811115610b4957610b49611519565b14610b665760405162461bcd60e51b81526004016102f8906116ba565b610b6e6113b4565b600154336000908152600560205260409020541015610bc65760405162461bcd60e51b8152602060048201526014602482015273496e73756666696369656e742062616c616e636560601b60448201526064016102f8565b60015460038054600090610bdb908490611634565b90915550506001543360009081526005602052604081208054909190610c02908490611634565b9091555050336000908152600560205260408120549003610d3c57336000908152600760205260408120805460ff191690555b600654811015610d3a57336001600160a01b031660068281548110610c5c57610c5c61157b565b6000918252602090912001546001600160a01b031603610d285760068054610c8690600190611634565b81548110610c9657610c9661157b565b600091825260209091200154600680546001600160a01b039092169183908110610cc257610cc261157b565b9060005260206000200160006101000a8154816001600160a01b0302191690836001600160a01b031602179055506006805480610d0157610d016116e3565b600082815260209020810160001990810180546001600160a01b0319169055019055610d3a565b80610d32816115c9565b915050610c35565b505b60015460405163a9059cbb60e01b815233600482015260248101919091527f00000000000000000000000000000000000000000000000000000000000000006001600160a01b03169063a9059cbb906044016020604051808303816000875af1158015610dad573d6000803e3d6000fd5b505050506040513d601f19601f82011682018060405250810190610dd19190611591565b5060405133907fd900faab28619592e985fe698e5edf2e0819a9d670c3b2547afb60504aa115fb90600090a2610e076001600055565b565b610e116113b4565b600154336000908152600560205260409020541015610e695760405162461bcd60e51b8152602060048201526014602482015273496e73756666696369656e742062616c616e636560601b60448201526064016102f8565b6002544211610ead5760405162461bcd60e51b815260206004820152601060248201526f115cd8dc9bddc81b9bdd08195b99195960821b60448201526064016102f8565b60015460038054600090610ec2908490611634565b90915550506001543360009081526005602052604081208054909190610ee9908490611634565b909155505033600090815260056020526040812054900361102357336000908152600760205260408120805460ff191690555b60065481101561102157336001600160a01b031660068281548110610f4357610f4361157b565b6000918252602090912001546001600160a01b03160361100f5760068054610f6d90600190611634565b81548110610f7d57610f7d61157b565b600091825260209091200154600680546001600160a01b039092169183908110610fa957610fa961157b565b9060005260206000200160006101000a8154816001600160a01b0302191690836001600160a01b031602179055506006805480610fe857610fe86116e3565b600082815260209020810160001990810180546001600160a01b0319169055019055611021565b80611019816115c9565b915050610f1c565b505b60015460405163a9059cbb60e01b815233600482015260248101919091527f00000000000000000000000000000000000000000000000000000000000000006001600160a01b03169063a9059cbb906044016020604051808303816000875af1158015611094573d6000803e3d6000fd5b505050506040513d601f19601f820116820180604052508101906110b89190611591565b5060015460405190815233907f101bd6e12c3c6f11cbf1db27912774787706087c957936edf461ec69ce2945769060200160405180910390a2610e076001600055565b600060045460ff16600381111561111457611114611519565b146111315760405162461bcd60e51b81526004016102f8906116ba565b336001600160a01b037f000000000000000000000000000000000000000000000000000000000000000016146111795760405162461bcd60e51b81526004016102f890611557565b6004805460ff191660011790556040517f1a8ade30f60946b8fb7b4d1cf93dc594fa0e441eca24e1b9b88cfa375e3488b190600090a1565b600060045460ff1660038111156111ca576111ca611519565b146111e75760405162461bcd60e51b81526004016102f8906116ba565b6111ef6113b4565b3360009081526007602052604090205460ff166112a2576006546107d0116112475760405162461bcd60e51b815260206004820152600b60248201526a115cd8dc9bddc8199d5b1b60aa1b60448201526064016102f8565b6006805460018181019092557ff652222313e28459528d920b65115c16c04f3efc82aaedc97be59f3f377c0d3f0180546001600160a01b031916339081179091556000908152600760205260409020805460ff191690911790555b6001546040516323b872dd60e01b815233600482015230602482015260448101919091527f00000000000000000000000000000000000000000000000000000000000000006001600160a01b0316906323b872dd906064016020604051808303816000875af1158015611319573d6000803e3d6000fd5b505050506040513d601f19601f8201168201806040525081019061133d9190611591565b50600154600380546000906113539084906115e2565b9091555050600154336000908152600560205260408120805490919061137a9084906115e2565b909155505060405133907f36c3f1bdccade0360be44662425e3c1011ac51718d18e4e2712481f1c44e4a3c90600090a2610e076001600055565b6002600054036113d757604051633ee5aeb560e01b815260040160405180910390fd5b6002600055565b50805460008255906000526020600020908101906113fc91906113ff565b50565b5b808211156114145760008155600101611400565b5090565b60008083601f84011261142a57600080fd5b50813567ffffffffffffffff81111561144257600080fd5b6020830191508360208260051b850101111561145d57600080fd5b9250929050565b6000806000806040858703121561147a57600080fd5b843567ffffffffffffffff8082111561149257600080fd5b61149e88838901611418565b909650945060208701359150808211156114b757600080fd5b506114c487828801611418565b95989497509550505050565b6000602082840312156114e257600080fd5b5035919050565b6000602082840312156114fb57600080fd5b81356001600160a01b038116811461151257600080fd5b9392505050565b634e487b7160e01b600052602160045260246000fd5b602081016004831061155157634e487b7160e01b600052602160045260246000fd5b91905290565b6020808252600a90820152694e6f74206f7261636c6560b01b604082015260600190565b634e487b7160e01b600052603260045260246000fd5b6000602082840312156115a357600080fd5b8151801515811461151257600080fd5b634e487b7160e01b600052601160045260246000fd5b6000600182016115db576115db6115b3565b5060010190565b808201808211156115f5576115f56115b3565b92915050565b80820281158282048414176115f5576115f56115b3565b60008261162f57634e487b7160e01b600052601260045260246000fd5b500490565b818103818111156115f5576115f56115b3565b634e487b7160e01b600052604160045260246000fd5b60006020828403121561166f57600080fd5b5051919050565b6020808252825182820181905260009190848201906040850190845b818110156116ae57835183529284019291840191600101611692565b50909695505050505050565b6020808252600f908201526e22b9b1b937bb903737ba1037b832b760891b604082015260600190565b634e487b7160e01b600052603160045260246000fdfea264697066735822122055da1e12f174d805982b8c3fcd13623861b839ebb583b719f9721bff409379ba64736f6c63430008140033a2646970667358221220afb5f840335c5a9d5cac86b8622b7f05c6f926795fd34cd0f50fc21eaff3a33464736f6c63430008140033","linkReferences":{}},"methodIdentifiers":{"createEscrow(uint256,uint256,address,uint8,address,uint256)":"d903ce5e","escrows(uint256)":"012f52ee","getEscrows()":"6afcb6da"},"id":27}