{"abi":[{"type":"constructor","inputs":[{"name":"_paymentToken","type":"address","internalType":"address"},{"name":"_treasury","type":"address","internalType":"address"}],"stateMutability":"nonpayable"},{"type":"function","name":"addOracle","inputs":[{"name":"oracle","type":"address","internalType":"address"}],"outputs":[],"stateMutability":"nonpayable"},{"type":"function","name":"createEscrow","inputs":[{"name":"name","type":"string","internalType":"string"},{"name":"depositAmount","type":"uint256","internalType":"uint256"},{"name":"maxParticipants","type":"uint256","internalType":"uint256"},{"name":"endTime","type":"uint256","internalType":"uint256"},{"name":"oracle","type":"address","internalType":"address"}],"outputs":[{"name":"","type":"address","internalType":"address"}],"stateMutability":"nonpayable"},{"type":"function","name":"escrows","inputs":[{"name":"","type":"uint256","internalType":"uint256"}],"outputs":[{"name":"","type":"address","internalType":"contract Escrow"}],"stateMutability":"view"},{"type":"function","name":"getEscrows","inputs":[],"outputs":[{"name":"","type":"address[]","internalType":"contract Escrow[]"}],"stateMutability":"view"},{"type":"function","name":"oracles","inputs":[{"name":"","type":"address","internalType":"address"}],"outputs":[{"name":"","type":"bool","internalType":"bool"}],"stateMutability":"view"},{"type":"function","name":"owner","inputs":[],"outputs":[{"name":"","type":"address","internalType":"address"}],"stateMutability":"view"},{"type":"function","name":"paymentToken","inputs":[],"outputs":[{"name":"","type":"address","internalType":"address"}],"stateMutability":"view"},{"type":"function","name":"removeOracle","inputs":[{"name":"oracle","type":"address","internalType":"address"}],"outputs":[],"stateMutability":"nonpayable"},{"type":"function","name":"renounceOwnership","inputs":[],"outputs":[],"stateMutability":"nonpayable"},{"type":"function","name":"setPaymentToken","inputs":[{"name":"_newPaymentToken","type":"address","internalType":"address"}],"outputs":[],"stateMutability":"nonpayable"},{"type":"function","name":"transferOwnership","inputs":[{"name":"newOwner","type":"address","internalType":"address"}],"outputs":[],"stateMutability":"nonpayable"},{"type":"function","name":"treasury","inputs":[],"outputs":[{"name":"","type":"address","internalType":"address"}],"stateMutability":"view"},{"type":"event","name":"EscrowCreated","inputs":[{"name":"escrow","type":"address","indexed":true,"internalType":"address"},{"name":"host","type":"address","indexed":true,"internalType":"address"},{"name":"depositAmount","type":"uint256","indexed":false,"internalType":"uint256"}],"anonymous":false},{"type":"event","name":"OracleAdded","inputs":[{"name":"oracle","type":"address","indexed":true,"internalType":"address"}],"anonymous":false},{"type":"event","name":"OracleRemoved","inputs":[{"name":"oracle","type":"address","indexed":true,"internalType":"address"}],"anonymous":false},{"type":"event","name":"OwnershipTransferred","inputs":[{"name":"previousOwner","type":"address","indexed":true,"internalType":"address"},{"name":"newOwner","type":"address","indexed":true,"internalType":"address"}],"anonymous":false},{"type":"event","name":"PaymentTokenUpdated","inputs":[{"name":"oldToken","type":"address","indexed":true,"internalType":"address"},{"name":"newToken","type":"address","indexed":true,"internalType":"address"}],"anonymous":false},{"type":"error","name":"OwnableInvalidOwner","inputs":[{"name":"owner","type":"address","internalType":"address"}]},{"type":"error","name":"OwnableUnauthorizedAccount","inputs":[{"name":"account","type":"address","internalType":"address"}]}],"bytecode":{"object":"0x60a060405234801561001057600080fd5b506040516126e93803806126e983398101604081905261002f916100f0565b338061005557604051631e4fbdf760e01b81526000600482015260240160405180910390fd5b61005e81610084565b50600380546001600160a01b0319166001600160a01b0393841617905516608052610123565b600080546001600160a01b038381166001600160a01b0319831681178455604051919092169283917f8be0079c531659141344cd1fd0a4f28419497f9722a3daafe3b4186f6b6457e09190a35050565b80516001600160a01b03811681146100eb57600080fd5b919050565b6000806040838503121561010357600080fd5b61010c836100d4565b915061011a602084016100d4565b90509250929050565b6080516125a46101456000396000818161011601526104ff01526125a46000f3fe60806040523480156200001157600080fd5b5060043610620000c35760003560e01c80638da5cb5b116200007a5780638da5cb5b1462000174578063a0735bf41462000186578063addd5099146200019d578063df5dd1a514620001d4578063f2fde38b14620001eb578063fdc85fc4146200020257600080fd5b8063012f52ee14620000c85780633013ce2914620000fc57806361d027b314620001105780636a326ab114620001385780636afcb6da1462000151578063715018a6146200016a575b600080fd5b620000df620000d93660046200081b565b62000219565b6040516001600160a01b0390911681526020015b60405180910390f35b600354620000df906001600160a01b031681565b620000df7f000000000000000000000000000000000000000000000000000000000000000081565b6200014f6200014936600462000852565b62000244565b005b6200015b620002fc565b604051620000f3919062000877565b6200014f62000360565b6000546001600160a01b0316620000df565b620000df62000197366004620008dc565b62000378565b620001c3620001ae36600462000852565b60016020526000908152604090205460ff1681565b6040519015158152602001620000f3565b6200014f620001e536600462000852565b620005ec565b6200014f620001fc36600462000852565b620006a0565b6200014f6200021336600462000852565b620006e4565b600281815481106200022a57600080fd5b6000918252602090912001546001600160a01b0316905081565b6200024e6200078e565b6001600160a01b038116620002aa5760405162461bcd60e51b815260206004820152601d60248201527f496e76616c6964207061796d656e7420746f6b656e206164647265737300000060448201526064015b60405180910390fd5b600380546001600160a01b038381166001600160a01b0319831681179093556040519116919082907f5efdfedf5aef119c431263f0656093045dffdf44b3d8f1b0f158dc295c3a0f8e90600090a35050565b606060028054806020026020016040519081016040528092919081815260200182805480156200035657602002820191906000526020600020905b81546001600160a01b0316815260019091019060200180831162000337575b5050505050905090565b6200036a6200078e565b620003766000620007bd565b565b6000428311620003cb5760405162461bcd60e51b815260206004820152601a60248201527f456e642074696d65206d75737420626520696e206675747572650000000000006044820152606401620002a1565b600184116200041d5760405162461bcd60e51b815260206004820152601c60248201527f4e656564206174206c656173742032207061727469636970616e7473000000006044820152606401620002a1565b6001600160a01b03821660009081526001602052604090205460ff16620004805760405162461bcd60e51b81526020600482015260166024820152754e6f7420616e20617070726f766564206f7261636c6560501b6044820152606401620002a1565b60008511620004e05760405162461bcd60e51b815260206004820152602560248201527f4465706f73697420616d6f756e74206d75737420626520677265617465722074604482015264068616e20360dc1b6064820152608401620002a1565b600086868686600360009054906101000a90046001600160a01b0316877f00000000000000000000000000000000000000000000000000000000000000006040516200052c906200080d565b6200053e9796959493929190620009c7565b604051809103906000f0801580156200055b573d6000803e3d6000fd5b50600280546001810182556000919091527f405787fa12a823e0f2b7631cc41b3ba8828b3321ca811111fa75cd3aa3bb5ace0180546001600160a01b0319166001600160a01b03831690811790915560405188815291925033917f78da7430b15648a5954de6bf3f6dc65a9eb64c292537d89a2a9989fdd36799239060200160405180910390a39695505050505050565b620005f66200078e565b6001600160a01b03811660009081526001602052604090205460ff1615620006525760405162461bcd60e51b815260206004820152600e60248201526d416c7265616479206f7261636c6560901b6044820152606401620002a1565b6001600160a01b0381166000818152600160208190526040808320805460ff1916909217909155517e47706786c922d17b39285dc59d696bafea72c0b003d3841ae1202076f4c2e49190a250565b620006aa6200078e565b6001600160a01b038116620006d657604051631e4fbdf760e01b815260006004820152602401620002a1565b620006e181620007bd565b50565b620006ee6200078e565b6001600160a01b03811660009081526001602052604090205460ff16620007455760405162461bcd60e51b815260206004820152600a6024820152694e6f74206f7261636c6560b01b6044820152606401620002a1565b6001600160a01b038116600081815260016020526040808220805460ff19169055517f9c8e7d83025bef8a04c664b2f753f64b8814bdb7e27291d7e50935f18cc3c7129190a250565b6000546001600160a01b03163314620003765760405163118cdaa760e01b8152336004820152602401620002a1565b600080546001600160a01b038381166001600160a01b0319831681178455604051919092169283917f8be0079c531659141344cd1fd0a4f28419497f9722a3daafe3b4186f6b6457e09190a35050565b611b088062000a6783390190565b6000602082840312156200082e57600080fd5b5035919050565b80356001600160a01b03811681146200084d57600080fd5b919050565b6000602082840312156200086557600080fd5b620008708262000835565b9392505050565b6020808252825182820181905260009190848201906040850190845b81811015620008ba5783516001600160a01b03168352928401929184019160010162000893565b50909695505050505050565b634e487b7160e01b600052604160045260246000fd5b600080600080600060a08688031215620008f557600080fd5b853567ffffffffffffffff808211156200090e57600080fd5b818801915088601f8301126200092357600080fd5b813581811115620009385762000938620008c6565b604051601f8201601f19908116603f01168101908382118183101715620009635762000963620008c6565b816040528281528b60208487010111156200097d57600080fd5b826020860160208301376000602084830101528099505050505050602086013593506040860135925060608601359150620009bb6080870162000835565b90509295509295909350565b60e08152600088518060e084015260005b81811015620009f8576020818c01810151610100868401015201620009d8565b50610100600081838601015280601f19601f8401168501019250505087602083015286604083015285606083015262000a3c60808301866001600160a01b03169052565b6001600160a01b03841660a08301526001600160a01b03831660c08301529897505050505050505056fe60e06040523480156200001157600080fd5b5060405162001b0838038062001b0883398101604081905262000034916200016f565b600160005533806200006057604051631e4fbdf760e01b81526000600482015260240160405180910390fd5b6200006b81620000ea565b506040805160808101825288815260208101889052908101869052606081018590526004806200009c8a8262000328565b5060208201516001820155604082015160028201556060909101516003918201556001600160a01b0393841660805291831660a05290911660c052805460ff1916905550620003f492505050565b600180546001600160a01b038381166001600160a01b0319831681179093556040519116919082907f8be0079c531659141344cd1fd0a4f28419497f9722a3daafe3b4186f6b6457e090600090a35050565b634e487b7160e01b600052604160045260246000fd5b80516001600160a01b03811681146200016a57600080fd5b919050565b600080600080600080600060e0888a0312156200018b57600080fd5b87516001600160401b0380821115620001a357600080fd5b818a0191508a601f830112620001b857600080fd5b815181811115620001cd57620001cd6200013c565b604051601f8201601f19908116603f01168101908382118183101715620001f857620001f86200013c565b81604052828152602093508d848487010111156200021557600080fd5b600091505b828210156200023957848201840151818301850152908301906200021a565b6000848483010152809b50505050808a01519750505060408801519450606088015193506200026b6080890162000152565b92506200027b60a0890162000152565b91506200028b60c0890162000152565b905092959891949750929550565b600181811c90821680620002ae57607f821691505b602082108103620002cf57634e487b7160e01b600052602260045260246000fd5b50919050565b601f8211156200032357600081815260208120601f850160051c81016020861015620002fe5750805b601f850160051c820191505b818110156200031f578281556001016200030a565b5050505b505050565b81516001600160401b038111156200034457620003446200013c565b6200035c8162000355845462000299565b84620002d5565b602080601f8311600181146200039457600084156200037b5750858301515b600019600386901b1c1916600185901b1785556200031f565b600085815260208120601f198616915b82811015620003c557888601518255948401946001909101908401620003a4565b5085821015620003e45787850151600019600388901b60f8161c191681555b5050505050600190811b01905550565b60805160a05160c0516116896200047f600039600081816101cb015281816105370152610cd80152600081816101fa0152818161088d0152610e4001526000818161012a015281816103a5015281816104a501528181610566015281816106a701528181610b2e01528181610c4601528181610d0701528181610ff901526111c101526116896000f3fe608060405234801561001057600080fd5b50600436106101165760003560e01c80637dc0d1d0116100a2578063cabfaa1811610071578063cabfaa181461024f578063d0e30db014610257578063db2e21bc1461025f578063f2c16e6f14610267578063f2fde38b1461029a57600080fd5b80637dc0d1d0146101f55780638da5cb5b1461021c5780639496fd1c1461022d578063c19d93fb1461023557600080fd5b80634ea4f8e6116100e95780634ea4f8e61461018457806351cc0da714610197578063565974d3146101ae57806361d027b3146101c6578063715018a6146101ed57600080fd5b80632009dc651461011b5780633013ce291461012557806335c1d349146101695780633ccfd60b1461017c575b600080fd5b6101236102ad565b005b61014c7f000000000000000000000000000000000000000000000000000000000000000081565b6040516001600160a01b0390911681526020015b60405180910390f35b61014c61017736600461133c565b6105d8565b610123610602565b610123610192366004611355565b610882565b6101a060025481565b604051908152602001610160565b6101b6610d7d565b60405161016094939291906113ca565b61014c7f000000000000000000000000000000000000000000000000000000000000000081565b610123610e21565b61014c7f000000000000000000000000000000000000000000000000000000000000000081565b6001546001600160a01b031661014c565b610123610e35565b6003546102429060ff1681565b6040516101609190611443565b6009546101a0565b610123610f08565b61012361110e565b61028a61027536600461146b565b60086020526000908152604090205460ff1681565b6040519015158152602001610160565b6101236102a836600461146b565b611250565b6102b561128b565b60006003805460ff16908111156102ce576102ce61142d565b146102f45760405162461bcd60e51b81526004016102eb9061149b565b60405180910390fd5b6003805460ff1916811790556040517f6e3be9294e58d10b9c8053cfd5e09871b67e442fe394d6b0870d336b9df984a990600090a160005b6009548110156104805760006009828154811061034b5761034b6114c4565b60009182526020808320909101546001600160a01b0316808352600890915260409091205490915060ff161561046d5760055460405163a9059cbb60e01b81526001600160a01b03838116600483015260248201929092527f00000000000000000000000000000000000000000000000000000000000000009091169063a9059cbb906044016020604051808303816000875af11580156103f0573d6000803e3d6000fd5b505050506040513d601f19601f8201168201806040525081019061041491906114da565b506001600160a01b038116600081815260086020908152604091829020805460ff1916905560055491519182527f357ff40138a06ece2e77a160416673f406b2401bab0927942c4b31e96afeb248910160405180910390a25b508061047881611512565b91505061032c565b5061048d6009600061130a565b6040516370a0823160e01b81523060048201526000907f00000000000000000000000000000000000000000000000000000000000000006001600160a01b0316906370a0823190602401602060405180830381865afa1580156104f4573d6000803e3d6000fd5b505050506040513d601f19601f82011682018060405250810190610518919061152b565b905080156105d55760405163a9059cbb60e01b81526001600160a01b037f000000000000000000000000000000000000000000000000000000000000000081166004830152602482018390527f0000000000000000000000000000000000000000000000000000000000000000169063a9059cbb906044016020604051808303816000875af11580156105af573d6000803e3d6000fd5b505050506040513d601f19601f820116820180604052508101906105d391906114da565b505b50565b600981815481106105e857600080fd5b6000918252602090912001546001600160a01b0316905081565b60006003805460ff169081111561061b5761061b61142d565b146106385760405162461bcd60e51b81526004016102eb9061149b565b3360009081526008602052604090205460ff166106875760405162461bcd60e51b815260206004820152600d60248201526c139bdd0819195c1bdcda5d1959609a1b60448201526064016102eb565b60055460405163a9059cbb60e01b815233600482015260248101919091527f00000000000000000000000000000000000000000000000000000000000000006001600160a01b03169063a9059cbb906044016020604051808303816000875af11580156106f8573d6000803e3d6000fd5b505050506040513d601f19601f8201168201806040525081019061071c91906114da565b5060055460028054600090610732908490611544565b9091555050336000908152600860205260408120805460ff191690555b60095481101561085457336001600160a01b031660098281548110610776576107766114c4565b6000918252602090912001546001600160a01b03160361084257600980546107a090600190611544565b815481106107b0576107b06114c4565b600091825260209091200154600980546001600160a01b0390921691839081106107dc576107dc6114c4565b9060005260206000200160006101000a8154816001600160a01b0302191690836001600160a01b03160217905550600980548061081b5761081b61155d565b600082815260209020810160001990810180546001600160a01b0319169055019055610854565b8061084c81611512565b91505061074f565b5060405133907fd900faab28619592e985fe698e5edf2e0819a9d670c3b2547afb60504aa115fb90600090a2565b336001600160a01b037f000000000000000000000000000000000000000000000000000000000000000016146108e75760405162461bcd60e51b815260206004820152600a6024820152694e6f74206f7261636c6560b01b60448201526064016102eb565b60016003805460ff16908111156109005761090061142d565b146109465760405162461bcd60e51b8152602060048201526016602482015275457363726f77206e6f7420696e2070726f677265737360501b60448201526064016102eb565b60095481146109905760405162461bcd60e51b8152602060048201526016602482015275092dcecc2d8d2c840e0c2f2deeae8e640d8cadccee8d60531b60448201526064016102eb565b6000805b828110156109d4578383828181106109ae576109ae6114c4565b90506020020135826109c09190611573565b9150806109cc81611512565b915050610994565b508061271014610a265760405162461bcd60e51b815260206004820181905260248201527f546f74616c206d75737420626520313030303020626173697320706f696e747360448201526064016102eb565b60008267ffffffffffffffff811115610a4157610a41611586565b604051908082528060200260200182016040528015610a6a578160200160208202803683370190505b50905060005b83811015610ada57612710858583818110610a8d57610a8d6114c4565b90506020020135600254610aa1919061159c565b610aab91906115b3565b828281518110610abd57610abd6114c4565b602090810291909101015280610ad281611512565b915050610a70565b506003805460ff191660021790556040517fc841c91bdaa23c1c4bdb58cea14d01f2024cc9ef361c26151d0f82cf6216af3c90610b189083906115d5565b60405180910390a160005b8151811015610c2d577f00000000000000000000000000000000000000000000000000000000000000006001600160a01b031663a9059cbb60098381548110610b6e57610b6e6114c4565b9060005260206000200160009054906101000a90046001600160a01b0316848481518110610b9e57610b9e6114c4565b60200260200101516040518363ffffffff1660e01b8152600401610bd79291906001600160a01b03929092168252602082015260400190565b6020604051808303816000875af1158015610bf6573d6000803e3d6000fd5b505050506040513d601f19601f82011682018060405250810190610c1a91906114da565b5080610c2581611512565b915050610b23565b506040516370a0823160e01b81523060048201526000907f00000000000000000000000000000000000000000000000000000000000000006001600160a01b0316906370a0823190602401602060405180830381865afa158015610c95573d6000803e3d6000fd5b505050506040513d601f19601f82011682018060405250810190610cb9919061152b565b90508015610d765760405163a9059cbb60e01b81526001600160a01b037f000000000000000000000000000000000000000000000000000000000000000081166004830152602482018390527f0000000000000000000000000000000000000000000000000000000000000000169063a9059cbb906044016020604051808303816000875af1158015610d50573d6000803e3d6000fd5b505050506040513d601f19601f82011682018060405250810190610d7491906114da565b505b5050505050565b600480548190610d8c90611619565b80601f0160208091040260200160405190810160405280929190818152602001828054610db890611619565b8015610e055780601f10610dda57610100808354040283529160200191610e05565b820191906000526020600020905b815481529060010190602001808311610de857829003601f168201915b5050505050908060010154908060020154908060030154905084565b610e2961128b565b610e3360006112b8565b565b336001600160a01b037f00000000000000000000000000000000000000000000000000000000000000001614610e9a5760405162461bcd60e51b815260206004820152600a6024820152694e6f74206f7261636c6560b01b60448201526064016102eb565b60006003805460ff1690811115610eb357610eb361142d565b14610ed05760405162461bcd60e51b81526004016102eb9061149b565b6003805460ff191660011790556040517f1a8ade30f60946b8fb7b4d1cf93dc594fa0e441eca24e1b9b88cfa375e3488b190600090a1565b60006003805460ff1690811115610f2157610f2161142d565b14610f3e5760405162461bcd60e51b81526004016102eb9061149b565b3360009081526008602052604090205460ff1615610f925760405162461bcd60e51b8152602060048201526011602482015270105b1c9958591e4819195c1bdcda5d1959607a1b60448201526064016102eb565b60065460095410610fd35760405162461bcd60e51b815260206004820152600b60248201526a115cd8dc9bddc8199d5b1b60aa1b60448201526064016102eb565b6005546040516323b872dd60e01b815233600482015230602482015260448101919091527f00000000000000000000000000000000000000000000000000000000000000006001600160a01b0316906323b872dd906064016020604051808303816000875af115801561104a573d6000803e3d6000fd5b505050506040513d601f19601f8201168201806040525081019061106e91906114da565b5060055460028054600090611084908490611573565b90915550506009805460018181019092557f6e1540171b6c0c960b71a7020d9f60077f6af931a8bbf590da0223dacf75c7af0180546001600160a01b03191633908117909155600081815260086020526040808220805460ff1916909417909355915190917f36c3f1bdccade0360be44662425e3c1011ac51718d18e4e2712481f1c44e4a3c91a2565b3360009081526008602052604090205460ff1661115d5760405162461bcd60e51b815260206004820152600d60248201526c139bdd0819195c1bdcda5d1959609a1b60448201526064016102eb565b60075442116111a15760405162461bcd60e51b815260206004820152601060248201526f115cd8dc9bddc81b9bdd08195b99195960821b60448201526064016102eb565b60055460405163a9059cbb60e01b815233600482015260248101919091527f00000000000000000000000000000000000000000000000000000000000000006001600160a01b03169063a9059cbb906044016020604051808303816000875af1158015611212573d6000803e3d6000fd5b505050506040513d601f19601f8201168201806040525081019061123691906114da565b50336000908152600860205260409020805460ff19169055565b61125861128b565b6001600160a01b03811661128257604051631e4fbdf760e01b8152600060048201526024016102eb565b6105d5816112b8565b6001546001600160a01b03163314610e335760405163118cdaa760e01b81523360048201526024016102eb565b600180546001600160a01b038381166001600160a01b0319831681179093556040519116919082907f8be0079c531659141344cd1fd0a4f28419497f9722a3daafe3b4186f6b6457e090600090a35050565b50805460008255906000526020600020908101906105d591905b808211156113385760008155600101611324565b5090565b60006020828403121561134e57600080fd5b5035919050565b6000806020838503121561136857600080fd5b823567ffffffffffffffff8082111561138057600080fd5b818501915085601f83011261139457600080fd5b8135818111156113a357600080fd5b8660208260051b85010111156113b857600080fd5b60209290920196919550909350505050565b608081526000855180608084015260005b818110156113f857602081890181015160a08684010152016113db565b50600060a0828501015260a0601f19601f83011684010191505084602083015283604083015282606083015295945050505050565b634e487b7160e01b600052602160045260246000fd5b602081016004831061146557634e487b7160e01b600052602160045260246000fd5b91905290565b60006020828403121561147d57600080fd5b81356001600160a01b038116811461149457600080fd5b9392505050565b6020808252600f908201526e22b9b1b937bb903737ba1037b832b760891b604082015260600190565b634e487b7160e01b600052603260045260246000fd5b6000602082840312156114ec57600080fd5b8151801515811461149457600080fd5b634e487b7160e01b600052601160045260246000fd5b600060018201611524576115246114fc565b5060010190565b60006020828403121561153d57600080fd5b5051919050565b81810381811115611557576115576114fc565b92915050565b634e487b7160e01b600052603160045260246000fd5b80820180821115611557576115576114fc565b634e487b7160e01b600052604160045260246000fd5b8082028115828204841417611557576115576114fc565b6000826115d057634e487b7160e01b600052601260045260246000fd5b500490565b6020808252825182820181905260009190848201906040850190845b8181101561160d578351835292840192918401916001016115f1565b50909695505050505050565b600181811c9082168061162d57607f821691505b60208210810361164d57634e487b7160e01b600052602260045260246000fd5b5091905056fea2646970667358221220bef6a3eca4602f957b252c38bf345c36975234b5d8008285767f16d68a3a6d0264736f6c63430008140033a2646970667358221220fe2e57ac86552433ff4a6ea8b134e2f6f3163a1b75ceea9d83ae789128d35b3a64736f6c63430008140033","linkReferences":{}},"methodIdentifiers":{"addOracle(address)":"df5dd1a5","createEscrow(string,uint256,uint256,uint256,address)":"a0735bf4","escrows(uint256)":"012f52ee","getEscrows()":"6afcb6da","oracles(address)":"addd5099","owner()":"8da5cb5b","paymentToken()":"3013ce29","removeOracle(address)":"fdc85fc4","renounceOwnership()":"715018a6","setPaymentToken(address)":"6a326ab1","transferOwnership(address)":"f2fde38b","treasury()":"61d027b3"},"id":24}