{"abi":[{"type":"constructor","inputs":[{"name":"_underlying","type":"address","internalType":"address"}],"stateMutability":"nonpayable"},{"type":"function","name":"_isSupplyPaused","inputs":[],"outputs":[{"name":"","type":"bool","internalType":"bool"}],"stateMutability":"view"},{"type":"function","name":"_isWithdrawPaused","inputs":[],"outputs":[{"name":"","type":"bool","internalType":"bool"}],"stateMutability":"view"},{"type":"function","name":"_supplyShouldFail","inputs":[],"outputs":[{"name":"","type":"bool","internalType":"bool"}],"stateMutability":"view"},{"type":"function","name":"addYield","inputs":[{"name":"to","type":"address","internalType":"address"},{"name":"amount","type":"uint256","internalType":"uint256"}],"outputs":[],"stateMutability":"nonpayable"},{"type":"function","name":"balanceOf","inputs":[{"name":"owner","type":"address","internalType":"address"}],"outputs":[{"name":"","type":"uint256","internalType":"uint256"}],"stateMutability":"view"},{"type":"function","name":"balances","inputs":[{"name":"","type":"address","internalType":"address"}],"outputs":[{"name":"","type":"uint256","internalType":"uint256"}],"stateMutability":"view"},{"type":"function","name":"getSupplyRate","inputs":[{"name":"utilization","type":"uint256","internalType":"uint256"}],"outputs":[{"name":"","type":"uint256","internalType":"uint256"}],"stateMutability":"view"},{"type":"function","name":"getUtilization","inputs":[],"outputs":[{"name":"","type":"uint256","internalType":"uint256"}],"stateMutability":"view"},{"type":"function","name":"isSupplyPaused","inputs":[],"outputs":[{"name":"","type":"bool","internalType":"bool"}],"stateMutability":"view"},{"type":"function","name":"isWithdrawPaused","inputs":[],"outputs":[{"name":"","type":"bool","internalType":"bool"}],"stateMutability":"view"},{"type":"function","name":"mockSupplyRate","inputs":[],"outputs":[{"name":"","type":"uint256","internalType":"uint256"}],"stateMutability":"view"},{"type":"function","name":"mockUtilization","inputs":[],"outputs":[{"name":"","type":"uint256","internalType":"uint256"}],"stateMutability":"view"},{"type":"function","name":"setMockSupplyRate","inputs":[{"name":"supplyRate","type":"uint256","internalType":"uint256"}],"outputs":[],"stateMutability":"nonpayable"},{"type":"function","name":"setMockUtilization","inputs":[{"name":"utilization","type":"uint256","internalType":"uint256"}],"outputs":[],"stateMutability":"nonpayable"},{"type":"function","name":"setSupplyPaused","inputs":[{"name":"paused","type":"bool","internalType":"bool"}],"outputs":[],"stateMutability":"nonpayable"},{"type":"function","name":"setSupplyShouldFail","inputs":[{"name":"shouldFail","type":"bool","internalType":"bool"}],"outputs":[],"stateMutability":"nonpayable"},{"type":"function","name":"setWithdrawPaused","inputs":[{"name":"paused","type":"bool","internalType":"bool"}],"outputs":[],"stateMutability":"nonpayable"},{"type":"function","name":"supply","inputs":[{"name":"asset","type":"address","internalType":"address"},{"name":"amount","type":"uint256","internalType":"uint256"}],"outputs":[],"stateMutability":"nonpayable"},{"type":"function","name":"totalSupply","inputs":[],"outputs":[{"name":"","type":"uint256","internalType":"uint256"}],"stateMutability":"view"},{"type":"function","name":"totalSupplyAmount","inputs":[],"outputs":[{"name":"","type":"uint256","internalType":"uint256"}],"stateMutability":"view"},{"type":"function","name":"underlying","inputs":[],"outputs":[{"name":"","type":"address","internalType":"contract IERC20"}],"stateMutability":"view"},{"type":"function","name":"withdraw","inputs":[{"name":"asset","type":"address","internalType":"address"},{"name":"amount","type":"uint256","internalType":"uint256"}],"outputs":[],"stateMutability":"nonpayable"},{"type":"event","name":"Supply","inputs":[{"name":"from","type":"address","indexed":true,"internalType":"address"},{"name":"dst","type":"address","indexed":true,"internalType":"address"},{"name":"amount","type":"uint256","indexed":false,"internalType":"uint256"}],"anonymous":false},{"type":"event","name":"Withdraw","inputs":[{"name":"from","type":"address","indexed":true,"internalType":"address"},{"name":"dst","type":"address","indexed":true,"internalType":"address"},{"name":"amount","type":"uint256","indexed":false,"internalType":"uint256"}],"anonymous":false}],"bytecode":{"object":"0x60a060405234801561001057600080fd5b50604051610aec380380610aec83398101604081905261002f91610056565b6001600160a01b0316608052670ca485ac5e618000600355650204cba4d99f600455610086565b60006020828403121561006857600080fd5b81516001600160a01b038116811461007f57600080fd5b9392505050565b608051610a286100c4600039600081816102260152818161036f0152818161046701528181610591015281816106cc015261083a0152610a286000f3fe608060405234801561001057600080fd5b50600436106101425760003560e01c806370a08231116100b8578063905cdbc11161007c578063905cdbc1146102ea578063d7b78717146102fd578063d955759d1461030f578063f2b9fdb814610324578063f3fef3a314610337578063f828f50b1461034a57600080fd5b806370a08231146102735780637eb711311461029c5780637ecb8bcf146102a457806381426326146102b75780638aaa54c0146102e157600080fd5b80632f73e89d1161010a5780632f73e89d146101b357806337d15139146101c657806364288cfe146101f057806367800b5f146102115780636f307dc314610221578063704ff35d1461026057600080fd5b8063094ee6cc146101475780630bc47ad114610169578063165bb40b1461017457806318160ddd1461018b57806327e235e314610193575b600080fd5b6002546101549060ff1681565b60405190151581526020015b60405180910390f35b60025460ff16610154565b61017d60045481565b604051908152602001610160565b60015461017d565b61017d6101a1366004610900565b60006020819052908152604090205481565b6002546101549062010000900460ff1681565b6101ee6101d4366004610933565b600280549115156101000261ff0019909216919091179055565b005b6101ee6101fe366004610933565b6002805460ff1916911515919091179055565b600254610100900460ff16610154565b6102487f000000000000000000000000000000000000000000000000000000000000000081565b6040516001600160a01b039091168152602001610160565b6101ee61026e366004610950565b600355565b61017d610281366004610900565b6001600160a01b031660009081526020819052604090205490565b60035461017d565b6101ee6102b2366004610969565b610353565b6101ee6102c5366004610933565b60028054911515620100000262ff000019909216919091179055565b61017d60035481565b6101ee6102f8366004610950565b600455565b60025461015490610100900460ff1681565b61017d61031d366004610950565b5060045490565b6101ee610332366004610969565b61041d565b6101ee610345366004610969565b610680565b61017d60015481565b6040516340c10f1960e01b8152306004820152602481018290527f00000000000000000000000000000000000000000000000000000000000000006001600160a01b0316906340c10f1990604401600060405180830381600087803b1580156103bb57600080fd5b505af11580156103cf573d6000803e3d6000fd5b505050506001600160a01b038216600090815260208190526040812080548392906103fb9084906109a9565b92505081905550806001600082825461041491906109a9565b90915550505050565b60025460ff16156104655760405162461bcd60e51b815260206004820152600d60248201526c14dd5c1c1b1e481c185d5cd959609a1b60448201526064015b60405180910390fd5b7f00000000000000000000000000000000000000000000000000000000000000006001600160a01b0316826001600160a01b0316146104d65760405162461bcd60e51b815260206004820152600d60248201526c125b9d985b1a5908185cdcd95d609a1b604482015260640161045c565b600081116105265760405162461bcd60e51b815260206004820152601d60248201527f416d6f756e74206d7573742062652067726561746572207468616e2030000000604482015260640161045c565b60025462010000900460ff161561056f5760405162461bcd60e51b815260206004820152600d60248201526c14dd5c1c1b1e4819985a5b1959609a1b604482015260640161045c565b6040516323b872dd60e01b8152336004820152306024820152604481018290527f00000000000000000000000000000000000000000000000000000000000000006001600160a01b0316906323b872dd906064016020604051808303816000875af11580156105e2573d6000803e3d6000fd5b505050506040513d601f19601f8201168201806040525081019061060691906109c2565b5033600090815260208190526040812080548392906106269084906109a9565b92505081905550806001600082825461063f91906109a9565b9091555050604051818152339081907fd1cf3d156d5f8f0d50f6c122ed609cec09d35c9b9fb3fff6ea0959134dae424e906020015b60405180910390a35050565b600254610100900460ff16156106ca5760405162461bcd60e51b815260206004820152600f60248201526e15da5d1a191c985dc81c185d5cd959608a1b604482015260640161045c565b7f00000000000000000000000000000000000000000000000000000000000000006001600160a01b0316826001600160a01b03161461073b5760405162461bcd60e51b815260206004820152600d60248201526c125b9d985b1a5908185cdcd95d609a1b604482015260640161045c565b6000811161078b5760405162461bcd60e51b815260206004820152601d60248201527f416d6f756e74206d7573742062652067726561746572207468616e2030000000604482015260640161045c565b336000908152602081905260409020548111156107e15760405162461bcd60e51b8152602060048201526014602482015273496e73756666696369656e742062616c616e636560601b604482015260640161045c565b33600090815260208190526040812080548392906108009084906109df565b92505081905550806001600082825461081991906109df565b909155505060405163a9059cbb60e01b8152336004820152602481018290527f00000000000000000000000000000000000000000000000000000000000000006001600160a01b03169063a9059cbb906044016020604051808303816000875af115801561088b573d6000803e3d6000fd5b505050506040513d601f19601f820116820180604052508101906108af91906109c2565b50604051818152339081907f9b1bfa7fa9ee420a16e124f794c35ac9f90472acc99140eb2f6447c714cad8eb90602001610674565b80356001600160a01b03811681146108fb57600080fd5b919050565b60006020828403121561091257600080fd5b61091b826108e4565b9392505050565b801515811461093057600080fd5b50565b60006020828403121561094557600080fd5b813561091b81610922565b60006020828403121561096257600080fd5b5035919050565b6000806040838503121561097c57600080fd5b610985836108e4565b946020939093013593505050565b634e487b7160e01b600052601160045260246000fd5b808201808211156109bc576109bc610993565b92915050565b6000602082840312156109d457600080fd5b815161091b81610922565b818103818111156109bc576109bc61099356fea2646970667358221220c79221103a9deae9858e25ba3a57919276381a18097a098865de8483626c27c464736f6c63430008140033","linkReferences":{}},"methodIdentifiers":{"_isSupplyPaused()":"094ee6cc","_isWithdrawPaused()":"d7b78717","_supplyShouldFail()":"2f73e89d","addYield(address,uint256)":"7ecb8bcf","balanceOf(address)":"70a08231","balances(address)":"27e235e3","getSupplyRate(uint256)":"d955759d","getUtilization()":"7eb71131","isSupplyPaused()":"0bc47ad1","isWithdrawPaused()":"67800b5f","mockSupplyRate()":"165bb40b","mockUtilization()":"8aaa54c0","setMockSupplyRate(uint256)":"905cdbc1","setMockUtilization(uint256)":"704ff35d","setSupplyPaused(bool)":"64288cfe","setSupplyShouldFail(bool)":"81426326","setWithdrawPaused(bool)":"37d15139","supply(address,uint256)":"f2b9fdb8","totalSupply()":"18160ddd","totalSupplyAmount()":"f828f50b","underlying()":"6f307dc3","withdraw(address,uint256)":"f3fef3a3"},"id":27}