{"abi":[{"type":"constructor","inputs":[{"name":"initialOwner","type":"address","internalType":"address"},{"name":"initialOracle","type":"address","internalType":"address"},{"name":"initialGroupId","type":"bytes32","internalType":"bytes32"}],"stateMutability":"nonpayable"},{"type":"function","name":"REFERRAL_ROOT","inputs":[],"outputs":[{"name":"","type":"address","internalType":"address"}],"stateMutability":"view"},{"type":"function","name":"authorizeOracle","inputs":[{"name":"oracle","type":"address","internalType":"address"},{"name":"groupId","type":"bytes32","internalType":"bytes32"}],"outputs":[],"stateMutability":"nonpayable"},{"type":"function","name":"batchRegister","inputs":[{"name":"users","type":"address[]","internalType":"address[]"},{"name":"referrer","type":"address","internalType":"address"},{"name":"groupId","type":"bytes32","internalType":"bytes32"}],"outputs":[],"stateMutability":"nonpayable"},{"type":"function","name":"getAncestors","inputs":[{"name":"user","type":"address","internalType":"address"},{"name":"groupId","type":"bytes32","internalType":"bytes32"},{"name":"maxLevels","type":"uint256","internalType":"uint256"}],"outputs":[{"name":"","type":"address[]","internalType":"address[]"}],"stateMutability":"view"},{"type":"function","name":"getAuthorizedOracles","inputs":[{"name":"groupId","type":"bytes32","internalType":"bytes32"}],"outputs":[{"name":"","type":"address[]","internalType":"address[]"}],"stateMutability":"view"},{"type":"function","name":"getChildren","inputs":[{"name":"referrer","type":"address","internalType":"address"},{"name":"groupId","type":"bytes32","internalType":"bytes32"}],"outputs":[{"name":"","type":"address[]","internalType":"address[]"}],"stateMutability":"view"},{"type":"function","name":"getReferrer","inputs":[{"name":"user","type":"address","internalType":"address"},{"name":"groupId","type":"bytes32","internalType":"bytes32"}],"outputs":[{"name":"","type":"address","internalType":"address"}],"stateMutability":"view"},{"type":"function","name":"isAuthorizedOracle","inputs":[{"name":"oracle","type":"address","internalType":"address"},{"name":"groupId","type":"bytes32","internalType":"bytes32"}],"outputs":[{"name":"","type":"bool","internalType":"bool"}],"stateMutability":"view"},{"type":"function","name":"isRegistered","inputs":[{"name":"user","type":"address","internalType":"address"},{"name":"groupId","type":"bytes32","internalType":"bytes32"}],"outputs":[{"name":"","type":"bool","internalType":"bool"}],"stateMutability":"view"},{"type":"function","name":"owner","inputs":[],"outputs":[{"name":"","type":"address","internalType":"address"}],"stateMutability":"view"},{"type":"function","name":"register","inputs":[{"name":"user","type":"address","internalType":"address"},{"name":"referrer","type":"address","internalType":"address"},{"name":"groupId","type":"bytes32","internalType":"bytes32"}],"outputs":[],"stateMutability":"nonpayable"},{"type":"function","name":"transferOwnership","inputs":[{"name":"newOwner","type":"address","internalType":"address"}],"outputs":[],"stateMutability":"nonpayable"},{"type":"function","name":"unauthorizeOracle","inputs":[{"name":"oracle","type":"address","internalType":"address"},{"name":"groupId","type":"bytes32","internalType":"bytes32"}],"outputs":[],"stateMutability":"nonpayable"},{"type":"event","name":"OracleAuthorized","inputs":[{"name":"groupId","type":"bytes32","indexed":true,"internalType":"bytes32"},{"name":"oracle","type":"address","indexed":true,"internalType":"address"}],"anonymous":false},{"type":"event","name":"OracleUnauthorized","inputs":[{"name":"groupId","type":"bytes32","indexed":true,"internalType":"bytes32"},{"name":"oracle","type":"address","indexed":true,"internalType":"address"}],"anonymous":false},{"type":"event","name":"OwnershipTransferred","inputs":[{"name":"user","type":"address","indexed":true,"internalType":"address"},{"name":"newOwner","type":"address","indexed":true,"internalType":"address"}],"anonymous":false},{"type":"event","name":"UserRegistered","inputs":[{"name":"user","type":"address","indexed":true,"internalType":"address"},{"name":"referrer","type":"address","indexed":true,"internalType":"address"}],"anonymous":false},{"type":"error","name":"InvalidOracleAddress","inputs":[]},{"type":"error","name":"InvalidReferrerAddress","inputs":[]},{"type":"error","name":"InvalidUserAddress","inputs":[]},{"type":"error","name":"ReferrerNotInTree","inputs":[]},{"type":"error","name":"SelfReferralNotAllowed","inputs":[]},{"type":"error","name":"UnauthorizedOracle","inputs":[]},{"type":"error","name":"UserAlreadyRegistered","inputs":[]}],"bytecode":{"object":"0x60803461017457601f610d2c38819003918201601f19168301916001600160401b03831184841017610160578084926060946040528339810103126101745761004781610178565b604061005560208401610178565b9201515f80546001600160a01b0319166001600160a01b039093169283178155604051939192907f8be0079c531659141344cd1fd0a4f28419497f9722a3daafe3b4186f6b6457e08180a36001600160a01b031690816100bc575b610b9f838161018d8239f35b805f52600360205260405f20825f5260205260405f20600160ff19825416179055805f52600460205260405f2080549068010000000000000000821015610160576001820180825582101561014c575f5260205f20018260018060a01b03198254161790557faaab643bb0d796c67da7e0319d085f8d96313e1c6c5b11d983920a976032f1845f80a35f806100b0565b634e487b7160e01b5f52603260045260245ffd5b634e487b7160e01b5f52604160045260245ffd5b5f80fd5b51906001600160a01b03821682036101745756fe6080806040526004361015610012575f80fd5b5f3560e01c908163389835a61461069f57508063622be01c146105e1578063662d8bbb1461059857806366695b1e1461051157806369b15fce146104ab57806377ccfd4b146104615780638da5cb5b1461043a578063ba5947511461041f578063d65ad694146103d3578063e96dc26a14610397578063ee65ac40146102ca578063f2fde38b146102555763f4841e52146100ab575f80fd5b34610251576040366003190112610251576100c461075f565b602435906100dc60018060a01b035f5416331461093f565b815f52600360205260405f2060018060a01b0382165f5260205260ff60405f20541661010457005b5f8281526003602090815260408083206001600160a01b03909416808452938252808320805460ff19169055848352600490915281209192905b8254808210156102485784610153838661097a565b905460039190911b1c6001600160a01b031614610173575060010161013e565b9192915f19810191908211610234576101ab6101926101cf938561097a565b905460039190911b1c6001600160a01b0316918461097a565b81546001600160a01b0393841660039290921b91821b9390911b1916919091179055565b80548015610220575f1901906101e5828261097a565b81549060018060a01b039060031b1b19169055555b7f922aa703ae9be9291f929809d75084b5cb5b3b882b3b1d6eaf2d4c35a2f916205f80a3005b634e487b7160e01b5f52603160045260245ffd5b634e487b7160e01b5f52601160045260245ffd5b505090506101fa565b5f80fd5b346102515760203660031901126102515761026e61075f565b5f5490610285336001600160a01b0384161461093f565b60018060a01b031680916bffffffffffffffffffffffff60a01b16175f55337f8be0079c531659141344cd1fd0a4f28419497f9722a3daafe3b4186f6b6457e05f80a3005b34610251576040366003190112610251576102e361075f565b6024356102fa60018060a01b035f5416331461093f565b6001600160a01b03821691821561038857815f52600360205260405f20835f5260205260ff60405f2054161561032c57005b61036290825f52600360205260405f20845f5260205260405f20600160ff19825416179055825f52600460205260405f2061098f565b7faaab643bb0d796c67da7e0319d085f8d96313e1c6c5b11d983920a976032f1845f80a3005b635521068160e01b5f5260045ffd5b34610251576060366003190112610251576103cf6103c36103b661075f565b604435906024359061081d565b60405191829182610707565b0390f35b34610251576040366003190112610251576103ec61075f565b6024355f9081526001602090815260408083206001600160a01b0394851684528252918290205491519190921615158152f35b34610251575f36600319011261025157602060405160018152f35b34610251575f366003190112610251575f546040516001600160a01b039091168152602090f35b346102515760403660031901126102515761047a61075f565b6024355f9081526001602090815260408083206001600160a01b039485168452825291829020549151919092168152f35b34610251576060366003190112610251576104c461075f565b6104cc610749565b60443590815f52600360205260405f2060018060a01b0333165f5260205260ff60405f2054161561050257610500926109b9565b005b63db8d1fb760e01b5f5260045ffd5b346102515760403660031901126102515761052a61075f565b6024355f52600260205260405f209060018060a01b03165f5260205260405f206040519081602082549182815201915f5260205f20905f5b818110610579576103cf856103c381870382610775565b82546001600160a01b0316845260209093019260019283019201610562565b34610251576040366003190112610251576105b161075f565b6024355f52600360205260405f209060018060a01b03165f52602052602060ff60405f2054166040519015158152f35b346102515760603660031901126102515760043567ffffffffffffffff8111610251573660238201121561025157806004013567ffffffffffffffff8111610251573660248260051b840101116102515761063a610749565b9160443590815f52600360205260405f2060018060a01b0333165f5260205260ff60405f20541615610502575f5b8381101561050057600581901b820160240135906001600160a01b03821682036102515761069984876001946109b9565b01610668565b34610251576020366003190112610251576004355f52600460205260405f20805480835260208301915f5260205f20905f5b8181106106e8576103cf856103c381870382610775565b82546001600160a01b03168452602090930192600192830192016106d1565b60206040818301928281528451809452019201905f5b81811061072a5750505090565b82516001600160a01b031684526020938401939092019160010161071d565b602435906001600160a01b038216820361025157565b600435906001600160a01b038216820361025157565b90601f8019910116810190811067ffffffffffffffff82111761079757604052565b634e487b7160e01b5f52604160045260245ffd5b67ffffffffffffffff81116107975760051b60200190565b906107cd826107ab565b6107da6040519182610775565b82815280926107eb601f19916107ab565b0190602036910137565b80518210156108095760209160051b010190565b634e487b7160e01b5f52603260045260245ffd5b6001600160a01b03169283158015610935575b6109195761083d836107c3565b905f94835f52600160205260405f20905f5260205260405f2060018060a01b039054165b6001600160a01b03168015158061090e575b80610905575b156108bd578061088987856107f5565b525f84815260016020908152604080832093835292905220546001600160a01b0316945f1981146102345760010194610861565b5092509290506108cc816107c3565b905f5b8181106108dd575090925050565b6001906001600160a01b036108f282886107f5565b51166108fe82866107f5565b52016108cf565b50848610610879565b506001811415610873565b9250505060405161092b602082610775565b5f81525f36813790565b5060018414610830565b1561094657565b60405162461bcd60e51b815260206004820152600c60248201526b15539055551213d49256915160a21b6044820152606490fd5b8054821015610809575f5260205f2001905f90565b908154916801000000000000000083101561079757826101ab9160016109b79501815561097a565b565b90916001600160a01b038216918215610adc576001600160a01b038416938415610acd57838514610abe575f8381526001602090815260408083208784529091529020546001600160a01b0316610aaf578260018614159182610a9d575b5050610a8e5781610a68925f52600160205260405f20845f5260205260405f20856bffffffffffffffffffffffff60a01b8254161790555f52600260205260405f20845f5260205260405f2061098f565b7f2138b9314634f9fdd5e49bee3eaf17ca557b6637524d0db759711c3bfcd3d8505f80a3565b63d0ceadb160e01b5f5260045ffd5b610aa79250610aeb565b15825f610a17565b634f2532fb60e11b5f5260045ffd5b6341a31fa560e11b5f5260045ffd5b630552cfb760e11b5f5260045ffd5b630702b3d960e41b5f5260045ffd5b6001600160a01b03811660011480610b61575b610b5a575f8281526001602090815260408083206001600160a01b038581168552925290912054161580159290610b3457505090565b9091505f52600260205260405f209060018060a01b03165f5260205260405f2054151590565b5050600190565b506001610afe56fea2646970667358221220db92fde9b17328701865b5fc7c9f424a84101042f097ac9346a5a4adf785ffc164736f6c634300081a0033","linkReferences":{}},"methodIdentifiers":{"REFERRAL_ROOT()":"ba594751","authorizeOracle(address,bytes32)":"ee65ac40","batchRegister(address[],address,bytes32)":"622be01c","getAncestors(address,bytes32,uint256)":"e96dc26a","getAuthorizedOracles(bytes32)":"389835a6","getChildren(address,bytes32)":"66695b1e","getReferrer(address,bytes32)":"77ccfd4b","isAuthorizedOracle(address,bytes32)":"662d8bbb","isRegistered(address,bytes32)":"d65ad694","owner()":"8da5cb5b","register(address,address,bytes32)":"69b15fce","transferOwnership(address)":"f2fde38b","unauthorizeOracle(address,bytes32)":"f4841e52"},"id":21}