{"abi":[{"type":"constructor","inputs":[{"name":"initialOwner","type":"address","internalType":"address"},{"name":"_referralGraph","type":"address","internalType":"address"},{"name":"initialOracle","type":"address","internalType":"address"},{"name":"initialGroupId","type":"bytes32","internalType":"bytes32"}],"stateMutability":"nonpayable"},{"type":"function","name":"REFERRAL_ROOT","inputs":[],"outputs":[{"name":"","type":"address","internalType":"address"}],"stateMutability":"view"},{"type":"function","name":"authorizeOracle","inputs":[{"name":"oracle","type":"address","internalType":"address"},{"name":"groupId","type":"bytes32","internalType":"bytes32"}],"outputs":[],"stateMutability":"nonpayable"},{"type":"function","name":"distributeChainRewards","inputs":[{"name":"reward","type":"tuple","internalType":"struct IRewardDistributor.ChainRewardData","components":[{"name":"user","type":"address","internalType":"address"},{"name":"totalAmount","type":"uint256","internalType":"uint256"},{"name":"rewardToken","type":"address","internalType":"address"},{"name":"groupId","type":"bytes32","internalType":"bytes32"},{"name":"eventId","type":"bytes32","internalType":"bytes32"}]},{"name":"signature","type":"bytes","internalType":"bytes"}],"outputs":[],"stateMutability":"nonpayable"},{"type":"function","name":"getAuthorizedOracles","inputs":[{"name":"groupId","type":"bytes32","internalType":"bytes32"}],"outputs":[{"name":"","type":"address[]","internalType":"address[]"}],"stateMutability":"view"},{"type":"function","name":"getReferralGraph","inputs":[],"outputs":[{"name":"","type":"address","internalType":"contract IReferralGraph"}],"stateMutability":"view"},{"type":"function","name":"isAuthorizedOracle","inputs":[{"name":"oracle","type":"address","internalType":"address"},{"name":"groupId","type":"bytes32","internalType":"bytes32"}],"outputs":[{"name":"","type":"bool","internalType":"bool"}],"stateMutability":"view"},{"type":"function","name":"isRewardDistributed","inputs":[{"name":"rewardHash","type":"bytes32","internalType":"bytes32"}],"outputs":[{"name":"","type":"bool","internalType":"bool"}],"stateMutability":"view"},{"type":"function","name":"owner","inputs":[],"outputs":[{"name":"","type":"address","internalType":"address"}],"stateMutability":"view"},{"type":"function","name":"referralGraph","inputs":[],"outputs":[{"name":"","type":"address","internalType":"contract IReferralGraph"}],"stateMutability":"view"},{"type":"function","name":"rewardCalculator","inputs":[],"outputs":[{"name":"","type":"address","internalType":"contract RewardCalculator"}],"stateMutability":"view"},{"type":"function","name":"transferOwnership","inputs":[{"name":"newOwner","type":"address","internalType":"address"}],"outputs":[],"stateMutability":"nonpayable"},{"type":"function","name":"unauthorizeOracle","inputs":[{"name":"oracle","type":"address","internalType":"address"},{"name":"groupId","type":"bytes32","internalType":"bytes32"}],"outputs":[],"stateMutability":"nonpayable"},{"type":"event","name":"ChainRewardsDistributed","inputs":[{"name":"user","type":"address","indexed":true,"internalType":"address"},{"name":"totalAmount","type":"uint256","indexed":false,"internalType":"uint256"},{"name":"eventId","type":"bytes32","indexed":true,"internalType":"bytes32"},{"name":"recipients","type":"address[]","indexed":false,"internalType":"address[]"},{"name":"amounts","type":"uint256[]","indexed":false,"internalType":"uint256[]"}],"anonymous":false},{"type":"event","name":"OracleAuthorized","inputs":[{"name":"groupId","type":"bytes32","indexed":true,"internalType":"bytes32"},{"name":"oracle","type":"address","indexed":true,"internalType":"address"}],"anonymous":false},{"type":"event","name":"OracleUnauthorized","inputs":[{"name":"groupId","type":"bytes32","indexed":true,"internalType":"bytes32"},{"name":"oracle","type":"address","indexed":true,"internalType":"address"}],"anonymous":false},{"type":"event","name":"OwnershipTransferred","inputs":[{"name":"user","type":"address","indexed":true,"internalType":"address"},{"name":"newOwner","type":"address","indexed":true,"internalType":"address"}],"anonymous":false},{"type":"error","name":"InvalidOracleAddress","inputs":[]},{"type":"error","name":"InvalidOracleSignature","inputs":[]},{"type":"error","name":"InvalidParameters","inputs":[]},{"type":"error","name":"InvalidSignature","inputs":[]},{"type":"error","name":"RewardAlreadyDistributed","inputs":[]},{"type":"error","name":"UnauthorizedApp","inputs":[]},{"type":"error","name":"ZeroRewardAmount","inputs":[]}],"bytecode":{"object":"0x60c0346101c857601f61135f38819003918201601f19168301916001600160401b038311848410176101a9578084926080946040528339810103126101c857610047816101cc565b90610054602082016101cc565b6060610062604084016101cc565b9201515f80546001600160a01b0319166001600160a01b0390951694851781556040519194919291907f8be0079c531659141344cd1fd0a4f28419497f9722a3daafe3b4186f6b6457e08180a3600180556001600160a01b03166080526103868181016001600160401b038111838210176101a9578291610fd9833903905ff080156101bd5760a0526001600160a01b0316908161012a575b604051610df890816101e182396080518181816107630152610c45015260a0518181816103ef01526107d60152f35b805f52600260205260405f20825f5260205260405f20600160ff198254161790555f52600360205260405f20805490680100000000000000008210156101a95760018201808255821015610195575f5260205f20019060018060a01b03198254161790555f806100fb565b634e487b7160e01b5f52603260045260245ffd5b634e487b7160e01b5f52604160045260245ffd5b6040513d5f823e3d90fd5b5f80fd5b51906001600160a01b03821682036101c85756fe6080806040526004361015610012575f80fd5b5f3560e01c9081630a25170f14610542575080631b8dda19146103d5578063220e89c914610513578063389835a61461048e578063662d8bbb146104455780638da5cb5b1461041e57806396769e89146103da578063a69dbf03146103d5578063ba594751146103ba578063ee65ac40146102ba578063f2fde38b1461024a5763f4841e52146100a0575f80fd5b34610246576040366003190112610246576100b9610cb0565b602435906100d160018060a01b035f54163314610d28565b815f52600260205260405f2060018060a01b0382165f5260205260ff60405f2054166100f957005b5f8281526002602090815260408083206001600160a01b03909416808452938252808320805460ff19169055848352600390915281209192905b82548082101561023d57846101488386610d63565b905460039190911b1c6001600160a01b0316146101685750600101610133565b9192915f19810191908211610229576101a06101876101c49385610d63565b905460039190911b1c6001600160a01b03169184610d63565b81546001600160a01b0393841660039290921b91821b9390911b1916919091179055565b80548015610215575f1901906101da8282610d63565b81549060018060a01b039060031b1b19169055555b7f922aa703ae9be9291f929809d75084b5cb5b3b882b3b1d6eaf2d4c35a2f916205f80a3005b634e487b7160e01b5f52603160045260245ffd5b634e487b7160e01b5f52601160045260245ffd5b505090506101ef565b5f80fd5b3461024657602036600319011261024657610263610cb0565b5f549061027a336001600160a01b03841614610d28565b60018060a01b031680916001600160601b0360a01b16175f55337f8be0079c531659141344cd1fd0a4f28419497f9722a3daafe3b4186f6b6457e05f80a3005b34610246576040366003190112610246576102d3610cb0565b6024356102ea60018060a01b035f54163314610d28565b6001600160a01b0382169182156103ab57815f52600260205260405f20835f5260205260ff60405f2054161561031c57005b815f52600260205260405f20835f5260205260405f20600160ff19825416179055815f52600360205260405f20908154916801000000000000000083101561039757826101a091600161037195018155610d63565b7faaab643bb0d796c67da7e0319d085f8d96313e1c6c5b11d983920a976032f1845f80a3005b634e487b7160e01b5f52604160045260245ffd5b635521068160e01b5f5260045ffd5b34610246575f36600319011261024657602060405160018152f35b610c30565b34610246575f366003190112610246576040517f00000000000000000000000000000000000000000000000000000000000000006001600160a01b03168152602090f35b34610246575f366003190112610246575f546040516001600160a01b039091168152602090f35b346102465760403660031901126102465761045e610cb0565b6024355f52600260205260405f209060018060a01b03165f52602052602060ff60405f2054166040519015158152f35b34610246576020366003190112610246576004355f52600360205260405f206040519081602082549182815201915f5260205f20905f5b8181106104f4576104f0856104dc81870382610cf2565b604051918291602083526020830190610c74565b0390f35b82546001600160a01b03168452602090930192600192830192016104c5565b34610246576020366003190112610246576004355f526004602052602060ff60405f2054166040519015158152f35b3461024657366003190160c081126102465760a0136102465760a4359067ffffffffffffffff821161024657366023830112156102465781600401359067ffffffffffffffff8211610246573660248385010111610246576001805403610c01575060026001556024358015610bf2576105ba610cc6565b926105c3610cdc565b9260643594608435946040519060208201926001600160601b03199060601b1683528560348301526001600160601b03199060601b1660548201528660688201528560888201526088815261061960a882610cf2565b51902091825f52600460205260ff60405f205416610be357604160405160208101907f19457468657265756d205369676e6564204d6573736167653a0a333200000000825285603c820152603c8152610673605c82610cf2565b5190209203610ba95760648101355f1a601b8110610bc3575b60ff1690601b82141580610bb8575b610ba95760209260446080925f9460405193845286840152602481013560408401520135606082015282805260015afa15610a89575f516001600160a01b03811615610ba957845f52600260205260405f209060018060a01b03165f5260205260ff60405f20541615610b9a575f52600460205260405f20600160ff19825416179055610726610cc6565b610180604051946107378287610cf2565b600b86526020860191601f19013683378291600193875115610b86576001600160a01b039081169091527f000000000000000000000000000000000000000000000000000000000000000016915b600b8410610ac5575b50505061079a81610d90565b935f5b828110610a9d57505050825191600a8311610a94575b604051632454438360e11b81526004810183905260248101849052915f836044817f00000000000000000000000000000000000000000000000000000000000000006001600160a01b03165afa928315610a89575f936109f6575b5061081884610d90565b9361082281610d78565b936108306040519586610cf2565b81855261083c82610d78565b602086019790601f19013689375f5b8381106109b857505050505f5b84518110156109265761086b8185610d14565b51610879575b600101610858565b6001600160a01b03610889610cdc565b1660205f60446001600160a01b036108a1868b610d14565b51166108ad868a610d14565b516040519163a9059cbb60e01b83526004830152602482015282855af19081601f3d1160015f5114161516610919575b506108715760405162461bcd60e51b815260206004820152600f60248201526e1514905394d1915497d19052531151608a1b6044820152606490fd5b3b153d17159050876108dd565b509093909160206109586001600160a01b03610940610cc6565b16956040519586526060838701526060860190610c74565b91848303604086015251918281520191905f5b8181106109a25750505090807f565bac9b966879663b6cee54f6645ca6ec41c8849b130a1a4f4188a43c847d33920390a360018055005b825184526020938401939092019160010161096b565b6001906001600160a01b036109cd8285610d14565b51166109d9828b610d14565b526109e48185610d14565b516109ef828a610d14565b520161084b565b9092503d805f833e610a088183610cf2565b8101906020818303126102465780519067ffffffffffffffff821161024657019080601f83011215610246578151610a3f81610d78565b92610a4d6040519485610cf2565b81845260208085019260051b82010192831161024657602001905b828210610a7957505050918561080e565b8151815260209182019101610a68565b6040513d5f823e3d90fd5b600a92506107b3565b6001906001600160a01b03610ab28285610d14565b5116610abe8289610d14565b520161079d565b6040516377ccfd4b60e01b81526001600160a01b03909116600482015260248101829052602081604481865afa908115610a89575f91610b45575b506001600160a01b03811680158015610b3b575b610b3557845f198114610229576001610b2f91019589610d14565b52610785565b5061078e565b5060018114610b14565b90506020813d8211610b7e575b81610b5f60209383610cf2565b8101031261024657516001600160a01b03811681036102465787610b00565b3d9150610b52565b634e487b7160e01b5f52603260045260245ffd5b632f58c7cd60e01b5f5260045ffd5b638baa579f60e01b5f5260045ffd5b50601c82141561069b565b601b0160ff81111561068c57634e487b7160e01b5f52601160045260245ffd5b634506832760e11b5f5260045ffd5b63ea1083a760e01b5f5260045ffd5b62461bcd60e51b815260206004820152600a6024820152695245454e5452414e435960b01b6044820152606490fd5b34610246575f366003190112610246576040517f00000000000000000000000000000000000000000000000000000000000000006001600160a01b03168152602090f35b90602080835192838152019201905f5b818110610c915750505090565b82516001600160a01b0316845260209384019390920191600101610c84565b600435906001600160a01b038216820361024657565b6004356001600160a01b03811681036102465790565b6044356001600160a01b03811681036102465790565b90601f8019910116810190811067ffffffffffffffff82111761039757604052565b8051821015610b865760209160051b010190565b15610d2f57565b60405162461bcd60e51b815260206004820152600c60248201526b15539055551213d49256915160a21b6044820152606490fd5b8054821015610b86575f5260205f2001905f90565b67ffffffffffffffff81116103975760051b60200190565b90610d9a82610d78565b610da76040519182610cf2565b8281528092610db8601f1991610d78565b019060203691013756fea264697066735822122086f6f356d100b27b76cf008a189a7ede18af84ae7680b859b84c964e1d30cbcd64736f6c634300081a00336080806040523460155761036c908161001a8239f35b5f80fdfe60806040526004361015610011575f80fd5b5f3560e01c6348a8870614610024575f80fd5b3461008757604036600319011261008757610043602435600435610133565b6040518091602082016020835281518091526020604084019201905f5b81811061006e575050500390f35b8251845285945060209384019390920191600101610060565b5f80fd5b6040519190601f01601f1916820167ffffffffffffffff8111838210176100b157604052565b634e487b7160e01b5f52604160045260245ffd5b67ffffffffffffffff81116100b15760051b60200190565b8051156100ea5760200190565b634e487b7160e01b5f52603260045260245ffd5b80518210156100ea5760209160051b010190565b9190820180921161011f57565b634e487b7160e01b5f52601160045260245ffd5b919091821561031f57600a8311610316575b60405190610140820182811067ffffffffffffffff8211176100b15760405261271082526117706020830152610e1060408301526108706060830152610510608083015261030960a08301526101d260c083015261011760e083015260a7610100830152606461012083015260405193610160850185811067ffffffffffffffff8211176100b1576040525f85526127106020860152613e806040860152614c9060608601526155006080860152615a1060a0860152615d1960c0860152615eeb60e08601526160026101008601526160a961012086015261610d610140860152610237610232826100c5565b61008b565b81815292601f19610247836100c5565b013660208601378395600b8310156100ea578260051b01515f8115905b8481106102c657505050505f905f905b8082106102a5575050810390811161011f5761029c6102a291610296846100dd565b51610112565b916100dd565b52565b90916102be6001916102b785886100fe565b5190610112565b920190610274565b600a8110156100ea578060051b8401519081870291878304148715171561011f57826103025783600192046102fb828a6100fe565b5201610264565b634e487b7160e01b5f52601260045260245ffd5b600a9250610145565b50905061032c602061008b565b5f81525f3681379056fea2646970667358221220703fee80fac2fa379415e956485edd235c024b904ef9389b15f2c3e1a448cdb264736f6c634300081a0033","linkReferences":{}},"methodIdentifiers":{"REFERRAL_ROOT()":"ba594751","authorizeOracle(address,bytes32)":"ee65ac40","distributeChainRewards((address,uint256,address,bytes32,bytes32),bytes)":"0a25170f","getAuthorizedOracles(bytes32)":"389835a6","getReferralGraph()":"1b8dda19","isAuthorizedOracle(address,bytes32)":"662d8bbb","isRewardDistributed(bytes32)":"220e89c9","owner()":"8da5cb5b","referralGraph()":"a69dbf03","rewardCalculator()":"96769e89","transferOwnership(address)":"f2fde38b","unauthorizeOracle(address,bytes32)":"f4841e52"},"id":23}