{"abi":[{"type":"constructor","inputs":[{"name":"initialOwner","type":"address","internalType":"address"},{"name":"_referralGraph","type":"address","internalType":"address"},{"name":"initialOracle","type":"address","internalType":"address"}],"stateMutability":"nonpayable"},{"type":"function","name":"REFERRAL_ROOT","inputs":[],"outputs":[{"name":"","type":"address","internalType":"address"}],"stateMutability":"view"},{"type":"function","name":"authorizeOracle","inputs":[{"name":"oracle","type":"address","internalType":"address"}],"outputs":[],"stateMutability":"nonpayable"},{"type":"function","name":"distributeChainRewards","inputs":[{"name":"reward","type":"tuple","internalType":"struct IRewardDistributor.ChainRewardData","components":[{"name":"user","type":"address","internalType":"address"},{"name":"totalAmount","type":"uint256","internalType":"uint256"},{"name":"rewardToken","type":"address","internalType":"address"},{"name":"groupId","type":"bytes32","internalType":"bytes32"},{"name":"eventId","type":"bytes32","internalType":"bytes32"},{"name":"timestamp","type":"uint256","internalType":"uint256"},{"name":"nonce","type":"uint256","internalType":"uint256"}]},{"name":"signature","type":"bytes","internalType":"bytes"}],"outputs":[],"stateMutability":"nonpayable"},{"type":"function","name":"getAuthorizedOracles","inputs":[],"outputs":[{"name":"","type":"address[]","internalType":"address[]"}],"stateMutability":"view"},{"type":"function","name":"getReferralGraph","inputs":[],"outputs":[{"name":"","type":"address","internalType":"contract IReferralGraph"}],"stateMutability":"view"},{"type":"function","name":"isAuthorizedOracle","inputs":[{"name":"oracle","type":"address","internalType":"address"}],"outputs":[{"name":"","type":"bool","internalType":"bool"}],"stateMutability":"view"},{"type":"function","name":"isRewardDistributed","inputs":[{"name":"rewardHash","type":"bytes32","internalType":"bytes32"}],"outputs":[{"name":"","type":"bool","internalType":"bool"}],"stateMutability":"view"},{"type":"function","name":"owner","inputs":[],"outputs":[{"name":"","type":"address","internalType":"address"}],"stateMutability":"view"},{"type":"function","name":"referralGraph","inputs":[],"outputs":[{"name":"","type":"address","internalType":"contract IReferralGraph"}],"stateMutability":"view"},{"type":"function","name":"rewardCalculator","inputs":[],"outputs":[{"name":"","type":"address","internalType":"contract RewardCalculator"}],"stateMutability":"view"},{"type":"function","name":"transferOwnership","inputs":[{"name":"newOwner","type":"address","internalType":"address"}],"outputs":[],"stateMutability":"nonpayable"},{"type":"function","name":"unauthorizeOracle","inputs":[{"name":"oracle","type":"address","internalType":"address"}],"outputs":[],"stateMutability":"nonpayable"},{"type":"event","name":"ChainRewardsDistributed","inputs":[{"name":"user","type":"address","indexed":true,"internalType":"address"},{"name":"totalAmount","type":"uint256","indexed":false,"internalType":"uint256"},{"name":"eventId","type":"bytes32","indexed":true,"internalType":"bytes32"},{"name":"recipients","type":"address[]","indexed":false,"internalType":"address[]"},{"name":"amounts","type":"uint256[]","indexed":false,"internalType":"uint256[]"}],"anonymous":false},{"type":"event","name":"OracleAuthorized","inputs":[{"name":"oracle","type":"address","indexed":true,"internalType":"address"}],"anonymous":false},{"type":"event","name":"OracleUnauthorized","inputs":[{"name":"oracle","type":"address","indexed":true,"internalType":"address"}],"anonymous":false},{"type":"event","name":"OwnershipTransferred","inputs":[{"name":"user","type":"address","indexed":true,"internalType":"address"},{"name":"newOwner","type":"address","indexed":true,"internalType":"address"}],"anonymous":false},{"type":"error","name":"ECDSAInvalidSignature","inputs":[]},{"type":"error","name":"ECDSAInvalidSignatureLength","inputs":[{"name":"length","type":"uint256","internalType":"uint256"}]},{"type":"error","name":"ECDSAInvalidSignatureS","inputs":[{"name":"s","type":"bytes32","internalType":"bytes32"}]},{"type":"error","name":"InvalidOracleAddress","inputs":[]},{"type":"error","name":"InvalidOracleSignature","inputs":[]},{"type":"error","name":"InvalidParameters","inputs":[]},{"type":"error","name":"RewardAlreadyDistributed","inputs":[]},{"type":"error","name":"UnauthorizedApp","inputs":[]},{"type":"error","name":"ZeroRewardAmount","inputs":[]}],"bytecode":{"object":"0x60c0346101d357601f6113c838819003918201601f19168301916001600160401b038311848410176101b4578084926060946040528339810103126101d357610047816101d7565b906100606040610059602084016101d7565b92016101d7565b5f80546001600160a01b0319166001600160a01b0390941693841781556040519193919291907f8be0079c531659141344cd1fd0a4f28419497f9722a3daafe3b4186f6b6457e08180a3600180556001600160a01b03166080526103868181016001600160401b038111838210176101b4578291611042833903905ff080156101c85760a0526001600160a01b031680610124575b604051610e5690816101ec82396080518181816102800152610b86015260a0518181816102f301526108180152f35b805f52600260205260405f20600160ff19825416179055600354680100000000000000008110156101b45760018101806003558110156101a05760035f9081527fc2575a0e9e593c00f959f8c92f12db2869c3395a3b0502d05e2516446f71f85b9190910180546001600160a01b0319169092179091556100f5565b634e487b7160e01b5f52603260045260245ffd5b634e487b7160e01b5f52604160045260245ffd5b6040513d5f823e3d90fd5b5f80fd5b51906001600160a01b03821682036101d35756fe60806040526004361015610011575f80fd5b5f3560e01c80630f13b76314610a925780631b8dda19146107fe578063220e89c914610a635780636e138c84146109ce57806376bba3be1461086e5780638da5cb5b1461084757806396769e8914610803578063a69dbf03146107fe578063ba594751146107e3578063bfe609da146107a2578063f2fde38b1461072e5763f6b35c221461009d575f80fd5b346105a657366003190161010081126105a65760e0136105a65760e43567ffffffffffffffff81116105a657366023820112156105a65780600401359067ffffffffffffffff82116105a65736602483830101116105a65760018054036106fc57600260015560243580156106ed57610114610c66565b9261011d610c7c565b9260643594608435946040519060208201926001600160601b03199060601b1683528560348301526001600160601b03199060601b16605482015286606882015285608882015260a43560a882015260c43560c882015260c8815261018360e882610c44565b51902091825f52600460205260ff60405f2054166106de57610206916101fd917f19457468657265756d205369676e6564204d6573736167653a0a3332000000005f5284601c525f6020603c822092806024604051966101ec85601f19601f8601160189610c44565b828852018387013784010152610cf0565b90929192610d2a565b6001600160a01b03165f9081526002602052604090205460ff16156106cf575f52600460205260405f20600160ff19825416179055610243610c66565b610180604051946102548287610c44565b600b86526020860191601f190136833782916001938751156106bb576001600160a01b039081169091527f000000000000000000000000000000000000000000000000000000000000000016915b600b84106105e6575b5050506102b781610cbe565b935f5b8281106105be57505050825191600a83116105b5575b604051632454438360e11b81526004810183905260248101849052915f836044817f00000000000000000000000000000000000000000000000000000000000000006001600160a01b03165afa9283156105aa575f93610513575b5061033584610cbe565b9361033f81610ca6565b9361034d6040519586610c44565b81855261035982610ca6565b602086019790601f19013689375f5b8381106104d557505050505f5b8451811015610443576103888185610c92565b51610396575b600101610375565b6001600160a01b036103a6610c7c565b1660205f60446001600160a01b036103be868b610c92565b51166103ca868a610c92565b516040519163a9059cbb60e01b83526004830152602482015282855af19081601f3d1160015f5114161516610436575b5061038e5760405162461bcd60e51b815260206004820152600f60248201526e1514905394d1915497d19052531151608a1b6044820152606490fd5b3b153d171590505f6103fa565b509093909160206104756001600160a01b0361045d610c66565b16956040519586526060838701526060860190610bb5565b91848303604086015251918281520191905f5b8181106104bf5750505090807f565bac9b966879663b6cee54f6645ca6ec41c8849b130a1a4f4188a43c847d33920390a360018055005b8251845260209384019390920191600101610488565b6001906001600160a01b036104ea8285610c92565b51166104f6828b610c92565b526105018185610c92565b5161050c828a610c92565b5201610368565b9092503d805f833e6105258183610c44565b8101906020818303126105a65780519067ffffffffffffffff82116105a657019080601f830112156105a657815161055c81610ca6565b9261056a6040519485610c44565b81845260208085019260051b8201019283116105a657602001905b82821061059657505050915f61032b565b8151815260209182019101610585565b5f80fd5b6040513d5f823e3d90fd5b600a92506102d0565b6001906001600160a01b036105d38285610c92565b51166105df8289610c92565b52016102ba565b6040516377ccfd4b60e01b81526001600160a01b03909116600482015260248101829052602081604481865afa9081156105aa575f9161067a575b506001600160a01b03811680158015610670575b61066a57845f19811461065657600161065091019589610c92565b526102a2565b634e487b7160e01b5f52601160045260245ffd5b506102ab565b5060018114610635565b90506020813d82116106b3575b8161069460209383610c44565b810103126105a657516001600160a01b03811681036105a6575f610621565b3d9150610687565b634e487b7160e01b5f52603260045260245ffd5b632f58c7cd60e01b5f5260045ffd5b634506832760e11b5f5260045ffd5b63ea1083a760e01b5f5260045ffd5b60405162461bcd60e51b815260206004820152600a6024820152695245454e5452414e435960b01b6044820152606490fd5b346105a65760203660031901126105a6576004356001600160a01b038116908190036105a6575f54819061076c336001600160a01b03831614610bf1565b6001600160601b0360a01b16175f55337f8be0079c531659141344cd1fd0a4f28419497f9722a3daafe3b4186f6b6457e05f80a3005b346105a65760203660031901126105a6576004356001600160a01b038116908190036105a6575f526002602052602060ff60405f2054166040519015158152f35b346105a6575f3660031901126105a657602060405160018152f35b610b71565b346105a6575f3660031901126105a6576040517f00000000000000000000000000000000000000000000000000000000000000006001600160a01b03168152602090f35b346105a6575f3660031901126105a6575f546040516001600160a01b039091168152602090f35b346105a65760203660031901126105a6576004356001600160a01b038116908190036105a6576108a860018060a01b035f54163314610bf1565b805f52600260205260ff60405f2054166108be57005b5f818152600260205260408120805460ff191690555b60035490818110156109c757826108ea82610c2c565b905460039190911b1c6001600160a01b03161461090b5760019150016108d4565b5f1982019182116106565761093d61092561096193610c2c565b905460039190911b1c6001600160a01b031691610c2c565b81546001600160a01b0393841660039290921b91821b9390911b1916919091179055565b60035480156109b3575f190161097681610c2c565b81546001600160a01b03600392831b1b1916909155555b7fdd4fdcea7474ec44ed60a0e33a8b3e1a80b4002026a6bc5b8e6e97bd883641335f80a2005b634e487b7160e01b5f52603160045260245ffd5b505061098d565b346105a6575f3660031901126105a65760405180602060035491828152019060035f527fc2575a0e9e593c00f959f8c92f12db2869c3395a3b0502d05e2516446f71f85b905f5b818110610a4457610a4085610a2c81870382610c44565b604051918291602083526020830190610bb5565b0390f35b82546001600160a01b0316845260209093019260019283019201610a15565b346105a65760203660031901126105a6576004355f526004602052602060ff60405f2054166040519015158152f35b346105a65760203660031901126105a6576004356001600160a01b038116908181036105a657610acc60018060a01b035f54163314610bf1565b8115610b6257815f52600260205260ff60405f20541615610ae957005b815f52600260205260405f20600160ff198254161790556003549068010000000000000000821015610b4e5761093d826001610b289401600355610c2c565b7f5a7a3f71a35f5e2589980d29d1c6d8c75e39657751190874081e55208bae24b75f80a2005b634e487b7160e01b5f52604160045260245ffd5b635521068160e01b5f5260045ffd5b346105a6575f3660031901126105a6576040517f00000000000000000000000000000000000000000000000000000000000000006001600160a01b03168152602090f35b90602080835192838152019201905f5b818110610bd25750505090565b82516001600160a01b0316845260209384019390920191600101610bc5565b15610bf857565b60405162461bcd60e51b815260206004820152600c60248201526b15539055551213d49256915160a21b6044820152606490fd5b6003548110156106bb5760035f5260205f2001905f90565b90601f8019910116810190811067ffffffffffffffff821117610b4e57604052565b6004356001600160a01b03811681036105a65790565b6044356001600160a01b03811681036105a65790565b80518210156106bb5760209160051b010190565b67ffffffffffffffff8111610b4e5760051b60200190565b90610cc882610ca6565b610cd56040519182610c44565b8281528092610ce6601f1991610ca6565b0190602036910137565b8151919060418303610d2057610d199250602082015190606060408401519301515f1a90610d9e565b9192909190565b50505f9160029190565b6004811015610d8a5780610d3c575050565b60018103610d535763f645eedf60e01b5f5260045ffd5b60028103610d6e575063fce698f760e01b5f5260045260245ffd5b600314610d785750565b6335e2f38360e21b5f5260045260245ffd5b634e487b7160e01b5f52602160045260245ffd5b91907f7fffffffffffffffffffffffffffffff5d576e7357a4501ddfe92f46681b20a08411610e15579160209360809260ff5f9560405194855216868401526040830152606082015282805260015afa156105aa575f516001600160a01b03811615610e0b57905f905f90565b505f906001905f90565b5050505f916003919056fea26469706673582212202093a936e88aaac0db45920473b057cfd5ba52102ff2f2c65a6f73d19a05932464736f6c634300081a00336080806040523460155761036c908161001a8239f35b5f80fdfe60806040526004361015610011575f80fd5b5f3560e01c6348a8870614610024575f80fd5b3461008757604036600319011261008757610043602435600435610133565b6040518091602082016020835281518091526020604084019201905f5b81811061006e575050500390f35b8251845285945060209384019390920191600101610060565b5f80fd5b6040519190601f01601f1916820167ffffffffffffffff8111838210176100b157604052565b634e487b7160e01b5f52604160045260245ffd5b67ffffffffffffffff81116100b15760051b60200190565b8051156100ea5760200190565b634e487b7160e01b5f52603260045260245ffd5b80518210156100ea5760209160051b010190565b9190820180921161011f57565b634e487b7160e01b5f52601160045260245ffd5b919091821561031f57600a8311610316575b60405190610140820182811067ffffffffffffffff8211176100b15760405261271082526117706020830152610e1060408301526108706060830152610510608083015261030960a08301526101d260c083015261011760e083015260a7610100830152606461012083015260405193610160850185811067ffffffffffffffff8211176100b1576040525f85526127106020860152613e806040860152614c9060608601526155006080860152615a1060a0860152615d1960c0860152615eeb60e08601526160026101008601526160a961012086015261610d610140860152610237610232826100c5565b61008b565b81815292601f19610247836100c5565b013660208601378395600b8310156100ea578260051b01515f8115905b8481106102c657505050505f905f905b8082106102a5575050810390811161011f5761029c6102a291610296846100dd565b51610112565b916100dd565b52565b90916102be6001916102b785886100fe565b5190610112565b920190610274565b600a8110156100ea578060051b8401519081870291878304148715171561011f57826103025783600192046102fb828a6100fe565b5201610264565b634e487b7160e01b5f52601260045260245ffd5b600a9250610145565b50905061032c602061008b565b5f81525f3681379056fea26469706673582212201754a70acba8f1e19bba3f90efd14fa24def2b95ebab1c49aac50f255ea4275664736f6c634300081a0033","linkReferences":{}},"methodIdentifiers":{"REFERRAL_ROOT()":"ba594751","authorizeOracle(address)":"0f13b763","distributeChainRewards((address,uint256,address,bytes32,bytes32,uint256,uint256),bytes)":"f6b35c22","getAuthorizedOracles()":"6e138c84","getReferralGraph()":"1b8dda19","isAuthorizedOracle(address)":"bfe609da","isRewardDistributed(bytes32)":"220e89c9","owner()":"8da5cb5b","referralGraph()":"a69dbf03","rewardCalculator()":"96769e89","transferOwnership(address)":"f2fde38b","unauthorizeOracle(address)":"76bba3be"},"id":37}