{"abi":[{"type":"constructor","inputs":[{"name":"_usdcToken","type":"address","internalType":"address"},{"name":"_platformToken","type":"address","internalType":"address"},{"name":"_cUSDC","type":"address","internalType":"address"}],"stateMutability":"nonpayable"},{"type":"function","name":"cUSDC","inputs":[],"outputs":[{"name":"","type":"address","internalType":"contract ICErc20"}],"stateMutability":"view"},{"type":"function","name":"depositUSDC","inputs":[{"name":"amount","type":"uint256","internalType":"uint256"}],"outputs":[],"stateMutability":"nonpayable"},{"type":"function","name":"emergencyWithdrawUSDC","inputs":[{"name":"to","type":"address","internalType":"address"},{"name":"amount","type":"uint256","internalType":"uint256"}],"outputs":[],"stateMutability":"nonpayable"},{"type":"function","name":"getExchangeRate","inputs":[],"outputs":[{"name":"","type":"uint256","internalType":"uint256"}],"stateMutability":"view"},{"type":"function","name":"getPlatformTokenSupply","inputs":[],"outputs":[{"name":"","type":"uint256","internalType":"uint256"}],"stateMutability":"view"},{"type":"function","name":"getTreasuryBalance","inputs":[],"outputs":[{"name":"","type":"uint256","internalType":"uint256"}],"stateMutability":"view"},{"type":"function","name":"owner","inputs":[],"outputs":[{"name":"","type":"address","internalType":"address"}],"stateMutability":"view"},{"type":"function","name":"platformToken","inputs":[],"outputs":[{"name":"","type":"address","internalType":"contract PlatformToken"}],"stateMutability":"view"},{"type":"function","name":"renounceOwnership","inputs":[],"outputs":[],"stateMutability":"nonpayable"},{"type":"function","name":"totalPlatformTokensMinted","inputs":[],"outputs":[{"name":"","type":"uint256","internalType":"uint256"}],"stateMutability":"view"},{"type":"function","name":"totalUSDCBalance","inputs":[],"outputs":[{"name":"","type":"uint256","internalType":"uint256"}],"stateMutability":"view"},{"type":"function","name":"transferOwnership","inputs":[{"name":"newOwner","type":"address","internalType":"address"}],"outputs":[],"stateMutability":"nonpayable"},{"type":"function","name":"updateExchangeRate","inputs":[],"outputs":[],"stateMutability":"nonpayable"},{"type":"function","name":"usdcToken","inputs":[],"outputs":[{"name":"","type":"address","internalType":"contract IERC20"}],"stateMutability":"view"},{"type":"function","name":"withdrawUSDC","inputs":[{"name":"platformTokenAmount","type":"uint256","internalType":"uint256"}],"outputs":[],"stateMutability":"nonpayable"},{"type":"event","name":"ExchangeRateUpdated","inputs":[{"name":"newRate","type":"uint256","indexed":false,"internalType":"uint256"}],"anonymous":false},{"type":"event","name":"OwnershipTransferred","inputs":[{"name":"previousOwner","type":"address","indexed":true,"internalType":"address"},{"name":"newOwner","type":"address","indexed":true,"internalType":"address"}],"anonymous":false},{"type":"event","name":"USDCDeposited","inputs":[{"name":"user","type":"address","indexed":true,"internalType":"address"},{"name":"usdcAmount","type":"uint256","indexed":false,"internalType":"uint256"},{"name":"platformTokensMinted","type":"uint256","indexed":false,"internalType":"uint256"}],"anonymous":false},{"type":"event","name":"USDCWithdrawn","inputs":[{"name":"user","type":"address","indexed":true,"internalType":"address"},{"name":"platformTokensBurned","type":"uint256","indexed":false,"internalType":"uint256"},{"name":"usdcAmount","type":"uint256","indexed":false,"internalType":"uint256"}],"anonymous":false},{"type":"error","name":"OwnableInvalidOwner","inputs":[{"name":"owner","type":"address","internalType":"address"}]},{"type":"error","name":"OwnableUnauthorizedAccount","inputs":[{"name":"account","type":"address","internalType":"address"}]},{"type":"error","name":"ReentrancyGuardReentrantCall","inputs":[]}],"bytecode":{"object":"0x60e060405234801561001057600080fd5b5060405161152a38038061152a83398101604081905261002f916100ef565b6001600055338061005a57604051631e4fbdf760e01b81526000600482015260240160405180910390fd5b61006381610081565b506001600160a01b0392831660805290821660a0521660c052610132565b600180546001600160a01b038381166001600160a01b0319831681179093556040519116919082907f8be0079c531659141344cd1fd0a4f28419497f9722a3daafe3b4186f6b6457e090600090a35050565b80516001600160a01b03811681146100ea57600080fd5b919050565b60008060006060848603121561010457600080fd5b61010d846100d3565b925061011b602085016100d3565b9150610129604085016100d3565b90509250925092565b60805160a05160c05161134b6101df600039600081816101a0015281816103df015281816104940152818161084e0152818161090301528181610d8301528181610e3601528181610f140152610f9e0152600081816101c701528181610615015281816107430152610ca90152600081816101250152818161035001528181610533015281816107be0152818161099401528181610a3901528181610c1c0152610db2015261134b6000f3fe608060405234801561001057600080fd5b50600436106100f55760003560e01c80639b5655dc11610097578063e6aa216c11610066578063e6aa216c146101fc578063f0f47cb714610204578063f2fde38b1461020d578063f688bcfb1461022057600080fd5b80639b5655dc14610193578063ce347a3e1461019b578063d1b812cd146101c2578063db81f99b146101e957600080fd5b80633fac8105116100d35780633fac81051461015f5780634de396ca14610172578063715018a61461017a5780638da5cb5b1461018257600080fd5b806302ce728f146100fa5780630b53f8481461010457806311eac85514610120575b600080fd5b610102610233565b005b61010d60035481565b6040519081526020015b60405180910390f35b6101477f000000000000000000000000000000000000000000000000000000000000000081565b6040516001600160a01b039091168152602001610117565b61010261016d3660046111ca565b6102c1565b60035461010d565b6101026105a6565b6001546001600160a01b0316610147565b61010d6105ba565b6101477f000000000000000000000000000000000000000000000000000000000000000081565b6101477f000000000000000000000000000000000000000000000000000000000000000081565b6101026101f73660046111f4565b6105d6565b61010d610b3f565b61010d60025481565b61010261021b36600461120d565b610b97565b61010261022e3660046111f4565b610bd2565b600060035460000361024e5750670de0b6b3a764000061028b565b6000610258610ef2565b600254610265919061123e565b60035490915061027d82670de0b6b3a7640000611257565b610287919061126e565b9150505b6040518181527f388f446e9526fe5c9af20a5919b342370c8a7c0cb05245afe1e545658fa3cdba9060200160405180910390a150565b6102c961105c565b6001600160a01b0382166103185760405162461bcd60e51b8152602060048201526011602482015270125b9d985b1a59081c9958da5c1a595b9d607a1b60448201526064015b60405180910390fd5b600081116103385760405162461bcd60e51b815260040161030f90611290565b6040516370a0823160e01b81523060048201526000907f00000000000000000000000000000000000000000000000000000000000000006001600160a01b0316906370a0823190602401602060405180830381865afa15801561039f573d6000803e3d6000fd5b505050506040513d601f19601f820116820180604052508101906103c391906112c7565b90508181101561050d5760006103d982846112e0565b905060007f00000000000000000000000000000000000000000000000000000000000000006001600160a01b031663182df0f56040518163ffffffff1660e01b8152600401602060405180830381865afa15801561043b573d6000803e3d6000fd5b505050506040513d601f19601f8201168201806040525081019061045f91906112c7565b61047183670de0b6b3a7640000611257565b61047b919061126e565b60405163db006a7560e01b8152600481018290529091507f00000000000000000000000000000000000000000000000000000000000000006001600160a01b03169063db006a75906024016020604051808303816000875af11580156104e5573d6000803e3d6000fd5b505050506040513d601f19601f8201168201806040525081019061050991906112c7565b5050505b60405163a9059cbb60e01b81526001600160a01b038481166004830152602482018490527f0000000000000000000000000000000000000000000000000000000000000000169063a9059cbb906044016020604051808303816000875af115801561057c573d6000803e3d6000fd5b505050506040513d601f19601f820116820180604052508101906105a091906112f3565b50505050565b6105ae61105c565b6105b86000611089565b565b60006105c4610ef2565b6002546105d1919061123e565b905090565b6105de6110db565b600081116105fe5760405162461bcd60e51b815260040161030f90611290565b6040516370a0823160e01b815233600482015281907f00000000000000000000000000000000000000000000000000000000000000006001600160a01b0316906370a0823190602401602060405180830381865afa158015610664573d6000803e3d6000fd5b505050506040513d601f19601f8201168201806040525081019061068891906112c7565b10156106d65760405162461bcd60e51b815260206004820152601c60248201527f496e73756666696369656e7420706c6174666f726d20746f6b656e7300000000604482015260640161030f565b60006106e182611105565b9050600081116107275760405162461bcd60e51b81526020600482015260116024820152702737902aa9a221903a37903932ba3ab93760791b604482015260640161030f565b604051632770a7eb60e21b8152336004820152602481018390527f00000000000000000000000000000000000000000000000000000000000000006001600160a01b031690639dc29fac90604401600060405180830381600087803b15801561078f57600080fd5b505af11580156107a3573d6000803e3d6000fd5b50506040516370a0823160e01b8152306004820152600092507f00000000000000000000000000000000000000000000000000000000000000006001600160a01b031691506370a0823190602401602060405180830381865afa15801561080e573d6000803e3d6000fd5b505050506040513d601f19601f8201168201806040525081019061083291906112c7565b90508181101561097c57600061084882846112e0565b905060007f00000000000000000000000000000000000000000000000000000000000000006001600160a01b031663182df0f56040518163ffffffff1660e01b8152600401602060405180830381865afa1580156108aa573d6000803e3d6000fd5b505050506040513d601f19601f820116820180604052508101906108ce91906112c7565b6108e083670de0b6b3a7640000611257565b6108ea919061126e565b60405163db006a7560e01b8152600481018290529091507f00000000000000000000000000000000000000000000000000000000000000006001600160a01b03169063db006a75906024016020604051808303816000875af1158015610954573d6000803e3d6000fd5b505050506040513d601f19601f8201168201806040525081019061097891906112c7565b5050505b6040516370a0823160e01b81523060048201526000907f00000000000000000000000000000000000000000000000000000000000000006001600160a01b0316906370a0823190602401602060405180830381865afa1580156109e3573d6000803e3d6000fd5b505050506040513d601f19601f82011682018060405250810190610a0791906112c7565b90506000838210610a185783610a1a565b815b60405163a9059cbb60e01b8152336004820152602481018290529091507f00000000000000000000000000000000000000000000000000000000000000006001600160a01b03169063a9059cbb906044016020604051808303816000875af1158015610a8a573d6000803e3d6000fd5b505050506040513d601f19601f82011682018060405250810190610aae91906112f3565b506000610ac064e8d4a510008761126e565b90508060026000828254610ad491906112e0565b925050819055508060036000828254610aed91906112e0565b9091555050604080518781526020810184905233917f9cc6dc8bdb4b6ad75707375ac18017379f79114f0d0dd85bf6de99c0522e8e27910160405180910390a25050505050610b3c6001600055565b50565b6000600354600003610b585750670de0b6b3a764000090565b6000610b62610ef2565b600254610b6f919061123e565b600354909150610b8782670de0b6b3a7640000611257565b610b91919061126e565b91505090565b610b9f61105c565b6001600160a01b038116610bc957604051631e4fbdf760e01b81526000600482015260240161030f565b610b3c81611089565b610bda6110db565b60008111610bfa5760405162461bcd60e51b815260040161030f90611290565b6040516323b872dd60e01b8152336004820152306024820152604481018290527f00000000000000000000000000000000000000000000000000000000000000006001600160a01b0316906323b872dd906064016020604051808303816000875af1158015610c6d573d6000803e3d6000fd5b505050506040513d601f19601f82011682018060405250810190610c9191906112f3565b506000610c9d82611165565b90506001600160a01b037f0000000000000000000000000000000000000000000000000000000000000000166340c10f1933610cde8464e8d4a51000611257565b6040516001600160e01b031960e085901b1681526001600160a01b0390921660048301526024820152604401600060405180830381600087803b158015610d2457600080fd5b505af1158015610d38573d6000803e3d6000fd5b505050508160026000828254610d4e919061123e565b925050819055508060036000828254610d67919061123e565b909155505060405163095ea7b360e01b81526001600160a01b037f000000000000000000000000000000000000000000000000000000000000000081166004830152602482018490527f0000000000000000000000000000000000000000000000000000000000000000169063095ea7b3906044016020604051808303816000875af1158015610dfb573d6000803e3d6000fd5b505050506040513d601f19601f82011682018060405250810190610e1f91906112f3565b5060405163140e25ad60e31b8152600481018390527f00000000000000000000000000000000000000000000000000000000000000006001600160a01b03169063a0712d68906024016020604051808303816000875af1158015610e87573d6000803e3d6000fd5b505050506040513d601f19601f82011682018060405250810190610eab91906112c7565b50604080518381526020810183905233917fdf761661d51ab4147355430c8891e0dc7406b6aece4d2b564ccd87e0baa6dfd9910160405180910390a250610b3c6001600055565b6040516370a0823160e01b815230600482015260009081906001600160a01b037f000000000000000000000000000000000000000000000000000000000000000016906370a0823190602401602060405180830381865afa158015610f5b573d6000803e3d6000fd5b505050506040513d601f19601f82011682018060405250810190610f7f91906112c7565b905080600003610f9157600091505090565b6000670de0b6b3a76400007f00000000000000000000000000000000000000000000000000000000000000006001600160a01b031663182df0f56040518163ffffffff1660e01b8152600401602060405180830381865afa158015610ffa573d6000803e3d6000fd5b505050506040513d601f19601f8201168201806040525081019061101e91906112c7565b6110289084611257565b611032919061126e565b600254909150808211156110525761104a81836112e0565b935050505090565b6000935050505090565b6001546001600160a01b031633146105b85760405163118cdaa760e01b815233600482015260240161030f565b600180546001600160a01b038381166001600160a01b0319831681179093556040519116919082907f8be0079c531659141344cd1fd0a4f28419497f9722a3daafe3b4186f6b6457e090600090a35050565b6002600054036110fe57604051633ee5aeb560e01b815260040160405180910390fd5b6002600055565b600060035460000361111957506000919050565b600061112a64e8d4a510008461126e565b90506000611136610ef2565b600254611143919061123e565b6003549091506111538284611257565b61115d919061126e565b949350505050565b6000600354600003611175575090565b600061117f610ef2565b60025461118c919061123e565b9050806003548461119d9190611257565b6111a7919061126e565b9392505050565b80356001600160a01b03811681146111c557600080fd5b919050565b600080604083850312156111dd57600080fd5b6111e6836111ae565b946020939093013593505050565b60006020828403121561120657600080fd5b5035919050565b60006020828403121561121f57600080fd5b6111a7826111ae565b634e487b7160e01b600052601160045260246000fd5b8082018082111561125157611251611228565b92915050565b808202811582820484141761125157611251611228565b60008261128b57634e487b7160e01b600052601260045260246000fd5b500490565b6020808252601d908201527f416d6f756e74206d7573742062652067726561746572207468616e2030000000604082015260600190565b6000602082840312156112d957600080fd5b5051919050565b8181038181111561125157611251611228565b60006020828403121561130557600080fd5b815180151581146111a757600080fdfea26469706673582212203bca5ce26728bf77ef92c15b1427cae6999d4d823138f759cdf6a764a1e83fb364736f6c634300081a0033","linkReferences":{}},"methodIdentifiers":{"cUSDC()":"ce347a3e","depositUSDC(uint256)":"f688bcfb","emergencyWithdrawUSDC(address,uint256)":"3fac8105","getExchangeRate()":"e6aa216c","getPlatformTokenSupply()":"4de396ca","getTreasuryBalance()":"9b5655dc","owner()":"8da5cb5b","platformToken()":"d1b812cd","renounceOwnership()":"715018a6","totalPlatformTokensMinted()":"0b53f848","totalUSDCBalance()":"f0f47cb7","transferOwnership(address)":"f2fde38b","updateExchangeRate()":"02ce728f","usdcToken()":"11eac855","withdrawUSDC(uint256)":"db81f99b"},"id":27}