{"abi":[{"type":"constructor","inputs":[{"name":"_name","type":"string","internalType":"string"},{"name":"_entryFee","type":"uint256","internalType":"uint256"},{"name":"_maxParticipants","type":"uint256","internalType":"uint256"},{"name":"_endTime","type":"uint256","internalType":"uint256"},{"name":"_paymentToken","type":"address","internalType":"address"},{"name":"_oracle","type":"address","internalType":"address"},{"name":"_platformFee","type":"uint256","internalType":"uint256"}],"stateMutability":"nonpayable"},{"type":"function","name":"cancel","inputs":[],"outputs":[],"stateMutability":"nonpayable"},{"type":"function","name":"closeEntry","inputs":[],"outputs":[],"stateMutability":"nonpayable"},{"type":"function","name":"details","inputs":[],"outputs":[{"name":"name","type":"string","internalType":"string"},{"name":"entryFee","type":"uint256","internalType":"uint256"},{"name":"maxParticipants","type":"uint256","internalType":"uint256"},{"name":"endTime","type":"uint256","internalType":"uint256"}],"stateMutability":"view"},{"type":"function","name":"distribute","inputs":[{"name":"_payoutBasisPoints","type":"uint256[]","internalType":"uint256[]"}],"outputs":[],"stateMutability":"nonpayable"},{"type":"function","name":"emergencyWithdraw","inputs":[],"outputs":[],"stateMutability":"nonpayable"},{"type":"function","name":"enter","inputs":[],"outputs":[],"stateMutability":"nonpayable"},{"type":"function","name":"hasEntered","inputs":[{"name":"","type":"address","internalType":"address"}],"outputs":[{"name":"","type":"bool","internalType":"bool"}],"stateMutability":"view"},{"type":"function","name":"leave","inputs":[],"outputs":[],"stateMutability":"nonpayable"},{"type":"function","name":"oracle","inputs":[],"outputs":[{"name":"","type":"address","internalType":"address"}],"stateMutability":"view"},{"type":"function","name":"participants","inputs":[{"name":"","type":"uint256","internalType":"uint256"}],"outputs":[{"name":"","type":"address","internalType":"address"}],"stateMutability":"view"},{"type":"function","name":"paymentToken","inputs":[],"outputs":[{"name":"","type":"address","internalType":"contract IERC20"}],"stateMutability":"view"},{"type":"function","name":"paymentTokenDecimals","inputs":[],"outputs":[{"name":"","type":"uint8","internalType":"uint8"}],"stateMutability":"view"},{"type":"function","name":"platformFee","inputs":[],"outputs":[{"name":"","type":"uint256","internalType":"uint256"}],"stateMutability":"view"},{"type":"function","name":"refundParticipants","inputs":[],"outputs":[],"stateMutability":"nonpayable"},{"type":"function","name":"state","inputs":[],"outputs":[{"name":"","type":"uint8","internalType":"enum Contest.ContestState"}],"stateMutability":"view"},{"type":"event","name":"ContestCancelled","inputs":[],"anonymous":false},{"type":"event","name":"ContestEntered","inputs":[{"name":"participant","type":"address","indexed":true,"internalType":"address"}],"anonymous":false},{"type":"event","name":"ContestLeft","inputs":[{"name":"participant","type":"address","indexed":true,"internalType":"address"}],"anonymous":false},{"type":"event","name":"EntryClosed","inputs":[],"anonymous":false},{"type":"event","name":"ParticipantRefunded","inputs":[{"name":"participant","type":"address","indexed":true,"internalType":"address"},{"name":"amount","type":"uint256","indexed":false,"internalType":"uint256"}],"anonymous":false},{"type":"event","name":"PayoutsDistributed","inputs":[{"name":"payouts","type":"uint256[]","indexed":false,"internalType":"uint256[]"}],"anonymous":false},{"type":"error","name":"ReentrancyGuardReentrantCall","inputs":[]}],"bytecode":{"object":"0x61010060405234801561001157600080fd5b5060405161196a38038061196a83398101604081905261003091610160565b60016000556040805160808101825288815260208101889052908101869052606081018590526002806100638a82610303565b50602082015181600101556040820151816002015560608201518160030155905050826001600160a01b03166080816001600160a01b031681525050826001600160a01b031663313ce5676040518163ffffffff1660e01b8152600401602060405180830381865afa1580156100dd573d6000803e3d6000fd5b505050506040513d601f19601f8201168201806040525081019061010191906103c1565b60ff1660a0526001600160a01b039190911660c05260e05250506001805460ff19169055506103eb915050565b634e487b7160e01b600052604160045260246000fd5b80516001600160a01b038116811461015b57600080fd5b919050565b600080600080600080600060e0888a03121561017b57600080fd5b87516001600160401b0381111561019157600080fd5b8801601f81018a136101a257600080fd5b80516001600160401b038111156101bb576101bb61012e565b604051601f8201601f19908116603f011681016001600160401b03811182821017156101e9576101e961012e565b6040528181528282016020018c101561020157600080fd5b60005b8281101561022057602081850181015183830182015201610204565b5060006020928201830152908a015160408b015160608c0151929a5090985096509450610251905060808901610144565b925061025f60a08901610144565b9150600060c089015190508091505092959891949750929550565b600181811c9082168061028e57607f821691505b6020821081036102ae57634e487b7160e01b600052602260045260246000fd5b50919050565b601f8211156102fe57806000526020600020601f840160051c810160208510156102db5750805b601f840160051c820191505b818110156102fb57600081556001016102e7565b50505b505050565b81516001600160401b0381111561031c5761031c61012e565b6103308161032a845461027a565b846102b4565b6020601f821160018114610364576000831561034c5750848201515b600019600385901b1c1916600184901b1784556102fb565b600084815260208120601f198516915b828110156103945787850151825560209485019460019092019101610374565b50848210156103b25786840151600019600387901b60f8161c191681555b50505050600190811b01905550565b6000602082840312156103d357600080fd5b815160ff811681146103e457600080fd5b9392505050565b60805160a05160c05160e0516114eb61047f6000396000818161013701526104d2015260008181610224015281816102c5015281816106160152818161086f01528181610e0c01526110ac015260006101ab01526000818161016c0152818161045301528181610645015281816106c10152818161098601528181610b0901528181610d720152610fa601526114eb6000f3fe608060405234801561001057600080fd5b50600436106100f55760003560e01c80637dc0d1d011610097578063db2e21bc11610066578063db2e21bc14610270578063e79181c614610278578063e97dcb6214610280578063ea8a1af01461028857600080fd5b80637dc0d1d01461021f578063a3d2c0d214610246578063c19d93fb1461024e578063d66d9e191461026857600080fd5b8063325cd796116100d3578063325cd796146101a657806335c1d349146101df5780634ea4f8e6146101f2578063565974d31461020757600080fd5b806324d70dea146100fa57806326232a2e146101325780633013ce2914610167575b600080fd5b61011d610108366004611191565b60066020526000908152604090205460ff1681565b60405190151581526020015b60405180910390f35b6101597f000000000000000000000000000000000000000000000000000000000000000081565b604051908152602001610129565b61018e7f000000000000000000000000000000000000000000000000000000000000000081565b6040516001600160a01b039091168152602001610129565b6101cd7f000000000000000000000000000000000000000000000000000000000000000081565b60405160ff9091168152602001610129565b61018e6101ed3660046111c1565b610290565b6102056102003660046111da565b6102ba565b005b61020f6107c0565b6040516101299493929190611251565b61018e7f000000000000000000000000000000000000000000000000000000000000000081565b610205610864565b60015461025b9060ff1681565b60405161012991906112ca565b610205610a66565b610205610cc0565b610205610e01565b610205610eb6565b6102056110a1565b600781815481106102a057600080fd5b6000918252602090912001546001600160a01b0316905081565b336001600160a01b037f0000000000000000000000000000000000000000000000000000000000000000161461030b5760405162461bcd60e51b8152600401610302906112f2565b60405180910390fd5b6001805460ff166003811115610323576103236112b4565b146103655760405162461bcd60e51b815260206004820152601260248201527110dbdb9d195cdd081b9bdd0818db1bdcd95960721b6044820152606401610302565b60075481146103af5760405162461bcd60e51b8152602060048201526016602482015275092dcecc2d8d2c840e0c2f2deeae8e640d8cadccee8d60531b6044820152606401610302565b6000805b828110156103e9578383828181106103cd576103cd611316565b90506020020135826103df9190611342565b91506001016103b3565b50806127101461043b5760405162461bcd60e51b815260206004820181905260248201527f546f74616c206d75737420626520313030303020626173697320706f696e74736044820152606401610302565b6040516370a0823160e01b81523060048201526000907f00000000000000000000000000000000000000000000000000000000000000006001600160a01b0316906370a0823190602401602060405180830381865afa1580156104a2573d6000803e3d6000fd5b505050506040513d601f19601f820116820180604052508101906104c6919061135b565b905060006127106104f77f000000000000000000000000000000000000000000000000000000000000000084611374565b610501919061138b565b9050600061050f82846113ad565b905060008567ffffffffffffffff81111561052c5761052c6113c0565b604051908082528060200260200182016040528015610555578160200160208202803683370190505b50905060005b868110156105b95761271088888381811061057857610578611316565b905060200201358461058a9190611374565b610594919061138b565b8282815181106105a6576105a6611316565b602090810291909101015260010161055b565b506001805460ff191660021790556040517fc841c91bdaa23c1c4bdb58cea14d01f2024cc9ef361c26151d0f82cf6216af3c906105f79083906113d6565b60405180910390a160405163a9059cbb60e01b81526001600160a01b037f000000000000000000000000000000000000000000000000000000000000000081166004830152602482018590527f0000000000000000000000000000000000000000000000000000000000000000169063a9059cbb906044016020604051808303816000875af115801561068e573d6000803e3d6000fd5b505050506040513d601f19601f820116820180604052508101906106b29190611419565b5060005b81518110156107b6577f00000000000000000000000000000000000000000000000000000000000000006001600160a01b031663a9059cbb6007838154811061070157610701611316565b9060005260206000200160009054906101000a90046001600160a01b031684848151811061073157610731611316565b60200260200101516040518363ffffffff1660e01b815260040161076a9291906001600160a01b03929092168252602082015260400190565b6020604051808303816000875af1158015610789573d6000803e3d6000fd5b505050506040513d601f19601f820116820180604052508101906107ad9190611419565b506001016106b6565b5050505050505050565b6002805481906107cf9061143b565b80601f01602080910402602001604051908101604052809291908181526020018280546107fb9061143b565b80156108485780601f1061081d57610100808354040283529160200191610848565b820191906000526020600020905b81548152906001019060200180831161082b57829003601f168201915b5050505050908060010154908060020154908060030154905084565b336001600160a01b037f000000000000000000000000000000000000000000000000000000000000000016146108ac5760405162461bcd60e51b8152600401610302906112f2565b600360015460ff1660038111156108c5576108c56112b4565b1461090a5760405162461bcd60e51b815260206004820152601560248201527410dbdb9d195cdd081b9bdd0818d85b98d95b1b1959605a1b6044820152606401610302565b60005b600754811015610a575760006007828154811061092c5761092c611316565b60009182526020808320909101546001600160a01b0316808352600690915260409091205490915060ff1615610a4e5760035460405163a9059cbb60e01b81526001600160a01b03838116600483015260248201929092527f00000000000000000000000000000000000000000000000000000000000000009091169063a9059cbb906044016020604051808303816000875af11580156109d1573d6000803e3d6000fd5b505050506040513d601f19601f820116820180604052508101906109f59190611419565b506001600160a01b038116600081815260066020908152604091829020805460ff1916905560035491519182527f357ff40138a06ece2e77a160416673f406b2401bab0927942c4b31e96afeb248910160405180910390a25b5060010161090d565b50610a6460076000611157565b565b600060015460ff166003811115610a7f57610a7f6112b4565b14610a9c5760405162461bcd60e51b815260040161030290611475565b3360009081526006602052604090205460ff16610ae95760405162461bcd60e51b815260206004820152600b60248201526a139bdd08195b9d195c995960aa1b6044820152606401610302565b60035460405163a9059cbb60e01b815233600482015260248101919091527f00000000000000000000000000000000000000000000000000000000000000006001600160a01b03169063a9059cbb906044016020604051808303816000875af1158015610b5a573d6000803e3d6000fd5b505050506040513d601f19601f82011682018060405250810190610b7e9190611419565b50336000908152600660205260408120805460ff191690555b600754811015610c9257336001600160a01b031660078281548110610bbe57610bbe611316565b6000918252602090912001546001600160a01b031603610c8a5760078054610be8906001906113ad565b81548110610bf857610bf8611316565b600091825260209091200154600780546001600160a01b039092169183908110610c2457610c24611316565b9060005260206000200160006101000a8154816001600160a01b0302191690836001600160a01b031602179055506007805480610c6357610c6361149f565b600082815260209020810160001990810180546001600160a01b0319169055019055610c92565b600101610b97565b5060405133907f3b4c73af13f824ed105a106e6028c2c875414b487d9e05d6b71cc29cc17a63a290600090a2565b3360009081526006602052604090205460ff16610d0d5760405162461bcd60e51b815260206004820152600b60248201526a139bdd08195b9d195c995960aa1b6044820152606401610302565b6005544211610d525760405162461bcd60e51b815260206004820152601160248201527010dbdb9d195cdd081b9bdd08195b991959607a1b6044820152606401610302565b60035460405163a9059cbb60e01b815233600482015260248101919091527f00000000000000000000000000000000000000000000000000000000000000006001600160a01b03169063a9059cbb906044016020604051808303816000875af1158015610dc3573d6000803e3d6000fd5b505050506040513d601f19601f82011682018060405250810190610de79190611419565b50336000908152600660205260409020805460ff19169055565b336001600160a01b037f00000000000000000000000000000000000000000000000000000000000000001614610e495760405162461bcd60e51b8152600401610302906112f2565b600060015460ff166003811115610e6257610e626112b4565b14610e7f5760405162461bcd60e51b815260040161030290611475565b6001805460ff1916811790556040517f7284d0466035e33033537f3ba45309c13d7987b85dc198a5f0c4179d85960b2490600090a1565b600060015460ff166003811115610ecf57610ecf6112b4565b14610eec5760405162461bcd60e51b815260040161030290611475565b3360009081526006602052604090205460ff1615610f3e5760405162461bcd60e51b815260206004820152600f60248201526e105b1c9958591e48195b9d195c9959608a1b6044820152606401610302565b60045460075410610f805760405162461bcd60e51b815260206004820152600c60248201526b10dbdb9d195cdd08199d5b1b60a21b6044820152606401610302565b6003546040516323b872dd60e01b815233600482015230602482015260448101919091527f00000000000000000000000000000000000000000000000000000000000000006001600160a01b0316906323b872dd906064016020604051808303816000875af1158015610ff7573d6000803e3d6000fd5b505050506040513d601f19601f8201168201806040525081019061101b9190611419565b506007805460018181019092557fa66cc928b5edb82af9bd49922954155ab7b0942694bea4ce44661d9a8736c6880180546001600160a01b03191633908117909155600081815260066020526040808220805460ff1916909417909355915190917fd9a5d560deba3dbf49e6ff3bcbd63368413ae5c61aa3af28115af0405775659991a2565b336001600160a01b037f000000000000000000000000000000000000000000000000000000000000000016146110e95760405162461bcd60e51b8152600401610302906112f2565b600060015460ff166003811115611102576111026112b4565b1461111f5760405162461bcd60e51b815260040161030290611475565b6001805460ff191660031790556040517f9237e8f0d5063a695b8695e82c82bc24d15591de9d04449771a6ea4b1283173790600090a1565b50805460008255906000526020600020908101906111759190611178565b50565b5b8082111561118d5760008155600101611179565b5090565b6000602082840312156111a357600080fd5b81356001600160a01b03811681146111ba57600080fd5b9392505050565b6000602082840312156111d357600080fd5b5035919050565b600080602083850312156111ed57600080fd5b823567ffffffffffffffff81111561120457600080fd5b8301601f8101851361121557600080fd5b803567ffffffffffffffff81111561122c57600080fd5b8560208260051b840101111561124157600080fd5b6020919091019590945092505050565b608081526000855180608084015260005b8181101561127f57602081890181015160a0868401015201611262565b50600060a0828501015260a0601f19601f83011684010191505084602083015283604083015282606083015295945050505050565b634e487b7160e01b600052602160045260246000fd5b60208101600483106112ec57634e487b7160e01b600052602160045260246000fd5b91905290565b6020808252600a90820152694e6f74206f7261636c6560b01b604082015260600190565b634e487b7160e01b600052603260045260246000fd5b634e487b7160e01b600052601160045260246000fd5b808201808211156113555761135561132c565b92915050565b60006020828403121561136d57600080fd5b5051919050565b80820281158282048414176113555761135561132c565b6000826113a857634e487b7160e01b600052601260045260246000fd5b500490565b818103818111156113555761135561132c565b634e487b7160e01b600052604160045260246000fd5b602080825282518282018190526000918401906040840190835b8181101561140e5783518352602093840193909201916001016113f0565b509095945050505050565b60006020828403121561142b57600080fd5b815180151581146111ba57600080fd5b600181811c9082168061144f57607f821691505b60208210810361146f57634e487b7160e01b600052602260045260246000fd5b50919050565b60208082526010908201526f21b7b73a32b9ba103737ba1037b832b760811b604082015260600190565b634e487b7160e01b600052603160045260246000fdfea2646970667358221220efba415b5a4c4a439476d5ba622331ebf3480d92970e61b641a256f81f772bb564736f6c634300081a0033","linkReferences":{}},"methodIdentifiers":{"cancel()":"ea8a1af0","closeEntry()":"e79181c6","details()":"565974d3","distribute(uint256[])":"4ea4f8e6","emergencyWithdraw()":"db2e21bc","enter()":"e97dcb62","hasEntered(address)":"24d70dea","leave()":"d66d9e19","oracle()":"7dc0d1d0","participants(uint256)":"35c1d349","paymentToken()":"3013ce29","paymentTokenDecimals()":"325cd796","platformFee()":"26232a2e","refundParticipants()":"a3d2c0d2","state()":"c19d93fb"},"id":23}