{"abi":[{"type":"constructor","inputs":[{"name":"_platformToken","type":"address","internalType":"address"}],"stateMutability":"nonpayable"},{"type":"function","name":"addOracle","inputs":[{"name":"oracle","type":"address","internalType":"address"}],"outputs":[],"stateMutability":"nonpayable"},{"type":"function","name":"createEscrow","inputs":[{"name":"name","type":"string","internalType":"string"},{"name":"depositAmount","type":"uint256","internalType":"uint256"},{"name":"endTime","type":"uint256","internalType":"uint256"},{"name":"oracle","type":"address","internalType":"address"}],"outputs":[{"name":"","type":"address","internalType":"address"}],"stateMutability":"nonpayable"},{"type":"function","name":"escrows","inputs":[{"name":"","type":"uint256","internalType":"uint256"}],"outputs":[{"name":"","type":"address","internalType":"contract Escrow"}],"stateMutability":"view"},{"type":"function","name":"getEscrows","inputs":[],"outputs":[{"name":"","type":"address[]","internalType":"contract Escrow[]"}],"stateMutability":"view"},{"type":"function","name":"oracles","inputs":[{"name":"","type":"address","internalType":"address"}],"outputs":[{"name":"","type":"bool","internalType":"bool"}],"stateMutability":"view"},{"type":"function","name":"owner","inputs":[],"outputs":[{"name":"","type":"address","internalType":"address"}],"stateMutability":"view"},{"type":"function","name":"platformToken","inputs":[],"outputs":[{"name":"","type":"address","internalType":"address"}],"stateMutability":"view"},{"type":"function","name":"removeOracle","inputs":[{"name":"oracle","type":"address","internalType":"address"}],"outputs":[],"stateMutability":"nonpayable"},{"type":"function","name":"renounceOwnership","inputs":[],"outputs":[],"stateMutability":"nonpayable"},{"type":"function","name":"setPlatformToken","inputs":[{"name":"_newPlatformToken","type":"address","internalType":"address"}],"outputs":[],"stateMutability":"nonpayable"},{"type":"function","name":"transferOwnership","inputs":[{"name":"newOwner","type":"address","internalType":"address"}],"outputs":[],"stateMutability":"nonpayable"},{"type":"event","name":"EscrowCreated","inputs":[{"name":"escrow","type":"address","indexed":true,"internalType":"address"},{"name":"host","type":"address","indexed":true,"internalType":"address"},{"name":"depositAmount","type":"uint256","indexed":false,"internalType":"uint256"}],"anonymous":false},{"type":"event","name":"OracleAdded","inputs":[{"name":"oracle","type":"address","indexed":true,"internalType":"address"}],"anonymous":false},{"type":"event","name":"OracleRemoved","inputs":[{"name":"oracle","type":"address","indexed":true,"internalType":"address"}],"anonymous":false},{"type":"event","name":"OwnershipTransferred","inputs":[{"name":"previousOwner","type":"address","indexed":true,"internalType":"address"},{"name":"newOwner","type":"address","indexed":true,"internalType":"address"}],"anonymous":false},{"type":"event","name":"PlatformTokenUpdated","inputs":[{"name":"oldToken","type":"address","indexed":true,"internalType":"address"},{"name":"newToken","type":"address","indexed":true,"internalType":"address"}],"anonymous":false},{"type":"error","name":"OwnableInvalidOwner","inputs":[{"name":"owner","type":"address","internalType":"address"}]},{"type":"error","name":"OwnableUnauthorizedAccount","inputs":[{"name":"account","type":"address","internalType":"address"}]}],"bytecode":{"object":"0x608060405234801561001057600080fd5b5060405161289d38038061289d83398101604081905261002f916100d4565b338061005557604051631e4fbdf760e01b81526000600482015260240160405180910390fd5b61005e81610084565b50600380546001600160a01b0319166001600160a01b0392909216919091179055610104565b600080546001600160a01b038381166001600160a01b0319831681178455604051919092169283917f8be0079c531659141344cd1fd0a4f28419497f9722a3daafe3b4186f6b6457e09190a35050565b6000602082840312156100e657600080fd5b81516001600160a01b03811681146100fd57600080fd5b9392505050565b61278a806101136000396000f3fe60806040523480156200001157600080fd5b5060043610620000b75760003560e01c8063addd5099116200007a578063addd5099146200013e578063d1b812cd1462000175578063df5dd1a51462000189578063f2fde38b14620001a0578063fdc85fc414620001b7578063ff78441614620001ce57600080fd5b8063012f52ee14620000bc5780630255a03b14620000f05780636afcb6da1462000109578063715018a614620001225780638da5cb5b146200012c575b600080fd5b620000d3620000cd36600462000770565b620001e5565b6040516001600160a01b0390911681526020015b60405180910390f35b6200010762000101366004620007a7565b62000210565b005b62000113620002c8565b604051620000e79190620007cc565b620001076200032c565b6000546001600160a01b0316620000d3565b620001646200014f366004620007a7565b60016020526000908152604090205460ff1681565b6040519015158152602001620000e7565b600354620000d3906001600160a01b031681565b620001076200019a366004620007a7565b62000344565b62000107620001b1366004620007a7565b620003f8565b62000107620001c8366004620007a7565b6200043c565b620000d3620001df36600462000831565b620004e6565b60028181548110620001f657600080fd5b6000918252602090912001546001600160a01b0316905081565b6200021a620006e3565b6001600160a01b038116620002765760405162461bcd60e51b815260206004820152601e60248201527f496e76616c696420706c6174666f726d20746f6b656e2061646472657373000060448201526064015b60405180910390fd5b600380546001600160a01b038381166001600160a01b0319831681179093556040519116919082907f0ddb5f2aa10a8e9fcb5d1173cae6bbf49cfa0cf6211a5deedcd2c4c1a0710aaa90600090a35050565b606060028054806020026020016040519081016040528092919081815260200182805480156200032257602002820191906000526020600020905b81546001600160a01b0316815260019091019060200180831162000303575b5050505050905090565b62000336620006e3565b62000342600062000712565b565b6200034e620006e3565b6001600160a01b03811660009081526001602052604090205460ff1615620003aa5760405162461bcd60e51b815260206004820152600e60248201526d416c7265616479206f7261636c6560901b60448201526064016200026d565b6001600160a01b0381166000818152600160208190526040808320805460ff1916909217909155517e47706786c922d17b39285dc59d696bafea72c0b003d3841ae1202076f4c2e49190a250565b62000402620006e3565b6001600160a01b0381166200042e57604051631e4fbdf760e01b8152600060048201526024016200026d565b620004398162000712565b50565b62000446620006e3565b6001600160a01b03811660009081526001602052604090205460ff166200049d5760405162461bcd60e51b815260206004820152600a6024820152694e6f74206f7261636c6560b01b60448201526064016200026d565b6001600160a01b038116600081815260016020526040808220805460ff19169055517f9c8e7d83025bef8a04c664b2f753f64b8814bdb7e27291d7e50935f18cc3c7129190a250565b6000428311620005395760405162461bcd60e51b815260206004820152601a60248201527f456e642074696d65206d75737420626520696e2066757475726500000000000060448201526064016200026d565b6001600160a01b03821660009081526001602052604090205460ff166200059c5760405162461bcd60e51b81526020600482015260166024820152754e6f7420616e20617070726f766564206f7261636c6560501b60448201526064016200026d565b60008411620005fc5760405162461bcd60e51b815260206004820152602560248201527f4465706f73697420616d6f756e74206d75737420626520677265617465722074604482015264068616e20360dc1b60648201526084016200026d565b6000858585600360009054906101000a90046001600160a01b031686604051620006269062000762565b6200063695949392919062000912565b604051809103906000f08015801562000653573d6000803e3d6000fd5b50600280546001810182556000919091527f405787fa12a823e0f2b7631cc41b3ba8828b3321ca811111fa75cd3aa3bb5ace0180546001600160a01b0319166001600160a01b03831690811790915560405187815291925033917f78da7430b15648a5954de6bf3f6dc65a9eb64c292537d89a2a9989fdd36799239060200160405180910390a395945050505050565b6000546001600160a01b03163314620003425760405163118cdaa760e01b81523360048201526024016200026d565b600080546001600160a01b038381166001600160a01b0319831681178455604051919092169283917f8be0079c531659141344cd1fd0a4f28419497f9722a3daafe3b4186f6b6457e09190a35050565b611dbd806200099883390190565b6000602082840312156200078357600080fd5b5035919050565b80356001600160a01b0381168114620007a257600080fd5b919050565b600060208284031215620007ba57600080fd5b620007c5826200078a565b9392505050565b6020808252825182820181905260009190848201906040850190845b818110156200080f5783516001600160a01b031683529284019291840191600101620007e8565b50909695505050505050565b634e487b7160e01b600052604160045260246000fd5b600080600080608085870312156200084857600080fd5b843567ffffffffffffffff808211156200086157600080fd5b818701915087601f8301126200087657600080fd5b8135818111156200088b576200088b6200081b565b604051601f8201601f19908116603f01168101908382118183101715620008b657620008b66200081b565b816040528281528a6020848701011115620008d057600080fd5b826020860160208301376000602084830101528098505050505050602085013592506040850135915062000907606086016200078a565b905092959194509250565b60a08152600086518060a084015260005b8181101562000942576020818a0181015160c086840101520162000923565b50600060c0828501015260c0601f19601f8301168401019150508560208301528460408301526200097e60608301856001600160a01b03169052565b6001600160a01b0383166080830152969550505050505056fe60c06040523480156200001157600080fd5b5060405162001dbd38038062001dbd833981016040819052620000349162000319565b600160005533806200006157604051631e4fbdf760e01b8152600060048201526024015b60405180910390fd5b6200006c8162000294565b506000855111620000c05760405162461bcd60e51b815260206004820152601460248201527f4e616d652063616e6e6f7420626520656d707479000000000000000000000000604482015260640162000058565b60008411620001205760405162461bcd60e51b815260206004820152602560248201527f4465706f73697420616d6f756e74206d75737420626520677265617465722074604482015264068616e20360dc1b606482015260840162000058565b428311620001715760405162461bcd60e51b815260206004820152601e60248201527f456e642074696d65206d75737420626520696e20746865206675747572650000604482015260640162000058565b6001600160a01b038216620001d75760405162461bcd60e51b815260206004820152602560248201527f506c6174666f726d20746f6b656e2063616e6e6f74206265207a65726f206164604482015264647265737360d81b606482015260840162000058565b6001600160a01b0381166200022f5760405162461bcd60e51b815260206004820152601d60248201527f4f7261636c652063616e6e6f74206265207a65726f2061646472657373000000604482015260640162000058565b6040805160608101825286815260208101869052908101849052600480620002588882620004b6565b50602082015160018201556040909101516002909101556001600160a01b039182166080521660a05250506003805460ff191690555062000582565b600180546001600160a01b038381166001600160a01b0319831681179093556040519116919082907f8be0079c531659141344cd1fd0a4f28419497f9722a3daafe3b4186f6b6457e090600090a35050565b634e487b7160e01b600052604160045260246000fd5b80516001600160a01b03811681146200031457600080fd5b919050565b600080600080600060a086880312156200033257600080fd5b85516001600160401b03808211156200034a57600080fd5b818801915088601f8301126200035f57600080fd5b815181811115620003745762000374620002e6565b604051601f8201601f19908116603f011681019083821181831017156200039f576200039f620002e6565b81604052828152602093508b84848701011115620003bc57600080fd5b600091505b82821015620003e05784820184015181830185015290830190620003c1565b60008484830101528099505050508088015195505050604086015192506200040b60608701620002fc565b91506200041b60808701620002fc565b90509295509295909350565b600181811c908216806200043c57607f821691505b6020821081036200045d57634e487b7160e01b600052602260045260246000fd5b50919050565b601f821115620004b157600081815260208120601f850160051c810160208610156200048c5750805b601f850160051c820191505b81811015620004ad5782815560010162000498565b5050505b505050565b81516001600160401b03811115620004d257620004d2620002e6565b620004ea81620004e3845462000427565b8462000463565b602080601f831160018114620005225760008415620005095750858301515b600019600386901b1c1916600185901b178555620004ad565b600085815260208120601f198616915b82811015620005535788860151825594840194600190910190840162000532565b5085821015620005725787850151600019600388901b60f8161c191681555b5050505050600190811b01905550565b60805160a0516117cf620005ee600039600081816101d60152818161073201528181610bfb0152610d9c0152600081816102400152818161037c0152818161068001528181610a5101528181610b6901528181610c2a01528181610f2701526112c101526117cf6000f3fe608060405234801561001057600080fd5b50600436106101215760003560e01c80638da5cb5b116100ad578063d1b812cd11610071578063d1b812cd1461023b578063db2e21bc14610262578063f2c16e6f1461026a578063f2fde38b1461029d578063f3baf070146102b057600080fd5b80638da5cb5b146101f85780639496fd1c14610209578063c19d93fb14610211578063cabfaa181461022b578063d0e30db01461023357600080fd5b80634ea4f8e6116100f45780634ea4f8e61461019657806351cc0da7146101a9578063565974d3146101b2578063715018a6146101c95780637dc0d1d0146101d157600080fd5b8063083b9137146101265780632009dc651461015957806335c1d349146101635780633ccfd60b1461018e575b600080fd5b610146610134366004611489565b60086020526000908152604090205481565b6040519081526020015b60405180910390f35b6101616102b9565b005b6101766101713660046114b9565b61046b565b6040516001600160a01b039091168152602001610150565b610161610495565b6101616101a43660046114d2565b610727565b61014660025481565b6101ba610cab565b60405161015093929190611547565b610161610d49565b6101767f000000000000000000000000000000000000000000000000000000000000000081565b6001546001600160a01b0316610176565b610161610d5b565b60035461021e9060ff1681565b60405161015091906115b9565b600954610146565b610161610e2e565b6101767f000000000000000000000000000000000000000000000000000000000000000081565b610161611062565b61028d610278366004611489565b60076020526000908152604090205460ff1681565b6040519015158152602001610150565b6101616102ab366004611489565b611370565b6101466107d081565b6102c16113ae565b60006003805460ff16908111156102da576102da6115a3565b146103005760405162461bcd60e51b81526004016102f7906115e1565b60405180910390fd5b60005b600954811015610420576000600982815481106103225761032261160a565b60009182526020808320909101546001600160a01b0316808352600790915260409091205490915060ff161561040d5760055460405163a9059cbb60e01b81526001600160a01b03838116600483015260248201929092527f00000000000000000000000000000000000000000000000000000000000000009091169063a9059cbb906044016020604051808303816000875af11580156103c7573d6000803e3d6000fd5b505050506040513d601f19601f820116820180604052508101906103eb9190611620565b506001600160a01b0381166000908152600760205260409020805460ff191690555b508061041881611658565b915050610303565b506000600281905561043490600990611457565b6003805460ff1916811790556040517f6e3be9294e58d10b9c8053cfd5e09871b67e442fe394d6b0870d336b9df984a990600090a1565b6009818154811061047b57600080fd5b6000918252602090912001546001600160a01b0316905081565b60006003805460ff16908111156104ae576104ae6115a3565b146104cb5760405162461bcd60e51b81526004016102f7906115e1565b6104d36113db565b3360009081526007602052604090205460ff166105225760405162461bcd60e51b815260206004820152600d60248201526c139bdd0819195c1bdcda5d1959609a1b60448201526064016102f7565b6005546002805482919060009061053a908490611671565b9091555050336000908152600760205260408120805460ff1916905560095461056590600190611671565b33600090815260086020526040902054909150811115610612576000600982815481106105945761059461160a565b60009182526020808320909101543383526008909152604090912054600980546001600160a01b039093169350839290919081106105d4576105d461160a565b600091825260208083209190910180546001600160a01b0319166001600160a01b039485161790553382526008905260408082205493909216815220555b60098054806106235761062361168a565b60008281526020808220600019908401810180546001600160a01b0319169055909201909255338083526008909152604080832092909255905163a9059cbb60e01b81526004810191909152602481018390526001600160a01b037f0000000000000000000000000000000000000000000000000000000000000000169063a9059cbb906044016020604051808303816000875af11580156106c9573d6000803e3d6000fd5b505050506040513d601f19601f820116820180604052508101906106ed9190611620565b5060405133907fd900faab28619592e985fe698e5edf2e0819a9d670c3b2547afb60504aa115fb90600090a250506107256001600055565b565b336001600160a01b037f0000000000000000000000000000000000000000000000000000000000000000161461078c5760405162461bcd60e51b815260206004820152600a6024820152694e6f74206f7261636c6560b01b60448201526064016102f7565b6107946113db565b60016003805460ff16908111156107ad576107ad6115a3565b146107f35760405162461bcd60e51b8152602060048201526016602482015275457363726f77206e6f7420696e2070726f677265737360501b60448201526064016102f7565b600954811461083d5760405162461bcd60e51b8152602060048201526016602482015275092dcecc2d8d2c840e0c2f2deeae8e640d8cadccee8d60531b60448201526064016102f7565b6000805b828110156108815783838281811061085b5761085b61160a565b905060200201358261086d91906116a0565b91508061087981611658565b915050610841565b5080612710146108d35760405162461bcd60e51b815260206004820181905260248201527f546f74616c206d75737420626520313030303020626173697320706f696e747360448201526064016102f7565b60008267ffffffffffffffff8111156108ee576108ee6116b3565b604051908082528060200260200182016040528015610917578160200160208202803683370190505b5090506000805b8481101561099b57600061271087878481811061093d5761093d61160a565b9050602002013560025461095191906116c9565b61095b91906116e0565b9050808483815181106109705761097061160a565b602090810291909101015261098581846116a0565b925050808061099390611658565b91505061091e565b50600254811080156109ae575060008251115b156109fe576000816002546109c39190611671565b90508083600185516109d59190611671565b815181106109e5576109e561160a565b602002602001018181516109f991906116a0565b905250505b6003805460ff191660021790556040517fc841c91bdaa23c1c4bdb58cea14d01f2024cc9ef361c26151d0f82cf6216af3c90610a3b908490611702565b60405180910390a160005b8251811015610b50577f00000000000000000000000000000000000000000000000000000000000000006001600160a01b031663a9059cbb60098381548110610a9157610a9161160a565b9060005260206000200160009054906101000a90046001600160a01b0316858481518110610ac157610ac161160a565b60200260200101516040518363ffffffff1660e01b8152600401610afa9291906001600160a01b03929092168252602082015260400190565b6020604051808303816000875af1158015610b19573d6000803e3d6000fd5b505050506040513d601f19601f82011682018060405250810190610b3d9190611620565b5080610b4881611658565b915050610a46565b506040516370a0823160e01b81523060048201526000907f00000000000000000000000000000000000000000000000000000000000000006001600160a01b0316906370a0823190602401602060405180830381865afa158015610bb8573d6000803e3d6000fd5b505050506040513d601f19601f82011682018060405250810190610bdc9190611746565b90508015610c995760405163a9059cbb60e01b81526001600160a01b037f000000000000000000000000000000000000000000000000000000000000000081166004830152602482018390527f0000000000000000000000000000000000000000000000000000000000000000169063a9059cbb906044016020604051808303816000875af1158015610c73573d6000803e3d6000fd5b505050506040513d601f19601f82011682018060405250810190610c979190611620565b505b50505050610ca76001600055565b5050565b600480548190610cba9061175f565b80601f0160208091040260200160405190810160405280929190818152602001828054610ce69061175f565b8015610d335780601f10610d0857610100808354040283529160200191610d33565b820191906000526020600020905b815481529060010190602001808311610d1657829003601f168201915b5050505050908060010154908060020154905083565b610d516113ae565b6107256000611405565b60006003805460ff1690811115610d7457610d746115a3565b14610d915760405162461bcd60e51b81526004016102f7906115e1565b336001600160a01b037f00000000000000000000000000000000000000000000000000000000000000001614610df65760405162461bcd60e51b815260206004820152600a6024820152694e6f74206f7261636c6560b01b60448201526064016102f7565b6003805460ff191660011790556040517f1a8ade30f60946b8fb7b4d1cf93dc594fa0e441eca24e1b9b88cfa375e3488b190600090a1565b60006003805460ff1690811115610e4757610e476115a3565b14610e645760405162461bcd60e51b81526004016102f7906115e1565b610e6c6113db565b3360009081526007602052604090205460ff1615610ec05760405162461bcd60e51b8152602060048201526011602482015270105b1c9958591e4819195c1bdcda5d1959607a1b60448201526064016102f7565b6009546107d011610f015760405162461bcd60e51b815260206004820152600b60248201526a115cd8dc9bddc8199d5b1b60aa1b60448201526064016102f7565b6005546040516323b872dd60e01b815233600482015230602482015260448101919091527f00000000000000000000000000000000000000000000000000000000000000006001600160a01b0316906323b872dd906064016020604051808303816000875af1158015610f78573d6000803e3d6000fd5b505050506040513d601f19601f82011682018060405250810190610f9c9190611620565b5060055460028054600090610fb29084906116a0565b909155505060098054600181810183557f6e1540171b6c0c960b71a7020d9f60077f6af931a8bbf590da0223dacf75c7af90910180546001600160a01b031916339081179091556000908152600760205260409020805460ff191682179055905461101d9190611671565b3360008181526008602052604080822093909355915190917f36c3f1bdccade0360be44662425e3c1011ac51718d18e4e2712481f1c44e4a3c91a26107256001600055565b61106a6113db565b3360009081526007602052604090205460ff166110b95760405162461bcd60e51b815260206004820152600d60248201526c139bdd0819195c1bdcda5d1959609a1b60448201526064016102f7565b60065442116110fd5760405162461bcd60e51b815260206004820152601060248201526f115cd8dc9bddc81b9bdd08195b99195960821b60448201526064016102f7565b60006003805460ff1690811115611116576111166115a3565b146111635760405162461bcd60e51b815260206004820152601d60248201527f457363726f77206e6f7420696e20656d657267656e637920737461746500000060448201526064016102f7565b6005546002805482919060009061117b908490611671565b9091555050336000908152600760205260408120805460ff191690556009546111a690600190611671565b33600090815260086020526040902054909150811115611253576000600982815481106111d5576111d561160a565b60009182526020808320909101543383526008909152604090912054600980546001600160a01b039093169350839290919081106112155761121561160a565b600091825260208083209190910180546001600160a01b0319166001600160a01b039485161790553382526008905260408082205493909216815220555b60098054806112645761126461168a565b60008281526020808220600019908401810180546001600160a01b0319169055909201909255338083526008909152604080832092909255905163a9059cbb60e01b81526004810191909152602481018390526001600160a01b037f0000000000000000000000000000000000000000000000000000000000000000169063a9059cbb906044016020604051808303816000875af115801561130a573d6000803e3d6000fd5b505050506040513d601f19601f8201168201806040525081019061132e9190611620565b5060405182815233907f2e39961a70a10f4d46383948095ac2752b3ee642a7c76aa827410aaff08c2e519060200160405180910390a250506107256001600055565b6113786113ae565b6001600160a01b0381166113a257604051631e4fbdf760e01b8152600060048201526024016102f7565b6113ab81611405565b50565b6001546001600160a01b031633146107255760405163118cdaa760e01b81523360048201526024016102f7565b6002600054036113fe57604051633ee5aeb560e01b815260040160405180910390fd5b6002600055565b600180546001600160a01b038381166001600160a01b0319831681179093556040519116919082907f8be0079c531659141344cd1fd0a4f28419497f9722a3daafe3b4186f6b6457e090600090a35050565b50805460008255906000526020600020908101906113ab91905b808211156114855760008155600101611471565b5090565b60006020828403121561149b57600080fd5b81356001600160a01b03811681146114b257600080fd5b9392505050565b6000602082840312156114cb57600080fd5b5035919050565b600080602083850312156114e557600080fd5b823567ffffffffffffffff808211156114fd57600080fd5b818501915085601f83011261151157600080fd5b81358181111561152057600080fd5b8660208260051b850101111561153557600080fd5b60209290920196919550909350505050565b606081526000845180606084015260005b818110156115755760208188018101516080868401015201611558565b506000608082850101526080601f19601f830116840101915050836020830152826040830152949350505050565b634e487b7160e01b600052602160045260246000fd5b60208101600483106115db57634e487b7160e01b600052602160045260246000fd5b91905290565b6020808252600f908201526e22b9b1b937bb903737ba1037b832b760891b604082015260600190565b634e487b7160e01b600052603260045260246000fd5b60006020828403121561163257600080fd5b815180151581146114b257600080fd5b634e487b7160e01b600052601160045260246000fd5b60006001820161166a5761166a611642565b5060010190565b8181038181111561168457611684611642565b92915050565b634e487b7160e01b600052603160045260246000fd5b8082018082111561168457611684611642565b634e487b7160e01b600052604160045260246000fd5b808202811582820484141761168457611684611642565b6000826116fd57634e487b7160e01b600052601260045260246000fd5b500490565b6020808252825182820181905260009190848201906040850190845b8181101561173a5783518352928401929184019160010161171e565b50909695505050505050565b60006020828403121561175857600080fd5b5051919050565b600181811c9082168061177357607f821691505b60208210810361179357634e487b7160e01b600052602260045260246000fd5b5091905056fea2646970667358221220bece51b4f5256c152a86d5aec1bbab607eda3e51d47b5283ff431d7a6407833664736f6c63430008140033a2646970667358221220748cd0994a45d796c4026e7e70b025bbe97661cb6be346be8f5dc6291d316fc864736f6c63430008140033","linkReferences":{}},"methodIdentifiers":{"addOracle(address)":"df5dd1a5","createEscrow(string,uint256,uint256,address)":"ff784416","escrows(uint256)":"012f52ee","getEscrows()":"6afcb6da","oracles(address)":"addd5099","owner()":"8da5cb5b","platformToken()":"d1b812cd","removeOracle(address)":"fdc85fc4","renounceOwnership()":"715018a6","setPlatformToken(address)":"0255a03b","transferOwnership(address)":"f2fde38b"},"id":30}