{"abi":[{"type":"function","name":"BPS_DENOMINATOR","inputs":[],"outputs":[{"name":"","type":"uint256","internalType":"uint256"}],"stateMutability":"view"},{"type":"event","name":"SecondaryMerkleRootUpdated","inputs":[{"name":"newRoot","type":"bytes32","indexed":false,"internalType":"bytes32"}],"anonymous":false},{"type":"event","name":"SecondaryPayoutClaimed","inputs":[{"name":"participant","type":"address","indexed":true,"internalType":"address"},{"name":"entryId","type":"uint256","indexed":true,"internalType":"uint256"},{"name":"payout","type":"uint256","indexed":false,"internalType":"uint256"}],"anonymous":false},{"type":"event","name":"SecondaryPositionAdded","inputs":[{"name":"participant","type":"address","indexed":true,"internalType":"address"},{"name":"entryId","type":"uint256","indexed":true,"internalType":"uint256"},{"name":"amount","type":"uint256","indexed":false,"internalType":"uint256"},{"name":"tokensReceived","type":"uint256","indexed":false,"internalType":"uint256"}],"anonymous":false},{"type":"event","name":"SecondaryPositionRemoved","inputs":[{"name":"participant","type":"address","indexed":true,"internalType":"address"},{"name":"amount","type":"uint256","indexed":false,"internalType":"uint256"}],"anonymous":false}],"bytecode":{"object":"0x6080806040523460175760719081601c823930815050f35b5f80fdfe60808060405260043610156011575f80fd5b5f3560e01c63e1a45218146023575f80fd5b5f3660031901126037578061271060209252f35b5f80fdfea2646970667358221220d4f301154b410a9a6bedc124f2ab4dfe37897a4c93da2f0a1aa2edb23a0916be64736f6c634300081a0033","linkReferences":{}},"methodIdentifiers":{"BPS_DENOMINATOR()":"e1a45218"},"id":4}