{"abi":[{"type":"constructor","inputs":[{"name":"_paymentToken","type":"address","internalType":"address"},{"name":"_oracle","type":"address","internalType":"address"},{"name":"_primaryDepositAmount","type":"uint256","internalType":"uint256"},{"name":"_oracleFeeBps","type":"uint256","internalType":"uint256"},{"name":"_expiryTimestamp","type":"uint256","internalType":"uint256"},{"name":"_primaryEntryInvestmentShareBps","type":"uint256","internalType":"uint256"}],"stateMutability":"nonpayable"},{"type":"function","name":"BPS_DENOMINATOR","inputs":[],"outputs":[{"name":"","type":"uint256","internalType":"uint256"}],"stateMutability":"view"},{"type":"function","name":"PRICE_PRECISION","inputs":[],"outputs":[{"name":"","type":"uint256","internalType":"uint256"}],"stateMutability":"view"},{"type":"function","name":"accumulatedOracleFee","inputs":[],"outputs":[{"name":"","type":"uint256","internalType":"uint256"}],"stateMutability":"view"},{"type":"function","name":"activateContest","inputs":[],"outputs":[],"stateMutability":"nonpayable"},{"type":"function","name":"addPrimaryPosition","inputs":[{"name":"entryId","type":"uint256","internalType":"uint256"},{"name":"merkleProof","type":"bytes32[]","internalType":"bytes32[]"}],"outputs":[],"stateMutability":"nonpayable"},{"type":"function","name":"addSecondaryPosition","inputs":[{"name":"entryId","type":"uint256","internalType":"uint256"},{"name":"amount","type":"uint256","internalType":"uint256"},{"name":"merkleProof","type":"bytes32[]","internalType":"bytes32[]"}],"outputs":[],"stateMutability":"nonpayable"},{"type":"function","name":"balanceOf","inputs":[{"name":"","type":"address","internalType":"address"},{"name":"","type":"uint256","internalType":"uint256"}],"outputs":[{"name":"","type":"uint256","internalType":"uint256"}],"stateMutability":"view"},{"type":"function","name":"balanceOfBatch","inputs":[{"name":"owners","type":"address[]","internalType":"address[]"},{"name":"ids","type":"uint256[]","internalType":"uint256[]"}],"outputs":[{"name":"balances","type":"uint256[]","internalType":"uint256[]"}],"stateMutability":"view"},{"type":"function","name":"calculateSecondaryPrice","inputs":[{"name":"entryId","type":"uint256","internalType":"uint256"}],"outputs":[{"name":"","type":"uint256","internalType":"uint256"}],"stateMutability":"view"},{"type":"function","name":"cancelContest","inputs":[],"outputs":[],"stateMutability":"nonpayable"},{"type":"function","name":"cancelExpired","inputs":[],"outputs":[],"stateMutability":"nonpayable"},{"type":"function","name":"claimOracleFee","inputs":[],"outputs":[],"stateMutability":"nonpayable"},{"type":"function","name":"claimPrimaryPayout","inputs":[{"name":"entryId","type":"uint256","internalType":"uint256"}],"outputs":[],"stateMutability":"nonpayable"},{"type":"function","name":"claimSecondaryPayout","inputs":[{"name":"entryId","type":"uint256","internalType":"uint256"}],"outputs":[],"stateMutability":"nonpayable"},{"type":"function","name":"closeContest","inputs":[],"outputs":[],"stateMutability":"nonpayable"},{"type":"function","name":"entries","inputs":[{"name":"","type":"uint256","internalType":"uint256"}],"outputs":[{"name":"","type":"uint256","internalType":"uint256"}],"stateMutability":"view"},{"type":"function","name":"entryOwner","inputs":[{"name":"","type":"uint256","internalType":"uint256"}],"outputs":[{"name":"","type":"address","internalType":"address"}],"stateMutability":"view"},{"type":"function","name":"expiryTimestamp","inputs":[],"outputs":[{"name":"","type":"uint256","internalType":"uint256"}],"stateMutability":"view"},{"type":"function","name":"getEntriesCount","inputs":[],"outputs":[{"name":"","type":"uint256","internalType":"uint256"}],"stateMutability":"view"},{"type":"function","name":"getEntryAtIndex","inputs":[{"name":"index","type":"uint256","internalType":"uint256"}],"outputs":[{"name":"","type":"uint256","internalType":"uint256"}],"stateMutability":"view"},{"type":"function","name":"getPrimarySideBalance","inputs":[],"outputs":[{"name":"","type":"uint256","internalType":"uint256"}],"stateMutability":"view"},{"type":"function","name":"getPrimarySideShareBps","inputs":[],"outputs":[{"name":"","type":"uint256","internalType":"uint256"}],"stateMutability":"view"},{"type":"function","name":"getSecondarySideBalance","inputs":[],"outputs":[{"name":"","type":"uint256","internalType":"uint256"}],"stateMutability":"view"},{"type":"function","name":"isApprovedForAll","inputs":[{"name":"","type":"address","internalType":"address"},{"name":"","type":"address","internalType":"address"}],"outputs":[{"name":"","type":"bool","internalType":"bool"}],"stateMutability":"view"},{"type":"function","name":"lockContest","inputs":[],"outputs":[],"stateMutability":"nonpayable"},{"type":"function","name":"netPosition","inputs":[{"name":"","type":"uint256","internalType":"uint256"}],"outputs":[{"name":"","type":"int256","internalType":"int256"}],"stateMutability":"view"},{"type":"function","name":"oracle","inputs":[],"outputs":[{"name":"","type":"address","internalType":"address"}],"stateMutability":"view"},{"type":"function","name":"oracleFeeBps","inputs":[],"outputs":[{"name":"","type":"uint256","internalType":"uint256"}],"stateMutability":"view"},{"type":"function","name":"paymentToken","inputs":[],"outputs":[{"name":"","type":"address","internalType":"address"}],"stateMutability":"view"},{"type":"function","name":"primaryDepositAmount","inputs":[],"outputs":[{"name":"","type":"uint256","internalType":"uint256"}],"stateMutability":"view"},{"type":"function","name":"primaryEntryInvestmentShareBps","inputs":[],"outputs":[{"name":"","type":"uint256","internalType":"uint256"}],"stateMutability":"view"},{"type":"function","name":"primaryMerkleRoot","inputs":[],"outputs":[{"name":"","type":"bytes32","internalType":"bytes32"}],"stateMutability":"view"},{"type":"function","name":"primaryPrizePool","inputs":[],"outputs":[{"name":"","type":"uint256","internalType":"uint256"}],"stateMutability":"view"},{"type":"function","name":"primaryPrizePoolPayouts","inputs":[{"name":"","type":"uint256","internalType":"uint256"}],"outputs":[{"name":"","type":"uint256","internalType":"uint256"}],"stateMutability":"view"},{"type":"function","name":"pushPrimaryPayouts","inputs":[{"name":"entryIds","type":"uint256[]","internalType":"uint256[]"}],"outputs":[],"stateMutability":"nonpayable"},{"type":"function","name":"pushSecondaryPayouts","inputs":[{"name":"participantAddresses","type":"address[]","internalType":"address[]"},{"name":"entryId","type":"uint256","internalType":"uint256"}],"outputs":[],"stateMutability":"nonpayable"},{"type":"function","name":"removePrimaryPosition","inputs":[{"name":"entryId","type":"uint256","internalType":"uint256"}],"outputs":[],"stateMutability":"nonpayable"},{"type":"function","name":"removeSecondaryPosition","inputs":[{"name":"entryId","type":"uint256","internalType":"uint256"},{"name":"tokenAmount","type":"uint256","internalType":"uint256"}],"outputs":[],"stateMutability":"nonpayable"},{"type":"function","name":"safeBatchTransferFrom","inputs":[{"name":"from","type":"address","internalType":"address"},{"name":"to","type":"address","internalType":"address"},{"name":"ids","type":"uint256[]","internalType":"uint256[]"},{"name":"amounts","type":"uint256[]","internalType":"uint256[]"},{"name":"data","type":"bytes","internalType":"bytes"}],"outputs":[],"stateMutability":"nonpayable"},{"type":"function","name":"safeTransferFrom","inputs":[{"name":"from","type":"address","internalType":"address"},{"name":"to","type":"address","internalType":"address"},{"name":"id","type":"uint256","internalType":"uint256"},{"name":"amount","type":"uint256","internalType":"uint256"},{"name":"data","type":"bytes","internalType":"bytes"}],"outputs":[],"stateMutability":"nonpayable"},{"type":"function","name":"secondaryDepositedPerEntry","inputs":[{"name":"","type":"address","internalType":"address"},{"name":"","type":"uint256","internalType":"uint256"}],"outputs":[{"name":"","type":"uint256","internalType":"uint256"}],"stateMutability":"view"},{"type":"function","name":"secondaryLiquidityPerEntry","inputs":[{"name":"","type":"uint256","internalType":"uint256"}],"outputs":[{"name":"","type":"uint256","internalType":"uint256"}],"stateMutability":"view"},{"type":"function","name":"secondaryMarketResolved","inputs":[],"outputs":[{"name":"","type":"bool","internalType":"bool"}],"stateMutability":"view"},{"type":"function","name":"secondaryMerkleRoot","inputs":[],"outputs":[{"name":"","type":"bytes32","internalType":"bytes32"}],"stateMutability":"view"},{"type":"function","name":"secondaryWinningEntry","inputs":[],"outputs":[{"name":"","type":"uint256","internalType":"uint256"}],"stateMutability":"view"},{"type":"function","name":"setApprovalForAll","inputs":[{"name":"operator","type":"address","internalType":"address"},{"name":"approved","type":"bool","internalType":"bool"}],"outputs":[],"stateMutability":"nonpayable"},{"type":"function","name":"setPrimaryMerkleRoot","inputs":[{"name":"_root","type":"bytes32","internalType":"bytes32"}],"outputs":[],"stateMutability":"nonpayable"},{"type":"function","name":"setSecondaryMerkleRoot","inputs":[{"name":"_root","type":"bytes32","internalType":"bytes32"}],"outputs":[],"stateMutability":"nonpayable"},{"type":"function","name":"settleContest","inputs":[{"name":"winningEntries","type":"uint256[]","internalType":"uint256[]"},{"name":"payoutBps","type":"uint256[]","internalType":"uint256[]"}],"outputs":[],"stateMutability":"nonpayable"},{"type":"function","name":"state","inputs":[],"outputs":[{"name":"","type":"uint8","internalType":"enum ContestController.ContestState"}],"stateMutability":"view"},{"type":"function","name":"supportsInterface","inputs":[{"name":"interfaceId","type":"bytes4","internalType":"bytes4"}],"outputs":[{"name":"","type":"bool","internalType":"bool"}],"stateMutability":"view"},{"type":"function","name":"totalSecondaryLiquidity","inputs":[],"outputs":[{"name":"sum","type":"uint256","internalType":"uint256"}],"stateMutability":"view"},{"type":"function","name":"uri","inputs":[{"name":"","type":"uint256","internalType":"uint256"}],"outputs":[{"name":"","type":"string","internalType":"string"}],"stateMutability":"pure"},{"type":"event","name":"ApprovalForAll","inputs":[{"name":"owner","type":"address","indexed":true,"internalType":"address"},{"name":"operator","type":"address","indexed":true,"internalType":"address"},{"name":"approved","type":"bool","indexed":false,"internalType":"bool"}],"anonymous":false},{"type":"event","name":"ContestActivated","inputs":[],"anonymous":false},{"type":"event","name":"ContestCancelled","inputs":[],"anonymous":false},{"type":"event","name":"ContestClosed","inputs":[],"anonymous":false},{"type":"event","name":"ContestLocked","inputs":[],"anonymous":false},{"type":"event","name":"ContestSettled","inputs":[{"name":"winningEntries","type":"uint256[]","indexed":false,"internalType":"uint256[]"},{"name":"payouts","type":"uint256[]","indexed":false,"internalType":"uint256[]"}],"anonymous":false},{"type":"event","name":"PrimaryMerkleRootUpdated","inputs":[{"name":"newRoot","type":"bytes32","indexed":false,"internalType":"bytes32"}],"anonymous":false},{"type":"event","name":"PrimaryPayoutClaimed","inputs":[{"name":"owner","type":"address","indexed":true,"internalType":"address"},{"name":"entryId","type":"uint256","indexed":true,"internalType":"uint256"},{"name":"amount","type":"uint256","indexed":false,"internalType":"uint256"}],"anonymous":false},{"type":"event","name":"PrimaryPositionAdded","inputs":[{"name":"owner","type":"address","indexed":true,"internalType":"address"},{"name":"entryId","type":"uint256","indexed":true,"internalType":"uint256"}],"anonymous":false},{"type":"event","name":"PrimaryPositionAdded","inputs":[{"name":"owner","type":"address","indexed":true,"internalType":"address"},{"name":"entryId","type":"uint256","indexed":true,"internalType":"uint256"}],"anonymous":false},{"type":"event","name":"PrimaryPositionRemoved","inputs":[{"name":"entryId","type":"uint256","indexed":true,"internalType":"uint256"},{"name":"owner","type":"address","indexed":true,"internalType":"address"}],"anonymous":false},{"type":"event","name":"PrimaryPositionRemoved","inputs":[{"name":"entryId","type":"uint256","indexed":true,"internalType":"uint256"},{"name":"owner","type":"address","indexed":true,"internalType":"address"}],"anonymous":false},{"type":"event","name":"SecondaryMerkleRootUpdated","inputs":[{"name":"newRoot","type":"bytes32","indexed":false,"internalType":"bytes32"}],"anonymous":false},{"type":"event","name":"SecondaryPayoutClaimed","inputs":[{"name":"participant","type":"address","indexed":true,"internalType":"address"},{"name":"entryId","type":"uint256","indexed":true,"internalType":"uint256"},{"name":"payout","type":"uint256","indexed":false,"internalType":"uint256"}],"anonymous":false},{"type":"event","name":"SecondaryPositionAdded","inputs":[{"name":"participant","type":"address","indexed":true,"internalType":"address"},{"name":"entryId","type":"uint256","indexed":true,"internalType":"uint256"},{"name":"amount","type":"uint256","indexed":false,"internalType":"uint256"},{"name":"participantTokensReceived","type":"uint256","indexed":false,"internalType":"uint256"},{"name":"primaryEntryInvestment","type":"uint256","indexed":false,"internalType":"uint256"},{"name":"ownerTokensReceived","type":"uint256","indexed":false,"internalType":"uint256"}],"anonymous":false},{"type":"event","name":"SecondaryPositionAdded","inputs":[{"name":"participant","type":"address","indexed":true,"internalType":"address"},{"name":"entryId","type":"uint256","indexed":true,"internalType":"uint256"},{"name":"amount","type":"uint256","indexed":false,"internalType":"uint256"},{"name":"participantTokensReceived","type":"uint256","indexed":false,"internalType":"uint256"},{"name":"primaryEntryInvestment","type":"uint256","indexed":false,"internalType":"uint256"},{"name":"ownerTokensReceived","type":"uint256","indexed":false,"internalType":"uint256"}],"anonymous":false},{"type":"event","name":"SecondaryPositionSold","inputs":[{"name":"participant","type":"address","indexed":true,"internalType":"address"},{"name":"entryId","type":"uint256","indexed":true,"internalType":"uint256"},{"name":"tokenAmount","type":"uint256","indexed":false,"internalType":"uint256"},{"name":"proceeds","type":"uint256","indexed":false,"internalType":"uint256"}],"anonymous":false},{"type":"event","name":"SecondaryPositionSold","inputs":[{"name":"participant","type":"address","indexed":true,"internalType":"address"},{"name":"entryId","type":"uint256","indexed":true,"internalType":"uint256"},{"name":"tokenAmount","type":"uint256","indexed":false,"internalType":"uint256"},{"name":"proceeds","type":"uint256","indexed":false,"internalType":"uint256"}],"anonymous":false},{"type":"event","name":"TransferBatch","inputs":[{"name":"operator","type":"address","indexed":true,"internalType":"address"},{"name":"from","type":"address","indexed":true,"internalType":"address"},{"name":"to","type":"address","indexed":true,"internalType":"address"},{"name":"ids","type":"uint256[]","indexed":false,"internalType":"uint256[]"},{"name":"amounts","type":"uint256[]","indexed":false,"internalType":"uint256[]"}],"anonymous":false},{"type":"event","name":"TransferSingle","inputs":[{"name":"operator","type":"address","indexed":true,"internalType":"address"},{"name":"from","type":"address","indexed":true,"internalType":"address"},{"name":"to","type":"address","indexed":true,"internalType":"address"},{"name":"id","type":"uint256","indexed":false,"internalType":"uint256"},{"name":"amount","type":"uint256","indexed":false,"internalType":"uint256"}],"anonymous":false},{"type":"event","name":"URI","inputs":[{"name":"value","type":"string","indexed":false,"internalType":"string"},{"name":"id","type":"uint256","indexed":true,"internalType":"uint256"}],"anonymous":false}],"bytecode":{"object":"0x6101403461032c57601f613d7d38819003918201601f19168301916001600160401b038311848410176103305780849260c09460405283398101031261032c5761004881610344565b9061005560208201610344565b60408201516060830151608084015160a0909401516001600255949092906001600160a01b038116156102e7576001600160a01b038216156102b1576103e8841161026c57428511156102365761271086116101e25760805260a05260c05260e052610100526101205260ff1960035416600355604051613a249081610359823960805181818161047701528181610ac901528181610e440152818161103401528181611391015281816115b70152818161195601528181611a9a01528181611c9a0152818161261901526129fe015260a0518181816106ee01528181610c4201528181610fd70152818161153601528181611a0101528181611a5401528181611b1401528181611f88015281816129ae01528181612c920152612d9b015260c051818181610a130152818161184601526118f4015260e051818181610e050152818161105f0152818161135d01528181611f4f01526126e60152610100518181816109eb015281816114780152818161157d01526117010152610120518181816103060152610ec90152f35b60405162461bcd60e51b815260206004820152602660248201527f496e76616c6964207072696d61727920656e74727920696e766573746d656e7460448201526520736861726560d01b6064820152608490fd5b60405162461bcd60e51b815260206004820152600e60248201526d115e1c1a5c9e481a5b881c185cdd60921b6044820152606490fd5b60405162461bcd60e51b815260206004820152601360248201527f4f7261636c652066656520746f6f2068696768000000000000000000000000006044820152606490fd5b60405162461bcd60e51b815260206004820152600e60248201526d496e76616c6964206f7261636c6560901b6044820152606490fd5b60405162461bcd60e51b815260206004820152601560248201527f496e76616c6964207061796d656e7420746f6b656e00000000000000000000006044820152606490fd5b5f80fd5b634e487b7160e01b5f52604160045260245ffd5b51906001600160a01b038216820361032c5756fe6080806040526004361015610012575f80fd5b5f3560e01c908162fdd58e14612ef85750806301ffc9a714612e8a5780630e89341c14612e4d5780631db0e66714612d8557806324f9cc4c14612c7c5780632eb2c2d614612a2d5780633013ce29146129e95780633789a2fb146129715780633a2babc2146129315780634034b060146125355780634e1273f4146124345780634ee837a6146124175780634fd34950146123f5578063563930e714611f725780635c76fda714611f385780636932b38214611f0e57806374d3421414611bc557806375f2500614611afe5780637680a51e146112255780637ae45fe314611a305780637dc0d1d0146119ec5780637e8f123414611869578063933b12821461182f5780639455937a14610bd157806395082d25146118125780639a9a5d9d146117f5578063a01e4a1f146116ef578063a094c63214611524578063a22cb4651461149b578063ade6e2aa14611461578063ae4c8ba91461143f578063af19e0d5146112b2578063af1d919714611295578063b30906d41461126c578063b48e94ce14611242578063b9937e3014611225578063bf6bbf09146111e1578063c19d93fb146111b8578063c8d2270014610fa0578063c8d5c1b114610f76578063c9a496aa14610f09578063d09685b014610eec578063d1a7dabc14610eb2578063d6a74ce014610c08578063df1ef4c614610bd6578063e08a1a4214610bd1578063e1a4521814610bb5578063e1db226a14610968578063e985e9c514610911578063ed4af81f146108f4578063f242432a14610729578063fc8c28e1146106b15763fed7632514610262575f80fd5b346106ad5760603660031901126106ad576004356024356044356001600160401b0381116106ad5761029b6102b8913690600401612f86565b906102aa600160025414613231565b60028055600f543390613608565b60ff60035416600681101561069957801590811561068e575b501561063f575f828152600660205260409020546001600160a01b0316156105f0576102fe811515613589565b61271061032b7f0000000000000000000000000000000000000000000000000000000000000000836132a2565b0491610337838361314a565b90805f52600a60205260405f20545f81135f146105e857915b8415801593906105df578161036587836137bb565b80955b610566575b61037a9061037f93613157565b6137bb565b90811561050657825f52600b60205260405f2061039d868254613157565b90556103a98285613157565b95835f52600a60205260405f209485545f898201998a1291129080158216911516176104f2576104a4976104739655846040518881528560208201528360408201528260608201527f5800e09d8494dbc3b74037eb4b461080c8c687b48d5889543b4902ba9de5195560803392a35f858152600660205260409020546001600160a01b031690806104ab575b505050335f52600c60205260405f20835f5260205261045960405f20918254613157565b90556040519161046a602084613065565b5f835233613869565b30337f00000000000000000000000000000000000000000000000000000000000000006001600160a01b031661371d565b6001600255005b6104ea92825f52600c60205260405f20875f526020526104d060405f20918254613157565b905585604051926104e2602085613065565b5f8452613869565b5f8080610435565b634e487b7160e01b5f52601160045260245ffd5b60405162461bcd60e51b815260206004820152603260248201527f5061796d656e7420746f6f20736d616c6c3a20696e73756666696369656e7420604482015271746f20707572636861736520746f6b656e7360701b6064820152608490fd5b90501561057457818461036d565b60405162461bcd60e51b815260206004820152603a60248201527f5061796d656e7420746f6f20736d616c6c3a207072696d61727920656e74727960448201527f20696e766573746d656e742062757973206e6f20746f6b656e730000000000006064820152608490fd5b815f8095610368565b505f91610350565b60405162461bcd60e51b815260206004820152602160248201527f456e74727920646f6573206e6f74206578697374206f722077697468647261776044820152603760f91b6064820152608490fd5b60405162461bcd60e51b815260206004820152602160248201527f5365636f6e6461727920706f736974696f6e73206e6f7420617661696c61626c6044820152606560f81b6064820152608490fd5b60019150145f6102d1565b634e487b7160e01b5f52602160045260245ffd5b5f80fd5b346106ad5760203660031901126106ad577f1f3ffb5a38f057a21fbb6b9c891954827a2657844fbc0ae99188cce46f059e2b602060043561071c337f00000000000000000000000000000000000000000000000000000000000000006001600160a01b031614613086565b80600955604051908152a1005b346106ad5760a03660031901126106ad57610742612f36565b61074a612f4c565b6064356044356084356001600160401b0381116106ad5761076f903690600401612fb6565b946001600160a01b03169033821480156108d2575b61078d906130fd565b815f525f60205260405f20835f5260205260405f206107ad85825461314a565b905560018060a01b03851694855f525f60205260405f20845f5260205260405f206107d9868254613157565b905585836040518681528760208201527fc3d58168c5ae7397731d063d5bbf3d657854427343f4c083240f7aacaa2d0f6260403392a43b6108265750505050610824915015156131f2565b005b602094929161086a5f926040519889978896879563f23a6e6160e01b875233600488015260248701526044860152606485015260a0608485015260a48401916131d2565b03925af180156108c757610824915f91610898575b506001600160e01b03191663f23a6e6160e01b146131f2565b6108ba915060203d6020116108c0575b6108b28183613065565b8101906131b2565b8261087f565b503d6108a8565b6040513d5f823e3d90fd5b505f82815260016020908152604080832033845290915290205460ff16610784565b346106ad575f3660031901126106ad576020600954604051908152f35b346106ad5760403660031901126106ad5761092a612f36565b610932612f4c565b9060018060a01b03165f52600160205260405f209060018060a01b03165f52602052602060ff60405f2054166040519015158152f35b346106ad5760403660031901126106ad576004356024356001600160401b0381116106ad5761099e6109bb913690600401612f86565b906109ad600160025414613231565b600280556009543390613608565b60ff60035416600681101561069957610b7d575f818152600660205260409020546001600160a01b0316610b41577f0000000000000000000000000000000000000000000000000000000000000000421015610b0a577f00000000000000000000000000000000000000000000000000000000000000006005549168010000000000000000831015610af657610a5a8360016104a4950160055561304d565b81549060031b9083821b915f19901b1916179055805f52600660205260405f20336bffffffffffffffffffffffff60a01b825416179055337f4a3a30e0139991c1b1492b4364701af9484bb9032a696c2b8c748a1e51f2fd175f80a3610ac281600754613157565b60075530337f00000000000000000000000000000000000000000000000000000000000000006001600160a01b031661371d565b634e487b7160e01b5f52604160045260245ffd5b60405162461bcd60e51b815260206004820152600f60248201526e10dbdb9d195cdd08195e1c1a5c9959608a1b6044820152606490fd5b60405162461bcd60e51b8152602060048201526014602482015273456e74727920616c72656164792065786973747360601b6044820152606490fd5b60405162461bcd60e51b815260206004820152601060248201526f21b7b73a32b9ba103737ba1037b832b760811b6044820152606490fd5b346106ad575f3660031901126106ad5760206040516127108152f35b613033565b346106ad5760203660031901126106ad576004355f526006602052602060018060a01b0360405f205416604051908152f35b346106ad5760403660031901126106ad576004356001600160401b0381116106ad57610c38903690600401612f86565b90602435610c70337f00000000000000000000000000000000000000000000000000000000000000006001600160a01b031614613086565b610c7e600160025414613231565b6002805560ff600354166006811015610699576003610c9d9114613354565b610cab60ff600e5416613396565b610cb8600d5482146133d8565b805f52600a602052610ccf60405f2054151561326a565b5f5b838110610cdf576001600255005b8082610cf6610cf1600194888861313a565b613302565b838060a01b03811690815f525f60205260405f20835f5260205260405f205480610d25575b5050505001610cd1565b835f52600a60205260405f2054845f52600b60205260405f20549080151580610ea9575b15610ea057610d5b610d6092846132a2565b6132b5565b905b610d6d818685613497565b845f52600a602052610d8460405f209182546132d3565b9055825f52600c60205260405f20845f526020525f60408120558015610d1b577fe256ef8b7b6eaeb621f7e7ca3b683f124df401cb260bbaccf0540299944b858a91610e69602092865f52600b84528060405f205410155f14610e8e57865f52600b845260405f20610df782825461314a565b90555b610e32612710610e2a7f0000000000000000000000000000000000000000000000000000000000000000846132a2565b04809261314a565b92818492610e79575b50898060a01b037f0000000000000000000000000000000000000000000000000000000000000000166134f9565b604051908152a382868080610d1b565b610e8590600454613157565b6004558d610e3b565b865f52600b84525f6040812055610dfa565b50505f90610d62565b50811515610d49565b346106ad575f3660031901126106ad5760206040517f00000000000000000000000000000000000000000000000000000000000000008152f35b346106ad575f3660031901126106ad576020600554604051908152f35b346106ad5760203660031901126106ad57600435600554811015610f4157610f3260209161304d565b90549060031b1c604051908152f35b60405162461bcd60e51b815260206004820152600d60248201526c092dcecc2d8d2c840d2dcc8caf609b1b6044820152606490fd5b346106ad5760203660031901126106ad576004355f526008602052602060405f2054604051908152f35b346106ad5760203660031901126106ad576004356001600160401b0381116106ad57610fd0903690600401612f86565b90611005337f00000000000000000000000000000000000000000000000000000000000000006001600160a01b031614613086565b611013600160025414613231565b6002805560ff6003541660068110156106995760036110329114613354565b7f00000000000000000000000000000000000000000000000000000000000000006001600160a01b0316917f0000000000000000000000000000000000000000000000000000000000000000905f5b81811061108f576001600255005b61109a81838661313a565b355f818152600660205260409020546001600160a01b03169190821561117357600192815f52600860205260405f2054801561116b5760207e89742e8fcde5f6c48a17ec50347f2b2d98d85a17abe162b4cd552516f752dd91845f52600882525f60408120558060075410155f14611162576111188160075461314a565b6007555b61112c612710610e2a8b846132a2565b908061114d575b5061113f81858d6134f9565b604051908152a35b01611081565b61115990600454613157565b6004558b611133565b5f60075561111c565b505050611147565b60405162461bcd60e51b815260206004820152601a60248201527f456e7472792077697468647261776e206f7220696e76616c69640000000000006044820152606490fd5b346106ad575f3660031901126106ad5760ff600354166040516006821015610699576020918152f35b346106ad5760403660031901126106ad576001600160a01b03611202612f36565b165f52600c60205260405f206024355f52602052602060405f2054604051908152f35b346106ad575f3660031901126106ad576020600754604051908152f35b346106ad5760203660031901126106ad576004355f52600b602052602060405f2054604051908152f35b346106ad5760203660031901126106ad576004356005548110156106ad57610f3260209161304d565b346106ad575f3660031901126106ad576020600d54604051908152f35b346106ad5760203660031901126106ad576004356112d4600160025414613231565b6002805560ff60035416600681101561069957815f526008602052611300600360405f20549214613354565b5f82815260066020526040902054611322906001600160a01b031633146135ca565b1561140e575f818152600860205260408120805491905560075481116114055761134e8160075461314a565b6007555b611382612710610e2a7f0000000000000000000000000000000000000000000000000000000000000000846132a2565b90806113f0575b506113be81337f00000000000000000000000000000000000000000000000000000000000000006001600160a01b03166134f9565b6040519081527e89742e8fcde5f6c48a17ec50347f2b2d98d85a17abe162b4cd552516f752dd60203392a36001600255005b6113fc90600454613157565b60045582611389565b5f600755611352565b60405162461bcd60e51b8152602060048201526009602482015268139bc81c185e5bdd5d60ba1b6044820152606490fd5b346106ad575f3660031901126106ad57602060ff600e54166040519015158152f35b346106ad575f3660031901126106ad5760206040517f00000000000000000000000000000000000000000000000000000000000000008152f35b346106ad5760403660031901126106ad576114b4612f36565b602435908115158092036106ad57335f52600160205260405f2060018060a01b0382165f5260205260405f2060ff1981541660ff841617905560405191825260018060a01b0316907f17307eab39ab6107e8899845ad3d59bd9653f200f220920489ca2b5937696c3160203392a3005b346106ad575f3660031901126106ad577f0000000000000000000000000000000000000000000000000000000000000000611569336001600160a01b03831614613086565b611577600160025414613231565b600280557f000000000000000000000000000000000000000000000000000000000000000042106116b5576040516370a0823160e01b81523060048201527f00000000000000000000000000000000000000000000000000000000000000006001600160a01b031691602082602481865afa9182156108c7575f92611681575b5081611604576001600255005b5f6007555f6004555f5b60055481101561163e578061162460019261304d565b90549060031b1c5f52600b6020525f60408120550161160e565b5061165592600560ff1960035416176003556134f9565b7fef19c40e684c836035e6598f5d86819dfec89371571efdeed7947339739711435f80a18080806104a4565b9091506020813d6020116116ad575b8161169d60209383613065565b810103126106ad575190836115f7565b3d9150611690565b60405162461bcd60e51b8152602060048201526012602482015271115e1c1a5c9e481b9bdd081c995858da195960721b6044820152606490fd5b346106ad575f3660031901126106ad577f000000000000000000000000000000000000000000000000000000000000000042106117c25760ff60035416600681101561069957600381141590816117b6575b501561177f57611759600460ff196003541617600355565b7f9237e8f0d5063a695b8695e82c82bc24d15591de9d04449771a6ea4b128317375f80a1005b60405162461bcd60e51b815260206004820152600f60248201526e105b1c9958591e481cd95d1d1b1959608a1b6044820152606490fd5b60059150141581611741565b60405162461bcd60e51b815260206004820152600b60248201526a139bdd08195e1c1a5c995960aa1b6044820152606490fd5b346106ad575f3660031901126106ad576020600f54604051908152f35b346106ad575f3660031901126106ad576020604051620f42408152f35b346106ad575f3660031901126106ad5760206040517f00000000000000000000000000000000000000000000000000000000000000008152f35b346106ad5760203660031901126106ad5760043561188b600160025414613231565b6002805560ff6003541660068110156106995780159081156119e1575b5015611983575f818152600660205260409020546104a491906118d5906001600160a01b031633146135ca565b5f81815260066020526040812080546001600160a01b031981169091557f0000000000000000000000000000000000000000000000000000000000000000926001600160a01b03909116917fa11660be5ca5ef93a56a1f22e4de3d92bcb1727897a5e70a7262c26e256f3a409080a36119508160075461314a565b600755337f00000000000000000000000000000000000000000000000000000000000000006001600160a01b03166134f9565b60405162461bcd60e51b815260206004820152603060248201527f43616e6e6f74207769746864726177202d20636f6e7465737420696e2070726f60448201526f19dc995cdcc81bdc881cd95d1d1b195960821b6064820152608490fd5b6004915014826118a8565b346106ad575f3660031901126106ad576040517f00000000000000000000000000000000000000000000000000000000000000006001600160a01b03168152602090f35b346106ad575f3660031901126106ad57611a4e600160025414613231565b600280557f0000000000000000000000000000000000000000000000000000000000000000611a87336001600160a01b03831614613086565b6004548015611ac7575f6004556104a4917f00000000000000000000000000000000000000000000000000000000000000006001600160a01b03166134f9565b60405162461bcd60e51b815260206004820152600f60248201526e4e6f2066656520746f20636c61696d60881b6044820152606490fd5b346106ad575f3660031901126106ad57611b42337f00000000000000000000000000000000000000000000000000000000000000006001600160a01b031614613086565b60ff60035416600681101561069957600103611b8b57600260ff1960035416176003557fca4f15905dfed40aa7885e1be889ff7da045bd49fc916c3a40cf8b0a3db7636a5f80a1005b60405162461bcd60e51b8152602060048201526012602482015271436f6e74657374206e6f742061637469766560701b6044820152606490fd5b346106ad5760403660031901126106ad57600435602435611bea600160025414613231565b60028055335f525f60205260405f20825f5260205260405f20549060ff600354166006811015610699578015908115611f03575b5015611ea5575f838152600660205260409020546001600160a01b031615611e6957611c4b811515613589565b808210611e2d57825f52600a602052611c8360405f2054611c6d81151561326a565b845f52600b602052610d5b60405f2054846132a2565b6040516370a0823160e01b815230600482015290927f00000000000000000000000000000000000000000000000000000000000000006001600160a01b03169290602083602481875afa80156108c75786935f91611df8575b50808611611df0575b50335f52600c60205260405f20835f5260205260405f205480611dbb575b5050611d10818333613497565b815f52600a60205260405f20611d278282546132d3565b90556040519081528360208201527fa2b936e19d2f391e984b3c8722e0e0a30ef1b73581371ed847624152e65d16f560403392a381611d67576001600255005b82611da1935f52600b6020528260405f205410155f14611da9575f52600b60205260405f20611d9783825461314a565b90555b33906134f9565b8080806104a4565b5f52600b6020525f6040812055611d9a565b611dcc611dd292610d5b85846132a2565b9061314a565b335f52600c60205260405f20835f5260205260405f20558580611d03565b945086611ce5565b9350506020833d602011611e25575b81611e1460209383613065565b810103126106ad5785925187611cdc565b3d9150611e07565b60405162461bcd60e51b8152602060048201526014602482015273496e73756666696369656e742062616c616e636560601b6044820152606490fd5b60405162461bcd60e51b8152602060048201526014602482015273115b9d1c9e48191bd95cc81b9bdd08195e1a5cdd60621b6044820152606490fd5b60405162461bcd60e51b815260206004820152603060248201527f43616e6e6f74207769746864726177202d20636f6d7065746974696f6e20737460448201526f185c9d1959081bdc881cd95d1d1b195960821b6064820152608490fd5b600491501484611c1e565b346106ad5760203660031901126106ad576004355f52600a602052602060405f2054604051908152f35b346106ad575f3660031901126106ad5760206040517f00000000000000000000000000000000000000000000000000000000000000008152f35b346106ad57611f8036612fe3565b9291611fb6337f00000000000000000000000000000000000000000000000000000000000000006001600160a01b031614613086565b611fc4600160025414613231565b6002805560ff60035416600681101561069957600181149081156123ea575b50156123a5578015612360578381036123235760055481116122eb575f805b8582106122755761271091500361223057600360ff19815416176003556007545f5b8281106121fc57505082359283600d55600160ff19600e541617600e555f925f5b60055481101561208d578061207961205e60019361304d565b90549060031b1c96875f52600b60205260405f205490613157565b955f52600b6020525f604081205501612045565b50848694600d545f52600b60205260405f2055600d54805f52600a60205260405f205490805f52600b60205260405f20549182151590816121f3575b5061210e575b5050507f0fed27f5e3cd741c181cc0d3b0c47df2013638faa8b7aa7084de3946098eb78e936121049160405194859485613188565b0390a16001600255005b5f52600b6020525f60408120555f805b86811061218e575091818361210495937f0fed27f5e3cd741c181cc0d3b0c47df2013638faa8b7aa7084de3946098eb78e999510612164575b50508296508193506120cf565b61216d9161314a565b905f52600860205261218460405f20918254613157565b9055868080612157565b9061219a82888861313a565b35916127106121b46121ad838c8a61313a565b35866132a2565b04806121c7575b5060019192500161211e565b6121d381600194613157565b935f5260086020526121ea60405f20918254613157565b905582916121bb565b905015886120c9565b8061220a600192858861313a565b3561271061221c6121ad848b8a61313a565b04905f52600860205260405f205501612024565b60405162461bcd60e51b815260206004820152601860248201527f5061796f757473206d7573742073756d20746f203130302500000000000000006044820152606490fd5b61228082878661313a565b35156122a65761229e60019161229784898861313a565b3590613157565b910190612002565b60405162461bcd60e51b815260206004820152601960248201527f557365206e6f6e2d7a65726f207061796f757473206f6e6c79000000000000006044820152606490fd5b60405162461bcd60e51b815260206004820152601060248201526f546f6f206d616e792077696e6e65727360801b6044820152606490fd5b60405162461bcd60e51b8152602060048201526015602482015274082e4e4c2f240d8cadccee8d040dad2e6dac2e8c6d605b1b6044820152606490fd5b60405162461bcd60e51b815260206004820152601d60248201527f4d7573742068617665206174206c65617374206f6e652077696e6e65720000006044820152606490fd5b60405162461bcd60e51b815260206004820152601c60248201527f436f6e74657374206e6f7420616374697665206f72206c6f636b6564000000006044820152606490fd5b600291501485611fe3565b346106ad575f3660031901126106ad57602061240f613316565b604051908152f35b346106ad575f3660031901126106ad576020600454604051908152f35b346106ad5761244236612fe3565b9291906124508483146130bf565b612459826132eb565b936124676040519586613065565b828552612473836132eb565b602086019490601f19013686375f5b8481106124cd578587604051918291602083019060208452518091526040830191905f5b8181106124b4575050500390f35b82518452859450602093840193909201916001016124a6565b6001600160a01b036124e3610cf183888661313a565b165f525f60205260405f206124f982858761313a565b355f5260205260405f20549087518110156125215760019160208260051b8a01015201612482565b634e487b7160e01b5f52603260045260245ffd5b346106ad5760203660031901126106ad57600435612557600160025414613231565b60028055335f525f60205260405f20815f5260205260405f205460ff600354166006811015610699576125a8906125a160ff600e541661259c6003600d549414613354565b613396565b83146133d8565b5f828152600660205260409020546001600160a01b0316156128de5780156128ad57815f52600a60205260405f20546125e281151561326a565b5f838152600b60205260409020549081156128a557610d5b61260492846132a2565b6040516370a0823160e01b81523060048201527f00000000000000000000000000000000000000000000000000000000000000006001600160a01b03169290919081602084602481885afa9081156108c75786945f9261286e575b508110612866575b50612673818433613497565b825f52600a60205261268a60405f209182546132d3565b9055335f52600c60205260405f20825f526020525f60408120558015155f14612834575f828152600b6020526040902054811161282157815f52600b60205260405f206126d882825461314a565b90555b61270b612710610e2a7f0000000000000000000000000000000000000000000000000000000000000000846132a2565b908061280c575b5061271e8133856134f9565b6040519081527fe256ef8b7b6eaeb621f7e7ca3b683f124df401cb260bbaccf0540299944b858a60203392a35b815f52600a60205260405f205415612764576001600255005b6040516370a0823160e01b8152306004820152602081602481855afa9081156108c7575f916127da575b50600454808211156127d1576127a39161314a565b905b816127b1575b506104a4565b6127c9925f52600b6020525f604081205533906134f9565b8080806127ab565b50505f906127a5565b90506020813d602011612804575b816127f560209383613065565b810103126106ad57518361278e565b3d91506127e8565b61281890600454613157565b60045584612712565b815f52600b6020525f60408120556126db565b506040515f81527fe256ef8b7b6eaeb621f7e7ca3b683f124df401cb260bbaccf0540299944b858a60203392a361274b565b915085612667565b945090506020843d60201161289d575b8161288b60209383613065565b810103126106ad57859351908761265f565b3d915061287e565b50505f612604565b60405162461bcd60e51b81526020600482015260096024820152684e6f20746f6b656e7360b81b6044820152606490fd5b60405162461bcd60e51b815260206004820152602560248201527f456e74727920646f6573206e6f74206578697374206f72207761732077697468604482015264323930bbb760d91b6064820152608490fd5b346106ad5760203660031901126106ad576004355f52600a60205260405f20545f81135f146129655761240f60209161345c565b50602061240f5f61345c565b346106ad5760203660031901126106ad577fa2877b861a6a177d8c1a4430a6f8716104652f70e5c8fbd58aa775ef96da4a5260206004356129dc337f00000000000000000000000000000000000000000000000000000000000000006001600160a01b031614613086565b80600f55604051908152a1005b346106ad575f3660031901126106ad576040517f00000000000000000000000000000000000000000000000000000000000000006001600160a01b03168152602090f35b346106ad5760a03660031901126106ad57612a46612f36565b612a4e612f4c565b6044356001600160401b0381116106ad57612a6d903690600401612f86565b926064356001600160401b0381116106ad57612a8d903690600401612f86565b91906084356001600160401b0381116106ad57612aae903690600401612fb6565b919092612abc8589146130bf565b6001600160a01b0316933385148015612c5a575b612ad9906130fd565b6001600160a01b038716965f5b898110612bf457508786887f4a39dc06d4c0dbc64b70af90fd698a233a518aa5d07e595d983b8c0526c8f7fb868d612b2688604051938493339785613188565b0390a43b612b4057505050505050610824915015156131f2565b612b8397935f93612b956020999794612ba7946040519c8d9b8c9a8b9963bc197c8160e01b8b523360048c015260248b015260a060448b015260a48a0191613164565b87810360031901606489015291613164565b848103600319016084860152916131d2565b03925af180156108c757610824915f91612bd5575b506001600160e01b03191663bc197c8160e01b146131f2565b612bee915060203d6020116108c0576108b28183613065565b82612bbc565b80612c026001928c8b61313a565b35612c0e82868861313a565b3590895f525f60205260405f20815f5260205260405f20612c3083825461314a565b90558b5f525f60205260405f20905f52602052612c5260405f20918254613157565b905501612ae6565b505f85815260016020908152604080832033845290915290205460ff16612ad0565b346106ad575f3660031901126106ad57612cc0337f00000000000000000000000000000000000000000000000000000000000000006001600160a01b031614613086565b60ff60035416600681101561069957612d405760055415612d0e57600160ff1960035416176003557f3927b788a62eb53f7192cd9286f49295f01b938b6afc23aef0af5d035cd853165f80a1005b60405162461bcd60e51b815260206004820152600a6024820152694e6f20656e747269657360b01b6044820152606490fd5b60405162461bcd60e51b815260206004820152601760248201527f436f6e7465737420616c726561647920737461727465640000000000000000006044820152606490fd5b346106ad575f3660031901126106ad57612dc9337f00000000000000000000000000000000000000000000000000000000000000006001600160a01b031614613086565b60ff6003541660068110156106995760038114159081612e41575b5015612dfc57611759600460ff196003541617600355565b60405162461bcd60e51b815260206004820152601f60248201527f436f6e7465737420736574746c6564202d2063616e6e6f742063616e63656c006044820152606490fd5b60059150141581612de4565b346106ad5760203660031901126106ad57612e86604051612e6f602082613065565b5f8152604051918291602083526020830190612f62565b0390f35b346106ad5760203660031901126106ad5760043563ffffffff60e01b81168091036106ad576020906301ffc9a760e01b8114908115612ee7575b8115612ed6575b506040519015158152f35b6303a24d0760e21b14905082612ecb565b636cdb3d1360e11b81149150612ec4565b346106ad5760403660031901126106ad576020906001600160a01b03612f1c612f36565b165f525f825260405f206024355f52825260405f20548152f35b600435906001600160a01b03821682036106ad57565b602435906001600160a01b03821682036106ad57565b805180835260209291819084018484015e5f828201840152601f01601f1916010190565b9181601f840112156106ad578235916001600160401b0383116106ad576020808501948460051b0101116106ad57565b9181601f840112156106ad578235916001600160401b0383116106ad57602083818601950101116106ad57565b60406003198201126106ad576004356001600160401b0381116106ad578161300d91600401612f86565b92909291602435906001600160401b0382116106ad5761302f91600401612f86565b9091565b346106ad575f3660031901126106ad57602061240f613418565b6005548110156125215760055f5260205f2001905f90565b90601f801991011681019081106001600160401b03821117610af657604052565b1561308d57565b60405162461bcd60e51b815260206004820152600a6024820152694e6f74206f7261636c6560b01b6044820152606490fd5b156130c657565b60405162461bcd60e51b815260206004820152600f60248201526e0988a9c8ea890be9a92a69a82a8869608b1b6044820152606490fd5b1561310457565b60405162461bcd60e51b815260206004820152600e60248201526d1393d517d055551213d49256915160921b6044820152606490fd5b91908110156125215760051b0190565b919082039182116104f257565b919082018092116104f257565b81835290916001600160fb1b0383116106ad5760209260051b809284830137010190565b92906131a1906131af9593604086526040860191613164565b926020818503910152613164565b90565b908160209103126106ad57516001600160e01b0319811681036106ad5790565b908060209392818452848401375f828201840152601f01601f1916010190565b156131f957565b60405162461bcd60e51b815260206004820152601060248201526f155394d0519157d49150d2541251539560821b6044820152606490fd5b1561323857565b60405162461bcd60e51b815260206004820152600a6024820152695245454e5452414e435960b01b6044820152606490fd5b1561327157565b60405162461bcd60e51b81526020600482015260096024820152684e6f20737570706c7960b81b6044820152606490fd5b818102929181159184041417156104f257565b81156132bf570490565b634e487b7160e01b5f52601260045260245ffd5b81810392915f1380158285131691841216176104f257565b6001600160401b038111610af65760051b60200190565b356001600160a01b03811681036106ad5790565b60075461332a613324613418565b82613157565b801561334e5761271082029180830461271014901517156104f2576131af916132b5565b50505f90565b1561335b57565b60405162461bcd60e51b815260206004820152601360248201527210dbdb9d195cdd081b9bdd081cd95d1d1b1959606a1b6044820152606490fd5b1561339d57565b60405162461bcd60e51b815260206004820152601360248201527213585c9ad95d081b9bdd081c995cdbdb1d9959606a1b6044820152606490fd5b156133df57565b60405162461bcd60e51b81526020600482015260116024820152704e6f742077696e6e696e6720656e74727960781b6044820152606490fd5b5f905f6005545b80821061342a575050565b909261345460019161343b8661304d565b90549060031b1c5f52600b60205260405f205490613157565b93019061341f565b633b9aca0061346c9104806132a2565b808004600114811517156104f257670de0b6b3a76400009004620f42400180620f4240116104f25790565b905f929160018060a01b0316918284528360205260408420828552602052604084206134c482825461314a565b905560405191825260208201527fc3d58168c5ae7397731d063d5bbf3d657854427343f4c083240f7aacaa2d0f6260403392a4565b60405163a9059cbb60e01b81526001600160a01b03909216600483015260248201929092526020905f9060449082855af19081601f3d1160015f511416151661357c575b501561354557565b60405162461bcd60e51b815260206004820152600f60248201526e1514905394d1915497d19052531151608a1b6044820152606490fd5b3b153d171590505f61353d565b1561359057565b60405162461bcd60e51b81526020600482015260126024820152710416d6f756e74206d757374206265203e20360741b6044820152606490fd5b156135d157565b60405162461bcd60e51b815260206004820152600f60248201526e2737ba1032b73a393c9037bbb732b960891b6044820152606490fd5b92919083613617575b50505050565b60405160208101916bffffffffffffffffffffffff199060601b16825260148152613643603482613065565b51902061364f836132eb565b9161365d6040519384613065565b83835260208301809460051b8201913683116106ad57905b82821061370d5750505090805192836136d7575b505090500361369b575f808080613611565b60405162461bcd60e51b815260206004820152601460248201527324b73b30b634b21036b2b935b63290383937b7b360611b6044820152606490fd5b9260051b01602001905b8251811160051b90815260208351911852602060405f209201918183106136e157915050805f80613689565b8135815260209182019101613675565b6040516323b872dd60e01b81526001600160a01b03928316600482015292909116602483015260448201929092526020905f9060649082855af19081601f3d1160015f51141615166137ae575b501561377257565b60405162461bcd60e51b81526020600482015260146024820152731514905394d1915497d19493d357d1905253115160621b6044820152606490fd5b3b153d171590505f61376a565b811561334e576137ca8161345c565b620f4240830290838204620f4240036104f2576137e6916132b5565b918260011c928060011b90808204600214901517156104f257905f925b60328410613813575b5050505090565b90919293600181018082116104f257841115613863576138338482613157565b60011c90836138428385613971565b10156138575750600190945b01929190613803565b9493506001909361384e565b9361380c565b91929060018060a01b03831692835f525f60205260405f20825f5260205260405f20613896868254613157565b9055835f6040518481528760208201527fc3d58168c5ae7397731d063d5bbf3d657854427343f4c083240f7aacaa2d0f6260403392a43b6138e15750506138df915015156131f2565b565b91613925935f6020946040519687958694859363f23a6e6160e01b85523360048601528560248601526044850152606484015260a0608484015260a4830190612f62565b03925af180156108c7576138df915f9161395257506001600160e01b03191663f23a6e6160e01b146131f2565b61396b915060203d6020116108c0576108b28183613065565b5f61087f565b90801561334e576139829082613157565b9061398d8282613157565b60011c6139b56139a561399f8461345c565b9261345c565b926139af8561345c565b9461314a565b906001600160fe1b03831683036104f257625b8d80936139df6139e4926139ea9560021b90613157565b613157565b906132a2565b049056fea26469706673582212200e3c33ccdb67df2b9ccb989bfb5e43e3ef9451804e692005d7923f3555537c1a64736f6c634300081a0033","linkReferences":{}},"methodIdentifiers":{"BPS_DENOMINATOR()":"e1a45218","PRICE_PRECISION()":"95082d25","accumulatedOracleFee()":"4ee837a6","activateContest()":"24f9cc4c","addPrimaryPosition(uint256,bytes32[])":"e1db226a","addSecondaryPosition(uint256,uint256,bytes32[])":"fed76325","balanceOf(address,uint256)":"00fdd58e","balanceOfBatch(address[],uint256[])":"4e1273f4","calculateSecondaryPrice(uint256)":"3a2babc2","cancelContest()":"1db0e667","cancelExpired()":"a01e4a1f","claimOracleFee()":"7ae45fe3","claimPrimaryPayout(uint256)":"af19e0d5","claimSecondaryPayout(uint256)":"4034b060","closeContest()":"a094c632","entries(uint256)":"b30906d4","entryOwner(uint256)":"df1ef4c6","expiryTimestamp()":"ade6e2aa","getEntriesCount()":"d09685b0","getEntryAtIndex(uint256)":"c9a496aa","getPrimarySideBalance()":"7680a51e","getPrimarySideShareBps()":"4fd34950","getSecondarySideBalance()":"9455937a","isApprovedForAll(address,address)":"e985e9c5","lockContest()":"75f25006","netPosition(uint256)":"6932b382","oracle()":"7dc0d1d0","oracleFeeBps()":"5c76fda7","paymentToken()":"3013ce29","primaryDepositAmount()":"933b1282","primaryEntryInvestmentShareBps()":"d1a7dabc","primaryMerkleRoot()":"ed4af81f","primaryPrizePool()":"b9937e30","primaryPrizePoolPayouts(uint256)":"c8d5c1b1","pushPrimaryPayouts(uint256[])":"c8d22700","pushSecondaryPayouts(address[],uint256)":"d6a74ce0","removePrimaryPosition(uint256)":"7e8f1234","removeSecondaryPosition(uint256,uint256)":"74d34214","safeBatchTransferFrom(address,address,uint256[],uint256[],bytes)":"2eb2c2d6","safeTransferFrom(address,address,uint256,uint256,bytes)":"f242432a","secondaryDepositedPerEntry(address,uint256)":"bf6bbf09","secondaryLiquidityPerEntry(uint256)":"b48e94ce","secondaryMarketResolved()":"ae4c8ba9","secondaryMerkleRoot()":"9a9a5d9d","secondaryWinningEntry()":"af1d9197","setApprovalForAll(address,bool)":"a22cb465","setPrimaryMerkleRoot(bytes32)":"fc8c28e1","setSecondaryMerkleRoot(bytes32)":"3789a2fb","settleContest(uint256[],uint256[])":"563930e7","state()":"c19d93fb","supportsInterface(bytes4)":"01ffc9a7","totalSecondaryLiquidity()":"e08a1a42","uri(uint256)":"0e89341c"},"id":1}