{"abi":[{"type":"constructor","inputs":[{"name":"_paymentToken","type":"address","internalType":"address"},{"name":"_oracle","type":"address","internalType":"address"},{"name":"_primaryDepositAmount","type":"uint256","internalType":"uint256"},{"name":"_oracleFeeBps","type":"uint256","internalType":"uint256"},{"name":"_expiryTimestamp","type":"uint256","internalType":"uint256"},{"name":"_primaryDepositSecondarySubsidyBps","type":"uint256","internalType":"uint256"}],"stateMutability":"nonpayable"},{"type":"function","name":"BPS_DENOMINATOR","inputs":[],"outputs":[{"name":"","type":"uint256","internalType":"uint256"}],"stateMutability":"view"},{"type":"function","name":"PRICE_PRECISION","inputs":[],"outputs":[{"name":"","type":"uint256","internalType":"uint256"}],"stateMutability":"view"},{"type":"function","name":"accumulatedOracleFee","inputs":[],"outputs":[{"name":"","type":"uint256","internalType":"uint256"}],"stateMutability":"view"},{"type":"function","name":"activateContest","inputs":[],"outputs":[],"stateMutability":"nonpayable"},{"type":"function","name":"addPrimaryPosition","inputs":[{"name":"entryId","type":"uint256","internalType":"uint256"},{"name":"merkleProof","type":"bytes32[]","internalType":"bytes32[]"}],"outputs":[],"stateMutability":"nonpayable"},{"type":"function","name":"addSecondaryPosition","inputs":[{"name":"entryId","type":"uint256","internalType":"uint256"},{"name":"amount","type":"uint256","internalType":"uint256"},{"name":"merkleProof","type":"bytes32[]","internalType":"bytes32[]"}],"outputs":[],"stateMutability":"nonpayable"},{"type":"function","name":"balanceOf","inputs":[{"name":"","type":"address","internalType":"address"},{"name":"","type":"uint256","internalType":"uint256"}],"outputs":[{"name":"","type":"uint256","internalType":"uint256"}],"stateMutability":"view"},{"type":"function","name":"balanceOfBatch","inputs":[{"name":"owners","type":"address[]","internalType":"address[]"},{"name":"ids","type":"uint256[]","internalType":"uint256[]"}],"outputs":[{"name":"balances","type":"uint256[]","internalType":"uint256[]"}],"stateMutability":"view"},{"type":"function","name":"calculateSecondaryPrice","inputs":[{"name":"entryId","type":"uint256","internalType":"uint256"}],"outputs":[{"name":"","type":"uint256","internalType":"uint256"}],"stateMutability":"view"},{"type":"function","name":"cancelContest","inputs":[],"outputs":[],"stateMutability":"nonpayable"},{"type":"function","name":"cancelExpired","inputs":[],"outputs":[],"stateMutability":"nonpayable"},{"type":"function","name":"claimOracleFee","inputs":[],"outputs":[],"stateMutability":"nonpayable"},{"type":"function","name":"claimPrimaryPayout","inputs":[{"name":"entryId","type":"uint256","internalType":"uint256"}],"outputs":[],"stateMutability":"nonpayable"},{"type":"function","name":"claimSecondaryPayout","inputs":[{"name":"entryId","type":"uint256","internalType":"uint256"}],"outputs":[],"stateMutability":"nonpayable"},{"type":"function","name":"closeContest","inputs":[],"outputs":[],"stateMutability":"nonpayable"},{"type":"function","name":"entries","inputs":[{"name":"","type":"uint256","internalType":"uint256"}],"outputs":[{"name":"","type":"uint256","internalType":"uint256"}],"stateMutability":"view"},{"type":"function","name":"entryOwner","inputs":[{"name":"","type":"uint256","internalType":"uint256"}],"outputs":[{"name":"","type":"address","internalType":"address"}],"stateMutability":"view"},{"type":"function","name":"expiryTimestamp","inputs":[],"outputs":[{"name":"","type":"uint256","internalType":"uint256"}],"stateMutability":"view"},{"type":"function","name":"getEntriesCount","inputs":[],"outputs":[{"name":"","type":"uint256","internalType":"uint256"}],"stateMutability":"view"},{"type":"function","name":"getEntryAtIndex","inputs":[{"name":"index","type":"uint256","internalType":"uint256"}],"outputs":[{"name":"","type":"uint256","internalType":"uint256"}],"stateMutability":"view"},{"type":"function","name":"getPrimarySideBalance","inputs":[],"outputs":[{"name":"","type":"uint256","internalType":"uint256"}],"stateMutability":"view"},{"type":"function","name":"getSecondarySideBalance","inputs":[],"outputs":[{"name":"","type":"uint256","internalType":"uint256"}],"stateMutability":"view"},{"type":"function","name":"isApprovedForAll","inputs":[{"name":"","type":"address","internalType":"address"},{"name":"","type":"address","internalType":"address"}],"outputs":[{"name":"","type":"bool","internalType":"bool"}],"stateMutability":"view"},{"type":"function","name":"lockContest","inputs":[],"outputs":[],"stateMutability":"nonpayable"},{"type":"function","name":"netPosition","inputs":[{"name":"","type":"uint256","internalType":"uint256"}],"outputs":[{"name":"","type":"int256","internalType":"int256"}],"stateMutability":"view"},{"type":"function","name":"oracle","inputs":[],"outputs":[{"name":"","type":"address","internalType":"address"}],"stateMutability":"view"},{"type":"function","name":"oracleFeeBps","inputs":[],"outputs":[{"name":"","type":"uint256","internalType":"uint256"}],"stateMutability":"view"},{"type":"function","name":"paymentToken","inputs":[],"outputs":[{"name":"","type":"address","internalType":"address"}],"stateMutability":"view"},{"type":"function","name":"primaryDepositAmount","inputs":[],"outputs":[{"name":"","type":"uint256","internalType":"uint256"}],"stateMutability":"view"},{"type":"function","name":"primaryDepositSecondarySubsidyBps","inputs":[],"outputs":[{"name":"","type":"uint256","internalType":"uint256"}],"stateMutability":"view"},{"type":"function","name":"primaryMerkleRoot","inputs":[],"outputs":[{"name":"","type":"bytes32","internalType":"bytes32"}],"stateMutability":"view"},{"type":"function","name":"primaryPrizePool","inputs":[],"outputs":[{"name":"","type":"uint256","internalType":"uint256"}],"stateMutability":"view"},{"type":"function","name":"primaryPrizePoolPayouts","inputs":[{"name":"","type":"uint256","internalType":"uint256"}],"outputs":[{"name":"","type":"uint256","internalType":"uint256"}],"stateMutability":"view"},{"type":"function","name":"pushPrimaryPayouts","inputs":[{"name":"entryIds","type":"uint256[]","internalType":"uint256[]"}],"outputs":[],"stateMutability":"nonpayable"},{"type":"function","name":"pushSecondaryPayouts","inputs":[{"name":"participantAddresses","type":"address[]","internalType":"address[]"},{"name":"entryId","type":"uint256","internalType":"uint256"}],"outputs":[],"stateMutability":"nonpayable"},{"type":"function","name":"removePrimaryPosition","inputs":[{"name":"entryId","type":"uint256","internalType":"uint256"}],"outputs":[],"stateMutability":"nonpayable"},{"type":"function","name":"removeSecondaryPosition","inputs":[{"name":"entryId","type":"uint256","internalType":"uint256"},{"name":"tokenAmount","type":"uint256","internalType":"uint256"}],"outputs":[],"stateMutability":"nonpayable"},{"type":"function","name":"safeBatchTransferFrom","inputs":[{"name":"from","type":"address","internalType":"address"},{"name":"to","type":"address","internalType":"address"},{"name":"ids","type":"uint256[]","internalType":"uint256[]"},{"name":"amounts","type":"uint256[]","internalType":"uint256[]"},{"name":"data","type":"bytes","internalType":"bytes"}],"outputs":[],"stateMutability":"nonpayable"},{"type":"function","name":"safeTransferFrom","inputs":[{"name":"from","type":"address","internalType":"address"},{"name":"to","type":"address","internalType":"address"},{"name":"id","type":"uint256","internalType":"uint256"},{"name":"amount","type":"uint256","internalType":"uint256"},{"name":"data","type":"bytes","internalType":"bytes"}],"outputs":[],"stateMutability":"nonpayable"},{"type":"function","name":"secondaryDepositedPerEntry","inputs":[{"name":"","type":"address","internalType":"address"},{"name":"","type":"uint256","internalType":"uint256"}],"outputs":[{"name":"","type":"uint256","internalType":"uint256"}],"stateMutability":"view"},{"type":"function","name":"secondaryLiquidityPerEntry","inputs":[{"name":"","type":"uint256","internalType":"uint256"}],"outputs":[{"name":"","type":"uint256","internalType":"uint256"}],"stateMutability":"view"},{"type":"function","name":"secondaryMarketResolved","inputs":[],"outputs":[{"name":"","type":"bool","internalType":"bool"}],"stateMutability":"view"},{"type":"function","name":"secondaryMerkleRoot","inputs":[],"outputs":[{"name":"","type":"bytes32","internalType":"bytes32"}],"stateMutability":"view"},{"type":"function","name":"secondaryPrimarySubsidyPerEntry","inputs":[{"name":"","type":"uint256","internalType":"uint256"}],"outputs":[{"name":"","type":"uint256","internalType":"uint256"}],"stateMutability":"view"},{"type":"function","name":"secondaryWinningEntry","inputs":[],"outputs":[{"name":"","type":"uint256","internalType":"uint256"}],"stateMutability":"view"},{"type":"function","name":"setApprovalForAll","inputs":[{"name":"operator","type":"address","internalType":"address"},{"name":"approved","type":"bool","internalType":"bool"}],"outputs":[],"stateMutability":"nonpayable"},{"type":"function","name":"setPrimaryMerkleRoot","inputs":[{"name":"_root","type":"bytes32","internalType":"bytes32"}],"outputs":[],"stateMutability":"nonpayable"},{"type":"function","name":"setSecondaryMerkleRoot","inputs":[{"name":"_root","type":"bytes32","internalType":"bytes32"}],"outputs":[],"stateMutability":"nonpayable"},{"type":"function","name":"settleContest","inputs":[{"name":"winningEntries","type":"uint256[]","internalType":"uint256[]"},{"name":"payoutBps","type":"uint256[]","internalType":"uint256[]"}],"outputs":[],"stateMutability":"nonpayable"},{"type":"function","name":"state","inputs":[],"outputs":[{"name":"","type":"uint8","internalType":"enum ContestController.ContestState"}],"stateMutability":"view"},{"type":"function","name":"supportsInterface","inputs":[{"name":"interfaceId","type":"bytes4","internalType":"bytes4"}],"outputs":[{"name":"","type":"bool","internalType":"bool"}],"stateMutability":"view"},{"type":"function","name":"totalSecondaryLiquidity","inputs":[],"outputs":[{"name":"sum","type":"uint256","internalType":"uint256"}],"stateMutability":"view"},{"type":"function","name":"uri","inputs":[{"name":"","type":"uint256","internalType":"uint256"}],"outputs":[{"name":"","type":"string","internalType":"string"}],"stateMutability":"pure"},{"type":"event","name":"ApprovalForAll","inputs":[{"name":"owner","type":"address","indexed":true,"internalType":"address"},{"name":"operator","type":"address","indexed":true,"internalType":"address"},{"name":"approved","type":"bool","indexed":false,"internalType":"bool"}],"anonymous":false},{"type":"event","name":"ContestActivated","inputs":[],"anonymous":false},{"type":"event","name":"ContestCancelled","inputs":[],"anonymous":false},{"type":"event","name":"ContestClosed","inputs":[],"anonymous":false},{"type":"event","name":"ContestLocked","inputs":[],"anonymous":false},{"type":"event","name":"ContestSettled","inputs":[{"name":"winningEntries","type":"uint256[]","indexed":false,"internalType":"uint256[]"},{"name":"payouts","type":"uint256[]","indexed":false,"internalType":"uint256[]"}],"anonymous":false},{"type":"event","name":"PrimaryMerkleRootUpdated","inputs":[{"name":"newRoot","type":"bytes32","indexed":false,"internalType":"bytes32"}],"anonymous":false},{"type":"event","name":"PrimaryPayoutClaimed","inputs":[{"name":"owner","type":"address","indexed":true,"internalType":"address"},{"name":"entryId","type":"uint256","indexed":true,"internalType":"uint256"},{"name":"amount","type":"uint256","indexed":false,"internalType":"uint256"}],"anonymous":false},{"type":"event","name":"PrimaryPositionAdded","inputs":[{"name":"owner","type":"address","indexed":true,"internalType":"address"},{"name":"entryId","type":"uint256","indexed":true,"internalType":"uint256"}],"anonymous":false},{"type":"event","name":"PrimaryPositionAdded","inputs":[{"name":"owner","type":"address","indexed":true,"internalType":"address"},{"name":"entryId","type":"uint256","indexed":true,"internalType":"uint256"}],"anonymous":false},{"type":"event","name":"PrimaryPositionRemoved","inputs":[{"name":"entryId","type":"uint256","indexed":true,"internalType":"uint256"},{"name":"owner","type":"address","indexed":true,"internalType":"address"}],"anonymous":false},{"type":"event","name":"PrimaryPositionRemoved","inputs":[{"name":"entryId","type":"uint256","indexed":true,"internalType":"uint256"},{"name":"owner","type":"address","indexed":true,"internalType":"address"}],"anonymous":false},{"type":"event","name":"SecondaryMerkleRootUpdated","inputs":[{"name":"newRoot","type":"bytes32","indexed":false,"internalType":"bytes32"}],"anonymous":false},{"type":"event","name":"SecondaryPayoutClaimed","inputs":[{"name":"participant","type":"address","indexed":true,"internalType":"address"},{"name":"entryId","type":"uint256","indexed":true,"internalType":"uint256"},{"name":"payout","type":"uint256","indexed":false,"internalType":"uint256"}],"anonymous":false},{"type":"event","name":"SecondaryPositionAdded","inputs":[{"name":"participant","type":"address","indexed":true,"internalType":"address"},{"name":"entryId","type":"uint256","indexed":true,"internalType":"uint256"},{"name":"amount","type":"uint256","indexed":false,"internalType":"uint256"},{"name":"participantTokensReceived","type":"uint256","indexed":false,"internalType":"uint256"}],"anonymous":false},{"type":"event","name":"SecondaryPositionAdded","inputs":[{"name":"participant","type":"address","indexed":true,"internalType":"address"},{"name":"entryId","type":"uint256","indexed":true,"internalType":"uint256"},{"name":"amount","type":"uint256","indexed":false,"internalType":"uint256"},{"name":"participantTokensReceived","type":"uint256","indexed":false,"internalType":"uint256"}],"anonymous":false},{"type":"event","name":"SecondaryPositionSold","inputs":[{"name":"participant","type":"address","indexed":true,"internalType":"address"},{"name":"entryId","type":"uint256","indexed":true,"internalType":"uint256"},{"name":"tokenAmount","type":"uint256","indexed":false,"internalType":"uint256"},{"name":"proceeds","type":"uint256","indexed":false,"internalType":"uint256"}],"anonymous":false},{"type":"event","name":"SecondaryPositionSold","inputs":[{"name":"participant","type":"address","indexed":true,"internalType":"address"},{"name":"entryId","type":"uint256","indexed":true,"internalType":"uint256"},{"name":"tokenAmount","type":"uint256","indexed":false,"internalType":"uint256"},{"name":"proceeds","type":"uint256","indexed":false,"internalType":"uint256"}],"anonymous":false},{"type":"event","name":"TransferBatch","inputs":[{"name":"operator","type":"address","indexed":true,"internalType":"address"},{"name":"from","type":"address","indexed":true,"internalType":"address"},{"name":"to","type":"address","indexed":true,"internalType":"address"},{"name":"ids","type":"uint256[]","indexed":false,"internalType":"uint256[]"},{"name":"amounts","type":"uint256[]","indexed":false,"internalType":"uint256[]"}],"anonymous":false},{"type":"event","name":"TransferSingle","inputs":[{"name":"operator","type":"address","indexed":true,"internalType":"address"},{"name":"from","type":"address","indexed":true,"internalType":"address"},{"name":"to","type":"address","indexed":true,"internalType":"address"},{"name":"id","type":"uint256","indexed":false,"internalType":"uint256"},{"name":"amount","type":"uint256","indexed":false,"internalType":"uint256"}],"anonymous":false},{"type":"event","name":"URI","inputs":[{"name":"value","type":"string","indexed":false,"internalType":"string"},{"name":"id","type":"uint256","indexed":true,"internalType":"uint256"}],"anonymous":false}],"bytecode":{"object":"0x6101403461032457601f613e6738819003918201601f19168301916001600160401b038311848410176103285780849260c094604052833981010312610324576100488161033c565b906100556020820161033c565b60408201516060830151608084015160a0909401516001600255949092906001600160a01b038116156102df576001600160a01b038216156102a9576103e88411610264574285111561022e5761271086116101e95760805260a05260c05260e052610100526101205260ff1960035416600355604051613b169081610351823960805181818161043f01528181610ac901528181610e9f01528181611055015281816113b2015281816115d801528181611a5801528181611c5101528181611e51015281816127fc0152612be9015260a05181818161069f01528181610c9d01528181610ff80152818161155701528181611bb801528181611c0b01528181611ccb0152818161216901528181612b9901528181612eb70152612fc0015260c0518181816109b9015281816118750152611921015260e051818181610e60015281816110800152818161137e0152818161213001526128c9015261010051818181610980015281816114990152818161159e0152611730015261012051818181610a7d015281816119e80152612e7e0152f35b60405162461bcd60e51b815260206004820152601460248201527f537562736964792062707320746f6f20686967680000000000000000000000006044820152606490fd5b60405162461bcd60e51b815260206004820152600e60248201526d115e1c1a5c9e481a5b881c185cdd60921b6044820152606490fd5b60405162461bcd60e51b815260206004820152601360248201527f4f7261636c652066656520746f6f2068696768000000000000000000000000006044820152606490fd5b60405162461bcd60e51b815260206004820152600e60248201526d496e76616c6964206f7261636c6560901b6044820152606490fd5b60405162461bcd60e51b815260206004820152601560248201527f496e76616c6964207061796d656e7420746f6b656e00000000000000000000006044820152606490fd5b5f80fd5b634e487b7160e01b5f52604160045260245ffd5b51906001600160a01b03821682036103245756fe6080806040526004361015610012575f80fd5b5f3560e01c908162fdd58e1461311d5750806301ffc9a7146130af5780630e89341c146130725780631db0e66714612faa57806324f9cc4c14612ea15780632da6a96714612e675780632eb2c2d614612c185780633013ce2914612bd45780633789a2fb14612b5c5780633a2babc214612b145780634034b060146127185780634e1273f4146126175780634ee837a6146125fa578063563930e7146121535780635c76fda7146121195780636932b382146120ef5780636c547767146120c557806374d3421414611d7c57806375f2500614611cb55780637680a51e146112465780637ae45fe314611be75780637dc0d1d014611ba35780637e8f123414611898578063933b12821461185e5780639455937a14610c2c57806395082d25146118415780639a9a5d9d14611824578063a01e4a1f1461171e578063a094c63214611545578063a22cb465146114bc578063ade6e2aa14611482578063ae4c8ba914611460578063af19e0d5146112d3578063af1d9197146112b6578063b30906d41461128d578063b48e94ce14611263578063b9937e3014611246578063bf6bbf0914611202578063c19d93fb146111d9578063c8d2270014610fc1578063c8d5c1b114610f97578063c9a496aa14610f2a578063d09685b014610f0d578063d6a74ce014610c63578063df1ef4c614610c31578063e08a1a4214610c2c578063e1a4521814610c10578063e1db226a146108fd578063e985e9c5146108a6578063ed4af81f14610889578063f242432a146106da578063fc8c28e1146106625763fed7632514610262575f80fd5b3461065e57606036600319011261065e576004356024356044356001600160401b03811161065e5761029b6102b89136906004016131ab565b906102aa6001600254146134a7565b6002805560115433906137fc565b60ff60035416600681101561064a57801590811561063f575b50156105f0575f828152600760205260409020546001600160a01b0316156105a1576102fe81151561377d565b815f52600b60205260405f2054815f82135f146105965761031e916139af565b801561053657825f52600c60205260405f2061033b8382546133cd565b9055825f52600b60205260405f20805490828201915f84841291129080158216911516176105225755826040518381528260208201527fa00dafed0dbb4c386c4a62b78c2bcbf149dcebfed234ad200c7e6631854d48b060403392a3335f52600e60205260405f20835f5260205260405f206103b88382546133cd565b9055604051926103c96020856132db565b5f8452335f525f60205260405f20815f5260205260405f206103ec8382546133cd565b90556040518181528260208201525f33917fc3d58168c5ae7397731d063d5bbf3d657854427343f4c083240f7aacaa2d0f6260403392a4333b61047357505061046c915061043b331515613468565b30337f00000000000000000000000000000000000000000000000000000000000000006001600160a01b0316613911565b6001600255005b906020916104b3604051958693849363f23a6e6160e01b85523360048601525f60248601526044850152606484015260a0608484015260a4830190613187565b03815f335af19182156105175761046c9261043b915f916104e8575b506001600160e01b03191663f23a6e6160e01b14613468565b61050a915060203d602011610510575b61050281836132db565b810190613428565b5f6104cf565b503d6104f8565b6040513d5f823e3d90fd5b634e487b7160e01b5f52601160045260245ffd5b60405162461bcd60e51b815260206004820152603260248201527f5061796d656e7420746f6f20736d616c6c3a20696e73756666696369656e7420604482015271746f20707572636861736520746f6b656e7360701b6064820152608490fd5b61031e91505f6139af565b60405162461bcd60e51b815260206004820152602160248201527f456e74727920646f6573206e6f74206578697374206f722077697468647261776044820152603760f91b6064820152608490fd5b60405162461bcd60e51b815260206004820152602160248201527f5365636f6e6461727920706f736974696f6e73206e6f7420617661696c61626c6044820152606560f81b6064820152608490fd5b60019150145f6102d1565b634e487b7160e01b5f52602160045260245ffd5b5f80fd5b3461065e57602036600319011261065e577f1f3ffb5a38f057a21fbb6b9c891954827a2657844fbc0ae99188cce46f059e2b60206004356106cd337f00000000000000000000000000000000000000000000000000000000000000006001600160a01b0316146132fc565b80600a55604051908152a1005b3461065e5760a036600319011261065e576106f361315b565b6106fb613171565b6064356044356084356001600160401b03811161065e576107209036906004016131db565b946001600160a01b0316903382148015610867575b61073e90613373565b815f525f60205260405f20835f5260205260405f2061075e8582546133c0565b905560018060a01b03851694855f525f60205260405f20845f5260205260405f2061078a8682546133cd565b905585836040518681528760208201527fc3d58168c5ae7397731d063d5bbf3d657854427343f4c083240f7aacaa2d0f6260403392a43b6107d757505050506107d591501515613468565b005b602094929161081b5f926040519889978896879563f23a6e6160e01b875233600488015260248701526044860152606485015260a0608485015260a4840191613448565b03925af18015610517576107d5915f9161084857506001600160e01b03191663f23a6e6160e01b14613468565b610861915060203d6020116105105761050281836132db565b826104cf565b505f82815260016020908152604080832033845290915290205460ff16610735565b3461065e575f36600319011261065e576020600a54604051908152f35b3461065e57604036600319011261065e576108bf61315b565b6108c7613171565b9060018060a01b03165f52600160205260405f209060018060a01b03165f52602052602060ff60405f2054166040519015158152f35b3461065e57604036600319011261065e576004356024356001600160401b03811161065e576109336109509136906004016131ab565b906109426001600254146134a7565b60028055600a5433906137fc565b60ff60035416600681101561064a57610bd8575f818152600760205260409020546001600160a01b0316610b9c577f0000000000000000000000000000000000000000000000000000000000000000421015610b6557805f52600660205260405f2054610b29577f00000000000000000000000000000000000000000000000000000000000000006005549168010000000000000000831015610b1557610a1c81610a0485600161046c97016005556132c3565b90919082549060031b91821b915f19901b1916179055565b805f52600760205260405f20336bffffffffffffffffffffffff60a01b82541617905580337f4a3a30e0139991c1b1492b4364701af9484bb9032a696c2b8c748a1e51f2fd175f80a3600554815f52600660205260405f2055612710610aa27f000000000000000000000000000000000000000000000000000000000000000084613518565b0490610ab9610ab183856133c0565b6008546133cd565b60085581610af6575b50309050337f00000000000000000000000000000000000000000000000000000000000000006001600160a01b0316613911565b5f52600d602052610b0c60405f209182546133cd565b90558280610ac2565b634e487b7160e01b5f52604160045260245ffd5b60405162461bcd60e51b8152602060048201526014602482015273456e74727920616c72656164792061637469766560601b6044820152606490fd5b60405162461bcd60e51b815260206004820152600f60248201526e10dbdb9d195cdd08195e1c1a5c9959608a1b6044820152606490fd5b60405162461bcd60e51b8152602060048201526014602482015273456e74727920616c72656164792065786973747360601b6044820152606490fd5b60405162461bcd60e51b815260206004820152601060248201526f21b7b73a32b9ba103737ba1037b832b760811b6044820152606490fd5b3461065e575f36600319011261065e5760206040516127108152f35b613258565b3461065e57602036600319011261065e576004355f526007602052602060018060a01b0360405f205416604051908152f35b3461065e57604036600319011261065e576004356001600160401b03811161065e57610c939036906004016131ab565b90602435610ccb337f00000000000000000000000000000000000000000000000000000000000000006001600160a01b0316146132fc565b610cd96001600254146134a7565b6002805560ff60035416600681101561064a576003610cf8911461358c565b610d0660ff601054166135ce565b610d13600f548214613610565b805f52600b602052610d2a60405f205415156134e0565b5f5b838110610d3a576001600255005b8082610d51610d4c60019488886133b0565b613578565b838060a01b03811690815f525f60205260405f20835f5260205260405f205480610d80575b5050505001610d2c565b835f52600b60205260405f2054845f52600c60205260405f20549080151580610f04575b15610efb57610db6610dbb9284613518565b61352b565b905b610dc881868561368b565b845f52600b602052610ddf60405f20918254613549565b9055825f52600e60205260405f20845f526020525f60408120558015610d76577fe256ef8b7b6eaeb621f7e7ca3b683f124df401cb260bbaccf0540299944b858a91610ec4602092865f52600c84528060405f205410155f14610ee957865f52600c845260405f20610e528282546133c0565b90555b610e8d612710610e857f000000000000000000000000000000000000000000000000000000000000000084613518565b0480926133c0565b92818492610ed4575b50898060a01b037f0000000000000000000000000000000000000000000000000000000000000000166136ed565b604051908152a382868080610d76565b610ee0906004546133cd565b6004558d610e96565b865f52600c84525f6040812055610e55565b50505f90610dbd565b50811515610da4565b3461065e575f36600319011261065e576020600554604051908152f35b3461065e57602036600319011261065e57600435600554811015610f6257610f536020916132c3565b90549060031b1c604051908152f35b60405162461bcd60e51b815260206004820152600d60248201526c092dcecc2d8d2c840d2dcc8caf609b1b6044820152606490fd5b3461065e57602036600319011261065e576004355f526009602052602060405f2054604051908152f35b3461065e57602036600319011261065e576004356001600160401b03811161065e57610ff19036906004016131ab565b90611026337f00000000000000000000000000000000000000000000000000000000000000006001600160a01b0316146132fc565b6110346001600254146134a7565b6002805560ff60035416600681101561064a576003611053911461358c565b7f00000000000000000000000000000000000000000000000000000000000000006001600160a01b0316917f0000000000000000000000000000000000000000000000000000000000000000905f5b8181106110b0576001600255005b6110bb8183866133b0565b355f818152600760205260409020546001600160a01b03169190821561119457600192815f52600960205260405f2054801561118c5760207e89742e8fcde5f6c48a17ec50347f2b2d98d85a17abe162b4cd552516f752dd91845f52600982525f60408120558060085410155f1461118357611139816008546133c0565b6008555b61114d612710610e858b84613518565b908061116e575b5061116081858d6136ed565b604051908152a35b016110a2565b61117a906004546133cd565b6004558b611154565b5f60085561113d565b505050611168565b60405162461bcd60e51b815260206004820152601a60248201527f456e7472792077697468647261776e206f7220696e76616c69640000000000006044820152606490fd5b3461065e575f36600319011261065e5760ff60035416604051600682101561064a576020918152f35b3461065e57604036600319011261065e576001600160a01b0361122361315b565b165f52600e60205260405f206024355f52602052602060405f2054604051908152f35b3461065e575f36600319011261065e576020600854604051908152f35b3461065e57602036600319011261065e576004355f52600c602052602060405f2054604051908152f35b3461065e57602036600319011261065e5760043560055481101561065e57610f536020916132c3565b3461065e575f36600319011261065e576020600f54604051908152f35b3461065e57602036600319011261065e576004356112f56001600254146134a7565b6002805560ff60035416600681101561064a57815f526009602052611321600360405f2054921461358c565b5f82815260076020526040902054611343906001600160a01b031633146137be565b1561142f575f818152600960205260408120805491905560085481116114265761136f816008546133c0565b6008555b6113a3612710610e857f000000000000000000000000000000000000000000000000000000000000000084613518565b9080611411575b506113df81337f00000000000000000000000000000000000000000000000000000000000000006001600160a01b03166136ed565b6040519081527e89742e8fcde5f6c48a17ec50347f2b2d98d85a17abe162b4cd552516f752dd60203392a36001600255005b61141d906004546133cd565b600455826113aa565b5f600855611373565b60405162461bcd60e51b8152602060048201526009602482015268139bc81c185e5bdd5d60ba1b6044820152606490fd5b3461065e575f36600319011261065e57602060ff601054166040519015158152f35b3461065e575f36600319011261065e5760206040517f00000000000000000000000000000000000000000000000000000000000000008152f35b3461065e57604036600319011261065e576114d561315b565b6024359081151580920361065e57335f52600160205260405f2060018060a01b0382165f5260205260405f2060ff1981541660ff841617905560405191825260018060a01b0316907f17307eab39ab6107e8899845ad3d59bd9653f200f220920489ca2b5937696c3160203392a3005b3461065e575f36600319011261065e577f000000000000000000000000000000000000000000000000000000000000000061158a336001600160a01b038316146132fc565b6115986001600254146134a7565b600280557f000000000000000000000000000000000000000000000000000000000000000042106116e4576040516370a0823160e01b81523060048201527f00000000000000000000000000000000000000000000000000000000000000006001600160a01b031691602082602481865afa918215610517575f926116b0575b5081611625576001600255005b5f6008555f6004555f5b60055481101561166d57806116456001926132c3565b90549060031b1c805f52600c6020525f60408120555f52600d6020525f60408120550161162f565b5061168492600560ff1960035416176003556136ed565b7fef19c40e684c836035e6598f5d86819dfec89371571efdeed7947339739711435f80a180808061046c565b9091506020813d6020116116dc575b816116cc602093836132db565b8101031261065e57519083611618565b3d91506116bf565b60405162461bcd60e51b8152602060048201526012602482015271115e1c1a5c9e481b9bdd081c995858da195960721b6044820152606490fd5b3461065e575f36600319011261065e577f000000000000000000000000000000000000000000000000000000000000000042106117f15760ff60035416600681101561064a57600381141590816117e5575b50156117ae57611788600460ff196003541617600355565b7f9237e8f0d5063a695b8695e82c82bc24d15591de9d04449771a6ea4b128317375f80a1005b60405162461bcd60e51b815260206004820152600f60248201526e105b1c9958591e481cd95d1d1b1959608a1b6044820152606490fd5b60059150141581611770565b60405162461bcd60e51b815260206004820152600b60248201526a139bdd08195e1c1a5c995960aa1b6044820152606490fd5b3461065e575f36600319011261065e576020601154604051908152f35b3461065e575f36600319011261065e576020604051620f42408152f35b3461065e575f36600319011261065e5760206040517f00000000000000000000000000000000000000000000000000000000000000008152f35b3461065e57602036600319011261065e576004356118ba6001600254146134a7565b6002805560ff60035416600681101561064a578015908115611b98575b5015611b3a575f818152600760205260409020546118ff906001600160a01b031633146137be565b5f8181526007602052604080822080546001600160a01b0319811690915590517f00000000000000000000000000000000000000000000000000000000000000009290916001600160a01b03169084907fa11660be5ca5ef93a56a1f22e4de3d92bcb1727897a5e70a7262c26e256f3a409080a3825f52600660205260405f2054908115611b0557505f198101818111610522576005545f19810190811161052257808203611ad2575b5050506005548015611abe575f19016119c1816132c3565b8154905f199060031b1b19169055600555815f5260066020525f6040812055612710611a0d7f000000000000000000000000000000000000000000000000000000000000000083613518565b04611a23611a1b82846133c0565b6008546133c0565b600855825f52600d6020528060405f205410611a855761046c925f52600d602052611a5360405f209182546133c0565b9055337f00000000000000000000000000000000000000000000000000000000000000006001600160a01b03166136ed565b60405162461bcd60e51b81526020600482015260116024820152705375627369647920756e646572666c6f7760781b6044820152606490fd5b634e487b7160e01b5f52603160045260245ffd5b610a0491611ae2611af1926132c3565b90549060031b1c9283916132c3565b5f52600660205260405f20558280806119a9565b62461bcd60e51b815260206004820152601060248201526f456e747279206e6f742061637469766560801b6044820152606490fd5b60405162461bcd60e51b815260206004820152603060248201527f43616e6e6f74207769746864726177202d20636f6e7465737420696e2070726f60448201526f19dc995cdcc81bdc881cd95d1d1b195960821b6064820152608490fd5b6004915014826118d7565b3461065e575f36600319011261065e576040517f00000000000000000000000000000000000000000000000000000000000000006001600160a01b03168152602090f35b3461065e575f36600319011261065e57611c056001600254146134a7565b600280557f0000000000000000000000000000000000000000000000000000000000000000611c3e336001600160a01b038316146132fc565b6004548015611c7e575f60045561046c917f00000000000000000000000000000000000000000000000000000000000000006001600160a01b03166136ed565b60405162461bcd60e51b815260206004820152600f60248201526e4e6f2066656520746f20636c61696d60881b6044820152606490fd5b3461065e575f36600319011261065e57611cf9337f00000000000000000000000000000000000000000000000000000000000000006001600160a01b0316146132fc565b60ff60035416600681101561064a57600103611d4257600260ff1960035416176003557fca4f15905dfed40aa7885e1be889ff7da045bd49fc916c3a40cf8b0a3db7636a5f80a1005b60405162461bcd60e51b8152602060048201526012602482015271436f6e74657374206e6f742061637469766560701b6044820152606490fd5b3461065e57604036600319011261065e57600435602435611da16001600254146134a7565b60028055335f525f60205260405f20825f5260205260405f20549060ff60035416600681101561064a5780159081156120ba575b501561205c575f838152600760205260409020546001600160a01b03161561202057611e0281151561377d565b808210611fe457825f52600b602052611e3a60405f2054611e248115156134e0565b845f52600c602052610db660405f205484613518565b6040516370a0823160e01b815230600482015290927f00000000000000000000000000000000000000000000000000000000000000006001600160a01b03169290602083602481875afa80156105175786935f91611faf575b50808611611fa7575b50335f52600e60205260405f20835f5260205260405f205480611f72575b5050611ec781833361368b565b815f52600b60205260405f20611ede828254613549565b90556040519081528360208201527fa2b936e19d2f391e984b3c8722e0e0a30ef1b73581371ed847624152e65d16f560403392a381611f1e576001600255005b82611f58935f52600c6020528260405f205410155f14611f60575f52600c60205260405f20611f4e8382546133c0565b90555b33906136ed565b80808061046c565b5f52600c6020525f6040812055611f51565b611f83611f8992610db68584613518565b906133c0565b335f52600e60205260405f20835f5260205260405f20558580611eba565b945086611e9c565b9350506020833d602011611fdc575b81611fcb602093836132db565b8101031261065e5785925187611e93565b3d9150611fbe565b60405162461bcd60e51b8152602060048201526014602482015273496e73756666696369656e742062616c616e636560601b6044820152606490fd5b60405162461bcd60e51b8152602060048201526014602482015273115b9d1c9e48191bd95cc81b9bdd08195e1a5cdd60621b6044820152606490fd5b60405162461bcd60e51b815260206004820152603060248201527f43616e6e6f74207769746864726177202d20636f6d7065746974696f6e20737460448201526f185c9d1959081bdc881cd95d1d1b195960821b6064820152608490fd5b600491501484611dd5565b3461065e57602036600319011261065e576004355f52600d602052602060405f2054604051908152f35b3461065e57602036600319011261065e576004355f52600b602052602060405f2054604051908152f35b3461065e575f36600319011261065e5760206040517f00000000000000000000000000000000000000000000000000000000000000008152f35b3461065e5761216136613208565b9291612197337f00000000000000000000000000000000000000000000000000000000000000006001600160a01b0316146132fc565b6121a56001600254146134a7565b6002805560ff60035416600681101561064a57600181149081156125ef575b50156125aa578015612565578381036125285760055481116124f0575f805b85821061247a5761271091500361243557600360ff19815416176003556008545f5b82811061240157505082359283600f55600160ff1960105416176010555f925f5b600554811015612292578061227061223f6001936132c3565b90549060031b1c96875f52600c60205261226a60405f2054895f52600d60205260405f2054906133cd565b906133cd565b95805f52600c6020525f60408120555f52600d6020525f604081205501612226565b50848694600f545f52600c60205260405f2055600f54805f52600b60205260405f205490805f52600c60205260405f20549182151590816123f8575b50612313575b5050507f0fed27f5e3cd741c181cc0d3b0c47df2013638faa8b7aa7084de3946098eb78e9361230991604051948594856133fe565b0390a16001600255005b5f52600c6020525f60408120555f805b868110612393575091818361230995937f0fed27f5e3cd741c181cc0d3b0c47df2013638faa8b7aa7084de3946098eb78e999510612369575b50508296508193506122d4565b612372916133c0565b905f52600960205261238960405f209182546133cd565b905586808061235c565b9061239f8288886133b0565b35916127106123b96123b2838c8a6133b0565b3586613518565b04806123cc575b50600191925001612323565b6123d8816001946133cd565b935f5260096020526123ef60405f209182546133cd565b905582916123c0565b905015886122ce565b8061240f60019285886133b0565b356127106124216123b2848b8a6133b0565b04905f52600960205260405f205501612205565b60405162461bcd60e51b815260206004820152601860248201527f5061796f757473206d7573742073756d20746f203130302500000000000000006044820152606490fd5b6124858287866133b0565b35156124ab576124a360019161249c8489886133b0565b35906133cd565b9101906121e3565b60405162461bcd60e51b815260206004820152601960248201527f557365206e6f6e2d7a65726f207061796f757473206f6e6c79000000000000006044820152606490fd5b60405162461bcd60e51b815260206004820152601060248201526f546f6f206d616e792077696e6e65727360801b6044820152606490fd5b60405162461bcd60e51b8152602060048201526015602482015274082e4e4c2f240d8cadccee8d040dad2e6dac2e8c6d605b1b6044820152606490fd5b60405162461bcd60e51b815260206004820152601d60248201527f4d7573742068617665206174206c65617374206f6e652077696e6e65720000006044820152606490fd5b60405162461bcd60e51b815260206004820152601c60248201527f436f6e74657374206e6f7420616374697665206f72206c6f636b6564000000006044820152606490fd5b6002915014856121c4565b3461065e575f36600319011261065e576020600454604051908152f35b3461065e5761262536613208565b929190612633848314613335565b61263c82613561565b9361264a60405195866132db565b82855261265683613561565b602086019490601f19013686375f5b8481106126b0578587604051918291602083019060208452518091526040830191905f5b818110612697575050500390f35b8251845285945060209384019390920191600101612689565b6001600160a01b036126c6610d4c8388866133b0565b165f525f60205260405f206126dc8285876133b0565b355f5260205260405f20549087518110156127045760019160208260051b8a01015201612665565b634e487b7160e01b5f52603260045260245ffd5b3461065e57602036600319011261065e5760043561273a6001600254146134a7565b60028055335f525f60205260405f20815f5260205260405f205460ff60035416600681101561064a5761278b9061278460ff6010541661277f6003600f54941461358c565b6135ce565b8314613610565b5f828152600760205260409020546001600160a01b031615612ac1578015612a9057815f52600b60205260405f20546127c58115156134e0565b5f838152600c6020526040902054908115612a8857610db66127e79284613518565b6040516370a0823160e01b81523060048201527f00000000000000000000000000000000000000000000000000000000000000006001600160a01b03169290919081602084602481885afa9081156105175786945f92612a51575b508110612a49575b5061285681843361368b565b825f52600b60205261286d60405f20918254613549565b9055335f52600e60205260405f20825f526020525f60408120558015155f14612a17575f828152600c60205260409020548111612a0457815f52600c60205260405f206128bb8282546133c0565b90555b6128ee612710610e857f000000000000000000000000000000000000000000000000000000000000000084613518565b90806129ef575b506129018133856136ed565b6040519081527fe256ef8b7b6eaeb621f7e7ca3b683f124df401cb260bbaccf0540299944b858a60203392a35b815f52600b60205260405f205415612947576001600255005b6040516370a0823160e01b8152306004820152602081602481855afa908115610517575f916129bd575b50600454808211156129b457612986916133c0565b905b81612994575b5061046c565b6129ac925f52600c6020525f604081205533906136ed565b80808061298e565b50505f90612988565b90506020813d6020116129e7575b816129d8602093836132db565b8101031261065e575183612971565b3d91506129cb565b6129fb906004546133cd565b600455846128f5565b815f52600c6020525f60408120556128be565b506040515f81527fe256ef8b7b6eaeb621f7e7ca3b683f124df401cb260bbaccf0540299944b858a60203392a361292e565b91508561284a565b945090506020843d602011612a80575b81612a6e602093836132db565b8101031261065e578593519087612842565b3d9150612a61565b50505f6127e7565b60405162461bcd60e51b81526020600482015260096024820152684e6f20746f6b656e7360b81b6044820152606490fd5b60405162461bcd60e51b815260206004820152602560248201527f456e74727920646f6573206e6f74206578697374206f72207761732077697468604482015264323930bbb760d91b6064820152608490fd5b3461065e57602036600319011261065e576004355f52600b60205260405f20545f81135f14612b5057612b48602091613650565b604051908152f35b506020612b485f613650565b3461065e57602036600319011261065e577fa2877b861a6a177d8c1a4430a6f8716104652f70e5c8fbd58aa775ef96da4a526020600435612bc7337f00000000000000000000000000000000000000000000000000000000000000006001600160a01b0316146132fc565b80601155604051908152a1005b3461065e575f36600319011261065e576040517f00000000000000000000000000000000000000000000000000000000000000006001600160a01b03168152602090f35b3461065e5760a036600319011261065e57612c3161315b565b612c39613171565b6044356001600160401b03811161065e57612c589036906004016131ab565b926064356001600160401b03811161065e57612c789036906004016131ab565b91906084356001600160401b03811161065e57612c999036906004016131db565b919092612ca7858914613335565b6001600160a01b0316933385148015612e45575b612cc490613373565b6001600160a01b038716965f5b898110612ddf57508786887f4a39dc06d4c0dbc64b70af90fd698a233a518aa5d07e595d983b8c0526c8f7fb868d612d11886040519384933397856133fe565b0390a43b612d2b575050505050506107d591501515613468565b612d6e97935f93612d806020999794612d92946040519c8d9b8c9a8b9963bc197c8160e01b8b523360048c015260248b015260a060448b015260a48a01916133da565b878103600319016064890152916133da565b84810360031901608486015291613448565b03925af18015610517576107d5915f91612dc0575b506001600160e01b03191663bc197c8160e01b14613468565b612dd9915060203d6020116105105761050281836132db565b82612da7565b80612ded6001928c8b6133b0565b35612df98286886133b0565b3590895f525f60205260405f20815f5260205260405f20612e1b8382546133c0565b90558b5f525f60205260405f20905f52602052612e3d60405f209182546133cd565b905501612cd1565b505f85815260016020908152604080832033845290915290205460ff16612cbb565b3461065e575f36600319011261065e5760206040517f00000000000000000000000000000000000000000000000000000000000000008152f35b3461065e575f36600319011261065e57612ee5337f00000000000000000000000000000000000000000000000000000000000000006001600160a01b0316146132fc565b60ff60035416600681101561064a57612f655760055415612f3357600160ff1960035416176003557f3927b788a62eb53f7192cd9286f49295f01b938b6afc23aef0af5d035cd853165f80a1005b60405162461bcd60e51b815260206004820152600a6024820152694e6f20656e747269657360b01b6044820152606490fd5b60405162461bcd60e51b815260206004820152601760248201527f436f6e7465737420616c726561647920737461727465640000000000000000006044820152606490fd5b3461065e575f36600319011261065e57612fee337f00000000000000000000000000000000000000000000000000000000000000006001600160a01b0316146132fc565b60ff60035416600681101561064a5760038114159081613066575b501561302157611788600460ff196003541617600355565b60405162461bcd60e51b815260206004820152601f60248201527f436f6e7465737420736574746c6564202d2063616e6e6f742063616e63656c006044820152606490fd5b60059150141581613009565b3461065e57602036600319011261065e576130ab6040516130946020826132db565b5f8152604051918291602083526020830190613187565b0390f35b3461065e57602036600319011261065e5760043563ffffffff60e01b811680910361065e576020906301ffc9a760e01b811490811561310c575b81156130fb575b506040519015158152f35b6303a24d0760e21b149050826130f0565b636cdb3d1360e11b811491506130e9565b3461065e57604036600319011261065e576020906001600160a01b0361314161315b565b165f525f825260405f206024355f52825260405f20548152f35b600435906001600160a01b038216820361065e57565b602435906001600160a01b038216820361065e57565b805180835260209291819084018484015e5f828201840152601f01601f1916010190565b9181601f8401121561065e578235916001600160401b03831161065e576020808501948460051b01011161065e57565b9181601f8401121561065e578235916001600160401b03831161065e576020838186019501011161065e57565b604060031982011261065e576004356001600160401b03811161065e5781613232916004016131ab565b92909291602435906001600160401b03821161065e57613254916004016131ab565b9091565b3461065e575f36600319011261065e575f806005545b80831061328057602082604051908152f35b906132ba60019161226a613293866132c3565b90549060031b1c805f52600c60205260405f2054905f52600d60205260405f2054906133cd565b9201919061326e565b6005548110156127045760055f5260205f2001905f90565b90601f801991011681019081106001600160401b03821117610b1557604052565b1561330357565b60405162461bcd60e51b815260206004820152600a6024820152694e6f74206f7261636c6560b01b6044820152606490fd5b1561333c57565b60405162461bcd60e51b815260206004820152600f60248201526e0988a9c8ea890be9a92a69a82a8869608b1b6044820152606490fd5b1561337a57565b60405162461bcd60e51b815260206004820152600e60248201526d1393d517d055551213d49256915160921b6044820152606490fd5b91908110156127045760051b0190565b9190820391821161052257565b9190820180921161052257565b81835290916001600160fb1b03831161065e5760209260051b809284830137010190565b92906134179061342595936040865260408601916133da565b9260208185039101526133da565b90565b9081602091031261065e57516001600160e01b03198116810361065e5790565b908060209392818452848401375f828201840152601f01601f1916010190565b1561346f57565b60405162461bcd60e51b815260206004820152601060248201526f155394d0519157d49150d2541251539560821b6044820152606490fd5b156134ae57565b60405162461bcd60e51b815260206004820152600a6024820152695245454e5452414e435960b01b6044820152606490fd5b156134e757565b60405162461bcd60e51b81526020600482015260096024820152684e6f20737570706c7960b81b6044820152606490fd5b8181029291811591840414171561052257565b8115613535570490565b634e487b7160e01b5f52601260045260245ffd5b81810392915f13801582851316918412161761052257565b6001600160401b038111610b155760051b60200190565b356001600160a01b038116810361065e5790565b1561359357565b60405162461bcd60e51b815260206004820152601360248201527210dbdb9d195cdd081b9bdd081cd95d1d1b1959606a1b6044820152606490fd5b156135d557565b60405162461bcd60e51b815260206004820152601360248201527213585c9ad95d081b9bdd081c995cdbdb1d9959606a1b6044820152606490fd5b1561361757565b60405162461bcd60e51b81526020600482015260116024820152704e6f742077696e6e696e6720656e74727960781b6044820152606490fd5b633b9aca00613660910480613518565b8080046001148115171561052257670de0b6b3a76400009004620f42400180620f4240116105225790565b905f929160018060a01b0316918284528360205260408420828552602052604084206136b88282546133c0565b905560405191825260208201527fc3d58168c5ae7397731d063d5bbf3d657854427343f4c083240f7aacaa2d0f6260403392a4565b60405163a9059cbb60e01b81526001600160a01b03909216600483015260248201929092526020905f9060449082855af19081601f3d1160015f5114161516613770575b501561373957565b60405162461bcd60e51b815260206004820152600f60248201526e1514905394d1915497d19052531151608a1b6044820152606490fd5b3b153d171590505f613731565b1561378457565b60405162461bcd60e51b81526020600482015260126024820152710416d6f756e74206d757374206265203e20360741b6044820152606490fd5b156137c557565b60405162461bcd60e51b815260206004820152600f60248201526e2737ba1032b73a393c9037bbb732b960891b6044820152606490fd5b9291908361380b575b50505050565b60405160208101916bffffffffffffffffffffffff199060601b168252601481526138376034826132db565b51902061384383613561565b9161385160405193846132db565b83835260208301809460051b82019136831161065e57905b8282106139015750505090805192836138cb575b505090500361388f575f808080613805565b60405162461bcd60e51b815260206004820152601460248201527324b73b30b634b21036b2b935b63290383937b7b360611b6044820152606490fd5b9260051b01602001905b8251811160051b90815260208351911852602060405f209201918183106138d557915050805f8061387d565b8135815260209182019101613869565b6040516323b872dd60e01b81526001600160a01b03928316600482015292909116602483015260448201929092526020905f9060649082855af19081601f3d1160015f51141615166139a2575b501561396657565b60405162461bcd60e51b81526020600482015260146024820152731514905394d1915497d19493d357d1905253115160621b6044820152606490fd5b3b153d171590505f61395e565b8115613a5d576139be81613650565b620f4240830290838204620f424003610522576139da9161352b565b918260011c928060011b908082046002149015171561052257905f925b60328410613a07575b5050505090565b909192936001810180821161052257841115613a5757613a2784826133cd565b60011c9083613a368385613a63565b1015613a4b5750600190945b019291906139f7565b94935060019093613a42565b93613a00565b50505f90565b908015613a5d57613a7490826133cd565b90613a7f82826133cd565b60011c613aa7613a97613a9184613650565b92613650565b92613aa185613650565b946133c0565b906001600160fe1b038316830361052257625b8d8093613ad1613ad692613adc9560021b906133cd565b6133cd565b90613518565b049056fea2646970667358221220c9dcf8777dd3c74d83c559aa1680b33127cfa2246974f1bf002e7c543ed4fbeb64736f6c634300081a0033","linkReferences":{}},"methodIdentifiers":{"BPS_DENOMINATOR()":"e1a45218","PRICE_PRECISION()":"95082d25","accumulatedOracleFee()":"4ee837a6","activateContest()":"24f9cc4c","addPrimaryPosition(uint256,bytes32[])":"e1db226a","addSecondaryPosition(uint256,uint256,bytes32[])":"fed76325","balanceOf(address,uint256)":"00fdd58e","balanceOfBatch(address[],uint256[])":"4e1273f4","calculateSecondaryPrice(uint256)":"3a2babc2","cancelContest()":"1db0e667","cancelExpired()":"a01e4a1f","claimOracleFee()":"7ae45fe3","claimPrimaryPayout(uint256)":"af19e0d5","claimSecondaryPayout(uint256)":"4034b060","closeContest()":"a094c632","entries(uint256)":"b30906d4","entryOwner(uint256)":"df1ef4c6","expiryTimestamp()":"ade6e2aa","getEntriesCount()":"d09685b0","getEntryAtIndex(uint256)":"c9a496aa","getPrimarySideBalance()":"7680a51e","getSecondarySideBalance()":"9455937a","isApprovedForAll(address,address)":"e985e9c5","lockContest()":"75f25006","netPosition(uint256)":"6932b382","oracle()":"7dc0d1d0","oracleFeeBps()":"5c76fda7","paymentToken()":"3013ce29","primaryDepositAmount()":"933b1282","primaryDepositSecondarySubsidyBps()":"2da6a967","primaryMerkleRoot()":"ed4af81f","primaryPrizePool()":"b9937e30","primaryPrizePoolPayouts(uint256)":"c8d5c1b1","pushPrimaryPayouts(uint256[])":"c8d22700","pushSecondaryPayouts(address[],uint256)":"d6a74ce0","removePrimaryPosition(uint256)":"7e8f1234","removeSecondaryPosition(uint256,uint256)":"74d34214","safeBatchTransferFrom(address,address,uint256[],uint256[],bytes)":"2eb2c2d6","safeTransferFrom(address,address,uint256,uint256,bytes)":"f242432a","secondaryDepositedPerEntry(address,uint256)":"bf6bbf09","secondaryLiquidityPerEntry(uint256)":"b48e94ce","secondaryMarketResolved()":"ae4c8ba9","secondaryMerkleRoot()":"9a9a5d9d","secondaryPrimarySubsidyPerEntry(uint256)":"6c547767","secondaryWinningEntry()":"af1d9197","setApprovalForAll(address,bool)":"a22cb465","setPrimaryMerkleRoot(bytes32)":"fc8c28e1","setSecondaryMerkleRoot(bytes32)":"3789a2fb","settleContest(uint256[],uint256[])":"563930e7","state()":"c19d93fb","supportsInterface(bytes4)":"01ffc9a7","totalSecondaryLiquidity()":"e08a1a42","uri(uint256)":"0e89341c"},"id":1}