{"abi":[{"type":"constructor","inputs":[{"name":"_paymentToken","type":"address","internalType":"address"},{"name":"_oracle","type":"address","internalType":"address"},{"name":"_primaryDepositAmount","type":"uint256","internalType":"uint256"},{"name":"_oracleFeeBps","type":"uint256","internalType":"uint256"},{"name":"_expiryTimestamp","type":"uint256","internalType":"uint256"},{"name":"_positionBonusShareBps","type":"uint256","internalType":"uint256"},{"name":"_targetPrimaryShareBps","type":"uint256","internalType":"uint256"},{"name":"_maxCrossSubsidyBps","type":"uint256","internalType":"uint256"}],"stateMutability":"nonpayable"},{"type":"function","name":"BPS_DENOMINATOR","inputs":[],"outputs":[{"name":"","type":"uint256","internalType":"uint256"}],"stateMutability":"view"},{"type":"function","name":"PRICE_PRECISION","inputs":[],"outputs":[{"name":"","type":"uint256","internalType":"uint256"}],"stateMutability":"view"},{"type":"function","name":"accumulatedOracleFee","inputs":[],"outputs":[{"name":"","type":"uint256","internalType":"uint256"}],"stateMutability":"view"},{"type":"function","name":"activateContest","inputs":[],"outputs":[],"stateMutability":"nonpayable"},{"type":"function","name":"addPrimaryPosition","inputs":[{"name":"entryId","type":"uint256","internalType":"uint256"},{"name":"merkleProof","type":"bytes32[]","internalType":"bytes32[]"}],"outputs":[],"stateMutability":"nonpayable"},{"type":"function","name":"addSecondaryPosition","inputs":[{"name":"entryId","type":"uint256","internalType":"uint256"},{"name":"amount","type":"uint256","internalType":"uint256"},{"name":"merkleProof","type":"bytes32[]","internalType":"bytes32[]"}],"outputs":[],"stateMutability":"nonpayable"},{"type":"function","name":"balanceOf","inputs":[{"name":"","type":"address","internalType":"address"},{"name":"","type":"uint256","internalType":"uint256"}],"outputs":[{"name":"","type":"uint256","internalType":"uint256"}],"stateMutability":"view"},{"type":"function","name":"balanceOfBatch","inputs":[{"name":"owners","type":"address[]","internalType":"address[]"},{"name":"ids","type":"uint256[]","internalType":"uint256[]"}],"outputs":[{"name":"balances","type":"uint256[]","internalType":"uint256[]"}],"stateMutability":"view"},{"type":"function","name":"calculateSecondaryPrice","inputs":[{"name":"entryId","type":"uint256","internalType":"uint256"}],"outputs":[{"name":"","type":"uint256","internalType":"uint256"}],"stateMutability":"view"},{"type":"function","name":"cancelContest","inputs":[],"outputs":[],"stateMutability":"nonpayable"},{"type":"function","name":"cancelExpired","inputs":[],"outputs":[],"stateMutability":"nonpayable"},{"type":"function","name":"claimOracleFee","inputs":[],"outputs":[],"stateMutability":"nonpayable"},{"type":"function","name":"claimPrimaryPayout","inputs":[{"name":"entryId","type":"uint256","internalType":"uint256"}],"outputs":[],"stateMutability":"nonpayable"},{"type":"function","name":"claimSecondaryPayout","inputs":[{"name":"entryId","type":"uint256","internalType":"uint256"}],"outputs":[],"stateMutability":"nonpayable"},{"type":"function","name":"closeContest","inputs":[],"outputs":[],"stateMutability":"nonpayable"},{"type":"function","name":"entries","inputs":[{"name":"","type":"uint256","internalType":"uint256"}],"outputs":[{"name":"","type":"uint256","internalType":"uint256"}],"stateMutability":"view"},{"type":"function","name":"entryCollateral","inputs":[{"name":"","type":"uint256","internalType":"uint256"}],"outputs":[{"name":"","type":"uint256","internalType":"uint256"}],"stateMutability":"view"},{"type":"function","name":"entryOwner","inputs":[{"name":"","type":"uint256","internalType":"uint256"}],"outputs":[{"name":"","type":"address","internalType":"address"}],"stateMutability":"view"},{"type":"function","name":"expiryTimestamp","inputs":[],"outputs":[{"name":"","type":"uint256","internalType":"uint256"}],"stateMutability":"view"},{"type":"function","name":"getEntriesCount","inputs":[],"outputs":[{"name":"","type":"uint256","internalType":"uint256"}],"stateMutability":"view"},{"type":"function","name":"getEntryAtIndex","inputs":[{"name":"index","type":"uint256","internalType":"uint256"}],"outputs":[{"name":"","type":"uint256","internalType":"uint256"}],"stateMutability":"view"},{"type":"function","name":"getPrimarySideBalance","inputs":[],"outputs":[{"name":"","type":"uint256","internalType":"uint256"}],"stateMutability":"view"},{"type":"function","name":"getPrimarySideShareBps","inputs":[],"outputs":[{"name":"","type":"uint256","internalType":"uint256"}],"stateMutability":"view"},{"type":"function","name":"getSecondarySideBalance","inputs":[],"outputs":[{"name":"","type":"uint256","internalType":"uint256"}],"stateMutability":"view"},{"type":"function","name":"isApprovedForAll","inputs":[{"name":"","type":"address","internalType":"address"},{"name":"","type":"address","internalType":"address"}],"outputs":[{"name":"","type":"bool","internalType":"bool"}],"stateMutability":"view"},{"type":"function","name":"lockContest","inputs":[],"outputs":[],"stateMutability":"nonpayable"},{"type":"function","name":"maxCrossSubsidyBps","inputs":[],"outputs":[{"name":"","type":"uint256","internalType":"uint256"}],"stateMutability":"view"},{"type":"function","name":"netPosition","inputs":[{"name":"","type":"uint256","internalType":"uint256"}],"outputs":[{"name":"","type":"int256","internalType":"int256"}],"stateMutability":"view"},{"type":"function","name":"oracle","inputs":[],"outputs":[{"name":"","type":"address","internalType":"address"}],"stateMutability":"view"},{"type":"function","name":"oracleFeeBps","inputs":[],"outputs":[{"name":"","type":"uint256","internalType":"uint256"}],"stateMutability":"view"},{"type":"function","name":"paymentToken","inputs":[],"outputs":[{"name":"","type":"address","internalType":"address"}],"stateMutability":"view"},{"type":"function","name":"positionBonusShareBps","inputs":[],"outputs":[{"name":"","type":"uint256","internalType":"uint256"}],"stateMutability":"view"},{"type":"function","name":"primaryDepositAmount","inputs":[],"outputs":[{"name":"","type":"uint256","internalType":"uint256"}],"stateMutability":"view"},{"type":"function","name":"primaryMerkleRoot","inputs":[],"outputs":[{"name":"","type":"bytes32","internalType":"bytes32"}],"stateMutability":"view"},{"type":"function","name":"primaryPositionSubsidy","inputs":[{"name":"","type":"uint256","internalType":"uint256"}],"outputs":[{"name":"","type":"uint256","internalType":"uint256"}],"stateMutability":"view"},{"type":"function","name":"primaryPrizePool","inputs":[],"outputs":[{"name":"","type":"uint256","internalType":"uint256"}],"stateMutability":"view"},{"type":"function","name":"primaryPrizePoolPayouts","inputs":[{"name":"","type":"uint256","internalType":"uint256"}],"outputs":[{"name":"","type":"uint256","internalType":"uint256"}],"stateMutability":"view"},{"type":"function","name":"primaryPrizePoolSubsidy","inputs":[],"outputs":[{"name":"","type":"uint256","internalType":"uint256"}],"stateMutability":"view"},{"type":"function","name":"primaryToSecondarySubsidy","inputs":[{"name":"","type":"uint256","internalType":"uint256"}],"outputs":[{"name":"","type":"uint256","internalType":"uint256"}],"stateMutability":"view"},{"type":"function","name":"pushPrimaryPayouts","inputs":[{"name":"entryIds","type":"uint256[]","internalType":"uint256[]"}],"outputs":[],"stateMutability":"nonpayable"},{"type":"function","name":"pushSecondaryPayouts","inputs":[{"name":"participantAddresses","type":"address[]","internalType":"address[]"},{"name":"entryId","type":"uint256","internalType":"uint256"}],"outputs":[],"stateMutability":"nonpayable"},{"type":"function","name":"removePrimaryPosition","inputs":[{"name":"entryId","type":"uint256","internalType":"uint256"}],"outputs":[],"stateMutability":"nonpayable"},{"type":"function","name":"removeSecondaryPosition","inputs":[{"name":"entryId","type":"uint256","internalType":"uint256"},{"name":"tokenAmount","type":"uint256","internalType":"uint256"}],"outputs":[],"stateMutability":"nonpayable"},{"type":"function","name":"safeBatchTransferFrom","inputs":[{"name":"from","type":"address","internalType":"address"},{"name":"to","type":"address","internalType":"address"},{"name":"ids","type":"uint256[]","internalType":"uint256[]"},{"name":"amounts","type":"uint256[]","internalType":"uint256[]"},{"name":"data","type":"bytes","internalType":"bytes"}],"outputs":[],"stateMutability":"nonpayable"},{"type":"function","name":"safeTransferFrom","inputs":[{"name":"from","type":"address","internalType":"address"},{"name":"to","type":"address","internalType":"address"},{"name":"id","type":"uint256","internalType":"uint256"},{"name":"amount","type":"uint256","internalType":"uint256"},{"name":"data","type":"bytes","internalType":"bytes"}],"outputs":[],"stateMutability":"nonpayable"},{"type":"function","name":"secondaryDepositedPerEntry","inputs":[{"name":"","type":"address","internalType":"address"},{"name":"","type":"uint256","internalType":"uint256"}],"outputs":[{"name":"","type":"uint256","internalType":"uint256"}],"stateMutability":"view"},{"type":"function","name":"secondaryMarketResolved","inputs":[],"outputs":[{"name":"","type":"bool","internalType":"bool"}],"stateMutability":"view"},{"type":"function","name":"secondaryMerkleRoot","inputs":[],"outputs":[{"name":"","type":"bytes32","internalType":"bytes32"}],"stateMutability":"view"},{"type":"function","name":"secondaryPrizePool","inputs":[],"outputs":[{"name":"","type":"uint256","internalType":"uint256"}],"stateMutability":"view"},{"type":"function","name":"secondaryPrizePoolSubsidy","inputs":[],"outputs":[{"name":"","type":"uint256","internalType":"uint256"}],"stateMutability":"view"},{"type":"function","name":"secondaryToPrimarySubsidy","inputs":[{"name":"","type":"address","internalType":"address"},{"name":"","type":"uint256","internalType":"uint256"}],"outputs":[{"name":"","type":"uint256","internalType":"uint256"}],"stateMutability":"view"},{"type":"function","name":"secondaryWinningEntry","inputs":[],"outputs":[{"name":"","type":"uint256","internalType":"uint256"}],"stateMutability":"view"},{"type":"function","name":"setApprovalForAll","inputs":[{"name":"operator","type":"address","internalType":"address"},{"name":"approved","type":"bool","internalType":"bool"}],"outputs":[],"stateMutability":"nonpayable"},{"type":"function","name":"setPrimaryMerkleRoot","inputs":[{"name":"_root","type":"bytes32","internalType":"bytes32"}],"outputs":[],"stateMutability":"nonpayable"},{"type":"function","name":"setSecondaryMerkleRoot","inputs":[{"name":"_root","type":"bytes32","internalType":"bytes32"}],"outputs":[],"stateMutability":"nonpayable"},{"type":"function","name":"settleContest","inputs":[{"name":"winningEntries","type":"uint256[]","internalType":"uint256[]"},{"name":"payoutBps","type":"uint256[]","internalType":"uint256[]"}],"outputs":[],"stateMutability":"nonpayable"},{"type":"function","name":"state","inputs":[],"outputs":[{"name":"","type":"uint8","internalType":"enum ContestController.ContestState"}],"stateMutability":"view"},{"type":"function","name":"supportsInterface","inputs":[{"name":"interfaceId","type":"bytes4","internalType":"bytes4"}],"outputs":[{"name":"","type":"bool","internalType":"bool"}],"stateMutability":"view"},{"type":"function","name":"targetPrimaryShareBps","inputs":[],"outputs":[{"name":"","type":"uint256","internalType":"uint256"}],"stateMutability":"view"},{"type":"function","name":"totalPrimaryPositionSubsidies","inputs":[],"outputs":[{"name":"","type":"uint256","internalType":"uint256"}],"stateMutability":"view"},{"type":"function","name":"uri","inputs":[{"name":"id","type":"uint256","internalType":"uint256"}],"outputs":[{"name":"","type":"string","internalType":"string"}],"stateMutability":"view"},{"type":"event","name":"ApprovalForAll","inputs":[{"name":"owner","type":"address","indexed":true,"internalType":"address"},{"name":"operator","type":"address","indexed":true,"internalType":"address"},{"name":"approved","type":"bool","indexed":false,"internalType":"bool"}],"anonymous":false},{"type":"event","name":"ContestActivated","inputs":[],"anonymous":false},{"type":"event","name":"ContestCancelled","inputs":[],"anonymous":false},{"type":"event","name":"ContestClosed","inputs":[],"anonymous":false},{"type":"event","name":"ContestLocked","inputs":[],"anonymous":false},{"type":"event","name":"ContestSettled","inputs":[{"name":"winningEntries","type":"uint256[]","indexed":false,"internalType":"uint256[]"},{"name":"payouts","type":"uint256[]","indexed":false,"internalType":"uint256[]"}],"anonymous":false},{"type":"event","name":"PrimaryMerkleRootUpdated","inputs":[{"name":"newRoot","type":"bytes32","indexed":false,"internalType":"bytes32"}],"anonymous":false},{"type":"event","name":"PrimaryPayoutClaimed","inputs":[{"name":"owner","type":"address","indexed":true,"internalType":"address"},{"name":"entryId","type":"uint256","indexed":true,"internalType":"uint256"},{"name":"amount","type":"uint256","indexed":false,"internalType":"uint256"}],"anonymous":false},{"type":"event","name":"PrimaryPayoutClaimed","inputs":[{"name":"owner","type":"address","indexed":true,"internalType":"address"},{"name":"entryId","type":"uint256","indexed":true,"internalType":"uint256"},{"name":"amount","type":"uint256","indexed":false,"internalType":"uint256"}],"anonymous":false},{"type":"event","name":"PrimaryPositionAdded","inputs":[{"name":"owner","type":"address","indexed":true,"internalType":"address"},{"name":"entryId","type":"uint256","indexed":true,"internalType":"uint256"}],"anonymous":false},{"type":"event","name":"PrimaryPositionAdded","inputs":[{"name":"owner","type":"address","indexed":true,"internalType":"address"},{"name":"entryId","type":"uint256","indexed":true,"internalType":"uint256"}],"anonymous":false},{"type":"event","name":"PrimaryPositionRemoved","inputs":[{"name":"entryId","type":"uint256","indexed":true,"internalType":"uint256"},{"name":"owner","type":"address","indexed":true,"internalType":"address"}],"anonymous":false},{"type":"event","name":"PrimaryPositionRemoved","inputs":[{"name":"entryId","type":"uint256","indexed":true,"internalType":"uint256"},{"name":"owner","type":"address","indexed":true,"internalType":"address"}],"anonymous":false},{"type":"event","name":"SecondaryMerkleRootUpdated","inputs":[{"name":"newRoot","type":"bytes32","indexed":false,"internalType":"bytes32"}],"anonymous":false},{"type":"event","name":"SecondaryPayoutClaimed","inputs":[{"name":"participant","type":"address","indexed":true,"internalType":"address"},{"name":"entryId","type":"uint256","indexed":true,"internalType":"uint256"},{"name":"payout","type":"uint256","indexed":false,"internalType":"uint256"}],"anonymous":false},{"type":"event","name":"SecondaryPayoutClaimed","inputs":[{"name":"participant","type":"address","indexed":true,"internalType":"address"},{"name":"entryId","type":"uint256","indexed":true,"internalType":"uint256"},{"name":"payout","type":"uint256","indexed":false,"internalType":"uint256"}],"anonymous":false},{"type":"event","name":"SecondaryPositionAdded","inputs":[{"name":"participant","type":"address","indexed":true,"internalType":"address"},{"name":"entryId","type":"uint256","indexed":true,"internalType":"uint256"},{"name":"amount","type":"uint256","indexed":false,"internalType":"uint256"},{"name":"tokensReceived","type":"uint256","indexed":false,"internalType":"uint256"}],"anonymous":false},{"type":"event","name":"SecondaryPositionAdded","inputs":[{"name":"participant","type":"address","indexed":true,"internalType":"address"},{"name":"entryId","type":"uint256","indexed":true,"internalType":"uint256"},{"name":"amount","type":"uint256","indexed":false,"internalType":"uint256"},{"name":"tokensReceived","type":"uint256","indexed":false,"internalType":"uint256"}],"anonymous":false},{"type":"event","name":"SecondaryPositionRemoved","inputs":[{"name":"participant","type":"address","indexed":true,"internalType":"address"},{"name":"amount","type":"uint256","indexed":false,"internalType":"uint256"}],"anonymous":false},{"type":"event","name":"SecondaryPositionRemoved","inputs":[{"name":"participant","type":"address","indexed":true,"internalType":"address"},{"name":"amount","type":"uint256","indexed":false,"internalType":"uint256"}],"anonymous":false},{"type":"event","name":"TransferBatch","inputs":[{"name":"operator","type":"address","indexed":true,"internalType":"address"},{"name":"from","type":"address","indexed":true,"internalType":"address"},{"name":"to","type":"address","indexed":true,"internalType":"address"},{"name":"ids","type":"uint256[]","indexed":false,"internalType":"uint256[]"},{"name":"amounts","type":"uint256[]","indexed":false,"internalType":"uint256[]"}],"anonymous":false},{"type":"event","name":"TransferSingle","inputs":[{"name":"operator","type":"address","indexed":true,"internalType":"address"},{"name":"from","type":"address","indexed":true,"internalType":"address"},{"name":"to","type":"address","indexed":true,"internalType":"address"},{"name":"id","type":"uint256","indexed":false,"internalType":"uint256"},{"name":"amount","type":"uint256","indexed":false,"internalType":"uint256"}],"anonymous":false},{"type":"event","name":"URI","inputs":[{"name":"value","type":"string","indexed":false,"internalType":"string"},{"name":"id","type":"uint256","indexed":true,"internalType":"uint256"}],"anonymous":false}],"bytecode":{"object":"0x6101803461045257601f61443838819003918201601f19168301916001600160401b038311848410176104565780849261010094604052833981010312610452576100498161046a565b906100566020820161046a565b6040820151606083015160808401519160a08501519360e060c087015196015196600160025560018060a01b0381161561040d576001600160a01b038216156103d7578215610392576103e8841161034d57428511156103175761271086116102d257612710871161028d5761271088116102485760805260a05260c05260e0526101005261012052610140526101605260ff1960035416600355604051613fb9908161047f823960805181818161055b01528181610c5f01528181610f65015281816112df0152818161163a015281816118f501528181611d4601528181611ee7015281816122a401528181612b8c0152612f73015260a05181818161082d01528181610dfb015281816111c50152818161187401528181611e4e01528181611ea101528181611f7b0152818161259b01528181612f2301528181613207015261332d015260c051818181610b3601528181611b8a0152611c38015260e05181818161036101528181610b5d01528181611c60015281816120ed0152612562015261010051818181610b0e0152818161175f015281816118bb0152611a1c0152610120518181816103a7015281816110d5015261213401526101405181818161107e01528181613c5d0152613dfd0152610160518181816117b601528181613caa01528181613d000152613e380152f35b60405162461bcd60e51b815260206004820152601360248201527f496e76616c6964207375627369647920636170000000000000000000000000006044820152606490fd5b60405162461bcd60e51b815260206004820152601460248201527f496e76616c69642074617267657420726174696f0000000000000000000000006044820152606490fd5b60405162461bcd60e51b815260206004820152601c60248201527f496e76616c696420706f736974696f6e20626f6e7573207368617265000000006044820152606490fd5b60405162461bcd60e51b815260206004820152600e60248201526d115e1c1a5c9e481a5b881c185cdd60921b6044820152606490fd5b60405162461bcd60e51b815260206004820152601360248201527f4f7261636c652066656520746f6f2068696768000000000000000000000000006044820152606490fd5b60405162461bcd60e51b815260206004820152601660248201527f496e76616c6964206465706f73697420616d6f756e74000000000000000000006044820152606490fd5b60405162461bcd60e51b815260206004820152600e60248201526d496e76616c6964206f7261636c6560901b6044820152606490fd5b60405162461bcd60e51b815260206004820152601560248201527f496e76616c6964207061796d656e7420746f6b656e00000000000000000000006044820152606490fd5b5f80fd5b634e487b7160e01b5f52604160045260245ffd5b51906001600160a01b03821682036104525756fe6080806040526004361015610012575f80fd5b5f3560e01c908162fdd58e146134a75750806301ffc9a714613439578063060d4f7a1461341c5780630e89341c146133df5780631db0e66714613317578063219200f9146132fa57806324f9cc4c146131f15780632eb2c2d614612fa25780633013ce2914612f5e5780633789a2fb14612ee65780633a2babc214612e9c5780634034b06014612ae35780634e1273f4146129e25780634ee837a6146129c55780634fd34950146129ab578063563930e7146125855780635c76fda71461254b578063655984f3146125075780636932b382146124dd5780636bcd1f95146124b357806374d342141461202c57806375f2500614611f655780637680a51e14611f4b5780637ae45fe314611e7d5780637dc0d1d014611e395780637e8f123414611bca578063829e4c6414611bad578063933b128214611b735780639455937a14611b4a57806395082d2514611b2d5780639a9a5d9d14611b10578063a01e4a1f14611a0a578063a094c63214611862578063a22cb465146117d9578063a5b3f3f61461179f578063a7e2bc5414611782578063ade6e2aa14611748578063ae4c8ba914611726578063af19e0d514611518578063af1d9197146114fb578063b30906d4146114d2578063b3563570146114a8578063b9937e301461148b578063bf6bbf0914611447578063c19d93fb1461141e578063c53e21e4146113f4578063c8d227001461118f578063c8d5c1b114611165578063c9a496aa146110f8578063cb6381da146110be578063d09685b0146110a1578063d601eef314611067578063d6a74ce014610dc1578063df1ef4c614610d8f578063e1a4521814610d73578063e1db226a14610a8b578063e985e9c514610a34578063ed4af81f14610a17578063f242432a14610868578063fc8c28e1146107f05763fed76325146102ba575f80fd5b346107ec5760603660031901126107ec576004356024356044356001600160401b0381116107ec576102f3610310913690600401613535565b906103026001600254146137c6565b600280556016543390613b08565b60ff6003541660068110156107d85780159081156107cd575b501561077e575f828152600660205260409020546001600160a01b03161561072f57610356811515613a89565b61039c6127106103867f00000000000000000000000000000000000000000000000000000000000000008461382a565b04610393816004546136ec565b600455826136df565b6103d46127106103cc7f00000000000000000000000000000000000000000000000000000000000000008461382a565b0480926136df565b6103e76103e082613dc3565b80926136df565b90845f52600c60205260405f2054825f82135f146107245761040891613e5d565b9283156106c45780151590816106a6575b821515918261067c575b335f908152601260205260409020885f5260205260405f206104468882546136ec565b9055875f52600c60205260405f20805490878201915f89841291129080158216911516176106685755876040518881528760208201527fa00dafed0dbb4c386c4a62b78c2bcbf149dcebfed234ad200c7e6631854d48b060403392a3610653575b5061063e575b506104ba81600e546136ec565b600e55835f52600d6020526104d460405f209182546136ec565b9055604051926104e56020856135fa565b5f8452335f525f60205260405f20815f5260205260405f206105088382546136ec565b90556040518181528260208201525f33917fc3d58168c5ae7397731d063d5bbf3d657854427343f4c083240f7aacaa2d0f6260403392a4333b61058f5750506105889150610557331515613787565b30337f00000000000000000000000000000000000000000000000000000000000000006001600160a01b0316613d25565b6001600255005b906020916105cf604051958693849363f23a6e6160e01b85523360048601525f60248601526044850152606484015260a0608484015260a4830190613511565b03815f335af19182156106335761058892610557915f91610604575b506001600160e01b03191663f23a6e6160e01b14613787565b610626915060203d60201161062c575b61061e81836135fa565b810190613747565b5f6105eb565b503d610614565b6040513d5f823e3d90fd5b61064a906008546136ec565b6008555f6104ad565b61065f906011546136ec565b6011555f6104a7565b634e487b7160e01b5f52601160045260245ffd5b335f908152601360205260409020885f5260205260405f2061069f8582546136ec565b9055610423565b865f52601060205260405f206106bd8282546136ec565b9055610419565b60405162461bcd60e51b815260206004820152603260248201527f5061796d656e7420746f6f20736d616c6c3a20696e73756666696369656e7420604482015271746f20707572636861736520746f6b656e7360701b6064820152608490fd5b61040891505f613e5d565b60405162461bcd60e51b815260206004820152602160248201527f456e74727920646f6573206e6f74206578697374206f722077697468647261776044820152603760f91b6064820152608490fd5b60405162461bcd60e51b815260206004820152602160248201527f5365636f6e6461727920706f736974696f6e73206e6f7420617661696c61626c6044820152606560f81b6064820152608490fd5b60019150145f610329565b634e487b7160e01b5f52602160045260245ffd5b5f80fd5b346107ec5760203660031901126107ec577f1f3ffb5a38f057a21fbb6b9c891954827a2657844fbc0ae99188cce46f059e2b602060043561085b337f00000000000000000000000000000000000000000000000000000000000000006001600160a01b03161461361b565b80600b55604051908152a1005b346107ec5760a03660031901126107ec576108816134e5565b6108896134fb565b6064356044356084356001600160401b0381116107ec576108ae903690600401613565565b946001600160a01b03169033821480156109f5575b6108cc90613692565b815f525f60205260405f20835f5260205260405f206108ec8582546136df565b905560018060a01b03851694855f525f60205260405f20845f5260205260405f206109188682546136ec565b905585836040518681528760208201527fc3d58168c5ae7397731d063d5bbf3d657854427343f4c083240f7aacaa2d0f6260403392a43b610965575050505061096391501515613787565b005b60209492916109a95f926040519889978896879563f23a6e6160e01b875233600488015260248701526044860152606485015260a0608485015260a4840191613767565b03925af1801561063357610963915f916109d657506001600160e01b03191663f23a6e6160e01b14613787565b6109ef915060203d60201161062c5761061e81836135fa565b826105eb565b505f82815260016020908152604080832033845290915290205460ff166108c3565b346107ec575f3660031901126107ec576020600b54604051908152f35b346107ec5760403660031901126107ec57610a4d6134e5565b610a556134fb565b9060018060a01b03165f52600160205260405f209060018060a01b03165f52602052602060ff60405f2054166040519015158152f35b346107ec5760403660031901126107ec576004356024356001600160401b0381116107ec57610ac1610ade913690600401613535565b90610ad06001600254146137c6565b60028055600b543390613b08565b60ff6003541660068110156107d857610d3b575f818152600660205260409020546001600160a01b0316610cff577f0000000000000000000000000000000000000000000000000000000000000000421015610cc8577f0000000000000000000000000000000000000000000000000000000000000000612710610b827f00000000000000000000000000000000000000000000000000000000000000008361382a565b0491610b90836004546136ec565b600455610ba5610ba084846136df565b613c1d565b906005549368010000000000000000851015610cb457610c1b83610c16610c5293610bd98960016105889b016005556135e2565b81549060031b9088821b915f19901b1916179055855f52600660205260405f20336bffffffffffffffffffffffff60a01b825416179055876136df565b6136df565b8315159283610ca1575b337f4a3a30e0139991c1b1492b4364701af9484bb9032a696c2b8c748a1e51f2fd175f80a36007546136ec565b600755610c8c575b5030337f00000000000000000000000000000000000000000000000000000000000000006001600160a01b0316613d25565b610c9890600f546136ec565b600f5582610c5a565b805f5260096020528460405f2055610c25565b634e487b7160e01b5f52604160045260245ffd5b60405162461bcd60e51b815260206004820152600f60248201526e10dbdb9d195cdd08195e1c1a5c9959608a1b6044820152606490fd5b60405162461bcd60e51b8152602060048201526014602482015273456e74727920616c72656164792065786973747360601b6044820152606490fd5b60405162461bcd60e51b815260206004820152601060248201526f21b7b73a32b9ba103737ba1037b832b760811b6044820152606490fd5b346107ec575f3660031901126107ec5760206040516127108152f35b346107ec5760203660031901126107ec576004355f526006602052602060018060a01b0360405f205416604051908152f35b346107ec5760403660031901126107ec576004356001600160401b0381116107ec57610df1903690600401613535565b90602435610e29337f00000000000000000000000000000000000000000000000000000000000000006001600160a01b03161461361b565b610e376001600254146137c6565b6002805560ff6003541660068110156107d8576003610e5691146138a5565b610e6460ff601554166138e7565b601454810361102e57805f52600c60205260405f20548015610ffd57610e8f600e54600f54906136ec565b5f5b858110610e9f576001600255005b8084610eb6610eb16001948a8a6136cf565b613816565b838060a01b03811690815f525f60205260405f20835f52602052858760405f205480610ee9575b50505050505001610e91565b610f1f9281610efc610f1a93898861397c565b875f52600c60205260405f20610f13828254613929565b905561382a565b61383d565b9081610f2e575b878791610edd565b81610f8a7fe256ef8b7b6eaeb621f7e7ca3b683f124df401cb260bbaccf0540299944b858a936020938a610f9a575b898060a01b037f0000000000000000000000000000000000000000000000000000000000000000166139de565b604051908152a384888080610f26565b600e54610fab8c610f1a838661382a565b610fb581856136df565b918111610ff357610fc890600e546136df565b600e555b600f548111610fe957610fe190600f546136df565b600f55610f5d565b505f600f55610f5d565b505f600e55610fcc565b60405162461bcd60e51b81526020600482015260096024820152684e6f20737570706c7960b81b6044820152606490fd5b60405162461bcd60e51b81526020600482015260116024820152704e6f742077696e6e696e6720656e74727960781b6044820152606490fd5b346107ec575f3660031901126107ec5760206040517f00000000000000000000000000000000000000000000000000000000000000008152f35b346107ec575f3660031901126107ec576020600554604051908152f35b346107ec575f3660031901126107ec5760206040517f00000000000000000000000000000000000000000000000000000000000000008152f35b346107ec5760203660031901126107ec57600435600554811015611130576111216020916135e2565b90549060031b1c604051908152f35b60405162461bcd60e51b815260206004820152600d60248201526c092dcecc2d8d2c840d2dcc8caf609b1b6044820152606490fd5b346107ec5760203660031901126107ec576004355f52600a602052602060405f2054604051908152f35b346107ec5760203660031901126107ec576004356001600160401b0381116107ec576111bf903690600401613535565b6111f3337f00000000000000000000000000000000000000000000000000000000000000006001600160a01b03161461361b565b6112016001600254146137c6565b6002805560ff6003541660068110156107d857600361122091146138a5565b5f5b818110611230576001600255005b61123b8183856136cf565b355f818152600660205260409020546001600160a01b0316919082156113af57600192815f52600a60205260405f2054825f52601060205260405f205461128281836136ec565b80611293575b505050505001611222565b7e89742e8fcde5f6c48a17ec50347f2b2d98d85a17abe162b4cd552516f752dd92602092865f52600a84525f60408120558061138d575b5080611315575b506113048185898060a01b037f0000000000000000000000000000000000000000000000000000000000000000166139de565b604051908152a38480808080611288565b600754906008549161132783826136ec565b80611335575b5050506112d1565b61134661134d91610f1a848661382a565b80936136df565b918082106113855761135e916136df565b60075580821061137d57611371916136df565b6008558980808061132d565b50505f611371565b50505f61135e565b6113a690875f52601085525f60408120556011546136df565b6011558a6112ca565b60405162461bcd60e51b815260206004820152601a60248201527f456e7472792077697468647261776e206f7220696e76616c69640000000000006044820152606490fd5b346107ec5760203660031901126107ec576004355f526010602052602060405f2054604051908152f35b346107ec575f3660031901126107ec5760ff6003541660405160068210156107d8576020918152f35b346107ec5760403660031901126107ec576001600160a01b036114686134e5565b165f52601260205260405f206024355f52602052602060405f2054604051908152f35b346107ec575f3660031901126107ec576020600754604051908152f35b346107ec5760203660031901126107ec576004355f526009602052602060405f2054604051908152f35b346107ec5760203660031901126107ec576004356005548110156107ec576111216020916135e2565b346107ec575f3660031901126107ec576020601454604051908152f35b346107ec5760203660031901126107ec5760043561153a6001600254146137c6565b6002805560ff6003541660068110156107d85761159e90825f52600a60205260405f2054835f526010602052611577600360405f205493146138a5565b5f84815260066020526040902054611599906001600160a01b03163314613aca565b6136ec565b156116f55780610588915f52600a60205260405f2054815f52601060205260405f20546115cb81836136ec565b92805f52600a6020525f604081205581151590816116e2575b6040518581527e89742e8fcde5f6c48a17ec50347f2b2d98d85a17abe162b4cd552516f752dd60203392a36116cd575b5060075490611625600854836136ec565b801515806116c4575b611667575b50339150507f00000000000000000000000000000000000000000000000000000000000000006001600160a01b03166139de565b6103e061167891610f1a858561382a565b9181116116ba5761168b906007546136df565b6007555b60085481116116b0576116a4906008546136df565b6008555b828080611633565b505f6008556116a8565b505f60075561168f565b5081151561162e565b6116d9906011546136df565b60115583611614565b805f5260106020525f60408120556115e4565b60405162461bcd60e51b8152602060048201526009602482015268139bc81c185e5bdd5d60ba1b6044820152606490fd5b346107ec575f3660031901126107ec57602060ff601554166040519015158152f35b346107ec575f3660031901126107ec5760206040517f00000000000000000000000000000000000000000000000000000000000000008152f35b346107ec575f3660031901126107ec576020600854604051908152f35b346107ec575f3660031901126107ec5760206040517f00000000000000000000000000000000000000000000000000000000000000008152f35b346107ec5760403660031901126107ec576117f26134e5565b602435908115158092036107ec57335f52600160205260405f2060018060a01b0382165f5260205260405f2060ff1981541660ff841617905560405191825260018060a01b0316907f17307eab39ab6107e8899845ad3d59bd9653f200f220920489ca2b5937696c3160203392a3005b346107ec575f3660031901126107ec577f00000000000000000000000000000000000000000000000000000000000000006118a7336001600160a01b0383161461361b565b6118b56001600254146137c6565b600280557f000000000000000000000000000000000000000000000000000000000000000042106119d0576040516370a0823160e01b81523060048201527f00000000000000000000000000000000000000000000000000000000000000006001600160a01b031691602082602481865afa918215610633575f9261199c575b5081611942576001600255005b611970925f6007555f6008555f6011555f600e555f600f555f600455600560ff1960035416176003556139de565b7fef19c40e684c836035e6598f5d86819dfec89371571efdeed7947339739711435f80a1808080610588565b9091506020813d6020116119c8575b816119b8602093836135fa565b810103126107ec57519083611935565b3d91506119ab565b60405162461bcd60e51b8152602060048201526012602482015271115e1c1a5c9e481b9bdd081c995858da195960721b6044820152606490fd5b346107ec575f3660031901126107ec577f00000000000000000000000000000000000000000000000000000000000000004210611add5760ff6003541660068110156107d85760038114159081611ad1575b5015611a9a57611a74600460ff196003541617600355565b7f9237e8f0d5063a695b8695e82c82bc24d15591de9d04449771a6ea4b128317375f80a1005b60405162461bcd60e51b815260206004820152600f60248201526e105b1c9958591e481cd95d1d1b1959608a1b6044820152606490fd5b60059150141581611a5c565b60405162461bcd60e51b815260206004820152600b60248201526a139bdd08195e1c1a5c995960aa1b6044820152606490fd5b346107ec575f3660031901126107ec576020601654604051908152f35b346107ec575f3660031901126107ec576020604051620f42408152f35b346107ec575f3660031901126107ec576020611b6b600e54600f54906136ec565b604051908152f35b346107ec575f3660031901126107ec5760206040517f00000000000000000000000000000000000000000000000000000000000000008152f35b346107ec575f3660031901126107ec576020600e54604051908152f35b346107ec5760203660031901126107ec57600435611bec6001600254146137c6565b6002805560ff6003541660068110156107d8578015908115611e2e575b5015611dd0575f818152600660205260409020546105889190611c36906001600160a01b03163314613aca565b7f000000000000000000000000000000000000000000000000000000000000000090612710611c857f00000000000000000000000000000000000000000000000000000000000000008461382a565b04611c92816004546136df565b6004555f82815260066020526040902080546001600160a01b031981169091556001600160a01b031690611cc690846136df565b91805f526009602052611cde60405f205480946136df565b92611d308115159485611dbd575b835f52601060205260405f2054948515159485611daa575b7fa11660be5ca5ef93a56a1f22e4de3d92bcb1727897a5e70a7262c26e256f3a405f80a36007546136df565b9384600755611d95575b50611d73575b503390507f00000000000000000000000000000000000000000000000000000000000000006001600160a01b03166139de565b611d8b91611d83826011546136df565b6011556136ec565b6007558280611d40565b611da190600f546136df565b600f5585611d3a565b805f5260106020525f6040812055611d04565b835f5260096020525f6040812055611cec565b60405162461bcd60e51b815260206004820152603060248201527f43616e6e6f74207769746864726177202d20636f6e7465737420696e2070726f60448201526f19dc995cdcc81bdc881cd95d1d1b195960821b6064820152608490fd5b600491501482611c09565b346107ec575f3660031901126107ec576040517f00000000000000000000000000000000000000000000000000000000000000006001600160a01b03168152602090f35b346107ec575f3660031901126107ec57611e9b6001600254146137c6565b600280557f0000000000000000000000000000000000000000000000000000000000000000611ed4336001600160a01b0383161461361b565b6004548015611f14575f600455610588917f00000000000000000000000000000000000000000000000000000000000000006001600160a01b03166139de565b60405162461bcd60e51b815260206004820152600f60248201526e4e6f2066656520746f20636c61696d60881b6044820152606490fd5b346107ec575f3660031901126107ec576020611b6b613a6e565b346107ec575f3660031901126107ec57611fa9337f00000000000000000000000000000000000000000000000000000000000000006001600160a01b03161461361b565b60ff6003541660068110156107d857600103611ff257600260ff1960035416176003557fca4f15905dfed40aa7885e1be889ff7da045bd49fc916c3a40cf8b0a3db7636a5f80a1005b60405162461bcd60e51b8152602060048201526012602482015271436f6e74657374206e6f742061637469766560701b6044820152606490fd5b346107ec5760403660031901126107ec57600435602435906120526001600254146137c6565b60028055335f525f60205260405f20815f5260205260405f205460ff6003541660068110156107d85780159081156124a8575b501561244a575f828152600660205260409020546001600160a01b03161561240e576120b2831515613a89565b8281106123d25761058892335f52601260205260405f20835f526020526120e182610f1a8360405f205461382a565b926121286127106121127f00000000000000000000000000000000000000000000000000000000000000008761382a565b0461211f816004546136df565b600455856136df565b916121616127106121597f00000000000000000000000000000000000000000000000000000000000000008661382a565b0480946136df565b335f52601360205260405f20835f5260205261218585610f1a8460405f205461382a565b908082116123ca575b81612198916136df565b91835f52600c6020525f6040812054135f146123c357835f52600c60205260405f2054945b5f95801515806123ae575b612362575b508495966121df83612296973361397c565b61220e8215159182612344575b335f908152601260205260409020895f52602052610f1a8560405f205461382a565b335f908152601260205260409020885f5260205260405f206122318282546136df565b9055841515938461231a575b885f52600c60205261225460405f20918254613929565b90556040519081527f9ab0480f2900ac3d2b39009247d33515552abee0ba84caa8a3f1c6435fbb266e60203392a2612305575b506122f0575b50600e546136df565b600e55816122d157503390507f00000000000000000000000000000000000000000000000000000000000000006001600160a01b03166139de565b5f52600d6020526122e760405f209182546136df565b90558280611d40565b6122fc906008546136df565b6008558661228d565b612311906011546136df565b60115588612287565b335f908152601360205260409020895f5260205260405f2061233d8782546136df565b905561223d565b885f52601060205260405f2061235b8582546136df565b90556121ec565b61237e919650855f52600d602052610f1a8360405f205461382a565b94845f52600d60205260405f20548611612399575b896121cd565b5f858152600d60205260409020549550612393565b50855f52600d60205260405f205415156121c8565b5f946121bd565b90508061218e565b60405162461bcd60e51b8152602060048201526014602482015273496e73756666696369656e742062616c616e636560601b6044820152606490fd5b60405162461bcd60e51b8152602060048201526014602482015273115b9d1c9e48191bd95cc81b9bdd08195e1a5cdd60621b6044820152606490fd5b60405162461bcd60e51b815260206004820152603060248201527f43616e6e6f74207769746864726177202d20636f6d7065746974696f6e20737460448201526f185c9d1959081bdc881cd95d1d1b195960821b6064820152608490fd5b600491501484612085565b346107ec5760203660031901126107ec576004355f52600d602052602060405f2054604051908152f35b346107ec5760203660031901126107ec576004355f52600c602052602060405f2054604051908152f35b346107ec5760403660031901126107ec576001600160a01b036125286134e5565b165f52601360205260405f206024355f52602052602060405f2054604051908152f35b346107ec575f3660031901126107ec5760206040517f00000000000000000000000000000000000000000000000000000000000000008152f35b346107ec5761259336613592565b92906125c9337f00000000000000000000000000000000000000000000000000000000000000006001600160a01b03161461361b565b6125d76001600254146137c6565b6002805560ff6003541660068110156107d857600181149081156129a0575b501561295b578215612916578383036128d95760055483116128a1575f805b85821061282b576127109150036127e657600360ff1981541617600355612641600754600854906136ec565b5f5b8481106127b2575050813580601455600160ff196015541617601555805f52600c60205260405f205461267b600e54600f54906136ec565b9081151590816127a9575b506126ca575b50507f0fed27f5e3cd741c181cc0d3b0c47df2013638faa8b7aa7084de3946098eb78e936126c0916040519485948561371d565b0390a16001600255005b5f600e555f600f555f805b86811061274457509181836126c095937f0fed27f5e3cd741c181cc0d3b0c47df2013638faa8b7aa7084de3946098eb78e99951061271a575b5050509181955061268c565b612723916136df565b905f52600a60205261273a60405f209182546136ec565b905586808061270e565b906127508288886136cf565b359161271061276a612763838c8a6136cf565b358661382a565b048061277d575b506001919250016126d5565b612789816001946136ec565b935f52600a6020526127a060405f209182546136ec565b90558291612771565b90501587612686565b806127c060019287876136cf565b356127106127d2612763848b896136cf565b04905f52600a60205260405f205501612643565b60405162461bcd60e51b815260206004820152601860248201527f5061796f757473206d7573742073756d20746f203130302500000000000000006044820152606490fd5b6128368287856136cf565b351561285c5761285460019161284d8489876136cf565b35906136ec565b910190612615565b60405162461bcd60e51b815260206004820152601960248201527f557365206e6f6e2d7a65726f207061796f757473206f6e6c79000000000000006044820152606490fd5b60405162461bcd60e51b815260206004820152601060248201526f546f6f206d616e792077696e6e65727360801b6044820152606490fd5b60405162461bcd60e51b8152602060048201526015602482015274082e4e4c2f240d8cadccee8d040dad2e6dac2e8c6d605b1b6044820152606490fd5b60405162461bcd60e51b815260206004820152601d60248201527f4d7573742068617665206174206c65617374206f6e652077696e6e65720000006044820152606490fd5b60405162461bcd60e51b815260206004820152601c60248201527f436f6e74657374206e6f7420616374697665206f72206c6f636b6564000000006044820152606490fd5b6002915014856125f6565b346107ec575f3660031901126107ec576020611b6b61385b565b346107ec575f3660031901126107ec576020600454604051908152f35b346107ec576129f036613592565b9291906129fe848314613654565b612a07826137ff565b93612a1560405195866135fa565b828552612a21836137ff565b602086019490601f19013686375f5b848110612a7b578587604051918291602083019060208452518091526040830191905f5b818110612a62575050500390f35b8251845285945060209384019390920191600101612a54565b6001600160a01b03612a91610eb18388866136cf565b165f525f60205260405f20612aa78285876136cf565b355f5260205260405f2054908751811015612acf5760019160208260051b8a01015201612a30565b634e487b7160e01b5f52603260045260245ffd5b346107ec5760203660031901126107ec57600435612b056001600254146137c6565b60028055335f525f60205260405f20815f5260205260405f20549060ff6003541660068110156107d857612b4a90612b45600360ff6015541692146138a5565b6138e7565b5f818152600660205260409020546001600160a01b031615612e49578115612e1857612b7782823361397c565b6040516370a0823160e01b81523060048201527f00000000000000000000000000000000000000000000000000000000000000006001600160a01b0316929091602083602481875afa928315610633575f93612de4575b5060145492600e5491600f54915f945f965f955f95855f52600c60205260405f205492861480612ddb575b612d2d575b50505050506040518481527fe256ef8b7b6eaeb621f7e7ca3b683f124df401cb260bbaccf0540299944b858a60203392a38215159182612ce0575b5050612ccf575b50612c4c576001600255005b6040516370a0823160e01b8152306004820152602081602481855afa908115610633575f91612c9d575b5080612c83575b50610588565b612c96915f600e555f600f5533906139de565b8080612c7d565b90506020813d602011612cc7575b81612cb8602093836135fa565b810103126107ec575182612c76565b3d9150612cab565b612cda9033846139de565b82612c40565b600e548111612d2357612cf590600e546136df565b600e555b600f548111612d1957612d0e90600f546136df565b600f555b8480612c39565b505f600f55612d12565b505f600e55612cf9565b819293949850612d4090612d4b926136ec565b92610f1a848661382a565b96808811612dd3575b5086151580612dca575b612da4575b5050815f52600c602052612d7c60405f20918254613929565b9055805f52600c60205260405f205415612d9b575b8680808080612bfe565b60019450612d91565b612db7939550610f1a919294508661382a565b91612dc283856136df565b918780612d63565b50811515612d5e565b965089612d54565b50821515612bf9565b9092506020813d602011612e10575b81612e00602093836135fa565b810103126107ec57519184612bce565b3d9150612df3565b60405162461bcd60e51b81526020600482015260096024820152684e6f20746f6b656e7360b81b6044820152606490fd5b60405162461bcd60e51b815260206004820152602560248201527f456e74727920646f6573206e6f74206578697374206f72207761732077697468604482015264323930bbb760d91b6064820152608490fd5b346107ec5760203660031901126107ec576004355f818152600c60205260408120541315612eda575f52600c6020526020611b6b60405f2054613941565b506020611b6b5f613941565b346107ec5760203660031901126107ec577fa2877b861a6a177d8c1a4430a6f8716104652f70e5c8fbd58aa775ef96da4a526020600435612f51337f00000000000000000000000000000000000000000000000000000000000000006001600160a01b03161461361b565b80601655604051908152a1005b346107ec575f3660031901126107ec576040517f00000000000000000000000000000000000000000000000000000000000000006001600160a01b03168152602090f35b346107ec5760a03660031901126107ec57612fbb6134e5565b612fc36134fb565b6044356001600160401b0381116107ec57612fe2903690600401613535565b926064356001600160401b0381116107ec57613002903690600401613535565b91906084356001600160401b0381116107ec57613023903690600401613565565b919092613031858914613654565b6001600160a01b03169333851480156131cf575b61304e90613692565b6001600160a01b038716965f5b89811061316957508786887f4a39dc06d4c0dbc64b70af90fd698a233a518aa5d07e595d983b8c0526c8f7fb868d61309b8860405193849333978561371d565b0390a43b6130b55750505050505061096391501515613787565b6130f897935f9361310a602099979461311c946040519c8d9b8c9a8b9963bc197c8160e01b8b523360048c015260248b015260a060448b015260a48a01916136f9565b878103600319016064890152916136f9565b84810360031901608486015291613767565b03925af1801561063357610963915f9161314a575b506001600160e01b03191663bc197c8160e01b14613787565b613163915060203d60201161062c5761061e81836135fa565b82613131565b806131776001928c8b6136cf565b356131838286886136cf565b3590895f525f60205260405f20815f5260205260405f206131a58382546136df565b90558b5f525f60205260405f20905f526020526131c760405f209182546136ec565b90550161305b565b505f85815260016020908152604080832033845290915290205460ff16613045565b346107ec575f3660031901126107ec57613235337f00000000000000000000000000000000000000000000000000000000000000006001600160a01b03161461361b565b60ff6003541660068110156107d8576132b5576005541561328357600160ff1960035416176003557f3927b788a62eb53f7192cd9286f49295f01b938b6afc23aef0af5d035cd853165f80a1005b60405162461bcd60e51b815260206004820152600a6024820152694e6f20656e747269657360b01b6044820152606490fd5b60405162461bcd60e51b815260206004820152601760248201527f436f6e7465737420616c726561647920737461727465640000000000000000006044820152606490fd5b346107ec575f3660031901126107ec576020601154604051908152f35b346107ec575f3660031901126107ec5761335b337f00000000000000000000000000000000000000000000000000000000000000006001600160a01b03161461361b565b60ff6003541660068110156107d857600381141590816133d3575b501561338e57611a74600460ff196003541617600355565b60405162461bcd60e51b815260206004820152601f60248201527f436f6e7465737420736574746c6564202d2063616e6e6f742063616e63656c006044820152606490fd5b60059150141581613376565b346107ec5760203660031901126107ec576134186040516134016020826135fa565b5f8152604051918291602083526020830190613511565b0390f35b346107ec575f3660031901126107ec576020600f54604051908152f35b346107ec5760203660031901126107ec5760043563ffffffff60e01b81168091036107ec576020906301ffc9a760e01b8114908115613496575b8115613485575b506040519015158152f35b6303a24d0760e21b1490508261347a565b636cdb3d1360e11b81149150613473565b346107ec5760403660031901126107ec576020906001600160a01b036134cb6134e5565b165f525f825260405f206024355f52825260405f20548152f35b600435906001600160a01b03821682036107ec57565b602435906001600160a01b03821682036107ec57565b805180835260209291819084018484015e5f828201840152601f01601f1916010190565b9181601f840112156107ec578235916001600160401b0383116107ec576020808501948460051b0101116107ec57565b9181601f840112156107ec578235916001600160401b0383116107ec57602083818601950101116107ec57565b60406003198201126107ec576004356001600160401b0381116107ec57816135bc91600401613535565b92909291602435906001600160401b0382116107ec576135de91600401613535565b9091565b600554811015612acf5760055f5260205f2001905f90565b90601f801991011681019081106001600160401b03821117610cb457604052565b1561362257565b60405162461bcd60e51b815260206004820152600a6024820152694e6f74206f7261636c6560b01b6044820152606490fd5b1561365b57565b60405162461bcd60e51b815260206004820152600f60248201526e0988a9c8ea890be9a92a69a82a8869608b1b6044820152606490fd5b1561369957565b60405162461bcd60e51b815260206004820152600e60248201526d1393d517d055551213d49256915160921b6044820152606490fd5b9190811015612acf5760051b0190565b9190820391821161066857565b9190820180921161066857565b81835290916001600160fb1b0383116107ec5760209260051b809284830137010190565b92906137369061374495936040865260408601916136f9565b9260208185039101526136f9565b90565b908160209103126107ec57516001600160e01b0319811681036107ec5790565b908060209392818452848401375f828201840152601f01601f1916010190565b1561378e57565b60405162461bcd60e51b815260206004820152601060248201526f155394d0519157d49150d2541251539560821b6044820152606490fd5b156137cd57565b60405162461bcd60e51b815260206004820152600a6024820152695245454e5452414e435960b01b6044820152606490fd5b6001600160401b038111610cb45760051b60200190565b356001600160a01b03811681036107ec5790565b8181029291811591840414171561066857565b8115613847570490565b634e487b7160e01b5f52601260045260245ffd5b613863613a6e565b61387b613875600e54600f54906136ec565b826136ec565b801561389f576127108202918083046127101490151715610668576137449161383d565b50505f90565b156138ac57565b60405162461bcd60e51b815260206004820152601360248201527210dbdb9d195cdd081b9bdd081cd95d1d1b1959606a1b6044820152606490fd5b156138ee57565b60405162461bcd60e51b815260206004820152601360248201527213585c9ad95d081b9bdd081c995cdbdb1d9959606a1b6044820152606490fd5b81810392915f13801582851316918412161761066857565b633b9aca0061395191048061382a565b8080046001148115171561066857670de0b6b3a76400009004620f42400180620f4240116106685790565b905f929160018060a01b0316918284528360205260408420828552602052604084206139a98282546136df565b905560405191825260208201527fc3d58168c5ae7397731d063d5bbf3d657854427343f4c083240f7aacaa2d0f6260403392a4565b60405163a9059cbb60e01b81526001600160a01b03909216600483015260248201929092526020905f9060449082855af19081601f3d1160015f5114161516613a61575b5015613a2a57565b60405162461bcd60e51b815260206004820152600f60248201526e1514905394d1915497d19052531151608a1b6044820152606490fd5b3b153d171590505f613a22565b613744613a80600754600854906136ec565b601154906136ec565b15613a9057565b60405162461bcd60e51b81526020600482015260126024820152710416d6f756e74206d757374206265203e20360741b6044820152606490fd5b15613ad157565b60405162461bcd60e51b815260206004820152600f60248201526e2737ba1032b73a393c9037bbb732b960891b6044820152606490fd5b92919083613b17575b50505050565b60405160208101916bffffffffffffffffffffffff199060601b16825260148152613b436034826135fa565b519020613b4f836137ff565b91613b5d60405193846135fa565b83835260208301809460051b8201913683116107ec57905b828210613c0d575050509080519283613bd7575b5050905003613b9b575f808080613b11565b60405162461bcd60e51b815260206004820152601460248201527324b73b30b634b21036b2b935b63290383937b7b360611b6044820152606490fd5b9260051b01602001905b8251811160051b90815260208351911852602060405f20920191818310613be157915050805f80613b89565b8135815260209182019101613b75565b80158015613cfd575b613cf857613c32613a6e565b613c4e82611599613c48600e54600f54906136ec565b846136ec565b8015613cf157613c82612710917f00000000000000000000000000000000000000000000000000000000000000009061382a565b0480613c8e84846136ec565b1115613cf157610c1683613ca1936136ec565b90612710613ccf7f00000000000000000000000000000000000000000000000000000000000000008361382a565b04808311613ce9575b50808211613ce4575090565b905090565b91505f613cd8565b5050505f90565b505f90565b507f000000000000000000000000000000000000000000000000000000000000000015613c26565b6040516323b872dd60e01b81526001600160a01b03928316600482015292909116602483015260448201929092526020905f9060649082855af19081601f3d1160015f5114161516613db6575b5015613d7a57565b60405162461bcd60e51b81526020600482015260146024820152731514905394d1915497d19493d357d1905253115160621b6044820152606490fd5b3b153d171590505f613d72565b80158015613e35575b613cf857613dd8613a6e565b613dee82611599613c48600e54600f54906136ec565b8015613cf157613e22612710917f00000000000000000000000000000000000000000000000000000000000000009061382a565b049080821115613cf157613ca1916136df565b507f000000000000000000000000000000000000000000000000000000000000000015613dcc565b811561389f57613e6c81613941565b620f4240830290838204620f42400361066857613e889161383d565b918260011c928060011b908082046002149015171561066857905f925b60328410613eb5575b5050505090565b909192936001810180821161066857841115613f0557613ed584826136ec565b60011c9083613ee48385613f0b565b1015613ef95750600190945b01929190613ea5565b94935060019093613ef0565b93613eae565b90801561389f57613f1c90826136ec565b90613f2782826136ec565b60011c613f4f613f3f613f3984613941565b92613941565b92613f4985613941565b946136df565b906001600160fe1b038316830361066857625b8d8093611599613f7992613f7f9560021b906136ec565b9061382a565b049056fea26469706673582212203398b9eaced525c440c88c0c57cd9c1e33865ca90eb1f56f08241cec79e8609964736f6c634300081a0033","linkReferences":{}},"methodIdentifiers":{"BPS_DENOMINATOR()":"e1a45218","PRICE_PRECISION()":"95082d25","accumulatedOracleFee()":"4ee837a6","activateContest()":"24f9cc4c","addPrimaryPosition(uint256,bytes32[])":"e1db226a","addSecondaryPosition(uint256,uint256,bytes32[])":"fed76325","balanceOf(address,uint256)":"00fdd58e","balanceOfBatch(address[],uint256[])":"4e1273f4","calculateSecondaryPrice(uint256)":"3a2babc2","cancelContest()":"1db0e667","cancelExpired()":"a01e4a1f","claimOracleFee()":"7ae45fe3","claimPrimaryPayout(uint256)":"af19e0d5","claimSecondaryPayout(uint256)":"4034b060","closeContest()":"a094c632","entries(uint256)":"b30906d4","entryCollateral(uint256)":"6bcd1f95","entryOwner(uint256)":"df1ef4c6","expiryTimestamp()":"ade6e2aa","getEntriesCount()":"d09685b0","getEntryAtIndex(uint256)":"c9a496aa","getPrimarySideBalance()":"7680a51e","getPrimarySideShareBps()":"4fd34950","getSecondarySideBalance()":"9455937a","isApprovedForAll(address,address)":"e985e9c5","lockContest()":"75f25006","maxCrossSubsidyBps()":"a5b3f3f6","netPosition(uint256)":"6932b382","oracle()":"7dc0d1d0","oracleFeeBps()":"5c76fda7","paymentToken()":"3013ce29","positionBonusShareBps()":"cb6381da","primaryDepositAmount()":"933b1282","primaryMerkleRoot()":"ed4af81f","primaryPositionSubsidy(uint256)":"c53e21e4","primaryPrizePool()":"b9937e30","primaryPrizePoolPayouts(uint256)":"c8d5c1b1","primaryPrizePoolSubsidy()":"a7e2bc54","primaryToSecondarySubsidy(uint256)":"b3563570","pushPrimaryPayouts(uint256[])":"c8d22700","pushSecondaryPayouts(address[],uint256)":"d6a74ce0","removePrimaryPosition(uint256)":"7e8f1234","removeSecondaryPosition(uint256,uint256)":"74d34214","safeBatchTransferFrom(address,address,uint256[],uint256[],bytes)":"2eb2c2d6","safeTransferFrom(address,address,uint256,uint256,bytes)":"f242432a","secondaryDepositedPerEntry(address,uint256)":"bf6bbf09","secondaryMarketResolved()":"ae4c8ba9","secondaryMerkleRoot()":"9a9a5d9d","secondaryPrizePool()":"829e4c64","secondaryPrizePoolSubsidy()":"060d4f7a","secondaryToPrimarySubsidy(address,uint256)":"655984f3","secondaryWinningEntry()":"af1d9197","setApprovalForAll(address,bool)":"a22cb465","setPrimaryMerkleRoot(bytes32)":"fc8c28e1","setSecondaryMerkleRoot(bytes32)":"3789a2fb","settleContest(uint256[],uint256[])":"563930e7","state()":"c19d93fb","supportsInterface(bytes4)":"01ffc9a7","targetPrimaryShareBps()":"d601eef3","totalPrimaryPositionSubsidies()":"219200f9","uri(uint256)":"0e89341c"},"id":1}